{
	"contracts/proxyTest.sol": {
		"Proxy": {
			"abi": [
				{
					"inputs": [
						{
							"internalType": "address",
							"name": "initialImplementation",
							"type": "address"
						}
					],
					"stateMutability": "nonpayable",
					"type": "constructor"
				},
				{
					"stateMutability": "payable",
					"type": "fallback"
				},
				{
					"inputs": [],
					"name": "currentImplementation",
					"outputs": [
						{
							"internalType": "address",
							"name": "",
							"type": "address"
						}
					],
					"stateMutability": "view",
					"type": "function"
				},
				{
					"inputs": [],
					"name": "owner",
					"outputs": [
						{
							"internalType": "address",
							"name": "",
							"type": "address"
						}
					],
					"stateMutability": "view",
					"type": "function"
				},
				{
					"inputs": [
						{
							"internalType": "address",
							"name": "newImplementation",
							"type": "address"
						}
					],
					"name": "upgradeTo",
					"outputs": [],
					"stateMutability": "nonpayable",
					"type": "function"
				},
				{
					"stateMutability": "payable",
					"type": "receive"
				}
			],
			"devdoc": {
				"kind": "dev",
				"methods": {},
				"version": 1
			},
			"evm": {
				"assembly": "    /* \"contracts/proxyTest.sol\":57:1449  contract Proxy {... */\n  mstore(0x40, 0x80)\n    /* \"contracts/proxyTest.sol\":147:280  constructor(address initialImplementation) {... */\n  callvalue\n  dup1\n  iszero\n  tag_1\n  jumpi\n  0x00\n  dup1\n  revert\ntag_1:\n  pop\n  mload(0x40)\n  sub(codesize, bytecodeSize)\n  dup1\n  bytecodeSize\n  dup4\n  codecopy\n  dup2\n  dup2\n  add\n  0x40\n  mstore\n  dup2\n  add\n  swap1\n  tag_2\n  swap2\n  swap1\n  tag_3\n  jump\t// in\ntag_2:\n    /* \"contracts/proxyTest.sol\":224:245  initialImplementation */\n  dup1\n    /* \"contracts/proxyTest.sol\":200:221  currentImplementation */\n  0x00\n  dup1\n    /* \"contracts/proxyTest.sol\":200:245  currentImplementation = initialImplementation */\n  0x0100\n  exp\n  dup2\n  sload\n  dup2\n  0xffffffffffffffffffffffffffffffffffffffff\n  mul\n  not\n  and\n  swap1\n  dup4\n  0xffffffffffffffffffffffffffffffffffffffff\n  and\n  mul\n  or\n  swap1\n  sstore\n  pop\n    /* \"contracts/proxyTest.sol\":263:273  msg.sender */\n  caller\n    /* \"contracts/proxyTest.sol\":255:260  owner */\n  0x01\n  0x00\n    /* \"contracts/proxyTest.sol\":255:273  owner = msg.sender */\n  0x0100\n  exp\n  dup2\n  sload\n  dup2\n  0xffffffffffffffffffffffffffffffffffffffff\n  mul\n  not\n  and\n  swap1\n  dup4\n  0xffffffffffffffffffffffffffffffffffffffff\n  and\n  mul\n  or\n  swap1\n  sstore\n  pop\n    /* \"contracts/proxyTest.sol\":147:280  constructor(address initialImplementation) {... */\n  pop\n    /* \"contracts/proxyTest.sol\":57:1449  contract Proxy {... */\n  jump(tag_6)\n    /* \"#utility.yul\":88:205   */\ntag_8:\n    /* \"#utility.yul\":197:198   */\n  0x00\n    /* \"#utility.yul\":194:195   */\n  dup1\n    /* \"#utility.yul\":187:199   */\n  revert\n    /* \"#utility.yul\":334:460   */\ntag_10:\n    /* \"#utility.yul\":371:378   */\n  0x00\n    /* \"#utility.yul\":411:453   */\n  0xffffffffffffffffffffffffffffffffffffffff\n    /* \"#utility.yul\":404:409   */\n  dup3\n    /* \"#utility.yul\":400:454   */\n  and\n    /* \"#utility.yul\":389:454   */\n  swap1\n  pop\n    /* \"#utility.yul\":334:460   */\n  swap2\n  swap1\n  pop\n  jump\t// out\n    /* \"#utility.yul\":466:562   */\ntag_11:\n    /* \"#utility.yul\":503:510   */\n  0x00\n    /* \"#utility.yul\":532:556   */\n  tag_20\n    /* \"#utility.yul\":550:555   */\n  dup3\n    /* \"#utility.yul\":532:556   */\n  tag_10\n  jump\t// in\ntag_20:\n    /* \"#utility.yul\":521:556   */\n  swap1\n  pop\n    /* \"#utility.yul\":466:562   */\n  swap2\n  swap1\n  pop\n  jump\t// out\n    /* \"#utility.yul\":568:690   */\ntag_12:\n    /* \"#utility.yul\":641:665   */\n  tag_22\n    /* \"#utility.yul\":659:664   */\n  dup2\n    /* \"#utility.yul\":641:665   */\n  tag_11\n  jump\t// in\ntag_22:\n    /* \"#utility.yul\":634:639   */\n  dup2\n    /* \"#utility.yul\":631:666   */\n  eq\n    /* \"#utility.yul\":621:684   */\n  tag_23\n  jumpi\n    /* \"#utility.yul\":680:681   */\n  0x00\n    /* \"#utility.yul\":677:678   */\n  dup1\n    /* \"#utility.yul\":670:682   */\n  revert\n    /* \"#utility.yul\":621:684   */\ntag_23:\n    /* \"#utility.yul\":568:690   */\n  pop\n  jump\t// out\n    /* \"#utility.yul\":696:839   */\ntag_13:\n    /* \"#utility.yul\":753:758   */\n  0x00\n    /* \"#utility.yul\":784:790   */\n  dup2\n    /* \"#utility.yul\":778:791   */\n  mload\n    /* \"#utility.yul\":769:791   */\n  swap1\n  pop\n    /* \"#utility.yul\":800:833   */\n  tag_25\n    /* \"#utility.yul\":827:832   */\n  dup2\n    /* \"#utility.yul\":800:833   */\n  tag_12\n  jump\t// in\ntag_25:\n    /* \"#utility.yul\":696:839   */\n  swap3\n  swap2\n  pop\n  pop\n  jump\t// out\n    /* \"#utility.yul\":845:1196   */\ntag_3:\n    /* \"#utility.yul\":915:921   */\n  0x00\n    /* \"#utility.yul\":964:966   */\n  0x20\n    /* \"#utility.yul\":952:961   */\n  dup3\n    /* \"#utility.yul\":943:950   */\n  dup5\n    /* \"#utility.yul\":939:962   */\n  sub\n    /* \"#utility.yul\":935:967   */\n  slt\n    /* \"#utility.yul\":932:1051   */\n  iszero\n  tag_27\n  jumpi\n    /* \"#utility.yul\":970:1049   */\n  tag_28\n  tag_8\n  jump\t// in\ntag_28:\n    /* \"#utility.yul\":932:1051   */\ntag_27:\n    /* \"#utility.yul\":1090:1091   */\n  0x00\n    /* \"#utility.yul\":1115:1179   */\n  tag_29\n    /* \"#utility.yul\":1171:1178   */\n  dup5\n    /* \"#utility.yul\":1162:1168   */\n  dup3\n    /* \"#utility.yul\":1151:1160   */\n  dup6\n    /* \"#utility.yul\":1147:1169   */\n  add\n    /* \"#utility.yul\":1115:1179   */\n  tag_13\n  jump\t// in\ntag_29:\n    /* \"#utility.yul\":1105:1179   */\n  swap2\n  pop\n    /* \"#utility.yul\":1061:1189   */\n  pop\n    /* \"#utility.yul\":845:1196   */\n  swap3\n  swap2\n  pop\n  pop\n  jump\t// out\n    /* \"contracts/proxyTest.sol\":57:1449  contract Proxy {... */\ntag_6:\n  dataSize(sub_0)\n  dup1\n  dataOffset(sub_0)\n  0x00\n  codecopy\n  0x00\n  return\nstop\n\nsub_0: assembly {\n        /* \"contracts/proxyTest.sol\":57:1449  contract Proxy {... */\n      mstore(0x40, 0x80)\n      jumpi(tag_1, lt(calldatasize, 0x04))\n      shr(0xe0, calldataload(0x00))\n      dup1\n      0x3659cfe6\n      eq\n      tag_3\n      jumpi\n      dup1\n      0x8da5cb5b\n      eq\n      tag_4\n      jumpi\n      dup1\n      0xd8bd5c29\n      eq\n      tag_5\n      jumpi\n      jump(tag_2)\n    tag_1:\n      jumpi(tag_2, calldatasize)\n      stop\n    tag_2:\n        /* \"contracts/proxyTest.sol\":562:584  address implementation */\n      0x00\n        /* \"contracts/proxyTest.sol\":587:608  currentImplementation */\n      dup1\n      0x00\n      swap1\n      sload\n      swap1\n      0x0100\n      exp\n      swap1\n      div\n      0xffffffffffffffffffffffffffffffffffffffff\n      and\n        /* \"contracts/proxyTest.sol\":562:608  address implementation = currentImplementation */\n      swap1\n      pop\n        /* \"contracts/proxyTest.sol\":652:653  0 */\n      0x00\n        /* \"contracts/proxyTest.sol\":626:654  implementation != address(0) */\n      0xffffffffffffffffffffffffffffffffffffffff\n      and\n        /* \"contracts/proxyTest.sol\":626:640  implementation */\n      dup2\n        /* \"contracts/proxyTest.sol\":626:654  implementation != address(0) */\n      0xffffffffffffffffffffffffffffffffffffffff\n      and\n      sub\n        /* \"contracts/proxyTest.sol\":618:681  require(implementation != address(0), \"Implementation not set\") */\n      tag_10\n      jumpi\n      mload(0x40)\n      0x08c379a000000000000000000000000000000000000000000000000000000000\n      dup2\n      mstore\n      0x04\n      add\n      tag_11\n      swap1\n      tag_12\n      jump\t// in\n    tag_11:\n      mload(0x40)\n      dup1\n      swap2\n      sub\n      swap1\n      revert\n    tag_10:\n        /* \"contracts/proxyTest.sol\":691:708  bytes memory data */\n      0x00\n        /* \"contracts/proxyTest.sol\":711:719  msg.data */\n      dup1\n      calldatasize\n        /* \"contracts/proxyTest.sol\":691:719  bytes memory data = msg.data */\n      dup1\n      dup1\n      0x1f\n      add\n      0x20\n      dup1\n      swap2\n      div\n      mul\n      0x20\n      add\n      mload(0x40)\n      swap1\n      dup2\n      add\n      0x40\n      mstore\n      dup1\n      swap4\n      swap3\n      swap2\n      swap1\n      dup2\n      dup2\n      mstore\n      0x20\n      add\n      dup4\n      dup4\n      dup1\n      dup3\n      dup5\n      calldatacopy\n      0x00\n      dup2\n      dup5\n      add\n      mstore\n      not(0x1f)\n      0x1f\n      dup3\n      add\n      and\n      swap1\n      pop\n      dup1\n      dup4\n      add\n      swap3\n      pop\n      pop\n      pop\n      pop\n      pop\n      pop\n      pop\n      swap1\n      pop\n        /* \"contracts/proxyTest.sol\":933:934  0 */\n      0x00\n        /* \"contracts/proxyTest.sol\":914:915  0 */\n      dup1\n        /* \"contracts/proxyTest.sol\":891:895  data */\n      dup3\n        /* \"contracts/proxyTest.sol\":885:896  mload(data) */\n      mload\n        /* \"contracts/proxyTest.sol\":862:866  0x20 */\n      0x20\n        /* \"contracts/proxyTest.sol\":856:860  data */\n      dup5\n        /* \"contracts/proxyTest.sol\":852:867  add(data, 0x20) */\n      add\n        /* \"contracts/proxyTest.sol\":820:834  implementation */\n      dup6\n        /* \"contracts/proxyTest.sol\":797:802  gas() */\n      gas\n        /* \"contracts/proxyTest.sol\":767:948  delegatecall(... */\n      delegatecall\n        /* \"contracts/proxyTest.sol\":973:989  returndatasize() */\n      returndatasize\n        /* \"contracts/proxyTest.sol\":1065:1069  0x40 */\n      0x40\n        /* \"contracts/proxyTest.sol\":1059:1070  mload(0x40) */\n      mload\n        /* \"contracts/proxyTest.sol\":1107:1111  size */\n      dup2\n        /* \"contracts/proxyTest.sol\":1104:1105  0 */\n      0x00\n        /* \"contracts/proxyTest.sol\":1099:1102  ptr */\n      dup3\n        /* \"contracts/proxyTest.sol\":1084:1112  returndatacopy(ptr, 0, size) */\n      returndatacopy\n        /* \"contracts/proxyTest.sol\":1224:1228  size */\n      dup2\n        /* \"contracts/proxyTest.sol\":1219:1222  ptr */\n      dup2\n        /* \"contracts/proxyTest.sol\":1215:1229  add(ptr, size) */\n      add\n        /* \"contracts/proxyTest.sol\":1209:1213  0x40 */\n      0x40\n        /* \"contracts/proxyTest.sol\":1202:1230  mstore(0x40, add(ptr, size)) */\n      mstore\n        /* \"contracts/proxyTest.sol\":1251:1257  result */\n      dup3\n        /* \"contracts/proxyTest.sol\":1275:1276  0 */\n      0x00\n        /* \"contracts/proxyTest.sol\":1270:1326  case 0 {... */\n      dup2\n      eq\n      tag_14\n      jumpi\n        /* \"contracts/proxyTest.sol\":1377:1381  size */\n      dup3\n        /* \"contracts/proxyTest.sol\":1372:1375  ptr */\n      dup3\n        /* \"contracts/proxyTest.sol\":1365:1382  return(ptr, size) */\n      return\n        /* \"contracts/proxyTest.sol\":1270:1326  case 0 {... */\n    tag_14:\n        /* \"contracts/proxyTest.sol\":1307:1311  size */\n      dup3\n        /* \"contracts/proxyTest.sol\":1302:1305  ptr */\n      dup3\n        /* \"contracts/proxyTest.sol\":1295:1312  revert(ptr, size) */\n      revert\n        /* \"contracts/proxyTest.sol\":395:518  function upgradeTo(address newImplementation) external onlyOwner {... */\n    tag_3:\n      callvalue\n      dup1\n      iszero\n      tag_15\n      jumpi\n      0x00\n      dup1\n      revert\n    tag_15:\n      pop\n      tag_16\n      0x04\n      dup1\n      calldatasize\n      sub\n      dup2\n      add\n      swap1\n      tag_17\n      swap2\n      swap1\n      tag_18\n      jump\t// in\n    tag_17:\n      tag_19\n      jump\t// in\n    tag_16:\n      stop\n        /* \"contracts/proxyTest.sol\":120:140  address public owner */\n    tag_4:\n      callvalue\n      dup1\n      iszero\n      tag_20\n      jumpi\n      0x00\n      dup1\n      revert\n    tag_20:\n      pop\n      tag_21\n      tag_22\n      jump\t// in\n    tag_21:\n      mload(0x40)\n      tag_23\n      swap2\n      swap1\n      tag_24\n      jump\t// in\n    tag_23:\n      mload(0x40)\n      dup1\n      swap2\n      sub\n      swap1\n      return\n        /* \"contracts/proxyTest.sol\":78:114  address public currentImplementation */\n    tag_5:\n      callvalue\n      dup1\n      iszero\n      tag_25\n      jumpi\n      0x00\n      dup1\n      revert\n    tag_25:\n      pop\n      tag_26\n      tag_27\n      jump\t// in\n    tag_26:\n      mload(0x40)\n      tag_28\n      swap2\n      swap1\n      tag_24\n      jump\t// in\n    tag_28:\n      mload(0x40)\n      dup1\n      swap2\n      sub\n      swap1\n      return\n        /* \"contracts/proxyTest.sol\":395:518  function upgradeTo(address newImplementation) external onlyOwner {... */\n    tag_19:\n        /* \"contracts/proxyTest.sol\":339:344  owner */\n      0x01\n      0x00\n      swap1\n      sload\n      swap1\n      0x0100\n      exp\n      swap1\n      div\n      0xffffffffffffffffffffffffffffffffffffffff\n      and\n        /* \"contracts/proxyTest.sol\":325:344  msg.sender == owner */\n      0xffffffffffffffffffffffffffffffffffffffff\n      and\n        /* \"contracts/proxyTest.sol\":325:335  msg.sender */\n      caller\n        /* \"contracts/proxyTest.sol\":325:344  msg.sender == owner */\n      0xffffffffffffffffffffffffffffffffffffffff\n      and\n      eq\n        /* \"contracts/proxyTest.sol\":317:371  require(msg.sender == owner, \"Not the contract owner\") */\n      tag_30\n      jumpi\n      mload(0x40)\n      0x08c379a000000000000000000000000000000000000000000000000000000000\n      dup2\n      mstore\n      0x04\n      add\n      tag_31\n      swap1\n      tag_32\n      jump\t// in\n    tag_31:\n      mload(0x40)\n      dup1\n      swap2\n      sub\n      swap1\n      revert\n    tag_30:\n        /* \"contracts/proxyTest.sol\":494:511  newImplementation */\n      dup1\n        /* \"contracts/proxyTest.sol\":470:491  currentImplementation */\n      0x00\n      dup1\n        /* \"contracts/proxyTest.sol\":470:511  currentImplementation = newImplementation */\n      0x0100\n      exp\n      dup2\n      sload\n      dup2\n      0xffffffffffffffffffffffffffffffffffffffff\n      mul\n      not\n      and\n      swap1\n      dup4\n      0xffffffffffffffffffffffffffffffffffffffff\n      and\n      mul\n      or\n      swap1\n      sstore\n      pop\n        /* \"contracts/proxyTest.sol\":395:518  function upgradeTo(address newImplementation) external onlyOwner {... */\n      pop\n      jump\t// out\n        /* \"contracts/proxyTest.sol\":120:140  address public owner */\n    tag_22:\n      0x01\n      0x00\n      swap1\n      sload\n      swap1\n      0x0100\n      exp\n      swap1\n      div\n      0xffffffffffffffffffffffffffffffffffffffff\n      and\n      dup2\n      jump\t// out\n        /* \"contracts/proxyTest.sol\":78:114  address public currentImplementation */\n    tag_27:\n      0x00\n      dup1\n      sload\n      swap1\n      0x0100\n      exp\n      swap1\n      div\n      0xffffffffffffffffffffffffffffffffffffffff\n      and\n      dup2\n      jump\t// out\n        /* \"#utility.yul\":7:176   */\n    tag_34:\n        /* \"#utility.yul\":91:102   */\n      0x00\n        /* \"#utility.yul\":125:131   */\n      dup3\n        /* \"#utility.yul\":120:123   */\n      dup3\n        /* \"#utility.yul\":113:132   */\n      mstore\n        /* \"#utility.yul\":165:169   */\n      0x20\n        /* \"#utility.yul\":160:163   */\n      dup3\n        /* \"#utility.yul\":156:170   */\n      add\n        /* \"#utility.yul\":141:170   */\n      swap1\n      pop\n        /* \"#utility.yul\":7:176   */\n      swap3\n      swap2\n      pop\n      pop\n      jump\t// out\n        /* \"#utility.yul\":182:354   */\n    tag_35:\n        /* \"#utility.yul\":322:346   */\n      0x496d706c656d656e746174696f6e206e6f742073657400000000000000000000\n        /* \"#utility.yul\":318:319   */\n      0x00\n        /* \"#utility.yul\":310:316   */\n      dup3\n        /* \"#utility.yul\":306:320   */\n      add\n        /* \"#utility.yul\":299:347   */\n      mstore\n        /* \"#utility.yul\":182:354   */\n      pop\n      jump\t// out\n        /* \"#utility.yul\":360:726   */\n    tag_36:\n        /* \"#utility.yul\":502:505   */\n      0x00\n        /* \"#utility.yul\":523:590   */\n      tag_51\n        /* \"#utility.yul\":587:589   */\n      0x16\n        /* \"#utility.yul\":582:585   */\n      dup4\n        /* \"#utility.yul\":523:590   */\n      tag_34\n      jump\t// in\n    tag_51:\n        /* \"#utility.yul\":516:590   */\n      swap2\n      pop\n        /* \"#utility.yul\":599:692   */\n      tag_52\n        /* \"#utility.yul\":688:691   */\n      dup3\n        /* \"#utility.yul\":599:692   */\n      tag_35\n      jump\t// in\n    tag_52:\n        /* \"#utility.yul\":717:719   */\n      0x20\n        /* \"#utility.yul\":712:715   */\n      dup3\n        /* \"#utility.yul\":708:720   */\n      add\n        /* \"#utility.yul\":701:720   */\n      swap1\n      pop\n        /* \"#utility.yul\":360:726   */\n      swap2\n      swap1\n      pop\n      jump\t// out\n        /* \"#utility.yul\":732:1151   */\n    tag_12:\n        /* \"#utility.yul\":898:902   */\n      0x00\n        /* \"#utility.yul\":936:938   */\n      0x20\n        /* \"#utility.yul\":925:934   */\n      dup3\n        /* \"#utility.yul\":921:939   */\n      add\n        /* \"#utility.yul\":913:939   */\n      swap1\n      pop\n        /* \"#utility.yul\":985:994   */\n      dup2\n        /* \"#utility.yul\":979:983   */\n      dup2\n        /* \"#utility.yul\":975:995   */\n      sub\n        /* \"#utility.yul\":971:972   */\n      0x00\n        /* \"#utility.yul\":960:969   */\n      dup4\n        /* \"#utility.yul\":956:973   */\n      add\n        /* \"#utility.yul\":949:996   */\n      mstore\n        /* \"#utility.yul\":1013:1144   */\n      tag_54\n        /* \"#utility.yul\":1139:1143   */\n      dup2\n        /* \"#utility.yul\":1013:1144   */\n      tag_36\n      jump\t// in\n    tag_54:\n        /* \"#utility.yul\":1005:1144   */\n      swap1\n      pop\n        /* \"#utility.yul\":732:1151   */\n      swap2\n      swap1\n      pop\n      jump\t// out\n        /* \"#utility.yul\":1238:1355   */\n    tag_38:\n        /* \"#utility.yul\":1347:1348   */\n      0x00\n        /* \"#utility.yul\":1344:1345   */\n      dup1\n        /* \"#utility.yul\":1337:1349   */\n      revert\n        /* \"#utility.yul\":1484:1610   */\n    tag_40:\n        /* \"#utility.yul\":1521:1528   */\n      0x00\n        /* \"#utility.yul\":1561:1603   */\n      0xffffffffffffffffffffffffffffffffffffffff\n        /* \"#utility.yul\":1554:1559   */\n      dup3\n        /* \"#utility.yul\":1550:1604   */\n      and\n        /* \"#utility.yul\":1539:1604   */\n      swap1\n      pop\n        /* \"#utility.yul\":1484:1610   */\n      swap2\n      swap1\n      pop\n      jump\t// out\n        /* \"#utility.yul\":1616:1712   */\n    tag_41:\n        /* \"#utility.yul\":1653:1660   */\n      0x00\n        /* \"#utility.yul\":1682:1706   */\n      tag_60\n        /* \"#utility.yul\":1700:1705   */\n      dup3\n        /* \"#utility.yul\":1682:1706   */\n      tag_40\n      jump\t// in\n    tag_60:\n        /* \"#utility.yul\":1671:1706   */\n      swap1\n      pop\n        /* \"#utility.yul\":1616:1712   */\n      swap2\n      swap1\n      pop\n      jump\t// out\n        /* \"#utility.yul\":1718:1840   */\n    tag_42:\n        /* \"#utility.yul\":1791:1815   */\n      tag_62\n        /* \"#utility.yul\":1809:1814   */\n      dup2\n        /* \"#utility.yul\":1791:1815   */\n      tag_41\n      jump\t// in\n    tag_62:\n        /* \"#utility.yul\":1784:1789   */\n      dup2\n        /* \"#utility.yul\":1781:1816   */\n      eq\n        /* \"#utility.yul\":1771:1834   */\n      tag_63\n      jumpi\n        /* \"#utility.yul\":1830:1831   */\n      0x00\n        /* \"#utility.yul\":1827:1828   */\n      dup1\n        /* \"#utility.yul\":1820:1832   */\n      revert\n        /* \"#utility.yul\":1771:1834   */\n    tag_63:\n        /* \"#utility.yul\":1718:1840   */\n      pop\n      jump\t// out\n        /* \"#utility.yul\":1846:1985   */\n    tag_43:\n        /* \"#utility.yul\":1892:1897   */\n      0x00\n        /* \"#utility.yul\":1930:1936   */\n      dup2\n        /* \"#utility.yul\":1917:1937   */\n      calldataload\n        /* \"#utility.yul\":1908:1937   */\n      swap1\n      pop\n        /* \"#utility.yul\":1946:1979   */\n      tag_65\n        /* \"#utility.yul\":1973:1978   */\n      dup2\n        /* \"#utility.yul\":1946:1979   */\n      tag_42\n      jump\t// in\n    tag_65:\n        /* \"#utility.yul\":1846:1985   */\n      swap3\n      swap2\n      pop\n      pop\n      jump\t// out\n        /* \"#utility.yul\":1991:2320   */\n    tag_18:\n        /* \"#utility.yul\":2050:2056   */\n      0x00\n        /* \"#utility.yul\":2099:2101   */\n      0x20\n        /* \"#utility.yul\":2087:2096   */\n      dup3\n        /* \"#utility.yul\":2078:2085   */\n      dup5\n        /* \"#utility.yul\":2074:2097   */\n      sub\n        /* \"#utility.yul\":2070:2102   */\n      slt\n        /* \"#utility.yul\":2067:2186   */\n      iszero\n      tag_67\n      jumpi\n        /* \"#utility.yul\":2105:2184   */\n      tag_68\n      tag_38\n      jump\t// in\n    tag_68:\n        /* \"#utility.yul\":2067:2186   */\n    tag_67:\n        /* \"#utility.yul\":2225:2226   */\n      0x00\n        /* \"#utility.yul\":2250:2303   */\n      tag_69\n        /* \"#utility.yul\":2295:2302   */\n      dup5\n        /* \"#utility.yul\":2286:2292   */\n      dup3\n        /* \"#utility.yul\":2275:2284   */\n      dup6\n        /* \"#utility.yul\":2271:2293   */\n      add\n        /* \"#utility.yul\":2250:2303   */\n      tag_43\n      jump\t// in\n    tag_69:\n        /* \"#utility.yul\":2240:2303   */\n      swap2\n      pop\n        /* \"#utility.yul\":2196:2313   */\n      pop\n        /* \"#utility.yul\":1991:2320   */\n      swap3\n      swap2\n      pop\n      pop\n      jump\t// out\n        /* \"#utility.yul\":2326:2444   */\n    tag_44:\n        /* \"#utility.yul\":2413:2437   */\n      tag_71\n        /* \"#utility.yul\":2431:2436   */\n      dup2\n        /* \"#utility.yul\":2413:2437   */\n      tag_41\n      jump\t// in\n    tag_71:\n        /* \"#utility.yul\":2408:2411   */\n      dup3\n        /* \"#utility.yul\":2401:2438   */\n      mstore\n        /* \"#utility.yul\":2326:2444   */\n      pop\n      pop\n      jump\t// out\n        /* \"#utility.yul\":2450:2672   */\n    tag_24:\n        /* \"#utility.yul\":2543:2547   */\n      0x00\n        /* \"#utility.yul\":2581:2583   */\n      0x20\n        /* \"#utility.yul\":2570:2579   */\n      dup3\n        /* \"#utility.yul\":2566:2584   */\n      add\n        /* \"#utility.yul\":2558:2584   */\n      swap1\n      pop\n        /* \"#utility.yul\":2594:2665   */\n      tag_73\n        /* \"#utility.yul\":2662:2663   */\n      0x00\n        /* \"#utility.yul\":2651:2660   */\n      dup4\n        /* \"#utility.yul\":2647:2664   */\n      add\n        /* \"#utility.yul\":2638:2644   */\n      dup5\n        /* \"#utility.yul\":2594:2665   */\n      tag_44\n      jump\t// in\n    tag_73:\n        /* \"#utility.yul\":2450:2672   */\n      swap3\n      swap2\n      pop\n      pop\n      jump\t// out\n        /* \"#utility.yul\":2678:2850   */\n    tag_45:\n        /* \"#utility.yul\":2818:2842   */\n      0x4e6f742074686520636f6e7472616374206f776e657200000000000000000000\n        /* \"#utility.yul\":2814:2815   */\n      0x00\n        /* \"#utility.yul\":2806:2812   */\n      dup3\n        /* \"#utility.yul\":2802:2816   */\n      add\n        /* \"#utility.yul\":2795:2843   */\n      mstore\n        /* \"#utility.yul\":2678:2850   */\n      pop\n      jump\t// out\n        /* \"#utility.yul\":2856:3222   */\n    tag_46:\n        /* \"#utility.yul\":2998:3001   */\n      0x00\n        /* \"#utility.yul\":3019:3086   */\n      tag_76\n        /* \"#utility.yul\":3083:3085   */\n      0x16\n        /* \"#utility.yul\":3078:3081   */\n      dup4\n        /* \"#utility.yul\":3019:3086   */\n      tag_34\n      jump\t// in\n    tag_76:\n        /* \"#utility.yul\":3012:3086   */\n      swap2\n      pop\n        /* \"#utility.yul\":3095:3188   */\n      tag_77\n        /* \"#utility.yul\":3184:3187   */\n      dup3\n        /* \"#utility.yul\":3095:3188   */\n      tag_45\n      jump\t// in\n    tag_77:\n        /* \"#utility.yul\":3213:3215   */\n      0x20\n        /* \"#utility.yul\":3208:3211   */\n      dup3\n        /* \"#utility.yul\":3204:3216   */\n      add\n        /* \"#utility.yul\":3197:3216   */\n      swap1\n      pop\n        /* \"#utility.yul\":2856:3222   */\n      swap2\n      swap1\n      pop\n      jump\t// out\n        /* \"#utility.yul\":3228:3647   */\n    tag_32:\n        /* \"#utility.yul\":3394:3398   */\n      0x00\n        /* \"#utility.yul\":3432:3434   */\n      0x20\n        /* \"#utility.yul\":3421:3430   */\n      dup3\n        /* \"#utility.yul\":3417:3435   */\n      add\n        /* \"#utility.yul\":3409:3435   */\n      swap1\n      pop\n        /* \"#utility.yul\":3481:3490   */\n      dup2\n        /* \"#utility.yul\":3475:3479   */\n      dup2\n        /* \"#utility.yul\":3471:3491   */\n      sub\n        /* \"#utility.yul\":3467:3468   */\n      0x00\n        /* \"#utility.yul\":3456:3465   */\n      dup4\n        /* \"#utility.yul\":3452:3469   */\n      add\n        /* \"#utility.yul\":3445:3492   */\n      mstore\n        /* \"#utility.yul\":3509:3640   */\n      tag_79\n        /* \"#utility.yul\":3635:3639   */\n      dup2\n        /* \"#utility.yul\":3509:3640   */\n      tag_46\n      jump\t// in\n    tag_79:\n        /* \"#utility.yul\":3501:3640   */\n      swap1\n      pop\n        /* \"#utility.yul\":3228:3647   */\n      swap2\n      swap1\n      pop\n      jump\t// out\n\n    auxdata: 0xa2646970667358221220713ad77d1fb4c3dbd91f3bbaa3ca9fd22258345bd6802935fed0a21c4b1740b764736f6c63430008150033\n}\n",
				"bytecode": {
					"linkReferences": {},
					"object": "608060405234801561000f575f80fd5b506040516105e83803806105e883398181016040528101906100319190610114565b805f806101000a81548173ffffffffffffffffffffffffffffffffffffffff021916908373ffffffffffffffffffffffffffffffffffffffff1602179055503360015f6101000a81548173ffffffffffffffffffffffffffffffffffffffff021916908373ffffffffffffffffffffffffffffffffffffffff1602179055505061013f565b5f80fd5b5f73ffffffffffffffffffffffffffffffffffffffff82169050919050565b5f6100e3826100ba565b9050919050565b6100f3816100d9565b81146100fd575f80fd5b50565b5f8151905061010e816100ea565b92915050565b5f60208284031215610129576101286100b6565b5b5f61013684828501610100565b91505092915050565b61049c8061014c5f395ff3fe608060405260043610610037575f3560e01c80633659cfe6146101405780638da5cb5b14610168578063d8bd5c29146101925761003e565b3661003e57005b5f805f9054906101000a900473ffffffffffffffffffffffffffffffffffffffff1690505f73ffffffffffffffffffffffffffffffffffffffff168173ffffffffffffffffffffffffffffffffffffffff16036100d0576040517f08c379a00000000000000000000000000000000000000000000000000000000081526004016100c79061032f565b60405180910390fd5b5f80368080601f0160208091040260200160405190810160405280939291908181526020018383808284375f81840152601f19601f8201169050808301925050505050505090505f80825160208401855af43d604051815f823e818101604052825f811461013c578282f35b8282fd5b34801561014b575f80fd5b50610166600480360381019061016191906103ab565b6101bc565b005b348015610173575f80fd5b5061017c61028d565b60405161018991906103e5565b60405180910390f35b34801561019d575f80fd5b506101a66102b2565b6040516101b391906103e5565b60405180910390f35b60015f9054906101000a900473ffffffffffffffffffffffffffffffffffffffff1673ffffffffffffffffffffffffffffffffffffffff163373ffffffffffffffffffffffffffffffffffffffff161461024b576040517f08c379a000000000000000000000000000000000000000000000000000000000815260040161024290610448565b60405180910390fd5b805f806101000a81548173ffffffffffffffffffffffffffffffffffffffff021916908373ffffffffffffffffffffffffffffffffffffffff16021790555050565b60015f9054906101000a900473ffffffffffffffffffffffffffffffffffffffff1681565b5f8054906101000a900473ffffffffffffffffffffffffffffffffffffffff1681565b5f82825260208201905092915050565b7f496d706c656d656e746174696f6e206e6f7420736574000000000000000000005f82015250565b5f6103196016836102d5565b9150610324826102e5565b602082019050919050565b5f6020820190508181035f8301526103468161030d565b9050919050565b5f80fd5b5f73ffffffffffffffffffffffffffffffffffffffff82169050919050565b5f61037a82610351565b9050919050565b61038a81610370565b8114610394575f80fd5b50565b5f813590506103a581610381565b92915050565b5f602082840312156103c0576103bf61034d565b5b5f6103cd84828501610397565b91505092915050565b6103df81610370565b82525050565b5f6020820190506103f85f8301846103d6565b92915050565b7f4e6f742074686520636f6e7472616374206f776e6572000000000000000000005f82015250565b5f6104326016836102d5565b915061043d826103fe565b602082019050919050565b5f6020820190508181035f83015261045f81610426565b905091905056fea2646970667358221220713ad77d1fb4c3dbd91f3bbaa3ca9fd22258345bd6802935fed0a21c4b1740b764736f6c63430008150033",
					"opcodes": "PUSH1 0x80 PUSH1 0x40 MSTORE CALLVALUE DUP1 ISZERO PUSH2 0xF JUMPI PUSH0 DUP1 REVERT JUMPDEST POP PUSH1 0x40 MLOAD PUSH2 0x5E8 CODESIZE SUB DUP1 PUSH2 0x5E8 DUP4 CODECOPY DUP2 DUP2 ADD PUSH1 0x40 MSTORE DUP2 ADD SWAP1 PUSH2 0x31 SWAP2 SWAP1 PUSH2 0x114 JUMP JUMPDEST DUP1 PUSH0 DUP1 PUSH2 0x100 EXP DUP2 SLOAD DUP2 PUSH20 0xFFFFFFFFFFFFFFFFFFFFFFFFFFFFFFFFFFFFFFFF MUL NOT AND SWAP1 DUP4 PUSH20 0xFFFFFFFFFFFFFFFFFFFFFFFFFFFFFFFFFFFFFFFF AND MUL OR SWAP1 SSTORE POP CALLER PUSH1 0x1 PUSH0 PUSH2 0x100 EXP DUP2 SLOAD DUP2 PUSH20 0xFFFFFFFFFFFFFFFFFFFFFFFFFFFFFFFFFFFFFFFF MUL NOT AND SWAP1 DUP4 PUSH20 0xFFFFFFFFFFFFFFFFFFFFFFFFFFFFFFFFFFFFFFFF AND MUL OR SWAP1 SSTORE POP POP PUSH2 0x13F JUMP JUMPDEST PUSH0 DUP1 REVERT JUMPDEST PUSH0 PUSH20 0xFFFFFFFFFFFFFFFFFFFFFFFFFFFFFFFFFFFFFFFF DUP3 AND SWAP1 POP SWAP2 SWAP1 POP JUMP JUMPDEST PUSH0 PUSH2 0xE3 DUP3 PUSH2 0xBA JUMP JUMPDEST SWAP1 POP SWAP2 SWAP1 POP JUMP JUMPDEST PUSH2 0xF3 DUP2 PUSH2 0xD9 JUMP JUMPDEST DUP2 EQ PUSH2 0xFD JUMPI PUSH0 DUP1 REVERT JUMPDEST POP JUMP JUMPDEST PUSH0 DUP2 MLOAD SWAP1 POP PUSH2 0x10E DUP2 PUSH2 0xEA JUMP JUMPDEST SWAP3 SWAP2 POP POP JUMP JUMPDEST PUSH0 PUSH1 0x20 DUP3 DUP5 SUB SLT ISZERO PUSH2 0x129 JUMPI PUSH2 0x128 PUSH2 0xB6 JUMP JUMPDEST JUMPDEST PUSH0 PUSH2 0x136 DUP5 DUP3 DUP6 ADD PUSH2 0x100 JUMP JUMPDEST SWAP2 POP POP SWAP3 SWAP2 POP POP JUMP JUMPDEST PUSH2 0x49C DUP1 PUSH2 0x14C PUSH0 CODECOPY PUSH0 RETURN INVALID PUSH1 0x80 PUSH1 0x40 MSTORE PUSH1 0x4 CALLDATASIZE LT PUSH2 0x37 JUMPI PUSH0 CALLDATALOAD PUSH1 0xE0 SHR DUP1 PUSH4 0x3659CFE6 EQ PUSH2 0x140 JUMPI DUP1 PUSH4 0x8DA5CB5B EQ PUSH2 0x168 JUMPI DUP1 PUSH4 0xD8BD5C29 EQ PUSH2 0x192 JUMPI PUSH2 0x3E JUMP JUMPDEST CALLDATASIZE PUSH2 0x3E JUMPI STOP JUMPDEST PUSH0 DUP1 PUSH0 SWAP1 SLOAD SWAP1 PUSH2 0x100 EXP SWAP1 DIV PUSH20 0xFFFFFFFFFFFFFFFFFFFFFFFFFFFFFFFFFFFFFFFF AND SWAP1 POP PUSH0 PUSH20 0xFFFFFFFFFFFFFFFFFFFFFFFFFFFFFFFFFFFFFFFF AND DUP2 PUSH20 0xFFFFFFFFFFFFFFFFFFFFFFFFFFFFFFFFFFFFFFFF AND SUB PUSH2 0xD0 JUMPI PUSH1 0x40 MLOAD PUSH32 0x8C379A000000000000000000000000000000000000000000000000000000000 DUP2 MSTORE PUSH1 0x4 ADD PUSH2 0xC7 SWAP1 PUSH2 0x32F JUMP JUMPDEST PUSH1 0x40 MLOAD DUP1 SWAP2 SUB SWAP1 REVERT JUMPDEST PUSH0 DUP1 CALLDATASIZE DUP1 DUP1 PUSH1 0x1F ADD PUSH1 0x20 DUP1 SWAP2 DIV MUL PUSH1 0x20 ADD PUSH1 0x40 MLOAD SWAP1 DUP2 ADD PUSH1 0x40 MSTORE DUP1 SWAP4 SWAP3 SWAP2 SWAP1 DUP2 DUP2 MSTORE PUSH1 0x20 ADD DUP4 DUP4 DUP1 DUP3 DUP5 CALLDATACOPY PUSH0 DUP2 DUP5 ADD MSTORE PUSH1 0x1F NOT PUSH1 0x1F DUP3 ADD AND SWAP1 POP DUP1 DUP4 ADD SWAP3 POP POP POP POP POP POP POP SWAP1 POP PUSH0 DUP1 DUP3 MLOAD PUSH1 0x20 DUP5 ADD DUP6 GAS DELEGATECALL RETURNDATASIZE PUSH1 0x40 MLOAD DUP2 PUSH0 DUP3 RETURNDATACOPY DUP2 DUP2 ADD PUSH1 0x40 MSTORE DUP3 PUSH0 DUP2 EQ PUSH2 0x13C JUMPI DUP3 DUP3 RETURN JUMPDEST DUP3 DUP3 REVERT JUMPDEST CALLVALUE DUP1 ISZERO PUSH2 0x14B JUMPI PUSH0 DUP1 REVERT JUMPDEST POP PUSH2 0x166 PUSH1 0x4 DUP1 CALLDATASIZE SUB DUP2 ADD SWAP1 PUSH2 0x161 SWAP2 SWAP1 PUSH2 0x3AB JUMP JUMPDEST PUSH2 0x1BC JUMP JUMPDEST STOP JUMPDEST CALLVALUE DUP1 ISZERO PUSH2 0x173 JUMPI PUSH0 DUP1 REVERT JUMPDEST POP PUSH2 0x17C PUSH2 0x28D JUMP JUMPDEST PUSH1 0x40 MLOAD PUSH2 0x189 SWAP2 SWAP1 PUSH2 0x3E5 JUMP JUMPDEST PUSH1 0x40 MLOAD DUP1 SWAP2 SUB SWAP1 RETURN JUMPDEST CALLVALUE DUP1 ISZERO PUSH2 0x19D JUMPI PUSH0 DUP1 REVERT JUMPDEST POP PUSH2 0x1A6 PUSH2 0x2B2 JUMP JUMPDEST PUSH1 0x40 MLOAD PUSH2 0x1B3 SWAP2 SWAP1 PUSH2 0x3E5 JUMP JUMPDEST PUSH1 0x40 MLOAD DUP1 SWAP2 SUB SWAP1 RETURN JUMPDEST PUSH1 0x1 PUSH0 SWAP1 SLOAD SWAP1 PUSH2 0x100 EXP SWAP1 DIV PUSH20 0xFFFFFFFFFFFFFFFFFFFFFFFFFFFFFFFFFFFFFFFF AND PUSH20 0xFFFFFFFFFFFFFFFFFFFFFFFFFFFFFFFFFFFFFFFF AND CALLER PUSH20 0xFFFFFFFFFFFFFFFFFFFFFFFFFFFFFFFFFFFFFFFF AND EQ PUSH2 0x24B JUMPI PUSH1 0x40 MLOAD PUSH32 0x8C379A000000000000000000000000000000000000000000000000000000000 DUP2 MSTORE PUSH1 0x4 ADD PUSH2 0x242 SWAP1 PUSH2 0x448 JUMP JUMPDEST PUSH1 0x40 MLOAD DUP1 SWAP2 SUB SWAP1 REVERT JUMPDEST DUP1 PUSH0 DUP1 PUSH2 0x100 EXP DUP2 SLOAD DUP2 PUSH20 0xFFFFFFFFFFFFFFFFFFFFFFFFFFFFFFFFFFFFFFFF MUL NOT AND SWAP1 DUP4 PUSH20 0xFFFFFFFFFFFFFFFFFFFFFFFFFFFFFFFFFFFFFFFF AND MUL OR SWAP1 SSTORE POP POP JUMP JUMPDEST PUSH1 0x1 PUSH0 SWAP1 SLOAD SWAP1 PUSH2 0x100 EXP SWAP1 DIV PUSH20 0xFFFFFFFFFFFFFFFFFFFFFFFFFFFFFFFFFFFFFFFF AND DUP2 JUMP JUMPDEST PUSH0 DUP1 SLOAD SWAP1 PUSH2 0x100 EXP SWAP1 DIV PUSH20 0xFFFFFFFFFFFFFFFFFFFFFFFFFFFFFFFFFFFFFFFF AND DUP2 JUMP JUMPDEST PUSH0 DUP3 DUP3 MSTORE PUSH1 0x20 DUP3 ADD SWAP1 POP SWAP3 SWAP2 POP POP JUMP JUMPDEST PUSH32 0x496D706C656D656E746174696F6E206E6F742073657400000000000000000000 PUSH0 DUP3 ADD MSTORE POP JUMP JUMPDEST PUSH0 PUSH2 0x319 PUSH1 0x16 DUP4 PUSH2 0x2D5 JUMP JUMPDEST SWAP2 POP PUSH2 0x324 DUP3 PUSH2 0x2E5 JUMP JUMPDEST PUSH1 0x20 DUP3 ADD SWAP1 POP SWAP2 SWAP1 POP JUMP JUMPDEST PUSH0 PUSH1 0x20 DUP3 ADD SWAP1 POP DUP2 DUP2 SUB PUSH0 DUP4 ADD MSTORE PUSH2 0x346 DUP2 PUSH2 0x30D JUMP JUMPDEST SWAP1 POP SWAP2 SWAP1 POP JUMP JUMPDEST PUSH0 DUP1 REVERT JUMPDEST PUSH0 PUSH20 0xFFFFFFFFFFFFFFFFFFFFFFFFFFFFFFFFFFFFFFFF DUP3 AND SWAP1 POP SWAP2 SWAP1 POP JUMP JUMPDEST PUSH0 PUSH2 0x37A DUP3 PUSH2 0x351 JUMP JUMPDEST SWAP1 POP SWAP2 SWAP1 POP JUMP JUMPDEST PUSH2 0x38A DUP2 PUSH2 0x370 JUMP JUMPDEST DUP2 EQ PUSH2 0x394 JUMPI PUSH0 DUP1 REVERT JUMPDEST POP JUMP JUMPDEST PUSH0 DUP2 CALLDATALOAD SWAP1 POP PUSH2 0x3A5 DUP2 PUSH2 0x381 JUMP JUMPDEST SWAP3 SWAP2 POP POP JUMP JUMPDEST PUSH0 PUSH1 0x20 DUP3 DUP5 SUB SLT ISZERO PUSH2 0x3C0 JUMPI PUSH2 0x3BF PUSH2 0x34D JUMP JUMPDEST JUMPDEST PUSH0 PUSH2 0x3CD DUP5 DUP3 DUP6 ADD PUSH2 0x397 JUMP JUMPDEST SWAP2 POP POP SWAP3 SWAP2 POP POP JUMP JUMPDEST PUSH2 0x3DF DUP2 PUSH2 0x370 JUMP JUMPDEST DUP3 MSTORE POP POP JUMP JUMPDEST PUSH0 PUSH1 0x20 DUP3 ADD SWAP1 POP PUSH2 0x3F8 PUSH0 DUP4 ADD DUP5 PUSH2 0x3D6 JUMP JUMPDEST SWAP3 SWAP2 POP POP JUMP JUMPDEST PUSH32 0x4E6F742074686520636F6E7472616374206F776E657200000000000000000000 PUSH0 DUP3 ADD MSTORE POP JUMP JUMPDEST PUSH0 PUSH2 0x432 PUSH1 0x16 DUP4 PUSH2 0x2D5 JUMP JUMPDEST SWAP2 POP PUSH2 0x43D DUP3 PUSH2 0x3FE JUMP JUMPDEST PUSH1 0x20 DUP3 ADD SWAP1 POP SWAP2 SWAP1 POP JUMP JUMPDEST PUSH0 PUSH1 0x20 DUP3 ADD SWAP1 POP DUP2 DUP2 SUB PUSH0 DUP4 ADD MSTORE PUSH2 0x45F DUP2 PUSH2 0x426 JUMP JUMPDEST SWAP1 POP SWAP2 SWAP1 POP JUMP INVALID LOG2 PUSH5 0x6970667358 0x22 SLT KECCAK256 PUSH18 0x3AD77D1FB4C3DBD91F3BBAA3CA9FD2225834 JUMPDEST 0xD6 DUP1 0x29 CALLDATALOAD INVALID 0xD0 LOG2 SHR 0x4B OR BLOCKHASH 0xB7 PUSH5 0x736F6C6343 STOP ADDMOD ISZERO STOP CALLER "
				},
				"gasEstimates": {
					"creation": {
						"codeDepositCost": "236000",
						"executionCost": "infinite",
						"totalCost": "infinite"
					},
					"external": {
						"": "infinite",
						"currentImplementation()": "2527",
						"owner()": "2508",
						"upgradeTo(address)": "26862"
					}
				},
				"methodIdentifiers": {
					"currentImplementation()": "d8bd5c29",
					"owner()": "8da5cb5b",
					"upgradeTo(address)": "3659cfe6"
				}
			},
			"storageLayout": {
				"storage": [
					{
						"astId": 3,
						"contract": "contracts/proxyTest.sol:Proxy",
						"label": "currentImplementation",
						"offset": 0,
						"slot": "0",
						"type": "t_address"
					},
					{
						"astId": 5,
						"contract": "contracts/proxyTest.sol:Proxy",
						"label": "owner",
						"offset": 0,
						"slot": "1",
						"type": "t_address"
					}
				],
				"types": {
					"t_address": {
						"encoding": "inplace",
						"label": "address",
						"numberOfBytes": "20"
					}
				}
			},
			"userdoc": {
				"kind": "user",
				"methods": {},
				"version": 1
			}
		}
	}
}