{
	"contracts/MasterChannelLedger.sol": {
		"MasterChannelLedger": {
			"abi": [
				{
					"anonymous": false,
					"inputs": [
						{
							"indexed": true,
							"internalType": "address",
							"name": "previousOwner",
							"type": "address"
						},
						{
							"indexed": true,
							"internalType": "address",
							"name": "newOwner",
							"type": "address"
						}
					],
					"name": "OwnershipTransferred",
					"type": "event"
				},
				{
					"inputs": [
						{
							"internalType": "string",
							"name": "",
							"type": "string"
						}
					],
					"name": "MasterChannelDataToRecord",
					"outputs": [
						{
							"internalType": "string",
							"name": "data",
							"type": "string"
						},
						{
							"internalType": "uint256",
							"name": "timestamp",
							"type": "uint256"
						}
					],
					"stateMutability": "view",
					"type": "function"
				},
				{
					"inputs": [
						{
							"internalType": "string",
							"name": "_data",
							"type": "string"
						}
					],
					"name": "addMasterChannelRecord",
					"outputs": [],
					"stateMutability": "nonpayable",
					"type": "function"
				},
				{
					"inputs": [],
					"name": "getAllData",
					"outputs": [
						{
							"internalType": "string[]",
							"name": "",
							"type": "string[]"
						},
						{
							"internalType": "uint256[]",
							"name": "",
							"type": "uint256[]"
						}
					],
					"stateMutability": "view",
					"type": "function"
				},
				{
					"inputs": [
						{
							"internalType": "string",
							"name": "_data",
							"type": "string"
						}
					],
					"name": "getTimestampForData",
					"outputs": [
						{
							"internalType": "uint256",
							"name": "",
							"type": "uint256"
						}
					],
					"stateMutability": "view",
					"type": "function"
				},
				{
					"inputs": [
						{
							"internalType": "uint256",
							"name": "",
							"type": "uint256"
						}
					],
					"name": "ledger",
					"outputs": [
						{
							"internalType": "string",
							"name": "data",
							"type": "string"
						},
						{
							"internalType": "uint256",
							"name": "timestamp",
							"type": "uint256"
						}
					],
					"stateMutability": "view",
					"type": "function"
				},
				{
					"inputs": [],
					"name": "owner",
					"outputs": [
						{
							"internalType": "address",
							"name": "",
							"type": "address"
						}
					],
					"stateMutability": "view",
					"type": "function"
				},
				{
					"inputs": [],
					"name": "renounceOwnership",
					"outputs": [],
					"stateMutability": "nonpayable",
					"type": "function"
				},
				{
					"inputs": [
						{
							"internalType": "address",
							"name": "newOwner",
							"type": "address"
						}
					],
					"name": "transferOwnership",
					"outputs": [],
					"stateMutability": "nonpayable",
					"type": "function"
				}
			],
			"devdoc": {
				"kind": "dev",
				"methods": {
					"owner()": {
						"details": "Returns the address of the current owner."
					},
					"renounceOwnership()": {
						"details": "Leaves the contract without owner. It will not be possible to call `onlyOwner` functions anymore. Can only be called by the current owner. NOTE: Renouncing ownership will leave the contract without an owner, thereby removing any functionality that is only available to the owner."
					},
					"transferOwnership(address)": {
						"details": "Transfers ownership of the contract to a new account (`newOwner`). Can only be called by the current owner."
					}
				},
				"version": 1
			},
			"evm": {
				"assembly": "    /* \"contracts/MasterChannelLedger.sol\":158:1498  contract MasterChannelLedger is Ownable{... */\n  mstore(0x40, 0x80)\n  callvalue\n  dup1\n  iszero\n  tag_1\n  jumpi\n  0x00\n  dup1\n  revert\ntag_1:\n  pop\n    /* \"@openzeppelin/contracts@4.5.0/access/Ownable.sol\":921:953  _transferOwnership(_msgSender()) */\n  tag_4\n    /* \"@openzeppelin/contracts@4.5.0/access/Ownable.sol\":940:952  _msgSender() */\n  tag_5\n    /* \"@openzeppelin/contracts@4.5.0/access/Ownable.sol\":940:950  _msgSender */\n  shl(0x20, tag_6)\n    /* \"@openzeppelin/contracts@4.5.0/access/Ownable.sol\":940:952  _msgSender() */\n  0x20\n  shr\n  jump\t// in\ntag_5:\n    /* \"@openzeppelin/contracts@4.5.0/access/Ownable.sol\":921:939  _transferOwnership */\n  shl(0x20, tag_7)\n    /* \"@openzeppelin/contracts@4.5.0/access/Ownable.sol\":921:953  _transferOwnership(_msgSender()) */\n  0x20\n  shr\n  jump\t// in\ntag_4:\n    /* \"contracts/MasterChannelLedger.sol\":158:1498  contract MasterChannelLedger is Ownable{... */\n  jump(tag_8)\n    /* \"@openzeppelin/contracts@4.5.0/utils/Context.sol\":640:736  function _msgSender() internal view virtual returns (address) {... */\ntag_6:\n    /* \"@openzeppelin/contracts@4.5.0/utils/Context.sol\":693:700  address */\n  0x00\n    /* \"@openzeppelin/contracts@4.5.0/utils/Context.sol\":719:729  msg.sender */\n  caller\n    /* \"@openzeppelin/contracts@4.5.0/utils/Context.sol\":712:729  return msg.sender */\n  swap1\n  pop\n    /* \"@openzeppelin/contracts@4.5.0/utils/Context.sol\":640:736  function _msgSender() internal view virtual returns (address) {... */\n  swap1\n  jump\t// out\n    /* \"@openzeppelin/contracts@4.5.0/access/Ownable.sol\":2270:2457  function _transferOwnership(address newOwner) internal virtual {... */\ntag_7:\n    /* \"@openzeppelin/contracts@4.5.0/access/Ownable.sol\":2343:2359  address oldOwner */\n  0x00\n    /* \"@openzeppelin/contracts@4.5.0/access/Ownable.sol\":2362:2368  _owner */\n  dup1\n  0x00\n  swap1\n  sload\n  swap1\n  0x0100\n  exp\n  swap1\n  div\n  0xffffffffffffffffffffffffffffffffffffffff\n  and\n    /* \"@openzeppelin/contracts@4.5.0/access/Ownable.sol\":2343:2368  address oldOwner = _owner */\n  swap1\n  pop\n    /* \"@openzeppelin/contracts@4.5.0/access/Ownable.sol\":2387:2395  newOwner */\n  dup2\n    /* \"@openzeppelin/contracts@4.5.0/access/Ownable.sol\":2378:2384  _owner */\n  0x00\n  dup1\n    /* \"@openzeppelin/contracts@4.5.0/access/Ownable.sol\":2378:2395  _owner = newOwner */\n  0x0100\n  exp\n  dup2\n  sload\n  dup2\n  0xffffffffffffffffffffffffffffffffffffffff\n  mul\n  not\n  and\n  swap1\n  dup4\n  0xffffffffffffffffffffffffffffffffffffffff\n  and\n  mul\n  or\n  swap1\n  sstore\n  pop\n    /* \"@openzeppelin/contracts@4.5.0/access/Ownable.sol\":2441:2449  newOwner */\n  dup2\n    /* \"@openzeppelin/contracts@4.5.0/access/Ownable.sol\":2410:2450  OwnershipTransferred(oldOwner, newOwner) */\n  0xffffffffffffffffffffffffffffffffffffffff\n  and\n    /* \"@openzeppelin/contracts@4.5.0/access/Ownable.sol\":2431:2439  oldOwner */\n  dup2\n    /* \"@openzeppelin/contracts@4.5.0/access/Ownable.sol\":2410:2450  OwnershipTransferred(oldOwner, newOwner) */\n  0xffffffffffffffffffffffffffffffffffffffff\n  and\n  0x8be0079c531659141344cd1fd0a4f28419497f9722a3daafe3b4186f6b6457e0\n  mload(0x40)\n  mload(0x40)\n  dup1\n  swap2\n  sub\n  swap1\n  log3\n    /* \"@openzeppelin/contracts@4.5.0/access/Ownable.sol\":2333:2457  {... */\n  pop\n    /* \"@openzeppelin/contracts@4.5.0/access/Ownable.sol\":2270:2457  function _transferOwnership(address newOwner) internal virtual {... */\n  pop\n  jump\t// out\n    /* \"contracts/MasterChannelLedger.sol\":158:1498  contract MasterChannelLedger is Ownable{... */\ntag_8:\n  dataSize(sub_0)\n  dup1\n  dataOffset(sub_0)\n  0x00\n  codecopy\n  0x00\n  return\nstop\n\nsub_0: assembly {\n        /* \"contracts/MasterChannelLedger.sol\":158:1498  contract MasterChannelLedger is Ownable{... */\n      mstore(0x40, 0x80)\n      callvalue\n      dup1\n      iszero\n      tag_1\n      jumpi\n      0x00\n      dup1\n      revert\n    tag_1:\n      pop\n      jumpi(tag_2, lt(calldatasize, 0x04))\n      shr(0xe0, calldataload(0x00))\n      dup1\n      0x715018a6\n      gt\n      tag_11\n      jumpi\n      dup1\n      0x715018a6\n      eq\n      tag_7\n      jumpi\n      dup1\n      0x8da5cb5b\n      eq\n      tag_8\n      jumpi\n      dup1\n      0xf2fde38b\n      eq\n      tag_9\n      jumpi\n      dup1\n      0xf76d53f8\n      eq\n      tag_10\n      jumpi\n      jump(tag_2)\n    tag_11:\n      dup1\n      0x10a7fd7b\n      eq\n      tag_3\n      jumpi\n      dup1\n      0x2bf63377\n      eq\n      tag_4\n      jumpi\n      dup1\n      0x2d10fa28\n      eq\n      tag_5\n      jumpi\n      dup1\n      0x69cea776\n      eq\n      tag_6\n      jumpi\n    tag_2:\n      0x00\n      dup1\n      revert\n        /* \"contracts/MasterChannelLedger.sol\":292:327  MasterChannelRecord[] public ledger */\n    tag_3:\n      tag_12\n      0x04\n      dup1\n      calldatasize\n      sub\n      dup2\n      add\n      swap1\n      tag_13\n      swap2\n      swap1\n      tag_14\n      jump\t// in\n    tag_13:\n      tag_15\n      jump\t// in\n    tag_12:\n      mload(0x40)\n      tag_16\n      swap3\n      swap2\n      swap1\n      tag_17\n      jump\t// in\n    tag_16:\n      mload(0x40)\n      dup1\n      swap2\n      sub\n      swap1\n      return\n        /* \"contracts/MasterChannelLedger.sol\":411:824  function addMasterChannelRecord(string memory _data) public onlyOwner {... */\n    tag_4:\n      tag_18\n      0x04\n      dup1\n      calldatasize\n      sub\n      dup2\n      add\n      swap1\n      tag_19\n      swap2\n      swap1\n      tag_20\n      jump\t// in\n    tag_19:\n      tag_21\n      jump\t// in\n    tag_18:\n      stop\n        /* \"contracts/MasterChannelLedger.sol\":830:1246  function getAllData() public view returns (string[] memory, uint256[] memory) {... */\n    tag_5:\n      tag_22\n      tag_23\n      jump\t// in\n    tag_22:\n      mload(0x40)\n      tag_24\n      swap3\n      swap2\n      swap1\n      tag_25\n      jump\t// in\n    tag_24:\n      mload(0x40)\n      dup1\n      swap2\n      sub\n      swap1\n      return\n        /* \"contracts/MasterChannelLedger.sol\":333:404  mapping(string => MasterChannelRecord) public MasterChannelDataToRecord */\n    tag_6:\n      tag_26\n      0x04\n      dup1\n      calldatasize\n      sub\n      dup2\n      add\n      swap1\n      tag_27\n      swap2\n      swap1\n      tag_20\n      jump\t// in\n    tag_27:\n      tag_28\n      jump\t// in\n    tag_26:\n      mload(0x40)\n      tag_29\n      swap3\n      swap2\n      swap1\n      tag_17\n      jump\t// in\n    tag_29:\n      mload(0x40)\n      dup1\n      swap2\n      sub\n      swap1\n      return\n        /* \"@openzeppelin/contracts@4.5.0/access/Ownable.sol\":1668:1769  function renounceOwnership() public virtual onlyOwner {... */\n    tag_7:\n      tag_30\n      tag_31\n      jump\t// in\n    tag_30:\n      stop\n        /* \"@openzeppelin/contracts@4.5.0/access/Ownable.sol\":1036:1121  function owner() public view virtual returns (address) {... */\n    tag_8:\n      tag_32\n      tag_33\n      jump\t// in\n    tag_32:\n      mload(0x40)\n      tag_34\n      swap2\n      swap1\n      tag_35\n      jump\t// in\n    tag_34:\n      mload(0x40)\n      dup1\n      swap2\n      sub\n      swap1\n      return\n        /* \"@openzeppelin/contracts@4.5.0/access/Ownable.sol\":1918:2116  function transferOwnership(address newOwner) public virtual onlyOwner {... */\n    tag_9:\n      tag_36\n      0x04\n      dup1\n      calldatasize\n      sub\n      dup2\n      add\n      swap1\n      tag_37\n      swap2\n      swap1\n      tag_38\n      jump\t// in\n    tag_37:\n      tag_39\n      jump\t// in\n    tag_36:\n      stop\n        /* \"contracts/MasterChannelLedger.sol\":1252:1496  function getTimestampForData(string memory _data) public view returns (uint256) {... */\n    tag_10:\n      tag_40\n      0x04\n      dup1\n      calldatasize\n      sub\n      dup2\n      add\n      swap1\n      tag_41\n      swap2\n      swap1\n      tag_20\n      jump\t// in\n    tag_41:\n      tag_42\n      jump\t// in\n    tag_40:\n      mload(0x40)\n      tag_43\n      swap2\n      swap1\n      tag_44\n      jump\t// in\n    tag_43:\n      mload(0x40)\n      dup1\n      swap2\n      sub\n      swap1\n      return\n        /* \"contracts/MasterChannelLedger.sol\":292:327  MasterChannelRecord[] public ledger */\n    tag_15:\n      0x01\n      dup2\n      dup2\n      sload\n      dup2\n      lt\n      tag_45\n      jumpi\n      0x00\n      dup1\n      revert\n    tag_45:\n      swap1\n      0x00\n      mstore\n      keccak256(0x00, 0x20)\n      swap1\n      0x02\n      mul\n      add\n      0x00\n      swap2\n      pop\n      swap1\n      pop\n      dup1\n      0x00\n      add\n      dup1\n      sload\n      tag_47\n      swap1\n      tag_48\n      jump\t// in\n    tag_47:\n      dup1\n      0x1f\n      add\n      0x20\n      dup1\n      swap2\n      div\n      mul\n      0x20\n      add\n      mload(0x40)\n      swap1\n      dup2\n      add\n      0x40\n      mstore\n      dup1\n      swap3\n      swap2\n      swap1\n      dup2\n      dup2\n      mstore\n      0x20\n      add\n      dup3\n      dup1\n      sload\n      tag_49\n      swap1\n      tag_48\n      jump\t// in\n    tag_49:\n      dup1\n      iszero\n      tag_50\n      jumpi\n      dup1\n      0x1f\n      lt\n      tag_51\n      jumpi\n      0x0100\n      dup1\n      dup4\n      sload\n      div\n      mul\n      dup4\n      mstore\n      swap2\n      0x20\n      add\n      swap2\n      jump(tag_50)\n    tag_51:\n      dup3\n      add\n      swap2\n      swap1\n      0x00\n      mstore\n      keccak256(0x00, 0x20)\n      swap1\n    tag_52:\n      dup2\n      sload\n      dup2\n      mstore\n      swap1\n      0x01\n      add\n      swap1\n      0x20\n      add\n      dup1\n      dup4\n      gt\n      tag_52\n      jumpi\n      dup3\n      swap1\n      sub\n      0x1f\n      and\n      dup3\n      add\n      swap2\n    tag_50:\n      pop\n      pop\n      pop\n      pop\n      pop\n      swap1\n      dup1\n      0x01\n      add\n      sload\n      swap1\n      pop\n      dup3\n      jump\t// out\n        /* \"contracts/MasterChannelLedger.sol\":411:824  function addMasterChannelRecord(string memory _data) public onlyOwner {... */\n    tag_21:\n        /* \"@openzeppelin/contracts@4.5.0/access/Ownable.sol\":1259:1271  _msgSender() */\n      tag_54\n        /* \"@openzeppelin/contracts@4.5.0/access/Ownable.sol\":1259:1269  _msgSender */\n      tag_55\n        /* \"@openzeppelin/contracts@4.5.0/access/Ownable.sol\":1259:1271  _msgSender() */\n      jump\t// in\n    tag_54:\n        /* \"@openzeppelin/contracts@4.5.0/access/Ownable.sol\":1248:1271  owner() == _msgSender() */\n      0xffffffffffffffffffffffffffffffffffffffff\n      and\n        /* \"@openzeppelin/contracts@4.5.0/access/Ownable.sol\":1248:1255  owner() */\n      tag_56\n        /* \"@openzeppelin/contracts@4.5.0/access/Ownable.sol\":1248:1253  owner */\n      tag_33\n        /* \"@openzeppelin/contracts@4.5.0/access/Ownable.sol\":1248:1255  owner() */\n      jump\t// in\n    tag_56:\n        /* \"@openzeppelin/contracts@4.5.0/access/Ownable.sol\":1248:1271  owner() == _msgSender() */\n      0xffffffffffffffffffffffffffffffffffffffff\n      and\n      eq\n        /* \"@openzeppelin/contracts@4.5.0/access/Ownable.sol\":1240:1308  require(owner() == _msgSender(), \"Ownable: caller is not the owner\") */\n      tag_57\n      jumpi\n      mload(0x40)\n      0x08c379a000000000000000000000000000000000000000000000000000000000\n      dup2\n      mstore\n      0x04\n      add\n      tag_58\n      swap1\n      tag_59\n      jump\t// in\n    tag_58:\n      mload(0x40)\n      dup1\n      swap2\n      sub\n      swap1\n      revert\n    tag_57:\n        /* \"contracts/MasterChannelLedger.sol\":545:546  0 */\n      0x00\n        /* \"contracts/MasterChannelLedger.sol\":499:524  MasterChannelDataToRecord */\n      0x02\n        /* \"contracts/MasterChannelLedger.sol\":525:530  _data */\n      dup3\n        /* \"contracts/MasterChannelLedger.sol\":499:531  MasterChannelDataToRecord[_data] */\n      mload(0x40)\n      tag_61\n      swap2\n      swap1\n      tag_62\n      jump\t// in\n    tag_61:\n      swap1\n      dup2\n      mstore\n      0x20\n      add\n      mload(0x40)\n      dup1\n      swap2\n      sub\n      swap1\n      keccak256\n        /* \"contracts/MasterChannelLedger.sol\":499:541  MasterChannelDataToRecord[_data].timestamp */\n      0x01\n      add\n      sload\n        /* \"contracts/MasterChannelLedger.sol\":499:546  MasterChannelDataToRecord[_data].timestamp == 0 */\n      eq\n        /* \"contracts/MasterChannelLedger.sol\":491:584  require(MasterChannelDataToRecord[_data].timestamp == 0, \"Data already exists in the ledger\") */\n      tag_63\n      jumpi\n      mload(0x40)\n      0x08c379a000000000000000000000000000000000000000000000000000000000\n      dup2\n      mstore\n      0x04\n      add\n      tag_64\n      swap1\n      tag_65\n      jump\t// in\n    tag_64:\n      mload(0x40)\n      dup1\n      swap2\n      sub\n      swap1\n      revert\n    tag_63:\n        /* \"contracts/MasterChannelLedger.sol\":595:631  MasterChannelRecord memory newRecord */\n      0x00\n        /* \"contracts/MasterChannelLedger.sol\":634:730  MasterChannelRecord({... */\n      mload(0x40)\n      dup1\n      0x40\n      add\n      0x40\n      mstore\n      dup1\n        /* \"contracts/MasterChannelLedger.sol\":674:679  _data */\n      dup4\n        /* \"contracts/MasterChannelLedger.sol\":634:730  MasterChannelRecord({... */\n      dup2\n      mstore\n      0x20\n      add\n        /* \"contracts/MasterChannelLedger.sol\":704:719  block.timestamp */\n      timestamp\n        /* \"contracts/MasterChannelLedger.sol\":634:730  MasterChannelRecord({... */\n      dup2\n      mstore\n      pop\n        /* \"contracts/MasterChannelLedger.sol\":595:730  MasterChannelRecord memory newRecord = MasterChannelRecord({... */\n      swap1\n      pop\n        /* \"contracts/MasterChannelLedger.sol\":741:747  ledger */\n      0x01\n        /* \"contracts/MasterChannelLedger.sol\":753:762  newRecord */\n      dup2\n        /* \"contracts/MasterChannelLedger.sol\":741:763  ledger.push(newRecord) */\n      swap1\n      dup1\n      0x01\n      dup2\n      sload\n      add\n      dup1\n      dup3\n      sstore\n      dup1\n      swap2\n      pop\n      pop\n      0x01\n      swap1\n      sub\n      swap1\n      0x00\n      mstore\n      keccak256(0x00, 0x20)\n      swap1\n      0x02\n      mul\n      add\n      0x00\n      swap1\n      swap2\n      swap1\n      swap2\n      swap1\n      swap2\n      pop\n      0x00\n      dup3\n      add\n      mload\n      dup2\n      0x00\n      add\n      swap1\n      dup2\n      tag_67\n      swap2\n      swap1\n      tag_68\n      jump\t// in\n    tag_67:\n      pop\n      0x20\n      dup3\n      add\n      mload\n      dup2\n      0x01\n      add\n      sstore\n      pop\n      pop\n        /* \"contracts/MasterChannelLedger.sol\":808:817  newRecord */\n      dup1\n        /* \"contracts/MasterChannelLedger.sol\":773:798  MasterChannelDataToRecord */\n      0x02\n        /* \"contracts/MasterChannelLedger.sol\":799:804  _data */\n      dup4\n        /* \"contracts/MasterChannelLedger.sol\":773:805  MasterChannelDataToRecord[_data] */\n      mload(0x40)\n      tag_69\n      swap2\n      swap1\n      tag_62\n      jump\t// in\n    tag_69:\n      swap1\n      dup2\n      mstore\n      0x20\n      add\n      mload(0x40)\n      dup1\n      swap2\n      sub\n      swap1\n      keccak256\n        /* \"contracts/MasterChannelLedger.sol\":773:817  MasterChannelDataToRecord[_data] = newRecord */\n      0x00\n      dup3\n      add\n      mload\n      dup2\n      0x00\n      add\n      swap1\n      dup2\n      tag_70\n      swap2\n      swap1\n      tag_68\n      jump\t// in\n    tag_70:\n      pop\n      0x20\n      dup3\n      add\n      mload\n      dup2\n      0x01\n      add\n      sstore\n      swap1\n      pop\n      pop\n        /* \"contracts/MasterChannelLedger.sol\":481:824  {... */\n      pop\n        /* \"contracts/MasterChannelLedger.sol\":411:824  function addMasterChannelRecord(string memory _data) public onlyOwner {... */\n      pop\n      jump\t// out\n        /* \"contracts/MasterChannelLedger.sol\":830:1246  function getAllData() public view returns (string[] memory, uint256[] memory) {... */\n    tag_23:\n        /* \"contracts/MasterChannelLedger.sol\":873:888  string[] memory */\n      0x60\n        /* \"contracts/MasterChannelLedger.sol\":890:906  uint256[] memory */\n      dup1\n        /* \"contracts/MasterChannelLedger.sol\":918:931  uint256 count */\n      0x00\n        /* \"contracts/MasterChannelLedger.sol\":934:940  ledger */\n      0x01\n        /* \"contracts/MasterChannelLedger.sol\":934:947  ledger.length */\n      dup1\n      sload\n      swap1\n      pop\n        /* \"contracts/MasterChannelLedger.sol\":918:947  uint256 count = ledger.length */\n      swap1\n      pop\n        /* \"contracts/MasterChannelLedger.sol\":957:977  string[] memory data */\n      0x00\n        /* \"contracts/MasterChannelLedger.sol\":993:998  count */\n      dup2\n        /* \"contracts/MasterChannelLedger.sol\":980:999  new string[](count) */\n      0xffffffffffffffff\n      dup2\n      gt\n      iszero\n      tag_72\n      jumpi\n      tag_73\n      tag_74\n      jump\t// in\n    tag_73:\n    tag_72:\n      mload(0x40)\n      swap1\n      dup1\n      dup3\n      mstore\n      dup1\n      0x20\n      mul\n      0x20\n      add\n      dup3\n      add\n      0x40\n      mstore\n      dup1\n      iszero\n      tag_75\n      jumpi\n      dup2\n      0x20\n      add\n    tag_76:\n      0x60\n      dup2\n      mstore\n      0x20\n      add\n      swap1\n      0x01\n      swap1\n      sub\n      swap1\n      dup2\n      tag_76\n      jumpi\n      swap1\n      pop\n    tag_75:\n      pop\n        /* \"contracts/MasterChannelLedger.sol\":957:999  string[] memory data = new string[](count) */\n      swap1\n      pop\n        /* \"contracts/MasterChannelLedger.sol\":1009:1036  uint256[] memory timestamps */\n      0x00\n        /* \"contracts/MasterChannelLedger.sol\":1053:1058  count */\n      dup3\n        /* \"contracts/MasterChannelLedger.sol\":1039:1059  new uint256[](count) */\n      0xffffffffffffffff\n      dup2\n      gt\n      iszero\n      tag_77\n      jumpi\n      tag_78\n      tag_74\n      jump\t// in\n    tag_78:\n    tag_77:\n      mload(0x40)\n      swap1\n      dup1\n      dup3\n      mstore\n      dup1\n      0x20\n      mul\n      0x20\n      add\n      dup3\n      add\n      0x40\n      mstore\n      dup1\n      iszero\n      tag_79\n      jumpi\n      dup2\n      0x20\n      add\n      0x20\n      dup3\n      mul\n      dup1\n      calldatasize\n      dup4\n      calldatacopy\n      dup1\n      dup3\n      add\n      swap2\n      pop\n      pop\n      swap1\n      pop\n    tag_79:\n      pop\n        /* \"contracts/MasterChannelLedger.sol\":1009:1059  uint256[] memory timestamps = new uint256[](count) */\n      swap1\n      pop\n        /* \"contracts/MasterChannelLedger.sol\":1075:1084  uint256 i */\n      0x00\n        /* \"contracts/MasterChannelLedger.sol\":1070:1204  for (uint256 i = 0; i < count; i++) {... */\n    tag_80:\n        /* \"contracts/MasterChannelLedger.sol\":1094:1099  count */\n      dup4\n        /* \"contracts/MasterChannelLedger.sol\":1090:1091  i */\n      dup2\n        /* \"contracts/MasterChannelLedger.sol\":1090:1099  i < count */\n      lt\n        /* \"contracts/MasterChannelLedger.sol\":1070:1204  for (uint256 i = 0; i < count; i++) {... */\n      iszero\n      tag_81\n      jumpi\n        /* \"contracts/MasterChannelLedger.sol\":1130:1136  ledger */\n      0x01\n        /* \"contracts/MasterChannelLedger.sol\":1137:1138  i */\n      dup2\n        /* \"contracts/MasterChannelLedger.sol\":1130:1139  ledger[i] */\n      dup2\n      sload\n      dup2\n      lt\n      tag_83\n      jumpi\n      tag_84\n      tag_85\n      jump\t// in\n    tag_84:\n    tag_83:\n      swap1\n      0x00\n      mstore\n      keccak256(0x00, 0x20)\n      swap1\n      0x02\n      mul\n      add\n        /* \"contracts/MasterChannelLedger.sol\":1130:1144  ledger[i].data */\n      0x00\n      add\n        /* \"contracts/MasterChannelLedger.sol\":1120:1144  data[i] = ledger[i].data */\n      dup1\n      sload\n      tag_87\n      swap1\n      tag_48\n      jump\t// in\n    tag_87:\n      dup1\n      0x1f\n      add\n      0x20\n      dup1\n      swap2\n      div\n      mul\n      0x20\n      add\n      mload(0x40)\n      swap1\n      dup2\n      add\n      0x40\n      mstore\n      dup1\n      swap3\n      swap2\n      swap1\n      dup2\n      dup2\n      mstore\n      0x20\n      add\n      dup3\n      dup1\n      sload\n      tag_88\n      swap1\n      tag_48\n      jump\t// in\n    tag_88:\n      dup1\n      iszero\n      tag_89\n      jumpi\n      dup1\n      0x1f\n      lt\n      tag_90\n      jumpi\n      0x0100\n      dup1\n      dup4\n      sload\n      div\n      mul\n      dup4\n      mstore\n      swap2\n      0x20\n      add\n      swap2\n      jump(tag_89)\n    tag_90:\n      dup3\n      add\n      swap2\n      swap1\n      0x00\n      mstore\n      keccak256(0x00, 0x20)\n      swap1\n    tag_91:\n      dup2\n      sload\n      dup2\n      mstore\n      swap1\n      0x01\n      add\n      swap1\n      0x20\n      add\n      dup1\n      dup4\n      gt\n      tag_91\n      jumpi\n      dup3\n      swap1\n      sub\n      0x1f\n      and\n      dup3\n      add\n      swap2\n    tag_89:\n      pop\n      pop\n      pop\n      pop\n      pop\n        /* \"contracts/MasterChannelLedger.sol\":1120:1124  data */\n      dup4\n        /* \"contracts/MasterChannelLedger.sol\":1125:1126  i */\n      dup3\n        /* \"contracts/MasterChannelLedger.sol\":1120:1127  data[i] */\n      dup2\n      mload\n      dup2\n      lt\n      tag_92\n      jumpi\n      tag_93\n      tag_85\n      jump\t// in\n    tag_93:\n    tag_92:\n      0x20\n      mul\n      0x20\n      add\n      add\n        /* \"contracts/MasterChannelLedger.sol\":1120:1144  data[i] = ledger[i].data */\n      dup2\n      swap1\n      mstore\n      pop\n        /* \"contracts/MasterChannelLedger.sol\":1174:1180  ledger */\n      0x01\n        /* \"contracts/MasterChannelLedger.sol\":1181:1182  i */\n      dup2\n        /* \"contracts/MasterChannelLedger.sol\":1174:1183  ledger[i] */\n      dup2\n      sload\n      dup2\n      lt\n      tag_94\n      jumpi\n      tag_95\n      tag_85\n      jump\t// in\n    tag_95:\n    tag_94:\n      swap1\n      0x00\n      mstore\n      keccak256(0x00, 0x20)\n      swap1\n      0x02\n      mul\n      add\n        /* \"contracts/MasterChannelLedger.sol\":1174:1193  ledger[i].timestamp */\n      0x01\n      add\n      sload\n        /* \"contracts/MasterChannelLedger.sol\":1158:1168  timestamps */\n      dup3\n        /* \"contracts/MasterChannelLedger.sol\":1169:1170  i */\n      dup3\n        /* \"contracts/MasterChannelLedger.sol\":1158:1171  timestamps[i] */\n      dup2\n      mload\n      dup2\n      lt\n      tag_97\n      jumpi\n      tag_98\n      tag_85\n      jump\t// in\n    tag_98:\n    tag_97:\n      0x20\n      mul\n      0x20\n      add\n      add\n        /* \"contracts/MasterChannelLedger.sol\":1158:1193  timestamps[i] = ledger[i].timestamp */\n      dup2\n      dup2\n      mstore\n      pop\n      pop\n        /* \"contracts/MasterChannelLedger.sol\":1101:1104  i++ */\n      dup1\n      dup1\n      tag_99\n      swap1\n      tag_100\n      jump\t// in\n    tag_99:\n      swap2\n      pop\n      pop\n        /* \"contracts/MasterChannelLedger.sol\":1070:1204  for (uint256 i = 0; i < count; i++) {... */\n      jump(tag_80)\n    tag_81:\n      pop\n        /* \"contracts/MasterChannelLedger.sol\":1222:1226  data */\n      dup2\n        /* \"contracts/MasterChannelLedger.sol\":1228:1238  timestamps */\n      dup2\n        /* \"contracts/MasterChannelLedger.sol\":1214:1239  return (data, timestamps) */\n      swap5\n      pop\n      swap5\n      pop\n      pop\n      pop\n      pop\n        /* \"contracts/MasterChannelLedger.sol\":830:1246  function getAllData() public view returns (string[] memory, uint256[] memory) {... */\n      swap1\n      swap2\n      jump\t// out\n        /* \"contracts/MasterChannelLedger.sol\":333:404  mapping(string => MasterChannelRecord) public MasterChannelDataToRecord */\n    tag_28:\n      0x02\n      dup2\n      dup1\n      mload\n      0x20\n      dup2\n      add\n      dup3\n      add\n      dup1\n      mload\n      dup5\n      dup3\n      mstore\n      0x20\n      dup4\n      add\n      0x20\n      dup6\n      add\n      keccak256\n      dup2\n      dup4\n      mstore\n      dup1\n      swap6\n      pop\n      pop\n      pop\n      pop\n      pop\n      pop\n      0x00\n      swap2\n      pop\n      swap1\n      pop\n      dup1\n      0x00\n      add\n      dup1\n      sload\n      tag_101\n      swap1\n      tag_48\n      jump\t// in\n    tag_101:\n      dup1\n      0x1f\n      add\n      0x20\n      dup1\n      swap2\n      div\n      mul\n      0x20\n      add\n      mload(0x40)\n      swap1\n      dup2\n      add\n      0x40\n      mstore\n      dup1\n      swap3\n      swap2\n      swap1\n      dup2\n      dup2\n      mstore\n      0x20\n      add\n      dup3\n      dup1\n      sload\n      tag_102\n      swap1\n      tag_48\n      jump\t// in\n    tag_102:\n      dup1\n      iszero\n      tag_103\n      jumpi\n      dup1\n      0x1f\n      lt\n      tag_104\n      jumpi\n      0x0100\n      dup1\n      dup4\n      sload\n      div\n      mul\n      dup4\n      mstore\n      swap2\n      0x20\n      add\n      swap2\n      jump(tag_103)\n    tag_104:\n      dup3\n      add\n      swap2\n      swap1\n      0x00\n      mstore\n      keccak256(0x00, 0x20)\n      swap1\n    tag_105:\n      dup2\n      sload\n      dup2\n      mstore\n      swap1\n      0x01\n      add\n      swap1\n      0x20\n      add\n      dup1\n      dup4\n      gt\n      tag_105\n      jumpi\n      dup3\n      swap1\n      sub\n      0x1f\n      and\n      dup3\n      add\n      swap2\n    tag_103:\n      pop\n      pop\n      pop\n      pop\n      pop\n      swap1\n      dup1\n      0x01\n      add\n      sload\n      swap1\n      pop\n      dup3\n      jump\t// out\n        /* \"@openzeppelin/contracts@4.5.0/access/Ownable.sol\":1668:1769  function renounceOwnership() public virtual onlyOwner {... */\n    tag_31:\n        /* \"@openzeppelin/contracts@4.5.0/access/Ownable.sol\":1259:1271  _msgSender() */\n      tag_107\n        /* \"@openzeppelin/contracts@4.5.0/access/Ownable.sol\":1259:1269  _msgSender */\n      tag_55\n        /* \"@openzeppelin/contracts@4.5.0/access/Ownable.sol\":1259:1271  _msgSender() */\n      jump\t// in\n    tag_107:\n        /* \"@openzeppelin/contracts@4.5.0/access/Ownable.sol\":1248:1271  owner() == _msgSender() */\n      0xffffffffffffffffffffffffffffffffffffffff\n      and\n        /* \"@openzeppelin/contracts@4.5.0/access/Ownable.sol\":1248:1255  owner() */\n      tag_108\n        /* \"@openzeppelin/contracts@4.5.0/access/Ownable.sol\":1248:1253  owner */\n      tag_33\n        /* \"@openzeppelin/contracts@4.5.0/access/Ownable.sol\":1248:1255  owner() */\n      jump\t// in\n    tag_108:\n        /* \"@openzeppelin/contracts@4.5.0/access/Ownable.sol\":1248:1271  owner() == _msgSender() */\n      0xffffffffffffffffffffffffffffffffffffffff\n      and\n      eq\n        /* \"@openzeppelin/contracts@4.5.0/access/Ownable.sol\":1240:1308  require(owner() == _msgSender(), \"Ownable: caller is not the owner\") */\n      tag_109\n      jumpi\n      mload(0x40)\n      0x08c379a000000000000000000000000000000000000000000000000000000000\n      dup2\n      mstore\n      0x04\n      add\n      tag_110\n      swap1\n      tag_59\n      jump\t// in\n    tag_110:\n      mload(0x40)\n      dup1\n      swap2\n      sub\n      swap1\n      revert\n    tag_109:\n        /* \"@openzeppelin/contracts@4.5.0/access/Ownable.sol\":1732:1762  _transferOwnership(address(0)) */\n      tag_112\n        /* \"@openzeppelin/contracts@4.5.0/access/Ownable.sol\":1759:1760  0 */\n      0x00\n        /* \"@openzeppelin/contracts@4.5.0/access/Ownable.sol\":1732:1750  _transferOwnership */\n      tag_113\n        /* \"@openzeppelin/contracts@4.5.0/access/Ownable.sol\":1732:1762  _transferOwnership(address(0)) */\n      jump\t// in\n    tag_112:\n        /* \"@openzeppelin/contracts@4.5.0/access/Ownable.sol\":1668:1769  function renounceOwnership() public virtual onlyOwner {... */\n      jump\t// out\n        /* \"@openzeppelin/contracts@4.5.0/access/Ownable.sol\":1036:1121  function owner() public view virtual returns (address) {... */\n    tag_33:\n        /* \"@openzeppelin/contracts@4.5.0/access/Ownable.sol\":1082:1089  address */\n      0x00\n        /* \"@openzeppelin/contracts@4.5.0/access/Ownable.sol\":1108:1114  _owner */\n      dup1\n      0x00\n      swap1\n      sload\n      swap1\n      0x0100\n      exp\n      swap1\n      div\n      0xffffffffffffffffffffffffffffffffffffffff\n      and\n        /* \"@openzeppelin/contracts@4.5.0/access/Ownable.sol\":1101:1114  return _owner */\n      swap1\n      pop\n        /* \"@openzeppelin/contracts@4.5.0/access/Ownable.sol\":1036:1121  function owner() public view virtual returns (address) {... */\n      swap1\n      jump\t// out\n        /* \"@openzeppelin/contracts@4.5.0/access/Ownable.sol\":1918:2116  function transferOwnership(address newOwner) public virtual onlyOwner {... */\n    tag_39:\n        /* \"@openzeppelin/contracts@4.5.0/access/Ownable.sol\":1259:1271  _msgSender() */\n      tag_116\n        /* \"@openzeppelin/contracts@4.5.0/access/Ownable.sol\":1259:1269  _msgSender */\n      tag_55\n        /* \"@openzeppelin/contracts@4.5.0/access/Ownable.sol\":1259:1271  _msgSender() */\n      jump\t// in\n    tag_116:\n        /* \"@openzeppelin/contracts@4.5.0/access/Ownable.sol\":1248:1271  owner() == _msgSender() */\n      0xffffffffffffffffffffffffffffffffffffffff\n      and\n        /* \"@openzeppelin/contracts@4.5.0/access/Ownable.sol\":1248:1255  owner() */\n      tag_117\n        /* \"@openzeppelin/contracts@4.5.0/access/Ownable.sol\":1248:1253  owner */\n      tag_33\n        /* \"@openzeppelin/contracts@4.5.0/access/Ownable.sol\":1248:1255  owner() */\n      jump\t// in\n    tag_117:\n        /* \"@openzeppelin/contracts@4.5.0/access/Ownable.sol\":1248:1271  owner() == _msgSender() */\n      0xffffffffffffffffffffffffffffffffffffffff\n      and\n      eq\n        /* \"@openzeppelin/contracts@4.5.0/access/Ownable.sol\":1240:1308  require(owner() == _msgSender(), \"Ownable: caller is not the owner\") */\n      tag_118\n      jumpi\n      mload(0x40)\n      0x08c379a000000000000000000000000000000000000000000000000000000000\n      dup2\n      mstore\n      0x04\n      add\n      tag_119\n      swap1\n      tag_59\n      jump\t// in\n    tag_119:\n      mload(0x40)\n      dup1\n      swap2\n      sub\n      swap1\n      revert\n    tag_118:\n        /* \"@openzeppelin/contracts@4.5.0/access/Ownable.sol\":2026:2027  0 */\n      0x00\n        /* \"@openzeppelin/contracts@4.5.0/access/Ownable.sol\":2006:2028  newOwner != address(0) */\n      0xffffffffffffffffffffffffffffffffffffffff\n      and\n        /* \"@openzeppelin/contracts@4.5.0/access/Ownable.sol\":2006:2014  newOwner */\n      dup2\n        /* \"@openzeppelin/contracts@4.5.0/access/Ownable.sol\":2006:2028  newOwner != address(0) */\n      0xffffffffffffffffffffffffffffffffffffffff\n      and\n      sub\n        /* \"@openzeppelin/contracts@4.5.0/access/Ownable.sol\":1998:2071  require(newOwner != address(0), \"Ownable: new owner is the zero address\") */\n      tag_121\n      jumpi\n      mload(0x40)\n      0x08c379a000000000000000000000000000000000000000000000000000000000\n      dup2\n      mstore\n      0x04\n      add\n      tag_122\n      swap1\n      tag_123\n      jump\t// in\n    tag_122:\n      mload(0x40)\n      dup1\n      swap2\n      sub\n      swap1\n      revert\n    tag_121:\n        /* \"@openzeppelin/contracts@4.5.0/access/Ownable.sol\":2081:2109  _transferOwnership(newOwner) */\n      tag_124\n        /* \"@openzeppelin/contracts@4.5.0/access/Ownable.sol\":2100:2108  newOwner */\n      dup2\n        /* \"@openzeppelin/contracts@4.5.0/access/Ownable.sol\":2081:2099  _transferOwnership */\n      tag_113\n        /* \"@openzeppelin/contracts@4.5.0/access/Ownable.sol\":2081:2109  _transferOwnership(newOwner) */\n      jump\t// in\n    tag_124:\n        /* \"@openzeppelin/contracts@4.5.0/access/Ownable.sol\":1918:2116  function transferOwnership(address newOwner) public virtual onlyOwner {... */\n      pop\n      jump\t// out\n        /* \"contracts/MasterChannelLedger.sol\":1252:1496  function getTimestampForData(string memory _data) public view returns (uint256) {... */\n    tag_42:\n        /* \"contracts/MasterChannelLedger.sol\":1323:1330  uint256 */\n      0x00\n        /* \"contracts/MasterChannelLedger.sol\":1396:1397  0 */\n      dup1\n        /* \"contracts/MasterChannelLedger.sol\":1350:1375  MasterChannelDataToRecord */\n      0x02\n        /* \"contracts/MasterChannelLedger.sol\":1376:1381  _data */\n      dup4\n        /* \"contracts/MasterChannelLedger.sol\":1350:1382  MasterChannelDataToRecord[_data] */\n      mload(0x40)\n      tag_126\n      swap2\n      swap1\n      tag_62\n      jump\t// in\n    tag_126:\n      swap1\n      dup2\n      mstore\n      0x20\n      add\n      mload(0x40)\n      dup1\n      swap2\n      sub\n      swap1\n      keccak256\n        /* \"contracts/MasterChannelLedger.sol\":1350:1392  MasterChannelDataToRecord[_data].timestamp */\n      0x01\n      add\n      sload\n        /* \"contracts/MasterChannelLedger.sol\":1350:1397  MasterChannelDataToRecord[_data].timestamp != 0 */\n      sub\n        /* \"contracts/MasterChannelLedger.sol\":1342:1430  require(MasterChannelDataToRecord[_data].timestamp != 0, \"data not found in the ledger\") */\n      tag_127\n      jumpi\n      mload(0x40)\n      0x08c379a000000000000000000000000000000000000000000000000000000000\n      dup2\n      mstore\n      0x04\n      add\n      tag_128\n      swap1\n      tag_129\n      jump\t// in\n    tag_128:\n      mload(0x40)\n      dup1\n      swap2\n      sub\n      swap1\n      revert\n    tag_127:\n        /* \"contracts/MasterChannelLedger.sol\":1447:1472  MasterChannelDataToRecord */\n      0x02\n        /* \"contracts/MasterChannelLedger.sol\":1473:1478  _data */\n      dup3\n        /* \"contracts/MasterChannelLedger.sol\":1447:1479  MasterChannelDataToRecord[_data] */\n      mload(0x40)\n      tag_130\n      swap2\n      swap1\n      tag_62\n      jump\t// in\n    tag_130:\n      swap1\n      dup2\n      mstore\n      0x20\n      add\n      mload(0x40)\n      dup1\n      swap2\n      sub\n      swap1\n      keccak256\n        /* \"contracts/MasterChannelLedger.sol\":1447:1489  MasterChannelDataToRecord[_data].timestamp */\n      0x01\n      add\n      sload\n        /* \"contracts/MasterChannelLedger.sol\":1440:1489  return MasterChannelDataToRecord[_data].timestamp */\n      swap1\n      pop\n        /* \"contracts/MasterChannelLedger.sol\":1252:1496  function getTimestampForData(string memory _data) public view returns (uint256) {... */\n      swap2\n      swap1\n      pop\n      jump\t// out\n        /* \"@openzeppelin/contracts@4.5.0/utils/Context.sol\":640:736  function _msgSender() internal view virtual returns (address) {... */\n    tag_55:\n        /* \"@openzeppelin/contracts@4.5.0/utils/Context.sol\":693:700  address */\n      0x00\n        /* \"@openzeppelin/contracts@4.5.0/utils/Context.sol\":719:729  msg.sender */\n      caller\n        /* \"@openzeppelin/contracts@4.5.0/utils/Context.sol\":712:729  return msg.sender */\n      swap1\n      pop\n        /* \"@openzeppelin/contracts@4.5.0/utils/Context.sol\":640:736  function _msgSender() internal view virtual returns (address) {... */\n      swap1\n      jump\t// out\n        /* \"@openzeppelin/contracts@4.5.0/access/Ownable.sol\":2270:2457  function _transferOwnership(address newOwner) internal virtual {... */\n    tag_113:\n        /* \"@openzeppelin/contracts@4.5.0/access/Ownable.sol\":2343:2359  address oldOwner */\n      0x00\n        /* \"@openzeppelin/contracts@4.5.0/access/Ownable.sol\":2362:2368  _owner */\n      dup1\n      0x00\n      swap1\n      sload\n      swap1\n      0x0100\n      exp\n      swap1\n      div\n      0xffffffffffffffffffffffffffffffffffffffff\n      and\n        /* \"@openzeppelin/contracts@4.5.0/access/Ownable.sol\":2343:2368  address oldOwner = _owner */\n      swap1\n      pop\n        /* \"@openzeppelin/contracts@4.5.0/access/Ownable.sol\":2387:2395  newOwner */\n      dup2\n        /* \"@openzeppelin/contracts@4.5.0/access/Ownable.sol\":2378:2384  _owner */\n      0x00\n      dup1\n        /* \"@openzeppelin/contracts@4.5.0/access/Ownable.sol\":2378:2395  _owner = newOwner */\n      0x0100\n      exp\n      dup2\n      sload\n      dup2\n      0xffffffffffffffffffffffffffffffffffffffff\n      mul\n      not\n      and\n      swap1\n      dup4\n      0xffffffffffffffffffffffffffffffffffffffff\n      and\n      mul\n      or\n      swap1\n      sstore\n      pop\n        /* \"@openzeppelin/contracts@4.5.0/access/Ownable.sol\":2441:2449  newOwner */\n      dup2\n        /* \"@openzeppelin/contracts@4.5.0/access/Ownable.sol\":2410:2450  OwnershipTransferred(oldOwner, newOwner) */\n      0xffffffffffffffffffffffffffffffffffffffff\n      and\n        /* \"@openzeppelin/contracts@4.5.0/access/Ownable.sol\":2431:2439  oldOwner */\n      dup2\n        /* \"@openzeppelin/contracts@4.5.0/access/Ownable.sol\":2410:2450  OwnershipTransferred(oldOwner, newOwner) */\n      0xffffffffffffffffffffffffffffffffffffffff\n      and\n      0x8be0079c531659141344cd1fd0a4f28419497f9722a3daafe3b4186f6b6457e0\n      mload(0x40)\n      mload(0x40)\n      dup1\n      swap2\n      sub\n      swap1\n      log3\n        /* \"@openzeppelin/contracts@4.5.0/access/Ownable.sol\":2333:2457  {... */\n      pop\n        /* \"@openzeppelin/contracts@4.5.0/access/Ownable.sol\":2270:2457  function _transferOwnership(address newOwner) internal virtual {... */\n      pop\n      jump\t// out\n        /* \"#utility.yul\":7:82   */\n    tag_133:\n        /* \"#utility.yul\":40:46   */\n      0x00\n        /* \"#utility.yul\":73:75   */\n      0x40\n        /* \"#utility.yul\":67:76   */\n      mload\n        /* \"#utility.yul\":57:76   */\n      swap1\n      pop\n        /* \"#utility.yul\":7:82   */\n      swap1\n      jump\t// out\n        /* \"#utility.yul\":88:205   */\n    tag_134:\n        /* \"#utility.yul\":197:198   */\n      0x00\n        /* \"#utility.yul\":194:195   */\n      dup1\n        /* \"#utility.yul\":187:199   */\n      revert\n        /* \"#utility.yul\":211:328   */\n    tag_135:\n        /* \"#utility.yul\":320:321   */\n      0x00\n        /* \"#utility.yul\":317:318   */\n      dup1\n        /* \"#utility.yul\":310:322   */\n      revert\n        /* \"#utility.yul\":334:411   */\n    tag_136:\n        /* \"#utility.yul\":371:378   */\n      0x00\n        /* \"#utility.yul\":400:405   */\n      dup2\n        /* \"#utility.yul\":389:405   */\n      swap1\n      pop\n        /* \"#utility.yul\":334:411   */\n      swap2\n      swap1\n      pop\n      jump\t// out\n        /* \"#utility.yul\":417:539   */\n    tag_137:\n        /* \"#utility.yul\":490:514   */\n      tag_206\n        /* \"#utility.yul\":508:513   */\n      dup2\n        /* \"#utility.yul\":490:514   */\n      tag_136\n      jump\t// in\n    tag_206:\n        /* \"#utility.yul\":483:488   */\n      dup2\n        /* \"#utility.yul\":480:515   */\n      eq\n        /* \"#utility.yul\":470:533   */\n      tag_207\n      jumpi\n        /* \"#utility.yul\":529:530   */\n      0x00\n        /* \"#utility.yul\":526:527   */\n      dup1\n        /* \"#utility.yul\":519:531   */\n      revert\n        /* \"#utility.yul\":470:533   */\n    tag_207:\n        /* \"#utility.yul\":417:539   */\n      pop\n      jump\t// out\n        /* \"#utility.yul\":545:684   */\n    tag_138:\n        /* \"#utility.yul\":591:596   */\n      0x00\n        /* \"#utility.yul\":629:635   */\n      dup2\n        /* \"#utility.yul\":616:636   */\n      calldataload\n        /* \"#utility.yul\":607:636   */\n      swap1\n      pop\n        /* \"#utility.yul\":645:678   */\n      tag_209\n        /* \"#utility.yul\":672:677   */\n      dup2\n        /* \"#utility.yul\":645:678   */\n      tag_137\n      jump\t// in\n    tag_209:\n        /* \"#utility.yul\":545:684   */\n      swap3\n      swap2\n      pop\n      pop\n      jump\t// out\n        /* \"#utility.yul\":690:1019   */\n    tag_14:\n        /* \"#utility.yul\":749:755   */\n      0x00\n        /* \"#utility.yul\":798:800   */\n      0x20\n        /* \"#utility.yul\":786:795   */\n      dup3\n        /* \"#utility.yul\":777:784   */\n      dup5\n        /* \"#utility.yul\":773:796   */\n      sub\n        /* \"#utility.yul\":769:801   */\n      slt\n        /* \"#utility.yul\":766:885   */\n      iszero\n      tag_211\n      jumpi\n        /* \"#utility.yul\":804:883   */\n      tag_212\n      tag_134\n      jump\t// in\n    tag_212:\n        /* \"#utility.yul\":766:885   */\n    tag_211:\n        /* \"#utility.yul\":924:925   */\n      0x00\n        /* \"#utility.yul\":949:1002   */\n      tag_213\n        /* \"#utility.yul\":994:1001   */\n      dup5\n        /* \"#utility.yul\":985:991   */\n      dup3\n        /* \"#utility.yul\":974:983   */\n      dup6\n        /* \"#utility.yul\":970:992   */\n      add\n        /* \"#utility.yul\":949:1002   */\n      tag_138\n      jump\t// in\n    tag_213:\n        /* \"#utility.yul\":939:1002   */\n      swap2\n      pop\n        /* \"#utility.yul\":895:1012   */\n      pop\n        /* \"#utility.yul\":690:1019   */\n      swap3\n      swap2\n      pop\n      pop\n      jump\t// out\n        /* \"#utility.yul\":1025:1124   */\n    tag_139:\n        /* \"#utility.yul\":1077:1083   */\n      0x00\n        /* \"#utility.yul\":1111:1116   */\n      dup2\n        /* \"#utility.yul\":1105:1117   */\n      mload\n        /* \"#utility.yul\":1095:1117   */\n      swap1\n      pop\n        /* \"#utility.yul\":1025:1124   */\n      swap2\n      swap1\n      pop\n      jump\t// out\n        /* \"#utility.yul\":1130:1299   */\n    tag_140:\n        /* \"#utility.yul\":1214:1225   */\n      0x00\n        /* \"#utility.yul\":1248:1254   */\n      dup3\n        /* \"#utility.yul\":1243:1246   */\n      dup3\n        /* \"#utility.yul\":1236:1255   */\n      mstore\n        /* \"#utility.yul\":1288:1292   */\n      0x20\n        /* \"#utility.yul\":1283:1286   */\n      dup3\n        /* \"#utility.yul\":1279:1293   */\n      add\n        /* \"#utility.yul\":1264:1293   */\n      swap1\n      pop\n        /* \"#utility.yul\":1130:1299   */\n      swap3\n      swap2\n      pop\n      pop\n      jump\t// out\n        /* \"#utility.yul\":1305:1551   */\n    tag_141:\n        /* \"#utility.yul\":1386:1387   */\n      0x00\n        /* \"#utility.yul\":1396:1509   */\n    tag_217:\n        /* \"#utility.yul\":1410:1416   */\n      dup4\n        /* \"#utility.yul\":1407:1408   */\n      dup2\n        /* \"#utility.yul\":1404:1417   */\n      lt\n        /* \"#utility.yul\":1396:1509   */\n      iszero\n      tag_219\n      jumpi\n        /* \"#utility.yul\":1495:1496   */\n      dup1\n        /* \"#utility.yul\":1490:1493   */\n      dup3\n        /* \"#utility.yul\":1486:1497   */\n      add\n        /* \"#utility.yul\":1480:1498   */\n      mload\n        /* \"#utility.yul\":1476:1477   */\n      dup2\n        /* \"#utility.yul\":1471:1474   */\n      dup5\n        /* \"#utility.yul\":1467:1478   */\n      add\n        /* \"#utility.yul\":1460:1499   */\n      mstore\n        /* \"#utility.yul\":1432:1434   */\n      0x20\n        /* \"#utility.yul\":1429:1430   */\n      dup2\n        /* \"#utility.yul\":1425:1435   */\n      add\n        /* \"#utility.yul\":1420:1435   */\n      swap1\n      pop\n        /* \"#utility.yul\":1396:1509   */\n      jump(tag_217)\n    tag_219:\n        /* \"#utility.yul\":1543:1544   */\n      0x00\n        /* \"#utility.yul\":1534:1540   */\n      dup5\n        /* \"#utility.yul\":1529:1532   */\n      dup5\n        /* \"#utility.yul\":1525:1541   */\n      add\n        /* \"#utility.yul\":1518:1545   */\n      mstore\n        /* \"#utility.yul\":1367:1551   */\n      pop\n        /* \"#utility.yul\":1305:1551   */\n      pop\n      pop\n      pop\n      jump\t// out\n        /* \"#utility.yul\":1557:1659   */\n    tag_142:\n        /* \"#utility.yul\":1598:1604   */\n      0x00\n        /* \"#utility.yul\":1649:1651   */\n      0x1f\n        /* \"#utility.yul\":1645:1652   */\n      not\n        /* \"#utility.yul\":1640:1642   */\n      0x1f\n        /* \"#utility.yul\":1633:1638   */\n      dup4\n        /* \"#utility.yul\":1629:1643   */\n      add\n        /* \"#utility.yul\":1625:1653   */\n      and\n        /* \"#utility.yul\":1615:1653   */\n      swap1\n      pop\n        /* \"#utility.yul\":1557:1659   */\n      swap2\n      swap1\n      pop\n      jump\t// out\n        /* \"#utility.yul\":1665:2042   */\n    tag_143:\n        /* \"#utility.yul\":1753:1756   */\n      0x00\n        /* \"#utility.yul\":1781:1820   */\n      tag_222\n        /* \"#utility.yul\":1814:1819   */\n      dup3\n        /* \"#utility.yul\":1781:1820   */\n      tag_139\n      jump\t// in\n    tag_222:\n        /* \"#utility.yul\":1836:1907   */\n      tag_223\n        /* \"#utility.yul\":1900:1906   */\n      dup2\n        /* \"#utility.yul\":1895:1898   */\n      dup6\n        /* \"#utility.yul\":1836:1907   */\n      tag_140\n      jump\t// in\n    tag_223:\n        /* \"#utility.yul\":1829:1907   */\n      swap4\n      pop\n        /* \"#utility.yul\":1916:1981   */\n      tag_224\n        /* \"#utility.yul\":1974:1980   */\n      dup2\n        /* \"#utility.yul\":1969:1972   */\n      dup6\n        /* \"#utility.yul\":1962:1966   */\n      0x20\n        /* \"#utility.yul\":1955:1960   */\n      dup7\n        /* \"#utility.yul\":1951:1967   */\n      add\n        /* \"#utility.yul\":1916:1981   */\n      tag_141\n      jump\t// in\n    tag_224:\n        /* \"#utility.yul\":2006:2035   */\n      tag_225\n        /* \"#utility.yul\":2028:2034   */\n      dup2\n        /* \"#utility.yul\":2006:2035   */\n      tag_142\n      jump\t// in\n    tag_225:\n        /* \"#utility.yul\":2001:2004   */\n      dup5\n        /* \"#utility.yul\":1997:2036   */\n      add\n        /* \"#utility.yul\":1990:2036   */\n      swap2\n      pop\n        /* \"#utility.yul\":1757:2042   */\n      pop\n        /* \"#utility.yul\":1665:2042   */\n      swap3\n      swap2\n      pop\n      pop\n      jump\t// out\n        /* \"#utility.yul\":2048:2166   */\n    tag_144:\n        /* \"#utility.yul\":2135:2159   */\n      tag_227\n        /* \"#utility.yul\":2153:2158   */\n      dup2\n        /* \"#utility.yul\":2135:2159   */\n      tag_136\n      jump\t// in\n    tag_227:\n        /* \"#utility.yul\":2130:2133   */\n      dup3\n        /* \"#utility.yul\":2123:2160   */\n      mstore\n        /* \"#utility.yul\":2048:2166   */\n      pop\n      pop\n      jump\t// out\n        /* \"#utility.yul\":2172:2595   */\n    tag_17:\n        /* \"#utility.yul\":2313:2317   */\n      0x00\n        /* \"#utility.yul\":2351:2353   */\n      0x40\n        /* \"#utility.yul\":2340:2349   */\n      dup3\n        /* \"#utility.yul\":2336:2354   */\n      add\n        /* \"#utility.yul\":2328:2354   */\n      swap1\n      pop\n        /* \"#utility.yul\":2400:2409   */\n      dup2\n        /* \"#utility.yul\":2394:2398   */\n      dup2\n        /* \"#utility.yul\":2390:2410   */\n      sub\n        /* \"#utility.yul\":2386:2387   */\n      0x00\n        /* \"#utility.yul\":2375:2384   */\n      dup4\n        /* \"#utility.yul\":2371:2388   */\n      add\n        /* \"#utility.yul\":2364:2411   */\n      mstore\n        /* \"#utility.yul\":2428:2506   */\n      tag_229\n        /* \"#utility.yul\":2501:2505   */\n      dup2\n        /* \"#utility.yul\":2492:2498   */\n      dup6\n        /* \"#utility.yul\":2428:2506   */\n      tag_143\n      jump\t// in\n    tag_229:\n        /* \"#utility.yul\":2420:2506   */\n      swap1\n      pop\n        /* \"#utility.yul\":2516:2588   */\n      tag_230\n        /* \"#utility.yul\":2584:2586   */\n      0x20\n        /* \"#utility.yul\":2573:2582   */\n      dup4\n        /* \"#utility.yul\":2569:2587   */\n      add\n        /* \"#utility.yul\":2560:2566   */\n      dup5\n        /* \"#utility.yul\":2516:2588   */\n      tag_144\n      jump\t// in\n    tag_230:\n        /* \"#utility.yul\":2172:2595   */\n      swap4\n      swap3\n      pop\n      pop\n      pop\n      jump\t// out\n        /* \"#utility.yul\":2601:2718   */\n    tag_145:\n        /* \"#utility.yul\":2710:2711   */\n      0x00\n        /* \"#utility.yul\":2707:2708   */\n      dup1\n        /* \"#utility.yul\":2700:2712   */\n      revert\n        /* \"#utility.yul\":2724:2841   */\n    tag_146:\n        /* \"#utility.yul\":2833:2834   */\n      0x00\n        /* \"#utility.yul\":2830:2831   */\n      dup1\n        /* \"#utility.yul\":2823:2835   */\n      revert\n        /* \"#utility.yul\":2847:3027   */\n    tag_74:\n        /* \"#utility.yul\":2895:2972   */\n      0x4e487b7100000000000000000000000000000000000000000000000000000000\n        /* \"#utility.yul\":2892:2893   */\n      0x00\n        /* \"#utility.yul\":2885:2973   */\n      mstore\n        /* \"#utility.yul\":2992:2996   */\n      0x41\n        /* \"#utility.yul\":2989:2990   */\n      0x04\n        /* \"#utility.yul\":2982:2997   */\n      mstore\n        /* \"#utility.yul\":3016:3020   */\n      0x24\n        /* \"#utility.yul\":3013:3014   */\n      0x00\n        /* \"#utility.yul\":3006:3021   */\n      revert\n        /* \"#utility.yul\":3033:3314   */\n    tag_147:\n        /* \"#utility.yul\":3116:3143   */\n      tag_235\n        /* \"#utility.yul\":3138:3142   */\n      dup3\n        /* \"#utility.yul\":3116:3143   */\n      tag_142\n      jump\t// in\n    tag_235:\n        /* \"#utility.yul\":3108:3114   */\n      dup2\n        /* \"#utility.yul\":3104:3144   */\n      add\n        /* \"#utility.yul\":3246:3252   */\n      dup2\n        /* \"#utility.yul\":3234:3244   */\n      dup2\n        /* \"#utility.yul\":3231:3253   */\n      lt\n        /* \"#utility.yul\":3210:3228   */\n      0xffffffffffffffff\n        /* \"#utility.yul\":3198:3208   */\n      dup3\n        /* \"#utility.yul\":3195:3229   */\n      gt\n        /* \"#utility.yul\":3192:3254   */\n      or\n        /* \"#utility.yul\":3189:3277   */\n      iszero\n      tag_236\n      jumpi\n        /* \"#utility.yul\":3257:3275   */\n      tag_237\n      tag_74\n      jump\t// in\n    tag_237:\n        /* \"#utility.yul\":3189:3277   */\n    tag_236:\n        /* \"#utility.yul\":3297:3307   */\n      dup1\n        /* \"#utility.yul\":3293:3295   */\n      0x40\n        /* \"#utility.yul\":3286:3308   */\n      mstore\n        /* \"#utility.yul\":3076:3314   */\n      pop\n        /* \"#utility.yul\":3033:3314   */\n      pop\n      pop\n      jump\t// out\n        /* \"#utility.yul\":3320:3449   */\n    tag_148:\n        /* \"#utility.yul\":3354:3360   */\n      0x00\n        /* \"#utility.yul\":3381:3401   */\n      tag_239\n      tag_133\n      jump\t// in\n    tag_239:\n        /* \"#utility.yul\":3371:3401   */\n      swap1\n      pop\n        /* \"#utility.yul\":3410:3443   */\n      tag_240\n        /* \"#utility.yul\":3438:3442   */\n      dup3\n        /* \"#utility.yul\":3430:3436   */\n      dup3\n        /* \"#utility.yul\":3410:3443   */\n      tag_147\n      jump\t// in\n    tag_240:\n        /* \"#utility.yul\":3320:3449   */\n      swap2\n      swap1\n      pop\n      jump\t// out\n        /* \"#utility.yul\":3455:3763   */\n    tag_149:\n        /* \"#utility.yul\":3517:3521   */\n      0x00\n        /* \"#utility.yul\":3607:3625   */\n      0xffffffffffffffff\n        /* \"#utility.yul\":3599:3605   */\n      dup3\n        /* \"#utility.yul\":3596:3626   */\n      gt\n        /* \"#utility.yul\":3593:3649   */\n      iszero\n      tag_242\n      jumpi\n        /* \"#utility.yul\":3629:3647   */\n      tag_243\n      tag_74\n      jump\t// in\n    tag_243:\n        /* \"#utility.yul\":3593:3649   */\n    tag_242:\n        /* \"#utility.yul\":3667:3696   */\n      tag_244\n        /* \"#utility.yul\":3689:3695   */\n      dup3\n        /* \"#utility.yul\":3667:3696   */\n      tag_142\n      jump\t// in\n    tag_244:\n        /* \"#utility.yul\":3659:3696   */\n      swap1\n      pop\n        /* \"#utility.yul\":3751:3755   */\n      0x20\n        /* \"#utility.yul\":3745:3749   */\n      dup2\n        /* \"#utility.yul\":3741:3756   */\n      add\n        /* \"#utility.yul\":3733:3756   */\n      swap1\n      pop\n        /* \"#utility.yul\":3455:3763   */\n      swap2\n      swap1\n      pop\n      jump\t// out\n        /* \"#utility.yul\":3769:3915   */\n    tag_150:\n        /* \"#utility.yul\":3866:3872   */\n      dup3\n        /* \"#utility.yul\":3861:3864   */\n      dup2\n        /* \"#utility.yul\":3856:3859   */\n      dup4\n        /* \"#utility.yul\":3843:3873   */\n      calldatacopy\n        /* \"#utility.yul\":3907:3908   */\n      0x00\n        /* \"#utility.yul\":3898:3904   */\n      dup4\n        /* \"#utility.yul\":3893:3896   */\n      dup4\n        /* \"#utility.yul\":3889:3905   */\n      add\n        /* \"#utility.yul\":3882:3909   */\n      mstore\n        /* \"#utility.yul\":3769:3915   */\n      pop\n      pop\n      pop\n      jump\t// out\n        /* \"#utility.yul\":3921:4346   */\n    tag_151:\n        /* \"#utility.yul\":3999:4004   */\n      0x00\n        /* \"#utility.yul\":4024:4090   */\n      tag_247\n        /* \"#utility.yul\":4040:4089   */\n      tag_248\n        /* \"#utility.yul\":4082:4088   */\n      dup5\n        /* \"#utility.yul\":4040:4089   */\n      tag_149\n      jump\t// in\n    tag_248:\n        /* \"#utility.yul\":4024:4090   */\n      tag_148\n      jump\t// in\n    tag_247:\n        /* \"#utility.yul\":4015:4090   */\n      swap1\n      pop\n        /* \"#utility.yul\":4113:4119   */\n      dup3\n        /* \"#utility.yul\":4106:4111   */\n      dup2\n        /* \"#utility.yul\":4099:4120   */\n      mstore\n        /* \"#utility.yul\":4151:4155   */\n      0x20\n        /* \"#utility.yul\":4144:4149   */\n      dup2\n        /* \"#utility.yul\":4140:4156   */\n      add\n        /* \"#utility.yul\":4189:4192   */\n      dup5\n        /* \"#utility.yul\":4180:4186   */\n      dup5\n        /* \"#utility.yul\":4175:4178   */\n      dup5\n        /* \"#utility.yul\":4171:4187   */\n      add\n        /* \"#utility.yul\":4168:4193   */\n      gt\n        /* \"#utility.yul\":4165:4277   */\n      iszero\n      tag_249\n      jumpi\n        /* \"#utility.yul\":4196:4275   */\n      tag_250\n      tag_146\n      jump\t// in\n    tag_250:\n        /* \"#utility.yul\":4165:4277   */\n    tag_249:\n        /* \"#utility.yul\":4286:4340   */\n      tag_251\n        /* \"#utility.yul\":4333:4339   */\n      dup5\n        /* \"#utility.yul\":4328:4331   */\n      dup3\n        /* \"#utility.yul\":4323:4326   */\n      dup6\n        /* \"#utility.yul\":4286:4340   */\n      tag_150\n      jump\t// in\n    tag_251:\n        /* \"#utility.yul\":4005:4346   */\n      pop\n        /* \"#utility.yul\":3921:4346   */\n      swap4\n      swap3\n      pop\n      pop\n      pop\n      jump\t// out\n        /* \"#utility.yul\":4366:4706   */\n    tag_152:\n        /* \"#utility.yul\":4422:4427   */\n      0x00\n        /* \"#utility.yul\":4471:4474   */\n      dup3\n        /* \"#utility.yul\":4464:4468   */\n      0x1f\n        /* \"#utility.yul\":4456:4462   */\n      dup4\n        /* \"#utility.yul\":4452:4469   */\n      add\n        /* \"#utility.yul\":4448:4475   */\n      slt\n        /* \"#utility.yul\":4438:4560   */\n      tag_253\n      jumpi\n        /* \"#utility.yul\":4479:4558   */\n      tag_254\n      tag_145\n      jump\t// in\n    tag_254:\n        /* \"#utility.yul\":4438:4560   */\n    tag_253:\n        /* \"#utility.yul\":4596:4602   */\n      dup2\n        /* \"#utility.yul\":4583:4603   */\n      calldataload\n        /* \"#utility.yul\":4621:4700   */\n      tag_255\n        /* \"#utility.yul\":4696:4699   */\n      dup5\n        /* \"#utility.yul\":4688:4694   */\n      dup3\n        /* \"#utility.yul\":4681:4685   */\n      0x20\n        /* \"#utility.yul\":4673:4679   */\n      dup7\n        /* \"#utility.yul\":4669:4686   */\n      add\n        /* \"#utility.yul\":4621:4700   */\n      tag_151\n      jump\t// in\n    tag_255:\n        /* \"#utility.yul\":4612:4700   */\n      swap2\n      pop\n        /* \"#utility.yul\":4428:4706   */\n      pop\n        /* \"#utility.yul\":4366:4706   */\n      swap3\n      swap2\n      pop\n      pop\n      jump\t// out\n        /* \"#utility.yul\":4712:5221   */\n    tag_20:\n        /* \"#utility.yul\":4781:4787   */\n      0x00\n        /* \"#utility.yul\":4830:4832   */\n      0x20\n        /* \"#utility.yul\":4818:4827   */\n      dup3\n        /* \"#utility.yul\":4809:4816   */\n      dup5\n        /* \"#utility.yul\":4805:4828   */\n      sub\n        /* \"#utility.yul\":4801:4833   */\n      slt\n        /* \"#utility.yul\":4798:4917   */\n      iszero\n      tag_257\n      jumpi\n        /* \"#utility.yul\":4836:4915   */\n      tag_258\n      tag_134\n      jump\t// in\n    tag_258:\n        /* \"#utility.yul\":4798:4917   */\n    tag_257:\n        /* \"#utility.yul\":4984:4985   */\n      0x00\n        /* \"#utility.yul\":4973:4982   */\n      dup3\n        /* \"#utility.yul\":4969:4986   */\n      add\n        /* \"#utility.yul\":4956:4987   */\n      calldataload\n        /* \"#utility.yul\":5014:5032   */\n      0xffffffffffffffff\n        /* \"#utility.yul\":5006:5012   */\n      dup2\n        /* \"#utility.yul\":5003:5033   */\n      gt\n        /* \"#utility.yul\":5000:5117   */\n      iszero\n      tag_259\n      jumpi\n        /* \"#utility.yul\":5036:5115   */\n      tag_260\n      tag_135\n      jump\t// in\n    tag_260:\n        /* \"#utility.yul\":5000:5117   */\n    tag_259:\n        /* \"#utility.yul\":5141:5204   */\n      tag_261\n        /* \"#utility.yul\":5196:5203   */\n      dup5\n        /* \"#utility.yul\":5187:5193   */\n      dup3\n        /* \"#utility.yul\":5176:5185   */\n      dup6\n        /* \"#utility.yul\":5172:5194   */\n      add\n        /* \"#utility.yul\":5141:5204   */\n      tag_152\n      jump\t// in\n    tag_261:\n        /* \"#utility.yul\":5131:5204   */\n      swap2\n      pop\n        /* \"#utility.yul\":4927:5214   */\n      pop\n        /* \"#utility.yul\":4712:5221   */\n      swap3\n      swap2\n      pop\n      pop\n      jump\t// out\n        /* \"#utility.yul\":5227:5351   */\n    tag_153:\n        /* \"#utility.yul\":5304:5310   */\n      0x00\n        /* \"#utility.yul\":5338:5343   */\n      dup2\n        /* \"#utility.yul\":5332:5344   */\n      mload\n        /* \"#utility.yul\":5322:5344   */\n      swap1\n      pop\n        /* \"#utility.yul\":5227:5351   */\n      swap2\n      swap1\n      pop\n      jump\t// out\n        /* \"#utility.yul\":5357:5551   */\n    tag_154:\n        /* \"#utility.yul\":5466:5477   */\n      0x00\n        /* \"#utility.yul\":5500:5506   */\n      dup3\n        /* \"#utility.yul\":5495:5498   */\n      dup3\n        /* \"#utility.yul\":5488:5507   */\n      mstore\n        /* \"#utility.yul\":5540:5544   */\n      0x20\n        /* \"#utility.yul\":5535:5538   */\n      dup3\n        /* \"#utility.yul\":5531:5545   */\n      add\n        /* \"#utility.yul\":5516:5545   */\n      swap1\n      pop\n        /* \"#utility.yul\":5357:5551   */\n      swap3\n      swap2\n      pop\n      pop\n      jump\t// out\n        /* \"#utility.yul\":5557:5699   */\n    tag_155:\n        /* \"#utility.yul\":5634:5638   */\n      0x00\n        /* \"#utility.yul\":5657:5660   */\n      dup2\n        /* \"#utility.yul\":5649:5660   */\n      swap1\n      pop\n        /* \"#utility.yul\":5687:5691   */\n      0x20\n        /* \"#utility.yul\":5682:5685   */\n      dup3\n        /* \"#utility.yul\":5678:5692   */\n      add\n        /* \"#utility.yul\":5670:5692   */\n      swap1\n      pop\n        /* \"#utility.yul\":5557:5699   */\n      swap2\n      swap1\n      pop\n      jump\t// out\n        /* \"#utility.yul\":5705:5864   */\n    tag_156:\n        /* \"#utility.yul\":5779:5790   */\n      0x00\n        /* \"#utility.yul\":5813:5819   */\n      dup3\n        /* \"#utility.yul\":5808:5811   */\n      dup3\n        /* \"#utility.yul\":5801:5820   */\n      mstore\n        /* \"#utility.yul\":5853:5857   */\n      0x20\n        /* \"#utility.yul\":5848:5851   */\n      dup3\n        /* \"#utility.yul\":5844:5858   */\n      add\n        /* \"#utility.yul\":5829:5858   */\n      swap1\n      pop\n        /* \"#utility.yul\":5705:5864   */\n      swap3\n      swap2\n      pop\n      pop\n      jump\t// out\n        /* \"#utility.yul\":5870:6227   */\n    tag_157:\n        /* \"#utility.yul\":5948:5951   */\n      0x00\n        /* \"#utility.yul\":5976:6015   */\n      tag_267\n        /* \"#utility.yul\":6009:6014   */\n      dup3\n        /* \"#utility.yul\":5976:6015   */\n      tag_139\n      jump\t// in\n    tag_267:\n        /* \"#utility.yul\":6031:6092   */\n      tag_268\n        /* \"#utility.yul\":6085:6091   */\n      dup2\n        /* \"#utility.yul\":6080:6083   */\n      dup6\n        /* \"#utility.yul\":6031:6092   */\n      tag_156\n      jump\t// in\n    tag_268:\n        /* \"#utility.yul\":6024:6092   */\n      swap4\n      pop\n        /* \"#utility.yul\":6101:6166   */\n      tag_269\n        /* \"#utility.yul\":6159:6165   */\n      dup2\n        /* \"#utility.yul\":6154:6157   */\n      dup6\n        /* \"#utility.yul\":6147:6151   */\n      0x20\n        /* \"#utility.yul\":6140:6145   */\n      dup7\n        /* \"#utility.yul\":6136:6152   */\n      add\n        /* \"#utility.yul\":6101:6166   */\n      tag_141\n      jump\t// in\n    tag_269:\n        /* \"#utility.yul\":6191:6220   */\n      tag_270\n        /* \"#utility.yul\":6213:6219   */\n      dup2\n        /* \"#utility.yul\":6191:6220   */\n      tag_142\n      jump\t// in\n    tag_270:\n        /* \"#utility.yul\":6186:6189   */\n      dup5\n        /* \"#utility.yul\":6182:6221   */\n      add\n        /* \"#utility.yul\":6175:6221   */\n      swap2\n      pop\n        /* \"#utility.yul\":5952:6227   */\n      pop\n        /* \"#utility.yul\":5870:6227   */\n      swap3\n      swap2\n      pop\n      pop\n      jump\t// out\n        /* \"#utility.yul\":6233:6429   */\n    tag_158:\n        /* \"#utility.yul\":6322:6332   */\n      0x00\n        /* \"#utility.yul\":6357:6423   */\n      tag_272\n        /* \"#utility.yul\":6419:6422   */\n      dup4\n        /* \"#utility.yul\":6411:6417   */\n      dup4\n        /* \"#utility.yul\":6357:6423   */\n      tag_157\n      jump\t// in\n    tag_272:\n        /* \"#utility.yul\":6343:6423   */\n      swap1\n      pop\n        /* \"#utility.yul\":6233:6429   */\n      swap3\n      swap2\n      pop\n      pop\n      jump\t// out\n        /* \"#utility.yul\":6435:6558   */\n    tag_159:\n        /* \"#utility.yul\":6515:6519   */\n      0x00\n        /* \"#utility.yul\":6547:6551   */\n      0x20\n        /* \"#utility.yul\":6542:6545   */\n      dup3\n        /* \"#utility.yul\":6538:6552   */\n      add\n        /* \"#utility.yul\":6530:6552   */\n      swap1\n      pop\n        /* \"#utility.yul\":6435:6558   */\n      swap2\n      swap1\n      pop\n      jump\t// out\n        /* \"#utility.yul\":6592:7583   */\n    tag_160:\n        /* \"#utility.yul\":6731:6734   */\n      0x00\n        /* \"#utility.yul\":6760:6824   */\n      tag_275\n        /* \"#utility.yul\":6818:6823   */\n      dup3\n        /* \"#utility.yul\":6760:6824   */\n      tag_153\n      jump\t// in\n    tag_275:\n        /* \"#utility.yul\":6840:6936   */\n      tag_276\n        /* \"#utility.yul\":6929:6935   */\n      dup2\n        /* \"#utility.yul\":6924:6927   */\n      dup6\n        /* \"#utility.yul\":6840:6936   */\n      tag_154\n      jump\t// in\n    tag_276:\n        /* \"#utility.yul\":6833:6936   */\n      swap4\n      pop\n        /* \"#utility.yul\":6962:6965   */\n      dup4\n        /* \"#utility.yul\":7007:7011   */\n      0x20\n        /* \"#utility.yul\":6999:7005   */\n      dup3\n        /* \"#utility.yul\":6995:7012   */\n      mul\n        /* \"#utility.yul\":6990:6993   */\n      dup6\n        /* \"#utility.yul\":6986:7013   */\n      add\n        /* \"#utility.yul\":7037:7103   */\n      tag_277\n        /* \"#utility.yul\":7097:7102   */\n      dup6\n        /* \"#utility.yul\":7037:7103   */\n      tag_155\n      jump\t// in\n    tag_277:\n        /* \"#utility.yul\":7126:7133   */\n      dup1\n        /* \"#utility.yul\":7157:7158   */\n      0x00\n        /* \"#utility.yul\":7142:7538   */\n    tag_278:\n        /* \"#utility.yul\":7167:7173   */\n      dup6\n        /* \"#utility.yul\":7164:7165   */\n      dup2\n        /* \"#utility.yul\":7161:7174   */\n      lt\n        /* \"#utility.yul\":7142:7538   */\n      iszero\n      tag_280\n      jumpi\n        /* \"#utility.yul\":7238:7247   */\n      dup5\n        /* \"#utility.yul\":7232:7236   */\n      dup5\n        /* \"#utility.yul\":7228:7248   */\n      sub\n        /* \"#utility.yul\":7223:7226   */\n      dup10\n        /* \"#utility.yul\":7216:7249   */\n      mstore\n        /* \"#utility.yul\":7289:7295   */\n      dup2\n        /* \"#utility.yul\":7283:7296   */\n      mload\n        /* \"#utility.yul\":7317:7401   */\n      tag_281\n        /* \"#utility.yul\":7396:7400   */\n      dup6\n        /* \"#utility.yul\":7381:7394   */\n      dup3\n        /* \"#utility.yul\":7317:7401   */\n      tag_158\n      jump\t// in\n    tag_281:\n        /* \"#utility.yul\":7309:7401   */\n      swap5\n      pop\n        /* \"#utility.yul\":7424:7494   */\n      tag_282\n        /* \"#utility.yul\":7487:7493   */\n      dup4\n        /* \"#utility.yul\":7424:7494   */\n      tag_159\n      jump\t// in\n    tag_282:\n        /* \"#utility.yul\":7414:7494   */\n      swap3\n      pop\n        /* \"#utility.yul\":7523:7527   */\n      0x20\n        /* \"#utility.yul\":7518:7521   */\n      dup11\n        /* \"#utility.yul\":7514:7528   */\n      add\n        /* \"#utility.yul\":7507:7528   */\n      swap10\n      pop\n        /* \"#utility.yul\":7202:7538   */\n      pop\n        /* \"#utility.yul\":7189:7190   */\n      0x01\n        /* \"#utility.yul\":7186:7187   */\n      dup2\n        /* \"#utility.yul\":7182:7191   */\n      add\n        /* \"#utility.yul\":7177:7191   */\n      swap1\n      pop\n        /* \"#utility.yul\":7142:7538   */\n      jump(tag_278)\n    tag_280:\n        /* \"#utility.yul\":7146:7160   */\n      pop\n        /* \"#utility.yul\":7554:7558   */\n      dup3\n        /* \"#utility.yul\":7547:7558   */\n      swap8\n      pop\n        /* \"#utility.yul\":7574:7577   */\n      dup8\n        /* \"#utility.yul\":7567:7577   */\n      swap6\n      pop\n        /* \"#utility.yul\":6736:7583   */\n      pop\n      pop\n      pop\n      pop\n      pop\n        /* \"#utility.yul\":6592:7583   */\n      swap3\n      swap2\n      pop\n      pop\n      jump\t// out\n        /* \"#utility.yul\":7589:7703   */\n    tag_161:\n        /* \"#utility.yul\":7656:7662   */\n      0x00\n        /* \"#utility.yul\":7690:7695   */\n      dup2\n        /* \"#utility.yul\":7684:7696   */\n      mload\n        /* \"#utility.yul\":7674:7696   */\n      swap1\n      pop\n        /* \"#utility.yul\":7589:7703   */\n      swap2\n      swap1\n      pop\n      jump\t// out\n        /* \"#utility.yul\":7709:7893   */\n    tag_162:\n        /* \"#utility.yul\":7808:7819   */\n      0x00\n        /* \"#utility.yul\":7842:7848   */\n      dup3\n        /* \"#utility.yul\":7837:7840   */\n      dup3\n        /* \"#utility.yul\":7830:7849   */\n      mstore\n        /* \"#utility.yul\":7882:7886   */\n      0x20\n        /* \"#utility.yul\":7877:7880   */\n      dup3\n        /* \"#utility.yul\":7873:7887   */\n      add\n        /* \"#utility.yul\":7858:7887   */\n      swap1\n      pop\n        /* \"#utility.yul\":7709:7893   */\n      swap3\n      swap2\n      pop\n      pop\n      jump\t// out\n        /* \"#utility.yul\":7899:8031   */\n    tag_163:\n        /* \"#utility.yul\":7966:7970   */\n      0x00\n        /* \"#utility.yul\":7989:7992   */\n      dup2\n        /* \"#utility.yul\":7981:7992   */\n      swap1\n      pop\n        /* \"#utility.yul\":8019:8023   */\n      0x20\n        /* \"#utility.yul\":8014:8017   */\n      dup3\n        /* \"#utility.yul\":8010:8024   */\n      add\n        /* \"#utility.yul\":8002:8024   */\n      swap1\n      pop\n        /* \"#utility.yul\":7899:8031   */\n      swap2\n      swap1\n      pop\n      jump\t// out\n        /* \"#utility.yul\":8037:8145   */\n    tag_164:\n        /* \"#utility.yul\":8114:8138   */\n      tag_287\n        /* \"#utility.yul\":8132:8137   */\n      dup2\n        /* \"#utility.yul\":8114:8138   */\n      tag_136\n      jump\t// in\n    tag_287:\n        /* \"#utility.yul\":8109:8112   */\n      dup3\n        /* \"#utility.yul\":8102:8139   */\n      mstore\n        /* \"#utility.yul\":8037:8145   */\n      pop\n      pop\n      jump\t// out\n        /* \"#utility.yul\":8151:8330   */\n    tag_165:\n        /* \"#utility.yul\":8220:8230   */\n      0x00\n        /* \"#utility.yul\":8241:8287   */\n      tag_289\n        /* \"#utility.yul\":8283:8286   */\n      dup4\n        /* \"#utility.yul\":8275:8281   */\n      dup4\n        /* \"#utility.yul\":8241:8287   */\n      tag_164\n      jump\t// in\n    tag_289:\n        /* \"#utility.yul\":8319:8323   */\n      0x20\n        /* \"#utility.yul\":8314:8317   */\n      dup4\n        /* \"#utility.yul\":8310:8324   */\n      add\n        /* \"#utility.yul\":8296:8324   */\n      swap1\n      pop\n        /* \"#utility.yul\":8151:8330   */\n      swap3\n      swap2\n      pop\n      pop\n      jump\t// out\n        /* \"#utility.yul\":8336:8449   */\n    tag_166:\n        /* \"#utility.yul\":8406:8410   */\n      0x00\n        /* \"#utility.yul\":8438:8442   */\n      0x20\n        /* \"#utility.yul\":8433:8436   */\n      dup3\n        /* \"#utility.yul\":8429:8443   */\n      add\n        /* \"#utility.yul\":8421:8443   */\n      swap1\n      pop\n        /* \"#utility.yul\":8336:8449   */\n      swap2\n      swap1\n      pop\n      jump\t// out\n        /* \"#utility.yul\":8485:9217   */\n    tag_167:\n        /* \"#utility.yul\":8604:8607   */\n      0x00\n        /* \"#utility.yul\":8633:8687   */\n      tag_292\n        /* \"#utility.yul\":8681:8686   */\n      dup3\n        /* \"#utility.yul\":8633:8687   */\n      tag_161\n      jump\t// in\n    tag_292:\n        /* \"#utility.yul\":8703:8789   */\n      tag_293\n        /* \"#utility.yul\":8782:8788   */\n      dup2\n        /* \"#utility.yul\":8777:8780   */\n      dup6\n        /* \"#utility.yul\":8703:8789   */\n      tag_162\n      jump\t// in\n    tag_293:\n        /* \"#utility.yul\":8696:8789   */\n      swap4\n      pop\n        /* \"#utility.yul\":8813:8869   */\n      tag_294\n        /* \"#utility.yul\":8863:8868   */\n      dup4\n        /* \"#utility.yul\":8813:8869   */\n      tag_163\n      jump\t// in\n    tag_294:\n        /* \"#utility.yul\":8892:8899   */\n      dup1\n        /* \"#utility.yul\":8923:8924   */\n      0x00\n        /* \"#utility.yul\":8908:9192   */\n    tag_295:\n        /* \"#utility.yul\":8933:8939   */\n      dup4\n        /* \"#utility.yul\":8930:8931   */\n      dup2\n        /* \"#utility.yul\":8927:8940   */\n      lt\n        /* \"#utility.yul\":8908:9192   */\n      iszero\n      tag_297\n      jumpi\n        /* \"#utility.yul\":9009:9015   */\n      dup2\n        /* \"#utility.yul\":9003:9016   */\n      mload\n        /* \"#utility.yul\":9036:9099   */\n      tag_298\n        /* \"#utility.yul\":9095:9098   */\n      dup9\n        /* \"#utility.yul\":9080:9093   */\n      dup3\n        /* \"#utility.yul\":9036:9099   */\n      tag_165\n      jump\t// in\n    tag_298:\n        /* \"#utility.yul\":9029:9099   */\n      swap8\n      pop\n        /* \"#utility.yul\":9122:9182   */\n      tag_299\n        /* \"#utility.yul\":9175:9181   */\n      dup4\n        /* \"#utility.yul\":9122:9182   */\n      tag_166\n      jump\t// in\n    tag_299:\n        /* \"#utility.yul\":9112:9182   */\n      swap3\n      pop\n        /* \"#utility.yul\":8968:9192   */\n      pop\n        /* \"#utility.yul\":8955:8956   */\n      0x01\n        /* \"#utility.yul\":8952:8953   */\n      dup2\n        /* \"#utility.yul\":8948:8957   */\n      add\n        /* \"#utility.yul\":8943:8957   */\n      swap1\n      pop\n        /* \"#utility.yul\":8908:9192   */\n      jump(tag_295)\n    tag_297:\n        /* \"#utility.yul\":8912:8926   */\n      pop\n        /* \"#utility.yul\":9208:9211   */\n      dup6\n        /* \"#utility.yul\":9201:9211   */\n      swap4\n      pop\n        /* \"#utility.yul\":8609:9217   */\n      pop\n      pop\n      pop\n        /* \"#utility.yul\":8485:9217   */\n      swap3\n      swap2\n      pop\n      pop\n      jump\t// out\n        /* \"#utility.yul\":9223:9897   */\n    tag_25:\n        /* \"#utility.yul\":9464:9468   */\n      0x00\n        /* \"#utility.yul\":9502:9504   */\n      0x40\n        /* \"#utility.yul\":9491:9500   */\n      dup3\n        /* \"#utility.yul\":9487:9505   */\n      add\n        /* \"#utility.yul\":9479:9505   */\n      swap1\n      pop\n        /* \"#utility.yul\":9551:9560   */\n      dup2\n        /* \"#utility.yul\":9545:9549   */\n      dup2\n        /* \"#utility.yul\":9541:9561   */\n      sub\n        /* \"#utility.yul\":9537:9538   */\n      0x00\n        /* \"#utility.yul\":9526:9535   */\n      dup4\n        /* \"#utility.yul\":9522:9539   */\n      add\n        /* \"#utility.yul\":9515:9562   */\n      mstore\n        /* \"#utility.yul\":9579:9707   */\n      tag_301\n        /* \"#utility.yul\":9702:9706   */\n      dup2\n        /* \"#utility.yul\":9693:9699   */\n      dup6\n        /* \"#utility.yul\":9579:9707   */\n      tag_160\n      jump\t// in\n    tag_301:\n        /* \"#utility.yul\":9571:9707   */\n      swap1\n      pop\n        /* \"#utility.yul\":9754:9763   */\n      dup2\n        /* \"#utility.yul\":9748:9752   */\n      dup2\n        /* \"#utility.yul\":9744:9764   */\n      sub\n        /* \"#utility.yul\":9739:9741   */\n      0x20\n        /* \"#utility.yul\":9728:9737   */\n      dup4\n        /* \"#utility.yul\":9724:9742   */\n      add\n        /* \"#utility.yul\":9717:9765   */\n      mstore\n        /* \"#utility.yul\":9782:9890   */\n      tag_302\n        /* \"#utility.yul\":9885:9889   */\n      dup2\n        /* \"#utility.yul\":9876:9882   */\n      dup5\n        /* \"#utility.yul\":9782:9890   */\n      tag_167\n      jump\t// in\n    tag_302:\n        /* \"#utility.yul\":9774:9890   */\n      swap1\n      pop\n        /* \"#utility.yul\":9223:9897   */\n      swap4\n      swap3\n      pop\n      pop\n      pop\n      jump\t// out\n        /* \"#utility.yul\":9903:10029   */\n    tag_168:\n        /* \"#utility.yul\":9940:9947   */\n      0x00\n        /* \"#utility.yul\":9980:10022   */\n      0xffffffffffffffffffffffffffffffffffffffff\n        /* \"#utility.yul\":9973:9978   */\n      dup3\n        /* \"#utility.yul\":9969:10023   */\n      and\n        /* \"#utility.yul\":9958:10023   */\n      swap1\n      pop\n        /* \"#utility.yul\":9903:10029   */\n      swap2\n      swap1\n      pop\n      jump\t// out\n        /* \"#utility.yul\":10035:10131   */\n    tag_169:\n        /* \"#utility.yul\":10072:10079   */\n      0x00\n        /* \"#utility.yul\":10101:10125   */\n      tag_305\n        /* \"#utility.yul\":10119:10124   */\n      dup3\n        /* \"#utility.yul\":10101:10125   */\n      tag_168\n      jump\t// in\n    tag_305:\n        /* \"#utility.yul\":10090:10125   */\n      swap1\n      pop\n        /* \"#utility.yul\":10035:10131   */\n      swap2\n      swap1\n      pop\n      jump\t// out\n        /* \"#utility.yul\":10137:10255   */\n    tag_170:\n        /* \"#utility.yul\":10224:10248   */\n      tag_307\n        /* \"#utility.yul\":10242:10247   */\n      dup2\n        /* \"#utility.yul\":10224:10248   */\n      tag_169\n      jump\t// in\n    tag_307:\n        /* \"#utility.yul\":10219:10222   */\n      dup3\n        /* \"#utility.yul\":10212:10249   */\n      mstore\n        /* \"#utility.yul\":10137:10255   */\n      pop\n      pop\n      jump\t// out\n        /* \"#utility.yul\":10261:10483   */\n    tag_35:\n        /* \"#utility.yul\":10354:10358   */\n      0x00\n        /* \"#utility.yul\":10392:10394   */\n      0x20\n        /* \"#utility.yul\":10381:10390   */\n      dup3\n        /* \"#utility.yul\":10377:10395   */\n      add\n        /* \"#utility.yul\":10369:10395   */\n      swap1\n      pop\n        /* \"#utility.yul\":10405:10476   */\n      tag_309\n        /* \"#utility.yul\":10473:10474   */\n      0x00\n        /* \"#utility.yul\":10462:10471   */\n      dup4\n        /* \"#utility.yul\":10458:10475   */\n      add\n        /* \"#utility.yul\":10449:10455   */\n      dup5\n        /* \"#utility.yul\":10405:10476   */\n      tag_170\n      jump\t// in\n    tag_309:\n        /* \"#utility.yul\":10261:10483   */\n      swap3\n      swap2\n      pop\n      pop\n      jump\t// out\n        /* \"#utility.yul\":10489:10611   */\n    tag_171:\n        /* \"#utility.yul\":10562:10586   */\n      tag_311\n        /* \"#utility.yul\":10580:10585   */\n      dup2\n        /* \"#utility.yul\":10562:10586   */\n      tag_169\n      jump\t// in\n    tag_311:\n        /* \"#utility.yul\":10555:10560   */\n      dup2\n        /* \"#utility.yul\":10552:10587   */\n      eq\n        /* \"#utility.yul\":10542:10605   */\n      tag_312\n      jumpi\n        /* \"#utility.yul\":10601:10602   */\n      0x00\n        /* \"#utility.yul\":10598:10599   */\n      dup1\n        /* \"#utility.yul\":10591:10603   */\n      revert\n        /* \"#utility.yul\":10542:10605   */\n    tag_312:\n        /* \"#utility.yul\":10489:10611   */\n      pop\n      jump\t// out\n        /* \"#utility.yul\":10617:10756   */\n    tag_172:\n        /* \"#utility.yul\":10663:10668   */\n      0x00\n        /* \"#utility.yul\":10701:10707   */\n      dup2\n        /* \"#utility.yul\":10688:10708   */\n      calldataload\n        /* \"#utility.yul\":10679:10708   */\n      swap1\n      pop\n        /* \"#utility.yul\":10717:10750   */\n      tag_314\n        /* \"#utility.yul\":10744:10749   */\n      dup2\n        /* \"#utility.yul\":10717:10750   */\n      tag_171\n      jump\t// in\n    tag_314:\n        /* \"#utility.yul\":10617:10756   */\n      swap3\n      swap2\n      pop\n      pop\n      jump\t// out\n        /* \"#utility.yul\":10762:11091   */\n    tag_38:\n        /* \"#utility.yul\":10821:10827   */\n      0x00\n        /* \"#utility.yul\":10870:10872   */\n      0x20\n        /* \"#utility.yul\":10858:10867   */\n      dup3\n        /* \"#utility.yul\":10849:10856   */\n      dup5\n        /* \"#utility.yul\":10845:10868   */\n      sub\n        /* \"#utility.yul\":10841:10873   */\n      slt\n        /* \"#utility.yul\":10838:10957   */\n      iszero\n      tag_316\n      jumpi\n        /* \"#utility.yul\":10876:10955   */\n      tag_317\n      tag_134\n      jump\t// in\n    tag_317:\n        /* \"#utility.yul\":10838:10957   */\n    tag_316:\n        /* \"#utility.yul\":10996:10997   */\n      0x00\n        /* \"#utility.yul\":11021:11074   */\n      tag_318\n        /* \"#utility.yul\":11066:11073   */\n      dup5\n        /* \"#utility.yul\":11057:11063   */\n      dup3\n        /* \"#utility.yul\":11046:11055   */\n      dup6\n        /* \"#utility.yul\":11042:11064   */\n      add\n        /* \"#utility.yul\":11021:11074   */\n      tag_172\n      jump\t// in\n    tag_318:\n        /* \"#utility.yul\":11011:11074   */\n      swap2\n      pop\n        /* \"#utility.yul\":10967:11084   */\n      pop\n        /* \"#utility.yul\":10762:11091   */\n      swap3\n      swap2\n      pop\n      pop\n      jump\t// out\n        /* \"#utility.yul\":11097:11319   */\n    tag_44:\n        /* \"#utility.yul\":11190:11194   */\n      0x00\n        /* \"#utility.yul\":11228:11230   */\n      0x20\n        /* \"#utility.yul\":11217:11226   */\n      dup3\n        /* \"#utility.yul\":11213:11231   */\n      add\n        /* \"#utility.yul\":11205:11231   */\n      swap1\n      pop\n        /* \"#utility.yul\":11241:11312   */\n      tag_320\n        /* \"#utility.yul\":11309:11310   */\n      0x00\n        /* \"#utility.yul\":11298:11307   */\n      dup4\n        /* \"#utility.yul\":11294:11311   */\n      add\n        /* \"#utility.yul\":11285:11291   */\n      dup5\n        /* \"#utility.yul\":11241:11312   */\n      tag_144\n      jump\t// in\n    tag_320:\n        /* \"#utility.yul\":11097:11319   */\n      swap3\n      swap2\n      pop\n      pop\n      jump\t// out\n        /* \"#utility.yul\":11325:11505   */\n    tag_173:\n        /* \"#utility.yul\":11373:11450   */\n      0x4e487b7100000000000000000000000000000000000000000000000000000000\n        /* \"#utility.yul\":11370:11371   */\n      0x00\n        /* \"#utility.yul\":11363:11451   */\n      mstore\n        /* \"#utility.yul\":11470:11474   */\n      0x22\n        /* \"#utility.yul\":11467:11468   */\n      0x04\n        /* \"#utility.yul\":11460:11475   */\n      mstore\n        /* \"#utility.yul\":11494:11498   */\n      0x24\n        /* \"#utility.yul\":11491:11492   */\n      0x00\n        /* \"#utility.yul\":11484:11499   */\n      revert\n        /* \"#utility.yul\":11511:11831   */\n    tag_48:\n        /* \"#utility.yul\":11555:11561   */\n      0x00\n        /* \"#utility.yul\":11592:11593   */\n      0x02\n        /* \"#utility.yul\":11586:11590   */\n      dup3\n        /* \"#utility.yul\":11582:11594   */\n      div\n        /* \"#utility.yul\":11572:11594   */\n      swap1\n      pop\n        /* \"#utility.yul\":11639:11640   */\n      0x01\n        /* \"#utility.yul\":11633:11637   */\n      dup3\n        /* \"#utility.yul\":11629:11641   */\n      and\n        /* \"#utility.yul\":11660:11678   */\n      dup1\n        /* \"#utility.yul\":11650:11731   */\n      tag_323\n      jumpi\n        /* \"#utility.yul\":11716:11720   */\n      0x7f\n        /* \"#utility.yul\":11708:11714   */\n      dup3\n        /* \"#utility.yul\":11704:11721   */\n      and\n        /* \"#utility.yul\":11694:11721   */\n      swap2\n      pop\n        /* \"#utility.yul\":11650:11731   */\n    tag_323:\n        /* \"#utility.yul\":11778:11780   */\n      0x20\n        /* \"#utility.yul\":11770:11776   */\n      dup3\n        /* \"#utility.yul\":11767:11781   */\n      lt\n        /* \"#utility.yul\":11747:11765   */\n      dup2\n        /* \"#utility.yul\":11744:11782   */\n      sub\n        /* \"#utility.yul\":11741:11825   */\n      tag_324\n      jumpi\n        /* \"#utility.yul\":11797:11815   */\n      tag_325\n      tag_173\n      jump\t// in\n    tag_325:\n        /* \"#utility.yul\":11741:11825   */\n    tag_324:\n        /* \"#utility.yul\":11562:11831   */\n      pop\n        /* \"#utility.yul\":11511:11831   */\n      swap2\n      swap1\n      pop\n      jump\t// out\n        /* \"#utility.yul\":11837:12019   */\n    tag_174:\n        /* \"#utility.yul\":11977:12011   */\n      0x4f776e61626c653a2063616c6c6572206973206e6f7420746865206f776e6572\n        /* \"#utility.yul\":11973:11974   */\n      0x00\n        /* \"#utility.yul\":11965:11971   */\n      dup3\n        /* \"#utility.yul\":11961:11975   */\n      add\n        /* \"#utility.yul\":11954:12012   */\n      mstore\n        /* \"#utility.yul\":11837:12019   */\n      pop\n      jump\t// out\n        /* \"#utility.yul\":12025:12391   */\n    tag_175:\n        /* \"#utility.yul\":12167:12170   */\n      0x00\n        /* \"#utility.yul\":12188:12255   */\n      tag_328\n        /* \"#utility.yul\":12252:12254   */\n      0x20\n        /* \"#utility.yul\":12247:12250   */\n      dup4\n        /* \"#utility.yul\":12188:12255   */\n      tag_140\n      jump\t// in\n    tag_328:\n        /* \"#utility.yul\":12181:12255   */\n      swap2\n      pop\n        /* \"#utility.yul\":12264:12357   */\n      tag_329\n        /* \"#utility.yul\":12353:12356   */\n      dup3\n        /* \"#utility.yul\":12264:12357   */\n      tag_174\n      jump\t// in\n    tag_329:\n        /* \"#utility.yul\":12382:12384   */\n      0x20\n        /* \"#utility.yul\":12377:12380   */\n      dup3\n        /* \"#utility.yul\":12373:12385   */\n      add\n        /* \"#utility.yul\":12366:12385   */\n      swap1\n      pop\n        /* \"#utility.yul\":12025:12391   */\n      swap2\n      swap1\n      pop\n      jump\t// out\n        /* \"#utility.yul\":12397:12816   */\n    tag_59:\n        /* \"#utility.yul\":12563:12567   */\n      0x00\n        /* \"#utility.yul\":12601:12603   */\n      0x20\n        /* \"#utility.yul\":12590:12599   */\n      dup3\n        /* \"#utility.yul\":12586:12604   */\n      add\n        /* \"#utility.yul\":12578:12604   */\n      swap1\n      pop\n        /* \"#utility.yul\":12650:12659   */\n      dup2\n        /* \"#utility.yul\":12644:12648   */\n      dup2\n        /* \"#utility.yul\":12640:12660   */\n      sub\n        /* \"#utility.yul\":12636:12637   */\n      0x00\n        /* \"#utility.yul\":12625:12634   */\n      dup4\n        /* \"#utility.yul\":12621:12638   */\n      add\n        /* \"#utility.yul\":12614:12661   */\n      mstore\n        /* \"#utility.yul\":12678:12809   */\n      tag_331\n        /* \"#utility.yul\":12804:12808   */\n      dup2\n        /* \"#utility.yul\":12678:12809   */\n      tag_175\n      jump\t// in\n    tag_331:\n        /* \"#utility.yul\":12670:12809   */\n      swap1\n      pop\n        /* \"#utility.yul\":12397:12816   */\n      swap2\n      swap1\n      pop\n      jump\t// out\n        /* \"#utility.yul\":12822:12970   */\n    tag_176:\n        /* \"#utility.yul\":12924:12935   */\n      0x00\n        /* \"#utility.yul\":12961:12964   */\n      dup2\n        /* \"#utility.yul\":12946:12964   */\n      swap1\n      pop\n        /* \"#utility.yul\":12822:12970   */\n      swap3\n      swap2\n      pop\n      pop\n      jump\t// out\n        /* \"#utility.yul\":12976:13366   */\n    tag_177:\n        /* \"#utility.yul\":13082:13085   */\n      0x00\n        /* \"#utility.yul\":13110:13149   */\n      tag_334\n        /* \"#utility.yul\":13143:13148   */\n      dup3\n        /* \"#utility.yul\":13110:13149   */\n      tag_139\n      jump\t// in\n    tag_334:\n        /* \"#utility.yul\":13165:13254   */\n      tag_335\n        /* \"#utility.yul\":13247:13253   */\n      dup2\n        /* \"#utility.yul\":13242:13245   */\n      dup6\n        /* \"#utility.yul\":13165:13254   */\n      tag_176\n      jump\t// in\n    tag_335:\n        /* \"#utility.yul\":13158:13254   */\n      swap4\n      pop\n        /* \"#utility.yul\":13263:13328   */\n      tag_336\n        /* \"#utility.yul\":13321:13327   */\n      dup2\n        /* \"#utility.yul\":13316:13319   */\n      dup6\n        /* \"#utility.yul\":13309:13313   */\n      0x20\n        /* \"#utility.yul\":13302:13307   */\n      dup7\n        /* \"#utility.yul\":13298:13314   */\n      add\n        /* \"#utility.yul\":13263:13328   */\n      tag_141\n      jump\t// in\n    tag_336:\n        /* \"#utility.yul\":13353:13359   */\n      dup1\n        /* \"#utility.yul\":13348:13351   */\n      dup5\n        /* \"#utility.yul\":13344:13360   */\n      add\n        /* \"#utility.yul\":13337:13360   */\n      swap2\n      pop\n        /* \"#utility.yul\":13086:13366   */\n      pop\n        /* \"#utility.yul\":12976:13366   */\n      swap3\n      swap2\n      pop\n      pop\n      jump\t// out\n        /* \"#utility.yul\":13372:13647   */\n    tag_62:\n        /* \"#utility.yul\":13504:13507   */\n      0x00\n        /* \"#utility.yul\":13526:13621   */\n      tag_338\n        /* \"#utility.yul\":13617:13620   */\n      dup3\n        /* \"#utility.yul\":13608:13614   */\n      dup5\n        /* \"#utility.yul\":13526:13621   */\n      tag_177\n      jump\t// in\n    tag_338:\n        /* \"#utility.yul\":13519:13621   */\n      swap2\n      pop\n        /* \"#utility.yul\":13638:13641   */\n      dup2\n        /* \"#utility.yul\":13631:13641   */\n      swap1\n      pop\n        /* \"#utility.yul\":13372:13647   */\n      swap3\n      swap2\n      pop\n      pop\n      jump\t// out\n        /* \"#utility.yul\":13653:13873   */\n    tag_178:\n        /* \"#utility.yul\":13793:13827   */\n      0x4461746120616c72656164792065786973747320696e20746865206c65646765\n        /* \"#utility.yul\":13789:13790   */\n      0x00\n        /* \"#utility.yul\":13781:13787   */\n      dup3\n        /* \"#utility.yul\":13777:13791   */\n      add\n        /* \"#utility.yul\":13770:13828   */\n      mstore\n        /* \"#utility.yul\":13862:13865   */\n      0x7200000000000000000000000000000000000000000000000000000000000000\n        /* \"#utility.yul\":13857:13859   */\n      0x20\n        /* \"#utility.yul\":13849:13855   */\n      dup3\n        /* \"#utility.yul\":13845:13860   */\n      add\n        /* \"#utility.yul\":13838:13866   */\n      mstore\n        /* \"#utility.yul\":13653:13873   */\n      pop\n      jump\t// out\n        /* \"#utility.yul\":13879:14245   */\n    tag_179:\n        /* \"#utility.yul\":14021:14024   */\n      0x00\n        /* \"#utility.yul\":14042:14109   */\n      tag_341\n        /* \"#utility.yul\":14106:14108   */\n      0x21\n        /* \"#utility.yul\":14101:14104   */\n      dup4\n        /* \"#utility.yul\":14042:14109   */\n      tag_140\n      jump\t// in\n    tag_341:\n        /* \"#utility.yul\":14035:14109   */\n      swap2\n      pop\n        /* \"#utility.yul\":14118:14211   */\n      tag_342\n        /* \"#utility.yul\":14207:14210   */\n      dup3\n        /* \"#utility.yul\":14118:14211   */\n      tag_178\n      jump\t// in\n    tag_342:\n        /* \"#utility.yul\":14236:14238   */\n      0x40\n        /* \"#utility.yul\":14231:14234   */\n      dup3\n        /* \"#utility.yul\":14227:14239   */\n      add\n        /* \"#utility.yul\":14220:14239   */\n      swap1\n      pop\n        /* \"#utility.yul\":13879:14245   */\n      swap2\n      swap1\n      pop\n      jump\t// out\n        /* \"#utility.yul\":14251:14670   */\n    tag_65:\n        /* \"#utility.yul\":14417:14421   */\n      0x00\n        /* \"#utility.yul\":14455:14457   */\n      0x20\n        /* \"#utility.yul\":14444:14453   */\n      dup3\n        /* \"#utility.yul\":14440:14458   */\n      add\n        /* \"#utility.yul\":14432:14458   */\n      swap1\n      pop\n        /* \"#utility.yul\":14504:14513   */\n      dup2\n        /* \"#utility.yul\":14498:14502   */\n      dup2\n        /* \"#utility.yul\":14494:14514   */\n      sub\n        /* \"#utility.yul\":14490:14491   */\n      0x00\n        /* \"#utility.yul\":14479:14488   */\n      dup4\n        /* \"#utility.yul\":14475:14492   */\n      add\n        /* \"#utility.yul\":14468:14515   */\n      mstore\n        /* \"#utility.yul\":14532:14663   */\n      tag_344\n        /* \"#utility.yul\":14658:14662   */\n      dup2\n        /* \"#utility.yul\":14532:14663   */\n      tag_179\n      jump\t// in\n    tag_344:\n        /* \"#utility.yul\":14524:14663   */\n      swap1\n      pop\n        /* \"#utility.yul\":14251:14670   */\n      swap2\n      swap1\n      pop\n      jump\t// out\n        /* \"#utility.yul\":14676:14817   */\n    tag_180:\n        /* \"#utility.yul\":14725:14729   */\n      0x00\n        /* \"#utility.yul\":14748:14751   */\n      dup2\n        /* \"#utility.yul\":14740:14751   */\n      swap1\n      pop\n        /* \"#utility.yul\":14771:14774   */\n      dup2\n        /* \"#utility.yul\":14768:14769   */\n      0x00\n        /* \"#utility.yul\":14761:14775   */\n      mstore\n        /* \"#utility.yul\":14805:14809   */\n      0x20\n        /* \"#utility.yul\":14802:14803   */\n      0x00\n        /* \"#utility.yul\":14792:14810   */\n      keccak256\n        /* \"#utility.yul\":14784:14810   */\n      swap1\n      pop\n        /* \"#utility.yul\":14676:14817   */\n      swap2\n      swap1\n      pop\n      jump\t// out\n        /* \"#utility.yul\":14823:14916   */\n    tag_181:\n        /* \"#utility.yul\":14860:14866   */\n      0x00\n        /* \"#utility.yul\":14907:14909   */\n      0x20\n        /* \"#utility.yul\":14902:14904   */\n      0x1f\n        /* \"#utility.yul\":14895:14900   */\n      dup4\n        /* \"#utility.yul\":14891:14905   */\n      add\n        /* \"#utility.yul\":14887:14910   */\n      div\n        /* \"#utility.yul\":14877:14910   */\n      swap1\n      pop\n        /* \"#utility.yul\":14823:14916   */\n      swap2\n      swap1\n      pop\n      jump\t// out\n        /* \"#utility.yul\":14922:15029   */\n    tag_182:\n        /* \"#utility.yul\":14966:14974   */\n      0x00\n        /* \"#utility.yul\":15016:15021   */\n      dup3\n        /* \"#utility.yul\":15010:15014   */\n      dup3\n        /* \"#utility.yul\":15006:15022   */\n      shl\n        /* \"#utility.yul\":14985:15022   */\n      swap1\n      pop\n        /* \"#utility.yul\":14922:15029   */\n      swap3\n      swap2\n      pop\n      pop\n      jump\t// out\n        /* \"#utility.yul\":15035:15428   */\n    tag_183:\n        /* \"#utility.yul\":15104:15110   */\n      0x00\n        /* \"#utility.yul\":15154:15155   */\n      0x08\n        /* \"#utility.yul\":15142:15152   */\n      dup4\n        /* \"#utility.yul\":15138:15156   */\n      mul\n        /* \"#utility.yul\":15177:15274   */\n      tag_349\n        /* \"#utility.yul\":15207:15273   */\n      0xffffffffffffffffffffffffffffffffffffffffffffffffffffffffffffffff\n        /* \"#utility.yul\":15196:15205   */\n      dup3\n        /* \"#utility.yul\":15177:15274   */\n      tag_182\n      jump\t// in\n    tag_349:\n        /* \"#utility.yul\":15295:15334   */\n      tag_350\n        /* \"#utility.yul\":15325:15333   */\n      dup7\n        /* \"#utility.yul\":15314:15323   */\n      dup4\n        /* \"#utility.yul\":15295:15334   */\n      tag_182\n      jump\t// in\n    tag_350:\n        /* \"#utility.yul\":15283:15334   */\n      swap6\n      pop\n        /* \"#utility.yul\":15367:15371   */\n      dup1\n        /* \"#utility.yul\":15363:15372   */\n      not\n        /* \"#utility.yul\":15356:15361   */\n      dup5\n        /* \"#utility.yul\":15352:15373   */\n      and\n        /* \"#utility.yul\":15343:15373   */\n      swap4\n      pop\n        /* \"#utility.yul\":15416:15420   */\n      dup1\n        /* \"#utility.yul\":15406:15414   */\n      dup7\n        /* \"#utility.yul\":15402:15421   */\n      and\n        /* \"#utility.yul\":15395:15400   */\n      dup5\n        /* \"#utility.yul\":15392:15422   */\n      or\n        /* \"#utility.yul\":15382:15422   */\n      swap3\n      pop\n        /* \"#utility.yul\":15111:15428   */\n      pop\n      pop\n        /* \"#utility.yul\":15035:15428   */\n      swap4\n      swap3\n      pop\n      pop\n      pop\n      jump\t// out\n        /* \"#utility.yul\":15434:15494   */\n    tag_184:\n        /* \"#utility.yul\":15462:15465   */\n      0x00\n        /* \"#utility.yul\":15483:15488   */\n      dup2\n        /* \"#utility.yul\":15476:15488   */\n      swap1\n      pop\n        /* \"#utility.yul\":15434:15494   */\n      swap2\n      swap1\n      pop\n      jump\t// out\n        /* \"#utility.yul\":15500:15642   */\n    tag_185:\n        /* \"#utility.yul\":15550:15559   */\n      0x00\n        /* \"#utility.yul\":15583:15636   */\n      tag_353\n        /* \"#utility.yul\":15601:15635   */\n      tag_354\n        /* \"#utility.yul\":15610:15634   */\n      tag_355\n        /* \"#utility.yul\":15628:15633   */\n      dup5\n        /* \"#utility.yul\":15610:15634   */\n      tag_136\n      jump\t// in\n    tag_355:\n        /* \"#utility.yul\":15601:15635   */\n      tag_184\n      jump\t// in\n    tag_354:\n        /* \"#utility.yul\":15583:15636   */\n      tag_136\n      jump\t// in\n    tag_353:\n        /* \"#utility.yul\":15570:15636   */\n      swap1\n      pop\n        /* \"#utility.yul\":15500:15642   */\n      swap2\n      swap1\n      pop\n      jump\t// out\n        /* \"#utility.yul\":15648:15723   */\n    tag_186:\n        /* \"#utility.yul\":15691:15694   */\n      0x00\n        /* \"#utility.yul\":15712:15717   */\n      dup2\n        /* \"#utility.yul\":15705:15717   */\n      swap1\n      pop\n        /* \"#utility.yul\":15648:15723   */\n      swap2\n      swap1\n      pop\n      jump\t// out\n        /* \"#utility.yul\":15729:15998   */\n    tag_187:\n        /* \"#utility.yul\":15839:15878   */\n      tag_358\n        /* \"#utility.yul\":15870:15877   */\n      dup4\n        /* \"#utility.yul\":15839:15878   */\n      tag_185\n      jump\t// in\n    tag_358:\n        /* \"#utility.yul\":15900:15991   */\n      tag_359\n        /* \"#utility.yul\":15949:15990   */\n      tag_360\n        /* \"#utility.yul\":15973:15989   */\n      dup3\n        /* \"#utility.yul\":15949:15990   */\n      tag_186\n      jump\t// in\n    tag_360:\n        /* \"#utility.yul\":15941:15947   */\n      dup5\n        /* \"#utility.yul\":15934:15938   */\n      dup5\n        /* \"#utility.yul\":15928:15939   */\n      sload\n        /* \"#utility.yul\":15900:15991   */\n      tag_183\n      jump\t// in\n    tag_359:\n        /* \"#utility.yul\":15894:15898   */\n      dup3\n        /* \"#utility.yul\":15887:15992   */\n      sstore\n        /* \"#utility.yul\":15805:15998   */\n      pop\n        /* \"#utility.yul\":15729:15998   */\n      pop\n      pop\n      pop\n      jump\t// out\n        /* \"#utility.yul\":16004:16077   */\n    tag_188:\n        /* \"#utility.yul\":16049:16052   */\n      0x00\n        /* \"#utility.yul\":16004:16077   */\n      swap1\n      jump\t// out\n        /* \"#utility.yul\":16083:16272   */\n    tag_189:\n        /* \"#utility.yul\":16160:16192   */\n      tag_363\n      tag_188\n      jump\t// in\n    tag_363:\n        /* \"#utility.yul\":16201:16266   */\n      tag_364\n        /* \"#utility.yul\":16259:16265   */\n      dup2\n        /* \"#utility.yul\":16251:16257   */\n      dup5\n        /* \"#utility.yul\":16245:16249   */\n      dup5\n        /* \"#utility.yul\":16201:16266   */\n      tag_187\n      jump\t// in\n    tag_364:\n        /* \"#utility.yul\":16136:16272   */\n      pop\n        /* \"#utility.yul\":16083:16272   */\n      pop\n      pop\n      jump\t// out\n        /* \"#utility.yul\":16278:16464   */\n    tag_190:\n        /* \"#utility.yul\":16338:16458   */\n    tag_366:\n        /* \"#utility.yul\":16355:16358   */\n      dup2\n        /* \"#utility.yul\":16348:16353   */\n      dup2\n        /* \"#utility.yul\":16345:16359   */\n      lt\n        /* \"#utility.yul\":16338:16458   */\n      iszero\n      tag_368\n      jumpi\n        /* \"#utility.yul\":16409:16448   */\n      tag_369\n        /* \"#utility.yul\":16446:16447   */\n      0x00\n        /* \"#utility.yul\":16439:16444   */\n      dup3\n        /* \"#utility.yul\":16409:16448   */\n      tag_189\n      jump\t// in\n    tag_369:\n        /* \"#utility.yul\":16382:16383   */\n      0x01\n        /* \"#utility.yul\":16375:16380   */\n      dup2\n        /* \"#utility.yul\":16371:16384   */\n      add\n        /* \"#utility.yul\":16362:16384   */\n      swap1\n      pop\n        /* \"#utility.yul\":16338:16458   */\n      jump(tag_366)\n    tag_368:\n        /* \"#utility.yul\":16278:16464   */\n      pop\n      pop\n      jump\t// out\n        /* \"#utility.yul\":16470:17013   */\n    tag_191:\n        /* \"#utility.yul\":16571:16573   */\n      0x1f\n        /* \"#utility.yul\":16566:16569   */\n      dup3\n        /* \"#utility.yul\":16563:16574   */\n      gt\n        /* \"#utility.yul\":16560:17006   */\n      iszero\n      tag_371\n      jumpi\n        /* \"#utility.yul\":16605:16643   */\n      tag_372\n        /* \"#utility.yul\":16637:16642   */\n      dup2\n        /* \"#utility.yul\":16605:16643   */\n      tag_180\n      jump\t// in\n    tag_372:\n        /* \"#utility.yul\":16689:16718   */\n      tag_373\n        /* \"#utility.yul\":16707:16717   */\n      dup5\n        /* \"#utility.yul\":16689:16718   */\n      tag_181\n      jump\t// in\n    tag_373:\n        /* \"#utility.yul\":16679:16687   */\n      dup2\n        /* \"#utility.yul\":16675:16719   */\n      add\n        /* \"#utility.yul\":16872:16874   */\n      0x20\n        /* \"#utility.yul\":16860:16870   */\n      dup6\n        /* \"#utility.yul\":16857:16875   */\n      lt\n        /* \"#utility.yul\":16854:16903   */\n      iszero\n      tag_374\n      jumpi\n        /* \"#utility.yul\":16893:16901   */\n      dup2\n        /* \"#utility.yul\":16878:16901   */\n      swap1\n      pop\n        /* \"#utility.yul\":16854:16903   */\n    tag_374:\n        /* \"#utility.yul\":16916:16996   */\n      tag_375\n        /* \"#utility.yul\":16972:16994   */\n      tag_376\n        /* \"#utility.yul\":16990:16993   */\n      dup6\n        /* \"#utility.yul\":16972:16994   */\n      tag_181\n      jump\t// in\n    tag_376:\n        /* \"#utility.yul\":16962:16970   */\n      dup4\n        /* \"#utility.yul\":16958:16995   */\n      add\n        /* \"#utility.yul\":16945:16956   */\n      dup3\n        /* \"#utility.yul\":16916:16996   */\n      tag_190\n      jump\t// in\n    tag_375:\n        /* \"#utility.yul\":16575:17006   */\n      pop\n      pop\n        /* \"#utility.yul\":16560:17006   */\n    tag_371:\n        /* \"#utility.yul\":16470:17013   */\n      pop\n      pop\n      pop\n      jump\t// out\n        /* \"#utility.yul\":17019:17136   */\n    tag_192:\n        /* \"#utility.yul\":17073:17081   */\n      0x00\n        /* \"#utility.yul\":17123:17128   */\n      dup3\n        /* \"#utility.yul\":17117:17121   */\n      dup3\n        /* \"#utility.yul\":17113:17129   */\n      shr\n        /* \"#utility.yul\":17092:17129   */\n      swap1\n      pop\n        /* \"#utility.yul\":17019:17136   */\n      swap3\n      swap2\n      pop\n      pop\n      jump\t// out\n        /* \"#utility.yul\":17142:17311   */\n    tag_193:\n        /* \"#utility.yul\":17186:17192   */\n      0x00\n        /* \"#utility.yul\":17219:17270   */\n      tag_379\n        /* \"#utility.yul\":17267:17268   */\n      0x00\n        /* \"#utility.yul\":17263:17269   */\n      not\n        /* \"#utility.yul\":17255:17260   */\n      dup5\n        /* \"#utility.yul\":17252:17253   */\n      0x08\n        /* \"#utility.yul\":17248:17261   */\n      mul\n        /* \"#utility.yul\":17219:17270   */\n      tag_192\n      jump\t// in\n    tag_379:\n        /* \"#utility.yul\":17215:17271   */\n      not\n        /* \"#utility.yul\":17300:17304   */\n      dup1\n        /* \"#utility.yul\":17294:17298   */\n      dup4\n        /* \"#utility.yul\":17290:17305   */\n      and\n        /* \"#utility.yul\":17280:17305   */\n      swap2\n      pop\n        /* \"#utility.yul\":17193:17311   */\n      pop\n        /* \"#utility.yul\":17142:17311   */\n      swap3\n      swap2\n      pop\n      pop\n      jump\t// out\n        /* \"#utility.yul\":17316:17611   */\n    tag_194:\n        /* \"#utility.yul\":17392:17396   */\n      0x00\n        /* \"#utility.yul\":17538:17567   */\n      tag_381\n        /* \"#utility.yul\":17563:17566   */\n      dup4\n        /* \"#utility.yul\":17557:17561   */\n      dup4\n        /* \"#utility.yul\":17538:17567   */\n      tag_193\n      jump\t// in\n    tag_381:\n        /* \"#utility.yul\":17530:17567   */\n      swap2\n      pop\n        /* \"#utility.yul\":17600:17603   */\n      dup3\n        /* \"#utility.yul\":17597:17598   */\n      0x02\n        /* \"#utility.yul\":17593:17604   */\n      mul\n        /* \"#utility.yul\":17587:17591   */\n      dup3\n        /* \"#utility.yul\":17584:17605   */\n      or\n        /* \"#utility.yul\":17576:17605   */\n      swap1\n      pop\n        /* \"#utility.yul\":17316:17611   */\n      swap3\n      swap2\n      pop\n      pop\n      jump\t// out\n        /* \"#utility.yul\":17616:19011   */\n    tag_68:\n        /* \"#utility.yul\":17733:17770   */\n      tag_383\n        /* \"#utility.yul\":17766:17769   */\n      dup3\n        /* \"#utility.yul\":17733:17770   */\n      tag_139\n      jump\t// in\n    tag_383:\n        /* \"#utility.yul\":17835:17853   */\n      0xffffffffffffffff\n        /* \"#utility.yul\":17827:17833   */\n      dup2\n        /* \"#utility.yul\":17824:17854   */\n      gt\n        /* \"#utility.yul\":17821:17877   */\n      iszero\n      tag_384\n      jumpi\n        /* \"#utility.yul\":17857:17875   */\n      tag_385\n      tag_74\n      jump\t// in\n    tag_385:\n        /* \"#utility.yul\":17821:17877   */\n    tag_384:\n        /* \"#utility.yul\":17901:17939   */\n      tag_386\n        /* \"#utility.yul\":17933:17937   */\n      dup3\n        /* \"#utility.yul\":17927:17938   */\n      sload\n        /* \"#utility.yul\":17901:17939   */\n      tag_48\n      jump\t// in\n    tag_386:\n        /* \"#utility.yul\":17986:18053   */\n      tag_387\n        /* \"#utility.yul\":18046:18052   */\n      dup3\n        /* \"#utility.yul\":18038:18044   */\n      dup3\n        /* \"#utility.yul\":18032:18036   */\n      dup6\n        /* \"#utility.yul\":17986:18053   */\n      tag_191\n      jump\t// in\n    tag_387:\n        /* \"#utility.yul\":18080:18081   */\n      0x00\n        /* \"#utility.yul\":18104:18108   */\n      0x20\n        /* \"#utility.yul\":18091:18108   */\n      swap1\n      pop\n        /* \"#utility.yul\":18136:18138   */\n      0x1f\n        /* \"#utility.yul\":18128:18134   */\n      dup4\n        /* \"#utility.yul\":18125:18139   */\n      gt\n        /* \"#utility.yul\":18153:18154   */\n      0x01\n        /* \"#utility.yul\":18148:18766   */\n      dup2\n      eq\n      tag_389\n      jumpi\n        /* \"#utility.yul\":18810:18811   */\n      0x00\n        /* \"#utility.yul\":18827:18833   */\n      dup5\n        /* \"#utility.yul\":18824:18901   */\n      iszero\n      tag_390\n      jumpi\n        /* \"#utility.yul\":18876:18885   */\n      dup3\n        /* \"#utility.yul\":18871:18874   */\n      dup8\n        /* \"#utility.yul\":18867:18886   */\n      add\n        /* \"#utility.yul\":18861:18887   */\n      mload\n        /* \"#utility.yul\":18852:18887   */\n      swap1\n      pop\n        /* \"#utility.yul\":18824:18901   */\n    tag_390:\n        /* \"#utility.yul\":18927:18994   */\n      tag_391\n        /* \"#utility.yul\":18987:18993   */\n      dup6\n        /* \"#utility.yul\":18980:18985   */\n      dup3\n        /* \"#utility.yul\":18927:18994   */\n      tag_194\n      jump\t// in\n    tag_391:\n        /* \"#utility.yul\":18921:18925   */\n      dup7\n        /* \"#utility.yul\":18914:18995   */\n      sstore\n        /* \"#utility.yul\":18783:19005   */\n      pop\n        /* \"#utility.yul\":18118:19005   */\n      jump(tag_388)\n        /* \"#utility.yul\":18148:18766   */\n    tag_389:\n        /* \"#utility.yul\":18200:18204   */\n      0x1f\n        /* \"#utility.yul\":18196:18205   */\n      not\n        /* \"#utility.yul\":18188:18194   */\n      dup5\n        /* \"#utility.yul\":18184:18206   */\n      and\n        /* \"#utility.yul\":18234:18271   */\n      tag_392\n        /* \"#utility.yul\":18266:18270   */\n      dup7\n        /* \"#utility.yul\":18234:18271   */\n      tag_180\n      jump\t// in\n    tag_392:\n        /* \"#utility.yul\":18293:18294   */\n      0x00\n        /* \"#utility.yul\":18307:18515   */\n    tag_393:\n        /* \"#utility.yul\":18321:18328   */\n      dup3\n        /* \"#utility.yul\":18318:18319   */\n      dup2\n        /* \"#utility.yul\":18315:18329   */\n      lt\n        /* \"#utility.yul\":18307:18515   */\n      iszero\n      tag_395\n      jumpi\n        /* \"#utility.yul\":18400:18409   */\n      dup5\n        /* \"#utility.yul\":18395:18398   */\n      dup10\n        /* \"#utility.yul\":18391:18410   */\n      add\n        /* \"#utility.yul\":18385:18411   */\n      mload\n        /* \"#utility.yul\":18377:18383   */\n      dup3\n        /* \"#utility.yul\":18370:18412   */\n      sstore\n        /* \"#utility.yul\":18451:18452   */\n      0x01\n        /* \"#utility.yul\":18443:18449   */\n      dup3\n        /* \"#utility.yul\":18439:18453   */\n      add\n        /* \"#utility.yul\":18429:18453   */\n      swap2\n      pop\n        /* \"#utility.yul\":18498:18500   */\n      0x20\n        /* \"#utility.yul\":18487:18496   */\n      dup6\n        /* \"#utility.yul\":18483:18501   */\n      add\n        /* \"#utility.yul\":18470:18501   */\n      swap5\n      pop\n        /* \"#utility.yul\":18344:18348   */\n      0x20\n        /* \"#utility.yul\":18341:18342   */\n      dup2\n        /* \"#utility.yul\":18337:18349   */\n      add\n        /* \"#utility.yul\":18332:18349   */\n      swap1\n      pop\n        /* \"#utility.yul\":18307:18515   */\n      jump(tag_393)\n    tag_395:\n        /* \"#utility.yul\":18543:18549   */\n      dup7\n        /* \"#utility.yul\":18534:18541   */\n      dup4\n        /* \"#utility.yul\":18531:18550   */\n      lt\n        /* \"#utility.yul\":18528:18707   */\n      iszero\n      tag_396\n      jumpi\n        /* \"#utility.yul\":18601:18610   */\n      dup5\n        /* \"#utility.yul\":18596:18599   */\n      dup10\n        /* \"#utility.yul\":18592:18611   */\n      add\n        /* \"#utility.yul\":18586:18612   */\n      mload\n        /* \"#utility.yul\":18644:18692   */\n      tag_397\n        /* \"#utility.yul\":18686:18690   */\n      0x1f\n        /* \"#utility.yul\":18678:18684   */\n      dup10\n        /* \"#utility.yul\":18674:18691   */\n      and\n        /* \"#utility.yul\":18663:18672   */\n      dup3\n        /* \"#utility.yul\":18644:18692   */\n      tag_193\n      jump\t// in\n    tag_397:\n        /* \"#utility.yul\":18636:18642   */\n      dup4\n        /* \"#utility.yul\":18629:18693   */\n      sstore\n        /* \"#utility.yul\":18551:18707   */\n      pop\n        /* \"#utility.yul\":18528:18707   */\n    tag_396:\n        /* \"#utility.yul\":18753:18754   */\n      0x01\n        /* \"#utility.yul\":18749:18750   */\n      0x02\n        /* \"#utility.yul\":18741:18747   */\n      dup9\n        /* \"#utility.yul\":18737:18751   */\n      mul\n        /* \"#utility.yul\":18733:18755   */\n      add\n        /* \"#utility.yul\":18727:18731   */\n      dup9\n        /* \"#utility.yul\":18720:18756   */\n      sstore\n        /* \"#utility.yul\":18155:18766   */\n      pop\n      pop\n      pop\n        /* \"#utility.yul\":18118:19005   */\n    tag_388:\n      pop\n        /* \"#utility.yul\":17708:19011   */\n      pop\n      pop\n      pop\n        /* \"#utility.yul\":17616:19011   */\n      pop\n      pop\n      jump\t// out\n        /* \"#utility.yul\":19017:19197   */\n    tag_85:\n        /* \"#utility.yul\":19065:19142   */\n      0x4e487b7100000000000000000000000000000000000000000000000000000000\n        /* \"#utility.yul\":19062:19063   */\n      0x00\n        /* \"#utility.yul\":19055:19143   */\n      mstore\n        /* \"#utility.yul\":19162:19166   */\n      0x32\n        /* \"#utility.yul\":19159:19160   */\n      0x04\n        /* \"#utility.yul\":19152:19167   */\n      mstore\n        /* \"#utility.yul\":19186:19190   */\n      0x24\n        /* \"#utility.yul\":19183:19184   */\n      0x00\n        /* \"#utility.yul\":19176:19191   */\n      revert\n        /* \"#utility.yul\":19203:19383   */\n    tag_195:\n        /* \"#utility.yul\":19251:19328   */\n      0x4e487b7100000000000000000000000000000000000000000000000000000000\n        /* \"#utility.yul\":19248:19249   */\n      0x00\n        /* \"#utility.yul\":19241:19329   */\n      mstore\n        /* \"#utility.yul\":19348:19352   */\n      0x11\n        /* \"#utility.yul\":19345:19346   */\n      0x04\n        /* \"#utility.yul\":19338:19353   */\n      mstore\n        /* \"#utility.yul\":19372:19376   */\n      0x24\n        /* \"#utility.yul\":19369:19370   */\n      0x00\n        /* \"#utility.yul\":19362:19377   */\n      revert\n        /* \"#utility.yul\":19389:19622   */\n    tag_100:\n        /* \"#utility.yul\":19428:19431   */\n      0x00\n        /* \"#utility.yul\":19451:19475   */\n      tag_401\n        /* \"#utility.yul\":19469:19474   */\n      dup3\n        /* \"#utility.yul\":19451:19475   */\n      tag_136\n      jump\t// in\n    tag_401:\n        /* \"#utility.yul\":19442:19475   */\n      swap2\n      pop\n        /* \"#utility.yul\":19497:19563   */\n      0xffffffffffffffffffffffffffffffffffffffffffffffffffffffffffffffff\n        /* \"#utility.yul\":19490:19495   */\n      dup3\n        /* \"#utility.yul\":19487:19564   */\n      sub\n        /* \"#utility.yul\":19484:19587   */\n      tag_402\n      jumpi\n        /* \"#utility.yul\":19567:19585   */\n      tag_403\n      tag_195\n      jump\t// in\n    tag_403:\n        /* \"#utility.yul\":19484:19587   */\n    tag_402:\n        /* \"#utility.yul\":19614:19615   */\n      0x01\n        /* \"#utility.yul\":19607:19612   */\n      dup3\n        /* \"#utility.yul\":19603:19616   */\n      add\n        /* \"#utility.yul\":19596:19616   */\n      swap1\n      pop\n        /* \"#utility.yul\":19389:19622   */\n      swap2\n      swap1\n      pop\n      jump\t// out\n        /* \"#utility.yul\":19628:19853   */\n    tag_196:\n        /* \"#utility.yul\":19768:19802   */\n      0x4f776e61626c653a206e6577206f776e657220697320746865207a65726f2061\n        /* \"#utility.yul\":19764:19765   */\n      0x00\n        /* \"#utility.yul\":19756:19762   */\n      dup3\n        /* \"#utility.yul\":19752:19766   */\n      add\n        /* \"#utility.yul\":19745:19803   */\n      mstore\n        /* \"#utility.yul\":19837:19845   */\n      0x6464726573730000000000000000000000000000000000000000000000000000\n        /* \"#utility.yul\":19832:19834   */\n      0x20\n        /* \"#utility.yul\":19824:19830   */\n      dup3\n        /* \"#utility.yul\":19820:19835   */\n      add\n        /* \"#utility.yul\":19813:19846   */\n      mstore\n        /* \"#utility.yul\":19628:19853   */\n      pop\n      jump\t// out\n        /* \"#utility.yul\":19859:20225   */\n    tag_197:\n        /* \"#utility.yul\":20001:20004   */\n      0x00\n        /* \"#utility.yul\":20022:20089   */\n      tag_406\n        /* \"#utility.yul\":20086:20088   */\n      0x26\n        /* \"#utility.yul\":20081:20084   */\n      dup4\n        /* \"#utility.yul\":20022:20089   */\n      tag_140\n      jump\t// in\n    tag_406:\n        /* \"#utility.yul\":20015:20089   */\n      swap2\n      pop\n        /* \"#utility.yul\":20098:20191   */\n      tag_407\n        /* \"#utility.yul\":20187:20190   */\n      dup3\n        /* \"#utility.yul\":20098:20191   */\n      tag_196\n      jump\t// in\n    tag_407:\n        /* \"#utility.yul\":20216:20218   */\n      0x40\n        /* \"#utility.yul\":20211:20214   */\n      dup3\n        /* \"#utility.yul\":20207:20219   */\n      add\n        /* \"#utility.yul\":20200:20219   */\n      swap1\n      pop\n        /* \"#utility.yul\":19859:20225   */\n      swap2\n      swap1\n      pop\n      jump\t// out\n        /* \"#utility.yul\":20231:20650   */\n    tag_123:\n        /* \"#utility.yul\":20397:20401   */\n      0x00\n        /* \"#utility.yul\":20435:20437   */\n      0x20\n        /* \"#utility.yul\":20424:20433   */\n      dup3\n        /* \"#utility.yul\":20420:20438   */\n      add\n        /* \"#utility.yul\":20412:20438   */\n      swap1\n      pop\n        /* \"#utility.yul\":20484:20493   */\n      dup2\n        /* \"#utility.yul\":20478:20482   */\n      dup2\n        /* \"#utility.yul\":20474:20494   */\n      sub\n        /* \"#utility.yul\":20470:20471   */\n      0x00\n        /* \"#utility.yul\":20459:20468   */\n      dup4\n        /* \"#utility.yul\":20455:20472   */\n      add\n        /* \"#utility.yul\":20448:20495   */\n      mstore\n        /* \"#utility.yul\":20512:20643   */\n      tag_409\n        /* \"#utility.yul\":20638:20642   */\n      dup2\n        /* \"#utility.yul\":20512:20643   */\n      tag_197\n      jump\t// in\n    tag_409:\n        /* \"#utility.yul\":20504:20643   */\n      swap1\n      pop\n        /* \"#utility.yul\":20231:20650   */\n      swap2\n      swap1\n      pop\n      jump\t// out\n        /* \"#utility.yul\":20656:20834   */\n    tag_198:\n        /* \"#utility.yul\":20796:20826   */\n      0x64617461206e6f7420666f756e6420696e20746865206c656467657200000000\n        /* \"#utility.yul\":20792:20793   */\n      0x00\n        /* \"#utility.yul\":20784:20790   */\n      dup3\n        /* \"#utility.yul\":20780:20794   */\n      add\n        /* \"#utility.yul\":20773:20827   */\n      mstore\n        /* \"#utility.yul\":20656:20834   */\n      pop\n      jump\t// out\n        /* \"#utility.yul\":20840:21206   */\n    tag_199:\n        /* \"#utility.yul\":20982:20985   */\n      0x00\n        /* \"#utility.yul\":21003:21070   */\n      tag_412\n        /* \"#utility.yul\":21067:21069   */\n      0x1c\n        /* \"#utility.yul\":21062:21065   */\n      dup4\n        /* \"#utility.yul\":21003:21070   */\n      tag_140\n      jump\t// in\n    tag_412:\n        /* \"#utility.yul\":20996:21070   */\n      swap2\n      pop\n        /* \"#utility.yul\":21079:21172   */\n      tag_413\n        /* \"#utility.yul\":21168:21171   */\n      dup3\n        /* \"#utility.yul\":21079:21172   */\n      tag_198\n      jump\t// in\n    tag_413:\n        /* \"#utility.yul\":21197:21199   */\n      0x20\n        /* \"#utility.yul\":21192:21195   */\n      dup3\n        /* \"#utility.yul\":21188:21200   */\n      add\n        /* \"#utility.yul\":21181:21200   */\n      swap1\n      pop\n        /* \"#utility.yul\":20840:21206   */\n      swap2\n      swap1\n      pop\n      jump\t// out\n        /* \"#utility.yul\":21212:21631   */\n    tag_129:\n        /* \"#utility.yul\":21378:21382   */\n      0x00\n        /* \"#utility.yul\":21416:21418   */\n      0x20\n        /* \"#utility.yul\":21405:21414   */\n      dup3\n        /* \"#utility.yul\":21401:21419   */\n      add\n        /* \"#utility.yul\":21393:21419   */\n      swap1\n      pop\n        /* \"#utility.yul\":21465:21474   */\n      dup2\n        /* \"#utility.yul\":21459:21463   */\n      dup2\n        /* \"#utility.yul\":21455:21475   */\n      sub\n        /* \"#utility.yul\":21451:21452   */\n      0x00\n        /* \"#utility.yul\":21440:21449   */\n      dup4\n        /* \"#utility.yul\":21436:21453   */\n      add\n        /* \"#utility.yul\":21429:21476   */\n      mstore\n        /* \"#utility.yul\":21493:21624   */\n      tag_415\n        /* \"#utility.yul\":21619:21623   */\n      dup2\n        /* \"#utility.yul\":21493:21624   */\n      tag_199\n      jump\t// in\n    tag_415:\n        /* \"#utility.yul\":21485:21624   */\n      swap1\n      pop\n        /* \"#utility.yul\":21212:21631   */\n      swap2\n      swap1\n      pop\n      jump\t// out\n\n    auxdata: 0xa2646970667358221220ca9d2e2a81b316fbdc1b0f784c1f785332d82772dc53d1080a826a93d2925c7864736f6c63430008150033\n}\n",
				"bytecode": {
					"linkReferences": {},
					"object": "608060405234801561000f575f80fd5b5061002c61002161003160201b60201c565b61003860201b60201c565b6100f9565b5f33905090565b5f805f9054906101000a900473ffffffffffffffffffffffffffffffffffffffff169050815f806101000a81548173ffffffffffffffffffffffffffffffffffffffff021916908373ffffffffffffffffffffffffffffffffffffffff1602179055508173ffffffffffffffffffffffffffffffffffffffff168173ffffffffffffffffffffffffffffffffffffffff167f8be0079c531659141344cd1fd0a4f28419497f9722a3daafe3b4186f6b6457e060405160405180910390a35050565b6114a3806101065f395ff3fe608060405234801561000f575f80fd5b5060043610610086575f3560e01c8063715018a611610059578063715018a6146101275780638da5cb5b14610131578063f2fde38b1461014f578063f76d53f81461016b57610086565b806310a7fd7b1461008a5780632bf63377146100bb5780632d10fa28146100d757806369cea776146100f6575b5f80fd5b6100a4600480360381019061009f91906109ad565b61019b565b6040516100b2929190610a71565b60405180910390f35b6100d560048036038101906100d09190610bcb565b610250565b005b6100df6103d4565b6040516100ed929190610dcc565b60405180910390f35b610110600480360381019061010b9190610bcb565b6105b2565b60405161011e929190610a71565b60405180910390f35b61012f610670565b005b6101396106f7565b6040516101469190610e40565b60405180910390f35b61016960048036038101906101649190610e83565b61071e565b005b61018560048036038101906101809190610bcb565b610814565b6040516101929190610eae565b60405180910390f35b600181815481106101aa575f80fd5b905f5260205f2090600202015f91509050805f0180546101c990610ef4565b80601f01602080910402602001604051908101604052809291908181526020018280546101f590610ef4565b80156102405780601f1061021757610100808354040283529160200191610240565b820191905f5260205f20905b81548152906001019060200180831161022357829003601f168201915b5050505050908060010154905082565b6102586108a1565b73ffffffffffffffffffffffffffffffffffffffff166102766106f7565b73ffffffffffffffffffffffffffffffffffffffff16146102cc576040517f08c379a00000000000000000000000000000000000000000000000000000000081526004016102c390610f6e565b60405180910390fd5b5f6002826040516102dd9190610fc6565b9081526020016040518091039020600101541461032f576040517f08c379a00000000000000000000000000000000000000000000000000000000081526004016103269061104c565b60405180910390fd5b5f6040518060400160405280838152602001428152509050600181908060018154018082558091505060019003905f5260205f2090600202015f909190919091505f820151815f0190816103839190611207565b50602082015181600101555050806002836040516103a19190610fc6565b90815260200160405180910390205f820151815f0190816103c29190611207565b50602082015181600101559050505050565b6060805f60018054905090505f8167ffffffffffffffff8111156103fb576103fa610aa7565b5b60405190808252806020026020018201604052801561042e57816020015b60608152602001906001900390816104195790505b5090505f8267ffffffffffffffff81111561044c5761044b610aa7565b5b60405190808252806020026020018201604052801561047a5781602001602082028036833780820191505090505b5090505f5b838110156105a4576001818154811061049b5761049a6112d6565b5b905f5260205f2090600202015f0180546104b490610ef4565b80601f01602080910402602001604051908101604052809291908181526020018280546104e090610ef4565b801561052b5780601f106105025761010080835404028352916020019161052b565b820191905f5260205f20905b81548152906001019060200180831161050e57829003601f168201915b5050505050838281518110610543576105426112d6565b5b602002602001018190525060018181548110610562576105616112d6565b5b905f5260205f20906002020160010154828281518110610585576105846112d6565b5b602002602001018181525050808061059c90611330565b91505061047f565b508181945094505050509091565b6002818051602081018201805184825260208301602085012081835280955050505050505f91509050805f0180546105e990610ef4565b80601f016020809104026020016040519081016040528092919081815260200182805461061590610ef4565b80156106605780601f1061063757610100808354040283529160200191610660565b820191905f5260205f20905b81548152906001019060200180831161064357829003601f168201915b5050505050908060010154905082565b6106786108a1565b73ffffffffffffffffffffffffffffffffffffffff166106966106f7565b73ffffffffffffffffffffffffffffffffffffffff16146106ec576040517f08c379a00000000000000000000000000000000000000000000000000000000081526004016106e390610f6e565b60405180910390fd5b6106f55f6108a8565b565b5f805f9054906101000a900473ffffffffffffffffffffffffffffffffffffffff16905090565b6107266108a1565b73ffffffffffffffffffffffffffffffffffffffff166107446106f7565b73ffffffffffffffffffffffffffffffffffffffff161461079a576040517f08c379a000000000000000000000000000000000000000000000000000000000815260040161079190610f6e565b60405180910390fd5b5f73ffffffffffffffffffffffffffffffffffffffff168173ffffffffffffffffffffffffffffffffffffffff1603610808576040517f08c379a00000000000000000000000000000000000000000000000000000000081526004016107ff906113e7565b60405180910390fd5b610811816108a8565b50565b5f806002836040516108269190610fc6565b90815260200160405180910390206001015403610878576040517f08c379a000000000000000000000000000000000000000000000000000000000815260040161086f9061144f565b60405180910390fd5b6002826040516108889190610fc6565b9081526020016040518091039020600101549050919050565b5f33905090565b5f805f9054906101000a900473ffffffffffffffffffffffffffffffffffffffff169050815f806101000a81548173ffffffffffffffffffffffffffffffffffffffff021916908373ffffffffffffffffffffffffffffffffffffffff1602179055508173ffffffffffffffffffffffffffffffffffffffff168173ffffffffffffffffffffffffffffffffffffffff167f8be0079c531659141344cd1fd0a4f28419497f9722a3daafe3b4186f6b6457e060405160405180910390a35050565b5f604051905090565b5f80fd5b5f80fd5b5f819050919050565b61098c8161097a565b8114610996575f80fd5b50565b5f813590506109a781610983565b92915050565b5f602082840312156109c2576109c1610972565b5b5f6109cf84828501610999565b91505092915050565b5f81519050919050565b5f82825260208201905092915050565b5f5b83811015610a0f5780820151818401526020810190506109f4565b5f8484015250505050565b5f601f19601f8301169050919050565b5f610a34826109d8565b610a3e81856109e2565b9350610a4e8185602086016109f2565b610a5781610a1a565b840191505092915050565b610a6b8161097a565b82525050565b5f6040820190508181035f830152610a898185610a2a565b9050610a986020830184610a62565b9392505050565b5f80fd5b5f80fd5b7f4e487b71000000000000000000000000000000000000000000000000000000005f52604160045260245ffd5b610add82610a1a565b810181811067ffffffffffffffff82111715610afc57610afb610aa7565b5b80604052505050565b5f610b0e610969565b9050610b1a8282610ad4565b919050565b5f67ffffffffffffffff821115610b3957610b38610aa7565b5b610b4282610a1a565b9050602081019050919050565b828183375f83830152505050565b5f610b6f610b6a84610b1f565b610b05565b905082815260208101848484011115610b8b57610b8a610aa3565b5b610b96848285610b4f565b509392505050565b5f82601f830112610bb257610bb1610a9f565b5b8135610bc2848260208601610b5d565b91505092915050565b5f60208284031215610be057610bdf610972565b5b5f82013567ffffffffffffffff811115610bfd57610bfc610976565b5b610c0984828501610b9e565b91505092915050565b5f81519050919050565b5f82825260208201905092915050565b5f819050602082019050919050565b5f82825260208201905092915050565b5f610c55826109d8565b610c5f8185610c3b565b9350610c6f8185602086016109f2565b610c7881610a1a565b840191505092915050565b5f610c8e8383610c4b565b905092915050565b5f602082019050919050565b5f610cac82610c12565b610cb68185610c1c565b935083602082028501610cc885610c2c565b805f5b85811015610d035784840389528151610ce48582610c83565b9450610cef83610c96565b925060208a01995050600181019050610ccb565b50829750879550505050505092915050565b5f81519050919050565b5f82825260208201905092915050565b5f819050602082019050919050565b610d478161097a565b82525050565b5f610d588383610d3e565b60208301905092915050565b5f602082019050919050565b5f610d7a82610d15565b610d848185610d1f565b9350610d8f83610d2f565b805f5b83811015610dbf578151610da68882610d4d565b9750610db183610d64565b925050600181019050610d92565b5085935050505092915050565b5f6040820190508181035f830152610de48185610ca2565b90508181036020830152610df88184610d70565b90509392505050565b5f73ffffffffffffffffffffffffffffffffffffffff82169050919050565b5f610e2a82610e01565b9050919050565b610e3a81610e20565b82525050565b5f602082019050610e535f830184610e31565b92915050565b610e6281610e20565b8114610e6c575f80fd5b50565b5f81359050610e7d81610e59565b92915050565b5f60208284031215610e9857610e97610972565b5b5f610ea584828501610e6f565b91505092915050565b5f602082019050610ec15f830184610a62565b92915050565b7f4e487b71000000000000000000000000000000000000000000000000000000005f52602260045260245ffd5b5f6002820490506001821680610f0b57607f821691505b602082108103610f1e57610f1d610ec7565b5b50919050565b7f4f776e61626c653a2063616c6c6572206973206e6f7420746865206f776e65725f82015250565b5f610f586020836109e2565b9150610f6382610f24565b602082019050919050565b5f6020820190508181035f830152610f8581610f4c565b9050919050565b5f81905092915050565b5f610fa0826109d8565b610faa8185610f8c565b9350610fba8185602086016109f2565b80840191505092915050565b5f610fd18284610f96565b915081905092915050565b7f4461746120616c72656164792065786973747320696e20746865206c656467655f8201527f7200000000000000000000000000000000000000000000000000000000000000602082015250565b5f6110366021836109e2565b915061104182610fdc565b604082019050919050565b5f6020820190508181035f8301526110638161102a565b9050919050565b5f819050815f5260205f209050919050565b5f6020601f8301049050919050565b5f82821b905092915050565b5f600883026110c67fffffffffffffffffffffffffffffffffffffffffffffffffffffffffffffffff8261108b565b6110d0868361108b565b95508019841693508086168417925050509392505050565b5f819050919050565b5f61110b6111066111018461097a565b6110e8565b61097a565b9050919050565b5f819050919050565b611124836110f1565b61113861113082611112565b848454611097565b825550505050565b5f90565b61114c611140565b61115781848461111b565b505050565b5b8181101561117a5761116f5f82611144565b60018101905061115d565b5050565b601f8211156111bf576111908161106a565b6111998461107c565b810160208510156111a8578190505b6111bc6111b48561107c565b83018261115c565b50505b505050565b5f82821c905092915050565b5f6111df5f19846008026111c4565b1980831691505092915050565b5f6111f783836111d0565b9150826002028217905092915050565b611210826109d8565b67ffffffffffffffff81111561122957611228610aa7565b5b6112338254610ef4565b61123e82828561117e565b5f60209050601f83116001811461126f575f841561125d578287015190505b61126785826111ec565b8655506112ce565b601f19841661127d8661106a565b5f5b828110156112a45784890151825560018201915060208501945060208101905061127f565b868310156112c157848901516112bd601f8916826111d0565b8355505b6001600288020188555050505b505050505050565b7f4e487b71000000000000000000000000000000000000000000000000000000005f52603260045260245ffd5b7f4e487b71000000000000000000000000000000000000000000000000000000005f52601160045260245ffd5b5f61133a8261097a565b91507fffffffffffffffffffffffffffffffffffffffffffffffffffffffffffffffff820361136c5761136b611303565b5b600182019050919050565b7f4f776e61626c653a206e6577206f776e657220697320746865207a65726f20615f8201527f6464726573730000000000000000000000000000000000000000000000000000602082015250565b5f6113d16026836109e2565b91506113dc82611377565b604082019050919050565b5f6020820190508181035f8301526113fe816113c5565b9050919050565b7f64617461206e6f7420666f756e6420696e20746865206c6564676572000000005f82015250565b5f611439601c836109e2565b915061144482611405565b602082019050919050565b5f6020820190508181035f8301526114668161142d565b905091905056fea2646970667358221220ca9d2e2a81b316fbdc1b0f784c1f785332d82772dc53d1080a826a93d2925c7864736f6c63430008150033",
					"opcodes": "PUSH1 0x80 PUSH1 0x40 MSTORE CALLVALUE DUP1 ISZERO PUSH2 0xF JUMPI PUSH0 DUP1 REVERT JUMPDEST POP PUSH2 0x2C PUSH2 0x21 PUSH2 0x31 PUSH1 0x20 SHL PUSH1 0x20 SHR JUMP JUMPDEST PUSH2 0x38 PUSH1 0x20 SHL PUSH1 0x20 SHR JUMP JUMPDEST PUSH2 0xF9 JUMP JUMPDEST PUSH0 CALLER SWAP1 POP SWAP1 JUMP JUMPDEST PUSH0 DUP1 PUSH0 SWAP1 SLOAD SWAP1 PUSH2 0x100 EXP SWAP1 DIV PUSH20 0xFFFFFFFFFFFFFFFFFFFFFFFFFFFFFFFFFFFFFFFF AND SWAP1 POP DUP2 PUSH0 DUP1 PUSH2 0x100 EXP DUP2 SLOAD DUP2 PUSH20 0xFFFFFFFFFFFFFFFFFFFFFFFFFFFFFFFFFFFFFFFF MUL NOT AND SWAP1 DUP4 PUSH20 0xFFFFFFFFFFFFFFFFFFFFFFFFFFFFFFFFFFFFFFFF AND MUL OR SWAP1 SSTORE POP DUP2 PUSH20 0xFFFFFFFFFFFFFFFFFFFFFFFFFFFFFFFFFFFFFFFF AND DUP2 PUSH20 0xFFFFFFFFFFFFFFFFFFFFFFFFFFFFFFFFFFFFFFFF AND PUSH32 0x8BE0079C531659141344CD1FD0A4F28419497F9722A3DAAFE3B4186F6B6457E0 PUSH1 0x40 MLOAD PUSH1 0x40 MLOAD DUP1 SWAP2 SUB SWAP1 LOG3 POP POP JUMP JUMPDEST PUSH2 0x14A3 DUP1 PUSH2 0x106 PUSH0 CODECOPY PUSH0 RETURN INVALID PUSH1 0x80 PUSH1 0x40 MSTORE CALLVALUE DUP1 ISZERO PUSH2 0xF JUMPI PUSH0 DUP1 REVERT JUMPDEST POP PUSH1 0x4 CALLDATASIZE LT PUSH2 0x86 JUMPI PUSH0 CALLDATALOAD PUSH1 0xE0 SHR DUP1 PUSH4 0x715018A6 GT PUSH2 0x59 JUMPI DUP1 PUSH4 0x715018A6 EQ PUSH2 0x127 JUMPI DUP1 PUSH4 0x8DA5CB5B EQ PUSH2 0x131 JUMPI DUP1 PUSH4 0xF2FDE38B EQ PUSH2 0x14F JUMPI DUP1 PUSH4 0xF76D53F8 EQ PUSH2 0x16B JUMPI PUSH2 0x86 JUMP JUMPDEST DUP1 PUSH4 0x10A7FD7B EQ PUSH2 0x8A JUMPI DUP1 PUSH4 0x2BF63377 EQ PUSH2 0xBB JUMPI DUP1 PUSH4 0x2D10FA28 EQ PUSH2 0xD7 JUMPI DUP1 PUSH4 0x69CEA776 EQ PUSH2 0xF6 JUMPI JUMPDEST PUSH0 DUP1 REVERT JUMPDEST PUSH2 0xA4 PUSH1 0x4 DUP1 CALLDATASIZE SUB DUP2 ADD SWAP1 PUSH2 0x9F SWAP2 SWAP1 PUSH2 0x9AD JUMP JUMPDEST PUSH2 0x19B JUMP JUMPDEST PUSH1 0x40 MLOAD PUSH2 0xB2 SWAP3 SWAP2 SWAP1 PUSH2 0xA71 JUMP JUMPDEST PUSH1 0x40 MLOAD DUP1 SWAP2 SUB SWAP1 RETURN JUMPDEST PUSH2 0xD5 PUSH1 0x4 DUP1 CALLDATASIZE SUB DUP2 ADD SWAP1 PUSH2 0xD0 SWAP2 SWAP1 PUSH2 0xBCB JUMP JUMPDEST PUSH2 0x250 JUMP JUMPDEST STOP JUMPDEST PUSH2 0xDF PUSH2 0x3D4 JUMP JUMPDEST PUSH1 0x40 MLOAD PUSH2 0xED SWAP3 SWAP2 SWAP1 PUSH2 0xDCC JUMP JUMPDEST PUSH1 0x40 MLOAD DUP1 SWAP2 SUB SWAP1 RETURN JUMPDEST PUSH2 0x110 PUSH1 0x4 DUP1 CALLDATASIZE SUB DUP2 ADD SWAP1 PUSH2 0x10B SWAP2 SWAP1 PUSH2 0xBCB JUMP JUMPDEST PUSH2 0x5B2 JUMP JUMPDEST PUSH1 0x40 MLOAD PUSH2 0x11E SWAP3 SWAP2 SWAP1 PUSH2 0xA71 JUMP JUMPDEST PUSH1 0x40 MLOAD DUP1 SWAP2 SUB SWAP1 RETURN JUMPDEST PUSH2 0x12F PUSH2 0x670 JUMP JUMPDEST STOP JUMPDEST PUSH2 0x139 PUSH2 0x6F7 JUMP JUMPDEST PUSH1 0x40 MLOAD PUSH2 0x146 SWAP2 SWAP1 PUSH2 0xE40 JUMP JUMPDEST PUSH1 0x40 MLOAD DUP1 SWAP2 SUB SWAP1 RETURN JUMPDEST PUSH2 0x169 PUSH1 0x4 DUP1 CALLDATASIZE SUB DUP2 ADD SWAP1 PUSH2 0x164 SWAP2 SWAP1 PUSH2 0xE83 JUMP JUMPDEST PUSH2 0x71E JUMP JUMPDEST STOP JUMPDEST PUSH2 0x185 PUSH1 0x4 DUP1 CALLDATASIZE SUB DUP2 ADD SWAP1 PUSH2 0x180 SWAP2 SWAP1 PUSH2 0xBCB JUMP JUMPDEST PUSH2 0x814 JUMP JUMPDEST PUSH1 0x40 MLOAD PUSH2 0x192 SWAP2 SWAP1 PUSH2 0xEAE JUMP JUMPDEST PUSH1 0x40 MLOAD DUP1 SWAP2 SUB SWAP1 RETURN JUMPDEST PUSH1 0x1 DUP2 DUP2 SLOAD DUP2 LT PUSH2 0x1AA JUMPI PUSH0 DUP1 REVERT JUMPDEST SWAP1 PUSH0 MSTORE PUSH1 0x20 PUSH0 KECCAK256 SWAP1 PUSH1 0x2 MUL ADD PUSH0 SWAP2 POP SWAP1 POP DUP1 PUSH0 ADD DUP1 SLOAD PUSH2 0x1C9 SWAP1 PUSH2 0xEF4 JUMP JUMPDEST DUP1 PUSH1 0x1F ADD PUSH1 0x20 DUP1 SWAP2 DIV MUL PUSH1 0x20 ADD PUSH1 0x40 MLOAD SWAP1 DUP2 ADD PUSH1 0x40 MSTORE DUP1 SWAP3 SWAP2 SWAP1 DUP2 DUP2 MSTORE PUSH1 0x20 ADD DUP3 DUP1 SLOAD PUSH2 0x1F5 SWAP1 PUSH2 0xEF4 JUMP JUMPDEST DUP1 ISZERO PUSH2 0x240 JUMPI DUP1 PUSH1 0x1F LT PUSH2 0x217 JUMPI PUSH2 0x100 DUP1 DUP4 SLOAD DIV MUL DUP4 MSTORE SWAP2 PUSH1 0x20 ADD SWAP2 PUSH2 0x240 JUMP JUMPDEST DUP3 ADD SWAP2 SWAP1 PUSH0 MSTORE PUSH1 0x20 PUSH0 KECCAK256 SWAP1 JUMPDEST DUP2 SLOAD DUP2 MSTORE SWAP1 PUSH1 0x1 ADD SWAP1 PUSH1 0x20 ADD DUP1 DUP4 GT PUSH2 0x223 JUMPI DUP3 SWAP1 SUB PUSH1 0x1F AND DUP3 ADD SWAP2 JUMPDEST POP POP POP POP POP SWAP1 DUP1 PUSH1 0x1 ADD SLOAD SWAP1 POP DUP3 JUMP JUMPDEST PUSH2 0x258 PUSH2 0x8A1 JUMP JUMPDEST PUSH20 0xFFFFFFFFFFFFFFFFFFFFFFFFFFFFFFFFFFFFFFFF AND PUSH2 0x276 PUSH2 0x6F7 JUMP JUMPDEST PUSH20 0xFFFFFFFFFFFFFFFFFFFFFFFFFFFFFFFFFFFFFFFF AND EQ PUSH2 0x2CC JUMPI PUSH1 0x40 MLOAD PUSH32 0x8C379A000000000000000000000000000000000000000000000000000000000 DUP2 MSTORE PUSH1 0x4 ADD PUSH2 0x2C3 SWAP1 PUSH2 0xF6E JUMP JUMPDEST PUSH1 0x40 MLOAD DUP1 SWAP2 SUB SWAP1 REVERT JUMPDEST PUSH0 PUSH1 0x2 DUP3 PUSH1 0x40 MLOAD PUSH2 0x2DD SWAP2 SWAP1 PUSH2 0xFC6 JUMP JUMPDEST SWAP1 DUP2 MSTORE PUSH1 0x20 ADD PUSH1 0x40 MLOAD DUP1 SWAP2 SUB SWAP1 KECCAK256 PUSH1 0x1 ADD SLOAD EQ PUSH2 0x32F JUMPI PUSH1 0x40 MLOAD PUSH32 0x8C379A000000000000000000000000000000000000000000000000000000000 DUP2 MSTORE PUSH1 0x4 ADD PUSH2 0x326 SWAP1 PUSH2 0x104C JUMP JUMPDEST PUSH1 0x40 MLOAD DUP1 SWAP2 SUB SWAP1 REVERT JUMPDEST PUSH0 PUSH1 0x40 MLOAD DUP1 PUSH1 0x40 ADD PUSH1 0x40 MSTORE DUP1 DUP4 DUP2 MSTORE PUSH1 0x20 ADD TIMESTAMP DUP2 MSTORE POP SWAP1 POP PUSH1 0x1 DUP2 SWAP1 DUP1 PUSH1 0x1 DUP2 SLOAD ADD DUP1 DUP3 SSTORE DUP1 SWAP2 POP POP PUSH1 0x1 SWAP1 SUB SWAP1 PUSH0 MSTORE PUSH1 0x20 PUSH0 KECCAK256 SWAP1 PUSH1 0x2 MUL ADD PUSH0 SWAP1 SWAP2 SWAP1 SWAP2 SWAP1 SWAP2 POP PUSH0 DUP3 ADD MLOAD DUP2 PUSH0 ADD SWAP1 DUP2 PUSH2 0x383 SWAP2 SWAP1 PUSH2 0x1207 JUMP JUMPDEST POP PUSH1 0x20 DUP3 ADD MLOAD DUP2 PUSH1 0x1 ADD SSTORE POP POP DUP1 PUSH1 0x2 DUP4 PUSH1 0x40 MLOAD PUSH2 0x3A1 SWAP2 SWAP1 PUSH2 0xFC6 JUMP JUMPDEST SWAP1 DUP2 MSTORE PUSH1 0x20 ADD PUSH1 0x40 MLOAD DUP1 SWAP2 SUB SWAP1 KECCAK256 PUSH0 DUP3 ADD MLOAD DUP2 PUSH0 ADD SWAP1 DUP2 PUSH2 0x3C2 SWAP2 SWAP1 PUSH2 0x1207 JUMP JUMPDEST POP PUSH1 0x20 DUP3 ADD MLOAD DUP2 PUSH1 0x1 ADD SSTORE SWAP1 POP POP POP POP JUMP JUMPDEST PUSH1 0x60 DUP1 PUSH0 PUSH1 0x1 DUP1 SLOAD SWAP1 POP SWAP1 POP PUSH0 DUP2 PUSH8 0xFFFFFFFFFFFFFFFF DUP2 GT ISZERO PUSH2 0x3FB JUMPI PUSH2 0x3FA PUSH2 0xAA7 JUMP JUMPDEST JUMPDEST PUSH1 0x40 MLOAD SWAP1 DUP1 DUP3 MSTORE DUP1 PUSH1 0x20 MUL PUSH1 0x20 ADD DUP3 ADD PUSH1 0x40 MSTORE DUP1 ISZERO PUSH2 0x42E JUMPI DUP2 PUSH1 0x20 ADD JUMPDEST PUSH1 0x60 DUP2 MSTORE PUSH1 0x20 ADD SWAP1 PUSH1 0x1 SWAP1 SUB SWAP1 DUP2 PUSH2 0x419 JUMPI SWAP1 POP JUMPDEST POP SWAP1 POP PUSH0 DUP3 PUSH8 0xFFFFFFFFFFFFFFFF DUP2 GT ISZERO PUSH2 0x44C JUMPI PUSH2 0x44B PUSH2 0xAA7 JUMP JUMPDEST JUMPDEST PUSH1 0x40 MLOAD SWAP1 DUP1 DUP3 MSTORE DUP1 PUSH1 0x20 MUL PUSH1 0x20 ADD DUP3 ADD PUSH1 0x40 MSTORE DUP1 ISZERO PUSH2 0x47A JUMPI DUP2 PUSH1 0x20 ADD PUSH1 0x20 DUP3 MUL DUP1 CALLDATASIZE DUP4 CALLDATACOPY DUP1 DUP3 ADD SWAP2 POP POP SWAP1 POP JUMPDEST POP SWAP1 POP PUSH0 JUMPDEST DUP4 DUP2 LT ISZERO PUSH2 0x5A4 JUMPI PUSH1 0x1 DUP2 DUP2 SLOAD DUP2 LT PUSH2 0x49B JUMPI PUSH2 0x49A PUSH2 0x12D6 JUMP JUMPDEST JUMPDEST SWAP1 PUSH0 MSTORE PUSH1 0x20 PUSH0 KECCAK256 SWAP1 PUSH1 0x2 MUL ADD PUSH0 ADD DUP1 SLOAD PUSH2 0x4B4 SWAP1 PUSH2 0xEF4 JUMP JUMPDEST DUP1 PUSH1 0x1F ADD PUSH1 0x20 DUP1 SWAP2 DIV MUL PUSH1 0x20 ADD PUSH1 0x40 MLOAD SWAP1 DUP2 ADD PUSH1 0x40 MSTORE DUP1 SWAP3 SWAP2 SWAP1 DUP2 DUP2 MSTORE PUSH1 0x20 ADD DUP3 DUP1 SLOAD PUSH2 0x4E0 SWAP1 PUSH2 0xEF4 JUMP JUMPDEST DUP1 ISZERO PUSH2 0x52B JUMPI DUP1 PUSH1 0x1F LT PUSH2 0x502 JUMPI PUSH2 0x100 DUP1 DUP4 SLOAD DIV MUL DUP4 MSTORE SWAP2 PUSH1 0x20 ADD SWAP2 PUSH2 0x52B JUMP JUMPDEST DUP3 ADD SWAP2 SWAP1 PUSH0 MSTORE PUSH1 0x20 PUSH0 KECCAK256 SWAP1 JUMPDEST DUP2 SLOAD DUP2 MSTORE SWAP1 PUSH1 0x1 ADD SWAP1 PUSH1 0x20 ADD DUP1 DUP4 GT PUSH2 0x50E JUMPI DUP3 SWAP1 SUB PUSH1 0x1F AND DUP3 ADD SWAP2 JUMPDEST POP POP POP POP POP DUP4 DUP3 DUP2 MLOAD DUP2 LT PUSH2 0x543 JUMPI PUSH2 0x542 PUSH2 0x12D6 JUMP JUMPDEST JUMPDEST PUSH1 0x20 MUL PUSH1 0x20 ADD ADD DUP2 SWAP1 MSTORE POP PUSH1 0x1 DUP2 DUP2 SLOAD DUP2 LT PUSH2 0x562 JUMPI PUSH2 0x561 PUSH2 0x12D6 JUMP JUMPDEST JUMPDEST SWAP1 PUSH0 MSTORE PUSH1 0x20 PUSH0 KECCAK256 SWAP1 PUSH1 0x2 MUL ADD PUSH1 0x1 ADD SLOAD DUP3 DUP3 DUP2 MLOAD DUP2 LT PUSH2 0x585 JUMPI PUSH2 0x584 PUSH2 0x12D6 JUMP JUMPDEST JUMPDEST PUSH1 0x20 MUL PUSH1 0x20 ADD ADD DUP2 DUP2 MSTORE POP POP DUP1 DUP1 PUSH2 0x59C SWAP1 PUSH2 0x1330 JUMP JUMPDEST SWAP2 POP POP PUSH2 0x47F JUMP JUMPDEST POP DUP2 DUP2 SWAP5 POP SWAP5 POP POP POP POP SWAP1 SWAP2 JUMP JUMPDEST PUSH1 0x2 DUP2 DUP1 MLOAD PUSH1 0x20 DUP2 ADD DUP3 ADD DUP1 MLOAD DUP5 DUP3 MSTORE PUSH1 0x20 DUP4 ADD PUSH1 0x20 DUP6 ADD KECCAK256 DUP2 DUP4 MSTORE DUP1 SWAP6 POP POP POP POP POP POP PUSH0 SWAP2 POP SWAP1 POP DUP1 PUSH0 ADD DUP1 SLOAD PUSH2 0x5E9 SWAP1 PUSH2 0xEF4 JUMP JUMPDEST DUP1 PUSH1 0x1F ADD PUSH1 0x20 DUP1 SWAP2 DIV MUL PUSH1 0x20 ADD PUSH1 0x40 MLOAD SWAP1 DUP2 ADD PUSH1 0x40 MSTORE DUP1 SWAP3 SWAP2 SWAP1 DUP2 DUP2 MSTORE PUSH1 0x20 ADD DUP3 DUP1 SLOAD PUSH2 0x615 SWAP1 PUSH2 0xEF4 JUMP JUMPDEST DUP1 ISZERO PUSH2 0x660 JUMPI DUP1 PUSH1 0x1F LT PUSH2 0x637 JUMPI PUSH2 0x100 DUP1 DUP4 SLOAD DIV MUL DUP4 MSTORE SWAP2 PUSH1 0x20 ADD SWAP2 PUSH2 0x660 JUMP JUMPDEST DUP3 ADD SWAP2 SWAP1 PUSH0 MSTORE PUSH1 0x20 PUSH0 KECCAK256 SWAP1 JUMPDEST DUP2 SLOAD DUP2 MSTORE SWAP1 PUSH1 0x1 ADD SWAP1 PUSH1 0x20 ADD DUP1 DUP4 GT PUSH2 0x643 JUMPI DUP3 SWAP1 SUB PUSH1 0x1F AND DUP3 ADD SWAP2 JUMPDEST POP POP POP POP POP SWAP1 DUP1 PUSH1 0x1 ADD SLOAD SWAP1 POP DUP3 JUMP JUMPDEST PUSH2 0x678 PUSH2 0x8A1 JUMP JUMPDEST PUSH20 0xFFFFFFFFFFFFFFFFFFFFFFFFFFFFFFFFFFFFFFFF AND PUSH2 0x696 PUSH2 0x6F7 JUMP JUMPDEST PUSH20 0xFFFFFFFFFFFFFFFFFFFFFFFFFFFFFFFFFFFFFFFF AND EQ PUSH2 0x6EC JUMPI PUSH1 0x40 MLOAD PUSH32 0x8C379A000000000000000000000000000000000000000000000000000000000 DUP2 MSTORE PUSH1 0x4 ADD PUSH2 0x6E3 SWAP1 PUSH2 0xF6E JUMP JUMPDEST PUSH1 0x40 MLOAD DUP1 SWAP2 SUB SWAP1 REVERT JUMPDEST PUSH2 0x6F5 PUSH0 PUSH2 0x8A8 JUMP JUMPDEST JUMP JUMPDEST PUSH0 DUP1 PUSH0 SWAP1 SLOAD SWAP1 PUSH2 0x100 EXP SWAP1 DIV PUSH20 0xFFFFFFFFFFFFFFFFFFFFFFFFFFFFFFFFFFFFFFFF AND SWAP1 POP SWAP1 JUMP JUMPDEST PUSH2 0x726 PUSH2 0x8A1 JUMP JUMPDEST PUSH20 0xFFFFFFFFFFFFFFFFFFFFFFFFFFFFFFFFFFFFFFFF AND PUSH2 0x744 PUSH2 0x6F7 JUMP JUMPDEST PUSH20 0xFFFFFFFFFFFFFFFFFFFFFFFFFFFFFFFFFFFFFFFF AND EQ PUSH2 0x79A JUMPI PUSH1 0x40 MLOAD PUSH32 0x8C379A000000000000000000000000000000000000000000000000000000000 DUP2 MSTORE PUSH1 0x4 ADD PUSH2 0x791 SWAP1 PUSH2 0xF6E JUMP JUMPDEST PUSH1 0x40 MLOAD DUP1 SWAP2 SUB SWAP1 REVERT JUMPDEST PUSH0 PUSH20 0xFFFFFFFFFFFFFFFFFFFFFFFFFFFFFFFFFFFFFFFF AND DUP2 PUSH20 0xFFFFFFFFFFFFFFFFFFFFFFFFFFFFFFFFFFFFFFFF AND SUB PUSH2 0x808 JUMPI PUSH1 0x40 MLOAD PUSH32 0x8C379A000000000000000000000000000000000000000000000000000000000 DUP2 MSTORE PUSH1 0x4 ADD PUSH2 0x7FF SWAP1 PUSH2 0x13E7 JUMP JUMPDEST PUSH1 0x40 MLOAD DUP1 SWAP2 SUB SWAP1 REVERT JUMPDEST PUSH2 0x811 DUP2 PUSH2 0x8A8 JUMP JUMPDEST POP JUMP JUMPDEST PUSH0 DUP1 PUSH1 0x2 DUP4 PUSH1 0x40 MLOAD PUSH2 0x826 SWAP2 SWAP1 PUSH2 0xFC6 JUMP JUMPDEST SWAP1 DUP2 MSTORE PUSH1 0x20 ADD PUSH1 0x40 MLOAD DUP1 SWAP2 SUB SWAP1 KECCAK256 PUSH1 0x1 ADD SLOAD SUB PUSH2 0x878 JUMPI PUSH1 0x40 MLOAD PUSH32 0x8C379A000000000000000000000000000000000000000000000000000000000 DUP2 MSTORE PUSH1 0x4 ADD PUSH2 0x86F SWAP1 PUSH2 0x144F JUMP JUMPDEST PUSH1 0x40 MLOAD DUP1 SWAP2 SUB SWAP1 REVERT JUMPDEST PUSH1 0x2 DUP3 PUSH1 0x40 MLOAD PUSH2 0x888 SWAP2 SWAP1 PUSH2 0xFC6 JUMP JUMPDEST SWAP1 DUP2 MSTORE PUSH1 0x20 ADD PUSH1 0x40 MLOAD DUP1 SWAP2 SUB SWAP1 KECCAK256 PUSH1 0x1 ADD SLOAD SWAP1 POP SWAP2 SWAP1 POP JUMP JUMPDEST PUSH0 CALLER SWAP1 POP SWAP1 JUMP JUMPDEST PUSH0 DUP1 PUSH0 SWAP1 SLOAD SWAP1 PUSH2 0x100 EXP SWAP1 DIV PUSH20 0xFFFFFFFFFFFFFFFFFFFFFFFFFFFFFFFFFFFFFFFF AND SWAP1 POP DUP2 PUSH0 DUP1 PUSH2 0x100 EXP DUP2 SLOAD DUP2 PUSH20 0xFFFFFFFFFFFFFFFFFFFFFFFFFFFFFFFFFFFFFFFF MUL NOT AND SWAP1 DUP4 PUSH20 0xFFFFFFFFFFFFFFFFFFFFFFFFFFFFFFFFFFFFFFFF AND MUL OR SWAP1 SSTORE POP DUP2 PUSH20 0xFFFFFFFFFFFFFFFFFFFFFFFFFFFFFFFFFFFFFFFF AND DUP2 PUSH20 0xFFFFFFFFFFFFFFFFFFFFFFFFFFFFFFFFFFFFFFFF AND PUSH32 0x8BE0079C531659141344CD1FD0A4F28419497F9722A3DAAFE3B4186F6B6457E0 PUSH1 0x40 MLOAD PUSH1 0x40 MLOAD DUP1 SWAP2 SUB SWAP1 LOG3 POP POP JUMP JUMPDEST PUSH0 PUSH1 0x40 MLOAD SWAP1 POP SWAP1 JUMP JUMPDEST PUSH0 DUP1 REVERT JUMPDEST PUSH0 DUP1 REVERT JUMPDEST PUSH0 DUP2 SWAP1 POP SWAP2 SWAP1 POP JUMP JUMPDEST PUSH2 0x98C DUP2 PUSH2 0x97A JUMP JUMPDEST DUP2 EQ PUSH2 0x996 JUMPI PUSH0 DUP1 REVERT JUMPDEST POP JUMP JUMPDEST PUSH0 DUP2 CALLDATALOAD SWAP1 POP PUSH2 0x9A7 DUP2 PUSH2 0x983 JUMP JUMPDEST SWAP3 SWAP2 POP POP JUMP JUMPDEST PUSH0 PUSH1 0x20 DUP3 DUP5 SUB SLT ISZERO PUSH2 0x9C2 JUMPI PUSH2 0x9C1 PUSH2 0x972 JUMP JUMPDEST JUMPDEST PUSH0 PUSH2 0x9CF DUP5 DUP3 DUP6 ADD PUSH2 0x999 JUMP JUMPDEST SWAP2 POP POP SWAP3 SWAP2 POP POP JUMP JUMPDEST PUSH0 DUP2 MLOAD SWAP1 POP SWAP2 SWAP1 POP JUMP JUMPDEST PUSH0 DUP3 DUP3 MSTORE PUSH1 0x20 DUP3 ADD SWAP1 POP SWAP3 SWAP2 POP POP JUMP JUMPDEST PUSH0 JUMPDEST DUP4 DUP2 LT ISZERO PUSH2 0xA0F JUMPI DUP1 DUP3 ADD MLOAD DUP2 DUP5 ADD MSTORE PUSH1 0x20 DUP2 ADD SWAP1 POP PUSH2 0x9F4 JUMP JUMPDEST PUSH0 DUP5 DUP5 ADD MSTORE POP POP POP POP JUMP JUMPDEST PUSH0 PUSH1 0x1F NOT PUSH1 0x1F DUP4 ADD AND SWAP1 POP SWAP2 SWAP1 POP JUMP JUMPDEST PUSH0 PUSH2 0xA34 DUP3 PUSH2 0x9D8 JUMP JUMPDEST PUSH2 0xA3E DUP2 DUP6 PUSH2 0x9E2 JUMP JUMPDEST SWAP4 POP PUSH2 0xA4E DUP2 DUP6 PUSH1 0x20 DUP7 ADD PUSH2 0x9F2 JUMP JUMPDEST PUSH2 0xA57 DUP2 PUSH2 0xA1A JUMP JUMPDEST DUP5 ADD SWAP2 POP POP SWAP3 SWAP2 POP POP JUMP JUMPDEST PUSH2 0xA6B DUP2 PUSH2 0x97A JUMP JUMPDEST DUP3 MSTORE POP POP JUMP JUMPDEST PUSH0 PUSH1 0x40 DUP3 ADD SWAP1 POP DUP2 DUP2 SUB PUSH0 DUP4 ADD MSTORE PUSH2 0xA89 DUP2 DUP6 PUSH2 0xA2A JUMP JUMPDEST SWAP1 POP PUSH2 0xA98 PUSH1 0x20 DUP4 ADD DUP5 PUSH2 0xA62 JUMP JUMPDEST SWAP4 SWAP3 POP POP POP JUMP JUMPDEST PUSH0 DUP1 REVERT JUMPDEST PUSH0 DUP1 REVERT JUMPDEST PUSH32 0x4E487B7100000000000000000000000000000000000000000000000000000000 PUSH0 MSTORE PUSH1 0x41 PUSH1 0x4 MSTORE PUSH1 0x24 PUSH0 REVERT JUMPDEST PUSH2 0xADD DUP3 PUSH2 0xA1A JUMP JUMPDEST DUP2 ADD DUP2 DUP2 LT PUSH8 0xFFFFFFFFFFFFFFFF DUP3 GT OR ISZERO PUSH2 0xAFC JUMPI PUSH2 0xAFB PUSH2 0xAA7 JUMP JUMPDEST JUMPDEST DUP1 PUSH1 0x40 MSTORE POP POP POP JUMP JUMPDEST PUSH0 PUSH2 0xB0E PUSH2 0x969 JUMP JUMPDEST SWAP1 POP PUSH2 0xB1A DUP3 DUP3 PUSH2 0xAD4 JUMP JUMPDEST SWAP2 SWAP1 POP JUMP JUMPDEST PUSH0 PUSH8 0xFFFFFFFFFFFFFFFF DUP3 GT ISZERO PUSH2 0xB39 JUMPI PUSH2 0xB38 PUSH2 0xAA7 JUMP JUMPDEST JUMPDEST PUSH2 0xB42 DUP3 PUSH2 0xA1A JUMP JUMPDEST SWAP1 POP PUSH1 0x20 DUP2 ADD SWAP1 POP SWAP2 SWAP1 POP JUMP JUMPDEST DUP3 DUP2 DUP4 CALLDATACOPY PUSH0 DUP4 DUP4 ADD MSTORE POP POP POP JUMP JUMPDEST PUSH0 PUSH2 0xB6F PUSH2 0xB6A DUP5 PUSH2 0xB1F JUMP JUMPDEST PUSH2 0xB05 JUMP JUMPDEST SWAP1 POP DUP3 DUP2 MSTORE PUSH1 0x20 DUP2 ADD DUP5 DUP5 DUP5 ADD GT ISZERO PUSH2 0xB8B JUMPI PUSH2 0xB8A PUSH2 0xAA3 JUMP JUMPDEST JUMPDEST PUSH2 0xB96 DUP5 DUP3 DUP6 PUSH2 0xB4F JUMP JUMPDEST POP SWAP4 SWAP3 POP POP POP JUMP JUMPDEST PUSH0 DUP3 PUSH1 0x1F DUP4 ADD SLT PUSH2 0xBB2 JUMPI PUSH2 0xBB1 PUSH2 0xA9F JUMP JUMPDEST JUMPDEST DUP2 CALLDATALOAD PUSH2 0xBC2 DUP5 DUP3 PUSH1 0x20 DUP7 ADD PUSH2 0xB5D JUMP JUMPDEST SWAP2 POP POP SWAP3 SWAP2 POP POP JUMP JUMPDEST PUSH0 PUSH1 0x20 DUP3 DUP5 SUB SLT ISZERO PUSH2 0xBE0 JUMPI PUSH2 0xBDF PUSH2 0x972 JUMP JUMPDEST JUMPDEST PUSH0 DUP3 ADD CALLDATALOAD PUSH8 0xFFFFFFFFFFFFFFFF DUP2 GT ISZERO PUSH2 0xBFD JUMPI PUSH2 0xBFC PUSH2 0x976 JUMP JUMPDEST JUMPDEST PUSH2 0xC09 DUP5 DUP3 DUP6 ADD PUSH2 0xB9E JUMP JUMPDEST SWAP2 POP POP SWAP3 SWAP2 POP POP JUMP JUMPDEST PUSH0 DUP2 MLOAD SWAP1 POP SWAP2 SWAP1 POP JUMP JUMPDEST PUSH0 DUP3 DUP3 MSTORE PUSH1 0x20 DUP3 ADD SWAP1 POP SWAP3 SWAP2 POP POP JUMP JUMPDEST PUSH0 DUP2 SWAP1 POP PUSH1 0x20 DUP3 ADD SWAP1 POP SWAP2 SWAP1 POP JUMP JUMPDEST PUSH0 DUP3 DUP3 MSTORE PUSH1 0x20 DUP3 ADD SWAP1 POP SWAP3 SWAP2 POP POP JUMP JUMPDEST PUSH0 PUSH2 0xC55 DUP3 PUSH2 0x9D8 JUMP JUMPDEST PUSH2 0xC5F DUP2 DUP6 PUSH2 0xC3B JUMP JUMPDEST SWAP4 POP PUSH2 0xC6F DUP2 DUP6 PUSH1 0x20 DUP7 ADD PUSH2 0x9F2 JUMP JUMPDEST PUSH2 0xC78 DUP2 PUSH2 0xA1A JUMP JUMPDEST DUP5 ADD SWAP2 POP POP SWAP3 SWAP2 POP POP JUMP JUMPDEST PUSH0 PUSH2 0xC8E DUP4 DUP4 PUSH2 0xC4B JUMP JUMPDEST SWAP1 POP SWAP3 SWAP2 POP POP JUMP JUMPDEST PUSH0 PUSH1 0x20 DUP3 ADD SWAP1 POP SWAP2 SWAP1 POP JUMP JUMPDEST PUSH0 PUSH2 0xCAC DUP3 PUSH2 0xC12 JUMP JUMPDEST PUSH2 0xCB6 DUP2 DUP6 PUSH2 0xC1C JUMP JUMPDEST SWAP4 POP DUP4 PUSH1 0x20 DUP3 MUL DUP6 ADD PUSH2 0xCC8 DUP6 PUSH2 0xC2C JUMP JUMPDEST DUP1 PUSH0 JUMPDEST DUP6 DUP2 LT ISZERO PUSH2 0xD03 JUMPI DUP5 DUP5 SUB DUP10 MSTORE DUP2 MLOAD PUSH2 0xCE4 DUP6 DUP3 PUSH2 0xC83 JUMP JUMPDEST SWAP5 POP PUSH2 0xCEF DUP4 PUSH2 0xC96 JUMP JUMPDEST SWAP3 POP PUSH1 0x20 DUP11 ADD SWAP10 POP POP PUSH1 0x1 DUP2 ADD SWAP1 POP PUSH2 0xCCB JUMP JUMPDEST POP DUP3 SWAP8 POP DUP8 SWAP6 POP POP POP POP POP POP SWAP3 SWAP2 POP POP JUMP JUMPDEST PUSH0 DUP2 MLOAD SWAP1 POP SWAP2 SWAP1 POP JUMP JUMPDEST PUSH0 DUP3 DUP3 MSTORE PUSH1 0x20 DUP3 ADD SWAP1 POP SWAP3 SWAP2 POP POP JUMP JUMPDEST PUSH0 DUP2 SWAP1 POP PUSH1 0x20 DUP3 ADD SWAP1 POP SWAP2 SWAP1 POP JUMP JUMPDEST PUSH2 0xD47 DUP2 PUSH2 0x97A JUMP JUMPDEST DUP3 MSTORE POP POP JUMP JUMPDEST PUSH0 PUSH2 0xD58 DUP4 DUP4 PUSH2 0xD3E JUMP JUMPDEST PUSH1 0x20 DUP4 ADD SWAP1 POP SWAP3 SWAP2 POP POP JUMP JUMPDEST PUSH0 PUSH1 0x20 DUP3 ADD SWAP1 POP SWAP2 SWAP1 POP JUMP JUMPDEST PUSH0 PUSH2 0xD7A DUP3 PUSH2 0xD15 JUMP JUMPDEST PUSH2 0xD84 DUP2 DUP6 PUSH2 0xD1F JUMP JUMPDEST SWAP4 POP PUSH2 0xD8F DUP4 PUSH2 0xD2F JUMP JUMPDEST DUP1 PUSH0 JUMPDEST DUP4 DUP2 LT ISZERO PUSH2 0xDBF JUMPI DUP2 MLOAD PUSH2 0xDA6 DUP9 DUP3 PUSH2 0xD4D JUMP JUMPDEST SWAP8 POP PUSH2 0xDB1 DUP4 PUSH2 0xD64 JUMP JUMPDEST SWAP3 POP POP PUSH1 0x1 DUP2 ADD SWAP1 POP PUSH2 0xD92 JUMP JUMPDEST POP DUP6 SWAP4 POP POP POP POP SWAP3 SWAP2 POP POP JUMP JUMPDEST PUSH0 PUSH1 0x40 DUP3 ADD SWAP1 POP DUP2 DUP2 SUB PUSH0 DUP4 ADD MSTORE PUSH2 0xDE4 DUP2 DUP6 PUSH2 0xCA2 JUMP JUMPDEST SWAP1 POP DUP2 DUP2 SUB PUSH1 0x20 DUP4 ADD MSTORE PUSH2 0xDF8 DUP2 DUP5 PUSH2 0xD70 JUMP JUMPDEST SWAP1 POP SWAP4 SWAP3 POP POP POP JUMP JUMPDEST PUSH0 PUSH20 0xFFFFFFFFFFFFFFFFFFFFFFFFFFFFFFFFFFFFFFFF DUP3 AND SWAP1 POP SWAP2 SWAP1 POP JUMP JUMPDEST PUSH0 PUSH2 0xE2A DUP3 PUSH2 0xE01 JUMP JUMPDEST SWAP1 POP SWAP2 SWAP1 POP JUMP JUMPDEST PUSH2 0xE3A DUP2 PUSH2 0xE20 JUMP JUMPDEST DUP3 MSTORE POP POP JUMP JUMPDEST PUSH0 PUSH1 0x20 DUP3 ADD SWAP1 POP PUSH2 0xE53 PUSH0 DUP4 ADD DUP5 PUSH2 0xE31 JUMP JUMPDEST SWAP3 SWAP2 POP POP JUMP JUMPDEST PUSH2 0xE62 DUP2 PUSH2 0xE20 JUMP JUMPDEST DUP2 EQ PUSH2 0xE6C JUMPI PUSH0 DUP1 REVERT JUMPDEST POP JUMP JUMPDEST PUSH0 DUP2 CALLDATALOAD SWAP1 POP PUSH2 0xE7D DUP2 PUSH2 0xE59 JUMP JUMPDEST SWAP3 SWAP2 POP POP JUMP JUMPDEST PUSH0 PUSH1 0x20 DUP3 DUP5 SUB SLT ISZERO PUSH2 0xE98 JUMPI PUSH2 0xE97 PUSH2 0x972 JUMP JUMPDEST JUMPDEST PUSH0 PUSH2 0xEA5 DUP5 DUP3 DUP6 ADD PUSH2 0xE6F JUMP JUMPDEST SWAP2 POP POP SWAP3 SWAP2 POP POP JUMP JUMPDEST PUSH0 PUSH1 0x20 DUP3 ADD SWAP1 POP PUSH2 0xEC1 PUSH0 DUP4 ADD DUP5 PUSH2 0xA62 JUMP JUMPDEST SWAP3 SWAP2 POP POP JUMP JUMPDEST PUSH32 0x4E487B7100000000000000000000000000000000000000000000000000000000 PUSH0 MSTORE PUSH1 0x22 PUSH1 0x4 MSTORE PUSH1 0x24 PUSH0 REVERT JUMPDEST PUSH0 PUSH1 0x2 DUP3 DIV SWAP1 POP PUSH1 0x1 DUP3 AND DUP1 PUSH2 0xF0B JUMPI PUSH1 0x7F DUP3 AND SWAP2 POP JUMPDEST PUSH1 0x20 DUP3 LT DUP2 SUB PUSH2 0xF1E JUMPI PUSH2 0xF1D PUSH2 0xEC7 JUMP JUMPDEST JUMPDEST POP SWAP2 SWAP1 POP JUMP JUMPDEST PUSH32 0x4F776E61626C653A2063616C6C6572206973206E6F7420746865206F776E6572 PUSH0 DUP3 ADD MSTORE POP JUMP JUMPDEST PUSH0 PUSH2 0xF58 PUSH1 0x20 DUP4 PUSH2 0x9E2 JUMP JUMPDEST SWAP2 POP PUSH2 0xF63 DUP3 PUSH2 0xF24 JUMP JUMPDEST PUSH1 0x20 DUP3 ADD SWAP1 POP SWAP2 SWAP1 POP JUMP JUMPDEST PUSH0 PUSH1 0x20 DUP3 ADD SWAP1 POP DUP2 DUP2 SUB PUSH0 DUP4 ADD MSTORE PUSH2 0xF85 DUP2 PUSH2 0xF4C JUMP JUMPDEST SWAP1 POP SWAP2 SWAP1 POP JUMP JUMPDEST PUSH0 DUP2 SWAP1 POP SWAP3 SWAP2 POP POP JUMP JUMPDEST PUSH0 PUSH2 0xFA0 DUP3 PUSH2 0x9D8 JUMP JUMPDEST PUSH2 0xFAA DUP2 DUP6 PUSH2 0xF8C JUMP JUMPDEST SWAP4 POP PUSH2 0xFBA DUP2 DUP6 PUSH1 0x20 DUP7 ADD PUSH2 0x9F2 JUMP JUMPDEST DUP1 DUP5 ADD SWAP2 POP POP SWAP3 SWAP2 POP POP JUMP JUMPDEST PUSH0 PUSH2 0xFD1 DUP3 DUP5 PUSH2 0xF96 JUMP JUMPDEST SWAP2 POP DUP2 SWAP1 POP SWAP3 SWAP2 POP POP JUMP JUMPDEST PUSH32 0x4461746120616C72656164792065786973747320696E20746865206C65646765 PUSH0 DUP3 ADD MSTORE PUSH32 0x7200000000000000000000000000000000000000000000000000000000000000 PUSH1 0x20 DUP3 ADD MSTORE POP JUMP JUMPDEST PUSH0 PUSH2 0x1036 PUSH1 0x21 DUP4 PUSH2 0x9E2 JUMP JUMPDEST SWAP2 POP PUSH2 0x1041 DUP3 PUSH2 0xFDC JUMP JUMPDEST PUSH1 0x40 DUP3 ADD SWAP1 POP SWAP2 SWAP1 POP JUMP JUMPDEST PUSH0 PUSH1 0x20 DUP3 ADD SWAP1 POP DUP2 DUP2 SUB PUSH0 DUP4 ADD MSTORE PUSH2 0x1063 DUP2 PUSH2 0x102A JUMP JUMPDEST SWAP1 POP SWAP2 SWAP1 POP JUMP JUMPDEST PUSH0 DUP2 SWAP1 POP DUP2 PUSH0 MSTORE PUSH1 0x20 PUSH0 KECCAK256 SWAP1 POP SWAP2 SWAP1 POP JUMP JUMPDEST PUSH0 PUSH1 0x20 PUSH1 0x1F DUP4 ADD DIV SWAP1 POP SWAP2 SWAP1 POP JUMP JUMPDEST PUSH0 DUP3 DUP3 SHL SWAP1 POP SWAP3 SWAP2 POP POP JUMP JUMPDEST PUSH0 PUSH1 0x8 DUP4 MUL PUSH2 0x10C6 PUSH32 0xFFFFFFFFFFFFFFFFFFFFFFFFFFFFFFFFFFFFFFFFFFFFFFFFFFFFFFFFFFFFFFFF DUP3 PUSH2 0x108B JUMP JUMPDEST PUSH2 0x10D0 DUP7 DUP4 PUSH2 0x108B JUMP JUMPDEST SWAP6 POP DUP1 NOT DUP5 AND SWAP4 POP DUP1 DUP7 AND DUP5 OR SWAP3 POP POP POP SWAP4 SWAP3 POP POP POP JUMP JUMPDEST PUSH0 DUP2 SWAP1 POP SWAP2 SWAP1 POP JUMP JUMPDEST PUSH0 PUSH2 0x110B PUSH2 0x1106 PUSH2 0x1101 DUP5 PUSH2 0x97A JUMP JUMPDEST PUSH2 0x10E8 JUMP JUMPDEST PUSH2 0x97A JUMP JUMPDEST SWAP1 POP SWAP2 SWAP1 POP JUMP JUMPDEST PUSH0 DUP2 SWAP1 POP SWAP2 SWAP1 POP JUMP JUMPDEST PUSH2 0x1124 DUP4 PUSH2 0x10F1 JUMP JUMPDEST PUSH2 0x1138 PUSH2 0x1130 DUP3 PUSH2 0x1112 JUMP JUMPDEST DUP5 DUP5 SLOAD PUSH2 0x1097 JUMP JUMPDEST DUP3 SSTORE POP POP POP POP JUMP JUMPDEST PUSH0 SWAP1 JUMP JUMPDEST PUSH2 0x114C PUSH2 0x1140 JUMP JUMPDEST PUSH2 0x1157 DUP2 DUP5 DUP5 PUSH2 0x111B JUMP JUMPDEST POP POP POP JUMP JUMPDEST JUMPDEST DUP2 DUP2 LT ISZERO PUSH2 0x117A JUMPI PUSH2 0x116F PUSH0 DUP3 PUSH2 0x1144 JUMP JUMPDEST PUSH1 0x1 DUP2 ADD SWAP1 POP PUSH2 0x115D JUMP JUMPDEST POP POP JUMP JUMPDEST PUSH1 0x1F DUP3 GT ISZERO PUSH2 0x11BF JUMPI PUSH2 0x1190 DUP2 PUSH2 0x106A JUMP JUMPDEST PUSH2 0x1199 DUP5 PUSH2 0x107C JUMP JUMPDEST DUP2 ADD PUSH1 0x20 DUP6 LT ISZERO PUSH2 0x11A8 JUMPI DUP2 SWAP1 POP JUMPDEST PUSH2 0x11BC PUSH2 0x11B4 DUP6 PUSH2 0x107C JUMP JUMPDEST DUP4 ADD DUP3 PUSH2 0x115C JUMP JUMPDEST POP POP JUMPDEST POP POP POP JUMP JUMPDEST PUSH0 DUP3 DUP3 SHR SWAP1 POP SWAP3 SWAP2 POP POP JUMP JUMPDEST PUSH0 PUSH2 0x11DF PUSH0 NOT DUP5 PUSH1 0x8 MUL PUSH2 0x11C4 JUMP JUMPDEST NOT DUP1 DUP4 AND SWAP2 POP POP SWAP3 SWAP2 POP POP JUMP JUMPDEST PUSH0 PUSH2 0x11F7 DUP4 DUP4 PUSH2 0x11D0 JUMP JUMPDEST SWAP2 POP DUP3 PUSH1 0x2 MUL DUP3 OR SWAP1 POP SWAP3 SWAP2 POP POP JUMP JUMPDEST PUSH2 0x1210 DUP3 PUSH2 0x9D8 JUMP JUMPDEST PUSH8 0xFFFFFFFFFFFFFFFF DUP2 GT ISZERO PUSH2 0x1229 JUMPI PUSH2 0x1228 PUSH2 0xAA7 JUMP JUMPDEST JUMPDEST PUSH2 0x1233 DUP3 SLOAD PUSH2 0xEF4 JUMP JUMPDEST PUSH2 0x123E DUP3 DUP3 DUP6 PUSH2 0x117E JUMP JUMPDEST PUSH0 PUSH1 0x20 SWAP1 POP PUSH1 0x1F DUP4 GT PUSH1 0x1 DUP2 EQ PUSH2 0x126F JUMPI PUSH0 DUP5 ISZERO PUSH2 0x125D JUMPI DUP3 DUP8 ADD MLOAD SWAP1 POP JUMPDEST PUSH2 0x1267 DUP6 DUP3 PUSH2 0x11EC JUMP JUMPDEST DUP7 SSTORE POP PUSH2 0x12CE JUMP JUMPDEST PUSH1 0x1F NOT DUP5 AND PUSH2 0x127D DUP7 PUSH2 0x106A JUMP JUMPDEST PUSH0 JUMPDEST DUP3 DUP2 LT ISZERO PUSH2 0x12A4 JUMPI DUP5 DUP10 ADD MLOAD DUP3 SSTORE PUSH1 0x1 DUP3 ADD SWAP2 POP PUSH1 0x20 DUP6 ADD SWAP5 POP PUSH1 0x20 DUP2 ADD SWAP1 POP PUSH2 0x127F JUMP JUMPDEST DUP7 DUP4 LT ISZERO PUSH2 0x12C1 JUMPI DUP5 DUP10 ADD MLOAD PUSH2 0x12BD PUSH1 0x1F DUP10 AND DUP3 PUSH2 0x11D0 JUMP JUMPDEST DUP4 SSTORE POP JUMPDEST PUSH1 0x1 PUSH1 0x2 DUP9 MUL ADD DUP9 SSTORE POP POP POP JUMPDEST POP POP POP POP POP POP JUMP JUMPDEST PUSH32 0x4E487B7100000000000000000000000000000000000000000000000000000000 PUSH0 MSTORE PUSH1 0x32 PUSH1 0x4 MSTORE PUSH1 0x24 PUSH0 REVERT JUMPDEST PUSH32 0x4E487B7100000000000000000000000000000000000000000000000000000000 PUSH0 MSTORE PUSH1 0x11 PUSH1 0x4 MSTORE PUSH1 0x24 PUSH0 REVERT JUMPDEST PUSH0 PUSH2 0x133A DUP3 PUSH2 0x97A JUMP JUMPDEST SWAP2 POP PUSH32 0xFFFFFFFFFFFFFFFFFFFFFFFFFFFFFFFFFFFFFFFFFFFFFFFFFFFFFFFFFFFFFFFF DUP3 SUB PUSH2 0x136C JUMPI PUSH2 0x136B PUSH2 0x1303 JUMP JUMPDEST JUMPDEST PUSH1 0x1 DUP3 ADD SWAP1 POP SWAP2 SWAP1 POP JUMP JUMPDEST PUSH32 0x4F776E61626C653A206E6577206F776E657220697320746865207A65726F2061 PUSH0 DUP3 ADD MSTORE PUSH32 0x6464726573730000000000000000000000000000000000000000000000000000 PUSH1 0x20 DUP3 ADD MSTORE POP JUMP JUMPDEST PUSH0 PUSH2 0x13D1 PUSH1 0x26 DUP4 PUSH2 0x9E2 JUMP JUMPDEST SWAP2 POP PUSH2 0x13DC DUP3 PUSH2 0x1377 JUMP JUMPDEST PUSH1 0x40 DUP3 ADD SWAP1 POP SWAP2 SWAP1 POP JUMP JUMPDEST PUSH0 PUSH1 0x20 DUP3 ADD SWAP1 POP DUP2 DUP2 SUB PUSH0 DUP4 ADD MSTORE PUSH2 0x13FE DUP2 PUSH2 0x13C5 JUMP JUMPDEST SWAP1 POP SWAP2 SWAP1 POP JUMP JUMPDEST PUSH32 0x64617461206E6F7420666F756E6420696E20746865206C656467657200000000 PUSH0 DUP3 ADD MSTORE POP JUMP JUMPDEST PUSH0 PUSH2 0x1439 PUSH1 0x1C DUP4 PUSH2 0x9E2 JUMP JUMPDEST SWAP2 POP PUSH2 0x1444 DUP3 PUSH2 0x1405 JUMP JUMPDEST PUSH1 0x20 DUP3 ADD SWAP1 POP SWAP2 SWAP1 POP JUMP JUMPDEST PUSH0 PUSH1 0x20 DUP3 ADD SWAP1 POP DUP2 DUP2 SUB PUSH0 DUP4 ADD MSTORE PUSH2 0x1466 DUP2 PUSH2 0x142D JUMP JUMPDEST SWAP1 POP SWAP2 SWAP1 POP JUMP INVALID LOG2 PUSH5 0x6970667358 0x22 SLT KECCAK256 0xCA SWAP14 0x2E 0x2A DUP2 0xB3 AND 0xFB 0xDC SHL 0xF PUSH25 0x4C1F785332D82772DC53D1080A826A93D2925C7864736F6C63 NUMBER STOP ADDMOD ISZERO STOP CALLER "
				},
				"gasEstimates": {
					"creation": {
						"codeDepositCost": "1056600",
						"executionCost": "infinite",
						"totalCost": "infinite"
					},
					"external": {
						"MasterChannelDataToRecord(string)": "infinite",
						"addMasterChannelRecord(string)": "infinite",
						"getAllData()": "infinite",
						"getTimestampForData(string)": "infinite",
						"ledger(uint256)": "infinite",
						"owner()": "2537",
						"renounceOwnership()": "30366",
						"transferOwnership(address)": "30751"
					}
				},
				"methodIdentifiers": {
					"MasterChannelDataToRecord(string)": "69cea776",
					"addMasterChannelRecord(string)": "2bf63377",
					"getAllData()": "2d10fa28",
					"getTimestampForData(string)": "f76d53f8",
					"ledger(uint256)": "10a7fd7b",
					"owner()": "8da5cb5b",
					"renounceOwnership()": "715018a6",
					"transferOwnership(address)": "f2fde38b"
				}
			},
			"storageLayout": {
				"storage": [
					{
						"astId": 7,
						"contract": "contracts/MasterChannelLedger.sol:MasterChannelLedger",
						"label": "_owner",
						"offset": 0,
						"slot": "0",
						"type": "t_address"
					},
					{
						"astId": 140,
						"contract": "contracts/MasterChannelLedger.sol:MasterChannelLedger",
						"label": "ledger",
						"offset": 0,
						"slot": "1",
						"type": "t_array(t_struct(MasterChannelRecord)136_storage)dyn_storage"
					},
					{
						"astId": 145,
						"contract": "contracts/MasterChannelLedger.sol:MasterChannelLedger",
						"label": "MasterChannelDataToRecord",
						"offset": 0,
						"slot": "2",
						"type": "t_mapping(t_string_memory_ptr,t_struct(MasterChannelRecord)136_storage)"
					}
				],
				"types": {
					"t_address": {
						"encoding": "inplace",
						"label": "address",
						"numberOfBytes": "20"
					},
					"t_array(t_struct(MasterChannelRecord)136_storage)dyn_storage": {
						"base": "t_struct(MasterChannelRecord)136_storage",
						"encoding": "dynamic_array",
						"label": "struct MasterChannelLedger.MasterChannelRecord[]",
						"numberOfBytes": "32"
					},
					"t_mapping(t_string_memory_ptr,t_struct(MasterChannelRecord)136_storage)": {
						"encoding": "mapping",
						"key": "t_string_memory_ptr",
						"label": "mapping(string => struct MasterChannelLedger.MasterChannelRecord)",
						"numberOfBytes": "32",
						"value": "t_struct(MasterChannelRecord)136_storage"
					},
					"t_string_memory_ptr": {
						"encoding": "bytes",
						"label": "string",
						"numberOfBytes": "32"
					},
					"t_string_storage": {
						"encoding": "bytes",
						"label": "string",
						"numberOfBytes": "32"
					},
					"t_struct(MasterChannelRecord)136_storage": {
						"encoding": "inplace",
						"label": "struct MasterChannelLedger.MasterChannelRecord",
						"members": [
							{
								"astId": 133,
								"contract": "contracts/MasterChannelLedger.sol:MasterChannelLedger",
								"label": "data",
								"offset": 0,
								"slot": "0",
								"type": "t_string_storage"
							},
							{
								"astId": 135,
								"contract": "contracts/MasterChannelLedger.sol:MasterChannelLedger",
								"label": "timestamp",
								"offset": 0,
								"slot": "1",
								"type": "t_uint256"
							}
						],
						"numberOfBytes": "64"
					},
					"t_uint256": {
						"encoding": "inplace",
						"label": "uint256",
						"numberOfBytes": "32"
					}
				}
			},
			"userdoc": {
				"kind": "user",
				"methods": {},
				"version": 1
			}
		}
	}
}