{
	"contracts/ENS6TESTING.sol": {
		"EdexaNamingService": {
			"abi": [
				{
					"inputs": [],
					"stateMutability": "nonpayable",
					"type": "constructor"
				},
				{
					"anonymous": false,
					"inputs": [
						{
							"indexed": false,
							"internalType": "string",
							"name": "name",
							"type": "string"
						},
						{
							"indexed": true,
							"internalType": "address",
							"name": "previousOwner",
							"type": "address"
						},
						{
							"indexed": true,
							"internalType": "address",
							"name": "newOwner",
							"type": "address"
						}
					],
					"name": "DomainOwnershipTransferred",
					"type": "event"
				},
				{
					"anonymous": false,
					"inputs": [
						{
							"indexed": false,
							"internalType": "string",
							"name": "name",
							"type": "string"
						},
						{
							"indexed": true,
							"internalType": "address",
							"name": "owner",
							"type": "address"
						},
						{
							"indexed": false,
							"internalType": "address",
							"name": "resolver",
							"type": "address"
						},
						{
							"indexed": false,
							"internalType": "uint256",
							"name": "expiration",
							"type": "uint256"
						}
					],
					"name": "DomainRegistered",
					"type": "event"
				},
				{
					"anonymous": false,
					"inputs": [
						{
							"indexed": false,
							"internalType": "string",
							"name": "name",
							"type": "string"
						},
						{
							"indexed": false,
							"internalType": "uint256",
							"name": "newExpiration",
							"type": "uint256"
						}
					],
					"name": "DomainRenewed",
					"type": "event"
				},
				{
					"anonymous": false,
					"inputs": [
						{
							"indexed": false,
							"internalType": "string",
							"name": "name",
							"type": "string"
						},
						{
							"indexed": true,
							"internalType": "address",
							"name": "resolver",
							"type": "address"
						}
					],
					"name": "ResolverChanged",
					"type": "event"
				},
				{
					"anonymous": false,
					"inputs": [
						{
							"indexed": false,
							"internalType": "string",
							"name": "suffix",
							"type": "string"
						},
						{
							"indexed": false,
							"internalType": "uint256",
							"name": "newCost",
							"type": "uint256"
						}
					],
					"name": "SuffixPriceChanged",
					"type": "event"
				},
				{
					"inputs": [
						{
							"internalType": "string",
							"name": "domainName",
							"type": "string"
						},
						{
							"internalType": "address",
							"name": "newResolver",
							"type": "address"
						}
					],
					"name": "changeResolver",
					"outputs": [],
					"stateMutability": "nonpayable",
					"type": "function"
				},
				{
					"inputs": [
						{
							"internalType": "string",
							"name": "domainName",
							"type": "string"
						}
					],
					"name": "getDomainInfo",
					"outputs": [
						{
							"internalType": "address",
							"name": "domainOwner",
							"type": "address"
						},
						{
							"internalType": "address",
							"name": "resolver",
							"type": "address"
						},
						{
							"internalType": "uint256",
							"name": "expiration",
							"type": "uint256"
						}
					],
					"stateMutability": "view",
					"type": "function"
				},
				{
					"inputs": [
						{
							"internalType": "address",
							"name": "domainOwner",
							"type": "address"
						}
					],
					"name": "getDomainsByOwner",
					"outputs": [
						{
							"internalType": "string[]",
							"name": "",
							"type": "string[]"
						}
					],
					"stateMutability": "view",
					"type": "function"
				},
				{
					"inputs": [
						{
							"internalType": "string",
							"name": "domainName",
							"type": "string"
						}
					],
					"name": "isDomainAvailable",
					"outputs": [
						{
							"internalType": "bool",
							"name": "",
							"type": "bool"
						}
					],
					"stateMutability": "view",
					"type": "function"
				},
				{
					"inputs": [],
					"name": "owner",
					"outputs": [
						{
							"internalType": "address",
							"name": "",
							"type": "address"
						}
					],
					"stateMutability": "view",
					"type": "function"
				},
				{
					"inputs": [
						{
							"internalType": "string",
							"name": "name",
							"type": "string"
						},
						{
							"internalType": "address",
							"name": "initialResolver",
							"type": "address"
						},
						{
							"internalType": "uint256",
							"name": "registrationYears",
							"type": "uint256"
						},
						{
							"internalType": "string",
							"name": "chosenSuffix",
							"type": "string"
						}
					],
					"name": "registerDomain",
					"outputs": [],
					"stateMutability": "payable",
					"type": "function"
				},
				{
					"inputs": [
						{
							"internalType": "string",
							"name": "domainName",
							"type": "string"
						},
						{
							"internalType": "uint256",
							"name": "registrationYears",
							"type": "uint256"
						}
					],
					"name": "renewDomain",
					"outputs": [],
					"stateMutability": "payable",
					"type": "function"
				},
				{
					"inputs": [
						{
							"internalType": "string",
							"name": "suffix",
							"type": "string"
						},
						{
							"internalType": "uint256",
							"name": "newCost",
							"type": "uint256"
						}
					],
					"name": "setSuffixPrice",
					"outputs": [],
					"stateMutability": "nonpayable",
					"type": "function"
				},
				{
					"inputs": [
						{
							"internalType": "string",
							"name": "",
							"type": "string"
						}
					],
					"name": "suffixPrices",
					"outputs": [
						{
							"internalType": "uint256",
							"name": "",
							"type": "uint256"
						}
					],
					"stateMutability": "view",
					"type": "function"
				},
				{
					"inputs": [
						{
							"internalType": "string",
							"name": "domainName",
							"type": "string"
						},
						{
							"internalType": "address",
							"name": "newOwner",
							"type": "address"
						}
					],
					"name": "transferOwnership",
					"outputs": [],
					"stateMutability": "nonpayable",
					"type": "function"
				}
			],
			"devdoc": {
				"kind": "dev",
				"methods": {},
				"version": 1
			},
			"evm": {
				"assembly": "    /* \"contracts/ENS6TESTING.sol\":57:7422  contract EdexaNamingService {... */\n  mstore(0x40, 0x80)\n    /* \"contracts/ENS6TESTING.sol\":1208:1257  constructor() {... */\n  callvalue\n  dup1\n  iszero\n  tag_1\n  jumpi\n  0x00\n  dup1\n  revert\ntag_1:\n  pop\n    /* \"contracts/ENS6TESTING.sol\":1240:1250  msg.sender */\n  caller\n    /* \"contracts/ENS6TESTING.sol\":1232:1237  owner */\n  0x01\n  0x00\n    /* \"contracts/ENS6TESTING.sol\":1232:1250  owner = msg.sender */\n  0x0100\n  exp\n  dup2\n  sload\n  dup2\n  0xffffffffffffffffffffffffffffffffffffffff\n  mul\n  not\n  and\n  swap1\n  dup4\n  0xffffffffffffffffffffffffffffffffffffffff\n  and\n  mul\n  or\n  swap1\n  sstore\n  pop\n    /* \"contracts/ENS6TESTING.sol\":57:7422  contract EdexaNamingService {... */\n  dataSize(sub_0)\n  dup1\n  dataOffset(sub_0)\n  0x00\n  codecopy\n  0x00\n  return\nstop\n\nsub_0: assembly {\n        /* \"contracts/ENS6TESTING.sol\":57:7422  contract EdexaNamingService {... */\n      mstore(0x40, 0x80)\n      jumpi(tag_1, lt(calldatasize, 0x04))\n      shr(0xe0, calldataload(0x00))\n      dup1\n      0x894d46ac\n      gt\n      tag_12\n      jumpi\n      dup1\n      0x894d46ac\n      eq\n      tag_7\n      jumpi\n      dup1\n      0x8da5cb5b\n      eq\n      tag_8\n      jumpi\n      dup1\n      0xc0e793c2\n      eq\n      tag_9\n      jumpi\n      dup1\n      0xcc69784a\n      eq\n      tag_10\n      jumpi\n      dup1\n      0xf38ffb6c\n      eq\n      tag_11\n      jumpi\n      jump(tag_1)\n    tag_12:\n      dup1\n      0x031c1301\n      eq\n      tag_2\n      jumpi\n      dup1\n      0x1a83fd8f\n      eq\n      tag_3\n      jumpi\n      dup1\n      0x32752b09\n      eq\n      tag_4\n      jumpi\n      dup1\n      0x35b9e937\n      eq\n      tag_5\n      jumpi\n      dup1\n      0x4889e192\n      eq\n      tag_6\n      jumpi\n    tag_1:\n      0x00\n      dup1\n      revert\n        /* \"contracts/ENS6TESTING.sol\":195:241  mapping(string => uint256) public suffixPrices */\n    tag_2:\n      callvalue\n      dup1\n      iszero\n      tag_13\n      jumpi\n      0x00\n      dup1\n      revert\n    tag_13:\n      pop\n      tag_14\n      0x04\n      dup1\n      calldatasize\n      sub\n      dup2\n      add\n      swap1\n      tag_15\n      swap2\n      swap1\n      tag_16\n      jump\t// in\n    tag_15:\n      tag_17\n      jump\t// in\n    tag_14:\n      mload(0x40)\n      tag_18\n      swap2\n      swap1\n      tag_19\n      jump\t// in\n    tag_18:\n      mload(0x40)\n      dup1\n      swap2\n      sub\n      swap1\n      return\n        /* \"contracts/ENS6TESTING.sol\":3586:4332  function renewDomain(string calldata domainName, uint256 registrationYears)... */\n    tag_3:\n      tag_20\n      0x04\n      dup1\n      calldatasize\n      sub\n      dup2\n      add\n      swap1\n      tag_21\n      swap2\n      swap1\n      tag_22\n      jump\t// in\n    tag_21:\n      tag_23\n      jump\t// in\n    tag_20:\n      stop\n        /* \"contracts/ENS6TESTING.sol\":5828:6055  function isDomainAvailable(string calldata domainName)... */\n    tag_4:\n      callvalue\n      dup1\n      iszero\n      tag_24\n      jumpi\n      0x00\n      dup1\n      revert\n    tag_24:\n      pop\n      tag_25\n      0x04\n      dup1\n      calldatasize\n      sub\n      dup2\n      add\n      swap1\n      tag_26\n      swap2\n      swap1\n      tag_27\n      jump\t// in\n    tag_26:\n      tag_28\n      jump\t// in\n    tag_25:\n      mload(0x40)\n      tag_29\n      swap2\n      swap1\n      tag_30\n      jump\t// in\n    tag_29:\n      mload(0x40)\n      dup1\n      swap2\n      sub\n      swap1\n      return\n        /* \"contracts/ENS6TESTING.sol\":1263:1464  function setSuffixPrice(string calldata suffix, uint256 newCost)... */\n    tag_5:\n      callvalue\n      dup1\n      iszero\n      tag_31\n      jumpi\n      0x00\n      dup1\n      revert\n    tag_31:\n      pop\n      tag_32\n      0x04\n      dup1\n      calldatasize\n      sub\n      dup2\n      add\n      swap1\n      tag_33\n      swap2\n      swap1\n      tag_22\n      jump\t// in\n    tag_33:\n      tag_34\n      jump\t// in\n    tag_32:\n      stop\n        /* \"contracts/ENS6TESTING.sol\":5280:5647  function getDomainInfo(string calldata domainName)... */\n    tag_6:\n      callvalue\n      dup1\n      iszero\n      tag_35\n      jumpi\n      0x00\n      dup1\n      revert\n    tag_35:\n      pop\n      tag_36\n      0x04\n      dup1\n      calldatasize\n      sub\n      dup2\n      add\n      swap1\n      tag_37\n      swap2\n      swap1\n      tag_27\n      jump\t// in\n    tag_37:\n      tag_38\n      jump\t// in\n    tag_36:\n      mload(0x40)\n      tag_39\n      swap4\n      swap3\n      swap2\n      swap1\n      tag_40\n      jump\t// in\n    tag_39:\n      mload(0x40)\n      dup1\n      swap2\n      sub\n      swap1\n      return\n        /* \"contracts/ENS6TESTING.sol\":4904:5274  function changeResolver(string calldata domainName, address newResolver)... */\n    tag_7:\n      callvalue\n      dup1\n      iszero\n      tag_41\n      jumpi\n      0x00\n      dup1\n      revert\n    tag_41:\n      pop\n      tag_42\n      0x04\n      dup1\n      calldatasize\n      sub\n      dup2\n      add\n      swap1\n      tag_43\n      swap2\n      swap1\n      tag_44\n      jump\t// in\n    tag_43:\n      tag_45\n      jump\t// in\n    tag_42:\n      stop\n        /* \"contracts/ENS6TESTING.sol\":247:267  address public owner */\n    tag_8:\n      callvalue\n      dup1\n      iszero\n      tag_46\n      jumpi\n      0x00\n      dup1\n      revert\n    tag_46:\n      pop\n      tag_47\n      tag_48\n      jump\t// in\n    tag_47:\n      mload(0x40)\n      tag_49\n      swap2\n      swap1\n      tag_50\n      jump\t// in\n    tag_49:\n      mload(0x40)\n      dup1\n      swap2\n      sub\n      swap1\n      return\n        /* \"contracts/ENS6TESTING.sol\":4338:4898  function transferOwnership(string calldata domainName, address newOwner)... */\n    tag_9:\n      callvalue\n      dup1\n      iszero\n      tag_51\n      jumpi\n      0x00\n      dup1\n      revert\n    tag_51:\n      pop\n      tag_52\n      0x04\n      dup1\n      calldatasize\n      sub\n      dup2\n      add\n      swap1\n      tag_53\n      swap2\n      swap1\n      tag_44\n      jump\t// in\n    tag_53:\n      tag_54\n      jump\t// in\n    tag_52:\n      stop\n        /* \"contracts/ENS6TESTING.sol\":1970:3580  function registerDomain(... */\n    tag_10:\n      tag_55\n      0x04\n      dup1\n      calldatasize\n      sub\n      dup2\n      add\n      swap1\n      tag_56\n      swap2\n      swap1\n      tag_57\n      jump\t// in\n    tag_56:\n      tag_58\n      jump\t// in\n    tag_55:\n      stop\n        /* \"contracts/ENS6TESTING.sol\":5653:5822  function getDomainsByOwner(address domainOwner)... */\n    tag_11:\n      callvalue\n      dup1\n      iszero\n      tag_59\n      jumpi\n      0x00\n      dup1\n      revert\n    tag_59:\n      pop\n      tag_60\n      0x04\n      dup1\n      calldatasize\n      sub\n      dup2\n      add\n      swap1\n      tag_61\n      swap2\n      swap1\n      tag_62\n      jump\t// in\n    tag_61:\n      tag_63\n      jump\t// in\n    tag_60:\n      mload(0x40)\n      tag_64\n      swap2\n      swap1\n      tag_65\n      jump\t// in\n    tag_64:\n      mload(0x40)\n      dup1\n      swap2\n      sub\n      swap1\n      return\n        /* \"contracts/ENS6TESTING.sol\":195:241  mapping(string => uint256) public suffixPrices */\n    tag_17:\n      0x00\n      dup2\n      dup1\n      mload\n      0x20\n      dup2\n      add\n      dup3\n      add\n      dup1\n      mload\n      dup5\n      dup3\n      mstore\n      0x20\n      dup4\n      add\n      0x20\n      dup6\n      add\n      keccak256\n      dup2\n      dup4\n      mstore\n      dup1\n      swap6\n      pop\n      pop\n      pop\n      pop\n      pop\n      pop\n      0x00\n      swap2\n      pop\n      swap1\n      pop\n      sload\n      dup2\n      jump\t// out\n        /* \"contracts/ENS6TESTING.sol\":3586:4332  function renewDomain(string calldata domainName, uint256 registrationYears)... */\n    tag_23:\n        /* \"contracts/ENS6TESTING.sol\":3719:3729  domainName */\n      dup3\n      dup3\n        /* \"contracts/ENS6TESTING.sol\":1000:1202  modifier onlyDomainOwner(string memory domainName) {... */\n      dup1\n      dup1\n      0x1f\n      add\n      0x20\n      dup1\n      swap2\n      div\n      mul\n      0x20\n      add\n      mload(0x40)\n      swap1\n      dup2\n      add\n      0x40\n      mstore\n      dup1\n      swap4\n      swap3\n      swap2\n      swap1\n      dup2\n      dup2\n      mstore\n      0x20\n      add\n      dup4\n      dup4\n      dup1\n      dup3\n      dup5\n      calldatacopy\n      0x00\n      dup2\n      dup5\n      add\n      mstore\n      not(0x1f)\n      0x1f\n      dup3\n      add\n      and\n      swap1\n      pop\n      dup1\n      dup4\n      add\n      swap3\n      pop\n      pop\n      pop\n      pop\n      pop\n      pop\n      pop\n        /* \"contracts/ENS6TESTING.sol\":1111:1121  msg.sender */\n      caller\n        /* \"contracts/ENS6TESTING.sol\":1082:1121  domains[domainName].owner == msg.sender */\n      0xffffffffffffffffffffffffffffffffffffffff\n      and\n        /* \"contracts/ENS6TESTING.sol\":1082:1089  domains */\n      0x02\n        /* \"contracts/ENS6TESTING.sol\":1090:1100  domainName */\n      dup3\n        /* \"contracts/ENS6TESTING.sol\":1082:1101  domains[domainName] */\n      mload(0x40)\n      tag_67\n      swap2\n      swap1\n      tag_68\n      jump\t// in\n    tag_67:\n      swap1\n      dup2\n      mstore\n      0x20\n      add\n      mload(0x40)\n      dup1\n      swap2\n      sub\n      swap1\n      keccak256\n        /* \"contracts/ENS6TESTING.sol\":1082:1107  domains[domainName].owner */\n      0x00\n      add\n      0x00\n      swap1\n      sload\n      swap1\n      0x0100\n      exp\n      swap1\n      div\n      0xffffffffffffffffffffffffffffffffffffffff\n      and\n        /* \"contracts/ENS6TESTING.sol\":1082:1121  domains[domainName].owner == msg.sender */\n      0xffffffffffffffffffffffffffffffffffffffff\n      and\n      eq\n        /* \"contracts/ENS6TESTING.sol\":1061:1184  require(... */\n      tag_69\n      jumpi\n      mload(0x40)\n      0x08c379a000000000000000000000000000000000000000000000000000000000\n      dup2\n      mstore\n      0x04\n      add\n      tag_70\n      swap1\n      tag_71\n      jump\t// in\n    tag_70:\n      mload(0x40)\n      dup1\n      swap2\n      sub\n      swap1\n      revert\n    tag_69:\n        /* \"contracts/ENS6TESTING.sol\":3745:3767  uint256 suffixPosition */\n      0x00\n        /* \"contracts/ENS6TESTING.sol\":3770:3800  _getSuffixPosition(domainName) */\n      tag_73\n        /* \"contracts/ENS6TESTING.sol\":3789:3799  domainName */\n      dup6\n      dup6\n        /* \"contracts/ENS6TESTING.sol\":3770:3800  _getSuffixPosition(domainName) */\n      dup1\n      dup1\n      0x1f\n      add\n      0x20\n      dup1\n      swap2\n      div\n      mul\n      0x20\n      add\n      mload(0x40)\n      swap1\n      dup2\n      add\n      0x40\n      mstore\n      dup1\n      swap4\n      swap3\n      swap2\n      swap1\n      dup2\n      dup2\n      mstore\n      0x20\n      add\n      dup4\n      dup4\n      dup1\n      dup3\n      dup5\n      calldatacopy\n      0x00\n      dup2\n      dup5\n      add\n      mstore\n      not(0x1f)\n      0x1f\n      dup3\n      add\n      and\n      swap1\n      pop\n      dup1\n      dup4\n      add\n      swap3\n      pop\n      pop\n      pop\n      pop\n      pop\n      pop\n      pop\n        /* \"contracts/ENS6TESTING.sol\":3770:3788  _getSuffixPosition */\n      tag_74\n        /* \"contracts/ENS6TESTING.sol\":3770:3800  _getSuffixPosition(domainName) */\n      jump\t// in\n    tag_73:\n        /* \"contracts/ENS6TESTING.sol\":3745:3800  uint256 suffixPosition = _getSuffixPosition(domainName) */\n      swap1\n      pop\n        /* \"contracts/ENS6TESTING.sol\":3810:3830  string memory suffix */\n      0x00\n        /* \"contracts/ENS6TESTING.sol\":3833:3875  _extractSuffix(domainName, suffixPosition) */\n      tag_75\n        /* \"contracts/ENS6TESTING.sol\":3848:3858  domainName */\n      dup7\n      dup7\n        /* \"contracts/ENS6TESTING.sol\":3833:3875  _extractSuffix(domainName, suffixPosition) */\n      dup1\n      dup1\n      0x1f\n      add\n      0x20\n      dup1\n      swap2\n      div\n      mul\n      0x20\n      add\n      mload(0x40)\n      swap1\n      dup2\n      add\n      0x40\n      mstore\n      dup1\n      swap4\n      swap3\n      swap2\n      swap1\n      dup2\n      dup2\n      mstore\n      0x20\n      add\n      dup4\n      dup4\n      dup1\n      dup3\n      dup5\n      calldatacopy\n      0x00\n      dup2\n      dup5\n      add\n      mstore\n      not(0x1f)\n      0x1f\n      dup3\n      add\n      and\n      swap1\n      pop\n      dup1\n      dup4\n      add\n      swap3\n      pop\n      pop\n      pop\n      pop\n      pop\n      pop\n      pop\n        /* \"contracts/ENS6TESTING.sol\":3860:3874  suffixPosition */\n      dup4\n        /* \"contracts/ENS6TESTING.sol\":3833:3847  _extractSuffix */\n      tag_76\n        /* \"contracts/ENS6TESTING.sol\":3833:3875  _extractSuffix(domainName, suffixPosition) */\n      jump\t// in\n    tag_75:\n        /* \"contracts/ENS6TESTING.sol\":3810:3875  string memory suffix = _extractSuffix(domainName, suffixPosition) */\n      swap1\n      pop\n        /* \"contracts/ENS6TESTING.sol\":3886:3898  uint256 cost */\n      0x00\n        /* \"contracts/ENS6TESTING.sol\":3924:3941  registrationYears */\n      dup5\n        /* \"contracts/ENS6TESTING.sol\":3901:3913  suffixPrices */\n      0x00\n        /* \"contracts/ENS6TESTING.sol\":3914:3920  suffix */\n      dup4\n        /* \"contracts/ENS6TESTING.sol\":3901:3921  suffixPrices[suffix] */\n      mload(0x40)\n      tag_77\n      swap2\n      swap1\n      tag_68\n      jump\t// in\n    tag_77:\n      swap1\n      dup2\n      mstore\n      0x20\n      add\n      mload(0x40)\n      dup1\n      swap2\n      sub\n      swap1\n      keccak256\n      sload\n        /* \"contracts/ENS6TESTING.sol\":3901:3941  suffixPrices[suffix] * registrationYears */\n      tag_78\n      swap2\n      swap1\n      tag_79\n      jump\t// in\n    tag_78:\n        /* \"contracts/ENS6TESTING.sol\":3886:3941  uint256 cost = suffixPrices[suffix] * registrationYears */\n      swap1\n      pop\n        /* \"contracts/ENS6TESTING.sol\":3985:3989  cost */\n      dup1\n        /* \"contracts/ENS6TESTING.sol\":3972:3981  msg.value */\n      callvalue\n        /* \"contracts/ENS6TESTING.sol\":3972:3989  msg.value >= cost */\n      lt\n      iszero\n        /* \"contracts/ENS6TESTING.sol\":3951:4077  require(... */\n      tag_80\n      jumpi\n      mload(0x40)\n      0x08c379a000000000000000000000000000000000000000000000000000000000\n      dup2\n      mstore\n      0x04\n      add\n      tag_81\n      swap1\n      tag_82\n      jump\t// in\n    tag_81:\n      mload(0x40)\n      dup1\n      swap2\n      sub\n      swap1\n      revert\n    tag_80:\n        /* \"contracts/ENS6TESTING.sol\":4142:4150  365 days */\n      0x01e13380\n        /* \"contracts/ENS6TESTING.sol\":4122:4139  registrationYears */\n      dup6\n        /* \"contracts/ENS6TESTING.sol\":4122:4150  registrationYears * 365 days */\n      tag_83\n      swap2\n      swap1\n      tag_79\n      jump\t// in\n    tag_83:\n        /* \"contracts/ENS6TESTING.sol\":4088:4095  domains */\n      0x02\n        /* \"contracts/ENS6TESTING.sol\":4096:4106  domainName */\n      dup9\n      dup9\n        /* \"contracts/ENS6TESTING.sol\":4088:4107  domains[domainName] */\n      mload(0x40)\n      tag_84\n      swap3\n      swap2\n      swap1\n      tag_85\n      jump\t// in\n    tag_84:\n      swap1\n      dup2\n      mstore\n      0x20\n      add\n      mload(0x40)\n      dup1\n      swap2\n      sub\n      swap1\n      keccak256\n        /* \"contracts/ENS6TESTING.sol\":4088:4118  domains[domainName].expiration */\n      0x02\n      add\n      0x00\n        /* \"contracts/ENS6TESTING.sol\":4088:4150  domains[domainName].expiration += registrationYears * 365 days */\n      dup3\n      dup3\n      sload\n      tag_86\n      swap2\n      swap1\n      tag_87\n      jump\t// in\n    tag_86:\n      swap3\n      pop\n      pop\n      dup2\n      swap1\n      sstore\n      pop\n        /* \"contracts/ENS6TESTING.sol\":4165:4222  DomainRenewed(domainName, domains[domainName].expiration) */\n      0xf44ec9072df846717b4110f1fc66219abeeba0e9599e259c4309f01079e7a8e9\n        /* \"contracts/ENS6TESTING.sol\":4179:4189  domainName */\n      dup8\n      dup8\n        /* \"contracts/ENS6TESTING.sol\":4191:4198  domains */\n      0x02\n        /* \"contracts/ENS6TESTING.sol\":4199:4209  domainName */\n      dup11\n      dup11\n        /* \"contracts/ENS6TESTING.sol\":4191:4210  domains[domainName] */\n      mload(0x40)\n      tag_88\n      swap3\n      swap2\n      swap1\n      tag_85\n      jump\t// in\n    tag_88:\n      swap1\n      dup2\n      mstore\n      0x20\n      add\n      mload(0x40)\n      dup1\n      swap2\n      sub\n      swap1\n      keccak256\n        /* \"contracts/ENS6TESTING.sol\":4191:4221  domains[domainName].expiration */\n      0x02\n      add\n      sload\n        /* \"contracts/ENS6TESTING.sol\":4165:4222  DomainRenewed(domainName, domains[domainName].expiration) */\n      mload(0x40)\n      tag_89\n      swap4\n      swap3\n      swap2\n      swap1\n      tag_90\n      jump\t// in\n    tag_89:\n      mload(0x40)\n      dup1\n      swap2\n      sub\n      swap1\n      log1\n        /* \"contracts/ENS6TESTING.sol\":4249:4253  cost */\n      dup1\n        /* \"contracts/ENS6TESTING.sol\":4237:4246  msg.value */\n      callvalue\n        /* \"contracts/ENS6TESTING.sol\":4237:4253  msg.value > cost */\n      gt\n        /* \"contracts/ENS6TESTING.sol\":4233:4326  if (msg.value > cost) {... */\n      iszero\n      tag_91\n      jumpi\n        /* \"contracts/ENS6TESTING.sol\":4277:4287  msg.sender */\n      caller\n        /* \"contracts/ENS6TESTING.sol\":4269:4297  payable(msg.sender).transfer */\n      0xffffffffffffffffffffffffffffffffffffffff\n      and\n        /* \"contracts/ENS6TESTING.sol\":4269:4315  payable(msg.sender).transfer(msg.value - cost) */\n      0x08fc\n        /* \"contracts/ENS6TESTING.sol\":4310:4314  cost */\n      dup3\n        /* \"contracts/ENS6TESTING.sol\":4298:4307  msg.value */\n      callvalue\n        /* \"contracts/ENS6TESTING.sol\":4298:4314  msg.value - cost */\n      tag_92\n      swap2\n      swap1\n      tag_93\n      jump\t// in\n    tag_92:\n        /* \"contracts/ENS6TESTING.sol\":4269:4315  payable(msg.sender).transfer(msg.value - cost) */\n      swap1\n      dup2\n      iszero\n      mul\n      swap1\n      mload(0x40)\n      0x00\n      mload(0x40)\n      dup1\n      dup4\n      sub\n      dup2\n      dup6\n      dup9\n      dup9\n      call\n      swap4\n      pop\n      pop\n      pop\n      pop\n      iszero\n      dup1\n      iszero\n      tag_95\n      jumpi\n      returndatasize\n      0x00\n      dup1\n      returndatacopy\n      revert(0x00, returndatasize)\n    tag_95:\n      pop\n        /* \"contracts/ENS6TESTING.sol\":4233:4326  if (msg.value > cost) {... */\n    tag_91:\n        /* \"contracts/ENS6TESTING.sol\":3735:4332  {... */\n      pop\n      pop\n      pop\n        /* \"contracts/ENS6TESTING.sol\":3586:4332  function renewDomain(string calldata domainName, uint256 registrationYears)... */\n      pop\n      pop\n      pop\n      pop\n      jump\t// out\n        /* \"contracts/ENS6TESTING.sol\":5828:6055  function isDomainAvailable(string calldata domainName)... */\n    tag_28:\n        /* \"contracts/ENS6TESTING.sol\":5930:5934  bool */\n      0x00\n        /* \"contracts/ENS6TESTING.sol\":5994:5995  0 */\n      dup1\n        /* \"contracts/ENS6TESTING.sol\":5957:5996  domains[domainName].owner == address(0) */\n      0xffffffffffffffffffffffffffffffffffffffff\n      and\n        /* \"contracts/ENS6TESTING.sol\":5957:5964  domains */\n      0x02\n        /* \"contracts/ENS6TESTING.sol\":5965:5975  domainName */\n      dup5\n      dup5\n        /* \"contracts/ENS6TESTING.sol\":5957:5976  domains[domainName] */\n      mload(0x40)\n      tag_97\n      swap3\n      swap2\n      swap1\n      tag_85\n      jump\t// in\n    tag_97:\n      swap1\n      dup2\n      mstore\n      0x20\n      add\n      mload(0x40)\n      dup1\n      swap2\n      sub\n      swap1\n      keccak256\n        /* \"contracts/ENS6TESTING.sol\":5957:5982  domains[domainName].owner */\n      0x00\n      add\n      0x00\n      swap1\n      sload\n      swap1\n      0x0100\n      exp\n      swap1\n      div\n      0xffffffffffffffffffffffffffffffffffffffff\n      and\n        /* \"contracts/ENS6TESTING.sol\":5957:5996  domains[domainName].owner == address(0) */\n      0xffffffffffffffffffffffffffffffffffffffff\n      and\n      eq\n        /* \"contracts/ENS6TESTING.sol\":5957:6048  domains[domainName].owner == address(0) || domains[domainName].expiration < block.timestamp */\n      dup1\n      tag_98\n      jumpi\n      pop\n        /* \"contracts/ENS6TESTING.sol\":6033:6048  block.timestamp */\n      timestamp\n        /* \"contracts/ENS6TESTING.sol\":6000:6007  domains */\n      0x02\n        /* \"contracts/ENS6TESTING.sol\":6008:6018  domainName */\n      dup5\n      dup5\n        /* \"contracts/ENS6TESTING.sol\":6000:6019  domains[domainName] */\n      mload(0x40)\n      tag_99\n      swap3\n      swap2\n      swap1\n      tag_85\n      jump\t// in\n    tag_99:\n      swap1\n      dup2\n      mstore\n      0x20\n      add\n      mload(0x40)\n      dup1\n      swap2\n      sub\n      swap1\n      keccak256\n        /* \"contracts/ENS6TESTING.sol\":6000:6030  domains[domainName].expiration */\n      0x02\n      add\n      sload\n        /* \"contracts/ENS6TESTING.sol\":6000:6048  domains[domainName].expiration < block.timestamp */\n      lt\n        /* \"contracts/ENS6TESTING.sol\":5957:6048  domains[domainName].owner == address(0) || domains[domainName].expiration < block.timestamp */\n    tag_98:\n        /* \"contracts/ENS6TESTING.sol\":5950:6048  return domains[domainName].owner == address(0) || domains[domainName].expiration < block.timestamp */\n      swap1\n      pop\n        /* \"contracts/ENS6TESTING.sol\":5828:6055  function isDomainAvailable(string calldata domainName)... */\n      swap3\n      swap2\n      pop\n      pop\n      jump\t// out\n        /* \"contracts/ENS6TESTING.sol\":1263:1464  function setSuffixPrice(string calldata suffix, uint256 newCost)... */\n    tag_34:\n        /* \"contracts/ENS6TESTING.sol\":898:903  owner */\n      0x01\n      0x00\n      swap1\n      sload\n      swap1\n      0x0100\n      exp\n      swap1\n      div\n      0xffffffffffffffffffffffffffffffffffffffff\n      and\n        /* \"contracts/ENS6TESTING.sol\":884:903  msg.sender == owner */\n      0xffffffffffffffffffffffffffffffffffffffff\n      and\n        /* \"contracts/ENS6TESTING.sol\":884:894  msg.sender */\n      caller\n        /* \"contracts/ENS6TESTING.sol\":884:903  msg.sender == owner */\n      0xffffffffffffffffffffffffffffffffffffffff\n      and\n      eq\n        /* \"contracts/ENS6TESTING.sol\":863:976  require(... */\n      tag_101\n      jumpi\n      mload(0x40)\n      0x08c379a000000000000000000000000000000000000000000000000000000000\n      dup2\n      mstore\n      0x04\n      add\n      tag_102\n      swap1\n      tag_103\n      jump\t// in\n    tag_102:\n      mload(0x40)\n      dup1\n      swap2\n      sub\n      swap1\n      revert\n    tag_101:\n        /* \"contracts/ENS6TESTING.sol\":1400:1407  newCost */\n      dup1\n        /* \"contracts/ENS6TESTING.sol\":1377:1389  suffixPrices */\n      0x00\n        /* \"contracts/ENS6TESTING.sol\":1390:1396  suffix */\n      dup5\n      dup5\n        /* \"contracts/ENS6TESTING.sol\":1377:1397  suffixPrices[suffix] */\n      mload(0x40)\n      tag_105\n      swap3\n      swap2\n      swap1\n      tag_85\n      jump\t// in\n    tag_105:\n      swap1\n      dup2\n      mstore\n      0x20\n      add\n      mload(0x40)\n      dup1\n      swap2\n      sub\n      swap1\n      keccak256\n        /* \"contracts/ENS6TESTING.sol\":1377:1407  suffixPrices[suffix] = newCost */\n      dup2\n      swap1\n      sstore\n      pop\n        /* \"contracts/ENS6TESTING.sol\":1422:1457  SuffixPriceChanged(suffix, newCost) */\n      0x7ecd49f8137bc8d353db356946f52453e29656073aef0362c08a514421db24f5\n        /* \"contracts/ENS6TESTING.sol\":1441:1447  suffix */\n      dup4\n      dup4\n        /* \"contracts/ENS6TESTING.sol\":1449:1456  newCost */\n      dup4\n        /* \"contracts/ENS6TESTING.sol\":1422:1457  SuffixPriceChanged(suffix, newCost) */\n      mload(0x40)\n      tag_106\n      swap4\n      swap3\n      swap2\n      swap1\n      tag_90\n      jump\t// in\n    tag_106:\n      mload(0x40)\n      dup1\n      swap2\n      sub\n      swap1\n      log1\n        /* \"contracts/ENS6TESTING.sol\":1263:1464  function setSuffixPrice(string calldata suffix, uint256 newCost)... */\n      pop\n      pop\n      pop\n      jump\t// out\n        /* \"contracts/ENS6TESTING.sol\":5280:5647  function getDomainInfo(string calldata domainName)... */\n    tag_38:\n        /* \"contracts/ENS6TESTING.sol\":5392:5411  address domainOwner */\n      0x00\n        /* \"contracts/ENS6TESTING.sol\":5425:5441  address resolver */\n      dup1\n        /* \"contracts/ENS6TESTING.sol\":5455:5473  uint256 expiration */\n      0x00\n        /* \"contracts/ENS6TESTING.sol\":5519:5526  domains */\n      0x02\n        /* \"contracts/ENS6TESTING.sol\":5527:5537  domainName */\n      dup6\n      dup6\n        /* \"contracts/ENS6TESTING.sol\":5519:5538  domains[domainName] */\n      mload(0x40)\n      tag_108\n      swap3\n      swap2\n      swap1\n      tag_85\n      jump\t// in\n    tag_108:\n      swap1\n      dup2\n      mstore\n      0x20\n      add\n      mload(0x40)\n      dup1\n      swap2\n      sub\n      swap1\n      keccak256\n        /* \"contracts/ENS6TESTING.sol\":5519:5544  domains[domainName].owner */\n      0x00\n      add\n      0x00\n      swap1\n      sload\n      swap1\n      0x0100\n      exp\n      swap1\n      div\n      0xffffffffffffffffffffffffffffffffffffffff\n      and\n        /* \"contracts/ENS6TESTING.sol\":5558:5565  domains */\n      0x02\n        /* \"contracts/ENS6TESTING.sol\":5566:5576  domainName */\n      dup7\n      dup7\n        /* \"contracts/ENS6TESTING.sol\":5558:5577  domains[domainName] */\n      mload(0x40)\n      tag_109\n      swap3\n      swap2\n      swap1\n      tag_85\n      jump\t// in\n    tag_109:\n      swap1\n      dup2\n      mstore\n      0x20\n      add\n      mload(0x40)\n      dup1\n      swap2\n      sub\n      swap1\n      keccak256\n        /* \"contracts/ENS6TESTING.sol\":5558:5586  domains[domainName].resolver */\n      0x01\n      add\n      0x00\n      swap1\n      sload\n      swap1\n      0x0100\n      exp\n      swap1\n      div\n      0xffffffffffffffffffffffffffffffffffffffff\n      and\n        /* \"contracts/ENS6TESTING.sol\":5600:5607  domains */\n      0x02\n        /* \"contracts/ENS6TESTING.sol\":5608:5618  domainName */\n      dup8\n      dup8\n        /* \"contracts/ENS6TESTING.sol\":5600:5619  domains[domainName] */\n      mload(0x40)\n      tag_110\n      swap3\n      swap2\n      swap1\n      tag_85\n      jump\t// in\n    tag_110:\n      swap1\n      dup2\n      mstore\n      0x20\n      add\n      mload(0x40)\n      dup1\n      swap2\n      sub\n      swap1\n      keccak256\n        /* \"contracts/ENS6TESTING.sol\":5600:5630  domains[domainName].expiration */\n      0x02\n      add\n      sload\n        /* \"contracts/ENS6TESTING.sol\":5498:5640  return (... */\n      swap3\n      pop\n      swap3\n      pop\n      swap3\n      pop\n        /* \"contracts/ENS6TESTING.sol\":5280:5647  function getDomainInfo(string calldata domainName)... */\n      swap3\n      pop\n      swap3\n      pop\n      swap3\n      jump\t// out\n        /* \"contracts/ENS6TESTING.sol\":4904:5274  function changeResolver(string calldata domainName, address newResolver)... */\n    tag_45:\n        /* \"contracts/ENS6TESTING.sol\":5018:5028  domainName */\n      dup3\n      dup3\n        /* \"contracts/ENS6TESTING.sol\":1000:1202  modifier onlyDomainOwner(string memory domainName) {... */\n      dup1\n      dup1\n      0x1f\n      add\n      0x20\n      dup1\n      swap2\n      div\n      mul\n      0x20\n      add\n      mload(0x40)\n      swap1\n      dup2\n      add\n      0x40\n      mstore\n      dup1\n      swap4\n      swap3\n      swap2\n      swap1\n      dup2\n      dup2\n      mstore\n      0x20\n      add\n      dup4\n      dup4\n      dup1\n      dup3\n      dup5\n      calldatacopy\n      0x00\n      dup2\n      dup5\n      add\n      mstore\n      not(0x1f)\n      0x1f\n      dup3\n      add\n      and\n      swap1\n      pop\n      dup1\n      dup4\n      add\n      swap3\n      pop\n      pop\n      pop\n      pop\n      pop\n      pop\n      pop\n        /* \"contracts/ENS6TESTING.sol\":1111:1121  msg.sender */\n      caller\n        /* \"contracts/ENS6TESTING.sol\":1082:1121  domains[domainName].owner == msg.sender */\n      0xffffffffffffffffffffffffffffffffffffffff\n      and\n        /* \"contracts/ENS6TESTING.sol\":1082:1089  domains */\n      0x02\n        /* \"contracts/ENS6TESTING.sol\":1090:1100  domainName */\n      dup3\n        /* \"contracts/ENS6TESTING.sol\":1082:1101  domains[domainName] */\n      mload(0x40)\n      tag_112\n      swap2\n      swap1\n      tag_68\n      jump\t// in\n    tag_112:\n      swap1\n      dup2\n      mstore\n      0x20\n      add\n      mload(0x40)\n      dup1\n      swap2\n      sub\n      swap1\n      keccak256\n        /* \"contracts/ENS6TESTING.sol\":1082:1107  domains[domainName].owner */\n      0x00\n      add\n      0x00\n      swap1\n      sload\n      swap1\n      0x0100\n      exp\n      swap1\n      div\n      0xffffffffffffffffffffffffffffffffffffffff\n      and\n        /* \"contracts/ENS6TESTING.sol\":1082:1121  domains[domainName].owner == msg.sender */\n      0xffffffffffffffffffffffffffffffffffffffff\n      and\n      eq\n        /* \"contracts/ENS6TESTING.sol\":1061:1184  require(... */\n      tag_113\n      jumpi\n      mload(0x40)\n      0x08c379a000000000000000000000000000000000000000000000000000000000\n      dup2\n      mstore\n      0x04\n      add\n      tag_114\n      swap1\n      tag_71\n      jump\t// in\n    tag_114:\n      mload(0x40)\n      dup1\n      swap2\n      sub\n      swap1\n      revert\n    tag_113:\n        /* \"contracts/ENS6TESTING.sol\":5099:5114  block.timestamp */\n      timestamp\n        /* \"contracts/ENS6TESTING.sol\":5065:5072  domains */\n      0x02\n        /* \"contracts/ENS6TESTING.sol\":5073:5083  domainName */\n      dup6\n      dup6\n        /* \"contracts/ENS6TESTING.sol\":5065:5084  domains[domainName] */\n      mload(0x40)\n      tag_116\n      swap3\n      swap2\n      swap1\n      tag_85\n      jump\t// in\n    tag_116:\n      swap1\n      dup2\n      mstore\n      0x20\n      add\n      mload(0x40)\n      dup1\n      swap2\n      sub\n      swap1\n      keccak256\n        /* \"contracts/ENS6TESTING.sol\":5065:5095  domains[domainName].expiration */\n      0x02\n      add\n      sload\n        /* \"contracts/ENS6TESTING.sol\":5065:5114  domains[domainName].expiration >= block.timestamp */\n      lt\n      iszero\n        /* \"contracts/ENS6TESTING.sol\":5044:5159  require(... */\n      tag_117\n      jumpi\n      mload(0x40)\n      0x08c379a000000000000000000000000000000000000000000000000000000000\n      dup2\n      mstore\n      0x04\n      add\n      tag_118\n      swap1\n      tag_119\n      jump\t// in\n    tag_118:\n      mload(0x40)\n      dup1\n      swap2\n      sub\n      swap1\n      revert\n    tag_117:\n        /* \"contracts/ENS6TESTING.sol\":5201:5212  newResolver */\n      dup2\n        /* \"contracts/ENS6TESTING.sol\":5170:5177  domains */\n      0x02\n        /* \"contracts/ENS6TESTING.sol\":5178:5188  domainName */\n      dup6\n      dup6\n        /* \"contracts/ENS6TESTING.sol\":5170:5189  domains[domainName] */\n      mload(0x40)\n      tag_120\n      swap3\n      swap2\n      swap1\n      tag_85\n      jump\t// in\n    tag_120:\n      swap1\n      dup2\n      mstore\n      0x20\n      add\n      mload(0x40)\n      dup1\n      swap2\n      sub\n      swap1\n      keccak256\n        /* \"contracts/ENS6TESTING.sol\":5170:5198  domains[domainName].resolver */\n      0x01\n      add\n      0x00\n        /* \"contracts/ENS6TESTING.sol\":5170:5212  domains[domainName].resolver = newResolver */\n      0x0100\n      exp\n      dup2\n      sload\n      dup2\n      0xffffffffffffffffffffffffffffffffffffffff\n      mul\n      not\n      and\n      swap1\n      dup4\n      0xffffffffffffffffffffffffffffffffffffffff\n      and\n      mul\n      or\n      swap1\n      sstore\n      pop\n        /* \"contracts/ENS6TESTING.sol\":5255:5266  newResolver */\n      dup2\n        /* \"contracts/ENS6TESTING.sol\":5227:5267  ResolverChanged(domainName, newResolver) */\n      0xffffffffffffffffffffffffffffffffffffffff\n      and\n      0x6d25091b0cf2f910de133fa1124a83cc0bba17dcddb63e259346affd222ebe44\n        /* \"contracts/ENS6TESTING.sol\":5243:5253  domainName */\n      dup6\n      dup6\n        /* \"contracts/ENS6TESTING.sol\":5227:5267  ResolverChanged(domainName, newResolver) */\n      mload(0x40)\n      tag_121\n      swap3\n      swap2\n      swap1\n      tag_122\n      jump\t// in\n    tag_121:\n      mload(0x40)\n      dup1\n      swap2\n      sub\n      swap1\n      log2\n        /* \"contracts/ENS6TESTING.sol\":4904:5274  function changeResolver(string calldata domainName, address newResolver)... */\n      pop\n      pop\n      pop\n      pop\n      jump\t// out\n        /* \"contracts/ENS6TESTING.sol\":247:267  address public owner */\n    tag_48:\n      0x01\n      0x00\n      swap1\n      sload\n      swap1\n      0x0100\n      exp\n      swap1\n      div\n      0xffffffffffffffffffffffffffffffffffffffff\n      and\n      dup2\n      jump\t// out\n        /* \"contracts/ENS6TESTING.sol\":4338:4898  function transferOwnership(string calldata domainName, address newOwner)... */\n    tag_54:\n        /* \"contracts/ENS6TESTING.sol\":4452:4462  domainName */\n      dup3\n      dup3\n        /* \"contracts/ENS6TESTING.sol\":1000:1202  modifier onlyDomainOwner(string memory domainName) {... */\n      dup1\n      dup1\n      0x1f\n      add\n      0x20\n      dup1\n      swap2\n      div\n      mul\n      0x20\n      add\n      mload(0x40)\n      swap1\n      dup2\n      add\n      0x40\n      mstore\n      dup1\n      swap4\n      swap3\n      swap2\n      swap1\n      dup2\n      dup2\n      mstore\n      0x20\n      add\n      dup4\n      dup4\n      dup1\n      dup3\n      dup5\n      calldatacopy\n      0x00\n      dup2\n      dup5\n      add\n      mstore\n      not(0x1f)\n      0x1f\n      dup3\n      add\n      and\n      swap1\n      pop\n      dup1\n      dup4\n      add\n      swap3\n      pop\n      pop\n      pop\n      pop\n      pop\n      pop\n      pop\n        /* \"contracts/ENS6TESTING.sol\":1111:1121  msg.sender */\n      caller\n        /* \"contracts/ENS6TESTING.sol\":1082:1121  domains[domainName].owner == msg.sender */\n      0xffffffffffffffffffffffffffffffffffffffff\n      and\n        /* \"contracts/ENS6TESTING.sol\":1082:1089  domains */\n      0x02\n        /* \"contracts/ENS6TESTING.sol\":1090:1100  domainName */\n      dup3\n        /* \"contracts/ENS6TESTING.sol\":1082:1101  domains[domainName] */\n      mload(0x40)\n      tag_124\n      swap2\n      swap1\n      tag_68\n      jump\t// in\n    tag_124:\n      swap1\n      dup2\n      mstore\n      0x20\n      add\n      mload(0x40)\n      dup1\n      swap2\n      sub\n      swap1\n      keccak256\n        /* \"contracts/ENS6TESTING.sol\":1082:1107  domains[domainName].owner */\n      0x00\n      add\n      0x00\n      swap1\n      sload\n      swap1\n      0x0100\n      exp\n      swap1\n      div\n      0xffffffffffffffffffffffffffffffffffffffff\n      and\n        /* \"contracts/ENS6TESTING.sol\":1082:1121  domains[domainName].owner == msg.sender */\n      0xffffffffffffffffffffffffffffffffffffffff\n      and\n      eq\n        /* \"contracts/ENS6TESTING.sol\":1061:1184  require(... */\n      tag_125\n      jumpi\n      mload(0x40)\n      0x08c379a000000000000000000000000000000000000000000000000000000000\n      dup2\n      mstore\n      0x04\n      add\n      tag_126\n      swap1\n      tag_71\n      jump\t// in\n    tag_126:\n      mload(0x40)\n      dup1\n      swap2\n      sub\n      swap1\n      revert\n    tag_125:\n        /* \"contracts/ENS6TESTING.sol\":4533:4548  block.timestamp */\n      timestamp\n        /* \"contracts/ENS6TESTING.sol\":4499:4506  domains */\n      0x02\n        /* \"contracts/ENS6TESTING.sol\":4507:4517  domainName */\n      dup6\n      dup6\n        /* \"contracts/ENS6TESTING.sol\":4499:4518  domains[domainName] */\n      mload(0x40)\n      tag_128\n      swap3\n      swap2\n      swap1\n      tag_85\n      jump\t// in\n    tag_128:\n      swap1\n      dup2\n      mstore\n      0x20\n      add\n      mload(0x40)\n      dup1\n      swap2\n      sub\n      swap1\n      keccak256\n        /* \"contracts/ENS6TESTING.sol\":4499:4529  domains[domainName].expiration */\n      0x02\n      add\n      sload\n        /* \"contracts/ENS6TESTING.sol\":4499:4548  domains[domainName].expiration >= block.timestamp */\n      lt\n      iszero\n        /* \"contracts/ENS6TESTING.sol\":4478:4593  require(... */\n      tag_129\n      jumpi\n      mload(0x40)\n      0x08c379a000000000000000000000000000000000000000000000000000000000\n      dup2\n      mstore\n      0x04\n      add\n      tag_130\n      swap1\n      tag_119\n      jump\t// in\n    tag_130:\n      mload(0x40)\n      dup1\n      swap2\n      sub\n      swap1\n      revert\n    tag_129:\n        /* \"contracts/ENS6TESTING.sol\":4604:4625  address previousOwner */\n      0x00\n        /* \"contracts/ENS6TESTING.sol\":4628:4635  domains */\n      0x02\n        /* \"contracts/ENS6TESTING.sol\":4636:4646  domainName */\n      dup6\n      dup6\n        /* \"contracts/ENS6TESTING.sol\":4628:4647  domains[domainName] */\n      mload(0x40)\n      tag_131\n      swap3\n      swap2\n      swap1\n      tag_85\n      jump\t// in\n    tag_131:\n      swap1\n      dup2\n      mstore\n      0x20\n      add\n      mload(0x40)\n      dup1\n      swap2\n      sub\n      swap1\n      keccak256\n        /* \"contracts/ENS6TESTING.sol\":4628:4653  domains[domainName].owner */\n      0x00\n      add\n      0x00\n      swap1\n      sload\n      swap1\n      0x0100\n      exp\n      swap1\n      div\n      0xffffffffffffffffffffffffffffffffffffffff\n      and\n        /* \"contracts/ENS6TESTING.sol\":4604:4653  address previousOwner = domains[domainName].owner */\n      swap1\n      pop\n        /* \"contracts/ENS6TESTING.sol\":4691:4699  newOwner */\n      dup3\n        /* \"contracts/ENS6TESTING.sol\":4663:4670  domains */\n      0x02\n        /* \"contracts/ENS6TESTING.sol\":4671:4681  domainName */\n      dup7\n      dup7\n        /* \"contracts/ENS6TESTING.sol\":4663:4682  domains[domainName] */\n      mload(0x40)\n      tag_132\n      swap3\n      swap2\n      swap1\n      tag_85\n      jump\t// in\n    tag_132:\n      swap1\n      dup2\n      mstore\n      0x20\n      add\n      mload(0x40)\n      dup1\n      swap2\n      sub\n      swap1\n      keccak256\n        /* \"contracts/ENS6TESTING.sol\":4663:4688  domains[domainName].owner */\n      0x00\n      add\n      0x00\n        /* \"contracts/ENS6TESTING.sol\":4663:4699  domains[domainName].owner = newOwner */\n      0x0100\n      exp\n      dup2\n      sload\n      dup2\n      0xffffffffffffffffffffffffffffffffffffffff\n      mul\n      not\n      and\n      swap1\n      dup4\n      0xffffffffffffffffffffffffffffffffffffffff\n      and\n      mul\n      or\n      swap1\n      sstore\n      pop\n        /* \"contracts/ENS6TESTING.sol\":4710:4759  _removeDomainFromOwner(previousOwner, domainName) */\n      tag_133\n        /* \"contracts/ENS6TESTING.sol\":4733:4746  previousOwner */\n      dup2\n        /* \"contracts/ENS6TESTING.sol\":4748:4758  domainName */\n      dup7\n      dup7\n        /* \"contracts/ENS6TESTING.sol\":4710:4759  _removeDomainFromOwner(previousOwner, domainName) */\n      dup1\n      dup1\n      0x1f\n      add\n      0x20\n      dup1\n      swap2\n      div\n      mul\n      0x20\n      add\n      mload(0x40)\n      swap1\n      dup2\n      add\n      0x40\n      mstore\n      dup1\n      swap4\n      swap3\n      swap2\n      swap1\n      dup2\n      dup2\n      mstore\n      0x20\n      add\n      dup4\n      dup4\n      dup1\n      dup3\n      dup5\n      calldatacopy\n      0x00\n      dup2\n      dup5\n      add\n      mstore\n      not(0x1f)\n      0x1f\n      dup3\n      add\n      and\n      swap1\n      pop\n      dup1\n      dup4\n      add\n      swap3\n      pop\n      pop\n      pop\n      pop\n      pop\n      pop\n      pop\n        /* \"contracts/ENS6TESTING.sol\":4710:4732  _removeDomainFromOwner */\n      tag_134\n        /* \"contracts/ENS6TESTING.sol\":4710:4759  _removeDomainFromOwner(previousOwner, domainName) */\n      jump\t// in\n    tag_133:\n        /* \"contracts/ENS6TESTING.sol\":4769:4785  addressToDomains */\n      0x03\n        /* \"contracts/ENS6TESTING.sol\":4769:4795  addressToDomains[newOwner] */\n      0x00\n        /* \"contracts/ENS6TESTING.sol\":4786:4794  newOwner */\n      dup5\n        /* \"contracts/ENS6TESTING.sol\":4769:4795  addressToDomains[newOwner] */\n      0xffffffffffffffffffffffffffffffffffffffff\n      and\n      0xffffffffffffffffffffffffffffffffffffffff\n      and\n      dup2\n      mstore\n      0x20\n      add\n      swap1\n      dup2\n      mstore\n      0x20\n      add\n      0x00\n      keccak256\n        /* \"contracts/ENS6TESTING.sol\":4801:4811  domainName */\n      dup6\n      dup6\n        /* \"contracts/ENS6TESTING.sol\":4769:4812  addressToDomains[newOwner].push(domainName) */\n      swap1\n      swap2\n      dup1\n      0x01\n      dup2\n      sload\n      add\n      dup1\n      dup3\n      sstore\n      dup1\n      swap2\n      pop\n      pop\n      0x01\n      swap1\n      sub\n      swap1\n      0x00\n      mstore\n      keccak256(0x00, 0x20)\n      add\n      0x00\n      swap1\n      swap2\n      swap3\n      swap1\n      swap2\n      swap3\n      swap1\n      swap2\n      swap3\n      swap1\n      swap2\n      swap3\n      pop\n      swap2\n      dup3\n      tag_136\n      swap3\n      swap2\n      swap1\n      tag_137\n      jump\t// in\n    tag_136:\n      pop\n        /* \"contracts/ENS6TESTING.sol\":4882:4890  newOwner */\n      dup3\n        /* \"contracts/ENS6TESTING.sol\":4828:4891  DomainOwnershipTransferred(domainName, previousOwner, newOwner) */\n      0xffffffffffffffffffffffffffffffffffffffff\n      and\n        /* \"contracts/ENS6TESTING.sol\":4867:4880  previousOwner */\n      dup2\n        /* \"contracts/ENS6TESTING.sol\":4828:4891  DomainOwnershipTransferred(domainName, previousOwner, newOwner) */\n      0xffffffffffffffffffffffffffffffffffffffff\n      and\n      0xd43ae7ba5d7f951ba2fb94d03dc0f12664835c289cea1d1295e86a1fbddfc82c\n        /* \"contracts/ENS6TESTING.sol\":4855:4865  domainName */\n      dup8\n      dup8\n        /* \"contracts/ENS6TESTING.sol\":4828:4891  DomainOwnershipTransferred(domainName, previousOwner, newOwner) */\n      mload(0x40)\n      tag_138\n      swap3\n      swap2\n      swap1\n      tag_122\n      jump\t// in\n    tag_138:\n      mload(0x40)\n      dup1\n      swap2\n      sub\n      swap1\n      log3\n        /* \"contracts/ENS6TESTING.sol\":4468:4898  {... */\n      pop\n        /* \"contracts/ENS6TESTING.sol\":4338:4898  function transferOwnership(string calldata domainName, address newOwner)... */\n      pop\n      pop\n      pop\n      pop\n      jump\t// out\n        /* \"contracts/ENS6TESTING.sol\":1970:3580  function registerDomain(... */\n    tag_58:\n        /* \"contracts/ENS6TESTING.sol\":2201:2202  0 */\n      0x00\n        /* \"contracts/ENS6TESTING.sol\":2171:2183  suffixPrices */\n      dup1\n        /* \"contracts/ENS6TESTING.sol\":2184:2196  chosenSuffix */\n      dup4\n      dup4\n        /* \"contracts/ENS6TESTING.sol\":2171:2197  suffixPrices[chosenSuffix] */\n      mload(0x40)\n      tag_140\n      swap3\n      swap2\n      swap1\n      tag_85\n      jump\t// in\n    tag_140:\n      swap1\n      dup2\n      mstore\n      0x20\n      add\n      mload(0x40)\n      dup1\n      swap2\n      sub\n      swap1\n      keccak256\n      sload\n        /* \"contracts/ENS6TESTING.sol\":2171:2202  suffixPrices[chosenSuffix] != 0 */\n      sub\n        /* \"contracts/ENS6TESTING.sol\":2163:2221  require(suffixPrices[chosenSuffix] != 0, \"Invalid suffix\") */\n      tag_141\n      jumpi\n      mload(0x40)\n      0x08c379a000000000000000000000000000000000000000000000000000000000\n      dup2\n      mstore\n      0x04\n      add\n      tag_142\n      swap1\n      tag_143\n      jump\t// in\n    tag_142:\n      mload(0x40)\n      dup1\n      swap2\n      sub\n      swap1\n      revert\n    tag_141:\n        /* \"contracts/ENS6TESTING.sol\":2232:2255  string memory lowerName */\n      0x00\n        /* \"contracts/ENS6TESTING.sol\":2258:2275  toLowerCase(name) */\n      tag_144\n        /* \"contracts/ENS6TESTING.sol\":2270:2274  name */\n      dup8\n      dup8\n        /* \"contracts/ENS6TESTING.sol\":2258:2275  toLowerCase(name) */\n      dup1\n      dup1\n      0x1f\n      add\n      0x20\n      dup1\n      swap2\n      div\n      mul\n      0x20\n      add\n      mload(0x40)\n      swap1\n      dup2\n      add\n      0x40\n      mstore\n      dup1\n      swap4\n      swap3\n      swap2\n      swap1\n      dup2\n      dup2\n      mstore\n      0x20\n      add\n      dup4\n      dup4\n      dup1\n      dup3\n      dup5\n      calldatacopy\n      0x00\n      dup2\n      dup5\n      add\n      mstore\n      not(0x1f)\n      0x1f\n      dup3\n      add\n      and\n      swap1\n      pop\n      dup1\n      dup4\n      add\n      swap3\n      pop\n      pop\n      pop\n      pop\n      pop\n      pop\n      pop\n        /* \"contracts/ENS6TESTING.sol\":2258:2269  toLowerCase */\n      tag_145\n        /* \"contracts/ENS6TESTING.sol\":2258:2275  toLowerCase(name) */\n      jump\t// in\n    tag_144:\n        /* \"contracts/ENS6TESTING.sol\":2232:2275  string memory lowerName = toLowerCase(name) */\n      swap1\n      pop\n        /* \"contracts/ENS6TESTING.sol\":2332:2333  0 */\n      0x00\n        /* \"contracts/ENS6TESTING.sol\":2312:2321  lowerName */\n      dup2\n        /* \"contracts/ENS6TESTING.sol\":2306:2329  bytes(lowerName).length */\n      mload\n        /* \"contracts/ENS6TESTING.sol\":2306:2333  bytes(lowerName).length > 0 */\n      gt\n        /* \"contracts/ENS6TESTING.sol\":2306:2366  bytes(lowerName).length > 0 && bytes(lowerName).length <= 15 */\n      dup1\n      iszero\n      tag_146\n      jumpi\n      pop\n        /* \"contracts/ENS6TESTING.sol\":2364:2366  15 */\n      0x0f\n        /* \"contracts/ENS6TESTING.sol\":2343:2352  lowerName */\n      dup2\n        /* \"contracts/ENS6TESTING.sol\":2337:2360  bytes(lowerName).length */\n      mload\n        /* \"contracts/ENS6TESTING.sol\":2337:2366  bytes(lowerName).length <= 15 */\n      gt\n      iszero\n        /* \"contracts/ENS6TESTING.sol\":2306:2366  bytes(lowerName).length > 0 && bytes(lowerName).length <= 15 */\n    tag_146:\n        /* \"contracts/ENS6TESTING.sol\":2285:2435  require(... */\n      tag_147\n      jumpi\n      mload(0x40)\n      0x08c379a000000000000000000000000000000000000000000000000000000000\n      dup2\n      mstore\n      0x04\n      add\n      tag_148\n      swap1\n      tag_149\n      jump\t// in\n    tag_148:\n      mload(0x40)\n      dup1\n      swap2\n      sub\n      swap1\n      revert\n    tag_147:\n        /* \"contracts/ENS6TESTING.sol\":2446:2470  string memory domainName */\n      0x00\n        /* \"contracts/ENS6TESTING.sol\":2510:2519  lowerName */\n      dup2\n        /* \"contracts/ENS6TESTING.sol\":2521:2533  chosenSuffix */\n      dup5\n      dup5\n        /* \"contracts/ENS6TESTING.sol\":2493:2534  abi.encodePacked(lowerName, chosenSuffix) */\n      add(0x20, mload(0x40))\n      tag_150\n      swap4\n      swap3\n      swap2\n      swap1\n      tag_151\n      jump\t// in\n    tag_150:\n      mload(0x40)\n      0x20\n      dup2\n      dup4\n      sub\n      sub\n      dup2\n      mstore\n      swap1\n      0x40\n      mstore\n        /* \"contracts/ENS6TESTING.sol\":2446:2544  string memory domainName = string(... */\n      swap1\n      pop\n        /* \"contracts/ENS6TESTING.sol\":2555:2569  bool isExpired */\n      0x00\n        /* \"contracts/ENS6TESTING.sol\":2605:2620  block.timestamp */\n      timestamp\n        /* \"contracts/ENS6TESTING.sol\":2572:2579  domains */\n      0x02\n        /* \"contracts/ENS6TESTING.sol\":2580:2590  domainName */\n      dup4\n        /* \"contracts/ENS6TESTING.sol\":2572:2591  domains[domainName] */\n      mload(0x40)\n      tag_152\n      swap2\n      swap1\n      tag_68\n      jump\t// in\n    tag_152:\n      swap1\n      dup2\n      mstore\n      0x20\n      add\n      mload(0x40)\n      dup1\n      swap2\n      sub\n      swap1\n      keccak256\n        /* \"contracts/ENS6TESTING.sol\":2572:2602  domains[domainName].expiration */\n      0x02\n      add\n      sload\n        /* \"contracts/ENS6TESTING.sol\":2572:2620  domains[domainName].expiration < block.timestamp */\n      lt\n        /* \"contracts/ENS6TESTING.sol\":2555:2620  bool isExpired = domains[domainName].expiration < block.timestamp */\n      swap1\n      pop\n        /* \"contracts/ENS6TESTING.sol\":2689:2690  0 */\n      0x00\n        /* \"contracts/ENS6TESTING.sol\":2652:2691  domains[domainName].owner == address(0) */\n      0xffffffffffffffffffffffffffffffffffffffff\n      and\n        /* \"contracts/ENS6TESTING.sol\":2652:2659  domains */\n      0x02\n        /* \"contracts/ENS6TESTING.sol\":2660:2670  domainName */\n      dup4\n        /* \"contracts/ENS6TESTING.sol\":2652:2671  domains[domainName] */\n      mload(0x40)\n      tag_153\n      swap2\n      swap1\n      tag_68\n      jump\t// in\n    tag_153:\n      swap1\n      dup2\n      mstore\n      0x20\n      add\n      mload(0x40)\n      dup1\n      swap2\n      sub\n      swap1\n      keccak256\n        /* \"contracts/ENS6TESTING.sol\":2652:2677  domains[domainName].owner */\n      0x00\n      add\n      0x00\n      swap1\n      sload\n      swap1\n      0x0100\n      exp\n      swap1\n      div\n      0xffffffffffffffffffffffffffffffffffffffff\n      and\n        /* \"contracts/ENS6TESTING.sol\":2652:2691  domains[domainName].owner == address(0) */\n      0xffffffffffffffffffffffffffffffffffffffff\n      and\n      eq\n        /* \"contracts/ENS6TESTING.sol\":2652:2704  domains[domainName].owner == address(0) || isExpired */\n      dup1\n      tag_154\n      jumpi\n      pop\n        /* \"contracts/ENS6TESTING.sol\":2695:2704  isExpired */\n      dup1\n        /* \"contracts/ENS6TESTING.sol\":2652:2704  domains[domainName].owner == address(0) || isExpired */\n    tag_154:\n        /* \"contracts/ENS6TESTING.sol\":2631:2772  require(... */\n      tag_155\n      jumpi\n      mload(0x40)\n      0x08c379a000000000000000000000000000000000000000000000000000000000\n      dup2\n      mstore\n      0x04\n      add\n      tag_156\n      swap1\n      tag_157\n      jump\t// in\n    tag_156:\n      mload(0x40)\n      dup1\n      swap2\n      sub\n      swap1\n      revert\n    tag_155:\n        /* \"contracts/ENS6TESTING.sol\":2787:2796  isExpired */\n      dup1\n        /* \"contracts/ENS6TESTING.sol\":2783:2884  if (isExpired) {... */\n      iszero\n      tag_158\n      jumpi\n        /* \"contracts/ENS6TESTING.sol\":2812:2873  _removeDomainFromOwner(domains[domainName].owner, domainName) */\n      tag_159\n        /* \"contracts/ENS6TESTING.sol\":2835:2842  domains */\n      0x02\n        /* \"contracts/ENS6TESTING.sol\":2843:2853  domainName */\n      dup4\n        /* \"contracts/ENS6TESTING.sol\":2835:2854  domains[domainName] */\n      mload(0x40)\n      tag_160\n      swap2\n      swap1\n      tag_68\n      jump\t// in\n    tag_160:\n      swap1\n      dup2\n      mstore\n      0x20\n      add\n      mload(0x40)\n      dup1\n      swap2\n      sub\n      swap1\n      keccak256\n        /* \"contracts/ENS6TESTING.sol\":2835:2860  domains[domainName].owner */\n      0x00\n      add\n      0x00\n      swap1\n      sload\n      swap1\n      0x0100\n      exp\n      swap1\n      div\n      0xffffffffffffffffffffffffffffffffffffffff\n      and\n        /* \"contracts/ENS6TESTING.sol\":2862:2872  domainName */\n      dup4\n        /* \"contracts/ENS6TESTING.sol\":2812:2834  _removeDomainFromOwner */\n      tag_134\n        /* \"contracts/ENS6TESTING.sol\":2812:2873  _removeDomainFromOwner(domains[domainName].owner, domainName) */\n      jump\t// in\n    tag_159:\n        /* \"contracts/ENS6TESTING.sol\":2783:2884  if (isExpired) {... */\n    tag_158:\n        /* \"contracts/ENS6TESTING.sol\":2894:2911  uint256 totalCost */\n      0x00\n        /* \"contracts/ENS6TESTING.sol\":2943:2960  registrationYears */\n      dup7\n        /* \"contracts/ENS6TESTING.sol\":2914:2926  suffixPrices */\n      0x00\n        /* \"contracts/ENS6TESTING.sol\":2927:2939  chosenSuffix */\n      dup8\n      dup8\n        /* \"contracts/ENS6TESTING.sol\":2914:2940  suffixPrices[chosenSuffix] */\n      mload(0x40)\n      tag_161\n      swap3\n      swap2\n      swap1\n      tag_85\n      jump\t// in\n    tag_161:\n      swap1\n      dup2\n      mstore\n      0x20\n      add\n      mload(0x40)\n      dup1\n      swap2\n      sub\n      swap1\n      keccak256\n      sload\n        /* \"contracts/ENS6TESTING.sol\":2914:2960  suffixPrices[chosenSuffix] * registrationYears */\n      tag_162\n      swap2\n      swap1\n      tag_79\n      jump\t// in\n    tag_162:\n        /* \"contracts/ENS6TESTING.sol\":2894:2960  uint256 totalCost = suffixPrices[chosenSuffix] * registrationYears */\n      swap1\n      pop\n        /* \"contracts/ENS6TESTING.sol\":3004:3013  totalCost */\n      dup1\n        /* \"contracts/ENS6TESTING.sol\":2991:3000  msg.value */\n      callvalue\n        /* \"contracts/ENS6TESTING.sol\":2991:3013  msg.value >= totalCost */\n      lt\n      iszero\n        /* \"contracts/ENS6TESTING.sol\":2970:3104  require(... */\n      tag_163\n      jumpi\n      mload(0x40)\n      0x08c379a000000000000000000000000000000000000000000000000000000000\n      dup2\n      mstore\n      0x04\n      add\n      tag_164\n      swap1\n      tag_165\n      jump\t// in\n    tag_164:\n      mload(0x40)\n      dup1\n      swap2\n      sub\n      swap1\n      revert\n    tag_163:\n        /* \"contracts/ENS6TESTING.sol\":3115:3133  uint256 expiration */\n      0x00\n        /* \"contracts/ENS6TESTING.sol\":3174:3183  1 minutes */\n      0x3c\n        /* \"contracts/ENS6TESTING.sol\":3154:3171  registrationYears */\n      dup9\n        /* \"contracts/ENS6TESTING.sol\":3154:3183  registrationYears * 1 minutes */\n      tag_166\n      swap2\n      swap1\n      tag_79\n      jump\t// in\n    tag_166:\n        /* \"contracts/ENS6TESTING.sol\":3136:3151  block.timestamp */\n      timestamp\n        /* \"contracts/ENS6TESTING.sol\":3136:3183  block.timestamp + registrationYears * 1 minutes */\n      tag_167\n      swap2\n      swap1\n      tag_87\n      jump\t// in\n    tag_167:\n        /* \"contracts/ENS6TESTING.sol\":3115:3183  uint256 expiration = block.timestamp + registrationYears * 1 minutes */\n      swap1\n      pop\n        /* \"contracts/ENS6TESTING.sol\":3215:3262  Domain(msg.sender, initialResolver, expiration) */\n      mload(0x40)\n      dup1\n      0x60\n      add\n      0x40\n      mstore\n      dup1\n        /* \"contracts/ENS6TESTING.sol\":3222:3232  msg.sender */\n      caller\n        /* \"contracts/ENS6TESTING.sol\":3215:3262  Domain(msg.sender, initialResolver, expiration) */\n      0xffffffffffffffffffffffffffffffffffffffff\n      and\n      dup2\n      mstore\n      0x20\n      add\n        /* \"contracts/ENS6TESTING.sol\":3234:3249  initialResolver */\n      dup11\n        /* \"contracts/ENS6TESTING.sol\":3215:3262  Domain(msg.sender, initialResolver, expiration) */\n      0xffffffffffffffffffffffffffffffffffffffff\n      and\n      dup2\n      mstore\n      0x20\n      add\n        /* \"contracts/ENS6TESTING.sol\":3251:3261  expiration */\n      dup3\n        /* \"contracts/ENS6TESTING.sol\":3215:3262  Domain(msg.sender, initialResolver, expiration) */\n      dup2\n      mstore\n      pop\n        /* \"contracts/ENS6TESTING.sol\":3193:3200  domains */\n      0x02\n        /* \"contracts/ENS6TESTING.sol\":3201:3211  domainName */\n      dup6\n        /* \"contracts/ENS6TESTING.sol\":3193:3212  domains[domainName] */\n      mload(0x40)\n      tag_168\n      swap2\n      swap1\n      tag_68\n      jump\t// in\n    tag_168:\n      swap1\n      dup2\n      mstore\n      0x20\n      add\n      mload(0x40)\n      dup1\n      swap2\n      sub\n      swap1\n      keccak256\n        /* \"contracts/ENS6TESTING.sol\":3193:3262  domains[domainName] = Domain(msg.sender, initialResolver, expiration) */\n      0x00\n      dup3\n      add\n      mload\n      dup2\n      0x00\n      add\n      exp(0x0100, 0x00)\n      dup2\n      sload\n      dup2\n      0xffffffffffffffffffffffffffffffffffffffff\n      mul\n      not\n      and\n      swap1\n      dup4\n      0xffffffffffffffffffffffffffffffffffffffff\n      and\n      mul\n      or\n      swap1\n      sstore\n      pop\n      0x20\n      dup3\n      add\n      mload\n      dup2\n      0x01\n      add\n      exp(0x0100, 0x00)\n      dup2\n      sload\n      dup2\n      0xffffffffffffffffffffffffffffffffffffffff\n      mul\n      not\n      and\n      swap1\n      dup4\n      0xffffffffffffffffffffffffffffffffffffffff\n      and\n      mul\n      or\n      swap1\n      sstore\n      pop\n      0x40\n      dup3\n      add\n      mload\n      dup2\n      0x02\n      add\n      sstore\n      swap1\n      pop\n      pop\n        /* \"contracts/ENS6TESTING.sol\":3272:3288  addressToDomains */\n      0x03\n        /* \"contracts/ENS6TESTING.sol\":3272:3300  addressToDomains[msg.sender] */\n      0x00\n        /* \"contracts/ENS6TESTING.sol\":3289:3299  msg.sender */\n      caller\n        /* \"contracts/ENS6TESTING.sol\":3272:3300  addressToDomains[msg.sender] */\n      0xffffffffffffffffffffffffffffffffffffffff\n      and\n      0xffffffffffffffffffffffffffffffffffffffff\n      and\n      dup2\n      mstore\n      0x20\n      add\n      swap1\n      dup2\n      mstore\n      0x20\n      add\n      0x00\n      keccak256\n        /* \"contracts/ENS6TESTING.sol\":3306:3316  domainName */\n      dup5\n        /* \"contracts/ENS6TESTING.sol\":3272:3317  addressToDomains[msg.sender].push(domainName) */\n      swap1\n      dup1\n      0x01\n      dup2\n      sload\n      add\n      dup1\n      dup3\n      sstore\n      dup1\n      swap2\n      pop\n      pop\n      0x01\n      swap1\n      sub\n      swap1\n      0x00\n      mstore\n      keccak256(0x00, 0x20)\n      add\n      0x00\n      swap1\n      swap2\n      swap1\n      swap2\n      swap1\n      swap2\n      pop\n      swap1\n      dup2\n      tag_170\n      swap2\n      swap1\n      tag_171\n      jump\t// in\n    tag_170:\n      pop\n        /* \"contracts/ENS6TESTING.sol\":3387:3397  msg.sender */\n      caller\n        /* \"contracts/ENS6TESTING.sol\":3333:3460  DomainRegistered(... */\n      0xffffffffffffffffffffffffffffffffffffffff\n      and\n      0xa5f4533ec077c1b1e4fa879988258637a45b7a6e6663bf8589e0d3dde3855017\n        /* \"contracts/ENS6TESTING.sol\":3363:3373  domainName */\n      dup6\n        /* \"contracts/ENS6TESTING.sol\":3411:3426  initialResolver */\n      dup12\n        /* \"contracts/ENS6TESTING.sol\":3440:3450  expiration */\n      dup5\n        /* \"contracts/ENS6TESTING.sol\":3333:3460  DomainRegistered(... */\n      mload(0x40)\n      tag_172\n      swap4\n      swap3\n      swap2\n      swap1\n      tag_173\n      jump\t// in\n    tag_172:\n      mload(0x40)\n      dup1\n      swap2\n      sub\n      swap1\n      log2\n        /* \"contracts/ENS6TESTING.sol\":3487:3496  totalCost */\n      dup2\n        /* \"contracts/ENS6TESTING.sol\":3475:3484  msg.value */\n      callvalue\n        /* \"contracts/ENS6TESTING.sol\":3475:3496  msg.value > totalCost */\n      gt\n        /* \"contracts/ENS6TESTING.sol\":3471:3574  if (msg.value > totalCost) {... */\n      iszero\n      tag_174\n      jumpi\n        /* \"contracts/ENS6TESTING.sol\":3520:3530  msg.sender */\n      caller\n        /* \"contracts/ENS6TESTING.sol\":3512:3540  payable(msg.sender).transfer */\n      0xffffffffffffffffffffffffffffffffffffffff\n      and\n        /* \"contracts/ENS6TESTING.sol\":3512:3563  payable(msg.sender).transfer(msg.value - totalCost) */\n      0x08fc\n        /* \"contracts/ENS6TESTING.sol\":3553:3562  totalCost */\n      dup4\n        /* \"contracts/ENS6TESTING.sol\":3541:3550  msg.value */\n      callvalue\n        /* \"contracts/ENS6TESTING.sol\":3541:3562  msg.value - totalCost */\n      tag_175\n      swap2\n      swap1\n      tag_93\n      jump\t// in\n    tag_175:\n        /* \"contracts/ENS6TESTING.sol\":3512:3563  payable(msg.sender).transfer(msg.value - totalCost) */\n      swap1\n      dup2\n      iszero\n      mul\n      swap1\n      mload(0x40)\n      0x00\n      mload(0x40)\n      dup1\n      dup4\n      sub\n      dup2\n      dup6\n      dup9\n      dup9\n      call\n      swap4\n      pop\n      pop\n      pop\n      pop\n      iszero\n      dup1\n      iszero\n      tag_177\n      jumpi\n      returndatasize\n      0x00\n      dup1\n      returndatacopy\n      revert(0x00, returndatasize)\n    tag_177:\n      pop\n        /* \"contracts/ENS6TESTING.sol\":3471:3574  if (msg.value > totalCost) {... */\n    tag_174:\n        /* \"contracts/ENS6TESTING.sol\":2153:3580  {... */\n      pop\n      pop\n      pop\n      pop\n      pop\n        /* \"contracts/ENS6TESTING.sol\":1970:3580  function registerDomain(... */\n      pop\n      pop\n      pop\n      pop\n      pop\n      pop\n      jump\t// out\n        /* \"contracts/ENS6TESTING.sol\":5653:5822  function getDomainsByOwner(address domainOwner)... */\n    tag_63:\n        /* \"contracts/ENS6TESTING.sol\":5748:5763  string[] memory */\n      0x60\n        /* \"contracts/ENS6TESTING.sol\":5786:5802  addressToDomains */\n      0x03\n        /* \"contracts/ENS6TESTING.sol\":5786:5815  addressToDomains[domainOwner] */\n      0x00\n        /* \"contracts/ENS6TESTING.sol\":5803:5814  domainOwner */\n      dup4\n        /* \"contracts/ENS6TESTING.sol\":5786:5815  addressToDomains[domainOwner] */\n      0xffffffffffffffffffffffffffffffffffffffff\n      and\n      0xffffffffffffffffffffffffffffffffffffffff\n      and\n      dup2\n      mstore\n      0x20\n      add\n      swap1\n      dup2\n      mstore\n      0x20\n      add\n      0x00\n      keccak256\n        /* \"contracts/ENS6TESTING.sol\":5779:5815  return addressToDomains[domainOwner] */\n      dup1\n      sload\n      dup1\n      0x20\n      mul\n      0x20\n      add\n      mload(0x40)\n      swap1\n      dup2\n      add\n      0x40\n      mstore\n      dup1\n      swap3\n      swap2\n      swap1\n      dup2\n      dup2\n      mstore\n      0x20\n      add\n      0x00\n      swap1\n    tag_179:\n      dup3\n      dup3\n      lt\n      iszero\n      tag_180\n      jumpi\n      dup4\n      dup3\n      swap1\n      0x00\n      mstore\n      keccak256(0x00, 0x20)\n      add\n      dup1\n      sload\n      tag_182\n      swap1\n      tag_183\n      jump\t// in\n    tag_182:\n      dup1\n      0x1f\n      add\n      0x20\n      dup1\n      swap2\n      div\n      mul\n      0x20\n      add\n      mload(0x40)\n      swap1\n      dup2\n      add\n      0x40\n      mstore\n      dup1\n      swap3\n      swap2\n      swap1\n      dup2\n      dup2\n      mstore\n      0x20\n      add\n      dup3\n      dup1\n      sload\n      tag_184\n      swap1\n      tag_183\n      jump\t// in\n    tag_184:\n      dup1\n      iszero\n      tag_185\n      jumpi\n      dup1\n      0x1f\n      lt\n      tag_186\n      jumpi\n      0x0100\n      dup1\n      dup4\n      sload\n      div\n      mul\n      dup4\n      mstore\n      swap2\n      0x20\n      add\n      swap2\n      jump(tag_185)\n    tag_186:\n      dup3\n      add\n      swap2\n      swap1\n      0x00\n      mstore\n      keccak256(0x00, 0x20)\n      swap1\n    tag_187:\n      dup2\n      sload\n      dup2\n      mstore\n      swap1\n      0x01\n      add\n      swap1\n      0x20\n      add\n      dup1\n      dup4\n      gt\n      tag_187\n      jumpi\n      dup3\n      swap1\n      sub\n      0x1f\n      and\n      dup3\n      add\n      swap2\n    tag_185:\n      pop\n      pop\n      pop\n      pop\n      pop\n      dup2\n      mstore\n      0x20\n      add\n      swap1\n      0x01\n      add\n      swap1\n      jump(tag_179)\n    tag_180:\n      pop\n      pop\n      pop\n      pop\n      swap1\n      pop\n        /* \"contracts/ENS6TESTING.sol\":5653:5822  function getDomainsByOwner(address domainOwner)... */\n      swap2\n      swap1\n      pop\n      jump\t// out\n        /* \"contracts/ENS6TESTING.sol\":6624:6988  function _getSuffixPosition(string memory domainName)... */\n    tag_74:\n        /* \"contracts/ENS6TESTING.sol\":6725:6732  uint256 */\n      0x00\n        /* \"contracts/ENS6TESTING.sol\":6748:6772  bytes memory domainBytes */\n      dup1\n        /* \"contracts/ENS6TESTING.sol\":6781:6791  domainName */\n      dup3\n        /* \"contracts/ENS6TESTING.sol\":6748:6792  bytes memory domainBytes = bytes(domainName) */\n      swap1\n      pop\n        /* \"contracts/ENS6TESTING.sol\":6807:6816  uint256 i */\n      0x00\n        /* \"contracts/ENS6TESTING.sol\":6819:6830  domainBytes */\n      dup2\n        /* \"contracts/ENS6TESTING.sol\":6819:6837  domainBytes.length */\n      mload\n        /* \"contracts/ENS6TESTING.sol\":6807:6837  uint256 i = domainBytes.length */\n      swap1\n      pop\n        /* \"contracts/ENS6TESTING.sol\":6802:6947  for (uint256 i = domainBytes.length; i > 0; i--) {... */\n    tag_189:\n        /* \"contracts/ENS6TESTING.sol\":6843:6844  0 */\n      0x00\n        /* \"contracts/ENS6TESTING.sol\":6839:6840  i */\n      dup2\n        /* \"contracts/ENS6TESTING.sol\":6839:6844  i > 0 */\n      gt\n        /* \"contracts/ENS6TESTING.sol\":6802:6947  for (uint256 i = domainBytes.length; i > 0; i--) {... */\n      iszero\n      tag_190\n      jumpi\n        /* \"contracts/ENS6TESTING.sol\":6869:6894  domainBytes[i - 1] == \".\" */\n      0x2e00000000000000000000000000000000000000000000000000000000000000\n        /* \"contracts/ENS6TESTING.sol\":6869:6880  domainBytes */\n      dup3\n        /* \"contracts/ENS6TESTING.sol\":6885:6886  1 */\n      0x01\n        /* \"contracts/ENS6TESTING.sol\":6881:6882  i */\n      dup4\n        /* \"contracts/ENS6TESTING.sol\":6881:6886  i - 1 */\n      tag_192\n      swap2\n      swap1\n      tag_93\n      jump\t// in\n    tag_192:\n        /* \"contracts/ENS6TESTING.sol\":6869:6887  domainBytes[i - 1] */\n      dup2\n      mload\n      dup2\n      lt\n      tag_193\n      jumpi\n      tag_194\n      tag_195\n      jump\t// in\n    tag_194:\n    tag_193:\n      0x20\n      add\n      add\n      mload\n      0xf8\n      shr\n      0xf8\n      shl\n        /* \"contracts/ENS6TESTING.sol\":6869:6894  domainBytes[i - 1] == \".\" */\n      not(0xffffffffffffffffffffffffffffffffffffffffffffffffffffffffffffff)\n      and\n      sub\n        /* \"contracts/ENS6TESTING.sol\":6865:6937  if (domainBytes[i - 1] == \".\") {... */\n      tag_196\n      jumpi\n        /* \"contracts/ENS6TESTING.sol\":6921:6922  i */\n      dup1\n        /* \"contracts/ENS6TESTING.sol\":6914:6922  return i */\n      swap3\n      pop\n      pop\n      pop\n      jump(tag_188)\n        /* \"contracts/ENS6TESTING.sol\":6865:6937  if (domainBytes[i - 1] == \".\") {... */\n    tag_196:\n        /* \"contracts/ENS6TESTING.sol\":6846:6849  i-- */\n      dup1\n      dup1\n      tag_197\n      swap1\n      tag_198\n      jump\t// in\n    tag_197:\n      swap2\n      pop\n      pop\n        /* \"contracts/ENS6TESTING.sol\":6802:6947  for (uint256 i = domainBytes.length; i > 0; i--) {... */\n      jump(tag_189)\n    tag_190:\n      pop\n        /* \"contracts/ENS6TESTING.sol\":6956:6981  revert(\"No suffix found\") */\n      mload(0x40)\n      0x08c379a000000000000000000000000000000000000000000000000000000000\n      dup2\n      mstore\n      0x04\n      add\n      tag_199\n      swap1\n      tag_200\n      jump\t// in\n    tag_199:\n      mload(0x40)\n      dup1\n      swap2\n      sub\n      swap1\n      revert\n        /* \"contracts/ENS6TESTING.sol\":6624:6988  function _getSuffixPosition(string memory domainName)... */\n    tag_188:\n      swap2\n      swap1\n      pop\n      jump\t// out\n        /* \"contracts/ENS6TESTING.sol\":6994:7419  function _extractSuffix(string memory domainName, uint256 position)... */\n    tag_76:\n        /* \"contracts/ENS6TESTING.sol\":7109:7122  string memory */\n      0x60\n        /* \"contracts/ENS6TESTING.sol\":7138:7162  bytes memory domainBytes */\n      0x00\n        /* \"contracts/ENS6TESTING.sol\":7171:7181  domainName */\n      dup4\n        /* \"contracts/ENS6TESTING.sol\":7138:7182  bytes memory domainBytes = bytes(domainName) */\n      swap1\n      pop\n        /* \"contracts/ENS6TESTING.sol\":7192:7211  bytes memory result */\n      0x00\n        /* \"contracts/ENS6TESTING.sol\":7245:7253  position */\n      dup4\n        /* \"contracts/ENS6TESTING.sol\":7224:7235  domainBytes */\n      dup3\n        /* \"contracts/ENS6TESTING.sol\":7224:7242  domainBytes.length */\n      mload\n        /* \"contracts/ENS6TESTING.sol\":7224:7253  domainBytes.length - position */\n      tag_202\n      swap2\n      swap1\n      tag_93\n      jump\t// in\n    tag_202:\n        /* \"contracts/ENS6TESTING.sol\":7214:7254  new bytes(domainBytes.length - position) */\n      0xffffffffffffffff\n      dup2\n      gt\n      iszero\n      tag_203\n      jumpi\n      tag_204\n      tag_205\n      jump\t// in\n    tag_204:\n    tag_203:\n      mload(0x40)\n      swap1\n      dup1\n      dup3\n      mstore\n      dup1\n      0x1f\n      add\n      not(0x1f)\n      and\n      0x20\n      add\n      dup3\n      add\n      0x40\n      mstore\n      dup1\n      iszero\n      tag_206\n      jumpi\n      dup2\n      0x20\n      add\n      0x01\n      dup3\n      mul\n      dup1\n      calldatasize\n      dup4\n      calldatacopy\n      dup1\n      dup3\n      add\n      swap2\n      pop\n      pop\n      swap1\n      pop\n    tag_206:\n      pop\n        /* \"contracts/ENS6TESTING.sol\":7192:7254  bytes memory result = new bytes(domainBytes.length - position) */\n      swap1\n      pop\n        /* \"contracts/ENS6TESTING.sol\":7269:7278  uint256 i */\n      0x00\n        /* \"contracts/ENS6TESTING.sol\":7281:7289  position */\n      dup5\n        /* \"contracts/ENS6TESTING.sol\":7269:7289  uint256 i = position */\n      swap1\n      pop\n        /* \"contracts/ENS6TESTING.sol\":7264:7382  for (uint256 i = position; i < domainBytes.length; i++) {... */\n    tag_207:\n        /* \"contracts/ENS6TESTING.sol\":7295:7306  domainBytes */\n      dup3\n        /* \"contracts/ENS6TESTING.sol\":7295:7313  domainBytes.length */\n      mload\n        /* \"contracts/ENS6TESTING.sol\":7291:7292  i */\n      dup2\n        /* \"contracts/ENS6TESTING.sol\":7291:7313  i < domainBytes.length */\n      lt\n        /* \"contracts/ENS6TESTING.sol\":7264:7382  for (uint256 i = position; i < domainBytes.length; i++) {... */\n      iszero\n      tag_208\n      jumpi\n        /* \"contracts/ENS6TESTING.sol\":7357:7368  domainBytes */\n      dup3\n        /* \"contracts/ENS6TESTING.sol\":7369:7370  i */\n      dup2\n        /* \"contracts/ENS6TESTING.sol\":7357:7371  domainBytes[i] */\n      dup2\n      mload\n      dup2\n      lt\n      tag_210\n      jumpi\n      tag_211\n      tag_195\n      jump\t// in\n    tag_211:\n    tag_210:\n      0x20\n      add\n      add\n      mload\n      0xf8\n      shr\n      0xf8\n      shl\n        /* \"contracts/ENS6TESTING.sol\":7334:7340  result */\n      dup3\n        /* \"contracts/ENS6TESTING.sol\":7345:7353  position */\n      dup7\n        /* \"contracts/ENS6TESTING.sol\":7341:7342  i */\n      dup4\n        /* \"contracts/ENS6TESTING.sol\":7341:7353  i - position */\n      tag_212\n      swap2\n      swap1\n      tag_93\n      jump\t// in\n    tag_212:\n        /* \"contracts/ENS6TESTING.sol\":7334:7354  result[i - position] */\n      dup2\n      mload\n      dup2\n      lt\n      tag_213\n      jumpi\n      tag_214\n      tag_195\n      jump\t// in\n    tag_214:\n    tag_213:\n      0x20\n      add\n      add\n        /* \"contracts/ENS6TESTING.sol\":7334:7371  result[i - position] = domainBytes[i] */\n      swap1\n      not(0xffffffffffffffffffffffffffffffffffffffffffffffffffffffffffffff)\n      and\n      swap1\n      dup2\n      0x00\n      byte\n      swap1\n      mstore8\n      pop\n        /* \"contracts/ENS6TESTING.sol\":7315:7318  i++ */\n      dup1\n      dup1\n      tag_215\n      swap1\n      tag_216\n      jump\t// in\n    tag_215:\n      swap2\n      pop\n      pop\n        /* \"contracts/ENS6TESTING.sol\":7264:7382  for (uint256 i = position; i < domainBytes.length; i++) {... */\n      jump(tag_207)\n    tag_208:\n      pop\n        /* \"contracts/ENS6TESTING.sol\":7405:7411  result */\n      dup1\n        /* \"contracts/ENS6TESTING.sol\":7391:7412  return string(result) */\n      swap3\n      pop\n      pop\n      pop\n        /* \"contracts/ENS6TESTING.sol\":6994:7419  function _extractSuffix(string memory domainName, uint256 position)... */\n      swap3\n      swap2\n      pop\n      pop\n      jump\t// out\n        /* \"contracts/ENS6TESTING.sol\":6061:6618  function _removeDomainFromOwner(... */\n    tag_134:\n        /* \"contracts/ENS6TESTING.sol\":6181:6210  string[] storage ownerDomains */\n      0x00\n        /* \"contracts/ENS6TESTING.sol\":6213:6229  addressToDomains */\n      0x03\n        /* \"contracts/ENS6TESTING.sol\":6213:6242  addressToDomains[domainOwner] */\n      0x00\n        /* \"contracts/ENS6TESTING.sol\":6230:6241  domainOwner */\n      dup5\n        /* \"contracts/ENS6TESTING.sol\":6213:6242  addressToDomains[domainOwner] */\n      0xffffffffffffffffffffffffffffffffffffffff\n      and\n      0xffffffffffffffffffffffffffffffffffffffff\n      and\n      dup2\n      mstore\n      0x20\n      add\n      swap1\n      dup2\n      mstore\n      0x20\n      add\n      0x00\n      keccak256\n        /* \"contracts/ENS6TESTING.sol\":6181:6242  string[] storage ownerDomains = addressToDomains[domainOwner] */\n      swap1\n      pop\n        /* \"contracts/ENS6TESTING.sol\":6257:6266  uint256 i */\n      0x00\n        /* \"contracts/ENS6TESTING.sol\":6252:6612  for (uint256 i = 0; i < ownerDomains.length; i++) {... */\n    tag_218:\n        /* \"contracts/ENS6TESTING.sol\":6276:6288  ownerDomains */\n      dup2\n        /* \"contracts/ENS6TESTING.sol\":6276:6295  ownerDomains.length */\n      dup1\n      sload\n      swap1\n      pop\n        /* \"contracts/ENS6TESTING.sol\":6272:6273  i */\n      dup2\n        /* \"contracts/ENS6TESTING.sol\":6272:6295  i < ownerDomains.length */\n      lt\n        /* \"contracts/ENS6TESTING.sol\":6252:6612  for (uint256 i = 0; i < ownerDomains.length; i++) {... */\n      iszero\n      tag_219\n      jumpi\n        /* \"contracts/ENS6TESTING.sol\":6428:6438  domainName */\n      dup3\n        /* \"contracts/ENS6TESTING.sol\":6411:6439  abi.encodePacked(domainName) */\n      add(0x20, mload(0x40))\n      tag_221\n      swap2\n      swap1\n      tag_68\n      jump\t// in\n    tag_221:\n      mload(0x40)\n      0x20\n      dup2\n      dup4\n      sub\n      sub\n      dup2\n      mstore\n      swap1\n      0x40\n      mstore\n        /* \"contracts/ENS6TESTING.sol\":6401:6440  keccak256(abi.encodePacked(domainName)) */\n      dup1\n      mload\n      swap1\n      0x20\n      add\n      keccak256\n        /* \"contracts/ENS6TESTING.sol\":6364:6376  ownerDomains */\n      dup3\n        /* \"contracts/ENS6TESTING.sol\":6377:6378  i */\n      dup3\n        /* \"contracts/ENS6TESTING.sol\":6364:6379  ownerDomains[i] */\n      dup2\n      sload\n      dup2\n      lt\n      tag_222\n      jumpi\n      tag_223\n      tag_195\n      jump\t// in\n    tag_223:\n    tag_222:\n      swap1\n      0x00\n      mstore\n      keccak256(0x00, 0x20)\n      add\n        /* \"contracts/ENS6TESTING.sol\":6347:6380  abi.encodePacked(ownerDomains[i]) */\n      add(0x20, mload(0x40))\n      tag_225\n      swap2\n      swap1\n      tag_226\n      jump\t// in\n    tag_225:\n      mload(0x40)\n      0x20\n      dup2\n      dup4\n      sub\n      sub\n      dup2\n      mstore\n      swap1\n      0x40\n      mstore\n        /* \"contracts/ENS6TESTING.sol\":6337:6381  keccak256(abi.encodePacked(ownerDomains[i])) */\n      dup1\n      mload\n      swap1\n      0x20\n      add\n      keccak256\n        /* \"contracts/ENS6TESTING.sol\":6337:6440  keccak256(abi.encodePacked(ownerDomains[i])) ==... */\n      sub\n        /* \"contracts/ENS6TESTING.sol\":6316:6602  if (... */\n      tag_227\n      jumpi\n        /* \"contracts/ENS6TESTING.sol\":6491:6503  ownerDomains */\n      dup2\n        /* \"contracts/ENS6TESTING.sol\":6526:6527  1 */\n      0x01\n        /* \"contracts/ENS6TESTING.sol\":6504:6516  ownerDomains */\n      dup4\n        /* \"contracts/ENS6TESTING.sol\":6504:6523  ownerDomains.length */\n      dup1\n      sload\n      swap1\n      pop\n        /* \"contracts/ENS6TESTING.sol\":6504:6527  ownerDomains.length - 1 */\n      tag_228\n      swap2\n      swap1\n      tag_93\n      jump\t// in\n    tag_228:\n        /* \"contracts/ENS6TESTING.sol\":6491:6528  ownerDomains[ownerDomains.length - 1] */\n      dup2\n      sload\n      dup2\n      lt\n      tag_229\n      jumpi\n      tag_230\n      tag_195\n      jump\t// in\n    tag_230:\n    tag_229:\n      swap1\n      0x00\n      mstore\n      keccak256(0x00, 0x20)\n      add\n        /* \"contracts/ENS6TESTING.sol\":6473:6485  ownerDomains */\n      dup3\n        /* \"contracts/ENS6TESTING.sol\":6486:6487  i */\n      dup3\n        /* \"contracts/ENS6TESTING.sol\":6473:6488  ownerDomains[i] */\n      dup2\n      sload\n      dup2\n      lt\n      tag_232\n      jumpi\n      tag_233\n      tag_195\n      jump\t// in\n    tag_233:\n    tag_232:\n      swap1\n      0x00\n      mstore\n      keccak256(0x00, 0x20)\n      add\n        /* \"contracts/ENS6TESTING.sol\":6473:6528  ownerDomains[i] = ownerDomains[ownerDomains.length - 1] */\n      swap1\n      dup2\n      tag_235\n      swap2\n      swap1\n      tag_236\n      jump\t// in\n    tag_235:\n      pop\n        /* \"contracts/ENS6TESTING.sol\":6546:6558  ownerDomains */\n      dup2\n        /* \"contracts/ENS6TESTING.sol\":6546:6564  ownerDomains.pop() */\n      dup1\n      sload\n      dup1\n      tag_237\n      jumpi\n      tag_238\n      tag_239\n      jump\t// in\n    tag_238:\n    tag_237:\n      0x01\n      swap1\n      sub\n      dup2\n      dup2\n      swap1\n      0x00\n      mstore\n      keccak256(0x00, 0x20)\n      add\n      0x00\n      tag_241\n      swap2\n      swap1\n      tag_242\n      jump\t// in\n    tag_241:\n      swap1\n      sstore\n        /* \"contracts/ENS6TESTING.sol\":6582:6587  break */\n      jump(tag_219)\n        /* \"contracts/ENS6TESTING.sol\":6316:6602  if (... */\n    tag_227:\n        /* \"contracts/ENS6TESTING.sol\":6297:6300  i++ */\n      dup1\n      dup1\n      tag_243\n      swap1\n      tag_216\n      jump\t// in\n    tag_243:\n      swap2\n      pop\n      pop\n        /* \"contracts/ENS6TESTING.sol\":6252:6612  for (uint256 i = 0; i < ownerDomains.length; i++) {... */\n      jump(tag_218)\n    tag_219:\n      pop\n        /* \"contracts/ENS6TESTING.sol\":6171:6618  {... */\n      pop\n        /* \"contracts/ENS6TESTING.sol\":6061:6618  function _removeDomainFromOwner(... */\n      pop\n      pop\n      jump\t// out\n        /* \"contracts/ENS6TESTING.sol\":1470:1964  function toLowerCase(string memory str)... */\n    tag_145:\n        /* \"contracts/ENS6TESTING.sol\":1557:1570  string memory */\n      0x60\n        /* \"contracts/ENS6TESTING.sol\":1586:1603  bytes memory bStr */\n      0x00\n        /* \"contracts/ENS6TESTING.sol\":1612:1615  str */\n      dup3\n        /* \"contracts/ENS6TESTING.sol\":1586:1616  bytes memory bStr = bytes(str) */\n      swap1\n      pop\n        /* \"contracts/ENS6TESTING.sol\":1626:1645  bytes memory bLower */\n      0x00\n        /* \"contracts/ENS6TESTING.sol\":1658:1662  bStr */\n      dup2\n        /* \"contracts/ENS6TESTING.sol\":1658:1669  bStr.length */\n      mload\n        /* \"contracts/ENS6TESTING.sol\":1648:1670  new bytes(bStr.length) */\n      0xffffffffffffffff\n      dup2\n      gt\n      iszero\n      tag_245\n      jumpi\n      tag_246\n      tag_205\n      jump\t// in\n    tag_246:\n    tag_245:\n      mload(0x40)\n      swap1\n      dup1\n      dup3\n      mstore\n      dup1\n      0x1f\n      add\n      not(0x1f)\n      and\n      0x20\n      add\n      dup3\n      add\n      0x40\n      mstore\n      dup1\n      iszero\n      tag_247\n      jumpi\n      dup2\n      0x20\n      add\n      0x01\n      dup3\n      mul\n      dup1\n      calldatasize\n      dup4\n      calldatacopy\n      dup1\n      dup3\n      add\n      swap2\n      pop\n      pop\n      swap1\n      pop\n    tag_247:\n      pop\n        /* \"contracts/ENS6TESTING.sol\":1626:1670  bytes memory bLower = new bytes(bStr.length) */\n      swap1\n      pop\n        /* \"contracts/ENS6TESTING.sol\":1686:1695  uint256 i */\n      0x00\n        /* \"contracts/ENS6TESTING.sol\":1681:1927  for (uint256 i = 0; i < bStr.length; i++) {... */\n    tag_248:\n        /* \"contracts/ENS6TESTING.sol\":1705:1709  bStr */\n      dup3\n        /* \"contracts/ENS6TESTING.sol\":1705:1716  bStr.length */\n      mload\n        /* \"contracts/ENS6TESTING.sol\":1701:1702  i */\n      dup2\n        /* \"contracts/ENS6TESTING.sol\":1701:1716  i < bStr.length */\n      lt\n        /* \"contracts/ENS6TESTING.sol\":1681:1927  for (uint256 i = 0; i < bStr.length; i++) {... */\n      iszero\n      tag_249\n      jumpi\n        /* \"contracts/ENS6TESTING.sol\":1759:1761  65 */\n      0x41\n        /* \"contracts/ENS6TESTING.sol\":1747:1751  bStr */\n      dup4\n        /* \"contracts/ENS6TESTING.sol\":1752:1753  i */\n      dup3\n        /* \"contracts/ENS6TESTING.sol\":1747:1754  bStr[i] */\n      dup2\n      mload\n      dup2\n      lt\n      tag_251\n      jumpi\n      tag_252\n      tag_195\n      jump\t// in\n    tag_252:\n    tag_251:\n      0x20\n      add\n      add\n      mload\n      0xf8\n      shr\n      0xf8\n      shl\n        /* \"contracts/ENS6TESTING.sol\":1741:1755  uint8(bStr[i]) */\n      0xf8\n      shr\n        /* \"contracts/ENS6TESTING.sol\":1741:1761  uint8(bStr[i]) >= 65 */\n      0xff\n      and\n      lt\n      iszero\n        /* \"contracts/ENS6TESTING.sol\":1741:1785  uint8(bStr[i]) >= 65 && uint8(bStr[i]) <= 90 */\n      dup1\n      iszero\n      tag_253\n      jumpi\n      pop\n        /* \"contracts/ENS6TESTING.sol\":1783:1785  90 */\n      0x5a\n        /* \"contracts/ENS6TESTING.sol\":1771:1775  bStr */\n      dup4\n        /* \"contracts/ENS6TESTING.sol\":1776:1777  i */\n      dup3\n        /* \"contracts/ENS6TESTING.sol\":1771:1778  bStr[i] */\n      dup2\n      mload\n      dup2\n      lt\n      tag_254\n      jumpi\n      tag_255\n      tag_195\n      jump\t// in\n    tag_255:\n    tag_254:\n      0x20\n      add\n      add\n      mload\n      0xf8\n      shr\n      0xf8\n      shl\n        /* \"contracts/ENS6TESTING.sol\":1765:1779  uint8(bStr[i]) */\n      0xf8\n      shr\n        /* \"contracts/ENS6TESTING.sol\":1765:1785  uint8(bStr[i]) <= 90 */\n      0xff\n      and\n      gt\n      iszero\n        /* \"contracts/ENS6TESTING.sol\":1741:1785  uint8(bStr[i]) >= 65 && uint8(bStr[i]) <= 90 */\n    tag_253:\n        /* \"contracts/ENS6TESTING.sol\":1737:1917  if (uint8(bStr[i]) >= 65 && uint8(bStr[i]) <= 90) {... */\n      iszero\n      tag_256\n      jumpi\n        /* \"contracts/ENS6TESTING.sol\":1841:1843  32 */\n      0x20\n        /* \"contracts/ENS6TESTING.sol\":1830:1834  bStr */\n      dup4\n        /* \"contracts/ENS6TESTING.sol\":1835:1836  i */\n      dup3\n        /* \"contracts/ENS6TESTING.sol\":1830:1837  bStr[i] */\n      dup2\n      mload\n      dup2\n      lt\n      tag_257\n      jumpi\n      tag_258\n      tag_195\n      jump\t// in\n    tag_258:\n    tag_257:\n      0x20\n      add\n      add\n      mload\n      0xf8\n      shr\n      0xf8\n      shl\n        /* \"contracts/ENS6TESTING.sol\":1824:1838  uint8(bStr[i]) */\n      0xf8\n      shr\n        /* \"contracts/ENS6TESTING.sol\":1824:1843  uint8(bStr[i]) + 32 */\n      tag_259\n      swap2\n      swap1\n      tag_260\n      jump\t// in\n    tag_259:\n        /* \"contracts/ENS6TESTING.sol\":1817:1844  bytes1(uint8(bStr[i]) + 32) */\n      0xf8\n      shl\n        /* \"contracts/ENS6TESTING.sol\":1805:1811  bLower */\n      dup3\n        /* \"contracts/ENS6TESTING.sol\":1812:1813  i */\n      dup3\n        /* \"contracts/ENS6TESTING.sol\":1805:1814  bLower[i] */\n      dup2\n      mload\n      dup2\n      lt\n      tag_261\n      jumpi\n      tag_262\n      tag_195\n      jump\t// in\n    tag_262:\n    tag_261:\n      0x20\n      add\n      add\n        /* \"contracts/ENS6TESTING.sol\":1805:1844  bLower[i] = bytes1(uint8(bStr[i]) + 32) */\n      swap1\n      not(0xffffffffffffffffffffffffffffffffffffffffffffffffffffffffffffff)\n      and\n      swap1\n      dup2\n      0x00\n      byte\n      swap1\n      mstore8\n      pop\n        /* \"contracts/ENS6TESTING.sol\":1737:1917  if (uint8(bStr[i]) >= 65 && uint8(bStr[i]) <= 90) {... */\n      jump(tag_263)\n    tag_256:\n        /* \"contracts/ENS6TESTING.sol\":1895:1899  bStr */\n      dup3\n        /* \"contracts/ENS6TESTING.sol\":1900:1901  i */\n      dup2\n        /* \"contracts/ENS6TESTING.sol\":1895:1902  bStr[i] */\n      dup2\n      mload\n      dup2\n      lt\n      tag_264\n      jumpi\n      tag_265\n      tag_195\n      jump\t// in\n    tag_265:\n    tag_264:\n      0x20\n      add\n      add\n      mload\n      0xf8\n      shr\n      0xf8\n      shl\n        /* \"contracts/ENS6TESTING.sol\":1883:1889  bLower */\n      dup3\n        /* \"contracts/ENS6TESTING.sol\":1890:1891  i */\n      dup3\n        /* \"contracts/ENS6TESTING.sol\":1883:1892  bLower[i] */\n      dup2\n      mload\n      dup2\n      lt\n      tag_266\n      jumpi\n      tag_267\n      tag_195\n      jump\t// in\n    tag_267:\n    tag_266:\n      0x20\n      add\n      add\n        /* \"contracts/ENS6TESTING.sol\":1883:1902  bLower[i] = bStr[i] */\n      swap1\n      not(0xffffffffffffffffffffffffffffffffffffffffffffffffffffffffffffff)\n      and\n      swap1\n      dup2\n      0x00\n      byte\n      swap1\n      mstore8\n      pop\n        /* \"contracts/ENS6TESTING.sol\":1737:1917  if (uint8(bStr[i]) >= 65 && uint8(bStr[i]) <= 90) {... */\n    tag_263:\n        /* \"contracts/ENS6TESTING.sol\":1718:1721  i++ */\n      dup1\n      dup1\n      tag_268\n      swap1\n      tag_216\n      jump\t// in\n    tag_268:\n      swap2\n      pop\n      pop\n        /* \"contracts/ENS6TESTING.sol\":1681:1927  for (uint256 i = 0; i < bStr.length; i++) {... */\n      jump(tag_248)\n    tag_249:\n      pop\n        /* \"contracts/ENS6TESTING.sol\":1950:1956  bLower */\n      dup1\n        /* \"contracts/ENS6TESTING.sol\":1936:1957  return string(bLower) */\n      swap3\n      pop\n      pop\n      pop\n        /* \"contracts/ENS6TESTING.sol\":1470:1964  function toLowerCase(string memory str)... */\n      swap2\n      swap1\n      pop\n      jump\t// out\n    tag_242:\n      pop\n      dup1\n      sload\n      tag_269\n      swap1\n      tag_183\n      jump\t// in\n    tag_269:\n      0x00\n      dup3\n      sstore\n      dup1\n      0x1f\n      lt\n      tag_271\n      jumpi\n      pop\n      jump(tag_270)\n    tag_271:\n      0x1f\n      add\n      0x20\n      swap1\n      div\n      swap1\n      0x00\n      mstore\n      keccak256(0x00, 0x20)\n      swap1\n      dup2\n      add\n      swap1\n      tag_272\n      swap2\n      swap1\n      tag_273\n      jump\t// in\n    tag_272:\n    tag_270:\n      pop\n      jump\t// out\n    tag_273:\n    tag_274:\n      dup1\n      dup3\n      gt\n      iszero\n      tag_275\n      jumpi\n      0x00\n      dup2\n      0x00\n      swap1\n      sstore\n      pop\n      0x01\n      add\n      jump(tag_274)\n    tag_275:\n      pop\n      swap1\n      jump\t// out\n        /* \"#utility.yul\":7:82   */\n    tag_276:\n        /* \"#utility.yul\":40:46   */\n      0x00\n        /* \"#utility.yul\":73:75   */\n      0x40\n        /* \"#utility.yul\":67:76   */\n      mload\n        /* \"#utility.yul\":57:76   */\n      swap1\n      pop\n        /* \"#utility.yul\":7:82   */\n      swap1\n      jump\t// out\n        /* \"#utility.yul\":88:205   */\n    tag_277:\n        /* \"#utility.yul\":197:198   */\n      0x00\n        /* \"#utility.yul\":194:195   */\n      dup1\n        /* \"#utility.yul\":187:199   */\n      revert\n        /* \"#utility.yul\":211:328   */\n    tag_278:\n        /* \"#utility.yul\":320:321   */\n      0x00\n        /* \"#utility.yul\":317:318   */\n      dup1\n        /* \"#utility.yul\":310:322   */\n      revert\n        /* \"#utility.yul\":334:451   */\n    tag_279:\n        /* \"#utility.yul\":443:444   */\n      0x00\n        /* \"#utility.yul\":440:441   */\n      dup1\n        /* \"#utility.yul\":433:445   */\n      revert\n        /* \"#utility.yul\":457:574   */\n    tag_280:\n        /* \"#utility.yul\":566:567   */\n      0x00\n        /* \"#utility.yul\":563:564   */\n      dup1\n        /* \"#utility.yul\":556:568   */\n      revert\n        /* \"#utility.yul\":580:682   */\n    tag_281:\n        /* \"#utility.yul\":621:627   */\n      0x00\n        /* \"#utility.yul\":672:674   */\n      0x1f\n        /* \"#utility.yul\":668:675   */\n      not\n        /* \"#utility.yul\":663:665   */\n      0x1f\n        /* \"#utility.yul\":656:661   */\n      dup4\n        /* \"#utility.yul\":652:666   */\n      add\n        /* \"#utility.yul\":648:676   */\n      and\n        /* \"#utility.yul\":638:676   */\n      swap1\n      pop\n        /* \"#utility.yul\":580:682   */\n      swap2\n      swap1\n      pop\n      jump\t// out\n        /* \"#utility.yul\":688:868   */\n    tag_205:\n        /* \"#utility.yul\":736:813   */\n      0x4e487b7100000000000000000000000000000000000000000000000000000000\n        /* \"#utility.yul\":733:734   */\n      0x00\n        /* \"#utility.yul\":726:814   */\n      mstore\n        /* \"#utility.yul\":833:837   */\n      0x41\n        /* \"#utility.yul\":830:831   */\n      0x04\n        /* \"#utility.yul\":823:838   */\n      mstore\n        /* \"#utility.yul\":857:861   */\n      0x24\n        /* \"#utility.yul\":854:855   */\n      0x00\n        /* \"#utility.yul\":847:862   */\n      revert\n        /* \"#utility.yul\":874:1155   */\n    tag_282:\n        /* \"#utility.yul\":957:984   */\n      tag_367\n        /* \"#utility.yul\":979:983   */\n      dup3\n        /* \"#utility.yul\":957:984   */\n      tag_281\n      jump\t// in\n    tag_367:\n        /* \"#utility.yul\":949:955   */\n      dup2\n        /* \"#utility.yul\":945:985   */\n      add\n        /* \"#utility.yul\":1087:1093   */\n      dup2\n        /* \"#utility.yul\":1075:1085   */\n      dup2\n        /* \"#utility.yul\":1072:1094   */\n      lt\n        /* \"#utility.yul\":1051:1069   */\n      0xffffffffffffffff\n        /* \"#utility.yul\":1039:1049   */\n      dup3\n        /* \"#utility.yul\":1036:1070   */\n      gt\n        /* \"#utility.yul\":1033:1095   */\n      or\n        /* \"#utility.yul\":1030:1118   */\n      iszero\n      tag_368\n      jumpi\n        /* \"#utility.yul\":1098:1116   */\n      tag_369\n      tag_205\n      jump\t// in\n    tag_369:\n        /* \"#utility.yul\":1030:1118   */\n    tag_368:\n        /* \"#utility.yul\":1138:1148   */\n      dup1\n        /* \"#utility.yul\":1134:1136   */\n      0x40\n        /* \"#utility.yul\":1127:1149   */\n      mstore\n        /* \"#utility.yul\":917:1155   */\n      pop\n        /* \"#utility.yul\":874:1155   */\n      pop\n      pop\n      jump\t// out\n        /* \"#utility.yul\":1161:1290   */\n    tag_283:\n        /* \"#utility.yul\":1195:1201   */\n      0x00\n        /* \"#utility.yul\":1222:1242   */\n      tag_371\n      tag_276\n      jump\t// in\n    tag_371:\n        /* \"#utility.yul\":1212:1242   */\n      swap1\n      pop\n        /* \"#utility.yul\":1251:1284   */\n      tag_372\n        /* \"#utility.yul\":1279:1283   */\n      dup3\n        /* \"#utility.yul\":1271:1277   */\n      dup3\n        /* \"#utility.yul\":1251:1284   */\n      tag_282\n      jump\t// in\n    tag_372:\n        /* \"#utility.yul\":1161:1290   */\n      swap2\n      swap1\n      pop\n      jump\t// out\n        /* \"#utility.yul\":1296:1604   */\n    tag_284:\n        /* \"#utility.yul\":1358:1362   */\n      0x00\n        /* \"#utility.yul\":1448:1466   */\n      0xffffffffffffffff\n        /* \"#utility.yul\":1440:1446   */\n      dup3\n        /* \"#utility.yul\":1437:1467   */\n      gt\n        /* \"#utility.yul\":1434:1490   */\n      iszero\n      tag_374\n      jumpi\n        /* \"#utility.yul\":1470:1488   */\n      tag_375\n      tag_205\n      jump\t// in\n    tag_375:\n        /* \"#utility.yul\":1434:1490   */\n    tag_374:\n        /* \"#utility.yul\":1508:1537   */\n      tag_376\n        /* \"#utility.yul\":1530:1536   */\n      dup3\n        /* \"#utility.yul\":1508:1537   */\n      tag_281\n      jump\t// in\n    tag_376:\n        /* \"#utility.yul\":1500:1537   */\n      swap1\n      pop\n        /* \"#utility.yul\":1592:1596   */\n      0x20\n        /* \"#utility.yul\":1586:1590   */\n      dup2\n        /* \"#utility.yul\":1582:1597   */\n      add\n        /* \"#utility.yul\":1574:1597   */\n      swap1\n      pop\n        /* \"#utility.yul\":1296:1604   */\n      swap2\n      swap1\n      pop\n      jump\t// out\n        /* \"#utility.yul\":1610:1756   */\n    tag_285:\n        /* \"#utility.yul\":1707:1713   */\n      dup3\n        /* \"#utility.yul\":1702:1705   */\n      dup2\n        /* \"#utility.yul\":1697:1700   */\n      dup4\n        /* \"#utility.yul\":1684:1714   */\n      calldatacopy\n        /* \"#utility.yul\":1748:1749   */\n      0x00\n        /* \"#utility.yul\":1739:1745   */\n      dup4\n        /* \"#utility.yul\":1734:1737   */\n      dup4\n        /* \"#utility.yul\":1730:1746   */\n      add\n        /* \"#utility.yul\":1723:1750   */\n      mstore\n        /* \"#utility.yul\":1610:1756   */\n      pop\n      pop\n      pop\n      jump\t// out\n        /* \"#utility.yul\":1762:2187   */\n    tag_286:\n        /* \"#utility.yul\":1840:1845   */\n      0x00\n        /* \"#utility.yul\":1865:1931   */\n      tag_379\n        /* \"#utility.yul\":1881:1930   */\n      tag_380\n        /* \"#utility.yul\":1923:1929   */\n      dup5\n        /* \"#utility.yul\":1881:1930   */\n      tag_284\n      jump\t// in\n    tag_380:\n        /* \"#utility.yul\":1865:1931   */\n      tag_283\n      jump\t// in\n    tag_379:\n        /* \"#utility.yul\":1856:1931   */\n      swap1\n      pop\n        /* \"#utility.yul\":1954:1960   */\n      dup3\n        /* \"#utility.yul\":1947:1952   */\n      dup2\n        /* \"#utility.yul\":1940:1961   */\n      mstore\n        /* \"#utility.yul\":1992:1996   */\n      0x20\n        /* \"#utility.yul\":1985:1990   */\n      dup2\n        /* \"#utility.yul\":1981:1997   */\n      add\n        /* \"#utility.yul\":2030:2033   */\n      dup5\n        /* \"#utility.yul\":2021:2027   */\n      dup5\n        /* \"#utility.yul\":2016:2019   */\n      dup5\n        /* \"#utility.yul\":2012:2028   */\n      add\n        /* \"#utility.yul\":2009:2034   */\n      gt\n        /* \"#utility.yul\":2006:2118   */\n      iszero\n      tag_381\n      jumpi\n        /* \"#utility.yul\":2037:2116   */\n      tag_382\n      tag_280\n      jump\t// in\n    tag_382:\n        /* \"#utility.yul\":2006:2118   */\n    tag_381:\n        /* \"#utility.yul\":2127:2181   */\n      tag_383\n        /* \"#utility.yul\":2174:2180   */\n      dup5\n        /* \"#utility.yul\":2169:2172   */\n      dup3\n        /* \"#utility.yul\":2164:2167   */\n      dup6\n        /* \"#utility.yul\":2127:2181   */\n      tag_285\n      jump\t// in\n    tag_383:\n        /* \"#utility.yul\":1846:2187   */\n      pop\n        /* \"#utility.yul\":1762:2187   */\n      swap4\n      swap3\n      pop\n      pop\n      pop\n      jump\t// out\n        /* \"#utility.yul\":2207:2547   */\n    tag_287:\n        /* \"#utility.yul\":2263:2268   */\n      0x00\n        /* \"#utility.yul\":2312:2315   */\n      dup3\n        /* \"#utility.yul\":2305:2309   */\n      0x1f\n        /* \"#utility.yul\":2297:2303   */\n      dup4\n        /* \"#utility.yul\":2293:2310   */\n      add\n        /* \"#utility.yul\":2289:2316   */\n      slt\n        /* \"#utility.yul\":2279:2401   */\n      tag_385\n      jumpi\n        /* \"#utility.yul\":2320:2399   */\n      tag_386\n      tag_279\n      jump\t// in\n    tag_386:\n        /* \"#utility.yul\":2279:2401   */\n    tag_385:\n        /* \"#utility.yul\":2437:2443   */\n      dup2\n        /* \"#utility.yul\":2424:2444   */\n      calldataload\n        /* \"#utility.yul\":2462:2541   */\n      tag_387\n        /* \"#utility.yul\":2537:2540   */\n      dup5\n        /* \"#utility.yul\":2529:2535   */\n      dup3\n        /* \"#utility.yul\":2522:2526   */\n      0x20\n        /* \"#utility.yul\":2514:2520   */\n      dup7\n        /* \"#utility.yul\":2510:2527   */\n      add\n        /* \"#utility.yul\":2462:2541   */\n      tag_286\n      jump\t// in\n    tag_387:\n        /* \"#utility.yul\":2453:2541   */\n      swap2\n      pop\n        /* \"#utility.yul\":2269:2547   */\n      pop\n        /* \"#utility.yul\":2207:2547   */\n      swap3\n      swap2\n      pop\n      pop\n      jump\t// out\n        /* \"#utility.yul\":2553:3062   */\n    tag_16:\n        /* \"#utility.yul\":2622:2628   */\n      0x00\n        /* \"#utility.yul\":2671:2673   */\n      0x20\n        /* \"#utility.yul\":2659:2668   */\n      dup3\n        /* \"#utility.yul\":2650:2657   */\n      dup5\n        /* \"#utility.yul\":2646:2669   */\n      sub\n        /* \"#utility.yul\":2642:2674   */\n      slt\n        /* \"#utility.yul\":2639:2758   */\n      iszero\n      tag_389\n      jumpi\n        /* \"#utility.yul\":2677:2756   */\n      tag_390\n      tag_277\n      jump\t// in\n    tag_390:\n        /* \"#utility.yul\":2639:2758   */\n    tag_389:\n        /* \"#utility.yul\":2825:2826   */\n      0x00\n        /* \"#utility.yul\":2814:2823   */\n      dup3\n        /* \"#utility.yul\":2810:2827   */\n      add\n        /* \"#utility.yul\":2797:2828   */\n      calldataload\n        /* \"#utility.yul\":2855:2873   */\n      0xffffffffffffffff\n        /* \"#utility.yul\":2847:2853   */\n      dup2\n        /* \"#utility.yul\":2844:2874   */\n      gt\n        /* \"#utility.yul\":2841:2958   */\n      iszero\n      tag_391\n      jumpi\n        /* \"#utility.yul\":2877:2956   */\n      tag_392\n      tag_278\n      jump\t// in\n    tag_392:\n        /* \"#utility.yul\":2841:2958   */\n    tag_391:\n        /* \"#utility.yul\":2982:3045   */\n      tag_393\n        /* \"#utility.yul\":3037:3044   */\n      dup5\n        /* \"#utility.yul\":3028:3034   */\n      dup3\n        /* \"#utility.yul\":3017:3026   */\n      dup6\n        /* \"#utility.yul\":3013:3035   */\n      add\n        /* \"#utility.yul\":2982:3045   */\n      tag_287\n      jump\t// in\n    tag_393:\n        /* \"#utility.yul\":2972:3045   */\n      swap2\n      pop\n        /* \"#utility.yul\":2768:3055   */\n      pop\n        /* \"#utility.yul\":2553:3062   */\n      swap3\n      swap2\n      pop\n      pop\n      jump\t// out\n        /* \"#utility.yul\":3068:3145   */\n    tag_288:\n        /* \"#utility.yul\":3105:3112   */\n      0x00\n        /* \"#utility.yul\":3134:3139   */\n      dup2\n        /* \"#utility.yul\":3123:3139   */\n      swap1\n      pop\n        /* \"#utility.yul\":3068:3145   */\n      swap2\n      swap1\n      pop\n      jump\t// out\n        /* \"#utility.yul\":3151:3269   */\n    tag_289:\n        /* \"#utility.yul\":3238:3262   */\n      tag_396\n        /* \"#utility.yul\":3256:3261   */\n      dup2\n        /* \"#utility.yul\":3238:3262   */\n      tag_288\n      jump\t// in\n    tag_396:\n        /* \"#utility.yul\":3233:3236   */\n      dup3\n        /* \"#utility.yul\":3226:3263   */\n      mstore\n        /* \"#utility.yul\":3151:3269   */\n      pop\n      pop\n      jump\t// out\n        /* \"#utility.yul\":3275:3497   */\n    tag_19:\n        /* \"#utility.yul\":3368:3372   */\n      0x00\n        /* \"#utility.yul\":3406:3408   */\n      0x20\n        /* \"#utility.yul\":3395:3404   */\n      dup3\n        /* \"#utility.yul\":3391:3409   */\n      add\n        /* \"#utility.yul\":3383:3409   */\n      swap1\n      pop\n        /* \"#utility.yul\":3419:3490   */\n      tag_398\n        /* \"#utility.yul\":3487:3488   */\n      0x00\n        /* \"#utility.yul\":3476:3485   */\n      dup4\n        /* \"#utility.yul\":3472:3489   */\n      add\n        /* \"#utility.yul\":3463:3469   */\n      dup5\n        /* \"#utility.yul\":3419:3490   */\n      tag_289\n      jump\t// in\n    tag_398:\n        /* \"#utility.yul\":3275:3497   */\n      swap3\n      swap2\n      pop\n      pop\n      jump\t// out\n        /* \"#utility.yul\":3503:3620   */\n    tag_290:\n        /* \"#utility.yul\":3612:3613   */\n      0x00\n        /* \"#utility.yul\":3609:3610   */\n      dup1\n        /* \"#utility.yul\":3602:3614   */\n      revert\n        /* \"#utility.yul\":3626:3743   */\n    tag_291:\n        /* \"#utility.yul\":3735:3736   */\n      0x00\n        /* \"#utility.yul\":3732:3733   */\n      dup1\n        /* \"#utility.yul\":3725:3737   */\n      revert\n        /* \"#utility.yul\":3763:4316   */\n    tag_292:\n        /* \"#utility.yul\":3821:3829   */\n      0x00\n        /* \"#utility.yul\":3831:3837   */\n      dup1\n        /* \"#utility.yul\":3881:3884   */\n      dup4\n        /* \"#utility.yul\":3874:3878   */\n      0x1f\n        /* \"#utility.yul\":3866:3872   */\n      dup5\n        /* \"#utility.yul\":3862:3879   */\n      add\n        /* \"#utility.yul\":3858:3885   */\n      slt\n        /* \"#utility.yul\":3848:3970   */\n      tag_402\n      jumpi\n        /* \"#utility.yul\":3889:3968   */\n      tag_403\n      tag_279\n      jump\t// in\n    tag_403:\n        /* \"#utility.yul\":3848:3970   */\n    tag_402:\n        /* \"#utility.yul\":4002:4008   */\n      dup3\n        /* \"#utility.yul\":3989:4009   */\n      calldataload\n        /* \"#utility.yul\":3979:4009   */\n      swap1\n      pop\n        /* \"#utility.yul\":4032:4050   */\n      0xffffffffffffffff\n        /* \"#utility.yul\":4024:4030   */\n      dup2\n        /* \"#utility.yul\":4021:4051   */\n      gt\n        /* \"#utility.yul\":4018:4135   */\n      iszero\n      tag_404\n      jumpi\n        /* \"#utility.yul\":4054:4133   */\n      tag_405\n      tag_290\n      jump\t// in\n    tag_405:\n        /* \"#utility.yul\":4018:4135   */\n    tag_404:\n        /* \"#utility.yul\":4168:4172   */\n      0x20\n        /* \"#utility.yul\":4160:4166   */\n      dup4\n        /* \"#utility.yul\":4156:4173   */\n      add\n        /* \"#utility.yul\":4144:4173   */\n      swap2\n      pop\n        /* \"#utility.yul\":4222:4225   */\n      dup4\n        /* \"#utility.yul\":4214:4218   */\n      0x01\n        /* \"#utility.yul\":4206:4212   */\n      dup3\n        /* \"#utility.yul\":4202:4219   */\n      mul\n        /* \"#utility.yul\":4192:4200   */\n      dup4\n        /* \"#utility.yul\":4188:4220   */\n      add\n        /* \"#utility.yul\":4185:4226   */\n      gt\n        /* \"#utility.yul\":4182:4310   */\n      iszero\n      tag_406\n      jumpi\n        /* \"#utility.yul\":4229:4308   */\n      tag_407\n      tag_291\n      jump\t// in\n    tag_407:\n        /* \"#utility.yul\":4182:4310   */\n    tag_406:\n        /* \"#utility.yul\":3763:4316   */\n      swap3\n      pop\n      swap3\n      swap1\n      pop\n      jump\t// out\n        /* \"#utility.yul\":4322:4444   */\n    tag_293:\n        /* \"#utility.yul\":4395:4419   */\n      tag_409\n        /* \"#utility.yul\":4413:4418   */\n      dup2\n        /* \"#utility.yul\":4395:4419   */\n      tag_288\n      jump\t// in\n    tag_409:\n        /* \"#utility.yul\":4388:4393   */\n      dup2\n        /* \"#utility.yul\":4385:4420   */\n      eq\n        /* \"#utility.yul\":4375:4438   */\n      tag_410\n      jumpi\n        /* \"#utility.yul\":4434:4435   */\n      0x00\n        /* \"#utility.yul\":4431:4432   */\n      dup1\n        /* \"#utility.yul\":4424:4436   */\n      revert\n        /* \"#utility.yul\":4375:4438   */\n    tag_410:\n        /* \"#utility.yul\":4322:4444   */\n      pop\n      jump\t// out\n        /* \"#utility.yul\":4450:4589   */\n    tag_294:\n        /* \"#utility.yul\":4496:4501   */\n      0x00\n        /* \"#utility.yul\":4534:4540   */\n      dup2\n        /* \"#utility.yul\":4521:4541   */\n      calldataload\n        /* \"#utility.yul\":4512:4541   */\n      swap1\n      pop\n        /* \"#utility.yul\":4550:4583   */\n      tag_412\n        /* \"#utility.yul\":4577:4582   */\n      dup2\n        /* \"#utility.yul\":4550:4583   */\n      tag_293\n      jump\t// in\n    tag_412:\n        /* \"#utility.yul\":4450:4589   */\n      swap3\n      swap2\n      pop\n      pop\n      jump\t// out\n        /* \"#utility.yul\":4595:5269   */\n    tag_22:\n        /* \"#utility.yul\":4675:4681   */\n      0x00\n        /* \"#utility.yul\":4683:4689   */\n      dup1\n        /* \"#utility.yul\":4691:4697   */\n      0x00\n        /* \"#utility.yul\":4740:4742   */\n      0x40\n        /* \"#utility.yul\":4728:4737   */\n      dup5\n        /* \"#utility.yul\":4719:4726   */\n      dup7\n        /* \"#utility.yul\":4715:4738   */\n      sub\n        /* \"#utility.yul\":4711:4743   */\n      slt\n        /* \"#utility.yul\":4708:4827   */\n      iszero\n      tag_414\n      jumpi\n        /* \"#utility.yul\":4746:4825   */\n      tag_415\n      tag_277\n      jump\t// in\n    tag_415:\n        /* \"#utility.yul\":4708:4827   */\n    tag_414:\n        /* \"#utility.yul\":4894:4895   */\n      0x00\n        /* \"#utility.yul\":4883:4892   */\n      dup5\n        /* \"#utility.yul\":4879:4896   */\n      add\n        /* \"#utility.yul\":4866:4897   */\n      calldataload\n        /* \"#utility.yul\":4924:4942   */\n      0xffffffffffffffff\n        /* \"#utility.yul\":4916:4922   */\n      dup2\n        /* \"#utility.yul\":4913:4943   */\n      gt\n        /* \"#utility.yul\":4910:5027   */\n      iszero\n      tag_416\n      jumpi\n        /* \"#utility.yul\":4946:5025   */\n      tag_417\n      tag_278\n      jump\t// in\n    tag_417:\n        /* \"#utility.yul\":4910:5027   */\n    tag_416:\n        /* \"#utility.yul\":5059:5124   */\n      tag_418\n        /* \"#utility.yul\":5116:5123   */\n      dup7\n        /* \"#utility.yul\":5107:5113   */\n      dup3\n        /* \"#utility.yul\":5096:5105   */\n      dup8\n        /* \"#utility.yul\":5092:5114   */\n      add\n        /* \"#utility.yul\":5059:5124   */\n      tag_292\n      jump\t// in\n    tag_418:\n        /* \"#utility.yul\":5041:5124   */\n      swap4\n      pop\n      swap4\n      pop\n        /* \"#utility.yul\":4837:5134   */\n      pop\n        /* \"#utility.yul\":5173:5175   */\n      0x20\n        /* \"#utility.yul\":5199:5252   */\n      tag_419\n        /* \"#utility.yul\":5244:5251   */\n      dup7\n        /* \"#utility.yul\":5235:5241   */\n      dup3\n        /* \"#utility.yul\":5224:5233   */\n      dup8\n        /* \"#utility.yul\":5220:5242   */\n      add\n        /* \"#utility.yul\":5199:5252   */\n      tag_294\n      jump\t// in\n    tag_419:\n        /* \"#utility.yul\":5189:5252   */\n      swap2\n      pop\n        /* \"#utility.yul\":5144:5262   */\n      pop\n        /* \"#utility.yul\":4595:5269   */\n      swap3\n      pop\n      swap3\n      pop\n      swap3\n      jump\t// out\n        /* \"#utility.yul\":5275:5804   */\n    tag_27:\n        /* \"#utility.yul\":5346:5352   */\n      0x00\n        /* \"#utility.yul\":5354:5360   */\n      dup1\n        /* \"#utility.yul\":5403:5405   */\n      0x20\n        /* \"#utility.yul\":5391:5400   */\n      dup4\n        /* \"#utility.yul\":5382:5389   */\n      dup6\n        /* \"#utility.yul\":5378:5401   */\n      sub\n        /* \"#utility.yul\":5374:5406   */\n      slt\n        /* \"#utility.yul\":5371:5490   */\n      iszero\n      tag_421\n      jumpi\n        /* \"#utility.yul\":5409:5488   */\n      tag_422\n      tag_277\n      jump\t// in\n    tag_422:\n        /* \"#utility.yul\":5371:5490   */\n    tag_421:\n        /* \"#utility.yul\":5557:5558   */\n      0x00\n        /* \"#utility.yul\":5546:5555   */\n      dup4\n        /* \"#utility.yul\":5542:5559   */\n      add\n        /* \"#utility.yul\":5529:5560   */\n      calldataload\n        /* \"#utility.yul\":5587:5605   */\n      0xffffffffffffffff\n        /* \"#utility.yul\":5579:5585   */\n      dup2\n        /* \"#utility.yul\":5576:5606   */\n      gt\n        /* \"#utility.yul\":5573:5690   */\n      iszero\n      tag_423\n      jumpi\n        /* \"#utility.yul\":5609:5688   */\n      tag_424\n      tag_278\n      jump\t// in\n    tag_424:\n        /* \"#utility.yul\":5573:5690   */\n    tag_423:\n        /* \"#utility.yul\":5722:5787   */\n      tag_425\n        /* \"#utility.yul\":5779:5786   */\n      dup6\n        /* \"#utility.yul\":5770:5776   */\n      dup3\n        /* \"#utility.yul\":5759:5768   */\n      dup7\n        /* \"#utility.yul\":5755:5777   */\n      add\n        /* \"#utility.yul\":5722:5787   */\n      tag_292\n      jump\t// in\n    tag_425:\n        /* \"#utility.yul\":5704:5787   */\n      swap3\n      pop\n      swap3\n      pop\n        /* \"#utility.yul\":5500:5797   */\n      pop\n        /* \"#utility.yul\":5275:5804   */\n      swap3\n      pop\n      swap3\n      swap1\n      pop\n      jump\t// out\n        /* \"#utility.yul\":5810:5900   */\n    tag_295:\n        /* \"#utility.yul\":5844:5851   */\n      0x00\n        /* \"#utility.yul\":5887:5892   */\n      dup2\n        /* \"#utility.yul\":5880:5893   */\n      iszero\n        /* \"#utility.yul\":5873:5894   */\n      iszero\n        /* \"#utility.yul\":5862:5894   */\n      swap1\n      pop\n        /* \"#utility.yul\":5810:5900   */\n      swap2\n      swap1\n      pop\n      jump\t// out\n        /* \"#utility.yul\":5906:6015   */\n    tag_296:\n        /* \"#utility.yul\":5987:6008   */\n      tag_428\n        /* \"#utility.yul\":6002:6007   */\n      dup2\n        /* \"#utility.yul\":5987:6008   */\n      tag_295\n      jump\t// in\n    tag_428:\n        /* \"#utility.yul\":5982:5985   */\n      dup3\n        /* \"#utility.yul\":5975:6009   */\n      mstore\n        /* \"#utility.yul\":5906:6015   */\n      pop\n      pop\n      jump\t// out\n        /* \"#utility.yul\":6021:6231   */\n    tag_30:\n        /* \"#utility.yul\":6108:6112   */\n      0x00\n        /* \"#utility.yul\":6146:6148   */\n      0x20\n        /* \"#utility.yul\":6135:6144   */\n      dup3\n        /* \"#utility.yul\":6131:6149   */\n      add\n        /* \"#utility.yul\":6123:6149   */\n      swap1\n      pop\n        /* \"#utility.yul\":6159:6224   */\n      tag_430\n        /* \"#utility.yul\":6221:6222   */\n      0x00\n        /* \"#utility.yul\":6210:6219   */\n      dup4\n        /* \"#utility.yul\":6206:6223   */\n      add\n        /* \"#utility.yul\":6197:6203   */\n      dup5\n        /* \"#utility.yul\":6159:6224   */\n      tag_296\n      jump\t// in\n    tag_430:\n        /* \"#utility.yul\":6021:6231   */\n      swap3\n      swap2\n      pop\n      pop\n      jump\t// out\n        /* \"#utility.yul\":6237:6363   */\n    tag_297:\n        /* \"#utility.yul\":6274:6281   */\n      0x00\n        /* \"#utility.yul\":6314:6356   */\n      0xffffffffffffffffffffffffffffffffffffffff\n        /* \"#utility.yul\":6307:6312   */\n      dup3\n        /* \"#utility.yul\":6303:6357   */\n      and\n        /* \"#utility.yul\":6292:6357   */\n      swap1\n      pop\n        /* \"#utility.yul\":6237:6363   */\n      swap2\n      swap1\n      pop\n      jump\t// out\n        /* \"#utility.yul\":6369:6465   */\n    tag_298:\n        /* \"#utility.yul\":6406:6413   */\n      0x00\n        /* \"#utility.yul\":6435:6459   */\n      tag_433\n        /* \"#utility.yul\":6453:6458   */\n      dup3\n        /* \"#utility.yul\":6435:6459   */\n      tag_297\n      jump\t// in\n    tag_433:\n        /* \"#utility.yul\":6424:6459   */\n      swap1\n      pop\n        /* \"#utility.yul\":6369:6465   */\n      swap2\n      swap1\n      pop\n      jump\t// out\n        /* \"#utility.yul\":6471:6589   */\n    tag_299:\n        /* \"#utility.yul\":6558:6582   */\n      tag_435\n        /* \"#utility.yul\":6576:6581   */\n      dup2\n        /* \"#utility.yul\":6558:6582   */\n      tag_298\n      jump\t// in\n    tag_435:\n        /* \"#utility.yul\":6553:6556   */\n      dup3\n        /* \"#utility.yul\":6546:6583   */\n      mstore\n        /* \"#utility.yul\":6471:6589   */\n      pop\n      pop\n      jump\t// out\n        /* \"#utility.yul\":6595:7037   */\n    tag_40:\n        /* \"#utility.yul\":6744:6748   */\n      0x00\n        /* \"#utility.yul\":6782:6784   */\n      0x60\n        /* \"#utility.yul\":6771:6780   */\n      dup3\n        /* \"#utility.yul\":6767:6785   */\n      add\n        /* \"#utility.yul\":6759:6785   */\n      swap1\n      pop\n        /* \"#utility.yul\":6795:6866   */\n      tag_437\n        /* \"#utility.yul\":6863:6864   */\n      0x00\n        /* \"#utility.yul\":6852:6861   */\n      dup4\n        /* \"#utility.yul\":6848:6865   */\n      add\n        /* \"#utility.yul\":6839:6845   */\n      dup7\n        /* \"#utility.yul\":6795:6866   */\n      tag_299\n      jump\t// in\n    tag_437:\n        /* \"#utility.yul\":6876:6948   */\n      tag_438\n        /* \"#utility.yul\":6944:6946   */\n      0x20\n        /* \"#utility.yul\":6933:6942   */\n      dup4\n        /* \"#utility.yul\":6929:6947   */\n      add\n        /* \"#utility.yul\":6920:6926   */\n      dup6\n        /* \"#utility.yul\":6876:6948   */\n      tag_299\n      jump\t// in\n    tag_438:\n        /* \"#utility.yul\":6958:7030   */\n      tag_439\n        /* \"#utility.yul\":7026:7028   */\n      0x40\n        /* \"#utility.yul\":7015:7024   */\n      dup4\n        /* \"#utility.yul\":7011:7029   */\n      add\n        /* \"#utility.yul\":7002:7008   */\n      dup5\n        /* \"#utility.yul\":6958:7030   */\n      tag_289\n      jump\t// in\n    tag_439:\n        /* \"#utility.yul\":6595:7037   */\n      swap5\n      swap4\n      pop\n      pop\n      pop\n      pop\n      jump\t// out\n        /* \"#utility.yul\":7043:7165   */\n    tag_300:\n        /* \"#utility.yul\":7116:7140   */\n      tag_441\n        /* \"#utility.yul\":7134:7139   */\n      dup2\n        /* \"#utility.yul\":7116:7140   */\n      tag_298\n      jump\t// in\n    tag_441:\n        /* \"#utility.yul\":7109:7114   */\n      dup2\n        /* \"#utility.yul\":7106:7141   */\n      eq\n        /* \"#utility.yul\":7096:7159   */\n      tag_442\n      jumpi\n        /* \"#utility.yul\":7155:7156   */\n      0x00\n        /* \"#utility.yul\":7152:7153   */\n      dup1\n        /* \"#utility.yul\":7145:7157   */\n      revert\n        /* \"#utility.yul\":7096:7159   */\n    tag_442:\n        /* \"#utility.yul\":7043:7165   */\n      pop\n      jump\t// out\n        /* \"#utility.yul\":7171:7310   */\n    tag_301:\n        /* \"#utility.yul\":7217:7222   */\n      0x00\n        /* \"#utility.yul\":7255:7261   */\n      dup2\n        /* \"#utility.yul\":7242:7262   */\n      calldataload\n        /* \"#utility.yul\":7233:7262   */\n      swap1\n      pop\n        /* \"#utility.yul\":7271:7304   */\n      tag_444\n        /* \"#utility.yul\":7298:7303   */\n      dup2\n        /* \"#utility.yul\":7271:7304   */\n      tag_300\n      jump\t// in\n    tag_444:\n        /* \"#utility.yul\":7171:7310   */\n      swap3\n      swap2\n      pop\n      pop\n      jump\t// out\n        /* \"#utility.yul\":7316:7990   */\n    tag_44:\n        /* \"#utility.yul\":7396:7402   */\n      0x00\n        /* \"#utility.yul\":7404:7410   */\n      dup1\n        /* \"#utility.yul\":7412:7418   */\n      0x00\n        /* \"#utility.yul\":7461:7463   */\n      0x40\n        /* \"#utility.yul\":7449:7458   */\n      dup5\n        /* \"#utility.yul\":7440:7447   */\n      dup7\n        /* \"#utility.yul\":7436:7459   */\n      sub\n        /* \"#utility.yul\":7432:7464   */\n      slt\n        /* \"#utility.yul\":7429:7548   */\n      iszero\n      tag_446\n      jumpi\n        /* \"#utility.yul\":7467:7546   */\n      tag_447\n      tag_277\n      jump\t// in\n    tag_447:\n        /* \"#utility.yul\":7429:7548   */\n    tag_446:\n        /* \"#utility.yul\":7615:7616   */\n      0x00\n        /* \"#utility.yul\":7604:7613   */\n      dup5\n        /* \"#utility.yul\":7600:7617   */\n      add\n        /* \"#utility.yul\":7587:7618   */\n      calldataload\n        /* \"#utility.yul\":7645:7663   */\n      0xffffffffffffffff\n        /* \"#utility.yul\":7637:7643   */\n      dup2\n        /* \"#utility.yul\":7634:7664   */\n      gt\n        /* \"#utility.yul\":7631:7748   */\n      iszero\n      tag_448\n      jumpi\n        /* \"#utility.yul\":7667:7746   */\n      tag_449\n      tag_278\n      jump\t// in\n    tag_449:\n        /* \"#utility.yul\":7631:7748   */\n    tag_448:\n        /* \"#utility.yul\":7780:7845   */\n      tag_450\n        /* \"#utility.yul\":7837:7844   */\n      dup7\n        /* \"#utility.yul\":7828:7834   */\n      dup3\n        /* \"#utility.yul\":7817:7826   */\n      dup8\n        /* \"#utility.yul\":7813:7835   */\n      add\n        /* \"#utility.yul\":7780:7845   */\n      tag_292\n      jump\t// in\n    tag_450:\n        /* \"#utility.yul\":7762:7845   */\n      swap4\n      pop\n      swap4\n      pop\n        /* \"#utility.yul\":7558:7855   */\n      pop\n        /* \"#utility.yul\":7894:7896   */\n      0x20\n        /* \"#utility.yul\":7920:7973   */\n      tag_451\n        /* \"#utility.yul\":7965:7972   */\n      dup7\n        /* \"#utility.yul\":7956:7962   */\n      dup3\n        /* \"#utility.yul\":7945:7954   */\n      dup8\n        /* \"#utility.yul\":7941:7963   */\n      add\n        /* \"#utility.yul\":7920:7973   */\n      tag_301\n      jump\t// in\n    tag_451:\n        /* \"#utility.yul\":7910:7973   */\n      swap2\n      pop\n        /* \"#utility.yul\":7865:7983   */\n      pop\n        /* \"#utility.yul\":7316:7990   */\n      swap3\n      pop\n      swap3\n      pop\n      swap3\n      jump\t// out\n        /* \"#utility.yul\":7996:8218   */\n    tag_50:\n        /* \"#utility.yul\":8089:8093   */\n      0x00\n        /* \"#utility.yul\":8127:8129   */\n      0x20\n        /* \"#utility.yul\":8116:8125   */\n      dup3\n        /* \"#utility.yul\":8112:8130   */\n      add\n        /* \"#utility.yul\":8104:8130   */\n      swap1\n      pop\n        /* \"#utility.yul\":8140:8211   */\n      tag_453\n        /* \"#utility.yul\":8208:8209   */\n      0x00\n        /* \"#utility.yul\":8197:8206   */\n      dup4\n        /* \"#utility.yul\":8193:8210   */\n      add\n        /* \"#utility.yul\":8184:8190   */\n      dup5\n        /* \"#utility.yul\":8140:8211   */\n      tag_299\n      jump\t// in\n    tag_453:\n        /* \"#utility.yul\":7996:8218   */\n      swap3\n      swap2\n      pop\n      pop\n      jump\t// out\n        /* \"#utility.yul\":8224:9389   */\n    tag_57:\n        /* \"#utility.yul\":8334:8340   */\n      0x00\n        /* \"#utility.yul\":8342:8348   */\n      dup1\n        /* \"#utility.yul\":8350:8356   */\n      0x00\n        /* \"#utility.yul\":8358:8364   */\n      dup1\n        /* \"#utility.yul\":8366:8372   */\n      0x00\n        /* \"#utility.yul\":8374:8380   */\n      dup1\n        /* \"#utility.yul\":8423:8426   */\n      0x80\n        /* \"#utility.yul\":8411:8420   */\n      dup8\n        /* \"#utility.yul\":8402:8409   */\n      dup10\n        /* \"#utility.yul\":8398:8421   */\n      sub\n        /* \"#utility.yul\":8394:8427   */\n      slt\n        /* \"#utility.yul\":8391:8511   */\n      iszero\n      tag_455\n      jumpi\n        /* \"#utility.yul\":8430:8509   */\n      tag_456\n      tag_277\n      jump\t// in\n    tag_456:\n        /* \"#utility.yul\":8391:8511   */\n    tag_455:\n        /* \"#utility.yul\":8578:8579   */\n      0x00\n        /* \"#utility.yul\":8567:8576   */\n      dup8\n        /* \"#utility.yul\":8563:8580   */\n      add\n        /* \"#utility.yul\":8550:8581   */\n      calldataload\n        /* \"#utility.yul\":8608:8626   */\n      0xffffffffffffffff\n        /* \"#utility.yul\":8600:8606   */\n      dup2\n        /* \"#utility.yul\":8597:8627   */\n      gt\n        /* \"#utility.yul\":8594:8711   */\n      iszero\n      tag_457\n      jumpi\n        /* \"#utility.yul\":8630:8709   */\n      tag_458\n      tag_278\n      jump\t// in\n    tag_458:\n        /* \"#utility.yul\":8594:8711   */\n    tag_457:\n        /* \"#utility.yul\":8743:8808   */\n      tag_459\n        /* \"#utility.yul\":8800:8807   */\n      dup10\n        /* \"#utility.yul\":8791:8797   */\n      dup3\n        /* \"#utility.yul\":8780:8789   */\n      dup11\n        /* \"#utility.yul\":8776:8798   */\n      add\n        /* \"#utility.yul\":8743:8808   */\n      tag_292\n      jump\t// in\n    tag_459:\n        /* \"#utility.yul\":8725:8808   */\n      swap7\n      pop\n      swap7\n      pop\n        /* \"#utility.yul\":8521:8818   */\n      pop\n        /* \"#utility.yul\":8857:8859   */\n      0x20\n        /* \"#utility.yul\":8883:8936   */\n      tag_460\n        /* \"#utility.yul\":8928:8935   */\n      dup10\n        /* \"#utility.yul\":8919:8925   */\n      dup3\n        /* \"#utility.yul\":8908:8917   */\n      dup11\n        /* \"#utility.yul\":8904:8926   */\n      add\n        /* \"#utility.yul\":8883:8936   */\n      tag_301\n      jump\t// in\n    tag_460:\n        /* \"#utility.yul\":8873:8936   */\n      swap5\n      pop\n        /* \"#utility.yul\":8828:8946   */\n      pop\n        /* \"#utility.yul\":8985:8987   */\n      0x40\n        /* \"#utility.yul\":9011:9064   */\n      tag_461\n        /* \"#utility.yul\":9056:9063   */\n      dup10\n        /* \"#utility.yul\":9047:9053   */\n      dup3\n        /* \"#utility.yul\":9036:9045   */\n      dup11\n        /* \"#utility.yul\":9032:9054   */\n      add\n        /* \"#utility.yul\":9011:9064   */\n      tag_294\n      jump\t// in\n    tag_461:\n        /* \"#utility.yul\":9001:9064   */\n      swap4\n      pop\n        /* \"#utility.yul\":8956:9074   */\n      pop\n        /* \"#utility.yul\":9141:9143   */\n      0x60\n        /* \"#utility.yul\":9130:9139   */\n      dup8\n        /* \"#utility.yul\":9126:9144   */\n      add\n        /* \"#utility.yul\":9113:9145   */\n      calldataload\n        /* \"#utility.yul\":9172:9190   */\n      0xffffffffffffffff\n        /* \"#utility.yul\":9164:9170   */\n      dup2\n        /* \"#utility.yul\":9161:9191   */\n      gt\n        /* \"#utility.yul\":9158:9275   */\n      iszero\n      tag_462\n      jumpi\n        /* \"#utility.yul\":9194:9273   */\n      tag_463\n      tag_278\n      jump\t// in\n    tag_463:\n        /* \"#utility.yul\":9158:9275   */\n    tag_462:\n        /* \"#utility.yul\":9307:9372   */\n      tag_464\n        /* \"#utility.yul\":9364:9371   */\n      dup10\n        /* \"#utility.yul\":9355:9361   */\n      dup3\n        /* \"#utility.yul\":9344:9353   */\n      dup11\n        /* \"#utility.yul\":9340:9362   */\n      add\n        /* \"#utility.yul\":9307:9372   */\n      tag_292\n      jump\t// in\n    tag_464:\n        /* \"#utility.yul\":9289:9372   */\n      swap3\n      pop\n      swap3\n      pop\n        /* \"#utility.yul\":9084:9382   */\n      pop\n        /* \"#utility.yul\":8224:9389   */\n      swap3\n      swap6\n      pop\n      swap3\n      swap6\n      pop\n      swap3\n      swap6\n      jump\t// out\n        /* \"#utility.yul\":9395:9724   */\n    tag_62:\n        /* \"#utility.yul\":9454:9460   */\n      0x00\n        /* \"#utility.yul\":9503:9505   */\n      0x20\n        /* \"#utility.yul\":9491:9500   */\n      dup3\n        /* \"#utility.yul\":9482:9489   */\n      dup5\n        /* \"#utility.yul\":9478:9501   */\n      sub\n        /* \"#utility.yul\":9474:9506   */\n      slt\n        /* \"#utility.yul\":9471:9590   */\n      iszero\n      tag_466\n      jumpi\n        /* \"#utility.yul\":9509:9588   */\n      tag_467\n      tag_277\n      jump\t// in\n    tag_467:\n        /* \"#utility.yul\":9471:9590   */\n    tag_466:\n        /* \"#utility.yul\":9629:9630   */\n      0x00\n        /* \"#utility.yul\":9654:9707   */\n      tag_468\n        /* \"#utility.yul\":9699:9706   */\n      dup5\n        /* \"#utility.yul\":9690:9696   */\n      dup3\n        /* \"#utility.yul\":9679:9688   */\n      dup6\n        /* \"#utility.yul\":9675:9697   */\n      add\n        /* \"#utility.yul\":9654:9707   */\n      tag_301\n      jump\t// in\n    tag_468:\n        /* \"#utility.yul\":9644:9707   */\n      swap2\n      pop\n        /* \"#utility.yul\":9600:9717   */\n      pop\n        /* \"#utility.yul\":9395:9724   */\n      swap3\n      swap2\n      pop\n      pop\n      jump\t// out\n        /* \"#utility.yul\":9730:9854   */\n    tag_302:\n        /* \"#utility.yul\":9807:9813   */\n      0x00\n        /* \"#utility.yul\":9841:9846   */\n      dup2\n        /* \"#utility.yul\":9835:9847   */\n      mload\n        /* \"#utility.yul\":9825:9847   */\n      swap1\n      pop\n        /* \"#utility.yul\":9730:9854   */\n      swap2\n      swap1\n      pop\n      jump\t// out\n        /* \"#utility.yul\":9860:10054   */\n    tag_303:\n        /* \"#utility.yul\":9969:9980   */\n      0x00\n        /* \"#utility.yul\":10003:10009   */\n      dup3\n        /* \"#utility.yul\":9998:10001   */\n      dup3\n        /* \"#utility.yul\":9991:10010   */\n      mstore\n        /* \"#utility.yul\":10043:10047   */\n      0x20\n        /* \"#utility.yul\":10038:10041   */\n      dup3\n        /* \"#utility.yul\":10034:10048   */\n      add\n        /* \"#utility.yul\":10019:10048   */\n      swap1\n      pop\n        /* \"#utility.yul\":9860:10054   */\n      swap3\n      swap2\n      pop\n      pop\n      jump\t// out\n        /* \"#utility.yul\":10060:10202   */\n    tag_304:\n        /* \"#utility.yul\":10137:10141   */\n      0x00\n        /* \"#utility.yul\":10160:10163   */\n      dup2\n        /* \"#utility.yul\":10152:10163   */\n      swap1\n      pop\n        /* \"#utility.yul\":10190:10194   */\n      0x20\n        /* \"#utility.yul\":10185:10188   */\n      dup3\n        /* \"#utility.yul\":10181:10195   */\n      add\n        /* \"#utility.yul\":10173:10195   */\n      swap1\n      pop\n        /* \"#utility.yul\":10060:10202   */\n      swap2\n      swap1\n      pop\n      jump\t// out\n        /* \"#utility.yul\":10208:10307   */\n    tag_305:\n        /* \"#utility.yul\":10260:10266   */\n      0x00\n        /* \"#utility.yul\":10294:10299   */\n      dup2\n        /* \"#utility.yul\":10288:10300   */\n      mload\n        /* \"#utility.yul\":10278:10300   */\n      swap1\n      pop\n        /* \"#utility.yul\":10208:10307   */\n      swap2\n      swap1\n      pop\n      jump\t// out\n        /* \"#utility.yul\":10313:10472   */\n    tag_306:\n        /* \"#utility.yul\":10387:10398   */\n      0x00\n        /* \"#utility.yul\":10421:10427   */\n      dup3\n        /* \"#utility.yul\":10416:10419   */\n      dup3\n        /* \"#utility.yul\":10409:10428   */\n      mstore\n        /* \"#utility.yul\":10461:10465   */\n      0x20\n        /* \"#utility.yul\":10456:10459   */\n      dup3\n        /* \"#utility.yul\":10452:10466   */\n      add\n        /* \"#utility.yul\":10437:10466   */\n      swap1\n      pop\n        /* \"#utility.yul\":10313:10472   */\n      swap3\n      swap2\n      pop\n      pop\n      jump\t// out\n        /* \"#utility.yul\":10478:10724   */\n    tag_307:\n        /* \"#utility.yul\":10559:10560   */\n      0x00\n        /* \"#utility.yul\":10569:10682   */\n    tag_475:\n        /* \"#utility.yul\":10583:10589   */\n      dup4\n        /* \"#utility.yul\":10580:10581   */\n      dup2\n        /* \"#utility.yul\":10577:10590   */\n      lt\n        /* \"#utility.yul\":10569:10682   */\n      iszero\n      tag_477\n      jumpi\n        /* \"#utility.yul\":10668:10669   */\n      dup1\n        /* \"#utility.yul\":10663:10666   */\n      dup3\n        /* \"#utility.yul\":10659:10670   */\n      add\n        /* \"#utility.yul\":10653:10671   */\n      mload\n        /* \"#utility.yul\":10649:10650   */\n      dup2\n        /* \"#utility.yul\":10644:10647   */\n      dup5\n        /* \"#utility.yul\":10640:10651   */\n      add\n        /* \"#utility.yul\":10633:10672   */\n      mstore\n        /* \"#utility.yul\":10605:10607   */\n      0x20\n        /* \"#utility.yul\":10602:10603   */\n      dup2\n        /* \"#utility.yul\":10598:10608   */\n      add\n        /* \"#utility.yul\":10593:10608   */\n      swap1\n      pop\n        /* \"#utility.yul\":10569:10682   */\n      jump(tag_475)\n    tag_477:\n        /* \"#utility.yul\":10716:10717   */\n      0x00\n        /* \"#utility.yul\":10707:10713   */\n      dup5\n        /* \"#utility.yul\":10702:10705   */\n      dup5\n        /* \"#utility.yul\":10698:10714   */\n      add\n        /* \"#utility.yul\":10691:10718   */\n      mstore\n        /* \"#utility.yul\":10540:10724   */\n      pop\n        /* \"#utility.yul\":10478:10724   */\n      pop\n      pop\n      pop\n      jump\t// out\n        /* \"#utility.yul\":10730:11087   */\n    tag_308:\n        /* \"#utility.yul\":10808:10811   */\n      0x00\n        /* \"#utility.yul\":10836:10875   */\n      tag_479\n        /* \"#utility.yul\":10869:10874   */\n      dup3\n        /* \"#utility.yul\":10836:10875   */\n      tag_305\n      jump\t// in\n    tag_479:\n        /* \"#utility.yul\":10891:10952   */\n      tag_480\n        /* \"#utility.yul\":10945:10951   */\n      dup2\n        /* \"#utility.yul\":10940:10943   */\n      dup6\n        /* \"#utility.yul\":10891:10952   */\n      tag_306\n      jump\t// in\n    tag_480:\n        /* \"#utility.yul\":10884:10952   */\n      swap4\n      pop\n        /* \"#utility.yul\":10961:11026   */\n      tag_481\n        /* \"#utility.yul\":11019:11025   */\n      dup2\n        /* \"#utility.yul\":11014:11017   */\n      dup6\n        /* \"#utility.yul\":11007:11011   */\n      0x20\n        /* \"#utility.yul\":11000:11005   */\n      dup7\n        /* \"#utility.yul\":10996:11012   */\n      add\n        /* \"#utility.yul\":10961:11026   */\n      tag_307\n      jump\t// in\n    tag_481:\n        /* \"#utility.yul\":11051:11080   */\n      tag_482\n        /* \"#utility.yul\":11073:11079   */\n      dup2\n        /* \"#utility.yul\":11051:11080   */\n      tag_281\n      jump\t// in\n    tag_482:\n        /* \"#utility.yul\":11046:11049   */\n      dup5\n        /* \"#utility.yul\":11042:11081   */\n      add\n        /* \"#utility.yul\":11035:11081   */\n      swap2\n      pop\n        /* \"#utility.yul\":10812:11087   */\n      pop\n        /* \"#utility.yul\":10730:11087   */\n      swap3\n      swap2\n      pop\n      pop\n      jump\t// out\n        /* \"#utility.yul\":11093:11289   */\n    tag_309:\n        /* \"#utility.yul\":11182:11192   */\n      0x00\n        /* \"#utility.yul\":11217:11283   */\n      tag_484\n        /* \"#utility.yul\":11279:11282   */\n      dup4\n        /* \"#utility.yul\":11271:11277   */\n      dup4\n        /* \"#utility.yul\":11217:11283   */\n      tag_308\n      jump\t// in\n    tag_484:\n        /* \"#utility.yul\":11203:11283   */\n      swap1\n      pop\n        /* \"#utility.yul\":11093:11289   */\n      swap3\n      swap2\n      pop\n      pop\n      jump\t// out\n        /* \"#utility.yul\":11295:11418   */\n    tag_310:\n        /* \"#utility.yul\":11375:11379   */\n      0x00\n        /* \"#utility.yul\":11407:11411   */\n      0x20\n        /* \"#utility.yul\":11402:11405   */\n      dup3\n        /* \"#utility.yul\":11398:11412   */\n      add\n        /* \"#utility.yul\":11390:11412   */\n      swap1\n      pop\n        /* \"#utility.yul\":11295:11418   */\n      swap2\n      swap1\n      pop\n      jump\t// out\n        /* \"#utility.yul\":11452:12443   */\n    tag_311:\n        /* \"#utility.yul\":11591:11594   */\n      0x00\n        /* \"#utility.yul\":11620:11684   */\n      tag_487\n        /* \"#utility.yul\":11678:11683   */\n      dup3\n        /* \"#utility.yul\":11620:11684   */\n      tag_302\n      jump\t// in\n    tag_487:\n        /* \"#utility.yul\":11700:11796   */\n      tag_488\n        /* \"#utility.yul\":11789:11795   */\n      dup2\n        /* \"#utility.yul\":11784:11787   */\n      dup6\n        /* \"#utility.yul\":11700:11796   */\n      tag_303\n      jump\t// in\n    tag_488:\n        /* \"#utility.yul\":11693:11796   */\n      swap4\n      pop\n        /* \"#utility.yul\":11822:11825   */\n      dup4\n        /* \"#utility.yul\":11867:11871   */\n      0x20\n        /* \"#utility.yul\":11859:11865   */\n      dup3\n        /* \"#utility.yul\":11855:11872   */\n      mul\n        /* \"#utility.yul\":11850:11853   */\n      dup6\n        /* \"#utility.yul\":11846:11873   */\n      add\n        /* \"#utility.yul\":11897:11963   */\n      tag_489\n        /* \"#utility.yul\":11957:11962   */\n      dup6\n        /* \"#utility.yul\":11897:11963   */\n      tag_304\n      jump\t// in\n    tag_489:\n        /* \"#utility.yul\":11986:11993   */\n      dup1\n        /* \"#utility.yul\":12017:12018   */\n      0x00\n        /* \"#utility.yul\":12002:12398   */\n    tag_490:\n        /* \"#utility.yul\":12027:12033   */\n      dup6\n        /* \"#utility.yul\":12024:12025   */\n      dup2\n        /* \"#utility.yul\":12021:12034   */\n      lt\n        /* \"#utility.yul\":12002:12398   */\n      iszero\n      tag_492\n      jumpi\n        /* \"#utility.yul\":12098:12107   */\n      dup5\n        /* \"#utility.yul\":12092:12096   */\n      dup5\n        /* \"#utility.yul\":12088:12108   */\n      sub\n        /* \"#utility.yul\":12083:12086   */\n      dup10\n        /* \"#utility.yul\":12076:12109   */\n      mstore\n        /* \"#utility.yul\":12149:12155   */\n      dup2\n        /* \"#utility.yul\":12143:12156   */\n      mload\n        /* \"#utility.yul\":12177:12261   */\n      tag_493\n        /* \"#utility.yul\":12256:12260   */\n      dup6\n        /* \"#utility.yul\":12241:12254   */\n      dup3\n        /* \"#utility.yul\":12177:12261   */\n      tag_309\n      jump\t// in\n    tag_493:\n        /* \"#utility.yul\":12169:12261   */\n      swap5\n      pop\n        /* \"#utility.yul\":12284:12354   */\n      tag_494\n        /* \"#utility.yul\":12347:12353   */\n      dup4\n        /* \"#utility.yul\":12284:12354   */\n      tag_310\n      jump\t// in\n    tag_494:\n        /* \"#utility.yul\":12274:12354   */\n      swap3\n      pop\n        /* \"#utility.yul\":12383:12387   */\n      0x20\n        /* \"#utility.yul\":12378:12381   */\n      dup11\n        /* \"#utility.yul\":12374:12388   */\n      add\n        /* \"#utility.yul\":12367:12388   */\n      swap10\n      pop\n        /* \"#utility.yul\":12062:12398   */\n      pop\n        /* \"#utility.yul\":12049:12050   */\n      0x01\n        /* \"#utility.yul\":12046:12047   */\n      dup2\n        /* \"#utility.yul\":12042:12051   */\n      add\n        /* \"#utility.yul\":12037:12051   */\n      swap1\n      pop\n        /* \"#utility.yul\":12002:12398   */\n      jump(tag_490)\n    tag_492:\n        /* \"#utility.yul\":12006:12020   */\n      pop\n        /* \"#utility.yul\":12414:12418   */\n      dup3\n        /* \"#utility.yul\":12407:12418   */\n      swap8\n      pop\n        /* \"#utility.yul\":12434:12437   */\n      dup8\n        /* \"#utility.yul\":12427:12437   */\n      swap6\n      pop\n        /* \"#utility.yul\":11596:12443   */\n      pop\n      pop\n      pop\n      pop\n      pop\n        /* \"#utility.yul\":11452:12443   */\n      swap3\n      swap2\n      pop\n      pop\n      jump\t// out\n        /* \"#utility.yul\":12449:12862   */\n    tag_65:\n        /* \"#utility.yul\":12612:12616   */\n      0x00\n        /* \"#utility.yul\":12650:12652   */\n      0x20\n        /* \"#utility.yul\":12639:12648   */\n      dup3\n        /* \"#utility.yul\":12635:12653   */\n      add\n        /* \"#utility.yul\":12627:12653   */\n      swap1\n      pop\n        /* \"#utility.yul\":12699:12708   */\n      dup2\n        /* \"#utility.yul\":12693:12697   */\n      dup2\n        /* \"#utility.yul\":12689:12709   */\n      sub\n        /* \"#utility.yul\":12685:12686   */\n      0x00\n        /* \"#utility.yul\":12674:12683   */\n      dup4\n        /* \"#utility.yul\":12670:12687   */\n      add\n        /* \"#utility.yul\":12663:12710   */\n      mstore\n        /* \"#utility.yul\":12727:12855   */\n      tag_496\n        /* \"#utility.yul\":12850:12854   */\n      dup2\n        /* \"#utility.yul\":12841:12847   */\n      dup5\n        /* \"#utility.yul\":12727:12855   */\n      tag_311\n      jump\t// in\n    tag_496:\n        /* \"#utility.yul\":12719:12855   */\n      swap1\n      pop\n        /* \"#utility.yul\":12449:12862   */\n      swap3\n      swap2\n      pop\n      pop\n      jump\t// out\n        /* \"#utility.yul\":12868:13016   */\n    tag_312:\n        /* \"#utility.yul\":12970:12981   */\n      0x00\n        /* \"#utility.yul\":13007:13010   */\n      dup2\n        /* \"#utility.yul\":12992:13010   */\n      swap1\n      pop\n        /* \"#utility.yul\":12868:13016   */\n      swap3\n      swap2\n      pop\n      pop\n      jump\t// out\n        /* \"#utility.yul\":13022:13412   */\n    tag_313:\n        /* \"#utility.yul\":13128:13131   */\n      0x00\n        /* \"#utility.yul\":13156:13195   */\n      tag_499\n        /* \"#utility.yul\":13189:13194   */\n      dup3\n        /* \"#utility.yul\":13156:13195   */\n      tag_305\n      jump\t// in\n    tag_499:\n        /* \"#utility.yul\":13211:13300   */\n      tag_500\n        /* \"#utility.yul\":13293:13299   */\n      dup2\n        /* \"#utility.yul\":13288:13291   */\n      dup6\n        /* \"#utility.yul\":13211:13300   */\n      tag_312\n      jump\t// in\n    tag_500:\n        /* \"#utility.yul\":13204:13300   */\n      swap4\n      pop\n        /* \"#utility.yul\":13309:13374   */\n      tag_501\n        /* \"#utility.yul\":13367:13373   */\n      dup2\n        /* \"#utility.yul\":13362:13365   */\n      dup6\n        /* \"#utility.yul\":13355:13359   */\n      0x20\n        /* \"#utility.yul\":13348:13353   */\n      dup7\n        /* \"#utility.yul\":13344:13360   */\n      add\n        /* \"#utility.yul\":13309:13374   */\n      tag_307\n      jump\t// in\n    tag_501:\n        /* \"#utility.yul\":13399:13405   */\n      dup1\n        /* \"#utility.yul\":13394:13397   */\n      dup5\n        /* \"#utility.yul\":13390:13406   */\n      add\n        /* \"#utility.yul\":13383:13406   */\n      swap2\n      pop\n        /* \"#utility.yul\":13132:13412   */\n      pop\n        /* \"#utility.yul\":13022:13412   */\n      swap3\n      swap2\n      pop\n      pop\n      jump\t// out\n        /* \"#utility.yul\":13418:13693   */\n    tag_68:\n        /* \"#utility.yul\":13550:13553   */\n      0x00\n        /* \"#utility.yul\":13572:13667   */\n      tag_503\n        /* \"#utility.yul\":13663:13666   */\n      dup3\n        /* \"#utility.yul\":13654:13660   */\n      dup5\n        /* \"#utility.yul\":13572:13667   */\n      tag_313\n      jump\t// in\n    tag_503:\n        /* \"#utility.yul\":13565:13667   */\n      swap2\n      pop\n        /* \"#utility.yul\":13684:13687   */\n      dup2\n        /* \"#utility.yul\":13677:13687   */\n      swap1\n      pop\n        /* \"#utility.yul\":13418:13693   */\n      swap3\n      swap2\n      pop\n      pop\n      jump\t// out\n        /* \"#utility.yul\":13699:13868   */\n    tag_314:\n        /* \"#utility.yul\":13783:13794   */\n      0x00\n        /* \"#utility.yul\":13817:13823   */\n      dup3\n        /* \"#utility.yul\":13812:13815   */\n      dup3\n        /* \"#utility.yul\":13805:13824   */\n      mstore\n        /* \"#utility.yul\":13857:13861   */\n      0x20\n        /* \"#utility.yul\":13852:13855   */\n      dup3\n        /* \"#utility.yul\":13848:13862   */\n      add\n        /* \"#utility.yul\":13833:13862   */\n      swap1\n      pop\n        /* \"#utility.yul\":13699:13868   */\n      swap3\n      swap2\n      pop\n      pop\n      jump\t// out\n        /* \"#utility.yul\":13874:14098   */\n    tag_315:\n        /* \"#utility.yul\":14014:14048   */\n      0x596f7520617265206e6f7420746865206f776e6572206f66207468697320646f\n        /* \"#utility.yul\":14010:14011   */\n      0x00\n        /* \"#utility.yul\":14002:14008   */\n      dup3\n        /* \"#utility.yul\":13998:14012   */\n      add\n        /* \"#utility.yul\":13991:14049   */\n      mstore\n        /* \"#utility.yul\":14083:14090   */\n      0x6d61696e2e000000000000000000000000000000000000000000000000000000\n        /* \"#utility.yul\":14078:14080   */\n      0x20\n        /* \"#utility.yul\":14070:14076   */\n      dup3\n        /* \"#utility.yul\":14066:14081   */\n      add\n        /* \"#utility.yul\":14059:14091   */\n      mstore\n        /* \"#utility.yul\":13874:14098   */\n      pop\n      jump\t// out\n        /* \"#utility.yul\":14104:14470   */\n    tag_316:\n        /* \"#utility.yul\":14246:14249   */\n      0x00\n        /* \"#utility.yul\":14267:14334   */\n      tag_507\n        /* \"#utility.yul\":14331:14333   */\n      0x25\n        /* \"#utility.yul\":14326:14329   */\n      dup4\n        /* \"#utility.yul\":14267:14334   */\n      tag_314\n      jump\t// in\n    tag_507:\n        /* \"#utility.yul\":14260:14334   */\n      swap2\n      pop\n        /* \"#utility.yul\":14343:14436   */\n      tag_508\n        /* \"#utility.yul\":14432:14435   */\n      dup3\n        /* \"#utility.yul\":14343:14436   */\n      tag_315\n      jump\t// in\n    tag_508:\n        /* \"#utility.yul\":14461:14463   */\n      0x40\n        /* \"#utility.yul\":14456:14459   */\n      dup3\n        /* \"#utility.yul\":14452:14464   */\n      add\n        /* \"#utility.yul\":14445:14464   */\n      swap1\n      pop\n        /* \"#utility.yul\":14104:14470   */\n      swap2\n      swap1\n      pop\n      jump\t// out\n        /* \"#utility.yul\":14476:14895   */\n    tag_71:\n        /* \"#utility.yul\":14642:14646   */\n      0x00\n        /* \"#utility.yul\":14680:14682   */\n      0x20\n        /* \"#utility.yul\":14669:14678   */\n      dup3\n        /* \"#utility.yul\":14665:14683   */\n      add\n        /* \"#utility.yul\":14657:14683   */\n      swap1\n      pop\n        /* \"#utility.yul\":14729:14738   */\n      dup2\n        /* \"#utility.yul\":14723:14727   */\n      dup2\n        /* \"#utility.yul\":14719:14739   */\n      sub\n        /* \"#utility.yul\":14715:14716   */\n      0x00\n        /* \"#utility.yul\":14704:14713   */\n      dup4\n        /* \"#utility.yul\":14700:14717   */\n      add\n        /* \"#utility.yul\":14693:14740   */\n      mstore\n        /* \"#utility.yul\":14757:14888   */\n      tag_510\n        /* \"#utility.yul\":14883:14887   */\n      dup2\n        /* \"#utility.yul\":14757:14888   */\n      tag_316\n      jump\t// in\n    tag_510:\n        /* \"#utility.yul\":14749:14888   */\n      swap1\n      pop\n        /* \"#utility.yul\":14476:14895   */\n      swap2\n      swap1\n      pop\n      jump\t// out\n        /* \"#utility.yul\":14901:15081   */\n    tag_317:\n        /* \"#utility.yul\":14949:15026   */\n      0x4e487b7100000000000000000000000000000000000000000000000000000000\n        /* \"#utility.yul\":14946:14947   */\n      0x00\n        /* \"#utility.yul\":14939:15027   */\n      mstore\n        /* \"#utility.yul\":15046:15050   */\n      0x11\n        /* \"#utility.yul\":15043:15044   */\n      0x04\n        /* \"#utility.yul\":15036:15051   */\n      mstore\n        /* \"#utility.yul\":15070:15074   */\n      0x24\n        /* \"#utility.yul\":15067:15068   */\n      0x00\n        /* \"#utility.yul\":15060:15075   */\n      revert\n        /* \"#utility.yul\":15087:15497   */\n    tag_79:\n        /* \"#utility.yul\":15127:15134   */\n      0x00\n        /* \"#utility.yul\":15150:15170   */\n      tag_513\n        /* \"#utility.yul\":15168:15169   */\n      dup3\n        /* \"#utility.yul\":15150:15170   */\n      tag_288\n      jump\t// in\n    tag_513:\n        /* \"#utility.yul\":15145:15170   */\n      swap2\n      pop\n        /* \"#utility.yul\":15184:15204   */\n      tag_514\n        /* \"#utility.yul\":15202:15203   */\n      dup4\n        /* \"#utility.yul\":15184:15204   */\n      tag_288\n      jump\t// in\n    tag_514:\n        /* \"#utility.yul\":15179:15204   */\n      swap3\n      pop\n        /* \"#utility.yul\":15239:15240   */\n      dup3\n        /* \"#utility.yul\":15236:15237   */\n      dup3\n        /* \"#utility.yul\":15232:15241   */\n      mul\n        /* \"#utility.yul\":15261:15291   */\n      tag_515\n        /* \"#utility.yul\":15279:15290   */\n      dup2\n        /* \"#utility.yul\":15261:15291   */\n      tag_288\n      jump\t// in\n    tag_515:\n        /* \"#utility.yul\":15250:15291   */\n      swap2\n      pop\n        /* \"#utility.yul\":15440:15441   */\n      dup3\n        /* \"#utility.yul\":15431:15438   */\n      dup3\n        /* \"#utility.yul\":15427:15442   */\n      div\n        /* \"#utility.yul\":15424:15425   */\n      dup5\n        /* \"#utility.yul\":15421:15443   */\n      eq\n        /* \"#utility.yul\":15401:15402   */\n      dup4\n        /* \"#utility.yul\":15394:15403   */\n      iszero\n        /* \"#utility.yul\":15374:15457   */\n      or\n        /* \"#utility.yul\":15351:15490   */\n      tag_516\n      jumpi\n        /* \"#utility.yul\":15470:15488   */\n      tag_517\n      tag_317\n      jump\t// in\n    tag_517:\n        /* \"#utility.yul\":15351:15490   */\n    tag_516:\n        /* \"#utility.yul\":15135:15497   */\n      pop\n        /* \"#utility.yul\":15087:15497   */\n      swap3\n      swap2\n      pop\n      pop\n      jump\t// out\n        /* \"#utility.yul\":15503:15752   */\n    tag_318:\n        /* \"#utility.yul\":15643:15677   */\n      0x496e73756666696369656e742066756e647320746f2072656e65772074686520\n        /* \"#utility.yul\":15639:15640   */\n      0x00\n        /* \"#utility.yul\":15631:15637   */\n      dup3\n        /* \"#utility.yul\":15627:15641   */\n      add\n        /* \"#utility.yul\":15620:15678   */\n      mstore\n        /* \"#utility.yul\":15712:15744   */\n      0x646f6d61696e20666f7220746865207370656369666965642079656172730000\n        /* \"#utility.yul\":15707:15709   */\n      0x20\n        /* \"#utility.yul\":15699:15705   */\n      dup3\n        /* \"#utility.yul\":15695:15710   */\n      add\n        /* \"#utility.yul\":15688:15745   */\n      mstore\n        /* \"#utility.yul\":15503:15752   */\n      pop\n      jump\t// out\n        /* \"#utility.yul\":15758:16124   */\n    tag_319:\n        /* \"#utility.yul\":15900:15903   */\n      0x00\n        /* \"#utility.yul\":15921:15988   */\n      tag_520\n        /* \"#utility.yul\":15985:15987   */\n      0x3e\n        /* \"#utility.yul\":15980:15983   */\n      dup4\n        /* \"#utility.yul\":15921:15988   */\n      tag_314\n      jump\t// in\n    tag_520:\n        /* \"#utility.yul\":15914:15988   */\n      swap2\n      pop\n        /* \"#utility.yul\":15997:16090   */\n      tag_521\n        /* \"#utility.yul\":16086:16089   */\n      dup3\n        /* \"#utility.yul\":15997:16090   */\n      tag_318\n      jump\t// in\n    tag_521:\n        /* \"#utility.yul\":16115:16117   */\n      0x40\n        /* \"#utility.yul\":16110:16113   */\n      dup3\n        /* \"#utility.yul\":16106:16118   */\n      add\n        /* \"#utility.yul\":16099:16118   */\n      swap1\n      pop\n        /* \"#utility.yul\":15758:16124   */\n      swap2\n      swap1\n      pop\n      jump\t// out\n        /* \"#utility.yul\":16130:16549   */\n    tag_82:\n        /* \"#utility.yul\":16296:16300   */\n      0x00\n        /* \"#utility.yul\":16334:16336   */\n      0x20\n        /* \"#utility.yul\":16323:16332   */\n      dup3\n        /* \"#utility.yul\":16319:16337   */\n      add\n        /* \"#utility.yul\":16311:16337   */\n      swap1\n      pop\n        /* \"#utility.yul\":16383:16392   */\n      dup2\n        /* \"#utility.yul\":16377:16381   */\n      dup2\n        /* \"#utility.yul\":16373:16393   */\n      sub\n        /* \"#utility.yul\":16369:16370   */\n      0x00\n        /* \"#utility.yul\":16358:16367   */\n      dup4\n        /* \"#utility.yul\":16354:16371   */\n      add\n        /* \"#utility.yul\":16347:16394   */\n      mstore\n        /* \"#utility.yul\":16411:16542   */\n      tag_523\n        /* \"#utility.yul\":16537:16541   */\n      dup2\n        /* \"#utility.yul\":16411:16542   */\n      tag_319\n      jump\t// in\n    tag_523:\n        /* \"#utility.yul\":16403:16542   */\n      swap1\n      pop\n        /* \"#utility.yul\":16130:16549   */\n      swap2\n      swap1\n      pop\n      jump\t// out\n        /* \"#utility.yul\":16579:16909   */\n    tag_320:\n        /* \"#utility.yul\":16695:16698   */\n      0x00\n        /* \"#utility.yul\":16716:16805   */\n      tag_525\n        /* \"#utility.yul\":16798:16804   */\n      dup4\n        /* \"#utility.yul\":16793:16796   */\n      dup6\n        /* \"#utility.yul\":16716:16805   */\n      tag_312\n      jump\t// in\n    tag_525:\n        /* \"#utility.yul\":16709:16805   */\n      swap4\n      pop\n        /* \"#utility.yul\":16815:16871   */\n      tag_526\n        /* \"#utility.yul\":16864:16870   */\n      dup4\n        /* \"#utility.yul\":16859:16862   */\n      dup6\n        /* \"#utility.yul\":16852:16857   */\n      dup5\n        /* \"#utility.yul\":16815:16871   */\n      tag_285\n      jump\t// in\n    tag_526:\n        /* \"#utility.yul\":16896:16902   */\n      dup3\n        /* \"#utility.yul\":16891:16894   */\n      dup5\n        /* \"#utility.yul\":16887:16903   */\n      add\n        /* \"#utility.yul\":16880:16903   */\n      swap1\n      pop\n        /* \"#utility.yul\":16579:16909   */\n      swap4\n      swap3\n      pop\n      pop\n      pop\n      jump\t// out\n        /* \"#utility.yul\":16915:17210   */\n    tag_85:\n        /* \"#utility.yul\":17057:17060   */\n      0x00\n        /* \"#utility.yul\":17079:17184   */\n      tag_528\n        /* \"#utility.yul\":17180:17183   */\n      dup3\n        /* \"#utility.yul\":17171:17177   */\n      dup5\n        /* \"#utility.yul\":17163:17169   */\n      dup7\n        /* \"#utility.yul\":17079:17184   */\n      tag_320\n      jump\t// in\n    tag_528:\n        /* \"#utility.yul\":17072:17184   */\n      swap2\n      pop\n        /* \"#utility.yul\":17201:17204   */\n      dup2\n        /* \"#utility.yul\":17194:17204   */\n      swap1\n      pop\n        /* \"#utility.yul\":16915:17210   */\n      swap4\n      swap3\n      pop\n      pop\n      pop\n      jump\t// out\n        /* \"#utility.yul\":17216:17407   */\n    tag_87:\n        /* \"#utility.yul\":17256:17259   */\n      0x00\n        /* \"#utility.yul\":17275:17295   */\n      tag_530\n        /* \"#utility.yul\":17293:17294   */\n      dup3\n        /* \"#utility.yul\":17275:17295   */\n      tag_288\n      jump\t// in\n    tag_530:\n        /* \"#utility.yul\":17270:17295   */\n      swap2\n      pop\n        /* \"#utility.yul\":17309:17329   */\n      tag_531\n        /* \"#utility.yul\":17327:17328   */\n      dup4\n        /* \"#utility.yul\":17309:17329   */\n      tag_288\n      jump\t// in\n    tag_531:\n        /* \"#utility.yul\":17304:17329   */\n      swap3\n      pop\n        /* \"#utility.yul\":17352:17353   */\n      dup3\n        /* \"#utility.yul\":17349:17350   */\n      dup3\n        /* \"#utility.yul\":17345:17354   */\n      add\n        /* \"#utility.yul\":17338:17354   */\n      swap1\n      pop\n        /* \"#utility.yul\":17373:17376   */\n      dup1\n        /* \"#utility.yul\":17370:17371   */\n      dup3\n        /* \"#utility.yul\":17367:17377   */\n      gt\n        /* \"#utility.yul\":17364:17400   */\n      iszero\n      tag_532\n      jumpi\n        /* \"#utility.yul\":17380:17398   */\n      tag_533\n      tag_317\n      jump\t// in\n    tag_533:\n        /* \"#utility.yul\":17364:17400   */\n    tag_532:\n        /* \"#utility.yul\":17216:17407   */\n      swap3\n      swap2\n      pop\n      pop\n      jump\t// out\n        /* \"#utility.yul\":17437:17754   */\n    tag_321:\n        /* \"#utility.yul\":17535:17538   */\n      0x00\n        /* \"#utility.yul\":17556:17627   */\n      tag_535\n        /* \"#utility.yul\":17620:17626   */\n      dup4\n        /* \"#utility.yul\":17615:17618   */\n      dup6\n        /* \"#utility.yul\":17556:17627   */\n      tag_314\n      jump\t// in\n    tag_535:\n        /* \"#utility.yul\":17549:17627   */\n      swap4\n      pop\n        /* \"#utility.yul\":17637:17693   */\n      tag_536\n        /* \"#utility.yul\":17686:17692   */\n      dup4\n        /* \"#utility.yul\":17681:17684   */\n      dup6\n        /* \"#utility.yul\":17674:17679   */\n      dup5\n        /* \"#utility.yul\":17637:17693   */\n      tag_285\n      jump\t// in\n    tag_536:\n        /* \"#utility.yul\":17718:17747   */\n      tag_537\n        /* \"#utility.yul\":17740:17746   */\n      dup4\n        /* \"#utility.yul\":17718:17747   */\n      tag_281\n      jump\t// in\n    tag_537:\n        /* \"#utility.yul\":17713:17716   */\n      dup5\n        /* \"#utility.yul\":17709:17748   */\n      add\n        /* \"#utility.yul\":17702:17748   */\n      swap1\n      pop\n        /* \"#utility.yul\":17437:17754   */\n      swap4\n      swap3\n      pop\n      pop\n      pop\n      jump\t// out\n        /* \"#utility.yul\":17760:18203   */\n    tag_90:\n        /* \"#utility.yul\":17911:17915   */\n      0x00\n        /* \"#utility.yul\":17949:17951   */\n      0x40\n        /* \"#utility.yul\":17938:17947   */\n      dup3\n        /* \"#utility.yul\":17934:17952   */\n      add\n        /* \"#utility.yul\":17926:17952   */\n      swap1\n      pop\n        /* \"#utility.yul\":17998:18007   */\n      dup2\n        /* \"#utility.yul\":17992:17996   */\n      dup2\n        /* \"#utility.yul\":17988:18008   */\n      sub\n        /* \"#utility.yul\":17984:17985   */\n      0x00\n        /* \"#utility.yul\":17973:17982   */\n      dup4\n        /* \"#utility.yul\":17969:17986   */\n      add\n        /* \"#utility.yul\":17962:18009   */\n      mstore\n        /* \"#utility.yul\":18026:18114   */\n      tag_539\n        /* \"#utility.yul\":18109:18113   */\n      dup2\n        /* \"#utility.yul\":18100:18106   */\n      dup6\n        /* \"#utility.yul\":18092:18098   */\n      dup8\n        /* \"#utility.yul\":18026:18114   */\n      tag_321\n      jump\t// in\n    tag_539:\n        /* \"#utility.yul\":18018:18114   */\n      swap1\n      pop\n        /* \"#utility.yul\":18124:18196   */\n      tag_540\n        /* \"#utility.yul\":18192:18194   */\n      0x20\n        /* \"#utility.yul\":18181:18190   */\n      dup4\n        /* \"#utility.yul\":18177:18195   */\n      add\n        /* \"#utility.yul\":18168:18174   */\n      dup5\n        /* \"#utility.yul\":18124:18196   */\n      tag_289\n      jump\t// in\n    tag_540:\n        /* \"#utility.yul\":17760:18203   */\n      swap5\n      swap4\n      pop\n      pop\n      pop\n      pop\n      jump\t// out\n        /* \"#utility.yul\":18209:18403   */\n    tag_93:\n        /* \"#utility.yul\":18249:18253   */\n      0x00\n        /* \"#utility.yul\":18269:18289   */\n      tag_542\n        /* \"#utility.yul\":18287:18288   */\n      dup3\n        /* \"#utility.yul\":18269:18289   */\n      tag_288\n      jump\t// in\n    tag_542:\n        /* \"#utility.yul\":18264:18289   */\n      swap2\n      pop\n        /* \"#utility.yul\":18303:18323   */\n      tag_543\n        /* \"#utility.yul\":18321:18322   */\n      dup4\n        /* \"#utility.yul\":18303:18323   */\n      tag_288\n      jump\t// in\n    tag_543:\n        /* \"#utility.yul\":18298:18323   */\n      swap3\n      pop\n        /* \"#utility.yul\":18347:18348   */\n      dup3\n        /* \"#utility.yul\":18344:18345   */\n      dup3\n        /* \"#utility.yul\":18340:18349   */\n      sub\n        /* \"#utility.yul\":18332:18349   */\n      swap1\n      pop\n        /* \"#utility.yul\":18371:18372   */\n      dup2\n        /* \"#utility.yul\":18365:18369   */\n      dup2\n        /* \"#utility.yul\":18362:18373   */\n      gt\n        /* \"#utility.yul\":18359:18396   */\n      iszero\n      tag_544\n      jumpi\n        /* \"#utility.yul\":18376:18394   */\n      tag_545\n      tag_317\n      jump\t// in\n    tag_545:\n        /* \"#utility.yul\":18359:18396   */\n    tag_544:\n        /* \"#utility.yul\":18209:18403   */\n      swap3\n      swap2\n      pop\n      pop\n      jump\t// out\n        /* \"#utility.yul\":18409:18643   */\n    tag_322:\n        /* \"#utility.yul\":18549:18583   */\n      0x4f6e6c792074686520636f6e7472616374206f776e65722063616e2063616c6c\n        /* \"#utility.yul\":18545:18546   */\n      0x00\n        /* \"#utility.yul\":18537:18543   */\n      dup3\n        /* \"#utility.yul\":18533:18547   */\n      add\n        /* \"#utility.yul\":18526:18584   */\n      mstore\n        /* \"#utility.yul\":18618:18635   */\n      0x20746869732066756e6374696f6e2e0000000000000000000000000000000000\n        /* \"#utility.yul\":18613:18615   */\n      0x20\n        /* \"#utility.yul\":18605:18611   */\n      dup3\n        /* \"#utility.yul\":18601:18616   */\n      add\n        /* \"#utility.yul\":18594:18636   */\n      mstore\n        /* \"#utility.yul\":18409:18643   */\n      pop\n      jump\t// out\n        /* \"#utility.yul\":18649:19015   */\n    tag_323:\n        /* \"#utility.yul\":18791:18794   */\n      0x00\n        /* \"#utility.yul\":18812:18879   */\n      tag_548\n        /* \"#utility.yul\":18876:18878   */\n      0x2f\n        /* \"#utility.yul\":18871:18874   */\n      dup4\n        /* \"#utility.yul\":18812:18879   */\n      tag_314\n      jump\t// in\n    tag_548:\n        /* \"#utility.yul\":18805:18879   */\n      swap2\n      pop\n        /* \"#utility.yul\":18888:18981   */\n      tag_549\n        /* \"#utility.yul\":18977:18980   */\n      dup3\n        /* \"#utility.yul\":18888:18981   */\n      tag_322\n      jump\t// in\n    tag_549:\n        /* \"#utility.yul\":19006:19008   */\n      0x40\n        /* \"#utility.yul\":19001:19004   */\n      dup3\n        /* \"#utility.yul\":18997:19009   */\n      add\n        /* \"#utility.yul\":18990:19009   */\n      swap1\n      pop\n        /* \"#utility.yul\":18649:19015   */\n      swap2\n      swap1\n      pop\n      jump\t// out\n        /* \"#utility.yul\":19021:19440   */\n    tag_103:\n        /* \"#utility.yul\":19187:19191   */\n      0x00\n        /* \"#utility.yul\":19225:19227   */\n      0x20\n        /* \"#utility.yul\":19214:19223   */\n      dup3\n        /* \"#utility.yul\":19210:19228   */\n      add\n        /* \"#utility.yul\":19202:19228   */\n      swap1\n      pop\n        /* \"#utility.yul\":19274:19283   */\n      dup2\n        /* \"#utility.yul\":19268:19272   */\n      dup2\n        /* \"#utility.yul\":19264:19284   */\n      sub\n        /* \"#utility.yul\":19260:19261   */\n      0x00\n        /* \"#utility.yul\":19249:19258   */\n      dup4\n        /* \"#utility.yul\":19245:19262   */\n      add\n        /* \"#utility.yul\":19238:19285   */\n      mstore\n        /* \"#utility.yul\":19302:19433   */\n      tag_551\n        /* \"#utility.yul\":19428:19432   */\n      dup2\n        /* \"#utility.yul\":19302:19433   */\n      tag_323\n      jump\t// in\n    tag_551:\n        /* \"#utility.yul\":19294:19433   */\n      swap1\n      pop\n        /* \"#utility.yul\":19021:19440   */\n      swap2\n      swap1\n      pop\n      jump\t// out\n        /* \"#utility.yul\":19446:19615   */\n    tag_324:\n        /* \"#utility.yul\":19586:19607   */\n      0x446f6d61696e2068617320657870697265642e00000000000000000000000000\n        /* \"#utility.yul\":19582:19583   */\n      0x00\n        /* \"#utility.yul\":19574:19580   */\n      dup3\n        /* \"#utility.yul\":19570:19584   */\n      add\n        /* \"#utility.yul\":19563:19608   */\n      mstore\n        /* \"#utility.yul\":19446:19615   */\n      pop\n      jump\t// out\n        /* \"#utility.yul\":19621:19987   */\n    tag_325:\n        /* \"#utility.yul\":19763:19766   */\n      0x00\n        /* \"#utility.yul\":19784:19851   */\n      tag_554\n        /* \"#utility.yul\":19848:19850   */\n      0x13\n        /* \"#utility.yul\":19843:19846   */\n      dup4\n        /* \"#utility.yul\":19784:19851   */\n      tag_314\n      jump\t// in\n    tag_554:\n        /* \"#utility.yul\":19777:19851   */\n      swap2\n      pop\n        /* \"#utility.yul\":19860:19953   */\n      tag_555\n        /* \"#utility.yul\":19949:19952   */\n      dup3\n        /* \"#utility.yul\":19860:19953   */\n      tag_324\n      jump\t// in\n    tag_555:\n        /* \"#utility.yul\":19978:19980   */\n      0x20\n        /* \"#utility.yul\":19973:19976   */\n      dup3\n        /* \"#utility.yul\":19969:19981   */\n      add\n        /* \"#utility.yul\":19962:19981   */\n      swap1\n      pop\n        /* \"#utility.yul\":19621:19987   */\n      swap2\n      swap1\n      pop\n      jump\t// out\n        /* \"#utility.yul\":19993:20412   */\n    tag_119:\n        /* \"#utility.yul\":20159:20163   */\n      0x00\n        /* \"#utility.yul\":20197:20199   */\n      0x20\n        /* \"#utility.yul\":20186:20195   */\n      dup3\n        /* \"#utility.yul\":20182:20200   */\n      add\n        /* \"#utility.yul\":20174:20200   */\n      swap1\n      pop\n        /* \"#utility.yul\":20246:20255   */\n      dup2\n        /* \"#utility.yul\":20240:20244   */\n      dup2\n        /* \"#utility.yul\":20236:20256   */\n      sub\n        /* \"#utility.yul\":20232:20233   */\n      0x00\n        /* \"#utility.yul\":20221:20230   */\n      dup4\n        /* \"#utility.yul\":20217:20234   */\n      add\n        /* \"#utility.yul\":20210:20257   */\n      mstore\n        /* \"#utility.yul\":20274:20405   */\n      tag_557\n        /* \"#utility.yul\":20400:20404   */\n      dup2\n        /* \"#utility.yul\":20274:20405   */\n      tag_325\n      jump\t// in\n    tag_557:\n        /* \"#utility.yul\":20266:20405   */\n      swap1\n      pop\n        /* \"#utility.yul\":19993:20412   */\n      swap2\n      swap1\n      pop\n      jump\t// out\n        /* \"#utility.yul\":20418:20751   */\n    tag_122:\n        /* \"#utility.yul\":20541:20545   */\n      0x00\n        /* \"#utility.yul\":20579:20581   */\n      0x20\n        /* \"#utility.yul\":20568:20577   */\n      dup3\n        /* \"#utility.yul\":20564:20582   */\n      add\n        /* \"#utility.yul\":20556:20582   */\n      swap1\n      pop\n        /* \"#utility.yul\":20628:20637   */\n      dup2\n        /* \"#utility.yul\":20622:20626   */\n      dup2\n        /* \"#utility.yul\":20618:20638   */\n      sub\n        /* \"#utility.yul\":20614:20615   */\n      0x00\n        /* \"#utility.yul\":20603:20612   */\n      dup4\n        /* \"#utility.yul\":20599:20616   */\n      add\n        /* \"#utility.yul\":20592:20639   */\n      mstore\n        /* \"#utility.yul\":20656:20744   */\n      tag_559\n        /* \"#utility.yul\":20739:20743   */\n      dup2\n        /* \"#utility.yul\":20730:20736   */\n      dup5\n        /* \"#utility.yul\":20722:20728   */\n      dup7\n        /* \"#utility.yul\":20656:20744   */\n      tag_321\n      jump\t// in\n    tag_559:\n        /* \"#utility.yul\":20648:20744   */\n      swap1\n      pop\n        /* \"#utility.yul\":20418:20751   */\n      swap4\n      swap3\n      pop\n      pop\n      pop\n      jump\t// out\n        /* \"#utility.yul\":20757:20854   */\n    tag_326:\n        /* \"#utility.yul\":20816:20822   */\n      0x00\n        /* \"#utility.yul\":20844:20847   */\n      dup3\n        /* \"#utility.yul\":20834:20847   */\n      swap1\n      pop\n        /* \"#utility.yul\":20757:20854   */\n      swap3\n      swap2\n      pop\n      pop\n      jump\t// out\n        /* \"#utility.yul\":20860:21040   */\n    tag_327:\n        /* \"#utility.yul\":20908:20985   */\n      0x4e487b7100000000000000000000000000000000000000000000000000000000\n        /* \"#utility.yul\":20905:20906   */\n      0x00\n        /* \"#utility.yul\":20898:20986   */\n      mstore\n        /* \"#utility.yul\":21005:21009   */\n      0x22\n        /* \"#utility.yul\":21002:21003   */\n      0x04\n        /* \"#utility.yul\":20995:21010   */\n      mstore\n        /* \"#utility.yul\":21029:21033   */\n      0x24\n        /* \"#utility.yul\":21026:21027   */\n      0x00\n        /* \"#utility.yul\":21019:21034   */\n      revert\n        /* \"#utility.yul\":21046:21366   */\n    tag_183:\n        /* \"#utility.yul\":21090:21096   */\n      0x00\n        /* \"#utility.yul\":21127:21128   */\n      0x02\n        /* \"#utility.yul\":21121:21125   */\n      dup3\n        /* \"#utility.yul\":21117:21129   */\n      div\n        /* \"#utility.yul\":21107:21129   */\n      swap1\n      pop\n        /* \"#utility.yul\":21174:21175   */\n      0x01\n        /* \"#utility.yul\":21168:21172   */\n      dup3\n        /* \"#utility.yul\":21164:21176   */\n      and\n        /* \"#utility.yul\":21195:21213   */\n      dup1\n        /* \"#utility.yul\":21185:21266   */\n      tag_563\n      jumpi\n        /* \"#utility.yul\":21251:21255   */\n      0x7f\n        /* \"#utility.yul\":21243:21249   */\n      dup3\n        /* \"#utility.yul\":21239:21256   */\n      and\n        /* \"#utility.yul\":21229:21256   */\n      swap2\n      pop\n        /* \"#utility.yul\":21185:21266   */\n    tag_563:\n        /* \"#utility.yul\":21313:21315   */\n      0x20\n        /* \"#utility.yul\":21305:21311   */\n      dup3\n        /* \"#utility.yul\":21302:21316   */\n      lt\n        /* \"#utility.yul\":21282:21300   */\n      dup2\n        /* \"#utility.yul\":21279:21317   */\n      sub\n        /* \"#utility.yul\":21276:21360   */\n      tag_564\n      jumpi\n        /* \"#utility.yul\":21332:21350   */\n      tag_565\n      tag_327\n      jump\t// in\n    tag_565:\n        /* \"#utility.yul\":21276:21360   */\n    tag_564:\n        /* \"#utility.yul\":21097:21366   */\n      pop\n        /* \"#utility.yul\":21046:21366   */\n      swap2\n      swap1\n      pop\n      jump\t// out\n        /* \"#utility.yul\":21372:21513   */\n    tag_328:\n        /* \"#utility.yul\":21421:21425   */\n      0x00\n        /* \"#utility.yul\":21444:21447   */\n      dup2\n        /* \"#utility.yul\":21436:21447   */\n      swap1\n      pop\n        /* \"#utility.yul\":21467:21470   */\n      dup2\n        /* \"#utility.yul\":21464:21465   */\n      0x00\n        /* \"#utility.yul\":21457:21471   */\n      mstore\n        /* \"#utility.yul\":21501:21505   */\n      0x20\n        /* \"#utility.yul\":21498:21499   */\n      0x00\n        /* \"#utility.yul\":21488:21506   */\n      keccak256\n        /* \"#utility.yul\":21480:21506   */\n      swap1\n      pop\n        /* \"#utility.yul\":21372:21513   */\n      swap2\n      swap1\n      pop\n      jump\t// out\n        /* \"#utility.yul\":21519:21612   */\n    tag_329:\n        /* \"#utility.yul\":21556:21562   */\n      0x00\n        /* \"#utility.yul\":21603:21605   */\n      0x20\n        /* \"#utility.yul\":21598:21600   */\n      0x1f\n        /* \"#utility.yul\":21591:21596   */\n      dup4\n        /* \"#utility.yul\":21587:21601   */\n      add\n        /* \"#utility.yul\":21583:21606   */\n      div\n        /* \"#utility.yul\":21573:21606   */\n      swap1\n      pop\n        /* \"#utility.yul\":21519:21612   */\n      swap2\n      swap1\n      pop\n      jump\t// out\n        /* \"#utility.yul\":21618:21725   */\n    tag_330:\n        /* \"#utility.yul\":21662:21670   */\n      0x00\n        /* \"#utility.yul\":21712:21717   */\n      dup3\n        /* \"#utility.yul\":21706:21710   */\n      dup3\n        /* \"#utility.yul\":21702:21718   */\n      shl\n        /* \"#utility.yul\":21681:21718   */\n      swap1\n      pop\n        /* \"#utility.yul\":21618:21725   */\n      swap3\n      swap2\n      pop\n      pop\n      jump\t// out\n        /* \"#utility.yul\":21731:22124   */\n    tag_331:\n        /* \"#utility.yul\":21800:21806   */\n      0x00\n        /* \"#utility.yul\":21850:21851   */\n      0x08\n        /* \"#utility.yul\":21838:21848   */\n      dup4\n        /* \"#utility.yul\":21834:21852   */\n      mul\n        /* \"#utility.yul\":21873:21970   */\n      tag_570\n        /* \"#utility.yul\":21903:21969   */\n      0xffffffffffffffffffffffffffffffffffffffffffffffffffffffffffffffff\n        /* \"#utility.yul\":21892:21901   */\n      dup3\n        /* \"#utility.yul\":21873:21970   */\n      tag_330\n      jump\t// in\n    tag_570:\n        /* \"#utility.yul\":21991:22030   */\n      tag_571\n        /* \"#utility.yul\":22021:22029   */\n      dup7\n        /* \"#utility.yul\":22010:22019   */\n      dup4\n        /* \"#utility.yul\":21991:22030   */\n      tag_330\n      jump\t// in\n    tag_571:\n        /* \"#utility.yul\":21979:22030   */\n      swap6\n      pop\n        /* \"#utility.yul\":22063:22067   */\n      dup1\n        /* \"#utility.yul\":22059:22068   */\n      not\n        /* \"#utility.yul\":22052:22057   */\n      dup5\n        /* \"#utility.yul\":22048:22069   */\n      and\n        /* \"#utility.yul\":22039:22069   */\n      swap4\n      pop\n        /* \"#utility.yul\":22112:22116   */\n      dup1\n        /* \"#utility.yul\":22102:22110   */\n      dup7\n        /* \"#utility.yul\":22098:22117   */\n      and\n        /* \"#utility.yul\":22091:22096   */\n      dup5\n        /* \"#utility.yul\":22088:22118   */\n      or\n        /* \"#utility.yul\":22078:22118   */\n      swap3\n      pop\n        /* \"#utility.yul\":21807:22124   */\n      pop\n      pop\n        /* \"#utility.yul\":21731:22124   */\n      swap4\n      swap3\n      pop\n      pop\n      pop\n      jump\t// out\n        /* \"#utility.yul\":22130:22190   */\n    tag_332:\n        /* \"#utility.yul\":22158:22161   */\n      0x00\n        /* \"#utility.yul\":22179:22184   */\n      dup2\n        /* \"#utility.yul\":22172:22184   */\n      swap1\n      pop\n        /* \"#utility.yul\":22130:22190   */\n      swap2\n      swap1\n      pop\n      jump\t// out\n        /* \"#utility.yul\":22196:22338   */\n    tag_333:\n        /* \"#utility.yul\":22246:22255   */\n      0x00\n        /* \"#utility.yul\":22279:22332   */\n      tag_574\n        /* \"#utility.yul\":22297:22331   */\n      tag_575\n        /* \"#utility.yul\":22306:22330   */\n      tag_576\n        /* \"#utility.yul\":22324:22329   */\n      dup5\n        /* \"#utility.yul\":22306:22330   */\n      tag_288\n      jump\t// in\n    tag_576:\n        /* \"#utility.yul\":22297:22331   */\n      tag_332\n      jump\t// in\n    tag_575:\n        /* \"#utility.yul\":22279:22332   */\n      tag_288\n      jump\t// in\n    tag_574:\n        /* \"#utility.yul\":22266:22332   */\n      swap1\n      pop\n        /* \"#utility.yul\":22196:22338   */\n      swap2\n      swap1\n      pop\n      jump\t// out\n        /* \"#utility.yul\":22344:22419   */\n    tag_334:\n        /* \"#utility.yul\":22387:22390   */\n      0x00\n        /* \"#utility.yul\":22408:22413   */\n      dup2\n        /* \"#utility.yul\":22401:22413   */\n      swap1\n      pop\n        /* \"#utility.yul\":22344:22419   */\n      swap2\n      swap1\n      pop\n      jump\t// out\n        /* \"#utility.yul\":22425:22694   */\n    tag_335:\n        /* \"#utility.yul\":22535:22574   */\n      tag_579\n        /* \"#utility.yul\":22566:22573   */\n      dup4\n        /* \"#utility.yul\":22535:22574   */\n      tag_333\n      jump\t// in\n    tag_579:\n        /* \"#utility.yul\":22596:22687   */\n      tag_580\n        /* \"#utility.yul\":22645:22686   */\n      tag_581\n        /* \"#utility.yul\":22669:22685   */\n      dup3\n        /* \"#utility.yul\":22645:22686   */\n      tag_334\n      jump\t// in\n    tag_581:\n        /* \"#utility.yul\":22637:22643   */\n      dup5\n        /* \"#utility.yul\":22630:22634   */\n      dup5\n        /* \"#utility.yul\":22624:22635   */\n      sload\n        /* \"#utility.yul\":22596:22687   */\n      tag_331\n      jump\t// in\n    tag_580:\n        /* \"#utility.yul\":22590:22594   */\n      dup3\n        /* \"#utility.yul\":22583:22688   */\n      sstore\n        /* \"#utility.yul\":22501:22694   */\n      pop\n        /* \"#utility.yul\":22425:22694   */\n      pop\n      pop\n      pop\n      jump\t// out\n        /* \"#utility.yul\":22700:22773   */\n    tag_336:\n        /* \"#utility.yul\":22745:22748   */\n      0x00\n        /* \"#utility.yul\":22700:22773   */\n      swap1\n      jump\t// out\n        /* \"#utility.yul\":22779:22968   */\n    tag_337:\n        /* \"#utility.yul\":22856:22888   */\n      tag_584\n      tag_336\n      jump\t// in\n    tag_584:\n        /* \"#utility.yul\":22897:22962   */\n      tag_585\n        /* \"#utility.yul\":22955:22961   */\n      dup2\n        /* \"#utility.yul\":22947:22953   */\n      dup5\n        /* \"#utility.yul\":22941:22945   */\n      dup5\n        /* \"#utility.yul\":22897:22962   */\n      tag_335\n      jump\t// in\n    tag_585:\n        /* \"#utility.yul\":22832:22968   */\n      pop\n        /* \"#utility.yul\":22779:22968   */\n      pop\n      pop\n      jump\t// out\n        /* \"#utility.yul\":22974:23160   */\n    tag_338:\n        /* \"#utility.yul\":23034:23154   */\n    tag_587:\n        /* \"#utility.yul\":23051:23054   */\n      dup2\n        /* \"#utility.yul\":23044:23049   */\n      dup2\n        /* \"#utility.yul\":23041:23055   */\n      lt\n        /* \"#utility.yul\":23034:23154   */\n      iszero\n      tag_589\n      jumpi\n        /* \"#utility.yul\":23105:23144   */\n      tag_590\n        /* \"#utility.yul\":23142:23143   */\n      0x00\n        /* \"#utility.yul\":23135:23140   */\n      dup3\n        /* \"#utility.yul\":23105:23144   */\n      tag_337\n      jump\t// in\n    tag_590:\n        /* \"#utility.yul\":23078:23079   */\n      0x01\n        /* \"#utility.yul\":23071:23076   */\n      dup2\n        /* \"#utility.yul\":23067:23080   */\n      add\n        /* \"#utility.yul\":23058:23080   */\n      swap1\n      pop\n        /* \"#utility.yul\":23034:23154   */\n      jump(tag_587)\n    tag_589:\n        /* \"#utility.yul\":22974:23160   */\n      pop\n      pop\n      jump\t// out\n        /* \"#utility.yul\":23166:23709   */\n    tag_339:\n        /* \"#utility.yul\":23267:23269   */\n      0x1f\n        /* \"#utility.yul\":23262:23265   */\n      dup3\n        /* \"#utility.yul\":23259:23270   */\n      gt\n        /* \"#utility.yul\":23256:23702   */\n      iszero\n      tag_592\n      jumpi\n        /* \"#utility.yul\":23301:23339   */\n      tag_593\n        /* \"#utility.yul\":23333:23338   */\n      dup2\n        /* \"#utility.yul\":23301:23339   */\n      tag_328\n      jump\t// in\n    tag_593:\n        /* \"#utility.yul\":23385:23414   */\n      tag_594\n        /* \"#utility.yul\":23403:23413   */\n      dup5\n        /* \"#utility.yul\":23385:23414   */\n      tag_329\n      jump\t// in\n    tag_594:\n        /* \"#utility.yul\":23375:23383   */\n      dup2\n        /* \"#utility.yul\":23371:23415   */\n      add\n        /* \"#utility.yul\":23568:23570   */\n      0x20\n        /* \"#utility.yul\":23556:23566   */\n      dup6\n        /* \"#utility.yul\":23553:23571   */\n      lt\n        /* \"#utility.yul\":23550:23599   */\n      iszero\n      tag_595\n      jumpi\n        /* \"#utility.yul\":23589:23597   */\n      dup2\n        /* \"#utility.yul\":23574:23597   */\n      swap1\n      pop\n        /* \"#utility.yul\":23550:23599   */\n    tag_595:\n        /* \"#utility.yul\":23612:23692   */\n      tag_596\n        /* \"#utility.yul\":23668:23690   */\n      tag_597\n        /* \"#utility.yul\":23686:23689   */\n      dup6\n        /* \"#utility.yul\":23668:23690   */\n      tag_329\n      jump\t// in\n    tag_597:\n        /* \"#utility.yul\":23658:23666   */\n      dup4\n        /* \"#utility.yul\":23654:23691   */\n      add\n        /* \"#utility.yul\":23641:23652   */\n      dup3\n        /* \"#utility.yul\":23612:23692   */\n      tag_338\n      jump\t// in\n    tag_596:\n        /* \"#utility.yul\":23271:23702   */\n      pop\n      pop\n        /* \"#utility.yul\":23256:23702   */\n    tag_592:\n        /* \"#utility.yul\":23166:23709   */\n      pop\n      pop\n      pop\n      jump\t// out\n        /* \"#utility.yul\":23715:23832   */\n    tag_340:\n        /* \"#utility.yul\":23769:23777   */\n      0x00\n        /* \"#utility.yul\":23819:23824   */\n      dup3\n        /* \"#utility.yul\":23813:23817   */\n      dup3\n        /* \"#utility.yul\":23809:23825   */\n      shr\n        /* \"#utility.yul\":23788:23825   */\n      swap1\n      pop\n        /* \"#utility.yul\":23715:23832   */\n      swap3\n      swap2\n      pop\n      pop\n      jump\t// out\n        /* \"#utility.yul\":23838:24007   */\n    tag_341:\n        /* \"#utility.yul\":23882:23888   */\n      0x00\n        /* \"#utility.yul\":23915:23966   */\n      tag_600\n        /* \"#utility.yul\":23963:23964   */\n      0x00\n        /* \"#utility.yul\":23959:23965   */\n      not\n        /* \"#utility.yul\":23951:23956   */\n      dup5\n        /* \"#utility.yul\":23948:23949   */\n      0x08\n        /* \"#utility.yul\":23944:23957   */\n      mul\n        /* \"#utility.yul\":23915:23966   */\n      tag_340\n      jump\t// in\n    tag_600:\n        /* \"#utility.yul\":23911:23967   */\n      not\n        /* \"#utility.yul\":23996:24000   */\n      dup1\n        /* \"#utility.yul\":23990:23994   */\n      dup4\n        /* \"#utility.yul\":23986:24001   */\n      and\n        /* \"#utility.yul\":23976:24001   */\n      swap2\n      pop\n        /* \"#utility.yul\":23889:24007   */\n      pop\n        /* \"#utility.yul\":23838:24007   */\n      swap3\n      swap2\n      pop\n      pop\n      jump\t// out\n        /* \"#utility.yul\":24012:24307   */\n    tag_342:\n        /* \"#utility.yul\":24088:24092   */\n      0x00\n        /* \"#utility.yul\":24234:24263   */\n      tag_602\n        /* \"#utility.yul\":24259:24262   */\n      dup4\n        /* \"#utility.yul\":24253:24257   */\n      dup4\n        /* \"#utility.yul\":24234:24263   */\n      tag_341\n      jump\t// in\n    tag_602:\n        /* \"#utility.yul\":24226:24263   */\n      swap2\n      pop\n        /* \"#utility.yul\":24296:24299   */\n      dup3\n        /* \"#utility.yul\":24293:24294   */\n      0x02\n        /* \"#utility.yul\":24289:24300   */\n      mul\n        /* \"#utility.yul\":24283:24287   */\n      dup3\n        /* \"#utility.yul\":24280:24301   */\n      or\n        /* \"#utility.yul\":24272:24301   */\n      swap1\n      pop\n        /* \"#utility.yul\":24012:24307   */\n      swap3\n      swap2\n      pop\n      pop\n      jump\t// out\n        /* \"#utility.yul\":24312:25715   */\n    tag_137:\n        /* \"#utility.yul\":24436:24480   */\n      tag_604\n        /* \"#utility.yul\":24476:24479   */\n      dup4\n        /* \"#utility.yul\":24471:24474   */\n      dup4\n        /* \"#utility.yul\":24436:24480   */\n      tag_326\n      jump\t// in\n    tag_604:\n        /* \"#utility.yul\":24545:24563   */\n      0xffffffffffffffff\n        /* \"#utility.yul\":24537:24543   */\n      dup2\n        /* \"#utility.yul\":24534:24564   */\n      gt\n        /* \"#utility.yul\":24531:24587   */\n      iszero\n      tag_605\n      jumpi\n        /* \"#utility.yul\":24567:24585   */\n      tag_606\n      tag_205\n      jump\t// in\n    tag_606:\n        /* \"#utility.yul\":24531:24587   */\n    tag_605:\n        /* \"#utility.yul\":24611:24649   */\n      tag_607\n        /* \"#utility.yul\":24643:24647   */\n      dup3\n        /* \"#utility.yul\":24637:24648   */\n      sload\n        /* \"#utility.yul\":24611:24649   */\n      tag_183\n      jump\t// in\n    tag_607:\n        /* \"#utility.yul\":24696:24763   */\n      tag_608\n        /* \"#utility.yul\":24756:24762   */\n      dup3\n        /* \"#utility.yul\":24748:24754   */\n      dup3\n        /* \"#utility.yul\":24742:24746   */\n      dup6\n        /* \"#utility.yul\":24696:24763   */\n      tag_339\n      jump\t// in\n    tag_608:\n        /* \"#utility.yul\":24790:24791   */\n      0x00\n        /* \"#utility.yul\":24819:24821   */\n      0x1f\n        /* \"#utility.yul\":24811:24817   */\n      dup4\n        /* \"#utility.yul\":24808:24822   */\n      gt\n        /* \"#utility.yul\":24836:24837   */\n      0x01\n        /* \"#utility.yul\":24831:25463   */\n      dup2\n      eq\n      tag_610\n      jumpi\n        /* \"#utility.yul\":25507:25508   */\n      0x00\n        /* \"#utility.yul\":25524:25530   */\n      dup5\n        /* \"#utility.yul\":25521:25605   */\n      iszero\n      tag_611\n      jumpi\n        /* \"#utility.yul\":25580:25589   */\n      dup3\n        /* \"#utility.yul\":25575:25578   */\n      dup8\n        /* \"#utility.yul\":25571:25590   */\n      add\n        /* \"#utility.yul\":25558:25591   */\n      calldataload\n        /* \"#utility.yul\":25549:25591   */\n      swap1\n      pop\n        /* \"#utility.yul\":25521:25605   */\n    tag_611:\n        /* \"#utility.yul\":25631:25698   */\n      tag_612\n        /* \"#utility.yul\":25691:25697   */\n      dup6\n        /* \"#utility.yul\":25684:25689   */\n      dup3\n        /* \"#utility.yul\":25631:25698   */\n      tag_342\n      jump\t// in\n    tag_612:\n        /* \"#utility.yul\":25625:25629   */\n      dup7\n        /* \"#utility.yul\":25618:25699   */\n      sstore\n        /* \"#utility.yul\":25480:25709   */\n      pop\n        /* \"#utility.yul\":24801:25709   */\n      jump(tag_609)\n        /* \"#utility.yul\":24831:25463   */\n    tag_610:\n        /* \"#utility.yul\":24883:24887   */\n      0x1f\n        /* \"#utility.yul\":24879:24888   */\n      not\n        /* \"#utility.yul\":24871:24877   */\n      dup5\n        /* \"#utility.yul\":24867:24889   */\n      and\n        /* \"#utility.yul\":24917:24954   */\n      tag_613\n        /* \"#utility.yul\":24949:24953   */\n      dup7\n        /* \"#utility.yul\":24917:24954   */\n      tag_328\n      jump\t// in\n    tag_613:\n        /* \"#utility.yul\":24976:24977   */\n      0x00\n        /* \"#utility.yul\":24990:25205   */\n    tag_614:\n        /* \"#utility.yul\":25004:25011   */\n      dup3\n        /* \"#utility.yul\":25001:25002   */\n      dup2\n        /* \"#utility.yul\":24998:25012   */\n      lt\n        /* \"#utility.yul\":24990:25205   */\n      iszero\n      tag_616\n      jumpi\n        /* \"#utility.yul\":25090:25099   */\n      dup5\n        /* \"#utility.yul\":25085:25088   */\n      dup10\n        /* \"#utility.yul\":25081:25100   */\n      add\n        /* \"#utility.yul\":25068:25101   */\n      calldataload\n        /* \"#utility.yul\":25060:25066   */\n      dup3\n        /* \"#utility.yul\":25053:25102   */\n      sstore\n        /* \"#utility.yul\":25141:25142   */\n      0x01\n        /* \"#utility.yul\":25133:25139   */\n      dup3\n        /* \"#utility.yul\":25129:25143   */\n      add\n        /* \"#utility.yul\":25119:25143   */\n      swap2\n      pop\n        /* \"#utility.yul\":25188:25190   */\n      0x20\n        /* \"#utility.yul\":25177:25186   */\n      dup6\n        /* \"#utility.yul\":25173:25191   */\n      add\n        /* \"#utility.yul\":25160:25191   */\n      swap5\n      pop\n        /* \"#utility.yul\":25027:25031   */\n      0x20\n        /* \"#utility.yul\":25024:25025   */\n      dup2\n        /* \"#utility.yul\":25020:25032   */\n      add\n        /* \"#utility.yul\":25015:25032   */\n      swap1\n      pop\n        /* \"#utility.yul\":24990:25205   */\n      jump(tag_614)\n    tag_616:\n        /* \"#utility.yul\":25233:25239   */\n      dup7\n        /* \"#utility.yul\":25224:25231   */\n      dup4\n        /* \"#utility.yul\":25221:25240   */\n      lt\n        /* \"#utility.yul\":25218:25404   */\n      iszero\n      tag_617\n      jumpi\n        /* \"#utility.yul\":25298:25307   */\n      dup5\n        /* \"#utility.yul\":25293:25296   */\n      dup10\n        /* \"#utility.yul\":25289:25308   */\n      add\n        /* \"#utility.yul\":25276:25309   */\n      calldataload\n        /* \"#utility.yul\":25341:25389   */\n      tag_618\n        /* \"#utility.yul\":25383:25387   */\n      0x1f\n        /* \"#utility.yul\":25375:25381   */\n      dup10\n        /* \"#utility.yul\":25371:25388   */\n      and\n        /* \"#utility.yul\":25360:25369   */\n      dup3\n        /* \"#utility.yul\":25341:25389   */\n      tag_341\n      jump\t// in\n    tag_618:\n        /* \"#utility.yul\":25333:25339   */\n      dup4\n        /* \"#utility.yul\":25326:25390   */\n      sstore\n        /* \"#utility.yul\":25241:25404   */\n      pop\n        /* \"#utility.yul\":25218:25404   */\n    tag_617:\n        /* \"#utility.yul\":25450:25451   */\n      0x01\n        /* \"#utility.yul\":25446:25447   */\n      0x02\n        /* \"#utility.yul\":25438:25444   */\n      dup9\n        /* \"#utility.yul\":25434:25448   */\n      mul\n        /* \"#utility.yul\":25430:25452   */\n      add\n        /* \"#utility.yul\":25424:25428   */\n      dup9\n        /* \"#utility.yul\":25417:25453   */\n      sstore\n        /* \"#utility.yul\":24838:25463   */\n      pop\n      pop\n      pop\n        /* \"#utility.yul\":24801:25709   */\n    tag_609:\n      pop\n        /* \"#utility.yul\":24411:25715   */\n      pop\n      pop\n      pop\n        /* \"#utility.yul\":24312:25715   */\n      pop\n      pop\n      pop\n      jump\t// out\n        /* \"#utility.yul\":25721:25885   */\n    tag_343:\n        /* \"#utility.yul\":25861:25877   */\n      0x496e76616c696420737566666978000000000000000000000000000000000000\n        /* \"#utility.yul\":25857:25858   */\n      0x00\n        /* \"#utility.yul\":25849:25855   */\n      dup3\n        /* \"#utility.yul\":25845:25859   */\n      add\n        /* \"#utility.yul\":25838:25878   */\n      mstore\n        /* \"#utility.yul\":25721:25885   */\n      pop\n      jump\t// out\n        /* \"#utility.yul\":25891:26257   */\n    tag_344:\n        /* \"#utility.yul\":26033:26036   */\n      0x00\n        /* \"#utility.yul\":26054:26121   */\n      tag_621\n        /* \"#utility.yul\":26118:26120   */\n      0x0e\n        /* \"#utility.yul\":26113:26116   */\n      dup4\n        /* \"#utility.yul\":26054:26121   */\n      tag_314\n      jump\t// in\n    tag_621:\n        /* \"#utility.yul\":26047:26121   */\n      swap2\n      pop\n        /* \"#utility.yul\":26130:26223   */\n      tag_622\n        /* \"#utility.yul\":26219:26222   */\n      dup3\n        /* \"#utility.yul\":26130:26223   */\n      tag_343\n      jump\t// in\n    tag_622:\n        /* \"#utility.yul\":26248:26250   */\n      0x20\n        /* \"#utility.yul\":26243:26246   */\n      dup3\n        /* \"#utility.yul\":26239:26251   */\n      add\n        /* \"#utility.yul\":26232:26251   */\n      swap1\n      pop\n        /* \"#utility.yul\":25891:26257   */\n      swap2\n      swap1\n      pop\n      jump\t// out\n        /* \"#utility.yul\":26263:26682   */\n    tag_143:\n        /* \"#utility.yul\":26429:26433   */\n      0x00\n        /* \"#utility.yul\":26467:26469   */\n      0x20\n        /* \"#utility.yul\":26456:26465   */\n      dup3\n        /* \"#utility.yul\":26452:26470   */\n      add\n        /* \"#utility.yul\":26444:26470   */\n      swap1\n      pop\n        /* \"#utility.yul\":26516:26525   */\n      dup2\n        /* \"#utility.yul\":26510:26514   */\n      dup2\n        /* \"#utility.yul\":26506:26526   */\n      sub\n        /* \"#utility.yul\":26502:26503   */\n      0x00\n        /* \"#utility.yul\":26491:26500   */\n      dup4\n        /* \"#utility.yul\":26487:26504   */\n      add\n        /* \"#utility.yul\":26480:26527   */\n      mstore\n        /* \"#utility.yul\":26544:26675   */\n      tag_624\n        /* \"#utility.yul\":26670:26674   */\n      dup2\n        /* \"#utility.yul\":26544:26675   */\n      tag_344\n      jump\t// in\n    tag_624:\n        /* \"#utility.yul\":26536:26675   */\n      swap1\n      pop\n        /* \"#utility.yul\":26263:26682   */\n      swap2\n      swap1\n      pop\n      jump\t// out\n        /* \"#utility.yul\":26688:26918   */\n    tag_345:\n        /* \"#utility.yul\":26828:26862   */\n      0x4e616d652073686f756c64206265206265747765656e203120616e6420313520\n        /* \"#utility.yul\":26824:26825   */\n      0x00\n        /* \"#utility.yul\":26816:26822   */\n      dup3\n        /* \"#utility.yul\":26812:26826   */\n      add\n        /* \"#utility.yul\":26805:26863   */\n      mstore\n        /* \"#utility.yul\":26897:26910   */\n      0x636861726163746572732e000000000000000000000000000000000000000000\n        /* \"#utility.yul\":26892:26894   */\n      0x20\n        /* \"#utility.yul\":26884:26890   */\n      dup3\n        /* \"#utility.yul\":26880:26895   */\n      add\n        /* \"#utility.yul\":26873:26911   */\n      mstore\n        /* \"#utility.yul\":26688:26918   */\n      pop\n      jump\t// out\n        /* \"#utility.yul\":26924:27290   */\n    tag_346:\n        /* \"#utility.yul\":27066:27069   */\n      0x00\n        /* \"#utility.yul\":27087:27154   */\n      tag_627\n        /* \"#utility.yul\":27151:27153   */\n      0x2b\n        /* \"#utility.yul\":27146:27149   */\n      dup4\n        /* \"#utility.yul\":27087:27154   */\n      tag_314\n      jump\t// in\n    tag_627:\n        /* \"#utility.yul\":27080:27154   */\n      swap2\n      pop\n        /* \"#utility.yul\":27163:27256   */\n      tag_628\n        /* \"#utility.yul\":27252:27255   */\n      dup3\n        /* \"#utility.yul\":27163:27256   */\n      tag_345\n      jump\t// in\n    tag_628:\n        /* \"#utility.yul\":27281:27283   */\n      0x40\n        /* \"#utility.yul\":27276:27279   */\n      dup3\n        /* \"#utility.yul\":27272:27284   */\n      add\n        /* \"#utility.yul\":27265:27284   */\n      swap1\n      pop\n        /* \"#utility.yul\":26924:27290   */\n      swap2\n      swap1\n      pop\n      jump\t// out\n        /* \"#utility.yul\":27296:27715   */\n    tag_149:\n        /* \"#utility.yul\":27462:27466   */\n      0x00\n        /* \"#utility.yul\":27500:27502   */\n      0x20\n        /* \"#utility.yul\":27489:27498   */\n      dup3\n        /* \"#utility.yul\":27485:27503   */\n      add\n        /* \"#utility.yul\":27477:27503   */\n      swap1\n      pop\n        /* \"#utility.yul\":27549:27558   */\n      dup2\n        /* \"#utility.yul\":27543:27547   */\n      dup2\n        /* \"#utility.yul\":27539:27559   */\n      sub\n        /* \"#utility.yul\":27535:27536   */\n      0x00\n        /* \"#utility.yul\":27524:27533   */\n      dup4\n        /* \"#utility.yul\":27520:27537   */\n      add\n        /* \"#utility.yul\":27513:27560   */\n      mstore\n        /* \"#utility.yul\":27577:27708   */\n      tag_630\n        /* \"#utility.yul\":27703:27707   */\n      dup2\n        /* \"#utility.yul\":27577:27708   */\n      tag_346\n      jump\t// in\n    tag_630:\n        /* \"#utility.yul\":27569:27708   */\n      swap1\n      pop\n        /* \"#utility.yul\":27296:27715   */\n      swap2\n      swap1\n      pop\n      jump\t// out\n        /* \"#utility.yul\":27721:28176   */\n    tag_151:\n        /* \"#utility.yul\":27911:27914   */\n      0x00\n        /* \"#utility.yul\":27933:28028   */\n      tag_632\n        /* \"#utility.yul\":28024:28027   */\n      dup3\n        /* \"#utility.yul\":28015:28021   */\n      dup7\n        /* \"#utility.yul\":27933:28028   */\n      tag_313\n      jump\t// in\n    tag_632:\n        /* \"#utility.yul\":27926:28028   */\n      swap2\n      pop\n        /* \"#utility.yul\":28045:28150   */\n      tag_633\n        /* \"#utility.yul\":28146:28149   */\n      dup3\n        /* \"#utility.yul\":28137:28143   */\n      dup5\n        /* \"#utility.yul\":28129:28135   */\n      dup7\n        /* \"#utility.yul\":28045:28150   */\n      tag_320\n      jump\t// in\n    tag_633:\n        /* \"#utility.yul\":28038:28150   */\n      swap2\n      pop\n        /* \"#utility.yul\":28167:28170   */\n      dup2\n        /* \"#utility.yul\":28160:28170   */\n      swap1\n      pop\n        /* \"#utility.yul\":27721:28176   */\n      swap5\n      swap4\n      pop\n      pop\n      pop\n      pop\n      jump\t// out\n        /* \"#utility.yul\":28182:28411   */\n    tag_347:\n        /* \"#utility.yul\":28322:28356   */\n      0x446f6d61696e20697320616c7265616479206f776e6564206f72206e6f742079\n        /* \"#utility.yul\":28318:28319   */\n      0x00\n        /* \"#utility.yul\":28310:28316   */\n      dup3\n        /* \"#utility.yul\":28306:28320   */\n      add\n        /* \"#utility.yul\":28299:28357   */\n      mstore\n        /* \"#utility.yul\":28391:28403   */\n      0x6574206578706972656400000000000000000000000000000000000000000000\n        /* \"#utility.yul\":28386:28388   */\n      0x20\n        /* \"#utility.yul\":28378:28384   */\n      dup3\n        /* \"#utility.yul\":28374:28389   */\n      add\n        /* \"#utility.yul\":28367:28404   */\n      mstore\n        /* \"#utility.yul\":28182:28411   */\n      pop\n      jump\t// out\n        /* \"#utility.yul\":28417:28783   */\n    tag_348:\n        /* \"#utility.yul\":28559:28562   */\n      0x00\n        /* \"#utility.yul\":28580:28647   */\n      tag_636\n        /* \"#utility.yul\":28644:28646   */\n      0x2a\n        /* \"#utility.yul\":28639:28642   */\n      dup4\n        /* \"#utility.yul\":28580:28647   */\n      tag_314\n      jump\t// in\n    tag_636:\n        /* \"#utility.yul\":28573:28647   */\n      swap2\n      pop\n        /* \"#utility.yul\":28656:28749   */\n      tag_637\n        /* \"#utility.yul\":28745:28748   */\n      dup3\n        /* \"#utility.yul\":28656:28749   */\n      tag_347\n      jump\t// in\n    tag_637:\n        /* \"#utility.yul\":28774:28776   */\n      0x40\n        /* \"#utility.yul\":28769:28772   */\n      dup3\n        /* \"#utility.yul\":28765:28777   */\n      add\n        /* \"#utility.yul\":28758:28777   */\n      swap1\n      pop\n        /* \"#utility.yul\":28417:28783   */\n      swap2\n      swap1\n      pop\n      jump\t// out\n        /* \"#utility.yul\":28789:29208   */\n    tag_157:\n        /* \"#utility.yul\":28955:28959   */\n      0x00\n        /* \"#utility.yul\":28993:28995   */\n      0x20\n        /* \"#utility.yul\":28982:28991   */\n      dup3\n        /* \"#utility.yul\":28978:28996   */\n      add\n        /* \"#utility.yul\":28970:28996   */\n      swap1\n      pop\n        /* \"#utility.yul\":29042:29051   */\n      dup2\n        /* \"#utility.yul\":29036:29040   */\n      dup2\n        /* \"#utility.yul\":29032:29052   */\n      sub\n        /* \"#utility.yul\":29028:29029   */\n      0x00\n        /* \"#utility.yul\":29017:29026   */\n      dup4\n        /* \"#utility.yul\":29013:29030   */\n      add\n        /* \"#utility.yul\":29006:29053   */\n      mstore\n        /* \"#utility.yul\":29070:29201   */\n      tag_639\n        /* \"#utility.yul\":29196:29200   */\n      dup2\n        /* \"#utility.yul\":29070:29201   */\n      tag_348\n      jump\t// in\n    tag_639:\n        /* \"#utility.yul\":29062:29201   */\n      swap1\n      pop\n        /* \"#utility.yul\":28789:29208   */\n      swap2\n      swap1\n      pop\n      jump\t// out\n        /* \"#utility.yul\":29214:29503   */\n    tag_349:\n        /* \"#utility.yul\":29354:29388   */\n      0x496e73756666696369656e742066756e647320746f2072656769737465722074\n        /* \"#utility.yul\":29350:29351   */\n      0x00\n        /* \"#utility.yul\":29342:29348   */\n      dup3\n        /* \"#utility.yul\":29338:29352   */\n      add\n        /* \"#utility.yul\":29331:29389   */\n      mstore\n        /* \"#utility.yul\":29423:29457   */\n      0x686520646f6d61696e20666f7220746865207370656369666965642079656172\n        /* \"#utility.yul\":29418:29420   */\n      0x20\n        /* \"#utility.yul\":29410:29416   */\n      dup3\n        /* \"#utility.yul\":29406:29421   */\n      add\n        /* \"#utility.yul\":29399:29458   */\n      mstore\n        /* \"#utility.yul\":29492:29495   */\n      0x7300000000000000000000000000000000000000000000000000000000000000\n        /* \"#utility.yul\":29487:29489   */\n      0x40\n        /* \"#utility.yul\":29479:29485   */\n      dup3\n        /* \"#utility.yul\":29475:29490   */\n      add\n        /* \"#utility.yul\":29468:29496   */\n      mstore\n        /* \"#utility.yul\":29214:29503   */\n      pop\n      jump\t// out\n        /* \"#utility.yul\":29509:29875   */\n    tag_350:\n        /* \"#utility.yul\":29651:29654   */\n      0x00\n        /* \"#utility.yul\":29672:29739   */\n      tag_642\n        /* \"#utility.yul\":29736:29738   */\n      0x41\n        /* \"#utility.yul\":29731:29734   */\n      dup4\n        /* \"#utility.yul\":29672:29739   */\n      tag_314\n      jump\t// in\n    tag_642:\n        /* \"#utility.yul\":29665:29739   */\n      swap2\n      pop\n        /* \"#utility.yul\":29748:29841   */\n      tag_643\n        /* \"#utility.yul\":29837:29840   */\n      dup3\n        /* \"#utility.yul\":29748:29841   */\n      tag_349\n      jump\t// in\n    tag_643:\n        /* \"#utility.yul\":29866:29868   */\n      0x60\n        /* \"#utility.yul\":29861:29864   */\n      dup3\n        /* \"#utility.yul\":29857:29869   */\n      add\n        /* \"#utility.yul\":29850:29869   */\n      swap1\n      pop\n        /* \"#utility.yul\":29509:29875   */\n      swap2\n      swap1\n      pop\n      jump\t// out\n        /* \"#utility.yul\":29881:30300   */\n    tag_165:\n        /* \"#utility.yul\":30047:30051   */\n      0x00\n        /* \"#utility.yul\":30085:30087   */\n      0x20\n        /* \"#utility.yul\":30074:30083   */\n      dup3\n        /* \"#utility.yul\":30070:30088   */\n      add\n        /* \"#utility.yul\":30062:30088   */\n      swap1\n      pop\n        /* \"#utility.yul\":30134:30143   */\n      dup2\n        /* \"#utility.yul\":30128:30132   */\n      dup2\n        /* \"#utility.yul\":30124:30144   */\n      sub\n        /* \"#utility.yul\":30120:30121   */\n      0x00\n        /* \"#utility.yul\":30109:30118   */\n      dup4\n        /* \"#utility.yul\":30105:30122   */\n      add\n        /* \"#utility.yul\":30098:30145   */\n      mstore\n        /* \"#utility.yul\":30162:30293   */\n      tag_645\n        /* \"#utility.yul\":30288:30292   */\n      dup2\n        /* \"#utility.yul\":30162:30293   */\n      tag_350\n      jump\t// in\n    tag_645:\n        /* \"#utility.yul\":30154:30293   */\n      swap1\n      pop\n        /* \"#utility.yul\":29881:30300   */\n      swap2\n      swap1\n      pop\n      jump\t// out\n        /* \"#utility.yul\":30306:31701   */\n    tag_171:\n        /* \"#utility.yul\":30423:30460   */\n      tag_647\n        /* \"#utility.yul\":30456:30459   */\n      dup3\n        /* \"#utility.yul\":30423:30460   */\n      tag_305\n      jump\t// in\n    tag_647:\n        /* \"#utility.yul\":30525:30543   */\n      0xffffffffffffffff\n        /* \"#utility.yul\":30517:30523   */\n      dup2\n        /* \"#utility.yul\":30514:30544   */\n      gt\n        /* \"#utility.yul\":30511:30567   */\n      iszero\n      tag_648\n      jumpi\n        /* \"#utility.yul\":30547:30565   */\n      tag_649\n      tag_205\n      jump\t// in\n    tag_649:\n        /* \"#utility.yul\":30511:30567   */\n    tag_648:\n        /* \"#utility.yul\":30591:30629   */\n      tag_650\n        /* \"#utility.yul\":30623:30627   */\n      dup3\n        /* \"#utility.yul\":30617:30628   */\n      sload\n        /* \"#utility.yul\":30591:30629   */\n      tag_183\n      jump\t// in\n    tag_650:\n        /* \"#utility.yul\":30676:30743   */\n      tag_651\n        /* \"#utility.yul\":30736:30742   */\n      dup3\n        /* \"#utility.yul\":30728:30734   */\n      dup3\n        /* \"#utility.yul\":30722:30726   */\n      dup6\n        /* \"#utility.yul\":30676:30743   */\n      tag_339\n      jump\t// in\n    tag_651:\n        /* \"#utility.yul\":30770:30771   */\n      0x00\n        /* \"#utility.yul\":30794:30798   */\n      0x20\n        /* \"#utility.yul\":30781:30798   */\n      swap1\n      pop\n        /* \"#utility.yul\":30826:30828   */\n      0x1f\n        /* \"#utility.yul\":30818:30824   */\n      dup4\n        /* \"#utility.yul\":30815:30829   */\n      gt\n        /* \"#utility.yul\":30843:30844   */\n      0x01\n        /* \"#utility.yul\":30838:31456   */\n      dup2\n      eq\n      tag_653\n      jumpi\n        /* \"#utility.yul\":31500:31501   */\n      0x00\n        /* \"#utility.yul\":31517:31523   */\n      dup5\n        /* \"#utility.yul\":31514:31591   */\n      iszero\n      tag_654\n      jumpi\n        /* \"#utility.yul\":31566:31575   */\n      dup3\n        /* \"#utility.yul\":31561:31564   */\n      dup8\n        /* \"#utility.yul\":31557:31576   */\n      add\n        /* \"#utility.yul\":31551:31577   */\n      mload\n        /* \"#utility.yul\":31542:31577   */\n      swap1\n      pop\n        /* \"#utility.yul\":31514:31591   */\n    tag_654:\n        /* \"#utility.yul\":31617:31684   */\n      tag_655\n        /* \"#utility.yul\":31677:31683   */\n      dup6\n        /* \"#utility.yul\":31670:31675   */\n      dup3\n        /* \"#utility.yul\":31617:31684   */\n      tag_342\n      jump\t// in\n    tag_655:\n        /* \"#utility.yul\":31611:31615   */\n      dup7\n        /* \"#utility.yul\":31604:31685   */\n      sstore\n        /* \"#utility.yul\":31473:31695   */\n      pop\n        /* \"#utility.yul\":30808:31695   */\n      jump(tag_652)\n        /* \"#utility.yul\":30838:31456   */\n    tag_653:\n        /* \"#utility.yul\":30890:30894   */\n      0x1f\n        /* \"#utility.yul\":30886:30895   */\n      not\n        /* \"#utility.yul\":30878:30884   */\n      dup5\n        /* \"#utility.yul\":30874:30896   */\n      and\n        /* \"#utility.yul\":30924:30961   */\n      tag_656\n        /* \"#utility.yul\":30956:30960   */\n      dup7\n        /* \"#utility.yul\":30924:30961   */\n      tag_328\n      jump\t// in\n    tag_656:\n        /* \"#utility.yul\":30983:30984   */\n      0x00\n        /* \"#utility.yul\":30997:31205   */\n    tag_657:\n        /* \"#utility.yul\":31011:31018   */\n      dup3\n        /* \"#utility.yul\":31008:31009   */\n      dup2\n        /* \"#utility.yul\":31005:31019   */\n      lt\n        /* \"#utility.yul\":30997:31205   */\n      iszero\n      tag_659\n      jumpi\n        /* \"#utility.yul\":31090:31099   */\n      dup5\n        /* \"#utility.yul\":31085:31088   */\n      dup10\n        /* \"#utility.yul\":31081:31100   */\n      add\n        /* \"#utility.yul\":31075:31101   */\n      mload\n        /* \"#utility.yul\":31067:31073   */\n      dup3\n        /* \"#utility.yul\":31060:31102   */\n      sstore\n        /* \"#utility.yul\":31141:31142   */\n      0x01\n        /* \"#utility.yul\":31133:31139   */\n      dup3\n        /* \"#utility.yul\":31129:31143   */\n      add\n        /* \"#utility.yul\":31119:31143   */\n      swap2\n      pop\n        /* \"#utility.yul\":31188:31190   */\n      0x20\n        /* \"#utility.yul\":31177:31186   */\n      dup6\n        /* \"#utility.yul\":31173:31191   */\n      add\n        /* \"#utility.yul\":31160:31191   */\n      swap5\n      pop\n        /* \"#utility.yul\":31034:31038   */\n      0x20\n        /* \"#utility.yul\":31031:31032   */\n      dup2\n        /* \"#utility.yul\":31027:31039   */\n      add\n        /* \"#utility.yul\":31022:31039   */\n      swap1\n      pop\n        /* \"#utility.yul\":30997:31205   */\n      jump(tag_657)\n    tag_659:\n        /* \"#utility.yul\":31233:31239   */\n      dup7\n        /* \"#utility.yul\":31224:31231   */\n      dup4\n        /* \"#utility.yul\":31221:31240   */\n      lt\n        /* \"#utility.yul\":31218:31397   */\n      iszero\n      tag_660\n      jumpi\n        /* \"#utility.yul\":31291:31300   */\n      dup5\n        /* \"#utility.yul\":31286:31289   */\n      dup10\n        /* \"#utility.yul\":31282:31301   */\n      add\n        /* \"#utility.yul\":31276:31302   */\n      mload\n        /* \"#utility.yul\":31334:31382   */\n      tag_661\n        /* \"#utility.yul\":31376:31380   */\n      0x1f\n        /* \"#utility.yul\":31368:31374   */\n      dup10\n        /* \"#utility.yul\":31364:31381   */\n      and\n        /* \"#utility.yul\":31353:31362   */\n      dup3\n        /* \"#utility.yul\":31334:31382   */\n      tag_341\n      jump\t// in\n    tag_661:\n        /* \"#utility.yul\":31326:31332   */\n      dup4\n        /* \"#utility.yul\":31319:31383   */\n      sstore\n        /* \"#utility.yul\":31241:31397   */\n      pop\n        /* \"#utility.yul\":31218:31397   */\n    tag_660:\n        /* \"#utility.yul\":31443:31444   */\n      0x01\n        /* \"#utility.yul\":31439:31440   */\n      0x02\n        /* \"#utility.yul\":31431:31437   */\n      dup9\n        /* \"#utility.yul\":31427:31441   */\n      mul\n        /* \"#utility.yul\":31423:31445   */\n      add\n        /* \"#utility.yul\":31417:31421   */\n      dup9\n        /* \"#utility.yul\":31410:31446   */\n      sstore\n        /* \"#utility.yul\":30845:31456   */\n      pop\n      pop\n      pop\n        /* \"#utility.yul\":30808:31695   */\n    tag_652:\n      pop\n        /* \"#utility.yul\":30398:31701   */\n      pop\n      pop\n      pop\n        /* \"#utility.yul\":30306:31701   */\n      pop\n      pop\n      jump\t// out\n        /* \"#utility.yul\":31707:32084   */\n    tag_351:\n        /* \"#utility.yul\":31795:31798   */\n      0x00\n        /* \"#utility.yul\":31823:31862   */\n      tag_663\n        /* \"#utility.yul\":31856:31861   */\n      dup3\n        /* \"#utility.yul\":31823:31862   */\n      tag_305\n      jump\t// in\n    tag_663:\n        /* \"#utility.yul\":31878:31949   */\n      tag_664\n        /* \"#utility.yul\":31942:31948   */\n      dup2\n        /* \"#utility.yul\":31937:31940   */\n      dup6\n        /* \"#utility.yul\":31878:31949   */\n      tag_314\n      jump\t// in\n    tag_664:\n        /* \"#utility.yul\":31871:31949   */\n      swap4\n      pop\n        /* \"#utility.yul\":31958:32023   */\n      tag_665\n        /* \"#utility.yul\":32016:32022   */\n      dup2\n        /* \"#utility.yul\":32011:32014   */\n      dup6\n        /* \"#utility.yul\":32004:32008   */\n      0x20\n        /* \"#utility.yul\":31997:32002   */\n      dup7\n        /* \"#utility.yul\":31993:32009   */\n      add\n        /* \"#utility.yul\":31958:32023   */\n      tag_307\n      jump\t// in\n    tag_665:\n        /* \"#utility.yul\":32048:32077   */\n      tag_666\n        /* \"#utility.yul\":32070:32076   */\n      dup2\n        /* \"#utility.yul\":32048:32077   */\n      tag_281\n      jump\t// in\n    tag_666:\n        /* \"#utility.yul\":32043:32046   */\n      dup5\n        /* \"#utility.yul\":32039:32078   */\n      add\n        /* \"#utility.yul\":32032:32078   */\n      swap2\n      pop\n        /* \"#utility.yul\":31799:32084   */\n      pop\n        /* \"#utility.yul\":31707:32084   */\n      swap3\n      swap2\n      pop\n      pop\n      jump\t// out\n        /* \"#utility.yul\":32090:32623   */\n    tag_173:\n        /* \"#utility.yul\":32259:32263   */\n      0x00\n        /* \"#utility.yul\":32297:32299   */\n      0x60\n        /* \"#utility.yul\":32286:32295   */\n      dup3\n        /* \"#utility.yul\":32282:32300   */\n      add\n        /* \"#utility.yul\":32274:32300   */\n      swap1\n      pop\n        /* \"#utility.yul\":32346:32355   */\n      dup2\n        /* \"#utility.yul\":32340:32344   */\n      dup2\n        /* \"#utility.yul\":32336:32356   */\n      sub\n        /* \"#utility.yul\":32332:32333   */\n      0x00\n        /* \"#utility.yul\":32321:32330   */\n      dup4\n        /* \"#utility.yul\":32317:32334   */\n      add\n        /* \"#utility.yul\":32310:32357   */\n      mstore\n        /* \"#utility.yul\":32374:32452   */\n      tag_668\n        /* \"#utility.yul\":32447:32451   */\n      dup2\n        /* \"#utility.yul\":32438:32444   */\n      dup7\n        /* \"#utility.yul\":32374:32452   */\n      tag_351\n      jump\t// in\n    tag_668:\n        /* \"#utility.yul\":32366:32452   */\n      swap1\n      pop\n        /* \"#utility.yul\":32462:32534   */\n      tag_669\n        /* \"#utility.yul\":32530:32532   */\n      0x20\n        /* \"#utility.yul\":32519:32528   */\n      dup4\n        /* \"#utility.yul\":32515:32533   */\n      add\n        /* \"#utility.yul\":32506:32512   */\n      dup6\n        /* \"#utility.yul\":32462:32534   */\n      tag_299\n      jump\t// in\n    tag_669:\n        /* \"#utility.yul\":32544:32616   */\n      tag_670\n        /* \"#utility.yul\":32612:32614   */\n      0x40\n        /* \"#utility.yul\":32601:32610   */\n      dup4\n        /* \"#utility.yul\":32597:32615   */\n      add\n        /* \"#utility.yul\":32588:32594   */\n      dup5\n        /* \"#utility.yul\":32544:32616   */\n      tag_289\n      jump\t// in\n    tag_670:\n        /* \"#utility.yul\":32090:32623   */\n      swap5\n      swap4\n      pop\n      pop\n      pop\n      pop\n      jump\t// out\n        /* \"#utility.yul\":32629:32809   */\n    tag_195:\n        /* \"#utility.yul\":32677:32754   */\n      0x4e487b7100000000000000000000000000000000000000000000000000000000\n        /* \"#utility.yul\":32674:32675   */\n      0x00\n        /* \"#utility.yul\":32667:32755   */\n      mstore\n        /* \"#utility.yul\":32774:32778   */\n      0x32\n        /* \"#utility.yul\":32771:32772   */\n      0x04\n        /* \"#utility.yul\":32764:32779   */\n      mstore\n        /* \"#utility.yul\":32798:32802   */\n      0x24\n        /* \"#utility.yul\":32795:32796   */\n      0x00\n        /* \"#utility.yul\":32788:32803   */\n      revert\n        /* \"#utility.yul\":32815:32986   */\n    tag_198:\n        /* \"#utility.yul\":32854:32857   */\n      0x00\n        /* \"#utility.yul\":32877:32901   */\n      tag_673\n        /* \"#utility.yul\":32895:32900   */\n      dup3\n        /* \"#utility.yul\":32877:32901   */\n      tag_288\n      jump\t// in\n    tag_673:\n        /* \"#utility.yul\":32868:32901   */\n      swap2\n      pop\n        /* \"#utility.yul\":32923:32927   */\n      0x00\n        /* \"#utility.yul\":32916:32921   */\n      dup3\n        /* \"#utility.yul\":32913:32928   */\n      sub\n        /* \"#utility.yul\":32910:32951   */\n      tag_674\n      jumpi\n        /* \"#utility.yul\":32931:32949   */\n      tag_675\n      tag_317\n      jump\t// in\n    tag_675:\n        /* \"#utility.yul\":32910:32951   */\n    tag_674:\n        /* \"#utility.yul\":32978:32979   */\n      0x01\n        /* \"#utility.yul\":32971:32976   */\n      dup3\n        /* \"#utility.yul\":32967:32980   */\n      sub\n        /* \"#utility.yul\":32960:32980   */\n      swap1\n      pop\n        /* \"#utility.yul\":32815:32986   */\n      swap2\n      swap1\n      pop\n      jump\t// out\n        /* \"#utility.yul\":32992:33157   */\n    tag_352:\n        /* \"#utility.yul\":33132:33149   */\n      0x4e6f2073756666697820666f756e640000000000000000000000000000000000\n        /* \"#utility.yul\":33128:33129   */\n      0x00\n        /* \"#utility.yul\":33120:33126   */\n      dup3\n        /* \"#utility.yul\":33116:33130   */\n      add\n        /* \"#utility.yul\":33109:33150   */\n      mstore\n        /* \"#utility.yul\":32992:33157   */\n      pop\n      jump\t// out\n        /* \"#utility.yul\":33163:33529   */\n    tag_353:\n        /* \"#utility.yul\":33305:33308   */\n      0x00\n        /* \"#utility.yul\":33326:33393   */\n      tag_678\n        /* \"#utility.yul\":33390:33392   */\n      0x0f\n        /* \"#utility.yul\":33385:33388   */\n      dup4\n        /* \"#utility.yul\":33326:33393   */\n      tag_314\n      jump\t// in\n    tag_678:\n        /* \"#utility.yul\":33319:33393   */\n      swap2\n      pop\n        /* \"#utility.yul\":33402:33495   */\n      tag_679\n        /* \"#utility.yul\":33491:33494   */\n      dup3\n        /* \"#utility.yul\":33402:33495   */\n      tag_352\n      jump\t// in\n    tag_679:\n        /* \"#utility.yul\":33520:33522   */\n      0x20\n        /* \"#utility.yul\":33515:33518   */\n      dup3\n        /* \"#utility.yul\":33511:33523   */\n      add\n        /* \"#utility.yul\":33504:33523   */\n      swap1\n      pop\n        /* \"#utility.yul\":33163:33529   */\n      swap2\n      swap1\n      pop\n      jump\t// out\n        /* \"#utility.yul\":33535:33954   */\n    tag_200:\n        /* \"#utility.yul\":33701:33705   */\n      0x00\n        /* \"#utility.yul\":33739:33741   */\n      0x20\n        /* \"#utility.yul\":33728:33737   */\n      dup3\n        /* \"#utility.yul\":33724:33742   */\n      add\n        /* \"#utility.yul\":33716:33742   */\n      swap1\n      pop\n        /* \"#utility.yul\":33788:33797   */\n      dup2\n        /* \"#utility.yul\":33782:33786   */\n      dup2\n        /* \"#utility.yul\":33778:33798   */\n      sub\n        /* \"#utility.yul\":33774:33775   */\n      0x00\n        /* \"#utility.yul\":33763:33772   */\n      dup4\n        /* \"#utility.yul\":33759:33776   */\n      add\n        /* \"#utility.yul\":33752:33799   */\n      mstore\n        /* \"#utility.yul\":33816:33947   */\n      tag_681\n        /* \"#utility.yul\":33942:33946   */\n      dup2\n        /* \"#utility.yul\":33816:33947   */\n      tag_353\n      jump\t// in\n    tag_681:\n        /* \"#utility.yul\":33808:33947   */\n      swap1\n      pop\n        /* \"#utility.yul\":33535:33954   */\n      swap2\n      swap1\n      pop\n      jump\t// out\n        /* \"#utility.yul\":33960:34193   */\n    tag_216:\n        /* \"#utility.yul\":33999:34002   */\n      0x00\n        /* \"#utility.yul\":34022:34046   */\n      tag_683\n        /* \"#utility.yul\":34040:34045   */\n      dup3\n        /* \"#utility.yul\":34022:34046   */\n      tag_288\n      jump\t// in\n    tag_683:\n        /* \"#utility.yul\":34013:34046   */\n      swap2\n      pop\n        /* \"#utility.yul\":34068:34134   */\n      0xffffffffffffffffffffffffffffffffffffffffffffffffffffffffffffffff\n        /* \"#utility.yul\":34061:34066   */\n      dup3\n        /* \"#utility.yul\":34058:34135   */\n      sub\n        /* \"#utility.yul\":34055:34158   */\n      tag_684\n      jumpi\n        /* \"#utility.yul\":34138:34156   */\n      tag_685\n      tag_317\n      jump\t// in\n    tag_685:\n        /* \"#utility.yul\":34055:34158   */\n    tag_684:\n        /* \"#utility.yul\":34185:34186   */\n      0x01\n        /* \"#utility.yul\":34178:34183   */\n      dup3\n        /* \"#utility.yul\":34174:34187   */\n      add\n        /* \"#utility.yul\":34167:34187   */\n      swap1\n      pop\n        /* \"#utility.yul\":33960:34193   */\n      swap2\n      swap1\n      pop\n      jump\t// out\n        /* \"#utility.yul\":34223:35097   */\n    tag_354:\n        /* \"#utility.yul\":34326:34329   */\n      0x00\n        /* \"#utility.yul\":34363:34368   */\n      dup2\n        /* \"#utility.yul\":34357:34369   */\n      sload\n        /* \"#utility.yul\":34392:34428   */\n      tag_687\n        /* \"#utility.yul\":34418:34427   */\n      dup2\n        /* \"#utility.yul\":34392:34428   */\n      tag_183\n      jump\t// in\n    tag_687:\n        /* \"#utility.yul\":34444:34533   */\n      tag_688\n        /* \"#utility.yul\":34526:34532   */\n      dup2\n        /* \"#utility.yul\":34521:34524   */\n      dup7\n        /* \"#utility.yul\":34444:34533   */\n      tag_312\n      jump\t// in\n    tag_688:\n        /* \"#utility.yul\":34437:34533   */\n      swap5\n      pop\n        /* \"#utility.yul\":34564:34565   */\n      0x01\n        /* \"#utility.yul\":34553:34562   */\n      dup3\n        /* \"#utility.yul\":34549:34566   */\n      and\n        /* \"#utility.yul\":34580:34581   */\n      0x00\n        /* \"#utility.yul\":34575:34741   */\n      dup2\n      eq\n      tag_690\n      jumpi\n        /* \"#utility.yul\":34755:34756   */\n      0x01\n        /* \"#utility.yul\":34750:35091   */\n      dup2\n      eq\n      tag_691\n      jumpi\n        /* \"#utility.yul\":34542:35091   */\n      jump(tag_689)\n        /* \"#utility.yul\":34575:34741   */\n    tag_690:\n        /* \"#utility.yul\":34659:34663   */\n      0xff\n        /* \"#utility.yul\":34655:34664   */\n      not\n        /* \"#utility.yul\":34644:34653   */\n      dup4\n        /* \"#utility.yul\":34640:34665   */\n      and\n        /* \"#utility.yul\":34635:34638   */\n      dup7\n        /* \"#utility.yul\":34628:34666   */\n      mstore\n        /* \"#utility.yul\":34721:34727   */\n      dup2\n        /* \"#utility.yul\":34714:34728   */\n      iszero\n        /* \"#utility.yul\":34707:34729   */\n      iszero\n        /* \"#utility.yul\":34699:34705   */\n      dup3\n        /* \"#utility.yul\":34695:34730   */\n      mul\n        /* \"#utility.yul\":34690:34693   */\n      dup7\n        /* \"#utility.yul\":34686:34731   */\n      add\n        /* \"#utility.yul\":34679:34731   */\n      swap4\n      pop\n        /* \"#utility.yul\":34575:34741   */\n      jump(tag_689)\n        /* \"#utility.yul\":34750:35091   */\n    tag_691:\n        /* \"#utility.yul\":34817:34855   */\n      tag_692\n        /* \"#utility.yul\":34849:34854   */\n      dup6\n        /* \"#utility.yul\":34817:34855   */\n      tag_328\n      jump\t// in\n    tag_692:\n        /* \"#utility.yul\":34877:34878   */\n      0x00\n        /* \"#utility.yul\":34891:35045   */\n    tag_693:\n        /* \"#utility.yul\":34905:34911   */\n      dup4\n        /* \"#utility.yul\":34902:34903   */\n      dup2\n        /* \"#utility.yul\":34899:34912   */\n      lt\n        /* \"#utility.yul\":34891:35045   */\n      iszero\n      tag_695\n      jumpi\n        /* \"#utility.yul\":34979:34986   */\n      dup2\n        /* \"#utility.yul\":34973:34987   */\n      sload\n        /* \"#utility.yul\":34969:34970   */\n      dup2\n        /* \"#utility.yul\":34964:34967   */\n      dup10\n        /* \"#utility.yul\":34960:34971   */\n      add\n        /* \"#utility.yul\":34953:34988   */\n      mstore\n        /* \"#utility.yul\":35029:35030   */\n      0x01\n        /* \"#utility.yul\":35020:35027   */\n      dup3\n        /* \"#utility.yul\":35016:35031   */\n      add\n        /* \"#utility.yul\":35005:35031   */\n      swap2\n      pop\n        /* \"#utility.yul\":34927:34931   */\n      0x20\n        /* \"#utility.yul\":34924:34925   */\n      dup2\n        /* \"#utility.yul\":34920:34932   */\n      add\n        /* \"#utility.yul\":34915:34932   */\n      swap1\n      pop\n        /* \"#utility.yul\":34891:35045   */\n      jump(tag_693)\n    tag_695:\n        /* \"#utility.yul\":35074:35080   */\n      dup4\n        /* \"#utility.yul\":35069:35072   */\n      dup9\n        /* \"#utility.yul\":35065:35081   */\n      add\n        /* \"#utility.yul\":35058:35081   */\n      swap6\n      pop\n        /* \"#utility.yul\":34757:35091   */\n      pop\n      pop\n        /* \"#utility.yul\":34542:35091   */\n    tag_689:\n      pop\n        /* \"#utility.yul\":34330:35097   */\n      pop\n      pop\n        /* \"#utility.yul\":34223:35097   */\n      swap3\n      swap2\n      pop\n      pop\n      jump\t// out\n        /* \"#utility.yul\":35103:35372   */\n    tag_226:\n        /* \"#utility.yul\":35232:35235   */\n      0x00\n        /* \"#utility.yul\":35254:35346   */\n      tag_697\n        /* \"#utility.yul\":35342:35345   */\n      dup3\n        /* \"#utility.yul\":35333:35339   */\n      dup5\n        /* \"#utility.yul\":35254:35346   */\n      tag_354\n      jump\t// in\n    tag_697:\n        /* \"#utility.yul\":35247:35346   */\n      swap2\n      pop\n        /* \"#utility.yul\":35363:35366   */\n      dup2\n        /* \"#utility.yul\":35356:35366   */\n      swap1\n      pop\n        /* \"#utility.yul\":35103:35372   */\n      swap3\n      swap2\n      pop\n      pop\n      jump\t// out\n        /* \"#utility.yul\":35378:35531   */\n    tag_355:\n        /* \"#utility.yul\":35431:35437   */\n      0x00\n        /* \"#utility.yul\":35465:35470   */\n      dup2\n        /* \"#utility.yul\":35459:35471   */\n      sload\n        /* \"#utility.yul\":35449:35471   */\n      swap1\n      pop\n        /* \"#utility.yul\":35491:35524   */\n      tag_699\n        /* \"#utility.yul\":35517:35523   */\n      dup2\n        /* \"#utility.yul\":35491:35524   */\n      tag_183\n      jump\t// in\n    tag_699:\n        /* \"#utility.yul\":35481:35524   */\n      swap1\n      pop\n        /* \"#utility.yul\":35378:35531   */\n      swap2\n      swap1\n      pop\n      jump\t// out\n        /* \"#utility.yul\":35537:35682   */\n    tag_356:\n        /* \"#utility.yul\":35590:35594   */\n      0x00\n        /* \"#utility.yul\":35613:35616   */\n      dup2\n        /* \"#utility.yul\":35605:35616   */\n      swap1\n      pop\n        /* \"#utility.yul\":35636:35639   */\n      dup2\n        /* \"#utility.yul\":35633:35634   */\n      0x00\n        /* \"#utility.yul\":35626:35640   */\n      mstore\n        /* \"#utility.yul\":35670:35674   */\n      0x20\n        /* \"#utility.yul\":35667:35668   */\n      0x00\n        /* \"#utility.yul\":35657:35675   */\n      keccak256\n        /* \"#utility.yul\":35649:35675   */\n      swap1\n      pop\n        /* \"#utility.yul\":35537:35682   */\n      swap2\n      swap1\n      pop\n      jump\t// out\n        /* \"#utility.yul\":35688:37151   */\n    tag_236:\n        /* \"#utility.yul\":35803:35806   */\n      dup2\n        /* \"#utility.yul\":35797:35801   */\n      dup2\n        /* \"#utility.yul\":35794:35807   */\n      sub\n        /* \"#utility.yul\":35791:35817   */\n      tag_702\n      jumpi\n        /* \"#utility.yul\":35810:35815   */\n      pop\n      pop\n      jump(tag_701)\n        /* \"#utility.yul\":35791:35817   */\n    tag_702:\n        /* \"#utility.yul\":35841:35879   */\n      tag_703\n        /* \"#utility.yul\":35875:35878   */\n      dup3\n        /* \"#utility.yul\":35841:35879   */\n      tag_355\n      jump\t// in\n    tag_703:\n        /* \"#utility.yul\":35944:35962   */\n      0xffffffffffffffff\n        /* \"#utility.yul\":35936:35942   */\n      dup2\n        /* \"#utility.yul\":35933:35963   */\n      gt\n        /* \"#utility.yul\":35930:35986   */\n      iszero\n      tag_704\n      jumpi\n        /* \"#utility.yul\":35966:35984   */\n      tag_705\n      tag_205\n      jump\t// in\n    tag_705:\n        /* \"#utility.yul\":35930:35986   */\n    tag_704:\n        /* \"#utility.yul\":36010:36048   */\n      tag_706\n        /* \"#utility.yul\":36042:36046   */\n      dup3\n        /* \"#utility.yul\":36036:36047   */\n      sload\n        /* \"#utility.yul\":36010:36048   */\n      tag_183\n      jump\t// in\n    tag_706:\n        /* \"#utility.yul\":36095:36162   */\n      tag_707\n        /* \"#utility.yul\":36155:36161   */\n      dup3\n        /* \"#utility.yul\":36147:36153   */\n      dup3\n        /* \"#utility.yul\":36141:36145   */\n      dup6\n        /* \"#utility.yul\":36095:36162   */\n      tag_339\n      jump\t// in\n    tag_707:\n        /* \"#utility.yul\":36189:36190   */\n      0x00\n        /* \"#utility.yul\":36218:36220   */\n      0x1f\n        /* \"#utility.yul\":36210:36216   */\n      dup4\n        /* \"#utility.yul\":36207:36221   */\n      gt\n        /* \"#utility.yul\":36235:36236   */\n      0x01\n        /* \"#utility.yul\":36230:36906   */\n      dup2\n      eq\n      tag_709\n      jumpi\n        /* \"#utility.yul\":36950:36951   */\n      0x00\n        /* \"#utility.yul\":36967:36973   */\n      dup5\n        /* \"#utility.yul\":36964:37041   */\n      iszero\n      tag_710\n      jumpi\n        /* \"#utility.yul\":37016:37025   */\n      dup3\n        /* \"#utility.yul\":37011:37014   */\n      dup8\n        /* \"#utility.yul\":37007:37026   */\n      add\n        /* \"#utility.yul\":37001:37027   */\n      sload\n        /* \"#utility.yul\":36992:37027   */\n      swap1\n      pop\n        /* \"#utility.yul\":36964:37041   */\n    tag_710:\n        /* \"#utility.yul\":37067:37134   */\n      tag_711\n        /* \"#utility.yul\":37127:37133   */\n      dup6\n        /* \"#utility.yul\":37120:37125   */\n      dup3\n        /* \"#utility.yul\":37067:37134   */\n      tag_342\n      jump\t// in\n    tag_711:\n        /* \"#utility.yul\":37061:37065   */\n      dup7\n        /* \"#utility.yul\":37054:37135   */\n      sstore\n        /* \"#utility.yul\":36923:37145   */\n      pop\n        /* \"#utility.yul\":36200:37145   */\n      jump(tag_708)\n        /* \"#utility.yul\":36230:36906   */\n    tag_709:\n        /* \"#utility.yul\":36282:36286   */\n      0x1f\n        /* \"#utility.yul\":36278:36287   */\n      not\n        /* \"#utility.yul\":36270:36276   */\n      dup5\n        /* \"#utility.yul\":36266:36288   */\n      and\n        /* \"#utility.yul\":36308:36348   */\n      tag_712\n        /* \"#utility.yul\":36344:36347   */\n      dup8\n        /* \"#utility.yul\":36308:36348   */\n      tag_356\n      jump\t// in\n    tag_712:\n        /* \"#utility.yul\":36301:36348   */\n      swap7\n      pop\n        /* \"#utility.yul\":36375:36412   */\n      tag_713\n        /* \"#utility.yul\":36407:36411   */\n      dup7\n        /* \"#utility.yul\":36375:36412   */\n      tag_328\n      jump\t// in\n    tag_713:\n        /* \"#utility.yul\":36434:36435   */\n      0x00\n        /* \"#utility.yul\":36448:36655   */\n    tag_714:\n        /* \"#utility.yul\":36462:36469   */\n      dup3\n        /* \"#utility.yul\":36459:36460   */\n      dup2\n        /* \"#utility.yul\":36456:36470   */\n      lt\n        /* \"#utility.yul\":36448:36655   */\n      iszero\n      tag_716\n      jumpi\n        /* \"#utility.yul\":36541:36550   */\n      dup5\n        /* \"#utility.yul\":36536:36539   */\n      dup10\n        /* \"#utility.yul\":36532:36551   */\n      add\n        /* \"#utility.yul\":36526:36552   */\n      sload\n        /* \"#utility.yul\":36518:36524   */\n      dup3\n        /* \"#utility.yul\":36511:36553   */\n      sstore\n        /* \"#utility.yul\":36592:36593   */\n      0x01\n        /* \"#utility.yul\":36584:36590   */\n      dup3\n        /* \"#utility.yul\":36580:36594   */\n      add\n        /* \"#utility.yul\":36570:36594   */\n      swap2\n      pop\n        /* \"#utility.yul\":36639:36640   */\n      0x01\n        /* \"#utility.yul\":36628:36637   */\n      dup6\n        /* \"#utility.yul\":36624:36641   */\n      add\n        /* \"#utility.yul\":36611:36641   */\n      swap5\n      pop\n        /* \"#utility.yul\":36485:36489   */\n      0x20\n        /* \"#utility.yul\":36482:36483   */\n      dup2\n        /* \"#utility.yul\":36478:36490   */\n      add\n        /* \"#utility.yul\":36473:36490   */\n      swap1\n      pop\n        /* \"#utility.yul\":36448:36655   */\n      jump(tag_714)\n    tag_716:\n        /* \"#utility.yul\":36683:36689   */\n      dup7\n        /* \"#utility.yul\":36674:36681   */\n      dup4\n        /* \"#utility.yul\":36671:36690   */\n      lt\n        /* \"#utility.yul\":36668:36847   */\n      iszero\n      tag_717\n      jumpi\n        /* \"#utility.yul\":36741:36750   */\n      dup5\n        /* \"#utility.yul\":36736:36739   */\n      dup10\n        /* \"#utility.yul\":36732:36751   */\n      add\n        /* \"#utility.yul\":36726:36752   */\n      sload\n        /* \"#utility.yul\":36784:36832   */\n      tag_718\n        /* \"#utility.yul\":36826:36830   */\n      0x1f\n        /* \"#utility.yul\":36818:36824   */\n      dup10\n        /* \"#utility.yul\":36814:36831   */\n      and\n        /* \"#utility.yul\":36803:36812   */\n      dup3\n        /* \"#utility.yul\":36784:36832   */\n      tag_341\n      jump\t// in\n    tag_718:\n        /* \"#utility.yul\":36776:36782   */\n      dup4\n        /* \"#utility.yul\":36769:36833   */\n      sstore\n        /* \"#utility.yul\":36691:36847   */\n      pop\n        /* \"#utility.yul\":36668:36847   */\n    tag_717:\n        /* \"#utility.yul\":36893:36894   */\n      0x01\n        /* \"#utility.yul\":36889:36890   */\n      0x02\n        /* \"#utility.yul\":36881:36887   */\n      dup9\n        /* \"#utility.yul\":36877:36891   */\n      mul\n        /* \"#utility.yul\":36873:36895   */\n      add\n        /* \"#utility.yul\":36867:36871   */\n      dup9\n        /* \"#utility.yul\":36860:36896   */\n      sstore\n        /* \"#utility.yul\":36237:36906   */\n      pop\n      pop\n      pop\n        /* \"#utility.yul\":36200:37145   */\n    tag_708:\n      pop\n        /* \"#utility.yul\":35781:37151   */\n      pop\n      pop\n      pop\n        /* \"#utility.yul\":35688:37151   */\n      pop\n      pop\n    tag_701:\n      jump\t// out\n        /* \"#utility.yul\":37157:37337   */\n    tag_239:\n        /* \"#utility.yul\":37205:37282   */\n      0x4e487b7100000000000000000000000000000000000000000000000000000000\n        /* \"#utility.yul\":37202:37203   */\n      0x00\n        /* \"#utility.yul\":37195:37283   */\n      mstore\n        /* \"#utility.yul\":37302:37306   */\n      0x31\n        /* \"#utility.yul\":37299:37300   */\n      0x04\n        /* \"#utility.yul\":37292:37307   */\n      mstore\n        /* \"#utility.yul\":37326:37330   */\n      0x24\n        /* \"#utility.yul\":37323:37324   */\n      0x00\n        /* \"#utility.yul\":37316:37331   */\n      revert\n        /* \"#utility.yul\":37343:37429   */\n    tag_357:\n        /* \"#utility.yul\":37378:37385   */\n      0x00\n        /* \"#utility.yul\":37418:37422   */\n      0xff\n        /* \"#utility.yul\":37411:37416   */\n      dup3\n        /* \"#utility.yul\":37407:37423   */\n      and\n        /* \"#utility.yul\":37396:37423   */\n      swap1\n      pop\n        /* \"#utility.yul\":37343:37429   */\n      swap2\n      swap1\n      pop\n      jump\t// out\n        /* \"#utility.yul\":37435:37623   */\n    tag_260:\n        /* \"#utility.yul\":37473:37476   */\n      0x00\n        /* \"#utility.yul\":37492:37510   */\n      tag_722\n        /* \"#utility.yul\":37508:37509   */\n      dup3\n        /* \"#utility.yul\":37492:37510   */\n      tag_357\n      jump\t// in\n    tag_722:\n        /* \"#utility.yul\":37487:37510   */\n      swap2\n      pop\n        /* \"#utility.yul\":37524:37542   */\n      tag_723\n        /* \"#utility.yul\":37540:37541   */\n      dup4\n        /* \"#utility.yul\":37524:37542   */\n      tag_357\n      jump\t// in\n    tag_723:\n        /* \"#utility.yul\":37519:37542   */\n      swap3\n      pop\n        /* \"#utility.yul\":37565:37566   */\n      dup3\n        /* \"#utility.yul\":37562:37563   */\n      dup3\n        /* \"#utility.yul\":37558:37567   */\n      add\n        /* \"#utility.yul\":37551:37567   */\n      swap1\n      pop\n        /* \"#utility.yul\":37588:37592   */\n      0xff\n        /* \"#utility.yul\":37583:37586   */\n      dup2\n        /* \"#utility.yul\":37580:37593   */\n      gt\n        /* \"#utility.yul\":37577:37616   */\n      iszero\n      tag_724\n      jumpi\n        /* \"#utility.yul\":37596:37614   */\n      tag_725\n      tag_317\n      jump\t// in\n    tag_725:\n        /* \"#utility.yul\":37577:37616   */\n    tag_724:\n        /* \"#utility.yul\":37435:37623   */\n      swap3\n      swap2\n      pop\n      pop\n      jump\t// out\n\n    auxdata: 0xa264697066735822122083e4c5a3db612f30e3990650526f42eb5950cb275a79a5dab7075a50719fc96164736f6c63430008150033\n}\n",
				"bytecode": {
					"linkReferences": {},
					"object": "608060405234801561000f575f80fd5b503360015f6101000a81548173ffffffffffffffffffffffffffffffffffffffff021916908373ffffffffffffffffffffffffffffffffffffffff160217905550612cab8061005d5f395ff3fe608060405260043610610090575f3560e01c8063894d46ac11610058578063894d46ac1461018e5780638da5cb5b146101b6578063c0e793c2146101e0578063cc69784a14610208578063f38ffb6c1461022457610090565b8063031c1301146100945780631a83fd8f146100d057806332752b09146100ec57806335b9e937146101285780634889e19214610150575b5f80fd5b34801561009f575f80fd5b506100ba60048036038101906100b591906119e1565b610260565b6040516100c79190611a40565b60405180910390f35b6100ea60048036038101906100e59190611ae0565b61028c565b005b3480156100f7575f80fd5b50610112600480360381019061010d9190611b3d565b610592565b60405161011f9190611ba2565b60405180910390f35b348015610133575f80fd5b5061014e60048036038101906101499190611ae0565b610638565b005b34801561015b575f80fd5b5061017660048036038101906101719190611b3d565b61072b565b60405161018593929190611bfa565b60405180910390f35b348015610199575f80fd5b506101b460048036038101906101af9190611c59565b6107e4565b005b3480156101c1575f80fd5b506101ca6109f2565b6040516101d79190611cb6565b60405180910390f35b3480156101eb575f80fd5b5061020660048036038101906102019190611c59565b610a17565b005b610222600480360381019061021d9190611ccf565b610d44565b005b34801561022f575f80fd5b5061024a60048036038101906102459190611d72565b611244565b6040516102579190611ed2565b60405180910390f35b5f818051602081018201805184825260208301602085012081835280955050505050505f915090505481565b82828080601f0160208091040260200160405190810160405280939291908181526020018383808284375f81840152601f19601f820116905080830192505050505050503373ffffffffffffffffffffffffffffffffffffffff166002826040516102f79190611f2c565b90815260200160405180910390205f015f9054906101000a900473ffffffffffffffffffffffffffffffffffffffff1673ffffffffffffffffffffffffffffffffffffffff161461037d576040517f08c379a000000000000000000000000000000000000000000000000000000000815260040161037490611fc2565b60405180910390fd5b5f6103ca85858080601f0160208091040260200160405190810160405280939291908181526020018383808284375f81840152601f19601f82011690508083019250505050505050611355565b90505f61041a86868080601f0160208091040260200160405190810160405280939291908181526020018383808284375f81840152601f19601f8201169050808301925050505050505083611438565b90505f845f8360405161042d9190611f2c565b908152602001604051809103902054610446919061200d565b90508034101561048b576040517f08c379a0000000000000000000000000000000000000000000000000000000008152600401610482906120be565b60405180910390fd5b6301e133808561049b919061200d565b600288886040516104ad929190612100565b90815260200160405180910390206002015f8282546104cc9190612118565b925050819055507ff44ec9072df846717b4110f1fc66219abeeba0e9599e259c4309f01079e7a8e9878760028a8a604051610508929190612100565b90815260200160405180910390206002015460405161052993929190612177565b60405180910390a180341115610589573373ffffffffffffffffffffffffffffffffffffffff166108fc823461055f91906121a7565b90811502906040515f60405180830381858888f19350505050158015610587573d5f803e3d5ffd5b505b50505050505050565b5f8073ffffffffffffffffffffffffffffffffffffffff16600284846040516105bc929190612100565b90815260200160405180910390205f015f9054906101000a900473ffffffffffffffffffffffffffffffffffffffff1673ffffffffffffffffffffffffffffffffffffffff1614806106305750426002848460405161061c929190612100565b908152602001604051809103902060020154105b905092915050565b60015f9054906101000a900473ffffffffffffffffffffffffffffffffffffffff1673ffffffffffffffffffffffffffffffffffffffff163373ffffffffffffffffffffffffffffffffffffffff16146106c7576040517f08c379a00000000000000000000000000000000000000000000000000000000081526004016106be9061224a565b60405180910390fd5b805f84846040516106d9929190612100565b9081526020016040518091039020819055507f7ecd49f8137bc8d353db356946f52453e29656073aef0362c08a514421db24f583838360405161071e93929190612177565b60405180910390a1505050565b5f805f60028585604051610740929190612100565b90815260200160405180910390205f015f9054906101000a900473ffffffffffffffffffffffffffffffffffffffff1660028686604051610782929190612100565b90815260200160405180910390206001015f9054906101000a900473ffffffffffffffffffffffffffffffffffffffff16600287876040516107c5929190612100565b9081526020016040518091039020600201549250925092509250925092565b82828080601f0160208091040260200160405190810160405280939291908181526020018383808284375f81840152601f19601f820116905080830192505050505050503373ffffffffffffffffffffffffffffffffffffffff1660028260405161084f9190611f2c565b90815260200160405180910390205f015f9054906101000a900473ffffffffffffffffffffffffffffffffffffffff1673ffffffffffffffffffffffffffffffffffffffff16146108d5576040517f08c379a00000000000000000000000000000000000000000000000000000000081526004016108cc90611fc2565b60405180910390fd5b42600285856040516108e8929190612100565b908152602001604051809103902060020154101561093b576040517f08c379a0000000000000000000000000000000000000000000000000000000008152600401610932906122b2565b60405180910390fd5b816002858560405161094e929190612100565b90815260200160405180910390206001015f6101000a81548173ffffffffffffffffffffffffffffffffffffffff021916908373ffffffffffffffffffffffffffffffffffffffff1602179055508173ffffffffffffffffffffffffffffffffffffffff167f6d25091b0cf2f910de133fa1124a83cc0bba17dcddb63e259346affd222ebe4485856040516109e49291906122d0565b60405180910390a250505050565b60015f9054906101000a900473ffffffffffffffffffffffffffffffffffffffff1681565b82828080601f0160208091040260200160405190810160405280939291908181526020018383808284375f81840152601f19601f820116905080830192505050505050503373ffffffffffffffffffffffffffffffffffffffff16600282604051610a829190611f2c565b90815260200160405180910390205f015f9054906101000a900473ffffffffffffffffffffffffffffffffffffffff1673ffffffffffffffffffffffffffffffffffffffff1614610b08576040517f08c379a0000000000000000000000000000000000000000000000000000000008152600401610aff90611fc2565b60405180910390fd5b4260028585604051610b1b929190612100565b9081526020016040518091039020600201541015610b6e576040517f08c379a0000000000000000000000000000000000000000000000000000000008152600401610b65906122b2565b60405180910390fd5b5f60028585604051610b81929190612100565b90815260200160405180910390205f015f9054906101000a900473ffffffffffffffffffffffffffffffffffffffff1690508260028686604051610bc6929190612100565b90815260200160405180910390205f015f6101000a81548173ffffffffffffffffffffffffffffffffffffffff021916908373ffffffffffffffffffffffffffffffffffffffff160217905550610c608186868080601f0160208091040260200160405190810160405280939291908181526020018383808284375f81840152601f19601f82011690508083019250505050505050611531565b60035f8473ffffffffffffffffffffffffffffffffffffffff1673ffffffffffffffffffffffffffffffffffffffff1681526020019081526020015f20858590918060018154018082558091505060019003905f5260205f20015f909192909192909192909192509182610cd59291906124f6565b508273ffffffffffffffffffffffffffffffffffffffff168173ffffffffffffffffffffffffffffffffffffffff167fd43ae7ba5d7f951ba2fb94d03dc0f12664835c289cea1d1295e86a1fbddfc82c8787604051610d359291906122d0565b60405180910390a35050505050565b5f808383604051610d56929190612100565b90815260200160405180910390205403610da5576040517f08c379a0000000000000000000000000000000000000000000000000000000008152600401610d9c9061260d565b60405180910390fd5b5f610df287878080601f0160208091040260200160405190810160405280939291908181526020018383808284375f81840152601f19601f82011690508083019250505050505050611689565b90505f8151118015610e065750600f815111155b610e45576040517f08c379a0000000000000000000000000000000000000000000000000000000008152600401610e3c9061269b565b60405180910390fd5b5f818484604051602001610e5b939291906126b9565b60405160208183030381529060405290505f42600283604051610e7e9190611f2c565b9081526020016040518091039020600201541090505f73ffffffffffffffffffffffffffffffffffffffff16600283604051610eba9190611f2c565b90815260200160405180910390205f015f9054906101000a900473ffffffffffffffffffffffffffffffffffffffff1673ffffffffffffffffffffffffffffffffffffffff161480610f095750805b610f48576040517f08c379a0000000000000000000000000000000000000000000000000000000008152600401610f3f9061274e565b60405180910390fd5b8015610f9857610f97600283604051610f619190611f2c565b90815260200160405180910390205f015f9054906101000a900473ffffffffffffffffffffffffffffffffffffffff1683611531565b5b5f865f8787604051610fab929190612100565b908152602001604051809103902054610fc4919061200d565b905080341015611009576040517f08c379a000000000000000000000000000000000000000000000000000000000815260040161100090612802565b60405180910390fd5b5f603c88611017919061200d565b426110229190612118565b905060405180606001604052803373ffffffffffffffffffffffffffffffffffffffff1681526020018a73ffffffffffffffffffffffffffffffffffffffff1681526020018281525060028560405161107b9190611f2c565b90815260200160405180910390205f820151815f015f6101000a81548173ffffffffffffffffffffffffffffffffffffffff021916908373ffffffffffffffffffffffffffffffffffffffff1602179055506020820151816001015f6101000a81548173ffffffffffffffffffffffffffffffffffffffff021916908373ffffffffffffffffffffffffffffffffffffffff1602179055506040820151816002015590505060035f3373ffffffffffffffffffffffffffffffffffffffff1673ffffffffffffffffffffffffffffffffffffffff1681526020019081526020015f2084908060018154018082558091505060019003905f5260205f20015f90919091909150908161118c9190612820565b503373ffffffffffffffffffffffffffffffffffffffff167fa5f4533ec077c1b1e4fa879988258637a45b7a6e6663bf8589e0d3dde3855017858b846040516111d793929190612927565b60405180910390a281341115611237573373ffffffffffffffffffffffffffffffffffffffff166108fc833461120d91906121a7565b90811502906040515f60405180830381858888f19350505050158015611235573d5f803e3d5ffd5b505b5050505050505050505050565b606060035f8373ffffffffffffffffffffffffffffffffffffffff1673ffffffffffffffffffffffffffffffffffffffff1681526020019081526020015f20805480602002602001604051908101604052809291908181526020015f905b8282101561134a578382905f5260205f200180546112bf90612329565b80601f01602080910402602001604051908101604052809291908181526020018280546112eb90612329565b80156113365780601f1061130d57610100808354040283529160200191611336565b820191905f5260205f20905b81548152906001019060200180831161131957829003601f168201915b5050505050815260200190600101906112a2565b505050509050919050565b5f808290505f815190505b5f8111156113f7577f2e000000000000000000000000000000000000000000000000000000000000008260018361139791906121a7565b815181106113a8576113a7612963565b5b602001015160f81c60f81b7effffffffffffffffffffffffffffffffffffffffffffffffffffffffffffff1916036113e4578092505050611433565b80806113ef90612990565b915050611360565b506040517f08c379a000000000000000000000000000000000000000000000000000000000815260040161142a90612a01565b60405180910390fd5b919050565b60605f8390505f83825161144c91906121a7565b67ffffffffffffffff811115611465576114646118bd565b5b6040519080825280601f01601f1916602001820160405280156114975781602001600182028036833780820191505090505b5090505f8490505b8251811015611525578281815181106114bb576114ba612963565b5b602001015160f81c60f81b8286836114d391906121a7565b815181106114e4576114e3612963565b5b60200101907effffffffffffffffffffffffffffffffffffffffffffffffffffffffffffff191690815f1a905350808061151d90612a1f565b91505061149f565b50809250505092915050565b5f60035f8473ffffffffffffffffffffffffffffffffffffffff1673ffffffffffffffffffffffffffffffffffffffff1681526020019081526020015f2090505f5b818054905081101561168357826040516020016115909190611f2c565b604051602081830303815290604052805190602001208282815481106115b9576115b8612963565b5b905f5260205f20016040516020016115d19190612ae6565b60405160208183030381529060405280519060200120036116705781600183805490506115fe91906121a7565b8154811061160f5761160e612963565b5b905f5260205f200182828154811061162a57611629612963565b5b905f5260205f2001908161163e9190612b23565b50818054806116505761164f612c08565b5b600190038181905f5260205f20015f611669919061183c565b9055611683565b808061167b90612a1f565b915050611573565b50505050565b60605f8290505f815167ffffffffffffffff8111156116ab576116aa6118bd565b5b6040519080825280601f01601f1916602001820160405280156116dd5781602001600182028036833780820191505090505b5090505f5b8251811015611831576041838281518110611700576116ff612963565b5b602001015160f81c60f81b60f81c60ff16101580156117435750605a83828151811061172f5761172e612963565b5b602001015160f81c60f81b60f81c60ff1611155b156117be57602083828151811061175d5761175c612963565b5b602001015160f81c60f81b60f81c6117759190612c41565b60f81b82828151811061178b5761178a612963565b5b60200101907effffffffffffffffffffffffffffffffffffffffffffffffffffffffffffff191690815f1a90535061181e565b8281815181106117d1576117d0612963565b5b602001015160f81c60f81b8282815181106117ef576117ee612963565b5b60200101907effffffffffffffffffffffffffffffffffffffffffffffffffffffffffffff191690815f1a9053505b808061182990612a1f565b9150506116e2565b508092505050919050565b50805461184890612329565b5f825580601f106118595750611876565b601f0160209004905f5260205f20908101906118759190611879565b5b50565b5b80821115611890575f815f90555060010161187a565b5090565b5f604051905090565b5f80fd5b5f80fd5b5f80fd5b5f80fd5b5f601f19601f8301169050919050565b7f4e487b71000000000000000000000000000000000000000000000000000000005f52604160045260245ffd5b6118f3826118ad565b810181811067ffffffffffffffff82111715611912576119116118bd565b5b80604052505050565b5f611924611894565b905061193082826118ea565b919050565b5f67ffffffffffffffff82111561194f5761194e6118bd565b5b611958826118ad565b9050602081019050919050565b828183375f83830152505050565b5f61198561198084611935565b61191b565b9050828152602081018484840111156119a1576119a06118a9565b5b6119ac848285611965565b509392505050565b5f82601f8301126119c8576119c76118a5565b5b81356119d8848260208601611973565b91505092915050565b5f602082840312156119f6576119f561189d565b5b5f82013567ffffffffffffffff811115611a1357611a126118a1565b5b611a1f848285016119b4565b91505092915050565b5f819050919050565b611a3a81611a28565b82525050565b5f602082019050611a535f830184611a31565b92915050565b5f80fd5b5f80fd5b5f8083601f840112611a7657611a756118a5565b5b8235905067ffffffffffffffff811115611a9357611a92611a59565b5b602083019150836001820283011115611aaf57611aae611a5d565b5b9250929050565b611abf81611a28565b8114611ac9575f80fd5b50565b5f81359050611ada81611ab6565b92915050565b5f805f60408486031215611af757611af661189d565b5b5f84013567ffffffffffffffff811115611b1457611b136118a1565b5b611b2086828701611a61565b93509350506020611b3386828701611acc565b9150509250925092565b5f8060208385031215611b5357611b5261189d565b5b5f83013567ffffffffffffffff811115611b7057611b6f6118a1565b5b611b7c85828601611a61565b92509250509250929050565b5f8115159050919050565b611b9c81611b88565b82525050565b5f602082019050611bb55f830184611b93565b92915050565b5f73ffffffffffffffffffffffffffffffffffffffff82169050919050565b5f611be482611bbb565b9050919050565b611bf481611bda565b82525050565b5f606082019050611c0d5f830186611beb565b611c1a6020830185611beb565b611c276040830184611a31565b949350505050565b611c3881611bda565b8114611c42575f80fd5b50565b5f81359050611c5381611c2f565b92915050565b5f805f60408486031215611c7057611c6f61189d565b5b5f84013567ffffffffffffffff811115611c8d57611c8c6118a1565b5b611c9986828701611a61565b93509350506020611cac86828701611c45565b9150509250925092565b5f602082019050611cc95f830184611beb565b92915050565b5f805f805f8060808789031215611ce957611ce861189d565b5b5f87013567ffffffffffffffff811115611d0657611d056118a1565b5b611d1289828a01611a61565b96509650506020611d2589828a01611c45565b9450506040611d3689828a01611acc565b935050606087013567ffffffffffffffff811115611d5757611d566118a1565b5b611d6389828a01611a61565b92509250509295509295509295565b5f60208284031215611d8757611d8661189d565b5b5f611d9484828501611c45565b91505092915050565b5f81519050919050565b5f82825260208201905092915050565b5f819050602082019050919050565b5f81519050919050565b5f82825260208201905092915050565b5f5b83811015611dfd578082015181840152602081019050611de2565b5f8484015250505050565b5f611e1282611dc6565b611e1c8185611dd0565b9350611e2c818560208601611de0565b611e35816118ad565b840191505092915050565b5f611e4b8383611e08565b905092915050565b5f602082019050919050565b5f611e6982611d9d565b611e738185611da7565b935083602082028501611e8585611db7565b805f5b85811015611ec05784840389528151611ea18582611e40565b9450611eac83611e53565b925060208a01995050600181019050611e88565b50829750879550505050505092915050565b5f6020820190508181035f830152611eea8184611e5f565b905092915050565b5f81905092915050565b5f611f0682611dc6565b611f108185611ef2565b9350611f20818560208601611de0565b80840191505092915050565b5f611f378284611efc565b915081905092915050565b5f82825260208201905092915050565b7f596f7520617265206e6f7420746865206f776e6572206f66207468697320646f5f8201527f6d61696e2e000000000000000000000000000000000000000000000000000000602082015250565b5f611fac602583611f42565b9150611fb782611f52565b604082019050919050565b5f6020820190508181035f830152611fd981611fa0565b9050919050565b7f4e487b71000000000000000000000000000000000000000000000000000000005f52601160045260245ffd5b5f61201782611a28565b915061202283611a28565b925082820261203081611a28565b9150828204841483151761204757612046611fe0565b5b5092915050565b7f496e73756666696369656e742066756e647320746f2072656e657720746865205f8201527f646f6d61696e20666f7220746865207370656369666965642079656172730000602082015250565b5f6120a8603e83611f42565b91506120b38261204e565b604082019050919050565b5f6020820190508181035f8301526120d58161209c565b9050919050565b5f6120e78385611ef2565b93506120f4838584611965565b82840190509392505050565b5f61210c8284866120dc565b91508190509392505050565b5f61212282611a28565b915061212d83611a28565b925082820190508082111561214557612144611fe0565b5b92915050565b5f6121568385611f42565b9350612163838584611965565b61216c836118ad565b840190509392505050565b5f6040820190508181035f83015261219081858761214b565b905061219f6020830184611a31565b949350505050565b5f6121b182611a28565b91506121bc83611a28565b92508282039050818111156121d4576121d3611fe0565b5b92915050565b7f4f6e6c792074686520636f6e7472616374206f776e65722063616e2063616c6c5f8201527f20746869732066756e6374696f6e2e0000000000000000000000000000000000602082015250565b5f612234602f83611f42565b915061223f826121da565b604082019050919050565b5f6020820190508181035f83015261226181612228565b9050919050565b7f446f6d61696e2068617320657870697265642e000000000000000000000000005f82015250565b5f61229c601383611f42565b91506122a782612268565b602082019050919050565b5f6020820190508181035f8301526122c981612290565b9050919050565b5f6020820190508181035f8301526122e981848661214b565b90509392505050565b5f82905092915050565b7f4e487b71000000000000000000000000000000000000000000000000000000005f52602260045260245ffd5b5f600282049050600182168061234057607f821691505b602082108103612353576123526122fc565b5b50919050565b5f819050815f5260205f209050919050565b5f6020601f8301049050919050565b5f82821b905092915050565b5f600883026123b57fffffffffffffffffffffffffffffffffffffffffffffffffffffffffffffffff8261237a565b6123bf868361237a565b95508019841693508086168417925050509392505050565b5f819050919050565b5f6123fa6123f56123f084611a28565b6123d7565b611a28565b9050919050565b5f819050919050565b612413836123e0565b61242761241f82612401565b848454612386565b825550505050565b5f90565b61243b61242f565b61244681848461240a565b505050565b5b818110156124695761245e5f82612433565b60018101905061244c565b5050565b601f8211156124ae5761247f81612359565b6124888461236b565b81016020851015612497578190505b6124ab6124a38561236b565b83018261244b565b50505b505050565b5f82821c905092915050565b5f6124ce5f19846008026124b3565b1980831691505092915050565b5f6124e683836124bf565b9150826002028217905092915050565b61250083836122f2565b67ffffffffffffffff811115612519576125186118bd565b5b6125238254612329565b61252e82828561246d565b5f601f83116001811461255b575f8415612549578287013590505b61255385826124db565b8655506125ba565b601f19841661256986612359565b5f5b828110156125905784890135825560018201915060208501945060208101905061256b565b868310156125ad57848901356125a9601f8916826124bf565b8355505b6001600288020188555050505b50505050505050565b7f496e76616c6964207375666669780000000000000000000000000000000000005f82015250565b5f6125f7600e83611f42565b9150612602826125c3565b602082019050919050565b5f6020820190508181035f830152612624816125eb565b9050919050565b7f4e616d652073686f756c64206265206265747765656e203120616e64203135205f8201527f636861726163746572732e000000000000000000000000000000000000000000602082015250565b5f612685602b83611f42565b91506126908261262b565b604082019050919050565b5f6020820190508181035f8301526126b281612679565b9050919050565b5f6126c48286611efc565b91506126d18284866120dc565b9150819050949350505050565b7f446f6d61696e20697320616c7265616479206f776e6564206f72206e6f7420795f8201527f6574206578706972656400000000000000000000000000000000000000000000602082015250565b5f612738602a83611f42565b9150612743826126de565b604082019050919050565b5f6020820190508181035f8301526127658161272c565b9050919050565b7f496e73756666696369656e742066756e647320746f20726567697374657220745f8201527f686520646f6d61696e20666f722074686520737065636966696564207965617260208201527f7300000000000000000000000000000000000000000000000000000000000000604082015250565b5f6127ec604183611f42565b91506127f78261276c565b606082019050919050565b5f6020820190508181035f830152612819816127e0565b9050919050565b61282982611dc6565b67ffffffffffffffff811115612842576128416118bd565b5b61284c8254612329565b61285782828561246d565b5f60209050601f831160018114612888575f8415612876578287015190505b61288085826124db565b8655506128e7565b601f19841661289686612359565b5f5b828110156128bd57848901518255600182019150602085019450602081019050612898565b868310156128da57848901516128d6601f8916826124bf565b8355505b6001600288020188555050505b505050505050565b5f6128f982611dc6565b6129038185611f42565b9350612913818560208601611de0565b61291c816118ad565b840191505092915050565b5f6060820190508181035f83015261293f81866128ef565b905061294e6020830185611beb565b61295b6040830184611a31565b949350505050565b7f4e487b71000000000000000000000000000000000000000000000000000000005f52603260045260245ffd5b5f61299a82611a28565b91505f82036129ac576129ab611fe0565b5b600182039050919050565b7f4e6f2073756666697820666f756e6400000000000000000000000000000000005f82015250565b5f6129eb600f83611f42565b91506129f6826129b7565b602082019050919050565b5f6020820190508181035f830152612a18816129df565b9050919050565b5f612a2982611a28565b91507fffffffffffffffffffffffffffffffffffffffffffffffffffffffffffffffff8203612a5b57612a5a611fe0565b5b600182019050919050565b5f8154612a7281612329565b612a7c8186611ef2565b9450600182165f8114612a965760018114612aab57612add565b60ff1983168652811515820286019350612add565b612ab485612359565b5f5b83811015612ad557815481890152600182019150602081019050612ab6565b838801955050505b50505092915050565b5f612af18284612a66565b915081905092915050565b5f81549050612b0a81612329565b9050919050565b5f819050815f5260205f209050919050565b818103612b31575050612c06565b612b3a82612afc565b67ffffffffffffffff811115612b5357612b526118bd565b5b612b5d8254612329565b612b6882828561246d565b5f601f831160018114612b95575f8415612b83578287015490505b612b8d85826124db565b865550612bff565b601f198416612ba387612b11565b9650612bae86612359565b5f5b82811015612bd557848901548255600182019150600185019450602081019050612bb0565b86831015612bf25784890154612bee601f8916826124bf565b8355505b6001600288020188555050505b5050505050505b565b7f4e487b71000000000000000000000000000000000000000000000000000000005f52603160045260245ffd5b5f60ff82169050919050565b5f612c4b82612c35565b9150612c5683612c35565b9250828201905060ff811115612c6f57612c6e611fe0565b5b9291505056fea264697066735822122083e4c5a3db612f30e3990650526f42eb5950cb275a79a5dab7075a50719fc96164736f6c63430008150033",
					"opcodes": "PUSH1 0x80 PUSH1 0x40 MSTORE CALLVALUE DUP1 ISZERO PUSH2 0xF JUMPI PUSH0 DUP1 REVERT JUMPDEST POP CALLER PUSH1 0x1 PUSH0 PUSH2 0x100 EXP DUP2 SLOAD DUP2 PUSH20 0xFFFFFFFFFFFFFFFFFFFFFFFFFFFFFFFFFFFFFFFF MUL NOT AND SWAP1 DUP4 PUSH20 0xFFFFFFFFFFFFFFFFFFFFFFFFFFFFFFFFFFFFFFFF AND MUL OR SWAP1 SSTORE POP PUSH2 0x2CAB DUP1 PUSH2 0x5D PUSH0 CODECOPY PUSH0 RETURN INVALID PUSH1 0x80 PUSH1 0x40 MSTORE PUSH1 0x4 CALLDATASIZE LT PUSH2 0x90 JUMPI PUSH0 CALLDATALOAD PUSH1 0xE0 SHR DUP1 PUSH4 0x894D46AC GT PUSH2 0x58 JUMPI DUP1 PUSH4 0x894D46AC EQ PUSH2 0x18E JUMPI DUP1 PUSH4 0x8DA5CB5B EQ PUSH2 0x1B6 JUMPI DUP1 PUSH4 0xC0E793C2 EQ PUSH2 0x1E0 JUMPI DUP1 PUSH4 0xCC69784A EQ PUSH2 0x208 JUMPI DUP1 PUSH4 0xF38FFB6C EQ PUSH2 0x224 JUMPI PUSH2 0x90 JUMP JUMPDEST DUP1 PUSH4 0x31C1301 EQ PUSH2 0x94 JUMPI DUP1 PUSH4 0x1A83FD8F EQ PUSH2 0xD0 JUMPI DUP1 PUSH4 0x32752B09 EQ PUSH2 0xEC JUMPI DUP1 PUSH4 0x35B9E937 EQ PUSH2 0x128 JUMPI DUP1 PUSH4 0x4889E192 EQ PUSH2 0x150 JUMPI JUMPDEST PUSH0 DUP1 REVERT JUMPDEST CALLVALUE DUP1 ISZERO PUSH2 0x9F JUMPI PUSH0 DUP1 REVERT JUMPDEST POP PUSH2 0xBA PUSH1 0x4 DUP1 CALLDATASIZE SUB DUP2 ADD SWAP1 PUSH2 0xB5 SWAP2 SWAP1 PUSH2 0x19E1 JUMP JUMPDEST PUSH2 0x260 JUMP JUMPDEST PUSH1 0x40 MLOAD PUSH2 0xC7 SWAP2 SWAP1 PUSH2 0x1A40 JUMP JUMPDEST PUSH1 0x40 MLOAD DUP1 SWAP2 SUB SWAP1 RETURN JUMPDEST PUSH2 0xEA PUSH1 0x4 DUP1 CALLDATASIZE SUB DUP2 ADD SWAP1 PUSH2 0xE5 SWAP2 SWAP1 PUSH2 0x1AE0 JUMP JUMPDEST PUSH2 0x28C JUMP JUMPDEST STOP JUMPDEST CALLVALUE DUP1 ISZERO PUSH2 0xF7 JUMPI PUSH0 DUP1 REVERT JUMPDEST POP PUSH2 0x112 PUSH1 0x4 DUP1 CALLDATASIZE SUB DUP2 ADD SWAP1 PUSH2 0x10D SWAP2 SWAP1 PUSH2 0x1B3D JUMP JUMPDEST PUSH2 0x592 JUMP JUMPDEST PUSH1 0x40 MLOAD PUSH2 0x11F SWAP2 SWAP1 PUSH2 0x1BA2 JUMP JUMPDEST PUSH1 0x40 MLOAD DUP1 SWAP2 SUB SWAP1 RETURN JUMPDEST CALLVALUE DUP1 ISZERO PUSH2 0x133 JUMPI PUSH0 DUP1 REVERT JUMPDEST POP PUSH2 0x14E PUSH1 0x4 DUP1 CALLDATASIZE SUB DUP2 ADD SWAP1 PUSH2 0x149 SWAP2 SWAP1 PUSH2 0x1AE0 JUMP JUMPDEST PUSH2 0x638 JUMP JUMPDEST STOP JUMPDEST CALLVALUE DUP1 ISZERO PUSH2 0x15B JUMPI PUSH0 DUP1 REVERT JUMPDEST POP PUSH2 0x176 PUSH1 0x4 DUP1 CALLDATASIZE SUB DUP2 ADD SWAP1 PUSH2 0x171 SWAP2 SWAP1 PUSH2 0x1B3D JUMP JUMPDEST PUSH2 0x72B JUMP JUMPDEST PUSH1 0x40 MLOAD PUSH2 0x185 SWAP4 SWAP3 SWAP2 SWAP1 PUSH2 0x1BFA JUMP JUMPDEST PUSH1 0x40 MLOAD DUP1 SWAP2 SUB SWAP1 RETURN JUMPDEST CALLVALUE DUP1 ISZERO PUSH2 0x199 JUMPI PUSH0 DUP1 REVERT JUMPDEST POP PUSH2 0x1B4 PUSH1 0x4 DUP1 CALLDATASIZE SUB DUP2 ADD SWAP1 PUSH2 0x1AF SWAP2 SWAP1 PUSH2 0x1C59 JUMP JUMPDEST PUSH2 0x7E4 JUMP JUMPDEST STOP JUMPDEST CALLVALUE DUP1 ISZERO PUSH2 0x1C1 JUMPI PUSH0 DUP1 REVERT JUMPDEST POP PUSH2 0x1CA PUSH2 0x9F2 JUMP JUMPDEST PUSH1 0x40 MLOAD PUSH2 0x1D7 SWAP2 SWAP1 PUSH2 0x1CB6 JUMP JUMPDEST PUSH1 0x40 MLOAD DUP1 SWAP2 SUB SWAP1 RETURN JUMPDEST CALLVALUE DUP1 ISZERO PUSH2 0x1EB JUMPI PUSH0 DUP1 REVERT JUMPDEST POP PUSH2 0x206 PUSH1 0x4 DUP1 CALLDATASIZE SUB DUP2 ADD SWAP1 PUSH2 0x201 SWAP2 SWAP1 PUSH2 0x1C59 JUMP JUMPDEST PUSH2 0xA17 JUMP JUMPDEST STOP JUMPDEST PUSH2 0x222 PUSH1 0x4 DUP1 CALLDATASIZE SUB DUP2 ADD SWAP1 PUSH2 0x21D SWAP2 SWAP1 PUSH2 0x1CCF JUMP JUMPDEST PUSH2 0xD44 JUMP JUMPDEST STOP JUMPDEST CALLVALUE DUP1 ISZERO PUSH2 0x22F JUMPI PUSH0 DUP1 REVERT JUMPDEST POP PUSH2 0x24A PUSH1 0x4 DUP1 CALLDATASIZE SUB DUP2 ADD SWAP1 PUSH2 0x245 SWAP2 SWAP1 PUSH2 0x1D72 JUMP JUMPDEST PUSH2 0x1244 JUMP JUMPDEST PUSH1 0x40 MLOAD PUSH2 0x257 SWAP2 SWAP1 PUSH2 0x1ED2 JUMP JUMPDEST PUSH1 0x40 MLOAD DUP1 SWAP2 SUB SWAP1 RETURN JUMPDEST PUSH0 DUP2 DUP1 MLOAD PUSH1 0x20 DUP2 ADD DUP3 ADD DUP1 MLOAD DUP5 DUP3 MSTORE PUSH1 0x20 DUP4 ADD PUSH1 0x20 DUP6 ADD KECCAK256 DUP2 DUP4 MSTORE DUP1 SWAP6 POP POP POP POP POP POP PUSH0 SWAP2 POP SWAP1 POP SLOAD DUP2 JUMP JUMPDEST DUP3 DUP3 DUP1 DUP1 PUSH1 0x1F ADD PUSH1 0x20 DUP1 SWAP2 DIV MUL PUSH1 0x20 ADD PUSH1 0x40 MLOAD SWAP1 DUP2 ADD PUSH1 0x40 MSTORE DUP1 SWAP4 SWAP3 SWAP2 SWAP1 DUP2 DUP2 MSTORE PUSH1 0x20 ADD DUP4 DUP4 DUP1 DUP3 DUP5 CALLDATACOPY PUSH0 DUP2 DUP5 ADD MSTORE PUSH1 0x1F NOT PUSH1 0x1F DUP3 ADD AND SWAP1 POP DUP1 DUP4 ADD SWAP3 POP POP POP POP POP POP POP CALLER PUSH20 0xFFFFFFFFFFFFFFFFFFFFFFFFFFFFFFFFFFFFFFFF AND PUSH1 0x2 DUP3 PUSH1 0x40 MLOAD PUSH2 0x2F7 SWAP2 SWAP1 PUSH2 0x1F2C JUMP JUMPDEST SWAP1 DUP2 MSTORE PUSH1 0x20 ADD PUSH1 0x40 MLOAD DUP1 SWAP2 SUB SWAP1 KECCAK256 PUSH0 ADD PUSH0 SWAP1 SLOAD SWAP1 PUSH2 0x100 EXP SWAP1 DIV PUSH20 0xFFFFFFFFFFFFFFFFFFFFFFFFFFFFFFFFFFFFFFFF AND PUSH20 0xFFFFFFFFFFFFFFFFFFFFFFFFFFFFFFFFFFFFFFFF AND EQ PUSH2 0x37D JUMPI PUSH1 0x40 MLOAD PUSH32 0x8C379A000000000000000000000000000000000000000000000000000000000 DUP2 MSTORE PUSH1 0x4 ADD PUSH2 0x374 SWAP1 PUSH2 0x1FC2 JUMP JUMPDEST PUSH1 0x40 MLOAD DUP1 SWAP2 SUB SWAP1 REVERT JUMPDEST PUSH0 PUSH2 0x3CA DUP6 DUP6 DUP1 DUP1 PUSH1 0x1F ADD PUSH1 0x20 DUP1 SWAP2 DIV MUL PUSH1 0x20 ADD PUSH1 0x40 MLOAD SWAP1 DUP2 ADD PUSH1 0x40 MSTORE DUP1 SWAP4 SWAP3 SWAP2 SWAP1 DUP2 DUP2 MSTORE PUSH1 0x20 ADD DUP4 DUP4 DUP1 DUP3 DUP5 CALLDATACOPY PUSH0 DUP2 DUP5 ADD MSTORE PUSH1 0x1F NOT PUSH1 0x1F DUP3 ADD AND SWAP1 POP DUP1 DUP4 ADD SWAP3 POP POP POP POP POP POP POP PUSH2 0x1355 JUMP JUMPDEST SWAP1 POP PUSH0 PUSH2 0x41A DUP7 DUP7 DUP1 DUP1 PUSH1 0x1F ADD PUSH1 0x20 DUP1 SWAP2 DIV MUL PUSH1 0x20 ADD PUSH1 0x40 MLOAD SWAP1 DUP2 ADD PUSH1 0x40 MSTORE DUP1 SWAP4 SWAP3 SWAP2 SWAP1 DUP2 DUP2 MSTORE PUSH1 0x20 ADD DUP4 DUP4 DUP1 DUP3 DUP5 CALLDATACOPY PUSH0 DUP2 DUP5 ADD MSTORE PUSH1 0x1F NOT PUSH1 0x1F DUP3 ADD AND SWAP1 POP DUP1 DUP4 ADD SWAP3 POP POP POP POP POP POP POP DUP4 PUSH2 0x1438 JUMP JUMPDEST SWAP1 POP PUSH0 DUP5 PUSH0 DUP4 PUSH1 0x40 MLOAD PUSH2 0x42D SWAP2 SWAP1 PUSH2 0x1F2C JUMP JUMPDEST SWAP1 DUP2 MSTORE PUSH1 0x20 ADD PUSH1 0x40 MLOAD DUP1 SWAP2 SUB SWAP1 KECCAK256 SLOAD PUSH2 0x446 SWAP2 SWAP1 PUSH2 0x200D JUMP JUMPDEST SWAP1 POP DUP1 CALLVALUE LT ISZERO PUSH2 0x48B JUMPI PUSH1 0x40 MLOAD PUSH32 0x8C379A000000000000000000000000000000000000000000000000000000000 DUP2 MSTORE PUSH1 0x4 ADD PUSH2 0x482 SWAP1 PUSH2 0x20BE JUMP JUMPDEST PUSH1 0x40 MLOAD DUP1 SWAP2 SUB SWAP1 REVERT JUMPDEST PUSH4 0x1E13380 DUP6 PUSH2 0x49B SWAP2 SWAP1 PUSH2 0x200D JUMP JUMPDEST PUSH1 0x2 DUP9 DUP9 PUSH1 0x40 MLOAD PUSH2 0x4AD SWAP3 SWAP2 SWAP1 PUSH2 0x2100 JUMP JUMPDEST SWAP1 DUP2 MSTORE PUSH1 0x20 ADD PUSH1 0x40 MLOAD DUP1 SWAP2 SUB SWAP1 KECCAK256 PUSH1 0x2 ADD PUSH0 DUP3 DUP3 SLOAD PUSH2 0x4CC SWAP2 SWAP1 PUSH2 0x2118 JUMP JUMPDEST SWAP3 POP POP DUP2 SWAP1 SSTORE POP PUSH32 0xF44EC9072DF846717B4110F1FC66219ABEEBA0E9599E259C4309F01079E7A8E9 DUP8 DUP8 PUSH1 0x2 DUP11 DUP11 PUSH1 0x40 MLOAD PUSH2 0x508 SWAP3 SWAP2 SWAP1 PUSH2 0x2100 JUMP JUMPDEST SWAP1 DUP2 MSTORE PUSH1 0x20 ADD PUSH1 0x40 MLOAD DUP1 SWAP2 SUB SWAP1 KECCAK256 PUSH1 0x2 ADD SLOAD PUSH1 0x40 MLOAD PUSH2 0x529 SWAP4 SWAP3 SWAP2 SWAP1 PUSH2 0x2177 JUMP JUMPDEST PUSH1 0x40 MLOAD DUP1 SWAP2 SUB SWAP1 LOG1 DUP1 CALLVALUE GT ISZERO PUSH2 0x589 JUMPI CALLER PUSH20 0xFFFFFFFFFFFFFFFFFFFFFFFFFFFFFFFFFFFFFFFF AND PUSH2 0x8FC DUP3 CALLVALUE PUSH2 0x55F SWAP2 SWAP1 PUSH2 0x21A7 JUMP JUMPDEST SWAP1 DUP2 ISZERO MUL SWAP1 PUSH1 0x40 MLOAD PUSH0 PUSH1 0x40 MLOAD DUP1 DUP4 SUB DUP2 DUP6 DUP9 DUP9 CALL SWAP4 POP POP POP POP ISZERO DUP1 ISZERO PUSH2 0x587 JUMPI RETURNDATASIZE PUSH0 DUP1 RETURNDATACOPY RETURNDATASIZE PUSH0 REVERT JUMPDEST POP JUMPDEST POP POP POP POP POP POP POP JUMP JUMPDEST PUSH0 DUP1 PUSH20 0xFFFFFFFFFFFFFFFFFFFFFFFFFFFFFFFFFFFFFFFF AND PUSH1 0x2 DUP5 DUP5 PUSH1 0x40 MLOAD PUSH2 0x5BC SWAP3 SWAP2 SWAP1 PUSH2 0x2100 JUMP JUMPDEST SWAP1 DUP2 MSTORE PUSH1 0x20 ADD PUSH1 0x40 MLOAD DUP1 SWAP2 SUB SWAP1 KECCAK256 PUSH0 ADD PUSH0 SWAP1 SLOAD SWAP1 PUSH2 0x100 EXP SWAP1 DIV PUSH20 0xFFFFFFFFFFFFFFFFFFFFFFFFFFFFFFFFFFFFFFFF AND PUSH20 0xFFFFFFFFFFFFFFFFFFFFFFFFFFFFFFFFFFFFFFFF AND EQ DUP1 PUSH2 0x630 JUMPI POP TIMESTAMP PUSH1 0x2 DUP5 DUP5 PUSH1 0x40 MLOAD PUSH2 0x61C SWAP3 SWAP2 SWAP1 PUSH2 0x2100 JUMP JUMPDEST SWAP1 DUP2 MSTORE PUSH1 0x20 ADD PUSH1 0x40 MLOAD DUP1 SWAP2 SUB SWAP1 KECCAK256 PUSH1 0x2 ADD SLOAD LT JUMPDEST SWAP1 POP SWAP3 SWAP2 POP POP JUMP JUMPDEST PUSH1 0x1 PUSH0 SWAP1 SLOAD SWAP1 PUSH2 0x100 EXP SWAP1 DIV PUSH20 0xFFFFFFFFFFFFFFFFFFFFFFFFFFFFFFFFFFFFFFFF AND PUSH20 0xFFFFFFFFFFFFFFFFFFFFFFFFFFFFFFFFFFFFFFFF AND CALLER PUSH20 0xFFFFFFFFFFFFFFFFFFFFFFFFFFFFFFFFFFFFFFFF AND EQ PUSH2 0x6C7 JUMPI PUSH1 0x40 MLOAD PUSH32 0x8C379A000000000000000000000000000000000000000000000000000000000 DUP2 MSTORE PUSH1 0x4 ADD PUSH2 0x6BE SWAP1 PUSH2 0x224A JUMP JUMPDEST PUSH1 0x40 MLOAD DUP1 SWAP2 SUB SWAP1 REVERT JUMPDEST DUP1 PUSH0 DUP5 DUP5 PUSH1 0x40 MLOAD PUSH2 0x6D9 SWAP3 SWAP2 SWAP1 PUSH2 0x2100 JUMP JUMPDEST SWAP1 DUP2 MSTORE PUSH1 0x20 ADD PUSH1 0x40 MLOAD DUP1 SWAP2 SUB SWAP1 KECCAK256 DUP2 SWAP1 SSTORE POP PUSH32 0x7ECD49F8137BC8D353DB356946F52453E29656073AEF0362C08A514421DB24F5 DUP4 DUP4 DUP4 PUSH1 0x40 MLOAD PUSH2 0x71E SWAP4 SWAP3 SWAP2 SWAP1 PUSH2 0x2177 JUMP JUMPDEST PUSH1 0x40 MLOAD DUP1 SWAP2 SUB SWAP1 LOG1 POP POP POP JUMP JUMPDEST PUSH0 DUP1 PUSH0 PUSH1 0x2 DUP6 DUP6 PUSH1 0x40 MLOAD PUSH2 0x740 SWAP3 SWAP2 SWAP1 PUSH2 0x2100 JUMP JUMPDEST SWAP1 DUP2 MSTORE PUSH1 0x20 ADD PUSH1 0x40 MLOAD DUP1 SWAP2 SUB SWAP1 KECCAK256 PUSH0 ADD PUSH0 SWAP1 SLOAD SWAP1 PUSH2 0x100 EXP SWAP1 DIV PUSH20 0xFFFFFFFFFFFFFFFFFFFFFFFFFFFFFFFFFFFFFFFF AND PUSH1 0x2 DUP7 DUP7 PUSH1 0x40 MLOAD PUSH2 0x782 SWAP3 SWAP2 SWAP1 PUSH2 0x2100 JUMP JUMPDEST SWAP1 DUP2 MSTORE PUSH1 0x20 ADD PUSH1 0x40 MLOAD DUP1 SWAP2 SUB SWAP1 KECCAK256 PUSH1 0x1 ADD PUSH0 SWAP1 SLOAD SWAP1 PUSH2 0x100 EXP SWAP1 DIV PUSH20 0xFFFFFFFFFFFFFFFFFFFFFFFFFFFFFFFFFFFFFFFF AND PUSH1 0x2 DUP8 DUP8 PUSH1 0x40 MLOAD PUSH2 0x7C5 SWAP3 SWAP2 SWAP1 PUSH2 0x2100 JUMP JUMPDEST SWAP1 DUP2 MSTORE PUSH1 0x20 ADD PUSH1 0x40 MLOAD DUP1 SWAP2 SUB SWAP1 KECCAK256 PUSH1 0x2 ADD SLOAD SWAP3 POP SWAP3 POP SWAP3 POP SWAP3 POP SWAP3 POP SWAP3 JUMP JUMPDEST DUP3 DUP3 DUP1 DUP1 PUSH1 0x1F ADD PUSH1 0x20 DUP1 SWAP2 DIV MUL PUSH1 0x20 ADD PUSH1 0x40 MLOAD SWAP1 DUP2 ADD PUSH1 0x40 MSTORE DUP1 SWAP4 SWAP3 SWAP2 SWAP1 DUP2 DUP2 MSTORE PUSH1 0x20 ADD DUP4 DUP4 DUP1 DUP3 DUP5 CALLDATACOPY PUSH0 DUP2 DUP5 ADD MSTORE PUSH1 0x1F NOT PUSH1 0x1F DUP3 ADD AND SWAP1 POP DUP1 DUP4 ADD SWAP3 POP POP POP POP POP POP POP CALLER PUSH20 0xFFFFFFFFFFFFFFFFFFFFFFFFFFFFFFFFFFFFFFFF AND PUSH1 0x2 DUP3 PUSH1 0x40 MLOAD PUSH2 0x84F SWAP2 SWAP1 PUSH2 0x1F2C JUMP JUMPDEST SWAP1 DUP2 MSTORE PUSH1 0x20 ADD PUSH1 0x40 MLOAD DUP1 SWAP2 SUB SWAP1 KECCAK256 PUSH0 ADD PUSH0 SWAP1 SLOAD SWAP1 PUSH2 0x100 EXP SWAP1 DIV PUSH20 0xFFFFFFFFFFFFFFFFFFFFFFFFFFFFFFFFFFFFFFFF AND PUSH20 0xFFFFFFFFFFFFFFFFFFFFFFFFFFFFFFFFFFFFFFFF AND EQ PUSH2 0x8D5 JUMPI PUSH1 0x40 MLOAD PUSH32 0x8C379A000000000000000000000000000000000000000000000000000000000 DUP2 MSTORE PUSH1 0x4 ADD PUSH2 0x8CC SWAP1 PUSH2 0x1FC2 JUMP JUMPDEST PUSH1 0x40 MLOAD DUP1 SWAP2 SUB SWAP1 REVERT JUMPDEST TIMESTAMP PUSH1 0x2 DUP6 DUP6 PUSH1 0x40 MLOAD PUSH2 0x8E8 SWAP3 SWAP2 SWAP1 PUSH2 0x2100 JUMP JUMPDEST SWAP1 DUP2 MSTORE PUSH1 0x20 ADD PUSH1 0x40 MLOAD DUP1 SWAP2 SUB SWAP1 KECCAK256 PUSH1 0x2 ADD SLOAD LT ISZERO PUSH2 0x93B JUMPI PUSH1 0x40 MLOAD PUSH32 0x8C379A000000000000000000000000000000000000000000000000000000000 DUP2 MSTORE PUSH1 0x4 ADD PUSH2 0x932 SWAP1 PUSH2 0x22B2 JUMP JUMPDEST PUSH1 0x40 MLOAD DUP1 SWAP2 SUB SWAP1 REVERT JUMPDEST DUP2 PUSH1 0x2 DUP6 DUP6 PUSH1 0x40 MLOAD PUSH2 0x94E SWAP3 SWAP2 SWAP1 PUSH2 0x2100 JUMP JUMPDEST SWAP1 DUP2 MSTORE PUSH1 0x20 ADD PUSH1 0x40 MLOAD DUP1 SWAP2 SUB SWAP1 KECCAK256 PUSH1 0x1 ADD PUSH0 PUSH2 0x100 EXP DUP2 SLOAD DUP2 PUSH20 0xFFFFFFFFFFFFFFFFFFFFFFFFFFFFFFFFFFFFFFFF MUL NOT AND SWAP1 DUP4 PUSH20 0xFFFFFFFFFFFFFFFFFFFFFFFFFFFFFFFFFFFFFFFF AND MUL OR SWAP1 SSTORE POP DUP2 PUSH20 0xFFFFFFFFFFFFFFFFFFFFFFFFFFFFFFFFFFFFFFFF AND PUSH32 0x6D25091B0CF2F910DE133FA1124A83CC0BBA17DCDDB63E259346AFFD222EBE44 DUP6 DUP6 PUSH1 0x40 MLOAD PUSH2 0x9E4 SWAP3 SWAP2 SWAP1 PUSH2 0x22D0 JUMP JUMPDEST PUSH1 0x40 MLOAD DUP1 SWAP2 SUB SWAP1 LOG2 POP POP POP POP JUMP JUMPDEST PUSH1 0x1 PUSH0 SWAP1 SLOAD SWAP1 PUSH2 0x100 EXP SWAP1 DIV PUSH20 0xFFFFFFFFFFFFFFFFFFFFFFFFFFFFFFFFFFFFFFFF AND DUP2 JUMP JUMPDEST DUP3 DUP3 DUP1 DUP1 PUSH1 0x1F ADD PUSH1 0x20 DUP1 SWAP2 DIV MUL PUSH1 0x20 ADD PUSH1 0x40 MLOAD SWAP1 DUP2 ADD PUSH1 0x40 MSTORE DUP1 SWAP4 SWAP3 SWAP2 SWAP1 DUP2 DUP2 MSTORE PUSH1 0x20 ADD DUP4 DUP4 DUP1 DUP3 DUP5 CALLDATACOPY PUSH0 DUP2 DUP5 ADD MSTORE PUSH1 0x1F NOT PUSH1 0x1F DUP3 ADD AND SWAP1 POP DUP1 DUP4 ADD SWAP3 POP POP POP POP POP POP POP CALLER PUSH20 0xFFFFFFFFFFFFFFFFFFFFFFFFFFFFFFFFFFFFFFFF AND PUSH1 0x2 DUP3 PUSH1 0x40 MLOAD PUSH2 0xA82 SWAP2 SWAP1 PUSH2 0x1F2C JUMP JUMPDEST SWAP1 DUP2 MSTORE PUSH1 0x20 ADD PUSH1 0x40 MLOAD DUP1 SWAP2 SUB SWAP1 KECCAK256 PUSH0 ADD PUSH0 SWAP1 SLOAD SWAP1 PUSH2 0x100 EXP SWAP1 DIV PUSH20 0xFFFFFFFFFFFFFFFFFFFFFFFFFFFFFFFFFFFFFFFF AND PUSH20 0xFFFFFFFFFFFFFFFFFFFFFFFFFFFFFFFFFFFFFFFF AND EQ PUSH2 0xB08 JUMPI PUSH1 0x40 MLOAD PUSH32 0x8C379A000000000000000000000000000000000000000000000000000000000 DUP2 MSTORE PUSH1 0x4 ADD PUSH2 0xAFF SWAP1 PUSH2 0x1FC2 JUMP JUMPDEST PUSH1 0x40 MLOAD DUP1 SWAP2 SUB SWAP1 REVERT JUMPDEST TIMESTAMP PUSH1 0x2 DUP6 DUP6 PUSH1 0x40 MLOAD PUSH2 0xB1B SWAP3 SWAP2 SWAP1 PUSH2 0x2100 JUMP JUMPDEST SWAP1 DUP2 MSTORE PUSH1 0x20 ADD PUSH1 0x40 MLOAD DUP1 SWAP2 SUB SWAP1 KECCAK256 PUSH1 0x2 ADD SLOAD LT ISZERO PUSH2 0xB6E JUMPI PUSH1 0x40 MLOAD PUSH32 0x8C379A000000000000000000000000000000000000000000000000000000000 DUP2 MSTORE PUSH1 0x4 ADD PUSH2 0xB65 SWAP1 PUSH2 0x22B2 JUMP JUMPDEST PUSH1 0x40 MLOAD DUP1 SWAP2 SUB SWAP1 REVERT JUMPDEST PUSH0 PUSH1 0x2 DUP6 DUP6 PUSH1 0x40 MLOAD PUSH2 0xB81 SWAP3 SWAP2 SWAP1 PUSH2 0x2100 JUMP JUMPDEST SWAP1 DUP2 MSTORE PUSH1 0x20 ADD PUSH1 0x40 MLOAD DUP1 SWAP2 SUB SWAP1 KECCAK256 PUSH0 ADD PUSH0 SWAP1 SLOAD SWAP1 PUSH2 0x100 EXP SWAP1 DIV PUSH20 0xFFFFFFFFFFFFFFFFFFFFFFFFFFFFFFFFFFFFFFFF AND SWAP1 POP DUP3 PUSH1 0x2 DUP7 DUP7 PUSH1 0x40 MLOAD PUSH2 0xBC6 SWAP3 SWAP2 SWAP1 PUSH2 0x2100 JUMP JUMPDEST SWAP1 DUP2 MSTORE PUSH1 0x20 ADD PUSH1 0x40 MLOAD DUP1 SWAP2 SUB SWAP1 KECCAK256 PUSH0 ADD PUSH0 PUSH2 0x100 EXP DUP2 SLOAD DUP2 PUSH20 0xFFFFFFFFFFFFFFFFFFFFFFFFFFFFFFFFFFFFFFFF MUL NOT AND SWAP1 DUP4 PUSH20 0xFFFFFFFFFFFFFFFFFFFFFFFFFFFFFFFFFFFFFFFF AND MUL OR SWAP1 SSTORE POP PUSH2 0xC60 DUP2 DUP7 DUP7 DUP1 DUP1 PUSH1 0x1F ADD PUSH1 0x20 DUP1 SWAP2 DIV MUL PUSH1 0x20 ADD PUSH1 0x40 MLOAD SWAP1 DUP2 ADD PUSH1 0x40 MSTORE DUP1 SWAP4 SWAP3 SWAP2 SWAP1 DUP2 DUP2 MSTORE PUSH1 0x20 ADD DUP4 DUP4 DUP1 DUP3 DUP5 CALLDATACOPY PUSH0 DUP2 DUP5 ADD MSTORE PUSH1 0x1F NOT PUSH1 0x1F DUP3 ADD AND SWAP1 POP DUP1 DUP4 ADD SWAP3 POP POP POP POP POP POP POP PUSH2 0x1531 JUMP JUMPDEST PUSH1 0x3 PUSH0 DUP5 PUSH20 0xFFFFFFFFFFFFFFFFFFFFFFFFFFFFFFFFFFFFFFFF AND PUSH20 0xFFFFFFFFFFFFFFFFFFFFFFFFFFFFFFFFFFFFFFFF AND DUP2 MSTORE PUSH1 0x20 ADD SWAP1 DUP2 MSTORE PUSH1 0x20 ADD PUSH0 KECCAK256 DUP6 DUP6 SWAP1 SWAP2 DUP1 PUSH1 0x1 DUP2 SLOAD ADD DUP1 DUP3 SSTORE DUP1 SWAP2 POP POP PUSH1 0x1 SWAP1 SUB SWAP1 PUSH0 MSTORE PUSH1 0x20 PUSH0 KECCAK256 ADD PUSH0 SWAP1 SWAP2 SWAP3 SWAP1 SWAP2 SWAP3 SWAP1 SWAP2 SWAP3 SWAP1 SWAP2 SWAP3 POP SWAP2 DUP3 PUSH2 0xCD5 SWAP3 SWAP2 SWAP1 PUSH2 0x24F6 JUMP JUMPDEST POP DUP3 PUSH20 0xFFFFFFFFFFFFFFFFFFFFFFFFFFFFFFFFFFFFFFFF AND DUP2 PUSH20 0xFFFFFFFFFFFFFFFFFFFFFFFFFFFFFFFFFFFFFFFF AND PUSH32 0xD43AE7BA5D7F951BA2FB94D03DC0F12664835C289CEA1D1295E86A1FBDDFC82C DUP8 DUP8 PUSH1 0x40 MLOAD PUSH2 0xD35 SWAP3 SWAP2 SWAP1 PUSH2 0x22D0 JUMP JUMPDEST PUSH1 0x40 MLOAD DUP1 SWAP2 SUB SWAP1 LOG3 POP POP POP POP POP JUMP JUMPDEST PUSH0 DUP1 DUP4 DUP4 PUSH1 0x40 MLOAD PUSH2 0xD56 SWAP3 SWAP2 SWAP1 PUSH2 0x2100 JUMP JUMPDEST SWAP1 DUP2 MSTORE PUSH1 0x20 ADD PUSH1 0x40 MLOAD DUP1 SWAP2 SUB SWAP1 KECCAK256 SLOAD SUB PUSH2 0xDA5 JUMPI PUSH1 0x40 MLOAD PUSH32 0x8C379A000000000000000000000000000000000000000000000000000000000 DUP2 MSTORE PUSH1 0x4 ADD PUSH2 0xD9C SWAP1 PUSH2 0x260D JUMP JUMPDEST PUSH1 0x40 MLOAD DUP1 SWAP2 SUB SWAP1 REVERT JUMPDEST PUSH0 PUSH2 0xDF2 DUP8 DUP8 DUP1 DUP1 PUSH1 0x1F ADD PUSH1 0x20 DUP1 SWAP2 DIV MUL PUSH1 0x20 ADD PUSH1 0x40 MLOAD SWAP1 DUP2 ADD PUSH1 0x40 MSTORE DUP1 SWAP4 SWAP3 SWAP2 SWAP1 DUP2 DUP2 MSTORE PUSH1 0x20 ADD DUP4 DUP4 DUP1 DUP3 DUP5 CALLDATACOPY PUSH0 DUP2 DUP5 ADD MSTORE PUSH1 0x1F NOT PUSH1 0x1F DUP3 ADD AND SWAP1 POP DUP1 DUP4 ADD SWAP3 POP POP POP POP POP POP POP PUSH2 0x1689 JUMP JUMPDEST SWAP1 POP PUSH0 DUP2 MLOAD GT DUP1 ISZERO PUSH2 0xE06 JUMPI POP PUSH1 0xF DUP2 MLOAD GT ISZERO JUMPDEST PUSH2 0xE45 JUMPI PUSH1 0x40 MLOAD PUSH32 0x8C379A000000000000000000000000000000000000000000000000000000000 DUP2 MSTORE PUSH1 0x4 ADD PUSH2 0xE3C SWAP1 PUSH2 0x269B JUMP JUMPDEST PUSH1 0x40 MLOAD DUP1 SWAP2 SUB SWAP1 REVERT JUMPDEST PUSH0 DUP2 DUP5 DUP5 PUSH1 0x40 MLOAD PUSH1 0x20 ADD PUSH2 0xE5B SWAP4 SWAP3 SWAP2 SWAP1 PUSH2 0x26B9 JUMP JUMPDEST PUSH1 0x40 MLOAD PUSH1 0x20 DUP2 DUP4 SUB SUB DUP2 MSTORE SWAP1 PUSH1 0x40 MSTORE SWAP1 POP PUSH0 TIMESTAMP PUSH1 0x2 DUP4 PUSH1 0x40 MLOAD PUSH2 0xE7E SWAP2 SWAP1 PUSH2 0x1F2C JUMP JUMPDEST SWAP1 DUP2 MSTORE PUSH1 0x20 ADD PUSH1 0x40 MLOAD DUP1 SWAP2 SUB SWAP1 KECCAK256 PUSH1 0x2 ADD SLOAD LT SWAP1 POP PUSH0 PUSH20 0xFFFFFFFFFFFFFFFFFFFFFFFFFFFFFFFFFFFFFFFF AND PUSH1 0x2 DUP4 PUSH1 0x40 MLOAD PUSH2 0xEBA SWAP2 SWAP1 PUSH2 0x1F2C JUMP JUMPDEST SWAP1 DUP2 MSTORE PUSH1 0x20 ADD PUSH1 0x40 MLOAD DUP1 SWAP2 SUB SWAP1 KECCAK256 PUSH0 ADD PUSH0 SWAP1 SLOAD SWAP1 PUSH2 0x100 EXP SWAP1 DIV PUSH20 0xFFFFFFFFFFFFFFFFFFFFFFFFFFFFFFFFFFFFFFFF AND PUSH20 0xFFFFFFFFFFFFFFFFFFFFFFFFFFFFFFFFFFFFFFFF AND EQ DUP1 PUSH2 0xF09 JUMPI POP DUP1 JUMPDEST PUSH2 0xF48 JUMPI PUSH1 0x40 MLOAD PUSH32 0x8C379A000000000000000000000000000000000000000000000000000000000 DUP2 MSTORE PUSH1 0x4 ADD PUSH2 0xF3F SWAP1 PUSH2 0x274E JUMP JUMPDEST PUSH1 0x40 MLOAD DUP1 SWAP2 SUB SWAP1 REVERT JUMPDEST DUP1 ISZERO PUSH2 0xF98 JUMPI PUSH2 0xF97 PUSH1 0x2 DUP4 PUSH1 0x40 MLOAD PUSH2 0xF61 SWAP2 SWAP1 PUSH2 0x1F2C JUMP JUMPDEST SWAP1 DUP2 MSTORE PUSH1 0x20 ADD PUSH1 0x40 MLOAD DUP1 SWAP2 SUB SWAP1 KECCAK256 PUSH0 ADD PUSH0 SWAP1 SLOAD SWAP1 PUSH2 0x100 EXP SWAP1 DIV PUSH20 0xFFFFFFFFFFFFFFFFFFFFFFFFFFFFFFFFFFFFFFFF AND DUP4 PUSH2 0x1531 JUMP JUMPDEST JUMPDEST PUSH0 DUP7 PUSH0 DUP8 DUP8 PUSH1 0x40 MLOAD PUSH2 0xFAB SWAP3 SWAP2 SWAP1 PUSH2 0x2100 JUMP JUMPDEST SWAP1 DUP2 MSTORE PUSH1 0x20 ADD PUSH1 0x40 MLOAD DUP1 SWAP2 SUB SWAP1 KECCAK256 SLOAD PUSH2 0xFC4 SWAP2 SWAP1 PUSH2 0x200D JUMP JUMPDEST SWAP1 POP DUP1 CALLVALUE LT ISZERO PUSH2 0x1009 JUMPI PUSH1 0x40 MLOAD PUSH32 0x8C379A000000000000000000000000000000000000000000000000000000000 DUP2 MSTORE PUSH1 0x4 ADD PUSH2 0x1000 SWAP1 PUSH2 0x2802 JUMP JUMPDEST PUSH1 0x40 MLOAD DUP1 SWAP2 SUB SWAP1 REVERT JUMPDEST PUSH0 PUSH1 0x3C DUP9 PUSH2 0x1017 SWAP2 SWAP1 PUSH2 0x200D JUMP JUMPDEST TIMESTAMP PUSH2 0x1022 SWAP2 SWAP1 PUSH2 0x2118 JUMP JUMPDEST SWAP1 POP PUSH1 0x40 MLOAD DUP1 PUSH1 0x60 ADD PUSH1 0x40 MSTORE DUP1 CALLER PUSH20 0xFFFFFFFFFFFFFFFFFFFFFFFFFFFFFFFFFFFFFFFF AND DUP2 MSTORE PUSH1 0x20 ADD DUP11 PUSH20 0xFFFFFFFFFFFFFFFFFFFFFFFFFFFFFFFFFFFFFFFF AND DUP2 MSTORE PUSH1 0x20 ADD DUP3 DUP2 MSTORE POP PUSH1 0x2 DUP6 PUSH1 0x40 MLOAD PUSH2 0x107B SWAP2 SWAP1 PUSH2 0x1F2C JUMP JUMPDEST SWAP1 DUP2 MSTORE PUSH1 0x20 ADD PUSH1 0x40 MLOAD DUP1 SWAP2 SUB SWAP1 KECCAK256 PUSH0 DUP3 ADD MLOAD DUP2 PUSH0 ADD PUSH0 PUSH2 0x100 EXP DUP2 SLOAD DUP2 PUSH20 0xFFFFFFFFFFFFFFFFFFFFFFFFFFFFFFFFFFFFFFFF MUL NOT AND SWAP1 DUP4 PUSH20 0xFFFFFFFFFFFFFFFFFFFFFFFFFFFFFFFFFFFFFFFF AND MUL OR SWAP1 SSTORE POP PUSH1 0x20 DUP3 ADD MLOAD DUP2 PUSH1 0x1 ADD PUSH0 PUSH2 0x100 EXP DUP2 SLOAD DUP2 PUSH20 0xFFFFFFFFFFFFFFFFFFFFFFFFFFFFFFFFFFFFFFFF MUL NOT AND SWAP1 DUP4 PUSH20 0xFFFFFFFFFFFFFFFFFFFFFFFFFFFFFFFFFFFFFFFF AND MUL OR SWAP1 SSTORE POP PUSH1 0x40 DUP3 ADD MLOAD DUP2 PUSH1 0x2 ADD SSTORE SWAP1 POP POP PUSH1 0x3 PUSH0 CALLER PUSH20 0xFFFFFFFFFFFFFFFFFFFFFFFFFFFFFFFFFFFFFFFF AND PUSH20 0xFFFFFFFFFFFFFFFFFFFFFFFFFFFFFFFFFFFFFFFF AND DUP2 MSTORE PUSH1 0x20 ADD SWAP1 DUP2 MSTORE PUSH1 0x20 ADD PUSH0 KECCAK256 DUP5 SWAP1 DUP1 PUSH1 0x1 DUP2 SLOAD ADD DUP1 DUP3 SSTORE DUP1 SWAP2 POP POP PUSH1 0x1 SWAP1 SUB SWAP1 PUSH0 MSTORE PUSH1 0x20 PUSH0 KECCAK256 ADD PUSH0 SWAP1 SWAP2 SWAP1 SWAP2 SWAP1 SWAP2 POP SWAP1 DUP2 PUSH2 0x118C SWAP2 SWAP1 PUSH2 0x2820 JUMP JUMPDEST POP CALLER PUSH20 0xFFFFFFFFFFFFFFFFFFFFFFFFFFFFFFFFFFFFFFFF AND PUSH32 0xA5F4533EC077C1B1E4FA879988258637A45B7A6E6663BF8589E0D3DDE3855017 DUP6 DUP12 DUP5 PUSH1 0x40 MLOAD PUSH2 0x11D7 SWAP4 SWAP3 SWAP2 SWAP1 PUSH2 0x2927 JUMP JUMPDEST PUSH1 0x40 MLOAD DUP1 SWAP2 SUB SWAP1 LOG2 DUP2 CALLVALUE GT ISZERO PUSH2 0x1237 JUMPI CALLER PUSH20 0xFFFFFFFFFFFFFFFFFFFFFFFFFFFFFFFFFFFFFFFF AND PUSH2 0x8FC DUP4 CALLVALUE PUSH2 0x120D SWAP2 SWAP1 PUSH2 0x21A7 JUMP JUMPDEST SWAP1 DUP2 ISZERO MUL SWAP1 PUSH1 0x40 MLOAD PUSH0 PUSH1 0x40 MLOAD DUP1 DUP4 SUB DUP2 DUP6 DUP9 DUP9 CALL SWAP4 POP POP POP POP ISZERO DUP1 ISZERO PUSH2 0x1235 JUMPI RETURNDATASIZE PUSH0 DUP1 RETURNDATACOPY RETURNDATASIZE PUSH0 REVERT JUMPDEST POP JUMPDEST POP POP POP POP POP POP POP POP POP POP POP JUMP JUMPDEST PUSH1 0x60 PUSH1 0x3 PUSH0 DUP4 PUSH20 0xFFFFFFFFFFFFFFFFFFFFFFFFFFFFFFFFFFFFFFFF AND PUSH20 0xFFFFFFFFFFFFFFFFFFFFFFFFFFFFFFFFFFFFFFFF AND DUP2 MSTORE PUSH1 0x20 ADD SWAP1 DUP2 MSTORE PUSH1 0x20 ADD PUSH0 KECCAK256 DUP1 SLOAD DUP1 PUSH1 0x20 MUL PUSH1 0x20 ADD PUSH1 0x40 MLOAD SWAP1 DUP2 ADD PUSH1 0x40 MSTORE DUP1 SWAP3 SWAP2 SWAP1 DUP2 DUP2 MSTORE PUSH1 0x20 ADD PUSH0 SWAP1 JUMPDEST DUP3 DUP3 LT ISZERO PUSH2 0x134A JUMPI DUP4 DUP3 SWAP1 PUSH0 MSTORE PUSH1 0x20 PUSH0 KECCAK256 ADD DUP1 SLOAD PUSH2 0x12BF SWAP1 PUSH2 0x2329 JUMP JUMPDEST DUP1 PUSH1 0x1F ADD PUSH1 0x20 DUP1 SWAP2 DIV MUL PUSH1 0x20 ADD PUSH1 0x40 MLOAD SWAP1 DUP2 ADD PUSH1 0x40 MSTORE DUP1 SWAP3 SWAP2 SWAP1 DUP2 DUP2 MSTORE PUSH1 0x20 ADD DUP3 DUP1 SLOAD PUSH2 0x12EB SWAP1 PUSH2 0x2329 JUMP JUMPDEST DUP1 ISZERO PUSH2 0x1336 JUMPI DUP1 PUSH1 0x1F LT PUSH2 0x130D JUMPI PUSH2 0x100 DUP1 DUP4 SLOAD DIV MUL DUP4 MSTORE SWAP2 PUSH1 0x20 ADD SWAP2 PUSH2 0x1336 JUMP JUMPDEST DUP3 ADD SWAP2 SWAP1 PUSH0 MSTORE PUSH1 0x20 PUSH0 KECCAK256 SWAP1 JUMPDEST DUP2 SLOAD DUP2 MSTORE SWAP1 PUSH1 0x1 ADD SWAP1 PUSH1 0x20 ADD DUP1 DUP4 GT PUSH2 0x1319 JUMPI DUP3 SWAP1 SUB PUSH1 0x1F AND DUP3 ADD SWAP2 JUMPDEST POP POP POP POP POP DUP2 MSTORE PUSH1 0x20 ADD SWAP1 PUSH1 0x1 ADD SWAP1 PUSH2 0x12A2 JUMP JUMPDEST POP POP POP POP SWAP1 POP SWAP2 SWAP1 POP JUMP JUMPDEST PUSH0 DUP1 DUP3 SWAP1 POP PUSH0 DUP2 MLOAD SWAP1 POP JUMPDEST PUSH0 DUP2 GT ISZERO PUSH2 0x13F7 JUMPI PUSH32 0x2E00000000000000000000000000000000000000000000000000000000000000 DUP3 PUSH1 0x1 DUP4 PUSH2 0x1397 SWAP2 SWAP1 PUSH2 0x21A7 JUMP JUMPDEST DUP2 MLOAD DUP2 LT PUSH2 0x13A8 JUMPI PUSH2 0x13A7 PUSH2 0x2963 JUMP JUMPDEST JUMPDEST PUSH1 0x20 ADD ADD MLOAD PUSH1 0xF8 SHR PUSH1 0xF8 SHL PUSH31 0xFFFFFFFFFFFFFFFFFFFFFFFFFFFFFFFFFFFFFFFFFFFFFFFFFFFFFFFFFFFFFF NOT AND SUB PUSH2 0x13E4 JUMPI DUP1 SWAP3 POP POP POP PUSH2 0x1433 JUMP JUMPDEST DUP1 DUP1 PUSH2 0x13EF SWAP1 PUSH2 0x2990 JUMP JUMPDEST SWAP2 POP POP PUSH2 0x1360 JUMP JUMPDEST POP PUSH1 0x40 MLOAD PUSH32 0x8C379A000000000000000000000000000000000000000000000000000000000 DUP2 MSTORE PUSH1 0x4 ADD PUSH2 0x142A SWAP1 PUSH2 0x2A01 JUMP JUMPDEST PUSH1 0x40 MLOAD DUP1 SWAP2 SUB SWAP1 REVERT JUMPDEST SWAP2 SWAP1 POP JUMP JUMPDEST PUSH1 0x60 PUSH0 DUP4 SWAP1 POP PUSH0 DUP4 DUP3 MLOAD PUSH2 0x144C SWAP2 SWAP1 PUSH2 0x21A7 JUMP JUMPDEST PUSH8 0xFFFFFFFFFFFFFFFF DUP2 GT ISZERO PUSH2 0x1465 JUMPI PUSH2 0x1464 PUSH2 0x18BD JUMP JUMPDEST JUMPDEST PUSH1 0x40 MLOAD SWAP1 DUP1 DUP3 MSTORE DUP1 PUSH1 0x1F ADD PUSH1 0x1F NOT AND PUSH1 0x20 ADD DUP3 ADD PUSH1 0x40 MSTORE DUP1 ISZERO PUSH2 0x1497 JUMPI DUP2 PUSH1 0x20 ADD PUSH1 0x1 DUP3 MUL DUP1 CALLDATASIZE DUP4 CALLDATACOPY DUP1 DUP3 ADD SWAP2 POP POP SWAP1 POP JUMPDEST POP SWAP1 POP PUSH0 DUP5 SWAP1 POP JUMPDEST DUP3 MLOAD DUP2 LT ISZERO PUSH2 0x1525 JUMPI DUP3 DUP2 DUP2 MLOAD DUP2 LT PUSH2 0x14BB JUMPI PUSH2 0x14BA PUSH2 0x2963 JUMP JUMPDEST JUMPDEST PUSH1 0x20 ADD ADD MLOAD PUSH1 0xF8 SHR PUSH1 0xF8 SHL DUP3 DUP7 DUP4 PUSH2 0x14D3 SWAP2 SWAP1 PUSH2 0x21A7 JUMP JUMPDEST DUP2 MLOAD DUP2 LT PUSH2 0x14E4 JUMPI PUSH2 0x14E3 PUSH2 0x2963 JUMP JUMPDEST JUMPDEST PUSH1 0x20 ADD ADD SWAP1 PUSH31 0xFFFFFFFFFFFFFFFFFFFFFFFFFFFFFFFFFFFFFFFFFFFFFFFFFFFFFFFFFFFFFF NOT AND SWAP1 DUP2 PUSH0 BYTE SWAP1 MSTORE8 POP DUP1 DUP1 PUSH2 0x151D SWAP1 PUSH2 0x2A1F JUMP JUMPDEST SWAP2 POP POP PUSH2 0x149F JUMP JUMPDEST POP DUP1 SWAP3 POP POP POP SWAP3 SWAP2 POP POP JUMP JUMPDEST PUSH0 PUSH1 0x3 PUSH0 DUP5 PUSH20 0xFFFFFFFFFFFFFFFFFFFFFFFFFFFFFFFFFFFFFFFF AND PUSH20 0xFFFFFFFFFFFFFFFFFFFFFFFFFFFFFFFFFFFFFFFF AND DUP2 MSTORE PUSH1 0x20 ADD SWAP1 DUP2 MSTORE PUSH1 0x20 ADD PUSH0 KECCAK256 SWAP1 POP PUSH0 JUMPDEST DUP2 DUP1 SLOAD SWAP1 POP DUP2 LT ISZERO PUSH2 0x1683 JUMPI DUP3 PUSH1 0x40 MLOAD PUSH1 0x20 ADD PUSH2 0x1590 SWAP2 SWAP1 PUSH2 0x1F2C JUMP JUMPDEST PUSH1 0x40 MLOAD PUSH1 0x20 DUP2 DUP4 SUB SUB DUP2 MSTORE SWAP1 PUSH1 0x40 MSTORE DUP1 MLOAD SWAP1 PUSH1 0x20 ADD KECCAK256 DUP3 DUP3 DUP2 SLOAD DUP2 LT PUSH2 0x15B9 JUMPI PUSH2 0x15B8 PUSH2 0x2963 JUMP JUMPDEST JUMPDEST SWAP1 PUSH0 MSTORE PUSH1 0x20 PUSH0 KECCAK256 ADD PUSH1 0x40 MLOAD PUSH1 0x20 ADD PUSH2 0x15D1 SWAP2 SWAP1 PUSH2 0x2AE6 JUMP JUMPDEST PUSH1 0x40 MLOAD PUSH1 0x20 DUP2 DUP4 SUB SUB DUP2 MSTORE SWAP1 PUSH1 0x40 MSTORE DUP1 MLOAD SWAP1 PUSH1 0x20 ADD KECCAK256 SUB PUSH2 0x1670 JUMPI DUP2 PUSH1 0x1 DUP4 DUP1 SLOAD SWAP1 POP PUSH2 0x15FE SWAP2 SWAP1 PUSH2 0x21A7 JUMP JUMPDEST DUP2 SLOAD DUP2 LT PUSH2 0x160F JUMPI PUSH2 0x160E PUSH2 0x2963 JUMP JUMPDEST JUMPDEST SWAP1 PUSH0 MSTORE PUSH1 0x20 PUSH0 KECCAK256 ADD DUP3 DUP3 DUP2 SLOAD DUP2 LT PUSH2 0x162A JUMPI PUSH2 0x1629 PUSH2 0x2963 JUMP JUMPDEST JUMPDEST SWAP1 PUSH0 MSTORE PUSH1 0x20 PUSH0 KECCAK256 ADD SWAP1 DUP2 PUSH2 0x163E SWAP2 SWAP1 PUSH2 0x2B23 JUMP JUMPDEST POP DUP2 DUP1 SLOAD DUP1 PUSH2 0x1650 JUMPI PUSH2 0x164F PUSH2 0x2C08 JUMP JUMPDEST JUMPDEST PUSH1 0x1 SWAP1 SUB DUP2 DUP2 SWAP1 PUSH0 MSTORE PUSH1 0x20 PUSH0 KECCAK256 ADD PUSH0 PUSH2 0x1669 SWAP2 SWAP1 PUSH2 0x183C JUMP JUMPDEST SWAP1 SSTORE PUSH2 0x1683 JUMP JUMPDEST DUP1 DUP1 PUSH2 0x167B SWAP1 PUSH2 0x2A1F JUMP JUMPDEST SWAP2 POP POP PUSH2 0x1573 JUMP JUMPDEST POP POP POP POP JUMP JUMPDEST PUSH1 0x60 PUSH0 DUP3 SWAP1 POP PUSH0 DUP2 MLOAD PUSH8 0xFFFFFFFFFFFFFFFF DUP2 GT ISZERO PUSH2 0x16AB JUMPI PUSH2 0x16AA PUSH2 0x18BD JUMP JUMPDEST JUMPDEST PUSH1 0x40 MLOAD SWAP1 DUP1 DUP3 MSTORE DUP1 PUSH1 0x1F ADD PUSH1 0x1F NOT AND PUSH1 0x20 ADD DUP3 ADD PUSH1 0x40 MSTORE DUP1 ISZERO PUSH2 0x16DD JUMPI DUP2 PUSH1 0x20 ADD PUSH1 0x1 DUP3 MUL DUP1 CALLDATASIZE DUP4 CALLDATACOPY DUP1 DUP3 ADD SWAP2 POP POP SWAP1 POP JUMPDEST POP SWAP1 POP PUSH0 JUMPDEST DUP3 MLOAD DUP2 LT ISZERO PUSH2 0x1831 JUMPI PUSH1 0x41 DUP4 DUP3 DUP2 MLOAD DUP2 LT PUSH2 0x1700 JUMPI PUSH2 0x16FF PUSH2 0x2963 JUMP JUMPDEST JUMPDEST PUSH1 0x20 ADD ADD MLOAD PUSH1 0xF8 SHR PUSH1 0xF8 SHL PUSH1 0xF8 SHR PUSH1 0xFF AND LT ISZERO DUP1 ISZERO PUSH2 0x1743 JUMPI POP PUSH1 0x5A DUP4 DUP3 DUP2 MLOAD DUP2 LT PUSH2 0x172F JUMPI PUSH2 0x172E PUSH2 0x2963 JUMP JUMPDEST JUMPDEST PUSH1 0x20 ADD ADD MLOAD PUSH1 0xF8 SHR PUSH1 0xF8 SHL PUSH1 0xF8 SHR PUSH1 0xFF AND GT ISZERO JUMPDEST ISZERO PUSH2 0x17BE JUMPI PUSH1 0x20 DUP4 DUP3 DUP2 MLOAD DUP2 LT PUSH2 0x175D JUMPI PUSH2 0x175C PUSH2 0x2963 JUMP JUMPDEST JUMPDEST PUSH1 0x20 ADD ADD MLOAD PUSH1 0xF8 SHR PUSH1 0xF8 SHL PUSH1 0xF8 SHR PUSH2 0x1775 SWAP2 SWAP1 PUSH2 0x2C41 JUMP JUMPDEST PUSH1 0xF8 SHL DUP3 DUP3 DUP2 MLOAD DUP2 LT PUSH2 0x178B JUMPI PUSH2 0x178A PUSH2 0x2963 JUMP JUMPDEST JUMPDEST PUSH1 0x20 ADD ADD SWAP1 PUSH31 0xFFFFFFFFFFFFFFFFFFFFFFFFFFFFFFFFFFFFFFFFFFFFFFFFFFFFFFFFFFFFFF NOT AND SWAP1 DUP2 PUSH0 BYTE SWAP1 MSTORE8 POP PUSH2 0x181E JUMP JUMPDEST DUP3 DUP2 DUP2 MLOAD DUP2 LT PUSH2 0x17D1 JUMPI PUSH2 0x17D0 PUSH2 0x2963 JUMP JUMPDEST JUMPDEST PUSH1 0x20 ADD ADD MLOAD PUSH1 0xF8 SHR PUSH1 0xF8 SHL DUP3 DUP3 DUP2 MLOAD DUP2 LT PUSH2 0x17EF JUMPI PUSH2 0x17EE PUSH2 0x2963 JUMP JUMPDEST JUMPDEST PUSH1 0x20 ADD ADD SWAP1 PUSH31 0xFFFFFFFFFFFFFFFFFFFFFFFFFFFFFFFFFFFFFFFFFFFFFFFFFFFFFFFFFFFFFF NOT AND SWAP1 DUP2 PUSH0 BYTE SWAP1 MSTORE8 POP JUMPDEST DUP1 DUP1 PUSH2 0x1829 SWAP1 PUSH2 0x2A1F JUMP JUMPDEST SWAP2 POP POP PUSH2 0x16E2 JUMP JUMPDEST POP DUP1 SWAP3 POP POP POP SWAP2 SWAP1 POP JUMP JUMPDEST POP DUP1 SLOAD PUSH2 0x1848 SWAP1 PUSH2 0x2329 JUMP JUMPDEST PUSH0 DUP3 SSTORE DUP1 PUSH1 0x1F LT PUSH2 0x1859 JUMPI POP PUSH2 0x1876 JUMP JUMPDEST PUSH1 0x1F ADD PUSH1 0x20 SWAP1 DIV SWAP1 PUSH0 MSTORE PUSH1 0x20 PUSH0 KECCAK256 SWAP1 DUP2 ADD SWAP1 PUSH2 0x1875 SWAP2 SWAP1 PUSH2 0x1879 JUMP JUMPDEST JUMPDEST POP JUMP JUMPDEST JUMPDEST DUP1 DUP3 GT ISZERO PUSH2 0x1890 JUMPI PUSH0 DUP2 PUSH0 SWAP1 SSTORE POP PUSH1 0x1 ADD PUSH2 0x187A JUMP JUMPDEST POP SWAP1 JUMP JUMPDEST PUSH0 PUSH1 0x40 MLOAD SWAP1 POP SWAP1 JUMP JUMPDEST PUSH0 DUP1 REVERT JUMPDEST PUSH0 DUP1 REVERT JUMPDEST PUSH0 DUP1 REVERT JUMPDEST PUSH0 DUP1 REVERT JUMPDEST PUSH0 PUSH1 0x1F NOT PUSH1 0x1F DUP4 ADD AND SWAP1 POP SWAP2 SWAP1 POP JUMP JUMPDEST PUSH32 0x4E487B7100000000000000000000000000000000000000000000000000000000 PUSH0 MSTORE PUSH1 0x41 PUSH1 0x4 MSTORE PUSH1 0x24 PUSH0 REVERT JUMPDEST PUSH2 0x18F3 DUP3 PUSH2 0x18AD JUMP JUMPDEST DUP2 ADD DUP2 DUP2 LT PUSH8 0xFFFFFFFFFFFFFFFF DUP3 GT OR ISZERO PUSH2 0x1912 JUMPI PUSH2 0x1911 PUSH2 0x18BD JUMP JUMPDEST JUMPDEST DUP1 PUSH1 0x40 MSTORE POP POP POP JUMP JUMPDEST PUSH0 PUSH2 0x1924 PUSH2 0x1894 JUMP JUMPDEST SWAP1 POP PUSH2 0x1930 DUP3 DUP3 PUSH2 0x18EA JUMP JUMPDEST SWAP2 SWAP1 POP JUMP JUMPDEST PUSH0 PUSH8 0xFFFFFFFFFFFFFFFF DUP3 GT ISZERO PUSH2 0x194F JUMPI PUSH2 0x194E PUSH2 0x18BD JUMP JUMPDEST JUMPDEST PUSH2 0x1958 DUP3 PUSH2 0x18AD JUMP JUMPDEST SWAP1 POP PUSH1 0x20 DUP2 ADD SWAP1 POP SWAP2 SWAP1 POP JUMP JUMPDEST DUP3 DUP2 DUP4 CALLDATACOPY PUSH0 DUP4 DUP4 ADD MSTORE POP POP POP JUMP JUMPDEST PUSH0 PUSH2 0x1985 PUSH2 0x1980 DUP5 PUSH2 0x1935 JUMP JUMPDEST PUSH2 0x191B JUMP JUMPDEST SWAP1 POP DUP3 DUP2 MSTORE PUSH1 0x20 DUP2 ADD DUP5 DUP5 DUP5 ADD GT ISZERO PUSH2 0x19A1 JUMPI PUSH2 0x19A0 PUSH2 0x18A9 JUMP JUMPDEST JUMPDEST PUSH2 0x19AC DUP5 DUP3 DUP6 PUSH2 0x1965 JUMP JUMPDEST POP SWAP4 SWAP3 POP POP POP JUMP JUMPDEST PUSH0 DUP3 PUSH1 0x1F DUP4 ADD SLT PUSH2 0x19C8 JUMPI PUSH2 0x19C7 PUSH2 0x18A5 JUMP JUMPDEST JUMPDEST DUP2 CALLDATALOAD PUSH2 0x19D8 DUP5 DUP3 PUSH1 0x20 DUP7 ADD PUSH2 0x1973 JUMP JUMPDEST SWAP2 POP POP SWAP3 SWAP2 POP POP JUMP JUMPDEST PUSH0 PUSH1 0x20 DUP3 DUP5 SUB SLT ISZERO PUSH2 0x19F6 JUMPI PUSH2 0x19F5 PUSH2 0x189D JUMP JUMPDEST JUMPDEST PUSH0 DUP3 ADD CALLDATALOAD PUSH8 0xFFFFFFFFFFFFFFFF DUP2 GT ISZERO PUSH2 0x1A13 JUMPI PUSH2 0x1A12 PUSH2 0x18A1 JUMP JUMPDEST JUMPDEST PUSH2 0x1A1F DUP5 DUP3 DUP6 ADD PUSH2 0x19B4 JUMP JUMPDEST SWAP2 POP POP SWAP3 SWAP2 POP POP JUMP JUMPDEST PUSH0 DUP2 SWAP1 POP SWAP2 SWAP1 POP JUMP JUMPDEST PUSH2 0x1A3A DUP2 PUSH2 0x1A28 JUMP JUMPDEST DUP3 MSTORE POP POP JUMP JUMPDEST PUSH0 PUSH1 0x20 DUP3 ADD SWAP1 POP PUSH2 0x1A53 PUSH0 DUP4 ADD DUP5 PUSH2 0x1A31 JUMP JUMPDEST SWAP3 SWAP2 POP POP JUMP JUMPDEST PUSH0 DUP1 REVERT JUMPDEST PUSH0 DUP1 REVERT JUMPDEST PUSH0 DUP1 DUP4 PUSH1 0x1F DUP5 ADD SLT PUSH2 0x1A76 JUMPI PUSH2 0x1A75 PUSH2 0x18A5 JUMP JUMPDEST JUMPDEST DUP3 CALLDATALOAD SWAP1 POP PUSH8 0xFFFFFFFFFFFFFFFF DUP2 GT ISZERO PUSH2 0x1A93 JUMPI PUSH2 0x1A92 PUSH2 0x1A59 JUMP JUMPDEST JUMPDEST PUSH1 0x20 DUP4 ADD SWAP2 POP DUP4 PUSH1 0x1 DUP3 MUL DUP4 ADD GT ISZERO PUSH2 0x1AAF JUMPI PUSH2 0x1AAE PUSH2 0x1A5D JUMP JUMPDEST JUMPDEST SWAP3 POP SWAP3 SWAP1 POP JUMP JUMPDEST PUSH2 0x1ABF DUP2 PUSH2 0x1A28 JUMP JUMPDEST DUP2 EQ PUSH2 0x1AC9 JUMPI PUSH0 DUP1 REVERT JUMPDEST POP JUMP JUMPDEST PUSH0 DUP2 CALLDATALOAD SWAP1 POP PUSH2 0x1ADA DUP2 PUSH2 0x1AB6 JUMP JUMPDEST SWAP3 SWAP2 POP POP JUMP JUMPDEST PUSH0 DUP1 PUSH0 PUSH1 0x40 DUP5 DUP7 SUB SLT ISZERO PUSH2 0x1AF7 JUMPI PUSH2 0x1AF6 PUSH2 0x189D JUMP JUMPDEST JUMPDEST PUSH0 DUP5 ADD CALLDATALOAD PUSH8 0xFFFFFFFFFFFFFFFF DUP2 GT ISZERO PUSH2 0x1B14 JUMPI PUSH2 0x1B13 PUSH2 0x18A1 JUMP JUMPDEST JUMPDEST PUSH2 0x1B20 DUP7 DUP3 DUP8 ADD PUSH2 0x1A61 JUMP JUMPDEST SWAP4 POP SWAP4 POP POP PUSH1 0x20 PUSH2 0x1B33 DUP7 DUP3 DUP8 ADD PUSH2 0x1ACC JUMP JUMPDEST SWAP2 POP POP SWAP3 POP SWAP3 POP SWAP3 JUMP JUMPDEST PUSH0 DUP1 PUSH1 0x20 DUP4 DUP6 SUB SLT ISZERO PUSH2 0x1B53 JUMPI PUSH2 0x1B52 PUSH2 0x189D JUMP JUMPDEST JUMPDEST PUSH0 DUP4 ADD CALLDATALOAD PUSH8 0xFFFFFFFFFFFFFFFF DUP2 GT ISZERO PUSH2 0x1B70 JUMPI PUSH2 0x1B6F PUSH2 0x18A1 JUMP JUMPDEST JUMPDEST PUSH2 0x1B7C DUP6 DUP3 DUP7 ADD PUSH2 0x1A61 JUMP JUMPDEST SWAP3 POP SWAP3 POP POP SWAP3 POP SWAP3 SWAP1 POP JUMP JUMPDEST PUSH0 DUP2 ISZERO ISZERO SWAP1 POP SWAP2 SWAP1 POP JUMP JUMPDEST PUSH2 0x1B9C DUP2 PUSH2 0x1B88 JUMP JUMPDEST DUP3 MSTORE POP POP JUMP JUMPDEST PUSH0 PUSH1 0x20 DUP3 ADD SWAP1 POP PUSH2 0x1BB5 PUSH0 DUP4 ADD DUP5 PUSH2 0x1B93 JUMP JUMPDEST SWAP3 SWAP2 POP POP JUMP JUMPDEST PUSH0 PUSH20 0xFFFFFFFFFFFFFFFFFFFFFFFFFFFFFFFFFFFFFFFF DUP3 AND SWAP1 POP SWAP2 SWAP1 POP JUMP JUMPDEST PUSH0 PUSH2 0x1BE4 DUP3 PUSH2 0x1BBB JUMP JUMPDEST SWAP1 POP SWAP2 SWAP1 POP JUMP JUMPDEST PUSH2 0x1BF4 DUP2 PUSH2 0x1BDA JUMP JUMPDEST DUP3 MSTORE POP POP JUMP JUMPDEST PUSH0 PUSH1 0x60 DUP3 ADD SWAP1 POP PUSH2 0x1C0D PUSH0 DUP4 ADD DUP7 PUSH2 0x1BEB JUMP JUMPDEST PUSH2 0x1C1A PUSH1 0x20 DUP4 ADD DUP6 PUSH2 0x1BEB JUMP JUMPDEST PUSH2 0x1C27 PUSH1 0x40 DUP4 ADD DUP5 PUSH2 0x1A31 JUMP JUMPDEST SWAP5 SWAP4 POP POP POP POP JUMP JUMPDEST PUSH2 0x1C38 DUP2 PUSH2 0x1BDA JUMP JUMPDEST DUP2 EQ PUSH2 0x1C42 JUMPI PUSH0 DUP1 REVERT JUMPDEST POP JUMP JUMPDEST PUSH0 DUP2 CALLDATALOAD SWAP1 POP PUSH2 0x1C53 DUP2 PUSH2 0x1C2F JUMP JUMPDEST SWAP3 SWAP2 POP POP JUMP JUMPDEST PUSH0 DUP1 PUSH0 PUSH1 0x40 DUP5 DUP7 SUB SLT ISZERO PUSH2 0x1C70 JUMPI PUSH2 0x1C6F PUSH2 0x189D JUMP JUMPDEST JUMPDEST PUSH0 DUP5 ADD CALLDATALOAD PUSH8 0xFFFFFFFFFFFFFFFF DUP2 GT ISZERO PUSH2 0x1C8D JUMPI PUSH2 0x1C8C PUSH2 0x18A1 JUMP JUMPDEST JUMPDEST PUSH2 0x1C99 DUP7 DUP3 DUP8 ADD PUSH2 0x1A61 JUMP JUMPDEST SWAP4 POP SWAP4 POP POP PUSH1 0x20 PUSH2 0x1CAC DUP7 DUP3 DUP8 ADD PUSH2 0x1C45 JUMP JUMPDEST SWAP2 POP POP SWAP3 POP SWAP3 POP SWAP3 JUMP JUMPDEST PUSH0 PUSH1 0x20 DUP3 ADD SWAP1 POP PUSH2 0x1CC9 PUSH0 DUP4 ADD DUP5 PUSH2 0x1BEB JUMP JUMPDEST SWAP3 SWAP2 POP POP JUMP JUMPDEST PUSH0 DUP1 PUSH0 DUP1 PUSH0 DUP1 PUSH1 0x80 DUP8 DUP10 SUB SLT ISZERO PUSH2 0x1CE9 JUMPI PUSH2 0x1CE8 PUSH2 0x189D JUMP JUMPDEST JUMPDEST PUSH0 DUP8 ADD CALLDATALOAD PUSH8 0xFFFFFFFFFFFFFFFF DUP2 GT ISZERO PUSH2 0x1D06 JUMPI PUSH2 0x1D05 PUSH2 0x18A1 JUMP JUMPDEST JUMPDEST PUSH2 0x1D12 DUP10 DUP3 DUP11 ADD PUSH2 0x1A61 JUMP JUMPDEST SWAP7 POP SWAP7 POP POP PUSH1 0x20 PUSH2 0x1D25 DUP10 DUP3 DUP11 ADD PUSH2 0x1C45 JUMP JUMPDEST SWAP5 POP POP PUSH1 0x40 PUSH2 0x1D36 DUP10 DUP3 DUP11 ADD PUSH2 0x1ACC JUMP JUMPDEST SWAP4 POP POP PUSH1 0x60 DUP8 ADD CALLDATALOAD PUSH8 0xFFFFFFFFFFFFFFFF DUP2 GT ISZERO PUSH2 0x1D57 JUMPI PUSH2 0x1D56 PUSH2 0x18A1 JUMP JUMPDEST JUMPDEST PUSH2 0x1D63 DUP10 DUP3 DUP11 ADD PUSH2 0x1A61 JUMP JUMPDEST SWAP3 POP SWAP3 POP POP SWAP3 SWAP6 POP SWAP3 SWAP6 POP SWAP3 SWAP6 JUMP JUMPDEST PUSH0 PUSH1 0x20 DUP3 DUP5 SUB SLT ISZERO PUSH2 0x1D87 JUMPI PUSH2 0x1D86 PUSH2 0x189D JUMP JUMPDEST JUMPDEST PUSH0 PUSH2 0x1D94 DUP5 DUP3 DUP6 ADD PUSH2 0x1C45 JUMP JUMPDEST SWAP2 POP POP SWAP3 SWAP2 POP POP JUMP JUMPDEST PUSH0 DUP2 MLOAD SWAP1 POP SWAP2 SWAP1 POP JUMP JUMPDEST PUSH0 DUP3 DUP3 MSTORE PUSH1 0x20 DUP3 ADD SWAP1 POP SWAP3 SWAP2 POP POP JUMP JUMPDEST PUSH0 DUP2 SWAP1 POP PUSH1 0x20 DUP3 ADD SWAP1 POP SWAP2 SWAP1 POP JUMP JUMPDEST PUSH0 DUP2 MLOAD SWAP1 POP SWAP2 SWAP1 POP JUMP JUMPDEST PUSH0 DUP3 DUP3 MSTORE PUSH1 0x20 DUP3 ADD SWAP1 POP SWAP3 SWAP2 POP POP JUMP JUMPDEST PUSH0 JUMPDEST DUP4 DUP2 LT ISZERO PUSH2 0x1DFD JUMPI DUP1 DUP3 ADD MLOAD DUP2 DUP5 ADD MSTORE PUSH1 0x20 DUP2 ADD SWAP1 POP PUSH2 0x1DE2 JUMP JUMPDEST PUSH0 DUP5 DUP5 ADD MSTORE POP POP POP POP JUMP JUMPDEST PUSH0 PUSH2 0x1E12 DUP3 PUSH2 0x1DC6 JUMP JUMPDEST PUSH2 0x1E1C DUP2 DUP6 PUSH2 0x1DD0 JUMP JUMPDEST SWAP4 POP PUSH2 0x1E2C DUP2 DUP6 PUSH1 0x20 DUP7 ADD PUSH2 0x1DE0 JUMP JUMPDEST PUSH2 0x1E35 DUP2 PUSH2 0x18AD JUMP JUMPDEST DUP5 ADD SWAP2 POP POP SWAP3 SWAP2 POP POP JUMP JUMPDEST PUSH0 PUSH2 0x1E4B DUP4 DUP4 PUSH2 0x1E08 JUMP JUMPDEST SWAP1 POP SWAP3 SWAP2 POP POP JUMP JUMPDEST PUSH0 PUSH1 0x20 DUP3 ADD SWAP1 POP SWAP2 SWAP1 POP JUMP JUMPDEST PUSH0 PUSH2 0x1E69 DUP3 PUSH2 0x1D9D JUMP JUMPDEST PUSH2 0x1E73 DUP2 DUP6 PUSH2 0x1DA7 JUMP JUMPDEST SWAP4 POP DUP4 PUSH1 0x20 DUP3 MUL DUP6 ADD PUSH2 0x1E85 DUP6 PUSH2 0x1DB7 JUMP JUMPDEST DUP1 PUSH0 JUMPDEST DUP6 DUP2 LT ISZERO PUSH2 0x1EC0 JUMPI DUP5 DUP5 SUB DUP10 MSTORE DUP2 MLOAD PUSH2 0x1EA1 DUP6 DUP3 PUSH2 0x1E40 JUMP JUMPDEST SWAP5 POP PUSH2 0x1EAC DUP4 PUSH2 0x1E53 JUMP JUMPDEST SWAP3 POP PUSH1 0x20 DUP11 ADD SWAP10 POP POP PUSH1 0x1 DUP2 ADD SWAP1 POP PUSH2 0x1E88 JUMP JUMPDEST POP DUP3 SWAP8 POP DUP8 SWAP6 POP POP POP POP POP POP SWAP3 SWAP2 POP POP JUMP JUMPDEST PUSH0 PUSH1 0x20 DUP3 ADD SWAP1 POP DUP2 DUP2 SUB PUSH0 DUP4 ADD MSTORE PUSH2 0x1EEA DUP2 DUP5 PUSH2 0x1E5F JUMP JUMPDEST SWAP1 POP SWAP3 SWAP2 POP POP JUMP JUMPDEST PUSH0 DUP2 SWAP1 POP SWAP3 SWAP2 POP POP JUMP JUMPDEST PUSH0 PUSH2 0x1F06 DUP3 PUSH2 0x1DC6 JUMP JUMPDEST PUSH2 0x1F10 DUP2 DUP6 PUSH2 0x1EF2 JUMP JUMPDEST SWAP4 POP PUSH2 0x1F20 DUP2 DUP6 PUSH1 0x20 DUP7 ADD PUSH2 0x1DE0 JUMP JUMPDEST DUP1 DUP5 ADD SWAP2 POP POP SWAP3 SWAP2 POP POP JUMP JUMPDEST PUSH0 PUSH2 0x1F37 DUP3 DUP5 PUSH2 0x1EFC JUMP JUMPDEST SWAP2 POP DUP2 SWAP1 POP SWAP3 SWAP2 POP POP JUMP JUMPDEST PUSH0 DUP3 DUP3 MSTORE PUSH1 0x20 DUP3 ADD SWAP1 POP SWAP3 SWAP2 POP POP JUMP JUMPDEST PUSH32 0x596F7520617265206E6F7420746865206F776E6572206F66207468697320646F PUSH0 DUP3 ADD MSTORE PUSH32 0x6D61696E2E000000000000000000000000000000000000000000000000000000 PUSH1 0x20 DUP3 ADD MSTORE POP JUMP JUMPDEST PUSH0 PUSH2 0x1FAC PUSH1 0x25 DUP4 PUSH2 0x1F42 JUMP JUMPDEST SWAP2 POP PUSH2 0x1FB7 DUP3 PUSH2 0x1F52 JUMP JUMPDEST PUSH1 0x40 DUP3 ADD SWAP1 POP SWAP2 SWAP1 POP JUMP JUMPDEST PUSH0 PUSH1 0x20 DUP3 ADD SWAP1 POP DUP2 DUP2 SUB PUSH0 DUP4 ADD MSTORE PUSH2 0x1FD9 DUP2 PUSH2 0x1FA0 JUMP JUMPDEST SWAP1 POP SWAP2 SWAP1 POP JUMP JUMPDEST PUSH32 0x4E487B7100000000000000000000000000000000000000000000000000000000 PUSH0 MSTORE PUSH1 0x11 PUSH1 0x4 MSTORE PUSH1 0x24 PUSH0 REVERT JUMPDEST PUSH0 PUSH2 0x2017 DUP3 PUSH2 0x1A28 JUMP JUMPDEST SWAP2 POP PUSH2 0x2022 DUP4 PUSH2 0x1A28 JUMP JUMPDEST SWAP3 POP DUP3 DUP3 MUL PUSH2 0x2030 DUP2 PUSH2 0x1A28 JUMP JUMPDEST SWAP2 POP DUP3 DUP3 DIV DUP5 EQ DUP4 ISZERO OR PUSH2 0x2047 JUMPI PUSH2 0x2046 PUSH2 0x1FE0 JUMP JUMPDEST JUMPDEST POP SWAP3 SWAP2 POP POP JUMP JUMPDEST PUSH32 0x496E73756666696369656E742066756E647320746F2072656E65772074686520 PUSH0 DUP3 ADD MSTORE PUSH32 0x646F6D61696E20666F7220746865207370656369666965642079656172730000 PUSH1 0x20 DUP3 ADD MSTORE POP JUMP JUMPDEST PUSH0 PUSH2 0x20A8 PUSH1 0x3E DUP4 PUSH2 0x1F42 JUMP JUMPDEST SWAP2 POP PUSH2 0x20B3 DUP3 PUSH2 0x204E JUMP JUMPDEST PUSH1 0x40 DUP3 ADD SWAP1 POP SWAP2 SWAP1 POP JUMP JUMPDEST PUSH0 PUSH1 0x20 DUP3 ADD SWAP1 POP DUP2 DUP2 SUB PUSH0 DUP4 ADD MSTORE PUSH2 0x20D5 DUP2 PUSH2 0x209C JUMP JUMPDEST SWAP1 POP SWAP2 SWAP1 POP JUMP JUMPDEST PUSH0 PUSH2 0x20E7 DUP4 DUP6 PUSH2 0x1EF2 JUMP JUMPDEST SWAP4 POP PUSH2 0x20F4 DUP4 DUP6 DUP5 PUSH2 0x1965 JUMP JUMPDEST DUP3 DUP5 ADD SWAP1 POP SWAP4 SWAP3 POP POP POP JUMP JUMPDEST PUSH0 PUSH2 0x210C DUP3 DUP5 DUP7 PUSH2 0x20DC JUMP JUMPDEST SWAP2 POP DUP2 SWAP1 POP SWAP4 SWAP3 POP POP POP JUMP JUMPDEST PUSH0 PUSH2 0x2122 DUP3 PUSH2 0x1A28 JUMP JUMPDEST SWAP2 POP PUSH2 0x212D DUP4 PUSH2 0x1A28 JUMP JUMPDEST SWAP3 POP DUP3 DUP3 ADD SWAP1 POP DUP1 DUP3 GT ISZERO PUSH2 0x2145 JUMPI PUSH2 0x2144 PUSH2 0x1FE0 JUMP JUMPDEST JUMPDEST SWAP3 SWAP2 POP POP JUMP JUMPDEST PUSH0 PUSH2 0x2156 DUP4 DUP6 PUSH2 0x1F42 JUMP JUMPDEST SWAP4 POP PUSH2 0x2163 DUP4 DUP6 DUP5 PUSH2 0x1965 JUMP JUMPDEST PUSH2 0x216C DUP4 PUSH2 0x18AD JUMP JUMPDEST DUP5 ADD SWAP1 POP SWAP4 SWAP3 POP POP POP JUMP JUMPDEST PUSH0 PUSH1 0x40 DUP3 ADD SWAP1 POP DUP2 DUP2 SUB PUSH0 DUP4 ADD MSTORE PUSH2 0x2190 DUP2 DUP6 DUP8 PUSH2 0x214B JUMP JUMPDEST SWAP1 POP PUSH2 0x219F PUSH1 0x20 DUP4 ADD DUP5 PUSH2 0x1A31 JUMP JUMPDEST SWAP5 SWAP4 POP POP POP POP JUMP JUMPDEST PUSH0 PUSH2 0x21B1 DUP3 PUSH2 0x1A28 JUMP JUMPDEST SWAP2 POP PUSH2 0x21BC DUP4 PUSH2 0x1A28 JUMP JUMPDEST SWAP3 POP DUP3 DUP3 SUB SWAP1 POP DUP2 DUP2 GT ISZERO PUSH2 0x21D4 JUMPI PUSH2 0x21D3 PUSH2 0x1FE0 JUMP JUMPDEST JUMPDEST SWAP3 SWAP2 POP POP JUMP JUMPDEST PUSH32 0x4F6E6C792074686520636F6E7472616374206F776E65722063616E2063616C6C PUSH0 DUP3 ADD MSTORE PUSH32 0x20746869732066756E6374696F6E2E0000000000000000000000000000000000 PUSH1 0x20 DUP3 ADD MSTORE POP JUMP JUMPDEST PUSH0 PUSH2 0x2234 PUSH1 0x2F DUP4 PUSH2 0x1F42 JUMP JUMPDEST SWAP2 POP PUSH2 0x223F DUP3 PUSH2 0x21DA JUMP JUMPDEST PUSH1 0x40 DUP3 ADD SWAP1 POP SWAP2 SWAP1 POP JUMP JUMPDEST PUSH0 PUSH1 0x20 DUP3 ADD SWAP1 POP DUP2 DUP2 SUB PUSH0 DUP4 ADD MSTORE PUSH2 0x2261 DUP2 PUSH2 0x2228 JUMP JUMPDEST SWAP1 POP SWAP2 SWAP1 POP JUMP JUMPDEST PUSH32 0x446F6D61696E2068617320657870697265642E00000000000000000000000000 PUSH0 DUP3 ADD MSTORE POP JUMP JUMPDEST PUSH0 PUSH2 0x229C PUSH1 0x13 DUP4 PUSH2 0x1F42 JUMP JUMPDEST SWAP2 POP PUSH2 0x22A7 DUP3 PUSH2 0x2268 JUMP JUMPDEST PUSH1 0x20 DUP3 ADD SWAP1 POP SWAP2 SWAP1 POP JUMP JUMPDEST PUSH0 PUSH1 0x20 DUP3 ADD SWAP1 POP DUP2 DUP2 SUB PUSH0 DUP4 ADD MSTORE PUSH2 0x22C9 DUP2 PUSH2 0x2290 JUMP JUMPDEST SWAP1 POP SWAP2 SWAP1 POP JUMP JUMPDEST PUSH0 PUSH1 0x20 DUP3 ADD SWAP1 POP DUP2 DUP2 SUB PUSH0 DUP4 ADD MSTORE PUSH2 0x22E9 DUP2 DUP5 DUP7 PUSH2 0x214B JUMP JUMPDEST SWAP1 POP SWAP4 SWAP3 POP POP POP JUMP JUMPDEST PUSH0 DUP3 SWAP1 POP SWAP3 SWAP2 POP POP JUMP JUMPDEST PUSH32 0x4E487B7100000000000000000000000000000000000000000000000000000000 PUSH0 MSTORE PUSH1 0x22 PUSH1 0x4 MSTORE PUSH1 0x24 PUSH0 REVERT JUMPDEST PUSH0 PUSH1 0x2 DUP3 DIV SWAP1 POP PUSH1 0x1 DUP3 AND DUP1 PUSH2 0x2340 JUMPI PUSH1 0x7F DUP3 AND SWAP2 POP JUMPDEST PUSH1 0x20 DUP3 LT DUP2 SUB PUSH2 0x2353 JUMPI PUSH2 0x2352 PUSH2 0x22FC JUMP JUMPDEST JUMPDEST POP SWAP2 SWAP1 POP JUMP JUMPDEST PUSH0 DUP2 SWAP1 POP DUP2 PUSH0 MSTORE PUSH1 0x20 PUSH0 KECCAK256 SWAP1 POP SWAP2 SWAP1 POP JUMP JUMPDEST PUSH0 PUSH1 0x20 PUSH1 0x1F DUP4 ADD DIV SWAP1 POP SWAP2 SWAP1 POP JUMP JUMPDEST PUSH0 DUP3 DUP3 SHL SWAP1 POP SWAP3 SWAP2 POP POP JUMP JUMPDEST PUSH0 PUSH1 0x8 DUP4 MUL PUSH2 0x23B5 PUSH32 0xFFFFFFFFFFFFFFFFFFFFFFFFFFFFFFFFFFFFFFFFFFFFFFFFFFFFFFFFFFFFFFFF DUP3 PUSH2 0x237A JUMP JUMPDEST PUSH2 0x23BF DUP7 DUP4 PUSH2 0x237A JUMP JUMPDEST SWAP6 POP DUP1 NOT DUP5 AND SWAP4 POP DUP1 DUP7 AND DUP5 OR SWAP3 POP POP POP SWAP4 SWAP3 POP POP POP JUMP JUMPDEST PUSH0 DUP2 SWAP1 POP SWAP2 SWAP1 POP JUMP JUMPDEST PUSH0 PUSH2 0x23FA PUSH2 0x23F5 PUSH2 0x23F0 DUP5 PUSH2 0x1A28 JUMP JUMPDEST PUSH2 0x23D7 JUMP JUMPDEST PUSH2 0x1A28 JUMP JUMPDEST SWAP1 POP SWAP2 SWAP1 POP JUMP JUMPDEST PUSH0 DUP2 SWAP1 POP SWAP2 SWAP1 POP JUMP JUMPDEST PUSH2 0x2413 DUP4 PUSH2 0x23E0 JUMP JUMPDEST PUSH2 0x2427 PUSH2 0x241F DUP3 PUSH2 0x2401 JUMP JUMPDEST DUP5 DUP5 SLOAD PUSH2 0x2386 JUMP JUMPDEST DUP3 SSTORE POP POP POP POP JUMP JUMPDEST PUSH0 SWAP1 JUMP JUMPDEST PUSH2 0x243B PUSH2 0x242F JUMP JUMPDEST PUSH2 0x2446 DUP2 DUP5 DUP5 PUSH2 0x240A JUMP JUMPDEST POP POP POP JUMP JUMPDEST JUMPDEST DUP2 DUP2 LT ISZERO PUSH2 0x2469 JUMPI PUSH2 0x245E PUSH0 DUP3 PUSH2 0x2433 JUMP JUMPDEST PUSH1 0x1 DUP2 ADD SWAP1 POP PUSH2 0x244C JUMP JUMPDEST POP POP JUMP JUMPDEST PUSH1 0x1F DUP3 GT ISZERO PUSH2 0x24AE JUMPI PUSH2 0x247F DUP2 PUSH2 0x2359 JUMP JUMPDEST PUSH2 0x2488 DUP5 PUSH2 0x236B JUMP JUMPDEST DUP2 ADD PUSH1 0x20 DUP6 LT ISZERO PUSH2 0x2497 JUMPI DUP2 SWAP1 POP JUMPDEST PUSH2 0x24AB PUSH2 0x24A3 DUP6 PUSH2 0x236B JUMP JUMPDEST DUP4 ADD DUP3 PUSH2 0x244B JUMP JUMPDEST POP POP JUMPDEST POP POP POP JUMP JUMPDEST PUSH0 DUP3 DUP3 SHR SWAP1 POP SWAP3 SWAP2 POP POP JUMP JUMPDEST PUSH0 PUSH2 0x24CE PUSH0 NOT DUP5 PUSH1 0x8 MUL PUSH2 0x24B3 JUMP JUMPDEST NOT DUP1 DUP4 AND SWAP2 POP POP SWAP3 SWAP2 POP POP JUMP JUMPDEST PUSH0 PUSH2 0x24E6 DUP4 DUP4 PUSH2 0x24BF JUMP JUMPDEST SWAP2 POP DUP3 PUSH1 0x2 MUL DUP3 OR SWAP1 POP SWAP3 SWAP2 POP POP JUMP JUMPDEST PUSH2 0x2500 DUP4 DUP4 PUSH2 0x22F2 JUMP JUMPDEST PUSH8 0xFFFFFFFFFFFFFFFF DUP2 GT ISZERO PUSH2 0x2519 JUMPI PUSH2 0x2518 PUSH2 0x18BD JUMP JUMPDEST JUMPDEST PUSH2 0x2523 DUP3 SLOAD PUSH2 0x2329 JUMP JUMPDEST PUSH2 0x252E DUP3 DUP3 DUP6 PUSH2 0x246D JUMP JUMPDEST PUSH0 PUSH1 0x1F DUP4 GT PUSH1 0x1 DUP2 EQ PUSH2 0x255B JUMPI PUSH0 DUP5 ISZERO PUSH2 0x2549 JUMPI DUP3 DUP8 ADD CALLDATALOAD SWAP1 POP JUMPDEST PUSH2 0x2553 DUP6 DUP3 PUSH2 0x24DB JUMP JUMPDEST DUP7 SSTORE POP PUSH2 0x25BA JUMP JUMPDEST PUSH1 0x1F NOT DUP5 AND PUSH2 0x2569 DUP7 PUSH2 0x2359 JUMP JUMPDEST PUSH0 JUMPDEST DUP3 DUP2 LT ISZERO PUSH2 0x2590 JUMPI DUP5 DUP10 ADD CALLDATALOAD DUP3 SSTORE PUSH1 0x1 DUP3 ADD SWAP2 POP PUSH1 0x20 DUP6 ADD SWAP5 POP PUSH1 0x20 DUP2 ADD SWAP1 POP PUSH2 0x256B JUMP JUMPDEST DUP7 DUP4 LT ISZERO PUSH2 0x25AD JUMPI DUP5 DUP10 ADD CALLDATALOAD PUSH2 0x25A9 PUSH1 0x1F DUP10 AND DUP3 PUSH2 0x24BF JUMP JUMPDEST DUP4 SSTORE POP JUMPDEST PUSH1 0x1 PUSH1 0x2 DUP9 MUL ADD DUP9 SSTORE POP POP POP JUMPDEST POP POP POP POP POP POP POP JUMP JUMPDEST PUSH32 0x496E76616C696420737566666978000000000000000000000000000000000000 PUSH0 DUP3 ADD MSTORE POP JUMP JUMPDEST PUSH0 PUSH2 0x25F7 PUSH1 0xE DUP4 PUSH2 0x1F42 JUMP JUMPDEST SWAP2 POP PUSH2 0x2602 DUP3 PUSH2 0x25C3 JUMP JUMPDEST PUSH1 0x20 DUP3 ADD SWAP1 POP SWAP2 SWAP1 POP JUMP JUMPDEST PUSH0 PUSH1 0x20 DUP3 ADD SWAP1 POP DUP2 DUP2 SUB PUSH0 DUP4 ADD MSTORE PUSH2 0x2624 DUP2 PUSH2 0x25EB JUMP JUMPDEST SWAP1 POP SWAP2 SWAP1 POP JUMP JUMPDEST PUSH32 0x4E616D652073686F756C64206265206265747765656E203120616E6420313520 PUSH0 DUP3 ADD MSTORE PUSH32 0x636861726163746572732E000000000000000000000000000000000000000000 PUSH1 0x20 DUP3 ADD MSTORE POP JUMP JUMPDEST PUSH0 PUSH2 0x2685 PUSH1 0x2B DUP4 PUSH2 0x1F42 JUMP JUMPDEST SWAP2 POP PUSH2 0x2690 DUP3 PUSH2 0x262B JUMP JUMPDEST PUSH1 0x40 DUP3 ADD SWAP1 POP SWAP2 SWAP1 POP JUMP JUMPDEST PUSH0 PUSH1 0x20 DUP3 ADD SWAP1 POP DUP2 DUP2 SUB PUSH0 DUP4 ADD MSTORE PUSH2 0x26B2 DUP2 PUSH2 0x2679 JUMP JUMPDEST SWAP1 POP SWAP2 SWAP1 POP JUMP JUMPDEST PUSH0 PUSH2 0x26C4 DUP3 DUP7 PUSH2 0x1EFC JUMP JUMPDEST SWAP2 POP PUSH2 0x26D1 DUP3 DUP5 DUP7 PUSH2 0x20DC JUMP JUMPDEST SWAP2 POP DUP2 SWAP1 POP SWAP5 SWAP4 POP POP POP POP JUMP JUMPDEST PUSH32 0x446F6D61696E20697320616C7265616479206F776E6564206F72206E6F742079 PUSH0 DUP3 ADD MSTORE PUSH32 0x6574206578706972656400000000000000000000000000000000000000000000 PUSH1 0x20 DUP3 ADD MSTORE POP JUMP JUMPDEST PUSH0 PUSH2 0x2738 PUSH1 0x2A DUP4 PUSH2 0x1F42 JUMP JUMPDEST SWAP2 POP PUSH2 0x2743 DUP3 PUSH2 0x26DE JUMP JUMPDEST PUSH1 0x40 DUP3 ADD SWAP1 POP SWAP2 SWAP1 POP JUMP JUMPDEST PUSH0 PUSH1 0x20 DUP3 ADD SWAP1 POP DUP2 DUP2 SUB PUSH0 DUP4 ADD MSTORE PUSH2 0x2765 DUP2 PUSH2 0x272C JUMP JUMPDEST SWAP1 POP SWAP2 SWAP1 POP JUMP JUMPDEST PUSH32 0x496E73756666696369656E742066756E647320746F2072656769737465722074 PUSH0 DUP3 ADD MSTORE PUSH32 0x686520646F6D61696E20666F7220746865207370656369666965642079656172 PUSH1 0x20 DUP3 ADD MSTORE PUSH32 0x7300000000000000000000000000000000000000000000000000000000000000 PUSH1 0x40 DUP3 ADD MSTORE POP JUMP JUMPDEST PUSH0 PUSH2 0x27EC PUSH1 0x41 DUP4 PUSH2 0x1F42 JUMP JUMPDEST SWAP2 POP PUSH2 0x27F7 DUP3 PUSH2 0x276C JUMP JUMPDEST PUSH1 0x60 DUP3 ADD SWAP1 POP SWAP2 SWAP1 POP JUMP JUMPDEST PUSH0 PUSH1 0x20 DUP3 ADD SWAP1 POP DUP2 DUP2 SUB PUSH0 DUP4 ADD MSTORE PUSH2 0x2819 DUP2 PUSH2 0x27E0 JUMP JUMPDEST SWAP1 POP SWAP2 SWAP1 POP JUMP JUMPDEST PUSH2 0x2829 DUP3 PUSH2 0x1DC6 JUMP JUMPDEST PUSH8 0xFFFFFFFFFFFFFFFF DUP2 GT ISZERO PUSH2 0x2842 JUMPI PUSH2 0x2841 PUSH2 0x18BD JUMP JUMPDEST JUMPDEST PUSH2 0x284C DUP3 SLOAD PUSH2 0x2329 JUMP JUMPDEST PUSH2 0x2857 DUP3 DUP3 DUP6 PUSH2 0x246D JUMP JUMPDEST PUSH0 PUSH1 0x20 SWAP1 POP PUSH1 0x1F DUP4 GT PUSH1 0x1 DUP2 EQ PUSH2 0x2888 JUMPI PUSH0 DUP5 ISZERO PUSH2 0x2876 JUMPI DUP3 DUP8 ADD MLOAD SWAP1 POP JUMPDEST PUSH2 0x2880 DUP6 DUP3 PUSH2 0x24DB JUMP JUMPDEST DUP7 SSTORE POP PUSH2 0x28E7 JUMP JUMPDEST PUSH1 0x1F NOT DUP5 AND PUSH2 0x2896 DUP7 PUSH2 0x2359 JUMP JUMPDEST PUSH0 JUMPDEST DUP3 DUP2 LT ISZERO PUSH2 0x28BD JUMPI DUP5 DUP10 ADD MLOAD DUP3 SSTORE PUSH1 0x1 DUP3 ADD SWAP2 POP PUSH1 0x20 DUP6 ADD SWAP5 POP PUSH1 0x20 DUP2 ADD SWAP1 POP PUSH2 0x2898 JUMP JUMPDEST DUP7 DUP4 LT ISZERO PUSH2 0x28DA JUMPI DUP5 DUP10 ADD MLOAD PUSH2 0x28D6 PUSH1 0x1F DUP10 AND DUP3 PUSH2 0x24BF JUMP JUMPDEST DUP4 SSTORE POP JUMPDEST PUSH1 0x1 PUSH1 0x2 DUP9 MUL ADD DUP9 SSTORE POP POP POP JUMPDEST POP POP POP POP POP POP JUMP JUMPDEST PUSH0 PUSH2 0x28F9 DUP3 PUSH2 0x1DC6 JUMP JUMPDEST PUSH2 0x2903 DUP2 DUP6 PUSH2 0x1F42 JUMP JUMPDEST SWAP4 POP PUSH2 0x2913 DUP2 DUP6 PUSH1 0x20 DUP7 ADD PUSH2 0x1DE0 JUMP JUMPDEST PUSH2 0x291C DUP2 PUSH2 0x18AD JUMP JUMPDEST DUP5 ADD SWAP2 POP POP SWAP3 SWAP2 POP POP JUMP JUMPDEST PUSH0 PUSH1 0x60 DUP3 ADD SWAP1 POP DUP2 DUP2 SUB PUSH0 DUP4 ADD MSTORE PUSH2 0x293F DUP2 DUP7 PUSH2 0x28EF JUMP JUMPDEST SWAP1 POP PUSH2 0x294E PUSH1 0x20 DUP4 ADD DUP6 PUSH2 0x1BEB JUMP JUMPDEST PUSH2 0x295B PUSH1 0x40 DUP4 ADD DUP5 PUSH2 0x1A31 JUMP JUMPDEST SWAP5 SWAP4 POP POP POP POP JUMP JUMPDEST PUSH32 0x4E487B7100000000000000000000000000000000000000000000000000000000 PUSH0 MSTORE PUSH1 0x32 PUSH1 0x4 MSTORE PUSH1 0x24 PUSH0 REVERT JUMPDEST PUSH0 PUSH2 0x299A DUP3 PUSH2 0x1A28 JUMP JUMPDEST SWAP2 POP PUSH0 DUP3 SUB PUSH2 0x29AC JUMPI PUSH2 0x29AB PUSH2 0x1FE0 JUMP JUMPDEST JUMPDEST PUSH1 0x1 DUP3 SUB SWAP1 POP SWAP2 SWAP1 POP JUMP JUMPDEST PUSH32 0x4E6F2073756666697820666F756E640000000000000000000000000000000000 PUSH0 DUP3 ADD MSTORE POP JUMP JUMPDEST PUSH0 PUSH2 0x29EB PUSH1 0xF DUP4 PUSH2 0x1F42 JUMP JUMPDEST SWAP2 POP PUSH2 0x29F6 DUP3 PUSH2 0x29B7 JUMP JUMPDEST PUSH1 0x20 DUP3 ADD SWAP1 POP SWAP2 SWAP1 POP JUMP JUMPDEST PUSH0 PUSH1 0x20 DUP3 ADD SWAP1 POP DUP2 DUP2 SUB PUSH0 DUP4 ADD MSTORE PUSH2 0x2A18 DUP2 PUSH2 0x29DF JUMP JUMPDEST SWAP1 POP SWAP2 SWAP1 POP JUMP JUMPDEST PUSH0 PUSH2 0x2A29 DUP3 PUSH2 0x1A28 JUMP JUMPDEST SWAP2 POP PUSH32 0xFFFFFFFFFFFFFFFFFFFFFFFFFFFFFFFFFFFFFFFFFFFFFFFFFFFFFFFFFFFFFFFF DUP3 SUB PUSH2 0x2A5B JUMPI PUSH2 0x2A5A PUSH2 0x1FE0 JUMP JUMPDEST JUMPDEST PUSH1 0x1 DUP3 ADD SWAP1 POP SWAP2 SWAP1 POP JUMP JUMPDEST PUSH0 DUP2 SLOAD PUSH2 0x2A72 DUP2 PUSH2 0x2329 JUMP JUMPDEST PUSH2 0x2A7C DUP2 DUP7 PUSH2 0x1EF2 JUMP JUMPDEST SWAP5 POP PUSH1 0x1 DUP3 AND PUSH0 DUP2 EQ PUSH2 0x2A96 JUMPI PUSH1 0x1 DUP2 EQ PUSH2 0x2AAB JUMPI PUSH2 0x2ADD JUMP JUMPDEST PUSH1 0xFF NOT DUP4 AND DUP7 MSTORE DUP2 ISZERO ISZERO DUP3 MUL DUP7 ADD SWAP4 POP PUSH2 0x2ADD JUMP JUMPDEST PUSH2 0x2AB4 DUP6 PUSH2 0x2359 JUMP JUMPDEST PUSH0 JUMPDEST DUP4 DUP2 LT ISZERO PUSH2 0x2AD5 JUMPI DUP2 SLOAD DUP2 DUP10 ADD MSTORE PUSH1 0x1 DUP3 ADD SWAP2 POP PUSH1 0x20 DUP2 ADD SWAP1 POP PUSH2 0x2AB6 JUMP JUMPDEST DUP4 DUP9 ADD SWAP6 POP POP POP JUMPDEST POP POP POP SWAP3 SWAP2 POP POP JUMP JUMPDEST PUSH0 PUSH2 0x2AF1 DUP3 DUP5 PUSH2 0x2A66 JUMP JUMPDEST SWAP2 POP DUP2 SWAP1 POP SWAP3 SWAP2 POP POP JUMP JUMPDEST PUSH0 DUP2 SLOAD SWAP1 POP PUSH2 0x2B0A DUP2 PUSH2 0x2329 JUMP JUMPDEST SWAP1 POP SWAP2 SWAP1 POP JUMP JUMPDEST PUSH0 DUP2 SWAP1 POP DUP2 PUSH0 MSTORE PUSH1 0x20 PUSH0 KECCAK256 SWAP1 POP SWAP2 SWAP1 POP JUMP JUMPDEST DUP2 DUP2 SUB PUSH2 0x2B31 JUMPI POP POP PUSH2 0x2C06 JUMP JUMPDEST PUSH2 0x2B3A DUP3 PUSH2 0x2AFC JUMP JUMPDEST PUSH8 0xFFFFFFFFFFFFFFFF DUP2 GT ISZERO PUSH2 0x2B53 JUMPI PUSH2 0x2B52 PUSH2 0x18BD JUMP JUMPDEST JUMPDEST PUSH2 0x2B5D DUP3 SLOAD PUSH2 0x2329 JUMP JUMPDEST PUSH2 0x2B68 DUP3 DUP3 DUP6 PUSH2 0x246D JUMP JUMPDEST PUSH0 PUSH1 0x1F DUP4 GT PUSH1 0x1 DUP2 EQ PUSH2 0x2B95 JUMPI PUSH0 DUP5 ISZERO PUSH2 0x2B83 JUMPI DUP3 DUP8 ADD SLOAD SWAP1 POP JUMPDEST PUSH2 0x2B8D DUP6 DUP3 PUSH2 0x24DB JUMP JUMPDEST DUP7 SSTORE POP PUSH2 0x2BFF JUMP JUMPDEST PUSH1 0x1F NOT DUP5 AND PUSH2 0x2BA3 DUP8 PUSH2 0x2B11 JUMP JUMPDEST SWAP7 POP PUSH2 0x2BAE DUP7 PUSH2 0x2359 JUMP JUMPDEST PUSH0 JUMPDEST DUP3 DUP2 LT ISZERO PUSH2 0x2BD5 JUMPI DUP5 DUP10 ADD SLOAD DUP3 SSTORE PUSH1 0x1 DUP3 ADD SWAP2 POP PUSH1 0x1 DUP6 ADD SWAP5 POP PUSH1 0x20 DUP2 ADD SWAP1 POP PUSH2 0x2BB0 JUMP JUMPDEST DUP7 DUP4 LT ISZERO PUSH2 0x2BF2 JUMPI DUP5 DUP10 ADD SLOAD PUSH2 0x2BEE PUSH1 0x1F DUP10 AND DUP3 PUSH2 0x24BF JUMP JUMPDEST DUP4 SSTORE POP JUMPDEST PUSH1 0x1 PUSH1 0x2 DUP9 MUL ADD DUP9 SSTORE POP POP POP JUMPDEST POP POP POP POP POP POP JUMPDEST JUMP JUMPDEST PUSH32 0x4E487B7100000000000000000000000000000000000000000000000000000000 PUSH0 MSTORE PUSH1 0x31 PUSH1 0x4 MSTORE PUSH1 0x24 PUSH0 REVERT JUMPDEST PUSH0 PUSH1 0xFF DUP3 AND SWAP1 POP SWAP2 SWAP1 POP JUMP JUMPDEST PUSH0 PUSH2 0x2C4B DUP3 PUSH2 0x2C35 JUMP JUMPDEST SWAP2 POP PUSH2 0x2C56 DUP4 PUSH2 0x2C35 JUMP JUMPDEST SWAP3 POP DUP3 DUP3 ADD SWAP1 POP PUSH1 0xFF DUP2 GT ISZERO PUSH2 0x2C6F JUMPI PUSH2 0x2C6E PUSH2 0x1FE0 JUMP JUMPDEST JUMPDEST SWAP3 SWAP2 POP POP JUMP INVALID LOG2 PUSH5 0x6970667358 0x22 SLT KECCAK256 DUP4 0xE4 0xC5 LOG3 0xDB PUSH2 0x2F30 0xE3 SWAP10 MOD POP MSTORE PUSH16 0x42EB5950CB275A79A5DAB7075A50719F 0xC9 PUSH2 0x6473 PUSH16 0x6C634300081500330000000000000000 "
				},
				"gasEstimates": {
					"creation": {
						"codeDepositCost": "2287000",
						"executionCost": "26712",
						"totalCost": "2313712"
					},
					"external": {
						"changeResolver(string,address)": "infinite",
						"getDomainInfo(string)": "infinite",
						"getDomainsByOwner(address)": "infinite",
						"isDomainAvailable(string)": "infinite",
						"owner()": "2530",
						"registerDomain(string,address,uint256,string)": "infinite",
						"renewDomain(string,uint256)": "infinite",
						"setSuffixPrice(string,uint256)": "infinite",
						"suffixPrices(string)": "infinite",
						"transferOwnership(string,address)": "infinite"
					},
					"internal": {
						"_extractSuffix(string memory,uint256)": "infinite",
						"_getSuffixPosition(string memory)": "infinite",
						"_removeDomainFromOwner(address,string memory)": "infinite",
						"toLowerCase(string memory)": "infinite"
					}
				},
				"methodIdentifiers": {
					"changeResolver(string,address)": "894d46ac",
					"getDomainInfo(string)": "4889e192",
					"getDomainsByOwner(address)": "f38ffb6c",
					"isDomainAvailable(string)": "32752b09",
					"owner()": "8da5cb5b",
					"registerDomain(string,address,uint256,string)": "cc69784a",
					"renewDomain(string,uint256)": "1a83fd8f",
					"setSuffixPrice(string,uint256)": "35b9e937",
					"suffixPrices(string)": "031c1301",
					"transferOwnership(string,address)": "c0e793c2"
				}
			},
			"storageLayout": {
				"storage": [
					{
						"astId": 12,
						"contract": "contracts/ENS6TESTING.sol:EdexaNamingService",
						"label": "suffixPrices",
						"offset": 0,
						"slot": "0",
						"type": "t_mapping(t_string_memory_ptr,t_uint256)"
					},
					{
						"astId": 14,
						"contract": "contracts/ENS6TESTING.sol:EdexaNamingService",
						"label": "owner",
						"offset": 0,
						"slot": "1",
						"type": "t_address"
					},
					{
						"astId": 19,
						"contract": "contracts/ENS6TESTING.sol:EdexaNamingService",
						"label": "domains",
						"offset": 0,
						"slot": "2",
						"type": "t_mapping(t_string_memory_ptr,t_struct(Domain)8_storage)"
					},
					{
						"astId": 24,
						"contract": "contracts/ENS6TESTING.sol:EdexaNamingService",
						"label": "addressToDomains",
						"offset": 0,
						"slot": "3",
						"type": "t_mapping(t_address,t_array(t_string_storage)dyn_storage)"
					}
				],
				"types": {
					"t_address": {
						"encoding": "inplace",
						"label": "address",
						"numberOfBytes": "20"
					},
					"t_array(t_string_storage)dyn_storage": {
						"base": "t_string_storage",
						"encoding": "dynamic_array",
						"label": "string[]",
						"numberOfBytes": "32"
					},
					"t_mapping(t_address,t_array(t_string_storage)dyn_storage)": {
						"encoding": "mapping",
						"key": "t_address",
						"label": "mapping(address => string[])",
						"numberOfBytes": "32",
						"value": "t_array(t_string_storage)dyn_storage"
					},
					"t_mapping(t_string_memory_ptr,t_struct(Domain)8_storage)": {
						"encoding": "mapping",
						"key": "t_string_memory_ptr",
						"label": "mapping(string => struct EdexaNamingService.Domain)",
						"numberOfBytes": "32",
						"value": "t_struct(Domain)8_storage"
					},
					"t_mapping(t_string_memory_ptr,t_uint256)": {
						"encoding": "mapping",
						"key": "t_string_memory_ptr",
						"label": "mapping(string => uint256)",
						"numberOfBytes": "32",
						"value": "t_uint256"
					},
					"t_string_memory_ptr": {
						"encoding": "bytes",
						"label": "string",
						"numberOfBytes": "32"
					},
					"t_string_storage": {
						"encoding": "bytes",
						"label": "string",
						"numberOfBytes": "32"
					},
					"t_struct(Domain)8_storage": {
						"encoding": "inplace",
						"label": "struct EdexaNamingService.Domain",
						"members": [
							{
								"astId": 3,
								"contract": "contracts/ENS6TESTING.sol:EdexaNamingService",
								"label": "owner",
								"offset": 0,
								"slot": "0",
								"type": "t_address"
							},
							{
								"astId": 5,
								"contract": "contracts/ENS6TESTING.sol:EdexaNamingService",
								"label": "resolver",
								"offset": 0,
								"slot": "1",
								"type": "t_address"
							},
							{
								"astId": 7,
								"contract": "contracts/ENS6TESTING.sol:EdexaNamingService",
								"label": "expiration",
								"offset": 0,
								"slot": "2",
								"type": "t_uint256"
							}
						],
						"numberOfBytes": "96"
					},
					"t_uint256": {
						"encoding": "inplace",
						"label": "uint256",
						"numberOfBytes": "32"
					}
				}
			},
			"userdoc": {
				"kind": "user",
				"methods": {},
				"version": 1
			}
		}
	}
}