{
	"contracts/ENS4.sol": {
		"EdexaNamingService": {
			"abi": [
				{
					"inputs": [],
					"stateMutability": "nonpayable",
					"type": "constructor"
				},
				{
					"anonymous": false,
					"inputs": [
						{
							"indexed": false,
							"internalType": "string",
							"name": "name",
							"type": "string"
						},
						{
							"indexed": true,
							"internalType": "address",
							"name": "previousOwner",
							"type": "address"
						},
						{
							"indexed": true,
							"internalType": "address",
							"name": "newOwner",
							"type": "address"
						}
					],
					"name": "DomainOwnershipTransferred",
					"type": "event"
				},
				{
					"anonymous": false,
					"inputs": [
						{
							"indexed": false,
							"internalType": "string",
							"name": "name",
							"type": "string"
						},
						{
							"indexed": true,
							"internalType": "address",
							"name": "owner",
							"type": "address"
						},
						{
							"indexed": false,
							"internalType": "address",
							"name": "resolver",
							"type": "address"
						},
						{
							"indexed": false,
							"internalType": "uint256",
							"name": "expiration",
							"type": "uint256"
						}
					],
					"name": "DomainRegistered",
					"type": "event"
				},
				{
					"anonymous": false,
					"inputs": [
						{
							"indexed": false,
							"internalType": "string",
							"name": "name",
							"type": "string"
						},
						{
							"indexed": false,
							"internalType": "uint256",
							"name": "newExpiration",
							"type": "uint256"
						}
					],
					"name": "DomainRenewed",
					"type": "event"
				},
				{
					"anonymous": false,
					"inputs": [
						{
							"indexed": false,
							"internalType": "uint256",
							"name": "newCost",
							"type": "uint256"
						}
					],
					"name": "RegistrationCostChanged",
					"type": "event"
				},
				{
					"anonymous": false,
					"inputs": [
						{
							"indexed": false,
							"internalType": "string",
							"name": "name",
							"type": "string"
						},
						{
							"indexed": true,
							"internalType": "address",
							"name": "resolver",
							"type": "address"
						}
					],
					"name": "ResolverChanged",
					"type": "event"
				},
				{
					"anonymous": false,
					"inputs": [
						{
							"indexed": false,
							"internalType": "string",
							"name": "newSuffix",
							"type": "string"
						}
					],
					"name": "SuffixChanged",
					"type": "event"
				},
				{
					"inputs": [
						{
							"internalType": "string",
							"name": "name",
							"type": "string"
						},
						{
							"internalType": "address",
							"name": "newResolver",
							"type": "address"
						}
					],
					"name": "changeResolver",
					"outputs": [],
					"stateMutability": "nonpayable",
					"type": "function"
				},
				{
					"inputs": [
						{
							"internalType": "string",
							"name": "name",
							"type": "string"
						}
					],
					"name": "getDomainInfo",
					"outputs": [
						{
							"internalType": "address",
							"name": "domainOwner",
							"type": "address"
						},
						{
							"internalType": "address",
							"name": "resolver",
							"type": "address"
						},
						{
							"internalType": "uint256",
							"name": "expiration",
							"type": "uint256"
						}
					],
					"stateMutability": "view",
					"type": "function"
				},
				{
					"inputs": [
						{
							"internalType": "address",
							"name": "domainOwner",
							"type": "address"
						}
					],
					"name": "getDomainsByOwner",
					"outputs": [
						{
							"internalType": "string[]",
							"name": "",
							"type": "string[]"
						}
					],
					"stateMutability": "view",
					"type": "function"
				},
				{
					"inputs": [
						{
							"internalType": "string",
							"name": "name",
							"type": "string"
						}
					],
					"name": "isDomainAvailable",
					"outputs": [
						{
							"internalType": "bool",
							"name": "",
							"type": "bool"
						}
					],
					"stateMutability": "view",
					"type": "function"
				},
				{
					"inputs": [],
					"name": "owner",
					"outputs": [
						{
							"internalType": "address",
							"name": "",
							"type": "address"
						}
					],
					"stateMutability": "view",
					"type": "function"
				},
				{
					"inputs": [
						{
							"internalType": "string",
							"name": "name",
							"type": "string"
						},
						{
							"internalType": "address",
							"name": "initialResolver",
							"type": "address"
						},
						{
							"internalType": "uint256",
							"name": "registrationYears",
							"type": "uint256"
						}
					],
					"name": "registerDomain",
					"outputs": [],
					"stateMutability": "payable",
					"type": "function"
				},
				{
					"inputs": [],
					"name": "registrationCost",
					"outputs": [
						{
							"internalType": "uint256",
							"name": "",
							"type": "uint256"
						}
					],
					"stateMutability": "view",
					"type": "function"
				},
				{
					"inputs": [
						{
							"internalType": "string",
							"name": "name",
							"type": "string"
						},
						{
							"internalType": "uint256",
							"name": "registrationYears",
							"type": "uint256"
						}
					],
					"name": "renewDomain",
					"outputs": [],
					"stateMutability": "payable",
					"type": "function"
				},
				{
					"inputs": [
						{
							"internalType": "uint256",
							"name": "newCost",
							"type": "uint256"
						}
					],
					"name": "setRegistrationCost",
					"outputs": [],
					"stateMutability": "nonpayable",
					"type": "function"
				},
				{
					"inputs": [
						{
							"internalType": "string",
							"name": "newSuffix",
							"type": "string"
						}
					],
					"name": "setSuffix",
					"outputs": [],
					"stateMutability": "nonpayable",
					"type": "function"
				},
				{
					"inputs": [],
					"name": "suffix",
					"outputs": [
						{
							"internalType": "string",
							"name": "",
							"type": "string"
						}
					],
					"stateMutability": "view",
					"type": "function"
				},
				{
					"inputs": [
						{
							"internalType": "string",
							"name": "name",
							"type": "string"
						},
						{
							"internalType": "address",
							"name": "newOwner",
							"type": "address"
						}
					],
					"name": "transferOwnership",
					"outputs": [],
					"stateMutability": "nonpayable",
					"type": "function"
				}
			],
			"devdoc": {
				"kind": "dev",
				"methods": {},
				"version": 1
			},
			"evm": {
				"assembly": "    /* \"contracts/ENS4.sol\":57:6963  contract EdexaNamingService {... */\n  mstore(0x40, 0x80)\n    /* \"contracts/ENS4.sol\":195:224  string public suffix = \".edx\" */\n  mload(0x40)\n  dup1\n  0x40\n  add\n  0x40\n  mstore\n  dup1\n  0x04\n  dup2\n  mstore\n  0x20\n  add\n  0x2e65647800000000000000000000000000000000000000000000000000000000\n  dup2\n  mstore\n  pop\n  0x00\n  swap1\n  dup2\n  tag_1\n  swap2\n  swap1\n  tag_2\n  jump\t// in\ntag_1:\n  pop\n    /* \"contracts/ENS4.sol\":264:271  1 ether */\n  0x0de0b6b3a7640000\n    /* \"contracts/ENS4.sol\":230:271  uint256 public registrationCost = 1 ether */\n  0x01\n  sstore\n    /* \"contracts/ENS4.sol\":1204:1253  constructor() {... */\n  callvalue\n  dup1\n  iszero\n  tag_3\n  jumpi\n  0x00\n  dup1\n  revert\ntag_3:\n  pop\n    /* \"contracts/ENS4.sol\":1236:1246  msg.sender */\n  caller\n    /* \"contracts/ENS4.sol\":1228:1233  owner */\n  0x02\n  0x00\n    /* \"contracts/ENS4.sol\":1228:1246  owner = msg.sender */\n  0x0100\n  exp\n  dup2\n  sload\n  dup2\n  0xffffffffffffffffffffffffffffffffffffffff\n  mul\n  not\n  and\n  swap1\n  dup4\n  0xffffffffffffffffffffffffffffffffffffffff\n  and\n  mul\n  or\n  swap1\n  sstore\n  pop\n    /* \"contracts/ENS4.sol\":57:6963  contract EdexaNamingService {... */\n  jump(tag_6)\n    /* \"#utility.yul\":7:106   */\ntag_7:\n    /* \"#utility.yul\":59:65   */\n  0x00\n    /* \"#utility.yul\":93:98   */\n  dup2\n    /* \"#utility.yul\":87:99   */\n  mload\n    /* \"#utility.yul\":77:99   */\n  swap1\n  pop\n    /* \"#utility.yul\":7:106   */\n  swap2\n  swap1\n  pop\n  jump\t// out\n    /* \"#utility.yul\":112:292   */\ntag_8:\n    /* \"#utility.yul\":160:237   */\n  0x4e487b7100000000000000000000000000000000000000000000000000000000\n    /* \"#utility.yul\":157:158   */\n  0x00\n    /* \"#utility.yul\":150:238   */\n  mstore\n    /* \"#utility.yul\":257:261   */\n  0x41\n    /* \"#utility.yul\":254:255   */\n  0x04\n    /* \"#utility.yul\":247:262   */\n  mstore\n    /* \"#utility.yul\":281:285   */\n  0x24\n    /* \"#utility.yul\":278:279   */\n  0x00\n    /* \"#utility.yul\":271:286   */\n  revert\n    /* \"#utility.yul\":298:478   */\ntag_9:\n    /* \"#utility.yul\":346:423   */\n  0x4e487b7100000000000000000000000000000000000000000000000000000000\n    /* \"#utility.yul\":343:344   */\n  0x00\n    /* \"#utility.yul\":336:424   */\n  mstore\n    /* \"#utility.yul\":443:447   */\n  0x22\n    /* \"#utility.yul\":440:441   */\n  0x04\n    /* \"#utility.yul\":433:448   */\n  mstore\n    /* \"#utility.yul\":467:471   */\n  0x24\n    /* \"#utility.yul\":464:465   */\n  0x00\n    /* \"#utility.yul\":457:472   */\n  revert\n    /* \"#utility.yul\":484:804   */\ntag_10:\n    /* \"#utility.yul\":528:534   */\n  0x00\n    /* \"#utility.yul\":565:566   */\n  0x02\n    /* \"#utility.yul\":559:563   */\n  dup3\n    /* \"#utility.yul\":555:567   */\n  div\n    /* \"#utility.yul\":545:567   */\n  swap1\n  pop\n    /* \"#utility.yul\":612:613   */\n  0x01\n    /* \"#utility.yul\":606:610   */\n  dup3\n    /* \"#utility.yul\":602:614   */\n  and\n    /* \"#utility.yul\":633:651   */\n  dup1\n    /* \"#utility.yul\":623:704   */\n  tag_32\n  jumpi\n    /* \"#utility.yul\":689:693   */\n  0x7f\n    /* \"#utility.yul\":681:687   */\n  dup3\n    /* \"#utility.yul\":677:694   */\n  and\n    /* \"#utility.yul\":667:694   */\n  swap2\n  pop\n    /* \"#utility.yul\":623:704   */\ntag_32:\n    /* \"#utility.yul\":751:753   */\n  0x20\n    /* \"#utility.yul\":743:749   */\n  dup3\n    /* \"#utility.yul\":740:754   */\n  lt\n    /* \"#utility.yul\":720:738   */\n  dup2\n    /* \"#utility.yul\":717:755   */\n  sub\n    /* \"#utility.yul\":714:798   */\n  tag_33\n  jumpi\n    /* \"#utility.yul\":770:788   */\n  tag_34\n  tag_9\n  jump\t// in\ntag_34:\n    /* \"#utility.yul\":714:798   */\ntag_33:\n    /* \"#utility.yul\":535:804   */\n  pop\n    /* \"#utility.yul\":484:804   */\n  swap2\n  swap1\n  pop\n  jump\t// out\n    /* \"#utility.yul\":810:951   */\ntag_11:\n    /* \"#utility.yul\":859:863   */\n  0x00\n    /* \"#utility.yul\":882:885   */\n  dup2\n    /* \"#utility.yul\":874:885   */\n  swap1\n  pop\n    /* \"#utility.yul\":905:908   */\n  dup2\n    /* \"#utility.yul\":902:903   */\n  0x00\n    /* \"#utility.yul\":895:909   */\n  mstore\n    /* \"#utility.yul\":939:943   */\n  0x20\n    /* \"#utility.yul\":936:937   */\n  0x00\n    /* \"#utility.yul\":926:944   */\n  keccak256\n    /* \"#utility.yul\":918:944   */\n  swap1\n  pop\n    /* \"#utility.yul\":810:951   */\n  swap2\n  swap1\n  pop\n  jump\t// out\n    /* \"#utility.yul\":957:1050   */\ntag_12:\n    /* \"#utility.yul\":994:1000   */\n  0x00\n    /* \"#utility.yul\":1041:1043   */\n  0x20\n    /* \"#utility.yul\":1036:1038   */\n  0x1f\n    /* \"#utility.yul\":1029:1034   */\n  dup4\n    /* \"#utility.yul\":1025:1039   */\n  add\n    /* \"#utility.yul\":1021:1044   */\n  div\n    /* \"#utility.yul\":1011:1044   */\n  swap1\n  pop\n    /* \"#utility.yul\":957:1050   */\n  swap2\n  swap1\n  pop\n  jump\t// out\n    /* \"#utility.yul\":1056:1163   */\ntag_13:\n    /* \"#utility.yul\":1100:1108   */\n  0x00\n    /* \"#utility.yul\":1150:1155   */\n  dup3\n    /* \"#utility.yul\":1144:1148   */\n  dup3\n    /* \"#utility.yul\":1140:1156   */\n  shl\n    /* \"#utility.yul\":1119:1156   */\n  swap1\n  pop\n    /* \"#utility.yul\":1056:1163   */\n  swap3\n  swap2\n  pop\n  pop\n  jump\t// out\n    /* \"#utility.yul\":1169:1562   */\ntag_14:\n    /* \"#utility.yul\":1238:1244   */\n  0x00\n    /* \"#utility.yul\":1288:1289   */\n  0x08\n    /* \"#utility.yul\":1276:1286   */\n  dup4\n    /* \"#utility.yul\":1272:1290   */\n  mul\n    /* \"#utility.yul\":1311:1408   */\n  tag_39\n    /* \"#utility.yul\":1341:1407   */\n  0xffffffffffffffffffffffffffffffffffffffffffffffffffffffffffffffff\n    /* \"#utility.yul\":1330:1339   */\n  dup3\n    /* \"#utility.yul\":1311:1408   */\n  tag_13\n  jump\t// in\ntag_39:\n    /* \"#utility.yul\":1429:1468   */\n  tag_40\n    /* \"#utility.yul\":1459:1467   */\n  dup7\n    /* \"#utility.yul\":1448:1457   */\n  dup4\n    /* \"#utility.yul\":1429:1468   */\n  tag_13\n  jump\t// in\ntag_40:\n    /* \"#utility.yul\":1417:1468   */\n  swap6\n  pop\n    /* \"#utility.yul\":1501:1505   */\n  dup1\n    /* \"#utility.yul\":1497:1506   */\n  not\n    /* \"#utility.yul\":1490:1495   */\n  dup5\n    /* \"#utility.yul\":1486:1507   */\n  and\n    /* \"#utility.yul\":1477:1507   */\n  swap4\n  pop\n    /* \"#utility.yul\":1550:1554   */\n  dup1\n    /* \"#utility.yul\":1540:1548   */\n  dup7\n    /* \"#utility.yul\":1536:1555   */\n  and\n    /* \"#utility.yul\":1529:1534   */\n  dup5\n    /* \"#utility.yul\":1526:1556   */\n  or\n    /* \"#utility.yul\":1516:1556   */\n  swap3\n  pop\n    /* \"#utility.yul\":1245:1562   */\n  pop\n  pop\n    /* \"#utility.yul\":1169:1562   */\n  swap4\n  swap3\n  pop\n  pop\n  pop\n  jump\t// out\n    /* \"#utility.yul\":1568:1645   */\ntag_15:\n    /* \"#utility.yul\":1605:1612   */\n  0x00\n    /* \"#utility.yul\":1634:1639   */\n  dup2\n    /* \"#utility.yul\":1623:1639   */\n  swap1\n  pop\n    /* \"#utility.yul\":1568:1645   */\n  swap2\n  swap1\n  pop\n  jump\t// out\n    /* \"#utility.yul\":1651:1711   */\ntag_16:\n    /* \"#utility.yul\":1679:1682   */\n  0x00\n    /* \"#utility.yul\":1700:1705   */\n  dup2\n    /* \"#utility.yul\":1693:1705   */\n  swap1\n  pop\n    /* \"#utility.yul\":1651:1711   */\n  swap2\n  swap1\n  pop\n  jump\t// out\n    /* \"#utility.yul\":1717:1859   */\ntag_17:\n    /* \"#utility.yul\":1767:1776   */\n  0x00\n    /* \"#utility.yul\":1800:1853   */\n  tag_44\n    /* \"#utility.yul\":1818:1852   */\n  tag_45\n    /* \"#utility.yul\":1827:1851   */\n  tag_46\n    /* \"#utility.yul\":1845:1850   */\n  dup5\n    /* \"#utility.yul\":1827:1851   */\n  tag_15\n  jump\t// in\ntag_46:\n    /* \"#utility.yul\":1818:1852   */\n  tag_16\n  jump\t// in\ntag_45:\n    /* \"#utility.yul\":1800:1853   */\n  tag_15\n  jump\t// in\ntag_44:\n    /* \"#utility.yul\":1787:1853   */\n  swap1\n  pop\n    /* \"#utility.yul\":1717:1859   */\n  swap2\n  swap1\n  pop\n  jump\t// out\n    /* \"#utility.yul\":1865:1940   */\ntag_18:\n    /* \"#utility.yul\":1908:1911   */\n  0x00\n    /* \"#utility.yul\":1929:1934   */\n  dup2\n    /* \"#utility.yul\":1922:1934   */\n  swap1\n  pop\n    /* \"#utility.yul\":1865:1940   */\n  swap2\n  swap1\n  pop\n  jump\t// out\n    /* \"#utility.yul\":1946:2215   */\ntag_19:\n    /* \"#utility.yul\":2056:2095   */\n  tag_49\n    /* \"#utility.yul\":2087:2094   */\n  dup4\n    /* \"#utility.yul\":2056:2095   */\n  tag_17\n  jump\t// in\ntag_49:\n    /* \"#utility.yul\":2117:2208   */\n  tag_50\n    /* \"#utility.yul\":2166:2207   */\n  tag_51\n    /* \"#utility.yul\":2190:2206   */\n  dup3\n    /* \"#utility.yul\":2166:2207   */\n  tag_18\n  jump\t// in\ntag_51:\n    /* \"#utility.yul\":2158:2164   */\n  dup5\n    /* \"#utility.yul\":2151:2155   */\n  dup5\n    /* \"#utility.yul\":2145:2156   */\n  sload\n    /* \"#utility.yul\":2117:2208   */\n  tag_14\n  jump\t// in\ntag_50:\n    /* \"#utility.yul\":2111:2115   */\n  dup3\n    /* \"#utility.yul\":2104:2209   */\n  sstore\n    /* \"#utility.yul\":2022:2215   */\n  pop\n    /* \"#utility.yul\":1946:2215   */\n  pop\n  pop\n  pop\n  jump\t// out\n    /* \"#utility.yul\":2221:2294   */\ntag_20:\n    /* \"#utility.yul\":2266:2269   */\n  0x00\n    /* \"#utility.yul\":2221:2294   */\n  swap1\n  jump\t// out\n    /* \"#utility.yul\":2300:2489   */\ntag_21:\n    /* \"#utility.yul\":2377:2409   */\n  tag_54\n  tag_20\n  jump\t// in\ntag_54:\n    /* \"#utility.yul\":2418:2483   */\n  tag_55\n    /* \"#utility.yul\":2476:2482   */\n  dup2\n    /* \"#utility.yul\":2468:2474   */\n  dup5\n    /* \"#utility.yul\":2462:2466   */\n  dup5\n    /* \"#utility.yul\":2418:2483   */\n  tag_19\n  jump\t// in\ntag_55:\n    /* \"#utility.yul\":2353:2489   */\n  pop\n    /* \"#utility.yul\":2300:2489   */\n  pop\n  pop\n  jump\t// out\n    /* \"#utility.yul\":2495:2681   */\ntag_22:\n    /* \"#utility.yul\":2555:2675   */\ntag_57:\n    /* \"#utility.yul\":2572:2575   */\n  dup2\n    /* \"#utility.yul\":2565:2570   */\n  dup2\n    /* \"#utility.yul\":2562:2576   */\n  lt\n    /* \"#utility.yul\":2555:2675   */\n  iszero\n  tag_59\n  jumpi\n    /* \"#utility.yul\":2626:2665   */\n  tag_60\n    /* \"#utility.yul\":2663:2664   */\n  0x00\n    /* \"#utility.yul\":2656:2661   */\n  dup3\n    /* \"#utility.yul\":2626:2665   */\n  tag_21\n  jump\t// in\ntag_60:\n    /* \"#utility.yul\":2599:2600   */\n  0x01\n    /* \"#utility.yul\":2592:2597   */\n  dup2\n    /* \"#utility.yul\":2588:2601   */\n  add\n    /* \"#utility.yul\":2579:2601   */\n  swap1\n  pop\n    /* \"#utility.yul\":2555:2675   */\n  jump(tag_57)\ntag_59:\n    /* \"#utility.yul\":2495:2681   */\n  pop\n  pop\n  jump\t// out\n    /* \"#utility.yul\":2687:3230   */\ntag_23:\n    /* \"#utility.yul\":2788:2790   */\n  0x1f\n    /* \"#utility.yul\":2783:2786   */\n  dup3\n    /* \"#utility.yul\":2780:2791   */\n  gt\n    /* \"#utility.yul\":2777:3223   */\n  iszero\n  tag_62\n  jumpi\n    /* \"#utility.yul\":2822:2860   */\n  tag_63\n    /* \"#utility.yul\":2854:2859   */\n  dup2\n    /* \"#utility.yul\":2822:2860   */\n  tag_11\n  jump\t// in\ntag_63:\n    /* \"#utility.yul\":2906:2935   */\n  tag_64\n    /* \"#utility.yul\":2924:2934   */\n  dup5\n    /* \"#utility.yul\":2906:2935   */\n  tag_12\n  jump\t// in\ntag_64:\n    /* \"#utility.yul\":2896:2904   */\n  dup2\n    /* \"#utility.yul\":2892:2936   */\n  add\n    /* \"#utility.yul\":3089:3091   */\n  0x20\n    /* \"#utility.yul\":3077:3087   */\n  dup6\n    /* \"#utility.yul\":3074:3092   */\n  lt\n    /* \"#utility.yul\":3071:3120   */\n  iszero\n  tag_65\n  jumpi\n    /* \"#utility.yul\":3110:3118   */\n  dup2\n    /* \"#utility.yul\":3095:3118   */\n  swap1\n  pop\n    /* \"#utility.yul\":3071:3120   */\ntag_65:\n    /* \"#utility.yul\":3133:3213   */\n  tag_66\n    /* \"#utility.yul\":3189:3211   */\n  tag_67\n    /* \"#utility.yul\":3207:3210   */\n  dup6\n    /* \"#utility.yul\":3189:3211   */\n  tag_12\n  jump\t// in\ntag_67:\n    /* \"#utility.yul\":3179:3187   */\n  dup4\n    /* \"#utility.yul\":3175:3212   */\n  add\n    /* \"#utility.yul\":3162:3173   */\n  dup3\n    /* \"#utility.yul\":3133:3213   */\n  tag_22\n  jump\t// in\ntag_66:\n    /* \"#utility.yul\":2792:3223   */\n  pop\n  pop\n    /* \"#utility.yul\":2777:3223   */\ntag_62:\n    /* \"#utility.yul\":2687:3230   */\n  pop\n  pop\n  pop\n  jump\t// out\n    /* \"#utility.yul\":3236:3353   */\ntag_24:\n    /* \"#utility.yul\":3290:3298   */\n  0x00\n    /* \"#utility.yul\":3340:3345   */\n  dup3\n    /* \"#utility.yul\":3334:3338   */\n  dup3\n    /* \"#utility.yul\":3330:3346   */\n  shr\n    /* \"#utility.yul\":3309:3346   */\n  swap1\n  pop\n    /* \"#utility.yul\":3236:3353   */\n  swap3\n  swap2\n  pop\n  pop\n  jump\t// out\n    /* \"#utility.yul\":3359:3528   */\ntag_25:\n    /* \"#utility.yul\":3403:3409   */\n  0x00\n    /* \"#utility.yul\":3436:3487   */\n  tag_70\n    /* \"#utility.yul\":3484:3485   */\n  0x00\n    /* \"#utility.yul\":3480:3486   */\n  not\n    /* \"#utility.yul\":3472:3477   */\n  dup5\n    /* \"#utility.yul\":3469:3470   */\n  0x08\n    /* \"#utility.yul\":3465:3478   */\n  mul\n    /* \"#utility.yul\":3436:3487   */\n  tag_24\n  jump\t// in\ntag_70:\n    /* \"#utility.yul\":3432:3488   */\n  not\n    /* \"#utility.yul\":3517:3521   */\n  dup1\n    /* \"#utility.yul\":3511:3515   */\n  dup4\n    /* \"#utility.yul\":3507:3522   */\n  and\n    /* \"#utility.yul\":3497:3522   */\n  swap2\n  pop\n    /* \"#utility.yul\":3410:3528   */\n  pop\n    /* \"#utility.yul\":3359:3528   */\n  swap3\n  swap2\n  pop\n  pop\n  jump\t// out\n    /* \"#utility.yul\":3533:3828   */\ntag_26:\n    /* \"#utility.yul\":3609:3613   */\n  0x00\n    /* \"#utility.yul\":3755:3784   */\n  tag_72\n    /* \"#utility.yul\":3780:3783   */\n  dup4\n    /* \"#utility.yul\":3774:3778   */\n  dup4\n    /* \"#utility.yul\":3755:3784   */\n  tag_25\n  jump\t// in\ntag_72:\n    /* \"#utility.yul\":3747:3784   */\n  swap2\n  pop\n    /* \"#utility.yul\":3817:3820   */\n  dup3\n    /* \"#utility.yul\":3814:3815   */\n  0x02\n    /* \"#utility.yul\":3810:3821   */\n  mul\n    /* \"#utility.yul\":3804:3808   */\n  dup3\n    /* \"#utility.yul\":3801:3822   */\n  or\n    /* \"#utility.yul\":3793:3822   */\n  swap1\n  pop\n    /* \"#utility.yul\":3533:3828   */\n  swap3\n  swap2\n  pop\n  pop\n  jump\t// out\n    /* \"#utility.yul\":3833:5228   */\ntag_2:\n    /* \"#utility.yul\":3950:3987   */\n  tag_74\n    /* \"#utility.yul\":3983:3986   */\n  dup3\n    /* \"#utility.yul\":3950:3987   */\n  tag_7\n  jump\t// in\ntag_74:\n    /* \"#utility.yul\":4052:4070   */\n  0xffffffffffffffff\n    /* \"#utility.yul\":4044:4050   */\n  dup2\n    /* \"#utility.yul\":4041:4071   */\n  gt\n    /* \"#utility.yul\":4038:4094   */\n  iszero\n  tag_75\n  jumpi\n    /* \"#utility.yul\":4074:4092   */\n  tag_76\n  tag_8\n  jump\t// in\ntag_76:\n    /* \"#utility.yul\":4038:4094   */\ntag_75:\n    /* \"#utility.yul\":4118:4156   */\n  tag_77\n    /* \"#utility.yul\":4150:4154   */\n  dup3\n    /* \"#utility.yul\":4144:4155   */\n  sload\n    /* \"#utility.yul\":4118:4156   */\n  tag_10\n  jump\t// in\ntag_77:\n    /* \"#utility.yul\":4203:4270   */\n  tag_78\n    /* \"#utility.yul\":4263:4269   */\n  dup3\n    /* \"#utility.yul\":4255:4261   */\n  dup3\n    /* \"#utility.yul\":4249:4253   */\n  dup6\n    /* \"#utility.yul\":4203:4270   */\n  tag_23\n  jump\t// in\ntag_78:\n    /* \"#utility.yul\":4297:4298   */\n  0x00\n    /* \"#utility.yul\":4321:4325   */\n  0x20\n    /* \"#utility.yul\":4308:4325   */\n  swap1\n  pop\n    /* \"#utility.yul\":4353:4355   */\n  0x1f\n    /* \"#utility.yul\":4345:4351   */\n  dup4\n    /* \"#utility.yul\":4342:4356   */\n  gt\n    /* \"#utility.yul\":4370:4371   */\n  0x01\n    /* \"#utility.yul\":4365:4983   */\n  dup2\n  eq\n  tag_80\n  jumpi\n    /* \"#utility.yul\":5027:5028   */\n  0x00\n    /* \"#utility.yul\":5044:5050   */\n  dup5\n    /* \"#utility.yul\":5041:5118   */\n  iszero\n  tag_81\n  jumpi\n    /* \"#utility.yul\":5093:5102   */\n  dup3\n    /* \"#utility.yul\":5088:5091   */\n  dup8\n    /* \"#utility.yul\":5084:5103   */\n  add\n    /* \"#utility.yul\":5078:5104   */\n  mload\n    /* \"#utility.yul\":5069:5104   */\n  swap1\n  pop\n    /* \"#utility.yul\":5041:5118   */\ntag_81:\n    /* \"#utility.yul\":5144:5211   */\n  tag_82\n    /* \"#utility.yul\":5204:5210   */\n  dup6\n    /* \"#utility.yul\":5197:5202   */\n  dup3\n    /* \"#utility.yul\":5144:5211   */\n  tag_26\n  jump\t// in\ntag_82:\n    /* \"#utility.yul\":5138:5142   */\n  dup7\n    /* \"#utility.yul\":5131:5212   */\n  sstore\n    /* \"#utility.yul\":5000:5222   */\n  pop\n    /* \"#utility.yul\":4335:5222   */\n  jump(tag_79)\n    /* \"#utility.yul\":4365:4983   */\ntag_80:\n    /* \"#utility.yul\":4417:4421   */\n  0x1f\n    /* \"#utility.yul\":4413:4422   */\n  not\n    /* \"#utility.yul\":4405:4411   */\n  dup5\n    /* \"#utility.yul\":4401:4423   */\n  and\n    /* \"#utility.yul\":4451:4488   */\n  tag_83\n    /* \"#utility.yul\":4483:4487   */\n  dup7\n    /* \"#utility.yul\":4451:4488   */\n  tag_11\n  jump\t// in\ntag_83:\n    /* \"#utility.yul\":4510:4511   */\n  0x00\n    /* \"#utility.yul\":4524:4732   */\ntag_84:\n    /* \"#utility.yul\":4538:4545   */\n  dup3\n    /* \"#utility.yul\":4535:4536   */\n  dup2\n    /* \"#utility.yul\":4532:4546   */\n  lt\n    /* \"#utility.yul\":4524:4732   */\n  iszero\n  tag_86\n  jumpi\n    /* \"#utility.yul\":4617:4626   */\n  dup5\n    /* \"#utility.yul\":4612:4615   */\n  dup10\n    /* \"#utility.yul\":4608:4627   */\n  add\n    /* \"#utility.yul\":4602:4628   */\n  mload\n    /* \"#utility.yul\":4594:4600   */\n  dup3\n    /* \"#utility.yul\":4587:4629   */\n  sstore\n    /* \"#utility.yul\":4668:4669   */\n  0x01\n    /* \"#utility.yul\":4660:4666   */\n  dup3\n    /* \"#utility.yul\":4656:4670   */\n  add\n    /* \"#utility.yul\":4646:4670   */\n  swap2\n  pop\n    /* \"#utility.yul\":4715:4717   */\n  0x20\n    /* \"#utility.yul\":4704:4713   */\n  dup6\n    /* \"#utility.yul\":4700:4718   */\n  add\n    /* \"#utility.yul\":4687:4718   */\n  swap5\n  pop\n    /* \"#utility.yul\":4561:4565   */\n  0x20\n    /* \"#utility.yul\":4558:4559   */\n  dup2\n    /* \"#utility.yul\":4554:4566   */\n  add\n    /* \"#utility.yul\":4549:4566   */\n  swap1\n  pop\n    /* \"#utility.yul\":4524:4732   */\n  jump(tag_84)\ntag_86:\n    /* \"#utility.yul\":4760:4766   */\n  dup7\n    /* \"#utility.yul\":4751:4758   */\n  dup4\n    /* \"#utility.yul\":4748:4767   */\n  lt\n    /* \"#utility.yul\":4745:4924   */\n  iszero\n  tag_87\n  jumpi\n    /* \"#utility.yul\":4818:4827   */\n  dup5\n    /* \"#utility.yul\":4813:4816   */\n  dup10\n    /* \"#utility.yul\":4809:4828   */\n  add\n    /* \"#utility.yul\":4803:4829   */\n  mload\n    /* \"#utility.yul\":4861:4909   */\n  tag_88\n    /* \"#utility.yul\":4903:4907   */\n  0x1f\n    /* \"#utility.yul\":4895:4901   */\n  dup10\n    /* \"#utility.yul\":4891:4908   */\n  and\n    /* \"#utility.yul\":4880:4889   */\n  dup3\n    /* \"#utility.yul\":4861:4909   */\n  tag_25\n  jump\t// in\ntag_88:\n    /* \"#utility.yul\":4853:4859   */\n  dup4\n    /* \"#utility.yul\":4846:4910   */\n  sstore\n    /* \"#utility.yul\":4768:4924   */\n  pop\n    /* \"#utility.yul\":4745:4924   */\ntag_87:\n    /* \"#utility.yul\":4970:4971   */\n  0x01\n    /* \"#utility.yul\":4966:4967   */\n  0x02\n    /* \"#utility.yul\":4958:4964   */\n  dup9\n    /* \"#utility.yul\":4954:4968   */\n  mul\n    /* \"#utility.yul\":4950:4972   */\n  add\n    /* \"#utility.yul\":4944:4948   */\n  dup9\n    /* \"#utility.yul\":4937:4973   */\n  sstore\n    /* \"#utility.yul\":4372:4983   */\n  pop\n  pop\n  pop\n    /* \"#utility.yul\":4335:5222   */\ntag_79:\n  pop\n    /* \"#utility.yul\":3925:5228   */\n  pop\n  pop\n  pop\n    /* \"#utility.yul\":3833:5228   */\n  pop\n  pop\n  jump\t// out\n    /* \"contracts/ENS4.sol\":57:6963  contract EdexaNamingService {... */\ntag_6:\n  dataSize(sub_0)\n  dup1\n  dataOffset(sub_0)\n  0x00\n  codecopy\n  0x00\n  return\nstop\n\nsub_0: assembly {\n        /* \"contracts/ENS4.sol\":57:6963  contract EdexaNamingService {... */\n      mstore(0x40, 0x80)\n      jumpi(tag_1, lt(calldatasize, 0x04))\n      shr(0xe0, calldataload(0x00))\n      dup1\n      0x8da5cb5b\n      gt\n      tag_14\n      jumpi\n      dup1\n      0x8da5cb5b\n      eq\n      tag_8\n      jumpi\n      dup1\n      0xc0e793c2\n      eq\n      tag_9\n      jumpi\n      dup1\n      0xdc4a7f7f\n      eq\n      tag_10\n      jumpi\n      dup1\n      0xf38ffb6c\n      eq\n      tag_11\n      jumpi\n      dup1\n      0xf7073c3a\n      eq\n      tag_12\n      jumpi\n      dup1\n      0xfe1e1f5f\n      eq\n      tag_13\n      jumpi\n      jump(tag_1)\n    tag_14:\n      dup1\n      0x1a83fd8f\n      eq\n      tag_2\n      jumpi\n      dup1\n      0x32752b09\n      eq\n      tag_3\n      jumpi\n      dup1\n      0x4889e192\n      eq\n      tag_4\n      jumpi\n      dup1\n      0x637e9d5c\n      eq\n      tag_5\n      jumpi\n      dup1\n      0x75d5ae9f\n      eq\n      tag_6\n      jumpi\n      dup1\n      0x894d46ac\n      eq\n      tag_7\n      jumpi\n    tag_1:\n      0x00\n      dup1\n      revert\n        /* \"contracts/ENS4.sol\":3185:3877  function renewDomain(string calldata name, uint256 registrationYears) external payable onlyDomainOwner(name) {... */\n    tag_2:\n      tag_15\n      0x04\n      dup1\n      calldatasize\n      sub\n      dup2\n      add\n      swap1\n      tag_16\n      swap2\n      swap1\n      tag_17\n      jump\t// in\n    tag_16:\n      tag_18\n      jump\t// in\n    tag_15:\n      stop\n        /* \"contracts/ENS4.sol\":5967:6273  function isDomainAvailable(string calldata name) external view returns (bool) {... */\n    tag_3:\n      callvalue\n      dup1\n      iszero\n      tag_19\n      jumpi\n      0x00\n      dup1\n      revert\n    tag_19:\n      pop\n      tag_20\n      0x04\n      dup1\n      calldatasize\n      sub\n      dup2\n      add\n      swap1\n      tag_21\n      swap2\n      swap1\n      tag_22\n      jump\t// in\n    tag_21:\n      tag_23\n      jump\t// in\n    tag_20:\n      mload(0x40)\n      tag_24\n      swap2\n      swap1\n      tag_25\n      jump\t// in\n    tag_24:\n      mload(0x40)\n      dup1\n      swap2\n      sub\n      swap1\n      return\n        /* \"contracts/ENS4.sol\":4916:5321  function getDomainInfo(string calldata name) external view returns (address domainOwner, address resolver, uint256 expiration) {... */\n    tag_4:\n      callvalue\n      dup1\n      iszero\n      tag_26\n      jumpi\n      0x00\n      dup1\n      revert\n    tag_26:\n      pop\n      tag_27\n      0x04\n      dup1\n      calldatasize\n      sub\n      dup2\n      add\n      swap1\n      tag_28\n      swap2\n      swap1\n      tag_22\n      jump\t// in\n    tag_28:\n      tag_29\n      jump\t// in\n    tag_27:\n      mload(0x40)\n      tag_30\n      swap4\n      swap3\n      swap2\n      swap1\n      tag_31\n      jump\t// in\n    tag_30:\n      mload(0x40)\n      dup1\n      swap2\n      sub\n      swap1\n      return\n        /* \"contracts/ENS4.sol\":1404:1559  function setRegistrationCost(uint256 newCost) external onlyOwner {... */\n    tag_5:\n      callvalue\n      dup1\n      iszero\n      tag_32\n      jumpi\n      0x00\n      dup1\n      revert\n    tag_32:\n      pop\n      tag_33\n      0x04\n      dup1\n      calldatasize\n      sub\n      dup2\n      add\n      swap1\n      tag_34\n      swap2\n      swap1\n      tag_35\n      jump\t// in\n    tag_34:\n      tag_36\n      jump\t// in\n    tag_33:\n      stop\n        /* \"contracts/ENS4.sol\":1259:1398  function setSuffix(string calldata newSuffix) external onlyOwner {... */\n    tag_6:\n      callvalue\n      dup1\n      iszero\n      tag_37\n      jumpi\n      0x00\n      dup1\n      revert\n    tag_37:\n      pop\n      tag_38\n      0x04\n      dup1\n      calldatasize\n      sub\n      dup2\n      add\n      swap1\n      tag_39\n      swap2\n      swap1\n      tag_22\n      jump\t// in\n    tag_39:\n      tag_40\n      jump\t// in\n    tag_38:\n      stop\n        /* \"contracts/ENS4.sol\":4533:4910  function changeResolver(string calldata name, address newResolver) external onlyDomainOwner(name) {... */\n    tag_7:\n      callvalue\n      dup1\n      iszero\n      tag_41\n      jumpi\n      0x00\n      dup1\n      revert\n    tag_41:\n      pop\n      tag_42\n      0x04\n      dup1\n      calldatasize\n      sub\n      dup2\n      add\n      swap1\n      tag_43\n      swap2\n      swap1\n      tag_44\n      jump\t// in\n    tag_43:\n      tag_45\n      jump\t// in\n    tag_42:\n      stop\n        /* \"contracts/ENS4.sol\":277:297  address public owner */\n    tag_8:\n      callvalue\n      dup1\n      iszero\n      tag_46\n      jumpi\n      0x00\n      dup1\n      revert\n    tag_46:\n      pop\n      tag_47\n      tag_48\n      jump\t// in\n    tag_47:\n      mload(0x40)\n      tag_49\n      swap2\n      swap1\n      tag_50\n      jump\t// in\n    tag_49:\n      mload(0x40)\n      dup1\n      swap2\n      sub\n      swap1\n      return\n        /* \"contracts/ENS4.sol\":3883:4527  function transferOwnership(string calldata name, address newOwner) external onlyDomainOwner(name) {... */\n    tag_9:\n      callvalue\n      dup1\n      iszero\n      tag_51\n      jumpi\n      0x00\n      dup1\n      revert\n    tag_51:\n      pop\n      tag_52\n      0x04\n      dup1\n      calldatasize\n      sub\n      dup2\n      add\n      swap1\n      tag_53\n      swap2\n      swap1\n      tag_44\n      jump\t// in\n    tag_53:\n      tag_54\n      jump\t// in\n    tag_52:\n      stop\n        /* \"contracts/ENS4.sol\":230:271  uint256 public registrationCost = 1 ether */\n    tag_10:\n      callvalue\n      dup1\n      iszero\n      tag_55\n      jumpi\n      0x00\n      dup1\n      revert\n    tag_55:\n      pop\n      tag_56\n      tag_57\n      jump\t// in\n    tag_56:\n      mload(0x40)\n      tag_58\n      swap2\n      swap1\n      tag_59\n      jump\t// in\n    tag_58:\n      mload(0x40)\n      dup1\n      swap2\n      sub\n      swap1\n      return\n        /* \"contracts/ENS4.sol\":5327:5468  function getDomainsByOwner(address domainOwner) external view returns (string[] memory) {... */\n    tag_11:\n      callvalue\n      dup1\n      iszero\n      tag_60\n      jumpi\n      0x00\n      dup1\n      revert\n    tag_60:\n      pop\n      tag_61\n      0x04\n      dup1\n      calldatasize\n      sub\n      dup2\n      add\n      swap1\n      tag_62\n      swap2\n      swap1\n      tag_63\n      jump\t// in\n    tag_62:\n      tag_64\n      jump\t// in\n    tag_61:\n      mload(0x40)\n      tag_65\n      swap2\n      swap1\n      tag_66\n      jump\t// in\n    tag_65:\n      mload(0x40)\n      dup1\n      swap2\n      sub\n      swap1\n      return\n        /* \"contracts/ENS4.sol\":195:224  string public suffix = \".edx\" */\n    tag_12:\n      callvalue\n      dup1\n      iszero\n      tag_67\n      jumpi\n      0x00\n      dup1\n      revert\n    tag_67:\n      pop\n      tag_68\n      tag_69\n      jump\t// in\n    tag_68:\n      mload(0x40)\n      tag_70\n      swap2\n      swap1\n      tag_71\n      jump\t// in\n    tag_70:\n      mload(0x40)\n      dup1\n      swap2\n      sub\n      swap1\n      return\n        /* \"contracts/ENS4.sol\":2034:3178  function registerDomain(string calldata name, address initialResolver, uint256 registrationYears) external payable {... */\n    tag_13:\n      tag_72\n      0x04\n      dup1\n      calldatasize\n      sub\n      dup2\n      add\n      swap1\n      tag_73\n      swap2\n      swap1\n      tag_74\n      jump\t// in\n    tag_73:\n      tag_75\n      jump\t// in\n    tag_72:\n      stop\n        /* \"contracts/ENS4.sol\":3185:3877  function renewDomain(string calldata name, uint256 registrationYears) external payable onlyDomainOwner(name) {... */\n    tag_18:\n        /* \"contracts/ENS4.sol\":3288:3292  name */\n      dup3\n      dup3\n        /* \"contracts/ENS4.sol\":961:1198  modifier onlyDomainOwner(string memory name) {... */\n      dup1\n      dup1\n      0x1f\n      add\n      0x20\n      dup1\n      swap2\n      div\n      mul\n      0x20\n      add\n      mload(0x40)\n      swap1\n      dup2\n      add\n      0x40\n      mstore\n      dup1\n      swap4\n      swap3\n      swap2\n      swap1\n      dup2\n      dup2\n      mstore\n      0x20\n      add\n      dup4\n      dup4\n      dup1\n      dup3\n      dup5\n      calldatacopy\n      0x00\n      dup2\n      dup5\n      add\n      mstore\n      not(0x1f)\n      0x1f\n      dup3\n      add\n      and\n      swap1\n      pop\n      dup1\n      dup4\n      add\n      swap3\n      pop\n      pop\n      pop\n      pop\n      pop\n      pop\n      pop\n        /* \"contracts/ENS4.sol\":1016:1040  string memory domainName */\n      0x00\n        /* \"contracts/ENS4.sol\":1067:1071  name */\n      dup2\n        /* \"contracts/ENS4.sol\":1073:1079  suffix */\n      0x00\n        /* \"contracts/ENS4.sol\":1050:1080  abi.encodePacked(name, suffix) */\n      add(0x20, mload(0x40))\n      tag_77\n      swap3\n      swap2\n      swap1\n      tag_78\n      jump\t// in\n    tag_77:\n      mload(0x40)\n      0x20\n      dup2\n      dup4\n      sub\n      sub\n      dup2\n      mstore\n      swap1\n      0x40\n      mstore\n        /* \"contracts/ENS4.sol\":1016:1081  string memory domainName = string(abi.encodePacked(name, suffix)) */\n      swap1\n      pop\n        /* \"contracts/ENS4.sol\":1128:1138  msg.sender */\n      caller\n        /* \"contracts/ENS4.sol\":1099:1138  domains[domainName].owner == msg.sender */\n      0xffffffffffffffffffffffffffffffffffffffff\n      and\n        /* \"contracts/ENS4.sol\":1099:1106  domains */\n      0x03\n        /* \"contracts/ENS4.sol\":1107:1117  domainName */\n      dup3\n        /* \"contracts/ENS4.sol\":1099:1118  domains[domainName] */\n      mload(0x40)\n      tag_79\n      swap2\n      swap1\n      tag_80\n      jump\t// in\n    tag_79:\n      swap1\n      dup2\n      mstore\n      0x20\n      add\n      mload(0x40)\n      dup1\n      swap2\n      sub\n      swap1\n      keccak256\n        /* \"contracts/ENS4.sol\":1099:1124  domains[domainName].owner */\n      0x00\n      add\n      0x00\n      swap1\n      sload\n      swap1\n      0x0100\n      exp\n      swap1\n      div\n      0xffffffffffffffffffffffffffffffffffffffff\n      and\n        /* \"contracts/ENS4.sol\":1099:1138  domains[domainName].owner == msg.sender */\n      0xffffffffffffffffffffffffffffffffffffffff\n      and\n      eq\n        /* \"contracts/ENS4.sol\":1091:1180  require(domains[domainName].owner == msg.sender, \"You are not the owner of this domain.\") */\n      tag_81\n      jumpi\n      mload(0x40)\n      0x08c379a000000000000000000000000000000000000000000000000000000000\n      dup2\n      mstore\n      0x04\n      add\n      tag_82\n      swap1\n      tag_83\n      jump\t// in\n    tag_82:\n      mload(0x40)\n      dup1\n      swap2\n      sub\n      swap1\n      revert\n    tag_81:\n        /* \"contracts/ENS4.sol\":3304:3331  string memory lowercaseName */\n      0x00\n        /* \"contracts/ENS4.sol\":3334:3351  toLowerCase(name) */\n      tag_85\n        /* \"contracts/ENS4.sol\":3346:3350  name */\n      dup7\n      dup7\n        /* \"contracts/ENS4.sol\":3334:3351  toLowerCase(name) */\n      dup1\n      dup1\n      0x1f\n      add\n      0x20\n      dup1\n      swap2\n      div\n      mul\n      0x20\n      add\n      mload(0x40)\n      swap1\n      dup2\n      add\n      0x40\n      mstore\n      dup1\n      swap4\n      swap3\n      swap2\n      swap1\n      dup2\n      dup2\n      mstore\n      0x20\n      add\n      dup4\n      dup4\n      dup1\n      dup3\n      dup5\n      calldatacopy\n      0x00\n      dup2\n      dup5\n      add\n      mstore\n      not(0x1f)\n      0x1f\n      dup3\n      add\n      and\n      swap1\n      pop\n      dup1\n      dup4\n      add\n      swap3\n      pop\n      pop\n      pop\n      pop\n      pop\n      pop\n      pop\n        /* \"contracts/ENS4.sol\":3334:3345  toLowerCase */\n      tag_86\n        /* \"contracts/ENS4.sol\":3334:3351  toLowerCase(name) */\n      jump\t// in\n    tag_85:\n        /* \"contracts/ENS4.sol\":3304:3351  string memory lowercaseName = toLowerCase(name) */\n      swap1\n      pop\n        /* \"contracts/ENS4.sol\":3361:3385  string memory domainName */\n      0x00\n        /* \"contracts/ENS4.sol\":3412:3425  lowercaseName */\n      dup2\n        /* \"contracts/ENS4.sol\":3427:3433  suffix */\n      0x00\n        /* \"contracts/ENS4.sol\":3395:3434  abi.encodePacked(lowercaseName, suffix) */\n      add(0x20, mload(0x40))\n      tag_87\n      swap3\n      swap2\n      swap1\n      tag_78\n      jump\t// in\n    tag_87:\n      mload(0x40)\n      0x20\n      dup2\n      dup4\n      sub\n      sub\n      dup2\n      mstore\n      swap1\n      0x40\n      mstore\n        /* \"contracts/ENS4.sol\":3361:3435  string memory domainName = string(abi.encodePacked(lowercaseName, suffix)) */\n      swap1\n      pop\n        /* \"contracts/ENS4.sol\":3469:3481  uint256 cost */\n      0x00\n        /* \"contracts/ENS4.sol\":3503:3520  registrationYears */\n      dup6\n        /* \"contracts/ENS4.sol\":3484:3500  registrationCost */\n      sload(0x01)\n        /* \"contracts/ENS4.sol\":3484:3520  registrationCost * registrationYears */\n      tag_88\n      swap2\n      swap1\n      tag_89\n      jump\t// in\n    tag_88:\n        /* \"contracts/ENS4.sol\":3469:3520  uint256 cost = registrationCost * registrationYears */\n      swap1\n      pop\n        /* \"contracts/ENS4.sol\":3551:3555  cost */\n      dup1\n        /* \"contracts/ENS4.sol\":3538:3547  msg.value */\n      callvalue\n        /* \"contracts/ENS4.sol\":3538:3555  msg.value >= cost */\n      lt\n      iszero\n        /* \"contracts/ENS4.sol\":3530:3622  require(msg.value >= cost, \"Insufficient funds to renew the domain for the specified years\") */\n      tag_90\n      jumpi\n      mload(0x40)\n      0x08c379a000000000000000000000000000000000000000000000000000000000\n      dup2\n      mstore\n      0x04\n      add\n      tag_91\n      swap1\n      tag_92\n      jump\t// in\n    tag_91:\n      mload(0x40)\n      dup1\n      swap2\n      sub\n      swap1\n      revert\n    tag_90:\n        /* \"contracts/ENS4.sol\":3687:3695  365 days */\n      0x01e13380\n        /* \"contracts/ENS4.sol\":3667:3684  registrationYears */\n      dup7\n        /* \"contracts/ENS4.sol\":3667:3695  registrationYears * 365 days */\n      tag_93\n      swap2\n      swap1\n      tag_89\n      jump\t// in\n    tag_93:\n        /* \"contracts/ENS4.sol\":3633:3640  domains */\n      0x03\n        /* \"contracts/ENS4.sol\":3641:3651  domainName */\n      dup4\n        /* \"contracts/ENS4.sol\":3633:3652  domains[domainName] */\n      mload(0x40)\n      tag_94\n      swap2\n      swap1\n      tag_80\n      jump\t// in\n    tag_94:\n      swap1\n      dup2\n      mstore\n      0x20\n      add\n      mload(0x40)\n      dup1\n      swap2\n      sub\n      swap1\n      keccak256\n        /* \"contracts/ENS4.sol\":3633:3663  domains[domainName].expiration */\n      0x02\n      add\n      0x00\n        /* \"contracts/ENS4.sol\":3633:3695  domains[domainName].expiration += registrationYears * 365 days */\n      dup3\n      dup3\n      sload\n      tag_95\n      swap2\n      swap1\n      tag_96\n      jump\t// in\n    tag_95:\n      swap3\n      pop\n      pop\n      dup2\n      swap1\n      sstore\n      pop\n        /* \"contracts/ENS4.sol\":3710:3767  DomainRenewed(domainName, domains[domainName].expiration) */\n      0xf44ec9072df846717b4110f1fc66219abeeba0e9599e259c4309f01079e7a8e9\n        /* \"contracts/ENS4.sol\":3724:3734  domainName */\n      dup3\n        /* \"contracts/ENS4.sol\":3736:3743  domains */\n      0x03\n        /* \"contracts/ENS4.sol\":3744:3754  domainName */\n      dup5\n        /* \"contracts/ENS4.sol\":3736:3755  domains[domainName] */\n      mload(0x40)\n      tag_97\n      swap2\n      swap1\n      tag_80\n      jump\t// in\n    tag_97:\n      swap1\n      dup2\n      mstore\n      0x20\n      add\n      mload(0x40)\n      dup1\n      swap2\n      sub\n      swap1\n      keccak256\n        /* \"contracts/ENS4.sol\":3736:3766  domains[domainName].expiration */\n      0x02\n      add\n      sload\n        /* \"contracts/ENS4.sol\":3710:3767  DomainRenewed(domainName, domains[domainName].expiration) */\n      mload(0x40)\n      tag_98\n      swap3\n      swap2\n      swap1\n      tag_99\n      jump\t// in\n    tag_98:\n      mload(0x40)\n      dup1\n      swap2\n      sub\n      swap1\n      log1\n        /* \"contracts/ENS4.sol\":3794:3798  cost */\n      dup1\n        /* \"contracts/ENS4.sol\":3782:3791  msg.value */\n      callvalue\n        /* \"contracts/ENS4.sol\":3782:3798  msg.value > cost */\n      gt\n        /* \"contracts/ENS4.sol\":3778:3871  if (msg.value > cost) {... */\n      iszero\n      tag_100\n      jumpi\n        /* \"contracts/ENS4.sol\":3822:3832  msg.sender */\n      caller\n        /* \"contracts/ENS4.sol\":3814:3842  payable(msg.sender).transfer */\n      0xffffffffffffffffffffffffffffffffffffffff\n      and\n        /* \"contracts/ENS4.sol\":3814:3860  payable(msg.sender).transfer(msg.value - cost) */\n      0x08fc\n        /* \"contracts/ENS4.sol\":3855:3859  cost */\n      dup3\n        /* \"contracts/ENS4.sol\":3843:3852  msg.value */\n      callvalue\n        /* \"contracts/ENS4.sol\":3843:3859  msg.value - cost */\n      tag_101\n      swap2\n      swap1\n      tag_102\n      jump\t// in\n    tag_101:\n        /* \"contracts/ENS4.sol\":3814:3860  payable(msg.sender).transfer(msg.value - cost) */\n      swap1\n      dup2\n      iszero\n      mul\n      swap1\n      mload(0x40)\n      0x00\n      mload(0x40)\n      dup1\n      dup4\n      sub\n      dup2\n      dup6\n      dup9\n      dup9\n      call\n      swap4\n      pop\n      pop\n      pop\n      pop\n      iszero\n      dup1\n      iszero\n      tag_104\n      jumpi\n      returndatasize\n      0x00\n      dup1\n      returndatacopy\n      revert(0x00, returndatasize)\n    tag_104:\n      pop\n        /* \"contracts/ENS4.sol\":3778:3871  if (msg.value > cost) {... */\n    tag_100:\n        /* \"contracts/ENS4.sol\":3294:3877  {... */\n      pop\n      pop\n      pop\n        /* \"contracts/ENS4.sol\":1006:1198  {... */\n      pop\n        /* \"contracts/ENS4.sol\":3185:3877  function renewDomain(string calldata name, uint256 registrationYears) external payable onlyDomainOwner(name) {... */\n      pop\n      pop\n      pop\n      pop\n      jump\t// out\n        /* \"contracts/ENS4.sol\":5967:6273  function isDomainAvailable(string calldata name) external view returns (bool) {... */\n    tag_23:\n        /* \"contracts/ENS4.sol\":6039:6043  bool */\n      0x00\n        /* \"contracts/ENS4.sol\":6055:6082  string memory lowercaseName */\n      dup1\n        /* \"contracts/ENS4.sol\":6085:6102  toLowerCase(name) */\n      tag_106\n        /* \"contracts/ENS4.sol\":6097:6101  name */\n      dup5\n      dup5\n        /* \"contracts/ENS4.sol\":6085:6102  toLowerCase(name) */\n      dup1\n      dup1\n      0x1f\n      add\n      0x20\n      dup1\n      swap2\n      div\n      mul\n      0x20\n      add\n      mload(0x40)\n      swap1\n      dup2\n      add\n      0x40\n      mstore\n      dup1\n      swap4\n      swap3\n      swap2\n      swap1\n      dup2\n      dup2\n      mstore\n      0x20\n      add\n      dup4\n      dup4\n      dup1\n      dup3\n      dup5\n      calldatacopy\n      0x00\n      dup2\n      dup5\n      add\n      mstore\n      not(0x1f)\n      0x1f\n      dup3\n      add\n      and\n      swap1\n      pop\n      dup1\n      dup4\n      add\n      swap3\n      pop\n      pop\n      pop\n      pop\n      pop\n      pop\n      pop\n        /* \"contracts/ENS4.sol\":6085:6096  toLowerCase */\n      tag_86\n        /* \"contracts/ENS4.sol\":6085:6102  toLowerCase(name) */\n      jump\t// in\n    tag_106:\n        /* \"contracts/ENS4.sol\":6055:6102  string memory lowercaseName = toLowerCase(name) */\n      swap1\n      pop\n        /* \"contracts/ENS4.sol\":6112:6136  string memory domainName */\n      0x00\n        /* \"contracts/ENS4.sol\":6163:6176  lowercaseName */\n      dup2\n        /* \"contracts/ENS4.sol\":6178:6184  suffix */\n      0x00\n        /* \"contracts/ENS4.sol\":6146:6185  abi.encodePacked(lowercaseName, suffix) */\n      add(0x20, mload(0x40))\n      tag_107\n      swap3\n      swap2\n      swap1\n      tag_78\n      jump\t// in\n    tag_107:\n      mload(0x40)\n      0x20\n      dup2\n      dup4\n      sub\n      sub\n      dup2\n      mstore\n      swap1\n      0x40\n      mstore\n        /* \"contracts/ENS4.sol\":6112:6186  string memory domainName = string(abi.encodePacked(lowercaseName, suffix)) */\n      swap1\n      pop\n        /* \"contracts/ENS4.sol\":6264:6265  0 */\n      0x00\n        /* \"contracts/ENS4.sol\":6227:6266  domains[domainName].owner == address(0) */\n      0xffffffffffffffffffffffffffffffffffffffff\n      and\n        /* \"contracts/ENS4.sol\":6227:6234  domains */\n      0x03\n        /* \"contracts/ENS4.sol\":6235:6245  domainName */\n      dup3\n        /* \"contracts/ENS4.sol\":6227:6246  domains[domainName] */\n      mload(0x40)\n      tag_108\n      swap2\n      swap1\n      tag_80\n      jump\t// in\n    tag_108:\n      swap1\n      dup2\n      mstore\n      0x20\n      add\n      mload(0x40)\n      dup1\n      swap2\n      sub\n      swap1\n      keccak256\n        /* \"contracts/ENS4.sol\":6227:6252  domains[domainName].owner */\n      0x00\n      add\n      0x00\n      swap1\n      sload\n      swap1\n      0x0100\n      exp\n      swap1\n      div\n      0xffffffffffffffffffffffffffffffffffffffff\n      and\n        /* \"contracts/ENS4.sol\":6227:6266  domains[domainName].owner == address(0) */\n      0xffffffffffffffffffffffffffffffffffffffff\n      and\n      eq\n        /* \"contracts/ENS4.sol\":6220:6266  return domains[domainName].owner == address(0) */\n      swap3\n      pop\n      pop\n      pop\n        /* \"contracts/ENS4.sol\":5967:6273  function isDomainAvailable(string calldata name) external view returns (bool) {... */\n      swap3\n      swap2\n      pop\n      pop\n      jump\t// out\n        /* \"contracts/ENS4.sol\":4916:5321  function getDomainInfo(string calldata name) external view returns (address domainOwner, address resolver, uint256 expiration) {... */\n    tag_29:\n        /* \"contracts/ENS4.sol\":4984:5003  address domainOwner */\n      0x00\n        /* \"contracts/ENS4.sol\":5005:5021  address resolver */\n      dup1\n        /* \"contracts/ENS4.sol\":5023:5041  uint256 expiration */\n      0x00\n        /* \"contracts/ENS4.sol\":5053:5080  string memory lowercaseName */\n      dup1\n        /* \"contracts/ENS4.sol\":5083:5100  toLowerCase(name) */\n      tag_110\n        /* \"contracts/ENS4.sol\":5095:5099  name */\n      dup7\n      dup7\n        /* \"contracts/ENS4.sol\":5083:5100  toLowerCase(name) */\n      dup1\n      dup1\n      0x1f\n      add\n      0x20\n      dup1\n      swap2\n      div\n      mul\n      0x20\n      add\n      mload(0x40)\n      swap1\n      dup2\n      add\n      0x40\n      mstore\n      dup1\n      swap4\n      swap3\n      swap2\n      swap1\n      dup2\n      dup2\n      mstore\n      0x20\n      add\n      dup4\n      dup4\n      dup1\n      dup3\n      dup5\n      calldatacopy\n      0x00\n      dup2\n      dup5\n      add\n      mstore\n      not(0x1f)\n      0x1f\n      dup3\n      add\n      and\n      swap1\n      pop\n      dup1\n      dup4\n      add\n      swap3\n      pop\n      pop\n      pop\n      pop\n      pop\n      pop\n      pop\n        /* \"contracts/ENS4.sol\":5083:5094  toLowerCase */\n      tag_86\n        /* \"contracts/ENS4.sol\":5083:5100  toLowerCase(name) */\n      jump\t// in\n    tag_110:\n        /* \"contracts/ENS4.sol\":5053:5100  string memory lowercaseName = toLowerCase(name) */\n      swap1\n      pop\n        /* \"contracts/ENS4.sol\":5110:5134  string memory domainName */\n      0x00\n        /* \"contracts/ENS4.sol\":5161:5174  lowercaseName */\n      dup2\n        /* \"contracts/ENS4.sol\":5176:5182  suffix */\n      0x00\n        /* \"contracts/ENS4.sol\":5144:5183  abi.encodePacked(lowercaseName, suffix) */\n      add(0x20, mload(0x40))\n      tag_111\n      swap3\n      swap2\n      swap1\n      tag_78\n      jump\t// in\n    tag_111:\n      mload(0x40)\n      0x20\n      dup2\n      dup4\n      sub\n      sub\n      dup2\n      mstore\n      swap1\n      0x40\n      mstore\n        /* \"contracts/ENS4.sol\":5110:5184  string memory domainName = string(abi.encodePacked(lowercaseName, suffix)) */\n      swap1\n      pop\n        /* \"contracts/ENS4.sol\":5226:5233  domains */\n      0x03\n        /* \"contracts/ENS4.sol\":5234:5244  domainName */\n      dup2\n        /* \"contracts/ENS4.sol\":5226:5245  domains[domainName] */\n      mload(0x40)\n      tag_112\n      swap2\n      swap1\n      tag_80\n      jump\t// in\n    tag_112:\n      swap1\n      dup2\n      mstore\n      0x20\n      add\n      mload(0x40)\n      dup1\n      swap2\n      sub\n      swap1\n      keccak256\n        /* \"contracts/ENS4.sol\":5226:5251  domains[domainName].owner */\n      0x00\n      add\n      0x00\n      swap1\n      sload\n      swap1\n      0x0100\n      exp\n      swap1\n      div\n      0xffffffffffffffffffffffffffffffffffffffff\n      and\n        /* \"contracts/ENS4.sol\":5253:5260  domains */\n      0x03\n        /* \"contracts/ENS4.sol\":5261:5271  domainName */\n      dup3\n        /* \"contracts/ENS4.sol\":5253:5272  domains[domainName] */\n      mload(0x40)\n      tag_113\n      swap2\n      swap1\n      tag_80\n      jump\t// in\n    tag_113:\n      swap1\n      dup2\n      mstore\n      0x20\n      add\n      mload(0x40)\n      dup1\n      swap2\n      sub\n      swap1\n      keccak256\n        /* \"contracts/ENS4.sol\":5253:5281  domains[domainName].resolver */\n      0x01\n      add\n      0x00\n      swap1\n      sload\n      swap1\n      0x0100\n      exp\n      swap1\n      div\n      0xffffffffffffffffffffffffffffffffffffffff\n      and\n        /* \"contracts/ENS4.sol\":5283:5290  domains */\n      0x03\n        /* \"contracts/ENS4.sol\":5291:5301  domainName */\n      dup4\n        /* \"contracts/ENS4.sol\":5283:5302  domains[domainName] */\n      mload(0x40)\n      tag_114\n      swap2\n      swap1\n      tag_80\n      jump\t// in\n    tag_114:\n      swap1\n      dup2\n      mstore\n      0x20\n      add\n      mload(0x40)\n      dup1\n      swap2\n      sub\n      swap1\n      keccak256\n        /* \"contracts/ENS4.sol\":5283:5313  domains[domainName].expiration */\n      0x02\n      add\n      sload\n        /* \"contracts/ENS4.sol\":5218:5314  return (domains[domainName].owner, domains[domainName].resolver, domains[domainName].expiration) */\n      swap5\n      pop\n      swap5\n      pop\n      swap5\n      pop\n      pop\n      pop\n        /* \"contracts/ENS4.sol\":4916:5321  function getDomainInfo(string calldata name) external view returns (address domainOwner, address resolver, uint256 expiration) {... */\n      swap3\n      pop\n      swap3\n      pop\n      swap3\n      jump\t// out\n        /* \"contracts/ENS4.sol\":1404:1559  function setRegistrationCost(uint256 newCost) external onlyOwner {... */\n    tag_36:\n        /* \"contracts/ENS4.sol\":880:885  owner */\n      0x02\n      0x00\n      swap1\n      sload\n      swap1\n      0x0100\n      exp\n      swap1\n      div\n      0xffffffffffffffffffffffffffffffffffffffff\n      and\n        /* \"contracts/ENS4.sol\":866:885  msg.sender == owner */\n      0xffffffffffffffffffffffffffffffffffffffff\n      and\n        /* \"contracts/ENS4.sol\":866:876  msg.sender */\n      caller\n        /* \"contracts/ENS4.sol\":866:885  msg.sender == owner */\n      0xffffffffffffffffffffffffffffffffffffffff\n      and\n      eq\n        /* \"contracts/ENS4.sol\":858:937  require(msg.sender == owner, \"Only the contract owner can call this function.\") */\n      tag_116\n      jumpi\n      mload(0x40)\n      0x08c379a000000000000000000000000000000000000000000000000000000000\n      dup2\n      mstore\n      0x04\n      add\n      tag_117\n      swap1\n      tag_118\n      jump\t// in\n    tag_117:\n      mload(0x40)\n      dup1\n      swap2\n      sub\n      swap1\n      revert\n    tag_116:\n        /* \"contracts/ENS4.sol\":1498:1505  newCost */\n      dup1\n        /* \"contracts/ENS4.sol\":1479:1495  registrationCost */\n      0x01\n        /* \"contracts/ENS4.sol\":1479:1505  registrationCost = newCost */\n      dup2\n      swap1\n      sstore\n      pop\n        /* \"contracts/ENS4.sol\":1520:1552  RegistrationCostChanged(newCost) */\n      0xfa1f039258beb7ece09ab0db5bec981b26cc0d9803dd83fdcce6aeb221ac7501\n        /* \"contracts/ENS4.sol\":1544:1551  newCost */\n      dup2\n        /* \"contracts/ENS4.sol\":1520:1552  RegistrationCostChanged(newCost) */\n      mload(0x40)\n      tag_120\n      swap2\n      swap1\n      tag_59\n      jump\t// in\n    tag_120:\n      mload(0x40)\n      dup1\n      swap2\n      sub\n      swap1\n      log1\n        /* \"contracts/ENS4.sol\":1404:1559  function setRegistrationCost(uint256 newCost) external onlyOwner {... */\n      pop\n      jump\t// out\n        /* \"contracts/ENS4.sol\":1259:1398  function setSuffix(string calldata newSuffix) external onlyOwner {... */\n    tag_40:\n        /* \"contracts/ENS4.sol\":880:885  owner */\n      0x02\n      0x00\n      swap1\n      sload\n      swap1\n      0x0100\n      exp\n      swap1\n      div\n      0xffffffffffffffffffffffffffffffffffffffff\n      and\n        /* \"contracts/ENS4.sol\":866:885  msg.sender == owner */\n      0xffffffffffffffffffffffffffffffffffffffff\n      and\n        /* \"contracts/ENS4.sol\":866:876  msg.sender */\n      caller\n        /* \"contracts/ENS4.sol\":866:885  msg.sender == owner */\n      0xffffffffffffffffffffffffffffffffffffffff\n      and\n      eq\n        /* \"contracts/ENS4.sol\":858:937  require(msg.sender == owner, \"Only the contract owner can call this function.\") */\n      tag_122\n      jumpi\n      mload(0x40)\n      0x08c379a000000000000000000000000000000000000000000000000000000000\n      dup2\n      mstore\n      0x04\n      add\n      tag_123\n      swap1\n      tag_118\n      jump\t// in\n    tag_123:\n      mload(0x40)\n      dup1\n      swap2\n      sub\n      swap1\n      revert\n    tag_122:\n        /* \"contracts/ENS4.sol\":1343:1352  newSuffix */\n      dup2\n      dup2\n        /* \"contracts/ENS4.sol\":1334:1340  suffix */\n      0x00\n        /* \"contracts/ENS4.sol\":1334:1352  suffix = newSuffix */\n      swap2\n      dup3\n      tag_125\n      swap3\n      swap2\n      swap1\n      tag_126\n      jump\t// in\n    tag_125:\n      pop\n        /* \"contracts/ENS4.sol\":1367:1391  SuffixChanged(newSuffix) */\n      0xfba05bf822a346ea5a55932a1f841c00041eb4fef950f44d568de2aaa08482c9\n        /* \"contracts/ENS4.sol\":1381:1390  newSuffix */\n      dup3\n      dup3\n        /* \"contracts/ENS4.sol\":1367:1391  SuffixChanged(newSuffix) */\n      mload(0x40)\n      tag_127\n      swap3\n      swap2\n      swap1\n      tag_128\n      jump\t// in\n    tag_127:\n      mload(0x40)\n      dup1\n      swap2\n      sub\n      swap1\n      log1\n        /* \"contracts/ENS4.sol\":1259:1398  function setSuffix(string calldata newSuffix) external onlyOwner {... */\n      pop\n      pop\n      jump\t// out\n        /* \"contracts/ENS4.sol\":4533:4910  function changeResolver(string calldata name, address newResolver) external onlyDomainOwner(name) {... */\n    tag_45:\n        /* \"contracts/ENS4.sol\":4625:4629  name */\n      dup3\n      dup3\n        /* \"contracts/ENS4.sol\":961:1198  modifier onlyDomainOwner(string memory name) {... */\n      dup1\n      dup1\n      0x1f\n      add\n      0x20\n      dup1\n      swap2\n      div\n      mul\n      0x20\n      add\n      mload(0x40)\n      swap1\n      dup2\n      add\n      0x40\n      mstore\n      dup1\n      swap4\n      swap3\n      swap2\n      swap1\n      dup2\n      dup2\n      mstore\n      0x20\n      add\n      dup4\n      dup4\n      dup1\n      dup3\n      dup5\n      calldatacopy\n      0x00\n      dup2\n      dup5\n      add\n      mstore\n      not(0x1f)\n      0x1f\n      dup3\n      add\n      and\n      swap1\n      pop\n      dup1\n      dup4\n      add\n      swap3\n      pop\n      pop\n      pop\n      pop\n      pop\n      pop\n      pop\n        /* \"contracts/ENS4.sol\":1016:1040  string memory domainName */\n      0x00\n        /* \"contracts/ENS4.sol\":1067:1071  name */\n      dup2\n        /* \"contracts/ENS4.sol\":1073:1079  suffix */\n      0x00\n        /* \"contracts/ENS4.sol\":1050:1080  abi.encodePacked(name, suffix) */\n      add(0x20, mload(0x40))\n      tag_130\n      swap3\n      swap2\n      swap1\n      tag_78\n      jump\t// in\n    tag_130:\n      mload(0x40)\n      0x20\n      dup2\n      dup4\n      sub\n      sub\n      dup2\n      mstore\n      swap1\n      0x40\n      mstore\n        /* \"contracts/ENS4.sol\":1016:1081  string memory domainName = string(abi.encodePacked(name, suffix)) */\n      swap1\n      pop\n        /* \"contracts/ENS4.sol\":1128:1138  msg.sender */\n      caller\n        /* \"contracts/ENS4.sol\":1099:1138  domains[domainName].owner == msg.sender */\n      0xffffffffffffffffffffffffffffffffffffffff\n      and\n        /* \"contracts/ENS4.sol\":1099:1106  domains */\n      0x03\n        /* \"contracts/ENS4.sol\":1107:1117  domainName */\n      dup3\n        /* \"contracts/ENS4.sol\":1099:1118  domains[domainName] */\n      mload(0x40)\n      tag_131\n      swap2\n      swap1\n      tag_80\n      jump\t// in\n    tag_131:\n      swap1\n      dup2\n      mstore\n      0x20\n      add\n      mload(0x40)\n      dup1\n      swap2\n      sub\n      swap1\n      keccak256\n        /* \"contracts/ENS4.sol\":1099:1124  domains[domainName].owner */\n      0x00\n      add\n      0x00\n      swap1\n      sload\n      swap1\n      0x0100\n      exp\n      swap1\n      div\n      0xffffffffffffffffffffffffffffffffffffffff\n      and\n        /* \"contracts/ENS4.sol\":1099:1138  domains[domainName].owner == msg.sender */\n      0xffffffffffffffffffffffffffffffffffffffff\n      and\n      eq\n        /* \"contracts/ENS4.sol\":1091:1180  require(domains[domainName].owner == msg.sender, \"You are not the owner of this domain.\") */\n      tag_132\n      jumpi\n      mload(0x40)\n      0x08c379a000000000000000000000000000000000000000000000000000000000\n      dup2\n      mstore\n      0x04\n      add\n      tag_133\n      swap1\n      tag_83\n      jump\t// in\n    tag_133:\n      mload(0x40)\n      dup1\n      swap2\n      sub\n      swap1\n      revert\n    tag_132:\n        /* \"contracts/ENS4.sol\":4641:4668  string memory lowercaseName */\n      0x00\n        /* \"contracts/ENS4.sol\":4671:4688  toLowerCase(name) */\n      tag_135\n        /* \"contracts/ENS4.sol\":4683:4687  name */\n      dup7\n      dup7\n        /* \"contracts/ENS4.sol\":4671:4688  toLowerCase(name) */\n      dup1\n      dup1\n      0x1f\n      add\n      0x20\n      dup1\n      swap2\n      div\n      mul\n      0x20\n      add\n      mload(0x40)\n      swap1\n      dup2\n      add\n      0x40\n      mstore\n      dup1\n      swap4\n      swap3\n      swap2\n      swap1\n      dup2\n      dup2\n      mstore\n      0x20\n      add\n      dup4\n      dup4\n      dup1\n      dup3\n      dup5\n      calldatacopy\n      0x00\n      dup2\n      dup5\n      add\n      mstore\n      not(0x1f)\n      0x1f\n      dup3\n      add\n      and\n      swap1\n      pop\n      dup1\n      dup4\n      add\n      swap3\n      pop\n      pop\n      pop\n      pop\n      pop\n      pop\n      pop\n        /* \"contracts/ENS4.sol\":4671:4682  toLowerCase */\n      tag_86\n        /* \"contracts/ENS4.sol\":4671:4688  toLowerCase(name) */\n      jump\t// in\n    tag_135:\n        /* \"contracts/ENS4.sol\":4641:4688  string memory lowercaseName = toLowerCase(name) */\n      swap1\n      pop\n        /* \"contracts/ENS4.sol\":4698:4722  string memory domainName */\n      0x00\n        /* \"contracts/ENS4.sol\":4749:4762  lowercaseName */\n      dup2\n        /* \"contracts/ENS4.sol\":4764:4770  suffix */\n      0x00\n        /* \"contracts/ENS4.sol\":4732:4771  abi.encodePacked(lowercaseName, suffix) */\n      add(0x20, mload(0x40))\n      tag_136\n      swap3\n      swap2\n      swap1\n      tag_78\n      jump\t// in\n    tag_136:\n      mload(0x40)\n      0x20\n      dup2\n      dup4\n      sub\n      sub\n      dup2\n      mstore\n      swap1\n      0x40\n      mstore\n        /* \"contracts/ENS4.sol\":4698:4772  string memory domainName = string(abi.encodePacked(lowercaseName, suffix)) */\n      swap1\n      pop\n        /* \"contracts/ENS4.sol\":4837:4848  newResolver */\n      dup5\n        /* \"contracts/ENS4.sol\":4806:4813  domains */\n      0x03\n        /* \"contracts/ENS4.sol\":4814:4824  domainName */\n      dup3\n        /* \"contracts/ENS4.sol\":4806:4825  domains[domainName] */\n      mload(0x40)\n      tag_137\n      swap2\n      swap1\n      tag_80\n      jump\t// in\n    tag_137:\n      swap1\n      dup2\n      mstore\n      0x20\n      add\n      mload(0x40)\n      dup1\n      swap2\n      sub\n      swap1\n      keccak256\n        /* \"contracts/ENS4.sol\":4806:4834  domains[domainName].resolver */\n      0x01\n      add\n      0x00\n        /* \"contracts/ENS4.sol\":4806:4848  domains[domainName].resolver = newResolver */\n      0x0100\n      exp\n      dup2\n      sload\n      dup2\n      0xffffffffffffffffffffffffffffffffffffffff\n      mul\n      not\n      and\n      swap1\n      dup4\n      0xffffffffffffffffffffffffffffffffffffffff\n      and\n      mul\n      or\n      swap1\n      sstore\n      pop\n        /* \"contracts/ENS4.sol\":4891:4902  newResolver */\n      dup5\n        /* \"contracts/ENS4.sol\":4863:4903  ResolverChanged(domainName, newResolver) */\n      0xffffffffffffffffffffffffffffffffffffffff\n      and\n      0x6d25091b0cf2f910de133fa1124a83cc0bba17dcddb63e259346affd222ebe44\n        /* \"contracts/ENS4.sol\":4879:4889  domainName */\n      dup3\n        /* \"contracts/ENS4.sol\":4863:4903  ResolverChanged(domainName, newResolver) */\n      mload(0x40)\n      tag_138\n      swap2\n      swap1\n      tag_71\n      jump\t// in\n    tag_138:\n      mload(0x40)\n      dup1\n      swap2\n      sub\n      swap1\n      log2\n        /* \"contracts/ENS4.sol\":4631:4910  {... */\n      pop\n      pop\n        /* \"contracts/ENS4.sol\":1006:1198  {... */\n      pop\n        /* \"contracts/ENS4.sol\":4533:4910  function changeResolver(string calldata name, address newResolver) external onlyDomainOwner(name) {... */\n      pop\n      pop\n      pop\n      pop\n      jump\t// out\n        /* \"contracts/ENS4.sol\":277:297  address public owner */\n    tag_48:\n      0x02\n      0x00\n      swap1\n      sload\n      swap1\n      0x0100\n      exp\n      swap1\n      div\n      0xffffffffffffffffffffffffffffffffffffffff\n      and\n      dup2\n      jump\t// out\n        /* \"contracts/ENS4.sol\":3883:4527  function transferOwnership(string calldata name, address newOwner) external onlyDomainOwner(name) {... */\n    tag_54:\n        /* \"contracts/ENS4.sol\":3975:3979  name */\n      dup3\n      dup3\n        /* \"contracts/ENS4.sol\":961:1198  modifier onlyDomainOwner(string memory name) {... */\n      dup1\n      dup1\n      0x1f\n      add\n      0x20\n      dup1\n      swap2\n      div\n      mul\n      0x20\n      add\n      mload(0x40)\n      swap1\n      dup2\n      add\n      0x40\n      mstore\n      dup1\n      swap4\n      swap3\n      swap2\n      swap1\n      dup2\n      dup2\n      mstore\n      0x20\n      add\n      dup4\n      dup4\n      dup1\n      dup3\n      dup5\n      calldatacopy\n      0x00\n      dup2\n      dup5\n      add\n      mstore\n      not(0x1f)\n      0x1f\n      dup3\n      add\n      and\n      swap1\n      pop\n      dup1\n      dup4\n      add\n      swap3\n      pop\n      pop\n      pop\n      pop\n      pop\n      pop\n      pop\n        /* \"contracts/ENS4.sol\":1016:1040  string memory domainName */\n      0x00\n        /* \"contracts/ENS4.sol\":1067:1071  name */\n      dup2\n        /* \"contracts/ENS4.sol\":1073:1079  suffix */\n      0x00\n        /* \"contracts/ENS4.sol\":1050:1080  abi.encodePacked(name, suffix) */\n      add(0x20, mload(0x40))\n      tag_140\n      swap3\n      swap2\n      swap1\n      tag_78\n      jump\t// in\n    tag_140:\n      mload(0x40)\n      0x20\n      dup2\n      dup4\n      sub\n      sub\n      dup2\n      mstore\n      swap1\n      0x40\n      mstore\n        /* \"contracts/ENS4.sol\":1016:1081  string memory domainName = string(abi.encodePacked(name, suffix)) */\n      swap1\n      pop\n        /* \"contracts/ENS4.sol\":1128:1138  msg.sender */\n      caller\n        /* \"contracts/ENS4.sol\":1099:1138  domains[domainName].owner == msg.sender */\n      0xffffffffffffffffffffffffffffffffffffffff\n      and\n        /* \"contracts/ENS4.sol\":1099:1106  domains */\n      0x03\n        /* \"contracts/ENS4.sol\":1107:1117  domainName */\n      dup3\n        /* \"contracts/ENS4.sol\":1099:1118  domains[domainName] */\n      mload(0x40)\n      tag_141\n      swap2\n      swap1\n      tag_80\n      jump\t// in\n    tag_141:\n      swap1\n      dup2\n      mstore\n      0x20\n      add\n      mload(0x40)\n      dup1\n      swap2\n      sub\n      swap1\n      keccak256\n        /* \"contracts/ENS4.sol\":1099:1124  domains[domainName].owner */\n      0x00\n      add\n      0x00\n      swap1\n      sload\n      swap1\n      0x0100\n      exp\n      swap1\n      div\n      0xffffffffffffffffffffffffffffffffffffffff\n      and\n        /* \"contracts/ENS4.sol\":1099:1138  domains[domainName].owner == msg.sender */\n      0xffffffffffffffffffffffffffffffffffffffff\n      and\n      eq\n        /* \"contracts/ENS4.sol\":1091:1180  require(domains[domainName].owner == msg.sender, \"You are not the owner of this domain.\") */\n      tag_142\n      jumpi\n      mload(0x40)\n      0x08c379a000000000000000000000000000000000000000000000000000000000\n      dup2\n      mstore\n      0x04\n      add\n      tag_143\n      swap1\n      tag_83\n      jump\t// in\n    tag_143:\n      mload(0x40)\n      dup1\n      swap2\n      sub\n      swap1\n      revert\n    tag_142:\n        /* \"contracts/ENS4.sol\":3991:4018  string memory lowercaseName */\n      0x00\n        /* \"contracts/ENS4.sol\":4021:4038  toLowerCase(name) */\n      tag_145\n        /* \"contracts/ENS4.sol\":4033:4037  name */\n      dup7\n      dup7\n        /* \"contracts/ENS4.sol\":4021:4038  toLowerCase(name) */\n      dup1\n      dup1\n      0x1f\n      add\n      0x20\n      dup1\n      swap2\n      div\n      mul\n      0x20\n      add\n      mload(0x40)\n      swap1\n      dup2\n      add\n      0x40\n      mstore\n      dup1\n      swap4\n      swap3\n      swap2\n      swap1\n      dup2\n      dup2\n      mstore\n      0x20\n      add\n      dup4\n      dup4\n      dup1\n      dup3\n      dup5\n      calldatacopy\n      0x00\n      dup2\n      dup5\n      add\n      mstore\n      not(0x1f)\n      0x1f\n      dup3\n      add\n      and\n      swap1\n      pop\n      dup1\n      dup4\n      add\n      swap3\n      pop\n      pop\n      pop\n      pop\n      pop\n      pop\n      pop\n        /* \"contracts/ENS4.sol\":4021:4032  toLowerCase */\n      tag_86\n        /* \"contracts/ENS4.sol\":4021:4038  toLowerCase(name) */\n      jump\t// in\n    tag_145:\n        /* \"contracts/ENS4.sol\":3991:4038  string memory lowercaseName = toLowerCase(name) */\n      swap1\n      pop\n        /* \"contracts/ENS4.sol\":4048:4072  string memory domainName */\n      0x00\n        /* \"contracts/ENS4.sol\":4099:4112  lowercaseName */\n      dup2\n        /* \"contracts/ENS4.sol\":4114:4120  suffix */\n      0x00\n        /* \"contracts/ENS4.sol\":4082:4121  abi.encodePacked(lowercaseName, suffix) */\n      add(0x20, mload(0x40))\n      tag_146\n      swap3\n      swap2\n      swap1\n      tag_78\n      jump\t// in\n    tag_146:\n      mload(0x40)\n      0x20\n      dup2\n      dup4\n      sub\n      sub\n      dup2\n      mstore\n      swap1\n      0x40\n      mstore\n        /* \"contracts/ENS4.sol\":4048:4122  string memory domainName = string(abi.encodePacked(lowercaseName, suffix)) */\n      swap1\n      pop\n        /* \"contracts/ENS4.sol\":4156:4177  address previousOwner */\n      0x00\n        /* \"contracts/ENS4.sol\":4180:4187  domains */\n      0x03\n        /* \"contracts/ENS4.sol\":4188:4198  domainName */\n      dup3\n        /* \"contracts/ENS4.sol\":4180:4199  domains[domainName] */\n      mload(0x40)\n      tag_147\n      swap2\n      swap1\n      tag_80\n      jump\t// in\n    tag_147:\n      swap1\n      dup2\n      mstore\n      0x20\n      add\n      mload(0x40)\n      dup1\n      swap2\n      sub\n      swap1\n      keccak256\n        /* \"contracts/ENS4.sol\":4180:4205  domains[domainName].owner */\n      0x00\n      add\n      0x00\n      swap1\n      sload\n      swap1\n      0x0100\n      exp\n      swap1\n      div\n      0xffffffffffffffffffffffffffffffffffffffff\n      and\n        /* \"contracts/ENS4.sol\":4156:4205  address previousOwner = domains[domainName].owner */\n      swap1\n      pop\n        /* \"contracts/ENS4.sol\":4243:4251  newOwner */\n      dup6\n        /* \"contracts/ENS4.sol\":4215:4222  domains */\n      0x03\n        /* \"contracts/ENS4.sol\":4223:4233  domainName */\n      dup4\n        /* \"contracts/ENS4.sol\":4215:4234  domains[domainName] */\n      mload(0x40)\n      tag_148\n      swap2\n      swap1\n      tag_80\n      jump\t// in\n    tag_148:\n      swap1\n      dup2\n      mstore\n      0x20\n      add\n      mload(0x40)\n      dup1\n      swap2\n      sub\n      swap1\n      keccak256\n        /* \"contracts/ENS4.sol\":4215:4240  domains[domainName].owner */\n      0x00\n      add\n      0x00\n        /* \"contracts/ENS4.sol\":4215:4251  domains[domainName].owner = newOwner */\n      0x0100\n      exp\n      dup2\n      sload\n      dup2\n      0xffffffffffffffffffffffffffffffffffffffff\n      mul\n      not\n      and\n      swap1\n      dup4\n      0xffffffffffffffffffffffffffffffffffffffff\n      and\n      mul\n      or\n      swap1\n      sstore\n      pop\n        /* \"contracts/ENS4.sol\":4339:4388  _removeDomainFromOwner(previousOwner, domainName) */\n      tag_149\n        /* \"contracts/ENS4.sol\":4362:4375  previousOwner */\n      dup2\n        /* \"contracts/ENS4.sol\":4377:4387  domainName */\n      dup4\n        /* \"contracts/ENS4.sol\":4339:4361  _removeDomainFromOwner */\n      tag_150\n        /* \"contracts/ENS4.sol\":4339:4388  _removeDomainFromOwner(previousOwner, domainName) */\n      jump\t// in\n    tag_149:\n        /* \"contracts/ENS4.sol\":4398:4414  addressToDomains */\n      0x04\n        /* \"contracts/ENS4.sol\":4398:4424  addressToDomains[newOwner] */\n      0x00\n        /* \"contracts/ENS4.sol\":4415:4423  newOwner */\n      dup8\n        /* \"contracts/ENS4.sol\":4398:4424  addressToDomains[newOwner] */\n      0xffffffffffffffffffffffffffffffffffffffff\n      and\n      0xffffffffffffffffffffffffffffffffffffffff\n      and\n      dup2\n      mstore\n      0x20\n      add\n      swap1\n      dup2\n      mstore\n      0x20\n      add\n      0x00\n      keccak256\n        /* \"contracts/ENS4.sol\":4430:4440  domainName */\n      dup3\n        /* \"contracts/ENS4.sol\":4398:4441  addressToDomains[newOwner].push(domainName) */\n      swap1\n      dup1\n      0x01\n      dup2\n      sload\n      add\n      dup1\n      dup3\n      sstore\n      dup1\n      swap2\n      pop\n      pop\n      0x01\n      swap1\n      sub\n      swap1\n      0x00\n      mstore\n      keccak256(0x00, 0x20)\n      add\n      0x00\n      swap1\n      swap2\n      swap1\n      swap2\n      swap1\n      swap2\n      pop\n      swap1\n      dup2\n      tag_152\n      swap2\n      swap1\n      tag_153\n      jump\t// in\n    tag_152:\n      pop\n        /* \"contracts/ENS4.sol\":4511:4519  newOwner */\n      dup6\n        /* \"contracts/ENS4.sol\":4457:4520  DomainOwnershipTransferred(domainName, previousOwner, newOwner) */\n      0xffffffffffffffffffffffffffffffffffffffff\n      and\n        /* \"contracts/ENS4.sol\":4496:4509  previousOwner */\n      dup2\n        /* \"contracts/ENS4.sol\":4457:4520  DomainOwnershipTransferred(domainName, previousOwner, newOwner) */\n      0xffffffffffffffffffffffffffffffffffffffff\n      and\n      0xd43ae7ba5d7f951ba2fb94d03dc0f12664835c289cea1d1295e86a1fbddfc82c\n        /* \"contracts/ENS4.sol\":4484:4494  domainName */\n      dup5\n        /* \"contracts/ENS4.sol\":4457:4520  DomainOwnershipTransferred(domainName, previousOwner, newOwner) */\n      mload(0x40)\n      tag_154\n      swap2\n      swap1\n      tag_71\n      jump\t// in\n    tag_154:\n      mload(0x40)\n      dup1\n      swap2\n      sub\n      swap1\n      log3\n        /* \"contracts/ENS4.sol\":3981:4527  {... */\n      pop\n      pop\n      pop\n        /* \"contracts/ENS4.sol\":1006:1198  {... */\n      pop\n        /* \"contracts/ENS4.sol\":3883:4527  function transferOwnership(string calldata name, address newOwner) external onlyDomainOwner(name) {... */\n      pop\n      pop\n      pop\n      pop\n      jump\t// out\n        /* \"contracts/ENS4.sol\":230:271  uint256 public registrationCost = 1 ether */\n    tag_57:\n      sload(0x01)\n      dup2\n      jump\t// out\n        /* \"contracts/ENS4.sol\":5327:5468  function getDomainsByOwner(address domainOwner) external view returns (string[] memory) {... */\n    tag_64:\n        /* \"contracts/ENS4.sol\":5398:5413  string[] memory */\n      0x60\n        /* \"contracts/ENS4.sol\":5432:5448  addressToDomains */\n      0x04\n        /* \"contracts/ENS4.sol\":5432:5461  addressToDomains[domainOwner] */\n      0x00\n        /* \"contracts/ENS4.sol\":5449:5460  domainOwner */\n      dup4\n        /* \"contracts/ENS4.sol\":5432:5461  addressToDomains[domainOwner] */\n      0xffffffffffffffffffffffffffffffffffffffff\n      and\n      0xffffffffffffffffffffffffffffffffffffffff\n      and\n      dup2\n      mstore\n      0x20\n      add\n      swap1\n      dup2\n      mstore\n      0x20\n      add\n      0x00\n      keccak256\n        /* \"contracts/ENS4.sol\":5425:5461  return addressToDomains[domainOwner] */\n      dup1\n      sload\n      dup1\n      0x20\n      mul\n      0x20\n      add\n      mload(0x40)\n      swap1\n      dup2\n      add\n      0x40\n      mstore\n      dup1\n      swap3\n      swap2\n      swap1\n      dup2\n      dup2\n      mstore\n      0x20\n      add\n      0x00\n      swap1\n    tag_156:\n      dup3\n      dup3\n      lt\n      iszero\n      tag_157\n      jumpi\n      dup4\n      dup3\n      swap1\n      0x00\n      mstore\n      keccak256(0x00, 0x20)\n      add\n      dup1\n      sload\n      tag_159\n      swap1\n      tag_160\n      jump\t// in\n    tag_159:\n      dup1\n      0x1f\n      add\n      0x20\n      dup1\n      swap2\n      div\n      mul\n      0x20\n      add\n      mload(0x40)\n      swap1\n      dup2\n      add\n      0x40\n      mstore\n      dup1\n      swap3\n      swap2\n      swap1\n      dup2\n      dup2\n      mstore\n      0x20\n      add\n      dup3\n      dup1\n      sload\n      tag_161\n      swap1\n      tag_160\n      jump\t// in\n    tag_161:\n      dup1\n      iszero\n      tag_162\n      jumpi\n      dup1\n      0x1f\n      lt\n      tag_163\n      jumpi\n      0x0100\n      dup1\n      dup4\n      sload\n      div\n      mul\n      dup4\n      mstore\n      swap2\n      0x20\n      add\n      swap2\n      jump(tag_162)\n    tag_163:\n      dup3\n      add\n      swap2\n      swap1\n      0x00\n      mstore\n      keccak256(0x00, 0x20)\n      swap1\n    tag_164:\n      dup2\n      sload\n      dup2\n      mstore\n      swap1\n      0x01\n      add\n      swap1\n      0x20\n      add\n      dup1\n      dup4\n      gt\n      tag_164\n      jumpi\n      dup3\n      swap1\n      sub\n      0x1f\n      and\n      dup3\n      add\n      swap2\n    tag_162:\n      pop\n      pop\n      pop\n      pop\n      pop\n      dup2\n      mstore\n      0x20\n      add\n      swap1\n      0x01\n      add\n      swap1\n      jump(tag_156)\n    tag_157:\n      pop\n      pop\n      pop\n      pop\n      swap1\n      pop\n        /* \"contracts/ENS4.sol\":5327:5468  function getDomainsByOwner(address domainOwner) external view returns (string[] memory) {... */\n      swap2\n      swap1\n      pop\n      jump\t// out\n        /* \"contracts/ENS4.sol\":195:224  string public suffix = \".edx\" */\n    tag_69:\n      0x00\n      dup1\n      sload\n      tag_165\n      swap1\n      tag_160\n      jump\t// in\n    tag_165:\n      dup1\n      0x1f\n      add\n      0x20\n      dup1\n      swap2\n      div\n      mul\n      0x20\n      add\n      mload(0x40)\n      swap1\n      dup2\n      add\n      0x40\n      mstore\n      dup1\n      swap3\n      swap2\n      swap1\n      dup2\n      dup2\n      mstore\n      0x20\n      add\n      dup3\n      dup1\n      sload\n      tag_166\n      swap1\n      tag_160\n      jump\t// in\n    tag_166:\n      dup1\n      iszero\n      tag_167\n      jumpi\n      dup1\n      0x1f\n      lt\n      tag_168\n      jumpi\n      0x0100\n      dup1\n      dup4\n      sload\n      div\n      mul\n      dup4\n      mstore\n      swap2\n      0x20\n      add\n      swap2\n      jump(tag_167)\n    tag_168:\n      dup3\n      add\n      swap2\n      swap1\n      0x00\n      mstore\n      keccak256(0x00, 0x20)\n      swap1\n    tag_169:\n      dup2\n      sload\n      dup2\n      mstore\n      swap1\n      0x01\n      add\n      swap1\n      0x20\n      add\n      dup1\n      dup4\n      gt\n      tag_169\n      jumpi\n      dup3\n      swap1\n      sub\n      0x1f\n      and\n      dup3\n      add\n      swap2\n    tag_167:\n      pop\n      pop\n      pop\n      pop\n      pop\n      dup2\n      jump\t// out\n        /* \"contracts/ENS4.sol\":2034:3178  function registerDomain(string calldata name, address initialResolver, uint256 registrationYears) external payable {... */\n    tag_75:\n        /* \"contracts/ENS4.sol\":2159:2182  string memory lowerName */\n      0x00\n        /* \"contracts/ENS4.sol\":2185:2202  toLowerCase(name) */\n      tag_171\n        /* \"contracts/ENS4.sol\":2197:2201  name */\n      dup6\n      dup6\n        /* \"contracts/ENS4.sol\":2185:2202  toLowerCase(name) */\n      dup1\n      dup1\n      0x1f\n      add\n      0x20\n      dup1\n      swap2\n      div\n      mul\n      0x20\n      add\n      mload(0x40)\n      swap1\n      dup2\n      add\n      0x40\n      mstore\n      dup1\n      swap4\n      swap3\n      swap2\n      swap1\n      dup2\n      dup2\n      mstore\n      0x20\n      add\n      dup4\n      dup4\n      dup1\n      dup3\n      dup5\n      calldatacopy\n      0x00\n      dup2\n      dup5\n      add\n      mstore\n      not(0x1f)\n      0x1f\n      dup3\n      add\n      and\n      swap1\n      pop\n      dup1\n      dup4\n      add\n      swap3\n      pop\n      pop\n      pop\n      pop\n      pop\n      pop\n      pop\n        /* \"contracts/ENS4.sol\":2185:2196  toLowerCase */\n      tag_86\n        /* \"contracts/ENS4.sol\":2185:2202  toLowerCase(name) */\n      jump\t// in\n    tag_171:\n        /* \"contracts/ENS4.sol\":2159:2202  string memory lowerName = toLowerCase(name) */\n      swap1\n      pop\n        /* \"contracts/ENS4.sol\":2246:2247  0 */\n      0x00\n        /* \"contracts/ENS4.sol\":2226:2235  lowerName */\n      dup2\n        /* \"contracts/ENS4.sol\":2220:2243  bytes(lowerName).length */\n      mload\n        /* \"contracts/ENS4.sol\":2220:2247  bytes(lowerName).length > 0 */\n      gt\n        /* \"contracts/ENS4.sol\":2220:2280  bytes(lowerName).length > 0 && bytes(lowerName).length <= 15 */\n      dup1\n      iszero\n      tag_172\n      jumpi\n      pop\n        /* \"contracts/ENS4.sol\":2278:2280  15 */\n      0x0f\n        /* \"contracts/ENS4.sol\":2257:2266  lowerName */\n      dup2\n        /* \"contracts/ENS4.sol\":2251:2274  bytes(lowerName).length */\n      mload\n        /* \"contracts/ENS4.sol\":2251:2280  bytes(lowerName).length <= 15 */\n      gt\n      iszero\n        /* \"contracts/ENS4.sol\":2220:2280  bytes(lowerName).length > 0 && bytes(lowerName).length <= 15 */\n    tag_172:\n        /* \"contracts/ENS4.sol\":2212:2328  require(bytes(lowerName).length > 0 && bytes(lowerName).length <= 15, \"Name should be between 1 and 15 characters.\") */\n      tag_173\n      jumpi\n      mload(0x40)\n      0x08c379a000000000000000000000000000000000000000000000000000000000\n      dup2\n      mstore\n      0x04\n      add\n      tag_174\n      swap1\n      tag_175\n      jump\t// in\n    tag_174:\n      mload(0x40)\n      dup1\n      swap2\n      sub\n      swap1\n      revert\n    tag_173:\n        /* \"contracts/ENS4.sol\":2382:2383  0 */\n      0x00\n        /* \"contracts/ENS4.sol\":2346:2384  domains[lowerName].owner == address(0) */\n      0xffffffffffffffffffffffffffffffffffffffff\n      and\n        /* \"contracts/ENS4.sol\":2346:2353  domains */\n      0x03\n        /* \"contracts/ENS4.sol\":2354:2363  lowerName */\n      dup3\n        /* \"contracts/ENS4.sol\":2346:2364  domains[lowerName] */\n      mload(0x40)\n      tag_176\n      swap2\n      swap1\n      tag_80\n      jump\t// in\n    tag_176:\n      swap1\n      dup2\n      mstore\n      0x20\n      add\n      mload(0x40)\n      dup1\n      swap2\n      sub\n      swap1\n      keccak256\n        /* \"contracts/ENS4.sol\":2346:2370  domains[lowerName].owner */\n      0x00\n      add\n      0x00\n      swap1\n      sload\n      swap1\n      0x0100\n      exp\n      swap1\n      div\n      0xffffffffffffffffffffffffffffffffffffffff\n      and\n        /* \"contracts/ENS4.sol\":2346:2384  domains[lowerName].owner == address(0) */\n      0xffffffffffffffffffffffffffffffffffffffff\n      and\n      eq\n        /* \"contracts/ENS4.sol\":2338:2412  require(domains[lowerName].owner == address(0), \"Domain is already owned\") */\n      tag_177\n      jumpi\n      mload(0x40)\n      0x08c379a000000000000000000000000000000000000000000000000000000000\n      dup2\n      mstore\n      0x04\n      add\n      tag_178\n      swap1\n      tag_179\n      jump\t// in\n    tag_178:\n      mload(0x40)\n      dup1\n      swap2\n      sub\n      swap1\n      revert\n    tag_177:\n        /* \"contracts/ENS4.sol\":2431:2451  hasSuffix(lowerName) */\n      tag_180\n        /* \"contracts/ENS4.sol\":2441:2450  lowerName */\n      dup2\n        /* \"contracts/ENS4.sol\":2431:2440  hasSuffix */\n      tag_181\n        /* \"contracts/ENS4.sol\":2431:2451  hasSuffix(lowerName) */\n      jump\t// in\n    tag_180:\n        /* \"contracts/ENS4.sol\":2430:2451  !hasSuffix(lowerName) */\n      iszero\n        /* \"contracts/ENS4.sol\":2422:2497  require(!hasSuffix(lowerName), \"Domain name should not include the suffix\") */\n      tag_182\n      jumpi\n      mload(0x40)\n      0x08c379a000000000000000000000000000000000000000000000000000000000\n      dup2\n      mstore\n      0x04\n      add\n      tag_183\n      swap1\n      tag_184\n      jump\t// in\n    tag_183:\n      mload(0x40)\n      dup1\n      swap2\n      sub\n      swap1\n      revert\n    tag_182:\n        /* \"contracts/ENS4.sol\":2507:2524  uint256 totalCost */\n      0x00\n        /* \"contracts/ENS4.sol\":2546:2563  registrationYears */\n      dup3\n        /* \"contracts/ENS4.sol\":2527:2543  registrationCost */\n      sload(0x01)\n        /* \"contracts/ENS4.sol\":2527:2563  registrationCost * registrationYears */\n      tag_185\n      swap2\n      swap1\n      tag_89\n      jump\t// in\n    tag_185:\n        /* \"contracts/ENS4.sol\":2507:2563  uint256 totalCost = registrationCost * registrationYears */\n      swap1\n      pop\n        /* \"contracts/ENS4.sol\":2594:2603  totalCost */\n      dup1\n        /* \"contracts/ENS4.sol\":2581:2590  msg.value */\n      callvalue\n        /* \"contracts/ENS4.sol\":2581:2603  msg.value >= totalCost */\n      lt\n      iszero\n        /* \"contracts/ENS4.sol\":2573:2673  require(msg.value >= totalCost, \"Insufficient funds to register the domain for the specified years\") */\n      tag_186\n      jumpi\n      mload(0x40)\n      0x08c379a000000000000000000000000000000000000000000000000000000000\n      dup2\n      mstore\n      0x04\n      add\n      tag_187\n      swap1\n      tag_188\n      jump\t// in\n    tag_187:\n      mload(0x40)\n      dup1\n      swap2\n      sub\n      swap1\n      revert\n    tag_186:\n        /* \"contracts/ENS4.sol\":2684:2708  string memory domainName */\n      0x00\n        /* \"contracts/ENS4.sol\":2735:2744  lowerName */\n      dup3\n        /* \"contracts/ENS4.sol\":2746:2752  suffix */\n      0x00\n        /* \"contracts/ENS4.sol\":2718:2753  abi.encodePacked(lowerName, suffix) */\n      add(0x20, mload(0x40))\n      tag_189\n      swap3\n      swap2\n      swap1\n      tag_78\n      jump\t// in\n    tag_189:\n      mload(0x40)\n      0x20\n      dup2\n      dup4\n      sub\n      sub\n      dup2\n      mstore\n      swap1\n      0x40\n      mstore\n        /* \"contracts/ENS4.sol\":2684:2754  string memory domainName = string(abi.encodePacked(lowerName, suffix)) */\n      swap1\n      pop\n        /* \"contracts/ENS4.sol\":2764:2782  uint256 expiration */\n      0x00\n        /* \"contracts/ENS4.sol\":2823:2831  365 days */\n      0x01e13380\n        /* \"contracts/ENS4.sol\":2803:2820  registrationYears */\n      dup6\n        /* \"contracts/ENS4.sol\":2803:2831  registrationYears * 365 days */\n      tag_190\n      swap2\n      swap1\n      tag_89\n      jump\t// in\n    tag_190:\n        /* \"contracts/ENS4.sol\":2785:2800  block.timestamp */\n      timestamp\n        /* \"contracts/ENS4.sol\":2785:2831  block.timestamp + registrationYears * 365 days */\n      tag_191\n      swap2\n      swap1\n      tag_96\n      jump\t// in\n    tag_191:\n        /* \"contracts/ENS4.sol\":2764:2831  uint256 expiration = block.timestamp + registrationYears * 365 days */\n      swap1\n      pop\n        /* \"contracts/ENS4.sol\":2863:2910  Domain(msg.sender, initialResolver, expiration) */\n      mload(0x40)\n      dup1\n      0x60\n      add\n      0x40\n      mstore\n      dup1\n        /* \"contracts/ENS4.sol\":2870:2880  msg.sender */\n      caller\n        /* \"contracts/ENS4.sol\":2863:2910  Domain(msg.sender, initialResolver, expiration) */\n      0xffffffffffffffffffffffffffffffffffffffff\n      and\n      dup2\n      mstore\n      0x20\n      add\n        /* \"contracts/ENS4.sol\":2882:2897  initialResolver */\n      dup8\n        /* \"contracts/ENS4.sol\":2863:2910  Domain(msg.sender, initialResolver, expiration) */\n      0xffffffffffffffffffffffffffffffffffffffff\n      and\n      dup2\n      mstore\n      0x20\n      add\n        /* \"contracts/ENS4.sol\":2899:2909  expiration */\n      dup3\n        /* \"contracts/ENS4.sol\":2863:2910  Domain(msg.sender, initialResolver, expiration) */\n      dup2\n      mstore\n      pop\n        /* \"contracts/ENS4.sol\":2841:2848  domains */\n      0x03\n        /* \"contracts/ENS4.sol\":2849:2859  domainName */\n      dup4\n        /* \"contracts/ENS4.sol\":2841:2860  domains[domainName] */\n      mload(0x40)\n      tag_192\n      swap2\n      swap1\n      tag_80\n      jump\t// in\n    tag_192:\n      swap1\n      dup2\n      mstore\n      0x20\n      add\n      mload(0x40)\n      dup1\n      swap2\n      sub\n      swap1\n      keccak256\n        /* \"contracts/ENS4.sol\":2841:2910  domains[domainName] = Domain(msg.sender, initialResolver, expiration) */\n      0x00\n      dup3\n      add\n      mload\n      dup2\n      0x00\n      add\n      exp(0x0100, 0x00)\n      dup2\n      sload\n      dup2\n      0xffffffffffffffffffffffffffffffffffffffff\n      mul\n      not\n      and\n      swap1\n      dup4\n      0xffffffffffffffffffffffffffffffffffffffff\n      and\n      mul\n      or\n      swap1\n      sstore\n      pop\n      0x20\n      dup3\n      add\n      mload\n      dup2\n      0x01\n      add\n      exp(0x0100, 0x00)\n      dup2\n      sload\n      dup2\n      0xffffffffffffffffffffffffffffffffffffffff\n      mul\n      not\n      and\n      swap1\n      dup4\n      0xffffffffffffffffffffffffffffffffffffffff\n      and\n      mul\n      or\n      swap1\n      sstore\n      pop\n      0x40\n      dup3\n      add\n      mload\n      dup2\n      0x02\n      add\n      sstore\n      swap1\n      pop\n      pop\n        /* \"contracts/ENS4.sol\":2920:2936  addressToDomains */\n      0x04\n        /* \"contracts/ENS4.sol\":2920:2948  addressToDomains[msg.sender] */\n      0x00\n        /* \"contracts/ENS4.sol\":2937:2947  msg.sender */\n      caller\n        /* \"contracts/ENS4.sol\":2920:2948  addressToDomains[msg.sender] */\n      0xffffffffffffffffffffffffffffffffffffffff\n      and\n      0xffffffffffffffffffffffffffffffffffffffff\n      and\n      dup2\n      mstore\n      0x20\n      add\n      swap1\n      dup2\n      mstore\n      0x20\n      add\n      0x00\n      keccak256\n        /* \"contracts/ENS4.sol\":2954:2964  domainName */\n      dup3\n        /* \"contracts/ENS4.sol\":2920:2965  addressToDomains[msg.sender].push(domainName) */\n      swap1\n      dup1\n      0x01\n      dup2\n      sload\n      add\n      dup1\n      dup3\n      sstore\n      dup1\n      swap2\n      pop\n      pop\n      0x01\n      swap1\n      sub\n      swap1\n      0x00\n      mstore\n      keccak256(0x00, 0x20)\n      add\n      0x00\n      swap1\n      swap2\n      swap1\n      swap2\n      swap1\n      swap2\n      pop\n      swap1\n      dup2\n      tag_194\n      swap2\n      swap1\n      tag_153\n      jump\t// in\n    tag_194:\n      pop\n        /* \"contracts/ENS4.sol\":3018:3028  msg.sender */\n      caller\n        /* \"contracts/ENS4.sol\":2989:3058  DomainRegistered(domainName, msg.sender, initialResolver, expiration) */\n      0xffffffffffffffffffffffffffffffffffffffff\n      and\n      0xa5f4533ec077c1b1e4fa879988258637a45b7a6e6663bf8589e0d3dde3855017\n        /* \"contracts/ENS4.sol\":3006:3016  domainName */\n      dup4\n        /* \"contracts/ENS4.sol\":3030:3045  initialResolver */\n      dup9\n        /* \"contracts/ENS4.sol\":3047:3057  expiration */\n      dup5\n        /* \"contracts/ENS4.sol\":2989:3058  DomainRegistered(domainName, msg.sender, initialResolver, expiration) */\n      mload(0x40)\n      tag_195\n      swap4\n      swap3\n      swap2\n      swap1\n      tag_196\n      jump\t// in\n    tag_195:\n      mload(0x40)\n      dup1\n      swap2\n      sub\n      swap1\n      log2\n        /* \"contracts/ENS4.sol\":3085:3094  totalCost */\n      dup3\n        /* \"contracts/ENS4.sol\":3073:3082  msg.value */\n      callvalue\n        /* \"contracts/ENS4.sol\":3073:3094  msg.value > totalCost */\n      gt\n        /* \"contracts/ENS4.sol\":3069:3172  if (msg.value > totalCost) {... */\n      iszero\n      tag_197\n      jumpi\n        /* \"contracts/ENS4.sol\":3118:3128  msg.sender */\n      caller\n        /* \"contracts/ENS4.sol\":3110:3138  payable(msg.sender).transfer */\n      0xffffffffffffffffffffffffffffffffffffffff\n      and\n        /* \"contracts/ENS4.sol\":3110:3161  payable(msg.sender).transfer(msg.value - totalCost) */\n      0x08fc\n        /* \"contracts/ENS4.sol\":3151:3160  totalCost */\n      dup5\n        /* \"contracts/ENS4.sol\":3139:3148  msg.value */\n      callvalue\n        /* \"contracts/ENS4.sol\":3139:3160  msg.value - totalCost */\n      tag_198\n      swap2\n      swap1\n      tag_102\n      jump\t// in\n    tag_198:\n        /* \"contracts/ENS4.sol\":3110:3161  payable(msg.sender).transfer(msg.value - totalCost) */\n      swap1\n      dup2\n      iszero\n      mul\n      swap1\n      mload(0x40)\n      0x00\n      mload(0x40)\n      dup1\n      dup4\n      sub\n      dup2\n      dup6\n      dup9\n      dup9\n      call\n      swap4\n      pop\n      pop\n      pop\n      pop\n      iszero\n      dup1\n      iszero\n      tag_200\n      jumpi\n      returndatasize\n      0x00\n      dup1\n      returndatacopy\n      revert(0x00, returndatasize)\n    tag_200:\n      pop\n        /* \"contracts/ENS4.sol\":3069:3172  if (msg.value > totalCost) {... */\n    tag_197:\n        /* \"contracts/ENS4.sol\":2149:3178  {... */\n      pop\n      pop\n      pop\n      pop\n        /* \"contracts/ENS4.sol\":2034:3178  function registerDomain(string calldata name, address initialResolver, uint256 registrationYears) external payable {... */\n      pop\n      pop\n      pop\n      pop\n      jump\t// out\n        /* \"contracts/ENS4.sol\":1565:2028  function toLowerCase(string memory str) internal pure returns (string memory) {... */\n    tag_86:\n        /* \"contracts/ENS4.sol\":1628:1641  string memory */\n      0x60\n        /* \"contracts/ENS4.sol\":1653:1670  bytes memory bStr */\n      0x00\n        /* \"contracts/ENS4.sol\":1679:1682  str */\n      dup3\n        /* \"contracts/ENS4.sol\":1653:1683  bytes memory bStr = bytes(str) */\n      swap1\n      pop\n        /* \"contracts/ENS4.sol\":1693:1712  bytes memory bLower */\n      0x00\n        /* \"contracts/ENS4.sol\":1725:1729  bStr */\n      dup2\n        /* \"contracts/ENS4.sol\":1725:1736  bStr.length */\n      mload\n        /* \"contracts/ENS4.sol\":1715:1737  new bytes(bStr.length) */\n      0xffffffffffffffff\n      dup2\n      gt\n      iszero\n      tag_202\n      jumpi\n      tag_203\n      tag_204\n      jump\t// in\n    tag_203:\n    tag_202:\n      mload(0x40)\n      swap1\n      dup1\n      dup3\n      mstore\n      dup1\n      0x1f\n      add\n      not(0x1f)\n      and\n      0x20\n      add\n      dup3\n      add\n      0x40\n      mstore\n      dup1\n      iszero\n      tag_205\n      jumpi\n      dup2\n      0x20\n      add\n      0x01\n      dup3\n      mul\n      dup1\n      calldatasize\n      dup4\n      calldatacopy\n      dup1\n      dup3\n      add\n      swap2\n      pop\n      pop\n      swap1\n      pop\n    tag_205:\n      pop\n        /* \"contracts/ENS4.sol\":1693:1737  bytes memory bLower = new bytes(bStr.length) */\n      swap1\n      pop\n        /* \"contracts/ENS4.sol\":1753:1759  uint i */\n      0x00\n        /* \"contracts/ENS4.sol\":1748:1991  for (uint i = 0; i < bStr.length; i++) {... */\n    tag_206:\n        /* \"contracts/ENS4.sol\":1769:1773  bStr */\n      dup3\n        /* \"contracts/ENS4.sol\":1769:1780  bStr.length */\n      mload\n        /* \"contracts/ENS4.sol\":1765:1766  i */\n      dup2\n        /* \"contracts/ENS4.sol\":1765:1780  i < bStr.length */\n      lt\n        /* \"contracts/ENS4.sol\":1748:1991  for (uint i = 0; i < bStr.length; i++) {... */\n      iszero\n      tag_207\n      jumpi\n        /* \"contracts/ENS4.sol\":1823:1825  65 */\n      0x41\n        /* \"contracts/ENS4.sol\":1811:1815  bStr */\n      dup4\n        /* \"contracts/ENS4.sol\":1816:1817  i */\n      dup3\n        /* \"contracts/ENS4.sol\":1811:1818  bStr[i] */\n      dup2\n      mload\n      dup2\n      lt\n      tag_209\n      jumpi\n      tag_210\n      tag_211\n      jump\t// in\n    tag_210:\n    tag_209:\n      0x20\n      add\n      add\n      mload\n      0xf8\n      shr\n      0xf8\n      shl\n        /* \"contracts/ENS4.sol\":1805:1819  uint8(bStr[i]) */\n      0xf8\n      shr\n        /* \"contracts/ENS4.sol\":1805:1825  uint8(bStr[i]) >= 65 */\n      0xff\n      and\n      lt\n      iszero\n        /* \"contracts/ENS4.sol\":1805:1849  uint8(bStr[i]) >= 65 && uint8(bStr[i]) <= 90 */\n      dup1\n      iszero\n      tag_212\n      jumpi\n      pop\n        /* \"contracts/ENS4.sol\":1847:1849  90 */\n      0x5a\n        /* \"contracts/ENS4.sol\":1835:1839  bStr */\n      dup4\n        /* \"contracts/ENS4.sol\":1840:1841  i */\n      dup3\n        /* \"contracts/ENS4.sol\":1835:1842  bStr[i] */\n      dup2\n      mload\n      dup2\n      lt\n      tag_213\n      jumpi\n      tag_214\n      tag_211\n      jump\t// in\n    tag_214:\n    tag_213:\n      0x20\n      add\n      add\n      mload\n      0xf8\n      shr\n      0xf8\n      shl\n        /* \"contracts/ENS4.sol\":1829:1843  uint8(bStr[i]) */\n      0xf8\n      shr\n        /* \"contracts/ENS4.sol\":1829:1849  uint8(bStr[i]) <= 90 */\n      0xff\n      and\n      gt\n      iszero\n        /* \"contracts/ENS4.sol\":1805:1849  uint8(bStr[i]) >= 65 && uint8(bStr[i]) <= 90 */\n    tag_212:\n        /* \"contracts/ENS4.sol\":1801:1981  if (uint8(bStr[i]) >= 65 && uint8(bStr[i]) <= 90) {... */\n      iszero\n      tag_215\n      jumpi\n        /* \"contracts/ENS4.sol\":1905:1907  32 */\n      0x20\n        /* \"contracts/ENS4.sol\":1894:1898  bStr */\n      dup4\n        /* \"contracts/ENS4.sol\":1899:1900  i */\n      dup3\n        /* \"contracts/ENS4.sol\":1894:1901  bStr[i] */\n      dup2\n      mload\n      dup2\n      lt\n      tag_216\n      jumpi\n      tag_217\n      tag_211\n      jump\t// in\n    tag_217:\n    tag_216:\n      0x20\n      add\n      add\n      mload\n      0xf8\n      shr\n      0xf8\n      shl\n        /* \"contracts/ENS4.sol\":1888:1902  uint8(bStr[i]) */\n      0xf8\n      shr\n        /* \"contracts/ENS4.sol\":1888:1907  uint8(bStr[i]) + 32 */\n      tag_218\n      swap2\n      swap1\n      tag_219\n      jump\t// in\n    tag_218:\n        /* \"contracts/ENS4.sol\":1881:1908  bytes1(uint8(bStr[i]) + 32) */\n      0xf8\n      shl\n        /* \"contracts/ENS4.sol\":1869:1875  bLower */\n      dup3\n        /* \"contracts/ENS4.sol\":1876:1877  i */\n      dup3\n        /* \"contracts/ENS4.sol\":1869:1878  bLower[i] */\n      dup2\n      mload\n      dup2\n      lt\n      tag_220\n      jumpi\n      tag_221\n      tag_211\n      jump\t// in\n    tag_221:\n    tag_220:\n      0x20\n      add\n      add\n        /* \"contracts/ENS4.sol\":1869:1908  bLower[i] = bytes1(uint8(bStr[i]) + 32) */\n      swap1\n      not(0xffffffffffffffffffffffffffffffffffffffffffffffffffffffffffffff)\n      and\n      swap1\n      dup2\n      0x00\n      byte\n      swap1\n      mstore8\n      pop\n        /* \"contracts/ENS4.sol\":1801:1981  if (uint8(bStr[i]) >= 65 && uint8(bStr[i]) <= 90) {... */\n      jump(tag_222)\n    tag_215:\n        /* \"contracts/ENS4.sol\":1959:1963  bStr */\n      dup3\n        /* \"contracts/ENS4.sol\":1964:1965  i */\n      dup2\n        /* \"contracts/ENS4.sol\":1959:1966  bStr[i] */\n      dup2\n      mload\n      dup2\n      lt\n      tag_223\n      jumpi\n      tag_224\n      tag_211\n      jump\t// in\n    tag_224:\n    tag_223:\n      0x20\n      add\n      add\n      mload\n      0xf8\n      shr\n      0xf8\n      shl\n        /* \"contracts/ENS4.sol\":1947:1953  bLower */\n      dup3\n        /* \"contracts/ENS4.sol\":1954:1955  i */\n      dup3\n        /* \"contracts/ENS4.sol\":1947:1956  bLower[i] */\n      dup2\n      mload\n      dup2\n      lt\n      tag_225\n      jumpi\n      tag_226\n      tag_211\n      jump\t// in\n    tag_226:\n    tag_225:\n      0x20\n      add\n      add\n        /* \"contracts/ENS4.sol\":1947:1966  bLower[i] = bStr[i] */\n      swap1\n      not(0xffffffffffffffffffffffffffffffffffffffffffffffffffffffffffffff)\n      and\n      swap1\n      dup2\n      0x00\n      byte\n      swap1\n      mstore8\n      pop\n        /* \"contracts/ENS4.sol\":1801:1981  if (uint8(bStr[i]) >= 65 && uint8(bStr[i]) <= 90) {... */\n    tag_222:\n        /* \"contracts/ENS4.sol\":1782:1785  i++ */\n      dup1\n      dup1\n      tag_227\n      swap1\n      tag_228\n      jump\t// in\n    tag_227:\n      swap2\n      pop\n      pop\n        /* \"contracts/ENS4.sol\":1748:1991  for (uint i = 0; i < bStr.length; i++) {... */\n      jump(tag_206)\n    tag_207:\n      pop\n        /* \"contracts/ENS4.sol\":2014:2020  bLower */\n      dup1\n        /* \"contracts/ENS4.sol\":2000:2021  return string(bLower) */\n      swap3\n      pop\n      pop\n      pop\n        /* \"contracts/ENS4.sol\":1565:2028  function toLowerCase(string memory str) internal pure returns (string memory) {... */\n      swap2\n      swap1\n      pop\n      jump\t// out\n        /* \"contracts/ENS4.sol\":6279:6961  function _removeDomainFromOwner(address domainOwner, string memory domainName) internal {... */\n    tag_150:\n        /* \"contracts/ENS4.sol\":6377:6406  string[] storage ownerDomains */\n      0x00\n        /* \"contracts/ENS4.sol\":6409:6425  addressToDomains */\n      0x04\n        /* \"contracts/ENS4.sol\":6409:6438  addressToDomains[domainOwner] */\n      0x00\n        /* \"contracts/ENS4.sol\":6426:6437  domainOwner */\n      dup5\n        /* \"contracts/ENS4.sol\":6409:6438  addressToDomains[domainOwner] */\n      0xffffffffffffffffffffffffffffffffffffffff\n      and\n      0xffffffffffffffffffffffffffffffffffffffff\n      and\n      dup2\n      mstore\n      0x20\n      add\n      swap1\n      dup2\n      mstore\n      0x20\n      add\n      0x00\n      keccak256\n        /* \"contracts/ENS4.sol\":6377:6438  string[] storage ownerDomains = addressToDomains[domainOwner] */\n      swap1\n      pop\n        /* \"contracts/ENS4.sol\":6448:6481  string memory lowercaseDomainName */\n      0x00\n        /* \"contracts/ENS4.sol\":6484:6507  toLowerCase(domainName) */\n      tag_230\n        /* \"contracts/ENS4.sol\":6496:6506  domainName */\n      dup4\n        /* \"contracts/ENS4.sol\":6484:6495  toLowerCase */\n      tag_86\n        /* \"contracts/ENS4.sol\":6484:6507  toLowerCase(domainName) */\n      jump\t// in\n    tag_230:\n        /* \"contracts/ENS4.sol\":6448:6507  string memory lowercaseDomainName = toLowerCase(domainName) */\n      swap1\n      pop\n        /* \"contracts/ENS4.sol\":6517:6546  string memory lowerDomainName */\n      0x00\n        /* \"contracts/ENS4.sol\":6573:6592  lowercaseDomainName */\n      dup2\n        /* \"contracts/ENS4.sol\":6594:6600  suffix */\n      0x00\n        /* \"contracts/ENS4.sol\":6556:6601  abi.encodePacked(lowercaseDomainName, suffix) */\n      add(0x20, mload(0x40))\n      tag_231\n      swap3\n      swap2\n      swap1\n      tag_78\n      jump\t// in\n    tag_231:\n      mload(0x40)\n      0x20\n      dup2\n      dup4\n      sub\n      sub\n      dup2\n      mstore\n      swap1\n      0x40\n      mstore\n        /* \"contracts/ENS4.sol\":6517:6602  string memory lowerDomainName = string(abi.encodePacked(lowercaseDomainName, suffix)) */\n      swap1\n      pop\n        /* \"contracts/ENS4.sol\":6641:6650  uint256 i */\n      0x00\n        /* \"contracts/ENS4.sol\":6636:6955  for (uint256 i = 0; i < ownerDomains.length; i++) {... */\n    tag_232:\n        /* \"contracts/ENS4.sol\":6660:6672  ownerDomains */\n      dup4\n        /* \"contracts/ENS4.sol\":6660:6679  ownerDomains.length */\n      dup1\n      sload\n      swap1\n      pop\n        /* \"contracts/ENS4.sol\":6656:6657  i */\n      dup2\n        /* \"contracts/ENS4.sol\":6656:6679  i < ownerDomains.length */\n      lt\n        /* \"contracts/ENS4.sol\":6636:6955  for (uint256 i = 0; i < ownerDomains.length; i++) {... */\n      iszero\n      tag_233\n      jumpi\n        /* \"contracts/ENS4.sol\":6779:6794  lowerDomainName */\n      dup2\n        /* \"contracts/ENS4.sol\":6762:6795  abi.encodePacked(lowerDomainName) */\n      add(0x20, mload(0x40))\n      tag_235\n      swap2\n      swap1\n      tag_80\n      jump\t// in\n    tag_235:\n      mload(0x40)\n      0x20\n      dup2\n      dup4\n      sub\n      sub\n      dup2\n      mstore\n      swap1\n      0x40\n      mstore\n        /* \"contracts/ENS4.sol\":6752:6796  keccak256(abi.encodePacked(lowerDomainName)) */\n      dup1\n      mload\n      swap1\n      0x20\n      add\n      keccak256\n        /* \"contracts/ENS4.sol\":6731:6743  ownerDomains */\n      dup5\n        /* \"contracts/ENS4.sol\":6744:6745  i */\n      dup3\n        /* \"contracts/ENS4.sol\":6731:6746  ownerDomains[i] */\n      dup2\n      sload\n      dup2\n      lt\n      tag_236\n      jumpi\n      tag_237\n      tag_211\n      jump\t// in\n    tag_237:\n    tag_236:\n      swap1\n      0x00\n      mstore\n      keccak256(0x00, 0x20)\n      add\n        /* \"contracts/ENS4.sol\":6714:6747  abi.encodePacked(ownerDomains[i]) */\n      add(0x20, mload(0x40))\n      tag_239\n      swap2\n      swap1\n      tag_240\n      jump\t// in\n    tag_239:\n      mload(0x40)\n      0x20\n      dup2\n      dup4\n      sub\n      sub\n      dup2\n      mstore\n      swap1\n      0x40\n      mstore\n        /* \"contracts/ENS4.sol\":6704:6748  keccak256(abi.encodePacked(ownerDomains[i])) */\n      dup1\n      mload\n      swap1\n      0x20\n      add\n      keccak256\n        /* \"contracts/ENS4.sol\":6704:6796  keccak256(abi.encodePacked(ownerDomains[i])) == keccak256(abi.encodePacked(lowerDomainName)) */\n      sub\n        /* \"contracts/ENS4.sol\":6700:6945  if (keccak256(abi.encodePacked(ownerDomains[i])) == keccak256(abi.encodePacked(lowerDomainName))) {... */\n      tag_241\n      jumpi\n        /* \"contracts/ENS4.sol\":6834:6846  ownerDomains */\n      dup4\n        /* \"contracts/ENS4.sol\":6869:6870  1 */\n      0x01\n        /* \"contracts/ENS4.sol\":6847:6859  ownerDomains */\n      dup6\n        /* \"contracts/ENS4.sol\":6847:6866  ownerDomains.length */\n      dup1\n      sload\n      swap1\n      pop\n        /* \"contracts/ENS4.sol\":6847:6870  ownerDomains.length - 1 */\n      tag_242\n      swap2\n      swap1\n      tag_102\n      jump\t// in\n    tag_242:\n        /* \"contracts/ENS4.sol\":6834:6871  ownerDomains[ownerDomains.length - 1] */\n      dup2\n      sload\n      dup2\n      lt\n      tag_243\n      jumpi\n      tag_244\n      tag_211\n      jump\t// in\n    tag_244:\n    tag_243:\n      swap1\n      0x00\n      mstore\n      keccak256(0x00, 0x20)\n      add\n        /* \"contracts/ENS4.sol\":6816:6828  ownerDomains */\n      dup5\n        /* \"contracts/ENS4.sol\":6829:6830  i */\n      dup3\n        /* \"contracts/ENS4.sol\":6816:6831  ownerDomains[i] */\n      dup2\n      sload\n      dup2\n      lt\n      tag_246\n      jumpi\n      tag_247\n      tag_211\n      jump\t// in\n    tag_247:\n    tag_246:\n      swap1\n      0x00\n      mstore\n      keccak256(0x00, 0x20)\n      add\n        /* \"contracts/ENS4.sol\":6816:6871  ownerDomains[i] = ownerDomains[ownerDomains.length - 1] */\n      swap1\n      dup2\n      tag_249\n      swap2\n      swap1\n      tag_250\n      jump\t// in\n    tag_249:\n      pop\n        /* \"contracts/ENS4.sol\":6889:6901  ownerDomains */\n      dup4\n        /* \"contracts/ENS4.sol\":6889:6907  ownerDomains.pop() */\n      dup1\n      sload\n      dup1\n      tag_251\n      jumpi\n      tag_252\n      tag_253\n      jump\t// in\n    tag_252:\n    tag_251:\n      0x01\n      swap1\n      sub\n      dup2\n      dup2\n      swap1\n      0x00\n      mstore\n      keccak256(0x00, 0x20)\n      add\n      0x00\n      tag_255\n      swap2\n      swap1\n      tag_256\n      jump\t// in\n    tag_255:\n      swap1\n      sstore\n        /* \"contracts/ENS4.sol\":6925:6930  break */\n      jump(tag_233)\n        /* \"contracts/ENS4.sol\":6700:6945  if (keccak256(abi.encodePacked(ownerDomains[i])) == keccak256(abi.encodePacked(lowerDomainName))) {... */\n    tag_241:\n        /* \"contracts/ENS4.sol\":6681:6684  i++ */\n      dup1\n      dup1\n      tag_257\n      swap1\n      tag_228\n      jump\t// in\n    tag_257:\n      swap2\n      pop\n      pop\n        /* \"contracts/ENS4.sol\":6636:6955  for (uint256 i = 0; i < ownerDomains.length; i++) {... */\n      jump(tag_232)\n    tag_233:\n      pop\n        /* \"contracts/ENS4.sol\":6367:6961  {... */\n      pop\n      pop\n      pop\n        /* \"contracts/ENS4.sol\":6279:6961  function _removeDomainFromOwner(address domainOwner, string memory domainName) internal {... */\n      pop\n      pop\n      jump\t// out\n        /* \"contracts/ENS4.sol\":5475:5961  function hasSuffix(string memory name) internal view returns (bool) {... */\n    tag_181:\n        /* \"contracts/ENS4.sol\":5537:5541  bool */\n      0x00\n        /* \"contracts/ENS4.sol\":5553:5575  bytes memory nameBytes */\n      dup1\n        /* \"contracts/ENS4.sol\":5584:5588  name */\n      dup3\n        /* \"contracts/ENS4.sol\":5553:5589  bytes memory nameBytes = bytes(name) */\n      swap1\n      pop\n        /* \"contracts/ENS4.sol\":5599:5623  bytes memory suffixBytes */\n      0x00\n        /* \"contracts/ENS4.sol\":5632:5638  suffix */\n      dup1\n        /* \"contracts/ENS4.sol\":5599:5639  bytes memory suffixBytes = bytes(suffix) */\n      dup1\n      sload\n      tag_259\n      swap1\n      tag_160\n      jump\t// in\n    tag_259:\n      dup1\n      0x1f\n      add\n      0x20\n      dup1\n      swap2\n      div\n      mul\n      0x20\n      add\n      mload(0x40)\n      swap1\n      dup2\n      add\n      0x40\n      mstore\n      dup1\n      swap3\n      swap2\n      swap1\n      dup2\n      dup2\n      mstore\n      0x20\n      add\n      dup3\n      dup1\n      sload\n      tag_260\n      swap1\n      tag_160\n      jump\t// in\n    tag_260:\n      dup1\n      iszero\n      tag_261\n      jumpi\n      dup1\n      0x1f\n      lt\n      tag_262\n      jumpi\n      0x0100\n      dup1\n      dup4\n      sload\n      div\n      mul\n      dup4\n      mstore\n      swap2\n      0x20\n      add\n      swap2\n      jump(tag_261)\n    tag_262:\n      dup3\n      add\n      swap2\n      swap1\n      0x00\n      mstore\n      keccak256(0x00, 0x20)\n      swap1\n    tag_263:\n      dup2\n      sload\n      dup2\n      mstore\n      swap1\n      0x01\n      add\n      swap1\n      0x20\n      add\n      dup1\n      dup4\n      gt\n      tag_263\n      jumpi\n      dup3\n      swap1\n      sub\n      0x1f\n      and\n      dup3\n      add\n      swap2\n    tag_261:\n      pop\n      pop\n      pop\n      pop\n      pop\n      swap1\n      pop\n        /* \"contracts/ENS4.sol\":5673:5684  suffixBytes */\n      dup1\n        /* \"contracts/ENS4.sol\":5673:5691  suffixBytes.length */\n      mload\n        /* \"contracts/ENS4.sol\":5654:5663  nameBytes */\n      dup3\n        /* \"contracts/ENS4.sol\":5654:5670  nameBytes.length */\n      mload\n        /* \"contracts/ENS4.sol\":5654:5691  nameBytes.length < suffixBytes.length */\n      lt\n        /* \"contracts/ENS4.sol\":5650:5730  if (nameBytes.length < suffixBytes.length) {... */\n      iszero\n      tag_264\n      jumpi\n        /* \"contracts/ENS4.sol\":5714:5719  false */\n      0x00\n        /* \"contracts/ENS4.sol\":5707:5719  return false */\n      swap3\n      pop\n      pop\n      pop\n      jump(tag_258)\n        /* \"contracts/ENS4.sol\":5650:5730  if (nameBytes.length < suffixBytes.length) {... */\n    tag_264:\n        /* \"contracts/ENS4.sol\":5745:5754  uint256 i */\n      0x00\n        /* \"contracts/ENS4.sol\":5740:5934  for (uint256 i = 0; i < suffixBytes.length; i++) {... */\n    tag_265:\n        /* \"contracts/ENS4.sol\":5764:5775  suffixBytes */\n      dup2\n        /* \"contracts/ENS4.sol\":5764:5782  suffixBytes.length */\n      mload\n        /* \"contracts/ENS4.sol\":5760:5761  i */\n      dup2\n        /* \"contracts/ENS4.sol\":5760:5782  i < suffixBytes.length */\n      lt\n        /* \"contracts/ENS4.sol\":5740:5934  for (uint256 i = 0; i < suffixBytes.length; i++) {... */\n      iszero\n      tag_266\n      jumpi\n        /* \"contracts/ENS4.sol\":5863:5874  suffixBytes */\n      dup2\n        /* \"contracts/ENS4.sol\":5875:5876  i */\n      dup2\n        /* \"contracts/ENS4.sol\":5863:5877  suffixBytes[i] */\n      dup2\n      mload\n      dup2\n      lt\n      tag_268\n      jumpi\n      tag_269\n      tag_211\n      jump\t// in\n    tag_269:\n    tag_268:\n      0x20\n      add\n      add\n      mload\n      0xf8\n      shr\n      0xf8\n      shl\n        /* \"contracts/ENS4.sol\":5807:5877  nameBytes[nameBytes.length - suffixBytes.length + i] != suffixBytes[i] */\n      not(0xffffffffffffffffffffffffffffffffffffffffffffffffffffffffffffff)\n      and\n        /* \"contracts/ENS4.sol\":5807:5816  nameBytes */\n      dup4\n        /* \"contracts/ENS4.sol\":5857:5858  i */\n      dup3\n        /* \"contracts/ENS4.sol\":5836:5847  suffixBytes */\n      dup5\n        /* \"contracts/ENS4.sol\":5836:5854  suffixBytes.length */\n      mload\n        /* \"contracts/ENS4.sol\":5817:5826  nameBytes */\n      dup7\n        /* \"contracts/ENS4.sol\":5817:5833  nameBytes.length */\n      mload\n        /* \"contracts/ENS4.sol\":5817:5854  nameBytes.length - suffixBytes.length */\n      tag_270\n      swap2\n      swap1\n      tag_102\n      jump\t// in\n    tag_270:\n        /* \"contracts/ENS4.sol\":5817:5858  nameBytes.length - suffixBytes.length + i */\n      tag_271\n      swap2\n      swap1\n      tag_96\n      jump\t// in\n    tag_271:\n        /* \"contracts/ENS4.sol\":5807:5859  nameBytes[nameBytes.length - suffixBytes.length + i] */\n      dup2\n      mload\n      dup2\n      lt\n      tag_272\n      jumpi\n      tag_273\n      tag_211\n      jump\t// in\n    tag_273:\n    tag_272:\n      0x20\n      add\n      add\n      mload\n      0xf8\n      shr\n      0xf8\n      shl\n        /* \"contracts/ENS4.sol\":5807:5877  nameBytes[nameBytes.length - suffixBytes.length + i] != suffixBytes[i] */\n      not(0xffffffffffffffffffffffffffffffffffffffffffffffffffffffffffffff)\n      and\n      eq\n        /* \"contracts/ENS4.sol\":5803:5924  if (nameBytes[nameBytes.length - suffixBytes.length + i] != suffixBytes[i]) {... */\n      tag_274\n      jumpi\n        /* \"contracts/ENS4.sol\":5904:5909  false */\n      0x00\n        /* \"contracts/ENS4.sol\":5897:5909  return false */\n      swap4\n      pop\n      pop\n      pop\n      pop\n      jump(tag_258)\n        /* \"contracts/ENS4.sol\":5803:5924  if (nameBytes[nameBytes.length - suffixBytes.length + i] != suffixBytes[i]) {... */\n    tag_274:\n        /* \"contracts/ENS4.sol\":5784:5787  i++ */\n      dup1\n      dup1\n      tag_275\n      swap1\n      tag_228\n      jump\t// in\n    tag_275:\n      swap2\n      pop\n      pop\n        /* \"contracts/ENS4.sol\":5740:5934  for (uint256 i = 0; i < suffixBytes.length; i++) {... */\n      jump(tag_265)\n    tag_266:\n      pop\n        /* \"contracts/ENS4.sol\":5950:5954  true */\n      0x01\n        /* \"contracts/ENS4.sol\":5943:5954  return true */\n      swap3\n      pop\n      pop\n      pop\n        /* \"contracts/ENS4.sol\":5475:5961  function hasSuffix(string memory name) internal view returns (bool) {... */\n    tag_258:\n      swap2\n      swap1\n      pop\n      jump\t// out\n    tag_256:\n      pop\n      dup1\n      sload\n      tag_276\n      swap1\n      tag_160\n      jump\t// in\n    tag_276:\n      0x00\n      dup3\n      sstore\n      dup1\n      0x1f\n      lt\n      tag_278\n      jumpi\n      pop\n      jump(tag_277)\n    tag_278:\n      0x1f\n      add\n      0x20\n      swap1\n      div\n      swap1\n      0x00\n      mstore\n      keccak256(0x00, 0x20)\n      swap1\n      dup2\n      add\n      swap1\n      tag_279\n      swap2\n      swap1\n      tag_280\n      jump\t// in\n    tag_279:\n    tag_277:\n      pop\n      jump\t// out\n    tag_280:\n    tag_281:\n      dup1\n      dup3\n      gt\n      iszero\n      tag_282\n      jumpi\n      0x00\n      dup2\n      0x00\n      swap1\n      sstore\n      pop\n      0x01\n      add\n      jump(tag_281)\n    tag_282:\n      pop\n      swap1\n      jump\t// out\n        /* \"#utility.yul\":88:205   */\n    tag_284:\n        /* \"#utility.yul\":197:198   */\n      0x00\n        /* \"#utility.yul\":194:195   */\n      dup1\n        /* \"#utility.yul\":187:199   */\n      revert\n        /* \"#utility.yul\":211:328   */\n    tag_285:\n        /* \"#utility.yul\":320:321   */\n      0x00\n        /* \"#utility.yul\":317:318   */\n      dup1\n        /* \"#utility.yul\":310:322   */\n      revert\n        /* \"#utility.yul\":334:451   */\n    tag_286:\n        /* \"#utility.yul\":443:444   */\n      0x00\n        /* \"#utility.yul\":440:441   */\n      dup1\n        /* \"#utility.yul\":433:445   */\n      revert\n        /* \"#utility.yul\":457:574   */\n    tag_287:\n        /* \"#utility.yul\":566:567   */\n      0x00\n        /* \"#utility.yul\":563:564   */\n      dup1\n        /* \"#utility.yul\":556:568   */\n      revert\n        /* \"#utility.yul\":580:697   */\n    tag_288:\n        /* \"#utility.yul\":689:690   */\n      0x00\n        /* \"#utility.yul\":686:687   */\n      dup1\n        /* \"#utility.yul\":679:691   */\n      revert\n        /* \"#utility.yul\":717:1270   */\n    tag_289:\n        /* \"#utility.yul\":775:783   */\n      0x00\n        /* \"#utility.yul\":785:791   */\n      dup1\n        /* \"#utility.yul\":835:838   */\n      dup4\n        /* \"#utility.yul\":828:832   */\n      0x1f\n        /* \"#utility.yul\":820:826   */\n      dup5\n        /* \"#utility.yul\":816:833   */\n      add\n        /* \"#utility.yul\":812:839   */\n      slt\n        /* \"#utility.yul\":802:924   */\n      tag_362\n      jumpi\n        /* \"#utility.yul\":843:922   */\n      tag_363\n      tag_286\n      jump\t// in\n    tag_363:\n        /* \"#utility.yul\":802:924   */\n    tag_362:\n        /* \"#utility.yul\":956:962   */\n      dup3\n        /* \"#utility.yul\":943:963   */\n      calldataload\n        /* \"#utility.yul\":933:963   */\n      swap1\n      pop\n        /* \"#utility.yul\":986:1004   */\n      0xffffffffffffffff\n        /* \"#utility.yul\":978:984   */\n      dup2\n        /* \"#utility.yul\":975:1005   */\n      gt\n        /* \"#utility.yul\":972:1089   */\n      iszero\n      tag_364\n      jumpi\n        /* \"#utility.yul\":1008:1087   */\n      tag_365\n      tag_287\n      jump\t// in\n    tag_365:\n        /* \"#utility.yul\":972:1089   */\n    tag_364:\n        /* \"#utility.yul\":1122:1126   */\n      0x20\n        /* \"#utility.yul\":1114:1120   */\n      dup4\n        /* \"#utility.yul\":1110:1127   */\n      add\n        /* \"#utility.yul\":1098:1127   */\n      swap2\n      pop\n        /* \"#utility.yul\":1176:1179   */\n      dup4\n        /* \"#utility.yul\":1168:1172   */\n      0x01\n        /* \"#utility.yul\":1160:1166   */\n      dup3\n        /* \"#utility.yul\":1156:1173   */\n      mul\n        /* \"#utility.yul\":1146:1154   */\n      dup4\n        /* \"#utility.yul\":1142:1174   */\n      add\n        /* \"#utility.yul\":1139:1180   */\n      gt\n        /* \"#utility.yul\":1136:1264   */\n      iszero\n      tag_366\n      jumpi\n        /* \"#utility.yul\":1183:1262   */\n      tag_367\n      tag_288\n      jump\t// in\n    tag_367:\n        /* \"#utility.yul\":1136:1264   */\n    tag_366:\n        /* \"#utility.yul\":717:1270   */\n      swap3\n      pop\n      swap3\n      swap1\n      pop\n      jump\t// out\n        /* \"#utility.yul\":1276:1353   */\n    tag_290:\n        /* \"#utility.yul\":1313:1320   */\n      0x00\n        /* \"#utility.yul\":1342:1347   */\n      dup2\n        /* \"#utility.yul\":1331:1347   */\n      swap1\n      pop\n        /* \"#utility.yul\":1276:1353   */\n      swap2\n      swap1\n      pop\n      jump\t// out\n        /* \"#utility.yul\":1359:1481   */\n    tag_291:\n        /* \"#utility.yul\":1432:1456   */\n      tag_370\n        /* \"#utility.yul\":1450:1455   */\n      dup2\n        /* \"#utility.yul\":1432:1456   */\n      tag_290\n      jump\t// in\n    tag_370:\n        /* \"#utility.yul\":1425:1430   */\n      dup2\n        /* \"#utility.yul\":1422:1457   */\n      eq\n        /* \"#utility.yul\":1412:1475   */\n      tag_371\n      jumpi\n        /* \"#utility.yul\":1471:1472   */\n      0x00\n        /* \"#utility.yul\":1468:1469   */\n      dup1\n        /* \"#utility.yul\":1461:1473   */\n      revert\n        /* \"#utility.yul\":1412:1475   */\n    tag_371:\n        /* \"#utility.yul\":1359:1481   */\n      pop\n      jump\t// out\n        /* \"#utility.yul\":1487:1626   */\n    tag_292:\n        /* \"#utility.yul\":1533:1538   */\n      0x00\n        /* \"#utility.yul\":1571:1577   */\n      dup2\n        /* \"#utility.yul\":1558:1578   */\n      calldataload\n        /* \"#utility.yul\":1549:1578   */\n      swap1\n      pop\n        /* \"#utility.yul\":1587:1620   */\n      tag_373\n        /* \"#utility.yul\":1614:1619   */\n      dup2\n        /* \"#utility.yul\":1587:1620   */\n      tag_291\n      jump\t// in\n    tag_373:\n        /* \"#utility.yul\":1487:1626   */\n      swap3\n      swap2\n      pop\n      pop\n      jump\t// out\n        /* \"#utility.yul\":1632:2306   */\n    tag_17:\n        /* \"#utility.yul\":1712:1718   */\n      0x00\n        /* \"#utility.yul\":1720:1726   */\n      dup1\n        /* \"#utility.yul\":1728:1734   */\n      0x00\n        /* \"#utility.yul\":1777:1779   */\n      0x40\n        /* \"#utility.yul\":1765:1774   */\n      dup5\n        /* \"#utility.yul\":1756:1763   */\n      dup7\n        /* \"#utility.yul\":1752:1775   */\n      sub\n        /* \"#utility.yul\":1748:1780   */\n      slt\n        /* \"#utility.yul\":1745:1864   */\n      iszero\n      tag_375\n      jumpi\n        /* \"#utility.yul\":1783:1862   */\n      tag_376\n      tag_284\n      jump\t// in\n    tag_376:\n        /* \"#utility.yul\":1745:1864   */\n    tag_375:\n        /* \"#utility.yul\":1931:1932   */\n      0x00\n        /* \"#utility.yul\":1920:1929   */\n      dup5\n        /* \"#utility.yul\":1916:1933   */\n      add\n        /* \"#utility.yul\":1903:1934   */\n      calldataload\n        /* \"#utility.yul\":1961:1979   */\n      0xffffffffffffffff\n        /* \"#utility.yul\":1953:1959   */\n      dup2\n        /* \"#utility.yul\":1950:1980   */\n      gt\n        /* \"#utility.yul\":1947:2064   */\n      iszero\n      tag_377\n      jumpi\n        /* \"#utility.yul\":1983:2062   */\n      tag_378\n      tag_285\n      jump\t// in\n    tag_378:\n        /* \"#utility.yul\":1947:2064   */\n    tag_377:\n        /* \"#utility.yul\":2096:2161   */\n      tag_379\n        /* \"#utility.yul\":2153:2160   */\n      dup7\n        /* \"#utility.yul\":2144:2150   */\n      dup3\n        /* \"#utility.yul\":2133:2142   */\n      dup8\n        /* \"#utility.yul\":2129:2151   */\n      add\n        /* \"#utility.yul\":2096:2161   */\n      tag_289\n      jump\t// in\n    tag_379:\n        /* \"#utility.yul\":2078:2161   */\n      swap4\n      pop\n      swap4\n      pop\n        /* \"#utility.yul\":1874:2171   */\n      pop\n        /* \"#utility.yul\":2210:2212   */\n      0x20\n        /* \"#utility.yul\":2236:2289   */\n      tag_380\n        /* \"#utility.yul\":2281:2288   */\n      dup7\n        /* \"#utility.yul\":2272:2278   */\n      dup3\n        /* \"#utility.yul\":2261:2270   */\n      dup8\n        /* \"#utility.yul\":2257:2279   */\n      add\n        /* \"#utility.yul\":2236:2289   */\n      tag_292\n      jump\t// in\n    tag_380:\n        /* \"#utility.yul\":2226:2289   */\n      swap2\n      pop\n        /* \"#utility.yul\":2181:2299   */\n      pop\n        /* \"#utility.yul\":1632:2306   */\n      swap3\n      pop\n      swap3\n      pop\n      swap3\n      jump\t// out\n        /* \"#utility.yul\":2312:2841   */\n    tag_22:\n        /* \"#utility.yul\":2383:2389   */\n      0x00\n        /* \"#utility.yul\":2391:2397   */\n      dup1\n        /* \"#utility.yul\":2440:2442   */\n      0x20\n        /* \"#utility.yul\":2428:2437   */\n      dup4\n        /* \"#utility.yul\":2419:2426   */\n      dup6\n        /* \"#utility.yul\":2415:2438   */\n      sub\n        /* \"#utility.yul\":2411:2443   */\n      slt\n        /* \"#utility.yul\":2408:2527   */\n      iszero\n      tag_382\n      jumpi\n        /* \"#utility.yul\":2446:2525   */\n      tag_383\n      tag_284\n      jump\t// in\n    tag_383:\n        /* \"#utility.yul\":2408:2527   */\n    tag_382:\n        /* \"#utility.yul\":2594:2595   */\n      0x00\n        /* \"#utility.yul\":2583:2592   */\n      dup4\n        /* \"#utility.yul\":2579:2596   */\n      add\n        /* \"#utility.yul\":2566:2597   */\n      calldataload\n        /* \"#utility.yul\":2624:2642   */\n      0xffffffffffffffff\n        /* \"#utility.yul\":2616:2622   */\n      dup2\n        /* \"#utility.yul\":2613:2643   */\n      gt\n        /* \"#utility.yul\":2610:2727   */\n      iszero\n      tag_384\n      jumpi\n        /* \"#utility.yul\":2646:2725   */\n      tag_385\n      tag_285\n      jump\t// in\n    tag_385:\n        /* \"#utility.yul\":2610:2727   */\n    tag_384:\n        /* \"#utility.yul\":2759:2824   */\n      tag_386\n        /* \"#utility.yul\":2816:2823   */\n      dup6\n        /* \"#utility.yul\":2807:2813   */\n      dup3\n        /* \"#utility.yul\":2796:2805   */\n      dup7\n        /* \"#utility.yul\":2792:2814   */\n      add\n        /* \"#utility.yul\":2759:2824   */\n      tag_289\n      jump\t// in\n    tag_386:\n        /* \"#utility.yul\":2741:2824   */\n      swap3\n      pop\n      swap3\n      pop\n        /* \"#utility.yul\":2537:2834   */\n      pop\n        /* \"#utility.yul\":2312:2841   */\n      swap3\n      pop\n      swap3\n      swap1\n      pop\n      jump\t// out\n        /* \"#utility.yul\":2847:2937   */\n    tag_293:\n        /* \"#utility.yul\":2881:2888   */\n      0x00\n        /* \"#utility.yul\":2924:2929   */\n      dup2\n        /* \"#utility.yul\":2917:2930   */\n      iszero\n        /* \"#utility.yul\":2910:2931   */\n      iszero\n        /* \"#utility.yul\":2899:2931   */\n      swap1\n      pop\n        /* \"#utility.yul\":2847:2937   */\n      swap2\n      swap1\n      pop\n      jump\t// out\n        /* \"#utility.yul\":2943:3052   */\n    tag_294:\n        /* \"#utility.yul\":3024:3045   */\n      tag_389\n        /* \"#utility.yul\":3039:3044   */\n      dup2\n        /* \"#utility.yul\":3024:3045   */\n      tag_293\n      jump\t// in\n    tag_389:\n        /* \"#utility.yul\":3019:3022   */\n      dup3\n        /* \"#utility.yul\":3012:3046   */\n      mstore\n        /* \"#utility.yul\":2943:3052   */\n      pop\n      pop\n      jump\t// out\n        /* \"#utility.yul\":3058:3268   */\n    tag_25:\n        /* \"#utility.yul\":3145:3149   */\n      0x00\n        /* \"#utility.yul\":3183:3185   */\n      0x20\n        /* \"#utility.yul\":3172:3181   */\n      dup3\n        /* \"#utility.yul\":3168:3186   */\n      add\n        /* \"#utility.yul\":3160:3186   */\n      swap1\n      pop\n        /* \"#utility.yul\":3196:3261   */\n      tag_391\n        /* \"#utility.yul\":3258:3259   */\n      0x00\n        /* \"#utility.yul\":3247:3256   */\n      dup4\n        /* \"#utility.yul\":3243:3260   */\n      add\n        /* \"#utility.yul\":3234:3240   */\n      dup5\n        /* \"#utility.yul\":3196:3261   */\n      tag_294\n      jump\t// in\n    tag_391:\n        /* \"#utility.yul\":3058:3268   */\n      swap3\n      swap2\n      pop\n      pop\n      jump\t// out\n        /* \"#utility.yul\":3274:3400   */\n    tag_295:\n        /* \"#utility.yul\":3311:3318   */\n      0x00\n        /* \"#utility.yul\":3351:3393   */\n      0xffffffffffffffffffffffffffffffffffffffff\n        /* \"#utility.yul\":3344:3349   */\n      dup3\n        /* \"#utility.yul\":3340:3394   */\n      and\n        /* \"#utility.yul\":3329:3394   */\n      swap1\n      pop\n        /* \"#utility.yul\":3274:3400   */\n      swap2\n      swap1\n      pop\n      jump\t// out\n        /* \"#utility.yul\":3406:3502   */\n    tag_296:\n        /* \"#utility.yul\":3443:3450   */\n      0x00\n        /* \"#utility.yul\":3472:3496   */\n      tag_394\n        /* \"#utility.yul\":3490:3495   */\n      dup3\n        /* \"#utility.yul\":3472:3496   */\n      tag_295\n      jump\t// in\n    tag_394:\n        /* \"#utility.yul\":3461:3496   */\n      swap1\n      pop\n        /* \"#utility.yul\":3406:3502   */\n      swap2\n      swap1\n      pop\n      jump\t// out\n        /* \"#utility.yul\":3508:3626   */\n    tag_297:\n        /* \"#utility.yul\":3595:3619   */\n      tag_396\n        /* \"#utility.yul\":3613:3618   */\n      dup2\n        /* \"#utility.yul\":3595:3619   */\n      tag_296\n      jump\t// in\n    tag_396:\n        /* \"#utility.yul\":3590:3593   */\n      dup3\n        /* \"#utility.yul\":3583:3620   */\n      mstore\n        /* \"#utility.yul\":3508:3626   */\n      pop\n      pop\n      jump\t// out\n        /* \"#utility.yul\":3632:3750   */\n    tag_298:\n        /* \"#utility.yul\":3719:3743   */\n      tag_398\n        /* \"#utility.yul\":3737:3742   */\n      dup2\n        /* \"#utility.yul\":3719:3743   */\n      tag_290\n      jump\t// in\n    tag_398:\n        /* \"#utility.yul\":3714:3717   */\n      dup3\n        /* \"#utility.yul\":3707:3744   */\n      mstore\n        /* \"#utility.yul\":3632:3750   */\n      pop\n      pop\n      jump\t// out\n        /* \"#utility.yul\":3756:4198   */\n    tag_31:\n        /* \"#utility.yul\":3905:3909   */\n      0x00\n        /* \"#utility.yul\":3943:3945   */\n      0x60\n        /* \"#utility.yul\":3932:3941   */\n      dup3\n        /* \"#utility.yul\":3928:3946   */\n      add\n        /* \"#utility.yul\":3920:3946   */\n      swap1\n      pop\n        /* \"#utility.yul\":3956:4027   */\n      tag_400\n        /* \"#utility.yul\":4024:4025   */\n      0x00\n        /* \"#utility.yul\":4013:4022   */\n      dup4\n        /* \"#utility.yul\":4009:4026   */\n      add\n        /* \"#utility.yul\":4000:4006   */\n      dup7\n        /* \"#utility.yul\":3956:4027   */\n      tag_297\n      jump\t// in\n    tag_400:\n        /* \"#utility.yul\":4037:4109   */\n      tag_401\n        /* \"#utility.yul\":4105:4107   */\n      0x20\n        /* \"#utility.yul\":4094:4103   */\n      dup4\n        /* \"#utility.yul\":4090:4108   */\n      add\n        /* \"#utility.yul\":4081:4087   */\n      dup6\n        /* \"#utility.yul\":4037:4109   */\n      tag_297\n      jump\t// in\n    tag_401:\n        /* \"#utility.yul\":4119:4191   */\n      tag_402\n        /* \"#utility.yul\":4187:4189   */\n      0x40\n        /* \"#utility.yul\":4176:4185   */\n      dup4\n        /* \"#utility.yul\":4172:4190   */\n      add\n        /* \"#utility.yul\":4163:4169   */\n      dup5\n        /* \"#utility.yul\":4119:4191   */\n      tag_298\n      jump\t// in\n    tag_402:\n        /* \"#utility.yul\":3756:4198   */\n      swap5\n      swap4\n      pop\n      pop\n      pop\n      pop\n      jump\t// out\n        /* \"#utility.yul\":4204:4533   */\n    tag_35:\n        /* \"#utility.yul\":4263:4269   */\n      0x00\n        /* \"#utility.yul\":4312:4314   */\n      0x20\n        /* \"#utility.yul\":4300:4309   */\n      dup3\n        /* \"#utility.yul\":4291:4298   */\n      dup5\n        /* \"#utility.yul\":4287:4310   */\n      sub\n        /* \"#utility.yul\":4283:4315   */\n      slt\n        /* \"#utility.yul\":4280:4399   */\n      iszero\n      tag_404\n      jumpi\n        /* \"#utility.yul\":4318:4397   */\n      tag_405\n      tag_284\n      jump\t// in\n    tag_405:\n        /* \"#utility.yul\":4280:4399   */\n    tag_404:\n        /* \"#utility.yul\":4438:4439   */\n      0x00\n        /* \"#utility.yul\":4463:4516   */\n      tag_406\n        /* \"#utility.yul\":4508:4515   */\n      dup5\n        /* \"#utility.yul\":4499:4505   */\n      dup3\n        /* \"#utility.yul\":4488:4497   */\n      dup6\n        /* \"#utility.yul\":4484:4506   */\n      add\n        /* \"#utility.yul\":4463:4516   */\n      tag_292\n      jump\t// in\n    tag_406:\n        /* \"#utility.yul\":4453:4516   */\n      swap2\n      pop\n        /* \"#utility.yul\":4409:4526   */\n      pop\n        /* \"#utility.yul\":4204:4533   */\n      swap3\n      swap2\n      pop\n      pop\n      jump\t// out\n        /* \"#utility.yul\":4539:4661   */\n    tag_299:\n        /* \"#utility.yul\":4612:4636   */\n      tag_408\n        /* \"#utility.yul\":4630:4635   */\n      dup2\n        /* \"#utility.yul\":4612:4636   */\n      tag_296\n      jump\t// in\n    tag_408:\n        /* \"#utility.yul\":4605:4610   */\n      dup2\n        /* \"#utility.yul\":4602:4637   */\n      eq\n        /* \"#utility.yul\":4592:4655   */\n      tag_409\n      jumpi\n        /* \"#utility.yul\":4651:4652   */\n      0x00\n        /* \"#utility.yul\":4648:4649   */\n      dup1\n        /* \"#utility.yul\":4641:4653   */\n      revert\n        /* \"#utility.yul\":4592:4655   */\n    tag_409:\n        /* \"#utility.yul\":4539:4661   */\n      pop\n      jump\t// out\n        /* \"#utility.yul\":4667:4806   */\n    tag_300:\n        /* \"#utility.yul\":4713:4718   */\n      0x00\n        /* \"#utility.yul\":4751:4757   */\n      dup2\n        /* \"#utility.yul\":4738:4758   */\n      calldataload\n        /* \"#utility.yul\":4729:4758   */\n      swap1\n      pop\n        /* \"#utility.yul\":4767:4800   */\n      tag_411\n        /* \"#utility.yul\":4794:4799   */\n      dup2\n        /* \"#utility.yul\":4767:4800   */\n      tag_299\n      jump\t// in\n    tag_411:\n        /* \"#utility.yul\":4667:4806   */\n      swap3\n      swap2\n      pop\n      pop\n      jump\t// out\n        /* \"#utility.yul\":4812:5486   */\n    tag_44:\n        /* \"#utility.yul\":4892:4898   */\n      0x00\n        /* \"#utility.yul\":4900:4906   */\n      dup1\n        /* \"#utility.yul\":4908:4914   */\n      0x00\n        /* \"#utility.yul\":4957:4959   */\n      0x40\n        /* \"#utility.yul\":4945:4954   */\n      dup5\n        /* \"#utility.yul\":4936:4943   */\n      dup7\n        /* \"#utility.yul\":4932:4955   */\n      sub\n        /* \"#utility.yul\":4928:4960   */\n      slt\n        /* \"#utility.yul\":4925:5044   */\n      iszero\n      tag_413\n      jumpi\n        /* \"#utility.yul\":4963:5042   */\n      tag_414\n      tag_284\n      jump\t// in\n    tag_414:\n        /* \"#utility.yul\":4925:5044   */\n    tag_413:\n        /* \"#utility.yul\":5111:5112   */\n      0x00\n        /* \"#utility.yul\":5100:5109   */\n      dup5\n        /* \"#utility.yul\":5096:5113   */\n      add\n        /* \"#utility.yul\":5083:5114   */\n      calldataload\n        /* \"#utility.yul\":5141:5159   */\n      0xffffffffffffffff\n        /* \"#utility.yul\":5133:5139   */\n      dup2\n        /* \"#utility.yul\":5130:5160   */\n      gt\n        /* \"#utility.yul\":5127:5244   */\n      iszero\n      tag_415\n      jumpi\n        /* \"#utility.yul\":5163:5242   */\n      tag_416\n      tag_285\n      jump\t// in\n    tag_416:\n        /* \"#utility.yul\":5127:5244   */\n    tag_415:\n        /* \"#utility.yul\":5276:5341   */\n      tag_417\n        /* \"#utility.yul\":5333:5340   */\n      dup7\n        /* \"#utility.yul\":5324:5330   */\n      dup3\n        /* \"#utility.yul\":5313:5322   */\n      dup8\n        /* \"#utility.yul\":5309:5331   */\n      add\n        /* \"#utility.yul\":5276:5341   */\n      tag_289\n      jump\t// in\n    tag_417:\n        /* \"#utility.yul\":5258:5341   */\n      swap4\n      pop\n      swap4\n      pop\n        /* \"#utility.yul\":5054:5351   */\n      pop\n        /* \"#utility.yul\":5390:5392   */\n      0x20\n        /* \"#utility.yul\":5416:5469   */\n      tag_418\n        /* \"#utility.yul\":5461:5468   */\n      dup7\n        /* \"#utility.yul\":5452:5458   */\n      dup3\n        /* \"#utility.yul\":5441:5450   */\n      dup8\n        /* \"#utility.yul\":5437:5459   */\n      add\n        /* \"#utility.yul\":5416:5469   */\n      tag_300\n      jump\t// in\n    tag_418:\n        /* \"#utility.yul\":5406:5469   */\n      swap2\n      pop\n        /* \"#utility.yul\":5361:5479   */\n      pop\n        /* \"#utility.yul\":4812:5486   */\n      swap3\n      pop\n      swap3\n      pop\n      swap3\n      jump\t// out\n        /* \"#utility.yul\":5492:5714   */\n    tag_50:\n        /* \"#utility.yul\":5585:5589   */\n      0x00\n        /* \"#utility.yul\":5623:5625   */\n      0x20\n        /* \"#utility.yul\":5612:5621   */\n      dup3\n        /* \"#utility.yul\":5608:5626   */\n      add\n        /* \"#utility.yul\":5600:5626   */\n      swap1\n      pop\n        /* \"#utility.yul\":5636:5707   */\n      tag_420\n        /* \"#utility.yul\":5704:5705   */\n      0x00\n        /* \"#utility.yul\":5693:5702   */\n      dup4\n        /* \"#utility.yul\":5689:5706   */\n      add\n        /* \"#utility.yul\":5680:5686   */\n      dup5\n        /* \"#utility.yul\":5636:5707   */\n      tag_297\n      jump\t// in\n    tag_420:\n        /* \"#utility.yul\":5492:5714   */\n      swap3\n      swap2\n      pop\n      pop\n      jump\t// out\n        /* \"#utility.yul\":5720:5942   */\n    tag_59:\n        /* \"#utility.yul\":5813:5817   */\n      0x00\n        /* \"#utility.yul\":5851:5853   */\n      0x20\n        /* \"#utility.yul\":5840:5849   */\n      dup3\n        /* \"#utility.yul\":5836:5854   */\n      add\n        /* \"#utility.yul\":5828:5854   */\n      swap1\n      pop\n        /* \"#utility.yul\":5864:5935   */\n      tag_422\n        /* \"#utility.yul\":5932:5933   */\n      0x00\n        /* \"#utility.yul\":5921:5930   */\n      dup4\n        /* \"#utility.yul\":5917:5934   */\n      add\n        /* \"#utility.yul\":5908:5914   */\n      dup5\n        /* \"#utility.yul\":5864:5935   */\n      tag_298\n      jump\t// in\n    tag_422:\n        /* \"#utility.yul\":5720:5942   */\n      swap3\n      swap2\n      pop\n      pop\n      jump\t// out\n        /* \"#utility.yul\":5948:6277   */\n    tag_63:\n        /* \"#utility.yul\":6007:6013   */\n      0x00\n        /* \"#utility.yul\":6056:6058   */\n      0x20\n        /* \"#utility.yul\":6044:6053   */\n      dup3\n        /* \"#utility.yul\":6035:6042   */\n      dup5\n        /* \"#utility.yul\":6031:6054   */\n      sub\n        /* \"#utility.yul\":6027:6059   */\n      slt\n        /* \"#utility.yul\":6024:6143   */\n      iszero\n      tag_424\n      jumpi\n        /* \"#utility.yul\":6062:6141   */\n      tag_425\n      tag_284\n      jump\t// in\n    tag_425:\n        /* \"#utility.yul\":6024:6143   */\n    tag_424:\n        /* \"#utility.yul\":6182:6183   */\n      0x00\n        /* \"#utility.yul\":6207:6260   */\n      tag_426\n        /* \"#utility.yul\":6252:6259   */\n      dup5\n        /* \"#utility.yul\":6243:6249   */\n      dup3\n        /* \"#utility.yul\":6232:6241   */\n      dup6\n        /* \"#utility.yul\":6228:6250   */\n      add\n        /* \"#utility.yul\":6207:6260   */\n      tag_300\n      jump\t// in\n    tag_426:\n        /* \"#utility.yul\":6197:6260   */\n      swap2\n      pop\n        /* \"#utility.yul\":6153:6270   */\n      pop\n        /* \"#utility.yul\":5948:6277   */\n      swap3\n      swap2\n      pop\n      pop\n      jump\t// out\n        /* \"#utility.yul\":6283:6407   */\n    tag_301:\n        /* \"#utility.yul\":6360:6366   */\n      0x00\n        /* \"#utility.yul\":6394:6399   */\n      dup2\n        /* \"#utility.yul\":6388:6400   */\n      mload\n        /* \"#utility.yul\":6378:6400   */\n      swap1\n      pop\n        /* \"#utility.yul\":6283:6407   */\n      swap2\n      swap1\n      pop\n      jump\t// out\n        /* \"#utility.yul\":6413:6607   */\n    tag_302:\n        /* \"#utility.yul\":6522:6533   */\n      0x00\n        /* \"#utility.yul\":6556:6562   */\n      dup3\n        /* \"#utility.yul\":6551:6554   */\n      dup3\n        /* \"#utility.yul\":6544:6563   */\n      mstore\n        /* \"#utility.yul\":6596:6600   */\n      0x20\n        /* \"#utility.yul\":6591:6594   */\n      dup3\n        /* \"#utility.yul\":6587:6601   */\n      add\n        /* \"#utility.yul\":6572:6601   */\n      swap1\n      pop\n        /* \"#utility.yul\":6413:6607   */\n      swap3\n      swap2\n      pop\n      pop\n      jump\t// out\n        /* \"#utility.yul\":6613:6755   */\n    tag_303:\n        /* \"#utility.yul\":6690:6694   */\n      0x00\n        /* \"#utility.yul\":6713:6716   */\n      dup2\n        /* \"#utility.yul\":6705:6716   */\n      swap1\n      pop\n        /* \"#utility.yul\":6743:6747   */\n      0x20\n        /* \"#utility.yul\":6738:6741   */\n      dup3\n        /* \"#utility.yul\":6734:6748   */\n      add\n        /* \"#utility.yul\":6726:6748   */\n      swap1\n      pop\n        /* \"#utility.yul\":6613:6755   */\n      swap2\n      swap1\n      pop\n      jump\t// out\n        /* \"#utility.yul\":6761:6860   */\n    tag_304:\n        /* \"#utility.yul\":6813:6819   */\n      0x00\n        /* \"#utility.yul\":6847:6852   */\n      dup2\n        /* \"#utility.yul\":6841:6853   */\n      mload\n        /* \"#utility.yul\":6831:6853   */\n      swap1\n      pop\n        /* \"#utility.yul\":6761:6860   */\n      swap2\n      swap1\n      pop\n      jump\t// out\n        /* \"#utility.yul\":6866:7025   */\n    tag_305:\n        /* \"#utility.yul\":6940:6951   */\n      0x00\n        /* \"#utility.yul\":6974:6980   */\n      dup3\n        /* \"#utility.yul\":6969:6972   */\n      dup3\n        /* \"#utility.yul\":6962:6981   */\n      mstore\n        /* \"#utility.yul\":7014:7018   */\n      0x20\n        /* \"#utility.yul\":7009:7012   */\n      dup3\n        /* \"#utility.yul\":7005:7019   */\n      add\n        /* \"#utility.yul\":6990:7019   */\n      swap1\n      pop\n        /* \"#utility.yul\":6866:7025   */\n      swap3\n      swap2\n      pop\n      pop\n      jump\t// out\n        /* \"#utility.yul\":7031:7277   */\n    tag_306:\n        /* \"#utility.yul\":7112:7113   */\n      0x00\n        /* \"#utility.yul\":7122:7235   */\n    tag_433:\n        /* \"#utility.yul\":7136:7142   */\n      dup4\n        /* \"#utility.yul\":7133:7134   */\n      dup2\n        /* \"#utility.yul\":7130:7143   */\n      lt\n        /* \"#utility.yul\":7122:7235   */\n      iszero\n      tag_435\n      jumpi\n        /* \"#utility.yul\":7221:7222   */\n      dup1\n        /* \"#utility.yul\":7216:7219   */\n      dup3\n        /* \"#utility.yul\":7212:7223   */\n      add\n        /* \"#utility.yul\":7206:7224   */\n      mload\n        /* \"#utility.yul\":7202:7203   */\n      dup2\n        /* \"#utility.yul\":7197:7200   */\n      dup5\n        /* \"#utility.yul\":7193:7204   */\n      add\n        /* \"#utility.yul\":7186:7225   */\n      mstore\n        /* \"#utility.yul\":7158:7160   */\n      0x20\n        /* \"#utility.yul\":7155:7156   */\n      dup2\n        /* \"#utility.yul\":7151:7161   */\n      add\n        /* \"#utility.yul\":7146:7161   */\n      swap1\n      pop\n        /* \"#utility.yul\":7122:7235   */\n      jump(tag_433)\n    tag_435:\n        /* \"#utility.yul\":7269:7270   */\n      0x00\n        /* \"#utility.yul\":7260:7266   */\n      dup5\n        /* \"#utility.yul\":7255:7258   */\n      dup5\n        /* \"#utility.yul\":7251:7267   */\n      add\n        /* \"#utility.yul\":7244:7271   */\n      mstore\n        /* \"#utility.yul\":7093:7277   */\n      pop\n        /* \"#utility.yul\":7031:7277   */\n      pop\n      pop\n      pop\n      jump\t// out\n        /* \"#utility.yul\":7283:7385   */\n    tag_307:\n        /* \"#utility.yul\":7324:7330   */\n      0x00\n        /* \"#utility.yul\":7375:7377   */\n      0x1f\n        /* \"#utility.yul\":7371:7378   */\n      not\n        /* \"#utility.yul\":7366:7368   */\n      0x1f\n        /* \"#utility.yul\":7359:7364   */\n      dup4\n        /* \"#utility.yul\":7355:7369   */\n      add\n        /* \"#utility.yul\":7351:7379   */\n      and\n        /* \"#utility.yul\":7341:7379   */\n      swap1\n      pop\n        /* \"#utility.yul\":7283:7385   */\n      swap2\n      swap1\n      pop\n      jump\t// out\n        /* \"#utility.yul\":7391:7748   */\n    tag_308:\n        /* \"#utility.yul\":7469:7472   */\n      0x00\n        /* \"#utility.yul\":7497:7536   */\n      tag_438\n        /* \"#utility.yul\":7530:7535   */\n      dup3\n        /* \"#utility.yul\":7497:7536   */\n      tag_304\n      jump\t// in\n    tag_438:\n        /* \"#utility.yul\":7552:7613   */\n      tag_439\n        /* \"#utility.yul\":7606:7612   */\n      dup2\n        /* \"#utility.yul\":7601:7604   */\n      dup6\n        /* \"#utility.yul\":7552:7613   */\n      tag_305\n      jump\t// in\n    tag_439:\n        /* \"#utility.yul\":7545:7613   */\n      swap4\n      pop\n        /* \"#utility.yul\":7622:7687   */\n      tag_440\n        /* \"#utility.yul\":7680:7686   */\n      dup2\n        /* \"#utility.yul\":7675:7678   */\n      dup6\n        /* \"#utility.yul\":7668:7672   */\n      0x20\n        /* \"#utility.yul\":7661:7666   */\n      dup7\n        /* \"#utility.yul\":7657:7673   */\n      add\n        /* \"#utility.yul\":7622:7687   */\n      tag_306\n      jump\t// in\n    tag_440:\n        /* \"#utility.yul\":7712:7741   */\n      tag_441\n        /* \"#utility.yul\":7734:7740   */\n      dup2\n        /* \"#utility.yul\":7712:7741   */\n      tag_307\n      jump\t// in\n    tag_441:\n        /* \"#utility.yul\":7707:7710   */\n      dup5\n        /* \"#utility.yul\":7703:7742   */\n      add\n        /* \"#utility.yul\":7696:7742   */\n      swap2\n      pop\n        /* \"#utility.yul\":7473:7748   */\n      pop\n        /* \"#utility.yul\":7391:7748   */\n      swap3\n      swap2\n      pop\n      pop\n      jump\t// out\n        /* \"#utility.yul\":7754:7950   */\n    tag_309:\n        /* \"#utility.yul\":7843:7853   */\n      0x00\n        /* \"#utility.yul\":7878:7944   */\n      tag_443\n        /* \"#utility.yul\":7940:7943   */\n      dup4\n        /* \"#utility.yul\":7932:7938   */\n      dup4\n        /* \"#utility.yul\":7878:7944   */\n      tag_308\n      jump\t// in\n    tag_443:\n        /* \"#utility.yul\":7864:7944   */\n      swap1\n      pop\n        /* \"#utility.yul\":7754:7950   */\n      swap3\n      swap2\n      pop\n      pop\n      jump\t// out\n        /* \"#utility.yul\":7956:8079   */\n    tag_310:\n        /* \"#utility.yul\":8036:8040   */\n      0x00\n        /* \"#utility.yul\":8068:8072   */\n      0x20\n        /* \"#utility.yul\":8063:8066   */\n      dup3\n        /* \"#utility.yul\":8059:8073   */\n      add\n        /* \"#utility.yul\":8051:8073   */\n      swap1\n      pop\n        /* \"#utility.yul\":7956:8079   */\n      swap2\n      swap1\n      pop\n      jump\t// out\n        /* \"#utility.yul\":8113:9104   */\n    tag_311:\n        /* \"#utility.yul\":8252:8255   */\n      0x00\n        /* \"#utility.yul\":8281:8345   */\n      tag_446\n        /* \"#utility.yul\":8339:8344   */\n      dup3\n        /* \"#utility.yul\":8281:8345   */\n      tag_301\n      jump\t// in\n    tag_446:\n        /* \"#utility.yul\":8361:8457   */\n      tag_447\n        /* \"#utility.yul\":8450:8456   */\n      dup2\n        /* \"#utility.yul\":8445:8448   */\n      dup6\n        /* \"#utility.yul\":8361:8457   */\n      tag_302\n      jump\t// in\n    tag_447:\n        /* \"#utility.yul\":8354:8457   */\n      swap4\n      pop\n        /* \"#utility.yul\":8483:8486   */\n      dup4\n        /* \"#utility.yul\":8528:8532   */\n      0x20\n        /* \"#utility.yul\":8520:8526   */\n      dup3\n        /* \"#utility.yul\":8516:8533   */\n      mul\n        /* \"#utility.yul\":8511:8514   */\n      dup6\n        /* \"#utility.yul\":8507:8534   */\n      add\n        /* \"#utility.yul\":8558:8624   */\n      tag_448\n        /* \"#utility.yul\":8618:8623   */\n      dup6\n        /* \"#utility.yul\":8558:8624   */\n      tag_303\n      jump\t// in\n    tag_448:\n        /* \"#utility.yul\":8647:8654   */\n      dup1\n        /* \"#utility.yul\":8678:8679   */\n      0x00\n        /* \"#utility.yul\":8663:9059   */\n    tag_449:\n        /* \"#utility.yul\":8688:8694   */\n      dup6\n        /* \"#utility.yul\":8685:8686   */\n      dup2\n        /* \"#utility.yul\":8682:8695   */\n      lt\n        /* \"#utility.yul\":8663:9059   */\n      iszero\n      tag_451\n      jumpi\n        /* \"#utility.yul\":8759:8768   */\n      dup5\n        /* \"#utility.yul\":8753:8757   */\n      dup5\n        /* \"#utility.yul\":8749:8769   */\n      sub\n        /* \"#utility.yul\":8744:8747   */\n      dup10\n        /* \"#utility.yul\":8737:8770   */\n      mstore\n        /* \"#utility.yul\":8810:8816   */\n      dup2\n        /* \"#utility.yul\":8804:8817   */\n      mload\n        /* \"#utility.yul\":8838:8922   */\n      tag_452\n        /* \"#utility.yul\":8917:8921   */\n      dup6\n        /* \"#utility.yul\":8902:8915   */\n      dup3\n        /* \"#utility.yul\":8838:8922   */\n      tag_309\n      jump\t// in\n    tag_452:\n        /* \"#utility.yul\":8830:8922   */\n      swap5\n      pop\n        /* \"#utility.yul\":8945:9015   */\n      tag_453\n        /* \"#utility.yul\":9008:9014   */\n      dup4\n        /* \"#utility.yul\":8945:9015   */\n      tag_310\n      jump\t// in\n    tag_453:\n        /* \"#utility.yul\":8935:9015   */\n      swap3\n      pop\n        /* \"#utility.yul\":9044:9048   */\n      0x20\n        /* \"#utility.yul\":9039:9042   */\n      dup11\n        /* \"#utility.yul\":9035:9049   */\n      add\n        /* \"#utility.yul\":9028:9049   */\n      swap10\n      pop\n        /* \"#utility.yul\":8723:9059   */\n      pop\n        /* \"#utility.yul\":8710:8711   */\n      0x01\n        /* \"#utility.yul\":8707:8708   */\n      dup2\n        /* \"#utility.yul\":8703:8712   */\n      add\n        /* \"#utility.yul\":8698:8712   */\n      swap1\n      pop\n        /* \"#utility.yul\":8663:9059   */\n      jump(tag_449)\n    tag_451:\n        /* \"#utility.yul\":8667:8681   */\n      pop\n        /* \"#utility.yul\":9075:9079   */\n      dup3\n        /* \"#utility.yul\":9068:9079   */\n      swap8\n      pop\n        /* \"#utility.yul\":9095:9098   */\n      dup8\n        /* \"#utility.yul\":9088:9098   */\n      swap6\n      pop\n        /* \"#utility.yul\":8257:9104   */\n      pop\n      pop\n      pop\n      pop\n      pop\n        /* \"#utility.yul\":8113:9104   */\n      swap3\n      swap2\n      pop\n      pop\n      jump\t// out\n        /* \"#utility.yul\":9110:9523   */\n    tag_66:\n        /* \"#utility.yul\":9273:9277   */\n      0x00\n        /* \"#utility.yul\":9311:9313   */\n      0x20\n        /* \"#utility.yul\":9300:9309   */\n      dup3\n        /* \"#utility.yul\":9296:9314   */\n      add\n        /* \"#utility.yul\":9288:9314   */\n      swap1\n      pop\n        /* \"#utility.yul\":9360:9369   */\n      dup2\n        /* \"#utility.yul\":9354:9358   */\n      dup2\n        /* \"#utility.yul\":9350:9370   */\n      sub\n        /* \"#utility.yul\":9346:9347   */\n      0x00\n        /* \"#utility.yul\":9335:9344   */\n      dup4\n        /* \"#utility.yul\":9331:9348   */\n      add\n        /* \"#utility.yul\":9324:9371   */\n      mstore\n        /* \"#utility.yul\":9388:9516   */\n      tag_455\n        /* \"#utility.yul\":9511:9515   */\n      dup2\n        /* \"#utility.yul\":9502:9508   */\n      dup5\n        /* \"#utility.yul\":9388:9516   */\n      tag_311\n      jump\t// in\n    tag_455:\n        /* \"#utility.yul\":9380:9516   */\n      swap1\n      pop\n        /* \"#utility.yul\":9110:9523   */\n      swap3\n      swap2\n      pop\n      pop\n      jump\t// out\n        /* \"#utility.yul\":9529:9698   */\n    tag_312:\n        /* \"#utility.yul\":9613:9624   */\n      0x00\n        /* \"#utility.yul\":9647:9653   */\n      dup3\n        /* \"#utility.yul\":9642:9645   */\n      dup3\n        /* \"#utility.yul\":9635:9654   */\n      mstore\n        /* \"#utility.yul\":9687:9691   */\n      0x20\n        /* \"#utility.yul\":9682:9685   */\n      dup3\n        /* \"#utility.yul\":9678:9692   */\n      add\n        /* \"#utility.yul\":9663:9692   */\n      swap1\n      pop\n        /* \"#utility.yul\":9529:9698   */\n      swap3\n      swap2\n      pop\n      pop\n      jump\t// out\n        /* \"#utility.yul\":9704:10081   */\n    tag_313:\n        /* \"#utility.yul\":9792:9795   */\n      0x00\n        /* \"#utility.yul\":9820:9859   */\n      tag_458\n        /* \"#utility.yul\":9853:9858   */\n      dup3\n        /* \"#utility.yul\":9820:9859   */\n      tag_304\n      jump\t// in\n    tag_458:\n        /* \"#utility.yul\":9875:9946   */\n      tag_459\n        /* \"#utility.yul\":9939:9945   */\n      dup2\n        /* \"#utility.yul\":9934:9937   */\n      dup6\n        /* \"#utility.yul\":9875:9946   */\n      tag_312\n      jump\t// in\n    tag_459:\n        /* \"#utility.yul\":9868:9946   */\n      swap4\n      pop\n        /* \"#utility.yul\":9955:10020   */\n      tag_460\n        /* \"#utility.yul\":10013:10019   */\n      dup2\n        /* \"#utility.yul\":10008:10011   */\n      dup6\n        /* \"#utility.yul\":10001:10005   */\n      0x20\n        /* \"#utility.yul\":9994:9999   */\n      dup7\n        /* \"#utility.yul\":9990:10006   */\n      add\n        /* \"#utility.yul\":9955:10020   */\n      tag_306\n      jump\t// in\n    tag_460:\n        /* \"#utility.yul\":10045:10074   */\n      tag_461\n        /* \"#utility.yul\":10067:10073   */\n      dup2\n        /* \"#utility.yul\":10045:10074   */\n      tag_307\n      jump\t// in\n    tag_461:\n        /* \"#utility.yul\":10040:10043   */\n      dup5\n        /* \"#utility.yul\":10036:10075   */\n      add\n        /* \"#utility.yul\":10029:10075   */\n      swap2\n      pop\n        /* \"#utility.yul\":9796:10081   */\n      pop\n        /* \"#utility.yul\":9704:10081   */\n      swap3\n      swap2\n      pop\n      pop\n      jump\t// out\n        /* \"#utility.yul\":10087:10400   */\n    tag_71:\n        /* \"#utility.yul\":10200:10204   */\n      0x00\n        /* \"#utility.yul\":10238:10240   */\n      0x20\n        /* \"#utility.yul\":10227:10236   */\n      dup3\n        /* \"#utility.yul\":10223:10241   */\n      add\n        /* \"#utility.yul\":10215:10241   */\n      swap1\n      pop\n        /* \"#utility.yul\":10287:10296   */\n      dup2\n        /* \"#utility.yul\":10281:10285   */\n      dup2\n        /* \"#utility.yul\":10277:10297   */\n      sub\n        /* \"#utility.yul\":10273:10274   */\n      0x00\n        /* \"#utility.yul\":10262:10271   */\n      dup4\n        /* \"#utility.yul\":10258:10275   */\n      add\n        /* \"#utility.yul\":10251:10298   */\n      mstore\n        /* \"#utility.yul\":10315:10393   */\n      tag_463\n        /* \"#utility.yul\":10388:10392   */\n      dup2\n        /* \"#utility.yul\":10379:10385   */\n      dup5\n        /* \"#utility.yul\":10315:10393   */\n      tag_313\n      jump\t// in\n    tag_463:\n        /* \"#utility.yul\":10307:10393   */\n      swap1\n      pop\n        /* \"#utility.yul\":10087:10400   */\n      swap3\n      swap2\n      pop\n      pop\n      jump\t// out\n        /* \"#utility.yul\":10406:11225   */\n    tag_74:\n        /* \"#utility.yul\":10495:10501   */\n      0x00\n        /* \"#utility.yul\":10503:10509   */\n      dup1\n        /* \"#utility.yul\":10511:10517   */\n      0x00\n        /* \"#utility.yul\":10519:10525   */\n      dup1\n        /* \"#utility.yul\":10568:10570   */\n      0x60\n        /* \"#utility.yul\":10556:10565   */\n      dup6\n        /* \"#utility.yul\":10547:10554   */\n      dup8\n        /* \"#utility.yul\":10543:10566   */\n      sub\n        /* \"#utility.yul\":10539:10571   */\n      slt\n        /* \"#utility.yul\":10536:10655   */\n      iszero\n      tag_465\n      jumpi\n        /* \"#utility.yul\":10574:10653   */\n      tag_466\n      tag_284\n      jump\t// in\n    tag_466:\n        /* \"#utility.yul\":10536:10655   */\n    tag_465:\n        /* \"#utility.yul\":10722:10723   */\n      0x00\n        /* \"#utility.yul\":10711:10720   */\n      dup6\n        /* \"#utility.yul\":10707:10724   */\n      add\n        /* \"#utility.yul\":10694:10725   */\n      calldataload\n        /* \"#utility.yul\":10752:10770   */\n      0xffffffffffffffff\n        /* \"#utility.yul\":10744:10750   */\n      dup2\n        /* \"#utility.yul\":10741:10771   */\n      gt\n        /* \"#utility.yul\":10738:10855   */\n      iszero\n      tag_467\n      jumpi\n        /* \"#utility.yul\":10774:10853   */\n      tag_468\n      tag_285\n      jump\t// in\n    tag_468:\n        /* \"#utility.yul\":10738:10855   */\n    tag_467:\n        /* \"#utility.yul\":10887:10952   */\n      tag_469\n        /* \"#utility.yul\":10944:10951   */\n      dup8\n        /* \"#utility.yul\":10935:10941   */\n      dup3\n        /* \"#utility.yul\":10924:10933   */\n      dup9\n        /* \"#utility.yul\":10920:10942   */\n      add\n        /* \"#utility.yul\":10887:10952   */\n      tag_289\n      jump\t// in\n    tag_469:\n        /* \"#utility.yul\":10869:10952   */\n      swap5\n      pop\n      swap5\n      pop\n        /* \"#utility.yul\":10665:10962   */\n      pop\n        /* \"#utility.yul\":11001:11003   */\n      0x20\n        /* \"#utility.yul\":11027:11080   */\n      tag_470\n        /* \"#utility.yul\":11072:11079   */\n      dup8\n        /* \"#utility.yul\":11063:11069   */\n      dup3\n        /* \"#utility.yul\":11052:11061   */\n      dup9\n        /* \"#utility.yul\":11048:11070   */\n      add\n        /* \"#utility.yul\":11027:11080   */\n      tag_300\n      jump\t// in\n    tag_470:\n        /* \"#utility.yul\":11017:11080   */\n      swap3\n      pop\n        /* \"#utility.yul\":10972:11090   */\n      pop\n        /* \"#utility.yul\":11129:11131   */\n      0x40\n        /* \"#utility.yul\":11155:11208   */\n      tag_471\n        /* \"#utility.yul\":11200:11207   */\n      dup8\n        /* \"#utility.yul\":11191:11197   */\n      dup3\n        /* \"#utility.yul\":11180:11189   */\n      dup9\n        /* \"#utility.yul\":11176:11198   */\n      add\n        /* \"#utility.yul\":11155:11208   */\n      tag_292\n      jump\t// in\n    tag_471:\n        /* \"#utility.yul\":11145:11208   */\n      swap2\n      pop\n        /* \"#utility.yul\":11100:11218   */\n      pop\n        /* \"#utility.yul\":10406:11225   */\n      swap3\n      swap6\n      swap2\n      swap5\n      pop\n      swap3\n      pop\n      jump\t// out\n        /* \"#utility.yul\":11231:11379   */\n    tag_314:\n        /* \"#utility.yul\":11333:11344   */\n      0x00\n        /* \"#utility.yul\":11370:11373   */\n      dup2\n        /* \"#utility.yul\":11355:11373   */\n      swap1\n      pop\n        /* \"#utility.yul\":11231:11379   */\n      swap3\n      swap2\n      pop\n      pop\n      jump\t// out\n        /* \"#utility.yul\":11385:11775   */\n    tag_315:\n        /* \"#utility.yul\":11491:11494   */\n      0x00\n        /* \"#utility.yul\":11519:11558   */\n      tag_474\n        /* \"#utility.yul\":11552:11557   */\n      dup3\n        /* \"#utility.yul\":11519:11558   */\n      tag_304\n      jump\t// in\n    tag_474:\n        /* \"#utility.yul\":11574:11663   */\n      tag_475\n        /* \"#utility.yul\":11656:11662   */\n      dup2\n        /* \"#utility.yul\":11651:11654   */\n      dup6\n        /* \"#utility.yul\":11574:11663   */\n      tag_314\n      jump\t// in\n    tag_475:\n        /* \"#utility.yul\":11567:11663   */\n      swap4\n      pop\n        /* \"#utility.yul\":11672:11737   */\n      tag_476\n        /* \"#utility.yul\":11730:11736   */\n      dup2\n        /* \"#utility.yul\":11725:11728   */\n      dup6\n        /* \"#utility.yul\":11718:11722   */\n      0x20\n        /* \"#utility.yul\":11711:11716   */\n      dup7\n        /* \"#utility.yul\":11707:11723   */\n      add\n        /* \"#utility.yul\":11672:11737   */\n      tag_306\n      jump\t// in\n    tag_476:\n        /* \"#utility.yul\":11762:11768   */\n      dup1\n        /* \"#utility.yul\":11757:11760   */\n      dup5\n        /* \"#utility.yul\":11753:11769   */\n      add\n        /* \"#utility.yul\":11746:11769   */\n      swap2\n      pop\n        /* \"#utility.yul\":11495:11775   */\n      pop\n        /* \"#utility.yul\":11385:11775   */\n      swap3\n      swap2\n      pop\n      pop\n      jump\t// out\n        /* \"#utility.yul\":11781:11961   */\n    tag_316:\n        /* \"#utility.yul\":11829:11906   */\n      0x4e487b7100000000000000000000000000000000000000000000000000000000\n        /* \"#utility.yul\":11826:11827   */\n      0x00\n        /* \"#utility.yul\":11819:11907   */\n      mstore\n        /* \"#utility.yul\":11926:11930   */\n      0x22\n        /* \"#utility.yul\":11923:11924   */\n      0x04\n        /* \"#utility.yul\":11916:11931   */\n      mstore\n        /* \"#utility.yul\":11950:11954   */\n      0x24\n        /* \"#utility.yul\":11947:11948   */\n      0x00\n        /* \"#utility.yul\":11940:11955   */\n      revert\n        /* \"#utility.yul\":11967:12287   */\n    tag_160:\n        /* \"#utility.yul\":12011:12017   */\n      0x00\n        /* \"#utility.yul\":12048:12049   */\n      0x02\n        /* \"#utility.yul\":12042:12046   */\n      dup3\n        /* \"#utility.yul\":12038:12050   */\n      div\n        /* \"#utility.yul\":12028:12050   */\n      swap1\n      pop\n        /* \"#utility.yul\":12095:12096   */\n      0x01\n        /* \"#utility.yul\":12089:12093   */\n      dup3\n        /* \"#utility.yul\":12085:12097   */\n      and\n        /* \"#utility.yul\":12116:12134   */\n      dup1\n        /* \"#utility.yul\":12106:12187   */\n      tag_479\n      jumpi\n        /* \"#utility.yul\":12172:12176   */\n      0x7f\n        /* \"#utility.yul\":12164:12170   */\n      dup3\n        /* \"#utility.yul\":12160:12177   */\n      and\n        /* \"#utility.yul\":12150:12177   */\n      swap2\n      pop\n        /* \"#utility.yul\":12106:12187   */\n    tag_479:\n        /* \"#utility.yul\":12234:12236   */\n      0x20\n        /* \"#utility.yul\":12226:12232   */\n      dup3\n        /* \"#utility.yul\":12223:12237   */\n      lt\n        /* \"#utility.yul\":12203:12221   */\n      dup2\n        /* \"#utility.yul\":12200:12238   */\n      sub\n        /* \"#utility.yul\":12197:12281   */\n      tag_480\n      jumpi\n        /* \"#utility.yul\":12253:12271   */\n      tag_481\n      tag_316\n      jump\t// in\n    tag_481:\n        /* \"#utility.yul\":12197:12281   */\n    tag_480:\n        /* \"#utility.yul\":12018:12287   */\n      pop\n        /* \"#utility.yul\":11967:12287   */\n      swap2\n      swap1\n      pop\n      jump\t// out\n        /* \"#utility.yul\":12293:12434   */\n    tag_317:\n        /* \"#utility.yul\":12342:12346   */\n      0x00\n        /* \"#utility.yul\":12365:12368   */\n      dup2\n        /* \"#utility.yul\":12357:12368   */\n      swap1\n      pop\n        /* \"#utility.yul\":12388:12391   */\n      dup2\n        /* \"#utility.yul\":12385:12386   */\n      0x00\n        /* \"#utility.yul\":12378:12392   */\n      mstore\n        /* \"#utility.yul\":12422:12426   */\n      0x20\n        /* \"#utility.yul\":12419:12420   */\n      0x00\n        /* \"#utility.yul\":12409:12427   */\n      keccak256\n        /* \"#utility.yul\":12401:12427   */\n      swap1\n      pop\n        /* \"#utility.yul\":12293:12434   */\n      swap2\n      swap1\n      pop\n      jump\t// out\n        /* \"#utility.yul\":12464:13338   */\n    tag_318:\n        /* \"#utility.yul\":12567:12570   */\n      0x00\n        /* \"#utility.yul\":12604:12609   */\n      dup2\n        /* \"#utility.yul\":12598:12610   */\n      sload\n        /* \"#utility.yul\":12633:12669   */\n      tag_484\n        /* \"#utility.yul\":12659:12668   */\n      dup2\n        /* \"#utility.yul\":12633:12669   */\n      tag_160\n      jump\t// in\n    tag_484:\n        /* \"#utility.yul\":12685:12774   */\n      tag_485\n        /* \"#utility.yul\":12767:12773   */\n      dup2\n        /* \"#utility.yul\":12762:12765   */\n      dup7\n        /* \"#utility.yul\":12685:12774   */\n      tag_314\n      jump\t// in\n    tag_485:\n        /* \"#utility.yul\":12678:12774   */\n      swap5\n      pop\n        /* \"#utility.yul\":12805:12806   */\n      0x01\n        /* \"#utility.yul\":12794:12803   */\n      dup3\n        /* \"#utility.yul\":12790:12807   */\n      and\n        /* \"#utility.yul\":12821:12822   */\n      0x00\n        /* \"#utility.yul\":12816:12982   */\n      dup2\n      eq\n      tag_487\n      jumpi\n        /* \"#utility.yul\":12996:12997   */\n      0x01\n        /* \"#utility.yul\":12991:13332   */\n      dup2\n      eq\n      tag_488\n      jumpi\n        /* \"#utility.yul\":12783:13332   */\n      jump(tag_486)\n        /* \"#utility.yul\":12816:12982   */\n    tag_487:\n        /* \"#utility.yul\":12900:12904   */\n      0xff\n        /* \"#utility.yul\":12896:12905   */\n      not\n        /* \"#utility.yul\":12885:12894   */\n      dup4\n        /* \"#utility.yul\":12881:12906   */\n      and\n        /* \"#utility.yul\":12876:12879   */\n      dup7\n        /* \"#utility.yul\":12869:12907   */\n      mstore\n        /* \"#utility.yul\":12962:12968   */\n      dup2\n        /* \"#utility.yul\":12955:12969   */\n      iszero\n        /* \"#utility.yul\":12948:12970   */\n      iszero\n        /* \"#utility.yul\":12940:12946   */\n      dup3\n        /* \"#utility.yul\":12936:12971   */\n      mul\n        /* \"#utility.yul\":12931:12934   */\n      dup7\n        /* \"#utility.yul\":12927:12972   */\n      add\n        /* \"#utility.yul\":12920:12972   */\n      swap4\n      pop\n        /* \"#utility.yul\":12816:12982   */\n      jump(tag_486)\n        /* \"#utility.yul\":12991:13332   */\n    tag_488:\n        /* \"#utility.yul\":13058:13096   */\n      tag_489\n        /* \"#utility.yul\":13090:13095   */\n      dup6\n        /* \"#utility.yul\":13058:13096   */\n      tag_317\n      jump\t// in\n    tag_489:\n        /* \"#utility.yul\":13118:13119   */\n      0x00\n        /* \"#utility.yul\":13132:13286   */\n    tag_490:\n        /* \"#utility.yul\":13146:13152   */\n      dup4\n        /* \"#utility.yul\":13143:13144   */\n      dup2\n        /* \"#utility.yul\":13140:13153   */\n      lt\n        /* \"#utility.yul\":13132:13286   */\n      iszero\n      tag_492\n      jumpi\n        /* \"#utility.yul\":13220:13227   */\n      dup2\n        /* \"#utility.yul\":13214:13228   */\n      sload\n        /* \"#utility.yul\":13210:13211   */\n      dup2\n        /* \"#utility.yul\":13205:13208   */\n      dup10\n        /* \"#utility.yul\":13201:13212   */\n      add\n        /* \"#utility.yul\":13194:13229   */\n      mstore\n        /* \"#utility.yul\":13270:13271   */\n      0x01\n        /* \"#utility.yul\":13261:13268   */\n      dup3\n        /* \"#utility.yul\":13257:13272   */\n      add\n        /* \"#utility.yul\":13246:13272   */\n      swap2\n      pop\n        /* \"#utility.yul\":13168:13172   */\n      0x20\n        /* \"#utility.yul\":13165:13166   */\n      dup2\n        /* \"#utility.yul\":13161:13173   */\n      add\n        /* \"#utility.yul\":13156:13173   */\n      swap1\n      pop\n        /* \"#utility.yul\":13132:13286   */\n      jump(tag_490)\n    tag_492:\n        /* \"#utility.yul\":13315:13321   */\n      dup4\n        /* \"#utility.yul\":13310:13313   */\n      dup9\n        /* \"#utility.yul\":13306:13322   */\n      add\n        /* \"#utility.yul\":13299:13322   */\n      swap6\n      pop\n        /* \"#utility.yul\":12998:13332   */\n      pop\n      pop\n        /* \"#utility.yul\":12783:13332   */\n    tag_486:\n      pop\n        /* \"#utility.yul\":12571:13338   */\n      pop\n      pop\n        /* \"#utility.yul\":12464:13338   */\n      swap3\n      swap2\n      pop\n      pop\n      jump\t// out\n        /* \"#utility.yul\":13344:13773   */\n    tag_78:\n        /* \"#utility.yul\":13521:13524   */\n      0x00\n        /* \"#utility.yul\":13543:13638   */\n      tag_494\n        /* \"#utility.yul\":13634:13637   */\n      dup3\n        /* \"#utility.yul\":13625:13631   */\n      dup6\n        /* \"#utility.yul\":13543:13638   */\n      tag_315\n      jump\t// in\n    tag_494:\n        /* \"#utility.yul\":13536:13638   */\n      swap2\n      pop\n        /* \"#utility.yul\":13655:13747   */\n      tag_495\n        /* \"#utility.yul\":13743:13746   */\n      dup3\n        /* \"#utility.yul\":13734:13740   */\n      dup5\n        /* \"#utility.yul\":13655:13747   */\n      tag_318\n      jump\t// in\n    tag_495:\n        /* \"#utility.yul\":13648:13747   */\n      swap2\n      pop\n        /* \"#utility.yul\":13764:13767   */\n      dup2\n        /* \"#utility.yul\":13757:13767   */\n      swap1\n      pop\n        /* \"#utility.yul\":13344:13773   */\n      swap4\n      swap3\n      pop\n      pop\n      pop\n      jump\t// out\n        /* \"#utility.yul\":13779:14054   */\n    tag_80:\n        /* \"#utility.yul\":13911:13914   */\n      0x00\n        /* \"#utility.yul\":13933:14028   */\n      tag_497\n        /* \"#utility.yul\":14024:14027   */\n      dup3\n        /* \"#utility.yul\":14015:14021   */\n      dup5\n        /* \"#utility.yul\":13933:14028   */\n      tag_315\n      jump\t// in\n    tag_497:\n        /* \"#utility.yul\":13926:14028   */\n      swap2\n      pop\n        /* \"#utility.yul\":14045:14048   */\n      dup2\n        /* \"#utility.yul\":14038:14048   */\n      swap1\n      pop\n        /* \"#utility.yul\":13779:14054   */\n      swap3\n      swap2\n      pop\n      pop\n      jump\t// out\n        /* \"#utility.yul\":14060:14284   */\n    tag_319:\n        /* \"#utility.yul\":14200:14234   */\n      0x596f7520617265206e6f7420746865206f776e6572206f66207468697320646f\n        /* \"#utility.yul\":14196:14197   */\n      0x00\n        /* \"#utility.yul\":14188:14194   */\n      dup3\n        /* \"#utility.yul\":14184:14198   */\n      add\n        /* \"#utility.yul\":14177:14235   */\n      mstore\n        /* \"#utility.yul\":14269:14276   */\n      0x6d61696e2e000000000000000000000000000000000000000000000000000000\n        /* \"#utility.yul\":14264:14266   */\n      0x20\n        /* \"#utility.yul\":14256:14262   */\n      dup3\n        /* \"#utility.yul\":14252:14267   */\n      add\n        /* \"#utility.yul\":14245:14277   */\n      mstore\n        /* \"#utility.yul\":14060:14284   */\n      pop\n      jump\t// out\n        /* \"#utility.yul\":14290:14656   */\n    tag_320:\n        /* \"#utility.yul\":14432:14435   */\n      0x00\n        /* \"#utility.yul\":14453:14520   */\n      tag_500\n        /* \"#utility.yul\":14517:14519   */\n      0x25\n        /* \"#utility.yul\":14512:14515   */\n      dup4\n        /* \"#utility.yul\":14453:14520   */\n      tag_312\n      jump\t// in\n    tag_500:\n        /* \"#utility.yul\":14446:14520   */\n      swap2\n      pop\n        /* \"#utility.yul\":14529:14622   */\n      tag_501\n        /* \"#utility.yul\":14618:14621   */\n      dup3\n        /* \"#utility.yul\":14529:14622   */\n      tag_319\n      jump\t// in\n    tag_501:\n        /* \"#utility.yul\":14647:14649   */\n      0x40\n        /* \"#utility.yul\":14642:14645   */\n      dup3\n        /* \"#utility.yul\":14638:14650   */\n      add\n        /* \"#utility.yul\":14631:14650   */\n      swap1\n      pop\n        /* \"#utility.yul\":14290:14656   */\n      swap2\n      swap1\n      pop\n      jump\t// out\n        /* \"#utility.yul\":14662:15081   */\n    tag_83:\n        /* \"#utility.yul\":14828:14832   */\n      0x00\n        /* \"#utility.yul\":14866:14868   */\n      0x20\n        /* \"#utility.yul\":14855:14864   */\n      dup3\n        /* \"#utility.yul\":14851:14869   */\n      add\n        /* \"#utility.yul\":14843:14869   */\n      swap1\n      pop\n        /* \"#utility.yul\":14915:14924   */\n      dup2\n        /* \"#utility.yul\":14909:14913   */\n      dup2\n        /* \"#utility.yul\":14905:14925   */\n      sub\n        /* \"#utility.yul\":14901:14902   */\n      0x00\n        /* \"#utility.yul\":14890:14899   */\n      dup4\n        /* \"#utility.yul\":14886:14903   */\n      add\n        /* \"#utility.yul\":14879:14926   */\n      mstore\n        /* \"#utility.yul\":14943:15074   */\n      tag_503\n        /* \"#utility.yul\":15069:15073   */\n      dup2\n        /* \"#utility.yul\":14943:15074   */\n      tag_320\n      jump\t// in\n    tag_503:\n        /* \"#utility.yul\":14935:15074   */\n      swap1\n      pop\n        /* \"#utility.yul\":14662:15081   */\n      swap2\n      swap1\n      pop\n      jump\t// out\n        /* \"#utility.yul\":15087:15267   */\n    tag_321:\n        /* \"#utility.yul\":15135:15212   */\n      0x4e487b7100000000000000000000000000000000000000000000000000000000\n        /* \"#utility.yul\":15132:15133   */\n      0x00\n        /* \"#utility.yul\":15125:15213   */\n      mstore\n        /* \"#utility.yul\":15232:15236   */\n      0x11\n        /* \"#utility.yul\":15229:15230   */\n      0x04\n        /* \"#utility.yul\":15222:15237   */\n      mstore\n        /* \"#utility.yul\":15256:15260   */\n      0x24\n        /* \"#utility.yul\":15253:15254   */\n      0x00\n        /* \"#utility.yul\":15246:15261   */\n      revert\n        /* \"#utility.yul\":15273:15683   */\n    tag_89:\n        /* \"#utility.yul\":15313:15320   */\n      0x00\n        /* \"#utility.yul\":15336:15356   */\n      tag_506\n        /* \"#utility.yul\":15354:15355   */\n      dup3\n        /* \"#utility.yul\":15336:15356   */\n      tag_290\n      jump\t// in\n    tag_506:\n        /* \"#utility.yul\":15331:15356   */\n      swap2\n      pop\n        /* \"#utility.yul\":15370:15390   */\n      tag_507\n        /* \"#utility.yul\":15388:15389   */\n      dup4\n        /* \"#utility.yul\":15370:15390   */\n      tag_290\n      jump\t// in\n    tag_507:\n        /* \"#utility.yul\":15365:15390   */\n      swap3\n      pop\n        /* \"#utility.yul\":15425:15426   */\n      dup3\n        /* \"#utility.yul\":15422:15423   */\n      dup3\n        /* \"#utility.yul\":15418:15427   */\n      mul\n        /* \"#utility.yul\":15447:15477   */\n      tag_508\n        /* \"#utility.yul\":15465:15476   */\n      dup2\n        /* \"#utility.yul\":15447:15477   */\n      tag_290\n      jump\t// in\n    tag_508:\n        /* \"#utility.yul\":15436:15477   */\n      swap2\n      pop\n        /* \"#utility.yul\":15626:15627   */\n      dup3\n        /* \"#utility.yul\":15617:15624   */\n      dup3\n        /* \"#utility.yul\":15613:15628   */\n      div\n        /* \"#utility.yul\":15610:15611   */\n      dup5\n        /* \"#utility.yul\":15607:15629   */\n      eq\n        /* \"#utility.yul\":15587:15588   */\n      dup4\n        /* \"#utility.yul\":15580:15589   */\n      iszero\n        /* \"#utility.yul\":15560:15643   */\n      or\n        /* \"#utility.yul\":15537:15676   */\n      tag_509\n      jumpi\n        /* \"#utility.yul\":15656:15674   */\n      tag_510\n      tag_321\n      jump\t// in\n    tag_510:\n        /* \"#utility.yul\":15537:15676   */\n    tag_509:\n        /* \"#utility.yul\":15321:15683   */\n      pop\n        /* \"#utility.yul\":15273:15683   */\n      swap3\n      swap2\n      pop\n      pop\n      jump\t// out\n        /* \"#utility.yul\":15689:15938   */\n    tag_322:\n        /* \"#utility.yul\":15829:15863   */\n      0x496e73756666696369656e742066756e647320746f2072656e65772074686520\n        /* \"#utility.yul\":15825:15826   */\n      0x00\n        /* \"#utility.yul\":15817:15823   */\n      dup3\n        /* \"#utility.yul\":15813:15827   */\n      add\n        /* \"#utility.yul\":15806:15864   */\n      mstore\n        /* \"#utility.yul\":15898:15930   */\n      0x646f6d61696e20666f7220746865207370656369666965642079656172730000\n        /* \"#utility.yul\":15893:15895   */\n      0x20\n        /* \"#utility.yul\":15885:15891   */\n      dup3\n        /* \"#utility.yul\":15881:15896   */\n      add\n        /* \"#utility.yul\":15874:15931   */\n      mstore\n        /* \"#utility.yul\":15689:15938   */\n      pop\n      jump\t// out\n        /* \"#utility.yul\":15944:16310   */\n    tag_323:\n        /* \"#utility.yul\":16086:16089   */\n      0x00\n        /* \"#utility.yul\":16107:16174   */\n      tag_513\n        /* \"#utility.yul\":16171:16173   */\n      0x3e\n        /* \"#utility.yul\":16166:16169   */\n      dup4\n        /* \"#utility.yul\":16107:16174   */\n      tag_312\n      jump\t// in\n    tag_513:\n        /* \"#utility.yul\":16100:16174   */\n      swap2\n      pop\n        /* \"#utility.yul\":16183:16276   */\n      tag_514\n        /* \"#utility.yul\":16272:16275   */\n      dup3\n        /* \"#utility.yul\":16183:16276   */\n      tag_322\n      jump\t// in\n    tag_514:\n        /* \"#utility.yul\":16301:16303   */\n      0x40\n        /* \"#utility.yul\":16296:16299   */\n      dup3\n        /* \"#utility.yul\":16292:16304   */\n      add\n        /* \"#utility.yul\":16285:16304   */\n      swap1\n      pop\n        /* \"#utility.yul\":15944:16310   */\n      swap2\n      swap1\n      pop\n      jump\t// out\n        /* \"#utility.yul\":16316:16735   */\n    tag_92:\n        /* \"#utility.yul\":16482:16486   */\n      0x00\n        /* \"#utility.yul\":16520:16522   */\n      0x20\n        /* \"#utility.yul\":16509:16518   */\n      dup3\n        /* \"#utility.yul\":16505:16523   */\n      add\n        /* \"#utility.yul\":16497:16523   */\n      swap1\n      pop\n        /* \"#utility.yul\":16569:16578   */\n      dup2\n        /* \"#utility.yul\":16563:16567   */\n      dup2\n        /* \"#utility.yul\":16559:16579   */\n      sub\n        /* \"#utility.yul\":16555:16556   */\n      0x00\n        /* \"#utility.yul\":16544:16553   */\n      dup4\n        /* \"#utility.yul\":16540:16557   */\n      add\n        /* \"#utility.yul\":16533:16580   */\n      mstore\n        /* \"#utility.yul\":16597:16728   */\n      tag_516\n        /* \"#utility.yul\":16723:16727   */\n      dup2\n        /* \"#utility.yul\":16597:16728   */\n      tag_323\n      jump\t// in\n    tag_516:\n        /* \"#utility.yul\":16589:16728   */\n      swap1\n      pop\n        /* \"#utility.yul\":16316:16735   */\n      swap2\n      swap1\n      pop\n      jump\t// out\n        /* \"#utility.yul\":16741:16932   */\n    tag_96:\n        /* \"#utility.yul\":16781:16784   */\n      0x00\n        /* \"#utility.yul\":16800:16820   */\n      tag_518\n        /* \"#utility.yul\":16818:16819   */\n      dup3\n        /* \"#utility.yul\":16800:16820   */\n      tag_290\n      jump\t// in\n    tag_518:\n        /* \"#utility.yul\":16795:16820   */\n      swap2\n      pop\n        /* \"#utility.yul\":16834:16854   */\n      tag_519\n        /* \"#utility.yul\":16852:16853   */\n      dup4\n        /* \"#utility.yul\":16834:16854   */\n      tag_290\n      jump\t// in\n    tag_519:\n        /* \"#utility.yul\":16829:16854   */\n      swap3\n      pop\n        /* \"#utility.yul\":16877:16878   */\n      dup3\n        /* \"#utility.yul\":16874:16875   */\n      dup3\n        /* \"#utility.yul\":16870:16879   */\n      add\n        /* \"#utility.yul\":16863:16879   */\n      swap1\n      pop\n        /* \"#utility.yul\":16898:16901   */\n      dup1\n        /* \"#utility.yul\":16895:16896   */\n      dup3\n        /* \"#utility.yul\":16892:16902   */\n      gt\n        /* \"#utility.yul\":16889:16925   */\n      iszero\n      tag_520\n      jumpi\n        /* \"#utility.yul\":16905:16923   */\n      tag_521\n      tag_321\n      jump\t// in\n    tag_521:\n        /* \"#utility.yul\":16889:16925   */\n    tag_520:\n        /* \"#utility.yul\":16741:16932   */\n      swap3\n      swap2\n      pop\n      pop\n      jump\t// out\n        /* \"#utility.yul\":16938:17361   */\n    tag_99:\n        /* \"#utility.yul\":17079:17083   */\n      0x00\n        /* \"#utility.yul\":17117:17119   */\n      0x40\n        /* \"#utility.yul\":17106:17115   */\n      dup3\n        /* \"#utility.yul\":17102:17120   */\n      add\n        /* \"#utility.yul\":17094:17120   */\n      swap1\n      pop\n        /* \"#utility.yul\":17166:17175   */\n      dup2\n        /* \"#utility.yul\":17160:17164   */\n      dup2\n        /* \"#utility.yul\":17156:17176   */\n      sub\n        /* \"#utility.yul\":17152:17153   */\n      0x00\n        /* \"#utility.yul\":17141:17150   */\n      dup4\n        /* \"#utility.yul\":17137:17154   */\n      add\n        /* \"#utility.yul\":17130:17177   */\n      mstore\n        /* \"#utility.yul\":17194:17272   */\n      tag_523\n        /* \"#utility.yul\":17267:17271   */\n      dup2\n        /* \"#utility.yul\":17258:17264   */\n      dup6\n        /* \"#utility.yul\":17194:17272   */\n      tag_313\n      jump\t// in\n    tag_523:\n        /* \"#utility.yul\":17186:17272   */\n      swap1\n      pop\n        /* \"#utility.yul\":17282:17354   */\n      tag_524\n        /* \"#utility.yul\":17350:17352   */\n      0x20\n        /* \"#utility.yul\":17339:17348   */\n      dup4\n        /* \"#utility.yul\":17335:17353   */\n      add\n        /* \"#utility.yul\":17326:17332   */\n      dup5\n        /* \"#utility.yul\":17282:17354   */\n      tag_298\n      jump\t// in\n    tag_524:\n        /* \"#utility.yul\":16938:17361   */\n      swap4\n      swap3\n      pop\n      pop\n      pop\n      jump\t// out\n        /* \"#utility.yul\":17367:17561   */\n    tag_102:\n        /* \"#utility.yul\":17407:17411   */\n      0x00\n        /* \"#utility.yul\":17427:17447   */\n      tag_526\n        /* \"#utility.yul\":17445:17446   */\n      dup3\n        /* \"#utility.yul\":17427:17447   */\n      tag_290\n      jump\t// in\n    tag_526:\n        /* \"#utility.yul\":17422:17447   */\n      swap2\n      pop\n        /* \"#utility.yul\":17461:17481   */\n      tag_527\n        /* \"#utility.yul\":17479:17480   */\n      dup4\n        /* \"#utility.yul\":17461:17481   */\n      tag_290\n      jump\t// in\n    tag_527:\n        /* \"#utility.yul\":17456:17481   */\n      swap3\n      pop\n        /* \"#utility.yul\":17505:17506   */\n      dup3\n        /* \"#utility.yul\":17502:17503   */\n      dup3\n        /* \"#utility.yul\":17498:17507   */\n      sub\n        /* \"#utility.yul\":17490:17507   */\n      swap1\n      pop\n        /* \"#utility.yul\":17529:17530   */\n      dup2\n        /* \"#utility.yul\":17523:17527   */\n      dup2\n        /* \"#utility.yul\":17520:17531   */\n      gt\n        /* \"#utility.yul\":17517:17554   */\n      iszero\n      tag_528\n      jumpi\n        /* \"#utility.yul\":17534:17552   */\n      tag_529\n      tag_321\n      jump\t// in\n    tag_529:\n        /* \"#utility.yul\":17517:17554   */\n    tag_528:\n        /* \"#utility.yul\":17367:17561   */\n      swap3\n      swap2\n      pop\n      pop\n      jump\t// out\n        /* \"#utility.yul\":17567:17801   */\n    tag_324:\n        /* \"#utility.yul\":17707:17741   */\n      0x4f6e6c792074686520636f6e7472616374206f776e65722063616e2063616c6c\n        /* \"#utility.yul\":17703:17704   */\n      0x00\n        /* \"#utility.yul\":17695:17701   */\n      dup3\n        /* \"#utility.yul\":17691:17705   */\n      add\n        /* \"#utility.yul\":17684:17742   */\n      mstore\n        /* \"#utility.yul\":17776:17793   */\n      0x20746869732066756e6374696f6e2e0000000000000000000000000000000000\n        /* \"#utility.yul\":17771:17773   */\n      0x20\n        /* \"#utility.yul\":17763:17769   */\n      dup3\n        /* \"#utility.yul\":17759:17774   */\n      add\n        /* \"#utility.yul\":17752:17794   */\n      mstore\n        /* \"#utility.yul\":17567:17801   */\n      pop\n      jump\t// out\n        /* \"#utility.yul\":17807:18173   */\n    tag_325:\n        /* \"#utility.yul\":17949:17952   */\n      0x00\n        /* \"#utility.yul\":17970:18037   */\n      tag_532\n        /* \"#utility.yul\":18034:18036   */\n      0x2f\n        /* \"#utility.yul\":18029:18032   */\n      dup4\n        /* \"#utility.yul\":17970:18037   */\n      tag_312\n      jump\t// in\n    tag_532:\n        /* \"#utility.yul\":17963:18037   */\n      swap2\n      pop\n        /* \"#utility.yul\":18046:18139   */\n      tag_533\n        /* \"#utility.yul\":18135:18138   */\n      dup3\n        /* \"#utility.yul\":18046:18139   */\n      tag_324\n      jump\t// in\n    tag_533:\n        /* \"#utility.yul\":18164:18166   */\n      0x40\n        /* \"#utility.yul\":18159:18162   */\n      dup3\n        /* \"#utility.yul\":18155:18167   */\n      add\n        /* \"#utility.yul\":18148:18167   */\n      swap1\n      pop\n        /* \"#utility.yul\":17807:18173   */\n      swap2\n      swap1\n      pop\n      jump\t// out\n        /* \"#utility.yul\":18179:18598   */\n    tag_118:\n        /* \"#utility.yul\":18345:18349   */\n      0x00\n        /* \"#utility.yul\":18383:18385   */\n      0x20\n        /* \"#utility.yul\":18372:18381   */\n      dup3\n        /* \"#utility.yul\":18368:18386   */\n      add\n        /* \"#utility.yul\":18360:18386   */\n      swap1\n      pop\n        /* \"#utility.yul\":18432:18441   */\n      dup2\n        /* \"#utility.yul\":18426:18430   */\n      dup2\n        /* \"#utility.yul\":18422:18442   */\n      sub\n        /* \"#utility.yul\":18418:18419   */\n      0x00\n        /* \"#utility.yul\":18407:18416   */\n      dup4\n        /* \"#utility.yul\":18403:18420   */\n      add\n        /* \"#utility.yul\":18396:18443   */\n      mstore\n        /* \"#utility.yul\":18460:18591   */\n      tag_535\n        /* \"#utility.yul\":18586:18590   */\n      dup2\n        /* \"#utility.yul\":18460:18591   */\n      tag_325\n      jump\t// in\n    tag_535:\n        /* \"#utility.yul\":18452:18591   */\n      swap1\n      pop\n        /* \"#utility.yul\":18179:18598   */\n      swap2\n      swap1\n      pop\n      jump\t// out\n        /* \"#utility.yul\":18604:18701   */\n    tag_326:\n        /* \"#utility.yul\":18663:18669   */\n      0x00\n        /* \"#utility.yul\":18691:18694   */\n      dup3\n        /* \"#utility.yul\":18681:18694   */\n      swap1\n      pop\n        /* \"#utility.yul\":18604:18701   */\n      swap3\n      swap2\n      pop\n      pop\n      jump\t// out\n        /* \"#utility.yul\":18707:18887   */\n    tag_204:\n        /* \"#utility.yul\":18755:18832   */\n      0x4e487b7100000000000000000000000000000000000000000000000000000000\n        /* \"#utility.yul\":18752:18753   */\n      0x00\n        /* \"#utility.yul\":18745:18833   */\n      mstore\n        /* \"#utility.yul\":18852:18856   */\n      0x41\n        /* \"#utility.yul\":18849:18850   */\n      0x04\n        /* \"#utility.yul\":18842:18857   */\n      mstore\n        /* \"#utility.yul\":18876:18880   */\n      0x24\n        /* \"#utility.yul\":18873:18874   */\n      0x00\n        /* \"#utility.yul\":18866:18881   */\n      revert\n        /* \"#utility.yul\":18893:18986   */\n    tag_327:\n        /* \"#utility.yul\":18930:18936   */\n      0x00\n        /* \"#utility.yul\":18977:18979   */\n      0x20\n        /* \"#utility.yul\":18972:18974   */\n      0x1f\n        /* \"#utility.yul\":18965:18970   */\n      dup4\n        /* \"#utility.yul\":18961:18975   */\n      add\n        /* \"#utility.yul\":18957:18980   */\n      div\n        /* \"#utility.yul\":18947:18980   */\n      swap1\n      pop\n        /* \"#utility.yul\":18893:18986   */\n      swap2\n      swap1\n      pop\n      jump\t// out\n        /* \"#utility.yul\":18992:19099   */\n    tag_328:\n        /* \"#utility.yul\":19036:19044   */\n      0x00\n        /* \"#utility.yul\":19086:19091   */\n      dup3\n        /* \"#utility.yul\":19080:19084   */\n      dup3\n        /* \"#utility.yul\":19076:19092   */\n      shl\n        /* \"#utility.yul\":19055:19092   */\n      swap1\n      pop\n        /* \"#utility.yul\":18992:19099   */\n      swap3\n      swap2\n      pop\n      pop\n      jump\t// out\n        /* \"#utility.yul\":19105:19498   */\n    tag_329:\n        /* \"#utility.yul\":19174:19180   */\n      0x00\n        /* \"#utility.yul\":19224:19225   */\n      0x08\n        /* \"#utility.yul\":19212:19222   */\n      dup4\n        /* \"#utility.yul\":19208:19226   */\n      mul\n        /* \"#utility.yul\":19247:19344   */\n      tag_541\n        /* \"#utility.yul\":19277:19343   */\n      0xffffffffffffffffffffffffffffffffffffffffffffffffffffffffffffffff\n        /* \"#utility.yul\":19266:19275   */\n      dup3\n        /* \"#utility.yul\":19247:19344   */\n      tag_328\n      jump\t// in\n    tag_541:\n        /* \"#utility.yul\":19365:19404   */\n      tag_542\n        /* \"#utility.yul\":19395:19403   */\n      dup7\n        /* \"#utility.yul\":19384:19393   */\n      dup4\n        /* \"#utility.yul\":19365:19404   */\n      tag_328\n      jump\t// in\n    tag_542:\n        /* \"#utility.yul\":19353:19404   */\n      swap6\n      pop\n        /* \"#utility.yul\":19437:19441   */\n      dup1\n        /* \"#utility.yul\":19433:19442   */\n      not\n        /* \"#utility.yul\":19426:19431   */\n      dup5\n        /* \"#utility.yul\":19422:19443   */\n      and\n        /* \"#utility.yul\":19413:19443   */\n      swap4\n      pop\n        /* \"#utility.yul\":19486:19490   */\n      dup1\n        /* \"#utility.yul\":19476:19484   */\n      dup7\n        /* \"#utility.yul\":19472:19491   */\n      and\n        /* \"#utility.yul\":19465:19470   */\n      dup5\n        /* \"#utility.yul\":19462:19492   */\n      or\n        /* \"#utility.yul\":19452:19492   */\n      swap3\n      pop\n        /* \"#utility.yul\":19181:19498   */\n      pop\n      pop\n        /* \"#utility.yul\":19105:19498   */\n      swap4\n      swap3\n      pop\n      pop\n      pop\n      jump\t// out\n        /* \"#utility.yul\":19504:19564   */\n    tag_330:\n        /* \"#utility.yul\":19532:19535   */\n      0x00\n        /* \"#utility.yul\":19553:19558   */\n      dup2\n        /* \"#utility.yul\":19546:19558   */\n      swap1\n      pop\n        /* \"#utility.yul\":19504:19564   */\n      swap2\n      swap1\n      pop\n      jump\t// out\n        /* \"#utility.yul\":19570:19712   */\n    tag_331:\n        /* \"#utility.yul\":19620:19629   */\n      0x00\n        /* \"#utility.yul\":19653:19706   */\n      tag_545\n        /* \"#utility.yul\":19671:19705   */\n      tag_546\n        /* \"#utility.yul\":19680:19704   */\n      tag_547\n        /* \"#utility.yul\":19698:19703   */\n      dup5\n        /* \"#utility.yul\":19680:19704   */\n      tag_290\n      jump\t// in\n    tag_547:\n        /* \"#utility.yul\":19671:19705   */\n      tag_330\n      jump\t// in\n    tag_546:\n        /* \"#utility.yul\":19653:19706   */\n      tag_290\n      jump\t// in\n    tag_545:\n        /* \"#utility.yul\":19640:19706   */\n      swap1\n      pop\n        /* \"#utility.yul\":19570:19712   */\n      swap2\n      swap1\n      pop\n      jump\t// out\n        /* \"#utility.yul\":19718:19793   */\n    tag_332:\n        /* \"#utility.yul\":19761:19764   */\n      0x00\n        /* \"#utility.yul\":19782:19787   */\n      dup2\n        /* \"#utility.yul\":19775:19787   */\n      swap1\n      pop\n        /* \"#utility.yul\":19718:19793   */\n      swap2\n      swap1\n      pop\n      jump\t// out\n        /* \"#utility.yul\":19799:20068   */\n    tag_333:\n        /* \"#utility.yul\":19909:19948   */\n      tag_550\n        /* \"#utility.yul\":19940:19947   */\n      dup4\n        /* \"#utility.yul\":19909:19948   */\n      tag_331\n      jump\t// in\n    tag_550:\n        /* \"#utility.yul\":19970:20061   */\n      tag_551\n        /* \"#utility.yul\":20019:20060   */\n      tag_552\n        /* \"#utility.yul\":20043:20059   */\n      dup3\n        /* \"#utility.yul\":20019:20060   */\n      tag_332\n      jump\t// in\n    tag_552:\n        /* \"#utility.yul\":20011:20017   */\n      dup5\n        /* \"#utility.yul\":20004:20008   */\n      dup5\n        /* \"#utility.yul\":19998:20009   */\n      sload\n        /* \"#utility.yul\":19970:20061   */\n      tag_329\n      jump\t// in\n    tag_551:\n        /* \"#utility.yul\":19964:19968   */\n      dup3\n        /* \"#utility.yul\":19957:20062   */\n      sstore\n        /* \"#utility.yul\":19875:20068   */\n      pop\n        /* \"#utility.yul\":19799:20068   */\n      pop\n      pop\n      pop\n      jump\t// out\n        /* \"#utility.yul\":20074:20147   */\n    tag_334:\n        /* \"#utility.yul\":20119:20122   */\n      0x00\n        /* \"#utility.yul\":20074:20147   */\n      swap1\n      jump\t// out\n        /* \"#utility.yul\":20153:20342   */\n    tag_335:\n        /* \"#utility.yul\":20230:20262   */\n      tag_555\n      tag_334\n      jump\t// in\n    tag_555:\n        /* \"#utility.yul\":20271:20336   */\n      tag_556\n        /* \"#utility.yul\":20329:20335   */\n      dup2\n        /* \"#utility.yul\":20321:20327   */\n      dup5\n        /* \"#utility.yul\":20315:20319   */\n      dup5\n        /* \"#utility.yul\":20271:20336   */\n      tag_333\n      jump\t// in\n    tag_556:\n        /* \"#utility.yul\":20206:20342   */\n      pop\n        /* \"#utility.yul\":20153:20342   */\n      pop\n      pop\n      jump\t// out\n        /* \"#utility.yul\":20348:20534   */\n    tag_336:\n        /* \"#utility.yul\":20408:20528   */\n    tag_558:\n        /* \"#utility.yul\":20425:20428   */\n      dup2\n        /* \"#utility.yul\":20418:20423   */\n      dup2\n        /* \"#utility.yul\":20415:20429   */\n      lt\n        /* \"#utility.yul\":20408:20528   */\n      iszero\n      tag_560\n      jumpi\n        /* \"#utility.yul\":20479:20518   */\n      tag_561\n        /* \"#utility.yul\":20516:20517   */\n      0x00\n        /* \"#utility.yul\":20509:20514   */\n      dup3\n        /* \"#utility.yul\":20479:20518   */\n      tag_335\n      jump\t// in\n    tag_561:\n        /* \"#utility.yul\":20452:20453   */\n      0x01\n        /* \"#utility.yul\":20445:20450   */\n      dup2\n        /* \"#utility.yul\":20441:20454   */\n      add\n        /* \"#utility.yul\":20432:20454   */\n      swap1\n      pop\n        /* \"#utility.yul\":20408:20528   */\n      jump(tag_558)\n    tag_560:\n        /* \"#utility.yul\":20348:20534   */\n      pop\n      pop\n      jump\t// out\n        /* \"#utility.yul\":20540:21083   */\n    tag_337:\n        /* \"#utility.yul\":20641:20643   */\n      0x1f\n        /* \"#utility.yul\":20636:20639   */\n      dup3\n        /* \"#utility.yul\":20633:20644   */\n      gt\n        /* \"#utility.yul\":20630:21076   */\n      iszero\n      tag_563\n      jumpi\n        /* \"#utility.yul\":20675:20713   */\n      tag_564\n        /* \"#utility.yul\":20707:20712   */\n      dup2\n        /* \"#utility.yul\":20675:20713   */\n      tag_317\n      jump\t// in\n    tag_564:\n        /* \"#utility.yul\":20759:20788   */\n      tag_565\n        /* \"#utility.yul\":20777:20787   */\n      dup5\n        /* \"#utility.yul\":20759:20788   */\n      tag_327\n      jump\t// in\n    tag_565:\n        /* \"#utility.yul\":20749:20757   */\n      dup2\n        /* \"#utility.yul\":20745:20789   */\n      add\n        /* \"#utility.yul\":20942:20944   */\n      0x20\n        /* \"#utility.yul\":20930:20940   */\n      dup6\n        /* \"#utility.yul\":20927:20945   */\n      lt\n        /* \"#utility.yul\":20924:20973   */\n      iszero\n      tag_566\n      jumpi\n        /* \"#utility.yul\":20963:20971   */\n      dup2\n        /* \"#utility.yul\":20948:20971   */\n      swap1\n      pop\n        /* \"#utility.yul\":20924:20973   */\n    tag_566:\n        /* \"#utility.yul\":20986:21066   */\n      tag_567\n        /* \"#utility.yul\":21042:21064   */\n      tag_568\n        /* \"#utility.yul\":21060:21063   */\n      dup6\n        /* \"#utility.yul\":21042:21064   */\n      tag_327\n      jump\t// in\n    tag_568:\n        /* \"#utility.yul\":21032:21040   */\n      dup4\n        /* \"#utility.yul\":21028:21065   */\n      add\n        /* \"#utility.yul\":21015:21026   */\n      dup3\n        /* \"#utility.yul\":20986:21066   */\n      tag_336\n      jump\t// in\n    tag_567:\n        /* \"#utility.yul\":20645:21076   */\n      pop\n      pop\n        /* \"#utility.yul\":20630:21076   */\n    tag_563:\n        /* \"#utility.yul\":20540:21083   */\n      pop\n      pop\n      pop\n      jump\t// out\n        /* \"#utility.yul\":21089:21206   */\n    tag_338:\n        /* \"#utility.yul\":21143:21151   */\n      0x00\n        /* \"#utility.yul\":21193:21198   */\n      dup3\n        /* \"#utility.yul\":21187:21191   */\n      dup3\n        /* \"#utility.yul\":21183:21199   */\n      shr\n        /* \"#utility.yul\":21162:21199   */\n      swap1\n      pop\n        /* \"#utility.yul\":21089:21206   */\n      swap3\n      swap2\n      pop\n      pop\n      jump\t// out\n        /* \"#utility.yul\":21212:21381   */\n    tag_339:\n        /* \"#utility.yul\":21256:21262   */\n      0x00\n        /* \"#utility.yul\":21289:21340   */\n      tag_571\n        /* \"#utility.yul\":21337:21338   */\n      0x00\n        /* \"#utility.yul\":21333:21339   */\n      not\n        /* \"#utility.yul\":21325:21330   */\n      dup5\n        /* \"#utility.yul\":21322:21323   */\n      0x08\n        /* \"#utility.yul\":21318:21331   */\n      mul\n        /* \"#utility.yul\":21289:21340   */\n      tag_338\n      jump\t// in\n    tag_571:\n        /* \"#utility.yul\":21285:21341   */\n      not\n        /* \"#utility.yul\":21370:21374   */\n      dup1\n        /* \"#utility.yul\":21364:21368   */\n      dup4\n        /* \"#utility.yul\":21360:21375   */\n      and\n        /* \"#utility.yul\":21350:21375   */\n      swap2\n      pop\n        /* \"#utility.yul\":21263:21381   */\n      pop\n        /* \"#utility.yul\":21212:21381   */\n      swap3\n      swap2\n      pop\n      pop\n      jump\t// out\n        /* \"#utility.yul\":21386:21681   */\n    tag_340:\n        /* \"#utility.yul\":21462:21466   */\n      0x00\n        /* \"#utility.yul\":21608:21637   */\n      tag_573\n        /* \"#utility.yul\":21633:21636   */\n      dup4\n        /* \"#utility.yul\":21627:21631   */\n      dup4\n        /* \"#utility.yul\":21608:21637   */\n      tag_339\n      jump\t// in\n    tag_573:\n        /* \"#utility.yul\":21600:21637   */\n      swap2\n      pop\n        /* \"#utility.yul\":21670:21673   */\n      dup3\n        /* \"#utility.yul\":21667:21668   */\n      0x02\n        /* \"#utility.yul\":21663:21674   */\n      mul\n        /* \"#utility.yul\":21657:21661   */\n      dup3\n        /* \"#utility.yul\":21654:21675   */\n      or\n        /* \"#utility.yul\":21646:21675   */\n      swap1\n      pop\n        /* \"#utility.yul\":21386:21681   */\n      swap3\n      swap2\n      pop\n      pop\n      jump\t// out\n        /* \"#utility.yul\":21686:23089   */\n    tag_126:\n        /* \"#utility.yul\":21810:21854   */\n      tag_575\n        /* \"#utility.yul\":21850:21853   */\n      dup4\n        /* \"#utility.yul\":21845:21848   */\n      dup4\n        /* \"#utility.yul\":21810:21854   */\n      tag_326\n      jump\t// in\n    tag_575:\n        /* \"#utility.yul\":21919:21937   */\n      0xffffffffffffffff\n        /* \"#utility.yul\":21911:21917   */\n      dup2\n        /* \"#utility.yul\":21908:21938   */\n      gt\n        /* \"#utility.yul\":21905:21961   */\n      iszero\n      tag_576\n      jumpi\n        /* \"#utility.yul\":21941:21959   */\n      tag_577\n      tag_204\n      jump\t// in\n    tag_577:\n        /* \"#utility.yul\":21905:21961   */\n    tag_576:\n        /* \"#utility.yul\":21985:22023   */\n      tag_578\n        /* \"#utility.yul\":22017:22021   */\n      dup3\n        /* \"#utility.yul\":22011:22022   */\n      sload\n        /* \"#utility.yul\":21985:22023   */\n      tag_160\n      jump\t// in\n    tag_578:\n        /* \"#utility.yul\":22070:22137   */\n      tag_579\n        /* \"#utility.yul\":22130:22136   */\n      dup3\n        /* \"#utility.yul\":22122:22128   */\n      dup3\n        /* \"#utility.yul\":22116:22120   */\n      dup6\n        /* \"#utility.yul\":22070:22137   */\n      tag_337\n      jump\t// in\n    tag_579:\n        /* \"#utility.yul\":22164:22165   */\n      0x00\n        /* \"#utility.yul\":22193:22195   */\n      0x1f\n        /* \"#utility.yul\":22185:22191   */\n      dup4\n        /* \"#utility.yul\":22182:22196   */\n      gt\n        /* \"#utility.yul\":22210:22211   */\n      0x01\n        /* \"#utility.yul\":22205:22837   */\n      dup2\n      eq\n      tag_581\n      jumpi\n        /* \"#utility.yul\":22881:22882   */\n      0x00\n        /* \"#utility.yul\":22898:22904   */\n      dup5\n        /* \"#utility.yul\":22895:22979   */\n      iszero\n      tag_582\n      jumpi\n        /* \"#utility.yul\":22954:22963   */\n      dup3\n        /* \"#utility.yul\":22949:22952   */\n      dup8\n        /* \"#utility.yul\":22945:22964   */\n      add\n        /* \"#utility.yul\":22932:22965   */\n      calldataload\n        /* \"#utility.yul\":22923:22965   */\n      swap1\n      pop\n        /* \"#utility.yul\":22895:22979   */\n    tag_582:\n        /* \"#utility.yul\":23005:23072   */\n      tag_583\n        /* \"#utility.yul\":23065:23071   */\n      dup6\n        /* \"#utility.yul\":23058:23063   */\n      dup3\n        /* \"#utility.yul\":23005:23072   */\n      tag_340\n      jump\t// in\n    tag_583:\n        /* \"#utility.yul\":22999:23003   */\n      dup7\n        /* \"#utility.yul\":22992:23073   */\n      sstore\n        /* \"#utility.yul\":22854:23083   */\n      pop\n        /* \"#utility.yul\":22175:23083   */\n      jump(tag_580)\n        /* \"#utility.yul\":22205:22837   */\n    tag_581:\n        /* \"#utility.yul\":22257:22261   */\n      0x1f\n        /* \"#utility.yul\":22253:22262   */\n      not\n        /* \"#utility.yul\":22245:22251   */\n      dup5\n        /* \"#utility.yul\":22241:22263   */\n      and\n        /* \"#utility.yul\":22291:22328   */\n      tag_584\n        /* \"#utility.yul\":22323:22327   */\n      dup7\n        /* \"#utility.yul\":22291:22328   */\n      tag_317\n      jump\t// in\n    tag_584:\n        /* \"#utility.yul\":22350:22351   */\n      0x00\n        /* \"#utility.yul\":22364:22579   */\n    tag_585:\n        /* \"#utility.yul\":22378:22385   */\n      dup3\n        /* \"#utility.yul\":22375:22376   */\n      dup2\n        /* \"#utility.yul\":22372:22386   */\n      lt\n        /* \"#utility.yul\":22364:22579   */\n      iszero\n      tag_587\n      jumpi\n        /* \"#utility.yul\":22464:22473   */\n      dup5\n        /* \"#utility.yul\":22459:22462   */\n      dup10\n        /* \"#utility.yul\":22455:22474   */\n      add\n        /* \"#utility.yul\":22442:22475   */\n      calldataload\n        /* \"#utility.yul\":22434:22440   */\n      dup3\n        /* \"#utility.yul\":22427:22476   */\n      sstore\n        /* \"#utility.yul\":22515:22516   */\n      0x01\n        /* \"#utility.yul\":22507:22513   */\n      dup3\n        /* \"#utility.yul\":22503:22517   */\n      add\n        /* \"#utility.yul\":22493:22517   */\n      swap2\n      pop\n        /* \"#utility.yul\":22562:22564   */\n      0x20\n        /* \"#utility.yul\":22551:22560   */\n      dup6\n        /* \"#utility.yul\":22547:22565   */\n      add\n        /* \"#utility.yul\":22534:22565   */\n      swap5\n      pop\n        /* \"#utility.yul\":22401:22405   */\n      0x20\n        /* \"#utility.yul\":22398:22399   */\n      dup2\n        /* \"#utility.yul\":22394:22406   */\n      add\n        /* \"#utility.yul\":22389:22406   */\n      swap1\n      pop\n        /* \"#utility.yul\":22364:22579   */\n      jump(tag_585)\n    tag_587:\n        /* \"#utility.yul\":22607:22613   */\n      dup7\n        /* \"#utility.yul\":22598:22605   */\n      dup4\n        /* \"#utility.yul\":22595:22614   */\n      lt\n        /* \"#utility.yul\":22592:22778   */\n      iszero\n      tag_588\n      jumpi\n        /* \"#utility.yul\":22672:22681   */\n      dup5\n        /* \"#utility.yul\":22667:22670   */\n      dup10\n        /* \"#utility.yul\":22663:22682   */\n      add\n        /* \"#utility.yul\":22650:22683   */\n      calldataload\n        /* \"#utility.yul\":22715:22763   */\n      tag_589\n        /* \"#utility.yul\":22757:22761   */\n      0x1f\n        /* \"#utility.yul\":22749:22755   */\n      dup10\n        /* \"#utility.yul\":22745:22762   */\n      and\n        /* \"#utility.yul\":22734:22743   */\n      dup3\n        /* \"#utility.yul\":22715:22763   */\n      tag_339\n      jump\t// in\n    tag_589:\n        /* \"#utility.yul\":22707:22713   */\n      dup4\n        /* \"#utility.yul\":22700:22764   */\n      sstore\n        /* \"#utility.yul\":22615:22778   */\n      pop\n        /* \"#utility.yul\":22592:22778   */\n    tag_588:\n        /* \"#utility.yul\":22824:22825   */\n      0x01\n        /* \"#utility.yul\":22820:22821   */\n      0x02\n        /* \"#utility.yul\":22812:22818   */\n      dup9\n        /* \"#utility.yul\":22808:22822   */\n      mul\n        /* \"#utility.yul\":22804:22826   */\n      add\n        /* \"#utility.yul\":22798:22802   */\n      dup9\n        /* \"#utility.yul\":22791:22827   */\n      sstore\n        /* \"#utility.yul\":22212:22837   */\n      pop\n      pop\n      pop\n        /* \"#utility.yul\":22175:23083   */\n    tag_580:\n      pop\n        /* \"#utility.yul\":21785:23089   */\n      pop\n      pop\n      pop\n        /* \"#utility.yul\":21686:23089   */\n      pop\n      pop\n      pop\n      jump\t// out\n        /* \"#utility.yul\":23095:23241   */\n    tag_341:\n        /* \"#utility.yul\":23192:23198   */\n      dup3\n        /* \"#utility.yul\":23187:23190   */\n      dup2\n        /* \"#utility.yul\":23182:23185   */\n      dup4\n        /* \"#utility.yul\":23169:23199   */\n      calldatacopy\n        /* \"#utility.yul\":23233:23234   */\n      0x00\n        /* \"#utility.yul\":23224:23230   */\n      dup4\n        /* \"#utility.yul\":23219:23222   */\n      dup4\n        /* \"#utility.yul\":23215:23231   */\n      add\n        /* \"#utility.yul\":23208:23235   */\n      mstore\n        /* \"#utility.yul\":23095:23241   */\n      pop\n      pop\n      pop\n      jump\t// out\n        /* \"#utility.yul\":23271:23588   */\n    tag_342:\n        /* \"#utility.yul\":23369:23372   */\n      0x00\n        /* \"#utility.yul\":23390:23461   */\n      tag_592\n        /* \"#utility.yul\":23454:23460   */\n      dup4\n        /* \"#utility.yul\":23449:23452   */\n      dup6\n        /* \"#utility.yul\":23390:23461   */\n      tag_312\n      jump\t// in\n    tag_592:\n        /* \"#utility.yul\":23383:23461   */\n      swap4\n      pop\n        /* \"#utility.yul\":23471:23527   */\n      tag_593\n        /* \"#utility.yul\":23520:23526   */\n      dup4\n        /* \"#utility.yul\":23515:23518   */\n      dup6\n        /* \"#utility.yul\":23508:23513   */\n      dup5\n        /* \"#utility.yul\":23471:23527   */\n      tag_341\n      jump\t// in\n    tag_593:\n        /* \"#utility.yul\":23552:23581   */\n      tag_594\n        /* \"#utility.yul\":23574:23580   */\n      dup4\n        /* \"#utility.yul\":23552:23581   */\n      tag_307\n      jump\t// in\n    tag_594:\n        /* \"#utility.yul\":23547:23550   */\n      dup5\n        /* \"#utility.yul\":23543:23582   */\n      add\n        /* \"#utility.yul\":23536:23582   */\n      swap1\n      pop\n        /* \"#utility.yul\":23271:23588   */\n      swap4\n      swap3\n      pop\n      pop\n      pop\n      jump\t// out\n        /* \"#utility.yul\":23594:23927   */\n    tag_128:\n        /* \"#utility.yul\":23717:23721   */\n      0x00\n        /* \"#utility.yul\":23755:23757   */\n      0x20\n        /* \"#utility.yul\":23744:23753   */\n      dup3\n        /* \"#utility.yul\":23740:23758   */\n      add\n        /* \"#utility.yul\":23732:23758   */\n      swap1\n      pop\n        /* \"#utility.yul\":23804:23813   */\n      dup2\n        /* \"#utility.yul\":23798:23802   */\n      dup2\n        /* \"#utility.yul\":23794:23814   */\n      sub\n        /* \"#utility.yul\":23790:23791   */\n      0x00\n        /* \"#utility.yul\":23779:23788   */\n      dup4\n        /* \"#utility.yul\":23775:23792   */\n      add\n        /* \"#utility.yul\":23768:23815   */\n      mstore\n        /* \"#utility.yul\":23832:23920   */\n      tag_596\n        /* \"#utility.yul\":23915:23919   */\n      dup2\n        /* \"#utility.yul\":23906:23912   */\n      dup5\n        /* \"#utility.yul\":23898:23904   */\n      dup7\n        /* \"#utility.yul\":23832:23920   */\n      tag_342\n      jump\t// in\n    tag_596:\n        /* \"#utility.yul\":23824:23920   */\n      swap1\n      pop\n        /* \"#utility.yul\":23594:23927   */\n      swap4\n      swap3\n      pop\n      pop\n      pop\n      jump\t// out\n        /* \"#utility.yul\":23933:25328   */\n    tag_153:\n        /* \"#utility.yul\":24050:24087   */\n      tag_598\n        /* \"#utility.yul\":24083:24086   */\n      dup3\n        /* \"#utility.yul\":24050:24087   */\n      tag_304\n      jump\t// in\n    tag_598:\n        /* \"#utility.yul\":24152:24170   */\n      0xffffffffffffffff\n        /* \"#utility.yul\":24144:24150   */\n      dup2\n        /* \"#utility.yul\":24141:24171   */\n      gt\n        /* \"#utility.yul\":24138:24194   */\n      iszero\n      tag_599\n      jumpi\n        /* \"#utility.yul\":24174:24192   */\n      tag_600\n      tag_204\n      jump\t// in\n    tag_600:\n        /* \"#utility.yul\":24138:24194   */\n    tag_599:\n        /* \"#utility.yul\":24218:24256   */\n      tag_601\n        /* \"#utility.yul\":24250:24254   */\n      dup3\n        /* \"#utility.yul\":24244:24255   */\n      sload\n        /* \"#utility.yul\":24218:24256   */\n      tag_160\n      jump\t// in\n    tag_601:\n        /* \"#utility.yul\":24303:24370   */\n      tag_602\n        /* \"#utility.yul\":24363:24369   */\n      dup3\n        /* \"#utility.yul\":24355:24361   */\n      dup3\n        /* \"#utility.yul\":24349:24353   */\n      dup6\n        /* \"#utility.yul\":24303:24370   */\n      tag_337\n      jump\t// in\n    tag_602:\n        /* \"#utility.yul\":24397:24398   */\n      0x00\n        /* \"#utility.yul\":24421:24425   */\n      0x20\n        /* \"#utility.yul\":24408:24425   */\n      swap1\n      pop\n        /* \"#utility.yul\":24453:24455   */\n      0x1f\n        /* \"#utility.yul\":24445:24451   */\n      dup4\n        /* \"#utility.yul\":24442:24456   */\n      gt\n        /* \"#utility.yul\":24470:24471   */\n      0x01\n        /* \"#utility.yul\":24465:25083   */\n      dup2\n      eq\n      tag_604\n      jumpi\n        /* \"#utility.yul\":25127:25128   */\n      0x00\n        /* \"#utility.yul\":25144:25150   */\n      dup5\n        /* \"#utility.yul\":25141:25218   */\n      iszero\n      tag_605\n      jumpi\n        /* \"#utility.yul\":25193:25202   */\n      dup3\n        /* \"#utility.yul\":25188:25191   */\n      dup8\n        /* \"#utility.yul\":25184:25203   */\n      add\n        /* \"#utility.yul\":25178:25204   */\n      mload\n        /* \"#utility.yul\":25169:25204   */\n      swap1\n      pop\n        /* \"#utility.yul\":25141:25218   */\n    tag_605:\n        /* \"#utility.yul\":25244:25311   */\n      tag_606\n        /* \"#utility.yul\":25304:25310   */\n      dup6\n        /* \"#utility.yul\":25297:25302   */\n      dup3\n        /* \"#utility.yul\":25244:25311   */\n      tag_340\n      jump\t// in\n    tag_606:\n        /* \"#utility.yul\":25238:25242   */\n      dup7\n        /* \"#utility.yul\":25231:25312   */\n      sstore\n        /* \"#utility.yul\":25100:25322   */\n      pop\n        /* \"#utility.yul\":24435:25322   */\n      jump(tag_603)\n        /* \"#utility.yul\":24465:25083   */\n    tag_604:\n        /* \"#utility.yul\":24517:24521   */\n      0x1f\n        /* \"#utility.yul\":24513:24522   */\n      not\n        /* \"#utility.yul\":24505:24511   */\n      dup5\n        /* \"#utility.yul\":24501:24523   */\n      and\n        /* \"#utility.yul\":24551:24588   */\n      tag_607\n        /* \"#utility.yul\":24583:24587   */\n      dup7\n        /* \"#utility.yul\":24551:24588   */\n      tag_317\n      jump\t// in\n    tag_607:\n        /* \"#utility.yul\":24610:24611   */\n      0x00\n        /* \"#utility.yul\":24624:24832   */\n    tag_608:\n        /* \"#utility.yul\":24638:24645   */\n      dup3\n        /* \"#utility.yul\":24635:24636   */\n      dup2\n        /* \"#utility.yul\":24632:24646   */\n      lt\n        /* \"#utility.yul\":24624:24832   */\n      iszero\n      tag_610\n      jumpi\n        /* \"#utility.yul\":24717:24726   */\n      dup5\n        /* \"#utility.yul\":24712:24715   */\n      dup10\n        /* \"#utility.yul\":24708:24727   */\n      add\n        /* \"#utility.yul\":24702:24728   */\n      mload\n        /* \"#utility.yul\":24694:24700   */\n      dup3\n        /* \"#utility.yul\":24687:24729   */\n      sstore\n        /* \"#utility.yul\":24768:24769   */\n      0x01\n        /* \"#utility.yul\":24760:24766   */\n      dup3\n        /* \"#utility.yul\":24756:24770   */\n      add\n        /* \"#utility.yul\":24746:24770   */\n      swap2\n      pop\n        /* \"#utility.yul\":24815:24817   */\n      0x20\n        /* \"#utility.yul\":24804:24813   */\n      dup6\n        /* \"#utility.yul\":24800:24818   */\n      add\n        /* \"#utility.yul\":24787:24818   */\n      swap5\n      pop\n        /* \"#utility.yul\":24661:24665   */\n      0x20\n        /* \"#utility.yul\":24658:24659   */\n      dup2\n        /* \"#utility.yul\":24654:24666   */\n      add\n        /* \"#utility.yul\":24649:24666   */\n      swap1\n      pop\n        /* \"#utility.yul\":24624:24832   */\n      jump(tag_608)\n    tag_610:\n        /* \"#utility.yul\":24860:24866   */\n      dup7\n        /* \"#utility.yul\":24851:24858   */\n      dup4\n        /* \"#utility.yul\":24848:24867   */\n      lt\n        /* \"#utility.yul\":24845:25024   */\n      iszero\n      tag_611\n      jumpi\n        /* \"#utility.yul\":24918:24927   */\n      dup5\n        /* \"#utility.yul\":24913:24916   */\n      dup10\n        /* \"#utility.yul\":24909:24928   */\n      add\n        /* \"#utility.yul\":24903:24929   */\n      mload\n        /* \"#utility.yul\":24961:25009   */\n      tag_612\n        /* \"#utility.yul\":25003:25007   */\n      0x1f\n        /* \"#utility.yul\":24995:25001   */\n      dup10\n        /* \"#utility.yul\":24991:25008   */\n      and\n        /* \"#utility.yul\":24980:24989   */\n      dup3\n        /* \"#utility.yul\":24961:25009   */\n      tag_339\n      jump\t// in\n    tag_612:\n        /* \"#utility.yul\":24953:24959   */\n      dup4\n        /* \"#utility.yul\":24946:25010   */\n      sstore\n        /* \"#utility.yul\":24868:25024   */\n      pop\n        /* \"#utility.yul\":24845:25024   */\n    tag_611:\n        /* \"#utility.yul\":25070:25071   */\n      0x01\n        /* \"#utility.yul\":25066:25067   */\n      0x02\n        /* \"#utility.yul\":25058:25064   */\n      dup9\n        /* \"#utility.yul\":25054:25068   */\n      mul\n        /* \"#utility.yul\":25050:25072   */\n      add\n        /* \"#utility.yul\":25044:25048   */\n      dup9\n        /* \"#utility.yul\":25037:25073   */\n      sstore\n        /* \"#utility.yul\":24472:25083   */\n      pop\n      pop\n      pop\n        /* \"#utility.yul\":24435:25322   */\n    tag_603:\n      pop\n        /* \"#utility.yul\":24025:25328   */\n      pop\n      pop\n      pop\n        /* \"#utility.yul\":23933:25328   */\n      pop\n      pop\n      jump\t// out\n        /* \"#utility.yul\":25334:25564   */\n    tag_343:\n        /* \"#utility.yul\":25474:25508   */\n      0x4e616d652073686f756c64206265206265747765656e203120616e6420313520\n        /* \"#utility.yul\":25470:25471   */\n      0x00\n        /* \"#utility.yul\":25462:25468   */\n      dup3\n        /* \"#utility.yul\":25458:25472   */\n      add\n        /* \"#utility.yul\":25451:25509   */\n      mstore\n        /* \"#utility.yul\":25543:25556   */\n      0x636861726163746572732e000000000000000000000000000000000000000000\n        /* \"#utility.yul\":25538:25540   */\n      0x20\n        /* \"#utility.yul\":25530:25536   */\n      dup3\n        /* \"#utility.yul\":25526:25541   */\n      add\n        /* \"#utility.yul\":25519:25557   */\n      mstore\n        /* \"#utility.yul\":25334:25564   */\n      pop\n      jump\t// out\n        /* \"#utility.yul\":25570:25936   */\n    tag_344:\n        /* \"#utility.yul\":25712:25715   */\n      0x00\n        /* \"#utility.yul\":25733:25800   */\n      tag_615\n        /* \"#utility.yul\":25797:25799   */\n      0x2b\n        /* \"#utility.yul\":25792:25795   */\n      dup4\n        /* \"#utility.yul\":25733:25800   */\n      tag_312\n      jump\t// in\n    tag_615:\n        /* \"#utility.yul\":25726:25800   */\n      swap2\n      pop\n        /* \"#utility.yul\":25809:25902   */\n      tag_616\n        /* \"#utility.yul\":25898:25901   */\n      dup3\n        /* \"#utility.yul\":25809:25902   */\n      tag_343\n      jump\t// in\n    tag_616:\n        /* \"#utility.yul\":25927:25929   */\n      0x40\n        /* \"#utility.yul\":25922:25925   */\n      dup3\n        /* \"#utility.yul\":25918:25930   */\n      add\n        /* \"#utility.yul\":25911:25930   */\n      swap1\n      pop\n        /* \"#utility.yul\":25570:25936   */\n      swap2\n      swap1\n      pop\n      jump\t// out\n        /* \"#utility.yul\":25942:26361   */\n    tag_175:\n        /* \"#utility.yul\":26108:26112   */\n      0x00\n        /* \"#utility.yul\":26146:26148   */\n      0x20\n        /* \"#utility.yul\":26135:26144   */\n      dup3\n        /* \"#utility.yul\":26131:26149   */\n      add\n        /* \"#utility.yul\":26123:26149   */\n      swap1\n      pop\n        /* \"#utility.yul\":26195:26204   */\n      dup2\n        /* \"#utility.yul\":26189:26193   */\n      dup2\n        /* \"#utility.yul\":26185:26205   */\n      sub\n        /* \"#utility.yul\":26181:26182   */\n      0x00\n        /* \"#utility.yul\":26170:26179   */\n      dup4\n        /* \"#utility.yul\":26166:26183   */\n      add\n        /* \"#utility.yul\":26159:26206   */\n      mstore\n        /* \"#utility.yul\":26223:26354   */\n      tag_618\n        /* \"#utility.yul\":26349:26353   */\n      dup2\n        /* \"#utility.yul\":26223:26354   */\n      tag_344\n      jump\t// in\n    tag_618:\n        /* \"#utility.yul\":26215:26354   */\n      swap1\n      pop\n        /* \"#utility.yul\":25942:26361   */\n      swap2\n      swap1\n      pop\n      jump\t// out\n        /* \"#utility.yul\":26367:26540   */\n    tag_345:\n        /* \"#utility.yul\":26507:26532   */\n      0x446f6d61696e20697320616c7265616479206f776e6564000000000000000000\n        /* \"#utility.yul\":26503:26504   */\n      0x00\n        /* \"#utility.yul\":26495:26501   */\n      dup3\n        /* \"#utility.yul\":26491:26505   */\n      add\n        /* \"#utility.yul\":26484:26533   */\n      mstore\n        /* \"#utility.yul\":26367:26540   */\n      pop\n      jump\t// out\n        /* \"#utility.yul\":26546:26912   */\n    tag_346:\n        /* \"#utility.yul\":26688:26691   */\n      0x00\n        /* \"#utility.yul\":26709:26776   */\n      tag_621\n        /* \"#utility.yul\":26773:26775   */\n      0x17\n        /* \"#utility.yul\":26768:26771   */\n      dup4\n        /* \"#utility.yul\":26709:26776   */\n      tag_312\n      jump\t// in\n    tag_621:\n        /* \"#utility.yul\":26702:26776   */\n      swap2\n      pop\n        /* \"#utility.yul\":26785:26878   */\n      tag_622\n        /* \"#utility.yul\":26874:26877   */\n      dup3\n        /* \"#utility.yul\":26785:26878   */\n      tag_345\n      jump\t// in\n    tag_622:\n        /* \"#utility.yul\":26903:26905   */\n      0x20\n        /* \"#utility.yul\":26898:26901   */\n      dup3\n        /* \"#utility.yul\":26894:26906   */\n      add\n        /* \"#utility.yul\":26887:26906   */\n      swap1\n      pop\n        /* \"#utility.yul\":26546:26912   */\n      swap2\n      swap1\n      pop\n      jump\t// out\n        /* \"#utility.yul\":26918:27337   */\n    tag_179:\n        /* \"#utility.yul\":27084:27088   */\n      0x00\n        /* \"#utility.yul\":27122:27124   */\n      0x20\n        /* \"#utility.yul\":27111:27120   */\n      dup3\n        /* \"#utility.yul\":27107:27125   */\n      add\n        /* \"#utility.yul\":27099:27125   */\n      swap1\n      pop\n        /* \"#utility.yul\":27171:27180   */\n      dup2\n        /* \"#utility.yul\":27165:27169   */\n      dup2\n        /* \"#utility.yul\":27161:27181   */\n      sub\n        /* \"#utility.yul\":27157:27158   */\n      0x00\n        /* \"#utility.yul\":27146:27155   */\n      dup4\n        /* \"#utility.yul\":27142:27159   */\n      add\n        /* \"#utility.yul\":27135:27182   */\n      mstore\n        /* \"#utility.yul\":27199:27330   */\n      tag_624\n        /* \"#utility.yul\":27325:27329   */\n      dup2\n        /* \"#utility.yul\":27199:27330   */\n      tag_346\n      jump\t// in\n    tag_624:\n        /* \"#utility.yul\":27191:27330   */\n      swap1\n      pop\n        /* \"#utility.yul\":26918:27337   */\n      swap2\n      swap1\n      pop\n      jump\t// out\n        /* \"#utility.yul\":27343:27571   */\n    tag_347:\n        /* \"#utility.yul\":27483:27517   */\n      0x446f6d61696e206e616d652073686f756c64206e6f7420696e636c7564652074\n        /* \"#utility.yul\":27479:27480   */\n      0x00\n        /* \"#utility.yul\":27471:27477   */\n      dup3\n        /* \"#utility.yul\":27467:27481   */\n      add\n        /* \"#utility.yul\":27460:27518   */\n      mstore\n        /* \"#utility.yul\":27552:27563   */\n      0x6865207375666669780000000000000000000000000000000000000000000000\n        /* \"#utility.yul\":27547:27549   */\n      0x20\n        /* \"#utility.yul\":27539:27545   */\n      dup3\n        /* \"#utility.yul\":27535:27550   */\n      add\n        /* \"#utility.yul\":27528:27564   */\n      mstore\n        /* \"#utility.yul\":27343:27571   */\n      pop\n      jump\t// out\n        /* \"#utility.yul\":27577:27943   */\n    tag_348:\n        /* \"#utility.yul\":27719:27722   */\n      0x00\n        /* \"#utility.yul\":27740:27807   */\n      tag_627\n        /* \"#utility.yul\":27804:27806   */\n      0x29\n        /* \"#utility.yul\":27799:27802   */\n      dup4\n        /* \"#utility.yul\":27740:27807   */\n      tag_312\n      jump\t// in\n    tag_627:\n        /* \"#utility.yul\":27733:27807   */\n      swap2\n      pop\n        /* \"#utility.yul\":27816:27909   */\n      tag_628\n        /* \"#utility.yul\":27905:27908   */\n      dup3\n        /* \"#utility.yul\":27816:27909   */\n      tag_347\n      jump\t// in\n    tag_628:\n        /* \"#utility.yul\":27934:27936   */\n      0x40\n        /* \"#utility.yul\":27929:27932   */\n      dup3\n        /* \"#utility.yul\":27925:27937   */\n      add\n        /* \"#utility.yul\":27918:27937   */\n      swap1\n      pop\n        /* \"#utility.yul\":27577:27943   */\n      swap2\n      swap1\n      pop\n      jump\t// out\n        /* \"#utility.yul\":27949:28368   */\n    tag_184:\n        /* \"#utility.yul\":28115:28119   */\n      0x00\n        /* \"#utility.yul\":28153:28155   */\n      0x20\n        /* \"#utility.yul\":28142:28151   */\n      dup3\n        /* \"#utility.yul\":28138:28156   */\n      add\n        /* \"#utility.yul\":28130:28156   */\n      swap1\n      pop\n        /* \"#utility.yul\":28202:28211   */\n      dup2\n        /* \"#utility.yul\":28196:28200   */\n      dup2\n        /* \"#utility.yul\":28192:28212   */\n      sub\n        /* \"#utility.yul\":28188:28189   */\n      0x00\n        /* \"#utility.yul\":28177:28186   */\n      dup4\n        /* \"#utility.yul\":28173:28190   */\n      add\n        /* \"#utility.yul\":28166:28213   */\n      mstore\n        /* \"#utility.yul\":28230:28361   */\n      tag_630\n        /* \"#utility.yul\":28356:28360   */\n      dup2\n        /* \"#utility.yul\":28230:28361   */\n      tag_348\n      jump\t// in\n    tag_630:\n        /* \"#utility.yul\":28222:28361   */\n      swap1\n      pop\n        /* \"#utility.yul\":27949:28368   */\n      swap2\n      swap1\n      pop\n      jump\t// out\n        /* \"#utility.yul\":28374:28663   */\n    tag_349:\n        /* \"#utility.yul\":28514:28548   */\n      0x496e73756666696369656e742066756e647320746f2072656769737465722074\n        /* \"#utility.yul\":28510:28511   */\n      0x00\n        /* \"#utility.yul\":28502:28508   */\n      dup3\n        /* \"#utility.yul\":28498:28512   */\n      add\n        /* \"#utility.yul\":28491:28549   */\n      mstore\n        /* \"#utility.yul\":28583:28617   */\n      0x686520646f6d61696e20666f7220746865207370656369666965642079656172\n        /* \"#utility.yul\":28578:28580   */\n      0x20\n        /* \"#utility.yul\":28570:28576   */\n      dup3\n        /* \"#utility.yul\":28566:28581   */\n      add\n        /* \"#utility.yul\":28559:28618   */\n      mstore\n        /* \"#utility.yul\":28652:28655   */\n      0x7300000000000000000000000000000000000000000000000000000000000000\n        /* \"#utility.yul\":28647:28649   */\n      0x40\n        /* \"#utility.yul\":28639:28645   */\n      dup3\n        /* \"#utility.yul\":28635:28650   */\n      add\n        /* \"#utility.yul\":28628:28656   */\n      mstore\n        /* \"#utility.yul\":28374:28663   */\n      pop\n      jump\t// out\n        /* \"#utility.yul\":28669:29035   */\n    tag_350:\n        /* \"#utility.yul\":28811:28814   */\n      0x00\n        /* \"#utility.yul\":28832:28899   */\n      tag_633\n        /* \"#utility.yul\":28896:28898   */\n      0x41\n        /* \"#utility.yul\":28891:28894   */\n      dup4\n        /* \"#utility.yul\":28832:28899   */\n      tag_312\n      jump\t// in\n    tag_633:\n        /* \"#utility.yul\":28825:28899   */\n      swap2\n      pop\n        /* \"#utility.yul\":28908:29001   */\n      tag_634\n        /* \"#utility.yul\":28997:29000   */\n      dup3\n        /* \"#utility.yul\":28908:29001   */\n      tag_349\n      jump\t// in\n    tag_634:\n        /* \"#utility.yul\":29026:29028   */\n      0x60\n        /* \"#utility.yul\":29021:29024   */\n      dup3\n        /* \"#utility.yul\":29017:29029   */\n      add\n        /* \"#utility.yul\":29010:29029   */\n      swap1\n      pop\n        /* \"#utility.yul\":28669:29035   */\n      swap2\n      swap1\n      pop\n      jump\t// out\n        /* \"#utility.yul\":29041:29460   */\n    tag_188:\n        /* \"#utility.yul\":29207:29211   */\n      0x00\n        /* \"#utility.yul\":29245:29247   */\n      0x20\n        /* \"#utility.yul\":29234:29243   */\n      dup3\n        /* \"#utility.yul\":29230:29248   */\n      add\n        /* \"#utility.yul\":29222:29248   */\n      swap1\n      pop\n        /* \"#utility.yul\":29294:29303   */\n      dup2\n        /* \"#utility.yul\":29288:29292   */\n      dup2\n        /* \"#utility.yul\":29284:29304   */\n      sub\n        /* \"#utility.yul\":29280:29281   */\n      0x00\n        /* \"#utility.yul\":29269:29278   */\n      dup4\n        /* \"#utility.yul\":29265:29282   */\n      add\n        /* \"#utility.yul\":29258:29305   */\n      mstore\n        /* \"#utility.yul\":29322:29453   */\n      tag_636\n        /* \"#utility.yul\":29448:29452   */\n      dup2\n        /* \"#utility.yul\":29322:29453   */\n      tag_350\n      jump\t// in\n    tag_636:\n        /* \"#utility.yul\":29314:29453   */\n      swap1\n      pop\n        /* \"#utility.yul\":29041:29460   */\n      swap2\n      swap1\n      pop\n      jump\t// out\n        /* \"#utility.yul\":29466:29999   */\n    tag_196:\n        /* \"#utility.yul\":29635:29639   */\n      0x00\n        /* \"#utility.yul\":29673:29675   */\n      0x60\n        /* \"#utility.yul\":29662:29671   */\n      dup3\n        /* \"#utility.yul\":29658:29676   */\n      add\n        /* \"#utility.yul\":29650:29676   */\n      swap1\n      pop\n        /* \"#utility.yul\":29722:29731   */\n      dup2\n        /* \"#utility.yul\":29716:29720   */\n      dup2\n        /* \"#utility.yul\":29712:29732   */\n      sub\n        /* \"#utility.yul\":29708:29709   */\n      0x00\n        /* \"#utility.yul\":29697:29706   */\n      dup4\n        /* \"#utility.yul\":29693:29710   */\n      add\n        /* \"#utility.yul\":29686:29733   */\n      mstore\n        /* \"#utility.yul\":29750:29828   */\n      tag_638\n        /* \"#utility.yul\":29823:29827   */\n      dup2\n        /* \"#utility.yul\":29814:29820   */\n      dup7\n        /* \"#utility.yul\":29750:29828   */\n      tag_313\n      jump\t// in\n    tag_638:\n        /* \"#utility.yul\":29742:29828   */\n      swap1\n      pop\n        /* \"#utility.yul\":29838:29910   */\n      tag_639\n        /* \"#utility.yul\":29906:29908   */\n      0x20\n        /* \"#utility.yul\":29895:29904   */\n      dup4\n        /* \"#utility.yul\":29891:29909   */\n      add\n        /* \"#utility.yul\":29882:29888   */\n      dup6\n        /* \"#utility.yul\":29838:29910   */\n      tag_297\n      jump\t// in\n    tag_639:\n        /* \"#utility.yul\":29920:29992   */\n      tag_640\n        /* \"#utility.yul\":29988:29990   */\n      0x40\n        /* \"#utility.yul\":29977:29986   */\n      dup4\n        /* \"#utility.yul\":29973:29991   */\n      add\n        /* \"#utility.yul\":29964:29970   */\n      dup5\n        /* \"#utility.yul\":29920:29992   */\n      tag_298\n      jump\t// in\n    tag_640:\n        /* \"#utility.yul\":29466:29999   */\n      swap5\n      swap4\n      pop\n      pop\n      pop\n      pop\n      jump\t// out\n        /* \"#utility.yul\":30005:30185   */\n    tag_211:\n        /* \"#utility.yul\":30053:30130   */\n      0x4e487b7100000000000000000000000000000000000000000000000000000000\n        /* \"#utility.yul\":30050:30051   */\n      0x00\n        /* \"#utility.yul\":30043:30131   */\n      mstore\n        /* \"#utility.yul\":30150:30154   */\n      0x32\n        /* \"#utility.yul\":30147:30148   */\n      0x04\n        /* \"#utility.yul\":30140:30155   */\n      mstore\n        /* \"#utility.yul\":30174:30178   */\n      0x24\n        /* \"#utility.yul\":30171:30172   */\n      0x00\n        /* \"#utility.yul\":30164:30179   */\n      revert\n        /* \"#utility.yul\":30191:30277   */\n    tag_351:\n        /* \"#utility.yul\":30226:30233   */\n      0x00\n        /* \"#utility.yul\":30266:30270   */\n      0xff\n        /* \"#utility.yul\":30259:30264   */\n      dup3\n        /* \"#utility.yul\":30255:30271   */\n      and\n        /* \"#utility.yul\":30244:30271   */\n      swap1\n      pop\n        /* \"#utility.yul\":30191:30277   */\n      swap2\n      swap1\n      pop\n      jump\t// out\n        /* \"#utility.yul\":30283:30471   */\n    tag_219:\n        /* \"#utility.yul\":30321:30324   */\n      0x00\n        /* \"#utility.yul\":30340:30358   */\n      tag_644\n        /* \"#utility.yul\":30356:30357   */\n      dup3\n        /* \"#utility.yul\":30340:30358   */\n      tag_351\n      jump\t// in\n    tag_644:\n        /* \"#utility.yul\":30335:30358   */\n      swap2\n      pop\n        /* \"#utility.yul\":30372:30390   */\n      tag_645\n        /* \"#utility.yul\":30388:30389   */\n      dup4\n        /* \"#utility.yul\":30372:30390   */\n      tag_351\n      jump\t// in\n    tag_645:\n        /* \"#utility.yul\":30367:30390   */\n      swap3\n      pop\n        /* \"#utility.yul\":30413:30414   */\n      dup3\n        /* \"#utility.yul\":30410:30411   */\n      dup3\n        /* \"#utility.yul\":30406:30415   */\n      add\n        /* \"#utility.yul\":30399:30415   */\n      swap1\n      pop\n        /* \"#utility.yul\":30436:30440   */\n      0xff\n        /* \"#utility.yul\":30431:30434   */\n      dup2\n        /* \"#utility.yul\":30428:30441   */\n      gt\n        /* \"#utility.yul\":30425:30464   */\n      iszero\n      tag_646\n      jumpi\n        /* \"#utility.yul\":30444:30462   */\n      tag_647\n      tag_321\n      jump\t// in\n    tag_647:\n        /* \"#utility.yul\":30425:30464   */\n    tag_646:\n        /* \"#utility.yul\":30283:30471   */\n      swap3\n      swap2\n      pop\n      pop\n      jump\t// out\n        /* \"#utility.yul\":30477:30710   */\n    tag_228:\n        /* \"#utility.yul\":30516:30519   */\n      0x00\n        /* \"#utility.yul\":30539:30563   */\n      tag_649\n        /* \"#utility.yul\":30557:30562   */\n      dup3\n        /* \"#utility.yul\":30539:30563   */\n      tag_290\n      jump\t// in\n    tag_649:\n        /* \"#utility.yul\":30530:30563   */\n      swap2\n      pop\n        /* \"#utility.yul\":30585:30651   */\n      0xffffffffffffffffffffffffffffffffffffffffffffffffffffffffffffffff\n        /* \"#utility.yul\":30578:30583   */\n      dup3\n        /* \"#utility.yul\":30575:30652   */\n      sub\n        /* \"#utility.yul\":30572:30675   */\n      tag_650\n      jumpi\n        /* \"#utility.yul\":30655:30673   */\n      tag_651\n      tag_321\n      jump\t// in\n    tag_651:\n        /* \"#utility.yul\":30572:30675   */\n    tag_650:\n        /* \"#utility.yul\":30702:30703   */\n      0x01\n        /* \"#utility.yul\":30695:30700   */\n      dup3\n        /* \"#utility.yul\":30691:30704   */\n      add\n        /* \"#utility.yul\":30684:30704   */\n      swap1\n      pop\n        /* \"#utility.yul\":30477:30710   */\n      swap2\n      swap1\n      pop\n      jump\t// out\n        /* \"#utility.yul\":30716:30985   */\n    tag_240:\n        /* \"#utility.yul\":30845:30848   */\n      0x00\n        /* \"#utility.yul\":30867:30959   */\n      tag_653\n        /* \"#utility.yul\":30955:30958   */\n      dup3\n        /* \"#utility.yul\":30946:30952   */\n      dup5\n        /* \"#utility.yul\":30867:30959   */\n      tag_318\n      jump\t// in\n    tag_653:\n        /* \"#utility.yul\":30860:30959   */\n      swap2\n      pop\n        /* \"#utility.yul\":30976:30979   */\n      dup2\n        /* \"#utility.yul\":30969:30979   */\n      swap1\n      pop\n        /* \"#utility.yul\":30716:30985   */\n      swap3\n      swap2\n      pop\n      pop\n      jump\t// out\n        /* \"#utility.yul\":30991:31144   */\n    tag_352:\n        /* \"#utility.yul\":31044:31050   */\n      0x00\n        /* \"#utility.yul\":31078:31083   */\n      dup2\n        /* \"#utility.yul\":31072:31084   */\n      sload\n        /* \"#utility.yul\":31062:31084   */\n      swap1\n      pop\n        /* \"#utility.yul\":31104:31137   */\n      tag_655\n        /* \"#utility.yul\":31130:31136   */\n      dup2\n        /* \"#utility.yul\":31104:31137   */\n      tag_160\n      jump\t// in\n    tag_655:\n        /* \"#utility.yul\":31094:31137   */\n      swap1\n      pop\n        /* \"#utility.yul\":30991:31144   */\n      swap2\n      swap1\n      pop\n      jump\t// out\n        /* \"#utility.yul\":31150:31295   */\n    tag_353:\n        /* \"#utility.yul\":31203:31207   */\n      0x00\n        /* \"#utility.yul\":31226:31229   */\n      dup2\n        /* \"#utility.yul\":31218:31229   */\n      swap1\n      pop\n        /* \"#utility.yul\":31249:31252   */\n      dup2\n        /* \"#utility.yul\":31246:31247   */\n      0x00\n        /* \"#utility.yul\":31239:31253   */\n      mstore\n        /* \"#utility.yul\":31283:31287   */\n      0x20\n        /* \"#utility.yul\":31280:31281   */\n      0x00\n        /* \"#utility.yul\":31270:31288   */\n      keccak256\n        /* \"#utility.yul\":31262:31288   */\n      swap1\n      pop\n        /* \"#utility.yul\":31150:31295   */\n      swap2\n      swap1\n      pop\n      jump\t// out\n        /* \"#utility.yul\":31301:32764   */\n    tag_250:\n        /* \"#utility.yul\":31416:31419   */\n      dup2\n        /* \"#utility.yul\":31410:31414   */\n      dup2\n        /* \"#utility.yul\":31407:31420   */\n      sub\n        /* \"#utility.yul\":31404:31430   */\n      tag_658\n      jumpi\n        /* \"#utility.yul\":31423:31428   */\n      pop\n      pop\n      jump(tag_657)\n        /* \"#utility.yul\":31404:31430   */\n    tag_658:\n        /* \"#utility.yul\":31454:31492   */\n      tag_659\n        /* \"#utility.yul\":31488:31491   */\n      dup3\n        /* \"#utility.yul\":31454:31492   */\n      tag_352\n      jump\t// in\n    tag_659:\n        /* \"#utility.yul\":31557:31575   */\n      0xffffffffffffffff\n        /* \"#utility.yul\":31549:31555   */\n      dup2\n        /* \"#utility.yul\":31546:31576   */\n      gt\n        /* \"#utility.yul\":31543:31599   */\n      iszero\n      tag_660\n      jumpi\n        /* \"#utility.yul\":31579:31597   */\n      tag_661\n      tag_204\n      jump\t// in\n    tag_661:\n        /* \"#utility.yul\":31543:31599   */\n    tag_660:\n        /* \"#utility.yul\":31623:31661   */\n      tag_662\n        /* \"#utility.yul\":31655:31659   */\n      dup3\n        /* \"#utility.yul\":31649:31660   */\n      sload\n        /* \"#utility.yul\":31623:31661   */\n      tag_160\n      jump\t// in\n    tag_662:\n        /* \"#utility.yul\":31708:31775   */\n      tag_663\n        /* \"#utility.yul\":31768:31774   */\n      dup3\n        /* \"#utility.yul\":31760:31766   */\n      dup3\n        /* \"#utility.yul\":31754:31758   */\n      dup6\n        /* \"#utility.yul\":31708:31775   */\n      tag_337\n      jump\t// in\n    tag_663:\n        /* \"#utility.yul\":31802:31803   */\n      0x00\n        /* \"#utility.yul\":31831:31833   */\n      0x1f\n        /* \"#utility.yul\":31823:31829   */\n      dup4\n        /* \"#utility.yul\":31820:31834   */\n      gt\n        /* \"#utility.yul\":31848:31849   */\n      0x01\n        /* \"#utility.yul\":31843:32519   */\n      dup2\n      eq\n      tag_665\n      jumpi\n        /* \"#utility.yul\":32563:32564   */\n      0x00\n        /* \"#utility.yul\":32580:32586   */\n      dup5\n        /* \"#utility.yul\":32577:32654   */\n      iszero\n      tag_666\n      jumpi\n        /* \"#utility.yul\":32629:32638   */\n      dup3\n        /* \"#utility.yul\":32624:32627   */\n      dup8\n        /* \"#utility.yul\":32620:32639   */\n      add\n        /* \"#utility.yul\":32614:32640   */\n      sload\n        /* \"#utility.yul\":32605:32640   */\n      swap1\n      pop\n        /* \"#utility.yul\":32577:32654   */\n    tag_666:\n        /* \"#utility.yul\":32680:32747   */\n      tag_667\n        /* \"#utility.yul\":32740:32746   */\n      dup6\n        /* \"#utility.yul\":32733:32738   */\n      dup3\n        /* \"#utility.yul\":32680:32747   */\n      tag_340\n      jump\t// in\n    tag_667:\n        /* \"#utility.yul\":32674:32678   */\n      dup7\n        /* \"#utility.yul\":32667:32748   */\n      sstore\n        /* \"#utility.yul\":32536:32758   */\n      pop\n        /* \"#utility.yul\":31813:32758   */\n      jump(tag_664)\n        /* \"#utility.yul\":31843:32519   */\n    tag_665:\n        /* \"#utility.yul\":31895:31899   */\n      0x1f\n        /* \"#utility.yul\":31891:31900   */\n      not\n        /* \"#utility.yul\":31883:31889   */\n      dup5\n        /* \"#utility.yul\":31879:31901   */\n      and\n        /* \"#utility.yul\":31921:31961   */\n      tag_668\n        /* \"#utility.yul\":31957:31960   */\n      dup8\n        /* \"#utility.yul\":31921:31961   */\n      tag_353\n      jump\t// in\n    tag_668:\n        /* \"#utility.yul\":31914:31961   */\n      swap7\n      pop\n        /* \"#utility.yul\":31988:32025   */\n      tag_669\n        /* \"#utility.yul\":32020:32024   */\n      dup7\n        /* \"#utility.yul\":31988:32025   */\n      tag_317\n      jump\t// in\n    tag_669:\n        /* \"#utility.yul\":32047:32048   */\n      0x00\n        /* \"#utility.yul\":32061:32268   */\n    tag_670:\n        /* \"#utility.yul\":32075:32082   */\n      dup3\n        /* \"#utility.yul\":32072:32073   */\n      dup2\n        /* \"#utility.yul\":32069:32083   */\n      lt\n        /* \"#utility.yul\":32061:32268   */\n      iszero\n      tag_672\n      jumpi\n        /* \"#utility.yul\":32154:32163   */\n      dup5\n        /* \"#utility.yul\":32149:32152   */\n      dup10\n        /* \"#utility.yul\":32145:32164   */\n      add\n        /* \"#utility.yul\":32139:32165   */\n      sload\n        /* \"#utility.yul\":32131:32137   */\n      dup3\n        /* \"#utility.yul\":32124:32166   */\n      sstore\n        /* \"#utility.yul\":32205:32206   */\n      0x01\n        /* \"#utility.yul\":32197:32203   */\n      dup3\n        /* \"#utility.yul\":32193:32207   */\n      add\n        /* \"#utility.yul\":32183:32207   */\n      swap2\n      pop\n        /* \"#utility.yul\":32252:32253   */\n      0x01\n        /* \"#utility.yul\":32241:32250   */\n      dup6\n        /* \"#utility.yul\":32237:32254   */\n      add\n        /* \"#utility.yul\":32224:32254   */\n      swap5\n      pop\n        /* \"#utility.yul\":32098:32102   */\n      0x20\n        /* \"#utility.yul\":32095:32096   */\n      dup2\n        /* \"#utility.yul\":32091:32103   */\n      add\n        /* \"#utility.yul\":32086:32103   */\n      swap1\n      pop\n        /* \"#utility.yul\":32061:32268   */\n      jump(tag_670)\n    tag_672:\n        /* \"#utility.yul\":32296:32302   */\n      dup7\n        /* \"#utility.yul\":32287:32294   */\n      dup4\n        /* \"#utility.yul\":32284:32303   */\n      lt\n        /* \"#utility.yul\":32281:32460   */\n      iszero\n      tag_673\n      jumpi\n        /* \"#utility.yul\":32354:32363   */\n      dup5\n        /* \"#utility.yul\":32349:32352   */\n      dup10\n        /* \"#utility.yul\":32345:32364   */\n      add\n        /* \"#utility.yul\":32339:32365   */\n      sload\n        /* \"#utility.yul\":32397:32445   */\n      tag_674\n        /* \"#utility.yul\":32439:32443   */\n      0x1f\n        /* \"#utility.yul\":32431:32437   */\n      dup10\n        /* \"#utility.yul\":32427:32444   */\n      and\n        /* \"#utility.yul\":32416:32425   */\n      dup3\n        /* \"#utility.yul\":32397:32445   */\n      tag_339\n      jump\t// in\n    tag_674:\n        /* \"#utility.yul\":32389:32395   */\n      dup4\n        /* \"#utility.yul\":32382:32446   */\n      sstore\n        /* \"#utility.yul\":32304:32460   */\n      pop\n        /* \"#utility.yul\":32281:32460   */\n    tag_673:\n        /* \"#utility.yul\":32506:32507   */\n      0x01\n        /* \"#utility.yul\":32502:32503   */\n      0x02\n        /* \"#utility.yul\":32494:32500   */\n      dup9\n        /* \"#utility.yul\":32490:32504   */\n      mul\n        /* \"#utility.yul\":32486:32508   */\n      add\n        /* \"#utility.yul\":32480:32484   */\n      dup9\n        /* \"#utility.yul\":32473:32509   */\n      sstore\n        /* \"#utility.yul\":31850:32519   */\n      pop\n      pop\n      pop\n        /* \"#utility.yul\":31813:32758   */\n    tag_664:\n      pop\n        /* \"#utility.yul\":31394:32764   */\n      pop\n      pop\n      pop\n        /* \"#utility.yul\":31301:32764   */\n      pop\n      pop\n    tag_657:\n      jump\t// out\n        /* \"#utility.yul\":32770:32950   */\n    tag_253:\n        /* \"#utility.yul\":32818:32895   */\n      0x4e487b7100000000000000000000000000000000000000000000000000000000\n        /* \"#utility.yul\":32815:32816   */\n      0x00\n        /* \"#utility.yul\":32808:32896   */\n      mstore\n        /* \"#utility.yul\":32915:32919   */\n      0x31\n        /* \"#utility.yul\":32912:32913   */\n      0x04\n        /* \"#utility.yul\":32905:32920   */\n      mstore\n        /* \"#utility.yul\":32939:32943   */\n      0x24\n        /* \"#utility.yul\":32936:32937   */\n      0x00\n        /* \"#utility.yul\":32929:32944   */\n      revert\n\n    auxdata: 0xa264697066735822122013764904ba152495fe5bf2b941e1d4940b445bd479ddbf3d4963455ba82340b664736f6c63430008150033\n}\n",
				"bytecode": {
					"linkReferences": {},
					"object": "60806040526040518060400160405280600481526020017f2e656478000000000000000000000000000000000000000000000000000000008152505f90816200004991906200030d565b50670de0b6b3a764000060015534801562000062575f80fd5b503360025f6101000a81548173ffffffffffffffffffffffffffffffffffffffff021916908373ffffffffffffffffffffffffffffffffffffffff160217905550620003f1565b5f81519050919050565b7f4e487b71000000000000000000000000000000000000000000000000000000005f52604160045260245ffd5b7f4e487b71000000000000000000000000000000000000000000000000000000005f52602260045260245ffd5b5f60028204905060018216806200012557607f821691505b6020821081036200013b576200013a620000e0565b5b50919050565b5f819050815f5260205f209050919050565b5f6020601f8301049050919050565b5f82821b905092915050565b5f600883026200019f7fffffffffffffffffffffffffffffffffffffffffffffffffffffffffffffffff8262000162565b620001ab868362000162565b95508019841693508086168417925050509392505050565b5f819050919050565b5f819050919050565b5f620001f5620001ef620001e984620001c3565b620001cc565b620001c3565b9050919050565b5f819050919050565b6200021083620001d5565b620002286200021f82620001fc565b8484546200016e565b825550505050565b5f90565b6200023e62000230565b6200024b81848462000205565b505050565b5b818110156200027257620002665f8262000234565b60018101905062000251565b5050565b601f821115620002c1576200028b8162000141565b620002968462000153565b81016020851015620002a6578190505b620002be620002b58562000153565b83018262000250565b50505b505050565b5f82821c905092915050565b5f620002e35f1984600802620002c6565b1980831691505092915050565b5f620002fd8383620002d2565b9150826002028217905092915050565b6200031882620000a9565b67ffffffffffffffff811115620003345762000333620000b3565b5b6200034082546200010d565b6200034d82828562000276565b5f60209050601f83116001811462000383575f84156200036e578287015190505b6200037a8582620002f0565b865550620003e9565b601f198416620003938662000141565b5f5b82811015620003bc5784890151825560018201915060208501945060208101905062000395565b86831015620003dc5784890151620003d8601f891682620002d2565b8355505b6001600288020188555050505b505050505050565b612b8480620003ff5f395ff3fe6080604052600436106100a6575f3560e01c80638da5cb5b116100635780638da5cb5b146101b8578063c0e793c2146101e2578063dc4a7f7f1461020a578063f38ffb6c14610234578063f7073c3a14610270578063fe1e1f5f1461029a576100a6565b80631a83fd8f146100aa57806332752b09146100c65780634889e19214610102578063637e9d5c1461014057806375d5ae9f14610168578063894d46ac14610190575b5f80fd5b6100c460048036038101906100bf9190611a64565b6102b6565b005b3480156100d1575f80fd5b506100ec60048036038101906100e79190611ac1565b610596565b6040516100f99190611b26565b60405180910390f35b34801561010d575f80fd5b5061012860048036038101906101239190611ac1565b610683565b60405161013793929190611b8d565b60405180910390f35b34801561014b575f80fd5b5061016660048036038101906101619190611bc2565b6107ac565b005b348015610173575f80fd5b5061018e60048036038101906101899190611ac1565b61087c565b005b34801561019b575f80fd5b506101b660048036038101906101b19190611c17565b610959565b005b3480156101c3575f80fd5b506101cc610b99565b6040516101d99190611c74565b60405180910390f35b3480156101ed575f80fd5b5061020860048036038101906102039190611c17565b610bbe565b005b348015610215575f80fd5b5061021e610ecf565b60405161022b9190611c8d565b60405180910390f35b34801561023f575f80fd5b5061025a60048036038101906102559190611ca6565b610ed5565b6040516102679190611e16565b60405180910390f35b34801561027b575f80fd5b50610284610fe6565b6040516102919190611e7e565b60405180910390f35b6102b460048036038101906102af9190611e9e565b611071565b005b82828080601f0160208091040260200160405190810160405280939291908181526020018383808284375f81840152601f19601f820116905080830192505050505050505f815f60405160200161030e929190612038565b60405160208183030381529060405290503373ffffffffffffffffffffffffffffffffffffffff16600382604051610346919061205b565b90815260200160405180910390205f015f9054906101000a900473ffffffffffffffffffffffffffffffffffffffff1673ffffffffffffffffffffffffffffffffffffffff16146103cc576040517f08c379a00000000000000000000000000000000000000000000000000000000081526004016103c3906120e1565b60405180910390fd5b5f61041986868080601f0160208091040260200160405190810160405280939291908181526020018383808284375f81840152601f19601f820116905080830192505050505050506114bb565b90505f815f60405160200161042f929190612038565b60405160208183030381529060405290505f8560015461044f919061212c565b905080341015610494576040517f08c379a000000000000000000000000000000000000000000000000000000000815260040161048b906121dd565b60405180910390fd5b6301e13380866104a4919061212c565b6003836040516104b4919061205b565b90815260200160405180910390206002015f8282546104d391906121fb565b925050819055507ff44ec9072df846717b4110f1fc66219abeeba0e9599e259c4309f01079e7a8e98260038460405161050c919061205b565b90815260200160405180910390206002015460405161052c92919061222e565b60405180910390a18034111561058c573373ffffffffffffffffffffffffffffffffffffffff166108fc8234610562919061225c565b90811502906040515f60405180830381858888f1935050505015801561058a573d5f803e3d5ffd5b505b5050505050505050565b5f806105e484848080601f0160208091040260200160405190810160405280939291908181526020018383808284375f81840152601f19601f820116905080830192505050505050506114bb565b90505f815f6040516020016105fa929190612038565b60405160208183030381529060405290505f73ffffffffffffffffffffffffffffffffffffffff16600382604051610632919061205b565b90815260200160405180910390205f015f9054906101000a900473ffffffffffffffffffffffffffffffffffffffff1673ffffffffffffffffffffffffffffffffffffffff16149250505092915050565b5f805f806106d386868080601f0160208091040260200160405190810160405280939291908181526020018383808284375f81840152601f19601f820116905080830192505050505050506114bb565b90505f815f6040516020016106e9929190612038565b604051602081830303815290604052905060038160405161070a919061205b565b90815260200160405180910390205f015f9054906101000a900473ffffffffffffffffffffffffffffffffffffffff1660038260405161074a919061205b565b90815260200160405180910390206001015f9054906101000a900473ffffffffffffffffffffffffffffffffffffffff1660038360405161078b919061205b565b90815260200160405180910390206002015494509450945050509250925092565b60025f9054906101000a900473ffffffffffffffffffffffffffffffffffffffff1673ffffffffffffffffffffffffffffffffffffffff163373ffffffffffffffffffffffffffffffffffffffff161461083b576040517f08c379a0000000000000000000000000000000000000000000000000000000008152600401610832906122ff565b60405180910390fd5b806001819055507ffa1f039258beb7ece09ab0db5bec981b26cc0d9803dd83fdcce6aeb221ac7501816040516108719190611c8d565b60405180910390a150565b60025f9054906101000a900473ffffffffffffffffffffffffffffffffffffffff1673ffffffffffffffffffffffffffffffffffffffff163373ffffffffffffffffffffffffffffffffffffffff161461090b576040517f08c379a0000000000000000000000000000000000000000000000000000000008152600401610902906122ff565b60405180910390fd5b81815f918261091b9291906124df565b507ffba05bf822a346ea5a55932a1f841c00041eb4fef950f44d568de2aaa08482c9828260405161094d9291906125e6565b60405180910390a15050565b82828080601f0160208091040260200160405190810160405280939291908181526020018383808284375f81840152601f19601f820116905080830192505050505050505f815f6040516020016109b1929190612038565b60405160208183030381529060405290503373ffffffffffffffffffffffffffffffffffffffff166003826040516109e9919061205b565b90815260200160405180910390205f015f9054906101000a900473ffffffffffffffffffffffffffffffffffffffff1673ffffffffffffffffffffffffffffffffffffffff1614610a6f576040517f08c379a0000000000000000000000000000000000000000000000000000000008152600401610a66906120e1565b60405180910390fd5b5f610abc86868080601f0160208091040260200160405190810160405280939291908181526020018383808284375f81840152601f19601f820116905080830192505050505050506114bb565b90505f815f604051602001610ad2929190612038565b604051602081830303815290604052905084600382604051610af4919061205b565b90815260200160405180910390206001015f6101000a81548173ffffffffffffffffffffffffffffffffffffffff021916908373ffffffffffffffffffffffffffffffffffffffff1602179055508473ffffffffffffffffffffffffffffffffffffffff167f6d25091b0cf2f910de133fa1124a83cc0bba17dcddb63e259346affd222ebe4482604051610b889190611e7e565b60405180910390a250505050505050565b60025f9054906101000a900473ffffffffffffffffffffffffffffffffffffffff1681565b82828080601f0160208091040260200160405190810160405280939291908181526020018383808284375f81840152601f19601f820116905080830192505050505050505f815f604051602001610c16929190612038565b60405160208183030381529060405290503373ffffffffffffffffffffffffffffffffffffffff16600382604051610c4e919061205b565b90815260200160405180910390205f015f9054906101000a900473ffffffffffffffffffffffffffffffffffffffff1673ffffffffffffffffffffffffffffffffffffffff1614610cd4576040517f08c379a0000000000000000000000000000000000000000000000000000000008152600401610ccb906120e1565b60405180910390fd5b5f610d2186868080601f0160208091040260200160405190810160405280939291908181526020018383808284375f81840152601f19601f820116905080830192505050505050506114bb565b90505f815f604051602001610d37929190612038565b60405160208183030381529060405290505f600382604051610d59919061205b565b90815260200160405180910390205f015f9054906101000a900473ffffffffffffffffffffffffffffffffffffffff16905085600383604051610d9c919061205b565b90815260200160405180910390205f015f6101000a81548173ffffffffffffffffffffffffffffffffffffffff021916908373ffffffffffffffffffffffffffffffffffffffff160217905550610df3818361166e565b60045f8773ffffffffffffffffffffffffffffffffffffffff1673ffffffffffffffffffffffffffffffffffffffff1681526020019081526020015f2082908060018154018082558091505060019003905f5260205f20015f909190919091509081610e5f9190612608565b508573ffffffffffffffffffffffffffffffffffffffff168173ffffffffffffffffffffffffffffffffffffffff167fd43ae7ba5d7f951ba2fb94d03dc0f12664835c289cea1d1295e86a1fbddfc82c84604051610ebd9190611e7e565b60405180910390a35050505050505050565b60015481565b606060045f8373ffffffffffffffffffffffffffffffffffffffff1673ffffffffffffffffffffffffffffffffffffffff1681526020019081526020015f20805480602002602001604051908101604052809291908181526020015f905b82821015610fdb578382905f5260205f20018054610f5090611f76565b80601f0160208091040260200160405190810160405280929190818152602001828054610f7c90611f76565b8015610fc75780601f10610f9e57610100808354040283529160200191610fc7565b820191905f5260205f20905b815481529060010190602001808311610faa57829003601f168201915b505050505081526020019060010190610f33565b505050509050919050565b5f8054610ff290611f76565b80601f016020809104026020016040519081016040528092919081815260200182805461101e90611f76565b80156110695780601f1061104057610100808354040283529160200191611069565b820191905f5260205f20905b81548152906001019060200180831161104c57829003601f168201915b505050505081565b5f6110be85858080601f0160208091040260200160405190810160405280939291908181526020018383808284375f81840152601f19601f820116905080830192505050505050506114bb565b90505f81511180156110d25750600f815111155b611111576040517f08c379a000000000000000000000000000000000000000000000000000000000815260040161110890612747565b60405180910390fd5b5f73ffffffffffffffffffffffffffffffffffffffff16600382604051611138919061205b565b90815260200160405180910390205f015f9054906101000a900473ffffffffffffffffffffffffffffffffffffffff1673ffffffffffffffffffffffffffffffffffffffff16146111be576040517f08c379a00000000000000000000000000000000000000000000000000000000081526004016111b5906127af565b60405180910390fd5b6111c7816117f9565b15611207576040517f08c379a00000000000000000000000000000000000000000000000000000000081526004016111fe9061283d565b60405180910390fd5b5f82600154611216919061212c565b90508034101561125b576040517f08c379a0000000000000000000000000000000000000000000000000000000008152600401611252906128f1565b60405180910390fd5b5f825f60405160200161126f929190612038565b60405160208183030381529060405290505f6301e1338085611291919061212c565b4261129c91906121fb565b905060405180606001604052803373ffffffffffffffffffffffffffffffffffffffff1681526020018773ffffffffffffffffffffffffffffffffffffffff168152602001828152506003836040516112f5919061205b565b90815260200160405180910390205f820151815f015f6101000a81548173ffffffffffffffffffffffffffffffffffffffff021916908373ffffffffffffffffffffffffffffffffffffffff1602179055506020820151816001015f6101000a81548173ffffffffffffffffffffffffffffffffffffffff021916908373ffffffffffffffffffffffffffffffffffffffff1602179055506040820151816002015590505060045f3373ffffffffffffffffffffffffffffffffffffffff1673ffffffffffffffffffffffffffffffffffffffff1681526020019081526020015f2082908060018154018082558091505060019003905f5260205f20015f9091909190915090816114069190612608565b503373ffffffffffffffffffffffffffffffffffffffff167fa5f4533ec077c1b1e4fa879988258637a45b7a6e6663bf8589e0d3dde38550178388846040516114519392919061290f565b60405180910390a2823411156114b1573373ffffffffffffffffffffffffffffffffffffffff166108fc8434611487919061225c565b90811502906040515f60405180830381858888f193505050501580156114af573d5f803e3d5ffd5b505b5050505050505050565b60605f8290505f815167ffffffffffffffff8111156114dd576114dc612327565b5b6040519080825280601f01601f19166020018201604052801561150f5781602001600182028036833780820191505090505b5090505f5b82518110156116635760418382815181106115325761153161294b565b5b602001015160f81c60f81b60f81c60ff16101580156115755750605a8382815181106115615761156061294b565b5b602001015160f81c60f81b60f81c60ff1611155b156115f057602083828151811061158f5761158e61294b565b5b602001015160f81c60f81b60f81c6115a79190612984565b60f81b8282815181106115bd576115bc61294b565b5b60200101907effffffffffffffffffffffffffffffffffffffffffffffffffffffffffffff191690815f1a905350611650565b8281815181106116035761160261294b565b5b602001015160f81c60f81b8282815181106116215761162061294b565b5b60200101907effffffffffffffffffffffffffffffffffffffffffffffffffffffffffffff191690815f1a9053505b808061165b906129b8565b915050611514565b508092505050919050565b5f60045f8473ffffffffffffffffffffffffffffffffffffffff1673ffffffffffffffffffffffffffffffffffffffff1681526020019081526020015f2090505f6116b8836114bb565b90505f815f6040516020016116ce929190612038565b60405160208183030381529060405290505f5b83805490508110156117f157816040516020016116fe919061205b565b604051602081830303815290604052805190602001208482815481106117275761172661294b565b5b905f5260205f200160405160200161173f91906129ff565b60405160208183030381529060405280519060200120036117de57836001858054905061176c919061225c565b8154811061177d5761177c61294b565b5b905f5260205f20018482815481106117985761179761294b565b5b905f5260205f200190816117ac9190612a3c565b50838054806117be576117bd612b21565b5b600190038181905f5260205f20015f6117d79190611970565b90556117f1565b80806117e9906129b8565b9150506116e1565b505050505050565b5f808290505f80805461180b90611f76565b80601f016020809104026020016040519081016040528092919081815260200182805461183790611f76565b80156118825780601f1061185957610100808354040283529160200191611882565b820191905f5260205f20905b81548152906001019060200180831161186557829003601f168201915b5050505050905080518251101561189d575f9250505061196b565b5f5b8151811015611963578181815181106118bb576118ba61294b565b5b602001015160f81c60f81b7effffffffffffffffffffffffffffffffffffffffffffffffffffffffffffff19168382845186516118f8919061225c565b61190291906121fb565b815181106119135761191261294b565b5b602001015160f81c60f81b7effffffffffffffffffffffffffffffffffffffffffffffffffffffffffffff191614611950575f935050505061196b565b808061195b906129b8565b91505061189f565b506001925050505b919050565b50805461197c90611f76565b5f825580601f1061198d57506119aa565b601f0160209004905f5260205f20908101906119a991906119ad565b5b50565b5b808211156119c4575f815f9055506001016119ae565b5090565b5f80fd5b5f80fd5b5f80fd5b5f80fd5b5f80fd5b5f8083601f8401126119f1576119f06119d0565b5b8235905067ffffffffffffffff811115611a0e57611a0d6119d4565b5b602083019150836001820283011115611a2a57611a296119d8565b5b9250929050565b5f819050919050565b611a4381611a31565b8114611a4d575f80fd5b50565b5f81359050611a5e81611a3a565b92915050565b5f805f60408486031215611a7b57611a7a6119c8565b5b5f84013567ffffffffffffffff811115611a9857611a976119cc565b5b611aa4868287016119dc565b93509350506020611ab786828701611a50565b9150509250925092565b5f8060208385031215611ad757611ad66119c8565b5b5f83013567ffffffffffffffff811115611af457611af36119cc565b5b611b00858286016119dc565b92509250509250929050565b5f8115159050919050565b611b2081611b0c565b82525050565b5f602082019050611b395f830184611b17565b92915050565b5f73ffffffffffffffffffffffffffffffffffffffff82169050919050565b5f611b6882611b3f565b9050919050565b611b7881611b5e565b82525050565b611b8781611a31565b82525050565b5f606082019050611ba05f830186611b6f565b611bad6020830185611b6f565b611bba6040830184611b7e565b949350505050565b5f60208284031215611bd757611bd66119c8565b5b5f611be484828501611a50565b91505092915050565b611bf681611b5e565b8114611c00575f80fd5b50565b5f81359050611c1181611bed565b92915050565b5f805f60408486031215611c2e57611c2d6119c8565b5b5f84013567ffffffffffffffff811115611c4b57611c4a6119cc565b5b611c57868287016119dc565b93509350506020611c6a86828701611c03565b9150509250925092565b5f602082019050611c875f830184611b6f565b92915050565b5f602082019050611ca05f830184611b7e565b92915050565b5f60208284031215611cbb57611cba6119c8565b5b5f611cc884828501611c03565b91505092915050565b5f81519050919050565b5f82825260208201905092915050565b5f819050602082019050919050565b5f81519050919050565b5f82825260208201905092915050565b5f5b83811015611d31578082015181840152602081019050611d16565b5f8484015250505050565b5f601f19601f8301169050919050565b5f611d5682611cfa565b611d608185611d04565b9350611d70818560208601611d14565b611d7981611d3c565b840191505092915050565b5f611d8f8383611d4c565b905092915050565b5f602082019050919050565b5f611dad82611cd1565b611db78185611cdb565b935083602082028501611dc985611ceb565b805f5b85811015611e045784840389528151611de58582611d84565b9450611df083611d97565b925060208a01995050600181019050611dcc565b50829750879550505050505092915050565b5f6020820190508181035f830152611e2e8184611da3565b905092915050565b5f82825260208201905092915050565b5f611e5082611cfa565b611e5a8185611e36565b9350611e6a818560208601611d14565b611e7381611d3c565b840191505092915050565b5f6020820190508181035f830152611e968184611e46565b905092915050565b5f805f8060608587031215611eb657611eb56119c8565b5b5f85013567ffffffffffffffff811115611ed357611ed26119cc565b5b611edf878288016119dc565b94509450506020611ef287828801611c03565b9250506040611f0387828801611a50565b91505092959194509250565b5f81905092915050565b5f611f2382611cfa565b611f2d8185611f0f565b9350611f3d818560208601611d14565b80840191505092915050565b7f4e487b71000000000000000000000000000000000000000000000000000000005f52602260045260245ffd5b5f6002820490506001821680611f8d57607f821691505b602082108103611fa057611f9f611f49565b5b50919050565b5f819050815f5260205f209050919050565b5f8154611fc481611f76565b611fce8186611f0f565b9450600182165f8114611fe85760018114611ffd5761202f565b60ff198316865281151582028601935061202f565b61200685611fa6565b5f5b8381101561202757815481890152600182019150602081019050612008565b838801955050505b50505092915050565b5f6120438285611f19565b915061204f8284611fb8565b91508190509392505050565b5f6120668284611f19565b915081905092915050565b7f596f7520617265206e6f7420746865206f776e6572206f66207468697320646f5f8201527f6d61696e2e000000000000000000000000000000000000000000000000000000602082015250565b5f6120cb602583611e36565b91506120d682612071565b604082019050919050565b5f6020820190508181035f8301526120f8816120bf565b9050919050565b7f4e487b71000000000000000000000000000000000000000000000000000000005f52601160045260245ffd5b5f61213682611a31565b915061214183611a31565b925082820261214f81611a31565b91508282048414831517612166576121656120ff565b5b5092915050565b7f496e73756666696369656e742066756e647320746f2072656e657720746865205f8201527f646f6d61696e20666f7220746865207370656369666965642079656172730000602082015250565b5f6121c7603e83611e36565b91506121d28261216d565b604082019050919050565b5f6020820190508181035f8301526121f4816121bb565b9050919050565b5f61220582611a31565b915061221083611a31565b9250828201905080821115612228576122276120ff565b5b92915050565b5f6040820190508181035f8301526122468185611e46565b90506122556020830184611b7e565b9392505050565b5f61226682611a31565b915061227183611a31565b9250828203905081811115612289576122886120ff565b5b92915050565b7f4f6e6c792074686520636f6e7472616374206f776e65722063616e2063616c6c5f8201527f20746869732066756e6374696f6e2e0000000000000000000000000000000000602082015250565b5f6122e9602f83611e36565b91506122f48261228f565b604082019050919050565b5f6020820190508181035f830152612316816122dd565b9050919050565b5f82905092915050565b7f4e487b71000000000000000000000000000000000000000000000000000000005f52604160045260245ffd5b5f6020601f8301049050919050565b5f82821b905092915050565b5f6008830261239e7fffffffffffffffffffffffffffffffffffffffffffffffffffffffffffffffff82612363565b6123a88683612363565b95508019841693508086168417925050509392505050565b5f819050919050565b5f6123e36123de6123d984611a31565b6123c0565b611a31565b9050919050565b5f819050919050565b6123fc836123c9565b612410612408826123ea565b84845461236f565b825550505050565b5f90565b612424612418565b61242f8184846123f3565b505050565b5b81811015612452576124475f8261241c565b600181019050612435565b5050565b601f8211156124975761246881611fa6565b61247184612354565b81016020851015612480578190505b61249461248c85612354565b830182612434565b50505b505050565b5f82821c905092915050565b5f6124b75f198460080261249c565b1980831691505092915050565b5f6124cf83836124a8565b9150826002028217905092915050565b6124e9838361231d565b67ffffffffffffffff81111561250257612501612327565b5b61250c8254611f76565b612517828285612456565b5f601f831160018114612544575f8415612532578287013590505b61253c85826124c4565b8655506125a3565b601f19841661255286611fa6565b5f5b8281101561257957848901358255600182019150602085019450602081019050612554565b868310156125965784890135612592601f8916826124a8565b8355505b6001600288020188555050505b50505050505050565b828183375f83830152505050565b5f6125c58385611e36565b93506125d28385846125ac565b6125db83611d3c565b840190509392505050565b5f6020820190508181035f8301526125ff8184866125ba565b90509392505050565b61261182611cfa565b67ffffffffffffffff81111561262a57612629612327565b5b6126348254611f76565b61263f828285612456565b5f60209050601f831160018114612670575f841561265e578287015190505b61266885826124c4565b8655506126cf565b601f19841661267e86611fa6565b5f5b828110156126a557848901518255600182019150602085019450602081019050612680565b868310156126c257848901516126be601f8916826124a8565b8355505b6001600288020188555050505b505050505050565b7f4e616d652073686f756c64206265206265747765656e203120616e64203135205f8201527f636861726163746572732e000000000000000000000000000000000000000000602082015250565b5f612731602b83611e36565b915061273c826126d7565b604082019050919050565b5f6020820190508181035f83015261275e81612725565b9050919050565b7f446f6d61696e20697320616c7265616479206f776e65640000000000000000005f82015250565b5f612799601783611e36565b91506127a482612765565b602082019050919050565b5f6020820190508181035f8301526127c68161278d565b9050919050565b7f446f6d61696e206e616d652073686f756c64206e6f7420696e636c75646520745f8201527f6865207375666669780000000000000000000000000000000000000000000000602082015250565b5f612827602983611e36565b9150612832826127cd565b604082019050919050565b5f6020820190508181035f8301526128548161281b565b9050919050565b7f496e73756666696369656e742066756e647320746f20726567697374657220745f8201527f686520646f6d61696e20666f722074686520737065636966696564207965617260208201527f7300000000000000000000000000000000000000000000000000000000000000604082015250565b5f6128db604183611e36565b91506128e68261285b565b606082019050919050565b5f6020820190508181035f830152612908816128cf565b9050919050565b5f6060820190508181035f8301526129278186611e46565b90506129366020830185611b6f565b6129436040830184611b7e565b949350505050565b7f4e487b71000000000000000000000000000000000000000000000000000000005f52603260045260245ffd5b5f60ff82169050919050565b5f61298e82612978565b915061299983612978565b9250828201905060ff8111156129b2576129b16120ff565b5b92915050565b5f6129c282611a31565b91507fffffffffffffffffffffffffffffffffffffffffffffffffffffffffffffffff82036129f4576129f36120ff565b5b600182019050919050565b5f612a0a8284611fb8565b915081905092915050565b5f81549050612a2381611f76565b9050919050565b5f819050815f5260205f209050919050565b818103612a4a575050612b1f565b612a5382612a15565b67ffffffffffffffff811115612a6c57612a6b612327565b5b612a768254611f76565b612a81828285612456565b5f601f831160018114612aae575f8415612a9c578287015490505b612aa685826124c4565b865550612b18565b601f198416612abc87612a2a565b9650612ac786611fa6565b5f5b82811015612aee57848901548255600182019150600185019450602081019050612ac9565b86831015612b0b5784890154612b07601f8916826124a8565b8355505b6001600288020188555050505b5050505050505b565b7f4e487b71000000000000000000000000000000000000000000000000000000005f52603160045260245ffdfea264697066735822122013764904ba152495fe5bf2b941e1d4940b445bd479ddbf3d4963455ba82340b664736f6c63430008150033",
					"opcodes": "PUSH1 0x80 PUSH1 0x40 MSTORE PUSH1 0x40 MLOAD DUP1 PUSH1 0x40 ADD PUSH1 0x40 MSTORE DUP1 PUSH1 0x4 DUP2 MSTORE PUSH1 0x20 ADD PUSH32 0x2E65647800000000000000000000000000000000000000000000000000000000 DUP2 MSTORE POP PUSH0 SWAP1 DUP2 PUSH3 0x49 SWAP2 SWAP1 PUSH3 0x30D JUMP JUMPDEST POP PUSH8 0xDE0B6B3A7640000 PUSH1 0x1 SSTORE CALLVALUE DUP1 ISZERO PUSH3 0x62 JUMPI PUSH0 DUP1 REVERT JUMPDEST POP CALLER PUSH1 0x2 PUSH0 PUSH2 0x100 EXP DUP2 SLOAD DUP2 PUSH20 0xFFFFFFFFFFFFFFFFFFFFFFFFFFFFFFFFFFFFFFFF MUL NOT AND SWAP1 DUP4 PUSH20 0xFFFFFFFFFFFFFFFFFFFFFFFFFFFFFFFFFFFFFFFF AND MUL OR SWAP1 SSTORE POP PUSH3 0x3F1 JUMP JUMPDEST PUSH0 DUP2 MLOAD SWAP1 POP SWAP2 SWAP1 POP JUMP JUMPDEST PUSH32 0x4E487B7100000000000000000000000000000000000000000000000000000000 PUSH0 MSTORE PUSH1 0x41 PUSH1 0x4 MSTORE PUSH1 0x24 PUSH0 REVERT JUMPDEST PUSH32 0x4E487B7100000000000000000000000000000000000000000000000000000000 PUSH0 MSTORE PUSH1 0x22 PUSH1 0x4 MSTORE PUSH1 0x24 PUSH0 REVERT JUMPDEST PUSH0 PUSH1 0x2 DUP3 DIV SWAP1 POP PUSH1 0x1 DUP3 AND DUP1 PUSH3 0x125 JUMPI PUSH1 0x7F DUP3 AND SWAP2 POP JUMPDEST PUSH1 0x20 DUP3 LT DUP2 SUB PUSH3 0x13B JUMPI PUSH3 0x13A PUSH3 0xE0 JUMP JUMPDEST JUMPDEST POP SWAP2 SWAP1 POP JUMP JUMPDEST PUSH0 DUP2 SWAP1 POP DUP2 PUSH0 MSTORE PUSH1 0x20 PUSH0 KECCAK256 SWAP1 POP SWAP2 SWAP1 POP JUMP JUMPDEST PUSH0 PUSH1 0x20 PUSH1 0x1F DUP4 ADD DIV SWAP1 POP SWAP2 SWAP1 POP JUMP JUMPDEST PUSH0 DUP3 DUP3 SHL SWAP1 POP SWAP3 SWAP2 POP POP JUMP JUMPDEST PUSH0 PUSH1 0x8 DUP4 MUL PUSH3 0x19F PUSH32 0xFFFFFFFFFFFFFFFFFFFFFFFFFFFFFFFFFFFFFFFFFFFFFFFFFFFFFFFFFFFFFFFF DUP3 PUSH3 0x162 JUMP JUMPDEST PUSH3 0x1AB DUP7 DUP4 PUSH3 0x162 JUMP JUMPDEST SWAP6 POP DUP1 NOT DUP5 AND SWAP4 POP DUP1 DUP7 AND DUP5 OR SWAP3 POP POP POP SWAP4 SWAP3 POP POP POP JUMP JUMPDEST PUSH0 DUP2 SWAP1 POP SWAP2 SWAP1 POP JUMP JUMPDEST PUSH0 DUP2 SWAP1 POP SWAP2 SWAP1 POP JUMP JUMPDEST PUSH0 PUSH3 0x1F5 PUSH3 0x1EF PUSH3 0x1E9 DUP5 PUSH3 0x1C3 JUMP JUMPDEST PUSH3 0x1CC JUMP JUMPDEST PUSH3 0x1C3 JUMP JUMPDEST SWAP1 POP SWAP2 SWAP1 POP JUMP JUMPDEST PUSH0 DUP2 SWAP1 POP SWAP2 SWAP1 POP JUMP JUMPDEST PUSH3 0x210 DUP4 PUSH3 0x1D5 JUMP JUMPDEST PUSH3 0x228 PUSH3 0x21F DUP3 PUSH3 0x1FC JUMP JUMPDEST DUP5 DUP5 SLOAD PUSH3 0x16E JUMP JUMPDEST DUP3 SSTORE POP POP POP POP JUMP JUMPDEST PUSH0 SWAP1 JUMP JUMPDEST PUSH3 0x23E PUSH3 0x230 JUMP JUMPDEST PUSH3 0x24B DUP2 DUP5 DUP5 PUSH3 0x205 JUMP JUMPDEST POP POP POP JUMP JUMPDEST JUMPDEST DUP2 DUP2 LT ISZERO PUSH3 0x272 JUMPI PUSH3 0x266 PUSH0 DUP3 PUSH3 0x234 JUMP JUMPDEST PUSH1 0x1 DUP2 ADD SWAP1 POP PUSH3 0x251 JUMP JUMPDEST POP POP JUMP JUMPDEST PUSH1 0x1F DUP3 GT ISZERO PUSH3 0x2C1 JUMPI PUSH3 0x28B DUP2 PUSH3 0x141 JUMP JUMPDEST PUSH3 0x296 DUP5 PUSH3 0x153 JUMP JUMPDEST DUP2 ADD PUSH1 0x20 DUP6 LT ISZERO PUSH3 0x2A6 JUMPI DUP2 SWAP1 POP JUMPDEST PUSH3 0x2BE PUSH3 0x2B5 DUP6 PUSH3 0x153 JUMP JUMPDEST DUP4 ADD DUP3 PUSH3 0x250 JUMP JUMPDEST POP POP JUMPDEST POP POP POP JUMP JUMPDEST PUSH0 DUP3 DUP3 SHR SWAP1 POP SWAP3 SWAP2 POP POP JUMP JUMPDEST PUSH0 PUSH3 0x2E3 PUSH0 NOT DUP5 PUSH1 0x8 MUL PUSH3 0x2C6 JUMP JUMPDEST NOT DUP1 DUP4 AND SWAP2 POP POP SWAP3 SWAP2 POP POP JUMP JUMPDEST PUSH0 PUSH3 0x2FD DUP4 DUP4 PUSH3 0x2D2 JUMP JUMPDEST SWAP2 POP DUP3 PUSH1 0x2 MUL DUP3 OR SWAP1 POP SWAP3 SWAP2 POP POP JUMP JUMPDEST PUSH3 0x318 DUP3 PUSH3 0xA9 JUMP JUMPDEST PUSH8 0xFFFFFFFFFFFFFFFF DUP2 GT ISZERO PUSH3 0x334 JUMPI PUSH3 0x333 PUSH3 0xB3 JUMP JUMPDEST JUMPDEST PUSH3 0x340 DUP3 SLOAD PUSH3 0x10D JUMP JUMPDEST PUSH3 0x34D DUP3 DUP3 DUP6 PUSH3 0x276 JUMP JUMPDEST PUSH0 PUSH1 0x20 SWAP1 POP PUSH1 0x1F DUP4 GT PUSH1 0x1 DUP2 EQ PUSH3 0x383 JUMPI PUSH0 DUP5 ISZERO PUSH3 0x36E JUMPI DUP3 DUP8 ADD MLOAD SWAP1 POP JUMPDEST PUSH3 0x37A DUP6 DUP3 PUSH3 0x2F0 JUMP JUMPDEST DUP7 SSTORE POP PUSH3 0x3E9 JUMP JUMPDEST PUSH1 0x1F NOT DUP5 AND PUSH3 0x393 DUP7 PUSH3 0x141 JUMP JUMPDEST PUSH0 JUMPDEST DUP3 DUP2 LT ISZERO PUSH3 0x3BC JUMPI DUP5 DUP10 ADD MLOAD DUP3 SSTORE PUSH1 0x1 DUP3 ADD SWAP2 POP PUSH1 0x20 DUP6 ADD SWAP5 POP PUSH1 0x20 DUP2 ADD SWAP1 POP PUSH3 0x395 JUMP JUMPDEST DUP7 DUP4 LT ISZERO PUSH3 0x3DC JUMPI DUP5 DUP10 ADD MLOAD PUSH3 0x3D8 PUSH1 0x1F DUP10 AND DUP3 PUSH3 0x2D2 JUMP JUMPDEST DUP4 SSTORE POP JUMPDEST PUSH1 0x1 PUSH1 0x2 DUP9 MUL ADD DUP9 SSTORE POP POP POP JUMPDEST POP POP POP POP POP POP JUMP JUMPDEST PUSH2 0x2B84 DUP1 PUSH3 0x3FF PUSH0 CODECOPY PUSH0 RETURN INVALID PUSH1 0x80 PUSH1 0x40 MSTORE PUSH1 0x4 CALLDATASIZE LT PUSH2 0xA6 JUMPI PUSH0 CALLDATALOAD PUSH1 0xE0 SHR DUP1 PUSH4 0x8DA5CB5B GT PUSH2 0x63 JUMPI DUP1 PUSH4 0x8DA5CB5B EQ PUSH2 0x1B8 JUMPI DUP1 PUSH4 0xC0E793C2 EQ PUSH2 0x1E2 JUMPI DUP1 PUSH4 0xDC4A7F7F EQ PUSH2 0x20A JUMPI DUP1 PUSH4 0xF38FFB6C EQ PUSH2 0x234 JUMPI DUP1 PUSH4 0xF7073C3A EQ PUSH2 0x270 JUMPI DUP1 PUSH4 0xFE1E1F5F EQ PUSH2 0x29A JUMPI PUSH2 0xA6 JUMP JUMPDEST DUP1 PUSH4 0x1A83FD8F EQ PUSH2 0xAA JUMPI DUP1 PUSH4 0x32752B09 EQ PUSH2 0xC6 JUMPI DUP1 PUSH4 0x4889E192 EQ PUSH2 0x102 JUMPI DUP1 PUSH4 0x637E9D5C EQ PUSH2 0x140 JUMPI DUP1 PUSH4 0x75D5AE9F EQ PUSH2 0x168 JUMPI DUP1 PUSH4 0x894D46AC EQ PUSH2 0x190 JUMPI JUMPDEST PUSH0 DUP1 REVERT JUMPDEST PUSH2 0xC4 PUSH1 0x4 DUP1 CALLDATASIZE SUB DUP2 ADD SWAP1 PUSH2 0xBF SWAP2 SWAP1 PUSH2 0x1A64 JUMP JUMPDEST PUSH2 0x2B6 JUMP JUMPDEST STOP JUMPDEST CALLVALUE DUP1 ISZERO PUSH2 0xD1 JUMPI PUSH0 DUP1 REVERT JUMPDEST POP PUSH2 0xEC PUSH1 0x4 DUP1 CALLDATASIZE SUB DUP2 ADD SWAP1 PUSH2 0xE7 SWAP2 SWAP1 PUSH2 0x1AC1 JUMP JUMPDEST PUSH2 0x596 JUMP JUMPDEST PUSH1 0x40 MLOAD PUSH2 0xF9 SWAP2 SWAP1 PUSH2 0x1B26 JUMP JUMPDEST PUSH1 0x40 MLOAD DUP1 SWAP2 SUB SWAP1 RETURN JUMPDEST CALLVALUE DUP1 ISZERO PUSH2 0x10D JUMPI PUSH0 DUP1 REVERT JUMPDEST POP PUSH2 0x128 PUSH1 0x4 DUP1 CALLDATASIZE SUB DUP2 ADD SWAP1 PUSH2 0x123 SWAP2 SWAP1 PUSH2 0x1AC1 JUMP JUMPDEST PUSH2 0x683 JUMP JUMPDEST PUSH1 0x40 MLOAD PUSH2 0x137 SWAP4 SWAP3 SWAP2 SWAP1 PUSH2 0x1B8D JUMP JUMPDEST PUSH1 0x40 MLOAD DUP1 SWAP2 SUB SWAP1 RETURN JUMPDEST CALLVALUE DUP1 ISZERO PUSH2 0x14B JUMPI PUSH0 DUP1 REVERT JUMPDEST POP PUSH2 0x166 PUSH1 0x4 DUP1 CALLDATASIZE SUB DUP2 ADD SWAP1 PUSH2 0x161 SWAP2 SWAP1 PUSH2 0x1BC2 JUMP JUMPDEST PUSH2 0x7AC JUMP JUMPDEST STOP JUMPDEST CALLVALUE DUP1 ISZERO PUSH2 0x173 JUMPI PUSH0 DUP1 REVERT JUMPDEST POP PUSH2 0x18E PUSH1 0x4 DUP1 CALLDATASIZE SUB DUP2 ADD SWAP1 PUSH2 0x189 SWAP2 SWAP1 PUSH2 0x1AC1 JUMP JUMPDEST PUSH2 0x87C JUMP JUMPDEST STOP JUMPDEST CALLVALUE DUP1 ISZERO PUSH2 0x19B JUMPI PUSH0 DUP1 REVERT JUMPDEST POP PUSH2 0x1B6 PUSH1 0x4 DUP1 CALLDATASIZE SUB DUP2 ADD SWAP1 PUSH2 0x1B1 SWAP2 SWAP1 PUSH2 0x1C17 JUMP JUMPDEST PUSH2 0x959 JUMP JUMPDEST STOP JUMPDEST CALLVALUE DUP1 ISZERO PUSH2 0x1C3 JUMPI PUSH0 DUP1 REVERT JUMPDEST POP PUSH2 0x1CC PUSH2 0xB99 JUMP JUMPDEST PUSH1 0x40 MLOAD PUSH2 0x1D9 SWAP2 SWAP1 PUSH2 0x1C74 JUMP JUMPDEST PUSH1 0x40 MLOAD DUP1 SWAP2 SUB SWAP1 RETURN JUMPDEST CALLVALUE DUP1 ISZERO PUSH2 0x1ED JUMPI PUSH0 DUP1 REVERT JUMPDEST POP PUSH2 0x208 PUSH1 0x4 DUP1 CALLDATASIZE SUB DUP2 ADD SWAP1 PUSH2 0x203 SWAP2 SWAP1 PUSH2 0x1C17 JUMP JUMPDEST PUSH2 0xBBE JUMP JUMPDEST STOP JUMPDEST CALLVALUE DUP1 ISZERO PUSH2 0x215 JUMPI PUSH0 DUP1 REVERT JUMPDEST POP PUSH2 0x21E PUSH2 0xECF JUMP JUMPDEST PUSH1 0x40 MLOAD PUSH2 0x22B SWAP2 SWAP1 PUSH2 0x1C8D JUMP JUMPDEST PUSH1 0x40 MLOAD DUP1 SWAP2 SUB SWAP1 RETURN JUMPDEST CALLVALUE DUP1 ISZERO PUSH2 0x23F JUMPI PUSH0 DUP1 REVERT JUMPDEST POP PUSH2 0x25A PUSH1 0x4 DUP1 CALLDATASIZE SUB DUP2 ADD SWAP1 PUSH2 0x255 SWAP2 SWAP1 PUSH2 0x1CA6 JUMP JUMPDEST PUSH2 0xED5 JUMP JUMPDEST PUSH1 0x40 MLOAD PUSH2 0x267 SWAP2 SWAP1 PUSH2 0x1E16 JUMP JUMPDEST PUSH1 0x40 MLOAD DUP1 SWAP2 SUB SWAP1 RETURN JUMPDEST CALLVALUE DUP1 ISZERO PUSH2 0x27B JUMPI PUSH0 DUP1 REVERT JUMPDEST POP PUSH2 0x284 PUSH2 0xFE6 JUMP JUMPDEST PUSH1 0x40 MLOAD PUSH2 0x291 SWAP2 SWAP1 PUSH2 0x1E7E JUMP JUMPDEST PUSH1 0x40 MLOAD DUP1 SWAP2 SUB SWAP1 RETURN JUMPDEST PUSH2 0x2B4 PUSH1 0x4 DUP1 CALLDATASIZE SUB DUP2 ADD SWAP1 PUSH2 0x2AF SWAP2 SWAP1 PUSH2 0x1E9E JUMP JUMPDEST PUSH2 0x1071 JUMP JUMPDEST STOP JUMPDEST DUP3 DUP3 DUP1 DUP1 PUSH1 0x1F ADD PUSH1 0x20 DUP1 SWAP2 DIV MUL PUSH1 0x20 ADD PUSH1 0x40 MLOAD SWAP1 DUP2 ADD PUSH1 0x40 MSTORE DUP1 SWAP4 SWAP3 SWAP2 SWAP1 DUP2 DUP2 MSTORE PUSH1 0x20 ADD DUP4 DUP4 DUP1 DUP3 DUP5 CALLDATACOPY PUSH0 DUP2 DUP5 ADD MSTORE PUSH1 0x1F NOT PUSH1 0x1F DUP3 ADD AND SWAP1 POP DUP1 DUP4 ADD SWAP3 POP POP POP POP POP POP POP PUSH0 DUP2 PUSH0 PUSH1 0x40 MLOAD PUSH1 0x20 ADD PUSH2 0x30E SWAP3 SWAP2 SWAP1 PUSH2 0x2038 JUMP JUMPDEST PUSH1 0x40 MLOAD PUSH1 0x20 DUP2 DUP4 SUB SUB DUP2 MSTORE SWAP1 PUSH1 0x40 MSTORE SWAP1 POP CALLER PUSH20 0xFFFFFFFFFFFFFFFFFFFFFFFFFFFFFFFFFFFFFFFF AND PUSH1 0x3 DUP3 PUSH1 0x40 MLOAD PUSH2 0x346 SWAP2 SWAP1 PUSH2 0x205B JUMP JUMPDEST SWAP1 DUP2 MSTORE PUSH1 0x20 ADD PUSH1 0x40 MLOAD DUP1 SWAP2 SUB SWAP1 KECCAK256 PUSH0 ADD PUSH0 SWAP1 SLOAD SWAP1 PUSH2 0x100 EXP SWAP1 DIV PUSH20 0xFFFFFFFFFFFFFFFFFFFFFFFFFFFFFFFFFFFFFFFF AND PUSH20 0xFFFFFFFFFFFFFFFFFFFFFFFFFFFFFFFFFFFFFFFF AND EQ PUSH2 0x3CC JUMPI PUSH1 0x40 MLOAD PUSH32 0x8C379A000000000000000000000000000000000000000000000000000000000 DUP2 MSTORE PUSH1 0x4 ADD PUSH2 0x3C3 SWAP1 PUSH2 0x20E1 JUMP JUMPDEST PUSH1 0x40 MLOAD DUP1 SWAP2 SUB SWAP1 REVERT JUMPDEST PUSH0 PUSH2 0x419 DUP7 DUP7 DUP1 DUP1 PUSH1 0x1F ADD PUSH1 0x20 DUP1 SWAP2 DIV MUL PUSH1 0x20 ADD PUSH1 0x40 MLOAD SWAP1 DUP2 ADD PUSH1 0x40 MSTORE DUP1 SWAP4 SWAP3 SWAP2 SWAP1 DUP2 DUP2 MSTORE PUSH1 0x20 ADD DUP4 DUP4 DUP1 DUP3 DUP5 CALLDATACOPY PUSH0 DUP2 DUP5 ADD MSTORE PUSH1 0x1F NOT PUSH1 0x1F DUP3 ADD AND SWAP1 POP DUP1 DUP4 ADD SWAP3 POP POP POP POP POP POP POP PUSH2 0x14BB JUMP JUMPDEST SWAP1 POP PUSH0 DUP2 PUSH0 PUSH1 0x40 MLOAD PUSH1 0x20 ADD PUSH2 0x42F SWAP3 SWAP2 SWAP1 PUSH2 0x2038 JUMP JUMPDEST PUSH1 0x40 MLOAD PUSH1 0x20 DUP2 DUP4 SUB SUB DUP2 MSTORE SWAP1 PUSH1 0x40 MSTORE SWAP1 POP PUSH0 DUP6 PUSH1 0x1 SLOAD PUSH2 0x44F SWAP2 SWAP1 PUSH2 0x212C JUMP JUMPDEST SWAP1 POP DUP1 CALLVALUE LT ISZERO PUSH2 0x494 JUMPI PUSH1 0x40 MLOAD PUSH32 0x8C379A000000000000000000000000000000000000000000000000000000000 DUP2 MSTORE PUSH1 0x4 ADD PUSH2 0x48B SWAP1 PUSH2 0x21DD JUMP JUMPDEST PUSH1 0x40 MLOAD DUP1 SWAP2 SUB SWAP1 REVERT JUMPDEST PUSH4 0x1E13380 DUP7 PUSH2 0x4A4 SWAP2 SWAP1 PUSH2 0x212C JUMP JUMPDEST PUSH1 0x3 DUP4 PUSH1 0x40 MLOAD PUSH2 0x4B4 SWAP2 SWAP1 PUSH2 0x205B JUMP JUMPDEST SWAP1 DUP2 MSTORE PUSH1 0x20 ADD PUSH1 0x40 MLOAD DUP1 SWAP2 SUB SWAP1 KECCAK256 PUSH1 0x2 ADD PUSH0 DUP3 DUP3 SLOAD PUSH2 0x4D3 SWAP2 SWAP1 PUSH2 0x21FB JUMP JUMPDEST SWAP3 POP POP DUP2 SWAP1 SSTORE POP PUSH32 0xF44EC9072DF846717B4110F1FC66219ABEEBA0E9599E259C4309F01079E7A8E9 DUP3 PUSH1 0x3 DUP5 PUSH1 0x40 MLOAD PUSH2 0x50C SWAP2 SWAP1 PUSH2 0x205B JUMP JUMPDEST SWAP1 DUP2 MSTORE PUSH1 0x20 ADD PUSH1 0x40 MLOAD DUP1 SWAP2 SUB SWAP1 KECCAK256 PUSH1 0x2 ADD SLOAD PUSH1 0x40 MLOAD PUSH2 0x52C SWAP3 SWAP2 SWAP1 PUSH2 0x222E JUMP JUMPDEST PUSH1 0x40 MLOAD DUP1 SWAP2 SUB SWAP1 LOG1 DUP1 CALLVALUE GT ISZERO PUSH2 0x58C JUMPI CALLER PUSH20 0xFFFFFFFFFFFFFFFFFFFFFFFFFFFFFFFFFFFFFFFF AND PUSH2 0x8FC DUP3 CALLVALUE PUSH2 0x562 SWAP2 SWAP1 PUSH2 0x225C JUMP JUMPDEST SWAP1 DUP2 ISZERO MUL SWAP1 PUSH1 0x40 MLOAD PUSH0 PUSH1 0x40 MLOAD DUP1 DUP4 SUB DUP2 DUP6 DUP9 DUP9 CALL SWAP4 POP POP POP POP ISZERO DUP1 ISZERO PUSH2 0x58A JUMPI RETURNDATASIZE PUSH0 DUP1 RETURNDATACOPY RETURNDATASIZE PUSH0 REVERT JUMPDEST POP JUMPDEST POP POP POP POP POP POP POP POP JUMP JUMPDEST PUSH0 DUP1 PUSH2 0x5E4 DUP5 DUP5 DUP1 DUP1 PUSH1 0x1F ADD PUSH1 0x20 DUP1 SWAP2 DIV MUL PUSH1 0x20 ADD PUSH1 0x40 MLOAD SWAP1 DUP2 ADD PUSH1 0x40 MSTORE DUP1 SWAP4 SWAP3 SWAP2 SWAP1 DUP2 DUP2 MSTORE PUSH1 0x20 ADD DUP4 DUP4 DUP1 DUP3 DUP5 CALLDATACOPY PUSH0 DUP2 DUP5 ADD MSTORE PUSH1 0x1F NOT PUSH1 0x1F DUP3 ADD AND SWAP1 POP DUP1 DUP4 ADD SWAP3 POP POP POP POP POP POP POP PUSH2 0x14BB JUMP JUMPDEST SWAP1 POP PUSH0 DUP2 PUSH0 PUSH1 0x40 MLOAD PUSH1 0x20 ADD PUSH2 0x5FA SWAP3 SWAP2 SWAP1 PUSH2 0x2038 JUMP JUMPDEST PUSH1 0x40 MLOAD PUSH1 0x20 DUP2 DUP4 SUB SUB DUP2 MSTORE SWAP1 PUSH1 0x40 MSTORE SWAP1 POP PUSH0 PUSH20 0xFFFFFFFFFFFFFFFFFFFFFFFFFFFFFFFFFFFFFFFF AND PUSH1 0x3 DUP3 PUSH1 0x40 MLOAD PUSH2 0x632 SWAP2 SWAP1 PUSH2 0x205B JUMP JUMPDEST SWAP1 DUP2 MSTORE PUSH1 0x20 ADD PUSH1 0x40 MLOAD DUP1 SWAP2 SUB SWAP1 KECCAK256 PUSH0 ADD PUSH0 SWAP1 SLOAD SWAP1 PUSH2 0x100 EXP SWAP1 DIV PUSH20 0xFFFFFFFFFFFFFFFFFFFFFFFFFFFFFFFFFFFFFFFF AND PUSH20 0xFFFFFFFFFFFFFFFFFFFFFFFFFFFFFFFFFFFFFFFF AND EQ SWAP3 POP POP POP SWAP3 SWAP2 POP POP JUMP JUMPDEST PUSH0 DUP1 PUSH0 DUP1 PUSH2 0x6D3 DUP7 DUP7 DUP1 DUP1 PUSH1 0x1F ADD PUSH1 0x20 DUP1 SWAP2 DIV MUL PUSH1 0x20 ADD PUSH1 0x40 MLOAD SWAP1 DUP2 ADD PUSH1 0x40 MSTORE DUP1 SWAP4 SWAP3 SWAP2 SWAP1 DUP2 DUP2 MSTORE PUSH1 0x20 ADD DUP4 DUP4 DUP1 DUP3 DUP5 CALLDATACOPY PUSH0 DUP2 DUP5 ADD MSTORE PUSH1 0x1F NOT PUSH1 0x1F DUP3 ADD AND SWAP1 POP DUP1 DUP4 ADD SWAP3 POP POP POP POP POP POP POP PUSH2 0x14BB JUMP JUMPDEST SWAP1 POP PUSH0 DUP2 PUSH0 PUSH1 0x40 MLOAD PUSH1 0x20 ADD PUSH2 0x6E9 SWAP3 SWAP2 SWAP1 PUSH2 0x2038 JUMP JUMPDEST PUSH1 0x40 MLOAD PUSH1 0x20 DUP2 DUP4 SUB SUB DUP2 MSTORE SWAP1 PUSH1 0x40 MSTORE SWAP1 POP PUSH1 0x3 DUP2 PUSH1 0x40 MLOAD PUSH2 0x70A SWAP2 SWAP1 PUSH2 0x205B JUMP JUMPDEST SWAP1 DUP2 MSTORE PUSH1 0x20 ADD PUSH1 0x40 MLOAD DUP1 SWAP2 SUB SWAP1 KECCAK256 PUSH0 ADD PUSH0 SWAP1 SLOAD SWAP1 PUSH2 0x100 EXP SWAP1 DIV PUSH20 0xFFFFFFFFFFFFFFFFFFFFFFFFFFFFFFFFFFFFFFFF AND PUSH1 0x3 DUP3 PUSH1 0x40 MLOAD PUSH2 0x74A SWAP2 SWAP1 PUSH2 0x205B JUMP JUMPDEST SWAP1 DUP2 MSTORE PUSH1 0x20 ADD PUSH1 0x40 MLOAD DUP1 SWAP2 SUB SWAP1 KECCAK256 PUSH1 0x1 ADD PUSH0 SWAP1 SLOAD SWAP1 PUSH2 0x100 EXP SWAP1 DIV PUSH20 0xFFFFFFFFFFFFFFFFFFFFFFFFFFFFFFFFFFFFFFFF AND PUSH1 0x3 DUP4 PUSH1 0x40 MLOAD PUSH2 0x78B SWAP2 SWAP1 PUSH2 0x205B JUMP JUMPDEST SWAP1 DUP2 MSTORE PUSH1 0x20 ADD PUSH1 0x40 MLOAD DUP1 SWAP2 SUB SWAP1 KECCAK256 PUSH1 0x2 ADD SLOAD SWAP5 POP SWAP5 POP SWAP5 POP POP POP SWAP3 POP SWAP3 POP SWAP3 JUMP JUMPDEST PUSH1 0x2 PUSH0 SWAP1 SLOAD SWAP1 PUSH2 0x100 EXP SWAP1 DIV PUSH20 0xFFFFFFFFFFFFFFFFFFFFFFFFFFFFFFFFFFFFFFFF AND PUSH20 0xFFFFFFFFFFFFFFFFFFFFFFFFFFFFFFFFFFFFFFFF AND CALLER PUSH20 0xFFFFFFFFFFFFFFFFFFFFFFFFFFFFFFFFFFFFFFFF AND EQ PUSH2 0x83B JUMPI PUSH1 0x40 MLOAD PUSH32 0x8C379A000000000000000000000000000000000000000000000000000000000 DUP2 MSTORE PUSH1 0x4 ADD PUSH2 0x832 SWAP1 PUSH2 0x22FF JUMP JUMPDEST PUSH1 0x40 MLOAD DUP1 SWAP2 SUB SWAP1 REVERT JUMPDEST DUP1 PUSH1 0x1 DUP2 SWAP1 SSTORE POP PUSH32 0xFA1F039258BEB7ECE09AB0DB5BEC981B26CC0D9803DD83FDCCE6AEB221AC7501 DUP2 PUSH1 0x40 MLOAD PUSH2 0x871 SWAP2 SWAP1 PUSH2 0x1C8D JUMP JUMPDEST PUSH1 0x40 MLOAD DUP1 SWAP2 SUB SWAP1 LOG1 POP JUMP JUMPDEST PUSH1 0x2 PUSH0 SWAP1 SLOAD SWAP1 PUSH2 0x100 EXP SWAP1 DIV PUSH20 0xFFFFFFFFFFFFFFFFFFFFFFFFFFFFFFFFFFFFFFFF AND PUSH20 0xFFFFFFFFFFFFFFFFFFFFFFFFFFFFFFFFFFFFFFFF AND CALLER PUSH20 0xFFFFFFFFFFFFFFFFFFFFFFFFFFFFFFFFFFFFFFFF AND EQ PUSH2 0x90B JUMPI PUSH1 0x40 MLOAD PUSH32 0x8C379A000000000000000000000000000000000000000000000000000000000 DUP2 MSTORE PUSH1 0x4 ADD PUSH2 0x902 SWAP1 PUSH2 0x22FF JUMP JUMPDEST PUSH1 0x40 MLOAD DUP1 SWAP2 SUB SWAP1 REVERT JUMPDEST DUP2 DUP2 PUSH0 SWAP2 DUP3 PUSH2 0x91B SWAP3 SWAP2 SWAP1 PUSH2 0x24DF JUMP JUMPDEST POP PUSH32 0xFBA05BF822A346EA5A55932A1F841C00041EB4FEF950F44D568DE2AAA08482C9 DUP3 DUP3 PUSH1 0x40 MLOAD PUSH2 0x94D SWAP3 SWAP2 SWAP1 PUSH2 0x25E6 JUMP JUMPDEST PUSH1 0x40 MLOAD DUP1 SWAP2 SUB SWAP1 LOG1 POP POP JUMP JUMPDEST DUP3 DUP3 DUP1 DUP1 PUSH1 0x1F ADD PUSH1 0x20 DUP1 SWAP2 DIV MUL PUSH1 0x20 ADD PUSH1 0x40 MLOAD SWAP1 DUP2 ADD PUSH1 0x40 MSTORE DUP1 SWAP4 SWAP3 SWAP2 SWAP1 DUP2 DUP2 MSTORE PUSH1 0x20 ADD DUP4 DUP4 DUP1 DUP3 DUP5 CALLDATACOPY PUSH0 DUP2 DUP5 ADD MSTORE PUSH1 0x1F NOT PUSH1 0x1F DUP3 ADD AND SWAP1 POP DUP1 DUP4 ADD SWAP3 POP POP POP POP POP POP POP PUSH0 DUP2 PUSH0 PUSH1 0x40 MLOAD PUSH1 0x20 ADD PUSH2 0x9B1 SWAP3 SWAP2 SWAP1 PUSH2 0x2038 JUMP JUMPDEST PUSH1 0x40 MLOAD PUSH1 0x20 DUP2 DUP4 SUB SUB DUP2 MSTORE SWAP1 PUSH1 0x40 MSTORE SWAP1 POP CALLER PUSH20 0xFFFFFFFFFFFFFFFFFFFFFFFFFFFFFFFFFFFFFFFF AND PUSH1 0x3 DUP3 PUSH1 0x40 MLOAD PUSH2 0x9E9 SWAP2 SWAP1 PUSH2 0x205B JUMP JUMPDEST SWAP1 DUP2 MSTORE PUSH1 0x20 ADD PUSH1 0x40 MLOAD DUP1 SWAP2 SUB SWAP1 KECCAK256 PUSH0 ADD PUSH0 SWAP1 SLOAD SWAP1 PUSH2 0x100 EXP SWAP1 DIV PUSH20 0xFFFFFFFFFFFFFFFFFFFFFFFFFFFFFFFFFFFFFFFF AND PUSH20 0xFFFFFFFFFFFFFFFFFFFFFFFFFFFFFFFFFFFFFFFF AND EQ PUSH2 0xA6F JUMPI PUSH1 0x40 MLOAD PUSH32 0x8C379A000000000000000000000000000000000000000000000000000000000 DUP2 MSTORE PUSH1 0x4 ADD PUSH2 0xA66 SWAP1 PUSH2 0x20E1 JUMP JUMPDEST PUSH1 0x40 MLOAD DUP1 SWAP2 SUB SWAP1 REVERT JUMPDEST PUSH0 PUSH2 0xABC DUP7 DUP7 DUP1 DUP1 PUSH1 0x1F ADD PUSH1 0x20 DUP1 SWAP2 DIV MUL PUSH1 0x20 ADD PUSH1 0x40 MLOAD SWAP1 DUP2 ADD PUSH1 0x40 MSTORE DUP1 SWAP4 SWAP3 SWAP2 SWAP1 DUP2 DUP2 MSTORE PUSH1 0x20 ADD DUP4 DUP4 DUP1 DUP3 DUP5 CALLDATACOPY PUSH0 DUP2 DUP5 ADD MSTORE PUSH1 0x1F NOT PUSH1 0x1F DUP3 ADD AND SWAP1 POP DUP1 DUP4 ADD SWAP3 POP POP POP POP POP POP POP PUSH2 0x14BB JUMP JUMPDEST SWAP1 POP PUSH0 DUP2 PUSH0 PUSH1 0x40 MLOAD PUSH1 0x20 ADD PUSH2 0xAD2 SWAP3 SWAP2 SWAP1 PUSH2 0x2038 JUMP JUMPDEST PUSH1 0x40 MLOAD PUSH1 0x20 DUP2 DUP4 SUB SUB DUP2 MSTORE SWAP1 PUSH1 0x40 MSTORE SWAP1 POP DUP5 PUSH1 0x3 DUP3 PUSH1 0x40 MLOAD PUSH2 0xAF4 SWAP2 SWAP1 PUSH2 0x205B JUMP JUMPDEST SWAP1 DUP2 MSTORE PUSH1 0x20 ADD PUSH1 0x40 MLOAD DUP1 SWAP2 SUB SWAP1 KECCAK256 PUSH1 0x1 ADD PUSH0 PUSH2 0x100 EXP DUP2 SLOAD DUP2 PUSH20 0xFFFFFFFFFFFFFFFFFFFFFFFFFFFFFFFFFFFFFFFF MUL NOT AND SWAP1 DUP4 PUSH20 0xFFFFFFFFFFFFFFFFFFFFFFFFFFFFFFFFFFFFFFFF AND MUL OR SWAP1 SSTORE POP DUP5 PUSH20 0xFFFFFFFFFFFFFFFFFFFFFFFFFFFFFFFFFFFFFFFF AND PUSH32 0x6D25091B0CF2F910DE133FA1124A83CC0BBA17DCDDB63E259346AFFD222EBE44 DUP3 PUSH1 0x40 MLOAD PUSH2 0xB88 SWAP2 SWAP1 PUSH2 0x1E7E JUMP JUMPDEST PUSH1 0x40 MLOAD DUP1 SWAP2 SUB SWAP1 LOG2 POP POP POP POP POP POP POP JUMP JUMPDEST PUSH1 0x2 PUSH0 SWAP1 SLOAD SWAP1 PUSH2 0x100 EXP SWAP1 DIV PUSH20 0xFFFFFFFFFFFFFFFFFFFFFFFFFFFFFFFFFFFFFFFF AND DUP2 JUMP JUMPDEST DUP3 DUP3 DUP1 DUP1 PUSH1 0x1F ADD PUSH1 0x20 DUP1 SWAP2 DIV MUL PUSH1 0x20 ADD PUSH1 0x40 MLOAD SWAP1 DUP2 ADD PUSH1 0x40 MSTORE DUP1 SWAP4 SWAP3 SWAP2 SWAP1 DUP2 DUP2 MSTORE PUSH1 0x20 ADD DUP4 DUP4 DUP1 DUP3 DUP5 CALLDATACOPY PUSH0 DUP2 DUP5 ADD MSTORE PUSH1 0x1F NOT PUSH1 0x1F DUP3 ADD AND SWAP1 POP DUP1 DUP4 ADD SWAP3 POP POP POP POP POP POP POP PUSH0 DUP2 PUSH0 PUSH1 0x40 MLOAD PUSH1 0x20 ADD PUSH2 0xC16 SWAP3 SWAP2 SWAP1 PUSH2 0x2038 JUMP JUMPDEST PUSH1 0x40 MLOAD PUSH1 0x20 DUP2 DUP4 SUB SUB DUP2 MSTORE SWAP1 PUSH1 0x40 MSTORE SWAP1 POP CALLER PUSH20 0xFFFFFFFFFFFFFFFFFFFFFFFFFFFFFFFFFFFFFFFF AND PUSH1 0x3 DUP3 PUSH1 0x40 MLOAD PUSH2 0xC4E SWAP2 SWAP1 PUSH2 0x205B JUMP JUMPDEST SWAP1 DUP2 MSTORE PUSH1 0x20 ADD PUSH1 0x40 MLOAD DUP1 SWAP2 SUB SWAP1 KECCAK256 PUSH0 ADD PUSH0 SWAP1 SLOAD SWAP1 PUSH2 0x100 EXP SWAP1 DIV PUSH20 0xFFFFFFFFFFFFFFFFFFFFFFFFFFFFFFFFFFFFFFFF AND PUSH20 0xFFFFFFFFFFFFFFFFFFFFFFFFFFFFFFFFFFFFFFFF AND EQ PUSH2 0xCD4 JUMPI PUSH1 0x40 MLOAD PUSH32 0x8C379A000000000000000000000000000000000000000000000000000000000 DUP2 MSTORE PUSH1 0x4 ADD PUSH2 0xCCB SWAP1 PUSH2 0x20E1 JUMP JUMPDEST PUSH1 0x40 MLOAD DUP1 SWAP2 SUB SWAP1 REVERT JUMPDEST PUSH0 PUSH2 0xD21 DUP7 DUP7 DUP1 DUP1 PUSH1 0x1F ADD PUSH1 0x20 DUP1 SWAP2 DIV MUL PUSH1 0x20 ADD PUSH1 0x40 MLOAD SWAP1 DUP2 ADD PUSH1 0x40 MSTORE DUP1 SWAP4 SWAP3 SWAP2 SWAP1 DUP2 DUP2 MSTORE PUSH1 0x20 ADD DUP4 DUP4 DUP1 DUP3 DUP5 CALLDATACOPY PUSH0 DUP2 DUP5 ADD MSTORE PUSH1 0x1F NOT PUSH1 0x1F DUP3 ADD AND SWAP1 POP DUP1 DUP4 ADD SWAP3 POP POP POP POP POP POP POP PUSH2 0x14BB JUMP JUMPDEST SWAP1 POP PUSH0 DUP2 PUSH0 PUSH1 0x40 MLOAD PUSH1 0x20 ADD PUSH2 0xD37 SWAP3 SWAP2 SWAP1 PUSH2 0x2038 JUMP JUMPDEST PUSH1 0x40 MLOAD PUSH1 0x20 DUP2 DUP4 SUB SUB DUP2 MSTORE SWAP1 PUSH1 0x40 MSTORE SWAP1 POP PUSH0 PUSH1 0x3 DUP3 PUSH1 0x40 MLOAD PUSH2 0xD59 SWAP2 SWAP1 PUSH2 0x205B JUMP JUMPDEST SWAP1 DUP2 MSTORE PUSH1 0x20 ADD PUSH1 0x40 MLOAD DUP1 SWAP2 SUB SWAP1 KECCAK256 PUSH0 ADD PUSH0 SWAP1 SLOAD SWAP1 PUSH2 0x100 EXP SWAP1 DIV PUSH20 0xFFFFFFFFFFFFFFFFFFFFFFFFFFFFFFFFFFFFFFFF AND SWAP1 POP DUP6 PUSH1 0x3 DUP4 PUSH1 0x40 MLOAD PUSH2 0xD9C SWAP2 SWAP1 PUSH2 0x205B JUMP JUMPDEST SWAP1 DUP2 MSTORE PUSH1 0x20 ADD PUSH1 0x40 MLOAD DUP1 SWAP2 SUB SWAP1 KECCAK256 PUSH0 ADD PUSH0 PUSH2 0x100 EXP DUP2 SLOAD DUP2 PUSH20 0xFFFFFFFFFFFFFFFFFFFFFFFFFFFFFFFFFFFFFFFF MUL NOT AND SWAP1 DUP4 PUSH20 0xFFFFFFFFFFFFFFFFFFFFFFFFFFFFFFFFFFFFFFFF AND MUL OR SWAP1 SSTORE POP PUSH2 0xDF3 DUP2 DUP4 PUSH2 0x166E JUMP JUMPDEST PUSH1 0x4 PUSH0 DUP8 PUSH20 0xFFFFFFFFFFFFFFFFFFFFFFFFFFFFFFFFFFFFFFFF AND PUSH20 0xFFFFFFFFFFFFFFFFFFFFFFFFFFFFFFFFFFFFFFFF AND DUP2 MSTORE PUSH1 0x20 ADD SWAP1 DUP2 MSTORE PUSH1 0x20 ADD PUSH0 KECCAK256 DUP3 SWAP1 DUP1 PUSH1 0x1 DUP2 SLOAD ADD DUP1 DUP3 SSTORE DUP1 SWAP2 POP POP PUSH1 0x1 SWAP1 SUB SWAP1 PUSH0 MSTORE PUSH1 0x20 PUSH0 KECCAK256 ADD PUSH0 SWAP1 SWAP2 SWAP1 SWAP2 SWAP1 SWAP2 POP SWAP1 DUP2 PUSH2 0xE5F SWAP2 SWAP1 PUSH2 0x2608 JUMP JUMPDEST POP DUP6 PUSH20 0xFFFFFFFFFFFFFFFFFFFFFFFFFFFFFFFFFFFFFFFF AND DUP2 PUSH20 0xFFFFFFFFFFFFFFFFFFFFFFFFFFFFFFFFFFFFFFFF AND PUSH32 0xD43AE7BA5D7F951BA2FB94D03DC0F12664835C289CEA1D1295E86A1FBDDFC82C DUP5 PUSH1 0x40 MLOAD PUSH2 0xEBD SWAP2 SWAP1 PUSH2 0x1E7E JUMP JUMPDEST PUSH1 0x40 MLOAD DUP1 SWAP2 SUB SWAP1 LOG3 POP POP POP POP POP POP POP POP JUMP JUMPDEST PUSH1 0x1 SLOAD DUP2 JUMP JUMPDEST PUSH1 0x60 PUSH1 0x4 PUSH0 DUP4 PUSH20 0xFFFFFFFFFFFFFFFFFFFFFFFFFFFFFFFFFFFFFFFF AND PUSH20 0xFFFFFFFFFFFFFFFFFFFFFFFFFFFFFFFFFFFFFFFF AND DUP2 MSTORE PUSH1 0x20 ADD SWAP1 DUP2 MSTORE PUSH1 0x20 ADD PUSH0 KECCAK256 DUP1 SLOAD DUP1 PUSH1 0x20 MUL PUSH1 0x20 ADD PUSH1 0x40 MLOAD SWAP1 DUP2 ADD PUSH1 0x40 MSTORE DUP1 SWAP3 SWAP2 SWAP1 DUP2 DUP2 MSTORE PUSH1 0x20 ADD PUSH0 SWAP1 JUMPDEST DUP3 DUP3 LT ISZERO PUSH2 0xFDB JUMPI DUP4 DUP3 SWAP1 PUSH0 MSTORE PUSH1 0x20 PUSH0 KECCAK256 ADD DUP1 SLOAD PUSH2 0xF50 SWAP1 PUSH2 0x1F76 JUMP JUMPDEST DUP1 PUSH1 0x1F ADD PUSH1 0x20 DUP1 SWAP2 DIV MUL PUSH1 0x20 ADD PUSH1 0x40 MLOAD SWAP1 DUP2 ADD PUSH1 0x40 MSTORE DUP1 SWAP3 SWAP2 SWAP1 DUP2 DUP2 MSTORE PUSH1 0x20 ADD DUP3 DUP1 SLOAD PUSH2 0xF7C SWAP1 PUSH2 0x1F76 JUMP JUMPDEST DUP1 ISZERO PUSH2 0xFC7 JUMPI DUP1 PUSH1 0x1F LT PUSH2 0xF9E JUMPI PUSH2 0x100 DUP1 DUP4 SLOAD DIV MUL DUP4 MSTORE SWAP2 PUSH1 0x20 ADD SWAP2 PUSH2 0xFC7 JUMP JUMPDEST DUP3 ADD SWAP2 SWAP1 PUSH0 MSTORE PUSH1 0x20 PUSH0 KECCAK256 SWAP1 JUMPDEST DUP2 SLOAD DUP2 MSTORE SWAP1 PUSH1 0x1 ADD SWAP1 PUSH1 0x20 ADD DUP1 DUP4 GT PUSH2 0xFAA JUMPI DUP3 SWAP1 SUB PUSH1 0x1F AND DUP3 ADD SWAP2 JUMPDEST POP POP POP POP POP DUP2 MSTORE PUSH1 0x20 ADD SWAP1 PUSH1 0x1 ADD SWAP1 PUSH2 0xF33 JUMP JUMPDEST POP POP POP POP SWAP1 POP SWAP2 SWAP1 POP JUMP JUMPDEST PUSH0 DUP1 SLOAD PUSH2 0xFF2 SWAP1 PUSH2 0x1F76 JUMP JUMPDEST DUP1 PUSH1 0x1F ADD PUSH1 0x20 DUP1 SWAP2 DIV MUL PUSH1 0x20 ADD PUSH1 0x40 MLOAD SWAP1 DUP2 ADD PUSH1 0x40 MSTORE DUP1 SWAP3 SWAP2 SWAP1 DUP2 DUP2 MSTORE PUSH1 0x20 ADD DUP3 DUP1 SLOAD PUSH2 0x101E SWAP1 PUSH2 0x1F76 JUMP JUMPDEST DUP1 ISZERO PUSH2 0x1069 JUMPI DUP1 PUSH1 0x1F LT PUSH2 0x1040 JUMPI PUSH2 0x100 DUP1 DUP4 SLOAD DIV MUL DUP4 MSTORE SWAP2 PUSH1 0x20 ADD SWAP2 PUSH2 0x1069 JUMP JUMPDEST DUP3 ADD SWAP2 SWAP1 PUSH0 MSTORE PUSH1 0x20 PUSH0 KECCAK256 SWAP1 JUMPDEST DUP2 SLOAD DUP2 MSTORE SWAP1 PUSH1 0x1 ADD SWAP1 PUSH1 0x20 ADD DUP1 DUP4 GT PUSH2 0x104C JUMPI DUP3 SWAP1 SUB PUSH1 0x1F AND DUP3 ADD SWAP2 JUMPDEST POP POP POP POP POP DUP2 JUMP JUMPDEST PUSH0 PUSH2 0x10BE DUP6 DUP6 DUP1 DUP1 PUSH1 0x1F ADD PUSH1 0x20 DUP1 SWAP2 DIV MUL PUSH1 0x20 ADD PUSH1 0x40 MLOAD SWAP1 DUP2 ADD PUSH1 0x40 MSTORE DUP1 SWAP4 SWAP3 SWAP2 SWAP1 DUP2 DUP2 MSTORE PUSH1 0x20 ADD DUP4 DUP4 DUP1 DUP3 DUP5 CALLDATACOPY PUSH0 DUP2 DUP5 ADD MSTORE PUSH1 0x1F NOT PUSH1 0x1F DUP3 ADD AND SWAP1 POP DUP1 DUP4 ADD SWAP3 POP POP POP POP POP POP POP PUSH2 0x14BB JUMP JUMPDEST SWAP1 POP PUSH0 DUP2 MLOAD GT DUP1 ISZERO PUSH2 0x10D2 JUMPI POP PUSH1 0xF DUP2 MLOAD GT ISZERO JUMPDEST PUSH2 0x1111 JUMPI PUSH1 0x40 MLOAD PUSH32 0x8C379A000000000000000000000000000000000000000000000000000000000 DUP2 MSTORE PUSH1 0x4 ADD PUSH2 0x1108 SWAP1 PUSH2 0x2747 JUMP JUMPDEST PUSH1 0x40 MLOAD DUP1 SWAP2 SUB SWAP1 REVERT JUMPDEST PUSH0 PUSH20 0xFFFFFFFFFFFFFFFFFFFFFFFFFFFFFFFFFFFFFFFF AND PUSH1 0x3 DUP3 PUSH1 0x40 MLOAD PUSH2 0x1138 SWAP2 SWAP1 PUSH2 0x205B JUMP JUMPDEST SWAP1 DUP2 MSTORE PUSH1 0x20 ADD PUSH1 0x40 MLOAD DUP1 SWAP2 SUB SWAP1 KECCAK256 PUSH0 ADD PUSH0 SWAP1 SLOAD SWAP1 PUSH2 0x100 EXP SWAP1 DIV PUSH20 0xFFFFFFFFFFFFFFFFFFFFFFFFFFFFFFFFFFFFFFFF AND PUSH20 0xFFFFFFFFFFFFFFFFFFFFFFFFFFFFFFFFFFFFFFFF AND EQ PUSH2 0x11BE JUMPI PUSH1 0x40 MLOAD PUSH32 0x8C379A000000000000000000000000000000000000000000000000000000000 DUP2 MSTORE PUSH1 0x4 ADD PUSH2 0x11B5 SWAP1 PUSH2 0x27AF JUMP JUMPDEST PUSH1 0x40 MLOAD DUP1 SWAP2 SUB SWAP1 REVERT JUMPDEST PUSH2 0x11C7 DUP2 PUSH2 0x17F9 JUMP JUMPDEST ISZERO PUSH2 0x1207 JUMPI PUSH1 0x40 MLOAD PUSH32 0x8C379A000000000000000000000000000000000000000000000000000000000 DUP2 MSTORE PUSH1 0x4 ADD PUSH2 0x11FE SWAP1 PUSH2 0x283D JUMP JUMPDEST PUSH1 0x40 MLOAD DUP1 SWAP2 SUB SWAP1 REVERT JUMPDEST PUSH0 DUP3 PUSH1 0x1 SLOAD PUSH2 0x1216 SWAP2 SWAP1 PUSH2 0x212C JUMP JUMPDEST SWAP1 POP DUP1 CALLVALUE LT ISZERO PUSH2 0x125B JUMPI PUSH1 0x40 MLOAD PUSH32 0x8C379A000000000000000000000000000000000000000000000000000000000 DUP2 MSTORE PUSH1 0x4 ADD PUSH2 0x1252 SWAP1 PUSH2 0x28F1 JUMP JUMPDEST PUSH1 0x40 MLOAD DUP1 SWAP2 SUB SWAP1 REVERT JUMPDEST PUSH0 DUP3 PUSH0 PUSH1 0x40 MLOAD PUSH1 0x20 ADD PUSH2 0x126F SWAP3 SWAP2 SWAP1 PUSH2 0x2038 JUMP JUMPDEST PUSH1 0x40 MLOAD PUSH1 0x20 DUP2 DUP4 SUB SUB DUP2 MSTORE SWAP1 PUSH1 0x40 MSTORE SWAP1 POP PUSH0 PUSH4 0x1E13380 DUP6 PUSH2 0x1291 SWAP2 SWAP1 PUSH2 0x212C JUMP JUMPDEST TIMESTAMP PUSH2 0x129C SWAP2 SWAP1 PUSH2 0x21FB JUMP JUMPDEST SWAP1 POP PUSH1 0x40 MLOAD DUP1 PUSH1 0x60 ADD PUSH1 0x40 MSTORE DUP1 CALLER PUSH20 0xFFFFFFFFFFFFFFFFFFFFFFFFFFFFFFFFFFFFFFFF AND DUP2 MSTORE PUSH1 0x20 ADD DUP8 PUSH20 0xFFFFFFFFFFFFFFFFFFFFFFFFFFFFFFFFFFFFFFFF AND DUP2 MSTORE PUSH1 0x20 ADD DUP3 DUP2 MSTORE POP PUSH1 0x3 DUP4 PUSH1 0x40 MLOAD PUSH2 0x12F5 SWAP2 SWAP1 PUSH2 0x205B JUMP JUMPDEST SWAP1 DUP2 MSTORE PUSH1 0x20 ADD PUSH1 0x40 MLOAD DUP1 SWAP2 SUB SWAP1 KECCAK256 PUSH0 DUP3 ADD MLOAD DUP2 PUSH0 ADD PUSH0 PUSH2 0x100 EXP DUP2 SLOAD DUP2 PUSH20 0xFFFFFFFFFFFFFFFFFFFFFFFFFFFFFFFFFFFFFFFF MUL NOT AND SWAP1 DUP4 PUSH20 0xFFFFFFFFFFFFFFFFFFFFFFFFFFFFFFFFFFFFFFFF AND MUL OR SWAP1 SSTORE POP PUSH1 0x20 DUP3 ADD MLOAD DUP2 PUSH1 0x1 ADD PUSH0 PUSH2 0x100 EXP DUP2 SLOAD DUP2 PUSH20 0xFFFFFFFFFFFFFFFFFFFFFFFFFFFFFFFFFFFFFFFF MUL NOT AND SWAP1 DUP4 PUSH20 0xFFFFFFFFFFFFFFFFFFFFFFFFFFFFFFFFFFFFFFFF AND MUL OR SWAP1 SSTORE POP PUSH1 0x40 DUP3 ADD MLOAD DUP2 PUSH1 0x2 ADD SSTORE SWAP1 POP POP PUSH1 0x4 PUSH0 CALLER PUSH20 0xFFFFFFFFFFFFFFFFFFFFFFFFFFFFFFFFFFFFFFFF AND PUSH20 0xFFFFFFFFFFFFFFFFFFFFFFFFFFFFFFFFFFFFFFFF AND DUP2 MSTORE PUSH1 0x20 ADD SWAP1 DUP2 MSTORE PUSH1 0x20 ADD PUSH0 KECCAK256 DUP3 SWAP1 DUP1 PUSH1 0x1 DUP2 SLOAD ADD DUP1 DUP3 SSTORE DUP1 SWAP2 POP POP PUSH1 0x1 SWAP1 SUB SWAP1 PUSH0 MSTORE PUSH1 0x20 PUSH0 KECCAK256 ADD PUSH0 SWAP1 SWAP2 SWAP1 SWAP2 SWAP1 SWAP2 POP SWAP1 DUP2 PUSH2 0x1406 SWAP2 SWAP1 PUSH2 0x2608 JUMP JUMPDEST POP CALLER PUSH20 0xFFFFFFFFFFFFFFFFFFFFFFFFFFFFFFFFFFFFFFFF AND PUSH32 0xA5F4533EC077C1B1E4FA879988258637A45B7A6E6663BF8589E0D3DDE3855017 DUP4 DUP9 DUP5 PUSH1 0x40 MLOAD PUSH2 0x1451 SWAP4 SWAP3 SWAP2 SWAP1 PUSH2 0x290F JUMP JUMPDEST PUSH1 0x40 MLOAD DUP1 SWAP2 SUB SWAP1 LOG2 DUP3 CALLVALUE GT ISZERO PUSH2 0x14B1 JUMPI CALLER PUSH20 0xFFFFFFFFFFFFFFFFFFFFFFFFFFFFFFFFFFFFFFFF AND PUSH2 0x8FC DUP5 CALLVALUE PUSH2 0x1487 SWAP2 SWAP1 PUSH2 0x225C JUMP JUMPDEST SWAP1 DUP2 ISZERO MUL SWAP1 PUSH1 0x40 MLOAD PUSH0 PUSH1 0x40 MLOAD DUP1 DUP4 SUB DUP2 DUP6 DUP9 DUP9 CALL SWAP4 POP POP POP POP ISZERO DUP1 ISZERO PUSH2 0x14AF JUMPI RETURNDATASIZE PUSH0 DUP1 RETURNDATACOPY RETURNDATASIZE PUSH0 REVERT JUMPDEST POP JUMPDEST POP POP POP POP POP POP POP POP JUMP JUMPDEST PUSH1 0x60 PUSH0 DUP3 SWAP1 POP PUSH0 DUP2 MLOAD PUSH8 0xFFFFFFFFFFFFFFFF DUP2 GT ISZERO PUSH2 0x14DD JUMPI PUSH2 0x14DC PUSH2 0x2327 JUMP JUMPDEST JUMPDEST PUSH1 0x40 MLOAD SWAP1 DUP1 DUP3 MSTORE DUP1 PUSH1 0x1F ADD PUSH1 0x1F NOT AND PUSH1 0x20 ADD DUP3 ADD PUSH1 0x40 MSTORE DUP1 ISZERO PUSH2 0x150F JUMPI DUP2 PUSH1 0x20 ADD PUSH1 0x1 DUP3 MUL DUP1 CALLDATASIZE DUP4 CALLDATACOPY DUP1 DUP3 ADD SWAP2 POP POP SWAP1 POP JUMPDEST POP SWAP1 POP PUSH0 JUMPDEST DUP3 MLOAD DUP2 LT ISZERO PUSH2 0x1663 JUMPI PUSH1 0x41 DUP4 DUP3 DUP2 MLOAD DUP2 LT PUSH2 0x1532 JUMPI PUSH2 0x1531 PUSH2 0x294B JUMP JUMPDEST JUMPDEST PUSH1 0x20 ADD ADD MLOAD PUSH1 0xF8 SHR PUSH1 0xF8 SHL PUSH1 0xF8 SHR PUSH1 0xFF AND LT ISZERO DUP1 ISZERO PUSH2 0x1575 JUMPI POP PUSH1 0x5A DUP4 DUP3 DUP2 MLOAD DUP2 LT PUSH2 0x1561 JUMPI PUSH2 0x1560 PUSH2 0x294B JUMP JUMPDEST JUMPDEST PUSH1 0x20 ADD ADD MLOAD PUSH1 0xF8 SHR PUSH1 0xF8 SHL PUSH1 0xF8 SHR PUSH1 0xFF AND GT ISZERO JUMPDEST ISZERO PUSH2 0x15F0 JUMPI PUSH1 0x20 DUP4 DUP3 DUP2 MLOAD DUP2 LT PUSH2 0x158F JUMPI PUSH2 0x158E PUSH2 0x294B JUMP JUMPDEST JUMPDEST PUSH1 0x20 ADD ADD MLOAD PUSH1 0xF8 SHR PUSH1 0xF8 SHL PUSH1 0xF8 SHR PUSH2 0x15A7 SWAP2 SWAP1 PUSH2 0x2984 JUMP JUMPDEST PUSH1 0xF8 SHL DUP3 DUP3 DUP2 MLOAD DUP2 LT PUSH2 0x15BD JUMPI PUSH2 0x15BC PUSH2 0x294B JUMP JUMPDEST JUMPDEST PUSH1 0x20 ADD ADD SWAP1 PUSH31 0xFFFFFFFFFFFFFFFFFFFFFFFFFFFFFFFFFFFFFFFFFFFFFFFFFFFFFFFFFFFFFF NOT AND SWAP1 DUP2 PUSH0 BYTE SWAP1 MSTORE8 POP PUSH2 0x1650 JUMP JUMPDEST DUP3 DUP2 DUP2 MLOAD DUP2 LT PUSH2 0x1603 JUMPI PUSH2 0x1602 PUSH2 0x294B JUMP JUMPDEST JUMPDEST PUSH1 0x20 ADD ADD MLOAD PUSH1 0xF8 SHR PUSH1 0xF8 SHL DUP3 DUP3 DUP2 MLOAD DUP2 LT PUSH2 0x1621 JUMPI PUSH2 0x1620 PUSH2 0x294B JUMP JUMPDEST JUMPDEST PUSH1 0x20 ADD ADD SWAP1 PUSH31 0xFFFFFFFFFFFFFFFFFFFFFFFFFFFFFFFFFFFFFFFFFFFFFFFFFFFFFFFFFFFFFF NOT AND SWAP1 DUP2 PUSH0 BYTE SWAP1 MSTORE8 POP JUMPDEST DUP1 DUP1 PUSH2 0x165B SWAP1 PUSH2 0x29B8 JUMP JUMPDEST SWAP2 POP POP PUSH2 0x1514 JUMP JUMPDEST POP DUP1 SWAP3 POP POP POP SWAP2 SWAP1 POP JUMP JUMPDEST PUSH0 PUSH1 0x4 PUSH0 DUP5 PUSH20 0xFFFFFFFFFFFFFFFFFFFFFFFFFFFFFFFFFFFFFFFF AND PUSH20 0xFFFFFFFFFFFFFFFFFFFFFFFFFFFFFFFFFFFFFFFF AND DUP2 MSTORE PUSH1 0x20 ADD SWAP1 DUP2 MSTORE PUSH1 0x20 ADD PUSH0 KECCAK256 SWAP1 POP PUSH0 PUSH2 0x16B8 DUP4 PUSH2 0x14BB JUMP JUMPDEST SWAP1 POP PUSH0 DUP2 PUSH0 PUSH1 0x40 MLOAD PUSH1 0x20 ADD PUSH2 0x16CE SWAP3 SWAP2 SWAP1 PUSH2 0x2038 JUMP JUMPDEST PUSH1 0x40 MLOAD PUSH1 0x20 DUP2 DUP4 SUB SUB DUP2 MSTORE SWAP1 PUSH1 0x40 MSTORE SWAP1 POP PUSH0 JUMPDEST DUP4 DUP1 SLOAD SWAP1 POP DUP2 LT ISZERO PUSH2 0x17F1 JUMPI DUP2 PUSH1 0x40 MLOAD PUSH1 0x20 ADD PUSH2 0x16FE SWAP2 SWAP1 PUSH2 0x205B JUMP JUMPDEST PUSH1 0x40 MLOAD PUSH1 0x20 DUP2 DUP4 SUB SUB DUP2 MSTORE SWAP1 PUSH1 0x40 MSTORE DUP1 MLOAD SWAP1 PUSH1 0x20 ADD KECCAK256 DUP5 DUP3 DUP2 SLOAD DUP2 LT PUSH2 0x1727 JUMPI PUSH2 0x1726 PUSH2 0x294B JUMP JUMPDEST JUMPDEST SWAP1 PUSH0 MSTORE PUSH1 0x20 PUSH0 KECCAK256 ADD PUSH1 0x40 MLOAD PUSH1 0x20 ADD PUSH2 0x173F SWAP2 SWAP1 PUSH2 0x29FF JUMP JUMPDEST PUSH1 0x40 MLOAD PUSH1 0x20 DUP2 DUP4 SUB SUB DUP2 MSTORE SWAP1 PUSH1 0x40 MSTORE DUP1 MLOAD SWAP1 PUSH1 0x20 ADD KECCAK256 SUB PUSH2 0x17DE JUMPI DUP4 PUSH1 0x1 DUP6 DUP1 SLOAD SWAP1 POP PUSH2 0x176C SWAP2 SWAP1 PUSH2 0x225C JUMP JUMPDEST DUP2 SLOAD DUP2 LT PUSH2 0x177D JUMPI PUSH2 0x177C PUSH2 0x294B JUMP JUMPDEST JUMPDEST SWAP1 PUSH0 MSTORE PUSH1 0x20 PUSH0 KECCAK256 ADD DUP5 DUP3 DUP2 SLOAD DUP2 LT PUSH2 0x1798 JUMPI PUSH2 0x1797 PUSH2 0x294B JUMP JUMPDEST JUMPDEST SWAP1 PUSH0 MSTORE PUSH1 0x20 PUSH0 KECCAK256 ADD SWAP1 DUP2 PUSH2 0x17AC SWAP2 SWAP1 PUSH2 0x2A3C JUMP JUMPDEST POP DUP4 DUP1 SLOAD DUP1 PUSH2 0x17BE JUMPI PUSH2 0x17BD PUSH2 0x2B21 JUMP JUMPDEST JUMPDEST PUSH1 0x1 SWAP1 SUB DUP2 DUP2 SWAP1 PUSH0 MSTORE PUSH1 0x20 PUSH0 KECCAK256 ADD PUSH0 PUSH2 0x17D7 SWAP2 SWAP1 PUSH2 0x1970 JUMP JUMPDEST SWAP1 SSTORE PUSH2 0x17F1 JUMP JUMPDEST DUP1 DUP1 PUSH2 0x17E9 SWAP1 PUSH2 0x29B8 JUMP JUMPDEST SWAP2 POP POP PUSH2 0x16E1 JUMP JUMPDEST POP POP POP POP POP POP JUMP JUMPDEST PUSH0 DUP1 DUP3 SWAP1 POP PUSH0 DUP1 DUP1 SLOAD PUSH2 0x180B SWAP1 PUSH2 0x1F76 JUMP JUMPDEST DUP1 PUSH1 0x1F ADD PUSH1 0x20 DUP1 SWAP2 DIV MUL PUSH1 0x20 ADD PUSH1 0x40 MLOAD SWAP1 DUP2 ADD PUSH1 0x40 MSTORE DUP1 SWAP3 SWAP2 SWAP1 DUP2 DUP2 MSTORE PUSH1 0x20 ADD DUP3 DUP1 SLOAD PUSH2 0x1837 SWAP1 PUSH2 0x1F76 JUMP JUMPDEST DUP1 ISZERO PUSH2 0x1882 JUMPI DUP1 PUSH1 0x1F LT PUSH2 0x1859 JUMPI PUSH2 0x100 DUP1 DUP4 SLOAD DIV MUL DUP4 MSTORE SWAP2 PUSH1 0x20 ADD SWAP2 PUSH2 0x1882 JUMP JUMPDEST DUP3 ADD SWAP2 SWAP1 PUSH0 MSTORE PUSH1 0x20 PUSH0 KECCAK256 SWAP1 JUMPDEST DUP2 SLOAD DUP2 MSTORE SWAP1 PUSH1 0x1 ADD SWAP1 PUSH1 0x20 ADD DUP1 DUP4 GT PUSH2 0x1865 JUMPI DUP3 SWAP1 SUB PUSH1 0x1F AND DUP3 ADD SWAP2 JUMPDEST POP POP POP POP POP SWAP1 POP DUP1 MLOAD DUP3 MLOAD LT ISZERO PUSH2 0x189D JUMPI PUSH0 SWAP3 POP POP POP PUSH2 0x196B JUMP JUMPDEST PUSH0 JUMPDEST DUP2 MLOAD DUP2 LT ISZERO PUSH2 0x1963 JUMPI DUP2 DUP2 DUP2 MLOAD DUP2 LT PUSH2 0x18BB JUMPI PUSH2 0x18BA PUSH2 0x294B JUMP JUMPDEST JUMPDEST PUSH1 0x20 ADD ADD MLOAD PUSH1 0xF8 SHR PUSH1 0xF8 SHL PUSH31 0xFFFFFFFFFFFFFFFFFFFFFFFFFFFFFFFFFFFFFFFFFFFFFFFFFFFFFFFFFFFFFF NOT AND DUP4 DUP3 DUP5 MLOAD DUP7 MLOAD PUSH2 0x18F8 SWAP2 SWAP1 PUSH2 0x225C JUMP JUMPDEST PUSH2 0x1902 SWAP2 SWAP1 PUSH2 0x21FB JUMP JUMPDEST DUP2 MLOAD DUP2 LT PUSH2 0x1913 JUMPI PUSH2 0x1912 PUSH2 0x294B JUMP JUMPDEST JUMPDEST PUSH1 0x20 ADD ADD MLOAD PUSH1 0xF8 SHR PUSH1 0xF8 SHL PUSH31 0xFFFFFFFFFFFFFFFFFFFFFFFFFFFFFFFFFFFFFFFFFFFFFFFFFFFFFFFFFFFFFF NOT AND EQ PUSH2 0x1950 JUMPI PUSH0 SWAP4 POP POP POP POP PUSH2 0x196B JUMP JUMPDEST DUP1 DUP1 PUSH2 0x195B SWAP1 PUSH2 0x29B8 JUMP JUMPDEST SWAP2 POP POP PUSH2 0x189F JUMP JUMPDEST POP PUSH1 0x1 SWAP3 POP POP POP JUMPDEST SWAP2 SWAP1 POP JUMP JUMPDEST POP DUP1 SLOAD PUSH2 0x197C SWAP1 PUSH2 0x1F76 JUMP JUMPDEST PUSH0 DUP3 SSTORE DUP1 PUSH1 0x1F LT PUSH2 0x198D JUMPI POP PUSH2 0x19AA JUMP JUMPDEST PUSH1 0x1F ADD PUSH1 0x20 SWAP1 DIV SWAP1 PUSH0 MSTORE PUSH1 0x20 PUSH0 KECCAK256 SWAP1 DUP2 ADD SWAP1 PUSH2 0x19A9 SWAP2 SWAP1 PUSH2 0x19AD JUMP JUMPDEST JUMPDEST POP JUMP JUMPDEST JUMPDEST DUP1 DUP3 GT ISZERO PUSH2 0x19C4 JUMPI PUSH0 DUP2 PUSH0 SWAP1 SSTORE POP PUSH1 0x1 ADD PUSH2 0x19AE JUMP JUMPDEST POP SWAP1 JUMP JUMPDEST PUSH0 DUP1 REVERT JUMPDEST PUSH0 DUP1 REVERT JUMPDEST PUSH0 DUP1 REVERT JUMPDEST PUSH0 DUP1 REVERT JUMPDEST PUSH0 DUP1 REVERT JUMPDEST PUSH0 DUP1 DUP4 PUSH1 0x1F DUP5 ADD SLT PUSH2 0x19F1 JUMPI PUSH2 0x19F0 PUSH2 0x19D0 JUMP JUMPDEST JUMPDEST DUP3 CALLDATALOAD SWAP1 POP PUSH8 0xFFFFFFFFFFFFFFFF DUP2 GT ISZERO PUSH2 0x1A0E JUMPI PUSH2 0x1A0D PUSH2 0x19D4 JUMP JUMPDEST JUMPDEST PUSH1 0x20 DUP4 ADD SWAP2 POP DUP4 PUSH1 0x1 DUP3 MUL DUP4 ADD GT ISZERO PUSH2 0x1A2A JUMPI PUSH2 0x1A29 PUSH2 0x19D8 JUMP JUMPDEST JUMPDEST SWAP3 POP SWAP3 SWAP1 POP JUMP JUMPDEST PUSH0 DUP2 SWAP1 POP SWAP2 SWAP1 POP JUMP JUMPDEST PUSH2 0x1A43 DUP2 PUSH2 0x1A31 JUMP JUMPDEST DUP2 EQ PUSH2 0x1A4D JUMPI PUSH0 DUP1 REVERT JUMPDEST POP JUMP JUMPDEST PUSH0 DUP2 CALLDATALOAD SWAP1 POP PUSH2 0x1A5E DUP2 PUSH2 0x1A3A JUMP JUMPDEST SWAP3 SWAP2 POP POP JUMP JUMPDEST PUSH0 DUP1 PUSH0 PUSH1 0x40 DUP5 DUP7 SUB SLT ISZERO PUSH2 0x1A7B JUMPI PUSH2 0x1A7A PUSH2 0x19C8 JUMP JUMPDEST JUMPDEST PUSH0 DUP5 ADD CALLDATALOAD PUSH8 0xFFFFFFFFFFFFFFFF DUP2 GT ISZERO PUSH2 0x1A98 JUMPI PUSH2 0x1A97 PUSH2 0x19CC JUMP JUMPDEST JUMPDEST PUSH2 0x1AA4 DUP7 DUP3 DUP8 ADD PUSH2 0x19DC JUMP JUMPDEST SWAP4 POP SWAP4 POP POP PUSH1 0x20 PUSH2 0x1AB7 DUP7 DUP3 DUP8 ADD PUSH2 0x1A50 JUMP JUMPDEST SWAP2 POP POP SWAP3 POP SWAP3 POP SWAP3 JUMP JUMPDEST PUSH0 DUP1 PUSH1 0x20 DUP4 DUP6 SUB SLT ISZERO PUSH2 0x1AD7 JUMPI PUSH2 0x1AD6 PUSH2 0x19C8 JUMP JUMPDEST JUMPDEST PUSH0 DUP4 ADD CALLDATALOAD PUSH8 0xFFFFFFFFFFFFFFFF DUP2 GT ISZERO PUSH2 0x1AF4 JUMPI PUSH2 0x1AF3 PUSH2 0x19CC JUMP JUMPDEST JUMPDEST PUSH2 0x1B00 DUP6 DUP3 DUP7 ADD PUSH2 0x19DC JUMP JUMPDEST SWAP3 POP SWAP3 POP POP SWAP3 POP SWAP3 SWAP1 POP JUMP JUMPDEST PUSH0 DUP2 ISZERO ISZERO SWAP1 POP SWAP2 SWAP1 POP JUMP JUMPDEST PUSH2 0x1B20 DUP2 PUSH2 0x1B0C JUMP JUMPDEST DUP3 MSTORE POP POP JUMP JUMPDEST PUSH0 PUSH1 0x20 DUP3 ADD SWAP1 POP PUSH2 0x1B39 PUSH0 DUP4 ADD DUP5 PUSH2 0x1B17 JUMP JUMPDEST SWAP3 SWAP2 POP POP JUMP JUMPDEST PUSH0 PUSH20 0xFFFFFFFFFFFFFFFFFFFFFFFFFFFFFFFFFFFFFFFF DUP3 AND SWAP1 POP SWAP2 SWAP1 POP JUMP JUMPDEST PUSH0 PUSH2 0x1B68 DUP3 PUSH2 0x1B3F JUMP JUMPDEST SWAP1 POP SWAP2 SWAP1 POP JUMP JUMPDEST PUSH2 0x1B78 DUP2 PUSH2 0x1B5E JUMP JUMPDEST DUP3 MSTORE POP POP JUMP JUMPDEST PUSH2 0x1B87 DUP2 PUSH2 0x1A31 JUMP JUMPDEST DUP3 MSTORE POP POP JUMP JUMPDEST PUSH0 PUSH1 0x60 DUP3 ADD SWAP1 POP PUSH2 0x1BA0 PUSH0 DUP4 ADD DUP7 PUSH2 0x1B6F JUMP JUMPDEST PUSH2 0x1BAD PUSH1 0x20 DUP4 ADD DUP6 PUSH2 0x1B6F JUMP JUMPDEST PUSH2 0x1BBA PUSH1 0x40 DUP4 ADD DUP5 PUSH2 0x1B7E JUMP JUMPDEST SWAP5 SWAP4 POP POP POP POP JUMP JUMPDEST PUSH0 PUSH1 0x20 DUP3 DUP5 SUB SLT ISZERO PUSH2 0x1BD7 JUMPI PUSH2 0x1BD6 PUSH2 0x19C8 JUMP JUMPDEST JUMPDEST PUSH0 PUSH2 0x1BE4 DUP5 DUP3 DUP6 ADD PUSH2 0x1A50 JUMP JUMPDEST SWAP2 POP POP SWAP3 SWAP2 POP POP JUMP JUMPDEST PUSH2 0x1BF6 DUP2 PUSH2 0x1B5E JUMP JUMPDEST DUP2 EQ PUSH2 0x1C00 JUMPI PUSH0 DUP1 REVERT JUMPDEST POP JUMP JUMPDEST PUSH0 DUP2 CALLDATALOAD SWAP1 POP PUSH2 0x1C11 DUP2 PUSH2 0x1BED JUMP JUMPDEST SWAP3 SWAP2 POP POP JUMP JUMPDEST PUSH0 DUP1 PUSH0 PUSH1 0x40 DUP5 DUP7 SUB SLT ISZERO PUSH2 0x1C2E JUMPI PUSH2 0x1C2D PUSH2 0x19C8 JUMP JUMPDEST JUMPDEST PUSH0 DUP5 ADD CALLDATALOAD PUSH8 0xFFFFFFFFFFFFFFFF DUP2 GT ISZERO PUSH2 0x1C4B JUMPI PUSH2 0x1C4A PUSH2 0x19CC JUMP JUMPDEST JUMPDEST PUSH2 0x1C57 DUP7 DUP3 DUP8 ADD PUSH2 0x19DC JUMP JUMPDEST SWAP4 POP SWAP4 POP POP PUSH1 0x20 PUSH2 0x1C6A DUP7 DUP3 DUP8 ADD PUSH2 0x1C03 JUMP JUMPDEST SWAP2 POP POP SWAP3 POP SWAP3 POP SWAP3 JUMP JUMPDEST PUSH0 PUSH1 0x20 DUP3 ADD SWAP1 POP PUSH2 0x1C87 PUSH0 DUP4 ADD DUP5 PUSH2 0x1B6F JUMP JUMPDEST SWAP3 SWAP2 POP POP JUMP JUMPDEST PUSH0 PUSH1 0x20 DUP3 ADD SWAP1 POP PUSH2 0x1CA0 PUSH0 DUP4 ADD DUP5 PUSH2 0x1B7E JUMP JUMPDEST SWAP3 SWAP2 POP POP JUMP JUMPDEST PUSH0 PUSH1 0x20 DUP3 DUP5 SUB SLT ISZERO PUSH2 0x1CBB JUMPI PUSH2 0x1CBA PUSH2 0x19C8 JUMP JUMPDEST JUMPDEST PUSH0 PUSH2 0x1CC8 DUP5 DUP3 DUP6 ADD PUSH2 0x1C03 JUMP JUMPDEST SWAP2 POP POP SWAP3 SWAP2 POP POP JUMP JUMPDEST PUSH0 DUP2 MLOAD SWAP1 POP SWAP2 SWAP1 POP JUMP JUMPDEST PUSH0 DUP3 DUP3 MSTORE PUSH1 0x20 DUP3 ADD SWAP1 POP SWAP3 SWAP2 POP POP JUMP JUMPDEST PUSH0 DUP2 SWAP1 POP PUSH1 0x20 DUP3 ADD SWAP1 POP SWAP2 SWAP1 POP JUMP JUMPDEST PUSH0 DUP2 MLOAD SWAP1 POP SWAP2 SWAP1 POP JUMP JUMPDEST PUSH0 DUP3 DUP3 MSTORE PUSH1 0x20 DUP3 ADD SWAP1 POP SWAP3 SWAP2 POP POP JUMP JUMPDEST PUSH0 JUMPDEST DUP4 DUP2 LT ISZERO PUSH2 0x1D31 JUMPI DUP1 DUP3 ADD MLOAD DUP2 DUP5 ADD MSTORE PUSH1 0x20 DUP2 ADD SWAP1 POP PUSH2 0x1D16 JUMP JUMPDEST PUSH0 DUP5 DUP5 ADD MSTORE POP POP POP POP JUMP JUMPDEST PUSH0 PUSH1 0x1F NOT PUSH1 0x1F DUP4 ADD AND SWAP1 POP SWAP2 SWAP1 POP JUMP JUMPDEST PUSH0 PUSH2 0x1D56 DUP3 PUSH2 0x1CFA JUMP JUMPDEST PUSH2 0x1D60 DUP2 DUP6 PUSH2 0x1D04 JUMP JUMPDEST SWAP4 POP PUSH2 0x1D70 DUP2 DUP6 PUSH1 0x20 DUP7 ADD PUSH2 0x1D14 JUMP JUMPDEST PUSH2 0x1D79 DUP2 PUSH2 0x1D3C JUMP JUMPDEST DUP5 ADD SWAP2 POP POP SWAP3 SWAP2 POP POP JUMP JUMPDEST PUSH0 PUSH2 0x1D8F DUP4 DUP4 PUSH2 0x1D4C JUMP JUMPDEST SWAP1 POP SWAP3 SWAP2 POP POP JUMP JUMPDEST PUSH0 PUSH1 0x20 DUP3 ADD SWAP1 POP SWAP2 SWAP1 POP JUMP JUMPDEST PUSH0 PUSH2 0x1DAD DUP3 PUSH2 0x1CD1 JUMP JUMPDEST PUSH2 0x1DB7 DUP2 DUP6 PUSH2 0x1CDB JUMP JUMPDEST SWAP4 POP DUP4 PUSH1 0x20 DUP3 MUL DUP6 ADD PUSH2 0x1DC9 DUP6 PUSH2 0x1CEB JUMP JUMPDEST DUP1 PUSH0 JUMPDEST DUP6 DUP2 LT ISZERO PUSH2 0x1E04 JUMPI DUP5 DUP5 SUB DUP10 MSTORE DUP2 MLOAD PUSH2 0x1DE5 DUP6 DUP3 PUSH2 0x1D84 JUMP JUMPDEST SWAP5 POP PUSH2 0x1DF0 DUP4 PUSH2 0x1D97 JUMP JUMPDEST SWAP3 POP PUSH1 0x20 DUP11 ADD SWAP10 POP POP PUSH1 0x1 DUP2 ADD SWAP1 POP PUSH2 0x1DCC JUMP JUMPDEST POP DUP3 SWAP8 POP DUP8 SWAP6 POP POP POP POP POP POP SWAP3 SWAP2 POP POP JUMP JUMPDEST PUSH0 PUSH1 0x20 DUP3 ADD SWAP1 POP DUP2 DUP2 SUB PUSH0 DUP4 ADD MSTORE PUSH2 0x1E2E DUP2 DUP5 PUSH2 0x1DA3 JUMP JUMPDEST SWAP1 POP SWAP3 SWAP2 POP POP JUMP JUMPDEST PUSH0 DUP3 DUP3 MSTORE PUSH1 0x20 DUP3 ADD SWAP1 POP SWAP3 SWAP2 POP POP JUMP JUMPDEST PUSH0 PUSH2 0x1E50 DUP3 PUSH2 0x1CFA JUMP JUMPDEST PUSH2 0x1E5A DUP2 DUP6 PUSH2 0x1E36 JUMP JUMPDEST SWAP4 POP PUSH2 0x1E6A DUP2 DUP6 PUSH1 0x20 DUP7 ADD PUSH2 0x1D14 JUMP JUMPDEST PUSH2 0x1E73 DUP2 PUSH2 0x1D3C JUMP JUMPDEST DUP5 ADD SWAP2 POP POP SWAP3 SWAP2 POP POP JUMP JUMPDEST PUSH0 PUSH1 0x20 DUP3 ADD SWAP1 POP DUP2 DUP2 SUB PUSH0 DUP4 ADD MSTORE PUSH2 0x1E96 DUP2 DUP5 PUSH2 0x1E46 JUMP JUMPDEST SWAP1 POP SWAP3 SWAP2 POP POP JUMP JUMPDEST PUSH0 DUP1 PUSH0 DUP1 PUSH1 0x60 DUP6 DUP8 SUB SLT ISZERO PUSH2 0x1EB6 JUMPI PUSH2 0x1EB5 PUSH2 0x19C8 JUMP JUMPDEST JUMPDEST PUSH0 DUP6 ADD CALLDATALOAD PUSH8 0xFFFFFFFFFFFFFFFF DUP2 GT ISZERO PUSH2 0x1ED3 JUMPI PUSH2 0x1ED2 PUSH2 0x19CC JUMP JUMPDEST JUMPDEST PUSH2 0x1EDF DUP8 DUP3 DUP9 ADD PUSH2 0x19DC JUMP JUMPDEST SWAP5 POP SWAP5 POP POP PUSH1 0x20 PUSH2 0x1EF2 DUP8 DUP3 DUP9 ADD PUSH2 0x1C03 JUMP JUMPDEST SWAP3 POP POP PUSH1 0x40 PUSH2 0x1F03 DUP8 DUP3 DUP9 ADD PUSH2 0x1A50 JUMP JUMPDEST SWAP2 POP POP SWAP3 SWAP6 SWAP2 SWAP5 POP SWAP3 POP JUMP JUMPDEST PUSH0 DUP2 SWAP1 POP SWAP3 SWAP2 POP POP JUMP JUMPDEST PUSH0 PUSH2 0x1F23 DUP3 PUSH2 0x1CFA JUMP JUMPDEST PUSH2 0x1F2D DUP2 DUP6 PUSH2 0x1F0F JUMP JUMPDEST SWAP4 POP PUSH2 0x1F3D DUP2 DUP6 PUSH1 0x20 DUP7 ADD PUSH2 0x1D14 JUMP JUMPDEST DUP1 DUP5 ADD SWAP2 POP POP SWAP3 SWAP2 POP POP JUMP JUMPDEST PUSH32 0x4E487B7100000000000000000000000000000000000000000000000000000000 PUSH0 MSTORE PUSH1 0x22 PUSH1 0x4 MSTORE PUSH1 0x24 PUSH0 REVERT JUMPDEST PUSH0 PUSH1 0x2 DUP3 DIV SWAP1 POP PUSH1 0x1 DUP3 AND DUP1 PUSH2 0x1F8D JUMPI PUSH1 0x7F DUP3 AND SWAP2 POP JUMPDEST PUSH1 0x20 DUP3 LT DUP2 SUB PUSH2 0x1FA0 JUMPI PUSH2 0x1F9F PUSH2 0x1F49 JUMP JUMPDEST JUMPDEST POP SWAP2 SWAP1 POP JUMP JUMPDEST PUSH0 DUP2 SWAP1 POP DUP2 PUSH0 MSTORE PUSH1 0x20 PUSH0 KECCAK256 SWAP1 POP SWAP2 SWAP1 POP JUMP JUMPDEST PUSH0 DUP2 SLOAD PUSH2 0x1FC4 DUP2 PUSH2 0x1F76 JUMP JUMPDEST PUSH2 0x1FCE DUP2 DUP7 PUSH2 0x1F0F JUMP JUMPDEST SWAP5 POP PUSH1 0x1 DUP3 AND PUSH0 DUP2 EQ PUSH2 0x1FE8 JUMPI PUSH1 0x1 DUP2 EQ PUSH2 0x1FFD JUMPI PUSH2 0x202F JUMP JUMPDEST PUSH1 0xFF NOT DUP4 AND DUP7 MSTORE DUP2 ISZERO ISZERO DUP3 MUL DUP7 ADD SWAP4 POP PUSH2 0x202F JUMP JUMPDEST PUSH2 0x2006 DUP6 PUSH2 0x1FA6 JUMP JUMPDEST PUSH0 JUMPDEST DUP4 DUP2 LT ISZERO PUSH2 0x2027 JUMPI DUP2 SLOAD DUP2 DUP10 ADD MSTORE PUSH1 0x1 DUP3 ADD SWAP2 POP PUSH1 0x20 DUP2 ADD SWAP1 POP PUSH2 0x2008 JUMP JUMPDEST DUP4 DUP9 ADD SWAP6 POP POP POP JUMPDEST POP POP POP SWAP3 SWAP2 POP POP JUMP JUMPDEST PUSH0 PUSH2 0x2043 DUP3 DUP6 PUSH2 0x1F19 JUMP JUMPDEST SWAP2 POP PUSH2 0x204F DUP3 DUP5 PUSH2 0x1FB8 JUMP JUMPDEST SWAP2 POP DUP2 SWAP1 POP SWAP4 SWAP3 POP POP POP JUMP JUMPDEST PUSH0 PUSH2 0x2066 DUP3 DUP5 PUSH2 0x1F19 JUMP JUMPDEST SWAP2 POP DUP2 SWAP1 POP SWAP3 SWAP2 POP POP JUMP JUMPDEST PUSH32 0x596F7520617265206E6F7420746865206F776E6572206F66207468697320646F PUSH0 DUP3 ADD MSTORE PUSH32 0x6D61696E2E000000000000000000000000000000000000000000000000000000 PUSH1 0x20 DUP3 ADD MSTORE POP JUMP JUMPDEST PUSH0 PUSH2 0x20CB PUSH1 0x25 DUP4 PUSH2 0x1E36 JUMP JUMPDEST SWAP2 POP PUSH2 0x20D6 DUP3 PUSH2 0x2071 JUMP JUMPDEST PUSH1 0x40 DUP3 ADD SWAP1 POP SWAP2 SWAP1 POP JUMP JUMPDEST PUSH0 PUSH1 0x20 DUP3 ADD SWAP1 POP DUP2 DUP2 SUB PUSH0 DUP4 ADD MSTORE PUSH2 0x20F8 DUP2 PUSH2 0x20BF JUMP JUMPDEST SWAP1 POP SWAP2 SWAP1 POP JUMP JUMPDEST PUSH32 0x4E487B7100000000000000000000000000000000000000000000000000000000 PUSH0 MSTORE PUSH1 0x11 PUSH1 0x4 MSTORE PUSH1 0x24 PUSH0 REVERT JUMPDEST PUSH0 PUSH2 0x2136 DUP3 PUSH2 0x1A31 JUMP JUMPDEST SWAP2 POP PUSH2 0x2141 DUP4 PUSH2 0x1A31 JUMP JUMPDEST SWAP3 POP DUP3 DUP3 MUL PUSH2 0x214F DUP2 PUSH2 0x1A31 JUMP JUMPDEST SWAP2 POP DUP3 DUP3 DIV DUP5 EQ DUP4 ISZERO OR PUSH2 0x2166 JUMPI PUSH2 0x2165 PUSH2 0x20FF JUMP JUMPDEST JUMPDEST POP SWAP3 SWAP2 POP POP JUMP JUMPDEST PUSH32 0x496E73756666696369656E742066756E647320746F2072656E65772074686520 PUSH0 DUP3 ADD MSTORE PUSH32 0x646F6D61696E20666F7220746865207370656369666965642079656172730000 PUSH1 0x20 DUP3 ADD MSTORE POP JUMP JUMPDEST PUSH0 PUSH2 0x21C7 PUSH1 0x3E DUP4 PUSH2 0x1E36 JUMP JUMPDEST SWAP2 POP PUSH2 0x21D2 DUP3 PUSH2 0x216D JUMP JUMPDEST PUSH1 0x40 DUP3 ADD SWAP1 POP SWAP2 SWAP1 POP JUMP JUMPDEST PUSH0 PUSH1 0x20 DUP3 ADD SWAP1 POP DUP2 DUP2 SUB PUSH0 DUP4 ADD MSTORE PUSH2 0x21F4 DUP2 PUSH2 0x21BB JUMP JUMPDEST SWAP1 POP SWAP2 SWAP1 POP JUMP JUMPDEST PUSH0 PUSH2 0x2205 DUP3 PUSH2 0x1A31 JUMP JUMPDEST SWAP2 POP PUSH2 0x2210 DUP4 PUSH2 0x1A31 JUMP JUMPDEST SWAP3 POP DUP3 DUP3 ADD SWAP1 POP DUP1 DUP3 GT ISZERO PUSH2 0x2228 JUMPI PUSH2 0x2227 PUSH2 0x20FF JUMP JUMPDEST JUMPDEST SWAP3 SWAP2 POP POP JUMP JUMPDEST PUSH0 PUSH1 0x40 DUP3 ADD SWAP1 POP DUP2 DUP2 SUB PUSH0 DUP4 ADD MSTORE PUSH2 0x2246 DUP2 DUP6 PUSH2 0x1E46 JUMP JUMPDEST SWAP1 POP PUSH2 0x2255 PUSH1 0x20 DUP4 ADD DUP5 PUSH2 0x1B7E JUMP JUMPDEST SWAP4 SWAP3 POP POP POP JUMP JUMPDEST PUSH0 PUSH2 0x2266 DUP3 PUSH2 0x1A31 JUMP JUMPDEST SWAP2 POP PUSH2 0x2271 DUP4 PUSH2 0x1A31 JUMP JUMPDEST SWAP3 POP DUP3 DUP3 SUB SWAP1 POP DUP2 DUP2 GT ISZERO PUSH2 0x2289 JUMPI PUSH2 0x2288 PUSH2 0x20FF JUMP JUMPDEST JUMPDEST SWAP3 SWAP2 POP POP JUMP JUMPDEST PUSH32 0x4F6E6C792074686520636F6E7472616374206F776E65722063616E2063616C6C PUSH0 DUP3 ADD MSTORE PUSH32 0x20746869732066756E6374696F6E2E0000000000000000000000000000000000 PUSH1 0x20 DUP3 ADD MSTORE POP JUMP JUMPDEST PUSH0 PUSH2 0x22E9 PUSH1 0x2F DUP4 PUSH2 0x1E36 JUMP JUMPDEST SWAP2 POP PUSH2 0x22F4 DUP3 PUSH2 0x228F JUMP JUMPDEST PUSH1 0x40 DUP3 ADD SWAP1 POP SWAP2 SWAP1 POP JUMP JUMPDEST PUSH0 PUSH1 0x20 DUP3 ADD SWAP1 POP DUP2 DUP2 SUB PUSH0 DUP4 ADD MSTORE PUSH2 0x2316 DUP2 PUSH2 0x22DD JUMP JUMPDEST SWAP1 POP SWAP2 SWAP1 POP JUMP JUMPDEST PUSH0 DUP3 SWAP1 POP SWAP3 SWAP2 POP POP JUMP JUMPDEST PUSH32 0x4E487B7100000000000000000000000000000000000000000000000000000000 PUSH0 MSTORE PUSH1 0x41 PUSH1 0x4 MSTORE PUSH1 0x24 PUSH0 REVERT JUMPDEST PUSH0 PUSH1 0x20 PUSH1 0x1F DUP4 ADD DIV SWAP1 POP SWAP2 SWAP1 POP JUMP JUMPDEST PUSH0 DUP3 DUP3 SHL SWAP1 POP SWAP3 SWAP2 POP POP JUMP JUMPDEST PUSH0 PUSH1 0x8 DUP4 MUL PUSH2 0x239E PUSH32 0xFFFFFFFFFFFFFFFFFFFFFFFFFFFFFFFFFFFFFFFFFFFFFFFFFFFFFFFFFFFFFFFF DUP3 PUSH2 0x2363 JUMP JUMPDEST PUSH2 0x23A8 DUP7 DUP4 PUSH2 0x2363 JUMP JUMPDEST SWAP6 POP DUP1 NOT DUP5 AND SWAP4 POP DUP1 DUP7 AND DUP5 OR SWAP3 POP POP POP SWAP4 SWAP3 POP POP POP JUMP JUMPDEST PUSH0 DUP2 SWAP1 POP SWAP2 SWAP1 POP JUMP JUMPDEST PUSH0 PUSH2 0x23E3 PUSH2 0x23DE PUSH2 0x23D9 DUP5 PUSH2 0x1A31 JUMP JUMPDEST PUSH2 0x23C0 JUMP JUMPDEST PUSH2 0x1A31 JUMP JUMPDEST SWAP1 POP SWAP2 SWAP1 POP JUMP JUMPDEST PUSH0 DUP2 SWAP1 POP SWAP2 SWAP1 POP JUMP JUMPDEST PUSH2 0x23FC DUP4 PUSH2 0x23C9 JUMP JUMPDEST PUSH2 0x2410 PUSH2 0x2408 DUP3 PUSH2 0x23EA JUMP JUMPDEST DUP5 DUP5 SLOAD PUSH2 0x236F JUMP JUMPDEST DUP3 SSTORE POP POP POP POP JUMP JUMPDEST PUSH0 SWAP1 JUMP JUMPDEST PUSH2 0x2424 PUSH2 0x2418 JUMP JUMPDEST PUSH2 0x242F DUP2 DUP5 DUP5 PUSH2 0x23F3 JUMP JUMPDEST POP POP POP JUMP JUMPDEST JUMPDEST DUP2 DUP2 LT ISZERO PUSH2 0x2452 JUMPI PUSH2 0x2447 PUSH0 DUP3 PUSH2 0x241C JUMP JUMPDEST PUSH1 0x1 DUP2 ADD SWAP1 POP PUSH2 0x2435 JUMP JUMPDEST POP POP JUMP JUMPDEST PUSH1 0x1F DUP3 GT ISZERO PUSH2 0x2497 JUMPI PUSH2 0x2468 DUP2 PUSH2 0x1FA6 JUMP JUMPDEST PUSH2 0x2471 DUP5 PUSH2 0x2354 JUMP JUMPDEST DUP2 ADD PUSH1 0x20 DUP6 LT ISZERO PUSH2 0x2480 JUMPI DUP2 SWAP1 POP JUMPDEST PUSH2 0x2494 PUSH2 0x248C DUP6 PUSH2 0x2354 JUMP JUMPDEST DUP4 ADD DUP3 PUSH2 0x2434 JUMP JUMPDEST POP POP JUMPDEST POP POP POP JUMP JUMPDEST PUSH0 DUP3 DUP3 SHR SWAP1 POP SWAP3 SWAP2 POP POP JUMP JUMPDEST PUSH0 PUSH2 0x24B7 PUSH0 NOT DUP5 PUSH1 0x8 MUL PUSH2 0x249C JUMP JUMPDEST NOT DUP1 DUP4 AND SWAP2 POP POP SWAP3 SWAP2 POP POP JUMP JUMPDEST PUSH0 PUSH2 0x24CF DUP4 DUP4 PUSH2 0x24A8 JUMP JUMPDEST SWAP2 POP DUP3 PUSH1 0x2 MUL DUP3 OR SWAP1 POP SWAP3 SWAP2 POP POP JUMP JUMPDEST PUSH2 0x24E9 DUP4 DUP4 PUSH2 0x231D JUMP JUMPDEST PUSH8 0xFFFFFFFFFFFFFFFF DUP2 GT ISZERO PUSH2 0x2502 JUMPI PUSH2 0x2501 PUSH2 0x2327 JUMP JUMPDEST JUMPDEST PUSH2 0x250C DUP3 SLOAD PUSH2 0x1F76 JUMP JUMPDEST PUSH2 0x2517 DUP3 DUP3 DUP6 PUSH2 0x2456 JUMP JUMPDEST PUSH0 PUSH1 0x1F DUP4 GT PUSH1 0x1 DUP2 EQ PUSH2 0x2544 JUMPI PUSH0 DUP5 ISZERO PUSH2 0x2532 JUMPI DUP3 DUP8 ADD CALLDATALOAD SWAP1 POP JUMPDEST PUSH2 0x253C DUP6 DUP3 PUSH2 0x24C4 JUMP JUMPDEST DUP7 SSTORE POP PUSH2 0x25A3 JUMP JUMPDEST PUSH1 0x1F NOT DUP5 AND PUSH2 0x2552 DUP7 PUSH2 0x1FA6 JUMP JUMPDEST PUSH0 JUMPDEST DUP3 DUP2 LT ISZERO PUSH2 0x2579 JUMPI DUP5 DUP10 ADD CALLDATALOAD DUP3 SSTORE PUSH1 0x1 DUP3 ADD SWAP2 POP PUSH1 0x20 DUP6 ADD SWAP5 POP PUSH1 0x20 DUP2 ADD SWAP1 POP PUSH2 0x2554 JUMP JUMPDEST DUP7 DUP4 LT ISZERO PUSH2 0x2596 JUMPI DUP5 DUP10 ADD CALLDATALOAD PUSH2 0x2592 PUSH1 0x1F DUP10 AND DUP3 PUSH2 0x24A8 JUMP JUMPDEST DUP4 SSTORE POP JUMPDEST PUSH1 0x1 PUSH1 0x2 DUP9 MUL ADD DUP9 SSTORE POP POP POP JUMPDEST POP POP POP POP POP POP POP JUMP JUMPDEST DUP3 DUP2 DUP4 CALLDATACOPY PUSH0 DUP4 DUP4 ADD MSTORE POP POP POP JUMP JUMPDEST PUSH0 PUSH2 0x25C5 DUP4 DUP6 PUSH2 0x1E36 JUMP JUMPDEST SWAP4 POP PUSH2 0x25D2 DUP4 DUP6 DUP5 PUSH2 0x25AC JUMP JUMPDEST PUSH2 0x25DB DUP4 PUSH2 0x1D3C JUMP JUMPDEST DUP5 ADD SWAP1 POP SWAP4 SWAP3 POP POP POP JUMP JUMPDEST PUSH0 PUSH1 0x20 DUP3 ADD SWAP1 POP DUP2 DUP2 SUB PUSH0 DUP4 ADD MSTORE PUSH2 0x25FF DUP2 DUP5 DUP7 PUSH2 0x25BA JUMP JUMPDEST SWAP1 POP SWAP4 SWAP3 POP POP POP JUMP JUMPDEST PUSH2 0x2611 DUP3 PUSH2 0x1CFA JUMP JUMPDEST PUSH8 0xFFFFFFFFFFFFFFFF DUP2 GT ISZERO PUSH2 0x262A JUMPI PUSH2 0x2629 PUSH2 0x2327 JUMP JUMPDEST JUMPDEST PUSH2 0x2634 DUP3 SLOAD PUSH2 0x1F76 JUMP JUMPDEST PUSH2 0x263F DUP3 DUP3 DUP6 PUSH2 0x2456 JUMP JUMPDEST PUSH0 PUSH1 0x20 SWAP1 POP PUSH1 0x1F DUP4 GT PUSH1 0x1 DUP2 EQ PUSH2 0x2670 JUMPI PUSH0 DUP5 ISZERO PUSH2 0x265E JUMPI DUP3 DUP8 ADD MLOAD SWAP1 POP JUMPDEST PUSH2 0x2668 DUP6 DUP3 PUSH2 0x24C4 JUMP JUMPDEST DUP7 SSTORE POP PUSH2 0x26CF JUMP JUMPDEST PUSH1 0x1F NOT DUP5 AND PUSH2 0x267E DUP7 PUSH2 0x1FA6 JUMP JUMPDEST PUSH0 JUMPDEST DUP3 DUP2 LT ISZERO PUSH2 0x26A5 JUMPI DUP5 DUP10 ADD MLOAD DUP3 SSTORE PUSH1 0x1 DUP3 ADD SWAP2 POP PUSH1 0x20 DUP6 ADD SWAP5 POP PUSH1 0x20 DUP2 ADD SWAP1 POP PUSH2 0x2680 JUMP JUMPDEST DUP7 DUP4 LT ISZERO PUSH2 0x26C2 JUMPI DUP5 DUP10 ADD MLOAD PUSH2 0x26BE PUSH1 0x1F DUP10 AND DUP3 PUSH2 0x24A8 JUMP JUMPDEST DUP4 SSTORE POP JUMPDEST PUSH1 0x1 PUSH1 0x2 DUP9 MUL ADD DUP9 SSTORE POP POP POP JUMPDEST POP POP POP POP POP POP JUMP JUMPDEST PUSH32 0x4E616D652073686F756C64206265206265747765656E203120616E6420313520 PUSH0 DUP3 ADD MSTORE PUSH32 0x636861726163746572732E000000000000000000000000000000000000000000 PUSH1 0x20 DUP3 ADD MSTORE POP JUMP JUMPDEST PUSH0 PUSH2 0x2731 PUSH1 0x2B DUP4 PUSH2 0x1E36 JUMP JUMPDEST SWAP2 POP PUSH2 0x273C DUP3 PUSH2 0x26D7 JUMP JUMPDEST PUSH1 0x40 DUP3 ADD SWAP1 POP SWAP2 SWAP1 POP JUMP JUMPDEST PUSH0 PUSH1 0x20 DUP3 ADD SWAP1 POP DUP2 DUP2 SUB PUSH0 DUP4 ADD MSTORE PUSH2 0x275E DUP2 PUSH2 0x2725 JUMP JUMPDEST SWAP1 POP SWAP2 SWAP1 POP JUMP JUMPDEST PUSH32 0x446F6D61696E20697320616C7265616479206F776E6564000000000000000000 PUSH0 DUP3 ADD MSTORE POP JUMP JUMPDEST PUSH0 PUSH2 0x2799 PUSH1 0x17 DUP4 PUSH2 0x1E36 JUMP JUMPDEST SWAP2 POP PUSH2 0x27A4 DUP3 PUSH2 0x2765 JUMP JUMPDEST PUSH1 0x20 DUP3 ADD SWAP1 POP SWAP2 SWAP1 POP JUMP JUMPDEST PUSH0 PUSH1 0x20 DUP3 ADD SWAP1 POP DUP2 DUP2 SUB PUSH0 DUP4 ADD MSTORE PUSH2 0x27C6 DUP2 PUSH2 0x278D JUMP JUMPDEST SWAP1 POP SWAP2 SWAP1 POP JUMP JUMPDEST PUSH32 0x446F6D61696E206E616D652073686F756C64206E6F7420696E636C7564652074 PUSH0 DUP3 ADD MSTORE PUSH32 0x6865207375666669780000000000000000000000000000000000000000000000 PUSH1 0x20 DUP3 ADD MSTORE POP JUMP JUMPDEST PUSH0 PUSH2 0x2827 PUSH1 0x29 DUP4 PUSH2 0x1E36 JUMP JUMPDEST SWAP2 POP PUSH2 0x2832 DUP3 PUSH2 0x27CD JUMP JUMPDEST PUSH1 0x40 DUP3 ADD SWAP1 POP SWAP2 SWAP1 POP JUMP JUMPDEST PUSH0 PUSH1 0x20 DUP3 ADD SWAP1 POP DUP2 DUP2 SUB PUSH0 DUP4 ADD MSTORE PUSH2 0x2854 DUP2 PUSH2 0x281B JUMP JUMPDEST SWAP1 POP SWAP2 SWAP1 POP JUMP JUMPDEST PUSH32 0x496E73756666696369656E742066756E647320746F2072656769737465722074 PUSH0 DUP3 ADD MSTORE PUSH32 0x686520646F6D61696E20666F7220746865207370656369666965642079656172 PUSH1 0x20 DUP3 ADD MSTORE PUSH32 0x7300000000000000000000000000000000000000000000000000000000000000 PUSH1 0x40 DUP3 ADD MSTORE POP JUMP JUMPDEST PUSH0 PUSH2 0x28DB PUSH1 0x41 DUP4 PUSH2 0x1E36 JUMP JUMPDEST SWAP2 POP PUSH2 0x28E6 DUP3 PUSH2 0x285B JUMP JUMPDEST PUSH1 0x60 DUP3 ADD SWAP1 POP SWAP2 SWAP1 POP JUMP JUMPDEST PUSH0 PUSH1 0x20 DUP3 ADD SWAP1 POP DUP2 DUP2 SUB PUSH0 DUP4 ADD MSTORE PUSH2 0x2908 DUP2 PUSH2 0x28CF JUMP JUMPDEST SWAP1 POP SWAP2 SWAP1 POP JUMP JUMPDEST PUSH0 PUSH1 0x60 DUP3 ADD SWAP1 POP DUP2 DUP2 SUB PUSH0 DUP4 ADD MSTORE PUSH2 0x2927 DUP2 DUP7 PUSH2 0x1E46 JUMP JUMPDEST SWAP1 POP PUSH2 0x2936 PUSH1 0x20 DUP4 ADD DUP6 PUSH2 0x1B6F JUMP JUMPDEST PUSH2 0x2943 PUSH1 0x40 DUP4 ADD DUP5 PUSH2 0x1B7E JUMP JUMPDEST SWAP5 SWAP4 POP POP POP POP JUMP JUMPDEST PUSH32 0x4E487B7100000000000000000000000000000000000000000000000000000000 PUSH0 MSTORE PUSH1 0x32 PUSH1 0x4 MSTORE PUSH1 0x24 PUSH0 REVERT JUMPDEST PUSH0 PUSH1 0xFF DUP3 AND SWAP1 POP SWAP2 SWAP1 POP JUMP JUMPDEST PUSH0 PUSH2 0x298E DUP3 PUSH2 0x2978 JUMP JUMPDEST SWAP2 POP PUSH2 0x2999 DUP4 PUSH2 0x2978 JUMP JUMPDEST SWAP3 POP DUP3 DUP3 ADD SWAP1 POP PUSH1 0xFF DUP2 GT ISZERO PUSH2 0x29B2 JUMPI PUSH2 0x29B1 PUSH2 0x20FF JUMP JUMPDEST JUMPDEST SWAP3 SWAP2 POP POP JUMP JUMPDEST PUSH0 PUSH2 0x29C2 DUP3 PUSH2 0x1A31 JUMP JUMPDEST SWAP2 POP PUSH32 0xFFFFFFFFFFFFFFFFFFFFFFFFFFFFFFFFFFFFFFFFFFFFFFFFFFFFFFFFFFFFFFFF DUP3 SUB PUSH2 0x29F4 JUMPI PUSH2 0x29F3 PUSH2 0x20FF JUMP JUMPDEST JUMPDEST PUSH1 0x1 DUP3 ADD SWAP1 POP SWAP2 SWAP1 POP JUMP JUMPDEST PUSH0 PUSH2 0x2A0A DUP3 DUP5 PUSH2 0x1FB8 JUMP JUMPDEST SWAP2 POP DUP2 SWAP1 POP SWAP3 SWAP2 POP POP JUMP JUMPDEST PUSH0 DUP2 SLOAD SWAP1 POP PUSH2 0x2A23 DUP2 PUSH2 0x1F76 JUMP JUMPDEST SWAP1 POP SWAP2 SWAP1 POP JUMP JUMPDEST PUSH0 DUP2 SWAP1 POP DUP2 PUSH0 MSTORE PUSH1 0x20 PUSH0 KECCAK256 SWAP1 POP SWAP2 SWAP1 POP JUMP JUMPDEST DUP2 DUP2 SUB PUSH2 0x2A4A JUMPI POP POP PUSH2 0x2B1F JUMP JUMPDEST PUSH2 0x2A53 DUP3 PUSH2 0x2A15 JUMP JUMPDEST PUSH8 0xFFFFFFFFFFFFFFFF DUP2 GT ISZERO PUSH2 0x2A6C JUMPI PUSH2 0x2A6B PUSH2 0x2327 JUMP JUMPDEST JUMPDEST PUSH2 0x2A76 DUP3 SLOAD PUSH2 0x1F76 JUMP JUMPDEST PUSH2 0x2A81 DUP3 DUP3 DUP6 PUSH2 0x2456 JUMP JUMPDEST PUSH0 PUSH1 0x1F DUP4 GT PUSH1 0x1 DUP2 EQ PUSH2 0x2AAE JUMPI PUSH0 DUP5 ISZERO PUSH2 0x2A9C JUMPI DUP3 DUP8 ADD SLOAD SWAP1 POP JUMPDEST PUSH2 0x2AA6 DUP6 DUP3 PUSH2 0x24C4 JUMP JUMPDEST DUP7 SSTORE POP PUSH2 0x2B18 JUMP JUMPDEST PUSH1 0x1F NOT DUP5 AND PUSH2 0x2ABC DUP8 PUSH2 0x2A2A JUMP JUMPDEST SWAP7 POP PUSH2 0x2AC7 DUP7 PUSH2 0x1FA6 JUMP JUMPDEST PUSH0 JUMPDEST DUP3 DUP2 LT ISZERO PUSH2 0x2AEE JUMPI DUP5 DUP10 ADD SLOAD DUP3 SSTORE PUSH1 0x1 DUP3 ADD SWAP2 POP PUSH1 0x1 DUP6 ADD SWAP5 POP PUSH1 0x20 DUP2 ADD SWAP1 POP PUSH2 0x2AC9 JUMP JUMPDEST DUP7 DUP4 LT ISZERO PUSH2 0x2B0B JUMPI DUP5 DUP10 ADD SLOAD PUSH2 0x2B07 PUSH1 0x1F DUP10 AND DUP3 PUSH2 0x24A8 JUMP JUMPDEST DUP4 SSTORE POP JUMPDEST PUSH1 0x1 PUSH1 0x2 DUP9 MUL ADD DUP9 SSTORE POP POP POP JUMPDEST POP POP POP POP POP POP JUMPDEST JUMP JUMPDEST PUSH32 0x4E487B7100000000000000000000000000000000000000000000000000000000 PUSH0 MSTORE PUSH1 0x31 PUSH1 0x4 MSTORE PUSH1 0x24 PUSH0 REVERT INVALID LOG2 PUSH5 0x6970667358 0x22 SLT KECCAK256 SGT PUSH23 0x4904BA152495FE5BF2B941E1D4940B445BD479DDBF3D49 PUSH4 0x455BA823 BLOCKHASH 0xB6 PUSH5 0x736F6C6343 STOP ADDMOD ISZERO STOP CALLER "
				},
				"gasEstimates": {
					"creation": {
						"codeDepositCost": "2228000",
						"executionCost": "infinite",
						"totalCost": "infinite"
					},
					"external": {
						"changeResolver(string,address)": "infinite",
						"getDomainInfo(string)": "infinite",
						"getDomainsByOwner(address)": "infinite",
						"isDomainAvailable(string)": "infinite",
						"owner()": "2508",
						"registerDomain(string,address,uint256)": "infinite",
						"registrationCost()": "2469",
						"renewDomain(string,uint256)": "infinite",
						"setRegistrationCost(uint256)": "infinite",
						"setSuffix(string)": "infinite",
						"suffix()": "infinite",
						"transferOwnership(string,address)": "infinite"
					},
					"internal": {
						"_removeDomainFromOwner(address,string memory)": "infinite",
						"hasSuffix(string memory)": "infinite",
						"toLowerCase(string memory)": "infinite"
					}
				},
				"methodIdentifiers": {
					"changeResolver(string,address)": "894d46ac",
					"getDomainInfo(string)": "4889e192",
					"getDomainsByOwner(address)": "f38ffb6c",
					"isDomainAvailable(string)": "32752b09",
					"owner()": "8da5cb5b",
					"registerDomain(string,address,uint256)": "fe1e1f5f",
					"registrationCost()": "dc4a7f7f",
					"renewDomain(string,uint256)": "1a83fd8f",
					"setRegistrationCost(uint256)": "637e9d5c",
					"setSuffix(string)": "75d5ae9f",
					"suffix()": "f7073c3a",
					"transferOwnership(string,address)": "c0e793c2"
				}
			},
			"storageLayout": {
				"storage": [
					{
						"astId": 11,
						"contract": "contracts/ENS4.sol:EdexaNamingService",
						"label": "suffix",
						"offset": 0,
						"slot": "0",
						"type": "t_string_storage"
					},
					{
						"astId": 14,
						"contract": "contracts/ENS4.sol:EdexaNamingService",
						"label": "registrationCost",
						"offset": 0,
						"slot": "1",
						"type": "t_uint256"
					},
					{
						"astId": 16,
						"contract": "contracts/ENS4.sol:EdexaNamingService",
						"label": "owner",
						"offset": 0,
						"slot": "2",
						"type": "t_address"
					},
					{
						"astId": 21,
						"contract": "contracts/ENS4.sol:EdexaNamingService",
						"label": "domains",
						"offset": 0,
						"slot": "3",
						"type": "t_mapping(t_string_memory_ptr,t_struct(Domain)8_storage)"
					},
					{
						"astId": 26,
						"contract": "contracts/ENS4.sol:EdexaNamingService",
						"label": "addressToDomains",
						"offset": 0,
						"slot": "4",
						"type": "t_mapping(t_address,t_array(t_string_storage)dyn_storage)"
					}
				],
				"types": {
					"t_address": {
						"encoding": "inplace",
						"label": "address",
						"numberOfBytes": "20"
					},
					"t_array(t_string_storage)dyn_storage": {
						"base": "t_string_storage",
						"encoding": "dynamic_array",
						"label": "string[]",
						"numberOfBytes": "32"
					},
					"t_mapping(t_address,t_array(t_string_storage)dyn_storage)": {
						"encoding": "mapping",
						"key": "t_address",
						"label": "mapping(address => string[])",
						"numberOfBytes": "32",
						"value": "t_array(t_string_storage)dyn_storage"
					},
					"t_mapping(t_string_memory_ptr,t_struct(Domain)8_storage)": {
						"encoding": "mapping",
						"key": "t_string_memory_ptr",
						"label": "mapping(string => struct EdexaNamingService.Domain)",
						"numberOfBytes": "32",
						"value": "t_struct(Domain)8_storage"
					},
					"t_string_memory_ptr": {
						"encoding": "bytes",
						"label": "string",
						"numberOfBytes": "32"
					},
					"t_string_storage": {
						"encoding": "bytes",
						"label": "string",
						"numberOfBytes": "32"
					},
					"t_struct(Domain)8_storage": {
						"encoding": "inplace",
						"label": "struct EdexaNamingService.Domain",
						"members": [
							{
								"astId": 3,
								"contract": "contracts/ENS4.sol:EdexaNamingService",
								"label": "owner",
								"offset": 0,
								"slot": "0",
								"type": "t_address"
							},
							{
								"astId": 5,
								"contract": "contracts/ENS4.sol:EdexaNamingService",
								"label": "resolver",
								"offset": 0,
								"slot": "1",
								"type": "t_address"
							},
							{
								"astId": 7,
								"contract": "contracts/ENS4.sol:EdexaNamingService",
								"label": "expiration",
								"offset": 0,
								"slot": "2",
								"type": "t_uint256"
							}
						],
						"numberOfBytes": "96"
					},
					"t_uint256": {
						"encoding": "inplace",
						"label": "uint256",
						"numberOfBytes": "32"
					}
				}
			},
			"userdoc": {
				"kind": "user",
				"methods": {},
				"version": 1
			}
		}
	}
}