{
	"contracts/ENS6.sol": {
		"EdexaNamingService": {
			"abi": [
				{
					"inputs": [],
					"stateMutability": "nonpayable",
					"type": "constructor"
				},
				{
					"anonymous": false,
					"inputs": [
						{
							"indexed": false,
							"internalType": "string",
							"name": "name",
							"type": "string"
						},
						{
							"indexed": true,
							"internalType": "address",
							"name": "previousOwner",
							"type": "address"
						},
						{
							"indexed": true,
							"internalType": "address",
							"name": "newOwner",
							"type": "address"
						}
					],
					"name": "DomainOwnershipTransferred",
					"type": "event"
				},
				{
					"anonymous": false,
					"inputs": [
						{
							"indexed": false,
							"internalType": "string",
							"name": "name",
							"type": "string"
						},
						{
							"indexed": true,
							"internalType": "address",
							"name": "owner",
							"type": "address"
						},
						{
							"indexed": false,
							"internalType": "address",
							"name": "resolver",
							"type": "address"
						},
						{
							"indexed": false,
							"internalType": "uint256",
							"name": "expiration",
							"type": "uint256"
						}
					],
					"name": "DomainRegistered",
					"type": "event"
				},
				{
					"anonymous": false,
					"inputs": [
						{
							"indexed": false,
							"internalType": "string",
							"name": "name",
							"type": "string"
						},
						{
							"indexed": false,
							"internalType": "uint256",
							"name": "newExpiration",
							"type": "uint256"
						}
					],
					"name": "DomainRenewed",
					"type": "event"
				},
				{
					"anonymous": false,
					"inputs": [
						{
							"indexed": false,
							"internalType": "string",
							"name": "name",
							"type": "string"
						},
						{
							"indexed": true,
							"internalType": "address",
							"name": "resolver",
							"type": "address"
						}
					],
					"name": "ResolverChanged",
					"type": "event"
				},
				{
					"anonymous": false,
					"inputs": [
						{
							"indexed": false,
							"internalType": "string",
							"name": "suffix",
							"type": "string"
						},
						{
							"indexed": false,
							"internalType": "uint256",
							"name": "newCost",
							"type": "uint256"
						}
					],
					"name": "SuffixPriceChanged",
					"type": "event"
				},
				{
					"inputs": [
						{
							"internalType": "string",
							"name": "domainName",
							"type": "string"
						},
						{
							"internalType": "address",
							"name": "newResolver",
							"type": "address"
						}
					],
					"name": "changeResolver",
					"outputs": [],
					"stateMutability": "nonpayable",
					"type": "function"
				},
				{
					"inputs": [],
					"name": "currentImplementation",
					"outputs": [
						{
							"internalType": "address",
							"name": "",
							"type": "address"
						}
					],
					"stateMutability": "view",
					"type": "function"
				},
				{
					"inputs": [
						{
							"internalType": "string",
							"name": "domainName",
							"type": "string"
						}
					],
					"name": "getDomainInfo",
					"outputs": [
						{
							"internalType": "address",
							"name": "domainOwner",
							"type": "address"
						},
						{
							"internalType": "address",
							"name": "resolver",
							"type": "address"
						},
						{
							"internalType": "uint256",
							"name": "expiration",
							"type": "uint256"
						}
					],
					"stateMutability": "view",
					"type": "function"
				},
				{
					"inputs": [
						{
							"internalType": "address",
							"name": "domainOwner",
							"type": "address"
						}
					],
					"name": "getDomainsByOwner",
					"outputs": [
						{
							"internalType": "string[]",
							"name": "",
							"type": "string[]"
						}
					],
					"stateMutability": "view",
					"type": "function"
				},
				{
					"inputs": [
						{
							"internalType": "string",
							"name": "domainName",
							"type": "string"
						}
					],
					"name": "isDomainAvailable",
					"outputs": [
						{
							"internalType": "bool",
							"name": "",
							"type": "bool"
						}
					],
					"stateMutability": "view",
					"type": "function"
				},
				{
					"inputs": [],
					"name": "owner",
					"outputs": [
						{
							"internalType": "address",
							"name": "",
							"type": "address"
						}
					],
					"stateMutability": "view",
					"type": "function"
				},
				{
					"inputs": [
						{
							"internalType": "string",
							"name": "name",
							"type": "string"
						},
						{
							"internalType": "address",
							"name": "initialResolver",
							"type": "address"
						},
						{
							"internalType": "uint256",
							"name": "registrationYears",
							"type": "uint256"
						},
						{
							"internalType": "string",
							"name": "chosenSuffix",
							"type": "string"
						}
					],
					"name": "registerDomain",
					"outputs": [],
					"stateMutability": "payable",
					"type": "function"
				},
				{
					"inputs": [
						{
							"internalType": "string",
							"name": "domainName",
							"type": "string"
						},
						{
							"internalType": "uint256",
							"name": "registrationYears",
							"type": "uint256"
						}
					],
					"name": "renewDomain",
					"outputs": [],
					"stateMutability": "payable",
					"type": "function"
				},
				{
					"inputs": [
						{
							"internalType": "string",
							"name": "suffix",
							"type": "string"
						},
						{
							"internalType": "uint256",
							"name": "newCost",
							"type": "uint256"
						}
					],
					"name": "setSuffixPrice",
					"outputs": [],
					"stateMutability": "nonpayable",
					"type": "function"
				},
				{
					"inputs": [
						{
							"internalType": "string",
							"name": "",
							"type": "string"
						}
					],
					"name": "suffixPrices",
					"outputs": [
						{
							"internalType": "uint256",
							"name": "",
							"type": "uint256"
						}
					],
					"stateMutability": "view",
					"type": "function"
				},
				{
					"inputs": [
						{
							"internalType": "string",
							"name": "domainName",
							"type": "string"
						},
						{
							"internalType": "address",
							"name": "newOwner",
							"type": "address"
						}
					],
					"name": "transferDomainOwnership",
					"outputs": [],
					"stateMutability": "nonpayable",
					"type": "function"
				},
				{
					"inputs": [
						{
							"internalType": "uint256",
							"name": "amt",
							"type": "uint256"
						}
					],
					"name": "withdrawCurrency",
					"outputs": [],
					"stateMutability": "nonpayable",
					"type": "function"
				},
				{
					"inputs": [
						{
							"internalType": "address",
							"name": "token",
							"type": "address"
						},
						{
							"internalType": "uint256",
							"name": "amt",
							"type": "uint256"
						}
					],
					"name": "withdrawToken",
					"outputs": [],
					"stateMutability": "nonpayable",
					"type": "function"
				}
			],
			"devdoc": {
				"kind": "dev",
				"methods": {},
				"version": 1
			},
			"evm": {
				"assembly": "    /* \"contracts/ENS6.sol\":57:7711  contract EdexaNamingService {... */\n  mstore(0x40, 0x80)\n    /* \"contracts/ENS6.sol\":1249:1298  constructor() {... */\n  callvalue\n  dup1\n  iszero\n  tag_1\n  jumpi\n  0x00\n  dup1\n  revert\ntag_1:\n  pop\n    /* \"contracts/ENS6.sol\":1281:1291  msg.sender */\n  caller\n    /* \"contracts/ENS6.sol\":1273:1278  owner */\n  0x01\n  0x00\n    /* \"contracts/ENS6.sol\":1273:1291  owner = msg.sender */\n  0x0100\n  exp\n  dup2\n  sload\n  dup2\n  0xffffffffffffffffffffffffffffffffffffffff\n  mul\n  not\n  and\n  swap1\n  dup4\n  0xffffffffffffffffffffffffffffffffffffffff\n  and\n  mul\n  or\n  swap1\n  sstore\n  pop\n    /* \"contracts/ENS6.sol\":57:7711  contract EdexaNamingService {... */\n  dataSize(sub_0)\n  dup1\n  dataOffset(sub_0)\n  0x00\n  codecopy\n  0x00\n  return\nstop\n\nsub_0: assembly {\n        /* \"contracts/ENS6.sol\":57:7711  contract EdexaNamingService {... */\n      mstore(0x40, 0x80)\n      jumpi(tag_1, lt(calldatasize, 0x04))\n      shr(0xe0, calldataload(0x00))\n      dup1\n      0x894d46ac\n      gt\n      tag_15\n      jumpi\n      dup1\n      0x9e281a98\n      gt\n      tag_16\n      jumpi\n      dup1\n      0x9e281a98\n      eq\n      tag_11\n      jumpi\n      dup1\n      0xcc69784a\n      eq\n      tag_12\n      jumpi\n      dup1\n      0xd8bd5c29\n      eq\n      tag_13\n      jumpi\n      dup1\n      0xf38ffb6c\n      eq\n      tag_14\n      jumpi\n      jump(tag_1)\n    tag_16:\n      dup1\n      0x894d46ac\n      eq\n      tag_8\n      jumpi\n      dup1\n      0x8da5cb5b\n      eq\n      tag_9\n      jumpi\n      dup1\n      0x913986bb\n      eq\n      tag_10\n      jumpi\n      jump(tag_1)\n    tag_15:\n      dup1\n      0x031c1301\n      eq\n      tag_2\n      jumpi\n      dup1\n      0x1a83fd8f\n      eq\n      tag_3\n      jumpi\n      dup1\n      0x32752b09\n      eq\n      tag_4\n      jumpi\n      dup1\n      0x35b9e937\n      eq\n      tag_5\n      jumpi\n      dup1\n      0x3c00a36c\n      eq\n      tag_6\n      jumpi\n      dup1\n      0x4889e192\n      eq\n      tag_7\n      jumpi\n    tag_1:\n      0x00\n      dup1\n      revert\n        /* \"contracts/ENS6.sol\":262:308  mapping(string => uint256) public suffixPrices */\n    tag_2:\n      callvalue\n      dup1\n      iszero\n      tag_17\n      jumpi\n      0x00\n      dup1\n      revert\n    tag_17:\n      pop\n      tag_18\n      0x04\n      dup1\n      calldatasize\n      sub\n      dup2\n      add\n      swap1\n      tag_19\n      swap2\n      swap1\n      tag_20\n      jump\t// in\n    tag_19:\n      tag_21\n      jump\t// in\n    tag_18:\n      mload(0x40)\n      tag_22\n      swap2\n      swap1\n      tag_23\n      jump\t// in\n    tag_22:\n      mload(0x40)\n      dup1\n      swap2\n      sub\n      swap1\n      return\n        /* \"contracts/ENS6.sol\":3627:4373  function renewDomain(string calldata domainName, uint256 registrationYears)... */\n    tag_3:\n      tag_24\n      0x04\n      dup1\n      calldatasize\n      sub\n      dup2\n      add\n      swap1\n      tag_25\n      swap2\n      swap1\n      tag_26\n      jump\t// in\n    tag_25:\n      tag_27\n      jump\t// in\n    tag_24:\n      stop\n        /* \"contracts/ENS6.sol\":5875:6102  function isDomainAvailable(string calldata domainName)... */\n    tag_4:\n      callvalue\n      dup1\n      iszero\n      tag_28\n      jumpi\n      0x00\n      dup1\n      revert\n    tag_28:\n      pop\n      tag_29\n      0x04\n      dup1\n      calldatasize\n      sub\n      dup2\n      add\n      swap1\n      tag_30\n      swap2\n      swap1\n      tag_31\n      jump\t// in\n    tag_30:\n      tag_32\n      jump\t// in\n    tag_29:\n      mload(0x40)\n      tag_33\n      swap2\n      swap1\n      tag_34\n      jump\t// in\n    tag_33:\n      mload(0x40)\n      dup1\n      swap2\n      sub\n      swap1\n      return\n        /* \"contracts/ENS6.sol\":1304:1505  function setSuffixPrice(string calldata suffix, uint256 newCost)... */\n    tag_5:\n      callvalue\n      dup1\n      iszero\n      tag_35\n      jumpi\n      0x00\n      dup1\n      revert\n    tag_35:\n      pop\n      tag_36\n      0x04\n      dup1\n      calldatasize\n      sub\n      dup2\n      add\n      swap1\n      tag_37\n      swap2\n      swap1\n      tag_26\n      jump\t// in\n    tag_37:\n      tag_38\n      jump\t// in\n    tag_36:\n      stop\n        /* \"contracts/ENS6.sol\":7472:7578  function withdrawCurrency(uint256 amt) public onlyOwner {... */\n    tag_6:\n      callvalue\n      dup1\n      iszero\n      tag_39\n      jumpi\n      0x00\n      dup1\n      revert\n    tag_39:\n      pop\n      tag_40\n      0x04\n      dup1\n      calldatasize\n      sub\n      dup2\n      add\n      swap1\n      tag_41\n      swap2\n      swap1\n      tag_42\n      jump\t// in\n    tag_41:\n      tag_43\n      jump\t// in\n    tag_40:\n      stop\n        /* \"contracts/ENS6.sol\":5327:5694  function getDomainInfo(string calldata domainName)... */\n    tag_7:\n      callvalue\n      dup1\n      iszero\n      tag_44\n      jumpi\n      0x00\n      dup1\n      revert\n    tag_44:\n      pop\n      tag_45\n      0x04\n      dup1\n      calldatasize\n      sub\n      dup2\n      add\n      swap1\n      tag_46\n      swap2\n      swap1\n      tag_31\n      jump\t// in\n    tag_46:\n      tag_47\n      jump\t// in\n    tag_45:\n      mload(0x40)\n      tag_48\n      swap4\n      swap3\n      swap2\n      swap1\n      tag_49\n      jump\t// in\n    tag_48:\n      mload(0x40)\n      dup1\n      swap2\n      sub\n      swap1\n      return\n        /* \"contracts/ENS6.sol\":4951:5321  function changeResolver(string calldata domainName, address newResolver)... */\n    tag_8:\n      callvalue\n      dup1\n      iszero\n      tag_50\n      jumpi\n      0x00\n      dup1\n      revert\n    tag_50:\n      pop\n      tag_51\n      0x04\n      dup1\n      calldatasize\n      sub\n      dup2\n      add\n      swap1\n      tag_52\n      swap2\n      swap1\n      tag_53\n      jump\t// in\n    tag_52:\n      tag_54\n      jump\t// in\n    tag_51:\n      stop\n        /* \"contracts/ENS6.sol\":236:256  address public owner */\n    tag_9:\n      callvalue\n      dup1\n      iszero\n      tag_55\n      jumpi\n      0x00\n      dup1\n      revert\n    tag_55:\n      pop\n      tag_56\n      tag_57\n      jump\t// in\n    tag_56:\n      mload(0x40)\n      tag_58\n      swap2\n      swap1\n      tag_59\n      jump\t// in\n    tag_58:\n      mload(0x40)\n      dup1\n      swap2\n      sub\n      swap1\n      return\n        /* \"contracts/ENS6.sol\":4379:4945  function transferDomainOwnership(string calldata domainName, address newOwner)... */\n    tag_10:\n      callvalue\n      dup1\n      iszero\n      tag_60\n      jumpi\n      0x00\n      dup1\n      revert\n    tag_60:\n      pop\n      tag_61\n      0x04\n      dup1\n      calldatasize\n      sub\n      dup2\n      add\n      swap1\n      tag_62\n      swap2\n      swap1\n      tag_53\n      jump\t// in\n    tag_62:\n      tag_63\n      jump\t// in\n    tag_61:\n      stop\n        /* \"contracts/ENS6.sol\":7584:7708  function withdrawToken(address token, uint256 amt) public onlyOwner {... */\n    tag_11:\n      callvalue\n      dup1\n      iszero\n      tag_64\n      jumpi\n      0x00\n      dup1\n      revert\n    tag_64:\n      pop\n      tag_65\n      0x04\n      dup1\n      calldatasize\n      sub\n      dup2\n      add\n      swap1\n      tag_66\n      swap2\n      swap1\n      tag_67\n      jump\t// in\n    tag_66:\n      tag_68\n      jump\t// in\n    tag_65:\n      stop\n        /* \"contracts/ENS6.sol\":2011:3621  function registerDomain(... */\n    tag_12:\n      tag_69\n      0x04\n      dup1\n      calldatasize\n      sub\n      dup2\n      add\n      swap1\n      tag_70\n      swap2\n      swap1\n      tag_71\n      jump\t// in\n    tag_70:\n      tag_72\n      jump\t// in\n    tag_69:\n      stop\n        /* \"contracts/ENS6.sol\":194:230  address public currentImplementation */\n    tag_13:\n      callvalue\n      dup1\n      iszero\n      tag_73\n      jumpi\n      0x00\n      dup1\n      revert\n    tag_73:\n      pop\n      tag_74\n      tag_75\n      jump\t// in\n    tag_74:\n      mload(0x40)\n      tag_76\n      swap2\n      swap1\n      tag_59\n      jump\t// in\n    tag_76:\n      mload(0x40)\n      dup1\n      swap2\n      sub\n      swap1\n      return\n        /* \"contracts/ENS6.sol\":5700:5869  function getDomainsByOwner(address domainOwner)... */\n    tag_14:\n      callvalue\n      dup1\n      iszero\n      tag_77\n      jumpi\n      0x00\n      dup1\n      revert\n    tag_77:\n      pop\n      tag_78\n      0x04\n      dup1\n      calldatasize\n      sub\n      dup2\n      add\n      swap1\n      tag_79\n      swap2\n      swap1\n      tag_80\n      jump\t// in\n    tag_79:\n      tag_81\n      jump\t// in\n    tag_78:\n      mload(0x40)\n      tag_82\n      swap2\n      swap1\n      tag_83\n      jump\t// in\n    tag_82:\n      mload(0x40)\n      dup1\n      swap2\n      sub\n      swap1\n      return\n        /* \"contracts/ENS6.sol\":262:308  mapping(string => uint256) public suffixPrices */\n    tag_21:\n      0x02\n      dup2\n      dup1\n      mload\n      0x20\n      dup2\n      add\n      dup3\n      add\n      dup1\n      mload\n      dup5\n      dup3\n      mstore\n      0x20\n      dup4\n      add\n      0x20\n      dup6\n      add\n      keccak256\n      dup2\n      dup4\n      mstore\n      dup1\n      swap6\n      pop\n      pop\n      pop\n      pop\n      pop\n      pop\n      0x00\n      swap2\n      pop\n      swap1\n      pop\n      sload\n      dup2\n      jump\t// out\n        /* \"contracts/ENS6.sol\":3627:4373  function renewDomain(string calldata domainName, uint256 registrationYears)... */\n    tag_27:\n        /* \"contracts/ENS6.sol\":3760:3770  domainName */\n      dup3\n      dup3\n        /* \"contracts/ENS6.sol\":1041:1243  modifier onlyDomainOwner(string memory domainName) {... */\n      dup1\n      dup1\n      0x1f\n      add\n      0x20\n      dup1\n      swap2\n      div\n      mul\n      0x20\n      add\n      mload(0x40)\n      swap1\n      dup2\n      add\n      0x40\n      mstore\n      dup1\n      swap4\n      swap3\n      swap2\n      swap1\n      dup2\n      dup2\n      mstore\n      0x20\n      add\n      dup4\n      dup4\n      dup1\n      dup3\n      dup5\n      calldatacopy\n      0x00\n      dup2\n      dup5\n      add\n      mstore\n      not(0x1f)\n      0x1f\n      dup3\n      add\n      and\n      swap1\n      pop\n      dup1\n      dup4\n      add\n      swap3\n      pop\n      pop\n      pop\n      pop\n      pop\n      pop\n      pop\n        /* \"contracts/ENS6.sol\":1152:1162  msg.sender */\n      caller\n        /* \"contracts/ENS6.sol\":1123:1162  domains[domainName].owner == msg.sender */\n      0xffffffffffffffffffffffffffffffffffffffff\n      and\n        /* \"contracts/ENS6.sol\":1123:1130  domains */\n      0x03\n        /* \"contracts/ENS6.sol\":1131:1141  domainName */\n      dup3\n        /* \"contracts/ENS6.sol\":1123:1142  domains[domainName] */\n      mload(0x40)\n      tag_85\n      swap2\n      swap1\n      tag_86\n      jump\t// in\n    tag_85:\n      swap1\n      dup2\n      mstore\n      0x20\n      add\n      mload(0x40)\n      dup1\n      swap2\n      sub\n      swap1\n      keccak256\n        /* \"contracts/ENS6.sol\":1123:1148  domains[domainName].owner */\n      0x00\n      add\n      0x00\n      swap1\n      sload\n      swap1\n      0x0100\n      exp\n      swap1\n      div\n      0xffffffffffffffffffffffffffffffffffffffff\n      and\n        /* \"contracts/ENS6.sol\":1123:1162  domains[domainName].owner == msg.sender */\n      0xffffffffffffffffffffffffffffffffffffffff\n      and\n      eq\n        /* \"contracts/ENS6.sol\":1102:1225  require(... */\n      tag_87\n      jumpi\n      mload(0x40)\n      0x08c379a000000000000000000000000000000000000000000000000000000000\n      dup2\n      mstore\n      0x04\n      add\n      tag_88\n      swap1\n      tag_89\n      jump\t// in\n    tag_88:\n      mload(0x40)\n      dup1\n      swap2\n      sub\n      swap1\n      revert\n    tag_87:\n        /* \"contracts/ENS6.sol\":3786:3808  uint256 suffixPosition */\n      0x00\n        /* \"contracts/ENS6.sol\":3811:3841  _getSuffixPosition(domainName) */\n      tag_91\n        /* \"contracts/ENS6.sol\":3830:3840  domainName */\n      dup6\n      dup6\n        /* \"contracts/ENS6.sol\":3811:3841  _getSuffixPosition(domainName) */\n      dup1\n      dup1\n      0x1f\n      add\n      0x20\n      dup1\n      swap2\n      div\n      mul\n      0x20\n      add\n      mload(0x40)\n      swap1\n      dup2\n      add\n      0x40\n      mstore\n      dup1\n      swap4\n      swap3\n      swap2\n      swap1\n      dup2\n      dup2\n      mstore\n      0x20\n      add\n      dup4\n      dup4\n      dup1\n      dup3\n      dup5\n      calldatacopy\n      0x00\n      dup2\n      dup5\n      add\n      mstore\n      not(0x1f)\n      0x1f\n      dup3\n      add\n      and\n      swap1\n      pop\n      dup1\n      dup4\n      add\n      swap3\n      pop\n      pop\n      pop\n      pop\n      pop\n      pop\n      pop\n        /* \"contracts/ENS6.sol\":3811:3829  _getSuffixPosition */\n      tag_92\n        /* \"contracts/ENS6.sol\":3811:3841  _getSuffixPosition(domainName) */\n      jump\t// in\n    tag_91:\n        /* \"contracts/ENS6.sol\":3786:3841  uint256 suffixPosition = _getSuffixPosition(domainName) */\n      swap1\n      pop\n        /* \"contracts/ENS6.sol\":3851:3871  string memory suffix */\n      0x00\n        /* \"contracts/ENS6.sol\":3874:3916  _extractSuffix(domainName, suffixPosition) */\n      tag_93\n        /* \"contracts/ENS6.sol\":3889:3899  domainName */\n      dup7\n      dup7\n        /* \"contracts/ENS6.sol\":3874:3916  _extractSuffix(domainName, suffixPosition) */\n      dup1\n      dup1\n      0x1f\n      add\n      0x20\n      dup1\n      swap2\n      div\n      mul\n      0x20\n      add\n      mload(0x40)\n      swap1\n      dup2\n      add\n      0x40\n      mstore\n      dup1\n      swap4\n      swap3\n      swap2\n      swap1\n      dup2\n      dup2\n      mstore\n      0x20\n      add\n      dup4\n      dup4\n      dup1\n      dup3\n      dup5\n      calldatacopy\n      0x00\n      dup2\n      dup5\n      add\n      mstore\n      not(0x1f)\n      0x1f\n      dup3\n      add\n      and\n      swap1\n      pop\n      dup1\n      dup4\n      add\n      swap3\n      pop\n      pop\n      pop\n      pop\n      pop\n      pop\n      pop\n        /* \"contracts/ENS6.sol\":3901:3915  suffixPosition */\n      dup4\n        /* \"contracts/ENS6.sol\":3874:3888  _extractSuffix */\n      tag_94\n        /* \"contracts/ENS6.sol\":3874:3916  _extractSuffix(domainName, suffixPosition) */\n      jump\t// in\n    tag_93:\n        /* \"contracts/ENS6.sol\":3851:3916  string memory suffix = _extractSuffix(domainName, suffixPosition) */\n      swap1\n      pop\n        /* \"contracts/ENS6.sol\":3927:3939  uint256 cost */\n      0x00\n        /* \"contracts/ENS6.sol\":3965:3982  registrationYears */\n      dup5\n        /* \"contracts/ENS6.sol\":3942:3954  suffixPrices */\n      0x02\n        /* \"contracts/ENS6.sol\":3955:3961  suffix */\n      dup4\n        /* \"contracts/ENS6.sol\":3942:3962  suffixPrices[suffix] */\n      mload(0x40)\n      tag_95\n      swap2\n      swap1\n      tag_86\n      jump\t// in\n    tag_95:\n      swap1\n      dup2\n      mstore\n      0x20\n      add\n      mload(0x40)\n      dup1\n      swap2\n      sub\n      swap1\n      keccak256\n      sload\n        /* \"contracts/ENS6.sol\":3942:3982  suffixPrices[suffix] * registrationYears */\n      tag_96\n      swap2\n      swap1\n      tag_97\n      jump\t// in\n    tag_96:\n        /* \"contracts/ENS6.sol\":3927:3982  uint256 cost = suffixPrices[suffix] * registrationYears */\n      swap1\n      pop\n        /* \"contracts/ENS6.sol\":4026:4030  cost */\n      dup1\n        /* \"contracts/ENS6.sol\":4013:4022  msg.value */\n      callvalue\n        /* \"contracts/ENS6.sol\":4013:4030  msg.value >= cost */\n      lt\n      iszero\n        /* \"contracts/ENS6.sol\":3992:4118  require(... */\n      tag_98\n      jumpi\n      mload(0x40)\n      0x08c379a000000000000000000000000000000000000000000000000000000000\n      dup2\n      mstore\n      0x04\n      add\n      tag_99\n      swap1\n      tag_100\n      jump\t// in\n    tag_99:\n      mload(0x40)\n      dup1\n      swap2\n      sub\n      swap1\n      revert\n    tag_98:\n        /* \"contracts/ENS6.sol\":4183:4191  365 days */\n      0x01e13380\n        /* \"contracts/ENS6.sol\":4163:4180  registrationYears */\n      dup6\n        /* \"contracts/ENS6.sol\":4163:4191  registrationYears * 365 days */\n      tag_101\n      swap2\n      swap1\n      tag_97\n      jump\t// in\n    tag_101:\n        /* \"contracts/ENS6.sol\":4129:4136  domains */\n      0x03\n        /* \"contracts/ENS6.sol\":4137:4147  domainName */\n      dup9\n      dup9\n        /* \"contracts/ENS6.sol\":4129:4148  domains[domainName] */\n      mload(0x40)\n      tag_102\n      swap3\n      swap2\n      swap1\n      tag_103\n      jump\t// in\n    tag_102:\n      swap1\n      dup2\n      mstore\n      0x20\n      add\n      mload(0x40)\n      dup1\n      swap2\n      sub\n      swap1\n      keccak256\n        /* \"contracts/ENS6.sol\":4129:4159  domains[domainName].expiration */\n      0x02\n      add\n      0x00\n        /* \"contracts/ENS6.sol\":4129:4191  domains[domainName].expiration += registrationYears * 365 days */\n      dup3\n      dup3\n      sload\n      tag_104\n      swap2\n      swap1\n      tag_105\n      jump\t// in\n    tag_104:\n      swap3\n      pop\n      pop\n      dup2\n      swap1\n      sstore\n      pop\n        /* \"contracts/ENS6.sol\":4206:4263  DomainRenewed(domainName, domains[domainName].expiration) */\n      0xf44ec9072df846717b4110f1fc66219abeeba0e9599e259c4309f01079e7a8e9\n        /* \"contracts/ENS6.sol\":4220:4230  domainName */\n      dup8\n      dup8\n        /* \"contracts/ENS6.sol\":4232:4239  domains */\n      0x03\n        /* \"contracts/ENS6.sol\":4240:4250  domainName */\n      dup11\n      dup11\n        /* \"contracts/ENS6.sol\":4232:4251  domains[domainName] */\n      mload(0x40)\n      tag_106\n      swap3\n      swap2\n      swap1\n      tag_103\n      jump\t// in\n    tag_106:\n      swap1\n      dup2\n      mstore\n      0x20\n      add\n      mload(0x40)\n      dup1\n      swap2\n      sub\n      swap1\n      keccak256\n        /* \"contracts/ENS6.sol\":4232:4262  domains[domainName].expiration */\n      0x02\n      add\n      sload\n        /* \"contracts/ENS6.sol\":4206:4263  DomainRenewed(domainName, domains[domainName].expiration) */\n      mload(0x40)\n      tag_107\n      swap4\n      swap3\n      swap2\n      swap1\n      tag_108\n      jump\t// in\n    tag_107:\n      mload(0x40)\n      dup1\n      swap2\n      sub\n      swap1\n      log1\n        /* \"contracts/ENS6.sol\":4290:4294  cost */\n      dup1\n        /* \"contracts/ENS6.sol\":4278:4287  msg.value */\n      callvalue\n        /* \"contracts/ENS6.sol\":4278:4294  msg.value > cost */\n      gt\n        /* \"contracts/ENS6.sol\":4274:4367  if (msg.value > cost) {... */\n      iszero\n      tag_109\n      jumpi\n        /* \"contracts/ENS6.sol\":4318:4328  msg.sender */\n      caller\n        /* \"contracts/ENS6.sol\":4310:4338  payable(msg.sender).transfer */\n      0xffffffffffffffffffffffffffffffffffffffff\n      and\n        /* \"contracts/ENS6.sol\":4310:4356  payable(msg.sender).transfer(msg.value - cost) */\n      0x08fc\n        /* \"contracts/ENS6.sol\":4351:4355  cost */\n      dup3\n        /* \"contracts/ENS6.sol\":4339:4348  msg.value */\n      callvalue\n        /* \"contracts/ENS6.sol\":4339:4355  msg.value - cost */\n      tag_110\n      swap2\n      swap1\n      tag_111\n      jump\t// in\n    tag_110:\n        /* \"contracts/ENS6.sol\":4310:4356  payable(msg.sender).transfer(msg.value - cost) */\n      swap1\n      dup2\n      iszero\n      mul\n      swap1\n      mload(0x40)\n      0x00\n      mload(0x40)\n      dup1\n      dup4\n      sub\n      dup2\n      dup6\n      dup9\n      dup9\n      call\n      swap4\n      pop\n      pop\n      pop\n      pop\n      iszero\n      dup1\n      iszero\n      tag_113\n      jumpi\n      returndatasize\n      0x00\n      dup1\n      returndatacopy\n      revert(0x00, returndatasize)\n    tag_113:\n      pop\n        /* \"contracts/ENS6.sol\":4274:4367  if (msg.value > cost) {... */\n    tag_109:\n        /* \"contracts/ENS6.sol\":3776:4373  {... */\n      pop\n      pop\n      pop\n        /* \"contracts/ENS6.sol\":3627:4373  function renewDomain(string calldata domainName, uint256 registrationYears)... */\n      pop\n      pop\n      pop\n      pop\n      jump\t// out\n        /* \"contracts/ENS6.sol\":5875:6102  function isDomainAvailable(string calldata domainName)... */\n    tag_32:\n        /* \"contracts/ENS6.sol\":5977:5981  bool */\n      0x00\n        /* \"contracts/ENS6.sol\":6041:6042  0 */\n      dup1\n        /* \"contracts/ENS6.sol\":6004:6043  domains[domainName].owner == address(0) */\n      0xffffffffffffffffffffffffffffffffffffffff\n      and\n        /* \"contracts/ENS6.sol\":6004:6011  domains */\n      0x03\n        /* \"contracts/ENS6.sol\":6012:6022  domainName */\n      dup5\n      dup5\n        /* \"contracts/ENS6.sol\":6004:6023  domains[domainName] */\n      mload(0x40)\n      tag_115\n      swap3\n      swap2\n      swap1\n      tag_103\n      jump\t// in\n    tag_115:\n      swap1\n      dup2\n      mstore\n      0x20\n      add\n      mload(0x40)\n      dup1\n      swap2\n      sub\n      swap1\n      keccak256\n        /* \"contracts/ENS6.sol\":6004:6029  domains[domainName].owner */\n      0x00\n      add\n      0x00\n      swap1\n      sload\n      swap1\n      0x0100\n      exp\n      swap1\n      div\n      0xffffffffffffffffffffffffffffffffffffffff\n      and\n        /* \"contracts/ENS6.sol\":6004:6043  domains[domainName].owner == address(0) */\n      0xffffffffffffffffffffffffffffffffffffffff\n      and\n      eq\n        /* \"contracts/ENS6.sol\":6004:6095  domains[domainName].owner == address(0) || domains[domainName].expiration < block.timestamp */\n      dup1\n      tag_116\n      jumpi\n      pop\n        /* \"contracts/ENS6.sol\":6080:6095  block.timestamp */\n      timestamp\n        /* \"contracts/ENS6.sol\":6047:6054  domains */\n      0x03\n        /* \"contracts/ENS6.sol\":6055:6065  domainName */\n      dup5\n      dup5\n        /* \"contracts/ENS6.sol\":6047:6066  domains[domainName] */\n      mload(0x40)\n      tag_117\n      swap3\n      swap2\n      swap1\n      tag_103\n      jump\t// in\n    tag_117:\n      swap1\n      dup2\n      mstore\n      0x20\n      add\n      mload(0x40)\n      dup1\n      swap2\n      sub\n      swap1\n      keccak256\n        /* \"contracts/ENS6.sol\":6047:6077  domains[domainName].expiration */\n      0x02\n      add\n      sload\n        /* \"contracts/ENS6.sol\":6047:6095  domains[domainName].expiration < block.timestamp */\n      lt\n        /* \"contracts/ENS6.sol\":6004:6095  domains[domainName].owner == address(0) || domains[domainName].expiration < block.timestamp */\n    tag_116:\n        /* \"contracts/ENS6.sol\":5997:6095  return domains[domainName].owner == address(0) || domains[domainName].expiration < block.timestamp */\n      swap1\n      pop\n        /* \"contracts/ENS6.sol\":5875:6102  function isDomainAvailable(string calldata domainName)... */\n      swap3\n      swap2\n      pop\n      pop\n      jump\t// out\n        /* \"contracts/ENS6.sol\":1304:1505  function setSuffixPrice(string calldata suffix, uint256 newCost)... */\n    tag_38:\n        /* \"contracts/ENS6.sol\":939:944  owner */\n      0x01\n      0x00\n      swap1\n      sload\n      swap1\n      0x0100\n      exp\n      swap1\n      div\n      0xffffffffffffffffffffffffffffffffffffffff\n      and\n        /* \"contracts/ENS6.sol\":925:944  msg.sender == owner */\n      0xffffffffffffffffffffffffffffffffffffffff\n      and\n        /* \"contracts/ENS6.sol\":925:935  msg.sender */\n      caller\n        /* \"contracts/ENS6.sol\":925:944  msg.sender == owner */\n      0xffffffffffffffffffffffffffffffffffffffff\n      and\n      eq\n        /* \"contracts/ENS6.sol\":904:1017  require(... */\n      tag_119\n      jumpi\n      mload(0x40)\n      0x08c379a000000000000000000000000000000000000000000000000000000000\n      dup2\n      mstore\n      0x04\n      add\n      tag_120\n      swap1\n      tag_121\n      jump\t// in\n    tag_120:\n      mload(0x40)\n      dup1\n      swap2\n      sub\n      swap1\n      revert\n    tag_119:\n        /* \"contracts/ENS6.sol\":1441:1448  newCost */\n      dup1\n        /* \"contracts/ENS6.sol\":1418:1430  suffixPrices */\n      0x02\n        /* \"contracts/ENS6.sol\":1431:1437  suffix */\n      dup5\n      dup5\n        /* \"contracts/ENS6.sol\":1418:1438  suffixPrices[suffix] */\n      mload(0x40)\n      tag_123\n      swap3\n      swap2\n      swap1\n      tag_103\n      jump\t// in\n    tag_123:\n      swap1\n      dup2\n      mstore\n      0x20\n      add\n      mload(0x40)\n      dup1\n      swap2\n      sub\n      swap1\n      keccak256\n        /* \"contracts/ENS6.sol\":1418:1448  suffixPrices[suffix] = newCost */\n      dup2\n      swap1\n      sstore\n      pop\n        /* \"contracts/ENS6.sol\":1463:1498  SuffixPriceChanged(suffix, newCost) */\n      0x7ecd49f8137bc8d353db356946f52453e29656073aef0362c08a514421db24f5\n        /* \"contracts/ENS6.sol\":1482:1488  suffix */\n      dup4\n      dup4\n        /* \"contracts/ENS6.sol\":1490:1497  newCost */\n      dup4\n        /* \"contracts/ENS6.sol\":1463:1498  SuffixPriceChanged(suffix, newCost) */\n      mload(0x40)\n      tag_124\n      swap4\n      swap3\n      swap2\n      swap1\n      tag_108\n      jump\t// in\n    tag_124:\n      mload(0x40)\n      dup1\n      swap2\n      sub\n      swap1\n      log1\n        /* \"contracts/ENS6.sol\":1304:1505  function setSuffixPrice(string calldata suffix, uint256 newCost)... */\n      pop\n      pop\n      pop\n      jump\t// out\n        /* \"contracts/ENS6.sol\":7472:7578  function withdrawCurrency(uint256 amt) public onlyOwner {... */\n    tag_43:\n        /* \"contracts/ENS6.sol\":939:944  owner */\n      0x01\n      0x00\n      swap1\n      sload\n      swap1\n      0x0100\n      exp\n      swap1\n      div\n      0xffffffffffffffffffffffffffffffffffffffff\n      and\n        /* \"contracts/ENS6.sol\":925:944  msg.sender == owner */\n      0xffffffffffffffffffffffffffffffffffffffff\n      and\n        /* \"contracts/ENS6.sol\":925:935  msg.sender */\n      caller\n        /* \"contracts/ENS6.sol\":925:944  msg.sender == owner */\n      0xffffffffffffffffffffffffffffffffffffffff\n      and\n      eq\n        /* \"contracts/ENS6.sol\":904:1017  require(... */\n      tag_126\n      jumpi\n      mload(0x40)\n      0x08c379a000000000000000000000000000000000000000000000000000000000\n      dup2\n      mstore\n      0x04\n      add\n      tag_127\n      swap1\n      tag_121\n      jump\t// in\n    tag_127:\n      mload(0x40)\n      dup1\n      swap2\n      sub\n      swap1\n      revert\n    tag_126:\n        /* \"contracts/ENS6.sol\":7546:7556  msg.sender */\n      caller\n        /* \"contracts/ENS6.sol\":7538:7566  payable(msg.sender).transfer */\n      0xffffffffffffffffffffffffffffffffffffffff\n      and\n        /* \"contracts/ENS6.sol\":7538:7571  payable(msg.sender).transfer(amt) */\n      0x08fc\n        /* \"contracts/ENS6.sol\":7567:7570  amt */\n      dup3\n        /* \"contracts/ENS6.sol\":7538:7571  payable(msg.sender).transfer(amt) */\n      swap1\n      dup2\n      iszero\n      mul\n      swap1\n      mload(0x40)\n      0x00\n      mload(0x40)\n      dup1\n      dup4\n      sub\n      dup2\n      dup6\n      dup9\n      dup9\n      call\n      swap4\n      pop\n      pop\n      pop\n      pop\n      iszero\n      dup1\n      iszero\n      tag_130\n      jumpi\n      returndatasize\n      0x00\n      dup1\n      returndatacopy\n      revert(0x00, returndatasize)\n    tag_130:\n      pop\n        /* \"contracts/ENS6.sol\":7472:7578  function withdrawCurrency(uint256 amt) public onlyOwner {... */\n      pop\n      jump\t// out\n        /* \"contracts/ENS6.sol\":5327:5694  function getDomainInfo(string calldata domainName)... */\n    tag_47:\n        /* \"contracts/ENS6.sol\":5439:5458  address domainOwner */\n      0x00\n        /* \"contracts/ENS6.sol\":5472:5488  address resolver */\n      dup1\n        /* \"contracts/ENS6.sol\":5502:5520  uint256 expiration */\n      0x00\n        /* \"contracts/ENS6.sol\":5566:5573  domains */\n      0x03\n        /* \"contracts/ENS6.sol\":5574:5584  domainName */\n      dup6\n      dup6\n        /* \"contracts/ENS6.sol\":5566:5585  domains[domainName] */\n      mload(0x40)\n      tag_132\n      swap3\n      swap2\n      swap1\n      tag_103\n      jump\t// in\n    tag_132:\n      swap1\n      dup2\n      mstore\n      0x20\n      add\n      mload(0x40)\n      dup1\n      swap2\n      sub\n      swap1\n      keccak256\n        /* \"contracts/ENS6.sol\":5566:5591  domains[domainName].owner */\n      0x00\n      add\n      0x00\n      swap1\n      sload\n      swap1\n      0x0100\n      exp\n      swap1\n      div\n      0xffffffffffffffffffffffffffffffffffffffff\n      and\n        /* \"contracts/ENS6.sol\":5605:5612  domains */\n      0x03\n        /* \"contracts/ENS6.sol\":5613:5623  domainName */\n      dup7\n      dup7\n        /* \"contracts/ENS6.sol\":5605:5624  domains[domainName] */\n      mload(0x40)\n      tag_133\n      swap3\n      swap2\n      swap1\n      tag_103\n      jump\t// in\n    tag_133:\n      swap1\n      dup2\n      mstore\n      0x20\n      add\n      mload(0x40)\n      dup1\n      swap2\n      sub\n      swap1\n      keccak256\n        /* \"contracts/ENS6.sol\":5605:5633  domains[domainName].resolver */\n      0x01\n      add\n      0x00\n      swap1\n      sload\n      swap1\n      0x0100\n      exp\n      swap1\n      div\n      0xffffffffffffffffffffffffffffffffffffffff\n      and\n        /* \"contracts/ENS6.sol\":5647:5654  domains */\n      0x03\n        /* \"contracts/ENS6.sol\":5655:5665  domainName */\n      dup8\n      dup8\n        /* \"contracts/ENS6.sol\":5647:5666  domains[domainName] */\n      mload(0x40)\n      tag_134\n      swap3\n      swap2\n      swap1\n      tag_103\n      jump\t// in\n    tag_134:\n      swap1\n      dup2\n      mstore\n      0x20\n      add\n      mload(0x40)\n      dup1\n      swap2\n      sub\n      swap1\n      keccak256\n        /* \"contracts/ENS6.sol\":5647:5677  domains[domainName].expiration */\n      0x02\n      add\n      sload\n        /* \"contracts/ENS6.sol\":5545:5687  return (... */\n      swap3\n      pop\n      swap3\n      pop\n      swap3\n      pop\n        /* \"contracts/ENS6.sol\":5327:5694  function getDomainInfo(string calldata domainName)... */\n      swap3\n      pop\n      swap3\n      pop\n      swap3\n      jump\t// out\n        /* \"contracts/ENS6.sol\":4951:5321  function changeResolver(string calldata domainName, address newResolver)... */\n    tag_54:\n        /* \"contracts/ENS6.sol\":5065:5075  domainName */\n      dup3\n      dup3\n        /* \"contracts/ENS6.sol\":1041:1243  modifier onlyDomainOwner(string memory domainName) {... */\n      dup1\n      dup1\n      0x1f\n      add\n      0x20\n      dup1\n      swap2\n      div\n      mul\n      0x20\n      add\n      mload(0x40)\n      swap1\n      dup2\n      add\n      0x40\n      mstore\n      dup1\n      swap4\n      swap3\n      swap2\n      swap1\n      dup2\n      dup2\n      mstore\n      0x20\n      add\n      dup4\n      dup4\n      dup1\n      dup3\n      dup5\n      calldatacopy\n      0x00\n      dup2\n      dup5\n      add\n      mstore\n      not(0x1f)\n      0x1f\n      dup3\n      add\n      and\n      swap1\n      pop\n      dup1\n      dup4\n      add\n      swap3\n      pop\n      pop\n      pop\n      pop\n      pop\n      pop\n      pop\n        /* \"contracts/ENS6.sol\":1152:1162  msg.sender */\n      caller\n        /* \"contracts/ENS6.sol\":1123:1162  domains[domainName].owner == msg.sender */\n      0xffffffffffffffffffffffffffffffffffffffff\n      and\n        /* \"contracts/ENS6.sol\":1123:1130  domains */\n      0x03\n        /* \"contracts/ENS6.sol\":1131:1141  domainName */\n      dup3\n        /* \"contracts/ENS6.sol\":1123:1142  domains[domainName] */\n      mload(0x40)\n      tag_136\n      swap2\n      swap1\n      tag_86\n      jump\t// in\n    tag_136:\n      swap1\n      dup2\n      mstore\n      0x20\n      add\n      mload(0x40)\n      dup1\n      swap2\n      sub\n      swap1\n      keccak256\n        /* \"contracts/ENS6.sol\":1123:1148  domains[domainName].owner */\n      0x00\n      add\n      0x00\n      swap1\n      sload\n      swap1\n      0x0100\n      exp\n      swap1\n      div\n      0xffffffffffffffffffffffffffffffffffffffff\n      and\n        /* \"contracts/ENS6.sol\":1123:1162  domains[domainName].owner == msg.sender */\n      0xffffffffffffffffffffffffffffffffffffffff\n      and\n      eq\n        /* \"contracts/ENS6.sol\":1102:1225  require(... */\n      tag_137\n      jumpi\n      mload(0x40)\n      0x08c379a000000000000000000000000000000000000000000000000000000000\n      dup2\n      mstore\n      0x04\n      add\n      tag_138\n      swap1\n      tag_89\n      jump\t// in\n    tag_138:\n      mload(0x40)\n      dup1\n      swap2\n      sub\n      swap1\n      revert\n    tag_137:\n        /* \"contracts/ENS6.sol\":5146:5161  block.timestamp */\n      timestamp\n        /* \"contracts/ENS6.sol\":5112:5119  domains */\n      0x03\n        /* \"contracts/ENS6.sol\":5120:5130  domainName */\n      dup6\n      dup6\n        /* \"contracts/ENS6.sol\":5112:5131  domains[domainName] */\n      mload(0x40)\n      tag_140\n      swap3\n      swap2\n      swap1\n      tag_103\n      jump\t// in\n    tag_140:\n      swap1\n      dup2\n      mstore\n      0x20\n      add\n      mload(0x40)\n      dup1\n      swap2\n      sub\n      swap1\n      keccak256\n        /* \"contracts/ENS6.sol\":5112:5142  domains[domainName].expiration */\n      0x02\n      add\n      sload\n        /* \"contracts/ENS6.sol\":5112:5161  domains[domainName].expiration >= block.timestamp */\n      lt\n      iszero\n        /* \"contracts/ENS6.sol\":5091:5206  require(... */\n      tag_141\n      jumpi\n      mload(0x40)\n      0x08c379a000000000000000000000000000000000000000000000000000000000\n      dup2\n      mstore\n      0x04\n      add\n      tag_142\n      swap1\n      tag_143\n      jump\t// in\n    tag_142:\n      mload(0x40)\n      dup1\n      swap2\n      sub\n      swap1\n      revert\n    tag_141:\n        /* \"contracts/ENS6.sol\":5248:5259  newResolver */\n      dup2\n        /* \"contracts/ENS6.sol\":5217:5224  domains */\n      0x03\n        /* \"contracts/ENS6.sol\":5225:5235  domainName */\n      dup6\n      dup6\n        /* \"contracts/ENS6.sol\":5217:5236  domains[domainName] */\n      mload(0x40)\n      tag_144\n      swap3\n      swap2\n      swap1\n      tag_103\n      jump\t// in\n    tag_144:\n      swap1\n      dup2\n      mstore\n      0x20\n      add\n      mload(0x40)\n      dup1\n      swap2\n      sub\n      swap1\n      keccak256\n        /* \"contracts/ENS6.sol\":5217:5245  domains[domainName].resolver */\n      0x01\n      add\n      0x00\n        /* \"contracts/ENS6.sol\":5217:5259  domains[domainName].resolver = newResolver */\n      0x0100\n      exp\n      dup2\n      sload\n      dup2\n      0xffffffffffffffffffffffffffffffffffffffff\n      mul\n      not\n      and\n      swap1\n      dup4\n      0xffffffffffffffffffffffffffffffffffffffff\n      and\n      mul\n      or\n      swap1\n      sstore\n      pop\n        /* \"contracts/ENS6.sol\":5302:5313  newResolver */\n      dup2\n        /* \"contracts/ENS6.sol\":5274:5314  ResolverChanged(domainName, newResolver) */\n      0xffffffffffffffffffffffffffffffffffffffff\n      and\n      0x6d25091b0cf2f910de133fa1124a83cc0bba17dcddb63e259346affd222ebe44\n        /* \"contracts/ENS6.sol\":5290:5300  domainName */\n      dup6\n      dup6\n        /* \"contracts/ENS6.sol\":5274:5314  ResolverChanged(domainName, newResolver) */\n      mload(0x40)\n      tag_145\n      swap3\n      swap2\n      swap1\n      tag_146\n      jump\t// in\n    tag_145:\n      mload(0x40)\n      dup1\n      swap2\n      sub\n      swap1\n      log2\n        /* \"contracts/ENS6.sol\":4951:5321  function changeResolver(string calldata domainName, address newResolver)... */\n      pop\n      pop\n      pop\n      pop\n      jump\t// out\n        /* \"contracts/ENS6.sol\":236:256  address public owner */\n    tag_57:\n      0x01\n      0x00\n      swap1\n      sload\n      swap1\n      0x0100\n      exp\n      swap1\n      div\n      0xffffffffffffffffffffffffffffffffffffffff\n      and\n      dup2\n      jump\t// out\n        /* \"contracts/ENS6.sol\":4379:4945  function transferDomainOwnership(string calldata domainName, address newOwner)... */\n    tag_63:\n        /* \"contracts/ENS6.sol\":4499:4509  domainName */\n      dup3\n      dup3\n        /* \"contracts/ENS6.sol\":1041:1243  modifier onlyDomainOwner(string memory domainName) {... */\n      dup1\n      dup1\n      0x1f\n      add\n      0x20\n      dup1\n      swap2\n      div\n      mul\n      0x20\n      add\n      mload(0x40)\n      swap1\n      dup2\n      add\n      0x40\n      mstore\n      dup1\n      swap4\n      swap3\n      swap2\n      swap1\n      dup2\n      dup2\n      mstore\n      0x20\n      add\n      dup4\n      dup4\n      dup1\n      dup3\n      dup5\n      calldatacopy\n      0x00\n      dup2\n      dup5\n      add\n      mstore\n      not(0x1f)\n      0x1f\n      dup3\n      add\n      and\n      swap1\n      pop\n      dup1\n      dup4\n      add\n      swap3\n      pop\n      pop\n      pop\n      pop\n      pop\n      pop\n      pop\n        /* \"contracts/ENS6.sol\":1152:1162  msg.sender */\n      caller\n        /* \"contracts/ENS6.sol\":1123:1162  domains[domainName].owner == msg.sender */\n      0xffffffffffffffffffffffffffffffffffffffff\n      and\n        /* \"contracts/ENS6.sol\":1123:1130  domains */\n      0x03\n        /* \"contracts/ENS6.sol\":1131:1141  domainName */\n      dup3\n        /* \"contracts/ENS6.sol\":1123:1142  domains[domainName] */\n      mload(0x40)\n      tag_148\n      swap2\n      swap1\n      tag_86\n      jump\t// in\n    tag_148:\n      swap1\n      dup2\n      mstore\n      0x20\n      add\n      mload(0x40)\n      dup1\n      swap2\n      sub\n      swap1\n      keccak256\n        /* \"contracts/ENS6.sol\":1123:1148  domains[domainName].owner */\n      0x00\n      add\n      0x00\n      swap1\n      sload\n      swap1\n      0x0100\n      exp\n      swap1\n      div\n      0xffffffffffffffffffffffffffffffffffffffff\n      and\n        /* \"contracts/ENS6.sol\":1123:1162  domains[domainName].owner == msg.sender */\n      0xffffffffffffffffffffffffffffffffffffffff\n      and\n      eq\n        /* \"contracts/ENS6.sol\":1102:1225  require(... */\n      tag_149\n      jumpi\n      mload(0x40)\n      0x08c379a000000000000000000000000000000000000000000000000000000000\n      dup2\n      mstore\n      0x04\n      add\n      tag_150\n      swap1\n      tag_89\n      jump\t// in\n    tag_150:\n      mload(0x40)\n      dup1\n      swap2\n      sub\n      swap1\n      revert\n    tag_149:\n        /* \"contracts/ENS6.sol\":4580:4595  block.timestamp */\n      timestamp\n        /* \"contracts/ENS6.sol\":4546:4553  domains */\n      0x03\n        /* \"contracts/ENS6.sol\":4554:4564  domainName */\n      dup6\n      dup6\n        /* \"contracts/ENS6.sol\":4546:4565  domains[domainName] */\n      mload(0x40)\n      tag_152\n      swap3\n      swap2\n      swap1\n      tag_103\n      jump\t// in\n    tag_152:\n      swap1\n      dup2\n      mstore\n      0x20\n      add\n      mload(0x40)\n      dup1\n      swap2\n      sub\n      swap1\n      keccak256\n        /* \"contracts/ENS6.sol\":4546:4576  domains[domainName].expiration */\n      0x02\n      add\n      sload\n        /* \"contracts/ENS6.sol\":4546:4595  domains[domainName].expiration >= block.timestamp */\n      lt\n      iszero\n        /* \"contracts/ENS6.sol\":4525:4640  require(... */\n      tag_153\n      jumpi\n      mload(0x40)\n      0x08c379a000000000000000000000000000000000000000000000000000000000\n      dup2\n      mstore\n      0x04\n      add\n      tag_154\n      swap1\n      tag_143\n      jump\t// in\n    tag_154:\n      mload(0x40)\n      dup1\n      swap2\n      sub\n      swap1\n      revert\n    tag_153:\n        /* \"contracts/ENS6.sol\":4651:4672  address previousOwner */\n      0x00\n        /* \"contracts/ENS6.sol\":4675:4682  domains */\n      0x03\n        /* \"contracts/ENS6.sol\":4683:4693  domainName */\n      dup6\n      dup6\n        /* \"contracts/ENS6.sol\":4675:4694  domains[domainName] */\n      mload(0x40)\n      tag_155\n      swap3\n      swap2\n      swap1\n      tag_103\n      jump\t// in\n    tag_155:\n      swap1\n      dup2\n      mstore\n      0x20\n      add\n      mload(0x40)\n      dup1\n      swap2\n      sub\n      swap1\n      keccak256\n        /* \"contracts/ENS6.sol\":4675:4700  domains[domainName].owner */\n      0x00\n      add\n      0x00\n      swap1\n      sload\n      swap1\n      0x0100\n      exp\n      swap1\n      div\n      0xffffffffffffffffffffffffffffffffffffffff\n      and\n        /* \"contracts/ENS6.sol\":4651:4700  address previousOwner = domains[domainName].owner */\n      swap1\n      pop\n        /* \"contracts/ENS6.sol\":4738:4746  newOwner */\n      dup3\n        /* \"contracts/ENS6.sol\":4710:4717  domains */\n      0x03\n        /* \"contracts/ENS6.sol\":4718:4728  domainName */\n      dup7\n      dup7\n        /* \"contracts/ENS6.sol\":4710:4729  domains[domainName] */\n      mload(0x40)\n      tag_156\n      swap3\n      swap2\n      swap1\n      tag_103\n      jump\t// in\n    tag_156:\n      swap1\n      dup2\n      mstore\n      0x20\n      add\n      mload(0x40)\n      dup1\n      swap2\n      sub\n      swap1\n      keccak256\n        /* \"contracts/ENS6.sol\":4710:4735  domains[domainName].owner */\n      0x00\n      add\n      0x00\n        /* \"contracts/ENS6.sol\":4710:4746  domains[domainName].owner = newOwner */\n      0x0100\n      exp\n      dup2\n      sload\n      dup2\n      0xffffffffffffffffffffffffffffffffffffffff\n      mul\n      not\n      and\n      swap1\n      dup4\n      0xffffffffffffffffffffffffffffffffffffffff\n      and\n      mul\n      or\n      swap1\n      sstore\n      pop\n        /* \"contracts/ENS6.sol\":4757:4806  _removeDomainFromOwner(previousOwner, domainName) */\n      tag_157\n        /* \"contracts/ENS6.sol\":4780:4793  previousOwner */\n      dup2\n        /* \"contracts/ENS6.sol\":4795:4805  domainName */\n      dup7\n      dup7\n        /* \"contracts/ENS6.sol\":4757:4806  _removeDomainFromOwner(previousOwner, domainName) */\n      dup1\n      dup1\n      0x1f\n      add\n      0x20\n      dup1\n      swap2\n      div\n      mul\n      0x20\n      add\n      mload(0x40)\n      swap1\n      dup2\n      add\n      0x40\n      mstore\n      dup1\n      swap4\n      swap3\n      swap2\n      swap1\n      dup2\n      dup2\n      mstore\n      0x20\n      add\n      dup4\n      dup4\n      dup1\n      dup3\n      dup5\n      calldatacopy\n      0x00\n      dup2\n      dup5\n      add\n      mstore\n      not(0x1f)\n      0x1f\n      dup3\n      add\n      and\n      swap1\n      pop\n      dup1\n      dup4\n      add\n      swap3\n      pop\n      pop\n      pop\n      pop\n      pop\n      pop\n      pop\n        /* \"contracts/ENS6.sol\":4757:4779  _removeDomainFromOwner */\n      tag_158\n        /* \"contracts/ENS6.sol\":4757:4806  _removeDomainFromOwner(previousOwner, domainName) */\n      jump\t// in\n    tag_157:\n        /* \"contracts/ENS6.sol\":4816:4832  addressToDomains */\n      0x04\n        /* \"contracts/ENS6.sol\":4816:4842  addressToDomains[newOwner] */\n      0x00\n        /* \"contracts/ENS6.sol\":4833:4841  newOwner */\n      dup5\n        /* \"contracts/ENS6.sol\":4816:4842  addressToDomains[newOwner] */\n      0xffffffffffffffffffffffffffffffffffffffff\n      and\n      0xffffffffffffffffffffffffffffffffffffffff\n      and\n      dup2\n      mstore\n      0x20\n      add\n      swap1\n      dup2\n      mstore\n      0x20\n      add\n      0x00\n      keccak256\n        /* \"contracts/ENS6.sol\":4848:4858  domainName */\n      dup6\n      dup6\n        /* \"contracts/ENS6.sol\":4816:4859  addressToDomains[newOwner].push(domainName) */\n      swap1\n      swap2\n      dup1\n      0x01\n      dup2\n      sload\n      add\n      dup1\n      dup3\n      sstore\n      dup1\n      swap2\n      pop\n      pop\n      0x01\n      swap1\n      sub\n      swap1\n      0x00\n      mstore\n      keccak256(0x00, 0x20)\n      add\n      0x00\n      swap1\n      swap2\n      swap3\n      swap1\n      swap2\n      swap3\n      swap1\n      swap2\n      swap3\n      swap1\n      swap2\n      swap3\n      pop\n      swap2\n      dup3\n      tag_160\n      swap3\n      swap2\n      swap1\n      tag_161\n      jump\t// in\n    tag_160:\n      pop\n        /* \"contracts/ENS6.sol\":4929:4937  newOwner */\n      dup3\n        /* \"contracts/ENS6.sol\":4875:4938  DomainOwnershipTransferred(domainName, previousOwner, newOwner) */\n      0xffffffffffffffffffffffffffffffffffffffff\n      and\n        /* \"contracts/ENS6.sol\":4914:4927  previousOwner */\n      dup2\n        /* \"contracts/ENS6.sol\":4875:4938  DomainOwnershipTransferred(domainName, previousOwner, newOwner) */\n      0xffffffffffffffffffffffffffffffffffffffff\n      and\n      0xd43ae7ba5d7f951ba2fb94d03dc0f12664835c289cea1d1295e86a1fbddfc82c\n        /* \"contracts/ENS6.sol\":4902:4912  domainName */\n      dup8\n      dup8\n        /* \"contracts/ENS6.sol\":4875:4938  DomainOwnershipTransferred(domainName, previousOwner, newOwner) */\n      mload(0x40)\n      tag_162\n      swap3\n      swap2\n      swap1\n      tag_146\n      jump\t// in\n    tag_162:\n      mload(0x40)\n      dup1\n      swap2\n      sub\n      swap1\n      log3\n        /* \"contracts/ENS6.sol\":4515:4945  {... */\n      pop\n        /* \"contracts/ENS6.sol\":4379:4945  function transferDomainOwnership(string calldata domainName, address newOwner)... */\n      pop\n      pop\n      pop\n      pop\n      jump\t// out\n        /* \"contracts/ENS6.sol\":7584:7708  function withdrawToken(address token, uint256 amt) public onlyOwner {... */\n    tag_68:\n        /* \"contracts/ENS6.sol\":939:944  owner */\n      0x01\n      0x00\n      swap1\n      sload\n      swap1\n      0x0100\n      exp\n      swap1\n      div\n      0xffffffffffffffffffffffffffffffffffffffff\n      and\n        /* \"contracts/ENS6.sol\":925:944  msg.sender == owner */\n      0xffffffffffffffffffffffffffffffffffffffff\n      and\n        /* \"contracts/ENS6.sol\":925:935  msg.sender */\n      caller\n        /* \"contracts/ENS6.sol\":925:944  msg.sender == owner */\n      0xffffffffffffffffffffffffffffffffffffffff\n      and\n      eq\n        /* \"contracts/ENS6.sol\":904:1017  require(... */\n      tag_164\n      jumpi\n      mload(0x40)\n      0x08c379a000000000000000000000000000000000000000000000000000000000\n      dup2\n      mstore\n      0x04\n      add\n      tag_165\n      swap1\n      tag_121\n      jump\t// in\n    tag_165:\n      mload(0x40)\n      dup1\n      swap2\n      sub\n      swap1\n      revert\n    tag_164:\n        /* \"contracts/ENS6.sol\":7669:7674  token */\n      dup2\n        /* \"contracts/ENS6.sol\":7662:7684  IERC20(token).transfer */\n      0xffffffffffffffffffffffffffffffffffffffff\n      and\n      0xa9059cbb\n        /* \"contracts/ENS6.sol\":7685:7695  msg.sender */\n      caller\n        /* \"contracts/ENS6.sol\":7697:7700  amt */\n      dup4\n        /* \"contracts/ENS6.sol\":7662:7701  IERC20(token).transfer(msg.sender, amt) */\n      mload(0x40)\n      dup4\n      0xffffffff\n      and\n      0xe0\n      shl\n      dup2\n      mstore\n      0x04\n      add\n      tag_167\n      swap3\n      swap2\n      swap1\n      tag_168\n      jump\t// in\n    tag_167:\n      0x20\n      mload(0x40)\n      dup1\n      dup4\n      sub\n      dup2\n      0x00\n      dup8\n      gas\n      call\n      iszero\n      dup1\n      iszero\n      tag_170\n      jumpi\n      returndatasize\n      0x00\n      dup1\n      returndatacopy\n      revert(0x00, returndatasize)\n    tag_170:\n      pop\n      pop\n      pop\n      pop\n      mload(0x40)\n      returndatasize\n      not(0x1f)\n      0x1f\n      dup3\n      add\n      and\n      dup3\n      add\n      dup1\n      0x40\n      mstore\n      pop\n      dup2\n      add\n      swap1\n      tag_171\n      swap2\n      swap1\n      tag_172\n      jump\t// in\n    tag_171:\n      pop\n        /* \"contracts/ENS6.sol\":7584:7708  function withdrawToken(address token, uint256 amt) public onlyOwner {... */\n      pop\n      pop\n      jump\t// out\n        /* \"contracts/ENS6.sol\":2011:3621  function registerDomain(... */\n    tag_72:\n        /* \"contracts/ENS6.sol\":2242:2243  0 */\n      0x00\n        /* \"contracts/ENS6.sol\":2212:2224  suffixPrices */\n      0x02\n        /* \"contracts/ENS6.sol\":2225:2237  chosenSuffix */\n      dup4\n      dup4\n        /* \"contracts/ENS6.sol\":2212:2238  suffixPrices[chosenSuffix] */\n      mload(0x40)\n      tag_174\n      swap3\n      swap2\n      swap1\n      tag_103\n      jump\t// in\n    tag_174:\n      swap1\n      dup2\n      mstore\n      0x20\n      add\n      mload(0x40)\n      dup1\n      swap2\n      sub\n      swap1\n      keccak256\n      sload\n        /* \"contracts/ENS6.sol\":2212:2243  suffixPrices[chosenSuffix] != 0 */\n      sub\n        /* \"contracts/ENS6.sol\":2204:2262  require(suffixPrices[chosenSuffix] != 0, \"Invalid suffix\") */\n      tag_175\n      jumpi\n      mload(0x40)\n      0x08c379a000000000000000000000000000000000000000000000000000000000\n      dup2\n      mstore\n      0x04\n      add\n      tag_176\n      swap1\n      tag_177\n      jump\t// in\n    tag_176:\n      mload(0x40)\n      dup1\n      swap2\n      sub\n      swap1\n      revert\n    tag_175:\n        /* \"contracts/ENS6.sol\":2273:2296  string memory lowerName */\n      0x00\n        /* \"contracts/ENS6.sol\":2299:2316  toLowerCase(name) */\n      tag_178\n        /* \"contracts/ENS6.sol\":2311:2315  name */\n      dup8\n      dup8\n        /* \"contracts/ENS6.sol\":2299:2316  toLowerCase(name) */\n      dup1\n      dup1\n      0x1f\n      add\n      0x20\n      dup1\n      swap2\n      div\n      mul\n      0x20\n      add\n      mload(0x40)\n      swap1\n      dup2\n      add\n      0x40\n      mstore\n      dup1\n      swap4\n      swap3\n      swap2\n      swap1\n      dup2\n      dup2\n      mstore\n      0x20\n      add\n      dup4\n      dup4\n      dup1\n      dup3\n      dup5\n      calldatacopy\n      0x00\n      dup2\n      dup5\n      add\n      mstore\n      not(0x1f)\n      0x1f\n      dup3\n      add\n      and\n      swap1\n      pop\n      dup1\n      dup4\n      add\n      swap3\n      pop\n      pop\n      pop\n      pop\n      pop\n      pop\n      pop\n        /* \"contracts/ENS6.sol\":2299:2310  toLowerCase */\n      tag_179\n        /* \"contracts/ENS6.sol\":2299:2316  toLowerCase(name) */\n      jump\t// in\n    tag_178:\n        /* \"contracts/ENS6.sol\":2273:2316  string memory lowerName = toLowerCase(name) */\n      swap1\n      pop\n        /* \"contracts/ENS6.sol\":2373:2374  0 */\n      0x00\n        /* \"contracts/ENS6.sol\":2353:2362  lowerName */\n      dup2\n        /* \"contracts/ENS6.sol\":2347:2370  bytes(lowerName).length */\n      mload\n        /* \"contracts/ENS6.sol\":2347:2374  bytes(lowerName).length > 0 */\n      gt\n        /* \"contracts/ENS6.sol\":2347:2407  bytes(lowerName).length > 0 && bytes(lowerName).length <= 15 */\n      dup1\n      iszero\n      tag_180\n      jumpi\n      pop\n        /* \"contracts/ENS6.sol\":2405:2407  15 */\n      0x0f\n        /* \"contracts/ENS6.sol\":2384:2393  lowerName */\n      dup2\n        /* \"contracts/ENS6.sol\":2378:2401  bytes(lowerName).length */\n      mload\n        /* \"contracts/ENS6.sol\":2378:2407  bytes(lowerName).length <= 15 */\n      gt\n      iszero\n        /* \"contracts/ENS6.sol\":2347:2407  bytes(lowerName).length > 0 && bytes(lowerName).length <= 15 */\n    tag_180:\n        /* \"contracts/ENS6.sol\":2326:2476  require(... */\n      tag_181\n      jumpi\n      mload(0x40)\n      0x08c379a000000000000000000000000000000000000000000000000000000000\n      dup2\n      mstore\n      0x04\n      add\n      tag_182\n      swap1\n      tag_183\n      jump\t// in\n    tag_182:\n      mload(0x40)\n      dup1\n      swap2\n      sub\n      swap1\n      revert\n    tag_181:\n        /* \"contracts/ENS6.sol\":2487:2511  string memory domainName */\n      0x00\n        /* \"contracts/ENS6.sol\":2551:2560  lowerName */\n      dup2\n        /* \"contracts/ENS6.sol\":2562:2574  chosenSuffix */\n      dup5\n      dup5\n        /* \"contracts/ENS6.sol\":2534:2575  abi.encodePacked(lowerName, chosenSuffix) */\n      add(0x20, mload(0x40))\n      tag_184\n      swap4\n      swap3\n      swap2\n      swap1\n      tag_185\n      jump\t// in\n    tag_184:\n      mload(0x40)\n      0x20\n      dup2\n      dup4\n      sub\n      sub\n      dup2\n      mstore\n      swap1\n      0x40\n      mstore\n        /* \"contracts/ENS6.sol\":2487:2585  string memory domainName = string(... */\n      swap1\n      pop\n        /* \"contracts/ENS6.sol\":2596:2610  bool isExpired */\n      0x00\n        /* \"contracts/ENS6.sol\":2646:2661  block.timestamp */\n      timestamp\n        /* \"contracts/ENS6.sol\":2613:2620  domains */\n      0x03\n        /* \"contracts/ENS6.sol\":2621:2631  domainName */\n      dup4\n        /* \"contracts/ENS6.sol\":2613:2632  domains[domainName] */\n      mload(0x40)\n      tag_186\n      swap2\n      swap1\n      tag_86\n      jump\t// in\n    tag_186:\n      swap1\n      dup2\n      mstore\n      0x20\n      add\n      mload(0x40)\n      dup1\n      swap2\n      sub\n      swap1\n      keccak256\n        /* \"contracts/ENS6.sol\":2613:2643  domains[domainName].expiration */\n      0x02\n      add\n      sload\n        /* \"contracts/ENS6.sol\":2613:2661  domains[domainName].expiration < block.timestamp */\n      lt\n        /* \"contracts/ENS6.sol\":2596:2661  bool isExpired = domains[domainName].expiration < block.timestamp */\n      swap1\n      pop\n        /* \"contracts/ENS6.sol\":2730:2731  0 */\n      0x00\n        /* \"contracts/ENS6.sol\":2693:2732  domains[domainName].owner == address(0) */\n      0xffffffffffffffffffffffffffffffffffffffff\n      and\n        /* \"contracts/ENS6.sol\":2693:2700  domains */\n      0x03\n        /* \"contracts/ENS6.sol\":2701:2711  domainName */\n      dup4\n        /* \"contracts/ENS6.sol\":2693:2712  domains[domainName] */\n      mload(0x40)\n      tag_187\n      swap2\n      swap1\n      tag_86\n      jump\t// in\n    tag_187:\n      swap1\n      dup2\n      mstore\n      0x20\n      add\n      mload(0x40)\n      dup1\n      swap2\n      sub\n      swap1\n      keccak256\n        /* \"contracts/ENS6.sol\":2693:2718  domains[domainName].owner */\n      0x00\n      add\n      0x00\n      swap1\n      sload\n      swap1\n      0x0100\n      exp\n      swap1\n      div\n      0xffffffffffffffffffffffffffffffffffffffff\n      and\n        /* \"contracts/ENS6.sol\":2693:2732  domains[domainName].owner == address(0) */\n      0xffffffffffffffffffffffffffffffffffffffff\n      and\n      eq\n        /* \"contracts/ENS6.sol\":2693:2745  domains[domainName].owner == address(0) || isExpired */\n      dup1\n      tag_188\n      jumpi\n      pop\n        /* \"contracts/ENS6.sol\":2736:2745  isExpired */\n      dup1\n        /* \"contracts/ENS6.sol\":2693:2745  domains[domainName].owner == address(0) || isExpired */\n    tag_188:\n        /* \"contracts/ENS6.sol\":2672:2813  require(... */\n      tag_189\n      jumpi\n      mload(0x40)\n      0x08c379a000000000000000000000000000000000000000000000000000000000\n      dup2\n      mstore\n      0x04\n      add\n      tag_190\n      swap1\n      tag_191\n      jump\t// in\n    tag_190:\n      mload(0x40)\n      dup1\n      swap2\n      sub\n      swap1\n      revert\n    tag_189:\n        /* \"contracts/ENS6.sol\":2828:2837  isExpired */\n      dup1\n        /* \"contracts/ENS6.sol\":2824:2925  if (isExpired) {... */\n      iszero\n      tag_192\n      jumpi\n        /* \"contracts/ENS6.sol\":2853:2914  _removeDomainFromOwner(domains[domainName].owner, domainName) */\n      tag_193\n        /* \"contracts/ENS6.sol\":2876:2883  domains */\n      0x03\n        /* \"contracts/ENS6.sol\":2884:2894  domainName */\n      dup4\n        /* \"contracts/ENS6.sol\":2876:2895  domains[domainName] */\n      mload(0x40)\n      tag_194\n      swap2\n      swap1\n      tag_86\n      jump\t// in\n    tag_194:\n      swap1\n      dup2\n      mstore\n      0x20\n      add\n      mload(0x40)\n      dup1\n      swap2\n      sub\n      swap1\n      keccak256\n        /* \"contracts/ENS6.sol\":2876:2901  domains[domainName].owner */\n      0x00\n      add\n      0x00\n      swap1\n      sload\n      swap1\n      0x0100\n      exp\n      swap1\n      div\n      0xffffffffffffffffffffffffffffffffffffffff\n      and\n        /* \"contracts/ENS6.sol\":2903:2913  domainName */\n      dup4\n        /* \"contracts/ENS6.sol\":2853:2875  _removeDomainFromOwner */\n      tag_158\n        /* \"contracts/ENS6.sol\":2853:2914  _removeDomainFromOwner(domains[domainName].owner, domainName) */\n      jump\t// in\n    tag_193:\n        /* \"contracts/ENS6.sol\":2824:2925  if (isExpired) {... */\n    tag_192:\n        /* \"contracts/ENS6.sol\":2935:2952  uint256 totalCost */\n      0x00\n        /* \"contracts/ENS6.sol\":2984:3001  registrationYears */\n      dup7\n        /* \"contracts/ENS6.sol\":2955:2967  suffixPrices */\n      0x02\n        /* \"contracts/ENS6.sol\":2968:2980  chosenSuffix */\n      dup8\n      dup8\n        /* \"contracts/ENS6.sol\":2955:2981  suffixPrices[chosenSuffix] */\n      mload(0x40)\n      tag_195\n      swap3\n      swap2\n      swap1\n      tag_103\n      jump\t// in\n    tag_195:\n      swap1\n      dup2\n      mstore\n      0x20\n      add\n      mload(0x40)\n      dup1\n      swap2\n      sub\n      swap1\n      keccak256\n      sload\n        /* \"contracts/ENS6.sol\":2955:3001  suffixPrices[chosenSuffix] * registrationYears */\n      tag_196\n      swap2\n      swap1\n      tag_97\n      jump\t// in\n    tag_196:\n        /* \"contracts/ENS6.sol\":2935:3001  uint256 totalCost = suffixPrices[chosenSuffix] * registrationYears */\n      swap1\n      pop\n        /* \"contracts/ENS6.sol\":3045:3054  totalCost */\n      dup1\n        /* \"contracts/ENS6.sol\":3032:3041  msg.value */\n      callvalue\n        /* \"contracts/ENS6.sol\":3032:3054  msg.value >= totalCost */\n      lt\n      iszero\n        /* \"contracts/ENS6.sol\":3011:3145  require(... */\n      tag_197\n      jumpi\n      mload(0x40)\n      0x08c379a000000000000000000000000000000000000000000000000000000000\n      dup2\n      mstore\n      0x04\n      add\n      tag_198\n      swap1\n      tag_199\n      jump\t// in\n    tag_198:\n      mload(0x40)\n      dup1\n      swap2\n      sub\n      swap1\n      revert\n    tag_197:\n        /* \"contracts/ENS6.sol\":3156:3174  uint256 expiration */\n      0x00\n        /* \"contracts/ENS6.sol\":3215:3224  1 minutes */\n      0x3c\n        /* \"contracts/ENS6.sol\":3195:3212  registrationYears */\n      dup9\n        /* \"contracts/ENS6.sol\":3195:3224  registrationYears * 1 minutes */\n      tag_200\n      swap2\n      swap1\n      tag_97\n      jump\t// in\n    tag_200:\n        /* \"contracts/ENS6.sol\":3177:3192  block.timestamp */\n      timestamp\n        /* \"contracts/ENS6.sol\":3177:3224  block.timestamp + registrationYears * 1 minutes */\n      tag_201\n      swap2\n      swap1\n      tag_105\n      jump\t// in\n    tag_201:\n        /* \"contracts/ENS6.sol\":3156:3224  uint256 expiration = block.timestamp + registrationYears * 1 minutes */\n      swap1\n      pop\n        /* \"contracts/ENS6.sol\":3256:3303  Domain(msg.sender, initialResolver, expiration) */\n      mload(0x40)\n      dup1\n      0x60\n      add\n      0x40\n      mstore\n      dup1\n        /* \"contracts/ENS6.sol\":3263:3273  msg.sender */\n      caller\n        /* \"contracts/ENS6.sol\":3256:3303  Domain(msg.sender, initialResolver, expiration) */\n      0xffffffffffffffffffffffffffffffffffffffff\n      and\n      dup2\n      mstore\n      0x20\n      add\n        /* \"contracts/ENS6.sol\":3275:3290  initialResolver */\n      dup11\n        /* \"contracts/ENS6.sol\":3256:3303  Domain(msg.sender, initialResolver, expiration) */\n      0xffffffffffffffffffffffffffffffffffffffff\n      and\n      dup2\n      mstore\n      0x20\n      add\n        /* \"contracts/ENS6.sol\":3292:3302  expiration */\n      dup3\n        /* \"contracts/ENS6.sol\":3256:3303  Domain(msg.sender, initialResolver, expiration) */\n      dup2\n      mstore\n      pop\n        /* \"contracts/ENS6.sol\":3234:3241  domains */\n      0x03\n        /* \"contracts/ENS6.sol\":3242:3252  domainName */\n      dup6\n        /* \"contracts/ENS6.sol\":3234:3253  domains[domainName] */\n      mload(0x40)\n      tag_202\n      swap2\n      swap1\n      tag_86\n      jump\t// in\n    tag_202:\n      swap1\n      dup2\n      mstore\n      0x20\n      add\n      mload(0x40)\n      dup1\n      swap2\n      sub\n      swap1\n      keccak256\n        /* \"contracts/ENS6.sol\":3234:3303  domains[domainName] = Domain(msg.sender, initialResolver, expiration) */\n      0x00\n      dup3\n      add\n      mload\n      dup2\n      0x00\n      add\n      exp(0x0100, 0x00)\n      dup2\n      sload\n      dup2\n      0xffffffffffffffffffffffffffffffffffffffff\n      mul\n      not\n      and\n      swap1\n      dup4\n      0xffffffffffffffffffffffffffffffffffffffff\n      and\n      mul\n      or\n      swap1\n      sstore\n      pop\n      0x20\n      dup3\n      add\n      mload\n      dup2\n      0x01\n      add\n      exp(0x0100, 0x00)\n      dup2\n      sload\n      dup2\n      0xffffffffffffffffffffffffffffffffffffffff\n      mul\n      not\n      and\n      swap1\n      dup4\n      0xffffffffffffffffffffffffffffffffffffffff\n      and\n      mul\n      or\n      swap1\n      sstore\n      pop\n      0x40\n      dup3\n      add\n      mload\n      dup2\n      0x02\n      add\n      sstore\n      swap1\n      pop\n      pop\n        /* \"contracts/ENS6.sol\":3313:3329  addressToDomains */\n      0x04\n        /* \"contracts/ENS6.sol\":3313:3341  addressToDomains[msg.sender] */\n      0x00\n        /* \"contracts/ENS6.sol\":3330:3340  msg.sender */\n      caller\n        /* \"contracts/ENS6.sol\":3313:3341  addressToDomains[msg.sender] */\n      0xffffffffffffffffffffffffffffffffffffffff\n      and\n      0xffffffffffffffffffffffffffffffffffffffff\n      and\n      dup2\n      mstore\n      0x20\n      add\n      swap1\n      dup2\n      mstore\n      0x20\n      add\n      0x00\n      keccak256\n        /* \"contracts/ENS6.sol\":3347:3357  domainName */\n      dup5\n        /* \"contracts/ENS6.sol\":3313:3358  addressToDomains[msg.sender].push(domainName) */\n      swap1\n      dup1\n      0x01\n      dup2\n      sload\n      add\n      dup1\n      dup3\n      sstore\n      dup1\n      swap2\n      pop\n      pop\n      0x01\n      swap1\n      sub\n      swap1\n      0x00\n      mstore\n      keccak256(0x00, 0x20)\n      add\n      0x00\n      swap1\n      swap2\n      swap1\n      swap2\n      swap1\n      swap2\n      pop\n      swap1\n      dup2\n      tag_204\n      swap2\n      swap1\n      tag_205\n      jump\t// in\n    tag_204:\n      pop\n        /* \"contracts/ENS6.sol\":3428:3438  msg.sender */\n      caller\n        /* \"contracts/ENS6.sol\":3374:3501  DomainRegistered(... */\n      0xffffffffffffffffffffffffffffffffffffffff\n      and\n      0xa5f4533ec077c1b1e4fa879988258637a45b7a6e6663bf8589e0d3dde3855017\n        /* \"contracts/ENS6.sol\":3404:3414  domainName */\n      dup6\n        /* \"contracts/ENS6.sol\":3452:3467  initialResolver */\n      dup12\n        /* \"contracts/ENS6.sol\":3481:3491  expiration */\n      dup5\n        /* \"contracts/ENS6.sol\":3374:3501  DomainRegistered(... */\n      mload(0x40)\n      tag_206\n      swap4\n      swap3\n      swap2\n      swap1\n      tag_207\n      jump\t// in\n    tag_206:\n      mload(0x40)\n      dup1\n      swap2\n      sub\n      swap1\n      log2\n        /* \"contracts/ENS6.sol\":3528:3537  totalCost */\n      dup2\n        /* \"contracts/ENS6.sol\":3516:3525  msg.value */\n      callvalue\n        /* \"contracts/ENS6.sol\":3516:3537  msg.value > totalCost */\n      gt\n        /* \"contracts/ENS6.sol\":3512:3615  if (msg.value > totalCost) {... */\n      iszero\n      tag_208\n      jumpi\n        /* \"contracts/ENS6.sol\":3561:3571  msg.sender */\n      caller\n        /* \"contracts/ENS6.sol\":3553:3581  payable(msg.sender).transfer */\n      0xffffffffffffffffffffffffffffffffffffffff\n      and\n        /* \"contracts/ENS6.sol\":3553:3604  payable(msg.sender).transfer(msg.value - totalCost) */\n      0x08fc\n        /* \"contracts/ENS6.sol\":3594:3603  totalCost */\n      dup4\n        /* \"contracts/ENS6.sol\":3582:3591  msg.value */\n      callvalue\n        /* \"contracts/ENS6.sol\":3582:3603  msg.value - totalCost */\n      tag_209\n      swap2\n      swap1\n      tag_111\n      jump\t// in\n    tag_209:\n        /* \"contracts/ENS6.sol\":3553:3604  payable(msg.sender).transfer(msg.value - totalCost) */\n      swap1\n      dup2\n      iszero\n      mul\n      swap1\n      mload(0x40)\n      0x00\n      mload(0x40)\n      dup1\n      dup4\n      sub\n      dup2\n      dup6\n      dup9\n      dup9\n      call\n      swap4\n      pop\n      pop\n      pop\n      pop\n      iszero\n      dup1\n      iszero\n      tag_211\n      jumpi\n      returndatasize\n      0x00\n      dup1\n      returndatacopy\n      revert(0x00, returndatasize)\n    tag_211:\n      pop\n        /* \"contracts/ENS6.sol\":3512:3615  if (msg.value > totalCost) {... */\n    tag_208:\n        /* \"contracts/ENS6.sol\":2194:3621  {... */\n      pop\n      pop\n      pop\n      pop\n      pop\n        /* \"contracts/ENS6.sol\":2011:3621  function registerDomain(... */\n      pop\n      pop\n      pop\n      pop\n      pop\n      pop\n      jump\t// out\n        /* \"contracts/ENS6.sol\":194:230  address public currentImplementation */\n    tag_75:\n      0x00\n      dup1\n      sload\n      swap1\n      0x0100\n      exp\n      swap1\n      div\n      0xffffffffffffffffffffffffffffffffffffffff\n      and\n      dup2\n      jump\t// out\n        /* \"contracts/ENS6.sol\":5700:5869  function getDomainsByOwner(address domainOwner)... */\n    tag_81:\n        /* \"contracts/ENS6.sol\":5795:5810  string[] memory */\n      0x60\n        /* \"contracts/ENS6.sol\":5833:5849  addressToDomains */\n      0x04\n        /* \"contracts/ENS6.sol\":5833:5862  addressToDomains[domainOwner] */\n      0x00\n        /* \"contracts/ENS6.sol\":5850:5861  domainOwner */\n      dup4\n        /* \"contracts/ENS6.sol\":5833:5862  addressToDomains[domainOwner] */\n      0xffffffffffffffffffffffffffffffffffffffff\n      and\n      0xffffffffffffffffffffffffffffffffffffffff\n      and\n      dup2\n      mstore\n      0x20\n      add\n      swap1\n      dup2\n      mstore\n      0x20\n      add\n      0x00\n      keccak256\n        /* \"contracts/ENS6.sol\":5826:5862  return addressToDomains[domainOwner] */\n      dup1\n      sload\n      dup1\n      0x20\n      mul\n      0x20\n      add\n      mload(0x40)\n      swap1\n      dup2\n      add\n      0x40\n      mstore\n      dup1\n      swap3\n      swap2\n      swap1\n      dup2\n      dup2\n      mstore\n      0x20\n      add\n      0x00\n      swap1\n    tag_213:\n      dup3\n      dup3\n      lt\n      iszero\n      tag_214\n      jumpi\n      dup4\n      dup3\n      swap1\n      0x00\n      mstore\n      keccak256(0x00, 0x20)\n      add\n      dup1\n      sload\n      tag_216\n      swap1\n      tag_217\n      jump\t// in\n    tag_216:\n      dup1\n      0x1f\n      add\n      0x20\n      dup1\n      swap2\n      div\n      mul\n      0x20\n      add\n      mload(0x40)\n      swap1\n      dup2\n      add\n      0x40\n      mstore\n      dup1\n      swap3\n      swap2\n      swap1\n      dup2\n      dup2\n      mstore\n      0x20\n      add\n      dup3\n      dup1\n      sload\n      tag_218\n      swap1\n      tag_217\n      jump\t// in\n    tag_218:\n      dup1\n      iszero\n      tag_219\n      jumpi\n      dup1\n      0x1f\n      lt\n      tag_220\n      jumpi\n      0x0100\n      dup1\n      dup4\n      sload\n      div\n      mul\n      dup4\n      mstore\n      swap2\n      0x20\n      add\n      swap2\n      jump(tag_219)\n    tag_220:\n      dup3\n      add\n      swap2\n      swap1\n      0x00\n      mstore\n      keccak256(0x00, 0x20)\n      swap1\n    tag_221:\n      dup2\n      sload\n      dup2\n      mstore\n      swap1\n      0x01\n      add\n      swap1\n      0x20\n      add\n      dup1\n      dup4\n      gt\n      tag_221\n      jumpi\n      dup3\n      swap1\n      sub\n      0x1f\n      and\n      dup3\n      add\n      swap2\n    tag_219:\n      pop\n      pop\n      pop\n      pop\n      pop\n      dup2\n      mstore\n      0x20\n      add\n      swap1\n      0x01\n      add\n      swap1\n      jump(tag_213)\n    tag_214:\n      pop\n      pop\n      pop\n      pop\n      swap1\n      pop\n        /* \"contracts/ENS6.sol\":5700:5869  function getDomainsByOwner(address domainOwner)... */\n      swap2\n      swap1\n      pop\n      jump\t// out\n        /* \"contracts/ENS6.sol\":6671:7035  function _getSuffixPosition(string memory domainName)... */\n    tag_92:\n        /* \"contracts/ENS6.sol\":6772:6779  uint256 */\n      0x00\n        /* \"contracts/ENS6.sol\":6795:6819  bytes memory domainBytes */\n      dup1\n        /* \"contracts/ENS6.sol\":6828:6838  domainName */\n      dup3\n        /* \"contracts/ENS6.sol\":6795:6839  bytes memory domainBytes = bytes(domainName) */\n      swap1\n      pop\n        /* \"contracts/ENS6.sol\":6854:6863  uint256 i */\n      0x00\n        /* \"contracts/ENS6.sol\":6866:6877  domainBytes */\n      dup2\n        /* \"contracts/ENS6.sol\":6866:6884  domainBytes.length */\n      mload\n        /* \"contracts/ENS6.sol\":6854:6884  uint256 i = domainBytes.length */\n      swap1\n      pop\n        /* \"contracts/ENS6.sol\":6849:6994  for (uint256 i = domainBytes.length; i > 0; i--) {... */\n    tag_223:\n        /* \"contracts/ENS6.sol\":6890:6891  0 */\n      0x00\n        /* \"contracts/ENS6.sol\":6886:6887  i */\n      dup2\n        /* \"contracts/ENS6.sol\":6886:6891  i > 0 */\n      gt\n        /* \"contracts/ENS6.sol\":6849:6994  for (uint256 i = domainBytes.length; i > 0; i--) {... */\n      iszero\n      tag_224\n      jumpi\n        /* \"contracts/ENS6.sol\":6916:6941  domainBytes[i - 1] == \".\" */\n      0x2e00000000000000000000000000000000000000000000000000000000000000\n        /* \"contracts/ENS6.sol\":6916:6927  domainBytes */\n      dup3\n        /* \"contracts/ENS6.sol\":6932:6933  1 */\n      0x01\n        /* \"contracts/ENS6.sol\":6928:6929  i */\n      dup4\n        /* \"contracts/ENS6.sol\":6928:6933  i - 1 */\n      tag_226\n      swap2\n      swap1\n      tag_111\n      jump\t// in\n    tag_226:\n        /* \"contracts/ENS6.sol\":6916:6934  domainBytes[i - 1] */\n      dup2\n      mload\n      dup2\n      lt\n      tag_227\n      jumpi\n      tag_228\n      tag_229\n      jump\t// in\n    tag_228:\n    tag_227:\n      0x20\n      add\n      add\n      mload\n      0xf8\n      shr\n      0xf8\n      shl\n        /* \"contracts/ENS6.sol\":6916:6941  domainBytes[i - 1] == \".\" */\n      not(0xffffffffffffffffffffffffffffffffffffffffffffffffffffffffffffff)\n      and\n      sub\n        /* \"contracts/ENS6.sol\":6912:6984  if (domainBytes[i - 1] == \".\") {... */\n      tag_230\n      jumpi\n        /* \"contracts/ENS6.sol\":6968:6969  i */\n      dup1\n        /* \"contracts/ENS6.sol\":6961:6969  return i */\n      swap3\n      pop\n      pop\n      pop\n      jump(tag_222)\n        /* \"contracts/ENS6.sol\":6912:6984  if (domainBytes[i - 1] == \".\") {... */\n    tag_230:\n        /* \"contracts/ENS6.sol\":6893:6896  i-- */\n      dup1\n      dup1\n      tag_231\n      swap1\n      tag_232\n      jump\t// in\n    tag_231:\n      swap2\n      pop\n      pop\n        /* \"contracts/ENS6.sol\":6849:6994  for (uint256 i = domainBytes.length; i > 0; i--) {... */\n      jump(tag_223)\n    tag_224:\n      pop\n        /* \"contracts/ENS6.sol\":7003:7028  revert(\"No suffix found\") */\n      mload(0x40)\n      0x08c379a000000000000000000000000000000000000000000000000000000000\n      dup2\n      mstore\n      0x04\n      add\n      tag_233\n      swap1\n      tag_234\n      jump\t// in\n    tag_233:\n      mload(0x40)\n      dup1\n      swap2\n      sub\n      swap1\n      revert\n        /* \"contracts/ENS6.sol\":6671:7035  function _getSuffixPosition(string memory domainName)... */\n    tag_222:\n      swap2\n      swap1\n      pop\n      jump\t// out\n        /* \"contracts/ENS6.sol\":7041:7466  function _extractSuffix(string memory domainName, uint256 position)... */\n    tag_94:\n        /* \"contracts/ENS6.sol\":7156:7169  string memory */\n      0x60\n        /* \"contracts/ENS6.sol\":7185:7209  bytes memory domainBytes */\n      0x00\n        /* \"contracts/ENS6.sol\":7218:7228  domainName */\n      dup4\n        /* \"contracts/ENS6.sol\":7185:7229  bytes memory domainBytes = bytes(domainName) */\n      swap1\n      pop\n        /* \"contracts/ENS6.sol\":7239:7258  bytes memory result */\n      0x00\n        /* \"contracts/ENS6.sol\":7292:7300  position */\n      dup4\n        /* \"contracts/ENS6.sol\":7271:7282  domainBytes */\n      dup3\n        /* \"contracts/ENS6.sol\":7271:7289  domainBytes.length */\n      mload\n        /* \"contracts/ENS6.sol\":7271:7300  domainBytes.length - position */\n      tag_236\n      swap2\n      swap1\n      tag_111\n      jump\t// in\n    tag_236:\n        /* \"contracts/ENS6.sol\":7261:7301  new bytes(domainBytes.length - position) */\n      0xffffffffffffffff\n      dup2\n      gt\n      iszero\n      tag_237\n      jumpi\n      tag_238\n      tag_239\n      jump\t// in\n    tag_238:\n    tag_237:\n      mload(0x40)\n      swap1\n      dup1\n      dup3\n      mstore\n      dup1\n      0x1f\n      add\n      not(0x1f)\n      and\n      0x20\n      add\n      dup3\n      add\n      0x40\n      mstore\n      dup1\n      iszero\n      tag_240\n      jumpi\n      dup2\n      0x20\n      add\n      0x01\n      dup3\n      mul\n      dup1\n      calldatasize\n      dup4\n      calldatacopy\n      dup1\n      dup3\n      add\n      swap2\n      pop\n      pop\n      swap1\n      pop\n    tag_240:\n      pop\n        /* \"contracts/ENS6.sol\":7239:7301  bytes memory result = new bytes(domainBytes.length - position) */\n      swap1\n      pop\n        /* \"contracts/ENS6.sol\":7316:7325  uint256 i */\n      0x00\n        /* \"contracts/ENS6.sol\":7328:7336  position */\n      dup5\n        /* \"contracts/ENS6.sol\":7316:7336  uint256 i = position */\n      swap1\n      pop\n        /* \"contracts/ENS6.sol\":7311:7429  for (uint256 i = position; i < domainBytes.length; i++) {... */\n    tag_241:\n        /* \"contracts/ENS6.sol\":7342:7353  domainBytes */\n      dup3\n        /* \"contracts/ENS6.sol\":7342:7360  domainBytes.length */\n      mload\n        /* \"contracts/ENS6.sol\":7338:7339  i */\n      dup2\n        /* \"contracts/ENS6.sol\":7338:7360  i < domainBytes.length */\n      lt\n        /* \"contracts/ENS6.sol\":7311:7429  for (uint256 i = position; i < domainBytes.length; i++) {... */\n      iszero\n      tag_242\n      jumpi\n        /* \"contracts/ENS6.sol\":7404:7415  domainBytes */\n      dup3\n        /* \"contracts/ENS6.sol\":7416:7417  i */\n      dup2\n        /* \"contracts/ENS6.sol\":7404:7418  domainBytes[i] */\n      dup2\n      mload\n      dup2\n      lt\n      tag_244\n      jumpi\n      tag_245\n      tag_229\n      jump\t// in\n    tag_245:\n    tag_244:\n      0x20\n      add\n      add\n      mload\n      0xf8\n      shr\n      0xf8\n      shl\n        /* \"contracts/ENS6.sol\":7381:7387  result */\n      dup3\n        /* \"contracts/ENS6.sol\":7392:7400  position */\n      dup7\n        /* \"contracts/ENS6.sol\":7388:7389  i */\n      dup4\n        /* \"contracts/ENS6.sol\":7388:7400  i - position */\n      tag_246\n      swap2\n      swap1\n      tag_111\n      jump\t// in\n    tag_246:\n        /* \"contracts/ENS6.sol\":7381:7401  result[i - position] */\n      dup2\n      mload\n      dup2\n      lt\n      tag_247\n      jumpi\n      tag_248\n      tag_229\n      jump\t// in\n    tag_248:\n    tag_247:\n      0x20\n      add\n      add\n        /* \"contracts/ENS6.sol\":7381:7418  result[i - position] = domainBytes[i] */\n      swap1\n      not(0xffffffffffffffffffffffffffffffffffffffffffffffffffffffffffffff)\n      and\n      swap1\n      dup2\n      0x00\n      byte\n      swap1\n      mstore8\n      pop\n        /* \"contracts/ENS6.sol\":7362:7365  i++ */\n      dup1\n      dup1\n      tag_249\n      swap1\n      tag_250\n      jump\t// in\n    tag_249:\n      swap2\n      pop\n      pop\n        /* \"contracts/ENS6.sol\":7311:7429  for (uint256 i = position; i < domainBytes.length; i++) {... */\n      jump(tag_241)\n    tag_242:\n      pop\n        /* \"contracts/ENS6.sol\":7452:7458  result */\n      dup1\n        /* \"contracts/ENS6.sol\":7438:7459  return string(result) */\n      swap3\n      pop\n      pop\n      pop\n        /* \"contracts/ENS6.sol\":7041:7466  function _extractSuffix(string memory domainName, uint256 position)... */\n      swap3\n      swap2\n      pop\n      pop\n      jump\t// out\n        /* \"contracts/ENS6.sol\":6108:6665  function _removeDomainFromOwner(... */\n    tag_158:\n        /* \"contracts/ENS6.sol\":6228:6257  string[] storage ownerDomains */\n      0x00\n        /* \"contracts/ENS6.sol\":6260:6276  addressToDomains */\n      0x04\n        /* \"contracts/ENS6.sol\":6260:6289  addressToDomains[domainOwner] */\n      0x00\n        /* \"contracts/ENS6.sol\":6277:6288  domainOwner */\n      dup5\n        /* \"contracts/ENS6.sol\":6260:6289  addressToDomains[domainOwner] */\n      0xffffffffffffffffffffffffffffffffffffffff\n      and\n      0xffffffffffffffffffffffffffffffffffffffff\n      and\n      dup2\n      mstore\n      0x20\n      add\n      swap1\n      dup2\n      mstore\n      0x20\n      add\n      0x00\n      keccak256\n        /* \"contracts/ENS6.sol\":6228:6289  string[] storage ownerDomains = addressToDomains[domainOwner] */\n      swap1\n      pop\n        /* \"contracts/ENS6.sol\":6304:6313  uint256 i */\n      0x00\n        /* \"contracts/ENS6.sol\":6299:6659  for (uint256 i = 0; i < ownerDomains.length; i++) {... */\n    tag_252:\n        /* \"contracts/ENS6.sol\":6323:6335  ownerDomains */\n      dup2\n        /* \"contracts/ENS6.sol\":6323:6342  ownerDomains.length */\n      dup1\n      sload\n      swap1\n      pop\n        /* \"contracts/ENS6.sol\":6319:6320  i */\n      dup2\n        /* \"contracts/ENS6.sol\":6319:6342  i < ownerDomains.length */\n      lt\n        /* \"contracts/ENS6.sol\":6299:6659  for (uint256 i = 0; i < ownerDomains.length; i++) {... */\n      iszero\n      tag_253\n      jumpi\n        /* \"contracts/ENS6.sol\":6475:6485  domainName */\n      dup3\n        /* \"contracts/ENS6.sol\":6458:6486  abi.encodePacked(domainName) */\n      add(0x20, mload(0x40))\n      tag_255\n      swap2\n      swap1\n      tag_86\n      jump\t// in\n    tag_255:\n      mload(0x40)\n      0x20\n      dup2\n      dup4\n      sub\n      sub\n      dup2\n      mstore\n      swap1\n      0x40\n      mstore\n        /* \"contracts/ENS6.sol\":6448:6487  keccak256(abi.encodePacked(domainName)) */\n      dup1\n      mload\n      swap1\n      0x20\n      add\n      keccak256\n        /* \"contracts/ENS6.sol\":6411:6423  ownerDomains */\n      dup3\n        /* \"contracts/ENS6.sol\":6424:6425  i */\n      dup3\n        /* \"contracts/ENS6.sol\":6411:6426  ownerDomains[i] */\n      dup2\n      sload\n      dup2\n      lt\n      tag_256\n      jumpi\n      tag_257\n      tag_229\n      jump\t// in\n    tag_257:\n    tag_256:\n      swap1\n      0x00\n      mstore\n      keccak256(0x00, 0x20)\n      add\n        /* \"contracts/ENS6.sol\":6394:6427  abi.encodePacked(ownerDomains[i]) */\n      add(0x20, mload(0x40))\n      tag_259\n      swap2\n      swap1\n      tag_260\n      jump\t// in\n    tag_259:\n      mload(0x40)\n      0x20\n      dup2\n      dup4\n      sub\n      sub\n      dup2\n      mstore\n      swap1\n      0x40\n      mstore\n        /* \"contracts/ENS6.sol\":6384:6428  keccak256(abi.encodePacked(ownerDomains[i])) */\n      dup1\n      mload\n      swap1\n      0x20\n      add\n      keccak256\n        /* \"contracts/ENS6.sol\":6384:6487  keccak256(abi.encodePacked(ownerDomains[i])) ==... */\n      sub\n        /* \"contracts/ENS6.sol\":6363:6649  if (... */\n      tag_261\n      jumpi\n        /* \"contracts/ENS6.sol\":6538:6550  ownerDomains */\n      dup2\n        /* \"contracts/ENS6.sol\":6573:6574  1 */\n      0x01\n        /* \"contracts/ENS6.sol\":6551:6563  ownerDomains */\n      dup4\n        /* \"contracts/ENS6.sol\":6551:6570  ownerDomains.length */\n      dup1\n      sload\n      swap1\n      pop\n        /* \"contracts/ENS6.sol\":6551:6574  ownerDomains.length - 1 */\n      tag_262\n      swap2\n      swap1\n      tag_111\n      jump\t// in\n    tag_262:\n        /* \"contracts/ENS6.sol\":6538:6575  ownerDomains[ownerDomains.length - 1] */\n      dup2\n      sload\n      dup2\n      lt\n      tag_263\n      jumpi\n      tag_264\n      tag_229\n      jump\t// in\n    tag_264:\n    tag_263:\n      swap1\n      0x00\n      mstore\n      keccak256(0x00, 0x20)\n      add\n        /* \"contracts/ENS6.sol\":6520:6532  ownerDomains */\n      dup3\n        /* \"contracts/ENS6.sol\":6533:6534  i */\n      dup3\n        /* \"contracts/ENS6.sol\":6520:6535  ownerDomains[i] */\n      dup2\n      sload\n      dup2\n      lt\n      tag_266\n      jumpi\n      tag_267\n      tag_229\n      jump\t// in\n    tag_267:\n    tag_266:\n      swap1\n      0x00\n      mstore\n      keccak256(0x00, 0x20)\n      add\n        /* \"contracts/ENS6.sol\":6520:6575  ownerDomains[i] = ownerDomains[ownerDomains.length - 1] */\n      swap1\n      dup2\n      tag_269\n      swap2\n      swap1\n      tag_270\n      jump\t// in\n    tag_269:\n      pop\n        /* \"contracts/ENS6.sol\":6593:6605  ownerDomains */\n      dup2\n        /* \"contracts/ENS6.sol\":6593:6611  ownerDomains.pop() */\n      dup1\n      sload\n      dup1\n      tag_271\n      jumpi\n      tag_272\n      tag_273\n      jump\t// in\n    tag_272:\n    tag_271:\n      0x01\n      swap1\n      sub\n      dup2\n      dup2\n      swap1\n      0x00\n      mstore\n      keccak256(0x00, 0x20)\n      add\n      0x00\n      tag_275\n      swap2\n      swap1\n      tag_276\n      jump\t// in\n    tag_275:\n      swap1\n      sstore\n        /* \"contracts/ENS6.sol\":6629:6634  break */\n      jump(tag_253)\n        /* \"contracts/ENS6.sol\":6363:6649  if (... */\n    tag_261:\n        /* \"contracts/ENS6.sol\":6344:6347  i++ */\n      dup1\n      dup1\n      tag_277\n      swap1\n      tag_250\n      jump\t// in\n    tag_277:\n      swap2\n      pop\n      pop\n        /* \"contracts/ENS6.sol\":6299:6659  for (uint256 i = 0; i < ownerDomains.length; i++) {... */\n      jump(tag_252)\n    tag_253:\n      pop\n        /* \"contracts/ENS6.sol\":6218:6665  {... */\n      pop\n        /* \"contracts/ENS6.sol\":6108:6665  function _removeDomainFromOwner(... */\n      pop\n      pop\n      jump\t// out\n        /* \"contracts/ENS6.sol\":1511:2005  function toLowerCase(string memory str)... */\n    tag_179:\n        /* \"contracts/ENS6.sol\":1598:1611  string memory */\n      0x60\n        /* \"contracts/ENS6.sol\":1627:1644  bytes memory bStr */\n      0x00\n        /* \"contracts/ENS6.sol\":1653:1656  str */\n      dup3\n        /* \"contracts/ENS6.sol\":1627:1657  bytes memory bStr = bytes(str) */\n      swap1\n      pop\n        /* \"contracts/ENS6.sol\":1667:1686  bytes memory bLower */\n      0x00\n        /* \"contracts/ENS6.sol\":1699:1703  bStr */\n      dup2\n        /* \"contracts/ENS6.sol\":1699:1710  bStr.length */\n      mload\n        /* \"contracts/ENS6.sol\":1689:1711  new bytes(bStr.length) */\n      0xffffffffffffffff\n      dup2\n      gt\n      iszero\n      tag_279\n      jumpi\n      tag_280\n      tag_239\n      jump\t// in\n    tag_280:\n    tag_279:\n      mload(0x40)\n      swap1\n      dup1\n      dup3\n      mstore\n      dup1\n      0x1f\n      add\n      not(0x1f)\n      and\n      0x20\n      add\n      dup3\n      add\n      0x40\n      mstore\n      dup1\n      iszero\n      tag_281\n      jumpi\n      dup2\n      0x20\n      add\n      0x01\n      dup3\n      mul\n      dup1\n      calldatasize\n      dup4\n      calldatacopy\n      dup1\n      dup3\n      add\n      swap2\n      pop\n      pop\n      swap1\n      pop\n    tag_281:\n      pop\n        /* \"contracts/ENS6.sol\":1667:1711  bytes memory bLower = new bytes(bStr.length) */\n      swap1\n      pop\n        /* \"contracts/ENS6.sol\":1727:1736  uint256 i */\n      0x00\n        /* \"contracts/ENS6.sol\":1722:1968  for (uint256 i = 0; i < bStr.length; i++) {... */\n    tag_282:\n        /* \"contracts/ENS6.sol\":1746:1750  bStr */\n      dup3\n        /* \"contracts/ENS6.sol\":1746:1757  bStr.length */\n      mload\n        /* \"contracts/ENS6.sol\":1742:1743  i */\n      dup2\n        /* \"contracts/ENS6.sol\":1742:1757  i < bStr.length */\n      lt\n        /* \"contracts/ENS6.sol\":1722:1968  for (uint256 i = 0; i < bStr.length; i++) {... */\n      iszero\n      tag_283\n      jumpi\n        /* \"contracts/ENS6.sol\":1800:1802  65 */\n      0x41\n        /* \"contracts/ENS6.sol\":1788:1792  bStr */\n      dup4\n        /* \"contracts/ENS6.sol\":1793:1794  i */\n      dup3\n        /* \"contracts/ENS6.sol\":1788:1795  bStr[i] */\n      dup2\n      mload\n      dup2\n      lt\n      tag_285\n      jumpi\n      tag_286\n      tag_229\n      jump\t// in\n    tag_286:\n    tag_285:\n      0x20\n      add\n      add\n      mload\n      0xf8\n      shr\n      0xf8\n      shl\n        /* \"contracts/ENS6.sol\":1782:1796  uint8(bStr[i]) */\n      0xf8\n      shr\n        /* \"contracts/ENS6.sol\":1782:1802  uint8(bStr[i]) >= 65 */\n      0xff\n      and\n      lt\n      iszero\n        /* \"contracts/ENS6.sol\":1782:1826  uint8(bStr[i]) >= 65 && uint8(bStr[i]) <= 90 */\n      dup1\n      iszero\n      tag_287\n      jumpi\n      pop\n        /* \"contracts/ENS6.sol\":1824:1826  90 */\n      0x5a\n        /* \"contracts/ENS6.sol\":1812:1816  bStr */\n      dup4\n        /* \"contracts/ENS6.sol\":1817:1818  i */\n      dup3\n        /* \"contracts/ENS6.sol\":1812:1819  bStr[i] */\n      dup2\n      mload\n      dup2\n      lt\n      tag_288\n      jumpi\n      tag_289\n      tag_229\n      jump\t// in\n    tag_289:\n    tag_288:\n      0x20\n      add\n      add\n      mload\n      0xf8\n      shr\n      0xf8\n      shl\n        /* \"contracts/ENS6.sol\":1806:1820  uint8(bStr[i]) */\n      0xf8\n      shr\n        /* \"contracts/ENS6.sol\":1806:1826  uint8(bStr[i]) <= 90 */\n      0xff\n      and\n      gt\n      iszero\n        /* \"contracts/ENS6.sol\":1782:1826  uint8(bStr[i]) >= 65 && uint8(bStr[i]) <= 90 */\n    tag_287:\n        /* \"contracts/ENS6.sol\":1778:1958  if (uint8(bStr[i]) >= 65 && uint8(bStr[i]) <= 90) {... */\n      iszero\n      tag_290\n      jumpi\n        /* \"contracts/ENS6.sol\":1882:1884  32 */\n      0x20\n        /* \"contracts/ENS6.sol\":1871:1875  bStr */\n      dup4\n        /* \"contracts/ENS6.sol\":1876:1877  i */\n      dup3\n        /* \"contracts/ENS6.sol\":1871:1878  bStr[i] */\n      dup2\n      mload\n      dup2\n      lt\n      tag_291\n      jumpi\n      tag_292\n      tag_229\n      jump\t// in\n    tag_292:\n    tag_291:\n      0x20\n      add\n      add\n      mload\n      0xf8\n      shr\n      0xf8\n      shl\n        /* \"contracts/ENS6.sol\":1865:1879  uint8(bStr[i]) */\n      0xf8\n      shr\n        /* \"contracts/ENS6.sol\":1865:1884  uint8(bStr[i]) + 32 */\n      tag_293\n      swap2\n      swap1\n      tag_294\n      jump\t// in\n    tag_293:\n        /* \"contracts/ENS6.sol\":1858:1885  bytes1(uint8(bStr[i]) + 32) */\n      0xf8\n      shl\n        /* \"contracts/ENS6.sol\":1846:1852  bLower */\n      dup3\n        /* \"contracts/ENS6.sol\":1853:1854  i */\n      dup3\n        /* \"contracts/ENS6.sol\":1846:1855  bLower[i] */\n      dup2\n      mload\n      dup2\n      lt\n      tag_295\n      jumpi\n      tag_296\n      tag_229\n      jump\t// in\n    tag_296:\n    tag_295:\n      0x20\n      add\n      add\n        /* \"contracts/ENS6.sol\":1846:1885  bLower[i] = bytes1(uint8(bStr[i]) + 32) */\n      swap1\n      not(0xffffffffffffffffffffffffffffffffffffffffffffffffffffffffffffff)\n      and\n      swap1\n      dup2\n      0x00\n      byte\n      swap1\n      mstore8\n      pop\n        /* \"contracts/ENS6.sol\":1778:1958  if (uint8(bStr[i]) >= 65 && uint8(bStr[i]) <= 90) {... */\n      jump(tag_297)\n    tag_290:\n        /* \"contracts/ENS6.sol\":1936:1940  bStr */\n      dup3\n        /* \"contracts/ENS6.sol\":1941:1942  i */\n      dup2\n        /* \"contracts/ENS6.sol\":1936:1943  bStr[i] */\n      dup2\n      mload\n      dup2\n      lt\n      tag_298\n      jumpi\n      tag_299\n      tag_229\n      jump\t// in\n    tag_299:\n    tag_298:\n      0x20\n      add\n      add\n      mload\n      0xf8\n      shr\n      0xf8\n      shl\n        /* \"contracts/ENS6.sol\":1924:1930  bLower */\n      dup3\n        /* \"contracts/ENS6.sol\":1931:1932  i */\n      dup3\n        /* \"contracts/ENS6.sol\":1924:1933  bLower[i] */\n      dup2\n      mload\n      dup2\n      lt\n      tag_300\n      jumpi\n      tag_301\n      tag_229\n      jump\t// in\n    tag_301:\n    tag_300:\n      0x20\n      add\n      add\n        /* \"contracts/ENS6.sol\":1924:1943  bLower[i] = bStr[i] */\n      swap1\n      not(0xffffffffffffffffffffffffffffffffffffffffffffffffffffffffffffff)\n      and\n      swap1\n      dup2\n      0x00\n      byte\n      swap1\n      mstore8\n      pop\n        /* \"contracts/ENS6.sol\":1778:1958  if (uint8(bStr[i]) >= 65 && uint8(bStr[i]) <= 90) {... */\n    tag_297:\n        /* \"contracts/ENS6.sol\":1759:1762  i++ */\n      dup1\n      dup1\n      tag_302\n      swap1\n      tag_250\n      jump\t// in\n    tag_302:\n      swap2\n      pop\n      pop\n        /* \"contracts/ENS6.sol\":1722:1968  for (uint256 i = 0; i < bStr.length; i++) {... */\n      jump(tag_282)\n    tag_283:\n      pop\n        /* \"contracts/ENS6.sol\":1991:1997  bLower */\n      dup1\n        /* \"contracts/ENS6.sol\":1977:1998  return string(bLower) */\n      swap3\n      pop\n      pop\n      pop\n        /* \"contracts/ENS6.sol\":1511:2005  function toLowerCase(string memory str)... */\n      swap2\n      swap1\n      pop\n      jump\t// out\n    tag_276:\n      pop\n      dup1\n      sload\n      tag_303\n      swap1\n      tag_217\n      jump\t// in\n    tag_303:\n      0x00\n      dup3\n      sstore\n      dup1\n      0x1f\n      lt\n      tag_305\n      jumpi\n      pop\n      jump(tag_304)\n    tag_305:\n      0x1f\n      add\n      0x20\n      swap1\n      div\n      swap1\n      0x00\n      mstore\n      keccak256(0x00, 0x20)\n      swap1\n      dup2\n      add\n      swap1\n      tag_306\n      swap2\n      swap1\n      tag_307\n      jump\t// in\n    tag_306:\n    tag_304:\n      pop\n      jump\t// out\n    tag_307:\n    tag_308:\n      dup1\n      dup3\n      gt\n      iszero\n      tag_309\n      jumpi\n      0x00\n      dup2\n      0x00\n      swap1\n      sstore\n      pop\n      0x01\n      add\n      jump(tag_308)\n    tag_309:\n      pop\n      swap1\n      jump\t// out\n        /* \"#utility.yul\":7:82   */\n    tag_310:\n        /* \"#utility.yul\":40:46   */\n      0x00\n        /* \"#utility.yul\":73:75   */\n      0x40\n        /* \"#utility.yul\":67:76   */\n      mload\n        /* \"#utility.yul\":57:76   */\n      swap1\n      pop\n        /* \"#utility.yul\":7:82   */\n      swap1\n      jump\t// out\n        /* \"#utility.yul\":88:205   */\n    tag_311:\n        /* \"#utility.yul\":197:198   */\n      0x00\n        /* \"#utility.yul\":194:195   */\n      dup1\n        /* \"#utility.yul\":187:199   */\n      revert\n        /* \"#utility.yul\":211:328   */\n    tag_312:\n        /* \"#utility.yul\":320:321   */\n      0x00\n        /* \"#utility.yul\":317:318   */\n      dup1\n        /* \"#utility.yul\":310:322   */\n      revert\n        /* \"#utility.yul\":334:451   */\n    tag_313:\n        /* \"#utility.yul\":443:444   */\n      0x00\n        /* \"#utility.yul\":440:441   */\n      dup1\n        /* \"#utility.yul\":433:445   */\n      revert\n        /* \"#utility.yul\":457:574   */\n    tag_314:\n        /* \"#utility.yul\":566:567   */\n      0x00\n        /* \"#utility.yul\":563:564   */\n      dup1\n        /* \"#utility.yul\":556:568   */\n      revert\n        /* \"#utility.yul\":580:682   */\n    tag_315:\n        /* \"#utility.yul\":621:627   */\n      0x00\n        /* \"#utility.yul\":672:674   */\n      0x1f\n        /* \"#utility.yul\":668:675   */\n      not\n        /* \"#utility.yul\":663:665   */\n      0x1f\n        /* \"#utility.yul\":656:661   */\n      dup4\n        /* \"#utility.yul\":652:666   */\n      add\n        /* \"#utility.yul\":648:676   */\n      and\n        /* \"#utility.yul\":638:676   */\n      swap1\n      pop\n        /* \"#utility.yul\":580:682   */\n      swap2\n      swap1\n      pop\n      jump\t// out\n        /* \"#utility.yul\":688:868   */\n    tag_239:\n        /* \"#utility.yul\":736:813   */\n      0x4e487b7100000000000000000000000000000000000000000000000000000000\n        /* \"#utility.yul\":733:734   */\n      0x00\n        /* \"#utility.yul\":726:814   */\n      mstore\n        /* \"#utility.yul\":833:837   */\n      0x41\n        /* \"#utility.yul\":830:831   */\n      0x04\n        /* \"#utility.yul\":823:838   */\n      mstore\n        /* \"#utility.yul\":857:861   */\n      0x24\n        /* \"#utility.yul\":854:855   */\n      0x00\n        /* \"#utility.yul\":847:862   */\n      revert\n        /* \"#utility.yul\":874:1155   */\n    tag_316:\n        /* \"#utility.yul\":957:984   */\n      tag_403\n        /* \"#utility.yul\":979:983   */\n      dup3\n        /* \"#utility.yul\":957:984   */\n      tag_315\n      jump\t// in\n    tag_403:\n        /* \"#utility.yul\":949:955   */\n      dup2\n        /* \"#utility.yul\":945:985   */\n      add\n        /* \"#utility.yul\":1087:1093   */\n      dup2\n        /* \"#utility.yul\":1075:1085   */\n      dup2\n        /* \"#utility.yul\":1072:1094   */\n      lt\n        /* \"#utility.yul\":1051:1069   */\n      0xffffffffffffffff\n        /* \"#utility.yul\":1039:1049   */\n      dup3\n        /* \"#utility.yul\":1036:1070   */\n      gt\n        /* \"#utility.yul\":1033:1095   */\n      or\n        /* \"#utility.yul\":1030:1118   */\n      iszero\n      tag_404\n      jumpi\n        /* \"#utility.yul\":1098:1116   */\n      tag_405\n      tag_239\n      jump\t// in\n    tag_405:\n        /* \"#utility.yul\":1030:1118   */\n    tag_404:\n        /* \"#utility.yul\":1138:1148   */\n      dup1\n        /* \"#utility.yul\":1134:1136   */\n      0x40\n        /* \"#utility.yul\":1127:1149   */\n      mstore\n        /* \"#utility.yul\":917:1155   */\n      pop\n        /* \"#utility.yul\":874:1155   */\n      pop\n      pop\n      jump\t// out\n        /* \"#utility.yul\":1161:1290   */\n    tag_317:\n        /* \"#utility.yul\":1195:1201   */\n      0x00\n        /* \"#utility.yul\":1222:1242   */\n      tag_407\n      tag_310\n      jump\t// in\n    tag_407:\n        /* \"#utility.yul\":1212:1242   */\n      swap1\n      pop\n        /* \"#utility.yul\":1251:1284   */\n      tag_408\n        /* \"#utility.yul\":1279:1283   */\n      dup3\n        /* \"#utility.yul\":1271:1277   */\n      dup3\n        /* \"#utility.yul\":1251:1284   */\n      tag_316\n      jump\t// in\n    tag_408:\n        /* \"#utility.yul\":1161:1290   */\n      swap2\n      swap1\n      pop\n      jump\t// out\n        /* \"#utility.yul\":1296:1604   */\n    tag_318:\n        /* \"#utility.yul\":1358:1362   */\n      0x00\n        /* \"#utility.yul\":1448:1466   */\n      0xffffffffffffffff\n        /* \"#utility.yul\":1440:1446   */\n      dup3\n        /* \"#utility.yul\":1437:1467   */\n      gt\n        /* \"#utility.yul\":1434:1490   */\n      iszero\n      tag_410\n      jumpi\n        /* \"#utility.yul\":1470:1488   */\n      tag_411\n      tag_239\n      jump\t// in\n    tag_411:\n        /* \"#utility.yul\":1434:1490   */\n    tag_410:\n        /* \"#utility.yul\":1508:1537   */\n      tag_412\n        /* \"#utility.yul\":1530:1536   */\n      dup3\n        /* \"#utility.yul\":1508:1537   */\n      tag_315\n      jump\t// in\n    tag_412:\n        /* \"#utility.yul\":1500:1537   */\n      swap1\n      pop\n        /* \"#utility.yul\":1592:1596   */\n      0x20\n        /* \"#utility.yul\":1586:1590   */\n      dup2\n        /* \"#utility.yul\":1582:1597   */\n      add\n        /* \"#utility.yul\":1574:1597   */\n      swap1\n      pop\n        /* \"#utility.yul\":1296:1604   */\n      swap2\n      swap1\n      pop\n      jump\t// out\n        /* \"#utility.yul\":1610:1756   */\n    tag_319:\n        /* \"#utility.yul\":1707:1713   */\n      dup3\n        /* \"#utility.yul\":1702:1705   */\n      dup2\n        /* \"#utility.yul\":1697:1700   */\n      dup4\n        /* \"#utility.yul\":1684:1714   */\n      calldatacopy\n        /* \"#utility.yul\":1748:1749   */\n      0x00\n        /* \"#utility.yul\":1739:1745   */\n      dup4\n        /* \"#utility.yul\":1734:1737   */\n      dup4\n        /* \"#utility.yul\":1730:1746   */\n      add\n        /* \"#utility.yul\":1723:1750   */\n      mstore\n        /* \"#utility.yul\":1610:1756   */\n      pop\n      pop\n      pop\n      jump\t// out\n        /* \"#utility.yul\":1762:2187   */\n    tag_320:\n        /* \"#utility.yul\":1840:1845   */\n      0x00\n        /* \"#utility.yul\":1865:1931   */\n      tag_415\n        /* \"#utility.yul\":1881:1930   */\n      tag_416\n        /* \"#utility.yul\":1923:1929   */\n      dup5\n        /* \"#utility.yul\":1881:1930   */\n      tag_318\n      jump\t// in\n    tag_416:\n        /* \"#utility.yul\":1865:1931   */\n      tag_317\n      jump\t// in\n    tag_415:\n        /* \"#utility.yul\":1856:1931   */\n      swap1\n      pop\n        /* \"#utility.yul\":1954:1960   */\n      dup3\n        /* \"#utility.yul\":1947:1952   */\n      dup2\n        /* \"#utility.yul\":1940:1961   */\n      mstore\n        /* \"#utility.yul\":1992:1996   */\n      0x20\n        /* \"#utility.yul\":1985:1990   */\n      dup2\n        /* \"#utility.yul\":1981:1997   */\n      add\n        /* \"#utility.yul\":2030:2033   */\n      dup5\n        /* \"#utility.yul\":2021:2027   */\n      dup5\n        /* \"#utility.yul\":2016:2019   */\n      dup5\n        /* \"#utility.yul\":2012:2028   */\n      add\n        /* \"#utility.yul\":2009:2034   */\n      gt\n        /* \"#utility.yul\":2006:2118   */\n      iszero\n      tag_417\n      jumpi\n        /* \"#utility.yul\":2037:2116   */\n      tag_418\n      tag_314\n      jump\t// in\n    tag_418:\n        /* \"#utility.yul\":2006:2118   */\n    tag_417:\n        /* \"#utility.yul\":2127:2181   */\n      tag_419\n        /* \"#utility.yul\":2174:2180   */\n      dup5\n        /* \"#utility.yul\":2169:2172   */\n      dup3\n        /* \"#utility.yul\":2164:2167   */\n      dup6\n        /* \"#utility.yul\":2127:2181   */\n      tag_319\n      jump\t// in\n    tag_419:\n        /* \"#utility.yul\":1846:2187   */\n      pop\n        /* \"#utility.yul\":1762:2187   */\n      swap4\n      swap3\n      pop\n      pop\n      pop\n      jump\t// out\n        /* \"#utility.yul\":2207:2547   */\n    tag_321:\n        /* \"#utility.yul\":2263:2268   */\n      0x00\n        /* \"#utility.yul\":2312:2315   */\n      dup3\n        /* \"#utility.yul\":2305:2309   */\n      0x1f\n        /* \"#utility.yul\":2297:2303   */\n      dup4\n        /* \"#utility.yul\":2293:2310   */\n      add\n        /* \"#utility.yul\":2289:2316   */\n      slt\n        /* \"#utility.yul\":2279:2401   */\n      tag_421\n      jumpi\n        /* \"#utility.yul\":2320:2399   */\n      tag_422\n      tag_313\n      jump\t// in\n    tag_422:\n        /* \"#utility.yul\":2279:2401   */\n    tag_421:\n        /* \"#utility.yul\":2437:2443   */\n      dup2\n        /* \"#utility.yul\":2424:2444   */\n      calldataload\n        /* \"#utility.yul\":2462:2541   */\n      tag_423\n        /* \"#utility.yul\":2537:2540   */\n      dup5\n        /* \"#utility.yul\":2529:2535   */\n      dup3\n        /* \"#utility.yul\":2522:2526   */\n      0x20\n        /* \"#utility.yul\":2514:2520   */\n      dup7\n        /* \"#utility.yul\":2510:2527   */\n      add\n        /* \"#utility.yul\":2462:2541   */\n      tag_320\n      jump\t// in\n    tag_423:\n        /* \"#utility.yul\":2453:2541   */\n      swap2\n      pop\n        /* \"#utility.yul\":2269:2547   */\n      pop\n        /* \"#utility.yul\":2207:2547   */\n      swap3\n      swap2\n      pop\n      pop\n      jump\t// out\n        /* \"#utility.yul\":2553:3062   */\n    tag_20:\n        /* \"#utility.yul\":2622:2628   */\n      0x00\n        /* \"#utility.yul\":2671:2673   */\n      0x20\n        /* \"#utility.yul\":2659:2668   */\n      dup3\n        /* \"#utility.yul\":2650:2657   */\n      dup5\n        /* \"#utility.yul\":2646:2669   */\n      sub\n        /* \"#utility.yul\":2642:2674   */\n      slt\n        /* \"#utility.yul\":2639:2758   */\n      iszero\n      tag_425\n      jumpi\n        /* \"#utility.yul\":2677:2756   */\n      tag_426\n      tag_311\n      jump\t// in\n    tag_426:\n        /* \"#utility.yul\":2639:2758   */\n    tag_425:\n        /* \"#utility.yul\":2825:2826   */\n      0x00\n        /* \"#utility.yul\":2814:2823   */\n      dup3\n        /* \"#utility.yul\":2810:2827   */\n      add\n        /* \"#utility.yul\":2797:2828   */\n      calldataload\n        /* \"#utility.yul\":2855:2873   */\n      0xffffffffffffffff\n        /* \"#utility.yul\":2847:2853   */\n      dup2\n        /* \"#utility.yul\":2844:2874   */\n      gt\n        /* \"#utility.yul\":2841:2958   */\n      iszero\n      tag_427\n      jumpi\n        /* \"#utility.yul\":2877:2956   */\n      tag_428\n      tag_312\n      jump\t// in\n    tag_428:\n        /* \"#utility.yul\":2841:2958   */\n    tag_427:\n        /* \"#utility.yul\":2982:3045   */\n      tag_429\n        /* \"#utility.yul\":3037:3044   */\n      dup5\n        /* \"#utility.yul\":3028:3034   */\n      dup3\n        /* \"#utility.yul\":3017:3026   */\n      dup6\n        /* \"#utility.yul\":3013:3035   */\n      add\n        /* \"#utility.yul\":2982:3045   */\n      tag_321\n      jump\t// in\n    tag_429:\n        /* \"#utility.yul\":2972:3045   */\n      swap2\n      pop\n        /* \"#utility.yul\":2768:3055   */\n      pop\n        /* \"#utility.yul\":2553:3062   */\n      swap3\n      swap2\n      pop\n      pop\n      jump\t// out\n        /* \"#utility.yul\":3068:3145   */\n    tag_322:\n        /* \"#utility.yul\":3105:3112   */\n      0x00\n        /* \"#utility.yul\":3134:3139   */\n      dup2\n        /* \"#utility.yul\":3123:3139   */\n      swap1\n      pop\n        /* \"#utility.yul\":3068:3145   */\n      swap2\n      swap1\n      pop\n      jump\t// out\n        /* \"#utility.yul\":3151:3269   */\n    tag_323:\n        /* \"#utility.yul\":3238:3262   */\n      tag_432\n        /* \"#utility.yul\":3256:3261   */\n      dup2\n        /* \"#utility.yul\":3238:3262   */\n      tag_322\n      jump\t// in\n    tag_432:\n        /* \"#utility.yul\":3233:3236   */\n      dup3\n        /* \"#utility.yul\":3226:3263   */\n      mstore\n        /* \"#utility.yul\":3151:3269   */\n      pop\n      pop\n      jump\t// out\n        /* \"#utility.yul\":3275:3497   */\n    tag_23:\n        /* \"#utility.yul\":3368:3372   */\n      0x00\n        /* \"#utility.yul\":3406:3408   */\n      0x20\n        /* \"#utility.yul\":3395:3404   */\n      dup3\n        /* \"#utility.yul\":3391:3409   */\n      add\n        /* \"#utility.yul\":3383:3409   */\n      swap1\n      pop\n        /* \"#utility.yul\":3419:3490   */\n      tag_434\n        /* \"#utility.yul\":3487:3488   */\n      0x00\n        /* \"#utility.yul\":3476:3485   */\n      dup4\n        /* \"#utility.yul\":3472:3489   */\n      add\n        /* \"#utility.yul\":3463:3469   */\n      dup5\n        /* \"#utility.yul\":3419:3490   */\n      tag_323\n      jump\t// in\n    tag_434:\n        /* \"#utility.yul\":3275:3497   */\n      swap3\n      swap2\n      pop\n      pop\n      jump\t// out\n        /* \"#utility.yul\":3503:3620   */\n    tag_324:\n        /* \"#utility.yul\":3612:3613   */\n      0x00\n        /* \"#utility.yul\":3609:3610   */\n      dup1\n        /* \"#utility.yul\":3602:3614   */\n      revert\n        /* \"#utility.yul\":3626:3743   */\n    tag_325:\n        /* \"#utility.yul\":3735:3736   */\n      0x00\n        /* \"#utility.yul\":3732:3733   */\n      dup1\n        /* \"#utility.yul\":3725:3737   */\n      revert\n        /* \"#utility.yul\":3763:4316   */\n    tag_326:\n        /* \"#utility.yul\":3821:3829   */\n      0x00\n        /* \"#utility.yul\":3831:3837   */\n      dup1\n        /* \"#utility.yul\":3881:3884   */\n      dup4\n        /* \"#utility.yul\":3874:3878   */\n      0x1f\n        /* \"#utility.yul\":3866:3872   */\n      dup5\n        /* \"#utility.yul\":3862:3879   */\n      add\n        /* \"#utility.yul\":3858:3885   */\n      slt\n        /* \"#utility.yul\":3848:3970   */\n      tag_438\n      jumpi\n        /* \"#utility.yul\":3889:3968   */\n      tag_439\n      tag_313\n      jump\t// in\n    tag_439:\n        /* \"#utility.yul\":3848:3970   */\n    tag_438:\n        /* \"#utility.yul\":4002:4008   */\n      dup3\n        /* \"#utility.yul\":3989:4009   */\n      calldataload\n        /* \"#utility.yul\":3979:4009   */\n      swap1\n      pop\n        /* \"#utility.yul\":4032:4050   */\n      0xffffffffffffffff\n        /* \"#utility.yul\":4024:4030   */\n      dup2\n        /* \"#utility.yul\":4021:4051   */\n      gt\n        /* \"#utility.yul\":4018:4135   */\n      iszero\n      tag_440\n      jumpi\n        /* \"#utility.yul\":4054:4133   */\n      tag_441\n      tag_324\n      jump\t// in\n    tag_441:\n        /* \"#utility.yul\":4018:4135   */\n    tag_440:\n        /* \"#utility.yul\":4168:4172   */\n      0x20\n        /* \"#utility.yul\":4160:4166   */\n      dup4\n        /* \"#utility.yul\":4156:4173   */\n      add\n        /* \"#utility.yul\":4144:4173   */\n      swap2\n      pop\n        /* \"#utility.yul\":4222:4225   */\n      dup4\n        /* \"#utility.yul\":4214:4218   */\n      0x01\n        /* \"#utility.yul\":4206:4212   */\n      dup3\n        /* \"#utility.yul\":4202:4219   */\n      mul\n        /* \"#utility.yul\":4192:4200   */\n      dup4\n        /* \"#utility.yul\":4188:4220   */\n      add\n        /* \"#utility.yul\":4185:4226   */\n      gt\n        /* \"#utility.yul\":4182:4310   */\n      iszero\n      tag_442\n      jumpi\n        /* \"#utility.yul\":4229:4308   */\n      tag_443\n      tag_325\n      jump\t// in\n    tag_443:\n        /* \"#utility.yul\":4182:4310   */\n    tag_442:\n        /* \"#utility.yul\":3763:4316   */\n      swap3\n      pop\n      swap3\n      swap1\n      pop\n      jump\t// out\n        /* \"#utility.yul\":4322:4444   */\n    tag_327:\n        /* \"#utility.yul\":4395:4419   */\n      tag_445\n        /* \"#utility.yul\":4413:4418   */\n      dup2\n        /* \"#utility.yul\":4395:4419   */\n      tag_322\n      jump\t// in\n    tag_445:\n        /* \"#utility.yul\":4388:4393   */\n      dup2\n        /* \"#utility.yul\":4385:4420   */\n      eq\n        /* \"#utility.yul\":4375:4438   */\n      tag_446\n      jumpi\n        /* \"#utility.yul\":4434:4435   */\n      0x00\n        /* \"#utility.yul\":4431:4432   */\n      dup1\n        /* \"#utility.yul\":4424:4436   */\n      revert\n        /* \"#utility.yul\":4375:4438   */\n    tag_446:\n        /* \"#utility.yul\":4322:4444   */\n      pop\n      jump\t// out\n        /* \"#utility.yul\":4450:4589   */\n    tag_328:\n        /* \"#utility.yul\":4496:4501   */\n      0x00\n        /* \"#utility.yul\":4534:4540   */\n      dup2\n        /* \"#utility.yul\":4521:4541   */\n      calldataload\n        /* \"#utility.yul\":4512:4541   */\n      swap1\n      pop\n        /* \"#utility.yul\":4550:4583   */\n      tag_448\n        /* \"#utility.yul\":4577:4582   */\n      dup2\n        /* \"#utility.yul\":4550:4583   */\n      tag_327\n      jump\t// in\n    tag_448:\n        /* \"#utility.yul\":4450:4589   */\n      swap3\n      swap2\n      pop\n      pop\n      jump\t// out\n        /* \"#utility.yul\":4595:5269   */\n    tag_26:\n        /* \"#utility.yul\":4675:4681   */\n      0x00\n        /* \"#utility.yul\":4683:4689   */\n      dup1\n        /* \"#utility.yul\":4691:4697   */\n      0x00\n        /* \"#utility.yul\":4740:4742   */\n      0x40\n        /* \"#utility.yul\":4728:4737   */\n      dup5\n        /* \"#utility.yul\":4719:4726   */\n      dup7\n        /* \"#utility.yul\":4715:4738   */\n      sub\n        /* \"#utility.yul\":4711:4743   */\n      slt\n        /* \"#utility.yul\":4708:4827   */\n      iszero\n      tag_450\n      jumpi\n        /* \"#utility.yul\":4746:4825   */\n      tag_451\n      tag_311\n      jump\t// in\n    tag_451:\n        /* \"#utility.yul\":4708:4827   */\n    tag_450:\n        /* \"#utility.yul\":4894:4895   */\n      0x00\n        /* \"#utility.yul\":4883:4892   */\n      dup5\n        /* \"#utility.yul\":4879:4896   */\n      add\n        /* \"#utility.yul\":4866:4897   */\n      calldataload\n        /* \"#utility.yul\":4924:4942   */\n      0xffffffffffffffff\n        /* \"#utility.yul\":4916:4922   */\n      dup2\n        /* \"#utility.yul\":4913:4943   */\n      gt\n        /* \"#utility.yul\":4910:5027   */\n      iszero\n      tag_452\n      jumpi\n        /* \"#utility.yul\":4946:5025   */\n      tag_453\n      tag_312\n      jump\t// in\n    tag_453:\n        /* \"#utility.yul\":4910:5027   */\n    tag_452:\n        /* \"#utility.yul\":5059:5124   */\n      tag_454\n        /* \"#utility.yul\":5116:5123   */\n      dup7\n        /* \"#utility.yul\":5107:5113   */\n      dup3\n        /* \"#utility.yul\":5096:5105   */\n      dup8\n        /* \"#utility.yul\":5092:5114   */\n      add\n        /* \"#utility.yul\":5059:5124   */\n      tag_326\n      jump\t// in\n    tag_454:\n        /* \"#utility.yul\":5041:5124   */\n      swap4\n      pop\n      swap4\n      pop\n        /* \"#utility.yul\":4837:5134   */\n      pop\n        /* \"#utility.yul\":5173:5175   */\n      0x20\n        /* \"#utility.yul\":5199:5252   */\n      tag_455\n        /* \"#utility.yul\":5244:5251   */\n      dup7\n        /* \"#utility.yul\":5235:5241   */\n      dup3\n        /* \"#utility.yul\":5224:5233   */\n      dup8\n        /* \"#utility.yul\":5220:5242   */\n      add\n        /* \"#utility.yul\":5199:5252   */\n      tag_328\n      jump\t// in\n    tag_455:\n        /* \"#utility.yul\":5189:5252   */\n      swap2\n      pop\n        /* \"#utility.yul\":5144:5262   */\n      pop\n        /* \"#utility.yul\":4595:5269   */\n      swap3\n      pop\n      swap3\n      pop\n      swap3\n      jump\t// out\n        /* \"#utility.yul\":5275:5804   */\n    tag_31:\n        /* \"#utility.yul\":5346:5352   */\n      0x00\n        /* \"#utility.yul\":5354:5360   */\n      dup1\n        /* \"#utility.yul\":5403:5405   */\n      0x20\n        /* \"#utility.yul\":5391:5400   */\n      dup4\n        /* \"#utility.yul\":5382:5389   */\n      dup6\n        /* \"#utility.yul\":5378:5401   */\n      sub\n        /* \"#utility.yul\":5374:5406   */\n      slt\n        /* \"#utility.yul\":5371:5490   */\n      iszero\n      tag_457\n      jumpi\n        /* \"#utility.yul\":5409:5488   */\n      tag_458\n      tag_311\n      jump\t// in\n    tag_458:\n        /* \"#utility.yul\":5371:5490   */\n    tag_457:\n        /* \"#utility.yul\":5557:5558   */\n      0x00\n        /* \"#utility.yul\":5546:5555   */\n      dup4\n        /* \"#utility.yul\":5542:5559   */\n      add\n        /* \"#utility.yul\":5529:5560   */\n      calldataload\n        /* \"#utility.yul\":5587:5605   */\n      0xffffffffffffffff\n        /* \"#utility.yul\":5579:5585   */\n      dup2\n        /* \"#utility.yul\":5576:5606   */\n      gt\n        /* \"#utility.yul\":5573:5690   */\n      iszero\n      tag_459\n      jumpi\n        /* \"#utility.yul\":5609:5688   */\n      tag_460\n      tag_312\n      jump\t// in\n    tag_460:\n        /* \"#utility.yul\":5573:5690   */\n    tag_459:\n        /* \"#utility.yul\":5722:5787   */\n      tag_461\n        /* \"#utility.yul\":5779:5786   */\n      dup6\n        /* \"#utility.yul\":5770:5776   */\n      dup3\n        /* \"#utility.yul\":5759:5768   */\n      dup7\n        /* \"#utility.yul\":5755:5777   */\n      add\n        /* \"#utility.yul\":5722:5787   */\n      tag_326\n      jump\t// in\n    tag_461:\n        /* \"#utility.yul\":5704:5787   */\n      swap3\n      pop\n      swap3\n      pop\n        /* \"#utility.yul\":5500:5797   */\n      pop\n        /* \"#utility.yul\":5275:5804   */\n      swap3\n      pop\n      swap3\n      swap1\n      pop\n      jump\t// out\n        /* \"#utility.yul\":5810:5900   */\n    tag_329:\n        /* \"#utility.yul\":5844:5851   */\n      0x00\n        /* \"#utility.yul\":5887:5892   */\n      dup2\n        /* \"#utility.yul\":5880:5893   */\n      iszero\n        /* \"#utility.yul\":5873:5894   */\n      iszero\n        /* \"#utility.yul\":5862:5894   */\n      swap1\n      pop\n        /* \"#utility.yul\":5810:5900   */\n      swap2\n      swap1\n      pop\n      jump\t// out\n        /* \"#utility.yul\":5906:6015   */\n    tag_330:\n        /* \"#utility.yul\":5987:6008   */\n      tag_464\n        /* \"#utility.yul\":6002:6007   */\n      dup2\n        /* \"#utility.yul\":5987:6008   */\n      tag_329\n      jump\t// in\n    tag_464:\n        /* \"#utility.yul\":5982:5985   */\n      dup3\n        /* \"#utility.yul\":5975:6009   */\n      mstore\n        /* \"#utility.yul\":5906:6015   */\n      pop\n      pop\n      jump\t// out\n        /* \"#utility.yul\":6021:6231   */\n    tag_34:\n        /* \"#utility.yul\":6108:6112   */\n      0x00\n        /* \"#utility.yul\":6146:6148   */\n      0x20\n        /* \"#utility.yul\":6135:6144   */\n      dup3\n        /* \"#utility.yul\":6131:6149   */\n      add\n        /* \"#utility.yul\":6123:6149   */\n      swap1\n      pop\n        /* \"#utility.yul\":6159:6224   */\n      tag_466\n        /* \"#utility.yul\":6221:6222   */\n      0x00\n        /* \"#utility.yul\":6210:6219   */\n      dup4\n        /* \"#utility.yul\":6206:6223   */\n      add\n        /* \"#utility.yul\":6197:6203   */\n      dup5\n        /* \"#utility.yul\":6159:6224   */\n      tag_330\n      jump\t// in\n    tag_466:\n        /* \"#utility.yul\":6021:6231   */\n      swap3\n      swap2\n      pop\n      pop\n      jump\t// out\n        /* \"#utility.yul\":6237:6566   */\n    tag_42:\n        /* \"#utility.yul\":6296:6302   */\n      0x00\n        /* \"#utility.yul\":6345:6347   */\n      0x20\n        /* \"#utility.yul\":6333:6342   */\n      dup3\n        /* \"#utility.yul\":6324:6331   */\n      dup5\n        /* \"#utility.yul\":6320:6343   */\n      sub\n        /* \"#utility.yul\":6316:6348   */\n      slt\n        /* \"#utility.yul\":6313:6432   */\n      iszero\n      tag_468\n      jumpi\n        /* \"#utility.yul\":6351:6430   */\n      tag_469\n      tag_311\n      jump\t// in\n    tag_469:\n        /* \"#utility.yul\":6313:6432   */\n    tag_468:\n        /* \"#utility.yul\":6471:6472   */\n      0x00\n        /* \"#utility.yul\":6496:6549   */\n      tag_470\n        /* \"#utility.yul\":6541:6548   */\n      dup5\n        /* \"#utility.yul\":6532:6538   */\n      dup3\n        /* \"#utility.yul\":6521:6530   */\n      dup6\n        /* \"#utility.yul\":6517:6539   */\n      add\n        /* \"#utility.yul\":6496:6549   */\n      tag_328\n      jump\t// in\n    tag_470:\n        /* \"#utility.yul\":6486:6549   */\n      swap2\n      pop\n        /* \"#utility.yul\":6442:6559   */\n      pop\n        /* \"#utility.yul\":6237:6566   */\n      swap3\n      swap2\n      pop\n      pop\n      jump\t// out\n        /* \"#utility.yul\":6572:6698   */\n    tag_331:\n        /* \"#utility.yul\":6609:6616   */\n      0x00\n        /* \"#utility.yul\":6649:6691   */\n      0xffffffffffffffffffffffffffffffffffffffff\n        /* \"#utility.yul\":6642:6647   */\n      dup3\n        /* \"#utility.yul\":6638:6692   */\n      and\n        /* \"#utility.yul\":6627:6692   */\n      swap1\n      pop\n        /* \"#utility.yul\":6572:6698   */\n      swap2\n      swap1\n      pop\n      jump\t// out\n        /* \"#utility.yul\":6704:6800   */\n    tag_332:\n        /* \"#utility.yul\":6741:6748   */\n      0x00\n        /* \"#utility.yul\":6770:6794   */\n      tag_473\n        /* \"#utility.yul\":6788:6793   */\n      dup3\n        /* \"#utility.yul\":6770:6794   */\n      tag_331\n      jump\t// in\n    tag_473:\n        /* \"#utility.yul\":6759:6794   */\n      swap1\n      pop\n        /* \"#utility.yul\":6704:6800   */\n      swap2\n      swap1\n      pop\n      jump\t// out\n        /* \"#utility.yul\":6806:6924   */\n    tag_333:\n        /* \"#utility.yul\":6893:6917   */\n      tag_475\n        /* \"#utility.yul\":6911:6916   */\n      dup2\n        /* \"#utility.yul\":6893:6917   */\n      tag_332\n      jump\t// in\n    tag_475:\n        /* \"#utility.yul\":6888:6891   */\n      dup3\n        /* \"#utility.yul\":6881:6918   */\n      mstore\n        /* \"#utility.yul\":6806:6924   */\n      pop\n      pop\n      jump\t// out\n        /* \"#utility.yul\":6930:7372   */\n    tag_49:\n        /* \"#utility.yul\":7079:7083   */\n      0x00\n        /* \"#utility.yul\":7117:7119   */\n      0x60\n        /* \"#utility.yul\":7106:7115   */\n      dup3\n        /* \"#utility.yul\":7102:7120   */\n      add\n        /* \"#utility.yul\":7094:7120   */\n      swap1\n      pop\n        /* \"#utility.yul\":7130:7201   */\n      tag_477\n        /* \"#utility.yul\":7198:7199   */\n      0x00\n        /* \"#utility.yul\":7187:7196   */\n      dup4\n        /* \"#utility.yul\":7183:7200   */\n      add\n        /* \"#utility.yul\":7174:7180   */\n      dup7\n        /* \"#utility.yul\":7130:7201   */\n      tag_333\n      jump\t// in\n    tag_477:\n        /* \"#utility.yul\":7211:7283   */\n      tag_478\n        /* \"#utility.yul\":7279:7281   */\n      0x20\n        /* \"#utility.yul\":7268:7277   */\n      dup4\n        /* \"#utility.yul\":7264:7282   */\n      add\n        /* \"#utility.yul\":7255:7261   */\n      dup6\n        /* \"#utility.yul\":7211:7283   */\n      tag_333\n      jump\t// in\n    tag_478:\n        /* \"#utility.yul\":7293:7365   */\n      tag_479\n        /* \"#utility.yul\":7361:7363   */\n      0x40\n        /* \"#utility.yul\":7350:7359   */\n      dup4\n        /* \"#utility.yul\":7346:7364   */\n      add\n        /* \"#utility.yul\":7337:7343   */\n      dup5\n        /* \"#utility.yul\":7293:7365   */\n      tag_323\n      jump\t// in\n    tag_479:\n        /* \"#utility.yul\":6930:7372   */\n      swap5\n      swap4\n      pop\n      pop\n      pop\n      pop\n      jump\t// out\n        /* \"#utility.yul\":7378:7500   */\n    tag_334:\n        /* \"#utility.yul\":7451:7475   */\n      tag_481\n        /* \"#utility.yul\":7469:7474   */\n      dup2\n        /* \"#utility.yul\":7451:7475   */\n      tag_332\n      jump\t// in\n    tag_481:\n        /* \"#utility.yul\":7444:7449   */\n      dup2\n        /* \"#utility.yul\":7441:7476   */\n      eq\n        /* \"#utility.yul\":7431:7494   */\n      tag_482\n      jumpi\n        /* \"#utility.yul\":7490:7491   */\n      0x00\n        /* \"#utility.yul\":7487:7488   */\n      dup1\n        /* \"#utility.yul\":7480:7492   */\n      revert\n        /* \"#utility.yul\":7431:7494   */\n    tag_482:\n        /* \"#utility.yul\":7378:7500   */\n      pop\n      jump\t// out\n        /* \"#utility.yul\":7506:7645   */\n    tag_335:\n        /* \"#utility.yul\":7552:7557   */\n      0x00\n        /* \"#utility.yul\":7590:7596   */\n      dup2\n        /* \"#utility.yul\":7577:7597   */\n      calldataload\n        /* \"#utility.yul\":7568:7597   */\n      swap1\n      pop\n        /* \"#utility.yul\":7606:7639   */\n      tag_484\n        /* \"#utility.yul\":7633:7638   */\n      dup2\n        /* \"#utility.yul\":7606:7639   */\n      tag_334\n      jump\t// in\n    tag_484:\n        /* \"#utility.yul\":7506:7645   */\n      swap3\n      swap2\n      pop\n      pop\n      jump\t// out\n        /* \"#utility.yul\":7651:8325   */\n    tag_53:\n        /* \"#utility.yul\":7731:7737   */\n      0x00\n        /* \"#utility.yul\":7739:7745   */\n      dup1\n        /* \"#utility.yul\":7747:7753   */\n      0x00\n        /* \"#utility.yul\":7796:7798   */\n      0x40\n        /* \"#utility.yul\":7784:7793   */\n      dup5\n        /* \"#utility.yul\":7775:7782   */\n      dup7\n        /* \"#utility.yul\":7771:7794   */\n      sub\n        /* \"#utility.yul\":7767:7799   */\n      slt\n        /* \"#utility.yul\":7764:7883   */\n      iszero\n      tag_486\n      jumpi\n        /* \"#utility.yul\":7802:7881   */\n      tag_487\n      tag_311\n      jump\t// in\n    tag_487:\n        /* \"#utility.yul\":7764:7883   */\n    tag_486:\n        /* \"#utility.yul\":7950:7951   */\n      0x00\n        /* \"#utility.yul\":7939:7948   */\n      dup5\n        /* \"#utility.yul\":7935:7952   */\n      add\n        /* \"#utility.yul\":7922:7953   */\n      calldataload\n        /* \"#utility.yul\":7980:7998   */\n      0xffffffffffffffff\n        /* \"#utility.yul\":7972:7978   */\n      dup2\n        /* \"#utility.yul\":7969:7999   */\n      gt\n        /* \"#utility.yul\":7966:8083   */\n      iszero\n      tag_488\n      jumpi\n        /* \"#utility.yul\":8002:8081   */\n      tag_489\n      tag_312\n      jump\t// in\n    tag_489:\n        /* \"#utility.yul\":7966:8083   */\n    tag_488:\n        /* \"#utility.yul\":8115:8180   */\n      tag_490\n        /* \"#utility.yul\":8172:8179   */\n      dup7\n        /* \"#utility.yul\":8163:8169   */\n      dup3\n        /* \"#utility.yul\":8152:8161   */\n      dup8\n        /* \"#utility.yul\":8148:8170   */\n      add\n        /* \"#utility.yul\":8115:8180   */\n      tag_326\n      jump\t// in\n    tag_490:\n        /* \"#utility.yul\":8097:8180   */\n      swap4\n      pop\n      swap4\n      pop\n        /* \"#utility.yul\":7893:8190   */\n      pop\n        /* \"#utility.yul\":8229:8231   */\n      0x20\n        /* \"#utility.yul\":8255:8308   */\n      tag_491\n        /* \"#utility.yul\":8300:8307   */\n      dup7\n        /* \"#utility.yul\":8291:8297   */\n      dup3\n        /* \"#utility.yul\":8280:8289   */\n      dup8\n        /* \"#utility.yul\":8276:8298   */\n      add\n        /* \"#utility.yul\":8255:8308   */\n      tag_335\n      jump\t// in\n    tag_491:\n        /* \"#utility.yul\":8245:8308   */\n      swap2\n      pop\n        /* \"#utility.yul\":8200:8318   */\n      pop\n        /* \"#utility.yul\":7651:8325   */\n      swap3\n      pop\n      swap3\n      pop\n      swap3\n      jump\t// out\n        /* \"#utility.yul\":8331:8553   */\n    tag_59:\n        /* \"#utility.yul\":8424:8428   */\n      0x00\n        /* \"#utility.yul\":8462:8464   */\n      0x20\n        /* \"#utility.yul\":8451:8460   */\n      dup3\n        /* \"#utility.yul\":8447:8465   */\n      add\n        /* \"#utility.yul\":8439:8465   */\n      swap1\n      pop\n        /* \"#utility.yul\":8475:8546   */\n      tag_493\n        /* \"#utility.yul\":8543:8544   */\n      0x00\n        /* \"#utility.yul\":8532:8541   */\n      dup4\n        /* \"#utility.yul\":8528:8545   */\n      add\n        /* \"#utility.yul\":8519:8525   */\n      dup5\n        /* \"#utility.yul\":8475:8546   */\n      tag_333\n      jump\t// in\n    tag_493:\n        /* \"#utility.yul\":8331:8553   */\n      swap3\n      swap2\n      pop\n      pop\n      jump\t// out\n        /* \"#utility.yul\":8559:9033   */\n    tag_67:\n        /* \"#utility.yul\":8627:8633   */\n      0x00\n        /* \"#utility.yul\":8635:8641   */\n      dup1\n        /* \"#utility.yul\":8684:8686   */\n      0x40\n        /* \"#utility.yul\":8672:8681   */\n      dup4\n        /* \"#utility.yul\":8663:8670   */\n      dup6\n        /* \"#utility.yul\":8659:8682   */\n      sub\n        /* \"#utility.yul\":8655:8687   */\n      slt\n        /* \"#utility.yul\":8652:8771   */\n      iszero\n      tag_495\n      jumpi\n        /* \"#utility.yul\":8690:8769   */\n      tag_496\n      tag_311\n      jump\t// in\n    tag_496:\n        /* \"#utility.yul\":8652:8771   */\n    tag_495:\n        /* \"#utility.yul\":8810:8811   */\n      0x00\n        /* \"#utility.yul\":8835:8888   */\n      tag_497\n        /* \"#utility.yul\":8880:8887   */\n      dup6\n        /* \"#utility.yul\":8871:8877   */\n      dup3\n        /* \"#utility.yul\":8860:8869   */\n      dup7\n        /* \"#utility.yul\":8856:8878   */\n      add\n        /* \"#utility.yul\":8835:8888   */\n      tag_335\n      jump\t// in\n    tag_497:\n        /* \"#utility.yul\":8825:8888   */\n      swap3\n      pop\n        /* \"#utility.yul\":8781:8898   */\n      pop\n        /* \"#utility.yul\":8937:8939   */\n      0x20\n        /* \"#utility.yul\":8963:9016   */\n      tag_498\n        /* \"#utility.yul\":9008:9015   */\n      dup6\n        /* \"#utility.yul\":8999:9005   */\n      dup3\n        /* \"#utility.yul\":8988:8997   */\n      dup7\n        /* \"#utility.yul\":8984:9006   */\n      add\n        /* \"#utility.yul\":8963:9016   */\n      tag_328\n      jump\t// in\n    tag_498:\n        /* \"#utility.yul\":8953:9016   */\n      swap2\n      pop\n        /* \"#utility.yul\":8908:9026   */\n      pop\n        /* \"#utility.yul\":8559:9033   */\n      swap3\n      pop\n      swap3\n      swap1\n      pop\n      jump\t// out\n        /* \"#utility.yul\":9039:10204   */\n    tag_71:\n        /* \"#utility.yul\":9149:9155   */\n      0x00\n        /* \"#utility.yul\":9157:9163   */\n      dup1\n        /* \"#utility.yul\":9165:9171   */\n      0x00\n        /* \"#utility.yul\":9173:9179   */\n      dup1\n        /* \"#utility.yul\":9181:9187   */\n      0x00\n        /* \"#utility.yul\":9189:9195   */\n      dup1\n        /* \"#utility.yul\":9238:9241   */\n      0x80\n        /* \"#utility.yul\":9226:9235   */\n      dup8\n        /* \"#utility.yul\":9217:9224   */\n      dup10\n        /* \"#utility.yul\":9213:9236   */\n      sub\n        /* \"#utility.yul\":9209:9242   */\n      slt\n        /* \"#utility.yul\":9206:9326   */\n      iszero\n      tag_500\n      jumpi\n        /* \"#utility.yul\":9245:9324   */\n      tag_501\n      tag_311\n      jump\t// in\n    tag_501:\n        /* \"#utility.yul\":9206:9326   */\n    tag_500:\n        /* \"#utility.yul\":9393:9394   */\n      0x00\n        /* \"#utility.yul\":9382:9391   */\n      dup8\n        /* \"#utility.yul\":9378:9395   */\n      add\n        /* \"#utility.yul\":9365:9396   */\n      calldataload\n        /* \"#utility.yul\":9423:9441   */\n      0xffffffffffffffff\n        /* \"#utility.yul\":9415:9421   */\n      dup2\n        /* \"#utility.yul\":9412:9442   */\n      gt\n        /* \"#utility.yul\":9409:9526   */\n      iszero\n      tag_502\n      jumpi\n        /* \"#utility.yul\":9445:9524   */\n      tag_503\n      tag_312\n      jump\t// in\n    tag_503:\n        /* \"#utility.yul\":9409:9526   */\n    tag_502:\n        /* \"#utility.yul\":9558:9623   */\n      tag_504\n        /* \"#utility.yul\":9615:9622   */\n      dup10\n        /* \"#utility.yul\":9606:9612   */\n      dup3\n        /* \"#utility.yul\":9595:9604   */\n      dup11\n        /* \"#utility.yul\":9591:9613   */\n      add\n        /* \"#utility.yul\":9558:9623   */\n      tag_326\n      jump\t// in\n    tag_504:\n        /* \"#utility.yul\":9540:9623   */\n      swap7\n      pop\n      swap7\n      pop\n        /* \"#utility.yul\":9336:9633   */\n      pop\n        /* \"#utility.yul\":9672:9674   */\n      0x20\n        /* \"#utility.yul\":9698:9751   */\n      tag_505\n        /* \"#utility.yul\":9743:9750   */\n      dup10\n        /* \"#utility.yul\":9734:9740   */\n      dup3\n        /* \"#utility.yul\":9723:9732   */\n      dup11\n        /* \"#utility.yul\":9719:9741   */\n      add\n        /* \"#utility.yul\":9698:9751   */\n      tag_335\n      jump\t// in\n    tag_505:\n        /* \"#utility.yul\":9688:9751   */\n      swap5\n      pop\n        /* \"#utility.yul\":9643:9761   */\n      pop\n        /* \"#utility.yul\":9800:9802   */\n      0x40\n        /* \"#utility.yul\":9826:9879   */\n      tag_506\n        /* \"#utility.yul\":9871:9878   */\n      dup10\n        /* \"#utility.yul\":9862:9868   */\n      dup3\n        /* \"#utility.yul\":9851:9860   */\n      dup11\n        /* \"#utility.yul\":9847:9869   */\n      add\n        /* \"#utility.yul\":9826:9879   */\n      tag_328\n      jump\t// in\n    tag_506:\n        /* \"#utility.yul\":9816:9879   */\n      swap4\n      pop\n        /* \"#utility.yul\":9771:9889   */\n      pop\n        /* \"#utility.yul\":9956:9958   */\n      0x60\n        /* \"#utility.yul\":9945:9954   */\n      dup8\n        /* \"#utility.yul\":9941:9959   */\n      add\n        /* \"#utility.yul\":9928:9960   */\n      calldataload\n        /* \"#utility.yul\":9987:10005   */\n      0xffffffffffffffff\n        /* \"#utility.yul\":9979:9985   */\n      dup2\n        /* \"#utility.yul\":9976:10006   */\n      gt\n        /* \"#utility.yul\":9973:10090   */\n      iszero\n      tag_507\n      jumpi\n        /* \"#utility.yul\":10009:10088   */\n      tag_508\n      tag_312\n      jump\t// in\n    tag_508:\n        /* \"#utility.yul\":9973:10090   */\n    tag_507:\n        /* \"#utility.yul\":10122:10187   */\n      tag_509\n        /* \"#utility.yul\":10179:10186   */\n      dup10\n        /* \"#utility.yul\":10170:10176   */\n      dup3\n        /* \"#utility.yul\":10159:10168   */\n      dup11\n        /* \"#utility.yul\":10155:10177   */\n      add\n        /* \"#utility.yul\":10122:10187   */\n      tag_326\n      jump\t// in\n    tag_509:\n        /* \"#utility.yul\":10104:10187   */\n      swap3\n      pop\n      swap3\n      pop\n        /* \"#utility.yul\":9899:10197   */\n      pop\n        /* \"#utility.yul\":9039:10204   */\n      swap3\n      swap6\n      pop\n      swap3\n      swap6\n      pop\n      swap3\n      swap6\n      jump\t// out\n        /* \"#utility.yul\":10210:10539   */\n    tag_80:\n        /* \"#utility.yul\":10269:10275   */\n      0x00\n        /* \"#utility.yul\":10318:10320   */\n      0x20\n        /* \"#utility.yul\":10306:10315   */\n      dup3\n        /* \"#utility.yul\":10297:10304   */\n      dup5\n        /* \"#utility.yul\":10293:10316   */\n      sub\n        /* \"#utility.yul\":10289:10321   */\n      slt\n        /* \"#utility.yul\":10286:10405   */\n      iszero\n      tag_511\n      jumpi\n        /* \"#utility.yul\":10324:10403   */\n      tag_512\n      tag_311\n      jump\t// in\n    tag_512:\n        /* \"#utility.yul\":10286:10405   */\n    tag_511:\n        /* \"#utility.yul\":10444:10445   */\n      0x00\n        /* \"#utility.yul\":10469:10522   */\n      tag_513\n        /* \"#utility.yul\":10514:10521   */\n      dup5\n        /* \"#utility.yul\":10505:10511   */\n      dup3\n        /* \"#utility.yul\":10494:10503   */\n      dup6\n        /* \"#utility.yul\":10490:10512   */\n      add\n        /* \"#utility.yul\":10469:10522   */\n      tag_335\n      jump\t// in\n    tag_513:\n        /* \"#utility.yul\":10459:10522   */\n      swap2\n      pop\n        /* \"#utility.yul\":10415:10532   */\n      pop\n        /* \"#utility.yul\":10210:10539   */\n      swap3\n      swap2\n      pop\n      pop\n      jump\t// out\n        /* \"#utility.yul\":10545:10669   */\n    tag_336:\n        /* \"#utility.yul\":10622:10628   */\n      0x00\n        /* \"#utility.yul\":10656:10661   */\n      dup2\n        /* \"#utility.yul\":10650:10662   */\n      mload\n        /* \"#utility.yul\":10640:10662   */\n      swap1\n      pop\n        /* \"#utility.yul\":10545:10669   */\n      swap2\n      swap1\n      pop\n      jump\t// out\n        /* \"#utility.yul\":10675:10869   */\n    tag_337:\n        /* \"#utility.yul\":10784:10795   */\n      0x00\n        /* \"#utility.yul\":10818:10824   */\n      dup3\n        /* \"#utility.yul\":10813:10816   */\n      dup3\n        /* \"#utility.yul\":10806:10825   */\n      mstore\n        /* \"#utility.yul\":10858:10862   */\n      0x20\n        /* \"#utility.yul\":10853:10856   */\n      dup3\n        /* \"#utility.yul\":10849:10863   */\n      add\n        /* \"#utility.yul\":10834:10863   */\n      swap1\n      pop\n        /* \"#utility.yul\":10675:10869   */\n      swap3\n      swap2\n      pop\n      pop\n      jump\t// out\n        /* \"#utility.yul\":10875:11017   */\n    tag_338:\n        /* \"#utility.yul\":10952:10956   */\n      0x00\n        /* \"#utility.yul\":10975:10978   */\n      dup2\n        /* \"#utility.yul\":10967:10978   */\n      swap1\n      pop\n        /* \"#utility.yul\":11005:11009   */\n      0x20\n        /* \"#utility.yul\":11000:11003   */\n      dup3\n        /* \"#utility.yul\":10996:11010   */\n      add\n        /* \"#utility.yul\":10988:11010   */\n      swap1\n      pop\n        /* \"#utility.yul\":10875:11017   */\n      swap2\n      swap1\n      pop\n      jump\t// out\n        /* \"#utility.yul\":11023:11122   */\n    tag_339:\n        /* \"#utility.yul\":11075:11081   */\n      0x00\n        /* \"#utility.yul\":11109:11114   */\n      dup2\n        /* \"#utility.yul\":11103:11115   */\n      mload\n        /* \"#utility.yul\":11093:11115   */\n      swap1\n      pop\n        /* \"#utility.yul\":11023:11122   */\n      swap2\n      swap1\n      pop\n      jump\t// out\n        /* \"#utility.yul\":11128:11287   */\n    tag_340:\n        /* \"#utility.yul\":11202:11213   */\n      0x00\n        /* \"#utility.yul\":11236:11242   */\n      dup3\n        /* \"#utility.yul\":11231:11234   */\n      dup3\n        /* \"#utility.yul\":11224:11243   */\n      mstore\n        /* \"#utility.yul\":11276:11280   */\n      0x20\n        /* \"#utility.yul\":11271:11274   */\n      dup3\n        /* \"#utility.yul\":11267:11281   */\n      add\n        /* \"#utility.yul\":11252:11281   */\n      swap1\n      pop\n        /* \"#utility.yul\":11128:11287   */\n      swap3\n      swap2\n      pop\n      pop\n      jump\t// out\n        /* \"#utility.yul\":11293:11539   */\n    tag_341:\n        /* \"#utility.yul\":11374:11375   */\n      0x00\n        /* \"#utility.yul\":11384:11497   */\n    tag_520:\n        /* \"#utility.yul\":11398:11404   */\n      dup4\n        /* \"#utility.yul\":11395:11396   */\n      dup2\n        /* \"#utility.yul\":11392:11405   */\n      lt\n        /* \"#utility.yul\":11384:11497   */\n      iszero\n      tag_522\n      jumpi\n        /* \"#utility.yul\":11483:11484   */\n      dup1\n        /* \"#utility.yul\":11478:11481   */\n      dup3\n        /* \"#utility.yul\":11474:11485   */\n      add\n        /* \"#utility.yul\":11468:11486   */\n      mload\n        /* \"#utility.yul\":11464:11465   */\n      dup2\n        /* \"#utility.yul\":11459:11462   */\n      dup5\n        /* \"#utility.yul\":11455:11466   */\n      add\n        /* \"#utility.yul\":11448:11487   */\n      mstore\n        /* \"#utility.yul\":11420:11422   */\n      0x20\n        /* \"#utility.yul\":11417:11418   */\n      dup2\n        /* \"#utility.yul\":11413:11423   */\n      add\n        /* \"#utility.yul\":11408:11423   */\n      swap1\n      pop\n        /* \"#utility.yul\":11384:11497   */\n      jump(tag_520)\n    tag_522:\n        /* \"#utility.yul\":11531:11532   */\n      0x00\n        /* \"#utility.yul\":11522:11528   */\n      dup5\n        /* \"#utility.yul\":11517:11520   */\n      dup5\n        /* \"#utility.yul\":11513:11529   */\n      add\n        /* \"#utility.yul\":11506:11533   */\n      mstore\n        /* \"#utility.yul\":11355:11539   */\n      pop\n        /* \"#utility.yul\":11293:11539   */\n      pop\n      pop\n      pop\n      jump\t// out\n        /* \"#utility.yul\":11545:11902   */\n    tag_342:\n        /* \"#utility.yul\":11623:11626   */\n      0x00\n        /* \"#utility.yul\":11651:11690   */\n      tag_524\n        /* \"#utility.yul\":11684:11689   */\n      dup3\n        /* \"#utility.yul\":11651:11690   */\n      tag_339\n      jump\t// in\n    tag_524:\n        /* \"#utility.yul\":11706:11767   */\n      tag_525\n        /* \"#utility.yul\":11760:11766   */\n      dup2\n        /* \"#utility.yul\":11755:11758   */\n      dup6\n        /* \"#utility.yul\":11706:11767   */\n      tag_340\n      jump\t// in\n    tag_525:\n        /* \"#utility.yul\":11699:11767   */\n      swap4\n      pop\n        /* \"#utility.yul\":11776:11841   */\n      tag_526\n        /* \"#utility.yul\":11834:11840   */\n      dup2\n        /* \"#utility.yul\":11829:11832   */\n      dup6\n        /* \"#utility.yul\":11822:11826   */\n      0x20\n        /* \"#utility.yul\":11815:11820   */\n      dup7\n        /* \"#utility.yul\":11811:11827   */\n      add\n        /* \"#utility.yul\":11776:11841   */\n      tag_341\n      jump\t// in\n    tag_526:\n        /* \"#utility.yul\":11866:11895   */\n      tag_527\n        /* \"#utility.yul\":11888:11894   */\n      dup2\n        /* \"#utility.yul\":11866:11895   */\n      tag_315\n      jump\t// in\n    tag_527:\n        /* \"#utility.yul\":11861:11864   */\n      dup5\n        /* \"#utility.yul\":11857:11896   */\n      add\n        /* \"#utility.yul\":11850:11896   */\n      swap2\n      pop\n        /* \"#utility.yul\":11627:11902   */\n      pop\n        /* \"#utility.yul\":11545:11902   */\n      swap3\n      swap2\n      pop\n      pop\n      jump\t// out\n        /* \"#utility.yul\":11908:12104   */\n    tag_343:\n        /* \"#utility.yul\":11997:12007   */\n      0x00\n        /* \"#utility.yul\":12032:12098   */\n      tag_529\n        /* \"#utility.yul\":12094:12097   */\n      dup4\n        /* \"#utility.yul\":12086:12092   */\n      dup4\n        /* \"#utility.yul\":12032:12098   */\n      tag_342\n      jump\t// in\n    tag_529:\n        /* \"#utility.yul\":12018:12098   */\n      swap1\n      pop\n        /* \"#utility.yul\":11908:12104   */\n      swap3\n      swap2\n      pop\n      pop\n      jump\t// out\n        /* \"#utility.yul\":12110:12233   */\n    tag_344:\n        /* \"#utility.yul\":12190:12194   */\n      0x00\n        /* \"#utility.yul\":12222:12226   */\n      0x20\n        /* \"#utility.yul\":12217:12220   */\n      dup3\n        /* \"#utility.yul\":12213:12227   */\n      add\n        /* \"#utility.yul\":12205:12227   */\n      swap1\n      pop\n        /* \"#utility.yul\":12110:12233   */\n      swap2\n      swap1\n      pop\n      jump\t// out\n        /* \"#utility.yul\":12267:13258   */\n    tag_345:\n        /* \"#utility.yul\":12406:12409   */\n      0x00\n        /* \"#utility.yul\":12435:12499   */\n      tag_532\n        /* \"#utility.yul\":12493:12498   */\n      dup3\n        /* \"#utility.yul\":12435:12499   */\n      tag_336\n      jump\t// in\n    tag_532:\n        /* \"#utility.yul\":12515:12611   */\n      tag_533\n        /* \"#utility.yul\":12604:12610   */\n      dup2\n        /* \"#utility.yul\":12599:12602   */\n      dup6\n        /* \"#utility.yul\":12515:12611   */\n      tag_337\n      jump\t// in\n    tag_533:\n        /* \"#utility.yul\":12508:12611   */\n      swap4\n      pop\n        /* \"#utility.yul\":12637:12640   */\n      dup4\n        /* \"#utility.yul\":12682:12686   */\n      0x20\n        /* \"#utility.yul\":12674:12680   */\n      dup3\n        /* \"#utility.yul\":12670:12687   */\n      mul\n        /* \"#utility.yul\":12665:12668   */\n      dup6\n        /* \"#utility.yul\":12661:12688   */\n      add\n        /* \"#utility.yul\":12712:12778   */\n      tag_534\n        /* \"#utility.yul\":12772:12777   */\n      dup6\n        /* \"#utility.yul\":12712:12778   */\n      tag_338\n      jump\t// in\n    tag_534:\n        /* \"#utility.yul\":12801:12808   */\n      dup1\n        /* \"#utility.yul\":12832:12833   */\n      0x00\n        /* \"#utility.yul\":12817:13213   */\n    tag_535:\n        /* \"#utility.yul\":12842:12848   */\n      dup6\n        /* \"#utility.yul\":12839:12840   */\n      dup2\n        /* \"#utility.yul\":12836:12849   */\n      lt\n        /* \"#utility.yul\":12817:13213   */\n      iszero\n      tag_537\n      jumpi\n        /* \"#utility.yul\":12913:12922   */\n      dup5\n        /* \"#utility.yul\":12907:12911   */\n      dup5\n        /* \"#utility.yul\":12903:12923   */\n      sub\n        /* \"#utility.yul\":12898:12901   */\n      dup10\n        /* \"#utility.yul\":12891:12924   */\n      mstore\n        /* \"#utility.yul\":12964:12970   */\n      dup2\n        /* \"#utility.yul\":12958:12971   */\n      mload\n        /* \"#utility.yul\":12992:13076   */\n      tag_538\n        /* \"#utility.yul\":13071:13075   */\n      dup6\n        /* \"#utility.yul\":13056:13069   */\n      dup3\n        /* \"#utility.yul\":12992:13076   */\n      tag_343\n      jump\t// in\n    tag_538:\n        /* \"#utility.yul\":12984:13076   */\n      swap5\n      pop\n        /* \"#utility.yul\":13099:13169   */\n      tag_539\n        /* \"#utility.yul\":13162:13168   */\n      dup4\n        /* \"#utility.yul\":13099:13169   */\n      tag_344\n      jump\t// in\n    tag_539:\n        /* \"#utility.yul\":13089:13169   */\n      swap3\n      pop\n        /* \"#utility.yul\":13198:13202   */\n      0x20\n        /* \"#utility.yul\":13193:13196   */\n      dup11\n        /* \"#utility.yul\":13189:13203   */\n      add\n        /* \"#utility.yul\":13182:13203   */\n      swap10\n      pop\n        /* \"#utility.yul\":12877:13213   */\n      pop\n        /* \"#utility.yul\":12864:12865   */\n      0x01\n        /* \"#utility.yul\":12861:12862   */\n      dup2\n        /* \"#utility.yul\":12857:12866   */\n      add\n        /* \"#utility.yul\":12852:12866   */\n      swap1\n      pop\n        /* \"#utility.yul\":12817:13213   */\n      jump(tag_535)\n    tag_537:\n        /* \"#utility.yul\":12821:12835   */\n      pop\n        /* \"#utility.yul\":13229:13233   */\n      dup3\n        /* \"#utility.yul\":13222:13233   */\n      swap8\n      pop\n        /* \"#utility.yul\":13249:13252   */\n      dup8\n        /* \"#utility.yul\":13242:13252   */\n      swap6\n      pop\n        /* \"#utility.yul\":12411:13258   */\n      pop\n      pop\n      pop\n      pop\n      pop\n        /* \"#utility.yul\":12267:13258   */\n      swap3\n      swap2\n      pop\n      pop\n      jump\t// out\n        /* \"#utility.yul\":13264:13677   */\n    tag_83:\n        /* \"#utility.yul\":13427:13431   */\n      0x00\n        /* \"#utility.yul\":13465:13467   */\n      0x20\n        /* \"#utility.yul\":13454:13463   */\n      dup3\n        /* \"#utility.yul\":13450:13468   */\n      add\n        /* \"#utility.yul\":13442:13468   */\n      swap1\n      pop\n        /* \"#utility.yul\":13514:13523   */\n      dup2\n        /* \"#utility.yul\":13508:13512   */\n      dup2\n        /* \"#utility.yul\":13504:13524   */\n      sub\n        /* \"#utility.yul\":13500:13501   */\n      0x00\n        /* \"#utility.yul\":13489:13498   */\n      dup4\n        /* \"#utility.yul\":13485:13502   */\n      add\n        /* \"#utility.yul\":13478:13525   */\n      mstore\n        /* \"#utility.yul\":13542:13670   */\n      tag_541\n        /* \"#utility.yul\":13665:13669   */\n      dup2\n        /* \"#utility.yul\":13656:13662   */\n      dup5\n        /* \"#utility.yul\":13542:13670   */\n      tag_345\n      jump\t// in\n    tag_541:\n        /* \"#utility.yul\":13534:13670   */\n      swap1\n      pop\n        /* \"#utility.yul\":13264:13677   */\n      swap3\n      swap2\n      pop\n      pop\n      jump\t// out\n        /* \"#utility.yul\":13683:13831   */\n    tag_346:\n        /* \"#utility.yul\":13785:13796   */\n      0x00\n        /* \"#utility.yul\":13822:13825   */\n      dup2\n        /* \"#utility.yul\":13807:13825   */\n      swap1\n      pop\n        /* \"#utility.yul\":13683:13831   */\n      swap3\n      swap2\n      pop\n      pop\n      jump\t// out\n        /* \"#utility.yul\":13837:14227   */\n    tag_347:\n        /* \"#utility.yul\":13943:13946   */\n      0x00\n        /* \"#utility.yul\":13971:14010   */\n      tag_544\n        /* \"#utility.yul\":14004:14009   */\n      dup3\n        /* \"#utility.yul\":13971:14010   */\n      tag_339\n      jump\t// in\n    tag_544:\n        /* \"#utility.yul\":14026:14115   */\n      tag_545\n        /* \"#utility.yul\":14108:14114   */\n      dup2\n        /* \"#utility.yul\":14103:14106   */\n      dup6\n        /* \"#utility.yul\":14026:14115   */\n      tag_346\n      jump\t// in\n    tag_545:\n        /* \"#utility.yul\":14019:14115   */\n      swap4\n      pop\n        /* \"#utility.yul\":14124:14189   */\n      tag_546\n        /* \"#utility.yul\":14182:14188   */\n      dup2\n        /* \"#utility.yul\":14177:14180   */\n      dup6\n        /* \"#utility.yul\":14170:14174   */\n      0x20\n        /* \"#utility.yul\":14163:14168   */\n      dup7\n        /* \"#utility.yul\":14159:14175   */\n      add\n        /* \"#utility.yul\":14124:14189   */\n      tag_341\n      jump\t// in\n    tag_546:\n        /* \"#utility.yul\":14214:14220   */\n      dup1\n        /* \"#utility.yul\":14209:14212   */\n      dup5\n        /* \"#utility.yul\":14205:14221   */\n      add\n        /* \"#utility.yul\":14198:14221   */\n      swap2\n      pop\n        /* \"#utility.yul\":13947:14227   */\n      pop\n        /* \"#utility.yul\":13837:14227   */\n      swap3\n      swap2\n      pop\n      pop\n      jump\t// out\n        /* \"#utility.yul\":14233:14508   */\n    tag_86:\n        /* \"#utility.yul\":14365:14368   */\n      0x00\n        /* \"#utility.yul\":14387:14482   */\n      tag_548\n        /* \"#utility.yul\":14478:14481   */\n      dup3\n        /* \"#utility.yul\":14469:14475   */\n      dup5\n        /* \"#utility.yul\":14387:14482   */\n      tag_347\n      jump\t// in\n    tag_548:\n        /* \"#utility.yul\":14380:14482   */\n      swap2\n      pop\n        /* \"#utility.yul\":14499:14502   */\n      dup2\n        /* \"#utility.yul\":14492:14502   */\n      swap1\n      pop\n        /* \"#utility.yul\":14233:14508   */\n      swap3\n      swap2\n      pop\n      pop\n      jump\t// out\n        /* \"#utility.yul\":14514:14683   */\n    tag_348:\n        /* \"#utility.yul\":14598:14609   */\n      0x00\n        /* \"#utility.yul\":14632:14638   */\n      dup3\n        /* \"#utility.yul\":14627:14630   */\n      dup3\n        /* \"#utility.yul\":14620:14639   */\n      mstore\n        /* \"#utility.yul\":14672:14676   */\n      0x20\n        /* \"#utility.yul\":14667:14670   */\n      dup3\n        /* \"#utility.yul\":14663:14677   */\n      add\n        /* \"#utility.yul\":14648:14677   */\n      swap1\n      pop\n        /* \"#utility.yul\":14514:14683   */\n      swap3\n      swap2\n      pop\n      pop\n      jump\t// out\n        /* \"#utility.yul\":14689:14913   */\n    tag_349:\n        /* \"#utility.yul\":14829:14863   */\n      0x596f7520617265206e6f7420746865206f776e6572206f66207468697320646f\n        /* \"#utility.yul\":14825:14826   */\n      0x00\n        /* \"#utility.yul\":14817:14823   */\n      dup3\n        /* \"#utility.yul\":14813:14827   */\n      add\n        /* \"#utility.yul\":14806:14864   */\n      mstore\n        /* \"#utility.yul\":14898:14905   */\n      0x6d61696e2e000000000000000000000000000000000000000000000000000000\n        /* \"#utility.yul\":14893:14895   */\n      0x20\n        /* \"#utility.yul\":14885:14891   */\n      dup3\n        /* \"#utility.yul\":14881:14896   */\n      add\n        /* \"#utility.yul\":14874:14906   */\n      mstore\n        /* \"#utility.yul\":14689:14913   */\n      pop\n      jump\t// out\n        /* \"#utility.yul\":14919:15285   */\n    tag_350:\n        /* \"#utility.yul\":15061:15064   */\n      0x00\n        /* \"#utility.yul\":15082:15149   */\n      tag_552\n        /* \"#utility.yul\":15146:15148   */\n      0x25\n        /* \"#utility.yul\":15141:15144   */\n      dup4\n        /* \"#utility.yul\":15082:15149   */\n      tag_348\n      jump\t// in\n    tag_552:\n        /* \"#utility.yul\":15075:15149   */\n      swap2\n      pop\n        /* \"#utility.yul\":15158:15251   */\n      tag_553\n        /* \"#utility.yul\":15247:15250   */\n      dup3\n        /* \"#utility.yul\":15158:15251   */\n      tag_349\n      jump\t// in\n    tag_553:\n        /* \"#utility.yul\":15276:15278   */\n      0x40\n        /* \"#utility.yul\":15271:15274   */\n      dup3\n        /* \"#utility.yul\":15267:15279   */\n      add\n        /* \"#utility.yul\":15260:15279   */\n      swap1\n      pop\n        /* \"#utility.yul\":14919:15285   */\n      swap2\n      swap1\n      pop\n      jump\t// out\n        /* \"#utility.yul\":15291:15710   */\n    tag_89:\n        /* \"#utility.yul\":15457:15461   */\n      0x00\n        /* \"#utility.yul\":15495:15497   */\n      0x20\n        /* \"#utility.yul\":15484:15493   */\n      dup3\n        /* \"#utility.yul\":15480:15498   */\n      add\n        /* \"#utility.yul\":15472:15498   */\n      swap1\n      pop\n        /* \"#utility.yul\":15544:15553   */\n      dup2\n        /* \"#utility.yul\":15538:15542   */\n      dup2\n        /* \"#utility.yul\":15534:15554   */\n      sub\n        /* \"#utility.yul\":15530:15531   */\n      0x00\n        /* \"#utility.yul\":15519:15528   */\n      dup4\n        /* \"#utility.yul\":15515:15532   */\n      add\n        /* \"#utility.yul\":15508:15555   */\n      mstore\n        /* \"#utility.yul\":15572:15703   */\n      tag_555\n        /* \"#utility.yul\":15698:15702   */\n      dup2\n        /* \"#utility.yul\":15572:15703   */\n      tag_350\n      jump\t// in\n    tag_555:\n        /* \"#utility.yul\":15564:15703   */\n      swap1\n      pop\n        /* \"#utility.yul\":15291:15710   */\n      swap2\n      swap1\n      pop\n      jump\t// out\n        /* \"#utility.yul\":15716:15896   */\n    tag_351:\n        /* \"#utility.yul\":15764:15841   */\n      0x4e487b7100000000000000000000000000000000000000000000000000000000\n        /* \"#utility.yul\":15761:15762   */\n      0x00\n        /* \"#utility.yul\":15754:15842   */\n      mstore\n        /* \"#utility.yul\":15861:15865   */\n      0x11\n        /* \"#utility.yul\":15858:15859   */\n      0x04\n        /* \"#utility.yul\":15851:15866   */\n      mstore\n        /* \"#utility.yul\":15885:15889   */\n      0x24\n        /* \"#utility.yul\":15882:15883   */\n      0x00\n        /* \"#utility.yul\":15875:15890   */\n      revert\n        /* \"#utility.yul\":15902:16312   */\n    tag_97:\n        /* \"#utility.yul\":15942:15949   */\n      0x00\n        /* \"#utility.yul\":15965:15985   */\n      tag_558\n        /* \"#utility.yul\":15983:15984   */\n      dup3\n        /* \"#utility.yul\":15965:15985   */\n      tag_322\n      jump\t// in\n    tag_558:\n        /* \"#utility.yul\":15960:15985   */\n      swap2\n      pop\n        /* \"#utility.yul\":15999:16019   */\n      tag_559\n        /* \"#utility.yul\":16017:16018   */\n      dup4\n        /* \"#utility.yul\":15999:16019   */\n      tag_322\n      jump\t// in\n    tag_559:\n        /* \"#utility.yul\":15994:16019   */\n      swap3\n      pop\n        /* \"#utility.yul\":16054:16055   */\n      dup3\n        /* \"#utility.yul\":16051:16052   */\n      dup3\n        /* \"#utility.yul\":16047:16056   */\n      mul\n        /* \"#utility.yul\":16076:16106   */\n      tag_560\n        /* \"#utility.yul\":16094:16105   */\n      dup2\n        /* \"#utility.yul\":16076:16106   */\n      tag_322\n      jump\t// in\n    tag_560:\n        /* \"#utility.yul\":16065:16106   */\n      swap2\n      pop\n        /* \"#utility.yul\":16255:16256   */\n      dup3\n        /* \"#utility.yul\":16246:16253   */\n      dup3\n        /* \"#utility.yul\":16242:16257   */\n      div\n        /* \"#utility.yul\":16239:16240   */\n      dup5\n        /* \"#utility.yul\":16236:16258   */\n      eq\n        /* \"#utility.yul\":16216:16217   */\n      dup4\n        /* \"#utility.yul\":16209:16218   */\n      iszero\n        /* \"#utility.yul\":16189:16272   */\n      or\n        /* \"#utility.yul\":16166:16305   */\n      tag_561\n      jumpi\n        /* \"#utility.yul\":16285:16303   */\n      tag_562\n      tag_351\n      jump\t// in\n    tag_562:\n        /* \"#utility.yul\":16166:16305   */\n    tag_561:\n        /* \"#utility.yul\":15950:16312   */\n      pop\n        /* \"#utility.yul\":15902:16312   */\n      swap3\n      swap2\n      pop\n      pop\n      jump\t// out\n        /* \"#utility.yul\":16318:16567   */\n    tag_352:\n        /* \"#utility.yul\":16458:16492   */\n      0x496e73756666696369656e742066756e647320746f2072656e65772074686520\n        /* \"#utility.yul\":16454:16455   */\n      0x00\n        /* \"#utility.yul\":16446:16452   */\n      dup3\n        /* \"#utility.yul\":16442:16456   */\n      add\n        /* \"#utility.yul\":16435:16493   */\n      mstore\n        /* \"#utility.yul\":16527:16559   */\n      0x646f6d61696e20666f7220746865207370656369666965642079656172730000\n        /* \"#utility.yul\":16522:16524   */\n      0x20\n        /* \"#utility.yul\":16514:16520   */\n      dup3\n        /* \"#utility.yul\":16510:16525   */\n      add\n        /* \"#utility.yul\":16503:16560   */\n      mstore\n        /* \"#utility.yul\":16318:16567   */\n      pop\n      jump\t// out\n        /* \"#utility.yul\":16573:16939   */\n    tag_353:\n        /* \"#utility.yul\":16715:16718   */\n      0x00\n        /* \"#utility.yul\":16736:16803   */\n      tag_565\n        /* \"#utility.yul\":16800:16802   */\n      0x3e\n        /* \"#utility.yul\":16795:16798   */\n      dup4\n        /* \"#utility.yul\":16736:16803   */\n      tag_348\n      jump\t// in\n    tag_565:\n        /* \"#utility.yul\":16729:16803   */\n      swap2\n      pop\n        /* \"#utility.yul\":16812:16905   */\n      tag_566\n        /* \"#utility.yul\":16901:16904   */\n      dup3\n        /* \"#utility.yul\":16812:16905   */\n      tag_352\n      jump\t// in\n    tag_566:\n        /* \"#utility.yul\":16930:16932   */\n      0x40\n        /* \"#utility.yul\":16925:16928   */\n      dup3\n        /* \"#utility.yul\":16921:16933   */\n      add\n        /* \"#utility.yul\":16914:16933   */\n      swap1\n      pop\n        /* \"#utility.yul\":16573:16939   */\n      swap2\n      swap1\n      pop\n      jump\t// out\n        /* \"#utility.yul\":16945:17364   */\n    tag_100:\n        /* \"#utility.yul\":17111:17115   */\n      0x00\n        /* \"#utility.yul\":17149:17151   */\n      0x20\n        /* \"#utility.yul\":17138:17147   */\n      dup3\n        /* \"#utility.yul\":17134:17152   */\n      add\n        /* \"#utility.yul\":17126:17152   */\n      swap1\n      pop\n        /* \"#utility.yul\":17198:17207   */\n      dup2\n        /* \"#utility.yul\":17192:17196   */\n      dup2\n        /* \"#utility.yul\":17188:17208   */\n      sub\n        /* \"#utility.yul\":17184:17185   */\n      0x00\n        /* \"#utility.yul\":17173:17182   */\n      dup4\n        /* \"#utility.yul\":17169:17186   */\n      add\n        /* \"#utility.yul\":17162:17209   */\n      mstore\n        /* \"#utility.yul\":17226:17357   */\n      tag_568\n        /* \"#utility.yul\":17352:17356   */\n      dup2\n        /* \"#utility.yul\":17226:17357   */\n      tag_353\n      jump\t// in\n    tag_568:\n        /* \"#utility.yul\":17218:17357   */\n      swap1\n      pop\n        /* \"#utility.yul\":16945:17364   */\n      swap2\n      swap1\n      pop\n      jump\t// out\n        /* \"#utility.yul\":17394:17724   */\n    tag_354:\n        /* \"#utility.yul\":17510:17513   */\n      0x00\n        /* \"#utility.yul\":17531:17620   */\n      tag_570\n        /* \"#utility.yul\":17613:17619   */\n      dup4\n        /* \"#utility.yul\":17608:17611   */\n      dup6\n        /* \"#utility.yul\":17531:17620   */\n      tag_346\n      jump\t// in\n    tag_570:\n        /* \"#utility.yul\":17524:17620   */\n      swap4\n      pop\n        /* \"#utility.yul\":17630:17686   */\n      tag_571\n        /* \"#utility.yul\":17679:17685   */\n      dup4\n        /* \"#utility.yul\":17674:17677   */\n      dup6\n        /* \"#utility.yul\":17667:17672   */\n      dup5\n        /* \"#utility.yul\":17630:17686   */\n      tag_319\n      jump\t// in\n    tag_571:\n        /* \"#utility.yul\":17711:17717   */\n      dup3\n        /* \"#utility.yul\":17706:17709   */\n      dup5\n        /* \"#utility.yul\":17702:17718   */\n      add\n        /* \"#utility.yul\":17695:17718   */\n      swap1\n      pop\n        /* \"#utility.yul\":17394:17724   */\n      swap4\n      swap3\n      pop\n      pop\n      pop\n      jump\t// out\n        /* \"#utility.yul\":17730:18025   */\n    tag_103:\n        /* \"#utility.yul\":17872:17875   */\n      0x00\n        /* \"#utility.yul\":17894:17999   */\n      tag_573\n        /* \"#utility.yul\":17995:17998   */\n      dup3\n        /* \"#utility.yul\":17986:17992   */\n      dup5\n        /* \"#utility.yul\":17978:17984   */\n      dup7\n        /* \"#utility.yul\":17894:17999   */\n      tag_354\n      jump\t// in\n    tag_573:\n        /* \"#utility.yul\":17887:17999   */\n      swap2\n      pop\n        /* \"#utility.yul\":18016:18019   */\n      dup2\n        /* \"#utility.yul\":18009:18019   */\n      swap1\n      pop\n        /* \"#utility.yul\":17730:18025   */\n      swap4\n      swap3\n      pop\n      pop\n      pop\n      jump\t// out\n        /* \"#utility.yul\":18031:18222   */\n    tag_105:\n        /* \"#utility.yul\":18071:18074   */\n      0x00\n        /* \"#utility.yul\":18090:18110   */\n      tag_575\n        /* \"#utility.yul\":18108:18109   */\n      dup3\n        /* \"#utility.yul\":18090:18110   */\n      tag_322\n      jump\t// in\n    tag_575:\n        /* \"#utility.yul\":18085:18110   */\n      swap2\n      pop\n        /* \"#utility.yul\":18124:18144   */\n      tag_576\n        /* \"#utility.yul\":18142:18143   */\n      dup4\n        /* \"#utility.yul\":18124:18144   */\n      tag_322\n      jump\t// in\n    tag_576:\n        /* \"#utility.yul\":18119:18144   */\n      swap3\n      pop\n        /* \"#utility.yul\":18167:18168   */\n      dup3\n        /* \"#utility.yul\":18164:18165   */\n      dup3\n        /* \"#utility.yul\":18160:18169   */\n      add\n        /* \"#utility.yul\":18153:18169   */\n      swap1\n      pop\n        /* \"#utility.yul\":18188:18191   */\n      dup1\n        /* \"#utility.yul\":18185:18186   */\n      dup3\n        /* \"#utility.yul\":18182:18192   */\n      gt\n        /* \"#utility.yul\":18179:18215   */\n      iszero\n      tag_577\n      jumpi\n        /* \"#utility.yul\":18195:18213   */\n      tag_578\n      tag_351\n      jump\t// in\n    tag_578:\n        /* \"#utility.yul\":18179:18215   */\n    tag_577:\n        /* \"#utility.yul\":18031:18222   */\n      swap3\n      swap2\n      pop\n      pop\n      jump\t// out\n        /* \"#utility.yul\":18252:18569   */\n    tag_355:\n        /* \"#utility.yul\":18350:18353   */\n      0x00\n        /* \"#utility.yul\":18371:18442   */\n      tag_580\n        /* \"#utility.yul\":18435:18441   */\n      dup4\n        /* \"#utility.yul\":18430:18433   */\n      dup6\n        /* \"#utility.yul\":18371:18442   */\n      tag_348\n      jump\t// in\n    tag_580:\n        /* \"#utility.yul\":18364:18442   */\n      swap4\n      pop\n        /* \"#utility.yul\":18452:18508   */\n      tag_581\n        /* \"#utility.yul\":18501:18507   */\n      dup4\n        /* \"#utility.yul\":18496:18499   */\n      dup6\n        /* \"#utility.yul\":18489:18494   */\n      dup5\n        /* \"#utility.yul\":18452:18508   */\n      tag_319\n      jump\t// in\n    tag_581:\n        /* \"#utility.yul\":18533:18562   */\n      tag_582\n        /* \"#utility.yul\":18555:18561   */\n      dup4\n        /* \"#utility.yul\":18533:18562   */\n      tag_315\n      jump\t// in\n    tag_582:\n        /* \"#utility.yul\":18528:18531   */\n      dup5\n        /* \"#utility.yul\":18524:18563   */\n      add\n        /* \"#utility.yul\":18517:18563   */\n      swap1\n      pop\n        /* \"#utility.yul\":18252:18569   */\n      swap4\n      swap3\n      pop\n      pop\n      pop\n      jump\t// out\n        /* \"#utility.yul\":18575:19018   */\n    tag_108:\n        /* \"#utility.yul\":18726:18730   */\n      0x00\n        /* \"#utility.yul\":18764:18766   */\n      0x40\n        /* \"#utility.yul\":18753:18762   */\n      dup3\n        /* \"#utility.yul\":18749:18767   */\n      add\n        /* \"#utility.yul\":18741:18767   */\n      swap1\n      pop\n        /* \"#utility.yul\":18813:18822   */\n      dup2\n        /* \"#utility.yul\":18807:18811   */\n      dup2\n        /* \"#utility.yul\":18803:18823   */\n      sub\n        /* \"#utility.yul\":18799:18800   */\n      0x00\n        /* \"#utility.yul\":18788:18797   */\n      dup4\n        /* \"#utility.yul\":18784:18801   */\n      add\n        /* \"#utility.yul\":18777:18824   */\n      mstore\n        /* \"#utility.yul\":18841:18929   */\n      tag_584\n        /* \"#utility.yul\":18924:18928   */\n      dup2\n        /* \"#utility.yul\":18915:18921   */\n      dup6\n        /* \"#utility.yul\":18907:18913   */\n      dup8\n        /* \"#utility.yul\":18841:18929   */\n      tag_355\n      jump\t// in\n    tag_584:\n        /* \"#utility.yul\":18833:18929   */\n      swap1\n      pop\n        /* \"#utility.yul\":18939:19011   */\n      tag_585\n        /* \"#utility.yul\":19007:19009   */\n      0x20\n        /* \"#utility.yul\":18996:19005   */\n      dup4\n        /* \"#utility.yul\":18992:19010   */\n      add\n        /* \"#utility.yul\":18983:18989   */\n      dup5\n        /* \"#utility.yul\":18939:19011   */\n      tag_323\n      jump\t// in\n    tag_585:\n        /* \"#utility.yul\":18575:19018   */\n      swap5\n      swap4\n      pop\n      pop\n      pop\n      pop\n      jump\t// out\n        /* \"#utility.yul\":19024:19218   */\n    tag_111:\n        /* \"#utility.yul\":19064:19068   */\n      0x00\n        /* \"#utility.yul\":19084:19104   */\n      tag_587\n        /* \"#utility.yul\":19102:19103   */\n      dup3\n        /* \"#utility.yul\":19084:19104   */\n      tag_322\n      jump\t// in\n    tag_587:\n        /* \"#utility.yul\":19079:19104   */\n      swap2\n      pop\n        /* \"#utility.yul\":19118:19138   */\n      tag_588\n        /* \"#utility.yul\":19136:19137   */\n      dup4\n        /* \"#utility.yul\":19118:19138   */\n      tag_322\n      jump\t// in\n    tag_588:\n        /* \"#utility.yul\":19113:19138   */\n      swap3\n      pop\n        /* \"#utility.yul\":19162:19163   */\n      dup3\n        /* \"#utility.yul\":19159:19160   */\n      dup3\n        /* \"#utility.yul\":19155:19164   */\n      sub\n        /* \"#utility.yul\":19147:19164   */\n      swap1\n      pop\n        /* \"#utility.yul\":19186:19187   */\n      dup2\n        /* \"#utility.yul\":19180:19184   */\n      dup2\n        /* \"#utility.yul\":19177:19188   */\n      gt\n        /* \"#utility.yul\":19174:19211   */\n      iszero\n      tag_589\n      jumpi\n        /* \"#utility.yul\":19191:19209   */\n      tag_590\n      tag_351\n      jump\t// in\n    tag_590:\n        /* \"#utility.yul\":19174:19211   */\n    tag_589:\n        /* \"#utility.yul\":19024:19218   */\n      swap3\n      swap2\n      pop\n      pop\n      jump\t// out\n        /* \"#utility.yul\":19224:19458   */\n    tag_356:\n        /* \"#utility.yul\":19364:19398   */\n      0x4f6e6c792074686520636f6e7472616374206f776e65722063616e2063616c6c\n        /* \"#utility.yul\":19360:19361   */\n      0x00\n        /* \"#utility.yul\":19352:19358   */\n      dup3\n        /* \"#utility.yul\":19348:19362   */\n      add\n        /* \"#utility.yul\":19341:19399   */\n      mstore\n        /* \"#utility.yul\":19433:19450   */\n      0x20746869732066756e6374696f6e2e0000000000000000000000000000000000\n        /* \"#utility.yul\":19428:19430   */\n      0x20\n        /* \"#utility.yul\":19420:19426   */\n      dup3\n        /* \"#utility.yul\":19416:19431   */\n      add\n        /* \"#utility.yul\":19409:19451   */\n      mstore\n        /* \"#utility.yul\":19224:19458   */\n      pop\n      jump\t// out\n        /* \"#utility.yul\":19464:19830   */\n    tag_357:\n        /* \"#utility.yul\":19606:19609   */\n      0x00\n        /* \"#utility.yul\":19627:19694   */\n      tag_593\n        /* \"#utility.yul\":19691:19693   */\n      0x2f\n        /* \"#utility.yul\":19686:19689   */\n      dup4\n        /* \"#utility.yul\":19627:19694   */\n      tag_348\n      jump\t// in\n    tag_593:\n        /* \"#utility.yul\":19620:19694   */\n      swap2\n      pop\n        /* \"#utility.yul\":19703:19796   */\n      tag_594\n        /* \"#utility.yul\":19792:19795   */\n      dup3\n        /* \"#utility.yul\":19703:19796   */\n      tag_356\n      jump\t// in\n    tag_594:\n        /* \"#utility.yul\":19821:19823   */\n      0x40\n        /* \"#utility.yul\":19816:19819   */\n      dup3\n        /* \"#utility.yul\":19812:19824   */\n      add\n        /* \"#utility.yul\":19805:19824   */\n      swap1\n      pop\n        /* \"#utility.yul\":19464:19830   */\n      swap2\n      swap1\n      pop\n      jump\t// out\n        /* \"#utility.yul\":19836:20255   */\n    tag_121:\n        /* \"#utility.yul\":20002:20006   */\n      0x00\n        /* \"#utility.yul\":20040:20042   */\n      0x20\n        /* \"#utility.yul\":20029:20038   */\n      dup3\n        /* \"#utility.yul\":20025:20043   */\n      add\n        /* \"#utility.yul\":20017:20043   */\n      swap1\n      pop\n        /* \"#utility.yul\":20089:20098   */\n      dup2\n        /* \"#utility.yul\":20083:20087   */\n      dup2\n        /* \"#utility.yul\":20079:20099   */\n      sub\n        /* \"#utility.yul\":20075:20076   */\n      0x00\n        /* \"#utility.yul\":20064:20073   */\n      dup4\n        /* \"#utility.yul\":20060:20077   */\n      add\n        /* \"#utility.yul\":20053:20100   */\n      mstore\n        /* \"#utility.yul\":20117:20248   */\n      tag_596\n        /* \"#utility.yul\":20243:20247   */\n      dup2\n        /* \"#utility.yul\":20117:20248   */\n      tag_357\n      jump\t// in\n    tag_596:\n        /* \"#utility.yul\":20109:20248   */\n      swap1\n      pop\n        /* \"#utility.yul\":19836:20255   */\n      swap2\n      swap1\n      pop\n      jump\t// out\n        /* \"#utility.yul\":20261:20430   */\n    tag_358:\n        /* \"#utility.yul\":20401:20422   */\n      0x446f6d61696e2068617320657870697265642e00000000000000000000000000\n        /* \"#utility.yul\":20397:20398   */\n      0x00\n        /* \"#utility.yul\":20389:20395   */\n      dup3\n        /* \"#utility.yul\":20385:20399   */\n      add\n        /* \"#utility.yul\":20378:20423   */\n      mstore\n        /* \"#utility.yul\":20261:20430   */\n      pop\n      jump\t// out\n        /* \"#utility.yul\":20436:20802   */\n    tag_359:\n        /* \"#utility.yul\":20578:20581   */\n      0x00\n        /* \"#utility.yul\":20599:20666   */\n      tag_599\n        /* \"#utility.yul\":20663:20665   */\n      0x13\n        /* \"#utility.yul\":20658:20661   */\n      dup4\n        /* \"#utility.yul\":20599:20666   */\n      tag_348\n      jump\t// in\n    tag_599:\n        /* \"#utility.yul\":20592:20666   */\n      swap2\n      pop\n        /* \"#utility.yul\":20675:20768   */\n      tag_600\n        /* \"#utility.yul\":20764:20767   */\n      dup3\n        /* \"#utility.yul\":20675:20768   */\n      tag_358\n      jump\t// in\n    tag_600:\n        /* \"#utility.yul\":20793:20795   */\n      0x20\n        /* \"#utility.yul\":20788:20791   */\n      dup3\n        /* \"#utility.yul\":20784:20796   */\n      add\n        /* \"#utility.yul\":20777:20796   */\n      swap1\n      pop\n        /* \"#utility.yul\":20436:20802   */\n      swap2\n      swap1\n      pop\n      jump\t// out\n        /* \"#utility.yul\":20808:21227   */\n    tag_143:\n        /* \"#utility.yul\":20974:20978   */\n      0x00\n        /* \"#utility.yul\":21012:21014   */\n      0x20\n        /* \"#utility.yul\":21001:21010   */\n      dup3\n        /* \"#utility.yul\":20997:21015   */\n      add\n        /* \"#utility.yul\":20989:21015   */\n      swap1\n      pop\n        /* \"#utility.yul\":21061:21070   */\n      dup2\n        /* \"#utility.yul\":21055:21059   */\n      dup2\n        /* \"#utility.yul\":21051:21071   */\n      sub\n        /* \"#utility.yul\":21047:21048   */\n      0x00\n        /* \"#utility.yul\":21036:21045   */\n      dup4\n        /* \"#utility.yul\":21032:21049   */\n      add\n        /* \"#utility.yul\":21025:21072   */\n      mstore\n        /* \"#utility.yul\":21089:21220   */\n      tag_602\n        /* \"#utility.yul\":21215:21219   */\n      dup2\n        /* \"#utility.yul\":21089:21220   */\n      tag_359\n      jump\t// in\n    tag_602:\n        /* \"#utility.yul\":21081:21220   */\n      swap1\n      pop\n        /* \"#utility.yul\":20808:21227   */\n      swap2\n      swap1\n      pop\n      jump\t// out\n        /* \"#utility.yul\":21233:21566   */\n    tag_146:\n        /* \"#utility.yul\":21356:21360   */\n      0x00\n        /* \"#utility.yul\":21394:21396   */\n      0x20\n        /* \"#utility.yul\":21383:21392   */\n      dup3\n        /* \"#utility.yul\":21379:21397   */\n      add\n        /* \"#utility.yul\":21371:21397   */\n      swap1\n      pop\n        /* \"#utility.yul\":21443:21452   */\n      dup2\n        /* \"#utility.yul\":21437:21441   */\n      dup2\n        /* \"#utility.yul\":21433:21453   */\n      sub\n        /* \"#utility.yul\":21429:21430   */\n      0x00\n        /* \"#utility.yul\":21418:21427   */\n      dup4\n        /* \"#utility.yul\":21414:21431   */\n      add\n        /* \"#utility.yul\":21407:21454   */\n      mstore\n        /* \"#utility.yul\":21471:21559   */\n      tag_604\n        /* \"#utility.yul\":21554:21558   */\n      dup2\n        /* \"#utility.yul\":21545:21551   */\n      dup5\n        /* \"#utility.yul\":21537:21543   */\n      dup7\n        /* \"#utility.yul\":21471:21559   */\n      tag_355\n      jump\t// in\n    tag_604:\n        /* \"#utility.yul\":21463:21559   */\n      swap1\n      pop\n        /* \"#utility.yul\":21233:21566   */\n      swap4\n      swap3\n      pop\n      pop\n      pop\n      jump\t// out\n        /* \"#utility.yul\":21572:21669   */\n    tag_360:\n        /* \"#utility.yul\":21631:21637   */\n      0x00\n        /* \"#utility.yul\":21659:21662   */\n      dup3\n        /* \"#utility.yul\":21649:21662   */\n      swap1\n      pop\n        /* \"#utility.yul\":21572:21669   */\n      swap3\n      swap2\n      pop\n      pop\n      jump\t// out\n        /* \"#utility.yul\":21675:21855   */\n    tag_361:\n        /* \"#utility.yul\":21723:21800   */\n      0x4e487b7100000000000000000000000000000000000000000000000000000000\n        /* \"#utility.yul\":21720:21721   */\n      0x00\n        /* \"#utility.yul\":21713:21801   */\n      mstore\n        /* \"#utility.yul\":21820:21824   */\n      0x22\n        /* \"#utility.yul\":21817:21818   */\n      0x04\n        /* \"#utility.yul\":21810:21825   */\n      mstore\n        /* \"#utility.yul\":21844:21848   */\n      0x24\n        /* \"#utility.yul\":21841:21842   */\n      0x00\n        /* \"#utility.yul\":21834:21849   */\n      revert\n        /* \"#utility.yul\":21861:22181   */\n    tag_217:\n        /* \"#utility.yul\":21905:21911   */\n      0x00\n        /* \"#utility.yul\":21942:21943   */\n      0x02\n        /* \"#utility.yul\":21936:21940   */\n      dup3\n        /* \"#utility.yul\":21932:21944   */\n      div\n        /* \"#utility.yul\":21922:21944   */\n      swap1\n      pop\n        /* \"#utility.yul\":21989:21990   */\n      0x01\n        /* \"#utility.yul\":21983:21987   */\n      dup3\n        /* \"#utility.yul\":21979:21991   */\n      and\n        /* \"#utility.yul\":22010:22028   */\n      dup1\n        /* \"#utility.yul\":22000:22081   */\n      tag_608\n      jumpi\n        /* \"#utility.yul\":22066:22070   */\n      0x7f\n        /* \"#utility.yul\":22058:22064   */\n      dup3\n        /* \"#utility.yul\":22054:22071   */\n      and\n        /* \"#utility.yul\":22044:22071   */\n      swap2\n      pop\n        /* \"#utility.yul\":22000:22081   */\n    tag_608:\n        /* \"#utility.yul\":22128:22130   */\n      0x20\n        /* \"#utility.yul\":22120:22126   */\n      dup3\n        /* \"#utility.yul\":22117:22131   */\n      lt\n        /* \"#utility.yul\":22097:22115   */\n      dup2\n        /* \"#utility.yul\":22094:22132   */\n      sub\n        /* \"#utility.yul\":22091:22175   */\n      tag_609\n      jumpi\n        /* \"#utility.yul\":22147:22165   */\n      tag_610\n      tag_361\n      jump\t// in\n    tag_610:\n        /* \"#utility.yul\":22091:22175   */\n    tag_609:\n        /* \"#utility.yul\":21912:22181   */\n      pop\n        /* \"#utility.yul\":21861:22181   */\n      swap2\n      swap1\n      pop\n      jump\t// out\n        /* \"#utility.yul\":22187:22328   */\n    tag_362:\n        /* \"#utility.yul\":22236:22240   */\n      0x00\n        /* \"#utility.yul\":22259:22262   */\n      dup2\n        /* \"#utility.yul\":22251:22262   */\n      swap1\n      pop\n        /* \"#utility.yul\":22282:22285   */\n      dup2\n        /* \"#utility.yul\":22279:22280   */\n      0x00\n        /* \"#utility.yul\":22272:22286   */\n      mstore\n        /* \"#utility.yul\":22316:22320   */\n      0x20\n        /* \"#utility.yul\":22313:22314   */\n      0x00\n        /* \"#utility.yul\":22303:22321   */\n      keccak256\n        /* \"#utility.yul\":22295:22321   */\n      swap1\n      pop\n        /* \"#utility.yul\":22187:22328   */\n      swap2\n      swap1\n      pop\n      jump\t// out\n        /* \"#utility.yul\":22334:22427   */\n    tag_363:\n        /* \"#utility.yul\":22371:22377   */\n      0x00\n        /* \"#utility.yul\":22418:22420   */\n      0x20\n        /* \"#utility.yul\":22413:22415   */\n      0x1f\n        /* \"#utility.yul\":22406:22411   */\n      dup4\n        /* \"#utility.yul\":22402:22416   */\n      add\n        /* \"#utility.yul\":22398:22421   */\n      div\n        /* \"#utility.yul\":22388:22421   */\n      swap1\n      pop\n        /* \"#utility.yul\":22334:22427   */\n      swap2\n      swap1\n      pop\n      jump\t// out\n        /* \"#utility.yul\":22433:22540   */\n    tag_364:\n        /* \"#utility.yul\":22477:22485   */\n      0x00\n        /* \"#utility.yul\":22527:22532   */\n      dup3\n        /* \"#utility.yul\":22521:22525   */\n      dup3\n        /* \"#utility.yul\":22517:22533   */\n      shl\n        /* \"#utility.yul\":22496:22533   */\n      swap1\n      pop\n        /* \"#utility.yul\":22433:22540   */\n      swap3\n      swap2\n      pop\n      pop\n      jump\t// out\n        /* \"#utility.yul\":22546:22939   */\n    tag_365:\n        /* \"#utility.yul\":22615:22621   */\n      0x00\n        /* \"#utility.yul\":22665:22666   */\n      0x08\n        /* \"#utility.yul\":22653:22663   */\n      dup4\n        /* \"#utility.yul\":22649:22667   */\n      mul\n        /* \"#utility.yul\":22688:22785   */\n      tag_615\n        /* \"#utility.yul\":22718:22784   */\n      0xffffffffffffffffffffffffffffffffffffffffffffffffffffffffffffffff\n        /* \"#utility.yul\":22707:22716   */\n      dup3\n        /* \"#utility.yul\":22688:22785   */\n      tag_364\n      jump\t// in\n    tag_615:\n        /* \"#utility.yul\":22806:22845   */\n      tag_616\n        /* \"#utility.yul\":22836:22844   */\n      dup7\n        /* \"#utility.yul\":22825:22834   */\n      dup4\n        /* \"#utility.yul\":22806:22845   */\n      tag_364\n      jump\t// in\n    tag_616:\n        /* \"#utility.yul\":22794:22845   */\n      swap6\n      pop\n        /* \"#utility.yul\":22878:22882   */\n      dup1\n        /* \"#utility.yul\":22874:22883   */\n      not\n        /* \"#utility.yul\":22867:22872   */\n      dup5\n        /* \"#utility.yul\":22863:22884   */\n      and\n        /* \"#utility.yul\":22854:22884   */\n      swap4\n      pop\n        /* \"#utility.yul\":22927:22931   */\n      dup1\n        /* \"#utility.yul\":22917:22925   */\n      dup7\n        /* \"#utility.yul\":22913:22932   */\n      and\n        /* \"#utility.yul\":22906:22911   */\n      dup5\n        /* \"#utility.yul\":22903:22933   */\n      or\n        /* \"#utility.yul\":22893:22933   */\n      swap3\n      pop\n        /* \"#utility.yul\":22622:22939   */\n      pop\n      pop\n        /* \"#utility.yul\":22546:22939   */\n      swap4\n      swap3\n      pop\n      pop\n      pop\n      jump\t// out\n        /* \"#utility.yul\":22945:23005   */\n    tag_366:\n        /* \"#utility.yul\":22973:22976   */\n      0x00\n        /* \"#utility.yul\":22994:22999   */\n      dup2\n        /* \"#utility.yul\":22987:22999   */\n      swap1\n      pop\n        /* \"#utility.yul\":22945:23005   */\n      swap2\n      swap1\n      pop\n      jump\t// out\n        /* \"#utility.yul\":23011:23153   */\n    tag_367:\n        /* \"#utility.yul\":23061:23070   */\n      0x00\n        /* \"#utility.yul\":23094:23147   */\n      tag_619\n        /* \"#utility.yul\":23112:23146   */\n      tag_620\n        /* \"#utility.yul\":23121:23145   */\n      tag_621\n        /* \"#utility.yul\":23139:23144   */\n      dup5\n        /* \"#utility.yul\":23121:23145   */\n      tag_322\n      jump\t// in\n    tag_621:\n        /* \"#utility.yul\":23112:23146   */\n      tag_366\n      jump\t// in\n    tag_620:\n        /* \"#utility.yul\":23094:23147   */\n      tag_322\n      jump\t// in\n    tag_619:\n        /* \"#utility.yul\":23081:23147   */\n      swap1\n      pop\n        /* \"#utility.yul\":23011:23153   */\n      swap2\n      swap1\n      pop\n      jump\t// out\n        /* \"#utility.yul\":23159:23234   */\n    tag_368:\n        /* \"#utility.yul\":23202:23205   */\n      0x00\n        /* \"#utility.yul\":23223:23228   */\n      dup2\n        /* \"#utility.yul\":23216:23228   */\n      swap1\n      pop\n        /* \"#utility.yul\":23159:23234   */\n      swap2\n      swap1\n      pop\n      jump\t// out\n        /* \"#utility.yul\":23240:23509   */\n    tag_369:\n        /* \"#utility.yul\":23350:23389   */\n      tag_624\n        /* \"#utility.yul\":23381:23388   */\n      dup4\n        /* \"#utility.yul\":23350:23389   */\n      tag_367\n      jump\t// in\n    tag_624:\n        /* \"#utility.yul\":23411:23502   */\n      tag_625\n        /* \"#utility.yul\":23460:23501   */\n      tag_626\n        /* \"#utility.yul\":23484:23500   */\n      dup3\n        /* \"#utility.yul\":23460:23501   */\n      tag_368\n      jump\t// in\n    tag_626:\n        /* \"#utility.yul\":23452:23458   */\n      dup5\n        /* \"#utility.yul\":23445:23449   */\n      dup5\n        /* \"#utility.yul\":23439:23450   */\n      sload\n        /* \"#utility.yul\":23411:23502   */\n      tag_365\n      jump\t// in\n    tag_625:\n        /* \"#utility.yul\":23405:23409   */\n      dup3\n        /* \"#utility.yul\":23398:23503   */\n      sstore\n        /* \"#utility.yul\":23316:23509   */\n      pop\n        /* \"#utility.yul\":23240:23509   */\n      pop\n      pop\n      pop\n      jump\t// out\n        /* \"#utility.yul\":23515:23588   */\n    tag_370:\n        /* \"#utility.yul\":23560:23563   */\n      0x00\n        /* \"#utility.yul\":23515:23588   */\n      swap1\n      jump\t// out\n        /* \"#utility.yul\":23594:23783   */\n    tag_371:\n        /* \"#utility.yul\":23671:23703   */\n      tag_629\n      tag_370\n      jump\t// in\n    tag_629:\n        /* \"#utility.yul\":23712:23777   */\n      tag_630\n        /* \"#utility.yul\":23770:23776   */\n      dup2\n        /* \"#utility.yul\":23762:23768   */\n      dup5\n        /* \"#utility.yul\":23756:23760   */\n      dup5\n        /* \"#utility.yul\":23712:23777   */\n      tag_369\n      jump\t// in\n    tag_630:\n        /* \"#utility.yul\":23647:23783   */\n      pop\n        /* \"#utility.yul\":23594:23783   */\n      pop\n      pop\n      jump\t// out\n        /* \"#utility.yul\":23789:23975   */\n    tag_372:\n        /* \"#utility.yul\":23849:23969   */\n    tag_632:\n        /* \"#utility.yul\":23866:23869   */\n      dup2\n        /* \"#utility.yul\":23859:23864   */\n      dup2\n        /* \"#utility.yul\":23856:23870   */\n      lt\n        /* \"#utility.yul\":23849:23969   */\n      iszero\n      tag_634\n      jumpi\n        /* \"#utility.yul\":23920:23959   */\n      tag_635\n        /* \"#utility.yul\":23957:23958   */\n      0x00\n        /* \"#utility.yul\":23950:23955   */\n      dup3\n        /* \"#utility.yul\":23920:23959   */\n      tag_371\n      jump\t// in\n    tag_635:\n        /* \"#utility.yul\":23893:23894   */\n      0x01\n        /* \"#utility.yul\":23886:23891   */\n      dup2\n        /* \"#utility.yul\":23882:23895   */\n      add\n        /* \"#utility.yul\":23873:23895   */\n      swap1\n      pop\n        /* \"#utility.yul\":23849:23969   */\n      jump(tag_632)\n    tag_634:\n        /* \"#utility.yul\":23789:23975   */\n      pop\n      pop\n      jump\t// out\n        /* \"#utility.yul\":23981:24524   */\n    tag_373:\n        /* \"#utility.yul\":24082:24084   */\n      0x1f\n        /* \"#utility.yul\":24077:24080   */\n      dup3\n        /* \"#utility.yul\":24074:24085   */\n      gt\n        /* \"#utility.yul\":24071:24517   */\n      iszero\n      tag_637\n      jumpi\n        /* \"#utility.yul\":24116:24154   */\n      tag_638\n        /* \"#utility.yul\":24148:24153   */\n      dup2\n        /* \"#utility.yul\":24116:24154   */\n      tag_362\n      jump\t// in\n    tag_638:\n        /* \"#utility.yul\":24200:24229   */\n      tag_639\n        /* \"#utility.yul\":24218:24228   */\n      dup5\n        /* \"#utility.yul\":24200:24229   */\n      tag_363\n      jump\t// in\n    tag_639:\n        /* \"#utility.yul\":24190:24198   */\n      dup2\n        /* \"#utility.yul\":24186:24230   */\n      add\n        /* \"#utility.yul\":24383:24385   */\n      0x20\n        /* \"#utility.yul\":24371:24381   */\n      dup6\n        /* \"#utility.yul\":24368:24386   */\n      lt\n        /* \"#utility.yul\":24365:24414   */\n      iszero\n      tag_640\n      jumpi\n        /* \"#utility.yul\":24404:24412   */\n      dup2\n        /* \"#utility.yul\":24389:24412   */\n      swap1\n      pop\n        /* \"#utility.yul\":24365:24414   */\n    tag_640:\n        /* \"#utility.yul\":24427:24507   */\n      tag_641\n        /* \"#utility.yul\":24483:24505   */\n      tag_642\n        /* \"#utility.yul\":24501:24504   */\n      dup6\n        /* \"#utility.yul\":24483:24505   */\n      tag_363\n      jump\t// in\n    tag_642:\n        /* \"#utility.yul\":24473:24481   */\n      dup4\n        /* \"#utility.yul\":24469:24506   */\n      add\n        /* \"#utility.yul\":24456:24467   */\n      dup3\n        /* \"#utility.yul\":24427:24507   */\n      tag_372\n      jump\t// in\n    tag_641:\n        /* \"#utility.yul\":24086:24517   */\n      pop\n      pop\n        /* \"#utility.yul\":24071:24517   */\n    tag_637:\n        /* \"#utility.yul\":23981:24524   */\n      pop\n      pop\n      pop\n      jump\t// out\n        /* \"#utility.yul\":24530:24647   */\n    tag_374:\n        /* \"#utility.yul\":24584:24592   */\n      0x00\n        /* \"#utility.yul\":24634:24639   */\n      dup3\n        /* \"#utility.yul\":24628:24632   */\n      dup3\n        /* \"#utility.yul\":24624:24640   */\n      shr\n        /* \"#utility.yul\":24603:24640   */\n      swap1\n      pop\n        /* \"#utility.yul\":24530:24647   */\n      swap3\n      swap2\n      pop\n      pop\n      jump\t// out\n        /* \"#utility.yul\":24653:24822   */\n    tag_375:\n        /* \"#utility.yul\":24697:24703   */\n      0x00\n        /* \"#utility.yul\":24730:24781   */\n      tag_645\n        /* \"#utility.yul\":24778:24779   */\n      0x00\n        /* \"#utility.yul\":24774:24780   */\n      not\n        /* \"#utility.yul\":24766:24771   */\n      dup5\n        /* \"#utility.yul\":24763:24764   */\n      0x08\n        /* \"#utility.yul\":24759:24772   */\n      mul\n        /* \"#utility.yul\":24730:24781   */\n      tag_374\n      jump\t// in\n    tag_645:\n        /* \"#utility.yul\":24726:24782   */\n      not\n        /* \"#utility.yul\":24811:24815   */\n      dup1\n        /* \"#utility.yul\":24805:24809   */\n      dup4\n        /* \"#utility.yul\":24801:24816   */\n      and\n        /* \"#utility.yul\":24791:24816   */\n      swap2\n      pop\n        /* \"#utility.yul\":24704:24822   */\n      pop\n        /* \"#utility.yul\":24653:24822   */\n      swap3\n      swap2\n      pop\n      pop\n      jump\t// out\n        /* \"#utility.yul\":24827:25122   */\n    tag_376:\n        /* \"#utility.yul\":24903:24907   */\n      0x00\n        /* \"#utility.yul\":25049:25078   */\n      tag_647\n        /* \"#utility.yul\":25074:25077   */\n      dup4\n        /* \"#utility.yul\":25068:25072   */\n      dup4\n        /* \"#utility.yul\":25049:25078   */\n      tag_375\n      jump\t// in\n    tag_647:\n        /* \"#utility.yul\":25041:25078   */\n      swap2\n      pop\n        /* \"#utility.yul\":25111:25114   */\n      dup3\n        /* \"#utility.yul\":25108:25109   */\n      0x02\n        /* \"#utility.yul\":25104:25115   */\n      mul\n        /* \"#utility.yul\":25098:25102   */\n      dup3\n        /* \"#utility.yul\":25095:25116   */\n      or\n        /* \"#utility.yul\":25087:25116   */\n      swap1\n      pop\n        /* \"#utility.yul\":24827:25122   */\n      swap3\n      swap2\n      pop\n      pop\n      jump\t// out\n        /* \"#utility.yul\":25127:26530   */\n    tag_161:\n        /* \"#utility.yul\":25251:25295   */\n      tag_649\n        /* \"#utility.yul\":25291:25294   */\n      dup4\n        /* \"#utility.yul\":25286:25289   */\n      dup4\n        /* \"#utility.yul\":25251:25295   */\n      tag_360\n      jump\t// in\n    tag_649:\n        /* \"#utility.yul\":25360:25378   */\n      0xffffffffffffffff\n        /* \"#utility.yul\":25352:25358   */\n      dup2\n        /* \"#utility.yul\":25349:25379   */\n      gt\n        /* \"#utility.yul\":25346:25402   */\n      iszero\n      tag_650\n      jumpi\n        /* \"#utility.yul\":25382:25400   */\n      tag_651\n      tag_239\n      jump\t// in\n    tag_651:\n        /* \"#utility.yul\":25346:25402   */\n    tag_650:\n        /* \"#utility.yul\":25426:25464   */\n      tag_652\n        /* \"#utility.yul\":25458:25462   */\n      dup3\n        /* \"#utility.yul\":25452:25463   */\n      sload\n        /* \"#utility.yul\":25426:25464   */\n      tag_217\n      jump\t// in\n    tag_652:\n        /* \"#utility.yul\":25511:25578   */\n      tag_653\n        /* \"#utility.yul\":25571:25577   */\n      dup3\n        /* \"#utility.yul\":25563:25569   */\n      dup3\n        /* \"#utility.yul\":25557:25561   */\n      dup6\n        /* \"#utility.yul\":25511:25578   */\n      tag_373\n      jump\t// in\n    tag_653:\n        /* \"#utility.yul\":25605:25606   */\n      0x00\n        /* \"#utility.yul\":25634:25636   */\n      0x1f\n        /* \"#utility.yul\":25626:25632   */\n      dup4\n        /* \"#utility.yul\":25623:25637   */\n      gt\n        /* \"#utility.yul\":25651:25652   */\n      0x01\n        /* \"#utility.yul\":25646:26278   */\n      dup2\n      eq\n      tag_655\n      jumpi\n        /* \"#utility.yul\":26322:26323   */\n      0x00\n        /* \"#utility.yul\":26339:26345   */\n      dup5\n        /* \"#utility.yul\":26336:26420   */\n      iszero\n      tag_656\n      jumpi\n        /* \"#utility.yul\":26395:26404   */\n      dup3\n        /* \"#utility.yul\":26390:26393   */\n      dup8\n        /* \"#utility.yul\":26386:26405   */\n      add\n        /* \"#utility.yul\":26373:26406   */\n      calldataload\n        /* \"#utility.yul\":26364:26406   */\n      swap1\n      pop\n        /* \"#utility.yul\":26336:26420   */\n    tag_656:\n        /* \"#utility.yul\":26446:26513   */\n      tag_657\n        /* \"#utility.yul\":26506:26512   */\n      dup6\n        /* \"#utility.yul\":26499:26504   */\n      dup3\n        /* \"#utility.yul\":26446:26513   */\n      tag_376\n      jump\t// in\n    tag_657:\n        /* \"#utility.yul\":26440:26444   */\n      dup7\n        /* \"#utility.yul\":26433:26514   */\n      sstore\n        /* \"#utility.yul\":26295:26524   */\n      pop\n        /* \"#utility.yul\":25616:26524   */\n      jump(tag_654)\n        /* \"#utility.yul\":25646:26278   */\n    tag_655:\n        /* \"#utility.yul\":25698:25702   */\n      0x1f\n        /* \"#utility.yul\":25694:25703   */\n      not\n        /* \"#utility.yul\":25686:25692   */\n      dup5\n        /* \"#utility.yul\":25682:25704   */\n      and\n        /* \"#utility.yul\":25732:25769   */\n      tag_658\n        /* \"#utility.yul\":25764:25768   */\n      dup7\n        /* \"#utility.yul\":25732:25769   */\n      tag_362\n      jump\t// in\n    tag_658:\n        /* \"#utility.yul\":25791:25792   */\n      0x00\n        /* \"#utility.yul\":25805:26020   */\n    tag_659:\n        /* \"#utility.yul\":25819:25826   */\n      dup3\n        /* \"#utility.yul\":25816:25817   */\n      dup2\n        /* \"#utility.yul\":25813:25827   */\n      lt\n        /* \"#utility.yul\":25805:26020   */\n      iszero\n      tag_661\n      jumpi\n        /* \"#utility.yul\":25905:25914   */\n      dup5\n        /* \"#utility.yul\":25900:25903   */\n      dup10\n        /* \"#utility.yul\":25896:25915   */\n      add\n        /* \"#utility.yul\":25883:25916   */\n      calldataload\n        /* \"#utility.yul\":25875:25881   */\n      dup3\n        /* \"#utility.yul\":25868:25917   */\n      sstore\n        /* \"#utility.yul\":25956:25957   */\n      0x01\n        /* \"#utility.yul\":25948:25954   */\n      dup3\n        /* \"#utility.yul\":25944:25958   */\n      add\n        /* \"#utility.yul\":25934:25958   */\n      swap2\n      pop\n        /* \"#utility.yul\":26003:26005   */\n      0x20\n        /* \"#utility.yul\":25992:26001   */\n      dup6\n        /* \"#utility.yul\":25988:26006   */\n      add\n        /* \"#utility.yul\":25975:26006   */\n      swap5\n      pop\n        /* \"#utility.yul\":25842:25846   */\n      0x20\n        /* \"#utility.yul\":25839:25840   */\n      dup2\n        /* \"#utility.yul\":25835:25847   */\n      add\n        /* \"#utility.yul\":25830:25847   */\n      swap1\n      pop\n        /* \"#utility.yul\":25805:26020   */\n      jump(tag_659)\n    tag_661:\n        /* \"#utility.yul\":26048:26054   */\n      dup7\n        /* \"#utility.yul\":26039:26046   */\n      dup4\n        /* \"#utility.yul\":26036:26055   */\n      lt\n        /* \"#utility.yul\":26033:26219   */\n      iszero\n      tag_662\n      jumpi\n        /* \"#utility.yul\":26113:26122   */\n      dup5\n        /* \"#utility.yul\":26108:26111   */\n      dup10\n        /* \"#utility.yul\":26104:26123   */\n      add\n        /* \"#utility.yul\":26091:26124   */\n      calldataload\n        /* \"#utility.yul\":26156:26204   */\n      tag_663\n        /* \"#utility.yul\":26198:26202   */\n      0x1f\n        /* \"#utility.yul\":26190:26196   */\n      dup10\n        /* \"#utility.yul\":26186:26203   */\n      and\n        /* \"#utility.yul\":26175:26184   */\n      dup3\n        /* \"#utility.yul\":26156:26204   */\n      tag_375\n      jump\t// in\n    tag_663:\n        /* \"#utility.yul\":26148:26154   */\n      dup4\n        /* \"#utility.yul\":26141:26205   */\n      sstore\n        /* \"#utility.yul\":26056:26219   */\n      pop\n        /* \"#utility.yul\":26033:26219   */\n    tag_662:\n        /* \"#utility.yul\":26265:26266   */\n      0x01\n        /* \"#utility.yul\":26261:26262   */\n      0x02\n        /* \"#utility.yul\":26253:26259   */\n      dup9\n        /* \"#utility.yul\":26249:26263   */\n      mul\n        /* \"#utility.yul\":26245:26267   */\n      add\n        /* \"#utility.yul\":26239:26243   */\n      dup9\n        /* \"#utility.yul\":26232:26268   */\n      sstore\n        /* \"#utility.yul\":25653:26278   */\n      pop\n      pop\n      pop\n        /* \"#utility.yul\":25616:26524   */\n    tag_654:\n      pop\n        /* \"#utility.yul\":25226:26530   */\n      pop\n      pop\n      pop\n        /* \"#utility.yul\":25127:26530   */\n      pop\n      pop\n      pop\n      jump\t// out\n        /* \"#utility.yul\":26536:26868   */\n    tag_168:\n        /* \"#utility.yul\":26657:26661   */\n      0x00\n        /* \"#utility.yul\":26695:26697   */\n      0x40\n        /* \"#utility.yul\":26684:26693   */\n      dup3\n        /* \"#utility.yul\":26680:26698   */\n      add\n        /* \"#utility.yul\":26672:26698   */\n      swap1\n      pop\n        /* \"#utility.yul\":26708:26779   */\n      tag_665\n        /* \"#utility.yul\":26776:26777   */\n      0x00\n        /* \"#utility.yul\":26765:26774   */\n      dup4\n        /* \"#utility.yul\":26761:26778   */\n      add\n        /* \"#utility.yul\":26752:26758   */\n      dup6\n        /* \"#utility.yul\":26708:26779   */\n      tag_333\n      jump\t// in\n    tag_665:\n        /* \"#utility.yul\":26789:26861   */\n      tag_666\n        /* \"#utility.yul\":26857:26859   */\n      0x20\n        /* \"#utility.yul\":26846:26855   */\n      dup4\n        /* \"#utility.yul\":26842:26860   */\n      add\n        /* \"#utility.yul\":26833:26839   */\n      dup5\n        /* \"#utility.yul\":26789:26861   */\n      tag_323\n      jump\t// in\n    tag_666:\n        /* \"#utility.yul\":26536:26868   */\n      swap4\n      swap3\n      pop\n      pop\n      pop\n      jump\t// out\n        /* \"#utility.yul\":26874:26990   */\n    tag_377:\n        /* \"#utility.yul\":26944:26965   */\n      tag_668\n        /* \"#utility.yul\":26959:26964   */\n      dup2\n        /* \"#utility.yul\":26944:26965   */\n      tag_329\n      jump\t// in\n    tag_668:\n        /* \"#utility.yul\":26937:26942   */\n      dup2\n        /* \"#utility.yul\":26934:26966   */\n      eq\n        /* \"#utility.yul\":26924:26984   */\n      tag_669\n      jumpi\n        /* \"#utility.yul\":26980:26981   */\n      0x00\n        /* \"#utility.yul\":26977:26978   */\n      dup1\n        /* \"#utility.yul\":26970:26982   */\n      revert\n        /* \"#utility.yul\":26924:26984   */\n    tag_669:\n        /* \"#utility.yul\":26874:26990   */\n      pop\n      jump\t// out\n        /* \"#utility.yul\":26996:27133   */\n    tag_378:\n        /* \"#utility.yul\":27050:27055   */\n      0x00\n        /* \"#utility.yul\":27081:27087   */\n      dup2\n        /* \"#utility.yul\":27075:27088   */\n      mload\n        /* \"#utility.yul\":27066:27088   */\n      swap1\n      pop\n        /* \"#utility.yul\":27097:27127   */\n      tag_671\n        /* \"#utility.yul\":27121:27126   */\n      dup2\n        /* \"#utility.yul\":27097:27127   */\n      tag_377\n      jump\t// in\n    tag_671:\n        /* \"#utility.yul\":26996:27133   */\n      swap3\n      swap2\n      pop\n      pop\n      jump\t// out\n        /* \"#utility.yul\":27139:27484   */\n    tag_172:\n        /* \"#utility.yul\":27206:27212   */\n      0x00\n        /* \"#utility.yul\":27255:27257   */\n      0x20\n        /* \"#utility.yul\":27243:27252   */\n      dup3\n        /* \"#utility.yul\":27234:27241   */\n      dup5\n        /* \"#utility.yul\":27230:27253   */\n      sub\n        /* \"#utility.yul\":27226:27258   */\n      slt\n        /* \"#utility.yul\":27223:27342   */\n      iszero\n      tag_673\n      jumpi\n        /* \"#utility.yul\":27261:27340   */\n      tag_674\n      tag_311\n      jump\t// in\n    tag_674:\n        /* \"#utility.yul\":27223:27342   */\n    tag_673:\n        /* \"#utility.yul\":27381:27382   */\n      0x00\n        /* \"#utility.yul\":27406:27467   */\n      tag_675\n        /* \"#utility.yul\":27459:27466   */\n      dup5\n        /* \"#utility.yul\":27450:27456   */\n      dup3\n        /* \"#utility.yul\":27439:27448   */\n      dup6\n        /* \"#utility.yul\":27435:27457   */\n      add\n        /* \"#utility.yul\":27406:27467   */\n      tag_378\n      jump\t// in\n    tag_675:\n        /* \"#utility.yul\":27396:27467   */\n      swap2\n      pop\n        /* \"#utility.yul\":27352:27477   */\n      pop\n        /* \"#utility.yul\":27139:27484   */\n      swap3\n      swap2\n      pop\n      pop\n      jump\t// out\n        /* \"#utility.yul\":27490:27654   */\n    tag_379:\n        /* \"#utility.yul\":27630:27646   */\n      0x496e76616c696420737566666978000000000000000000000000000000000000\n        /* \"#utility.yul\":27626:27627   */\n      0x00\n        /* \"#utility.yul\":27618:27624   */\n      dup3\n        /* \"#utility.yul\":27614:27628   */\n      add\n        /* \"#utility.yul\":27607:27647   */\n      mstore\n        /* \"#utility.yul\":27490:27654   */\n      pop\n      jump\t// out\n        /* \"#utility.yul\":27660:28026   */\n    tag_380:\n        /* \"#utility.yul\":27802:27805   */\n      0x00\n        /* \"#utility.yul\":27823:27890   */\n      tag_678\n        /* \"#utility.yul\":27887:27889   */\n      0x0e\n        /* \"#utility.yul\":27882:27885   */\n      dup4\n        /* \"#utility.yul\":27823:27890   */\n      tag_348\n      jump\t// in\n    tag_678:\n        /* \"#utility.yul\":27816:27890   */\n      swap2\n      pop\n        /* \"#utility.yul\":27899:27992   */\n      tag_679\n        /* \"#utility.yul\":27988:27991   */\n      dup3\n        /* \"#utility.yul\":27899:27992   */\n      tag_379\n      jump\t// in\n    tag_679:\n        /* \"#utility.yul\":28017:28019   */\n      0x20\n        /* \"#utility.yul\":28012:28015   */\n      dup3\n        /* \"#utility.yul\":28008:28020   */\n      add\n        /* \"#utility.yul\":28001:28020   */\n      swap1\n      pop\n        /* \"#utility.yul\":27660:28026   */\n      swap2\n      swap1\n      pop\n      jump\t// out\n        /* \"#utility.yul\":28032:28451   */\n    tag_177:\n        /* \"#utility.yul\":28198:28202   */\n      0x00\n        /* \"#utility.yul\":28236:28238   */\n      0x20\n        /* \"#utility.yul\":28225:28234   */\n      dup3\n        /* \"#utility.yul\":28221:28239   */\n      add\n        /* \"#utility.yul\":28213:28239   */\n      swap1\n      pop\n        /* \"#utility.yul\":28285:28294   */\n      dup2\n        /* \"#utility.yul\":28279:28283   */\n      dup2\n        /* \"#utility.yul\":28275:28295   */\n      sub\n        /* \"#utility.yul\":28271:28272   */\n      0x00\n        /* \"#utility.yul\":28260:28269   */\n      dup4\n        /* \"#utility.yul\":28256:28273   */\n      add\n        /* \"#utility.yul\":28249:28296   */\n      mstore\n        /* \"#utility.yul\":28313:28444   */\n      tag_681\n        /* \"#utility.yul\":28439:28443   */\n      dup2\n        /* \"#utility.yul\":28313:28444   */\n      tag_380\n      jump\t// in\n    tag_681:\n        /* \"#utility.yul\":28305:28444   */\n      swap1\n      pop\n        /* \"#utility.yul\":28032:28451   */\n      swap2\n      swap1\n      pop\n      jump\t// out\n        /* \"#utility.yul\":28457:28687   */\n    tag_381:\n        /* \"#utility.yul\":28597:28631   */\n      0x4e616d652073686f756c64206265206265747765656e203120616e6420313520\n        /* \"#utility.yul\":28593:28594   */\n      0x00\n        /* \"#utility.yul\":28585:28591   */\n      dup3\n        /* \"#utility.yul\":28581:28595   */\n      add\n        /* \"#utility.yul\":28574:28632   */\n      mstore\n        /* \"#utility.yul\":28666:28679   */\n      0x636861726163746572732e000000000000000000000000000000000000000000\n        /* \"#utility.yul\":28661:28663   */\n      0x20\n        /* \"#utility.yul\":28653:28659   */\n      dup3\n        /* \"#utility.yul\":28649:28664   */\n      add\n        /* \"#utility.yul\":28642:28680   */\n      mstore\n        /* \"#utility.yul\":28457:28687   */\n      pop\n      jump\t// out\n        /* \"#utility.yul\":28693:29059   */\n    tag_382:\n        /* \"#utility.yul\":28835:28838   */\n      0x00\n        /* \"#utility.yul\":28856:28923   */\n      tag_684\n        /* \"#utility.yul\":28920:28922   */\n      0x2b\n        /* \"#utility.yul\":28915:28918   */\n      dup4\n        /* \"#utility.yul\":28856:28923   */\n      tag_348\n      jump\t// in\n    tag_684:\n        /* \"#utility.yul\":28849:28923   */\n      swap2\n      pop\n        /* \"#utility.yul\":28932:29025   */\n      tag_685\n        /* \"#utility.yul\":29021:29024   */\n      dup3\n        /* \"#utility.yul\":28932:29025   */\n      tag_381\n      jump\t// in\n    tag_685:\n        /* \"#utility.yul\":29050:29052   */\n      0x40\n        /* \"#utility.yul\":29045:29048   */\n      dup3\n        /* \"#utility.yul\":29041:29053   */\n      add\n        /* \"#utility.yul\":29034:29053   */\n      swap1\n      pop\n        /* \"#utility.yul\":28693:29059   */\n      swap2\n      swap1\n      pop\n      jump\t// out\n        /* \"#utility.yul\":29065:29484   */\n    tag_183:\n        /* \"#utility.yul\":29231:29235   */\n      0x00\n        /* \"#utility.yul\":29269:29271   */\n      0x20\n        /* \"#utility.yul\":29258:29267   */\n      dup3\n        /* \"#utility.yul\":29254:29272   */\n      add\n        /* \"#utility.yul\":29246:29272   */\n      swap1\n      pop\n        /* \"#utility.yul\":29318:29327   */\n      dup2\n        /* \"#utility.yul\":29312:29316   */\n      dup2\n        /* \"#utility.yul\":29308:29328   */\n      sub\n        /* \"#utility.yul\":29304:29305   */\n      0x00\n        /* \"#utility.yul\":29293:29302   */\n      dup4\n        /* \"#utility.yul\":29289:29306   */\n      add\n        /* \"#utility.yul\":29282:29329   */\n      mstore\n        /* \"#utility.yul\":29346:29477   */\n      tag_687\n        /* \"#utility.yul\":29472:29476   */\n      dup2\n        /* \"#utility.yul\":29346:29477   */\n      tag_382\n      jump\t// in\n    tag_687:\n        /* \"#utility.yul\":29338:29477   */\n      swap1\n      pop\n        /* \"#utility.yul\":29065:29484   */\n      swap2\n      swap1\n      pop\n      jump\t// out\n        /* \"#utility.yul\":29490:29945   */\n    tag_185:\n        /* \"#utility.yul\":29680:29683   */\n      0x00\n        /* \"#utility.yul\":29702:29797   */\n      tag_689\n        /* \"#utility.yul\":29793:29796   */\n      dup3\n        /* \"#utility.yul\":29784:29790   */\n      dup7\n        /* \"#utility.yul\":29702:29797   */\n      tag_347\n      jump\t// in\n    tag_689:\n        /* \"#utility.yul\":29695:29797   */\n      swap2\n      pop\n        /* \"#utility.yul\":29814:29919   */\n      tag_690\n        /* \"#utility.yul\":29915:29918   */\n      dup3\n        /* \"#utility.yul\":29906:29912   */\n      dup5\n        /* \"#utility.yul\":29898:29904   */\n      dup7\n        /* \"#utility.yul\":29814:29919   */\n      tag_354\n      jump\t// in\n    tag_690:\n        /* \"#utility.yul\":29807:29919   */\n      swap2\n      pop\n        /* \"#utility.yul\":29936:29939   */\n      dup2\n        /* \"#utility.yul\":29929:29939   */\n      swap1\n      pop\n        /* \"#utility.yul\":29490:29945   */\n      swap5\n      swap4\n      pop\n      pop\n      pop\n      pop\n      jump\t// out\n        /* \"#utility.yul\":29951:30180   */\n    tag_383:\n        /* \"#utility.yul\":30091:30125   */\n      0x446f6d61696e20697320616c7265616479206f776e6564206f72206e6f742079\n        /* \"#utility.yul\":30087:30088   */\n      0x00\n        /* \"#utility.yul\":30079:30085   */\n      dup3\n        /* \"#utility.yul\":30075:30089   */\n      add\n        /* \"#utility.yul\":30068:30126   */\n      mstore\n        /* \"#utility.yul\":30160:30172   */\n      0x6574206578706972656400000000000000000000000000000000000000000000\n        /* \"#utility.yul\":30155:30157   */\n      0x20\n        /* \"#utility.yul\":30147:30153   */\n      dup3\n        /* \"#utility.yul\":30143:30158   */\n      add\n        /* \"#utility.yul\":30136:30173   */\n      mstore\n        /* \"#utility.yul\":29951:30180   */\n      pop\n      jump\t// out\n        /* \"#utility.yul\":30186:30552   */\n    tag_384:\n        /* \"#utility.yul\":30328:30331   */\n      0x00\n        /* \"#utility.yul\":30349:30416   */\n      tag_693\n        /* \"#utility.yul\":30413:30415   */\n      0x2a\n        /* \"#utility.yul\":30408:30411   */\n      dup4\n        /* \"#utility.yul\":30349:30416   */\n      tag_348\n      jump\t// in\n    tag_693:\n        /* \"#utility.yul\":30342:30416   */\n      swap2\n      pop\n        /* \"#utility.yul\":30425:30518   */\n      tag_694\n        /* \"#utility.yul\":30514:30517   */\n      dup3\n        /* \"#utility.yul\":30425:30518   */\n      tag_383\n      jump\t// in\n    tag_694:\n        /* \"#utility.yul\":30543:30545   */\n      0x40\n        /* \"#utility.yul\":30538:30541   */\n      dup3\n        /* \"#utility.yul\":30534:30546   */\n      add\n        /* \"#utility.yul\":30527:30546   */\n      swap1\n      pop\n        /* \"#utility.yul\":30186:30552   */\n      swap2\n      swap1\n      pop\n      jump\t// out\n        /* \"#utility.yul\":30558:30977   */\n    tag_191:\n        /* \"#utility.yul\":30724:30728   */\n      0x00\n        /* \"#utility.yul\":30762:30764   */\n      0x20\n        /* \"#utility.yul\":30751:30760   */\n      dup3\n        /* \"#utility.yul\":30747:30765   */\n      add\n        /* \"#utility.yul\":30739:30765   */\n      swap1\n      pop\n        /* \"#utility.yul\":30811:30820   */\n      dup2\n        /* \"#utility.yul\":30805:30809   */\n      dup2\n        /* \"#utility.yul\":30801:30821   */\n      sub\n        /* \"#utility.yul\":30797:30798   */\n      0x00\n        /* \"#utility.yul\":30786:30795   */\n      dup4\n        /* \"#utility.yul\":30782:30799   */\n      add\n        /* \"#utility.yul\":30775:30822   */\n      mstore\n        /* \"#utility.yul\":30839:30970   */\n      tag_696\n        /* \"#utility.yul\":30965:30969   */\n      dup2\n        /* \"#utility.yul\":30839:30970   */\n      tag_384\n      jump\t// in\n    tag_696:\n        /* \"#utility.yul\":30831:30970   */\n      swap1\n      pop\n        /* \"#utility.yul\":30558:30977   */\n      swap2\n      swap1\n      pop\n      jump\t// out\n        /* \"#utility.yul\":30983:31272   */\n    tag_385:\n        /* \"#utility.yul\":31123:31157   */\n      0x496e73756666696369656e742066756e647320746f2072656769737465722074\n        /* \"#utility.yul\":31119:31120   */\n      0x00\n        /* \"#utility.yul\":31111:31117   */\n      dup3\n        /* \"#utility.yul\":31107:31121   */\n      add\n        /* \"#utility.yul\":31100:31158   */\n      mstore\n        /* \"#utility.yul\":31192:31226   */\n      0x686520646f6d61696e20666f7220746865207370656369666965642079656172\n        /* \"#utility.yul\":31187:31189   */\n      0x20\n        /* \"#utility.yul\":31179:31185   */\n      dup3\n        /* \"#utility.yul\":31175:31190   */\n      add\n        /* \"#utility.yul\":31168:31227   */\n      mstore\n        /* \"#utility.yul\":31261:31264   */\n      0x7300000000000000000000000000000000000000000000000000000000000000\n        /* \"#utility.yul\":31256:31258   */\n      0x40\n        /* \"#utility.yul\":31248:31254   */\n      dup3\n        /* \"#utility.yul\":31244:31259   */\n      add\n        /* \"#utility.yul\":31237:31265   */\n      mstore\n        /* \"#utility.yul\":30983:31272   */\n      pop\n      jump\t// out\n        /* \"#utility.yul\":31278:31644   */\n    tag_386:\n        /* \"#utility.yul\":31420:31423   */\n      0x00\n        /* \"#utility.yul\":31441:31508   */\n      tag_699\n        /* \"#utility.yul\":31505:31507   */\n      0x41\n        /* \"#utility.yul\":31500:31503   */\n      dup4\n        /* \"#utility.yul\":31441:31508   */\n      tag_348\n      jump\t// in\n    tag_699:\n        /* \"#utility.yul\":31434:31508   */\n      swap2\n      pop\n        /* \"#utility.yul\":31517:31610   */\n      tag_700\n        /* \"#utility.yul\":31606:31609   */\n      dup3\n        /* \"#utility.yul\":31517:31610   */\n      tag_385\n      jump\t// in\n    tag_700:\n        /* \"#utility.yul\":31635:31637   */\n      0x60\n        /* \"#utility.yul\":31630:31633   */\n      dup3\n        /* \"#utility.yul\":31626:31638   */\n      add\n        /* \"#utility.yul\":31619:31638   */\n      swap1\n      pop\n        /* \"#utility.yul\":31278:31644   */\n      swap2\n      swap1\n      pop\n      jump\t// out\n        /* \"#utility.yul\":31650:32069   */\n    tag_199:\n        /* \"#utility.yul\":31816:31820   */\n      0x00\n        /* \"#utility.yul\":31854:31856   */\n      0x20\n        /* \"#utility.yul\":31843:31852   */\n      dup3\n        /* \"#utility.yul\":31839:31857   */\n      add\n        /* \"#utility.yul\":31831:31857   */\n      swap1\n      pop\n        /* \"#utility.yul\":31903:31912   */\n      dup2\n        /* \"#utility.yul\":31897:31901   */\n      dup2\n        /* \"#utility.yul\":31893:31913   */\n      sub\n        /* \"#utility.yul\":31889:31890   */\n      0x00\n        /* \"#utility.yul\":31878:31887   */\n      dup4\n        /* \"#utility.yul\":31874:31891   */\n      add\n        /* \"#utility.yul\":31867:31914   */\n      mstore\n        /* \"#utility.yul\":31931:32062   */\n      tag_702\n        /* \"#utility.yul\":32057:32061   */\n      dup2\n        /* \"#utility.yul\":31931:32062   */\n      tag_386\n      jump\t// in\n    tag_702:\n        /* \"#utility.yul\":31923:32062   */\n      swap1\n      pop\n        /* \"#utility.yul\":31650:32069   */\n      swap2\n      swap1\n      pop\n      jump\t// out\n        /* \"#utility.yul\":32075:33470   */\n    tag_205:\n        /* \"#utility.yul\":32192:32229   */\n      tag_704\n        /* \"#utility.yul\":32225:32228   */\n      dup3\n        /* \"#utility.yul\":32192:32229   */\n      tag_339\n      jump\t// in\n    tag_704:\n        /* \"#utility.yul\":32294:32312   */\n      0xffffffffffffffff\n        /* \"#utility.yul\":32286:32292   */\n      dup2\n        /* \"#utility.yul\":32283:32313   */\n      gt\n        /* \"#utility.yul\":32280:32336   */\n      iszero\n      tag_705\n      jumpi\n        /* \"#utility.yul\":32316:32334   */\n      tag_706\n      tag_239\n      jump\t// in\n    tag_706:\n        /* \"#utility.yul\":32280:32336   */\n    tag_705:\n        /* \"#utility.yul\":32360:32398   */\n      tag_707\n        /* \"#utility.yul\":32392:32396   */\n      dup3\n        /* \"#utility.yul\":32386:32397   */\n      sload\n        /* \"#utility.yul\":32360:32398   */\n      tag_217\n      jump\t// in\n    tag_707:\n        /* \"#utility.yul\":32445:32512   */\n      tag_708\n        /* \"#utility.yul\":32505:32511   */\n      dup3\n        /* \"#utility.yul\":32497:32503   */\n      dup3\n        /* \"#utility.yul\":32491:32495   */\n      dup6\n        /* \"#utility.yul\":32445:32512   */\n      tag_373\n      jump\t// in\n    tag_708:\n        /* \"#utility.yul\":32539:32540   */\n      0x00\n        /* \"#utility.yul\":32563:32567   */\n      0x20\n        /* \"#utility.yul\":32550:32567   */\n      swap1\n      pop\n        /* \"#utility.yul\":32595:32597   */\n      0x1f\n        /* \"#utility.yul\":32587:32593   */\n      dup4\n        /* \"#utility.yul\":32584:32598   */\n      gt\n        /* \"#utility.yul\":32612:32613   */\n      0x01\n        /* \"#utility.yul\":32607:33225   */\n      dup2\n      eq\n      tag_710\n      jumpi\n        /* \"#utility.yul\":33269:33270   */\n      0x00\n        /* \"#utility.yul\":33286:33292   */\n      dup5\n        /* \"#utility.yul\":33283:33360   */\n      iszero\n      tag_711\n      jumpi\n        /* \"#utility.yul\":33335:33344   */\n      dup3\n        /* \"#utility.yul\":33330:33333   */\n      dup8\n        /* \"#utility.yul\":33326:33345   */\n      add\n        /* \"#utility.yul\":33320:33346   */\n      mload\n        /* \"#utility.yul\":33311:33346   */\n      swap1\n      pop\n        /* \"#utility.yul\":33283:33360   */\n    tag_711:\n        /* \"#utility.yul\":33386:33453   */\n      tag_712\n        /* \"#utility.yul\":33446:33452   */\n      dup6\n        /* \"#utility.yul\":33439:33444   */\n      dup3\n        /* \"#utility.yul\":33386:33453   */\n      tag_376\n      jump\t// in\n    tag_712:\n        /* \"#utility.yul\":33380:33384   */\n      dup7\n        /* \"#utility.yul\":33373:33454   */\n      sstore\n        /* \"#utility.yul\":33242:33464   */\n      pop\n        /* \"#utility.yul\":32577:33464   */\n      jump(tag_709)\n        /* \"#utility.yul\":32607:33225   */\n    tag_710:\n        /* \"#utility.yul\":32659:32663   */\n      0x1f\n        /* \"#utility.yul\":32655:32664   */\n      not\n        /* \"#utility.yul\":32647:32653   */\n      dup5\n        /* \"#utility.yul\":32643:32665   */\n      and\n        /* \"#utility.yul\":32693:32730   */\n      tag_713\n        /* \"#utility.yul\":32725:32729   */\n      dup7\n        /* \"#utility.yul\":32693:32730   */\n      tag_362\n      jump\t// in\n    tag_713:\n        /* \"#utility.yul\":32752:32753   */\n      0x00\n        /* \"#utility.yul\":32766:32974   */\n    tag_714:\n        /* \"#utility.yul\":32780:32787   */\n      dup3\n        /* \"#utility.yul\":32777:32778   */\n      dup2\n        /* \"#utility.yul\":32774:32788   */\n      lt\n        /* \"#utility.yul\":32766:32974   */\n      iszero\n      tag_716\n      jumpi\n        /* \"#utility.yul\":32859:32868   */\n      dup5\n        /* \"#utility.yul\":32854:32857   */\n      dup10\n        /* \"#utility.yul\":32850:32869   */\n      add\n        /* \"#utility.yul\":32844:32870   */\n      mload\n        /* \"#utility.yul\":32836:32842   */\n      dup3\n        /* \"#utility.yul\":32829:32871   */\n      sstore\n        /* \"#utility.yul\":32910:32911   */\n      0x01\n        /* \"#utility.yul\":32902:32908   */\n      dup3\n        /* \"#utility.yul\":32898:32912   */\n      add\n        /* \"#utility.yul\":32888:32912   */\n      swap2\n      pop\n        /* \"#utility.yul\":32957:32959   */\n      0x20\n        /* \"#utility.yul\":32946:32955   */\n      dup6\n        /* \"#utility.yul\":32942:32960   */\n      add\n        /* \"#utility.yul\":32929:32960   */\n      swap5\n      pop\n        /* \"#utility.yul\":32803:32807   */\n      0x20\n        /* \"#utility.yul\":32800:32801   */\n      dup2\n        /* \"#utility.yul\":32796:32808   */\n      add\n        /* \"#utility.yul\":32791:32808   */\n      swap1\n      pop\n        /* \"#utility.yul\":32766:32974   */\n      jump(tag_714)\n    tag_716:\n        /* \"#utility.yul\":33002:33008   */\n      dup7\n        /* \"#utility.yul\":32993:33000   */\n      dup4\n        /* \"#utility.yul\":32990:33009   */\n      lt\n        /* \"#utility.yul\":32987:33166   */\n      iszero\n      tag_717\n      jumpi\n        /* \"#utility.yul\":33060:33069   */\n      dup5\n        /* \"#utility.yul\":33055:33058   */\n      dup10\n        /* \"#utility.yul\":33051:33070   */\n      add\n        /* \"#utility.yul\":33045:33071   */\n      mload\n        /* \"#utility.yul\":33103:33151   */\n      tag_718\n        /* \"#utility.yul\":33145:33149   */\n      0x1f\n        /* \"#utility.yul\":33137:33143   */\n      dup10\n        /* \"#utility.yul\":33133:33150   */\n      and\n        /* \"#utility.yul\":33122:33131   */\n      dup3\n        /* \"#utility.yul\":33103:33151   */\n      tag_375\n      jump\t// in\n    tag_718:\n        /* \"#utility.yul\":33095:33101   */\n      dup4\n        /* \"#utility.yul\":33088:33152   */\n      sstore\n        /* \"#utility.yul\":33010:33166   */\n      pop\n        /* \"#utility.yul\":32987:33166   */\n    tag_717:\n        /* \"#utility.yul\":33212:33213   */\n      0x01\n        /* \"#utility.yul\":33208:33209   */\n      0x02\n        /* \"#utility.yul\":33200:33206   */\n      dup9\n        /* \"#utility.yul\":33196:33210   */\n      mul\n        /* \"#utility.yul\":33192:33214   */\n      add\n        /* \"#utility.yul\":33186:33190   */\n      dup9\n        /* \"#utility.yul\":33179:33215   */\n      sstore\n        /* \"#utility.yul\":32614:33225   */\n      pop\n      pop\n      pop\n        /* \"#utility.yul\":32577:33464   */\n    tag_709:\n      pop\n        /* \"#utility.yul\":32167:33470   */\n      pop\n      pop\n      pop\n        /* \"#utility.yul\":32075:33470   */\n      pop\n      pop\n      jump\t// out\n        /* \"#utility.yul\":33476:33853   */\n    tag_387:\n        /* \"#utility.yul\":33564:33567   */\n      0x00\n        /* \"#utility.yul\":33592:33631   */\n      tag_720\n        /* \"#utility.yul\":33625:33630   */\n      dup3\n        /* \"#utility.yul\":33592:33631   */\n      tag_339\n      jump\t// in\n    tag_720:\n        /* \"#utility.yul\":33647:33718   */\n      tag_721\n        /* \"#utility.yul\":33711:33717   */\n      dup2\n        /* \"#utility.yul\":33706:33709   */\n      dup6\n        /* \"#utility.yul\":33647:33718   */\n      tag_348\n      jump\t// in\n    tag_721:\n        /* \"#utility.yul\":33640:33718   */\n      swap4\n      pop\n        /* \"#utility.yul\":33727:33792   */\n      tag_722\n        /* \"#utility.yul\":33785:33791   */\n      dup2\n        /* \"#utility.yul\":33780:33783   */\n      dup6\n        /* \"#utility.yul\":33773:33777   */\n      0x20\n        /* \"#utility.yul\":33766:33771   */\n      dup7\n        /* \"#utility.yul\":33762:33778   */\n      add\n        /* \"#utility.yul\":33727:33792   */\n      tag_341\n      jump\t// in\n    tag_722:\n        /* \"#utility.yul\":33817:33846   */\n      tag_723\n        /* \"#utility.yul\":33839:33845   */\n      dup2\n        /* \"#utility.yul\":33817:33846   */\n      tag_315\n      jump\t// in\n    tag_723:\n        /* \"#utility.yul\":33812:33815   */\n      dup5\n        /* \"#utility.yul\":33808:33847   */\n      add\n        /* \"#utility.yul\":33801:33847   */\n      swap2\n      pop\n        /* \"#utility.yul\":33568:33853   */\n      pop\n        /* \"#utility.yul\":33476:33853   */\n      swap3\n      swap2\n      pop\n      pop\n      jump\t// out\n        /* \"#utility.yul\":33859:34392   */\n    tag_207:\n        /* \"#utility.yul\":34028:34032   */\n      0x00\n        /* \"#utility.yul\":34066:34068   */\n      0x60\n        /* \"#utility.yul\":34055:34064   */\n      dup3\n        /* \"#utility.yul\":34051:34069   */\n      add\n        /* \"#utility.yul\":34043:34069   */\n      swap1\n      pop\n        /* \"#utility.yul\":34115:34124   */\n      dup2\n        /* \"#utility.yul\":34109:34113   */\n      dup2\n        /* \"#utility.yul\":34105:34125   */\n      sub\n        /* \"#utility.yul\":34101:34102   */\n      0x00\n        /* \"#utility.yul\":34090:34099   */\n      dup4\n        /* \"#utility.yul\":34086:34103   */\n      add\n        /* \"#utility.yul\":34079:34126   */\n      mstore\n        /* \"#utility.yul\":34143:34221   */\n      tag_725\n        /* \"#utility.yul\":34216:34220   */\n      dup2\n        /* \"#utility.yul\":34207:34213   */\n      dup7\n        /* \"#utility.yul\":34143:34221   */\n      tag_387\n      jump\t// in\n    tag_725:\n        /* \"#utility.yul\":34135:34221   */\n      swap1\n      pop\n        /* \"#utility.yul\":34231:34303   */\n      tag_726\n        /* \"#utility.yul\":34299:34301   */\n      0x20\n        /* \"#utility.yul\":34288:34297   */\n      dup4\n        /* \"#utility.yul\":34284:34302   */\n      add\n        /* \"#utility.yul\":34275:34281   */\n      dup6\n        /* \"#utility.yul\":34231:34303   */\n      tag_333\n      jump\t// in\n    tag_726:\n        /* \"#utility.yul\":34313:34385   */\n      tag_727\n        /* \"#utility.yul\":34381:34383   */\n      0x40\n        /* \"#utility.yul\":34370:34379   */\n      dup4\n        /* \"#utility.yul\":34366:34384   */\n      add\n        /* \"#utility.yul\":34357:34363   */\n      dup5\n        /* \"#utility.yul\":34313:34385   */\n      tag_323\n      jump\t// in\n    tag_727:\n        /* \"#utility.yul\":33859:34392   */\n      swap5\n      swap4\n      pop\n      pop\n      pop\n      pop\n      jump\t// out\n        /* \"#utility.yul\":34398:34578   */\n    tag_229:\n        /* \"#utility.yul\":34446:34523   */\n      0x4e487b7100000000000000000000000000000000000000000000000000000000\n        /* \"#utility.yul\":34443:34444   */\n      0x00\n        /* \"#utility.yul\":34436:34524   */\n      mstore\n        /* \"#utility.yul\":34543:34547   */\n      0x32\n        /* \"#utility.yul\":34540:34541   */\n      0x04\n        /* \"#utility.yul\":34533:34548   */\n      mstore\n        /* \"#utility.yul\":34567:34571   */\n      0x24\n        /* \"#utility.yul\":34564:34565   */\n      0x00\n        /* \"#utility.yul\":34557:34572   */\n      revert\n        /* \"#utility.yul\":34584:34755   */\n    tag_232:\n        /* \"#utility.yul\":34623:34626   */\n      0x00\n        /* \"#utility.yul\":34646:34670   */\n      tag_730\n        /* \"#utility.yul\":34664:34669   */\n      dup3\n        /* \"#utility.yul\":34646:34670   */\n      tag_322\n      jump\t// in\n    tag_730:\n        /* \"#utility.yul\":34637:34670   */\n      swap2\n      pop\n        /* \"#utility.yul\":34692:34696   */\n      0x00\n        /* \"#utility.yul\":34685:34690   */\n      dup3\n        /* \"#utility.yul\":34682:34697   */\n      sub\n        /* \"#utility.yul\":34679:34720   */\n      tag_731\n      jumpi\n        /* \"#utility.yul\":34700:34718   */\n      tag_732\n      tag_351\n      jump\t// in\n    tag_732:\n        /* \"#utility.yul\":34679:34720   */\n    tag_731:\n        /* \"#utility.yul\":34747:34748   */\n      0x01\n        /* \"#utility.yul\":34740:34745   */\n      dup3\n        /* \"#utility.yul\":34736:34749   */\n      sub\n        /* \"#utility.yul\":34729:34749   */\n      swap1\n      pop\n        /* \"#utility.yul\":34584:34755   */\n      swap2\n      swap1\n      pop\n      jump\t// out\n        /* \"#utility.yul\":34761:34926   */\n    tag_388:\n        /* \"#utility.yul\":34901:34918   */\n      0x4e6f2073756666697820666f756e640000000000000000000000000000000000\n        /* \"#utility.yul\":34897:34898   */\n      0x00\n        /* \"#utility.yul\":34889:34895   */\n      dup3\n        /* \"#utility.yul\":34885:34899   */\n      add\n        /* \"#utility.yul\":34878:34919   */\n      mstore\n        /* \"#utility.yul\":34761:34926   */\n      pop\n      jump\t// out\n        /* \"#utility.yul\":34932:35298   */\n    tag_389:\n        /* \"#utility.yul\":35074:35077   */\n      0x00\n        /* \"#utility.yul\":35095:35162   */\n      tag_735\n        /* \"#utility.yul\":35159:35161   */\n      0x0f\n        /* \"#utility.yul\":35154:35157   */\n      dup4\n        /* \"#utility.yul\":35095:35162   */\n      tag_348\n      jump\t// in\n    tag_735:\n        /* \"#utility.yul\":35088:35162   */\n      swap2\n      pop\n        /* \"#utility.yul\":35171:35264   */\n      tag_736\n        /* \"#utility.yul\":35260:35263   */\n      dup3\n        /* \"#utility.yul\":35171:35264   */\n      tag_388\n      jump\t// in\n    tag_736:\n        /* \"#utility.yul\":35289:35291   */\n      0x20\n        /* \"#utility.yul\":35284:35287   */\n      dup3\n        /* \"#utility.yul\":35280:35292   */\n      add\n        /* \"#utility.yul\":35273:35292   */\n      swap1\n      pop\n        /* \"#utility.yul\":34932:35298   */\n      swap2\n      swap1\n      pop\n      jump\t// out\n        /* \"#utility.yul\":35304:35723   */\n    tag_234:\n        /* \"#utility.yul\":35470:35474   */\n      0x00\n        /* \"#utility.yul\":35508:35510   */\n      0x20\n        /* \"#utility.yul\":35497:35506   */\n      dup3\n        /* \"#utility.yul\":35493:35511   */\n      add\n        /* \"#utility.yul\":35485:35511   */\n      swap1\n      pop\n        /* \"#utility.yul\":35557:35566   */\n      dup2\n        /* \"#utility.yul\":35551:35555   */\n      dup2\n        /* \"#utility.yul\":35547:35567   */\n      sub\n        /* \"#utility.yul\":35543:35544   */\n      0x00\n        /* \"#utility.yul\":35532:35541   */\n      dup4\n        /* \"#utility.yul\":35528:35545   */\n      add\n        /* \"#utility.yul\":35521:35568   */\n      mstore\n        /* \"#utility.yul\":35585:35716   */\n      tag_738\n        /* \"#utility.yul\":35711:35715   */\n      dup2\n        /* \"#utility.yul\":35585:35716   */\n      tag_389\n      jump\t// in\n    tag_738:\n        /* \"#utility.yul\":35577:35716   */\n      swap1\n      pop\n        /* \"#utility.yul\":35304:35723   */\n      swap2\n      swap1\n      pop\n      jump\t// out\n        /* \"#utility.yul\":35729:35962   */\n    tag_250:\n        /* \"#utility.yul\":35768:35771   */\n      0x00\n        /* \"#utility.yul\":35791:35815   */\n      tag_740\n        /* \"#utility.yul\":35809:35814   */\n      dup3\n        /* \"#utility.yul\":35791:35815   */\n      tag_322\n      jump\t// in\n    tag_740:\n        /* \"#utility.yul\":35782:35815   */\n      swap2\n      pop\n        /* \"#utility.yul\":35837:35903   */\n      0xffffffffffffffffffffffffffffffffffffffffffffffffffffffffffffffff\n        /* \"#utility.yul\":35830:35835   */\n      dup3\n        /* \"#utility.yul\":35827:35904   */\n      sub\n        /* \"#utility.yul\":35824:35927   */\n      tag_741\n      jumpi\n        /* \"#utility.yul\":35907:35925   */\n      tag_742\n      tag_351\n      jump\t// in\n    tag_742:\n        /* \"#utility.yul\":35824:35927   */\n    tag_741:\n        /* \"#utility.yul\":35954:35955   */\n      0x01\n        /* \"#utility.yul\":35947:35952   */\n      dup3\n        /* \"#utility.yul\":35943:35956   */\n      add\n        /* \"#utility.yul\":35936:35956   */\n      swap1\n      pop\n        /* \"#utility.yul\":35729:35962   */\n      swap2\n      swap1\n      pop\n      jump\t// out\n        /* \"#utility.yul\":35992:36866   */\n    tag_390:\n        /* \"#utility.yul\":36095:36098   */\n      0x00\n        /* \"#utility.yul\":36132:36137   */\n      dup2\n        /* \"#utility.yul\":36126:36138   */\n      sload\n        /* \"#utility.yul\":36161:36197   */\n      tag_744\n        /* \"#utility.yul\":36187:36196   */\n      dup2\n        /* \"#utility.yul\":36161:36197   */\n      tag_217\n      jump\t// in\n    tag_744:\n        /* \"#utility.yul\":36213:36302   */\n      tag_745\n        /* \"#utility.yul\":36295:36301   */\n      dup2\n        /* \"#utility.yul\":36290:36293   */\n      dup7\n        /* \"#utility.yul\":36213:36302   */\n      tag_346\n      jump\t// in\n    tag_745:\n        /* \"#utility.yul\":36206:36302   */\n      swap5\n      pop\n        /* \"#utility.yul\":36333:36334   */\n      0x01\n        /* \"#utility.yul\":36322:36331   */\n      dup3\n        /* \"#utility.yul\":36318:36335   */\n      and\n        /* \"#utility.yul\":36349:36350   */\n      0x00\n        /* \"#utility.yul\":36344:36510   */\n      dup2\n      eq\n      tag_747\n      jumpi\n        /* \"#utility.yul\":36524:36525   */\n      0x01\n        /* \"#utility.yul\":36519:36860   */\n      dup2\n      eq\n      tag_748\n      jumpi\n        /* \"#utility.yul\":36311:36860   */\n      jump(tag_746)\n        /* \"#utility.yul\":36344:36510   */\n    tag_747:\n        /* \"#utility.yul\":36428:36432   */\n      0xff\n        /* \"#utility.yul\":36424:36433   */\n      not\n        /* \"#utility.yul\":36413:36422   */\n      dup4\n        /* \"#utility.yul\":36409:36434   */\n      and\n        /* \"#utility.yul\":36404:36407   */\n      dup7\n        /* \"#utility.yul\":36397:36435   */\n      mstore\n        /* \"#utility.yul\":36490:36496   */\n      dup2\n        /* \"#utility.yul\":36483:36497   */\n      iszero\n        /* \"#utility.yul\":36476:36498   */\n      iszero\n        /* \"#utility.yul\":36468:36474   */\n      dup3\n        /* \"#utility.yul\":36464:36499   */\n      mul\n        /* \"#utility.yul\":36459:36462   */\n      dup7\n        /* \"#utility.yul\":36455:36500   */\n      add\n        /* \"#utility.yul\":36448:36500   */\n      swap4\n      pop\n        /* \"#utility.yul\":36344:36510   */\n      jump(tag_746)\n        /* \"#utility.yul\":36519:36860   */\n    tag_748:\n        /* \"#utility.yul\":36586:36624   */\n      tag_749\n        /* \"#utility.yul\":36618:36623   */\n      dup6\n        /* \"#utility.yul\":36586:36624   */\n      tag_362\n      jump\t// in\n    tag_749:\n        /* \"#utility.yul\":36646:36647   */\n      0x00\n        /* \"#utility.yul\":36660:36814   */\n    tag_750:\n        /* \"#utility.yul\":36674:36680   */\n      dup4\n        /* \"#utility.yul\":36671:36672   */\n      dup2\n        /* \"#utility.yul\":36668:36681   */\n      lt\n        /* \"#utility.yul\":36660:36814   */\n      iszero\n      tag_752\n      jumpi\n        /* \"#utility.yul\":36748:36755   */\n      dup2\n        /* \"#utility.yul\":36742:36756   */\n      sload\n        /* \"#utility.yul\":36738:36739   */\n      dup2\n        /* \"#utility.yul\":36733:36736   */\n      dup10\n        /* \"#utility.yul\":36729:36740   */\n      add\n        /* \"#utility.yul\":36722:36757   */\n      mstore\n        /* \"#utility.yul\":36798:36799   */\n      0x01\n        /* \"#utility.yul\":36789:36796   */\n      dup3\n        /* \"#utility.yul\":36785:36800   */\n      add\n        /* \"#utility.yul\":36774:36800   */\n      swap2\n      pop\n        /* \"#utility.yul\":36696:36700   */\n      0x20\n        /* \"#utility.yul\":36693:36694   */\n      dup2\n        /* \"#utility.yul\":36689:36701   */\n      add\n        /* \"#utility.yul\":36684:36701   */\n      swap1\n      pop\n        /* \"#utility.yul\":36660:36814   */\n      jump(tag_750)\n    tag_752:\n        /* \"#utility.yul\":36843:36849   */\n      dup4\n        /* \"#utility.yul\":36838:36841   */\n      dup9\n        /* \"#utility.yul\":36834:36850   */\n      add\n        /* \"#utility.yul\":36827:36850   */\n      swap6\n      pop\n        /* \"#utility.yul\":36526:36860   */\n      pop\n      pop\n        /* \"#utility.yul\":36311:36860   */\n    tag_746:\n      pop\n        /* \"#utility.yul\":36099:36866   */\n      pop\n      pop\n        /* \"#utility.yul\":35992:36866   */\n      swap3\n      swap2\n      pop\n      pop\n      jump\t// out\n        /* \"#utility.yul\":36872:37141   */\n    tag_260:\n        /* \"#utility.yul\":37001:37004   */\n      0x00\n        /* \"#utility.yul\":37023:37115   */\n      tag_754\n        /* \"#utility.yul\":37111:37114   */\n      dup3\n        /* \"#utility.yul\":37102:37108   */\n      dup5\n        /* \"#utility.yul\":37023:37115   */\n      tag_390\n      jump\t// in\n    tag_754:\n        /* \"#utility.yul\":37016:37115   */\n      swap2\n      pop\n        /* \"#utility.yul\":37132:37135   */\n      dup2\n        /* \"#utility.yul\":37125:37135   */\n      swap1\n      pop\n        /* \"#utility.yul\":36872:37141   */\n      swap3\n      swap2\n      pop\n      pop\n      jump\t// out\n        /* \"#utility.yul\":37147:37300   */\n    tag_391:\n        /* \"#utility.yul\":37200:37206   */\n      0x00\n        /* \"#utility.yul\":37234:37239   */\n      dup2\n        /* \"#utility.yul\":37228:37240   */\n      sload\n        /* \"#utility.yul\":37218:37240   */\n      swap1\n      pop\n        /* \"#utility.yul\":37260:37293   */\n      tag_756\n        /* \"#utility.yul\":37286:37292   */\n      dup2\n        /* \"#utility.yul\":37260:37293   */\n      tag_217\n      jump\t// in\n    tag_756:\n        /* \"#utility.yul\":37250:37293   */\n      swap1\n      pop\n        /* \"#utility.yul\":37147:37300   */\n      swap2\n      swap1\n      pop\n      jump\t// out\n        /* \"#utility.yul\":37306:37451   */\n    tag_392:\n        /* \"#utility.yul\":37359:37363   */\n      0x00\n        /* \"#utility.yul\":37382:37385   */\n      dup2\n        /* \"#utility.yul\":37374:37385   */\n      swap1\n      pop\n        /* \"#utility.yul\":37405:37408   */\n      dup2\n        /* \"#utility.yul\":37402:37403   */\n      0x00\n        /* \"#utility.yul\":37395:37409   */\n      mstore\n        /* \"#utility.yul\":37439:37443   */\n      0x20\n        /* \"#utility.yul\":37436:37437   */\n      0x00\n        /* \"#utility.yul\":37426:37444   */\n      keccak256\n        /* \"#utility.yul\":37418:37444   */\n      swap1\n      pop\n        /* \"#utility.yul\":37306:37451   */\n      swap2\n      swap1\n      pop\n      jump\t// out\n        /* \"#utility.yul\":37457:38920   */\n    tag_270:\n        /* \"#utility.yul\":37572:37575   */\n      dup2\n        /* \"#utility.yul\":37566:37570   */\n      dup2\n        /* \"#utility.yul\":37563:37576   */\n      sub\n        /* \"#utility.yul\":37560:37586   */\n      tag_759\n      jumpi\n        /* \"#utility.yul\":37579:37584   */\n      pop\n      pop\n      jump(tag_758)\n        /* \"#utility.yul\":37560:37586   */\n    tag_759:\n        /* \"#utility.yul\":37610:37648   */\n      tag_760\n        /* \"#utility.yul\":37644:37647   */\n      dup3\n        /* \"#utility.yul\":37610:37648   */\n      tag_391\n      jump\t// in\n    tag_760:\n        /* \"#utility.yul\":37713:37731   */\n      0xffffffffffffffff\n        /* \"#utility.yul\":37705:37711   */\n      dup2\n        /* \"#utility.yul\":37702:37732   */\n      gt\n        /* \"#utility.yul\":37699:37755   */\n      iszero\n      tag_761\n      jumpi\n        /* \"#utility.yul\":37735:37753   */\n      tag_762\n      tag_239\n      jump\t// in\n    tag_762:\n        /* \"#utility.yul\":37699:37755   */\n    tag_761:\n        /* \"#utility.yul\":37779:37817   */\n      tag_763\n        /* \"#utility.yul\":37811:37815   */\n      dup3\n        /* \"#utility.yul\":37805:37816   */\n      sload\n        /* \"#utility.yul\":37779:37817   */\n      tag_217\n      jump\t// in\n    tag_763:\n        /* \"#utility.yul\":37864:37931   */\n      tag_764\n        /* \"#utility.yul\":37924:37930   */\n      dup3\n        /* \"#utility.yul\":37916:37922   */\n      dup3\n        /* \"#utility.yul\":37910:37914   */\n      dup6\n        /* \"#utility.yul\":37864:37931   */\n      tag_373\n      jump\t// in\n    tag_764:\n        /* \"#utility.yul\":37958:37959   */\n      0x00\n        /* \"#utility.yul\":37987:37989   */\n      0x1f\n        /* \"#utility.yul\":37979:37985   */\n      dup4\n        /* \"#utility.yul\":37976:37990   */\n      gt\n        /* \"#utility.yul\":38004:38005   */\n      0x01\n        /* \"#utility.yul\":37999:38675   */\n      dup2\n      eq\n      tag_766\n      jumpi\n        /* \"#utility.yul\":38719:38720   */\n      0x00\n        /* \"#utility.yul\":38736:38742   */\n      dup5\n        /* \"#utility.yul\":38733:38810   */\n      iszero\n      tag_767\n      jumpi\n        /* \"#utility.yul\":38785:38794   */\n      dup3\n        /* \"#utility.yul\":38780:38783   */\n      dup8\n        /* \"#utility.yul\":38776:38795   */\n      add\n        /* \"#utility.yul\":38770:38796   */\n      sload\n        /* \"#utility.yul\":38761:38796   */\n      swap1\n      pop\n        /* \"#utility.yul\":38733:38810   */\n    tag_767:\n        /* \"#utility.yul\":38836:38903   */\n      tag_768\n        /* \"#utility.yul\":38896:38902   */\n      dup6\n        /* \"#utility.yul\":38889:38894   */\n      dup3\n        /* \"#utility.yul\":38836:38903   */\n      tag_376\n      jump\t// in\n    tag_768:\n        /* \"#utility.yul\":38830:38834   */\n      dup7\n        /* \"#utility.yul\":38823:38904   */\n      sstore\n        /* \"#utility.yul\":38692:38914   */\n      pop\n        /* \"#utility.yul\":37969:38914   */\n      jump(tag_765)\n        /* \"#utility.yul\":37999:38675   */\n    tag_766:\n        /* \"#utility.yul\":38051:38055   */\n      0x1f\n        /* \"#utility.yul\":38047:38056   */\n      not\n        /* \"#utility.yul\":38039:38045   */\n      dup5\n        /* \"#utility.yul\":38035:38057   */\n      and\n        /* \"#utility.yul\":38077:38117   */\n      tag_769\n        /* \"#utility.yul\":38113:38116   */\n      dup8\n        /* \"#utility.yul\":38077:38117   */\n      tag_392\n      jump\t// in\n    tag_769:\n        /* \"#utility.yul\":38070:38117   */\n      swap7\n      pop\n        /* \"#utility.yul\":38144:38181   */\n      tag_770\n        /* \"#utility.yul\":38176:38180   */\n      dup7\n        /* \"#utility.yul\":38144:38181   */\n      tag_362\n      jump\t// in\n    tag_770:\n        /* \"#utility.yul\":38203:38204   */\n      0x00\n        /* \"#utility.yul\":38217:38424   */\n    tag_771:\n        /* \"#utility.yul\":38231:38238   */\n      dup3\n        /* \"#utility.yul\":38228:38229   */\n      dup2\n        /* \"#utility.yul\":38225:38239   */\n      lt\n        /* \"#utility.yul\":38217:38424   */\n      iszero\n      tag_773\n      jumpi\n        /* \"#utility.yul\":38310:38319   */\n      dup5\n        /* \"#utility.yul\":38305:38308   */\n      dup10\n        /* \"#utility.yul\":38301:38320   */\n      add\n        /* \"#utility.yul\":38295:38321   */\n      sload\n        /* \"#utility.yul\":38287:38293   */\n      dup3\n        /* \"#utility.yul\":38280:38322   */\n      sstore\n        /* \"#utility.yul\":38361:38362   */\n      0x01\n        /* \"#utility.yul\":38353:38359   */\n      dup3\n        /* \"#utility.yul\":38349:38363   */\n      add\n        /* \"#utility.yul\":38339:38363   */\n      swap2\n      pop\n        /* \"#utility.yul\":38408:38409   */\n      0x01\n        /* \"#utility.yul\":38397:38406   */\n      dup6\n        /* \"#utility.yul\":38393:38410   */\n      add\n        /* \"#utility.yul\":38380:38410   */\n      swap5\n      pop\n        /* \"#utility.yul\":38254:38258   */\n      0x20\n        /* \"#utility.yul\":38251:38252   */\n      dup2\n        /* \"#utility.yul\":38247:38259   */\n      add\n        /* \"#utility.yul\":38242:38259   */\n      swap1\n      pop\n        /* \"#utility.yul\":38217:38424   */\n      jump(tag_771)\n    tag_773:\n        /* \"#utility.yul\":38452:38458   */\n      dup7\n        /* \"#utility.yul\":38443:38450   */\n      dup4\n        /* \"#utility.yul\":38440:38459   */\n      lt\n        /* \"#utility.yul\":38437:38616   */\n      iszero\n      tag_774\n      jumpi\n        /* \"#utility.yul\":38510:38519   */\n      dup5\n        /* \"#utility.yul\":38505:38508   */\n      dup10\n        /* \"#utility.yul\":38501:38520   */\n      add\n        /* \"#utility.yul\":38495:38521   */\n      sload\n        /* \"#utility.yul\":38553:38601   */\n      tag_775\n        /* \"#utility.yul\":38595:38599   */\n      0x1f\n        /* \"#utility.yul\":38587:38593   */\n      dup10\n        /* \"#utility.yul\":38583:38600   */\n      and\n        /* \"#utility.yul\":38572:38581   */\n      dup3\n        /* \"#utility.yul\":38553:38601   */\n      tag_375\n      jump\t// in\n    tag_775:\n        /* \"#utility.yul\":38545:38551   */\n      dup4\n        /* \"#utility.yul\":38538:38602   */\n      sstore\n        /* \"#utility.yul\":38460:38616   */\n      pop\n        /* \"#utility.yul\":38437:38616   */\n    tag_774:\n        /* \"#utility.yul\":38662:38663   */\n      0x01\n        /* \"#utility.yul\":38658:38659   */\n      0x02\n        /* \"#utility.yul\":38650:38656   */\n      dup9\n        /* \"#utility.yul\":38646:38660   */\n      mul\n        /* \"#utility.yul\":38642:38664   */\n      add\n        /* \"#utility.yul\":38636:38640   */\n      dup9\n        /* \"#utility.yul\":38629:38665   */\n      sstore\n        /* \"#utility.yul\":38006:38675   */\n      pop\n      pop\n      pop\n        /* \"#utility.yul\":37969:38914   */\n    tag_765:\n      pop\n        /* \"#utility.yul\":37550:38920   */\n      pop\n      pop\n      pop\n        /* \"#utility.yul\":37457:38920   */\n      pop\n      pop\n    tag_758:\n      jump\t// out\n        /* \"#utility.yul\":38926:39106   */\n    tag_273:\n        /* \"#utility.yul\":38974:39051   */\n      0x4e487b7100000000000000000000000000000000000000000000000000000000\n        /* \"#utility.yul\":38971:38972   */\n      0x00\n        /* \"#utility.yul\":38964:39052   */\n      mstore\n        /* \"#utility.yul\":39071:39075   */\n      0x31\n        /* \"#utility.yul\":39068:39069   */\n      0x04\n        /* \"#utility.yul\":39061:39076   */\n      mstore\n        /* \"#utility.yul\":39095:39099   */\n      0x24\n        /* \"#utility.yul\":39092:39093   */\n      0x00\n        /* \"#utility.yul\":39085:39100   */\n      revert\n        /* \"#utility.yul\":39112:39198   */\n    tag_393:\n        /* \"#utility.yul\":39147:39154   */\n      0x00\n        /* \"#utility.yul\":39187:39191   */\n      0xff\n        /* \"#utility.yul\":39180:39185   */\n      dup3\n        /* \"#utility.yul\":39176:39192   */\n      and\n        /* \"#utility.yul\":39165:39192   */\n      swap1\n      pop\n        /* \"#utility.yul\":39112:39198   */\n      swap2\n      swap1\n      pop\n      jump\t// out\n        /* \"#utility.yul\":39204:39392   */\n    tag_294:\n        /* \"#utility.yul\":39242:39245   */\n      0x00\n        /* \"#utility.yul\":39261:39279   */\n      tag_779\n        /* \"#utility.yul\":39277:39278   */\n      dup3\n        /* \"#utility.yul\":39261:39279   */\n      tag_393\n      jump\t// in\n    tag_779:\n        /* \"#utility.yul\":39256:39279   */\n      swap2\n      pop\n        /* \"#utility.yul\":39293:39311   */\n      tag_780\n        /* \"#utility.yul\":39309:39310   */\n      dup4\n        /* \"#utility.yul\":39293:39311   */\n      tag_393\n      jump\t// in\n    tag_780:\n        /* \"#utility.yul\":39288:39311   */\n      swap3\n      pop\n        /* \"#utility.yul\":39334:39335   */\n      dup3\n        /* \"#utility.yul\":39331:39332   */\n      dup3\n        /* \"#utility.yul\":39327:39336   */\n      add\n        /* \"#utility.yul\":39320:39336   */\n      swap1\n      pop\n        /* \"#utility.yul\":39357:39361   */\n      0xff\n        /* \"#utility.yul\":39352:39355   */\n      dup2\n        /* \"#utility.yul\":39349:39362   */\n      gt\n        /* \"#utility.yul\":39346:39385   */\n      iszero\n      tag_781\n      jumpi\n        /* \"#utility.yul\":39365:39383   */\n      tag_782\n      tag_351\n      jump\t// in\n    tag_782:\n        /* \"#utility.yul\":39346:39385   */\n    tag_781:\n        /* \"#utility.yul\":39204:39392   */\n      swap3\n      swap2\n      pop\n      pop\n      jump\t// out\n\n    auxdata: 0xa26469706673582212208eddc98fe6fd361f6a430fc21b3f382e7c67556da94bd1fd9ec3e4058f65040d64736f6c63430008150033\n}\n",
				"bytecode": {
					"linkReferences": {},
					"object": "608060405234801561001057600080fd5b5033600160006101000a81548173ffffffffffffffffffffffffffffffffffffffff021916908373ffffffffffffffffffffffffffffffffffffffff160217905550613172806100616000396000f3fe6080604052600436106100c25760003560e01c8063894d46ac1161007f5780639e281a98116100595780639e281a981461026b578063cc69784a14610294578063d8bd5c29146102b0578063f38ffb6c146102db576100c2565b8063894d46ac146101ee5780638da5cb5b14610217578063913986bb14610242576100c2565b8063031c1301146100c75780631a83fd8f1461010457806332752b091461012057806335b9e9371461015d5780633c00a36c146101865780634889e192146101af575b600080fd5b3480156100d357600080fd5b506100ee60048036038101906100e99190611d23565b610318565b6040516100fb9190611d85565b60405180910390f35b61011e60048036038101906101199190611e2c565b610346565b005b34801561012c57600080fd5b5061014760048036038101906101429190611e8c565b610659565b6040516101549190611ef4565b60405180910390f35b34801561016957600080fd5b50610184600480360381019061017f9190611e2c565b610702565b005b34801561019257600080fd5b506101ad60048036038101906101a89190611f0f565b6107f7565b005b3480156101bb57600080fd5b506101d660048036038101906101d19190611e8c565b6108d1565b6040516101e593929190611f7d565b60405180910390f35b3480156101fa57600080fd5b5061021560048036038101906102109190611fe0565b61098f565b005b34801561022357600080fd5b5061022c610ba1565b6040516102399190612040565b60405180910390f35b34801561024e57600080fd5b5061026960048036038101906102649190611fe0565b610bc7565b005b34801561027757600080fd5b50610292600480360381019061028d919061205b565b610f02565b005b6102ae60048036038101906102a9919061209b565b611015565b005b3480156102bc57600080fd5b506102c5611530565b6040516102d29190612040565b60405180910390f35b3480156102e757600080fd5b5061030260048036038101906102fd9190612142565b611554565b60405161030f91906122b0565b60405180910390f35b6002818051602081018201805184825260208301602085012081835280955050505050506000915090505481565b82828080601f016020809104026020016040519081016040528093929190818152602001838380828437600081840152601f19601f820116905080830192505050505050503373ffffffffffffffffffffffffffffffffffffffff166003826040516103b2919061230e565b908152602001604051809103902060000160009054906101000a900473ffffffffffffffffffffffffffffffffffffffff1673ffffffffffffffffffffffffffffffffffffffff161461043a576040517f08c379a0000000000000000000000000000000000000000000000000000000008152600401610431906123a8565b60405180910390fd5b600061048985858080601f016020809104026020016040519081016040528093929190818152602001838380828437600081840152601f19601f8201169050808301925050505050505061166c565b905060006104db86868080601f016020809104026020016040519081016040528093929190818152602001838380828437600081840152601f19601f8201169050808301925050505050505083611752565b90506000846002836040516104f0919061230e565b90815260200160405180910390205461050991906123f7565b90508034101561054e576040517f08c379a0000000000000000000000000000000000000000000000000000000008152600401610545906124ab565b60405180910390fd5b6301e133808561055e91906123f7565b600388886040516105709291906124f0565b908152602001604051809103902060020160008282546105909190612509565b925050819055507ff44ec9072df846717b4110f1fc66219abeeba0e9599e259c4309f01079e7a8e9878760038a8a6040516105cc9291906124f0565b9081526020016040518091039020600201546040516105ed9392919061256a565b60405180910390a180341115610650573373ffffffffffffffffffffffffffffffffffffffff166108fc8234610623919061259c565b9081150290604051600060405180830381858888f1935050505015801561064e573d6000803e3d6000fd5b505b50505050505050565b60008073ffffffffffffffffffffffffffffffffffffffff16600384846040516106849291906124f0565b908152602001604051809103902060000160009054906101000a900473ffffffffffffffffffffffffffffffffffffffff1673ffffffffffffffffffffffffffffffffffffffff1614806106fa575042600384846040516106e69291906124f0565b908152602001604051809103902060020154105b905092915050565b600160009054906101000a900473ffffffffffffffffffffffffffffffffffffffff1673ffffffffffffffffffffffffffffffffffffffff163373ffffffffffffffffffffffffffffffffffffffff1614610792576040517f08c379a000000000000000000000000000000000000000000000000000000000815260040161078990612642565b60405180910390fd5b80600284846040516107a59291906124f0565b9081526020016040518091039020819055507f7ecd49f8137bc8d353db356946f52453e29656073aef0362c08a514421db24f58383836040516107ea9392919061256a565b60405180910390a1505050565b600160009054906101000a900473ffffffffffffffffffffffffffffffffffffffff1673ffffffffffffffffffffffffffffffffffffffff163373ffffffffffffffffffffffffffffffffffffffff1614610887576040517f08c379a000000000000000000000000000000000000000000000000000000000815260040161087e90612642565b60405180910390fd5b3373ffffffffffffffffffffffffffffffffffffffff166108fc829081150290604051600060405180830381858888f193505050501580156108cd573d6000803e3d6000fd5b5050565b6000806000600385856040516108e89291906124f0565b908152602001604051809103902060000160009054906101000a900473ffffffffffffffffffffffffffffffffffffffff166003868660405161092c9291906124f0565b908152602001604051809103902060010160009054906101000a900473ffffffffffffffffffffffffffffffffffffffff16600387876040516109709291906124f0565b9081526020016040518091039020600201549250925092509250925092565b82828080601f016020809104026020016040519081016040528093929190818152602001838380828437600081840152601f19601f820116905080830192505050505050503373ffffffffffffffffffffffffffffffffffffffff166003826040516109fb919061230e565b908152602001604051809103902060000160009054906101000a900473ffffffffffffffffffffffffffffffffffffffff1673ffffffffffffffffffffffffffffffffffffffff1614610a83576040517f08c379a0000000000000000000000000000000000000000000000000000000008152600401610a7a906123a8565b60405180910390fd5b4260038585604051610a969291906124f0565b9081526020016040518091039020600201541015610ae9576040517f08c379a0000000000000000000000000000000000000000000000000000000008152600401610ae0906126ae565b60405180910390fd5b8160038585604051610afc9291906124f0565b908152602001604051809103902060010160006101000a81548173ffffffffffffffffffffffffffffffffffffffff021916908373ffffffffffffffffffffffffffffffffffffffff1602179055508173ffffffffffffffffffffffffffffffffffffffff167f6d25091b0cf2f910de133fa1124a83cc0bba17dcddb63e259346affd222ebe448585604051610b939291906126ce565b60405180910390a250505050565b600160009054906101000a900473ffffffffffffffffffffffffffffffffffffffff1681565b82828080601f016020809104026020016040519081016040528093929190818152602001838380828437600081840152601f19601f820116905080830192505050505050503373ffffffffffffffffffffffffffffffffffffffff16600382604051610c33919061230e565b908152602001604051809103902060000160009054906101000a900473ffffffffffffffffffffffffffffffffffffffff1673ffffffffffffffffffffffffffffffffffffffff1614610cbb576040517f08c379a0000000000000000000000000000000000000000000000000000000008152600401610cb2906123a8565b60405180910390fd5b4260038585604051610cce9291906124f0565b9081526020016040518091039020600201541015610d21576040517f08c379a0000000000000000000000000000000000000000000000000000000008152600401610d18906126ae565b60405180910390fd5b600060038585604051610d359291906124f0565b908152602001604051809103902060000160009054906101000a900473ffffffffffffffffffffffffffffffffffffffff1690508260038686604051610d7c9291906124f0565b908152602001604051809103902060000160006101000a81548173ffffffffffffffffffffffffffffffffffffffff021916908373ffffffffffffffffffffffffffffffffffffffff160217905550610e198186868080601f016020809104026020016040519081016040528093929190818152602001838380828437600081840152601f19601f8201169050808301925050505050505061184f565b600460008473ffffffffffffffffffffffffffffffffffffffff1673ffffffffffffffffffffffffffffffffffffffff168152602001908152602001600020858590918060018154018082558091505060019003906000526020600020016000909192909192909192909192509182610e93929190612909565b508273ffffffffffffffffffffffffffffffffffffffff168173ffffffffffffffffffffffffffffffffffffffff167fd43ae7ba5d7f951ba2fb94d03dc0f12664835c289cea1d1295e86a1fbddfc82c8787604051610ef39291906126ce565b60405180910390a35050505050565b600160009054906101000a900473ffffffffffffffffffffffffffffffffffffffff1673ffffffffffffffffffffffffffffffffffffffff163373ffffffffffffffffffffffffffffffffffffffff1614610f92576040517f08c379a0000000000000000000000000000000000000000000000000000000008152600401610f8990612642565b60405180910390fd5b8173ffffffffffffffffffffffffffffffffffffffff1663a9059cbb33836040518363ffffffff1660e01b8152600401610fcd9291906129d9565b6020604051808303816000875af1158015610fec573d6000803e3d6000fd5b505050506040513d601f19601f820116820180604052508101906110109190612a2e565b505050565b6000600283836040516110299291906124f0565b90815260200160405180910390205403611078576040517f08c379a000000000000000000000000000000000000000000000000000000000815260040161106f90612aa7565b60405180910390fd5b60006110c787878080601f016020809104026020016040519081016040528093929190818152602001838380828437600081840152601f19601f820116905080830192505050505050506119b4565b9050600081511180156110dc5750600f815111155b61111b576040517f08c379a000000000000000000000000000000000000000000000000000000000815260040161111290612b39565b60405180910390fd5b600081848460405160200161113293929190612b59565b6040516020818303038152906040529050600042600383604051611156919061230e565b908152602001604051809103902060020154109050600073ffffffffffffffffffffffffffffffffffffffff16600383604051611193919061230e565b908152602001604051809103902060000160009054906101000a900473ffffffffffffffffffffffffffffffffffffffff1673ffffffffffffffffffffffffffffffffffffffff1614806111e45750805b611223576040517f08c379a000000000000000000000000000000000000000000000000000000000815260040161121a90612bf1565b60405180910390fd5b80156112755761127460038360405161123c919061230e565b908152602001604051809103902060000160009054906101000a900473ffffffffffffffffffffffffffffffffffffffff168361184f565b5b6000866002878760405161128a9291906124f0565b9081526020016040518091039020546112a391906123f7565b9050803410156112e8576040517f08c379a00000000000000000000000000000000000000000000000000000000081526004016112df90612ca9565b60405180910390fd5b6000603c886112f791906123f7565b426113029190612509565b905060405180606001604052803373ffffffffffffffffffffffffffffffffffffffff1681526020018a73ffffffffffffffffffffffffffffffffffffffff1681526020018281525060038560405161135b919061230e565b908152602001604051809103902060008201518160000160006101000a81548173ffffffffffffffffffffffffffffffffffffffff021916908373ffffffffffffffffffffffffffffffffffffffff16021790555060208201518160010160006101000a81548173ffffffffffffffffffffffffffffffffffffffff021916908373ffffffffffffffffffffffffffffffffffffffff16021790555060408201518160020155905050600460003373ffffffffffffffffffffffffffffffffffffffff1673ffffffffffffffffffffffffffffffffffffffff168152602001908152602001600020849080600181540180825580915050600190039060005260206000200160009091909190915090816114759190612cc9565b503373ffffffffffffffffffffffffffffffffffffffff167fa5f4533ec077c1b1e4fa879988258637a45b7a6e6663bf8589e0d3dde3855017858b846040516114c093929190612dd4565b60405180910390a281341115611523573373ffffffffffffffffffffffffffffffffffffffff166108fc83346114f6919061259c565b9081150290604051600060405180830381858888f19350505050158015611521573d6000803e3d6000fd5b505b5050505050505050505050565b60008054906101000a900473ffffffffffffffffffffffffffffffffffffffff1681565b6060600460008373ffffffffffffffffffffffffffffffffffffffff1673ffffffffffffffffffffffffffffffffffffffff168152602001908152602001600020805480602002602001604051908101604052809291908181526020016000905b828210156116615783829060005260206000200180546115d49061272c565b80601f01602080910402602001604051908101604052809291908181526020018280546116009061272c565b801561164d5780601f106116225761010080835404028352916020019161164d565b820191906000526020600020905b81548152906001019060200180831161163057829003601f168201915b5050505050815260200190600101906115b5565b505050509050919050565b6000808290506000815190505b6000811115611711577f2e00000000000000000000000000000000000000000000000000000000000000826001836116b1919061259c565b815181106116c2576116c1612e12565b5b602001015160f81c60f81b7effffffffffffffffffffffffffffffffffffffffffffffffffffffffffffff1916036116fe57809250505061174d565b808061170990612e41565b915050611679565b506040517f08c379a000000000000000000000000000000000000000000000000000000000815260040161174490612eb6565b60405180910390fd5b919050565b606060008390506000838251611768919061259c565b67ffffffffffffffff81111561178157611780611bf8565b5b6040519080825280601f01601f1916602001820160405280156117b35781602001600182028036833780820191505090505b50905060008490505b8251811015611843578281815181106117d8576117d7612e12565b5b602001015160f81c60f81b8286836117f0919061259c565b8151811061180157611800612e12565b5b60200101907effffffffffffffffffffffffffffffffffffffffffffffffffffffffffffff1916908160001a905350808061183b90612ed6565b9150506117bc565b50809250505092915050565b6000600460008473ffffffffffffffffffffffffffffffffffffffff1673ffffffffffffffffffffffffffffffffffffffff168152602001908152602001600020905060005b81805490508110156119ae57826040516020016118b2919061230e565b604051602081830303815290604052805190602001208282815481106118db576118da612e12565b5b906000526020600020016040516020016118f59190612fa1565b604051602081830303815290604052805190602001200361199b578160018380549050611922919061259c565b8154811061193357611932612e12565b5b906000526020600020018282815481106119505761194f612e12565b5b9060005260206000200190816119669190612fe3565b5081805480611978576119776130cb565b5b6001900381819060005260206000200160006119949190611b6c565b90556119ae565b80806119a690612ed6565b915050611895565b50505050565b606060008290506000815167ffffffffffffffff8111156119d8576119d7611bf8565b5b6040519080825280601f01601f191660200182016040528015611a0a5781602001600182028036833780820191505090505b50905060005b8251811015611b61576041838281518110611a2e57611a2d612e12565b5b602001015160f81c60f81b60f81c60ff1610158015611a715750605a838281518110611a5d57611a5c612e12565b5b602001015160f81c60f81b60f81c60ff1611155b15611aed576020838281518110611a8b57611a8a612e12565b5b602001015160f81c60f81b60f81c611aa39190613107565b60f81b828281518110611ab957611ab8612e12565b5b60200101907effffffffffffffffffffffffffffffffffffffffffffffffffffffffffffff1916908160001a905350611b4e565b828181518110611b0057611aff612e12565b5b602001015160f81c60f81b828281518110611b1e57611b1d612e12565b5b60200101907effffffffffffffffffffffffffffffffffffffffffffffffffffffffffffff1916908160001a9053505b8080611b5990612ed6565b915050611a10565b508092505050919050565b508054611b789061272c565b6000825580601f10611b8a5750611ba9565b601f016020900490600052602060002090810190611ba89190611bac565b5b50565b5b80821115611bc5576000816000905550600101611bad565b5090565b6000604051905090565b600080fd5b600080fd5b600080fd5b600080fd5b6000601f19601f8301169050919050565b7f4e487b7100000000000000000000000000000000000000000000000000000000600052604160045260246000fd5b611c3082611be7565b810181811067ffffffffffffffff82111715611c4f57611c4e611bf8565b5b80604052505050565b6000611c62611bc9565b9050611c6e8282611c27565b919050565b600067ffffffffffffffff821115611c8e57611c8d611bf8565b5b611c9782611be7565b9050602081019050919050565b82818337600083830152505050565b6000611cc6611cc184611c73565b611c58565b905082815260208101848484011115611ce257611ce1611be2565b5b611ced848285611ca4565b509392505050565b600082601f830112611d0a57611d09611bdd565b5b8135611d1a848260208601611cb3565b91505092915050565b600060208284031215611d3957611d38611bd3565b5b600082013567ffffffffffffffff811115611d5757611d56611bd8565b5b611d6384828501611cf5565b91505092915050565b6000819050919050565b611d7f81611d6c565b82525050565b6000602082019050611d9a6000830184611d76565b92915050565b600080fd5b600080fd5b60008083601f840112611dc057611dbf611bdd565b5b8235905067ffffffffffffffff811115611ddd57611ddc611da0565b5b602083019150836001820283011115611df957611df8611da5565b5b9250929050565b611e0981611d6c565b8114611e1457600080fd5b50565b600081359050611e2681611e00565b92915050565b600080600060408486031215611e4557611e44611bd3565b5b600084013567ffffffffffffffff811115611e6357611e62611bd8565b5b611e6f86828701611daa565b93509350506020611e8286828701611e17565b9150509250925092565b60008060208385031215611ea357611ea2611bd3565b5b600083013567ffffffffffffffff811115611ec157611ec0611bd8565b5b611ecd85828601611daa565b92509250509250929050565b60008115159050919050565b611eee81611ed9565b82525050565b6000602082019050611f096000830184611ee5565b92915050565b600060208284031215611f2557611f24611bd3565b5b6000611f3384828501611e17565b91505092915050565b600073ffffffffffffffffffffffffffffffffffffffff82169050919050565b6000611f6782611f3c565b9050919050565b611f7781611f5c565b82525050565b6000606082019050611f926000830186611f6e565b611f9f6020830185611f6e565b611fac6040830184611d76565b949350505050565b611fbd81611f5c565b8114611fc857600080fd5b50565b600081359050611fda81611fb4565b92915050565b600080600060408486031215611ff957611ff8611bd3565b5b600084013567ffffffffffffffff81111561201757612016611bd8565b5b61202386828701611daa565b9350935050602061203686828701611fcb565b9150509250925092565b60006020820190506120556000830184611f6e565b92915050565b6000806040838503121561207257612071611bd3565b5b600061208085828601611fcb565b925050602061209185828601611e17565b9150509250929050565b600080600080600080608087890312156120b8576120b7611bd3565b5b600087013567ffffffffffffffff8111156120d6576120d5611bd8565b5b6120e289828a01611daa565b965096505060206120f589828a01611fcb565b945050604061210689828a01611e17565b935050606087013567ffffffffffffffff81111561212757612126611bd8565b5b61213389828a01611daa565b92509250509295509295509295565b60006020828403121561215857612157611bd3565b5b600061216684828501611fcb565b91505092915050565b600081519050919050565b600082825260208201905092915050565b6000819050602082019050919050565b600081519050919050565b600082825260208201905092915050565b60005b838110156121d55780820151818401526020810190506121ba565b60008484015250505050565b60006121ec8261219b565b6121f681856121a6565b93506122068185602086016121b7565b61220f81611be7565b840191505092915050565b600061222683836121e1565b905092915050565b6000602082019050919050565b60006122468261216f565b612250818561217a565b9350836020820285016122628561218b565b8060005b8581101561229e578484038952815161227f858261221a565b945061228a8361222e565b925060208a01995050600181019050612266565b50829750879550505050505092915050565b600060208201905081810360008301526122ca818461223b565b905092915050565b600081905092915050565b60006122e88261219b565b6122f281856122d2565b93506123028185602086016121b7565b80840191505092915050565b600061231a82846122dd565b915081905092915050565b600082825260208201905092915050565b7f596f7520617265206e6f7420746865206f776e6572206f66207468697320646f60008201527f6d61696e2e000000000000000000000000000000000000000000000000000000602082015250565b6000612392602583612325565b915061239d82612336565b604082019050919050565b600060208201905081810360008301526123c181612385565b9050919050565b7f4e487b7100000000000000000000000000000000000000000000000000000000600052601160045260246000fd5b600061240282611d6c565b915061240d83611d6c565b925082820261241b81611d6c565b91508282048414831517612432576124316123c8565b5b5092915050565b7f496e73756666696369656e742066756e647320746f2072656e6577207468652060008201527f646f6d61696e20666f7220746865207370656369666965642079656172730000602082015250565b6000612495603e83612325565b91506124a082612439565b604082019050919050565b600060208201905081810360008301526124c481612488565b9050919050565b60006124d783856122d2565b93506124e4838584611ca4565b82840190509392505050565b60006124fd8284866124cb565b91508190509392505050565b600061251482611d6c565b915061251f83611d6c565b9250828201905080821115612537576125366123c8565b5b92915050565b60006125498385612325565b9350612556838584611ca4565b61255f83611be7565b840190509392505050565b6000604082019050818103600083015261258581858761253d565b90506125946020830184611d76565b949350505050565b60006125a782611d6c565b91506125b283611d6c565b92508282039050818111156125ca576125c96123c8565b5b92915050565b7f4f6e6c792074686520636f6e7472616374206f776e65722063616e2063616c6c60008201527f20746869732066756e6374696f6e2e0000000000000000000000000000000000602082015250565b600061262c602f83612325565b9150612637826125d0565b604082019050919050565b6000602082019050818103600083015261265b8161261f565b9050919050565b7f446f6d61696e2068617320657870697265642e00000000000000000000000000600082015250565b6000612698601383612325565b91506126a382612662565b602082019050919050565b600060208201905081810360008301526126c78161268b565b9050919050565b600060208201905081810360008301526126e981848661253d565b90509392505050565b600082905092915050565b7f4e487b7100000000000000000000000000000000000000000000000000000000600052602260045260246000fd5b6000600282049050600182168061274457607f821691505b602082108103612757576127566126fd565b5b50919050565b60008190508160005260206000209050919050565b60006020601f8301049050919050565b600082821b905092915050565b6000600883026127bf7fffffffffffffffffffffffffffffffffffffffffffffffffffffffffffffffff82612782565b6127c98683612782565b95508019841693508086168417925050509392505050565b6000819050919050565b60006128066128016127fc84611d6c565b6127e1565b611d6c565b9050919050565b6000819050919050565b612820836127eb565b61283461282c8261280d565b84845461278f565b825550505050565b600090565b61284961283c565b612854818484612817565b505050565b5b818110156128785761286d600082612841565b60018101905061285a565b5050565b601f8211156128bd5761288e8161275d565b61289784612772565b810160208510156128a6578190505b6128ba6128b285612772565b830182612859565b50505b505050565b600082821c905092915050565b60006128e0600019846008026128c2565b1980831691505092915050565b60006128f983836128cf565b9150826002028217905092915050565b61291383836126f2565b67ffffffffffffffff81111561292c5761292b611bf8565b5b612936825461272c565b61294182828561287c565b6000601f831160018114612970576000841561295e578287013590505b61296885826128ed565b8655506129d0565b601f19841661297e8661275d565b60005b828110156129a657848901358255600182019150602085019450602081019050612981565b868310156129c357848901356129bf601f8916826128cf565b8355505b6001600288020188555050505b50505050505050565b60006040820190506129ee6000830185611f6e565b6129fb6020830184611d76565b9392505050565b612a0b81611ed9565b8114612a1657600080fd5b50565b600081519050612a2881612a02565b92915050565b600060208284031215612a4457612a43611bd3565b5b6000612a5284828501612a19565b91505092915050565b7f496e76616c696420737566666978000000000000000000000000000000000000600082015250565b6000612a91600e83612325565b9150612a9c82612a5b565b602082019050919050565b60006020820190508181036000830152612ac081612a84565b9050919050565b7f4e616d652073686f756c64206265206265747765656e203120616e642031352060008201527f636861726163746572732e000000000000000000000000000000000000000000602082015250565b6000612b23602b83612325565b9150612b2e82612ac7565b604082019050919050565b60006020820190508181036000830152612b5281612b16565b9050919050565b6000612b6582866122dd565b9150612b728284866124cb565b9150819050949350505050565b7f446f6d61696e20697320616c7265616479206f776e6564206f72206e6f74207960008201527f6574206578706972656400000000000000000000000000000000000000000000602082015250565b6000612bdb602a83612325565b9150612be682612b7f565b604082019050919050565b60006020820190508181036000830152612c0a81612bce565b9050919050565b7f496e73756666696369656e742066756e647320746f207265676973746572207460008201527f686520646f6d61696e20666f722074686520737065636966696564207965617260208201527f7300000000000000000000000000000000000000000000000000000000000000604082015250565b6000612c93604183612325565b9150612c9e82612c11565b606082019050919050565b60006020820190508181036000830152612cc281612c86565b9050919050565b612cd28261219b565b67ffffffffffffffff811115612ceb57612cea611bf8565b5b612cf5825461272c565b612d0082828561287c565b600060209050601f831160018114612d335760008415612d21578287015190505b612d2b85826128ed565b865550612d93565b601f198416612d418661275d565b60005b82811015612d6957848901518255600182019150602085019450602081019050612d44565b86831015612d865784890151612d82601f8916826128cf565b8355505b6001600288020188555050505b505050505050565b6000612da68261219b565b612db08185612325565b9350612dc08185602086016121b7565b612dc981611be7565b840191505092915050565b60006060820190508181036000830152612dee8186612d9b565b9050612dfd6020830185611f6e565b612e0a6040830184611d76565b949350505050565b7f4e487b7100000000000000000000000000000000000000000000000000000000600052603260045260246000fd5b6000612e4c82611d6c565b915060008203612e5f57612e5e6123c8565b5b600182039050919050565b7f4e6f2073756666697820666f756e640000000000000000000000000000000000600082015250565b6000612ea0600f83612325565b9150612eab82612e6a565b602082019050919050565b60006020820190508181036000830152612ecf81612e93565b9050919050565b6000612ee182611d6c565b91507fffffffffffffffffffffffffffffffffffffffffffffffffffffffffffffffff8203612f1357612f126123c8565b5b600182019050919050565b60008154612f2b8161272c565b612f3581866122d2565b94506001821660008114612f505760018114612f6557612f98565b60ff1983168652811515820286019350612f98565b612f6e8561275d565b60005b83811015612f9057815481890152600182019150602081019050612f71565b838801955050505b50505092915050565b6000612fad8284612f1e565b915081905092915050565b600081549050612fc78161272c565b9050919050565b60008190508160005260206000209050919050565b818103612ff15750506130c9565b612ffa82612fb8565b67ffffffffffffffff81111561301357613012611bf8565b5b61301d825461272c565b61302882828561287c565b6000601f8311600181146130575760008415613045578287015490505b61304f85826128ed565b8655506130c2565b601f19841661306587612fce565b96506130708661275d565b60005b8281101561309857848901548255600182019150600185019450602081019050613073565b868310156130b557848901546130b1601f8916826128cf565b8355505b6001600288020188555050505b5050505050505b565b7f4e487b7100000000000000000000000000000000000000000000000000000000600052603160045260246000fd5b600060ff82169050919050565b6000613112826130fa565b915061311d836130fa565b9250828201905060ff811115613136576131356123c8565b5b9291505056fea26469706673582212208eddc98fe6fd361f6a430fc21b3f382e7c67556da94bd1fd9ec3e4058f65040d64736f6c63430008150033",
					"opcodes": "PUSH1 0x80 PUSH1 0x40 MSTORE CALLVALUE DUP1 ISZERO PUSH2 0x10 JUMPI PUSH1 0x0 DUP1 REVERT JUMPDEST POP CALLER PUSH1 0x1 PUSH1 0x0 PUSH2 0x100 EXP DUP2 SLOAD DUP2 PUSH20 0xFFFFFFFFFFFFFFFFFFFFFFFFFFFFFFFFFFFFFFFF MUL NOT AND SWAP1 DUP4 PUSH20 0xFFFFFFFFFFFFFFFFFFFFFFFFFFFFFFFFFFFFFFFF AND MUL OR SWAP1 SSTORE POP PUSH2 0x3172 DUP1 PUSH2 0x61 PUSH1 0x0 CODECOPY PUSH1 0x0 RETURN INVALID PUSH1 0x80 PUSH1 0x40 MSTORE PUSH1 0x4 CALLDATASIZE LT PUSH2 0xC2 JUMPI PUSH1 0x0 CALLDATALOAD PUSH1 0xE0 SHR DUP1 PUSH4 0x894D46AC GT PUSH2 0x7F JUMPI DUP1 PUSH4 0x9E281A98 GT PUSH2 0x59 JUMPI DUP1 PUSH4 0x9E281A98 EQ PUSH2 0x26B JUMPI DUP1 PUSH4 0xCC69784A EQ PUSH2 0x294 JUMPI DUP1 PUSH4 0xD8BD5C29 EQ PUSH2 0x2B0 JUMPI DUP1 PUSH4 0xF38FFB6C EQ PUSH2 0x2DB JUMPI PUSH2 0xC2 JUMP JUMPDEST DUP1 PUSH4 0x894D46AC EQ PUSH2 0x1EE JUMPI DUP1 PUSH4 0x8DA5CB5B EQ PUSH2 0x217 JUMPI DUP1 PUSH4 0x913986BB EQ PUSH2 0x242 JUMPI PUSH2 0xC2 JUMP JUMPDEST DUP1 PUSH4 0x31C1301 EQ PUSH2 0xC7 JUMPI DUP1 PUSH4 0x1A83FD8F EQ PUSH2 0x104 JUMPI DUP1 PUSH4 0x32752B09 EQ PUSH2 0x120 JUMPI DUP1 PUSH4 0x35B9E937 EQ PUSH2 0x15D JUMPI DUP1 PUSH4 0x3C00A36C EQ PUSH2 0x186 JUMPI DUP1 PUSH4 0x4889E192 EQ PUSH2 0x1AF JUMPI JUMPDEST PUSH1 0x0 DUP1 REVERT JUMPDEST CALLVALUE DUP1 ISZERO PUSH2 0xD3 JUMPI PUSH1 0x0 DUP1 REVERT JUMPDEST POP PUSH2 0xEE PUSH1 0x4 DUP1 CALLDATASIZE SUB DUP2 ADD SWAP1 PUSH2 0xE9 SWAP2 SWAP1 PUSH2 0x1D23 JUMP JUMPDEST PUSH2 0x318 JUMP JUMPDEST PUSH1 0x40 MLOAD PUSH2 0xFB SWAP2 SWAP1 PUSH2 0x1D85 JUMP JUMPDEST PUSH1 0x40 MLOAD DUP1 SWAP2 SUB SWAP1 RETURN JUMPDEST PUSH2 0x11E PUSH1 0x4 DUP1 CALLDATASIZE SUB DUP2 ADD SWAP1 PUSH2 0x119 SWAP2 SWAP1 PUSH2 0x1E2C JUMP JUMPDEST PUSH2 0x346 JUMP JUMPDEST STOP JUMPDEST CALLVALUE DUP1 ISZERO PUSH2 0x12C JUMPI PUSH1 0x0 DUP1 REVERT JUMPDEST POP PUSH2 0x147 PUSH1 0x4 DUP1 CALLDATASIZE SUB DUP2 ADD SWAP1 PUSH2 0x142 SWAP2 SWAP1 PUSH2 0x1E8C JUMP JUMPDEST PUSH2 0x659 JUMP JUMPDEST PUSH1 0x40 MLOAD PUSH2 0x154 SWAP2 SWAP1 PUSH2 0x1EF4 JUMP JUMPDEST PUSH1 0x40 MLOAD DUP1 SWAP2 SUB SWAP1 RETURN JUMPDEST CALLVALUE DUP1 ISZERO PUSH2 0x169 JUMPI PUSH1 0x0 DUP1 REVERT JUMPDEST POP PUSH2 0x184 PUSH1 0x4 DUP1 CALLDATASIZE SUB DUP2 ADD SWAP1 PUSH2 0x17F SWAP2 SWAP1 PUSH2 0x1E2C JUMP JUMPDEST PUSH2 0x702 JUMP JUMPDEST STOP JUMPDEST CALLVALUE DUP1 ISZERO PUSH2 0x192 JUMPI PUSH1 0x0 DUP1 REVERT JUMPDEST POP PUSH2 0x1AD PUSH1 0x4 DUP1 CALLDATASIZE SUB DUP2 ADD SWAP1 PUSH2 0x1A8 SWAP2 SWAP1 PUSH2 0x1F0F JUMP JUMPDEST PUSH2 0x7F7 JUMP JUMPDEST STOP JUMPDEST CALLVALUE DUP1 ISZERO PUSH2 0x1BB JUMPI PUSH1 0x0 DUP1 REVERT JUMPDEST POP PUSH2 0x1D6 PUSH1 0x4 DUP1 CALLDATASIZE SUB DUP2 ADD SWAP1 PUSH2 0x1D1 SWAP2 SWAP1 PUSH2 0x1E8C JUMP JUMPDEST PUSH2 0x8D1 JUMP JUMPDEST PUSH1 0x40 MLOAD PUSH2 0x1E5 SWAP4 SWAP3 SWAP2 SWAP1 PUSH2 0x1F7D JUMP JUMPDEST PUSH1 0x40 MLOAD DUP1 SWAP2 SUB SWAP1 RETURN JUMPDEST CALLVALUE DUP1 ISZERO PUSH2 0x1FA JUMPI PUSH1 0x0 DUP1 REVERT JUMPDEST POP PUSH2 0x215 PUSH1 0x4 DUP1 CALLDATASIZE SUB DUP2 ADD SWAP1 PUSH2 0x210 SWAP2 SWAP1 PUSH2 0x1FE0 JUMP JUMPDEST PUSH2 0x98F JUMP JUMPDEST STOP JUMPDEST CALLVALUE DUP1 ISZERO PUSH2 0x223 JUMPI PUSH1 0x0 DUP1 REVERT JUMPDEST POP PUSH2 0x22C PUSH2 0xBA1 JUMP JUMPDEST PUSH1 0x40 MLOAD PUSH2 0x239 SWAP2 SWAP1 PUSH2 0x2040 JUMP JUMPDEST PUSH1 0x40 MLOAD DUP1 SWAP2 SUB SWAP1 RETURN JUMPDEST CALLVALUE DUP1 ISZERO PUSH2 0x24E JUMPI PUSH1 0x0 DUP1 REVERT JUMPDEST POP PUSH2 0x269 PUSH1 0x4 DUP1 CALLDATASIZE SUB DUP2 ADD SWAP1 PUSH2 0x264 SWAP2 SWAP1 PUSH2 0x1FE0 JUMP JUMPDEST PUSH2 0xBC7 JUMP JUMPDEST STOP JUMPDEST CALLVALUE DUP1 ISZERO PUSH2 0x277 JUMPI PUSH1 0x0 DUP1 REVERT JUMPDEST POP PUSH2 0x292 PUSH1 0x4 DUP1 CALLDATASIZE SUB DUP2 ADD SWAP1 PUSH2 0x28D SWAP2 SWAP1 PUSH2 0x205B JUMP JUMPDEST PUSH2 0xF02 JUMP JUMPDEST STOP JUMPDEST PUSH2 0x2AE PUSH1 0x4 DUP1 CALLDATASIZE SUB DUP2 ADD SWAP1 PUSH2 0x2A9 SWAP2 SWAP1 PUSH2 0x209B JUMP JUMPDEST PUSH2 0x1015 JUMP JUMPDEST STOP JUMPDEST CALLVALUE DUP1 ISZERO PUSH2 0x2BC JUMPI PUSH1 0x0 DUP1 REVERT JUMPDEST POP PUSH2 0x2C5 PUSH2 0x1530 JUMP JUMPDEST PUSH1 0x40 MLOAD PUSH2 0x2D2 SWAP2 SWAP1 PUSH2 0x2040 JUMP JUMPDEST PUSH1 0x40 MLOAD DUP1 SWAP2 SUB SWAP1 RETURN JUMPDEST CALLVALUE DUP1 ISZERO PUSH2 0x2E7 JUMPI PUSH1 0x0 DUP1 REVERT JUMPDEST POP PUSH2 0x302 PUSH1 0x4 DUP1 CALLDATASIZE SUB DUP2 ADD SWAP1 PUSH2 0x2FD SWAP2 SWAP1 PUSH2 0x2142 JUMP JUMPDEST PUSH2 0x1554 JUMP JUMPDEST PUSH1 0x40 MLOAD PUSH2 0x30F SWAP2 SWAP1 PUSH2 0x22B0 JUMP JUMPDEST PUSH1 0x40 MLOAD DUP1 SWAP2 SUB SWAP1 RETURN JUMPDEST PUSH1 0x2 DUP2 DUP1 MLOAD PUSH1 0x20 DUP2 ADD DUP3 ADD DUP1 MLOAD DUP5 DUP3 MSTORE PUSH1 0x20 DUP4 ADD PUSH1 0x20 DUP6 ADD KECCAK256 DUP2 DUP4 MSTORE DUP1 SWAP6 POP POP POP POP POP POP PUSH1 0x0 SWAP2 POP SWAP1 POP SLOAD DUP2 JUMP JUMPDEST DUP3 DUP3 DUP1 DUP1 PUSH1 0x1F ADD PUSH1 0x20 DUP1 SWAP2 DIV MUL PUSH1 0x20 ADD PUSH1 0x40 MLOAD SWAP1 DUP2 ADD PUSH1 0x40 MSTORE DUP1 SWAP4 SWAP3 SWAP2 SWAP1 DUP2 DUP2 MSTORE PUSH1 0x20 ADD DUP4 DUP4 DUP1 DUP3 DUP5 CALLDATACOPY PUSH1 0x0 DUP2 DUP5 ADD MSTORE PUSH1 0x1F NOT PUSH1 0x1F DUP3 ADD AND SWAP1 POP DUP1 DUP4 ADD SWAP3 POP POP POP POP POP POP POP CALLER PUSH20 0xFFFFFFFFFFFFFFFFFFFFFFFFFFFFFFFFFFFFFFFF AND PUSH1 0x3 DUP3 PUSH1 0x40 MLOAD PUSH2 0x3B2 SWAP2 SWAP1 PUSH2 0x230E JUMP JUMPDEST SWAP1 DUP2 MSTORE PUSH1 0x20 ADD PUSH1 0x40 MLOAD DUP1 SWAP2 SUB SWAP1 KECCAK256 PUSH1 0x0 ADD PUSH1 0x0 SWAP1 SLOAD SWAP1 PUSH2 0x100 EXP SWAP1 DIV PUSH20 0xFFFFFFFFFFFFFFFFFFFFFFFFFFFFFFFFFFFFFFFF AND PUSH20 0xFFFFFFFFFFFFFFFFFFFFFFFFFFFFFFFFFFFFFFFF AND EQ PUSH2 0x43A JUMPI PUSH1 0x40 MLOAD PUSH32 0x8C379A000000000000000000000000000000000000000000000000000000000 DUP2 MSTORE PUSH1 0x4 ADD PUSH2 0x431 SWAP1 PUSH2 0x23A8 JUMP JUMPDEST PUSH1 0x40 MLOAD DUP1 SWAP2 SUB SWAP1 REVERT JUMPDEST PUSH1 0x0 PUSH2 0x489 DUP6 DUP6 DUP1 DUP1 PUSH1 0x1F ADD PUSH1 0x20 DUP1 SWAP2 DIV MUL PUSH1 0x20 ADD PUSH1 0x40 MLOAD SWAP1 DUP2 ADD PUSH1 0x40 MSTORE DUP1 SWAP4 SWAP3 SWAP2 SWAP1 DUP2 DUP2 MSTORE PUSH1 0x20 ADD DUP4 DUP4 DUP1 DUP3 DUP5 CALLDATACOPY PUSH1 0x0 DUP2 DUP5 ADD MSTORE PUSH1 0x1F NOT PUSH1 0x1F DUP3 ADD AND SWAP1 POP DUP1 DUP4 ADD SWAP3 POP POP POP POP POP POP POP PUSH2 0x166C JUMP JUMPDEST SWAP1 POP PUSH1 0x0 PUSH2 0x4DB DUP7 DUP7 DUP1 DUP1 PUSH1 0x1F ADD PUSH1 0x20 DUP1 SWAP2 DIV MUL PUSH1 0x20 ADD PUSH1 0x40 MLOAD SWAP1 DUP2 ADD PUSH1 0x40 MSTORE DUP1 SWAP4 SWAP3 SWAP2 SWAP1 DUP2 DUP2 MSTORE PUSH1 0x20 ADD DUP4 DUP4 DUP1 DUP3 DUP5 CALLDATACOPY PUSH1 0x0 DUP2 DUP5 ADD MSTORE PUSH1 0x1F NOT PUSH1 0x1F DUP3 ADD AND SWAP1 POP DUP1 DUP4 ADD SWAP3 POP POP POP POP POP POP POP DUP4 PUSH2 0x1752 JUMP JUMPDEST SWAP1 POP PUSH1 0x0 DUP5 PUSH1 0x2 DUP4 PUSH1 0x40 MLOAD PUSH2 0x4F0 SWAP2 SWAP1 PUSH2 0x230E JUMP JUMPDEST SWAP1 DUP2 MSTORE PUSH1 0x20 ADD PUSH1 0x40 MLOAD DUP1 SWAP2 SUB SWAP1 KECCAK256 SLOAD PUSH2 0x509 SWAP2 SWAP1 PUSH2 0x23F7 JUMP JUMPDEST SWAP1 POP DUP1 CALLVALUE LT ISZERO PUSH2 0x54E JUMPI PUSH1 0x40 MLOAD PUSH32 0x8C379A000000000000000000000000000000000000000000000000000000000 DUP2 MSTORE PUSH1 0x4 ADD PUSH2 0x545 SWAP1 PUSH2 0x24AB JUMP JUMPDEST PUSH1 0x40 MLOAD DUP1 SWAP2 SUB SWAP1 REVERT JUMPDEST PUSH4 0x1E13380 DUP6 PUSH2 0x55E SWAP2 SWAP1 PUSH2 0x23F7 JUMP JUMPDEST PUSH1 0x3 DUP9 DUP9 PUSH1 0x40 MLOAD PUSH2 0x570 SWAP3 SWAP2 SWAP1 PUSH2 0x24F0 JUMP JUMPDEST SWAP1 DUP2 MSTORE PUSH1 0x20 ADD PUSH1 0x40 MLOAD DUP1 SWAP2 SUB SWAP1 KECCAK256 PUSH1 0x2 ADD PUSH1 0x0 DUP3 DUP3 SLOAD PUSH2 0x590 SWAP2 SWAP1 PUSH2 0x2509 JUMP JUMPDEST SWAP3 POP POP DUP2 SWAP1 SSTORE POP PUSH32 0xF44EC9072DF846717B4110F1FC66219ABEEBA0E9599E259C4309F01079E7A8E9 DUP8 DUP8 PUSH1 0x3 DUP11 DUP11 PUSH1 0x40 MLOAD PUSH2 0x5CC SWAP3 SWAP2 SWAP1 PUSH2 0x24F0 JUMP JUMPDEST SWAP1 DUP2 MSTORE PUSH1 0x20 ADD PUSH1 0x40 MLOAD DUP1 SWAP2 SUB SWAP1 KECCAK256 PUSH1 0x2 ADD SLOAD PUSH1 0x40 MLOAD PUSH2 0x5ED SWAP4 SWAP3 SWAP2 SWAP1 PUSH2 0x256A JUMP JUMPDEST PUSH1 0x40 MLOAD DUP1 SWAP2 SUB SWAP1 LOG1 DUP1 CALLVALUE GT ISZERO PUSH2 0x650 JUMPI CALLER PUSH20 0xFFFFFFFFFFFFFFFFFFFFFFFFFFFFFFFFFFFFFFFF AND PUSH2 0x8FC DUP3 CALLVALUE PUSH2 0x623 SWAP2 SWAP1 PUSH2 0x259C JUMP JUMPDEST SWAP1 DUP2 ISZERO MUL SWAP1 PUSH1 0x40 MLOAD PUSH1 0x0 PUSH1 0x40 MLOAD DUP1 DUP4 SUB DUP2 DUP6 DUP9 DUP9 CALL SWAP4 POP POP POP POP ISZERO DUP1 ISZERO PUSH2 0x64E JUMPI RETURNDATASIZE PUSH1 0x0 DUP1 RETURNDATACOPY RETURNDATASIZE PUSH1 0x0 REVERT JUMPDEST POP JUMPDEST POP POP POP POP POP POP POP JUMP JUMPDEST PUSH1 0x0 DUP1 PUSH20 0xFFFFFFFFFFFFFFFFFFFFFFFFFFFFFFFFFFFFFFFF AND PUSH1 0x3 DUP5 DUP5 PUSH1 0x40 MLOAD PUSH2 0x684 SWAP3 SWAP2 SWAP1 PUSH2 0x24F0 JUMP JUMPDEST SWAP1 DUP2 MSTORE PUSH1 0x20 ADD PUSH1 0x40 MLOAD DUP1 SWAP2 SUB SWAP1 KECCAK256 PUSH1 0x0 ADD PUSH1 0x0 SWAP1 SLOAD SWAP1 PUSH2 0x100 EXP SWAP1 DIV PUSH20 0xFFFFFFFFFFFFFFFFFFFFFFFFFFFFFFFFFFFFFFFF AND PUSH20 0xFFFFFFFFFFFFFFFFFFFFFFFFFFFFFFFFFFFFFFFF AND EQ DUP1 PUSH2 0x6FA JUMPI POP TIMESTAMP PUSH1 0x3 DUP5 DUP5 PUSH1 0x40 MLOAD PUSH2 0x6E6 SWAP3 SWAP2 SWAP1 PUSH2 0x24F0 JUMP JUMPDEST SWAP1 DUP2 MSTORE PUSH1 0x20 ADD PUSH1 0x40 MLOAD DUP1 SWAP2 SUB SWAP1 KECCAK256 PUSH1 0x2 ADD SLOAD LT JUMPDEST SWAP1 POP SWAP3 SWAP2 POP POP JUMP JUMPDEST PUSH1 0x1 PUSH1 0x0 SWAP1 SLOAD SWAP1 PUSH2 0x100 EXP SWAP1 DIV PUSH20 0xFFFFFFFFFFFFFFFFFFFFFFFFFFFFFFFFFFFFFFFF AND PUSH20 0xFFFFFFFFFFFFFFFFFFFFFFFFFFFFFFFFFFFFFFFF AND CALLER PUSH20 0xFFFFFFFFFFFFFFFFFFFFFFFFFFFFFFFFFFFFFFFF AND EQ PUSH2 0x792 JUMPI PUSH1 0x40 MLOAD PUSH32 0x8C379A000000000000000000000000000000000000000000000000000000000 DUP2 MSTORE PUSH1 0x4 ADD PUSH2 0x789 SWAP1 PUSH2 0x2642 JUMP JUMPDEST PUSH1 0x40 MLOAD DUP1 SWAP2 SUB SWAP1 REVERT JUMPDEST DUP1 PUSH1 0x2 DUP5 DUP5 PUSH1 0x40 MLOAD PUSH2 0x7A5 SWAP3 SWAP2 SWAP1 PUSH2 0x24F0 JUMP JUMPDEST SWAP1 DUP2 MSTORE PUSH1 0x20 ADD PUSH1 0x40 MLOAD DUP1 SWAP2 SUB SWAP1 KECCAK256 DUP2 SWAP1 SSTORE POP PUSH32 0x7ECD49F8137BC8D353DB356946F52453E29656073AEF0362C08A514421DB24F5 DUP4 DUP4 DUP4 PUSH1 0x40 MLOAD PUSH2 0x7EA SWAP4 SWAP3 SWAP2 SWAP1 PUSH2 0x256A JUMP JUMPDEST PUSH1 0x40 MLOAD DUP1 SWAP2 SUB SWAP1 LOG1 POP POP POP JUMP JUMPDEST PUSH1 0x1 PUSH1 0x0 SWAP1 SLOAD SWAP1 PUSH2 0x100 EXP SWAP1 DIV PUSH20 0xFFFFFFFFFFFFFFFFFFFFFFFFFFFFFFFFFFFFFFFF AND PUSH20 0xFFFFFFFFFFFFFFFFFFFFFFFFFFFFFFFFFFFFFFFF AND CALLER PUSH20 0xFFFFFFFFFFFFFFFFFFFFFFFFFFFFFFFFFFFFFFFF AND EQ PUSH2 0x887 JUMPI PUSH1 0x40 MLOAD PUSH32 0x8C379A000000000000000000000000000000000000000000000000000000000 DUP2 MSTORE PUSH1 0x4 ADD PUSH2 0x87E SWAP1 PUSH2 0x2642 JUMP JUMPDEST PUSH1 0x40 MLOAD DUP1 SWAP2 SUB SWAP1 REVERT JUMPDEST CALLER PUSH20 0xFFFFFFFFFFFFFFFFFFFFFFFFFFFFFFFFFFFFFFFF AND PUSH2 0x8FC DUP3 SWAP1 DUP2 ISZERO MUL SWAP1 PUSH1 0x40 MLOAD PUSH1 0x0 PUSH1 0x40 MLOAD DUP1 DUP4 SUB DUP2 DUP6 DUP9 DUP9 CALL SWAP4 POP POP POP POP ISZERO DUP1 ISZERO PUSH2 0x8CD JUMPI RETURNDATASIZE PUSH1 0x0 DUP1 RETURNDATACOPY RETURNDATASIZE PUSH1 0x0 REVERT JUMPDEST POP POP JUMP JUMPDEST PUSH1 0x0 DUP1 PUSH1 0x0 PUSH1 0x3 DUP6 DUP6 PUSH1 0x40 MLOAD PUSH2 0x8E8 SWAP3 SWAP2 SWAP1 PUSH2 0x24F0 JUMP JUMPDEST SWAP1 DUP2 MSTORE PUSH1 0x20 ADD PUSH1 0x40 MLOAD DUP1 SWAP2 SUB SWAP1 KECCAK256 PUSH1 0x0 ADD PUSH1 0x0 SWAP1 SLOAD SWAP1 PUSH2 0x100 EXP SWAP1 DIV PUSH20 0xFFFFFFFFFFFFFFFFFFFFFFFFFFFFFFFFFFFFFFFF AND PUSH1 0x3 DUP7 DUP7 PUSH1 0x40 MLOAD PUSH2 0x92C SWAP3 SWAP2 SWAP1 PUSH2 0x24F0 JUMP JUMPDEST SWAP1 DUP2 MSTORE PUSH1 0x20 ADD PUSH1 0x40 MLOAD DUP1 SWAP2 SUB SWAP1 KECCAK256 PUSH1 0x1 ADD PUSH1 0x0 SWAP1 SLOAD SWAP1 PUSH2 0x100 EXP SWAP1 DIV PUSH20 0xFFFFFFFFFFFFFFFFFFFFFFFFFFFFFFFFFFFFFFFF AND PUSH1 0x3 DUP8 DUP8 PUSH1 0x40 MLOAD PUSH2 0x970 SWAP3 SWAP2 SWAP1 PUSH2 0x24F0 JUMP JUMPDEST SWAP1 DUP2 MSTORE PUSH1 0x20 ADD PUSH1 0x40 MLOAD DUP1 SWAP2 SUB SWAP1 KECCAK256 PUSH1 0x2 ADD SLOAD SWAP3 POP SWAP3 POP SWAP3 POP SWAP3 POP SWAP3 POP SWAP3 JUMP JUMPDEST DUP3 DUP3 DUP1 DUP1 PUSH1 0x1F ADD PUSH1 0x20 DUP1 SWAP2 DIV MUL PUSH1 0x20 ADD PUSH1 0x40 MLOAD SWAP1 DUP2 ADD PUSH1 0x40 MSTORE DUP1 SWAP4 SWAP3 SWAP2 SWAP1 DUP2 DUP2 MSTORE PUSH1 0x20 ADD DUP4 DUP4 DUP1 DUP3 DUP5 CALLDATACOPY PUSH1 0x0 DUP2 DUP5 ADD MSTORE PUSH1 0x1F NOT PUSH1 0x1F DUP3 ADD AND SWAP1 POP DUP1 DUP4 ADD SWAP3 POP POP POP POP POP POP POP CALLER PUSH20 0xFFFFFFFFFFFFFFFFFFFFFFFFFFFFFFFFFFFFFFFF AND PUSH1 0x3 DUP3 PUSH1 0x40 MLOAD PUSH2 0x9FB SWAP2 SWAP1 PUSH2 0x230E JUMP JUMPDEST SWAP1 DUP2 MSTORE PUSH1 0x20 ADD PUSH1 0x40 MLOAD DUP1 SWAP2 SUB SWAP1 KECCAK256 PUSH1 0x0 ADD PUSH1 0x0 SWAP1 SLOAD SWAP1 PUSH2 0x100 EXP SWAP1 DIV PUSH20 0xFFFFFFFFFFFFFFFFFFFFFFFFFFFFFFFFFFFFFFFF AND PUSH20 0xFFFFFFFFFFFFFFFFFFFFFFFFFFFFFFFFFFFFFFFF AND EQ PUSH2 0xA83 JUMPI PUSH1 0x40 MLOAD PUSH32 0x8C379A000000000000000000000000000000000000000000000000000000000 DUP2 MSTORE PUSH1 0x4 ADD PUSH2 0xA7A SWAP1 PUSH2 0x23A8 JUMP JUMPDEST PUSH1 0x40 MLOAD DUP1 SWAP2 SUB SWAP1 REVERT JUMPDEST TIMESTAMP PUSH1 0x3 DUP6 DUP6 PUSH1 0x40 MLOAD PUSH2 0xA96 SWAP3 SWAP2 SWAP1 PUSH2 0x24F0 JUMP JUMPDEST SWAP1 DUP2 MSTORE PUSH1 0x20 ADD PUSH1 0x40 MLOAD DUP1 SWAP2 SUB SWAP1 KECCAK256 PUSH1 0x2 ADD SLOAD LT ISZERO PUSH2 0xAE9 JUMPI PUSH1 0x40 MLOAD PUSH32 0x8C379A000000000000000000000000000000000000000000000000000000000 DUP2 MSTORE PUSH1 0x4 ADD PUSH2 0xAE0 SWAP1 PUSH2 0x26AE JUMP JUMPDEST PUSH1 0x40 MLOAD DUP1 SWAP2 SUB SWAP1 REVERT JUMPDEST DUP2 PUSH1 0x3 DUP6 DUP6 PUSH1 0x40 MLOAD PUSH2 0xAFC SWAP3 SWAP2 SWAP1 PUSH2 0x24F0 JUMP JUMPDEST SWAP1 DUP2 MSTORE PUSH1 0x20 ADD PUSH1 0x40 MLOAD DUP1 SWAP2 SUB SWAP1 KECCAK256 PUSH1 0x1 ADD PUSH1 0x0 PUSH2 0x100 EXP DUP2 SLOAD DUP2 PUSH20 0xFFFFFFFFFFFFFFFFFFFFFFFFFFFFFFFFFFFFFFFF MUL NOT AND SWAP1 DUP4 PUSH20 0xFFFFFFFFFFFFFFFFFFFFFFFFFFFFFFFFFFFFFFFF AND MUL OR SWAP1 SSTORE POP DUP2 PUSH20 0xFFFFFFFFFFFFFFFFFFFFFFFFFFFFFFFFFFFFFFFF AND PUSH32 0x6D25091B0CF2F910DE133FA1124A83CC0BBA17DCDDB63E259346AFFD222EBE44 DUP6 DUP6 PUSH1 0x40 MLOAD PUSH2 0xB93 SWAP3 SWAP2 SWAP1 PUSH2 0x26CE JUMP JUMPDEST PUSH1 0x40 MLOAD DUP1 SWAP2 SUB SWAP1 LOG2 POP POP POP POP JUMP JUMPDEST PUSH1 0x1 PUSH1 0x0 SWAP1 SLOAD SWAP1 PUSH2 0x100 EXP SWAP1 DIV PUSH20 0xFFFFFFFFFFFFFFFFFFFFFFFFFFFFFFFFFFFFFFFF AND DUP2 JUMP JUMPDEST DUP3 DUP3 DUP1 DUP1 PUSH1 0x1F ADD PUSH1 0x20 DUP1 SWAP2 DIV MUL PUSH1 0x20 ADD PUSH1 0x40 MLOAD SWAP1 DUP2 ADD PUSH1 0x40 MSTORE DUP1 SWAP4 SWAP3 SWAP2 SWAP1 DUP2 DUP2 MSTORE PUSH1 0x20 ADD DUP4 DUP4 DUP1 DUP3 DUP5 CALLDATACOPY PUSH1 0x0 DUP2 DUP5 ADD MSTORE PUSH1 0x1F NOT PUSH1 0x1F DUP3 ADD AND SWAP1 POP DUP1 DUP4 ADD SWAP3 POP POP POP POP POP POP POP CALLER PUSH20 0xFFFFFFFFFFFFFFFFFFFFFFFFFFFFFFFFFFFFFFFF AND PUSH1 0x3 DUP3 PUSH1 0x40 MLOAD PUSH2 0xC33 SWAP2 SWAP1 PUSH2 0x230E JUMP JUMPDEST SWAP1 DUP2 MSTORE PUSH1 0x20 ADD PUSH1 0x40 MLOAD DUP1 SWAP2 SUB SWAP1 KECCAK256 PUSH1 0x0 ADD PUSH1 0x0 SWAP1 SLOAD SWAP1 PUSH2 0x100 EXP SWAP1 DIV PUSH20 0xFFFFFFFFFFFFFFFFFFFFFFFFFFFFFFFFFFFFFFFF AND PUSH20 0xFFFFFFFFFFFFFFFFFFFFFFFFFFFFFFFFFFFFFFFF AND EQ PUSH2 0xCBB JUMPI PUSH1 0x40 MLOAD PUSH32 0x8C379A000000000000000000000000000000000000000000000000000000000 DUP2 MSTORE PUSH1 0x4 ADD PUSH2 0xCB2 SWAP1 PUSH2 0x23A8 JUMP JUMPDEST PUSH1 0x40 MLOAD DUP1 SWAP2 SUB SWAP1 REVERT JUMPDEST TIMESTAMP PUSH1 0x3 DUP6 DUP6 PUSH1 0x40 MLOAD PUSH2 0xCCE SWAP3 SWAP2 SWAP1 PUSH2 0x24F0 JUMP JUMPDEST SWAP1 DUP2 MSTORE PUSH1 0x20 ADD PUSH1 0x40 MLOAD DUP1 SWAP2 SUB SWAP1 KECCAK256 PUSH1 0x2 ADD SLOAD LT ISZERO PUSH2 0xD21 JUMPI PUSH1 0x40 MLOAD PUSH32 0x8C379A000000000000000000000000000000000000000000000000000000000 DUP2 MSTORE PUSH1 0x4 ADD PUSH2 0xD18 SWAP1 PUSH2 0x26AE JUMP JUMPDEST PUSH1 0x40 MLOAD DUP1 SWAP2 SUB SWAP1 REVERT JUMPDEST PUSH1 0x0 PUSH1 0x3 DUP6 DUP6 PUSH1 0x40 MLOAD PUSH2 0xD35 SWAP3 SWAP2 SWAP1 PUSH2 0x24F0 JUMP JUMPDEST SWAP1 DUP2 MSTORE PUSH1 0x20 ADD PUSH1 0x40 MLOAD DUP1 SWAP2 SUB SWAP1 KECCAK256 PUSH1 0x0 ADD PUSH1 0x0 SWAP1 SLOAD SWAP1 PUSH2 0x100 EXP SWAP1 DIV PUSH20 0xFFFFFFFFFFFFFFFFFFFFFFFFFFFFFFFFFFFFFFFF AND SWAP1 POP DUP3 PUSH1 0x3 DUP7 DUP7 PUSH1 0x40 MLOAD PUSH2 0xD7C SWAP3 SWAP2 SWAP1 PUSH2 0x24F0 JUMP JUMPDEST SWAP1 DUP2 MSTORE PUSH1 0x20 ADD PUSH1 0x40 MLOAD DUP1 SWAP2 SUB SWAP1 KECCAK256 PUSH1 0x0 ADD PUSH1 0x0 PUSH2 0x100 EXP DUP2 SLOAD DUP2 PUSH20 0xFFFFFFFFFFFFFFFFFFFFFFFFFFFFFFFFFFFFFFFF MUL NOT AND SWAP1 DUP4 PUSH20 0xFFFFFFFFFFFFFFFFFFFFFFFFFFFFFFFFFFFFFFFF AND MUL OR SWAP1 SSTORE POP PUSH2 0xE19 DUP2 DUP7 DUP7 DUP1 DUP1 PUSH1 0x1F ADD PUSH1 0x20 DUP1 SWAP2 DIV MUL PUSH1 0x20 ADD PUSH1 0x40 MLOAD SWAP1 DUP2 ADD PUSH1 0x40 MSTORE DUP1 SWAP4 SWAP3 SWAP2 SWAP1 DUP2 DUP2 MSTORE PUSH1 0x20 ADD DUP4 DUP4 DUP1 DUP3 DUP5 CALLDATACOPY PUSH1 0x0 DUP2 DUP5 ADD MSTORE PUSH1 0x1F NOT PUSH1 0x1F DUP3 ADD AND SWAP1 POP DUP1 DUP4 ADD SWAP3 POP POP POP POP POP POP POP PUSH2 0x184F JUMP JUMPDEST PUSH1 0x4 PUSH1 0x0 DUP5 PUSH20 0xFFFFFFFFFFFFFFFFFFFFFFFFFFFFFFFFFFFFFFFF AND PUSH20 0xFFFFFFFFFFFFFFFFFFFFFFFFFFFFFFFFFFFFFFFF AND DUP2 MSTORE PUSH1 0x20 ADD SWAP1 DUP2 MSTORE PUSH1 0x20 ADD PUSH1 0x0 KECCAK256 DUP6 DUP6 SWAP1 SWAP2 DUP1 PUSH1 0x1 DUP2 SLOAD ADD DUP1 DUP3 SSTORE DUP1 SWAP2 POP POP PUSH1 0x1 SWAP1 SUB SWAP1 PUSH1 0x0 MSTORE PUSH1 0x20 PUSH1 0x0 KECCAK256 ADD PUSH1 0x0 SWAP1 SWAP2 SWAP3 SWAP1 SWAP2 SWAP3 SWAP1 SWAP2 SWAP3 SWAP1 SWAP2 SWAP3 POP SWAP2 DUP3 PUSH2 0xE93 SWAP3 SWAP2 SWAP1 PUSH2 0x2909 JUMP JUMPDEST POP DUP3 PUSH20 0xFFFFFFFFFFFFFFFFFFFFFFFFFFFFFFFFFFFFFFFF AND DUP2 PUSH20 0xFFFFFFFFFFFFFFFFFFFFFFFFFFFFFFFFFFFFFFFF AND PUSH32 0xD43AE7BA5D7F951BA2FB94D03DC0F12664835C289CEA1D1295E86A1FBDDFC82C DUP8 DUP8 PUSH1 0x40 MLOAD PUSH2 0xEF3 SWAP3 SWAP2 SWAP1 PUSH2 0x26CE JUMP JUMPDEST PUSH1 0x40 MLOAD DUP1 SWAP2 SUB SWAP1 LOG3 POP POP POP POP POP JUMP JUMPDEST PUSH1 0x1 PUSH1 0x0 SWAP1 SLOAD SWAP1 PUSH2 0x100 EXP SWAP1 DIV PUSH20 0xFFFFFFFFFFFFFFFFFFFFFFFFFFFFFFFFFFFFFFFF AND PUSH20 0xFFFFFFFFFFFFFFFFFFFFFFFFFFFFFFFFFFFFFFFF AND CALLER PUSH20 0xFFFFFFFFFFFFFFFFFFFFFFFFFFFFFFFFFFFFFFFF AND EQ PUSH2 0xF92 JUMPI PUSH1 0x40 MLOAD PUSH32 0x8C379A000000000000000000000000000000000000000000000000000000000 DUP2 MSTORE PUSH1 0x4 ADD PUSH2 0xF89 SWAP1 PUSH2 0x2642 JUMP JUMPDEST PUSH1 0x40 MLOAD DUP1 SWAP2 SUB SWAP1 REVERT JUMPDEST DUP2 PUSH20 0xFFFFFFFFFFFFFFFFFFFFFFFFFFFFFFFFFFFFFFFF AND PUSH4 0xA9059CBB CALLER DUP4 PUSH1 0x40 MLOAD DUP4 PUSH4 0xFFFFFFFF AND PUSH1 0xE0 SHL DUP2 MSTORE PUSH1 0x4 ADD PUSH2 0xFCD SWAP3 SWAP2 SWAP1 PUSH2 0x29D9 JUMP JUMPDEST PUSH1 0x20 PUSH1 0x40 MLOAD DUP1 DUP4 SUB DUP2 PUSH1 0x0 DUP8 GAS CALL ISZERO DUP1 ISZERO PUSH2 0xFEC JUMPI RETURNDATASIZE PUSH1 0x0 DUP1 RETURNDATACOPY RETURNDATASIZE PUSH1 0x0 REVERT JUMPDEST POP POP POP POP PUSH1 0x40 MLOAD RETURNDATASIZE PUSH1 0x1F NOT PUSH1 0x1F DUP3 ADD AND DUP3 ADD DUP1 PUSH1 0x40 MSTORE POP DUP2 ADD SWAP1 PUSH2 0x1010 SWAP2 SWAP1 PUSH2 0x2A2E JUMP JUMPDEST POP POP POP JUMP JUMPDEST PUSH1 0x0 PUSH1 0x2 DUP4 DUP4 PUSH1 0x40 MLOAD PUSH2 0x1029 SWAP3 SWAP2 SWAP1 PUSH2 0x24F0 JUMP JUMPDEST SWAP1 DUP2 MSTORE PUSH1 0x20 ADD PUSH1 0x40 MLOAD DUP1 SWAP2 SUB SWAP1 KECCAK256 SLOAD SUB PUSH2 0x1078 JUMPI PUSH1 0x40 MLOAD PUSH32 0x8C379A000000000000000000000000000000000000000000000000000000000 DUP2 MSTORE PUSH1 0x4 ADD PUSH2 0x106F SWAP1 PUSH2 0x2AA7 JUMP JUMPDEST PUSH1 0x40 MLOAD DUP1 SWAP2 SUB SWAP1 REVERT JUMPDEST PUSH1 0x0 PUSH2 0x10C7 DUP8 DUP8 DUP1 DUP1 PUSH1 0x1F ADD PUSH1 0x20 DUP1 SWAP2 DIV MUL PUSH1 0x20 ADD PUSH1 0x40 MLOAD SWAP1 DUP2 ADD PUSH1 0x40 MSTORE DUP1 SWAP4 SWAP3 SWAP2 SWAP1 DUP2 DUP2 MSTORE PUSH1 0x20 ADD DUP4 DUP4 DUP1 DUP3 DUP5 CALLDATACOPY PUSH1 0x0 DUP2 DUP5 ADD MSTORE PUSH1 0x1F NOT PUSH1 0x1F DUP3 ADD AND SWAP1 POP DUP1 DUP4 ADD SWAP3 POP POP POP POP POP POP POP PUSH2 0x19B4 JUMP JUMPDEST SWAP1 POP PUSH1 0x0 DUP2 MLOAD GT DUP1 ISZERO PUSH2 0x10DC JUMPI POP PUSH1 0xF DUP2 MLOAD GT ISZERO JUMPDEST PUSH2 0x111B JUMPI PUSH1 0x40 MLOAD PUSH32 0x8C379A000000000000000000000000000000000000000000000000000000000 DUP2 MSTORE PUSH1 0x4 ADD PUSH2 0x1112 SWAP1 PUSH2 0x2B39 JUMP JUMPDEST PUSH1 0x40 MLOAD DUP1 SWAP2 SUB SWAP1 REVERT JUMPDEST PUSH1 0x0 DUP2 DUP5 DUP5 PUSH1 0x40 MLOAD PUSH1 0x20 ADD PUSH2 0x1132 SWAP4 SWAP3 SWAP2 SWAP1 PUSH2 0x2B59 JUMP JUMPDEST PUSH1 0x40 MLOAD PUSH1 0x20 DUP2 DUP4 SUB SUB DUP2 MSTORE SWAP1 PUSH1 0x40 MSTORE SWAP1 POP PUSH1 0x0 TIMESTAMP PUSH1 0x3 DUP4 PUSH1 0x40 MLOAD PUSH2 0x1156 SWAP2 SWAP1 PUSH2 0x230E JUMP JUMPDEST SWAP1 DUP2 MSTORE PUSH1 0x20 ADD PUSH1 0x40 MLOAD DUP1 SWAP2 SUB SWAP1 KECCAK256 PUSH1 0x2 ADD SLOAD LT SWAP1 POP PUSH1 0x0 PUSH20 0xFFFFFFFFFFFFFFFFFFFFFFFFFFFFFFFFFFFFFFFF AND PUSH1 0x3 DUP4 PUSH1 0x40 MLOAD PUSH2 0x1193 SWAP2 SWAP1 PUSH2 0x230E JUMP JUMPDEST SWAP1 DUP2 MSTORE PUSH1 0x20 ADD PUSH1 0x40 MLOAD DUP1 SWAP2 SUB SWAP1 KECCAK256 PUSH1 0x0 ADD PUSH1 0x0 SWAP1 SLOAD SWAP1 PUSH2 0x100 EXP SWAP1 DIV PUSH20 0xFFFFFFFFFFFFFFFFFFFFFFFFFFFFFFFFFFFFFFFF AND PUSH20 0xFFFFFFFFFFFFFFFFFFFFFFFFFFFFFFFFFFFFFFFF AND EQ DUP1 PUSH2 0x11E4 JUMPI POP DUP1 JUMPDEST PUSH2 0x1223 JUMPI PUSH1 0x40 MLOAD PUSH32 0x8C379A000000000000000000000000000000000000000000000000000000000 DUP2 MSTORE PUSH1 0x4 ADD PUSH2 0x121A SWAP1 PUSH2 0x2BF1 JUMP JUMPDEST PUSH1 0x40 MLOAD DUP1 SWAP2 SUB SWAP1 REVERT JUMPDEST DUP1 ISZERO PUSH2 0x1275 JUMPI PUSH2 0x1274 PUSH1 0x3 DUP4 PUSH1 0x40 MLOAD PUSH2 0x123C SWAP2 SWAP1 PUSH2 0x230E JUMP JUMPDEST SWAP1 DUP2 MSTORE PUSH1 0x20 ADD PUSH1 0x40 MLOAD DUP1 SWAP2 SUB SWAP1 KECCAK256 PUSH1 0x0 ADD PUSH1 0x0 SWAP1 SLOAD SWAP1 PUSH2 0x100 EXP SWAP1 DIV PUSH20 0xFFFFFFFFFFFFFFFFFFFFFFFFFFFFFFFFFFFFFFFF AND DUP4 PUSH2 0x184F JUMP JUMPDEST JUMPDEST PUSH1 0x0 DUP7 PUSH1 0x2 DUP8 DUP8 PUSH1 0x40 MLOAD PUSH2 0x128A SWAP3 SWAP2 SWAP1 PUSH2 0x24F0 JUMP JUMPDEST SWAP1 DUP2 MSTORE PUSH1 0x20 ADD PUSH1 0x40 MLOAD DUP1 SWAP2 SUB SWAP1 KECCAK256 SLOAD PUSH2 0x12A3 SWAP2 SWAP1 PUSH2 0x23F7 JUMP JUMPDEST SWAP1 POP DUP1 CALLVALUE LT ISZERO PUSH2 0x12E8 JUMPI PUSH1 0x40 MLOAD PUSH32 0x8C379A000000000000000000000000000000000000000000000000000000000 DUP2 MSTORE PUSH1 0x4 ADD PUSH2 0x12DF SWAP1 PUSH2 0x2CA9 JUMP JUMPDEST PUSH1 0x40 MLOAD DUP1 SWAP2 SUB SWAP1 REVERT JUMPDEST PUSH1 0x0 PUSH1 0x3C DUP9 PUSH2 0x12F7 SWAP2 SWAP1 PUSH2 0x23F7 JUMP JUMPDEST TIMESTAMP PUSH2 0x1302 SWAP2 SWAP1 PUSH2 0x2509 JUMP JUMPDEST SWAP1 POP PUSH1 0x40 MLOAD DUP1 PUSH1 0x60 ADD PUSH1 0x40 MSTORE DUP1 CALLER PUSH20 0xFFFFFFFFFFFFFFFFFFFFFFFFFFFFFFFFFFFFFFFF AND DUP2 MSTORE PUSH1 0x20 ADD DUP11 PUSH20 0xFFFFFFFFFFFFFFFFFFFFFFFFFFFFFFFFFFFFFFFF AND DUP2 MSTORE PUSH1 0x20 ADD DUP3 DUP2 MSTORE POP PUSH1 0x3 DUP6 PUSH1 0x40 MLOAD PUSH2 0x135B SWAP2 SWAP1 PUSH2 0x230E JUMP JUMPDEST SWAP1 DUP2 MSTORE PUSH1 0x20 ADD PUSH1 0x40 MLOAD DUP1 SWAP2 SUB SWAP1 KECCAK256 PUSH1 0x0 DUP3 ADD MLOAD DUP2 PUSH1 0x0 ADD PUSH1 0x0 PUSH2 0x100 EXP DUP2 SLOAD DUP2 PUSH20 0xFFFFFFFFFFFFFFFFFFFFFFFFFFFFFFFFFFFFFFFF MUL NOT AND SWAP1 DUP4 PUSH20 0xFFFFFFFFFFFFFFFFFFFFFFFFFFFFFFFFFFFFFFFF AND MUL OR SWAP1 SSTORE POP PUSH1 0x20 DUP3 ADD MLOAD DUP2 PUSH1 0x1 ADD PUSH1 0x0 PUSH2 0x100 EXP DUP2 SLOAD DUP2 PUSH20 0xFFFFFFFFFFFFFFFFFFFFFFFFFFFFFFFFFFFFFFFF MUL NOT AND SWAP1 DUP4 PUSH20 0xFFFFFFFFFFFFFFFFFFFFFFFFFFFFFFFFFFFFFFFF AND MUL OR SWAP1 SSTORE POP PUSH1 0x40 DUP3 ADD MLOAD DUP2 PUSH1 0x2 ADD SSTORE SWAP1 POP POP PUSH1 0x4 PUSH1 0x0 CALLER PUSH20 0xFFFFFFFFFFFFFFFFFFFFFFFFFFFFFFFFFFFFFFFF AND PUSH20 0xFFFFFFFFFFFFFFFFFFFFFFFFFFFFFFFFFFFFFFFF AND DUP2 MSTORE PUSH1 0x20 ADD SWAP1 DUP2 MSTORE PUSH1 0x20 ADD PUSH1 0x0 KECCAK256 DUP5 SWAP1 DUP1 PUSH1 0x1 DUP2 SLOAD ADD DUP1 DUP3 SSTORE DUP1 SWAP2 POP POP PUSH1 0x1 SWAP1 SUB SWAP1 PUSH1 0x0 MSTORE PUSH1 0x20 PUSH1 0x0 KECCAK256 ADD PUSH1 0x0 SWAP1 SWAP2 SWAP1 SWAP2 SWAP1 SWAP2 POP SWAP1 DUP2 PUSH2 0x1475 SWAP2 SWAP1 PUSH2 0x2CC9 JUMP JUMPDEST POP CALLER PUSH20 0xFFFFFFFFFFFFFFFFFFFFFFFFFFFFFFFFFFFFFFFF AND PUSH32 0xA5F4533EC077C1B1E4FA879988258637A45B7A6E6663BF8589E0D3DDE3855017 DUP6 DUP12 DUP5 PUSH1 0x40 MLOAD PUSH2 0x14C0 SWAP4 SWAP3 SWAP2 SWAP1 PUSH2 0x2DD4 JUMP JUMPDEST PUSH1 0x40 MLOAD DUP1 SWAP2 SUB SWAP1 LOG2 DUP2 CALLVALUE GT ISZERO PUSH2 0x1523 JUMPI CALLER PUSH20 0xFFFFFFFFFFFFFFFFFFFFFFFFFFFFFFFFFFFFFFFF AND PUSH2 0x8FC DUP4 CALLVALUE PUSH2 0x14F6 SWAP2 SWAP1 PUSH2 0x259C JUMP JUMPDEST SWAP1 DUP2 ISZERO MUL SWAP1 PUSH1 0x40 MLOAD PUSH1 0x0 PUSH1 0x40 MLOAD DUP1 DUP4 SUB DUP2 DUP6 DUP9 DUP9 CALL SWAP4 POP POP POP POP ISZERO DUP1 ISZERO PUSH2 0x1521 JUMPI RETURNDATASIZE PUSH1 0x0 DUP1 RETURNDATACOPY RETURNDATASIZE PUSH1 0x0 REVERT JUMPDEST POP JUMPDEST POP POP POP POP POP POP POP POP POP POP POP JUMP JUMPDEST PUSH1 0x0 DUP1 SLOAD SWAP1 PUSH2 0x100 EXP SWAP1 DIV PUSH20 0xFFFFFFFFFFFFFFFFFFFFFFFFFFFFFFFFFFFFFFFF AND DUP2 JUMP JUMPDEST PUSH1 0x60 PUSH1 0x4 PUSH1 0x0 DUP4 PUSH20 0xFFFFFFFFFFFFFFFFFFFFFFFFFFFFFFFFFFFFFFFF AND PUSH20 0xFFFFFFFFFFFFFFFFFFFFFFFFFFFFFFFFFFFFFFFF AND DUP2 MSTORE PUSH1 0x20 ADD SWAP1 DUP2 MSTORE PUSH1 0x20 ADD PUSH1 0x0 KECCAK256 DUP1 SLOAD DUP1 PUSH1 0x20 MUL PUSH1 0x20 ADD PUSH1 0x40 MLOAD SWAP1 DUP2 ADD PUSH1 0x40 MSTORE DUP1 SWAP3 SWAP2 SWAP1 DUP2 DUP2 MSTORE PUSH1 0x20 ADD PUSH1 0x0 SWAP1 JUMPDEST DUP3 DUP3 LT ISZERO PUSH2 0x1661 JUMPI DUP4 DUP3 SWAP1 PUSH1 0x0 MSTORE PUSH1 0x20 PUSH1 0x0 KECCAK256 ADD DUP1 SLOAD PUSH2 0x15D4 SWAP1 PUSH2 0x272C JUMP JUMPDEST DUP1 PUSH1 0x1F ADD PUSH1 0x20 DUP1 SWAP2 DIV MUL PUSH1 0x20 ADD PUSH1 0x40 MLOAD SWAP1 DUP2 ADD PUSH1 0x40 MSTORE DUP1 SWAP3 SWAP2 SWAP1 DUP2 DUP2 MSTORE PUSH1 0x20 ADD DUP3 DUP1 SLOAD PUSH2 0x1600 SWAP1 PUSH2 0x272C JUMP JUMPDEST DUP1 ISZERO PUSH2 0x164D JUMPI DUP1 PUSH1 0x1F LT PUSH2 0x1622 JUMPI PUSH2 0x100 DUP1 DUP4 SLOAD DIV MUL DUP4 MSTORE SWAP2 PUSH1 0x20 ADD SWAP2 PUSH2 0x164D JUMP JUMPDEST DUP3 ADD SWAP2 SWAP1 PUSH1 0x0 MSTORE PUSH1 0x20 PUSH1 0x0 KECCAK256 SWAP1 JUMPDEST DUP2 SLOAD DUP2 MSTORE SWAP1 PUSH1 0x1 ADD SWAP1 PUSH1 0x20 ADD DUP1 DUP4 GT PUSH2 0x1630 JUMPI DUP3 SWAP1 SUB PUSH1 0x1F AND DUP3 ADD SWAP2 JUMPDEST POP POP POP POP POP DUP2 MSTORE PUSH1 0x20 ADD SWAP1 PUSH1 0x1 ADD SWAP1 PUSH2 0x15B5 JUMP JUMPDEST POP POP POP POP SWAP1 POP SWAP2 SWAP1 POP JUMP JUMPDEST PUSH1 0x0 DUP1 DUP3 SWAP1 POP PUSH1 0x0 DUP2 MLOAD SWAP1 POP JUMPDEST PUSH1 0x0 DUP2 GT ISZERO PUSH2 0x1711 JUMPI PUSH32 0x2E00000000000000000000000000000000000000000000000000000000000000 DUP3 PUSH1 0x1 DUP4 PUSH2 0x16B1 SWAP2 SWAP1 PUSH2 0x259C JUMP JUMPDEST DUP2 MLOAD DUP2 LT PUSH2 0x16C2 JUMPI PUSH2 0x16C1 PUSH2 0x2E12 JUMP JUMPDEST JUMPDEST PUSH1 0x20 ADD ADD MLOAD PUSH1 0xF8 SHR PUSH1 0xF8 SHL PUSH31 0xFFFFFFFFFFFFFFFFFFFFFFFFFFFFFFFFFFFFFFFFFFFFFFFFFFFFFFFFFFFFFF NOT AND SUB PUSH2 0x16FE JUMPI DUP1 SWAP3 POP POP POP PUSH2 0x174D JUMP JUMPDEST DUP1 DUP1 PUSH2 0x1709 SWAP1 PUSH2 0x2E41 JUMP JUMPDEST SWAP2 POP POP PUSH2 0x1679 JUMP JUMPDEST POP PUSH1 0x40 MLOAD PUSH32 0x8C379A000000000000000000000000000000000000000000000000000000000 DUP2 MSTORE PUSH1 0x4 ADD PUSH2 0x1744 SWAP1 PUSH2 0x2EB6 JUMP JUMPDEST PUSH1 0x40 MLOAD DUP1 SWAP2 SUB SWAP1 REVERT JUMPDEST SWAP2 SWAP1 POP JUMP JUMPDEST PUSH1 0x60 PUSH1 0x0 DUP4 SWAP1 POP PUSH1 0x0 DUP4 DUP3 MLOAD PUSH2 0x1768 SWAP2 SWAP1 PUSH2 0x259C JUMP JUMPDEST PUSH8 0xFFFFFFFFFFFFFFFF DUP2 GT ISZERO PUSH2 0x1781 JUMPI PUSH2 0x1780 PUSH2 0x1BF8 JUMP JUMPDEST JUMPDEST PUSH1 0x40 MLOAD SWAP1 DUP1 DUP3 MSTORE DUP1 PUSH1 0x1F ADD PUSH1 0x1F NOT AND PUSH1 0x20 ADD DUP3 ADD PUSH1 0x40 MSTORE DUP1 ISZERO PUSH2 0x17B3 JUMPI DUP2 PUSH1 0x20 ADD PUSH1 0x1 DUP3 MUL DUP1 CALLDATASIZE DUP4 CALLDATACOPY DUP1 DUP3 ADD SWAP2 POP POP SWAP1 POP JUMPDEST POP SWAP1 POP PUSH1 0x0 DUP5 SWAP1 POP JUMPDEST DUP3 MLOAD DUP2 LT ISZERO PUSH2 0x1843 JUMPI DUP3 DUP2 DUP2 MLOAD DUP2 LT PUSH2 0x17D8 JUMPI PUSH2 0x17D7 PUSH2 0x2E12 JUMP JUMPDEST JUMPDEST PUSH1 0x20 ADD ADD MLOAD PUSH1 0xF8 SHR PUSH1 0xF8 SHL DUP3 DUP7 DUP4 PUSH2 0x17F0 SWAP2 SWAP1 PUSH2 0x259C JUMP JUMPDEST DUP2 MLOAD DUP2 LT PUSH2 0x1801 JUMPI PUSH2 0x1800 PUSH2 0x2E12 JUMP JUMPDEST JUMPDEST PUSH1 0x20 ADD ADD SWAP1 PUSH31 0xFFFFFFFFFFFFFFFFFFFFFFFFFFFFFFFFFFFFFFFFFFFFFFFFFFFFFFFFFFFFFF NOT AND SWAP1 DUP2 PUSH1 0x0 BYTE SWAP1 MSTORE8 POP DUP1 DUP1 PUSH2 0x183B SWAP1 PUSH2 0x2ED6 JUMP JUMPDEST SWAP2 POP POP PUSH2 0x17BC JUMP JUMPDEST POP DUP1 SWAP3 POP POP POP SWAP3 SWAP2 POP POP JUMP JUMPDEST PUSH1 0x0 PUSH1 0x4 PUSH1 0x0 DUP5 PUSH20 0xFFFFFFFFFFFFFFFFFFFFFFFFFFFFFFFFFFFFFFFF AND PUSH20 0xFFFFFFFFFFFFFFFFFFFFFFFFFFFFFFFFFFFFFFFF AND DUP2 MSTORE PUSH1 0x20 ADD SWAP1 DUP2 MSTORE PUSH1 0x20 ADD PUSH1 0x0 KECCAK256 SWAP1 POP PUSH1 0x0 JUMPDEST DUP2 DUP1 SLOAD SWAP1 POP DUP2 LT ISZERO PUSH2 0x19AE JUMPI DUP3 PUSH1 0x40 MLOAD PUSH1 0x20 ADD PUSH2 0x18B2 SWAP2 SWAP1 PUSH2 0x230E JUMP JUMPDEST PUSH1 0x40 MLOAD PUSH1 0x20 DUP2 DUP4 SUB SUB DUP2 MSTORE SWAP1 PUSH1 0x40 MSTORE DUP1 MLOAD SWAP1 PUSH1 0x20 ADD KECCAK256 DUP3 DUP3 DUP2 SLOAD DUP2 LT PUSH2 0x18DB JUMPI PUSH2 0x18DA PUSH2 0x2E12 JUMP JUMPDEST JUMPDEST SWAP1 PUSH1 0x0 MSTORE PUSH1 0x20 PUSH1 0x0 KECCAK256 ADD PUSH1 0x40 MLOAD PUSH1 0x20 ADD PUSH2 0x18F5 SWAP2 SWAP1 PUSH2 0x2FA1 JUMP JUMPDEST PUSH1 0x40 MLOAD PUSH1 0x20 DUP2 DUP4 SUB SUB DUP2 MSTORE SWAP1 PUSH1 0x40 MSTORE DUP1 MLOAD SWAP1 PUSH1 0x20 ADD KECCAK256 SUB PUSH2 0x199B JUMPI DUP2 PUSH1 0x1 DUP4 DUP1 SLOAD SWAP1 POP PUSH2 0x1922 SWAP2 SWAP1 PUSH2 0x259C JUMP JUMPDEST DUP2 SLOAD DUP2 LT PUSH2 0x1933 JUMPI PUSH2 0x1932 PUSH2 0x2E12 JUMP JUMPDEST JUMPDEST SWAP1 PUSH1 0x0 MSTORE PUSH1 0x20 PUSH1 0x0 KECCAK256 ADD DUP3 DUP3 DUP2 SLOAD DUP2 LT PUSH2 0x1950 JUMPI PUSH2 0x194F PUSH2 0x2E12 JUMP JUMPDEST JUMPDEST SWAP1 PUSH1 0x0 MSTORE PUSH1 0x20 PUSH1 0x0 KECCAK256 ADD SWAP1 DUP2 PUSH2 0x1966 SWAP2 SWAP1 PUSH2 0x2FE3 JUMP JUMPDEST POP DUP2 DUP1 SLOAD DUP1 PUSH2 0x1978 JUMPI PUSH2 0x1977 PUSH2 0x30CB JUMP JUMPDEST JUMPDEST PUSH1 0x1 SWAP1 SUB DUP2 DUP2 SWAP1 PUSH1 0x0 MSTORE PUSH1 0x20 PUSH1 0x0 KECCAK256 ADD PUSH1 0x0 PUSH2 0x1994 SWAP2 SWAP1 PUSH2 0x1B6C JUMP JUMPDEST SWAP1 SSTORE PUSH2 0x19AE JUMP JUMPDEST DUP1 DUP1 PUSH2 0x19A6 SWAP1 PUSH2 0x2ED6 JUMP JUMPDEST SWAP2 POP POP PUSH2 0x1895 JUMP JUMPDEST POP POP POP POP JUMP JUMPDEST PUSH1 0x60 PUSH1 0x0 DUP3 SWAP1 POP PUSH1 0x0 DUP2 MLOAD PUSH8 0xFFFFFFFFFFFFFFFF DUP2 GT ISZERO PUSH2 0x19D8 JUMPI PUSH2 0x19D7 PUSH2 0x1BF8 JUMP JUMPDEST JUMPDEST PUSH1 0x40 MLOAD SWAP1 DUP1 DUP3 MSTORE DUP1 PUSH1 0x1F ADD PUSH1 0x1F NOT AND PUSH1 0x20 ADD DUP3 ADD PUSH1 0x40 MSTORE DUP1 ISZERO PUSH2 0x1A0A JUMPI DUP2 PUSH1 0x20 ADD PUSH1 0x1 DUP3 MUL DUP1 CALLDATASIZE DUP4 CALLDATACOPY DUP1 DUP3 ADD SWAP2 POP POP SWAP1 POP JUMPDEST POP SWAP1 POP PUSH1 0x0 JUMPDEST DUP3 MLOAD DUP2 LT ISZERO PUSH2 0x1B61 JUMPI PUSH1 0x41 DUP4 DUP3 DUP2 MLOAD DUP2 LT PUSH2 0x1A2E JUMPI PUSH2 0x1A2D PUSH2 0x2E12 JUMP JUMPDEST JUMPDEST PUSH1 0x20 ADD ADD MLOAD PUSH1 0xF8 SHR PUSH1 0xF8 SHL PUSH1 0xF8 SHR PUSH1 0xFF AND LT ISZERO DUP1 ISZERO PUSH2 0x1A71 JUMPI POP PUSH1 0x5A DUP4 DUP3 DUP2 MLOAD DUP2 LT PUSH2 0x1A5D JUMPI PUSH2 0x1A5C PUSH2 0x2E12 JUMP JUMPDEST JUMPDEST PUSH1 0x20 ADD ADD MLOAD PUSH1 0xF8 SHR PUSH1 0xF8 SHL PUSH1 0xF8 SHR PUSH1 0xFF AND GT ISZERO JUMPDEST ISZERO PUSH2 0x1AED JUMPI PUSH1 0x20 DUP4 DUP3 DUP2 MLOAD DUP2 LT PUSH2 0x1A8B JUMPI PUSH2 0x1A8A PUSH2 0x2E12 JUMP JUMPDEST JUMPDEST PUSH1 0x20 ADD ADD MLOAD PUSH1 0xF8 SHR PUSH1 0xF8 SHL PUSH1 0xF8 SHR PUSH2 0x1AA3 SWAP2 SWAP1 PUSH2 0x3107 JUMP JUMPDEST PUSH1 0xF8 SHL DUP3 DUP3 DUP2 MLOAD DUP2 LT PUSH2 0x1AB9 JUMPI PUSH2 0x1AB8 PUSH2 0x2E12 JUMP JUMPDEST JUMPDEST PUSH1 0x20 ADD ADD SWAP1 PUSH31 0xFFFFFFFFFFFFFFFFFFFFFFFFFFFFFFFFFFFFFFFFFFFFFFFFFFFFFFFFFFFFFF NOT AND SWAP1 DUP2 PUSH1 0x0 BYTE SWAP1 MSTORE8 POP PUSH2 0x1B4E JUMP JUMPDEST DUP3 DUP2 DUP2 MLOAD DUP2 LT PUSH2 0x1B00 JUMPI PUSH2 0x1AFF PUSH2 0x2E12 JUMP JUMPDEST JUMPDEST PUSH1 0x20 ADD ADD MLOAD PUSH1 0xF8 SHR PUSH1 0xF8 SHL DUP3 DUP3 DUP2 MLOAD DUP2 LT PUSH2 0x1B1E JUMPI PUSH2 0x1B1D PUSH2 0x2E12 JUMP JUMPDEST JUMPDEST PUSH1 0x20 ADD ADD SWAP1 PUSH31 0xFFFFFFFFFFFFFFFFFFFFFFFFFFFFFFFFFFFFFFFFFFFFFFFFFFFFFFFFFFFFFF NOT AND SWAP1 DUP2 PUSH1 0x0 BYTE SWAP1 MSTORE8 POP JUMPDEST DUP1 DUP1 PUSH2 0x1B59 SWAP1 PUSH2 0x2ED6 JUMP JUMPDEST SWAP2 POP POP PUSH2 0x1A10 JUMP JUMPDEST POP DUP1 SWAP3 POP POP POP SWAP2 SWAP1 POP JUMP JUMPDEST POP DUP1 SLOAD PUSH2 0x1B78 SWAP1 PUSH2 0x272C JUMP JUMPDEST PUSH1 0x0 DUP3 SSTORE DUP1 PUSH1 0x1F LT PUSH2 0x1B8A JUMPI POP PUSH2 0x1BA9 JUMP JUMPDEST PUSH1 0x1F ADD PUSH1 0x20 SWAP1 DIV SWAP1 PUSH1 0x0 MSTORE PUSH1 0x20 PUSH1 0x0 KECCAK256 SWAP1 DUP2 ADD SWAP1 PUSH2 0x1BA8 SWAP2 SWAP1 PUSH2 0x1BAC JUMP JUMPDEST JUMPDEST POP JUMP JUMPDEST JUMPDEST DUP1 DUP3 GT ISZERO PUSH2 0x1BC5 JUMPI PUSH1 0x0 DUP2 PUSH1 0x0 SWAP1 SSTORE POP PUSH1 0x1 ADD PUSH2 0x1BAD JUMP JUMPDEST POP SWAP1 JUMP JUMPDEST PUSH1 0x0 PUSH1 0x40 MLOAD SWAP1 POP SWAP1 JUMP JUMPDEST PUSH1 0x0 DUP1 REVERT JUMPDEST PUSH1 0x0 DUP1 REVERT JUMPDEST PUSH1 0x0 DUP1 REVERT JUMPDEST PUSH1 0x0 DUP1 REVERT JUMPDEST PUSH1 0x0 PUSH1 0x1F NOT PUSH1 0x1F DUP4 ADD AND SWAP1 POP SWAP2 SWAP1 POP JUMP JUMPDEST PUSH32 0x4E487B7100000000000000000000000000000000000000000000000000000000 PUSH1 0x0 MSTORE PUSH1 0x41 PUSH1 0x4 MSTORE PUSH1 0x24 PUSH1 0x0 REVERT JUMPDEST PUSH2 0x1C30 DUP3 PUSH2 0x1BE7 JUMP JUMPDEST DUP2 ADD DUP2 DUP2 LT PUSH8 0xFFFFFFFFFFFFFFFF DUP3 GT OR ISZERO PUSH2 0x1C4F JUMPI PUSH2 0x1C4E PUSH2 0x1BF8 JUMP JUMPDEST JUMPDEST DUP1 PUSH1 0x40 MSTORE POP POP POP JUMP JUMPDEST PUSH1 0x0 PUSH2 0x1C62 PUSH2 0x1BC9 JUMP JUMPDEST SWAP1 POP PUSH2 0x1C6E DUP3 DUP3 PUSH2 0x1C27 JUMP JUMPDEST SWAP2 SWAP1 POP JUMP JUMPDEST PUSH1 0x0 PUSH8 0xFFFFFFFFFFFFFFFF DUP3 GT ISZERO PUSH2 0x1C8E JUMPI PUSH2 0x1C8D PUSH2 0x1BF8 JUMP JUMPDEST JUMPDEST PUSH2 0x1C97 DUP3 PUSH2 0x1BE7 JUMP JUMPDEST SWAP1 POP PUSH1 0x20 DUP2 ADD SWAP1 POP SWAP2 SWAP1 POP JUMP JUMPDEST DUP3 DUP2 DUP4 CALLDATACOPY PUSH1 0x0 DUP4 DUP4 ADD MSTORE POP POP POP JUMP JUMPDEST PUSH1 0x0 PUSH2 0x1CC6 PUSH2 0x1CC1 DUP5 PUSH2 0x1C73 JUMP JUMPDEST PUSH2 0x1C58 JUMP JUMPDEST SWAP1 POP DUP3 DUP2 MSTORE PUSH1 0x20 DUP2 ADD DUP5 DUP5 DUP5 ADD GT ISZERO PUSH2 0x1CE2 JUMPI PUSH2 0x1CE1 PUSH2 0x1BE2 JUMP JUMPDEST JUMPDEST PUSH2 0x1CED DUP5 DUP3 DUP6 PUSH2 0x1CA4 JUMP JUMPDEST POP SWAP4 SWAP3 POP POP POP JUMP JUMPDEST PUSH1 0x0 DUP3 PUSH1 0x1F DUP4 ADD SLT PUSH2 0x1D0A JUMPI PUSH2 0x1D09 PUSH2 0x1BDD JUMP JUMPDEST JUMPDEST DUP2 CALLDATALOAD PUSH2 0x1D1A DUP5 DUP3 PUSH1 0x20 DUP7 ADD PUSH2 0x1CB3 JUMP JUMPDEST SWAP2 POP POP SWAP3 SWAP2 POP POP JUMP JUMPDEST PUSH1 0x0 PUSH1 0x20 DUP3 DUP5 SUB SLT ISZERO PUSH2 0x1D39 JUMPI PUSH2 0x1D38 PUSH2 0x1BD3 JUMP JUMPDEST JUMPDEST PUSH1 0x0 DUP3 ADD CALLDATALOAD PUSH8 0xFFFFFFFFFFFFFFFF DUP2 GT ISZERO PUSH2 0x1D57 JUMPI PUSH2 0x1D56 PUSH2 0x1BD8 JUMP JUMPDEST JUMPDEST PUSH2 0x1D63 DUP5 DUP3 DUP6 ADD PUSH2 0x1CF5 JUMP JUMPDEST SWAP2 POP POP SWAP3 SWAP2 POP POP JUMP JUMPDEST PUSH1 0x0 DUP2 SWAP1 POP SWAP2 SWAP1 POP JUMP JUMPDEST PUSH2 0x1D7F DUP2 PUSH2 0x1D6C JUMP JUMPDEST DUP3 MSTORE POP POP JUMP JUMPDEST PUSH1 0x0 PUSH1 0x20 DUP3 ADD SWAP1 POP PUSH2 0x1D9A PUSH1 0x0 DUP4 ADD DUP5 PUSH2 0x1D76 JUMP JUMPDEST SWAP3 SWAP2 POP POP JUMP JUMPDEST PUSH1 0x0 DUP1 REVERT JUMPDEST PUSH1 0x0 DUP1 REVERT JUMPDEST PUSH1 0x0 DUP1 DUP4 PUSH1 0x1F DUP5 ADD SLT PUSH2 0x1DC0 JUMPI PUSH2 0x1DBF PUSH2 0x1BDD JUMP JUMPDEST JUMPDEST DUP3 CALLDATALOAD SWAP1 POP PUSH8 0xFFFFFFFFFFFFFFFF DUP2 GT ISZERO PUSH2 0x1DDD JUMPI PUSH2 0x1DDC PUSH2 0x1DA0 JUMP JUMPDEST JUMPDEST PUSH1 0x20 DUP4 ADD SWAP2 POP DUP4 PUSH1 0x1 DUP3 MUL DUP4 ADD GT ISZERO PUSH2 0x1DF9 JUMPI PUSH2 0x1DF8 PUSH2 0x1DA5 JUMP JUMPDEST JUMPDEST SWAP3 POP SWAP3 SWAP1 POP JUMP JUMPDEST PUSH2 0x1E09 DUP2 PUSH2 0x1D6C JUMP JUMPDEST DUP2 EQ PUSH2 0x1E14 JUMPI PUSH1 0x0 DUP1 REVERT JUMPDEST POP JUMP JUMPDEST PUSH1 0x0 DUP2 CALLDATALOAD SWAP1 POP PUSH2 0x1E26 DUP2 PUSH2 0x1E00 JUMP JUMPDEST SWAP3 SWAP2 POP POP JUMP JUMPDEST PUSH1 0x0 DUP1 PUSH1 0x0 PUSH1 0x40 DUP5 DUP7 SUB SLT ISZERO PUSH2 0x1E45 JUMPI PUSH2 0x1E44 PUSH2 0x1BD3 JUMP JUMPDEST JUMPDEST PUSH1 0x0 DUP5 ADD CALLDATALOAD PUSH8 0xFFFFFFFFFFFFFFFF DUP2 GT ISZERO PUSH2 0x1E63 JUMPI PUSH2 0x1E62 PUSH2 0x1BD8 JUMP JUMPDEST JUMPDEST PUSH2 0x1E6F DUP7 DUP3 DUP8 ADD PUSH2 0x1DAA JUMP JUMPDEST SWAP4 POP SWAP4 POP POP PUSH1 0x20 PUSH2 0x1E82 DUP7 DUP3 DUP8 ADD PUSH2 0x1E17 JUMP JUMPDEST SWAP2 POP POP SWAP3 POP SWAP3 POP SWAP3 JUMP JUMPDEST PUSH1 0x0 DUP1 PUSH1 0x20 DUP4 DUP6 SUB SLT ISZERO PUSH2 0x1EA3 JUMPI PUSH2 0x1EA2 PUSH2 0x1BD3 JUMP JUMPDEST JUMPDEST PUSH1 0x0 DUP4 ADD CALLDATALOAD PUSH8 0xFFFFFFFFFFFFFFFF DUP2 GT ISZERO PUSH2 0x1EC1 JUMPI PUSH2 0x1EC0 PUSH2 0x1BD8 JUMP JUMPDEST JUMPDEST PUSH2 0x1ECD DUP6 DUP3 DUP7 ADD PUSH2 0x1DAA JUMP JUMPDEST SWAP3 POP SWAP3 POP POP SWAP3 POP SWAP3 SWAP1 POP JUMP JUMPDEST PUSH1 0x0 DUP2 ISZERO ISZERO SWAP1 POP SWAP2 SWAP1 POP JUMP JUMPDEST PUSH2 0x1EEE DUP2 PUSH2 0x1ED9 JUMP JUMPDEST DUP3 MSTORE POP POP JUMP JUMPDEST PUSH1 0x0 PUSH1 0x20 DUP3 ADD SWAP1 POP PUSH2 0x1F09 PUSH1 0x0 DUP4 ADD DUP5 PUSH2 0x1EE5 JUMP JUMPDEST SWAP3 SWAP2 POP POP JUMP JUMPDEST PUSH1 0x0 PUSH1 0x20 DUP3 DUP5 SUB SLT ISZERO PUSH2 0x1F25 JUMPI PUSH2 0x1F24 PUSH2 0x1BD3 JUMP JUMPDEST JUMPDEST PUSH1 0x0 PUSH2 0x1F33 DUP5 DUP3 DUP6 ADD PUSH2 0x1E17 JUMP JUMPDEST SWAP2 POP POP SWAP3 SWAP2 POP POP JUMP JUMPDEST PUSH1 0x0 PUSH20 0xFFFFFFFFFFFFFFFFFFFFFFFFFFFFFFFFFFFFFFFF DUP3 AND SWAP1 POP SWAP2 SWAP1 POP JUMP JUMPDEST PUSH1 0x0 PUSH2 0x1F67 DUP3 PUSH2 0x1F3C JUMP JUMPDEST SWAP1 POP SWAP2 SWAP1 POP JUMP JUMPDEST PUSH2 0x1F77 DUP2 PUSH2 0x1F5C JUMP JUMPDEST DUP3 MSTORE POP POP JUMP JUMPDEST PUSH1 0x0 PUSH1 0x60 DUP3 ADD SWAP1 POP PUSH2 0x1F92 PUSH1 0x0 DUP4 ADD DUP7 PUSH2 0x1F6E JUMP JUMPDEST PUSH2 0x1F9F PUSH1 0x20 DUP4 ADD DUP6 PUSH2 0x1F6E JUMP JUMPDEST PUSH2 0x1FAC PUSH1 0x40 DUP4 ADD DUP5 PUSH2 0x1D76 JUMP JUMPDEST SWAP5 SWAP4 POP POP POP POP JUMP JUMPDEST PUSH2 0x1FBD DUP2 PUSH2 0x1F5C JUMP JUMPDEST DUP2 EQ PUSH2 0x1FC8 JUMPI PUSH1 0x0 DUP1 REVERT JUMPDEST POP JUMP JUMPDEST PUSH1 0x0 DUP2 CALLDATALOAD SWAP1 POP PUSH2 0x1FDA DUP2 PUSH2 0x1FB4 JUMP JUMPDEST SWAP3 SWAP2 POP POP JUMP JUMPDEST PUSH1 0x0 DUP1 PUSH1 0x0 PUSH1 0x40 DUP5 DUP7 SUB SLT ISZERO PUSH2 0x1FF9 JUMPI PUSH2 0x1FF8 PUSH2 0x1BD3 JUMP JUMPDEST JUMPDEST PUSH1 0x0 DUP5 ADD CALLDATALOAD PUSH8 0xFFFFFFFFFFFFFFFF DUP2 GT ISZERO PUSH2 0x2017 JUMPI PUSH2 0x2016 PUSH2 0x1BD8 JUMP JUMPDEST JUMPDEST PUSH2 0x2023 DUP7 DUP3 DUP8 ADD PUSH2 0x1DAA JUMP JUMPDEST SWAP4 POP SWAP4 POP POP PUSH1 0x20 PUSH2 0x2036 DUP7 DUP3 DUP8 ADD PUSH2 0x1FCB JUMP JUMPDEST SWAP2 POP POP SWAP3 POP SWAP3 POP SWAP3 JUMP JUMPDEST PUSH1 0x0 PUSH1 0x20 DUP3 ADD SWAP1 POP PUSH2 0x2055 PUSH1 0x0 DUP4 ADD DUP5 PUSH2 0x1F6E JUMP JUMPDEST SWAP3 SWAP2 POP POP JUMP JUMPDEST PUSH1 0x0 DUP1 PUSH1 0x40 DUP4 DUP6 SUB SLT ISZERO PUSH2 0x2072 JUMPI PUSH2 0x2071 PUSH2 0x1BD3 JUMP JUMPDEST JUMPDEST PUSH1 0x0 PUSH2 0x2080 DUP6 DUP3 DUP7 ADD PUSH2 0x1FCB JUMP JUMPDEST SWAP3 POP POP PUSH1 0x20 PUSH2 0x2091 DUP6 DUP3 DUP7 ADD PUSH2 0x1E17 JUMP JUMPDEST SWAP2 POP POP SWAP3 POP SWAP3 SWAP1 POP JUMP JUMPDEST PUSH1 0x0 DUP1 PUSH1 0x0 DUP1 PUSH1 0x0 DUP1 PUSH1 0x80 DUP8 DUP10 SUB SLT ISZERO PUSH2 0x20B8 JUMPI PUSH2 0x20B7 PUSH2 0x1BD3 JUMP JUMPDEST JUMPDEST PUSH1 0x0 DUP8 ADD CALLDATALOAD PUSH8 0xFFFFFFFFFFFFFFFF DUP2 GT ISZERO PUSH2 0x20D6 JUMPI PUSH2 0x20D5 PUSH2 0x1BD8 JUMP JUMPDEST JUMPDEST PUSH2 0x20E2 DUP10 DUP3 DUP11 ADD PUSH2 0x1DAA JUMP JUMPDEST SWAP7 POP SWAP7 POP POP PUSH1 0x20 PUSH2 0x20F5 DUP10 DUP3 DUP11 ADD PUSH2 0x1FCB JUMP JUMPDEST SWAP5 POP POP PUSH1 0x40 PUSH2 0x2106 DUP10 DUP3 DUP11 ADD PUSH2 0x1E17 JUMP JUMPDEST SWAP4 POP POP PUSH1 0x60 DUP8 ADD CALLDATALOAD PUSH8 0xFFFFFFFFFFFFFFFF DUP2 GT ISZERO PUSH2 0x2127 JUMPI PUSH2 0x2126 PUSH2 0x1BD8 JUMP JUMPDEST JUMPDEST PUSH2 0x2133 DUP10 DUP3 DUP11 ADD PUSH2 0x1DAA JUMP JUMPDEST SWAP3 POP SWAP3 POP POP SWAP3 SWAP6 POP SWAP3 SWAP6 POP SWAP3 SWAP6 JUMP JUMPDEST PUSH1 0x0 PUSH1 0x20 DUP3 DUP5 SUB SLT ISZERO PUSH2 0x2158 JUMPI PUSH2 0x2157 PUSH2 0x1BD3 JUMP JUMPDEST JUMPDEST PUSH1 0x0 PUSH2 0x2166 DUP5 DUP3 DUP6 ADD PUSH2 0x1FCB JUMP JUMPDEST SWAP2 POP POP SWAP3 SWAP2 POP POP JUMP JUMPDEST PUSH1 0x0 DUP2 MLOAD SWAP1 POP SWAP2 SWAP1 POP JUMP JUMPDEST PUSH1 0x0 DUP3 DUP3 MSTORE PUSH1 0x20 DUP3 ADD SWAP1 POP SWAP3 SWAP2 POP POP JUMP JUMPDEST PUSH1 0x0 DUP2 SWAP1 POP PUSH1 0x20 DUP3 ADD SWAP1 POP SWAP2 SWAP1 POP JUMP JUMPDEST PUSH1 0x0 DUP2 MLOAD SWAP1 POP SWAP2 SWAP1 POP JUMP JUMPDEST PUSH1 0x0 DUP3 DUP3 MSTORE PUSH1 0x20 DUP3 ADD SWAP1 POP SWAP3 SWAP2 POP POP JUMP JUMPDEST PUSH1 0x0 JUMPDEST DUP4 DUP2 LT ISZERO PUSH2 0x21D5 JUMPI DUP1 DUP3 ADD MLOAD DUP2 DUP5 ADD MSTORE PUSH1 0x20 DUP2 ADD SWAP1 POP PUSH2 0x21BA JUMP JUMPDEST PUSH1 0x0 DUP5 DUP5 ADD MSTORE POP POP POP POP JUMP JUMPDEST PUSH1 0x0 PUSH2 0x21EC DUP3 PUSH2 0x219B JUMP JUMPDEST PUSH2 0x21F6 DUP2 DUP6 PUSH2 0x21A6 JUMP JUMPDEST SWAP4 POP PUSH2 0x2206 DUP2 DUP6 PUSH1 0x20 DUP7 ADD PUSH2 0x21B7 JUMP JUMPDEST PUSH2 0x220F DUP2 PUSH2 0x1BE7 JUMP JUMPDEST DUP5 ADD SWAP2 POP POP SWAP3 SWAP2 POP POP JUMP JUMPDEST PUSH1 0x0 PUSH2 0x2226 DUP4 DUP4 PUSH2 0x21E1 JUMP JUMPDEST SWAP1 POP SWAP3 SWAP2 POP POP JUMP JUMPDEST PUSH1 0x0 PUSH1 0x20 DUP3 ADD SWAP1 POP SWAP2 SWAP1 POP JUMP JUMPDEST PUSH1 0x0 PUSH2 0x2246 DUP3 PUSH2 0x216F JUMP JUMPDEST PUSH2 0x2250 DUP2 DUP6 PUSH2 0x217A JUMP JUMPDEST SWAP4 POP DUP4 PUSH1 0x20 DUP3 MUL DUP6 ADD PUSH2 0x2262 DUP6 PUSH2 0x218B JUMP JUMPDEST DUP1 PUSH1 0x0 JUMPDEST DUP6 DUP2 LT ISZERO PUSH2 0x229E JUMPI DUP5 DUP5 SUB DUP10 MSTORE DUP2 MLOAD PUSH2 0x227F DUP6 DUP3 PUSH2 0x221A JUMP JUMPDEST SWAP5 POP PUSH2 0x228A DUP4 PUSH2 0x222E JUMP JUMPDEST SWAP3 POP PUSH1 0x20 DUP11 ADD SWAP10 POP POP PUSH1 0x1 DUP2 ADD SWAP1 POP PUSH2 0x2266 JUMP JUMPDEST POP DUP3 SWAP8 POP DUP8 SWAP6 POP POP POP POP POP POP SWAP3 SWAP2 POP POP JUMP JUMPDEST PUSH1 0x0 PUSH1 0x20 DUP3 ADD SWAP1 POP DUP2 DUP2 SUB PUSH1 0x0 DUP4 ADD MSTORE PUSH2 0x22CA DUP2 DUP5 PUSH2 0x223B JUMP JUMPDEST SWAP1 POP SWAP3 SWAP2 POP POP JUMP JUMPDEST PUSH1 0x0 DUP2 SWAP1 POP SWAP3 SWAP2 POP POP JUMP JUMPDEST PUSH1 0x0 PUSH2 0x22E8 DUP3 PUSH2 0x219B JUMP JUMPDEST PUSH2 0x22F2 DUP2 DUP6 PUSH2 0x22D2 JUMP JUMPDEST SWAP4 POP PUSH2 0x2302 DUP2 DUP6 PUSH1 0x20 DUP7 ADD PUSH2 0x21B7 JUMP JUMPDEST DUP1 DUP5 ADD SWAP2 POP POP SWAP3 SWAP2 POP POP JUMP JUMPDEST PUSH1 0x0 PUSH2 0x231A DUP3 DUP5 PUSH2 0x22DD JUMP JUMPDEST SWAP2 POP DUP2 SWAP1 POP SWAP3 SWAP2 POP POP JUMP JUMPDEST PUSH1 0x0 DUP3 DUP3 MSTORE PUSH1 0x20 DUP3 ADD SWAP1 POP SWAP3 SWAP2 POP POP JUMP JUMPDEST PUSH32 0x596F7520617265206E6F7420746865206F776E6572206F66207468697320646F PUSH1 0x0 DUP3 ADD MSTORE PUSH32 0x6D61696E2E000000000000000000000000000000000000000000000000000000 PUSH1 0x20 DUP3 ADD MSTORE POP JUMP JUMPDEST PUSH1 0x0 PUSH2 0x2392 PUSH1 0x25 DUP4 PUSH2 0x2325 JUMP JUMPDEST SWAP2 POP PUSH2 0x239D DUP3 PUSH2 0x2336 JUMP JUMPDEST PUSH1 0x40 DUP3 ADD SWAP1 POP SWAP2 SWAP1 POP JUMP JUMPDEST PUSH1 0x0 PUSH1 0x20 DUP3 ADD SWAP1 POP DUP2 DUP2 SUB PUSH1 0x0 DUP4 ADD MSTORE PUSH2 0x23C1 DUP2 PUSH2 0x2385 JUMP JUMPDEST SWAP1 POP SWAP2 SWAP1 POP JUMP JUMPDEST PUSH32 0x4E487B7100000000000000000000000000000000000000000000000000000000 PUSH1 0x0 MSTORE PUSH1 0x11 PUSH1 0x4 MSTORE PUSH1 0x24 PUSH1 0x0 REVERT JUMPDEST PUSH1 0x0 PUSH2 0x2402 DUP3 PUSH2 0x1D6C JUMP JUMPDEST SWAP2 POP PUSH2 0x240D DUP4 PUSH2 0x1D6C JUMP JUMPDEST SWAP3 POP DUP3 DUP3 MUL PUSH2 0x241B DUP2 PUSH2 0x1D6C JUMP JUMPDEST SWAP2 POP DUP3 DUP3 DIV DUP5 EQ DUP4 ISZERO OR PUSH2 0x2432 JUMPI PUSH2 0x2431 PUSH2 0x23C8 JUMP JUMPDEST JUMPDEST POP SWAP3 SWAP2 POP POP JUMP JUMPDEST PUSH32 0x496E73756666696369656E742066756E647320746F2072656E65772074686520 PUSH1 0x0 DUP3 ADD MSTORE PUSH32 0x646F6D61696E20666F7220746865207370656369666965642079656172730000 PUSH1 0x20 DUP3 ADD MSTORE POP JUMP JUMPDEST PUSH1 0x0 PUSH2 0x2495 PUSH1 0x3E DUP4 PUSH2 0x2325 JUMP JUMPDEST SWAP2 POP PUSH2 0x24A0 DUP3 PUSH2 0x2439 JUMP JUMPDEST PUSH1 0x40 DUP3 ADD SWAP1 POP SWAP2 SWAP1 POP JUMP JUMPDEST PUSH1 0x0 PUSH1 0x20 DUP3 ADD SWAP1 POP DUP2 DUP2 SUB PUSH1 0x0 DUP4 ADD MSTORE PUSH2 0x24C4 DUP2 PUSH2 0x2488 JUMP JUMPDEST SWAP1 POP SWAP2 SWAP1 POP JUMP JUMPDEST PUSH1 0x0 PUSH2 0x24D7 DUP4 DUP6 PUSH2 0x22D2 JUMP JUMPDEST SWAP4 POP PUSH2 0x24E4 DUP4 DUP6 DUP5 PUSH2 0x1CA4 JUMP JUMPDEST DUP3 DUP5 ADD SWAP1 POP SWAP4 SWAP3 POP POP POP JUMP JUMPDEST PUSH1 0x0 PUSH2 0x24FD DUP3 DUP5 DUP7 PUSH2 0x24CB JUMP JUMPDEST SWAP2 POP DUP2 SWAP1 POP SWAP4 SWAP3 POP POP POP JUMP JUMPDEST PUSH1 0x0 PUSH2 0x2514 DUP3 PUSH2 0x1D6C JUMP JUMPDEST SWAP2 POP PUSH2 0x251F DUP4 PUSH2 0x1D6C JUMP JUMPDEST SWAP3 POP DUP3 DUP3 ADD SWAP1 POP DUP1 DUP3 GT ISZERO PUSH2 0x2537 JUMPI PUSH2 0x2536 PUSH2 0x23C8 JUMP JUMPDEST JUMPDEST SWAP3 SWAP2 POP POP JUMP JUMPDEST PUSH1 0x0 PUSH2 0x2549 DUP4 DUP6 PUSH2 0x2325 JUMP JUMPDEST SWAP4 POP PUSH2 0x2556 DUP4 DUP6 DUP5 PUSH2 0x1CA4 JUMP JUMPDEST PUSH2 0x255F DUP4 PUSH2 0x1BE7 JUMP JUMPDEST DUP5 ADD SWAP1 POP SWAP4 SWAP3 POP POP POP JUMP JUMPDEST PUSH1 0x0 PUSH1 0x40 DUP3 ADD SWAP1 POP DUP2 DUP2 SUB PUSH1 0x0 DUP4 ADD MSTORE PUSH2 0x2585 DUP2 DUP6 DUP8 PUSH2 0x253D JUMP JUMPDEST SWAP1 POP PUSH2 0x2594 PUSH1 0x20 DUP4 ADD DUP5 PUSH2 0x1D76 JUMP JUMPDEST SWAP5 SWAP4 POP POP POP POP JUMP JUMPDEST PUSH1 0x0 PUSH2 0x25A7 DUP3 PUSH2 0x1D6C JUMP JUMPDEST SWAP2 POP PUSH2 0x25B2 DUP4 PUSH2 0x1D6C JUMP JUMPDEST SWAP3 POP DUP3 DUP3 SUB SWAP1 POP DUP2 DUP2 GT ISZERO PUSH2 0x25CA JUMPI PUSH2 0x25C9 PUSH2 0x23C8 JUMP JUMPDEST JUMPDEST SWAP3 SWAP2 POP POP JUMP JUMPDEST PUSH32 0x4F6E6C792074686520636F6E7472616374206F776E65722063616E2063616C6C PUSH1 0x0 DUP3 ADD MSTORE PUSH32 0x20746869732066756E6374696F6E2E0000000000000000000000000000000000 PUSH1 0x20 DUP3 ADD MSTORE POP JUMP JUMPDEST PUSH1 0x0 PUSH2 0x262C PUSH1 0x2F DUP4 PUSH2 0x2325 JUMP JUMPDEST SWAP2 POP PUSH2 0x2637 DUP3 PUSH2 0x25D0 JUMP JUMPDEST PUSH1 0x40 DUP3 ADD SWAP1 POP SWAP2 SWAP1 POP JUMP JUMPDEST PUSH1 0x0 PUSH1 0x20 DUP3 ADD SWAP1 POP DUP2 DUP2 SUB PUSH1 0x0 DUP4 ADD MSTORE PUSH2 0x265B DUP2 PUSH2 0x261F JUMP JUMPDEST SWAP1 POP SWAP2 SWAP1 POP JUMP JUMPDEST PUSH32 0x446F6D61696E2068617320657870697265642E00000000000000000000000000 PUSH1 0x0 DUP3 ADD MSTORE POP JUMP JUMPDEST PUSH1 0x0 PUSH2 0x2698 PUSH1 0x13 DUP4 PUSH2 0x2325 JUMP JUMPDEST SWAP2 POP PUSH2 0x26A3 DUP3 PUSH2 0x2662 JUMP JUMPDEST PUSH1 0x20 DUP3 ADD SWAP1 POP SWAP2 SWAP1 POP JUMP JUMPDEST PUSH1 0x0 PUSH1 0x20 DUP3 ADD SWAP1 POP DUP2 DUP2 SUB PUSH1 0x0 DUP4 ADD MSTORE PUSH2 0x26C7 DUP2 PUSH2 0x268B JUMP JUMPDEST SWAP1 POP SWAP2 SWAP1 POP JUMP JUMPDEST PUSH1 0x0 PUSH1 0x20 DUP3 ADD SWAP1 POP DUP2 DUP2 SUB PUSH1 0x0 DUP4 ADD MSTORE PUSH2 0x26E9 DUP2 DUP5 DUP7 PUSH2 0x253D JUMP JUMPDEST SWAP1 POP SWAP4 SWAP3 POP POP POP JUMP JUMPDEST PUSH1 0x0 DUP3 SWAP1 POP SWAP3 SWAP2 POP POP JUMP JUMPDEST PUSH32 0x4E487B7100000000000000000000000000000000000000000000000000000000 PUSH1 0x0 MSTORE PUSH1 0x22 PUSH1 0x4 MSTORE PUSH1 0x24 PUSH1 0x0 REVERT JUMPDEST PUSH1 0x0 PUSH1 0x2 DUP3 DIV SWAP1 POP PUSH1 0x1 DUP3 AND DUP1 PUSH2 0x2744 JUMPI PUSH1 0x7F DUP3 AND SWAP2 POP JUMPDEST PUSH1 0x20 DUP3 LT DUP2 SUB PUSH2 0x2757 JUMPI PUSH2 0x2756 PUSH2 0x26FD JUMP JUMPDEST JUMPDEST POP SWAP2 SWAP1 POP JUMP JUMPDEST PUSH1 0x0 DUP2 SWAP1 POP DUP2 PUSH1 0x0 MSTORE PUSH1 0x20 PUSH1 0x0 KECCAK256 SWAP1 POP SWAP2 SWAP1 POP JUMP JUMPDEST PUSH1 0x0 PUSH1 0x20 PUSH1 0x1F DUP4 ADD DIV SWAP1 POP SWAP2 SWAP1 POP JUMP JUMPDEST PUSH1 0x0 DUP3 DUP3 SHL SWAP1 POP SWAP3 SWAP2 POP POP JUMP JUMPDEST PUSH1 0x0 PUSH1 0x8 DUP4 MUL PUSH2 0x27BF PUSH32 0xFFFFFFFFFFFFFFFFFFFFFFFFFFFFFFFFFFFFFFFFFFFFFFFFFFFFFFFFFFFFFFFF DUP3 PUSH2 0x2782 JUMP JUMPDEST PUSH2 0x27C9 DUP7 DUP4 PUSH2 0x2782 JUMP JUMPDEST SWAP6 POP DUP1 NOT DUP5 AND SWAP4 POP DUP1 DUP7 AND DUP5 OR SWAP3 POP POP POP SWAP4 SWAP3 POP POP POP JUMP JUMPDEST PUSH1 0x0 DUP2 SWAP1 POP SWAP2 SWAP1 POP JUMP JUMPDEST PUSH1 0x0 PUSH2 0x2806 PUSH2 0x2801 PUSH2 0x27FC DUP5 PUSH2 0x1D6C JUMP JUMPDEST PUSH2 0x27E1 JUMP JUMPDEST PUSH2 0x1D6C JUMP JUMPDEST SWAP1 POP SWAP2 SWAP1 POP JUMP JUMPDEST PUSH1 0x0 DUP2 SWAP1 POP SWAP2 SWAP1 POP JUMP JUMPDEST PUSH2 0x2820 DUP4 PUSH2 0x27EB JUMP JUMPDEST PUSH2 0x2834 PUSH2 0x282C DUP3 PUSH2 0x280D JUMP JUMPDEST DUP5 DUP5 SLOAD PUSH2 0x278F JUMP JUMPDEST DUP3 SSTORE POP POP POP POP JUMP JUMPDEST PUSH1 0x0 SWAP1 JUMP JUMPDEST PUSH2 0x2849 PUSH2 0x283C JUMP JUMPDEST PUSH2 0x2854 DUP2 DUP5 DUP5 PUSH2 0x2817 JUMP JUMPDEST POP POP POP JUMP JUMPDEST JUMPDEST DUP2 DUP2 LT ISZERO PUSH2 0x2878 JUMPI PUSH2 0x286D PUSH1 0x0 DUP3 PUSH2 0x2841 JUMP JUMPDEST PUSH1 0x1 DUP2 ADD SWAP1 POP PUSH2 0x285A JUMP JUMPDEST POP POP JUMP JUMPDEST PUSH1 0x1F DUP3 GT ISZERO PUSH2 0x28BD JUMPI PUSH2 0x288E DUP2 PUSH2 0x275D JUMP JUMPDEST PUSH2 0x2897 DUP5 PUSH2 0x2772 JUMP JUMPDEST DUP2 ADD PUSH1 0x20 DUP6 LT ISZERO PUSH2 0x28A6 JUMPI DUP2 SWAP1 POP JUMPDEST PUSH2 0x28BA PUSH2 0x28B2 DUP6 PUSH2 0x2772 JUMP JUMPDEST DUP4 ADD DUP3 PUSH2 0x2859 JUMP JUMPDEST POP POP JUMPDEST POP POP POP JUMP JUMPDEST PUSH1 0x0 DUP3 DUP3 SHR SWAP1 POP SWAP3 SWAP2 POP POP JUMP JUMPDEST PUSH1 0x0 PUSH2 0x28E0 PUSH1 0x0 NOT DUP5 PUSH1 0x8 MUL PUSH2 0x28C2 JUMP JUMPDEST NOT DUP1 DUP4 AND SWAP2 POP POP SWAP3 SWAP2 POP POP JUMP JUMPDEST PUSH1 0x0 PUSH2 0x28F9 DUP4 DUP4 PUSH2 0x28CF JUMP JUMPDEST SWAP2 POP DUP3 PUSH1 0x2 MUL DUP3 OR SWAP1 POP SWAP3 SWAP2 POP POP JUMP JUMPDEST PUSH2 0x2913 DUP4 DUP4 PUSH2 0x26F2 JUMP JUMPDEST PUSH8 0xFFFFFFFFFFFFFFFF DUP2 GT ISZERO PUSH2 0x292C JUMPI PUSH2 0x292B PUSH2 0x1BF8 JUMP JUMPDEST JUMPDEST PUSH2 0x2936 DUP3 SLOAD PUSH2 0x272C JUMP JUMPDEST PUSH2 0x2941 DUP3 DUP3 DUP6 PUSH2 0x287C JUMP JUMPDEST PUSH1 0x0 PUSH1 0x1F DUP4 GT PUSH1 0x1 DUP2 EQ PUSH2 0x2970 JUMPI PUSH1 0x0 DUP5 ISZERO PUSH2 0x295E JUMPI DUP3 DUP8 ADD CALLDATALOAD SWAP1 POP JUMPDEST PUSH2 0x2968 DUP6 DUP3 PUSH2 0x28ED JUMP JUMPDEST DUP7 SSTORE POP PUSH2 0x29D0 JUMP JUMPDEST PUSH1 0x1F NOT DUP5 AND PUSH2 0x297E DUP7 PUSH2 0x275D JUMP JUMPDEST PUSH1 0x0 JUMPDEST DUP3 DUP2 LT ISZERO PUSH2 0x29A6 JUMPI DUP5 DUP10 ADD CALLDATALOAD DUP3 SSTORE PUSH1 0x1 DUP3 ADD SWAP2 POP PUSH1 0x20 DUP6 ADD SWAP5 POP PUSH1 0x20 DUP2 ADD SWAP1 POP PUSH2 0x2981 JUMP JUMPDEST DUP7 DUP4 LT ISZERO PUSH2 0x29C3 JUMPI DUP5 DUP10 ADD CALLDATALOAD PUSH2 0x29BF PUSH1 0x1F DUP10 AND DUP3 PUSH2 0x28CF JUMP JUMPDEST DUP4 SSTORE POP JUMPDEST PUSH1 0x1 PUSH1 0x2 DUP9 MUL ADD DUP9 SSTORE POP POP POP JUMPDEST POP POP POP POP POP POP POP JUMP JUMPDEST PUSH1 0x0 PUSH1 0x40 DUP3 ADD SWAP1 POP PUSH2 0x29EE PUSH1 0x0 DUP4 ADD DUP6 PUSH2 0x1F6E JUMP JUMPDEST PUSH2 0x29FB PUSH1 0x20 DUP4 ADD DUP5 PUSH2 0x1D76 JUMP JUMPDEST SWAP4 SWAP3 POP POP POP JUMP JUMPDEST PUSH2 0x2A0B DUP2 PUSH2 0x1ED9 JUMP JUMPDEST DUP2 EQ PUSH2 0x2A16 JUMPI PUSH1 0x0 DUP1 REVERT JUMPDEST POP JUMP JUMPDEST PUSH1 0x0 DUP2 MLOAD SWAP1 POP PUSH2 0x2A28 DUP2 PUSH2 0x2A02 JUMP JUMPDEST SWAP3 SWAP2 POP POP JUMP JUMPDEST PUSH1 0x0 PUSH1 0x20 DUP3 DUP5 SUB SLT ISZERO PUSH2 0x2A44 JUMPI PUSH2 0x2A43 PUSH2 0x1BD3 JUMP JUMPDEST JUMPDEST PUSH1 0x0 PUSH2 0x2A52 DUP5 DUP3 DUP6 ADD PUSH2 0x2A19 JUMP JUMPDEST SWAP2 POP POP SWAP3 SWAP2 POP POP JUMP JUMPDEST PUSH32 0x496E76616C696420737566666978000000000000000000000000000000000000 PUSH1 0x0 DUP3 ADD MSTORE POP JUMP JUMPDEST PUSH1 0x0 PUSH2 0x2A91 PUSH1 0xE DUP4 PUSH2 0x2325 JUMP JUMPDEST SWAP2 POP PUSH2 0x2A9C DUP3 PUSH2 0x2A5B JUMP JUMPDEST PUSH1 0x20 DUP3 ADD SWAP1 POP SWAP2 SWAP1 POP JUMP JUMPDEST PUSH1 0x0 PUSH1 0x20 DUP3 ADD SWAP1 POP DUP2 DUP2 SUB PUSH1 0x0 DUP4 ADD MSTORE PUSH2 0x2AC0 DUP2 PUSH2 0x2A84 JUMP JUMPDEST SWAP1 POP SWAP2 SWAP1 POP JUMP JUMPDEST PUSH32 0x4E616D652073686F756C64206265206265747765656E203120616E6420313520 PUSH1 0x0 DUP3 ADD MSTORE PUSH32 0x636861726163746572732E000000000000000000000000000000000000000000 PUSH1 0x20 DUP3 ADD MSTORE POP JUMP JUMPDEST PUSH1 0x0 PUSH2 0x2B23 PUSH1 0x2B DUP4 PUSH2 0x2325 JUMP JUMPDEST SWAP2 POP PUSH2 0x2B2E DUP3 PUSH2 0x2AC7 JUMP JUMPDEST PUSH1 0x40 DUP3 ADD SWAP1 POP SWAP2 SWAP1 POP JUMP JUMPDEST PUSH1 0x0 PUSH1 0x20 DUP3 ADD SWAP1 POP DUP2 DUP2 SUB PUSH1 0x0 DUP4 ADD MSTORE PUSH2 0x2B52 DUP2 PUSH2 0x2B16 JUMP JUMPDEST SWAP1 POP SWAP2 SWAP1 POP JUMP JUMPDEST PUSH1 0x0 PUSH2 0x2B65 DUP3 DUP7 PUSH2 0x22DD JUMP JUMPDEST SWAP2 POP PUSH2 0x2B72 DUP3 DUP5 DUP7 PUSH2 0x24CB JUMP JUMPDEST SWAP2 POP DUP2 SWAP1 POP SWAP5 SWAP4 POP POP POP POP JUMP JUMPDEST PUSH32 0x446F6D61696E20697320616C7265616479206F776E6564206F72206E6F742079 PUSH1 0x0 DUP3 ADD MSTORE PUSH32 0x6574206578706972656400000000000000000000000000000000000000000000 PUSH1 0x20 DUP3 ADD MSTORE POP JUMP JUMPDEST PUSH1 0x0 PUSH2 0x2BDB PUSH1 0x2A DUP4 PUSH2 0x2325 JUMP JUMPDEST SWAP2 POP PUSH2 0x2BE6 DUP3 PUSH2 0x2B7F JUMP JUMPDEST PUSH1 0x40 DUP3 ADD SWAP1 POP SWAP2 SWAP1 POP JUMP JUMPDEST PUSH1 0x0 PUSH1 0x20 DUP3 ADD SWAP1 POP DUP2 DUP2 SUB PUSH1 0x0 DUP4 ADD MSTORE PUSH2 0x2C0A DUP2 PUSH2 0x2BCE JUMP JUMPDEST SWAP1 POP SWAP2 SWAP1 POP JUMP JUMPDEST PUSH32 0x496E73756666696369656E742066756E647320746F2072656769737465722074 PUSH1 0x0 DUP3 ADD MSTORE PUSH32 0x686520646F6D61696E20666F7220746865207370656369666965642079656172 PUSH1 0x20 DUP3 ADD MSTORE PUSH32 0x7300000000000000000000000000000000000000000000000000000000000000 PUSH1 0x40 DUP3 ADD MSTORE POP JUMP JUMPDEST PUSH1 0x0 PUSH2 0x2C93 PUSH1 0x41 DUP4 PUSH2 0x2325 JUMP JUMPDEST SWAP2 POP PUSH2 0x2C9E DUP3 PUSH2 0x2C11 JUMP JUMPDEST PUSH1 0x60 DUP3 ADD SWAP1 POP SWAP2 SWAP1 POP JUMP JUMPDEST PUSH1 0x0 PUSH1 0x20 DUP3 ADD SWAP1 POP DUP2 DUP2 SUB PUSH1 0x0 DUP4 ADD MSTORE PUSH2 0x2CC2 DUP2 PUSH2 0x2C86 JUMP JUMPDEST SWAP1 POP SWAP2 SWAP1 POP JUMP JUMPDEST PUSH2 0x2CD2 DUP3 PUSH2 0x219B JUMP JUMPDEST PUSH8 0xFFFFFFFFFFFFFFFF DUP2 GT ISZERO PUSH2 0x2CEB JUMPI PUSH2 0x2CEA PUSH2 0x1BF8 JUMP JUMPDEST JUMPDEST PUSH2 0x2CF5 DUP3 SLOAD PUSH2 0x272C JUMP JUMPDEST PUSH2 0x2D00 DUP3 DUP3 DUP6 PUSH2 0x287C JUMP JUMPDEST PUSH1 0x0 PUSH1 0x20 SWAP1 POP PUSH1 0x1F DUP4 GT PUSH1 0x1 DUP2 EQ PUSH2 0x2D33 JUMPI PUSH1 0x0 DUP5 ISZERO PUSH2 0x2D21 JUMPI DUP3 DUP8 ADD MLOAD SWAP1 POP JUMPDEST PUSH2 0x2D2B DUP6 DUP3 PUSH2 0x28ED JUMP JUMPDEST DUP7 SSTORE POP PUSH2 0x2D93 JUMP JUMPDEST PUSH1 0x1F NOT DUP5 AND PUSH2 0x2D41 DUP7 PUSH2 0x275D JUMP JUMPDEST PUSH1 0x0 JUMPDEST DUP3 DUP2 LT ISZERO PUSH2 0x2D69 JUMPI DUP5 DUP10 ADD MLOAD DUP3 SSTORE PUSH1 0x1 DUP3 ADD SWAP2 POP PUSH1 0x20 DUP6 ADD SWAP5 POP PUSH1 0x20 DUP2 ADD SWAP1 POP PUSH2 0x2D44 JUMP JUMPDEST DUP7 DUP4 LT ISZERO PUSH2 0x2D86 JUMPI DUP5 DUP10 ADD MLOAD PUSH2 0x2D82 PUSH1 0x1F DUP10 AND DUP3 PUSH2 0x28CF JUMP JUMPDEST DUP4 SSTORE POP JUMPDEST PUSH1 0x1 PUSH1 0x2 DUP9 MUL ADD DUP9 SSTORE POP POP POP JUMPDEST POP POP POP POP POP POP JUMP JUMPDEST PUSH1 0x0 PUSH2 0x2DA6 DUP3 PUSH2 0x219B JUMP JUMPDEST PUSH2 0x2DB0 DUP2 DUP6 PUSH2 0x2325 JUMP JUMPDEST SWAP4 POP PUSH2 0x2DC0 DUP2 DUP6 PUSH1 0x20 DUP7 ADD PUSH2 0x21B7 JUMP JUMPDEST PUSH2 0x2DC9 DUP2 PUSH2 0x1BE7 JUMP JUMPDEST DUP5 ADD SWAP2 POP POP SWAP3 SWAP2 POP POP JUMP JUMPDEST PUSH1 0x0 PUSH1 0x60 DUP3 ADD SWAP1 POP DUP2 DUP2 SUB PUSH1 0x0 DUP4 ADD MSTORE PUSH2 0x2DEE DUP2 DUP7 PUSH2 0x2D9B JUMP JUMPDEST SWAP1 POP PUSH2 0x2DFD PUSH1 0x20 DUP4 ADD DUP6 PUSH2 0x1F6E JUMP JUMPDEST PUSH2 0x2E0A PUSH1 0x40 DUP4 ADD DUP5 PUSH2 0x1D76 JUMP JUMPDEST SWAP5 SWAP4 POP POP POP POP JUMP JUMPDEST PUSH32 0x4E487B7100000000000000000000000000000000000000000000000000000000 PUSH1 0x0 MSTORE PUSH1 0x32 PUSH1 0x4 MSTORE PUSH1 0x24 PUSH1 0x0 REVERT JUMPDEST PUSH1 0x0 PUSH2 0x2E4C DUP3 PUSH2 0x1D6C JUMP JUMPDEST SWAP2 POP PUSH1 0x0 DUP3 SUB PUSH2 0x2E5F JUMPI PUSH2 0x2E5E PUSH2 0x23C8 JUMP JUMPDEST JUMPDEST PUSH1 0x1 DUP3 SUB SWAP1 POP SWAP2 SWAP1 POP JUMP JUMPDEST PUSH32 0x4E6F2073756666697820666F756E640000000000000000000000000000000000 PUSH1 0x0 DUP3 ADD MSTORE POP JUMP JUMPDEST PUSH1 0x0 PUSH2 0x2EA0 PUSH1 0xF DUP4 PUSH2 0x2325 JUMP JUMPDEST SWAP2 POP PUSH2 0x2EAB DUP3 PUSH2 0x2E6A JUMP JUMPDEST PUSH1 0x20 DUP3 ADD SWAP1 POP SWAP2 SWAP1 POP JUMP JUMPDEST PUSH1 0x0 PUSH1 0x20 DUP3 ADD SWAP1 POP DUP2 DUP2 SUB PUSH1 0x0 DUP4 ADD MSTORE PUSH2 0x2ECF DUP2 PUSH2 0x2E93 JUMP JUMPDEST SWAP1 POP SWAP2 SWAP1 POP JUMP JUMPDEST PUSH1 0x0 PUSH2 0x2EE1 DUP3 PUSH2 0x1D6C JUMP JUMPDEST SWAP2 POP PUSH32 0xFFFFFFFFFFFFFFFFFFFFFFFFFFFFFFFFFFFFFFFFFFFFFFFFFFFFFFFFFFFFFFFF DUP3 SUB PUSH2 0x2F13 JUMPI PUSH2 0x2F12 PUSH2 0x23C8 JUMP JUMPDEST JUMPDEST PUSH1 0x1 DUP3 ADD SWAP1 POP SWAP2 SWAP1 POP JUMP JUMPDEST PUSH1 0x0 DUP2 SLOAD PUSH2 0x2F2B DUP2 PUSH2 0x272C JUMP JUMPDEST PUSH2 0x2F35 DUP2 DUP7 PUSH2 0x22D2 JUMP JUMPDEST SWAP5 POP PUSH1 0x1 DUP3 AND PUSH1 0x0 DUP2 EQ PUSH2 0x2F50 JUMPI PUSH1 0x1 DUP2 EQ PUSH2 0x2F65 JUMPI PUSH2 0x2F98 JUMP JUMPDEST PUSH1 0xFF NOT DUP4 AND DUP7 MSTORE DUP2 ISZERO ISZERO DUP3 MUL DUP7 ADD SWAP4 POP PUSH2 0x2F98 JUMP JUMPDEST PUSH2 0x2F6E DUP6 PUSH2 0x275D JUMP JUMPDEST PUSH1 0x0 JUMPDEST DUP4 DUP2 LT ISZERO PUSH2 0x2F90 JUMPI DUP2 SLOAD DUP2 DUP10 ADD MSTORE PUSH1 0x1 DUP3 ADD SWAP2 POP PUSH1 0x20 DUP2 ADD SWAP1 POP PUSH2 0x2F71 JUMP JUMPDEST DUP4 DUP9 ADD SWAP6 POP POP POP JUMPDEST POP POP POP SWAP3 SWAP2 POP POP JUMP JUMPDEST PUSH1 0x0 PUSH2 0x2FAD DUP3 DUP5 PUSH2 0x2F1E JUMP JUMPDEST SWAP2 POP DUP2 SWAP1 POP SWAP3 SWAP2 POP POP JUMP JUMPDEST PUSH1 0x0 DUP2 SLOAD SWAP1 POP PUSH2 0x2FC7 DUP2 PUSH2 0x272C JUMP JUMPDEST SWAP1 POP SWAP2 SWAP1 POP JUMP JUMPDEST PUSH1 0x0 DUP2 SWAP1 POP DUP2 PUSH1 0x0 MSTORE PUSH1 0x20 PUSH1 0x0 KECCAK256 SWAP1 POP SWAP2 SWAP1 POP JUMP JUMPDEST DUP2 DUP2 SUB PUSH2 0x2FF1 JUMPI POP POP PUSH2 0x30C9 JUMP JUMPDEST PUSH2 0x2FFA DUP3 PUSH2 0x2FB8 JUMP JUMPDEST PUSH8 0xFFFFFFFFFFFFFFFF DUP2 GT ISZERO PUSH2 0x3013 JUMPI PUSH2 0x3012 PUSH2 0x1BF8 JUMP JUMPDEST JUMPDEST PUSH2 0x301D DUP3 SLOAD PUSH2 0x272C JUMP JUMPDEST PUSH2 0x3028 DUP3 DUP3 DUP6 PUSH2 0x287C JUMP JUMPDEST PUSH1 0x0 PUSH1 0x1F DUP4 GT PUSH1 0x1 DUP2 EQ PUSH2 0x3057 JUMPI PUSH1 0x0 DUP5 ISZERO PUSH2 0x3045 JUMPI DUP3 DUP8 ADD SLOAD SWAP1 POP JUMPDEST PUSH2 0x304F DUP6 DUP3 PUSH2 0x28ED JUMP JUMPDEST DUP7 SSTORE POP PUSH2 0x30C2 JUMP JUMPDEST PUSH1 0x1F NOT DUP5 AND PUSH2 0x3065 DUP8 PUSH2 0x2FCE JUMP JUMPDEST SWAP7 POP PUSH2 0x3070 DUP7 PUSH2 0x275D JUMP JUMPDEST PUSH1 0x0 JUMPDEST DUP3 DUP2 LT ISZERO PUSH2 0x3098 JUMPI DUP5 DUP10 ADD SLOAD DUP3 SSTORE PUSH1 0x1 DUP3 ADD SWAP2 POP PUSH1 0x1 DUP6 ADD SWAP5 POP PUSH1 0x20 DUP2 ADD SWAP1 POP PUSH2 0x3073 JUMP JUMPDEST DUP7 DUP4 LT ISZERO PUSH2 0x30B5 JUMPI DUP5 DUP10 ADD SLOAD PUSH2 0x30B1 PUSH1 0x1F DUP10 AND DUP3 PUSH2 0x28CF JUMP JUMPDEST DUP4 SSTORE POP JUMPDEST PUSH1 0x1 PUSH1 0x2 DUP9 MUL ADD DUP9 SSTORE POP POP POP JUMPDEST POP POP POP POP POP POP JUMPDEST JUMP JUMPDEST PUSH32 0x4E487B7100000000000000000000000000000000000000000000000000000000 PUSH1 0x0 MSTORE PUSH1 0x31 PUSH1 0x4 MSTORE PUSH1 0x24 PUSH1 0x0 REVERT JUMPDEST PUSH1 0x0 PUSH1 0xFF DUP3 AND SWAP1 POP SWAP2 SWAP1 POP JUMP JUMPDEST PUSH1 0x0 PUSH2 0x3112 DUP3 PUSH2 0x30FA JUMP JUMPDEST SWAP2 POP PUSH2 0x311D DUP4 PUSH2 0x30FA JUMP JUMPDEST SWAP3 POP DUP3 DUP3 ADD SWAP1 POP PUSH1 0xFF DUP2 GT ISZERO PUSH2 0x3136 JUMPI PUSH2 0x3135 PUSH2 0x23C8 JUMP JUMPDEST JUMPDEST SWAP3 SWAP2 POP POP JUMP INVALID LOG2 PUSH5 0x6970667358 0x22 SLT KECCAK256 DUP15 0xDD 0xC9 DUP16 0xE6 REVERT CALLDATASIZE 0x1F PUSH11 0x430FC21B3F382E7C67556D 0xA9 0x4B 0xD1 REVERT SWAP15 0xC3 0xE4 SDIV DUP16 PUSH6 0x40D64736F6C PUSH4 0x43000815 STOP CALLER "
				},
				"gasEstimates": {
					"creation": {
						"codeDepositCost": "2531600",
						"executionCost": "26999",
						"totalCost": "2558599"
					},
					"external": {
						"changeResolver(string,address)": "infinite",
						"currentImplementation()": "2577",
						"getDomainInfo(string)": "infinite",
						"getDomainsByOwner(address)": "infinite",
						"isDomainAvailable(string)": "infinite",
						"owner()": "2559",
						"registerDomain(string,address,uint256,string)": "infinite",
						"renewDomain(string,uint256)": "infinite",
						"setSuffixPrice(string,uint256)": "infinite",
						"suffixPrices(string)": "infinite",
						"transferDomainOwnership(string,address)": "infinite",
						"withdrawCurrency(uint256)": "infinite",
						"withdrawToken(address,uint256)": "infinite"
					},
					"internal": {
						"_extractSuffix(string memory,uint256)": "infinite",
						"_getSuffixPosition(string memory)": "infinite",
						"_removeDomainFromOwner(address,string memory)": "infinite",
						"toLowerCase(string memory)": "infinite"
					}
				},
				"methodIdentifiers": {
					"changeResolver(string,address)": "894d46ac",
					"currentImplementation()": "d8bd5c29",
					"getDomainInfo(string)": "4889e192",
					"getDomainsByOwner(address)": "f38ffb6c",
					"isDomainAvailable(string)": "32752b09",
					"owner()": "8da5cb5b",
					"registerDomain(string,address,uint256,string)": "cc69784a",
					"renewDomain(string,uint256)": "1a83fd8f",
					"setSuffixPrice(string,uint256)": "35b9e937",
					"suffixPrices(string)": "031c1301",
					"transferDomainOwnership(string,address)": "913986bb",
					"withdrawCurrency(uint256)": "3c00a36c",
					"withdrawToken(address,uint256)": "9e281a98"
				}
			},
			"storageLayout": {
				"storage": [
					{
						"astId": 10,
						"contract": "contracts/ENS6.sol:EdexaNamingService",
						"label": "currentImplementation",
						"offset": 0,
						"slot": "0",
						"type": "t_address"
					},
					{
						"astId": 12,
						"contract": "contracts/ENS6.sol:EdexaNamingService",
						"label": "owner",
						"offset": 0,
						"slot": "1",
						"type": "t_address"
					},
					{
						"astId": 16,
						"contract": "contracts/ENS6.sol:EdexaNamingService",
						"label": "suffixPrices",
						"offset": 0,
						"slot": "2",
						"type": "t_mapping(t_string_memory_ptr,t_uint256)"
					},
					{
						"astId": 21,
						"contract": "contracts/ENS6.sol:EdexaNamingService",
						"label": "domains",
						"offset": 0,
						"slot": "3",
						"type": "t_mapping(t_string_memory_ptr,t_struct(Domain)8_storage)"
					},
					{
						"astId": 26,
						"contract": "contracts/ENS6.sol:EdexaNamingService",
						"label": "addressToDomains",
						"offset": 0,
						"slot": "4",
						"type": "t_mapping(t_address,t_array(t_string_storage)dyn_storage)"
					}
				],
				"types": {
					"t_address": {
						"encoding": "inplace",
						"label": "address",
						"numberOfBytes": "20"
					},
					"t_array(t_string_storage)dyn_storage": {
						"base": "t_string_storage",
						"encoding": "dynamic_array",
						"label": "string[]",
						"numberOfBytes": "32"
					},
					"t_mapping(t_address,t_array(t_string_storage)dyn_storage)": {
						"encoding": "mapping",
						"key": "t_address",
						"label": "mapping(address => string[])",
						"numberOfBytes": "32",
						"value": "t_array(t_string_storage)dyn_storage"
					},
					"t_mapping(t_string_memory_ptr,t_struct(Domain)8_storage)": {
						"encoding": "mapping",
						"key": "t_string_memory_ptr",
						"label": "mapping(string => struct EdexaNamingService.Domain)",
						"numberOfBytes": "32",
						"value": "t_struct(Domain)8_storage"
					},
					"t_mapping(t_string_memory_ptr,t_uint256)": {
						"encoding": "mapping",
						"key": "t_string_memory_ptr",
						"label": "mapping(string => uint256)",
						"numberOfBytes": "32",
						"value": "t_uint256"
					},
					"t_string_memory_ptr": {
						"encoding": "bytes",
						"label": "string",
						"numberOfBytes": "32"
					},
					"t_string_storage": {
						"encoding": "bytes",
						"label": "string",
						"numberOfBytes": "32"
					},
					"t_struct(Domain)8_storage": {
						"encoding": "inplace",
						"label": "struct EdexaNamingService.Domain",
						"members": [
							{
								"astId": 3,
								"contract": "contracts/ENS6.sol:EdexaNamingService",
								"label": "owner",
								"offset": 0,
								"slot": "0",
								"type": "t_address"
							},
							{
								"astId": 5,
								"contract": "contracts/ENS6.sol:EdexaNamingService",
								"label": "resolver",
								"offset": 0,
								"slot": "1",
								"type": "t_address"
							},
							{
								"astId": 7,
								"contract": "contracts/ENS6.sol:EdexaNamingService",
								"label": "expiration",
								"offset": 0,
								"slot": "2",
								"type": "t_uint256"
							}
						],
						"numberOfBytes": "96"
					},
					"t_uint256": {
						"encoding": "inplace",
						"label": "uint256",
						"numberOfBytes": "32"
					}
				}
			},
			"userdoc": {
				"kind": "user",
				"methods": {},
				"version": 1
			}
		}
	}
}