{
	"contracts/Presale.sol": {
		"Presale": {
			"abi": [
				{
					"inputs": [],
					"stateMutability": "nonpayable",
					"type": "constructor"
				},
				{
					"anonymous": false,
					"inputs": [
						{
							"indexed": true,
							"internalType": "address",
							"name": "previousOwner",
							"type": "address"
						},
						{
							"indexed": true,
							"internalType": "address",
							"name": "newOwner",
							"type": "address"
						}
					],
					"name": "OwnershipTransferred",
					"type": "event"
				},
				{
					"anonymous": false,
					"inputs": [
						{
							"indexed": false,
							"internalType": "address",
							"name": "account",
							"type": "address"
						}
					],
					"name": "Paused",
					"type": "event"
				},
				{
					"anonymous": false,
					"inputs": [
						{
							"indexed": false,
							"internalType": "address",
							"name": "token",
							"type": "address"
						},
						{
							"indexed": false,
							"internalType": "uint256",
							"name": "amount",
							"type": "uint256"
						}
					],
					"name": "SaleTokenAdded",
					"type": "event"
				},
				{
					"anonymous": false,
					"inputs": [
						{
							"indexed": false,
							"internalType": "address",
							"name": "token",
							"type": "address"
						},
						{
							"indexed": false,
							"internalType": "uint256[4]",
							"name": "price",
							"type": "uint256[4]"
						}
					],
					"name": "TokenAdded",
					"type": "event"
				},
				{
					"anonymous": false,
					"inputs": [
						{
							"indexed": false,
							"internalType": "address",
							"name": "token",
							"type": "address"
						},
						{
							"indexed": false,
							"internalType": "uint256[4]",
							"name": "price",
							"type": "uint256[4]"
						}
					],
					"name": "TokenUpdated",
					"type": "event"
				},
				{
					"anonymous": false,
					"inputs": [
						{
							"indexed": true,
							"internalType": "address",
							"name": "buyer",
							"type": "address"
						},
						{
							"indexed": true,
							"internalType": "address",
							"name": "token",
							"type": "address"
						},
						{
							"indexed": false,
							"internalType": "uint256",
							"name": "amount",
							"type": "uint256"
						},
						{
							"indexed": false,
							"internalType": "uint256",
							"name": "tokensBought",
							"type": "uint256"
						}
					],
					"name": "TokensBought",
					"type": "event"
				},
				{
					"anonymous": false,
					"inputs": [
						{
							"indexed": true,
							"internalType": "address",
							"name": "buyer",
							"type": "address"
						},
						{
							"indexed": false,
							"internalType": "uint256",
							"name": "amount",
							"type": "uint256"
						}
					],
					"name": "TokensUnlocked",
					"type": "event"
				},
				{
					"anonymous": false,
					"inputs": [
						{
							"indexed": false,
							"internalType": "address",
							"name": "account",
							"type": "address"
						}
					],
					"name": "Unpaused",
					"type": "event"
				},
				{
					"inputs": [
						{
							"internalType": "address",
							"name": "_token",
							"type": "address"
						},
						{
							"internalType": "uint256[4]",
							"name": "_price",
							"type": "uint256[4]"
						}
					],
					"name": "addWhiteListedToken",
					"outputs": [],
					"stateMutability": "nonpayable",
					"type": "function"
				},
				{
					"inputs": [
						{
							"internalType": "address",
							"name": "_token",
							"type": "address"
						},
						{
							"internalType": "uint256",
							"name": "_amount",
							"type": "uint256"
						}
					],
					"name": "buyToken",
					"outputs": [],
					"stateMutability": "payable",
					"type": "function"
				},
				{
					"inputs": [
						{
							"internalType": "address",
							"name": "",
							"type": "address"
						}
					],
					"name": "buyersAmount",
					"outputs": [
						{
							"internalType": "uint256",
							"name": "amount",
							"type": "uint256"
						},
						{
							"internalType": "bool",
							"name": "isClaimed",
							"type": "bool"
						}
					],
					"stateMutability": "view",
					"type": "function"
				},
				{
					"inputs": [],
					"name": "getCurrentTier",
					"outputs": [
						{
							"internalType": "uint256",
							"name": "",
							"type": "uint256"
						}
					],
					"stateMutability": "pure",
					"type": "function"
				},
				{
					"inputs": [
						{
							"internalType": "address",
							"name": "token",
							"type": "address"
						},
						{
							"internalType": "uint256",
							"name": "amount",
							"type": "uint256"
						}
					],
					"name": "getTokenAmount",
					"outputs": [
						{
							"internalType": "uint256",
							"name": "",
							"type": "uint256"
						}
					],
					"stateMutability": "view",
					"type": "function"
				},
				{
					"inputs": [],
					"name": "isUnlockingStarted",
					"outputs": [
						{
							"internalType": "bool",
							"name": "",
							"type": "bool"
						}
					],
					"stateMutability": "view",
					"type": "function"
				},
				{
					"inputs": [],
					"name": "maxBuyLimit",
					"outputs": [
						{
							"internalType": "uint256",
							"name": "",
							"type": "uint256"
						}
					],
					"stateMutability": "view",
					"type": "function"
				},
				{
					"inputs": [],
					"name": "minBuyLimit",
					"outputs": [
						{
							"internalType": "uint256",
							"name": "",
							"type": "uint256"
						}
					],
					"stateMutability": "view",
					"type": "function"
				},
				{
					"inputs": [],
					"name": "owner",
					"outputs": [
						{
							"internalType": "address",
							"name": "",
							"type": "address"
						}
					],
					"stateMutability": "view",
					"type": "function"
				},
				{
					"inputs": [],
					"name": "pauseContract",
					"outputs": [],
					"stateMutability": "nonpayable",
					"type": "function"
				},
				{
					"inputs": [],
					"name": "paused",
					"outputs": [
						{
							"internalType": "bool",
							"name": "",
							"type": "bool"
						}
					],
					"stateMutability": "view",
					"type": "function"
				},
				{
					"inputs": [],
					"name": "presaleEndTime",
					"outputs": [
						{
							"internalType": "uint256",
							"name": "",
							"type": "uint256"
						}
					],
					"stateMutability": "view",
					"type": "function"
				},
				{
					"inputs": [],
					"name": "presaleStartTime",
					"outputs": [
						{
							"internalType": "uint256",
							"name": "",
							"type": "uint256"
						}
					],
					"stateMutability": "view",
					"type": "function"
				},
				{
					"inputs": [
						{
							"internalType": "uint256",
							"name": "",
							"type": "uint256"
						}
					],
					"name": "rate",
					"outputs": [
						{
							"internalType": "uint256",
							"name": "",
							"type": "uint256"
						}
					],
					"stateMutability": "view",
					"type": "function"
				},
				{
					"inputs": [],
					"name": "renounceOwnership",
					"outputs": [],
					"stateMutability": "nonpayable",
					"type": "function"
				},
				{
					"inputs": [],
					"name": "saleToken",
					"outputs": [
						{
							"internalType": "address",
							"name": "",
							"type": "address"
						}
					],
					"stateMutability": "view",
					"type": "function"
				},
				{
					"inputs": [],
					"name": "saleTokenDec",
					"outputs": [
						{
							"internalType": "uint256",
							"name": "",
							"type": "uint256"
						}
					],
					"stateMutability": "view",
					"type": "function"
				},
				{
					"inputs": [
						{
							"internalType": "uint256",
							"name": "_maxBuyLimit",
							"type": "uint256"
						}
					],
					"name": "setMaxBuyLimit",
					"outputs": [],
					"stateMutability": "nonpayable",
					"type": "function"
				},
				{
					"inputs": [
						{
							"internalType": "uint256",
							"name": "_minBuyLimit",
							"type": "uint256"
						}
					],
					"name": "setMinBuyLimit",
					"outputs": [],
					"stateMutability": "nonpayable",
					"type": "function"
				},
				{
					"inputs": [
						{
							"internalType": "address",
							"name": "_saleToken",
							"type": "address"
						},
						{
							"internalType": "uint256",
							"name": "_totalTokensforSale",
							"type": "uint256"
						}
					],
					"name": "setSaleTokenParams",
					"outputs": [],
					"stateMutability": "nonpayable",
					"type": "function"
				},
				{
					"inputs": [
						{
							"internalType": "uint256",
							"name": "_presaleEndTime",
							"type": "uint256"
						}
					],
					"name": "startAndSetPresaleEndTime",
					"outputs": [],
					"stateMutability": "nonpayable",
					"type": "function"
				},
				{
					"inputs": [],
					"name": "startUnlocking",
					"outputs": [],
					"stateMutability": "nonpayable",
					"type": "function"
				},
				{
					"inputs": [],
					"name": "stopUnlocking",
					"outputs": [],
					"stateMutability": "nonpayable",
					"type": "function"
				},
				{
					"inputs": [
						{
							"internalType": "address",
							"name": "",
							"type": "address"
						},
						{
							"internalType": "uint256",
							"name": "",
							"type": "uint256"
						}
					],
					"name": "tokenPrices",
					"outputs": [
						{
							"internalType": "uint256",
							"name": "",
							"type": "uint256"
						}
					],
					"stateMutability": "view",
					"type": "function"
				},
				{
					"inputs": [
						{
							"internalType": "address",
							"name": "",
							"type": "address"
						}
					],
					"name": "tokenWL",
					"outputs": [
						{
							"internalType": "bool",
							"name": "",
							"type": "bool"
						}
					],
					"stateMutability": "view",
					"type": "function"
				},
				{
					"inputs": [],
					"name": "totalTokensSold",
					"outputs": [
						{
							"internalType": "uint256",
							"name": "",
							"type": "uint256"
						}
					],
					"stateMutability": "view",
					"type": "function"
				},
				{
					"inputs": [],
					"name": "totalTokensforSale",
					"outputs": [
						{
							"internalType": "uint256",
							"name": "",
							"type": "uint256"
						}
					],
					"stateMutability": "view",
					"type": "function"
				},
				{
					"inputs": [
						{
							"internalType": "address",
							"name": "newOwner",
							"type": "address"
						}
					],
					"name": "transferOwnership",
					"outputs": [],
					"stateMutability": "nonpayable",
					"type": "function"
				},
				{
					"inputs": [],
					"name": "unpauseContract",
					"outputs": [],
					"stateMutability": "nonpayable",
					"type": "function"
				},
				{
					"inputs": [
						{
							"internalType": "uint256[4]",
							"name": "_rate",
							"type": "uint256[4]"
						}
					],
					"name": "updateEthRate",
					"outputs": [],
					"stateMutability": "nonpayable",
					"type": "function"
				},
				{
					"inputs": [
						{
							"internalType": "uint256",
							"name": "_presaleEndTime",
							"type": "uint256"
						}
					],
					"name": "updateTime",
					"outputs": [],
					"stateMutability": "nonpayable",
					"type": "function"
				},
				{
					"inputs": [
						{
							"internalType": "address",
							"name": "_token",
							"type": "address"
						},
						{
							"internalType": "uint256[4]",
							"name": "_price",
							"type": "uint256[4]"
						}
					],
					"name": "updateTokenRate",
					"outputs": [],
					"stateMutability": "nonpayable",
					"type": "function"
				},
				{
					"inputs": [
						{
							"internalType": "address",
							"name": "token",
							"type": "address"
						},
						{
							"internalType": "uint256",
							"name": "amt",
							"type": "uint256"
						}
					],
					"name": "withdraw",
					"outputs": [],
					"stateMutability": "nonpayable",
					"type": "function"
				},
				{
					"inputs": [
						{
							"internalType": "address",
							"name": "token",
							"type": "address"
						}
					],
					"name": "withdrawAll",
					"outputs": [],
					"stateMutability": "nonpayable",
					"type": "function"
				},
				{
					"inputs": [],
					"name": "withdrawAllSaleToken",
					"outputs": [],
					"stateMutability": "nonpayable",
					"type": "function"
				},
				{
					"inputs": [
						{
							"internalType": "uint256",
							"name": "amt",
							"type": "uint256"
						}
					],
					"name": "withdrawCurrency",
					"outputs": [],
					"stateMutability": "nonpayable",
					"type": "function"
				},
				{
					"inputs": [
						{
							"internalType": "uint256",
							"name": "_amount",
							"type": "uint256"
						}
					],
					"name": "withdrawSaleToken",
					"outputs": [],
					"stateMutability": "nonpayable",
					"type": "function"
				},
				{
					"inputs": [],
					"name": "withdrawToken",
					"outputs": [],
					"stateMutability": "nonpayable",
					"type": "function"
				}
			],
			"devdoc": {
				"events": {
					"Paused(address)": {
						"details": "Emitted when the pause is triggered by `account`."
					},
					"Unpaused(address)": {
						"details": "Emitted when the pause is lifted by `account`."
					}
				},
				"kind": "dev",
				"methods": {
					"paused()": {
						"details": "Returns true if the contract is paused, and false otherwise."
					}
				},
				"version": 1
			},
			"evm": {
				"assembly": "    /* \"contracts/Presale.sol\":8173:16085  contract Presale is Ownable , Pausable{... */\n  mstore(0x40, 0x80)\n    /* \"contracts/Presale.sol\":8871:8887  constructor() {} */\n  callvalue\n  dup1\n  iszero\n  tag_1\n  jumpi\n  0x00\n  dup1\n  revert\ntag_1:\n  pop\n    /* \"contracts/Presale.sol\":1095:1127  _transferOwnership(_msgSender()) */\n  tag_6\n    /* \"contracts/Presale.sol\":1114:1126  _msgSender() */\n  tag_7\n    /* \"contracts/Presale.sol\":1114:1124  _msgSender */\n  shl(0x20, tag_8)\n    /* \"contracts/Presale.sol\":1114:1126  _msgSender() */\n  0x20\n  shr\n  jump\t// in\ntag_7:\n    /* \"contracts/Presale.sol\":1095:1113  _transferOwnership */\n  shl(0x20, tag_9)\n    /* \"contracts/Presale.sol\":1095:1127  _transferOwnership(_msgSender()) */\n  0x20\n  shr\n  jump\t// in\ntag_6:\n    /* \"@openzeppelin/contracts/security/Pausable.sol\":1006:1011  false */\n  0x00\n    /* \"@openzeppelin/contracts/security/Pausable.sol\":996:1003  _paused */\n  dup1\n  0x14\n    /* \"@openzeppelin/contracts/security/Pausable.sol\":996:1011  _paused = false */\n  0x0100\n  exp\n  dup2\n  sload\n  dup2\n  0xff\n  mul\n  not\n  and\n  swap1\n  dup4\n  iszero\n  iszero\n  mul\n  or\n  swap1\n  sstore\n  pop\n    /* \"contracts/Presale.sol\":8173:16085  contract Presale is Ownable , Pausable{... */\n  jump(tag_12)\n    /* \"@openzeppelin/contracts/utils/Context.sol\":656:752  function _msgSender() internal view virtual returns (address) {... */\ntag_8:\n    /* \"@openzeppelin/contracts/utils/Context.sol\":709:716  address */\n  0x00\n    /* \"@openzeppelin/contracts/utils/Context.sol\":735:745  msg.sender */\n  caller\n    /* \"@openzeppelin/contracts/utils/Context.sol\":728:745  return msg.sender */\n  swap1\n  pop\n    /* \"@openzeppelin/contracts/utils/Context.sol\":656:752  function _msgSender() internal view virtual returns (address) {... */\n  swap1\n  jump\t// out\n    /* \"contracts/Presale.sol\":1694:1881  function _transferOwnership(address newOwner) internal virtual {... */\ntag_9:\n    /* \"contracts/Presale.sol\":1767:1783  address oldOwner */\n  0x00\n    /* \"contracts/Presale.sol\":1786:1792  _owner */\n  dup1\n  0x00\n  swap1\n  sload\n  swap1\n  0x0100\n  exp\n  swap1\n  div\n  0xffffffffffffffffffffffffffffffffffffffff\n  and\n    /* \"contracts/Presale.sol\":1767:1792  address oldOwner = _owner */\n  swap1\n  pop\n    /* \"contracts/Presale.sol\":1811:1819  newOwner */\n  dup2\n    /* \"contracts/Presale.sol\":1802:1808  _owner */\n  0x00\n  dup1\n    /* \"contracts/Presale.sol\":1802:1819  _owner = newOwner */\n  0x0100\n  exp\n  dup2\n  sload\n  dup2\n  0xffffffffffffffffffffffffffffffffffffffff\n  mul\n  not\n  and\n  swap1\n  dup4\n  0xffffffffffffffffffffffffffffffffffffffff\n  and\n  mul\n  or\n  swap1\n  sstore\n  pop\n    /* \"contracts/Presale.sol\":1865:1873  newOwner */\n  dup2\n    /* \"contracts/Presale.sol\":1834:1874  OwnershipTransferred(oldOwner, newOwner) */\n  0xffffffffffffffffffffffffffffffffffffffff\n  and\n    /* \"contracts/Presale.sol\":1855:1863  oldOwner */\n  dup2\n    /* \"contracts/Presale.sol\":1834:1874  OwnershipTransferred(oldOwner, newOwner) */\n  0xffffffffffffffffffffffffffffffffffffffff\n  and\n  0x8be0079c531659141344cd1fd0a4f28419497f9722a3daafe3b4186f6b6457e0\n  mload(0x40)\n  mload(0x40)\n  dup1\n  swap2\n  sub\n  swap1\n  log3\n    /* \"contracts/Presale.sol\":1757:1881  {... */\n  pop\n    /* \"contracts/Presale.sol\":1694:1881  function _transferOwnership(address newOwner) internal virtual {... */\n  pop\n  jump\t// out\n    /* \"contracts/Presale.sol\":8173:16085  contract Presale is Ownable , Pausable{... */\ntag_12:\n  dataSize(sub_0)\n  dup1\n  dataOffset(sub_0)\n  0x00\n  codecopy\n  0x00\n  return\nstop\n\nsub_0: assembly {\n        /* \"contracts/Presale.sol\":8173:16085  contract Presale is Ownable , Pausable{... */\n      mstore(0x40, 0x80)\n      jumpi(tag_1, lt(calldatasize, 0x04))\n      shr(0xe0, calldataload(0x00))\n      dup1\n      0x89e6ce1e\n      gt\n      tag_40\n      jumpi\n      dup1\n      0xca628c78\n      gt\n      tag_41\n      jumpi\n      dup1\n      0xee774ccd\n      gt\n      tag_42\n      jumpi\n      dup1\n      0xee774ccd\n      eq\n      tag_35\n      jumpi\n      dup1\n      0xf2fde38b\n      eq\n      tag_36\n      jumpi\n      dup1\n      0xf3fef3a3\n      eq\n      tag_37\n      jumpi\n      dup1\n      0xfa09e630\n      eq\n      tag_38\n      jumpi\n      dup1\n      0xfb00f3fc\n      eq\n      tag_39\n      jumpi\n      jump(tag_1)\n    tag_42:\n      dup1\n      0xca628c78\n      eq\n      tag_30\n      jumpi\n      dup1\n      0xcae70c70\n      eq\n      tag_31\n      jumpi\n      dup1\n      0xded441c2\n      eq\n      tag_32\n      jumpi\n      dup1\n      0xe7ee6ad6\n      eq\n      tag_33\n      jumpi\n      dup1\n      0xe985e367\n      eq\n      tag_34\n      jumpi\n      jump(tag_1)\n    tag_41:\n      dup1\n      0xa82524b2\n      gt\n      tag_43\n      jumpi\n      dup1\n      0xa82524b2\n      eq\n      tag_25\n      jumpi\n      dup1\n      0xace1741c\n      eq\n      tag_26\n      jumpi\n      dup1\n      0xb33712c5\n      eq\n      tag_27\n      jumpi\n      dup1\n      0xb5b0763c\n      eq\n      tag_28\n      jumpi\n      dup1\n      0xb81df742\n      eq\n      tag_29\n      jumpi\n      jump(tag_1)\n    tag_43:\n      dup1\n      0x89e6ce1e\n      eq\n      tag_21\n      jumpi\n      dup1\n      0x8ce0b9d2\n      eq\n      tag_22\n      jumpi\n      dup1\n      0x8da5cb5b\n      eq\n      tag_23\n      jumpi\n      dup1\n      0x99b77032\n      eq\n      tag_24\n      jumpi\n      jump(tag_1)\n    tag_40:\n      dup1\n      0x63b20117\n      gt\n      tag_44\n      jumpi\n      dup1\n      0x6bcedf9c\n      gt\n      tag_45\n      jumpi\n      dup1\n      0x6bcedf9c\n      eq\n      tag_16\n      jumpi\n      dup1\n      0x6c59bd0c\n      eq\n      tag_17\n      jumpi\n      dup1\n      0x715018a6\n      eq\n      tag_18\n      jumpi\n      dup1\n      0x7412c223\n      eq\n      tag_19\n      jumpi\n      dup1\n      0x757765f8\n      eq\n      tag_20\n      jumpi\n      jump(tag_1)\n    tag_45:\n      dup1\n      0x63b20117\n      eq\n      tag_11\n      jumpi\n      dup1\n      0x65617db1\n      eq\n      tag_12\n      jumpi\n      dup1\n      0x683b3b97\n      eq\n      tag_13\n      jumpi\n      dup1\n      0x68f8fc10\n      eq\n      tag_14\n      jumpi\n      dup1\n      0x6aa5b37f\n      eq\n      tag_15\n      jumpi\n      jump(tag_1)\n    tag_44:\n      dup1\n      0x3c00a36c\n      gt\n      tag_46\n      jumpi\n      dup1\n      0x3c00a36c\n      eq\n      tag_6\n      jumpi\n      dup1\n      0x439766ce\n      eq\n      tag_7\n      jumpi\n      dup1\n      0x54a9f102\n      eq\n      tag_8\n      jumpi\n      dup1\n      0x5b10bd6a\n      eq\n      tag_9\n      jumpi\n      dup1\n      0x5c975abb\n      eq\n      tag_10\n      jumpi\n      jump(tag_1)\n    tag_46:\n      dup1\n      0x115ece4c\n      eq\n      tag_2\n      jumpi\n      dup1\n      0x249b7c19\n      eq\n      tag_3\n      jumpi\n      dup1\n      0x2a95c24c\n      eq\n      tag_4\n      jumpi\n      dup1\n      0x3848a771\n      eq\n      tag_5\n      jumpi\n    tag_1:\n      0x00\n      dup1\n      revert\n        /* \"contracts/Presale.sol\":12147:12754  function getTokenAmount(... */\n    tag_2:\n      callvalue\n      dup1\n      iszero\n      tag_47\n      jumpi\n      0x00\n      dup1\n      revert\n    tag_47:\n      pop\n      tag_48\n      0x04\n      dup1\n      calldatasize\n      sub\n      dup2\n      add\n      swap1\n      tag_49\n      swap2\n      swap1\n      tag_50\n      jump\t// in\n    tag_49:\n      tag_51\n      jump\t// in\n    tag_48:\n      mload(0x40)\n      tag_52\n      swap2\n      swap1\n      tag_53\n      jump\t// in\n    tag_52:\n      mload(0x40)\n      dup1\n      swap2\n      sub\n      swap1\n      return\n        /* \"contracts/Presale.sol\":8617:8646  uint256 public presaleEndTime */\n    tag_3:\n      callvalue\n      dup1\n      iszero\n      tag_54\n      jumpi\n      0x00\n      dup1\n      revert\n    tag_54:\n      pop\n      tag_55\n      tag_56\n      jump\t// in\n    tag_55:\n      mload(0x40)\n      tag_57\n      swap2\n      swap1\n      tag_53\n      jump\t// in\n    tag_57:\n      mload(0x40)\n      dup1\n      swap2\n      sub\n      swap1\n      return\n        /* \"contracts/Presale.sol\":11682:11864  function startUnlocking() external onlyOwner isPresaleEnded {... */\n    tag_4:\n      callvalue\n      dup1\n      iszero\n      tag_58\n      jumpi\n      0x00\n      dup1\n      revert\n    tag_58:\n      pop\n      tag_59\n      tag_60\n      jump\t// in\n    tag_59:\n      stop\n        /* \"contracts/Presale.sol\":8652:8682  bool public isUnlockingStarted */\n    tag_5:\n      callvalue\n      dup1\n      iszero\n      tag_61\n      jumpi\n      0x00\n      dup1\n      revert\n    tag_61:\n      pop\n      tag_62\n      tag_63\n      jump\t// in\n    tag_62:\n      mload(0x40)\n      tag_64\n      swap2\n      swap1\n      tag_65\n      jump\t// in\n    tag_64:\n      mload(0x40)\n      dup1\n      swap2\n      sub\n      swap1\n      return\n        /* \"contracts/Presale.sol\":15682:15788  function withdrawCurrency(uint256 amt) public onlyOwner {... */\n    tag_6:\n      callvalue\n      dup1\n      iszero\n      tag_66\n      jumpi\n      0x00\n      dup1\n      revert\n    tag_66:\n      pop\n      tag_67\n      0x04\n      dup1\n      calldatasize\n      sub\n      dup2\n      add\n      swap1\n      tag_68\n      swap2\n      swap1\n      tag_69\n      jump\t// in\n    tag_68:\n      tag_70\n      jump\t// in\n    tag_67:\n      stop\n        /* \"contracts/Presale.sol\":15861:15930  function pauseContract() external onlyOwner {... */\n    tag_7:\n      callvalue\n      dup1\n      iszero\n      tag_71\n      jumpi\n      0x00\n      dup1\n      revert\n    tag_71:\n      pop\n      tag_72\n      tag_73\n      jump\t// in\n    tag_72:\n      stop\n        /* \"contracts/Presale.sol\":8688:8745  mapping(address => BuyerTokenDetails) public buyersAmount */\n    tag_8:\n      callvalue\n      dup1\n      iszero\n      tag_74\n      jumpi\n      0x00\n      dup1\n      revert\n    tag_74:\n      pop\n      tag_75\n      0x04\n      dup1\n      calldatasize\n      sub\n      dup2\n      add\n      swap1\n      tag_76\n      swap2\n      swap1\n      tag_77\n      jump\t// in\n    tag_76:\n      tag_78\n      jump\t// in\n    tag_75:\n      mload(0x40)\n      tag_79\n      swap3\n      swap2\n      swap1\n      tag_80\n      jump\t// in\n    tag_79:\n      mload(0x40)\n      dup1\n      swap2\n      sub\n      swap1\n      return\n        /* \"contracts/Presale.sol\":10750:10936  function startAndSetPresaleEndTime(... */\n    tag_9:\n      callvalue\n      dup1\n      iszero\n      tag_81\n      jumpi\n      0x00\n      dup1\n      revert\n    tag_81:\n      pop\n      tag_82\n      0x04\n      dup1\n      calldatasize\n      sub\n      dup2\n      add\n      swap1\n      tag_83\n      swap2\n      swap1\n      tag_69\n      jump\t// in\n    tag_83:\n      tag_84\n      jump\t// in\n    tag_82:\n      stop\n        /* \"@openzeppelin/contracts/security/Pausable.sol\":1615:1699  function paused() public view virtual returns (bool) {... */\n    tag_10:\n      callvalue\n      dup1\n      iszero\n      tag_85\n      jumpi\n      0x00\n      dup1\n      revert\n    tag_85:\n      pop\n      tag_86\n      tag_87\n      jump\t// in\n    tag_86:\n      mload(0x40)\n      tag_88\n      swap2\n      swap1\n      tag_65\n      jump\t// in\n    tag_88:\n      mload(0x40)\n      dup1\n      swap2\n      sub\n      swap1\n      return\n        /* \"contracts/Presale.sol\":8751:8781  uint256 public totalTokensSold */\n    tag_11:\n      callvalue\n      dup1\n      iszero\n      tag_89\n      jumpi\n      0x00\n      dup1\n      revert\n    tag_89:\n      pop\n      tag_90\n      tag_91\n      jump\t// in\n    tag_90:\n      mload(0x40)\n      tag_92\n      swap2\n      swap1\n      tag_53\n      jump\t// in\n    tag_92:\n      mload(0x40)\n      dup1\n      swap2\n      sub\n      swap1\n      return\n        /* \"contracts/Presale.sol\":11076:11306  function addWhiteListedToken(... */\n    tag_12:\n      callvalue\n      dup1\n      iszero\n      tag_93\n      jumpi\n      0x00\n      dup1\n      revert\n    tag_93:\n      pop\n      tag_94\n      0x04\n      dup1\n      calldatasize\n      sub\n      dup2\n      add\n      swap1\n      tag_95\n      swap2\n      swap1\n      tag_96\n      jump\t// in\n    tag_95:\n      tag_97\n      jump\t// in\n    tag_94:\n      stop\n        /* \"contracts/Presale.sol\":8525:8574  mapping(address => uint256[4]) public tokenPrices */\n    tag_13:\n      callvalue\n      dup1\n      iszero\n      tag_98\n      jumpi\n      0x00\n      dup1\n      revert\n    tag_98:\n      pop\n      tag_99\n      0x04\n      dup1\n      calldatasize\n      sub\n      dup2\n      add\n      swap1\n      tag_100\n      swap2\n      swap1\n      tag_50\n      jump\t// in\n    tag_100:\n      tag_101\n      jump\t// in\n    tag_99:\n      mload(0x40)\n      tag_102\n      swap2\n      swap1\n      tag_53\n      jump\t// in\n    tag_102:\n      mload(0x40)\n      dup1\n      swap2\n      sub\n      swap1\n      return\n        /* \"contracts/Presale.sol\":12761:13967  function buyToken(... */\n    tag_14:\n      tag_103\n      0x04\n      dup1\n      calldatasize\n      sub\n      dup2\n      add\n      swap1\n      tag_104\n      swap2\n      swap1\n      tag_50\n      jump\t// in\n    tag_104:\n      tag_105\n      jump\t// in\n    tag_103:\n      stop\n        /* \"contracts/Presale.sol\":8416:8442  uint256 public maxBuyLimit */\n    tag_15:\n      callvalue\n      dup1\n      iszero\n      tag_106\n      jumpi\n      0x00\n      dup1\n      revert\n    tag_106:\n      pop\n      tag_107\n      tag_108\n      jump\t// in\n    tag_107:\n      mload(0x40)\n      tag_109\n      swap2\n      swap1\n      tag_53\n      jump\t// in\n    tag_109:\n      mload(0x40)\n      dup1\n      swap2\n      sub\n      swap1\n      return\n        /* \"contracts/Presale.sol\":8377:8410  uint256 public totalTokensforSale */\n    tag_16:\n      callvalue\n      dup1\n      iszero\n      tag_110\n      jumpi\n      0x00\n      dup1\n      revert\n    tag_110:\n      pop\n      tag_111\n      tag_112\n      jump\t// in\n    tag_111:\n      mload(0x40)\n      tag_113\n      swap2\n      swap1\n      tag_53\n      jump\t// in\n    tag_113:\n      mload(0x40)\n      dup1\n      swap2\n      sub\n      swap1\n      return\n        /* \"contracts/Presale.sol\":10942:11070  function updateTime(... */\n    tag_17:\n      callvalue\n      dup1\n      iszero\n      tag_114\n      jumpi\n      0x00\n      dup1\n      revert\n    tag_114:\n      pop\n      tag_115\n      0x04\n      dup1\n      calldatasize\n      sub\n      dup2\n      add\n      swap1\n      tag_116\n      swap2\n      swap1\n      tag_69\n      jump\t// in\n    tag_116:\n      tag_117\n      jump\t// in\n    tag_115:\n      stop\n        /* \"contracts/Presale.sol\":1351:1452  function renounceOwnership() public virtual onlyOwner {... */\n    tag_18:\n      callvalue\n      dup1\n      iszero\n      tag_118\n      jumpi\n      0x00\n      dup1\n      revert\n    tag_118:\n      pop\n      tag_119\n      tag_120\n      jump\t// in\n    tag_119:\n      stop\n        /* \"contracts/Presale.sol\":12059:12137  function getCurrentTier() public pure returns (uint) {... */\n    tag_19:\n      callvalue\n      dup1\n      iszero\n      tag_121\n      jumpi\n      0x00\n      dup1\n      revert\n    tag_121:\n      pop\n      tag_122\n      tag_123\n      jump\t// in\n    tag_122:\n      mload(0x40)\n      tag_124\n      swap2\n      swap1\n      tag_53\n      jump\t// in\n    tag_124:\n      mload(0x40)\n      dup1\n      swap2\n      sub\n      swap1\n      return\n        /* \"contracts/Presale.sol\":14593:14698  function setMaxBuyLimit(uint _maxBuyLimit) external onlyOwner {... */\n    tag_20:\n      callvalue\n      dup1\n      iszero\n      tag_125\n      jumpi\n      0x00\n      dup1\n      revert\n    tag_125:\n      pop\n      tag_126\n      0x04\n      dup1\n      calldatasize\n      sub\n      dup2\n      add\n      swap1\n      tag_127\n      swap2\n      swap1\n      tag_69\n      jump\t// in\n    tag_127:\n      tag_128\n      jump\t// in\n    tag_126:\n      stop\n        /* \"contracts/Presale.sol\":10005:10744  function setSaleTokenParams(... */\n    tag_21:\n      callvalue\n      dup1\n      iszero\n      tag_129\n      jumpi\n      0x00\n      dup1\n      revert\n    tag_129:\n      pop\n      tag_130\n      0x04\n      dup1\n      calldatasize\n      sub\n      dup2\n      add\n      swap1\n      tag_131\n      swap2\n      swap1\n      tag_50\n      jump\t// in\n    tag_131:\n      tag_132\n      jump\t// in\n    tag_130:\n      stop\n        /* \"contracts/Presale.sol\":8480:8519  mapping(address => bool) public tokenWL */\n    tag_22:\n      callvalue\n      dup1\n      iszero\n      tag_133\n      jumpi\n      0x00\n      dup1\n      revert\n    tag_133:\n      pop\n      tag_134\n      0x04\n      dup1\n      calldatasize\n      sub\n      dup2\n      add\n      swap1\n      tag_135\n      swap2\n      swap1\n      tag_77\n      jump\t// in\n    tag_135:\n      tag_136\n      jump\t// in\n    tag_134:\n      mload(0x40)\n      tag_137\n      swap2\n      swap1\n      tag_65\n      jump\t// in\n    tag_137:\n      mload(0x40)\n      dup1\n      swap2\n      sub\n      swap1\n      return\n        /* \"contracts/Presale.sol\":1139:1224  function owner() public view virtual returns (address) {... */\n    tag_23:\n      callvalue\n      dup1\n      iszero\n      tag_138\n      jumpi\n      0x00\n      dup1\n      revert\n    tag_138:\n      pop\n      tag_139\n      tag_140\n      jump\t// in\n    tag_139:\n      mload(0x40)\n      tag_141\n      swap2\n      swap1\n      tag_142\n      jump\t// in\n    tag_141:\n      mload(0x40)\n      dup1\n      swap2\n      sub\n      swap1\n      return\n        /* \"contracts/Presale.sol\":14482:14587  function setMinBuyLimit(uint _minBuyLimit) external onlyOwner {... */\n    tag_24:\n      callvalue\n      dup1\n      iszero\n      tag_143\n      jumpi\n      0x00\n      dup1\n      revert\n    tag_143:\n      pop\n      tag_144\n      0x04\n      dup1\n      calldatasize\n      sub\n      dup2\n      add\n      swap1\n      tag_145\n      swap2\n      swap1\n      tag_69\n      jump\t// in\n    tag_145:\n      tag_146\n      jump\t// in\n    tag_144:\n      stop\n        /* \"contracts/Presale.sol\":8580:8611  uint256 public presaleStartTime */\n    tag_25:\n      callvalue\n      dup1\n      iszero\n      tag_147\n      jumpi\n      0x00\n      dup1\n      revert\n    tag_147:\n      pop\n      tag_148\n      tag_149\n      jump\t// in\n    tag_148:\n      mload(0x40)\n      tag_150\n      swap2\n      swap1\n      tag_53\n      jump\t// in\n    tag_150:\n      mload(0x40)\n      dup1\n      swap2\n      sub\n      swap1\n      return\n        /* \"contracts/Presale.sol\":8347:8371  uint public saleTokenDec */\n    tag_26:\n      callvalue\n      dup1\n      iszero\n      tag_151\n      jumpi\n      0x00\n      dup1\n      revert\n    tag_151:\n      pop\n      tag_152\n      tag_153\n      jump\t// in\n    tag_152:\n      mload(0x40)\n      tag_154\n      swap2\n      swap1\n      tag_53\n      jump\t// in\n    tag_154:\n      mload(0x40)\n      dup1\n      swap2\n      sub\n      swap1\n      return\n        /* \"contracts/Presale.sol\":16005:16077  function unpauseContract() external onlyOwner {... */\n    tag_27:\n      callvalue\n      dup1\n      iszero\n      tag_155\n      jumpi\n      0x00\n      dup1\n      revert\n    tag_155:\n      pop\n      tag_156\n      tag_157\n      jump\t// in\n    tag_156:\n      stop\n        /* \"contracts/Presale.sol\":11869:12050  function stopUnlocking() external onlyOwner isPresaleEnded {... */\n    tag_28:\n      callvalue\n      dup1\n      iszero\n      tag_158\n      jumpi\n      0x00\n      dup1\n      revert\n    tag_158:\n      pop\n      tag_159\n      tag_160\n      jump\t// in\n    tag_159:\n      stop\n        /* \"contracts/Presale.sol\":8448:8474  uint256 public minBuyLimit */\n    tag_29:\n      callvalue\n      dup1\n      iszero\n      tag_161\n      jumpi\n      0x00\n      dup1\n      revert\n    tag_161:\n      pop\n      tag_162\n      tag_163\n      jump\t// in\n    tag_162:\n      mload(0x40)\n      tag_164\n      swap2\n      swap1\n      tag_53\n      jump\t// in\n    tag_164:\n      mload(0x40)\n      dup1\n      swap2\n      sub\n      swap1\n      return\n        /* \"contracts/Presale.sol\":13974:14476  function withdrawToken() external whenNotPaused {... */\n    tag_30:\n      callvalue\n      dup1\n      iszero\n      tag_165\n      jumpi\n      0x00\n      dup1\n      revert\n    tag_165:\n      pop\n      tag_166\n      tag_167\n      jump\t// in\n    tag_166:\n      stop\n        /* \"contracts/Presale.sol\":11412:11676  function updateTokenRate(... */\n    tag_31:\n      callvalue\n      dup1\n      iszero\n      tag_168\n      jumpi\n      0x00\n      dup1\n      revert\n    tag_168:\n      pop\n      tag_169\n      0x04\n      dup1\n      calldatasize\n      sub\n      dup2\n      add\n      swap1\n      tag_170\n      swap2\n      swap1\n      tag_96\n      jump\t// in\n    tag_170:\n      tag_171\n      jump\t// in\n    tag_169:\n      stop\n        /* \"contracts/Presale.sol\":14704:14864  function withdrawSaleToken(... */\n    tag_32:\n      callvalue\n      dup1\n      iszero\n      tag_172\n      jumpi\n      0x00\n      dup1\n      revert\n    tag_172:\n      pop\n      tag_173\n      0x04\n      dup1\n      calldatasize\n      sub\n      dup2\n      add\n      swap1\n      tag_174\n      swap2\n      swap1\n      tag_69\n      jump\t// in\n    tag_174:\n      tag_175\n      jump\t// in\n    tag_173:\n      stop\n        /* \"contracts/Presale.sol\":8289:8311  uint256[4] public rate */\n    tag_33:\n      callvalue\n      dup1\n      iszero\n      tag_176\n      jumpi\n      0x00\n      dup1\n      revert\n    tag_176:\n      pop\n      tag_177\n      0x04\n      dup1\n      calldatasize\n      sub\n      dup2\n      add\n      swap1\n      tag_178\n      swap2\n      swap1\n      tag_69\n      jump\t// in\n    tag_178:\n      tag_179\n      jump\t// in\n    tag_177:\n      mload(0x40)\n      tag_180\n      swap2\n      swap1\n      tag_53\n      jump\t// in\n    tag_180:\n      mload(0x40)\n      dup1\n      swap2\n      sub\n      swap1\n      return\n        /* \"contracts/Presale.sol\":8317:8341  address public saleToken */\n    tag_34:\n      callvalue\n      dup1\n      iszero\n      tag_181\n      jumpi\n      0x00\n      dup1\n      revert\n    tag_181:\n      pop\n      tag_182\n      tag_183\n      jump\t// in\n    tag_182:\n      mload(0x40)\n      tag_184\n      swap2\n      swap1\n      tag_142\n      jump\t// in\n    tag_184:\n      mload(0x40)\n      dup1\n      swap2\n      sub\n      swap1\n      return\n        /* \"contracts/Presale.sol\":11311:11407  function updateEthRate(uint256[4] memory _rate) external onlyOwner {... */\n    tag_35:\n      callvalue\n      dup1\n      iszero\n      tag_185\n      jumpi\n      0x00\n      dup1\n      revert\n    tag_185:\n      pop\n      tag_186\n      0x04\n      dup1\n      calldatasize\n      sub\n      dup2\n      add\n      swap1\n      tag_187\n      swap2\n      swap1\n      tag_188\n      jump\t// in\n    tag_187:\n      tag_189\n      jump\t// in\n    tag_186:\n      stop\n        /* \"contracts/Presale.sol\":1457:1689  function transferOwnership(address newOwner) public virtual onlyOwner {... */\n    tag_36:\n      callvalue\n      dup1\n      iszero\n      tag_190\n      jumpi\n      0x00\n      dup1\n      revert\n    tag_190:\n      pop\n      tag_191\n      0x04\n      dup1\n      calldatasize\n      sub\n      dup2\n      add\n      swap1\n      tag_192\n      swap2\n      swap1\n      tag_77\n      jump\t// in\n    tag_192:\n      tag_193\n      jump\t// in\n    tag_191:\n      stop\n        /* \"contracts/Presale.sol\":15072:15355  function withdraw(address token, uint256 amt) public onlyOwner {... */\n    tag_37:\n      callvalue\n      dup1\n      iszero\n      tag_194\n      jumpi\n      0x00\n      dup1\n      revert\n    tag_194:\n      pop\n      tag_195\n      0x04\n      dup1\n      calldatasize\n      sub\n      dup2\n      add\n      swap1\n      tag_196\n      swap2\n      swap1\n      tag_50\n      jump\t// in\n    tag_196:\n      tag_197\n      jump\t// in\n    tag_195:\n      stop\n        /* \"contracts/Presale.sol\":15361:15676  function withdrawAll(address token) public onlyOwner {... */\n    tag_38:\n      callvalue\n      dup1\n      iszero\n      tag_198\n      jumpi\n      0x00\n      dup1\n      revert\n    tag_198:\n      pop\n      tag_199\n      0x04\n      dup1\n      calldatasize\n      sub\n      dup2\n      add\n      swap1\n      tag_200\n      swap2\n      swap1\n      tag_77\n      jump\t// in\n    tag_200:\n      tag_201\n      jump\t// in\n    tag_199:\n      stop\n        /* \"contracts/Presale.sol\":14870:15066  function withdrawAllSaleToken() external onlyOwner isPresaleEnded {... */\n    tag_39:\n      callvalue\n      dup1\n      iszero\n      tag_202\n      jumpi\n      0x00\n      dup1\n      revert\n    tag_202:\n      pop\n      tag_203\n      tag_204\n      jump\t// in\n    tag_203:\n      stop\n        /* \"contracts/Presale.sol\":12147:12754  function getTokenAmount(... */\n    tag_51:\n        /* \"contracts/Presale.sol\":12245:12252  uint256 */\n      0x00\n        /* \"contracts/Presale.sol\":12264:12278  uint256 amtOut */\n      dup1\n        /* \"contracts/Presale.sol\":12288:12297  uint tier */\n      0x00\n        /* \"contracts/Presale.sol\":12300:12316  getCurrentTier() */\n      tag_206\n        /* \"contracts/Presale.sol\":12300:12314  getCurrentTier */\n      tag_123\n        /* \"contracts/Presale.sol\":12300:12316  getCurrentTier() */\n      jump\t// in\n    tag_206:\n        /* \"contracts/Presale.sol\":12288:12316  uint tier = getCurrentTier() */\n      swap1\n      pop\n        /* \"contracts/Presale.sol\":12347:12348  0 */\n      0x00\n        /* \"contracts/Presale.sol\":12330:12349  token != address(0) */\n      0xffffffffffffffffffffffffffffffffffffffff\n      and\n        /* \"contracts/Presale.sol\":12330:12335  token */\n      dup6\n        /* \"contracts/Presale.sol\":12330:12349  token != address(0) */\n      0xffffffffffffffffffffffffffffffffffffffff\n      and\n      eq\n        /* \"contracts/Presale.sol\":12326:12725  if (token != address(0)) {... */\n      tag_207\n      jumpi\n        /* \"contracts/Presale.sol\":12373:12380  tokenWL */\n      0x0a\n        /* \"contracts/Presale.sol\":12373:12387  tokenWL[token] */\n      0x00\n        /* \"contracts/Presale.sol\":12381:12386  token */\n      dup7\n        /* \"contracts/Presale.sol\":12373:12387  tokenWL[token] */\n      0xffffffffffffffffffffffffffffffffffffffff\n      and\n      0xffffffffffffffffffffffffffffffffffffffff\n      and\n      dup2\n      mstore\n      0x20\n      add\n      swap1\n      dup2\n      mstore\n      0x20\n      add\n      0x00\n      keccak256\n      0x00\n      swap1\n      sload\n      swap1\n      0x0100\n      exp\n      swap1\n      div\n      0xff\n      and\n        /* \"contracts/Presale.sol\":12365:12422  require(tokenWL[token], \"Presale: Token not whitelisted\") */\n      tag_208\n      jumpi\n      mload(0x40)\n      0x08c379a000000000000000000000000000000000000000000000000000000000\n      dup2\n      mstore\n      0x04\n      add\n      tag_209\n      swap1\n      tag_210\n      jump\t// in\n    tag_209:\n      mload(0x40)\n      dup1\n      swap2\n      sub\n      swap1\n      revert\n    tag_208:\n        /* \"contracts/Presale.sol\":12474:12475  0 */\n      0x00\n        /* \"contracts/Presale.sol\":12446:12457  tokenPrices */\n      0x0b\n        /* \"contracts/Presale.sol\":12446:12464  tokenPrices[token] */\n      0x00\n        /* \"contracts/Presale.sol\":12458:12463  token */\n      dup8\n        /* \"contracts/Presale.sol\":12446:12464  tokenPrices[token] */\n      0xffffffffffffffffffffffffffffffffffffffff\n      and\n      0xffffffffffffffffffffffffffffffffffffffff\n      and\n      dup2\n      mstore\n      0x20\n      add\n      swap1\n      dup2\n      mstore\n      0x20\n      add\n      0x00\n      keccak256\n        /* \"contracts/Presale.sol\":12465:12469  tier */\n      dup3\n        /* \"contracts/Presale.sol\":12446:12470  tokenPrices[token][tier] */\n      0x04\n      dup2\n      lt\n      tag_211\n      jumpi\n      tag_212\n      tag_213\n      jump\t// in\n    tag_212:\n    tag_211:\n      add\n      sload\n        /* \"contracts/Presale.sol\":12446:12475  tokenPrices[token][tier] != 0 */\n      sub\n        /* \"contracts/Presale.sol\":12446:12574  tokenPrices[token][tier] != 0... */\n      tag_215\n      jumpi\n        /* \"contracts/Presale.sol\":12573:12574  0 */\n      0x00\n        /* \"contracts/Presale.sol\":12446:12574  tokenPrices[token][tier] != 0... */\n      jump(tag_216)\n    tag_215:\n        /* \"contracts/Presale.sol\":12529:12540  tokenPrices */\n      0x0b\n        /* \"contracts/Presale.sol\":12529:12547  tokenPrices[token] */\n      0x00\n        /* \"contracts/Presale.sol\":12541:12546  token */\n      dup7\n        /* \"contracts/Presale.sol\":12529:12547  tokenPrices[token] */\n      0xffffffffffffffffffffffffffffffffffffffff\n      and\n      0xffffffffffffffffffffffffffffffffffffffff\n      and\n      dup2\n      mstore\n      0x20\n      add\n      swap1\n      dup2\n      mstore\n      0x20\n      add\n      0x00\n      keccak256\n        /* \"contracts/Presale.sol\":12548:12552  tier */\n      dup2\n        /* \"contracts/Presale.sol\":12529:12553  tokenPrices[token][tier] */\n      0x04\n      dup2\n      lt\n      tag_217\n      jumpi\n      tag_218\n      tag_213\n      jump\t// in\n    tag_218:\n    tag_217:\n      add\n      sload\n        /* \"contracts/Presale.sol\":12511:12523  saleTokenDec */\n      sload(0x06)\n        /* \"contracts/Presale.sol\":12505:12507  10 */\n      0x0a\n        /* \"contracts/Presale.sol\":12505:12523  10 ** saleTokenDec */\n      tag_220\n      swap2\n      swap1\n      tag_221\n      jump\t// in\n    tag_220:\n        /* \"contracts/Presale.sol\":12495:12501  amount */\n      dup6\n        /* \"contracts/Presale.sol\":12495:12524  amount * (10 ** saleTokenDec) */\n      tag_222\n      swap2\n      swap1\n      tag_223\n      jump\t// in\n    tag_222:\n        /* \"contracts/Presale.sol\":12494:12554  (amount * (10 ** saleTokenDec)) / (tokenPrices[token][tier]) */\n      tag_224\n      swap2\n      swap1\n      tag_225\n      jump\t// in\n    tag_224:\n        /* \"contracts/Presale.sol\":12446:12574  tokenPrices[token][tier] != 0... */\n    tag_216:\n        /* \"contracts/Presale.sol\":12437:12574  amtOut = tokenPrices[token][tier] != 0... */\n      swap2\n      pop\n        /* \"contracts/Presale.sol\":12326:12725  if (token != address(0)) {... */\n      jump(tag_226)\n    tag_207:\n        /* \"contracts/Presale.sol\":12628:12629  0 */\n      0x00\n        /* \"contracts/Presale.sol\":12614:12618  rate */\n      0x01\n        /* \"contracts/Presale.sol\":12619:12623  tier */\n      dup3\n        /* \"contracts/Presale.sol\":12614:12624  rate[tier] */\n      0x04\n      dup2\n      lt\n      tag_227\n      jumpi\n      tag_228\n      tag_213\n      jump\t// in\n    tag_228:\n    tag_227:\n      add\n      sload\n        /* \"contracts/Presale.sol\":12614:12629  rate[tier] != 0 */\n      sub\n        /* \"contracts/Presale.sol\":12614:12714  rate[tier] != 0... */\n      tag_230\n      jumpi\n        /* \"contracts/Presale.sol\":12713:12714  0 */\n      0x00\n        /* \"contracts/Presale.sol\":12614:12714  rate[tier] != 0... */\n      jump(tag_231)\n    tag_230:\n        /* \"contracts/Presale.sol\":12683:12687  rate */\n      0x01\n        /* \"contracts/Presale.sol\":12688:12692  tier */\n      dup2\n        /* \"contracts/Presale.sol\":12683:12693  rate[tier] */\n      0x04\n      dup2\n      lt\n      tag_232\n      jumpi\n      tag_233\n      tag_213\n      jump\t// in\n    tag_233:\n    tag_232:\n      add\n      sload\n        /* \"contracts/Presale.sol\":12665:12677  saleTokenDec */\n      sload(0x06)\n        /* \"contracts/Presale.sol\":12659:12661  10 */\n      0x0a\n        /* \"contracts/Presale.sol\":12659:12677  10 ** saleTokenDec */\n      tag_235\n      swap2\n      swap1\n      tag_221\n      jump\t// in\n    tag_235:\n        /* \"contracts/Presale.sol\":12649:12655  amount */\n      dup6\n        /* \"contracts/Presale.sol\":12649:12678  amount * (10 ** saleTokenDec) */\n      tag_236\n      swap2\n      swap1\n      tag_223\n      jump\t// in\n    tag_236:\n        /* \"contracts/Presale.sol\":12648:12694  (amount * (10 ** saleTokenDec)) / (rate[tier]) */\n      tag_237\n      swap2\n      swap1\n      tag_225\n      jump\t// in\n    tag_237:\n        /* \"contracts/Presale.sol\":12614:12714  rate[tier] != 0... */\n    tag_231:\n        /* \"contracts/Presale.sol\":12605:12714  amtOut = rate[tier] != 0... */\n      swap2\n      pop\n        /* \"contracts/Presale.sol\":12326:12725  if (token != address(0)) {... */\n    tag_226:\n        /* \"contracts/Presale.sol\":12741:12747  amtOut */\n      dup2\n        /* \"contracts/Presale.sol\":12734:12747  return amtOut */\n      swap3\n      pop\n      pop\n      pop\n        /* \"contracts/Presale.sol\":12147:12754  function getTokenAmount(... */\n      swap3\n      swap2\n      pop\n      pop\n      jump\t// out\n        /* \"contracts/Presale.sol\":8617:8646  uint256 public presaleEndTime */\n    tag_56:\n      sload(0x0d)\n      dup2\n      jump\t// out\n        /* \"contracts/Presale.sol\":11682:11864  function startUnlocking() external onlyOwner isPresaleEnded {... */\n    tag_60:\n        /* \"contracts/Presale.sol\":1279:1291  _msgSender() */\n      tag_239\n        /* \"contracts/Presale.sol\":1279:1289  _msgSender */\n      tag_240\n        /* \"contracts/Presale.sol\":1279:1291  _msgSender() */\n      jump\t// in\n    tag_239:\n        /* \"contracts/Presale.sol\":1268:1291  owner() == _msgSender() */\n      0xffffffffffffffffffffffffffffffffffffffff\n      and\n        /* \"contracts/Presale.sol\":1268:1275  owner() */\n      tag_241\n        /* \"contracts/Presale.sol\":1268:1273  owner */\n      tag_140\n        /* \"contracts/Presale.sol\":1268:1275  owner() */\n      jump\t// in\n    tag_241:\n        /* \"contracts/Presale.sol\":1268:1291  owner() == _msgSender() */\n      0xffffffffffffffffffffffffffffffffffffffff\n      and\n      eq\n        /* \"contracts/Presale.sol\":1260:1328  require(owner() == _msgSender(), \"Ownable: caller is not the owner\") */\n      tag_242\n      jumpi\n      mload(0x40)\n      0x08c379a000000000000000000000000000000000000000000000000000000000\n      dup2\n      mstore\n      0x04\n      add\n      tag_243\n      swap1\n      tag_244\n      jump\t// in\n    tag_243:\n      mload(0x40)\n      dup1\n      swap2\n      sub\n      swap1\n      revert\n    tag_242:\n        /* \"contracts/Presale.sol\":9527:9541  presaleEndTime */\n      sload(0x0d)\n        /* \"contracts/Presale.sol\":9508:9523  block.timestamp */\n      timestamp\n        /* \"contracts/Presale.sol\":9508:9541  block.timestamp >= presaleEndTime */\n      lt\n      iszero\n        /* \"contracts/Presale.sol\":9487:9601  require(... */\n      tag_246\n      jumpi\n      mload(0x40)\n      0x08c379a000000000000000000000000000000000000000000000000000000000\n      dup2\n      mstore\n      0x04\n      add\n      tag_247\n      swap1\n      tag_248\n      jump\t// in\n    tag_247:\n      mload(0x40)\n      dup1\n      swap2\n      sub\n      swap1\n      revert\n    tag_246:\n        /* \"contracts/Presale.sol\":11761:11779  isUnlockingStarted */\n      0x0e\n      0x00\n      swap1\n      sload\n      swap1\n      0x0100\n      exp\n      swap1\n      div\n      0xff\n      and\n        /* \"contracts/Presale.sol\":11760:11779  !isUnlockingStarted */\n      iszero\n        /* \"contracts/Presale.sol\":11752:11822  require(!isUnlockingStarted, \"Presale: Unlocking has already started\") */\n      tag_250\n      jumpi\n      mload(0x40)\n      0x08c379a000000000000000000000000000000000000000000000000000000000\n      dup2\n      mstore\n      0x04\n      add\n      tag_251\n      swap1\n      tag_252\n      jump\t// in\n    tag_251:\n      mload(0x40)\n      dup1\n      swap2\n      sub\n      swap1\n      revert\n    tag_250:\n        /* \"contracts/Presale.sol\":11853:11857  true */\n      0x01\n        /* \"contracts/Presale.sol\":11832:11850  isUnlockingStarted */\n      0x0e\n      0x00\n        /* \"contracts/Presale.sol\":11832:11857  isUnlockingStarted = true */\n      0x0100\n      exp\n      dup2\n      sload\n      dup2\n      0xff\n      mul\n      not\n      and\n      swap1\n      dup4\n      iszero\n      iszero\n      mul\n      or\n      swap1\n      sstore\n      pop\n        /* \"contracts/Presale.sol\":11682:11864  function startUnlocking() external onlyOwner isPresaleEnded {... */\n      jump\t// out\n        /* \"contracts/Presale.sol\":8652:8682  bool public isUnlockingStarted */\n    tag_63:\n      0x0e\n      0x00\n      swap1\n      sload\n      swap1\n      0x0100\n      exp\n      swap1\n      div\n      0xff\n      and\n      dup2\n      jump\t// out\n        /* \"contracts/Presale.sol\":15682:15788  function withdrawCurrency(uint256 amt) public onlyOwner {... */\n    tag_70:\n        /* \"contracts/Presale.sol\":1279:1291  _msgSender() */\n      tag_254\n        /* \"contracts/Presale.sol\":1279:1289  _msgSender */\n      tag_240\n        /* \"contracts/Presale.sol\":1279:1291  _msgSender() */\n      jump\t// in\n    tag_254:\n        /* \"contracts/Presale.sol\":1268:1291  owner() == _msgSender() */\n      0xffffffffffffffffffffffffffffffffffffffff\n      and\n        /* \"contracts/Presale.sol\":1268:1275  owner() */\n      tag_255\n        /* \"contracts/Presale.sol\":1268:1273  owner */\n      tag_140\n        /* \"contracts/Presale.sol\":1268:1275  owner() */\n      jump\t// in\n    tag_255:\n        /* \"contracts/Presale.sol\":1268:1291  owner() == _msgSender() */\n      0xffffffffffffffffffffffffffffffffffffffff\n      and\n      eq\n        /* \"contracts/Presale.sol\":1260:1328  require(owner() == _msgSender(), \"Ownable: caller is not the owner\") */\n      tag_256\n      jumpi\n      mload(0x40)\n      0x08c379a000000000000000000000000000000000000000000000000000000000\n      dup2\n      mstore\n      0x04\n      add\n      tag_257\n      swap1\n      tag_244\n      jump\t// in\n    tag_257:\n      mload(0x40)\n      dup1\n      swap2\n      sub\n      swap1\n      revert\n    tag_256:\n        /* \"contracts/Presale.sol\":15756:15766  msg.sender */\n      caller\n        /* \"contracts/Presale.sol\":15748:15776  payable(msg.sender).transfer */\n      0xffffffffffffffffffffffffffffffffffffffff\n      and\n        /* \"contracts/Presale.sol\":15748:15781  payable(msg.sender).transfer(amt) */\n      0x08fc\n        /* \"contracts/Presale.sol\":15777:15780  amt */\n      dup3\n        /* \"contracts/Presale.sol\":15748:15781  payable(msg.sender).transfer(amt) */\n      swap1\n      dup2\n      iszero\n      mul\n      swap1\n      mload(0x40)\n      0x00\n      mload(0x40)\n      dup1\n      dup4\n      sub\n      dup2\n      dup6\n      dup9\n      dup9\n      call\n      swap4\n      pop\n      pop\n      pop\n      pop\n      iszero\n      dup1\n      iszero\n      tag_260\n      jumpi\n      returndatasize\n      0x00\n      dup1\n      returndatacopy\n      revert(0x00, returndatasize)\n    tag_260:\n      pop\n        /* \"contracts/Presale.sol\":15682:15788  function withdrawCurrency(uint256 amt) public onlyOwner {... */\n      pop\n      jump\t// out\n        /* \"contracts/Presale.sol\":15861:15930  function pauseContract() external onlyOwner {... */\n    tag_73:\n        /* \"contracts/Presale.sol\":1279:1291  _msgSender() */\n      tag_262\n        /* \"contracts/Presale.sol\":1279:1289  _msgSender */\n      tag_240\n        /* \"contracts/Presale.sol\":1279:1291  _msgSender() */\n      jump\t// in\n    tag_262:\n        /* \"contracts/Presale.sol\":1268:1291  owner() == _msgSender() */\n      0xffffffffffffffffffffffffffffffffffffffff\n      and\n        /* \"contracts/Presale.sol\":1268:1275  owner() */\n      tag_263\n        /* \"contracts/Presale.sol\":1268:1273  owner */\n      tag_140\n        /* \"contracts/Presale.sol\":1268:1275  owner() */\n      jump\t// in\n    tag_263:\n        /* \"contracts/Presale.sol\":1268:1291  owner() == _msgSender() */\n      0xffffffffffffffffffffffffffffffffffffffff\n      and\n      eq\n        /* \"contracts/Presale.sol\":1260:1328  require(owner() == _msgSender(), \"Ownable: caller is not the owner\") */\n      tag_264\n      jumpi\n      mload(0x40)\n      0x08c379a000000000000000000000000000000000000000000000000000000000\n      dup2\n      mstore\n      0x04\n      add\n      tag_265\n      swap1\n      tag_244\n      jump\t// in\n    tag_265:\n      mload(0x40)\n      dup1\n      swap2\n      sub\n      swap1\n      revert\n    tag_264:\n        /* \"contracts/Presale.sol\":15915:15923  _pause() */\n      tag_267\n        /* \"contracts/Presale.sol\":15915:15921  _pause */\n      tag_268\n        /* \"contracts/Presale.sol\":15915:15923  _pause() */\n      jump\t// in\n    tag_267:\n        /* \"contracts/Presale.sol\":15861:15930  function pauseContract() external onlyOwner {... */\n      jump\t// out\n        /* \"contracts/Presale.sol\":8688:8745  mapping(address => BuyerTokenDetails) public buyersAmount */\n    tag_78:\n      mstore(0x20, 0x0f)\n      dup1\n      0x00\n      mstore\n      keccak256(0x00, 0x40)\n      0x00\n      swap2\n      pop\n      swap1\n      pop\n      dup1\n      0x00\n      add\n      sload\n      swap1\n      dup1\n      0x01\n      add\n      0x00\n      swap1\n      sload\n      swap1\n      0x0100\n      exp\n      swap1\n      div\n      0xff\n      and\n      swap1\n      pop\n      dup3\n      jump\t// out\n        /* \"contracts/Presale.sol\":10750:10936  function startAndSetPresaleEndTime(... */\n    tag_84:\n        /* \"contracts/Presale.sol\":1279:1291  _msgSender() */\n      tag_270\n        /* \"contracts/Presale.sol\":1279:1289  _msgSender */\n      tag_240\n        /* \"contracts/Presale.sol\":1279:1291  _msgSender() */\n      jump\t// in\n    tag_270:\n        /* \"contracts/Presale.sol\":1268:1291  owner() == _msgSender() */\n      0xffffffffffffffffffffffffffffffffffffffff\n      and\n        /* \"contracts/Presale.sol\":1268:1275  owner() */\n      tag_271\n        /* \"contracts/Presale.sol\":1268:1273  owner */\n      tag_140\n        /* \"contracts/Presale.sol\":1268:1275  owner() */\n      jump\t// in\n    tag_271:\n        /* \"contracts/Presale.sol\":1268:1291  owner() == _msgSender() */\n      0xffffffffffffffffffffffffffffffffffffffff\n      and\n      eq\n        /* \"contracts/Presale.sol\":1260:1328  require(owner() == _msgSender(), \"Ownable: caller is not the owner\") */\n      tag_272\n      jumpi\n      mload(0x40)\n      0x08c379a000000000000000000000000000000000000000000000000000000000\n      dup2\n      mstore\n      0x04\n      add\n      tag_273\n      swap1\n      tag_244\n      jump\t// in\n    tag_273:\n      mload(0x40)\n      dup1\n      swap2\n      sub\n      swap1\n      revert\n    tag_272:\n        /* \"contracts/Presale.sol\":10872:10887  block.timestamp */\n      timestamp\n        /* \"contracts/Presale.sol\":10853:10869  presaleStartTime */\n      0x0c\n        /* \"contracts/Presale.sol\":10853:10887  presaleStartTime = block.timestamp */\n      dup2\n      swap1\n      sstore\n      pop\n        /* \"contracts/Presale.sol\":10914:10929  _presaleEndTime */\n      dup1\n        /* \"contracts/Presale.sol\":10897:10911  presaleEndTime */\n      0x0d\n        /* \"contracts/Presale.sol\":10897:10929  presaleEndTime = _presaleEndTime */\n      dup2\n      swap1\n      sstore\n      pop\n        /* \"contracts/Presale.sol\":10750:10936  function startAndSetPresaleEndTime(... */\n      pop\n      jump\t// out\n        /* \"@openzeppelin/contracts/security/Pausable.sol\":1615:1699  function paused() public view virtual returns (bool) {... */\n    tag_87:\n        /* \"@openzeppelin/contracts/security/Pausable.sol\":1662:1666  bool */\n      0x00\n        /* \"@openzeppelin/contracts/security/Pausable.sol\":1685:1692  _paused */\n      dup1\n      0x14\n      swap1\n      sload\n      swap1\n      0x0100\n      exp\n      swap1\n      div\n      0xff\n      and\n        /* \"@openzeppelin/contracts/security/Pausable.sol\":1678:1692  return _paused */\n      swap1\n      pop\n        /* \"@openzeppelin/contracts/security/Pausable.sol\":1615:1699  function paused() public view virtual returns (bool) {... */\n      swap1\n      jump\t// out\n        /* \"contracts/Presale.sol\":8751:8781  uint256 public totalTokensSold */\n    tag_91:\n      sload(0x10)\n      dup2\n      jump\t// out\n        /* \"contracts/Presale.sol\":11076:11306  function addWhiteListedToken(... */\n    tag_97:\n        /* \"contracts/Presale.sol\":1279:1291  _msgSender() */\n      tag_277\n        /* \"contracts/Presale.sol\":1279:1289  _msgSender */\n      tag_240\n        /* \"contracts/Presale.sol\":1279:1291  _msgSender() */\n      jump\t// in\n    tag_277:\n        /* \"contracts/Presale.sol\":1268:1291  owner() == _msgSender() */\n      0xffffffffffffffffffffffffffffffffffffffff\n      and\n        /* \"contracts/Presale.sol\":1268:1275  owner() */\n      tag_278\n        /* \"contracts/Presale.sol\":1268:1273  owner */\n      tag_140\n        /* \"contracts/Presale.sol\":1268:1275  owner() */\n      jump\t// in\n    tag_278:\n        /* \"contracts/Presale.sol\":1268:1291  owner() == _msgSender() */\n      0xffffffffffffffffffffffffffffffffffffffff\n      and\n      eq\n        /* \"contracts/Presale.sol\":1260:1328  require(owner() == _msgSender(), \"Ownable: caller is not the owner\") */\n      tag_279\n      jumpi\n      mload(0x40)\n      0x08c379a000000000000000000000000000000000000000000000000000000000\n      dup2\n      mstore\n      0x04\n      add\n      tag_280\n      swap1\n      tag_244\n      jump\t// in\n    tag_280:\n      mload(0x40)\n      dup1\n      swap2\n      sub\n      swap1\n      revert\n    tag_279:\n        /* \"contracts/Presale.sol\":11216:11220  true */\n      0x01\n        /* \"contracts/Presale.sol\":11198:11205  tokenWL */\n      0x0a\n        /* \"contracts/Presale.sol\":11198:11213  tokenWL[_token] */\n      0x00\n        /* \"contracts/Presale.sol\":11206:11212  _token */\n      dup5\n        /* \"contracts/Presale.sol\":11198:11213  tokenWL[_token] */\n      0xffffffffffffffffffffffffffffffffffffffff\n      and\n      0xffffffffffffffffffffffffffffffffffffffff\n      and\n      dup2\n      mstore\n      0x20\n      add\n      swap1\n      dup2\n      mstore\n      0x20\n      add\n      0x00\n      keccak256\n      0x00\n        /* \"contracts/Presale.sol\":11198:11220  tokenWL[_token] = true */\n      0x0100\n      exp\n      dup2\n      sload\n      dup2\n      0xff\n      mul\n      not\n      and\n      swap1\n      dup4\n      iszero\n      iszero\n      mul\n      or\n      swap1\n      sstore\n      pop\n        /* \"contracts/Presale.sol\":11252:11258  _price */\n      dup1\n        /* \"contracts/Presale.sol\":11230:11241  tokenPrices */\n      0x0b\n        /* \"contracts/Presale.sol\":11230:11249  tokenPrices[_token] */\n      0x00\n        /* \"contracts/Presale.sol\":11242:11248  _token */\n      dup5\n        /* \"contracts/Presale.sol\":11230:11249  tokenPrices[_token] */\n      0xffffffffffffffffffffffffffffffffffffffff\n      and\n      0xffffffffffffffffffffffffffffffffffffffff\n      and\n      dup2\n      mstore\n      0x20\n      add\n      swap1\n      dup2\n      mstore\n      0x20\n      add\n      0x00\n      keccak256\n        /* \"contracts/Presale.sol\":11230:11258  tokenPrices[_token] = _price */\n      swap1\n      0x04\n      tag_282\n      swap3\n      swap2\n      swap1\n      tag_283\n      jump\t// in\n    tag_282:\n      pop\n        /* \"contracts/Presale.sol\":11273:11299  TokenAdded(_token, _price) */\n      0x46a898d5bfb8140cb704c10cf4ff6ac010411db41a0d94f60d29dc9bdc24942d\n        /* \"contracts/Presale.sol\":11284:11290  _token */\n      dup3\n        /* \"contracts/Presale.sol\":11292:11298  _price */\n      dup3\n        /* \"contracts/Presale.sol\":11273:11299  TokenAdded(_token, _price) */\n      mload(0x40)\n      tag_284\n      swap3\n      swap2\n      swap1\n      tag_285\n      jump\t// in\n    tag_284:\n      mload(0x40)\n      dup1\n      swap2\n      sub\n      swap1\n      log1\n        /* \"contracts/Presale.sol\":11076:11306  function addWhiteListedToken(... */\n      pop\n      pop\n      jump\t// out\n        /* \"contracts/Presale.sol\":8525:8574  mapping(address => uint256[4]) public tokenPrices */\n    tag_101:\n      mstore(0x20, 0x0b)\n      dup2\n      0x00\n      mstore\n      keccak256(0x00, 0x40)\n      dup2\n      0x04\n      dup2\n      lt\n      tag_286\n      jumpi\n      0x00\n      dup1\n      revert\n    tag_286:\n      add\n      0x00\n      swap2\n      pop\n      swap2\n      pop\n      pop\n      sload\n      dup2\n      jump\t// out\n        /* \"contracts/Presale.sol\":12761:13967  function buyToken(... */\n    tag_105:\n        /* \"contracts/Presale.sol\":9217:9233  presaleStartTime */\n      sload(0x0c)\n        /* \"contracts/Presale.sol\":9198:9213  block.timestamp */\n      timestamp\n        /* \"contracts/Presale.sol\":9198:9233  block.timestamp >= presaleStartTime */\n      lt\n      iszero\n        /* \"contracts/Presale.sol\":9177:9295  require(... */\n      tag_289\n      jumpi\n      mload(0x40)\n      0x08c379a000000000000000000000000000000000000000000000000000000000\n      dup2\n      mstore\n      0x04\n      add\n      tag_290\n      swap1\n      tag_291\n      jump\t// in\n    tag_290:\n      mload(0x40)\n      dup1\n      swap2\n      sub\n      swap1\n      revert\n    tag_289:\n        /* \"contracts/Presale.sol\":9383:9397  presaleEndTime */\n      sload(0x0d)\n        /* \"contracts/Presale.sol\":9365:9380  block.timestamp */\n      timestamp\n        /* \"contracts/Presale.sol\":9365:9397  block.timestamp < presaleEndTime */\n      lt\n        /* \"contracts/Presale.sol\":9357:9428  require(block.timestamp < presaleEndTime, \"Presale: Presale has ended\") */\n      tag_293\n      jumpi\n      mload(0x40)\n      0x08c379a000000000000000000000000000000000000000000000000000000000\n      dup2\n      mstore\n      0x04\n      add\n      tag_294\n      swap1\n      tag_295\n      jump\t// in\n    tag_294:\n      mload(0x40)\n      dup1\n      swap2\n      sub\n      swap1\n      revert\n    tag_293:\n        /* \"@openzeppelin/contracts/security/Pausable.sol\":1239:1258  _requireNotPaused() */\n      tag_297\n        /* \"@openzeppelin/contracts/security/Pausable.sol\":1239:1256  _requireNotPaused */\n      tag_298\n        /* \"@openzeppelin/contracts/security/Pausable.sol\":1239:1258  _requireNotPaused() */\n      jump\t// in\n    tag_297:\n        /* \"contracts/Presale.sol\":12909:12929  uint256 saleTokenAmt */\n      0x00\n        /* \"contracts/Presale.sol\":12950:12951  0 */\n      dup1\n        /* \"contracts/Presale.sol\":12932:12952  _token != address(0) */\n      0xffffffffffffffffffffffffffffffffffffffff\n      and\n        /* \"contracts/Presale.sol\":12932:12938  _token */\n      dup4\n        /* \"contracts/Presale.sol\":12932:12952  _token != address(0) */\n      0xffffffffffffffffffffffffffffffffffffffff\n      and\n      sub\n        /* \"contracts/Presale.sol\":12932:13050  _token != address(0)... */\n      tag_300\n      jumpi\n        /* \"contracts/Presale.sol\":13013:13050  getTokenAmount(address(0), msg.value) */\n      tag_301\n        /* \"contracts/Presale.sol\":13036:13037  0 */\n      0x00\n        /* \"contracts/Presale.sol\":13040:13049  msg.value */\n      callvalue\n        /* \"contracts/Presale.sol\":13013:13027  getTokenAmount */\n      tag_51\n        /* \"contracts/Presale.sol\":13013:13050  getTokenAmount(address(0), msg.value) */\n      jump\t// in\n    tag_301:\n        /* \"contracts/Presale.sol\":12932:13050  _token != address(0)... */\n      jump(tag_302)\n    tag_300:\n        /* \"contracts/Presale.sol\":12967:12998  getTokenAmount(_token, _amount) */\n      tag_303\n        /* \"contracts/Presale.sol\":12982:12988  _token */\n      dup4\n        /* \"contracts/Presale.sol\":12990:12997  _amount */\n      dup4\n        /* \"contracts/Presale.sol\":12967:12981  getTokenAmount */\n      tag_51\n        /* \"contracts/Presale.sol\":12967:12998  getTokenAmount(_token, _amount) */\n      jump\t// in\n    tag_303:\n        /* \"contracts/Presale.sol\":12932:13050  _token != address(0)... */\n    tag_302:\n        /* \"contracts/Presale.sol\":12909:13050  uint256 saleTokenAmt = _token != address(0)... */\n      swap1\n      pop\n        /* \"contracts/Presale.sol\":13097:13108  minBuyLimit */\n      sload(0x09)\n        /* \"contracts/Presale.sol\":13081:13093  saleTokenAmt */\n      dup2\n        /* \"contracts/Presale.sol\":13081:13108  saleTokenAmt >= minBuyLimit */\n      lt\n      iszero\n        /* \"contracts/Presale.sol\":13060:13168  require(... */\n      tag_304\n      jumpi\n      mload(0x40)\n      0x08c379a000000000000000000000000000000000000000000000000000000000\n      dup2\n      mstore\n      0x04\n      add\n      tag_305\n      swap1\n      tag_306\n      jump\t// in\n    tag_305:\n      mload(0x40)\n      dup1\n      swap2\n      sub\n      swap1\n      revert\n    tag_304:\n        /* \"contracts/Presale.sol\":13249:13260  maxBuyLimit */\n      sload(0x08)\n        /* \"contracts/Presale.sol\":13233:13245  saleTokenAmt */\n      dup2\n        /* \"contracts/Presale.sol\":13199:13211  buyersAmount */\n      0x0f\n        /* \"contracts/Presale.sol\":13199:13223  buyersAmount[msg.sender] */\n      0x00\n        /* \"contracts/Presale.sol\":13212:13222  msg.sender */\n      caller\n        /* \"contracts/Presale.sol\":13199:13223  buyersAmount[msg.sender] */\n      0xffffffffffffffffffffffffffffffffffffffff\n      and\n      0xffffffffffffffffffffffffffffffffffffffff\n      and\n      dup2\n      mstore\n      0x20\n      add\n      swap1\n      dup2\n      mstore\n      0x20\n      add\n      0x00\n      keccak256\n        /* \"contracts/Presale.sol\":13199:13230  buyersAmount[msg.sender].amount */\n      0x00\n      add\n      sload\n        /* \"contracts/Presale.sol\":13199:13245  buyersAmount[msg.sender].amount + saleTokenAmt */\n      tag_307\n      swap2\n      swap1\n      tag_308\n      jump\t// in\n    tag_307:\n        /* \"contracts/Presale.sol\":13199:13260  buyersAmount[msg.sender].amount + saleTokenAmt <= maxBuyLimit */\n      gt\n      iszero\n        /* \"contracts/Presale.sol\":13178:13331  require(... */\n      tag_309\n      jumpi\n      mload(0x40)\n      0x08c379a000000000000000000000000000000000000000000000000000000000\n      dup2\n      mstore\n      0x04\n      add\n      tag_310\n      swap1\n      tag_311\n      jump\t// in\n    tag_310:\n      mload(0x40)\n      dup1\n      swap2\n      sub\n      swap1\n      revert\n    tag_309:\n        /* \"contracts/Presale.sol\":13398:13416  totalTokensforSale */\n      sload(0x07)\n        /* \"contracts/Presale.sol\":13381:13393  saleTokenAmt */\n      dup2\n        /* \"contracts/Presale.sol\":13363:13378  totalTokensSold */\n      sload(0x10)\n        /* \"contracts/Presale.sol\":13363:13393  totalTokensSold + saleTokenAmt */\n      tag_312\n      swap2\n      swap1\n      tag_308\n      jump\t// in\n    tag_312:\n        /* \"contracts/Presale.sol\":13362:13416  (totalTokensSold + saleTokenAmt) <= totalTokensforSale */\n      gt\n      iszero\n        /* \"contracts/Presale.sol\":13341:13476  require(... */\n      tag_313\n      jumpi\n      mload(0x40)\n      0x08c379a000000000000000000000000000000000000000000000000000000000\n      dup2\n      mstore\n      0x04\n      add\n      tag_314\n      swap1\n      tag_315\n      jump\t// in\n    tag_314:\n      mload(0x40)\n      dup1\n      swap2\n      sub\n      swap1\n      revert\n    tag_313:\n        /* \"contracts/Presale.sol\":13509:13510  0 */\n      0x00\n        /* \"contracts/Presale.sol\":13491:13511  _token != address(0) */\n      0xffffffffffffffffffffffffffffffffffffffff\n      and\n        /* \"contracts/Presale.sol\":13491:13497  _token */\n      dup4\n        /* \"contracts/Presale.sol\":13491:13511  _token != address(0) */\n      0xffffffffffffffffffffffffffffffffffffffff\n      and\n      eq\n        /* \"contracts/Presale.sol\":13487:13752  if (_token != address(0)) {... */\n      tag_316\n      jumpi\n        /* \"contracts/Presale.sol\":13545:13546  0 */\n      0x00\n        /* \"contracts/Presale.sol\":13535:13542  _amount */\n      dup3\n        /* \"contracts/Presale.sol\":13535:13546  _amount > 0 */\n      gt\n        /* \"contracts/Presale.sol\":13527:13587  require(_amount > 0, \"Presale: Cannot buy with zero amount\") */\n      tag_317\n      jumpi\n      mload(0x40)\n      0x08c379a000000000000000000000000000000000000000000000000000000000\n      dup2\n      mstore\n      0x04\n      add\n      tag_318\n      swap1\n      tag_319\n      jump\t// in\n    tag_318:\n      mload(0x40)\n      dup1\n      swap2\n      sub\n      swap1\n      revert\n    tag_317:\n        /* \"contracts/Presale.sol\":13609:13616  tokenWL */\n      0x0a\n        /* \"contracts/Presale.sol\":13609:13624  tokenWL[_token] */\n      0x00\n        /* \"contracts/Presale.sol\":13617:13623  _token */\n      dup5\n        /* \"contracts/Presale.sol\":13609:13624  tokenWL[_token] */\n      0xffffffffffffffffffffffffffffffffffffffff\n      and\n      0xffffffffffffffffffffffffffffffffffffffff\n      and\n      dup2\n      mstore\n      0x20\n      add\n      swap1\n      dup2\n      mstore\n      0x20\n      add\n      0x00\n      keccak256\n      0x00\n      swap1\n      sload\n      swap1\n      0x0100\n      exp\n      swap1\n      div\n      0xff\n      and\n        /* \"contracts/Presale.sol\":13601:13659  require(tokenWL[_token], \"Presale: Token not whitelisted\") */\n      tag_320\n      jumpi\n      mload(0x40)\n      0x08c379a000000000000000000000000000000000000000000000000000000000\n      dup2\n      mstore\n      0x04\n      add\n      tag_321\n      swap1\n      tag_210\n      jump\t// in\n    tag_321:\n      mload(0x40)\n      dup1\n      swap2\n      sub\n      swap1\n      revert\n    tag_320:\n        /* \"contracts/Presale.sol\":13674:13741  IERC20(_token).safeTransferFrom(msg.sender, address(this), _amount) */\n      tag_322\n        /* \"contracts/Presale.sol\":13706:13716  msg.sender */\n      caller\n        /* \"contracts/Presale.sol\":13726:13730  this */\n      address\n        /* \"contracts/Presale.sol\":13733:13740  _amount */\n      dup5\n        /* \"contracts/Presale.sol\":13681:13687  _token */\n      dup7\n        /* \"contracts/Presale.sol\":13674:13705  IERC20(_token).safeTransferFrom */\n      0xffffffffffffffffffffffffffffffffffffffff\n      and\n      tag_323\n      swap1\n        /* \"contracts/Presale.sol\":13674:13741  IERC20(_token).safeTransferFrom(msg.sender, address(this), _amount) */\n      swap4\n      swap3\n      swap2\n      swap1\n      0xffffffff\n      and\n      jump\t// in\n    tag_322:\n        /* \"contracts/Presale.sol\":13487:13752  if (_token != address(0)) {... */\n    tag_316:\n        /* \"contracts/Presale.sol\":13820:13832  saleTokenAmt */\n      dup1\n        /* \"contracts/Presale.sol\":13801:13816  totalTokensSold */\n      0x10\n      0x00\n        /* \"contracts/Presale.sol\":13801:13832  totalTokensSold += saleTokenAmt */\n      dup3\n      dup3\n      sload\n      tag_324\n      swap2\n      swap1\n      tag_308\n      jump\t// in\n    tag_324:\n      swap3\n      pop\n      pop\n      dup2\n      swap1\n      sstore\n      pop\n        /* \"contracts/Presale.sol\":13877:13889  saleTokenAmt */\n      dup1\n        /* \"contracts/Presale.sol\":13842:13854  buyersAmount */\n      0x0f\n        /* \"contracts/Presale.sol\":13842:13866  buyersAmount[msg.sender] */\n      0x00\n        /* \"contracts/Presale.sol\":13855:13865  msg.sender */\n      caller\n        /* \"contracts/Presale.sol\":13842:13866  buyersAmount[msg.sender] */\n      0xffffffffffffffffffffffffffffffffffffffff\n      and\n      0xffffffffffffffffffffffffffffffffffffffff\n      and\n      dup2\n      mstore\n      0x20\n      add\n      swap1\n      dup2\n      mstore\n      0x20\n      add\n      0x00\n      keccak256\n        /* \"contracts/Presale.sol\":13842:13873  buyersAmount[msg.sender].amount */\n      0x00\n      add\n      0x00\n        /* \"contracts/Presale.sol\":13842:13889  buyersAmount[msg.sender].amount += saleTokenAmt */\n      dup3\n      dup3\n      sload\n      tag_325\n      swap2\n      swap1\n      tag_308\n      jump\t// in\n    tag_325:\n      swap3\n      pop\n      pop\n      dup2\n      swap1\n      sstore\n      pop\n        /* \"contracts/Presale.sol\":13930:13936  _token */\n      dup3\n        /* \"contracts/Presale.sol\":13905:13960  TokensBought(msg.sender, _token, _amount, saleTokenAmt) */\n      0xffffffffffffffffffffffffffffffffffffffff\n      and\n        /* \"contracts/Presale.sol\":13918:13928  msg.sender */\n      caller\n        /* \"contracts/Presale.sol\":13905:13960  TokensBought(msg.sender, _token, _amount, saleTokenAmt) */\n      0xffffffffffffffffffffffffffffffffffffffff\n      and\n      0xc244d500136edffae7025aaf7fbd7a07193ac544a1d0cc3132cf2a32452d340c\n        /* \"contracts/Presale.sol\":13938:13945  _amount */\n      dup5\n        /* \"contracts/Presale.sol\":13947:13959  saleTokenAmt */\n      dup5\n        /* \"contracts/Presale.sol\":13905:13960  TokensBought(msg.sender, _token, _amount, saleTokenAmt) */\n      mload(0x40)\n      tag_326\n      swap3\n      swap2\n      swap1\n      tag_327\n      jump\t// in\n    tag_326:\n      mload(0x40)\n      dup1\n      swap2\n      sub\n      swap1\n      log3\n        /* \"contracts/Presale.sol\":12899:13967  {... */\n      pop\n        /* \"contracts/Presale.sol\":12761:13967  function buyToken(... */\n      pop\n      pop\n      jump\t// out\n        /* \"contracts/Presale.sol\":8416:8442  uint256 public maxBuyLimit */\n    tag_108:\n      sload(0x08)\n      dup2\n      jump\t// out\n        /* \"contracts/Presale.sol\":8377:8410  uint256 public totalTokensforSale */\n    tag_112:\n      sload(0x07)\n      dup2\n      jump\t// out\n        /* \"contracts/Presale.sol\":10942:11070  function updateTime(... */\n    tag_117:\n        /* \"contracts/Presale.sol\":1279:1291  _msgSender() */\n      tag_329\n        /* \"contracts/Presale.sol\":1279:1289  _msgSender */\n      tag_240\n        /* \"contracts/Presale.sol\":1279:1291  _msgSender() */\n      jump\t// in\n    tag_329:\n        /* \"contracts/Presale.sol\":1268:1291  owner() == _msgSender() */\n      0xffffffffffffffffffffffffffffffffffffffff\n      and\n        /* \"contracts/Presale.sol\":1268:1275  owner() */\n      tag_330\n        /* \"contracts/Presale.sol\":1268:1273  owner */\n      tag_140\n        /* \"contracts/Presale.sol\":1268:1275  owner() */\n      jump\t// in\n    tag_330:\n        /* \"contracts/Presale.sol\":1268:1291  owner() == _msgSender() */\n      0xffffffffffffffffffffffffffffffffffffffff\n      and\n      eq\n        /* \"contracts/Presale.sol\":1260:1328  require(owner() == _msgSender(), \"Ownable: caller is not the owner\") */\n      tag_331\n      jumpi\n      mload(0x40)\n      0x08c379a000000000000000000000000000000000000000000000000000000000\n      dup2\n      mstore\n      0x04\n      add\n      tag_332\n      swap1\n      tag_244\n      jump\t// in\n    tag_332:\n      mload(0x40)\n      dup1\n      swap2\n      sub\n      swap1\n      revert\n    tag_331:\n        /* \"contracts/Presale.sol\":11048:11063  _presaleEndTime */\n      dup1\n        /* \"contracts/Presale.sol\":11030:11044  presaleEndTime */\n      0x0d\n        /* \"contracts/Presale.sol\":11030:11063  presaleEndTime =  _presaleEndTime */\n      dup2\n      swap1\n      sstore\n      pop\n        /* \"contracts/Presale.sol\":10942:11070  function updateTime(... */\n      pop\n      jump\t// out\n        /* \"contracts/Presale.sol\":1351:1452  function renounceOwnership() public virtual onlyOwner {... */\n    tag_120:\n        /* \"contracts/Presale.sol\":1279:1291  _msgSender() */\n      tag_335\n        /* \"contracts/Presale.sol\":1279:1289  _msgSender */\n      tag_240\n        /* \"contracts/Presale.sol\":1279:1291  _msgSender() */\n      jump\t// in\n    tag_335:\n        /* \"contracts/Presale.sol\":1268:1291  owner() == _msgSender() */\n      0xffffffffffffffffffffffffffffffffffffffff\n      and\n        /* \"contracts/Presale.sol\":1268:1275  owner() */\n      tag_336\n        /* \"contracts/Presale.sol\":1268:1273  owner */\n      tag_140\n        /* \"contracts/Presale.sol\":1268:1275  owner() */\n      jump\t// in\n    tag_336:\n        /* \"contracts/Presale.sol\":1268:1291  owner() == _msgSender() */\n      0xffffffffffffffffffffffffffffffffffffffff\n      and\n      eq\n        /* \"contracts/Presale.sol\":1260:1328  require(owner() == _msgSender(), \"Ownable: caller is not the owner\") */\n      tag_337\n      jumpi\n      mload(0x40)\n      0x08c379a000000000000000000000000000000000000000000000000000000000\n      dup2\n      mstore\n      0x04\n      add\n      tag_338\n      swap1\n      tag_244\n      jump\t// in\n    tag_338:\n      mload(0x40)\n      dup1\n      swap2\n      sub\n      swap1\n      revert\n    tag_337:\n        /* \"contracts/Presale.sol\":1415:1445  _transferOwnership(address(0)) */\n      tag_340\n        /* \"contracts/Presale.sol\":1442:1443  0 */\n      0x00\n        /* \"contracts/Presale.sol\":1415:1433  _transferOwnership */\n      tag_341\n        /* \"contracts/Presale.sol\":1415:1445  _transferOwnership(address(0)) */\n      jump\t// in\n    tag_340:\n        /* \"contracts/Presale.sol\":1351:1452  function renounceOwnership() public virtual onlyOwner {... */\n      jump\t// out\n        /* \"contracts/Presale.sol\":12059:12137  function getCurrentTier() public pure returns (uint) {... */\n    tag_123:\n        /* \"contracts/Presale.sol\":12106:12110  uint */\n      0x00\n        /* \"contracts/Presale.sol\":12059:12137  function getCurrentTier() public pure returns (uint) {... */\n      swap1\n      jump\t// out\n        /* \"contracts/Presale.sol\":14593:14698  function setMaxBuyLimit(uint _maxBuyLimit) external onlyOwner {... */\n    tag_128:\n        /* \"contracts/Presale.sol\":1279:1291  _msgSender() */\n      tag_344\n        /* \"contracts/Presale.sol\":1279:1289  _msgSender */\n      tag_240\n        /* \"contracts/Presale.sol\":1279:1291  _msgSender() */\n      jump\t// in\n    tag_344:\n        /* \"contracts/Presale.sol\":1268:1291  owner() == _msgSender() */\n      0xffffffffffffffffffffffffffffffffffffffff\n      and\n        /* \"contracts/Presale.sol\":1268:1275  owner() */\n      tag_345\n        /* \"contracts/Presale.sol\":1268:1273  owner */\n      tag_140\n        /* \"contracts/Presale.sol\":1268:1275  owner() */\n      jump\t// in\n    tag_345:\n        /* \"contracts/Presale.sol\":1268:1291  owner() == _msgSender() */\n      0xffffffffffffffffffffffffffffffffffffffff\n      and\n      eq\n        /* \"contracts/Presale.sol\":1260:1328  require(owner() == _msgSender(), \"Ownable: caller is not the owner\") */\n      tag_346\n      jumpi\n      mload(0x40)\n      0x08c379a000000000000000000000000000000000000000000000000000000000\n      dup2\n      mstore\n      0x04\n      add\n      tag_347\n      swap1\n      tag_244\n      jump\t// in\n    tag_347:\n      mload(0x40)\n      dup1\n      swap2\n      sub\n      swap1\n      revert\n    tag_346:\n        /* \"contracts/Presale.sol\":14679:14691  _maxBuyLimit */\n      dup1\n        /* \"contracts/Presale.sol\":14665:14676  maxBuyLimit */\n      0x08\n        /* \"contracts/Presale.sol\":14665:14691  maxBuyLimit = _maxBuyLimit */\n      dup2\n      swap1\n      sstore\n      pop\n        /* \"contracts/Presale.sol\":14593:14698  function setMaxBuyLimit(uint _maxBuyLimit) external onlyOwner {... */\n      pop\n      jump\t// out\n        /* \"contracts/Presale.sol\":10005:10744  function setSaleTokenParams(... */\n    tag_132:\n        /* \"contracts/Presale.sol\":1279:1291  _msgSender() */\n      tag_350\n        /* \"contracts/Presale.sol\":1279:1289  _msgSender */\n      tag_240\n        /* \"contracts/Presale.sol\":1279:1291  _msgSender() */\n      jump\t// in\n    tag_350:\n        /* \"contracts/Presale.sol\":1268:1291  owner() == _msgSender() */\n      0xffffffffffffffffffffffffffffffffffffffff\n      and\n        /* \"contracts/Presale.sol\":1268:1275  owner() */\n      tag_351\n        /* \"contracts/Presale.sol\":1268:1273  owner */\n      tag_140\n        /* \"contracts/Presale.sol\":1268:1275  owner() */\n      jump\t// in\n    tag_351:\n        /* \"contracts/Presale.sol\":1268:1291  owner() == _msgSender() */\n      0xffffffffffffffffffffffffffffffffffffffff\n      and\n      eq\n        /* \"contracts/Presale.sol\":1260:1328  require(owner() == _msgSender(), \"Ownable: caller is not the owner\") */\n      tag_352\n      jumpi\n      mload(0x40)\n      0x08c379a000000000000000000000000000000000000000000000000000000000\n      dup2\n      mstore\n      0x04\n      add\n      tag_353\n      swap1\n      tag_244\n      jump\t// in\n    tag_353:\n      mload(0x40)\n      dup1\n      swap2\n      sub\n      swap1\n      revert\n    tag_352:\n        /* \"contracts/Presale.sol\":10175:10176  0 */\n      0x00\n        /* \"contracts/Presale.sol\":10153:10177  _saleToken != address(0) */\n      0xffffffffffffffffffffffffffffffffffffffff\n      and\n        /* \"contracts/Presale.sol\":10153:10163  _saleToken */\n      dup3\n        /* \"contracts/Presale.sol\":10153:10177  _saleToken != address(0) */\n      0xffffffffffffffffffffffffffffffffffffffff\n      and\n      sub\n        /* \"contracts/Presale.sol\":10132:10245  require(... */\n      tag_355\n      jumpi\n      mload(0x40)\n      0x08c379a000000000000000000000000000000000000000000000000000000000\n      dup2\n      mstore\n      0x04\n      add\n      tag_356\n      swap1\n      tag_357\n      jump\t// in\n    tag_356:\n      mload(0x40)\n      dup1\n      swap2\n      sub\n      swap1\n      revert\n    tag_355:\n        /* \"contracts/Presale.sol\":10298:10299  0 */\n      0x00\n        /* \"contracts/Presale.sol\":10276:10295  _totalTokensforSale */\n      dup2\n        /* \"contracts/Presale.sol\":10276:10299  _totalTokensforSale > 0 */\n      gt\n        /* \"contracts/Presale.sol\":10255:10370  require(... */\n      tag_358\n      jumpi\n      mload(0x40)\n      0x08c379a000000000000000000000000000000000000000000000000000000000\n      dup2\n      mstore\n      0x04\n      add\n      tag_359\n      swap1\n      tag_360\n      jump\t// in\n    tag_359:\n      mload(0x40)\n      dup1\n      swap2\n      sub\n      swap1\n      revert\n    tag_358:\n        /* \"contracts/Presale.sol\":10392:10402  _saleToken */\n      dup2\n        /* \"contracts/Presale.sol\":10380:10389  saleToken */\n      0x05\n      0x00\n        /* \"contracts/Presale.sol\":10380:10402  saleToken = _saleToken */\n      0x0100\n      exp\n      dup2\n      sload\n      dup2\n      0xffffffffffffffffffffffffffffffffffffffff\n      mul\n      not\n      and\n      swap1\n      dup4\n      0xffffffffffffffffffffffffffffffffffffffff\n      and\n      mul\n      or\n      swap1\n      sstore\n      pop\n        /* \"contracts/Presale.sol\":10442:10451  saleToken */\n      0x05\n      0x00\n      swap1\n      sload\n      swap1\n      0x0100\n      exp\n      swap1\n      div\n      0xffffffffffffffffffffffffffffffffffffffff\n      and\n        /* \"contracts/Presale.sol\":10427:10461  IERC20Metadata(saleToken).decimals */\n      0xffffffffffffffffffffffffffffffffffffffff\n      and\n      0x313ce567\n        /* \"contracts/Presale.sol\":10427:10463  IERC20Metadata(saleToken).decimals() */\n      mload(0x40)\n      dup2\n      0xffffffff\n      and\n      0xe0\n      shl\n      dup2\n      mstore\n      0x04\n      add\n      0x20\n      mload(0x40)\n      dup1\n      dup4\n      sub\n      dup2\n      dup7\n      gas\n      staticcall\n      iszero\n      dup1\n      iszero\n      tag_362\n      jumpi\n      returndatasize\n      0x00\n      dup1\n      returndatacopy\n      revert(0x00, returndatasize)\n    tag_362:\n      pop\n      pop\n      pop\n      pop\n      mload(0x40)\n      returndatasize\n      not(0x1f)\n      0x1f\n      dup3\n      add\n      and\n      dup3\n      add\n      dup1\n      0x40\n      mstore\n      pop\n      dup2\n      add\n      swap1\n      tag_363\n      swap2\n      swap1\n      tag_364\n      jump\t// in\n    tag_363:\n        /* \"contracts/Presale.sol\":10412:10463  saleTokenDec = IERC20Metadata(saleToken).decimals() */\n      0xff\n      and\n        /* \"contracts/Presale.sol\":10412:10424  saleTokenDec */\n      0x06\n        /* \"contracts/Presale.sol\":10412:10463  saleTokenDec = IERC20Metadata(saleToken).decimals() */\n      dup2\n      swap1\n      sstore\n      pop\n        /* \"contracts/Presale.sol\":10474:10602  IERC20(saleToken).safeTransferFrom(... */\n      tag_365\n        /* \"contracts/Presale.sol\":10522:10532  msg.sender */\n      caller\n        /* \"contracts/Presale.sol\":10554:10558  this */\n      address\n        /* \"contracts/Presale.sol\":10573:10592  _totalTokensforSale */\n      dup4\n        /* \"contracts/Presale.sol\":10481:10490  saleToken */\n      0x05\n      0x00\n      swap1\n      sload\n      swap1\n      0x0100\n      exp\n      swap1\n      div\n      0xffffffffffffffffffffffffffffffffffffffff\n      and\n        /* \"contracts/Presale.sol\":10474:10508  IERC20(saleToken).safeTransferFrom */\n      0xffffffffffffffffffffffffffffffffffffffff\n      and\n      tag_323\n      swap1\n        /* \"contracts/Presale.sol\":10474:10602  IERC20(saleToken).safeTransferFrom(... */\n      swap4\n      swap3\n      swap2\n      swap1\n      0xffffffff\n      and\n      jump\t// in\n    tag_365:\n        /* \"contracts/Presale.sol\":10640:10649  saleToken */\n      0x05\n      0x00\n      swap1\n      sload\n      swap1\n      0x0100\n      exp\n      swap1\n      div\n      0xffffffffffffffffffffffffffffffffffffffff\n      and\n        /* \"contracts/Presale.sol\":10633:10660  IERC20(saleToken).balanceOf */\n      0xffffffffffffffffffffffffffffffffffffffff\n      and\n      0x70a08231\n        /* \"contracts/Presale.sol\":10669:10673  this */\n      address\n        /* \"contracts/Presale.sol\":10633:10675  IERC20(saleToken).balanceOf(address(this)) */\n      mload(0x40)\n      dup3\n      0xffffffff\n      and\n      0xe0\n      shl\n      dup2\n      mstore\n      0x04\n      add\n      tag_366\n      swap2\n      swap1\n      tag_142\n      jump\t// in\n    tag_366:\n      0x20\n      mload(0x40)\n      dup1\n      dup4\n      sub\n      dup2\n      dup7\n      gas\n      staticcall\n      iszero\n      dup1\n      iszero\n      tag_368\n      jumpi\n      returndatasize\n      0x00\n      dup1\n      returndatacopy\n      revert(0x00, returndatasize)\n    tag_368:\n      pop\n      pop\n      pop\n      pop\n      mload(0x40)\n      returndatasize\n      not(0x1f)\n      0x1f\n      dup3\n      add\n      and\n      dup3\n      add\n      dup1\n      0x40\n      mstore\n      pop\n      dup2\n      add\n      swap1\n      tag_369\n      swap2\n      swap1\n      tag_370\n      jump\t// in\n    tag_369:\n        /* \"contracts/Presale.sol\":10612:10630  totalTokensforSale */\n      0x07\n        /* \"contracts/Presale.sol\":10612:10675  totalTokensforSale = IERC20(saleToken).balanceOf(address(this)) */\n      dup2\n      swap1\n      sstore\n      pop\n        /* \"contracts/Presale.sol\":10690:10737  SaleTokenAdded(_saleToken, _totalTokensforSale) */\n      0x03211f0a57d24f0b52e2e0573af5be089c5faadeb55f9b90591717b0a22f7e2a\n        /* \"contracts/Presale.sol\":10705:10715  _saleToken */\n      dup3\n        /* \"contracts/Presale.sol\":10717:10736  _totalTokensforSale */\n      dup3\n        /* \"contracts/Presale.sol\":10690:10737  SaleTokenAdded(_saleToken, _totalTokensforSale) */\n      mload(0x40)\n      tag_371\n      swap3\n      swap2\n      swap1\n      tag_372\n      jump\t// in\n    tag_371:\n      mload(0x40)\n      dup1\n      swap2\n      sub\n      swap1\n      log1\n        /* \"contracts/Presale.sol\":10005:10744  function setSaleTokenParams(... */\n      pop\n      pop\n      jump\t// out\n        /* \"contracts/Presale.sol\":8480:8519  mapping(address => bool) public tokenWL */\n    tag_136:\n      mstore(0x20, 0x0a)\n      dup1\n      0x00\n      mstore\n      keccak256(0x00, 0x40)\n      0x00\n      swap2\n      pop\n      sload\n      swap1\n      0x0100\n      exp\n      swap1\n      div\n      0xff\n      and\n      dup2\n      jump\t// out\n        /* \"contracts/Presale.sol\":1139:1224  function owner() public view virtual returns (address) {... */\n    tag_140:\n        /* \"contracts/Presale.sol\":1185:1192  address */\n      0x00\n        /* \"contracts/Presale.sol\":1211:1217  _owner */\n      dup1\n      0x00\n      swap1\n      sload\n      swap1\n      0x0100\n      exp\n      swap1\n      div\n      0xffffffffffffffffffffffffffffffffffffffff\n      and\n        /* \"contracts/Presale.sol\":1204:1217  return _owner */\n      swap1\n      pop\n        /* \"contracts/Presale.sol\":1139:1224  function owner() public view virtual returns (address) {... */\n      swap1\n      jump\t// out\n        /* \"contracts/Presale.sol\":14482:14587  function setMinBuyLimit(uint _minBuyLimit) external onlyOwner {... */\n    tag_146:\n        /* \"contracts/Presale.sol\":1279:1291  _msgSender() */\n      tag_375\n        /* \"contracts/Presale.sol\":1279:1289  _msgSender */\n      tag_240\n        /* \"contracts/Presale.sol\":1279:1291  _msgSender() */\n      jump\t// in\n    tag_375:\n        /* \"contracts/Presale.sol\":1268:1291  owner() == _msgSender() */\n      0xffffffffffffffffffffffffffffffffffffffff\n      and\n        /* \"contracts/Presale.sol\":1268:1275  owner() */\n      tag_376\n        /* \"contracts/Presale.sol\":1268:1273  owner */\n      tag_140\n        /* \"contracts/Presale.sol\":1268:1275  owner() */\n      jump\t// in\n    tag_376:\n        /* \"contracts/Presale.sol\":1268:1291  owner() == _msgSender() */\n      0xffffffffffffffffffffffffffffffffffffffff\n      and\n      eq\n        /* \"contracts/Presale.sol\":1260:1328  require(owner() == _msgSender(), \"Ownable: caller is not the owner\") */\n      tag_377\n      jumpi\n      mload(0x40)\n      0x08c379a000000000000000000000000000000000000000000000000000000000\n      dup2\n      mstore\n      0x04\n      add\n      tag_378\n      swap1\n      tag_244\n      jump\t// in\n    tag_378:\n      mload(0x40)\n      dup1\n      swap2\n      sub\n      swap1\n      revert\n    tag_377:\n        /* \"contracts/Presale.sol\":14568:14580  _minBuyLimit */\n      dup1\n        /* \"contracts/Presale.sol\":14554:14565  minBuyLimit */\n      0x09\n        /* \"contracts/Presale.sol\":14554:14580  minBuyLimit = _minBuyLimit */\n      dup2\n      swap1\n      sstore\n      pop\n        /* \"contracts/Presale.sol\":14482:14587  function setMinBuyLimit(uint _minBuyLimit) external onlyOwner {... */\n      pop\n      jump\t// out\n        /* \"contracts/Presale.sol\":8580:8611  uint256 public presaleStartTime */\n    tag_149:\n      sload(0x0c)\n      dup2\n      jump\t// out\n        /* \"contracts/Presale.sol\":8347:8371  uint public saleTokenDec */\n    tag_153:\n      sload(0x06)\n      dup2\n      jump\t// out\n        /* \"contracts/Presale.sol\":16005:16077  function unpauseContract() external onlyOwner {... */\n    tag_157:\n        /* \"contracts/Presale.sol\":1279:1291  _msgSender() */\n      tag_381\n        /* \"contracts/Presale.sol\":1279:1289  _msgSender */\n      tag_240\n        /* \"contracts/Presale.sol\":1279:1291  _msgSender() */\n      jump\t// in\n    tag_381:\n        /* \"contracts/Presale.sol\":1268:1291  owner() == _msgSender() */\n      0xffffffffffffffffffffffffffffffffffffffff\n      and\n        /* \"contracts/Presale.sol\":1268:1275  owner() */\n      tag_382\n        /* \"contracts/Presale.sol\":1268:1273  owner */\n      tag_140\n        /* \"contracts/Presale.sol\":1268:1275  owner() */\n      jump\t// in\n    tag_382:\n        /* \"contracts/Presale.sol\":1268:1291  owner() == _msgSender() */\n      0xffffffffffffffffffffffffffffffffffffffff\n      and\n      eq\n        /* \"contracts/Presale.sol\":1260:1328  require(owner() == _msgSender(), \"Ownable: caller is not the owner\") */\n      tag_383\n      jumpi\n      mload(0x40)\n      0x08c379a000000000000000000000000000000000000000000000000000000000\n      dup2\n      mstore\n      0x04\n      add\n      tag_384\n      swap1\n      tag_244\n      jump\t// in\n    tag_384:\n      mload(0x40)\n      dup1\n      swap2\n      sub\n      swap1\n      revert\n    tag_383:\n        /* \"contracts/Presale.sol\":16060:16070  _unpause() */\n      tag_386\n        /* \"contracts/Presale.sol\":16060:16068  _unpause */\n      tag_387\n        /* \"contracts/Presale.sol\":16060:16070  _unpause() */\n      jump\t// in\n    tag_386:\n        /* \"contracts/Presale.sol\":16005:16077  function unpauseContract() external onlyOwner {... */\n      jump\t// out\n        /* \"contracts/Presale.sol\":11869:12050  function stopUnlocking() external onlyOwner isPresaleEnded {... */\n    tag_160:\n        /* \"contracts/Presale.sol\":1279:1291  _msgSender() */\n      tag_389\n        /* \"contracts/Presale.sol\":1279:1289  _msgSender */\n      tag_240\n        /* \"contracts/Presale.sol\":1279:1291  _msgSender() */\n      jump\t// in\n    tag_389:\n        /* \"contracts/Presale.sol\":1268:1291  owner() == _msgSender() */\n      0xffffffffffffffffffffffffffffffffffffffff\n      and\n        /* \"contracts/Presale.sol\":1268:1275  owner() */\n      tag_390\n        /* \"contracts/Presale.sol\":1268:1273  owner */\n      tag_140\n        /* \"contracts/Presale.sol\":1268:1275  owner() */\n      jump\t// in\n    tag_390:\n        /* \"contracts/Presale.sol\":1268:1291  owner() == _msgSender() */\n      0xffffffffffffffffffffffffffffffffffffffff\n      and\n      eq\n        /* \"contracts/Presale.sol\":1260:1328  require(owner() == _msgSender(), \"Ownable: caller is not the owner\") */\n      tag_391\n      jumpi\n      mload(0x40)\n      0x08c379a000000000000000000000000000000000000000000000000000000000\n      dup2\n      mstore\n      0x04\n      add\n      tag_392\n      swap1\n      tag_244\n      jump\t// in\n    tag_392:\n      mload(0x40)\n      dup1\n      swap2\n      sub\n      swap1\n      revert\n    tag_391:\n        /* \"contracts/Presale.sol\":9527:9541  presaleEndTime */\n      sload(0x0d)\n        /* \"contracts/Presale.sol\":9508:9523  block.timestamp */\n      timestamp\n        /* \"contracts/Presale.sol\":9508:9541  block.timestamp >= presaleEndTime */\n      lt\n      iszero\n        /* \"contracts/Presale.sol\":9487:9601  require(... */\n      tag_394\n      jumpi\n      mload(0x40)\n      0x08c379a000000000000000000000000000000000000000000000000000000000\n      dup2\n      mstore\n      0x04\n      add\n      tag_395\n      swap1\n      tag_248\n      jump\t// in\n    tag_395:\n      mload(0x40)\n      dup1\n      swap2\n      sub\n      swap1\n      revert\n    tag_394:\n        /* \"contracts/Presale.sol\":11946:11964  isUnlockingStarted */\n      0x0e\n      0x00\n      swap1\n      sload\n      swap1\n      0x0100\n      exp\n      swap1\n      div\n      0xff\n      and\n        /* \"contracts/Presale.sol\":11938:12007  require(isUnlockingStarted, \"Presale: Unlocking hasn't started yet!\") */\n      tag_397\n      jumpi\n      mload(0x40)\n      0x08c379a000000000000000000000000000000000000000000000000000000000\n      dup2\n      mstore\n      0x04\n      add\n      tag_398\n      swap1\n      tag_399\n      jump\t// in\n    tag_398:\n      mload(0x40)\n      dup1\n      swap2\n      sub\n      swap1\n      revert\n    tag_397:\n        /* \"contracts/Presale.sol\":12038:12043  false */\n      0x00\n        /* \"contracts/Presale.sol\":12017:12035  isUnlockingStarted */\n      0x0e\n      0x00\n        /* \"contracts/Presale.sol\":12017:12043  isUnlockingStarted = false */\n      0x0100\n      exp\n      dup2\n      sload\n      dup2\n      0xff\n      mul\n      not\n      and\n      swap1\n      dup4\n      iszero\n      iszero\n      mul\n      or\n      swap1\n      sstore\n      pop\n        /* \"contracts/Presale.sol\":11869:12050  function stopUnlocking() external onlyOwner isPresaleEnded {... */\n      jump\t// out\n        /* \"contracts/Presale.sol\":8448:8474  uint256 public minBuyLimit */\n    tag_163:\n      sload(0x09)\n      dup2\n      jump\t// out\n        /* \"contracts/Presale.sol\":13974:14476  function withdrawToken() external whenNotPaused {... */\n    tag_167:\n        /* \"@openzeppelin/contracts/security/Pausable.sol\":1239:1258  _requireNotPaused() */\n      tag_401\n        /* \"@openzeppelin/contracts/security/Pausable.sol\":1239:1256  _requireNotPaused */\n      tag_298\n        /* \"@openzeppelin/contracts/security/Pausable.sol\":1239:1258  _requireNotPaused() */\n      jump\t// in\n    tag_401:\n        /* \"contracts/Presale.sol\":14040:14058  isUnlockingStarted */\n      0x0e\n      0x00\n      swap1\n      sload\n      swap1\n      0x0100\n      exp\n      swap1\n      div\n      0xff\n      and\n        /* \"contracts/Presale.sol\":14032:14099  require(isUnlockingStarted, \"Presale: Locking period not over yet\") */\n      tag_403\n      jumpi\n      mload(0x40)\n      0x08c379a000000000000000000000000000000000000000000000000000000000\n      dup2\n      mstore\n      0x04\n      add\n      tag_404\n      swap1\n      tag_405\n      jump\t// in\n    tag_404:\n      mload(0x40)\n      dup1\n      swap2\n      sub\n      swap1\n      revert\n    tag_403:\n        /* \"contracts/Presale.sol\":14132:14144  buyersAmount */\n      0x0f\n        /* \"contracts/Presale.sol\":14132:14156  buyersAmount[msg.sender] */\n      0x00\n        /* \"contracts/Presale.sol\":14145:14155  msg.sender */\n      caller\n        /* \"contracts/Presale.sol\":14132:14156  buyersAmount[msg.sender] */\n      0xffffffffffffffffffffffffffffffffffffffff\n      and\n      0xffffffffffffffffffffffffffffffffffffffff\n      and\n      dup2\n      mstore\n      0x20\n      add\n      swap1\n      dup2\n      mstore\n      0x20\n      add\n      0x00\n      keccak256\n        /* \"contracts/Presale.sol\":14132:14166  buyersAmount[msg.sender].isClaimed */\n      0x01\n      add\n      0x00\n      swap1\n      sload\n      swap1\n      0x0100\n      exp\n      swap1\n      div\n      0xff\n      and\n        /* \"contracts/Presale.sol\":14131:14166  !buyersAmount[msg.sender].isClaimed */\n      iszero\n        /* \"contracts/Presale.sol\":14110:14216  require(... */\n      tag_406\n      jumpi\n      mload(0x40)\n      0x08c379a000000000000000000000000000000000000000000000000000000000\n      dup2\n      mstore\n      0x04\n      add\n      tag_407\n      swap1\n      tag_408\n      jump\t// in\n    tag_407:\n      mload(0x40)\n      dup1\n      swap2\n      sub\n      swap1\n      revert\n    tag_406:\n        /* \"contracts/Presale.sol\":14227:14252  uint256 tokensforWithdraw */\n      0x00\n        /* \"contracts/Presale.sol\":14255:14267  buyersAmount */\n      0x0f\n        /* \"contracts/Presale.sol\":14255:14279  buyersAmount[msg.sender] */\n      0x00\n        /* \"contracts/Presale.sol\":14268:14278  msg.sender */\n      caller\n        /* \"contracts/Presale.sol\":14255:14279  buyersAmount[msg.sender] */\n      0xffffffffffffffffffffffffffffffffffffffff\n      and\n      0xffffffffffffffffffffffffffffffffffffffff\n      and\n      dup2\n      mstore\n      0x20\n      add\n      swap1\n      dup2\n      mstore\n      0x20\n      add\n      0x00\n      keccak256\n        /* \"contracts/Presale.sol\":14255:14286  buyersAmount[msg.sender].amount */\n      0x00\n      add\n      sload\n        /* \"contracts/Presale.sol\":14227:14286  uint256 tokensforWithdraw = buyersAmount[msg.sender].amount */\n      swap1\n      pop\n        /* \"contracts/Presale.sol\":14333:14337  true */\n      0x01\n        /* \"contracts/Presale.sol\":14296:14308  buyersAmount */\n      0x0f\n        /* \"contracts/Presale.sol\":14296:14320  buyersAmount[msg.sender] */\n      0x00\n        /* \"contracts/Presale.sol\":14309:14319  msg.sender */\n      caller\n        /* \"contracts/Presale.sol\":14296:14320  buyersAmount[msg.sender] */\n      0xffffffffffffffffffffffffffffffffffffffff\n      and\n      0xffffffffffffffffffffffffffffffffffffffff\n      and\n      dup2\n      mstore\n      0x20\n      add\n      swap1\n      dup2\n      mstore\n      0x20\n      add\n      0x00\n      keccak256\n        /* \"contracts/Presale.sol\":14296:14330  buyersAmount[msg.sender].isClaimed */\n      0x01\n      add\n      0x00\n        /* \"contracts/Presale.sol\":14296:14337  buyersAmount[msg.sender].isClaimed = true */\n      0x0100\n      exp\n      dup2\n      sload\n      dup2\n      0xff\n      mul\n      not\n      and\n      swap1\n      dup4\n      iszero\n      iszero\n      mul\n      or\n      swap1\n      sstore\n      pop\n        /* \"contracts/Presale.sol\":14347:14408  IERC20(saleToken).safeTransfer(msg.sender, tokensforWithdraw) */\n      tag_409\n        /* \"contracts/Presale.sol\":14378:14388  msg.sender */\n      caller\n        /* \"contracts/Presale.sol\":14390:14407  tokensforWithdraw */\n      dup3\n        /* \"contracts/Presale.sol\":14354:14363  saleToken */\n      0x05\n      0x00\n      swap1\n      sload\n      swap1\n      0x0100\n      exp\n      swap1\n      div\n      0xffffffffffffffffffffffffffffffffffffffff\n      and\n        /* \"contracts/Presale.sol\":14347:14377  IERC20(saleToken).safeTransfer */\n      0xffffffffffffffffffffffffffffffffffffffff\n      and\n      tag_410\n      swap1\n        /* \"contracts/Presale.sol\":14347:14408  IERC20(saleToken).safeTransfer(msg.sender, tokensforWithdraw) */\n      swap3\n      swap2\n      swap1\n      0xffffffff\n      and\n      jump\t// in\n    tag_409:\n        /* \"contracts/Presale.sol\":14439:14449  msg.sender */\n      caller\n        /* \"contracts/Presale.sol\":14424:14469  TokensUnlocked(msg.sender, tokensforWithdraw) */\n      0xffffffffffffffffffffffffffffffffffffffff\n      and\n      0xe7b379c6c1fa169e9079c25e9143b127637eef8ec8c9d5c06ddb4ab3e1195888\n        /* \"contracts/Presale.sol\":14451:14468  tokensforWithdraw */\n      dup3\n        /* \"contracts/Presale.sol\":14424:14469  TokensUnlocked(msg.sender, tokensforWithdraw) */\n      mload(0x40)\n      tag_411\n      swap2\n      swap1\n      tag_53\n      jump\t// in\n    tag_411:\n      mload(0x40)\n      dup1\n      swap2\n      sub\n      swap1\n      log2\n        /* \"contracts/Presale.sol\":14022:14476  {... */\n      pop\n        /* \"contracts/Presale.sol\":13974:14476  function withdrawToken() external whenNotPaused {... */\n      jump\t// out\n        /* \"contracts/Presale.sol\":11412:11676  function updateTokenRate(... */\n    tag_171:\n        /* \"contracts/Presale.sol\":1279:1291  _msgSender() */\n      tag_413\n        /* \"contracts/Presale.sol\":1279:1289  _msgSender */\n      tag_240\n        /* \"contracts/Presale.sol\":1279:1291  _msgSender() */\n      jump\t// in\n    tag_413:\n        /* \"contracts/Presale.sol\":1268:1291  owner() == _msgSender() */\n      0xffffffffffffffffffffffffffffffffffffffff\n      and\n        /* \"contracts/Presale.sol\":1268:1275  owner() */\n      tag_414\n        /* \"contracts/Presale.sol\":1268:1273  owner */\n      tag_140\n        /* \"contracts/Presale.sol\":1268:1275  owner() */\n      jump\t// in\n    tag_414:\n        /* \"contracts/Presale.sol\":1268:1291  owner() == _msgSender() */\n      0xffffffffffffffffffffffffffffffffffffffff\n      and\n      eq\n        /* \"contracts/Presale.sol\":1260:1328  require(owner() == _msgSender(), \"Ownable: caller is not the owner\") */\n      tag_415\n      jumpi\n      mload(0x40)\n      0x08c379a000000000000000000000000000000000000000000000000000000000\n      dup2\n      mstore\n      0x04\n      add\n      tag_416\n      swap1\n      tag_244\n      jump\t// in\n    tag_416:\n      mload(0x40)\n      dup1\n      swap2\n      sub\n      swap1\n      revert\n    tag_415:\n        /* \"contracts/Presale.sol\":11538:11545  tokenWL */\n      0x0a\n        /* \"contracts/Presale.sol\":11538:11553  tokenWL[_token] */\n      0x00\n        /* \"contracts/Presale.sol\":11546:11552  _token */\n      dup4\n        /* \"contracts/Presale.sol\":11538:11553  tokenWL[_token] */\n      0xffffffffffffffffffffffffffffffffffffffff\n      and\n      0xffffffffffffffffffffffffffffffffffffffff\n      and\n      dup2\n      mstore\n      0x20\n      add\n      swap1\n      dup2\n      mstore\n      0x20\n      add\n      0x00\n      keccak256\n      0x00\n      swap1\n      sload\n      swap1\n      0x0100\n      exp\n      swap1\n      div\n      0xff\n      and\n        /* \"contracts/Presale.sol\":11530:11588  require(tokenWL[_token], \"Presale: Token not whitelisted\") */\n      tag_418\n      jumpi\n      mload(0x40)\n      0x08c379a000000000000000000000000000000000000000000000000000000000\n      dup2\n      mstore\n      0x04\n      add\n      tag_419\n      swap1\n      tag_210\n      jump\t// in\n    tag_419:\n      mload(0x40)\n      dup1\n      swap2\n      sub\n      swap1\n      revert\n    tag_418:\n        /* \"contracts/Presale.sol\":11620:11626  _price */\n      dup1\n        /* \"contracts/Presale.sol\":11598:11609  tokenPrices */\n      0x0b\n        /* \"contracts/Presale.sol\":11598:11617  tokenPrices[_token] */\n      0x00\n        /* \"contracts/Presale.sol\":11610:11616  _token */\n      dup5\n        /* \"contracts/Presale.sol\":11598:11617  tokenPrices[_token] */\n      0xffffffffffffffffffffffffffffffffffffffff\n      and\n      0xffffffffffffffffffffffffffffffffffffffff\n      and\n      dup2\n      mstore\n      0x20\n      add\n      swap1\n      dup2\n      mstore\n      0x20\n      add\n      0x00\n      keccak256\n        /* \"contracts/Presale.sol\":11598:11626  tokenPrices[_token] = _price */\n      swap1\n      0x04\n      tag_420\n      swap3\n      swap2\n      swap1\n      tag_283\n      jump\t// in\n    tag_420:\n      pop\n        /* \"contracts/Presale.sol\":11641:11669  TokenUpdated(_token, _price) */\n      0x15c54d4add16cdcd1f0a4c671837cf70c9f8f02790bb0d948710af6e0187c7d9\n        /* \"contracts/Presale.sol\":11654:11660  _token */\n      dup3\n        /* \"contracts/Presale.sol\":11662:11668  _price */\n      dup3\n        /* \"contracts/Presale.sol\":11641:11669  TokenUpdated(_token, _price) */\n      mload(0x40)\n      tag_421\n      swap3\n      swap2\n      swap1\n      tag_285\n      jump\t// in\n    tag_421:\n      mload(0x40)\n      dup1\n      swap2\n      sub\n      swap1\n      log1\n        /* \"contracts/Presale.sol\":11412:11676  function updateTokenRate(... */\n      pop\n      pop\n      jump\t// out\n        /* \"contracts/Presale.sol\":14704:14864  function withdrawSaleToken(... */\n    tag_175:\n        /* \"contracts/Presale.sol\":1279:1291  _msgSender() */\n      tag_423\n        /* \"contracts/Presale.sol\":1279:1289  _msgSender */\n      tag_240\n        /* \"contracts/Presale.sol\":1279:1291  _msgSender() */\n      jump\t// in\n    tag_423:\n        /* \"contracts/Presale.sol\":1268:1291  owner() == _msgSender() */\n      0xffffffffffffffffffffffffffffffffffffffff\n      and\n        /* \"contracts/Presale.sol\":1268:1275  owner() */\n      tag_424\n        /* \"contracts/Presale.sol\":1268:1273  owner */\n      tag_140\n        /* \"contracts/Presale.sol\":1268:1275  owner() */\n      jump\t// in\n    tag_424:\n        /* \"contracts/Presale.sol\":1268:1291  owner() == _msgSender() */\n      0xffffffffffffffffffffffffffffffffffffffff\n      and\n      eq\n        /* \"contracts/Presale.sol\":1260:1328  require(owner() == _msgSender(), \"Ownable: caller is not the owner\") */\n      tag_425\n      jumpi\n      mload(0x40)\n      0x08c379a000000000000000000000000000000000000000000000000000000000\n      dup2\n      mstore\n      0x04\n      add\n      tag_426\n      swap1\n      tag_244\n      jump\t// in\n    tag_426:\n      mload(0x40)\n      dup1\n      swap2\n      sub\n      swap1\n      revert\n    tag_425:\n        /* \"contracts/Presale.sol\":9527:9541  presaleEndTime */\n      sload(0x0d)\n        /* \"contracts/Presale.sol\":9508:9523  block.timestamp */\n      timestamp\n        /* \"contracts/Presale.sol\":9508:9541  block.timestamp >= presaleEndTime */\n      lt\n      iszero\n        /* \"contracts/Presale.sol\":9487:9601  require(... */\n      tag_428\n      jumpi\n      mload(0x40)\n      0x08c379a000000000000000000000000000000000000000000000000000000000\n      dup2\n      mstore\n      0x04\n      add\n      tag_429\n      swap1\n      tag_248\n      jump\t// in\n    tag_429:\n      mload(0x40)\n      dup1\n      swap2\n      sub\n      swap1\n      revert\n    tag_428:\n        /* \"contracts/Presale.sol\":14806:14857  IERC20(saleToken).safeTransfer(msg.sender, _amount) */\n      tag_431\n        /* \"contracts/Presale.sol\":14837:14847  msg.sender */\n      caller\n        /* \"contracts/Presale.sol\":14849:14856  _amount */\n      dup3\n        /* \"contracts/Presale.sol\":14813:14822  saleToken */\n      0x05\n      0x00\n      swap1\n      sload\n      swap1\n      0x0100\n      exp\n      swap1\n      div\n      0xffffffffffffffffffffffffffffffffffffffff\n      and\n        /* \"contracts/Presale.sol\":14806:14836  IERC20(saleToken).safeTransfer */\n      0xffffffffffffffffffffffffffffffffffffffff\n      and\n      tag_410\n      swap1\n        /* \"contracts/Presale.sol\":14806:14857  IERC20(saleToken).safeTransfer(msg.sender, _amount) */\n      swap3\n      swap2\n      swap1\n      0xffffffff\n      and\n      jump\t// in\n    tag_431:\n        /* \"contracts/Presale.sol\":14704:14864  function withdrawSaleToken(... */\n      pop\n      jump\t// out\n        /* \"contracts/Presale.sol\":8289:8311  uint256[4] public rate */\n    tag_179:\n      0x01\n      dup2\n      0x04\n      dup2\n      lt\n      tag_432\n      jumpi\n      0x00\n      dup1\n      revert\n    tag_432:\n      add\n      0x00\n      swap2\n      pop\n      swap1\n      pop\n      sload\n      dup2\n      jump\t// out\n        /* \"contracts/Presale.sol\":8317:8341  address public saleToken */\n    tag_183:\n      0x05\n      0x00\n      swap1\n      sload\n      swap1\n      0x0100\n      exp\n      swap1\n      div\n      0xffffffffffffffffffffffffffffffffffffffff\n      and\n      dup2\n      jump\t// out\n        /* \"contracts/Presale.sol\":11311:11407  function updateEthRate(uint256[4] memory _rate) external onlyOwner {... */\n    tag_189:\n        /* \"contracts/Presale.sol\":1279:1291  _msgSender() */\n      tag_435\n        /* \"contracts/Presale.sol\":1279:1289  _msgSender */\n      tag_240\n        /* \"contracts/Presale.sol\":1279:1291  _msgSender() */\n      jump\t// in\n    tag_435:\n        /* \"contracts/Presale.sol\":1268:1291  owner() == _msgSender() */\n      0xffffffffffffffffffffffffffffffffffffffff\n      and\n        /* \"contracts/Presale.sol\":1268:1275  owner() */\n      tag_436\n        /* \"contracts/Presale.sol\":1268:1273  owner */\n      tag_140\n        /* \"contracts/Presale.sol\":1268:1275  owner() */\n      jump\t// in\n    tag_436:\n        /* \"contracts/Presale.sol\":1268:1291  owner() == _msgSender() */\n      0xffffffffffffffffffffffffffffffffffffffff\n      and\n      eq\n        /* \"contracts/Presale.sol\":1260:1328  require(owner() == _msgSender(), \"Ownable: caller is not the owner\") */\n      tag_437\n      jumpi\n      mload(0x40)\n      0x08c379a000000000000000000000000000000000000000000000000000000000\n      dup2\n      mstore\n      0x04\n      add\n      tag_438\n      swap1\n      tag_244\n      jump\t// in\n    tag_438:\n      mload(0x40)\n      dup1\n      swap2\n      sub\n      swap1\n      revert\n    tag_437:\n        /* \"contracts/Presale.sol\":11395:11400  _rate */\n      dup1\n        /* \"contracts/Presale.sol\":11388:11392  rate */\n      0x01\n        /* \"contracts/Presale.sol\":11388:11400  rate = _rate */\n      swap1\n      0x04\n      tag_440\n      swap3\n      swap2\n      swap1\n      tag_283\n      jump\t// in\n    tag_440:\n      pop\n        /* \"contracts/Presale.sol\":11311:11407  function updateEthRate(uint256[4] memory _rate) external onlyOwner {... */\n      pop\n      jump\t// out\n        /* \"contracts/Presale.sol\":1457:1689  function transferOwnership(address newOwner) public virtual onlyOwner {... */\n    tag_193:\n        /* \"contracts/Presale.sol\":1279:1291  _msgSender() */\n      tag_442\n        /* \"contracts/Presale.sol\":1279:1289  _msgSender */\n      tag_240\n        /* \"contracts/Presale.sol\":1279:1291  _msgSender() */\n      jump\t// in\n    tag_442:\n        /* \"contracts/Presale.sol\":1268:1291  owner() == _msgSender() */\n      0xffffffffffffffffffffffffffffffffffffffff\n      and\n        /* \"contracts/Presale.sol\":1268:1275  owner() */\n      tag_443\n        /* \"contracts/Presale.sol\":1268:1273  owner */\n      tag_140\n        /* \"contracts/Presale.sol\":1268:1275  owner() */\n      jump\t// in\n    tag_443:\n        /* \"contracts/Presale.sol\":1268:1291  owner() == _msgSender() */\n      0xffffffffffffffffffffffffffffffffffffffff\n      and\n      eq\n        /* \"contracts/Presale.sol\":1260:1328  require(owner() == _msgSender(), \"Ownable: caller is not the owner\") */\n      tag_444\n      jumpi\n      mload(0x40)\n      0x08c379a000000000000000000000000000000000000000000000000000000000\n      dup2\n      mstore\n      0x04\n      add\n      tag_445\n      swap1\n      tag_244\n      jump\t// in\n    tag_445:\n      mload(0x40)\n      dup1\n      swap2\n      sub\n      swap1\n      revert\n    tag_444:\n        /* \"contracts/Presale.sol\":1578:1579  0 */\n      0x00\n        /* \"contracts/Presale.sol\":1558:1580  newOwner != address(0) */\n      0xffffffffffffffffffffffffffffffffffffffff\n      and\n        /* \"contracts/Presale.sol\":1558:1566  newOwner */\n      dup2\n        /* \"contracts/Presale.sol\":1558:1580  newOwner != address(0) */\n      0xffffffffffffffffffffffffffffffffffffffff\n      and\n      sub\n        /* \"contracts/Presale.sol\":1537:1644  require(... */\n      tag_447\n      jumpi\n      mload(0x40)\n      0x08c379a000000000000000000000000000000000000000000000000000000000\n      dup2\n      mstore\n      0x04\n      add\n      tag_448\n      swap1\n      tag_449\n      jump\t// in\n    tag_448:\n      mload(0x40)\n      dup1\n      swap2\n      sub\n      swap1\n      revert\n    tag_447:\n        /* \"contracts/Presale.sol\":1654:1682  _transferOwnership(newOwner) */\n      tag_450\n        /* \"contracts/Presale.sol\":1673:1681  newOwner */\n      dup2\n        /* \"contracts/Presale.sol\":1654:1672  _transferOwnership */\n      tag_341\n        /* \"contracts/Presale.sol\":1654:1682  _transferOwnership(newOwner) */\n      jump\t// in\n    tag_450:\n        /* \"contracts/Presale.sol\":1457:1689  function transferOwnership(address newOwner) public virtual onlyOwner {... */\n      pop\n      jump\t// out\n        /* \"contracts/Presale.sol\":15072:15355  function withdraw(address token, uint256 amt) public onlyOwner {... */\n    tag_197:\n        /* \"contracts/Presale.sol\":1279:1291  _msgSender() */\n      tag_452\n        /* \"contracts/Presale.sol\":1279:1289  _msgSender */\n      tag_240\n        /* \"contracts/Presale.sol\":1279:1291  _msgSender() */\n      jump\t// in\n    tag_452:\n        /* \"contracts/Presale.sol\":1268:1291  owner() == _msgSender() */\n      0xffffffffffffffffffffffffffffffffffffffff\n      and\n        /* \"contracts/Presale.sol\":1268:1275  owner() */\n      tag_453\n        /* \"contracts/Presale.sol\":1268:1273  owner */\n      tag_140\n        /* \"contracts/Presale.sol\":1268:1275  owner() */\n      jump\t// in\n    tag_453:\n        /* \"contracts/Presale.sol\":1268:1291  owner() == _msgSender() */\n      0xffffffffffffffffffffffffffffffffffffffff\n      and\n      eq\n        /* \"contracts/Presale.sol\":1260:1328  require(owner() == _msgSender(), \"Ownable: caller is not the owner\") */\n      tag_454\n      jumpi\n      mload(0x40)\n      0x08c379a000000000000000000000000000000000000000000000000000000000\n      dup2\n      mstore\n      0x04\n      add\n      tag_455\n      swap1\n      tag_244\n      jump\t// in\n    tag_455:\n      mload(0x40)\n      dup1\n      swap2\n      sub\n      swap1\n      revert\n    tag_454:\n        /* \"contracts/Presale.sol\":15175:15184  saleToken */\n      0x05\n      0x00\n      swap1\n      sload\n      swap1\n      0x0100\n      exp\n      swap1\n      div\n      0xffffffffffffffffffffffffffffffffffffffff\n      and\n        /* \"contracts/Presale.sol\":15166:15184  token != saleToken */\n      0xffffffffffffffffffffffffffffffffffffffff\n      and\n        /* \"contracts/Presale.sol\":15166:15171  token */\n      dup3\n        /* \"contracts/Presale.sol\":15166:15184  token != saleToken */\n      0xffffffffffffffffffffffffffffffffffffffff\n      and\n      sub\n        /* \"contracts/Presale.sol\":15145:15295  require(... */\n      tag_457\n      jumpi\n      mload(0x40)\n      0x08c379a000000000000000000000000000000000000000000000000000000000\n      dup2\n      mstore\n      0x04\n      add\n      tag_458\n      swap1\n      tag_459\n      jump\t// in\n    tag_458:\n      mload(0x40)\n      dup1\n      swap2\n      sub\n      swap1\n      revert\n    tag_457:\n        /* \"contracts/Presale.sol\":15305:15348  IERC20(token).safeTransfer(msg.sender, amt) */\n      tag_460\n        /* \"contracts/Presale.sol\":15332:15342  msg.sender */\n      caller\n        /* \"contracts/Presale.sol\":15344:15347  amt */\n      dup3\n        /* \"contracts/Presale.sol\":15312:15317  token */\n      dup5\n        /* \"contracts/Presale.sol\":15305:15331  IERC20(token).safeTransfer */\n      0xffffffffffffffffffffffffffffffffffffffff\n      and\n      tag_410\n      swap1\n        /* \"contracts/Presale.sol\":15305:15348  IERC20(token).safeTransfer(msg.sender, amt) */\n      swap3\n      swap2\n      swap1\n      0xffffffff\n      and\n      jump\t// in\n    tag_460:\n        /* \"contracts/Presale.sol\":15072:15355  function withdraw(address token, uint256 amt) public onlyOwner {... */\n      pop\n      pop\n      jump\t// out\n        /* \"contracts/Presale.sol\":15361:15676  function withdrawAll(address token) public onlyOwner {... */\n    tag_201:\n        /* \"contracts/Presale.sol\":1279:1291  _msgSender() */\n      tag_462\n        /* \"contracts/Presale.sol\":1279:1289  _msgSender */\n      tag_240\n        /* \"contracts/Presale.sol\":1279:1291  _msgSender() */\n      jump\t// in\n    tag_462:\n        /* \"contracts/Presale.sol\":1268:1291  owner() == _msgSender() */\n      0xffffffffffffffffffffffffffffffffffffffff\n      and\n        /* \"contracts/Presale.sol\":1268:1275  owner() */\n      tag_463\n        /* \"contracts/Presale.sol\":1268:1273  owner */\n      tag_140\n        /* \"contracts/Presale.sol\":1268:1275  owner() */\n      jump\t// in\n    tag_463:\n        /* \"contracts/Presale.sol\":1268:1291  owner() == _msgSender() */\n      0xffffffffffffffffffffffffffffffffffffffff\n      and\n      eq\n        /* \"contracts/Presale.sol\":1260:1328  require(owner() == _msgSender(), \"Ownable: caller is not the owner\") */\n      tag_464\n      jumpi\n      mload(0x40)\n      0x08c379a000000000000000000000000000000000000000000000000000000000\n      dup2\n      mstore\n      0x04\n      add\n      tag_465\n      swap1\n      tag_244\n      jump\t// in\n    tag_465:\n      mload(0x40)\n      dup1\n      swap2\n      sub\n      swap1\n      revert\n    tag_464:\n        /* \"contracts/Presale.sol\":15454:15463  saleToken */\n      0x05\n      0x00\n      swap1\n      sload\n      swap1\n      0x0100\n      exp\n      swap1\n      div\n      0xffffffffffffffffffffffffffffffffffffffff\n      and\n        /* \"contracts/Presale.sol\":15445:15463  token != saleToken */\n      0xffffffffffffffffffffffffffffffffffffffff\n      and\n        /* \"contracts/Presale.sol\":15445:15450  token */\n      dup2\n        /* \"contracts/Presale.sol\":15445:15463  token != saleToken */\n      0xffffffffffffffffffffffffffffffffffffffff\n      and\n      sub\n        /* \"contracts/Presale.sol\":15424:15577  require(... */\n      tag_467\n      jumpi\n      mload(0x40)\n      0x08c379a000000000000000000000000000000000000000000000000000000000\n      dup2\n      mstore\n      0x04\n      add\n      tag_468\n      swap1\n      tag_469\n      jump\t// in\n    tag_468:\n      mload(0x40)\n      dup1\n      swap2\n      sub\n      swap1\n      revert\n    tag_467:\n        /* \"contracts/Presale.sol\":15587:15598  uint256 amt */\n      0x00\n        /* \"contracts/Presale.sol\":15608:15613  token */\n      dup2\n        /* \"contracts/Presale.sol\":15601:15624  IERC20(token).balanceOf */\n      0xffffffffffffffffffffffffffffffffffffffff\n      and\n      0x70a08231\n        /* \"contracts/Presale.sol\":15633:15637  this */\n      address\n        /* \"contracts/Presale.sol\":15601:15639  IERC20(token).balanceOf(address(this)) */\n      mload(0x40)\n      dup3\n      0xffffffff\n      and\n      0xe0\n      shl\n      dup2\n      mstore\n      0x04\n      add\n      tag_470\n      swap2\n      swap1\n      tag_142\n      jump\t// in\n    tag_470:\n      0x20\n      mload(0x40)\n      dup1\n      dup4\n      sub\n      dup2\n      dup7\n      gas\n      staticcall\n      iszero\n      dup1\n      iszero\n      tag_472\n      jumpi\n      returndatasize\n      0x00\n      dup1\n      returndatacopy\n      revert(0x00, returndatasize)\n    tag_472:\n      pop\n      pop\n      pop\n      pop\n      mload(0x40)\n      returndatasize\n      not(0x1f)\n      0x1f\n      dup3\n      add\n      and\n      dup3\n      add\n      dup1\n      0x40\n      mstore\n      pop\n      dup2\n      add\n      swap1\n      tag_473\n      swap2\n      swap1\n      tag_370\n      jump\t// in\n    tag_473:\n        /* \"contracts/Presale.sol\":15587:15639  uint256 amt = IERC20(token).balanceOf(address(this)) */\n      swap1\n      pop\n        /* \"contracts/Presale.sol\":15649:15669  withdraw(token, amt) */\n      tag_474\n        /* \"contracts/Presale.sol\":15658:15663  token */\n      dup3\n        /* \"contracts/Presale.sol\":15665:15668  amt */\n      dup3\n        /* \"contracts/Presale.sol\":15649:15657  withdraw */\n      tag_197\n        /* \"contracts/Presale.sol\":15649:15669  withdraw(token, amt) */\n      jump\t// in\n    tag_474:\n        /* \"contracts/Presale.sol\":15414:15676  {... */\n      pop\n        /* \"contracts/Presale.sol\":15361:15676  function withdrawAll(address token) public onlyOwner {... */\n      pop\n      jump\t// out\n        /* \"contracts/Presale.sol\":14870:15066  function withdrawAllSaleToken() external onlyOwner isPresaleEnded {... */\n    tag_204:\n        /* \"contracts/Presale.sol\":1279:1291  _msgSender() */\n      tag_476\n        /* \"contracts/Presale.sol\":1279:1289  _msgSender */\n      tag_240\n        /* \"contracts/Presale.sol\":1279:1291  _msgSender() */\n      jump\t// in\n    tag_476:\n        /* \"contracts/Presale.sol\":1268:1291  owner() == _msgSender() */\n      0xffffffffffffffffffffffffffffffffffffffff\n      and\n        /* \"contracts/Presale.sol\":1268:1275  owner() */\n      tag_477\n        /* \"contracts/Presale.sol\":1268:1273  owner */\n      tag_140\n        /* \"contracts/Presale.sol\":1268:1275  owner() */\n      jump\t// in\n    tag_477:\n        /* \"contracts/Presale.sol\":1268:1291  owner() == _msgSender() */\n      0xffffffffffffffffffffffffffffffffffffffff\n      and\n      eq\n        /* \"contracts/Presale.sol\":1260:1328  require(owner() == _msgSender(), \"Ownable: caller is not the owner\") */\n      tag_478\n      jumpi\n      mload(0x40)\n      0x08c379a000000000000000000000000000000000000000000000000000000000\n      dup2\n      mstore\n      0x04\n      add\n      tag_479\n      swap1\n      tag_244\n      jump\t// in\n    tag_479:\n      mload(0x40)\n      dup1\n      swap2\n      sub\n      swap1\n      revert\n    tag_478:\n        /* \"contracts/Presale.sol\":9527:9541  presaleEndTime */\n      sload(0x0d)\n        /* \"contracts/Presale.sol\":9508:9523  block.timestamp */\n      timestamp\n        /* \"contracts/Presale.sol\":9508:9541  block.timestamp >= presaleEndTime */\n      lt\n      iszero\n        /* \"contracts/Presale.sol\":9487:9601  require(... */\n      tag_481\n      jumpi\n      mload(0x40)\n      0x08c379a000000000000000000000000000000000000000000000000000000000\n      dup2\n      mstore\n      0x04\n      add\n      tag_482\n      swap1\n      tag_248\n      jump\t// in\n    tag_482:\n      mload(0x40)\n      dup1\n      swap2\n      sub\n      swap1\n      revert\n    tag_481:\n        /* \"contracts/Presale.sol\":14946:14957  uint256 amt */\n      0x00\n        /* \"contracts/Presale.sol\":14967:14976  saleToken */\n      0x05\n      0x00\n      swap1\n      sload\n      swap1\n      0x0100\n      exp\n      swap1\n      div\n      0xffffffffffffffffffffffffffffffffffffffff\n      and\n        /* \"contracts/Presale.sol\":14960:14987  IERC20(saleToken).balanceOf */\n      0xffffffffffffffffffffffffffffffffffffffff\n      and\n      0x70a08231\n        /* \"contracts/Presale.sol\":14996:15000  this */\n      address\n        /* \"contracts/Presale.sol\":14960:15002  IERC20(saleToken).balanceOf(address(this)) */\n      mload(0x40)\n      dup3\n      0xffffffff\n      and\n      0xe0\n      shl\n      dup2\n      mstore\n      0x04\n      add\n      tag_484\n      swap2\n      swap1\n      tag_142\n      jump\t// in\n    tag_484:\n      0x20\n      mload(0x40)\n      dup1\n      dup4\n      sub\n      dup2\n      dup7\n      gas\n      staticcall\n      iszero\n      dup1\n      iszero\n      tag_486\n      jumpi\n      returndatasize\n      0x00\n      dup1\n      returndatacopy\n      revert(0x00, returndatasize)\n    tag_486:\n      pop\n      pop\n      pop\n      pop\n      mload(0x40)\n      returndatasize\n      not(0x1f)\n      0x1f\n      dup3\n      add\n      and\n      dup3\n      add\n      dup1\n      0x40\n      mstore\n      pop\n      dup2\n      add\n      swap1\n      tag_487\n      swap2\n      swap1\n      tag_370\n      jump\t// in\n    tag_487:\n        /* \"contracts/Presale.sol\":14946:15002  uint256 amt = IERC20(saleToken).balanceOf(address(this)) */\n      swap1\n      pop\n        /* \"contracts/Presale.sol\":15012:15059  IERC20(saleToken).safeTransfer(msg.sender, amt) */\n      tag_488\n        /* \"contracts/Presale.sol\":15043:15053  msg.sender */\n      caller\n        /* \"contracts/Presale.sol\":15055:15058  amt */\n      dup3\n        /* \"contracts/Presale.sol\":15019:15028  saleToken */\n      0x05\n      0x00\n      swap1\n      sload\n      swap1\n      0x0100\n      exp\n      swap1\n      div\n      0xffffffffffffffffffffffffffffffffffffffff\n      and\n        /* \"contracts/Presale.sol\":15012:15042  IERC20(saleToken).safeTransfer */\n      0xffffffffffffffffffffffffffffffffffffffff\n      and\n      tag_410\n      swap1\n        /* \"contracts/Presale.sol\":15012:15059  IERC20(saleToken).safeTransfer(msg.sender, amt) */\n      swap3\n      swap2\n      swap1\n      0xffffffff\n      and\n      jump\t// in\n    tag_488:\n        /* \"contracts/Presale.sol\":14936:15066  {... */\n      pop\n        /* \"contracts/Presale.sol\":14870:15066  function withdrawAllSaleToken() external onlyOwner isPresaleEnded {... */\n      jump\t// out\n        /* \"@openzeppelin/contracts/utils/Context.sol\":656:752  function _msgSender() internal view virtual returns (address) {... */\n    tag_240:\n        /* \"@openzeppelin/contracts/utils/Context.sol\":709:716  address */\n      0x00\n        /* \"@openzeppelin/contracts/utils/Context.sol\":735:745  msg.sender */\n      caller\n        /* \"@openzeppelin/contracts/utils/Context.sol\":728:745  return msg.sender */\n      swap1\n      pop\n        /* \"@openzeppelin/contracts/utils/Context.sol\":656:752  function _msgSender() internal view virtual returns (address) {... */\n      swap1\n      jump\t// out\n        /* \"@openzeppelin/contracts/security/Pausable.sol\":2186:2301  function _pause() internal virtual whenNotPaused {... */\n    tag_268:\n        /* \"@openzeppelin/contracts/security/Pausable.sol\":1239:1258  _requireNotPaused() */\n      tag_491\n        /* \"@openzeppelin/contracts/security/Pausable.sol\":1239:1256  _requireNotPaused */\n      tag_298\n        /* \"@openzeppelin/contracts/security/Pausable.sol\":1239:1258  _requireNotPaused() */\n      jump\t// in\n    tag_491:\n        /* \"@openzeppelin/contracts/security/Pausable.sol\":2255:2259  true */\n      0x01\n        /* \"@openzeppelin/contracts/security/Pausable.sol\":2245:2252  _paused */\n      0x00\n      0x14\n        /* \"@openzeppelin/contracts/security/Pausable.sol\":2245:2259  _paused = true */\n      0x0100\n      exp\n      dup2\n      sload\n      dup2\n      0xff\n      mul\n      not\n      and\n      swap1\n      dup4\n      iszero\n      iszero\n      mul\n      or\n      swap1\n      sstore\n      pop\n        /* \"@openzeppelin/contracts/security/Pausable.sol\":2274:2294  Paused(_msgSender()) */\n      0x62e78cea01bee320cd4e420270b5ea74000d11b0c9f74754ebdbfc544b05a258\n        /* \"@openzeppelin/contracts/security/Pausable.sol\":2281:2293  _msgSender() */\n      tag_493\n        /* \"@openzeppelin/contracts/security/Pausable.sol\":2281:2291  _msgSender */\n      tag_240\n        /* \"@openzeppelin/contracts/security/Pausable.sol\":2281:2293  _msgSender() */\n      jump\t// in\n    tag_493:\n        /* \"@openzeppelin/contracts/security/Pausable.sol\":2274:2294  Paused(_msgSender()) */\n      mload(0x40)\n      tag_494\n      swap2\n      swap1\n      tag_142\n      jump\t// in\n    tag_494:\n      mload(0x40)\n      dup1\n      swap2\n      sub\n      swap1\n      log1\n        /* \"@openzeppelin/contracts/security/Pausable.sol\":2186:2301  function _pause() internal virtual whenNotPaused {... */\n      jump\t// out\n        /* \"@openzeppelin/contracts/security/Pausable.sol\":1767:1873  function _requireNotPaused() internal view virtual {... */\n    tag_298:\n        /* \"@openzeppelin/contracts/security/Pausable.sol\":1837:1845  paused() */\n      tag_496\n        /* \"@openzeppelin/contracts/security/Pausable.sol\":1837:1843  paused */\n      tag_87\n        /* \"@openzeppelin/contracts/security/Pausable.sol\":1837:1845  paused() */\n      jump\t// in\n    tag_496:\n        /* \"@openzeppelin/contracts/security/Pausable.sol\":1836:1845  !paused() */\n      iszero\n        /* \"@openzeppelin/contracts/security/Pausable.sol\":1828:1866  require(!paused(), \"Pausable: paused\") */\n      tag_497\n      jumpi\n      mload(0x40)\n      0x08c379a000000000000000000000000000000000000000000000000000000000\n      dup2\n      mstore\n      0x04\n      add\n      tag_498\n      swap1\n      tag_499\n      jump\t// in\n    tag_498:\n      mload(0x40)\n      dup1\n      swap2\n      sub\n      swap1\n      revert\n    tag_497:\n        /* \"@openzeppelin/contracts/security/Pausable.sol\":1767:1873  function _requireNotPaused() internal view virtual {... */\n      jump\t// out\n        /* \"contracts/Presale.sol\":5677:5952  function safeTransferFrom(... */\n    tag_323:\n        /* \"contracts/Presale.sol\":5815:5945  _callOptionalReturn(... */\n      tag_501\n        /* \"contracts/Presale.sol\":5848:5853  token */\n      dup5\n        /* \"contracts/Presale.sol\":5890:5917  token.transferFrom.selector */\n      shl(0xe0, 0x23b872dd)\n        /* \"contracts/Presale.sol\":5919:5923  from */\n      dup6\n        /* \"contracts/Presale.sol\":5925:5927  to */\n      dup6\n        /* \"contracts/Presale.sol\":5929:5934  value */\n      dup6\n        /* \"contracts/Presale.sol\":5867:5935  abi.encodeWithSelector(token.transferFrom.selector, from, to, value) */\n      add(0x24, mload(0x40))\n      tag_502\n      swap4\n      swap3\n      swap2\n      swap1\n      tag_503\n      jump\t// in\n    tag_502:\n      mload(0x40)\n      0x20\n      dup2\n      dup4\n      sub\n      sub\n      dup2\n      mstore\n      swap1\n      0x40\n      mstore\n      swap1\n      not(0xffffffffffffffffffffffffffffffffffffffffffffffffffffffff)\n      and\n      0x20\n      dup3\n      add\n      dup1\n      mload\n      0xffffffffffffffffffffffffffffffffffffffffffffffffffffffff\n      dup4\n      dup2\n      dup4\n      and\n      or\n      dup4\n      mstore\n      pop\n      pop\n      pop\n      pop\n        /* \"contracts/Presale.sol\":5815:5834  _callOptionalReturn */\n      tag_504\n        /* \"contracts/Presale.sol\":5815:5945  _callOptionalReturn(... */\n      jump\t// in\n    tag_501:\n        /* \"contracts/Presale.sol\":5677:5952  function safeTransferFrom(... */\n      pop\n      pop\n      pop\n      pop\n      jump\t// out\n        /* \"contracts/Presale.sol\":1694:1881  function _transferOwnership(address newOwner) internal virtual {... */\n    tag_341:\n        /* \"contracts/Presale.sol\":1767:1783  address oldOwner */\n      0x00\n        /* \"contracts/Presale.sol\":1786:1792  _owner */\n      dup1\n      0x00\n      swap1\n      sload\n      swap1\n      0x0100\n      exp\n      swap1\n      div\n      0xffffffffffffffffffffffffffffffffffffffff\n      and\n        /* \"contracts/Presale.sol\":1767:1792  address oldOwner = _owner */\n      swap1\n      pop\n        /* \"contracts/Presale.sol\":1811:1819  newOwner */\n      dup2\n        /* \"contracts/Presale.sol\":1802:1808  _owner */\n      0x00\n      dup1\n        /* \"contracts/Presale.sol\":1802:1819  _owner = newOwner */\n      0x0100\n      exp\n      dup2\n      sload\n      dup2\n      0xffffffffffffffffffffffffffffffffffffffff\n      mul\n      not\n      and\n      swap1\n      dup4\n      0xffffffffffffffffffffffffffffffffffffffff\n      and\n      mul\n      or\n      swap1\n      sstore\n      pop\n        /* \"contracts/Presale.sol\":1865:1873  newOwner */\n      dup2\n        /* \"contracts/Presale.sol\":1834:1874  OwnershipTransferred(oldOwner, newOwner) */\n      0xffffffffffffffffffffffffffffffffffffffff\n      and\n        /* \"contracts/Presale.sol\":1855:1863  oldOwner */\n      dup2\n        /* \"contracts/Presale.sol\":1834:1874  OwnershipTransferred(oldOwner, newOwner) */\n      0xffffffffffffffffffffffffffffffffffffffff\n      and\n      0x8be0079c531659141344cd1fd0a4f28419497f9722a3daafe3b4186f6b6457e0\n      mload(0x40)\n      mload(0x40)\n      dup1\n      swap2\n      sub\n      swap1\n      log3\n        /* \"contracts/Presale.sol\":1757:1881  {... */\n      pop\n        /* \"contracts/Presale.sol\":1694:1881  function _transferOwnership(address newOwner) internal virtual {... */\n      pop\n      jump\t// out\n        /* \"@openzeppelin/contracts/security/Pausable.sol\":2433:2550  function _unpause() internal virtual whenPaused {... */\n    tag_387:\n        /* \"@openzeppelin/contracts/security/Pausable.sol\":1486:1502  _requirePaused() */\n      tag_507\n        /* \"@openzeppelin/contracts/security/Pausable.sol\":1486:1500  _requirePaused */\n      tag_508\n        /* \"@openzeppelin/contracts/security/Pausable.sol\":1486:1502  _requirePaused() */\n      jump\t// in\n    tag_507:\n        /* \"@openzeppelin/contracts/security/Pausable.sol\":2501:2506  false */\n      0x00\n        /* \"@openzeppelin/contracts/security/Pausable.sol\":2491:2498  _paused */\n      dup1\n      0x14\n        /* \"@openzeppelin/contracts/security/Pausable.sol\":2491:2506  _paused = false */\n      0x0100\n      exp\n      dup2\n      sload\n      dup2\n      0xff\n      mul\n      not\n      and\n      swap1\n      dup4\n      iszero\n      iszero\n      mul\n      or\n      swap1\n      sstore\n      pop\n        /* \"@openzeppelin/contracts/security/Pausable.sol\":2521:2543  Unpaused(_msgSender()) */\n      0x5db9ee0a495bf2e6ff9c91a7834c1ba4fdd244a5e8aa4e537bd38aeae4b073aa\n        /* \"@openzeppelin/contracts/security/Pausable.sol\":2530:2542  _msgSender() */\n      tag_510\n        /* \"@openzeppelin/contracts/security/Pausable.sol\":2530:2540  _msgSender */\n      tag_240\n        /* \"@openzeppelin/contracts/security/Pausable.sol\":2530:2542  _msgSender() */\n      jump\t// in\n    tag_510:\n        /* \"@openzeppelin/contracts/security/Pausable.sol\":2521:2543  Unpaused(_msgSender()) */\n      mload(0x40)\n      tag_511\n      swap2\n      swap1\n      tag_142\n      jump\t// in\n    tag_511:\n      mload(0x40)\n      dup1\n      swap2\n      sub\n      swap1\n      log1\n        /* \"@openzeppelin/contracts/security/Pausable.sol\":2433:2550  function _unpause() internal virtual whenPaused {... */\n      jump\t// out\n        /* \"contracts/Presale.sol\":5462:5671  function safeTransfer(IERC20 token, address to, uint256 value) internal {... */\n    tag_410:\n        /* \"contracts/Presale.sol\":5544:5664  _callOptionalReturn(... */\n      tag_513\n        /* \"contracts/Presale.sol\":5577:5582  token */\n      dup4\n        /* \"contracts/Presale.sol\":5619:5642  token.transfer.selector */\n      shl(0xe0, 0xa9059cbb)\n        /* \"contracts/Presale.sol\":5644:5646  to */\n      dup5\n        /* \"contracts/Presale.sol\":5648:5653  value */\n      dup5\n        /* \"contracts/Presale.sol\":5596:5654  abi.encodeWithSelector(token.transfer.selector, to, value) */\n      add(0x24, mload(0x40))\n      tag_514\n      swap3\n      swap2\n      swap1\n      tag_372\n      jump\t// in\n    tag_514:\n      mload(0x40)\n      0x20\n      dup2\n      dup4\n      sub\n      sub\n      dup2\n      mstore\n      swap1\n      0x40\n      mstore\n      swap1\n      not(0xffffffffffffffffffffffffffffffffffffffffffffffffffffffff)\n      and\n      0x20\n      dup3\n      add\n      dup1\n      mload\n      0xffffffffffffffffffffffffffffffffffffffffffffffffffffffff\n      dup4\n      dup2\n      dup4\n      and\n      or\n      dup4\n      mstore\n      pop\n      pop\n      pop\n      pop\n        /* \"contracts/Presale.sol\":5544:5563  _callOptionalReturn */\n      tag_504\n        /* \"contracts/Presale.sol\":5544:5664  _callOptionalReturn(... */\n      jump\t// in\n    tag_513:\n        /* \"contracts/Presale.sol\":5462:5671  function safeTransfer(IERC20 token, address to, uint256 value) internal {... */\n      pop\n      pop\n      pop\n      jump\t// out\n        /* \"contracts/Presale.sol\":7456:7903  function _callOptionalReturn(IERC20 token, bytes memory data) private {... */\n    tag_504:\n        /* \"contracts/Presale.sol\":7536:7559  bytes memory returndata */\n      0x00\n        /* \"contracts/Presale.sol\":7562:7665  address(token).functionCall(... */\n      tag_516\n        /* \"contracts/Presale.sol\":7603:7607  data */\n      dup3\n        /* \"contracts/Presale.sol\":7562:7665  address(token).functionCall(... */\n      mload(0x40)\n      dup1\n      0x40\n      add\n      0x40\n      mstore\n      dup1\n      0x20\n      dup2\n      mstore\n      0x20\n      add\n      0x5361666545524332303a206c6f772d6c6576656c2063616c6c206661696c6564\n      dup2\n      mstore\n      pop\n        /* \"contracts/Presale.sol\":7570:7575  token */\n      dup6\n        /* \"contracts/Presale.sol\":7562:7589  address(token).functionCall */\n      0xffffffffffffffffffffffffffffffffffffffff\n      and\n      tag_517\n      swap1\n        /* \"contracts/Presale.sol\":7562:7665  address(token).functionCall(... */\n      swap3\n      swap2\n      swap1\n      0xffffffff\n      and\n      jump\t// in\n    tag_516:\n        /* \"contracts/Presale.sol\":7536:7665  bytes memory returndata = address(token).functionCall(... */\n      swap1\n      pop\n        /* \"contracts/Presale.sol\":7699:7700  0 */\n      0x00\n        /* \"contracts/Presale.sol\":7679:7689  returndata */\n      dup2\n        /* \"contracts/Presale.sol\":7679:7696  returndata.length */\n      mload\n        /* \"contracts/Presale.sol\":7679:7700  returndata.length > 0 */\n      gt\n        /* \"contracts/Presale.sol\":7675:7897  if (returndata.length > 0) {... */\n      iszero\n      tag_518\n      jumpi\n        /* \"contracts/Presale.sol\":7791:7801  returndata */\n      dup1\n        /* \"contracts/Presale.sol\":7780:7810  abi.decode(returndata, (bool)) */\n      dup1\n      0x20\n      add\n      swap1\n      mload\n      dup2\n      add\n      swap1\n      tag_519\n      swap2\n      swap1\n      tag_520\n      jump\t// in\n    tag_519:\n        /* \"contracts/Presale.sol\":7755:7886  require(... */\n      tag_521\n      jumpi\n      mload(0x40)\n      0x08c379a000000000000000000000000000000000000000000000000000000000\n      dup2\n      mstore\n      0x04\n      add\n      tag_522\n      swap1\n      tag_523\n      jump\t// in\n    tag_522:\n      mload(0x40)\n      dup1\n      swap2\n      sub\n      swap1\n      revert\n    tag_521:\n        /* \"contracts/Presale.sol\":7675:7897  if (returndata.length > 0) {... */\n    tag_518:\n        /* \"contracts/Presale.sol\":7526:7903  {... */\n      pop\n        /* \"contracts/Presale.sol\":7456:7903  function _callOptionalReturn(IERC20 token, bytes memory data) private {... */\n      pop\n      pop\n      jump\t// out\n        /* \"@openzeppelin/contracts/security/Pausable.sol\":1945:2051  function _requirePaused() internal view virtual {... */\n    tag_508:\n        /* \"@openzeppelin/contracts/security/Pausable.sol\":2011:2019  paused() */\n      tag_525\n        /* \"@openzeppelin/contracts/security/Pausable.sol\":2011:2017  paused */\n      tag_87\n        /* \"@openzeppelin/contracts/security/Pausable.sol\":2011:2019  paused() */\n      jump\t// in\n    tag_525:\n        /* \"@openzeppelin/contracts/security/Pausable.sol\":2003:2044  require(paused(), \"Pausable: not paused\") */\n      tag_526\n      jumpi\n      mload(0x40)\n      0x08c379a000000000000000000000000000000000000000000000000000000000\n      dup2\n      mstore\n      0x04\n      add\n      tag_527\n      swap1\n      tag_528\n      jump\t// in\n    tag_527:\n      mload(0x40)\n      dup1\n      swap2\n      sub\n      swap1\n      revert\n    tag_526:\n        /* \"@openzeppelin/contracts/security/Pausable.sol\":1945:2051  function _requirePaused() internal view virtual {... */\n      jump\t// out\n        /* \"contracts/Presale.sol\":2327:2550  function functionCall(... */\n    tag_517:\n        /* \"contracts/Presale.sol\":2460:2472  bytes memory */\n      0x60\n        /* \"contracts/Presale.sol\":2491:2543  functionCallWithValue(target, data, 0, errorMessage) */\n      tag_530\n        /* \"contracts/Presale.sol\":2513:2519  target */\n      dup5\n        /* \"contracts/Presale.sol\":2521:2525  data */\n      dup5\n        /* \"contracts/Presale.sol\":2527:2528  0 */\n      0x00\n        /* \"contracts/Presale.sol\":2530:2542  errorMessage */\n      dup6\n        /* \"contracts/Presale.sol\":2491:2512  functionCallWithValue */\n      tag_531\n        /* \"contracts/Presale.sol\":2491:2543  functionCallWithValue(target, data, 0, errorMessage) */\n      jump\t// in\n    tag_530:\n        /* \"contracts/Presale.sol\":2484:2543  return functionCallWithValue(target, data, 0, errorMessage) */\n      swap1\n      pop\n        /* \"contracts/Presale.sol\":2327:2550  function functionCall(... */\n      swap4\n      swap3\n      pop\n      pop\n      pop\n      jump\t// out\n        /* \"contracts/Presale.sol\":2904:3459  function functionCallWithValue(... */\n    tag_531:\n        /* \"contracts/Presale.sol\":3069:3081  bytes memory */\n      0x60\n        /* \"contracts/Presale.sol\":3139:3144  value */\n      dup3\n        /* \"contracts/Presale.sol\":3114:3135  address(this).balance */\n      selfbalance\n        /* \"contracts/Presale.sol\":3114:3144  address(this).balance >= value */\n      lt\n      iszero\n        /* \"contracts/Presale.sol\":3093:3208  require(... */\n      tag_533\n      jumpi\n      mload(0x40)\n      0x08c379a000000000000000000000000000000000000000000000000000000000\n      dup2\n      mstore\n      0x04\n      add\n      tag_534\n      swap1\n      tag_535\n      jump\t// in\n    tag_534:\n      mload(0x40)\n      dup1\n      swap2\n      sub\n      swap1\n      revert\n    tag_533:\n        /* \"contracts/Presale.sol\":3226:3244  isContract(target) */\n      tag_536\n        /* \"contracts/Presale.sol\":3237:3243  target */\n      dup6\n        /* \"contracts/Presale.sol\":3226:3236  isContract */\n      tag_537\n        /* \"contracts/Presale.sol\":3226:3244  isContract(target) */\n      jump\t// in\n    tag_536:\n        /* \"contracts/Presale.sol\":3218:3278  require(isContract(target), \"Address: call to non-contract\") */\n      tag_538\n      jumpi\n      mload(0x40)\n      0x08c379a000000000000000000000000000000000000000000000000000000000\n      dup2\n      mstore\n      0x04\n      add\n      tag_539\n      swap1\n      tag_540\n      jump\t// in\n    tag_539:\n      mload(0x40)\n      dup1\n      swap2\n      sub\n      swap1\n      revert\n    tag_538:\n        /* \"contracts/Presale.sol\":3290:3302  bool success */\n      0x00\n        /* \"contracts/Presale.sol\":3304:3327  bytes memory returndata */\n      dup1\n        /* \"contracts/Presale.sol\":3331:3337  target */\n      dup7\n        /* \"contracts/Presale.sol\":3331:3342  target.call */\n      0xffffffffffffffffffffffffffffffffffffffff\n      and\n        /* \"contracts/Presale.sol\":3350:3355  value */\n      dup6\n        /* \"contracts/Presale.sol\":3370:3374  data */\n      dup8\n        /* \"contracts/Presale.sol\":3331:3384  target.call{value: value}(... */\n      mload(0x40)\n      tag_541\n      swap2\n      swap1\n      tag_542\n      jump\t// in\n    tag_541:\n      0x00\n      mload(0x40)\n      dup1\n      dup4\n      sub\n      dup2\n      dup6\n      dup8\n      gas\n      call\n      swap3\n      pop\n      pop\n      pop\n      returndatasize\n      dup1\n      0x00\n      dup2\n      eq\n      tag_545\n      jumpi\n      mload(0x40)\n      swap2\n      pop\n      and(add(returndatasize, 0x3f), not(0x1f))\n      dup3\n      add\n      0x40\n      mstore\n      returndatasize\n      dup3\n      mstore\n      returndatasize\n      0x00\n      0x20\n      dup5\n      add\n      returndatacopy\n      jump(tag_544)\n    tag_545:\n      0x60\n      swap2\n      pop\n    tag_544:\n      pop\n        /* \"contracts/Presale.sol\":3289:3384  (bool success, bytes memory returndata) = target.call{value: value}(... */\n      swap2\n      pop\n      swap2\n      pop\n        /* \"contracts/Presale.sol\":3401:3452  verifyCallResult(success, returndata, errorMessage) */\n      tag_546\n        /* \"contracts/Presale.sol\":3418:3425  success */\n      dup3\n        /* \"contracts/Presale.sol\":3427:3437  returndata */\n      dup3\n        /* \"contracts/Presale.sol\":3439:3451  errorMessage */\n      dup7\n        /* \"contracts/Presale.sol\":3401:3417  verifyCallResult */\n      tag_547\n        /* \"contracts/Presale.sol\":3401:3452  verifyCallResult(success, returndata, errorMessage) */\n      jump\t// in\n    tag_546:\n        /* \"contracts/Presale.sol\":3394:3452  return verifyCallResult(success, returndata, errorMessage) */\n      swap3\n      pop\n      pop\n      pop\n        /* \"contracts/Presale.sol\":2904:3459  function functionCallWithValue(... */\n      swap5\n      swap4\n      pop\n      pop\n      pop\n      pop\n      jump\t// out\n        /* \"contracts/Presale.sol\":1932:2122  function isContract(address account) internal view returns (bool) {... */\n    tag_537:\n        /* \"contracts/Presale.sol\":1992:1996  bool */\n      0x00\n        /* \"contracts/Presale.sol\":2008:2020  uint256 size */\n      dup1\n        /* \"contracts/Presale.sol\":2073:2080  account */\n      dup3\n        /* \"contracts/Presale.sol\":2061:2081  extcodesize(account) */\n      extcodesize\n        /* \"contracts/Presale.sol\":2053:2081  size := extcodesize(account) */\n      swap1\n      pop\n        /* \"contracts/Presale.sol\":2114:2115  0 */\n      0x00\n        /* \"contracts/Presale.sol\":2107:2111  size */\n      dup2\n        /* \"contracts/Presale.sol\":2107:2115  size > 0 */\n      gt\n        /* \"contracts/Presale.sol\":2100:2115  return size > 0 */\n      swap2\n      pop\n      pop\n        /* \"contracts/Presale.sol\":1932:2122  function isContract(address account) internal view returns (bool) {... */\n      swap2\n      swap1\n      pop\n      jump\t// out\n        /* \"contracts/Presale.sol\":4844:5377  function verifyCallResult(... */\n    tag_547:\n        /* \"contracts/Presale.sol\":4990:5002  bytes memory */\n      0x60\n        /* \"contracts/Presale.sol\":5018:5025  success */\n      dup4\n        /* \"contracts/Presale.sol\":5014:5371  if (success) {... */\n      iszero\n      tag_550\n      jumpi\n        /* \"contracts/Presale.sol\":5048:5058  returndata */\n      dup3\n        /* \"contracts/Presale.sol\":5041:5058  return returndata */\n      swap1\n      pop\n      jump(tag_549)\n        /* \"contracts/Presale.sol\":5014:5371  if (success) {... */\n    tag_550:\n        /* \"contracts/Presale.sol\":5113:5114  0 */\n      0x00\n        /* \"contracts/Presale.sol\":5093:5103  returndata */\n      dup4\n        /* \"contracts/Presale.sol\":5093:5110  returndata.length */\n      mload\n        /* \"contracts/Presale.sol\":5093:5114  returndata.length > 0 */\n      gt\n        /* \"contracts/Presale.sol\":5089:5361  if (returndata.length > 0) {... */\n      iszero\n      tag_552\n      jumpi\n        /* \"contracts/Presale.sol\":5194:5204  returndata */\n      dup3\n        /* \"contracts/Presale.sol\":5188:5205  mload(returndata) */\n      mload\n        /* \"contracts/Presale.sol\":5254:5269  returndata_size */\n      dup1\n        /* \"contracts/Presale.sol\":5241:5251  returndata */\n      dup5\n        /* \"contracts/Presale.sol\":5237:5239  32 */\n      0x20\n        /* \"contracts/Presale.sol\":5233:5252  add(32, returndata) */\n      add\n        /* \"contracts/Presale.sol\":5226:5270  revert(add(32, returndata), returndata_size) */\n      revert\n        /* \"contracts/Presale.sol\":5089:5361  if (returndata.length > 0) {... */\n    tag_552:\n        /* \"contracts/Presale.sol\":5333:5345  errorMessage */\n      dup2\n        /* \"contracts/Presale.sol\":5326:5346  revert(errorMessage) */\n      mload(0x40)\n      0x08c379a000000000000000000000000000000000000000000000000000000000\n      dup2\n      mstore\n      0x04\n      add\n      tag_554\n      swap2\n      swap1\n      tag_555\n      jump\t// in\n    tag_554:\n      mload(0x40)\n      dup1\n      swap2\n      sub\n      swap1\n      revert\n        /* \"contracts/Presale.sol\":4844:5377  function verifyCallResult(... */\n    tag_549:\n      swap4\n      swap3\n      pop\n      pop\n      pop\n      jump\t// out\n    tag_283:\n      dup3\n      0x04\n      dup2\n      add\n      swap3\n      dup3\n      iszero\n      tag_556\n      jumpi\n      swap2\n      0x20\n      mul\n      dup3\n      add\n    tag_557:\n      dup3\n      dup2\n      gt\n      iszero\n      tag_558\n      jumpi\n      dup3\n      mload\n      dup3\n      sstore\n      swap2\n      0x20\n      add\n      swap2\n      swap1\n      0x01\n      add\n      swap1\n      jump(tag_557)\n    tag_558:\n    tag_556:\n      pop\n      swap1\n      pop\n      tag_559\n      swap2\n      swap1\n      tag_560\n      jump\t// in\n    tag_559:\n      pop\n      swap1\n      jump\t// out\n    tag_560:\n    tag_561:\n      dup1\n      dup3\n      gt\n      iszero\n      tag_562\n      jumpi\n      0x00\n      dup2\n      0x00\n      swap1\n      sstore\n      pop\n      0x01\n      add\n      jump(tag_561)\n    tag_562:\n      pop\n      swap1\n      jump\t// out\n        /* \"#utility.yul\":7:82   */\n    tag_563:\n        /* \"#utility.yul\":40:46   */\n      0x00\n        /* \"#utility.yul\":73:75   */\n      0x40\n        /* \"#utility.yul\":67:76   */\n      mload\n        /* \"#utility.yul\":57:76   */\n      swap1\n      pop\n        /* \"#utility.yul\":7:82   */\n      swap1\n      jump\t// out\n        /* \"#utility.yul\":88:205   */\n    tag_564:\n        /* \"#utility.yul\":197:198   */\n      0x00\n        /* \"#utility.yul\":194:195   */\n      dup1\n        /* \"#utility.yul\":187:199   */\n      revert\n        /* \"#utility.yul\":334:460   */\n    tag_566:\n        /* \"#utility.yul\":371:378   */\n      0x00\n        /* \"#utility.yul\":411:453   */\n      0xffffffffffffffffffffffffffffffffffffffff\n        /* \"#utility.yul\":404:409   */\n      dup3\n        /* \"#utility.yul\":400:454   */\n      and\n        /* \"#utility.yul\":389:454   */\n      swap1\n      pop\n        /* \"#utility.yul\":334:460   */\n      swap2\n      swap1\n      pop\n      jump\t// out\n        /* \"#utility.yul\":466:562   */\n    tag_567:\n        /* \"#utility.yul\":503:510   */\n      0x00\n        /* \"#utility.yul\":532:556   */\n      tag_663\n        /* \"#utility.yul\":550:555   */\n      dup3\n        /* \"#utility.yul\":532:556   */\n      tag_566\n      jump\t// in\n    tag_663:\n        /* \"#utility.yul\":521:556   */\n      swap1\n      pop\n        /* \"#utility.yul\":466:562   */\n      swap2\n      swap1\n      pop\n      jump\t// out\n        /* \"#utility.yul\":568:690   */\n    tag_568:\n        /* \"#utility.yul\":641:665   */\n      tag_665\n        /* \"#utility.yul\":659:664   */\n      dup2\n        /* \"#utility.yul\":641:665   */\n      tag_567\n      jump\t// in\n    tag_665:\n        /* \"#utility.yul\":634:639   */\n      dup2\n        /* \"#utility.yul\":631:666   */\n      eq\n        /* \"#utility.yul\":621:684   */\n      tag_666\n      jumpi\n        /* \"#utility.yul\":680:681   */\n      0x00\n        /* \"#utility.yul\":677:678   */\n      dup1\n        /* \"#utility.yul\":670:682   */\n      revert\n        /* \"#utility.yul\":621:684   */\n    tag_666:\n        /* \"#utility.yul\":568:690   */\n      pop\n      jump\t// out\n        /* \"#utility.yul\":696:835   */\n    tag_569:\n        /* \"#utility.yul\":742:747   */\n      0x00\n        /* \"#utility.yul\":780:786   */\n      dup2\n        /* \"#utility.yul\":767:787   */\n      calldataload\n        /* \"#utility.yul\":758:787   */\n      swap1\n      pop\n        /* \"#utility.yul\":796:829   */\n      tag_668\n        /* \"#utility.yul\":823:828   */\n      dup2\n        /* \"#utility.yul\":796:829   */\n      tag_568\n      jump\t// in\n    tag_668:\n        /* \"#utility.yul\":696:835   */\n      swap3\n      swap2\n      pop\n      pop\n      jump\t// out\n        /* \"#utility.yul\":841:918   */\n    tag_570:\n        /* \"#utility.yul\":878:885   */\n      0x00\n        /* \"#utility.yul\":907:912   */\n      dup2\n        /* \"#utility.yul\":896:912   */\n      swap1\n      pop\n        /* \"#utility.yul\":841:918   */\n      swap2\n      swap1\n      pop\n      jump\t// out\n        /* \"#utility.yul\":924:1046   */\n    tag_571:\n        /* \"#utility.yul\":997:1021   */\n      tag_671\n        /* \"#utility.yul\":1015:1020   */\n      dup2\n        /* \"#utility.yul\":997:1021   */\n      tag_570\n      jump\t// in\n    tag_671:\n        /* \"#utility.yul\":990:995   */\n      dup2\n        /* \"#utility.yul\":987:1022   */\n      eq\n        /* \"#utility.yul\":977:1040   */\n      tag_672\n      jumpi\n        /* \"#utility.yul\":1036:1037   */\n      0x00\n        /* \"#utility.yul\":1033:1034   */\n      dup1\n        /* \"#utility.yul\":1026:1038   */\n      revert\n        /* \"#utility.yul\":977:1040   */\n    tag_672:\n        /* \"#utility.yul\":924:1046   */\n      pop\n      jump\t// out\n        /* \"#utility.yul\":1052:1191   */\n    tag_572:\n        /* \"#utility.yul\":1098:1103   */\n      0x00\n        /* \"#utility.yul\":1136:1142   */\n      dup2\n        /* \"#utility.yul\":1123:1143   */\n      calldataload\n        /* \"#utility.yul\":1114:1143   */\n      swap1\n      pop\n        /* \"#utility.yul\":1152:1185   */\n      tag_674\n        /* \"#utility.yul\":1179:1184   */\n      dup2\n        /* \"#utility.yul\":1152:1185   */\n      tag_571\n      jump\t// in\n    tag_674:\n        /* \"#utility.yul\":1052:1191   */\n      swap3\n      swap2\n      pop\n      pop\n      jump\t// out\n        /* \"#utility.yul\":1197:1671   */\n    tag_50:\n        /* \"#utility.yul\":1265:1271   */\n      0x00\n        /* \"#utility.yul\":1273:1279   */\n      dup1\n        /* \"#utility.yul\":1322:1324   */\n      0x40\n        /* \"#utility.yul\":1310:1319   */\n      dup4\n        /* \"#utility.yul\":1301:1308   */\n      dup6\n        /* \"#utility.yul\":1297:1320   */\n      sub\n        /* \"#utility.yul\":1293:1325   */\n      slt\n        /* \"#utility.yul\":1290:1409   */\n      iszero\n      tag_676\n      jumpi\n        /* \"#utility.yul\":1328:1407   */\n      tag_677\n      tag_564\n      jump\t// in\n    tag_677:\n        /* \"#utility.yul\":1290:1409   */\n    tag_676:\n        /* \"#utility.yul\":1448:1449   */\n      0x00\n        /* \"#utility.yul\":1473:1526   */\n      tag_678\n        /* \"#utility.yul\":1518:1525   */\n      dup6\n        /* \"#utility.yul\":1509:1515   */\n      dup3\n        /* \"#utility.yul\":1498:1507   */\n      dup7\n        /* \"#utility.yul\":1494:1516   */\n      add\n        /* \"#utility.yul\":1473:1526   */\n      tag_569\n      jump\t// in\n    tag_678:\n        /* \"#utility.yul\":1463:1526   */\n      swap3\n      pop\n        /* \"#utility.yul\":1419:1536   */\n      pop\n        /* \"#utility.yul\":1575:1577   */\n      0x20\n        /* \"#utility.yul\":1601:1654   */\n      tag_679\n        /* \"#utility.yul\":1646:1653   */\n      dup6\n        /* \"#utility.yul\":1637:1643   */\n      dup3\n        /* \"#utility.yul\":1626:1635   */\n      dup7\n        /* \"#utility.yul\":1622:1644   */\n      add\n        /* \"#utility.yul\":1601:1654   */\n      tag_572\n      jump\t// in\n    tag_679:\n        /* \"#utility.yul\":1591:1654   */\n      swap2\n      pop\n        /* \"#utility.yul\":1546:1664   */\n      pop\n        /* \"#utility.yul\":1197:1671   */\n      swap3\n      pop\n      swap3\n      swap1\n      pop\n      jump\t// out\n        /* \"#utility.yul\":1677:1795   */\n    tag_573:\n        /* \"#utility.yul\":1764:1788   */\n      tag_681\n        /* \"#utility.yul\":1782:1787   */\n      dup2\n        /* \"#utility.yul\":1764:1788   */\n      tag_570\n      jump\t// in\n    tag_681:\n        /* \"#utility.yul\":1759:1762   */\n      dup3\n        /* \"#utility.yul\":1752:1789   */\n      mstore\n        /* \"#utility.yul\":1677:1795   */\n      pop\n      pop\n      jump\t// out\n        /* \"#utility.yul\":1801:2023   */\n    tag_53:\n        /* \"#utility.yul\":1894:1898   */\n      0x00\n        /* \"#utility.yul\":1932:1934   */\n      0x20\n        /* \"#utility.yul\":1921:1930   */\n      dup3\n        /* \"#utility.yul\":1917:1935   */\n      add\n        /* \"#utility.yul\":1909:1935   */\n      swap1\n      pop\n        /* \"#utility.yul\":1945:2016   */\n      tag_683\n        /* \"#utility.yul\":2013:2014   */\n      0x00\n        /* \"#utility.yul\":2002:2011   */\n      dup4\n        /* \"#utility.yul\":1998:2015   */\n      add\n        /* \"#utility.yul\":1989:1995   */\n      dup5\n        /* \"#utility.yul\":1945:2016   */\n      tag_573\n      jump\t// in\n    tag_683:\n        /* \"#utility.yul\":1801:2023   */\n      swap3\n      swap2\n      pop\n      pop\n      jump\t// out\n        /* \"#utility.yul\":2029:2119   */\n    tag_574:\n        /* \"#utility.yul\":2063:2070   */\n      0x00\n        /* \"#utility.yul\":2106:2111   */\n      dup2\n        /* \"#utility.yul\":2099:2112   */\n      iszero\n        /* \"#utility.yul\":2092:2113   */\n      iszero\n        /* \"#utility.yul\":2081:2113   */\n      swap1\n      pop\n        /* \"#utility.yul\":2029:2119   */\n      swap2\n      swap1\n      pop\n      jump\t// out\n        /* \"#utility.yul\":2125:2234   */\n    tag_575:\n        /* \"#utility.yul\":2206:2227   */\n      tag_686\n        /* \"#utility.yul\":2221:2226   */\n      dup2\n        /* \"#utility.yul\":2206:2227   */\n      tag_574\n      jump\t// in\n    tag_686:\n        /* \"#utility.yul\":2201:2204   */\n      dup3\n        /* \"#utility.yul\":2194:2228   */\n      mstore\n        /* \"#utility.yul\":2125:2234   */\n      pop\n      pop\n      jump\t// out\n        /* \"#utility.yul\":2240:2450   */\n    tag_65:\n        /* \"#utility.yul\":2327:2331   */\n      0x00\n        /* \"#utility.yul\":2365:2367   */\n      0x20\n        /* \"#utility.yul\":2354:2363   */\n      dup3\n        /* \"#utility.yul\":2350:2368   */\n      add\n        /* \"#utility.yul\":2342:2368   */\n      swap1\n      pop\n        /* \"#utility.yul\":2378:2443   */\n      tag_688\n        /* \"#utility.yul\":2440:2441   */\n      0x00\n        /* \"#utility.yul\":2429:2438   */\n      dup4\n        /* \"#utility.yul\":2425:2442   */\n      add\n        /* \"#utility.yul\":2416:2422   */\n      dup5\n        /* \"#utility.yul\":2378:2443   */\n      tag_575\n      jump\t// in\n    tag_688:\n        /* \"#utility.yul\":2240:2450   */\n      swap3\n      swap2\n      pop\n      pop\n      jump\t// out\n        /* \"#utility.yul\":2456:2785   */\n    tag_69:\n        /* \"#utility.yul\":2515:2521   */\n      0x00\n        /* \"#utility.yul\":2564:2566   */\n      0x20\n        /* \"#utility.yul\":2552:2561   */\n      dup3\n        /* \"#utility.yul\":2543:2550   */\n      dup5\n        /* \"#utility.yul\":2539:2562   */\n      sub\n        /* \"#utility.yul\":2535:2567   */\n      slt\n        /* \"#utility.yul\":2532:2651   */\n      iszero\n      tag_690\n      jumpi\n        /* \"#utility.yul\":2570:2649   */\n      tag_691\n      tag_564\n      jump\t// in\n    tag_691:\n        /* \"#utility.yul\":2532:2651   */\n    tag_690:\n        /* \"#utility.yul\":2690:2691   */\n      0x00\n        /* \"#utility.yul\":2715:2768   */\n      tag_692\n        /* \"#utility.yul\":2760:2767   */\n      dup5\n        /* \"#utility.yul\":2751:2757   */\n      dup3\n        /* \"#utility.yul\":2740:2749   */\n      dup6\n        /* \"#utility.yul\":2736:2758   */\n      add\n        /* \"#utility.yul\":2715:2768   */\n      tag_572\n      jump\t// in\n    tag_692:\n        /* \"#utility.yul\":2705:2768   */\n      swap2\n      pop\n        /* \"#utility.yul\":2661:2778   */\n      pop\n        /* \"#utility.yul\":2456:2785   */\n      swap3\n      swap2\n      pop\n      pop\n      jump\t// out\n        /* \"#utility.yul\":2791:3120   */\n    tag_77:\n        /* \"#utility.yul\":2850:2856   */\n      0x00\n        /* \"#utility.yul\":2899:2901   */\n      0x20\n        /* \"#utility.yul\":2887:2896   */\n      dup3\n        /* \"#utility.yul\":2878:2885   */\n      dup5\n        /* \"#utility.yul\":2874:2897   */\n      sub\n        /* \"#utility.yul\":2870:2902   */\n      slt\n        /* \"#utility.yul\":2867:2986   */\n      iszero\n      tag_694\n      jumpi\n        /* \"#utility.yul\":2905:2984   */\n      tag_695\n      tag_564\n      jump\t// in\n    tag_695:\n        /* \"#utility.yul\":2867:2986   */\n    tag_694:\n        /* \"#utility.yul\":3025:3026   */\n      0x00\n        /* \"#utility.yul\":3050:3103   */\n      tag_696\n        /* \"#utility.yul\":3095:3102   */\n      dup5\n        /* \"#utility.yul\":3086:3092   */\n      dup3\n        /* \"#utility.yul\":3075:3084   */\n      dup6\n        /* \"#utility.yul\":3071:3093   */\n      add\n        /* \"#utility.yul\":3050:3103   */\n      tag_569\n      jump\t// in\n    tag_696:\n        /* \"#utility.yul\":3040:3103   */\n      swap2\n      pop\n        /* \"#utility.yul\":2996:3113   */\n      pop\n        /* \"#utility.yul\":2791:3120   */\n      swap3\n      swap2\n      pop\n      pop\n      jump\t// out\n        /* \"#utility.yul\":3126:3446   */\n    tag_80:\n        /* \"#utility.yul\":3241:3245   */\n      0x00\n        /* \"#utility.yul\":3279:3281   */\n      0x40\n        /* \"#utility.yul\":3268:3277   */\n      dup3\n        /* \"#utility.yul\":3264:3282   */\n      add\n        /* \"#utility.yul\":3256:3282   */\n      swap1\n      pop\n        /* \"#utility.yul\":3292:3363   */\n      tag_698\n        /* \"#utility.yul\":3360:3361   */\n      0x00\n        /* \"#utility.yul\":3349:3358   */\n      dup4\n        /* \"#utility.yul\":3345:3362   */\n      add\n        /* \"#utility.yul\":3336:3342   */\n      dup6\n        /* \"#utility.yul\":3292:3363   */\n      tag_573\n      jump\t// in\n    tag_698:\n        /* \"#utility.yul\":3373:3439   */\n      tag_699\n        /* \"#utility.yul\":3435:3437   */\n      0x20\n        /* \"#utility.yul\":3424:3433   */\n      dup4\n        /* \"#utility.yul\":3420:3438   */\n      add\n        /* \"#utility.yul\":3411:3417   */\n      dup5\n        /* \"#utility.yul\":3373:3439   */\n      tag_575\n      jump\t// in\n    tag_699:\n        /* \"#utility.yul\":3126:3446   */\n      swap4\n      swap3\n      pop\n      pop\n      pop\n      jump\t// out\n        /* \"#utility.yul\":3452:3569   */\n    tag_576:\n        /* \"#utility.yul\":3561:3562   */\n      0x00\n        /* \"#utility.yul\":3558:3559   */\n      dup1\n        /* \"#utility.yul\":3551:3563   */\n      revert\n        /* \"#utility.yul\":3575:3677   */\n    tag_577:\n        /* \"#utility.yul\":3616:3622   */\n      0x00\n        /* \"#utility.yul\":3667:3669   */\n      0x1f\n        /* \"#utility.yul\":3663:3670   */\n      not\n        /* \"#utility.yul\":3658:3660   */\n      0x1f\n        /* \"#utility.yul\":3651:3656   */\n      dup4\n        /* \"#utility.yul\":3647:3661   */\n      add\n        /* \"#utility.yul\":3643:3671   */\n      and\n        /* \"#utility.yul\":3633:3671   */\n      swap1\n      pop\n        /* \"#utility.yul\":3575:3677   */\n      swap2\n      swap1\n      pop\n      jump\t// out\n        /* \"#utility.yul\":3683:3863   */\n    tag_578:\n        /* \"#utility.yul\":3731:3808   */\n      0x4e487b7100000000000000000000000000000000000000000000000000000000\n        /* \"#utility.yul\":3728:3729   */\n      0x00\n        /* \"#utility.yul\":3721:3809   */\n      mstore\n        /* \"#utility.yul\":3828:3832   */\n      0x41\n        /* \"#utility.yul\":3825:3826   */\n      0x04\n        /* \"#utility.yul\":3818:3833   */\n      mstore\n        /* \"#utility.yul\":3852:3856   */\n      0x24\n        /* \"#utility.yul\":3849:3850   */\n      0x00\n        /* \"#utility.yul\":3842:3857   */\n      revert\n        /* \"#utility.yul\":3869:4150   */\n    tag_579:\n        /* \"#utility.yul\":3952:3979   */\n      tag_704\n        /* \"#utility.yul\":3974:3978   */\n      dup3\n        /* \"#utility.yul\":3952:3979   */\n      tag_577\n      jump\t// in\n    tag_704:\n        /* \"#utility.yul\":3944:3950   */\n      dup2\n        /* \"#utility.yul\":3940:3980   */\n      add\n        /* \"#utility.yul\":4082:4088   */\n      dup2\n        /* \"#utility.yul\":4070:4080   */\n      dup2\n        /* \"#utility.yul\":4067:4089   */\n      lt\n        /* \"#utility.yul\":4046:4064   */\n      0xffffffffffffffff\n        /* \"#utility.yul\":4034:4044   */\n      dup3\n        /* \"#utility.yul\":4031:4065   */\n      gt\n        /* \"#utility.yul\":4028:4090   */\n      or\n        /* \"#utility.yul\":4025:4113   */\n      iszero\n      tag_705\n      jumpi\n        /* \"#utility.yul\":4093:4111   */\n      tag_706\n      tag_578\n      jump\t// in\n    tag_706:\n        /* \"#utility.yul\":4025:4113   */\n    tag_705:\n        /* \"#utility.yul\":4133:4143   */\n      dup1\n        /* \"#utility.yul\":4129:4131   */\n      0x40\n        /* \"#utility.yul\":4122:4144   */\n      mstore\n        /* \"#utility.yul\":3912:4150   */\n      pop\n        /* \"#utility.yul\":3869:4150   */\n      pop\n      pop\n      jump\t// out\n        /* \"#utility.yul\":4156:4285   */\n    tag_580:\n        /* \"#utility.yul\":4190:4196   */\n      0x00\n        /* \"#utility.yul\":4217:4237   */\n      tag_708\n      tag_563\n      jump\t// in\n    tag_708:\n        /* \"#utility.yul\":4207:4237   */\n      swap1\n      pop\n        /* \"#utility.yul\":4246:4279   */\n      tag_709\n        /* \"#utility.yul\":4274:4278   */\n      dup3\n        /* \"#utility.yul\":4266:4272   */\n      dup3\n        /* \"#utility.yul\":4246:4279   */\n      tag_579\n      jump\t// in\n    tag_709:\n        /* \"#utility.yul\":4156:4285   */\n      swap2\n      swap1\n      pop\n      jump\t// out\n        /* \"#utility.yul\":4291:4540   */\n    tag_581:\n        /* \"#utility.yul\":4366:4370   */\n      0x00\n        /* \"#utility.yul\":4456:4474   */\n      0xffffffffffffffff\n        /* \"#utility.yul\":4448:4454   */\n      dup3\n        /* \"#utility.yul\":4445:4475   */\n      gt\n        /* \"#utility.yul\":4442:4498   */\n      iszero\n      tag_711\n      jumpi\n        /* \"#utility.yul\":4478:4496   */\n      tag_712\n      tag_578\n      jump\t// in\n    tag_712:\n        /* \"#utility.yul\":4442:4498   */\n    tag_711:\n        /* \"#utility.yul\":4528:4532   */\n      0x20\n        /* \"#utility.yul\":4520:4526   */\n      dup3\n        /* \"#utility.yul\":4516:4533   */\n      mul\n        /* \"#utility.yul\":4508:4533   */\n      swap1\n      pop\n        /* \"#utility.yul\":4291:4540   */\n      swap2\n      swap1\n      pop\n      jump\t// out\n        /* \"#utility.yul\":4546:4663   */\n    tag_582:\n        /* \"#utility.yul\":4655:4656   */\n      0x00\n        /* \"#utility.yul\":4652:4653   */\n      dup1\n        /* \"#utility.yul\":4645:4657   */\n      revert\n        /* \"#utility.yul\":4687:5330   */\n    tag_583:\n        /* \"#utility.yul\":4781:4786   */\n      0x00\n        /* \"#utility.yul\":4806:4885   */\n      tag_715\n        /* \"#utility.yul\":4822:4884   */\n      tag_716\n        /* \"#utility.yul\":4877:4883   */\n      dup5\n        /* \"#utility.yul\":4822:4884   */\n      tag_581\n      jump\t// in\n    tag_716:\n        /* \"#utility.yul\":4806:4885   */\n      tag_580\n      jump\t// in\n    tag_715:\n        /* \"#utility.yul\":4797:4885   */\n      swap1\n      pop\n        /* \"#utility.yul\":4905:4910   */\n      dup1\n        /* \"#utility.yul\":4958:4962   */\n      0x20\n        /* \"#utility.yul\":4950:4956   */\n      dup5\n        /* \"#utility.yul\":4946:4963   */\n      mul\n        /* \"#utility.yul\":4938:4944   */\n      dup4\n        /* \"#utility.yul\":4934:4964   */\n      add\n        /* \"#utility.yul\":4987:4990   */\n      dup6\n        /* \"#utility.yul\":4979:4985   */\n      dup2\n        /* \"#utility.yul\":4976:4991   */\n      gt\n        /* \"#utility.yul\":4973:5095   */\n      iszero\n      tag_717\n      jumpi\n        /* \"#utility.yul\":5006:5085   */\n      tag_718\n      tag_582\n      jump\t// in\n    tag_718:\n        /* \"#utility.yul\":4973:5095   */\n    tag_717:\n        /* \"#utility.yul\":5121:5127   */\n      dup4\n        /* \"#utility.yul\":5104:5324   */\n    tag_719:\n        /* \"#utility.yul\":5138:5144   */\n      dup2\n        /* \"#utility.yul\":5133:5136   */\n      dup2\n        /* \"#utility.yul\":5130:5145   */\n      lt\n        /* \"#utility.yul\":5104:5324   */\n      iszero\n      tag_721\n      jumpi\n        /* \"#utility.yul\":5213:5216   */\n      dup1\n        /* \"#utility.yul\":5242:5279   */\n      tag_722\n        /* \"#utility.yul\":5275:5278   */\n      dup9\n        /* \"#utility.yul\":5263:5273   */\n      dup3\n        /* \"#utility.yul\":5242:5279   */\n      tag_572\n      jump\t// in\n    tag_722:\n        /* \"#utility.yul\":5237:5240   */\n      dup5\n        /* \"#utility.yul\":5230:5280   */\n      mstore\n        /* \"#utility.yul\":5309:5313   */\n      0x20\n        /* \"#utility.yul\":5304:5307   */\n      dup5\n        /* \"#utility.yul\":5300:5314   */\n      add\n        /* \"#utility.yul\":5293:5314   */\n      swap4\n      pop\n        /* \"#utility.yul\":5180:5324   */\n      pop\n        /* \"#utility.yul\":5164:5168   */\n      0x20\n        /* \"#utility.yul\":5159:5162   */\n      dup2\n        /* \"#utility.yul\":5155:5169   */\n      add\n        /* \"#utility.yul\":5148:5169   */\n      swap1\n      pop\n        /* \"#utility.yul\":5104:5324   */\n      jump(tag_719)\n    tag_721:\n        /* \"#utility.yul\":5108:5129   */\n      pop\n        /* \"#utility.yul\":4787:5330   */\n      pop\n      pop\n        /* \"#utility.yul\":4687:5330   */\n      swap4\n      swap3\n      pop\n      pop\n      pop\n      jump\t// out\n        /* \"#utility.yul\":5354:5693   */\n    tag_584:\n        /* \"#utility.yul\":5423:5428   */\n      0x00\n        /* \"#utility.yul\":5472:5475   */\n      dup3\n        /* \"#utility.yul\":5465:5469   */\n      0x1f\n        /* \"#utility.yul\":5457:5463   */\n      dup4\n        /* \"#utility.yul\":5453:5470   */\n      add\n        /* \"#utility.yul\":5449:5476   */\n      slt\n        /* \"#utility.yul\":5439:5561   */\n      tag_724\n      jumpi\n        /* \"#utility.yul\":5480:5559   */\n      tag_725\n      tag_576\n      jump\t// in\n    tag_725:\n        /* \"#utility.yul\":5439:5561   */\n    tag_724:\n        /* \"#utility.yul\":5584:5588   */\n      0x04\n        /* \"#utility.yul\":5606:5687   */\n      tag_726\n        /* \"#utility.yul\":5683:5686   */\n      dup5\n        /* \"#utility.yul\":5675:5681   */\n      dup3\n        /* \"#utility.yul\":5667:5673   */\n      dup6\n        /* \"#utility.yul\":5606:5687   */\n      tag_583\n      jump\t// in\n    tag_726:\n        /* \"#utility.yul\":5597:5687   */\n      swap2\n      pop\n        /* \"#utility.yul\":5429:5693   */\n      pop\n        /* \"#utility.yul\":5354:5693   */\n      swap3\n      swap2\n      pop\n      pop\n      jump\t// out\n        /* \"#utility.yul\":5699:6220   */\n    tag_96:\n        /* \"#utility.yul\":5790:5796   */\n      0x00\n        /* \"#utility.yul\":5798:5804   */\n      dup1\n        /* \"#utility.yul\":5847:5850   */\n      0xa0\n        /* \"#utility.yul\":5835:5844   */\n      dup4\n        /* \"#utility.yul\":5826:5833   */\n      dup6\n        /* \"#utility.yul\":5822:5845   */\n      sub\n        /* \"#utility.yul\":5818:5851   */\n      slt\n        /* \"#utility.yul\":5815:5935   */\n      iszero\n      tag_728\n      jumpi\n        /* \"#utility.yul\":5854:5933   */\n      tag_729\n      tag_564\n      jump\t// in\n    tag_729:\n        /* \"#utility.yul\":5815:5935   */\n    tag_728:\n        /* \"#utility.yul\":5974:5975   */\n      0x00\n        /* \"#utility.yul\":5999:6052   */\n      tag_730\n        /* \"#utility.yul\":6044:6051   */\n      dup6\n        /* \"#utility.yul\":6035:6041   */\n      dup3\n        /* \"#utility.yul\":6024:6033   */\n      dup7\n        /* \"#utility.yul\":6020:6042   */\n      add\n        /* \"#utility.yul\":5999:6052   */\n      tag_569\n      jump\t// in\n    tag_730:\n        /* \"#utility.yul\":5989:6052   */\n      swap3\n      pop\n        /* \"#utility.yul\":5945:6062   */\n      pop\n        /* \"#utility.yul\":6101:6103   */\n      0x20\n        /* \"#utility.yul\":6127:6203   */\n      tag_731\n        /* \"#utility.yul\":6195:6202   */\n      dup6\n        /* \"#utility.yul\":6186:6192   */\n      dup3\n        /* \"#utility.yul\":6175:6184   */\n      dup7\n        /* \"#utility.yul\":6171:6193   */\n      add\n        /* \"#utility.yul\":6127:6203   */\n      tag_584\n      jump\t// in\n    tag_731:\n        /* \"#utility.yul\":6117:6203   */\n      swap2\n      pop\n        /* \"#utility.yul\":6072:6213   */\n      pop\n        /* \"#utility.yul\":5699:6220   */\n      swap3\n      pop\n      swap3\n      swap1\n      pop\n      jump\t// out\n        /* \"#utility.yul\":6226:6344   */\n    tag_585:\n        /* \"#utility.yul\":6313:6337   */\n      tag_733\n        /* \"#utility.yul\":6331:6336   */\n      dup2\n        /* \"#utility.yul\":6313:6337   */\n      tag_567\n      jump\t// in\n    tag_733:\n        /* \"#utility.yul\":6308:6311   */\n      dup3\n        /* \"#utility.yul\":6301:6338   */\n      mstore\n        /* \"#utility.yul\":6226:6344   */\n      pop\n      pop\n      jump\t// out\n        /* \"#utility.yul\":6350:6572   */\n    tag_142:\n        /* \"#utility.yul\":6443:6447   */\n      0x00\n        /* \"#utility.yul\":6481:6483   */\n      0x20\n        /* \"#utility.yul\":6470:6479   */\n      dup3\n        /* \"#utility.yul\":6466:6484   */\n      add\n        /* \"#utility.yul\":6458:6484   */\n      swap1\n      pop\n        /* \"#utility.yul\":6494:6565   */\n      tag_735\n        /* \"#utility.yul\":6562:6563   */\n      0x00\n        /* \"#utility.yul\":6551:6560   */\n      dup4\n        /* \"#utility.yul\":6547:6564   */\n      add\n        /* \"#utility.yul\":6538:6544   */\n      dup5\n        /* \"#utility.yul\":6494:6565   */\n      tag_585\n      jump\t// in\n    tag_735:\n        /* \"#utility.yul\":6350:6572   */\n      swap3\n      swap2\n      pop\n      pop\n      jump\t// out\n        /* \"#utility.yul\":6578:6954   */\n    tag_188:\n        /* \"#utility.yul\":6660:6666   */\n      0x00\n        /* \"#utility.yul\":6709:6712   */\n      0x80\n        /* \"#utility.yul\":6697:6706   */\n      dup3\n        /* \"#utility.yul\":6688:6695   */\n      dup5\n        /* \"#utility.yul\":6684:6707   */\n      sub\n        /* \"#utility.yul\":6680:6713   */\n      slt\n        /* \"#utility.yul\":6677:6797   */\n      iszero\n      tag_737\n      jumpi\n        /* \"#utility.yul\":6716:6795   */\n      tag_738\n      tag_564\n      jump\t// in\n    tag_738:\n        /* \"#utility.yul\":6677:6797   */\n    tag_737:\n        /* \"#utility.yul\":6836:6837   */\n      0x00\n        /* \"#utility.yul\":6861:6937   */\n      tag_739\n        /* \"#utility.yul\":6929:6936   */\n      dup5\n        /* \"#utility.yul\":6920:6926   */\n      dup3\n        /* \"#utility.yul\":6909:6918   */\n      dup6\n        /* \"#utility.yul\":6905:6927   */\n      add\n        /* \"#utility.yul\":6861:6937   */\n      tag_584\n      jump\t// in\n    tag_739:\n        /* \"#utility.yul\":6851:6937   */\n      swap2\n      pop\n        /* \"#utility.yul\":6807:6947   */\n      pop\n        /* \"#utility.yul\":6578:6954   */\n      swap3\n      swap2\n      pop\n      pop\n      jump\t// out\n        /* \"#utility.yul\":6960:7129   */\n    tag_586:\n        /* \"#utility.yul\":7044:7055   */\n      0x00\n        /* \"#utility.yul\":7078:7084   */\n      dup3\n        /* \"#utility.yul\":7073:7076   */\n      dup3\n        /* \"#utility.yul\":7066:7085   */\n      mstore\n        /* \"#utility.yul\":7118:7122   */\n      0x20\n        /* \"#utility.yul\":7113:7116   */\n      dup3\n        /* \"#utility.yul\":7109:7123   */\n      add\n        /* \"#utility.yul\":7094:7123   */\n      swap1\n      pop\n        /* \"#utility.yul\":6960:7129   */\n      swap3\n      swap2\n      pop\n      pop\n      jump\t// out\n        /* \"#utility.yul\":7135:7315   */\n    tag_587:\n        /* \"#utility.yul\":7275:7307   */\n      0x50726573616c653a20546f6b656e206e6f742077686974656c69737465640000\n        /* \"#utility.yul\":7271:7272   */\n      0x00\n        /* \"#utility.yul\":7263:7269   */\n      dup3\n        /* \"#utility.yul\":7259:7273   */\n      add\n        /* \"#utility.yul\":7252:7308   */\n      mstore\n        /* \"#utility.yul\":7135:7315   */\n      pop\n      jump\t// out\n        /* \"#utility.yul\":7321:7687   */\n    tag_588:\n        /* \"#utility.yul\":7463:7466   */\n      0x00\n        /* \"#utility.yul\":7484:7551   */\n      tag_743\n        /* \"#utility.yul\":7548:7550   */\n      0x1e\n        /* \"#utility.yul\":7543:7546   */\n      dup4\n        /* \"#utility.yul\":7484:7551   */\n      tag_586\n      jump\t// in\n    tag_743:\n        /* \"#utility.yul\":7477:7551   */\n      swap2\n      pop\n        /* \"#utility.yul\":7560:7653   */\n      tag_744\n        /* \"#utility.yul\":7649:7652   */\n      dup3\n        /* \"#utility.yul\":7560:7653   */\n      tag_587\n      jump\t// in\n    tag_744:\n        /* \"#utility.yul\":7678:7680   */\n      0x20\n        /* \"#utility.yul\":7673:7676   */\n      dup3\n        /* \"#utility.yul\":7669:7681   */\n      add\n        /* \"#utility.yul\":7662:7681   */\n      swap1\n      pop\n        /* \"#utility.yul\":7321:7687   */\n      swap2\n      swap1\n      pop\n      jump\t// out\n        /* \"#utility.yul\":7693:8112   */\n    tag_210:\n        /* \"#utility.yul\":7859:7863   */\n      0x00\n        /* \"#utility.yul\":7897:7899   */\n      0x20\n        /* \"#utility.yul\":7886:7895   */\n      dup3\n        /* \"#utility.yul\":7882:7900   */\n      add\n        /* \"#utility.yul\":7874:7900   */\n      swap1\n      pop\n        /* \"#utility.yul\":7946:7955   */\n      dup2\n        /* \"#utility.yul\":7940:7944   */\n      dup2\n        /* \"#utility.yul\":7936:7956   */\n      sub\n        /* \"#utility.yul\":7932:7933   */\n      0x00\n        /* \"#utility.yul\":7921:7930   */\n      dup4\n        /* \"#utility.yul\":7917:7934   */\n      add\n        /* \"#utility.yul\":7910:7957   */\n      mstore\n        /* \"#utility.yul\":7974:8105   */\n      tag_746\n        /* \"#utility.yul\":8100:8104   */\n      dup2\n        /* \"#utility.yul\":7974:8105   */\n      tag_588\n      jump\t// in\n    tag_746:\n        /* \"#utility.yul\":7966:8105   */\n      swap1\n      pop\n        /* \"#utility.yul\":7693:8112   */\n      swap2\n      swap1\n      pop\n      jump\t// out\n        /* \"#utility.yul\":8118:8298   */\n    tag_213:\n        /* \"#utility.yul\":8166:8243   */\n      0x4e487b7100000000000000000000000000000000000000000000000000000000\n        /* \"#utility.yul\":8163:8164   */\n      0x00\n        /* \"#utility.yul\":8156:8244   */\n      mstore\n        /* \"#utility.yul\":8263:8267   */\n      0x32\n        /* \"#utility.yul\":8260:8261   */\n      0x04\n        /* \"#utility.yul\":8253:8268   */\n      mstore\n        /* \"#utility.yul\":8287:8291   */\n      0x24\n        /* \"#utility.yul\":8284:8285   */\n      0x00\n        /* \"#utility.yul\":8277:8292   */\n      revert\n        /* \"#utility.yul\":8304:8484   */\n    tag_589:\n        /* \"#utility.yul\":8352:8429   */\n      0x4e487b7100000000000000000000000000000000000000000000000000000000\n        /* \"#utility.yul\":8349:8350   */\n      0x00\n        /* \"#utility.yul\":8342:8430   */\n      mstore\n        /* \"#utility.yul\":8449:8453   */\n      0x11\n        /* \"#utility.yul\":8446:8447   */\n      0x04\n        /* \"#utility.yul\":8439:8454   */\n      mstore\n        /* \"#utility.yul\":8473:8477   */\n      0x24\n        /* \"#utility.yul\":8470:8471   */\n      0x00\n        /* \"#utility.yul\":8463:8478   */\n      revert\n        /* \"#utility.yul\":8490:8592   */\n    tag_590:\n        /* \"#utility.yul\":8532:8540   */\n      0x00\n        /* \"#utility.yul\":8579:8584   */\n      dup2\n        /* \"#utility.yul\":8576:8577   */\n      0x01\n        /* \"#utility.yul\":8572:8585   */\n      shr\n        /* \"#utility.yul\":8551:8585   */\n      swap1\n      pop\n        /* \"#utility.yul\":8490:8592   */\n      swap2\n      swap1\n      pop\n      jump\t// out\n        /* \"#utility.yul\":8598:9446   */\n    tag_591:\n        /* \"#utility.yul\":8659:8664   */\n      0x00\n        /* \"#utility.yul\":8666:8670   */\n      dup1\n        /* \"#utility.yul\":8690:8696   */\n      dup3\n        /* \"#utility.yul\":8681:8696   */\n      swap2\n      pop\n        /* \"#utility.yul\":8714:8719   */\n      dup4\n        /* \"#utility.yul\":8705:8719   */\n      swap1\n      pop\n        /* \"#utility.yul\":8728:9440   */\n    tag_751:\n        /* \"#utility.yul\":8749:8750   */\n      0x01\n        /* \"#utility.yul\":8739:8747   */\n      dup6\n        /* \"#utility.yul\":8736:8751   */\n      gt\n        /* \"#utility.yul\":8728:9440   */\n      iszero\n      tag_753\n      jumpi\n        /* \"#utility.yul\":8844:8848   */\n      dup1\n        /* \"#utility.yul\":8839:8842   */\n      dup7\n        /* \"#utility.yul\":8835:8849   */\n      div\n        /* \"#utility.yul\":8829:8833   */\n      dup2\n        /* \"#utility.yul\":8826:8850   */\n      gt\n        /* \"#utility.yul\":8823:8873   */\n      iszero\n      tag_754\n      jumpi\n        /* \"#utility.yul\":8853:8871   */\n      tag_755\n      tag_589\n      jump\t// in\n    tag_755:\n        /* \"#utility.yul\":8823:8873   */\n    tag_754:\n        /* \"#utility.yul\":8903:8904   */\n      0x01\n        /* \"#utility.yul\":8893:8901   */\n      dup6\n        /* \"#utility.yul\":8889:8905   */\n      and\n        /* \"#utility.yul\":8886:9337   */\n      iszero\n      tag_756\n      jumpi\n        /* \"#utility.yul\":9318:9322   */\n      dup1\n        /* \"#utility.yul\":9311:9316   */\n      dup3\n        /* \"#utility.yul\":9307:9323   */\n      mul\n        /* \"#utility.yul\":9298:9323   */\n      swap2\n      pop\n        /* \"#utility.yul\":8886:9337   */\n    tag_756:\n        /* \"#utility.yul\":9368:9372   */\n      dup1\n        /* \"#utility.yul\":9362:9366   */\n      dup2\n        /* \"#utility.yul\":9358:9373   */\n      mul\n        /* \"#utility.yul\":9350:9373   */\n      swap1\n      pop\n        /* \"#utility.yul\":9398:9430   */\n      tag_757\n        /* \"#utility.yul\":9421:9429   */\n      dup6\n        /* \"#utility.yul\":9398:9430   */\n      tag_590\n      jump\t// in\n    tag_757:\n        /* \"#utility.yul\":9386:9430   */\n      swap5\n      pop\n        /* \"#utility.yul\":8728:9440   */\n      jump(tag_751)\n    tag_753:\n        /* \"#utility.yul\":8598:9446   */\n      swap5\n      pop\n      swap5\n      swap3\n      pop\n      pop\n      pop\n      jump\t// out\n        /* \"#utility.yul\":9452:10525   */\n    tag_592:\n        /* \"#utility.yul\":9506:9511   */\n      0x00\n        /* \"#utility.yul\":9697:9705   */\n      dup3\n        /* \"#utility.yul\":9687:9727   */\n      tag_759\n      jumpi\n        /* \"#utility.yul\":9718:9719   */\n      0x01\n        /* \"#utility.yul\":9709:9719   */\n      swap1\n      pop\n        /* \"#utility.yul\":9720:9725   */\n      jump(tag_758)\n        /* \"#utility.yul\":9687:9727   */\n    tag_759:\n        /* \"#utility.yul\":9746:9750   */\n      dup2\n        /* \"#utility.yul\":9736:9772   */\n      tag_760\n      jumpi\n        /* \"#utility.yul\":9763:9764   */\n      0x00\n        /* \"#utility.yul\":9754:9764   */\n      swap1\n      pop\n        /* \"#utility.yul\":9765:9770   */\n      jump(tag_758)\n        /* \"#utility.yul\":9736:9772   */\n    tag_760:\n        /* \"#utility.yul\":9832:9836   */\n      dup2\n        /* \"#utility.yul\":9880:9881   */\n      0x01\n        /* \"#utility.yul\":9875:9902   */\n      dup2\n      eq\n      tag_762\n      jumpi\n        /* \"#utility.yul\":9916:9917   */\n      0x02\n        /* \"#utility.yul\":9911:10102   */\n      dup2\n      eq\n      tag_763\n      jumpi\n        /* \"#utility.yul\":9825:10102   */\n      jump(tag_761)\n        /* \"#utility.yul\":9875:9902   */\n    tag_762:\n        /* \"#utility.yul\":9893:9894   */\n      0x01\n        /* \"#utility.yul\":9884:9894   */\n      swap2\n      pop\n        /* \"#utility.yul\":9895:9900   */\n      pop\n      jump(tag_758)\n        /* \"#utility.yul\":9911:10102   */\n    tag_763:\n        /* \"#utility.yul\":9956:9959   */\n      0xff\n        /* \"#utility.yul\":9946:9954   */\n      dup5\n        /* \"#utility.yul\":9943:9960   */\n      gt\n        /* \"#utility.yul\":9940:9983   */\n      iszero\n      tag_764\n      jumpi\n        /* \"#utility.yul\":9963:9981   */\n      tag_765\n      tag_589\n      jump\t// in\n    tag_765:\n        /* \"#utility.yul\":9940:9983   */\n    tag_764:\n        /* \"#utility.yul\":10012:10020   */\n      dup4\n        /* \"#utility.yul\":10009:10010   */\n      0x02\n        /* \"#utility.yul\":10005:10021   */\n      exp\n        /* \"#utility.yul\":9996:10021   */\n      swap2\n      pop\n        /* \"#utility.yul\":10047:10050   */\n      dup5\n        /* \"#utility.yul\":10040:10045   */\n      dup3\n        /* \"#utility.yul\":10037:10051   */\n      gt\n        /* \"#utility.yul\":10034:10074   */\n      iszero\n      tag_766\n      jumpi\n        /* \"#utility.yul\":10054:10072   */\n      tag_767\n      tag_589\n      jump\t// in\n    tag_767:\n        /* \"#utility.yul\":10034:10074   */\n    tag_766:\n        /* \"#utility.yul\":10087:10092   */\n      pop\n      jump(tag_758)\n        /* \"#utility.yul\":9825:10102   */\n    tag_761:\n      pop\n        /* \"#utility.yul\":10211:10213   */\n      0x20\n        /* \"#utility.yul\":10201:10209   */\n      dup4\n        /* \"#utility.yul\":10198:10214   */\n      lt\n        /* \"#utility.yul\":10192:10195   */\n      0x0133\n        /* \"#utility.yul\":10186:10190   */\n      dup4\n        /* \"#utility.yul\":10183:10196   */\n      lt\n        /* \"#utility.yul\":10179:10215   */\n      and\n        /* \"#utility.yul\":10161:10163   */\n      0x4e\n        /* \"#utility.yul\":10151:10159   */\n      dup5\n        /* \"#utility.yul\":10148:10164   */\n      lt\n        /* \"#utility.yul\":10143:10145   */\n      0x0b\n        /* \"#utility.yul\":10137:10141   */\n      dup5\n        /* \"#utility.yul\":10134:10146   */\n      lt\n        /* \"#utility.yul\":10130:10165   */\n      and\n        /* \"#utility.yul\":10114:10225   */\n      or\n        /* \"#utility.yul\":10111:10357   */\n      iszero\n      tag_768\n      jumpi\n        /* \"#utility.yul\":10267:10275   */\n      dup3\n        /* \"#utility.yul\":10261:10265   */\n      dup3\n        /* \"#utility.yul\":10257:10276   */\n      exp\n        /* \"#utility.yul\":10248:10276   */\n      swap1\n      pop\n        /* \"#utility.yul\":10302:10305   */\n      dup4\n        /* \"#utility.yul\":10295:10300   */\n      dup2\n        /* \"#utility.yul\":10292:10306   */\n      gt\n        /* \"#utility.yul\":10289:10329   */\n      iszero\n      tag_769\n      jumpi\n        /* \"#utility.yul\":10309:10327   */\n      tag_770\n      tag_589\n      jump\t// in\n    tag_770:\n        /* \"#utility.yul\":10289:10329   */\n    tag_769:\n        /* \"#utility.yul\":10342:10347   */\n      jump(tag_758)\n        /* \"#utility.yul\":10111:10357   */\n    tag_768:\n        /* \"#utility.yul\":10382:10424   */\n      tag_771\n        /* \"#utility.yul\":10420:10423   */\n      dup5\n        /* \"#utility.yul\":10410:10418   */\n      dup5\n        /* \"#utility.yul\":10404:10408   */\n      dup5\n        /* \"#utility.yul\":10401:10402   */\n      0x01\n        /* \"#utility.yul\":10382:10424   */\n      tag_591\n      jump\t// in\n    tag_771:\n        /* \"#utility.yul\":10367:10424   */\n      swap3\n      pop\n      swap1\n      pop\n        /* \"#utility.yul\":10456:10460   */\n      dup2\n        /* \"#utility.yul\":10451:10454   */\n      dup5\n        /* \"#utility.yul\":10447:10461   */\n      div\n        /* \"#utility.yul\":10440:10445   */\n      dup2\n        /* \"#utility.yul\":10437:10462   */\n      gt\n        /* \"#utility.yul\":10434:10485   */\n      iszero\n      tag_772\n      jumpi\n        /* \"#utility.yul\":10465:10483   */\n      tag_773\n      tag_589\n      jump\t// in\n    tag_773:\n        /* \"#utility.yul\":10434:10485   */\n    tag_772:\n        /* \"#utility.yul\":10514:10518   */\n      dup2\n        /* \"#utility.yul\":10507:10512   */\n      dup2\n        /* \"#utility.yul\":10503:10519   */\n      mul\n        /* \"#utility.yul\":10494:10519   */\n      swap1\n      pop\n        /* \"#utility.yul\":9452:10525   */\n    tag_758:\n      swap4\n      swap3\n      pop\n      pop\n      pop\n      jump\t// out\n        /* \"#utility.yul\":10531:10816   */\n    tag_221:\n        /* \"#utility.yul\":10591:10596   */\n      0x00\n        /* \"#utility.yul\":10615:10638   */\n      tag_775\n        /* \"#utility.yul\":10633:10637   */\n      dup3\n        /* \"#utility.yul\":10615:10638   */\n      tag_570\n      jump\t// in\n    tag_775:\n        /* \"#utility.yul\":10607:10638   */\n      swap2\n      pop\n        /* \"#utility.yul\":10659:10686   */\n      tag_776\n        /* \"#utility.yul\":10677:10685   */\n      dup4\n        /* \"#utility.yul\":10659:10686   */\n      tag_570\n      jump\t// in\n    tag_776:\n        /* \"#utility.yul\":10647:10686   */\n      swap3\n      pop\n        /* \"#utility.yul\":10705:10809   */\n      tag_777\n        /* \"#utility.yul\":10742:10808   */\n      0xffffffffffffffffffffffffffffffffffffffffffffffffffffffffffffffff\n        /* \"#utility.yul\":10732:10740   */\n      dup5\n        /* \"#utility.yul\":10726:10730   */\n      dup5\n        /* \"#utility.yul\":10705:10809   */\n      tag_592\n      jump\t// in\n    tag_777:\n        /* \"#utility.yul\":10696:10809   */\n      swap1\n      pop\n        /* \"#utility.yul\":10531:10816   */\n      swap3\n      swap2\n      pop\n      pop\n      jump\t// out\n        /* \"#utility.yul\":10822:11232   */\n    tag_223:\n        /* \"#utility.yul\":10862:10869   */\n      0x00\n        /* \"#utility.yul\":10885:10905   */\n      tag_779\n        /* \"#utility.yul\":10903:10904   */\n      dup3\n        /* \"#utility.yul\":10885:10905   */\n      tag_570\n      jump\t// in\n    tag_779:\n        /* \"#utility.yul\":10880:10905   */\n      swap2\n      pop\n        /* \"#utility.yul\":10919:10939   */\n      tag_780\n        /* \"#utility.yul\":10937:10938   */\n      dup4\n        /* \"#utility.yul\":10919:10939   */\n      tag_570\n      jump\t// in\n    tag_780:\n        /* \"#utility.yul\":10914:10939   */\n      swap3\n      pop\n        /* \"#utility.yul\":10974:10975   */\n      dup3\n        /* \"#utility.yul\":10971:10972   */\n      dup3\n        /* \"#utility.yul\":10967:10976   */\n      mul\n        /* \"#utility.yul\":10996:11026   */\n      tag_781\n        /* \"#utility.yul\":11014:11025   */\n      dup2\n        /* \"#utility.yul\":10996:11026   */\n      tag_570\n      jump\t// in\n    tag_781:\n        /* \"#utility.yul\":10985:11026   */\n      swap2\n      pop\n        /* \"#utility.yul\":11175:11176   */\n      dup3\n        /* \"#utility.yul\":11166:11173   */\n      dup3\n        /* \"#utility.yul\":11162:11177   */\n      div\n        /* \"#utility.yul\":11159:11160   */\n      dup5\n        /* \"#utility.yul\":11156:11178   */\n      eq\n        /* \"#utility.yul\":11136:11137   */\n      dup4\n        /* \"#utility.yul\":11129:11138   */\n      iszero\n        /* \"#utility.yul\":11109:11192   */\n      or\n        /* \"#utility.yul\":11086:11225   */\n      tag_782\n      jumpi\n        /* \"#utility.yul\":11205:11223   */\n      tag_783\n      tag_589\n      jump\t// in\n    tag_783:\n        /* \"#utility.yul\":11086:11225   */\n    tag_782:\n        /* \"#utility.yul\":10870:11232   */\n      pop\n        /* \"#utility.yul\":10822:11232   */\n      swap3\n      swap2\n      pop\n      pop\n      jump\t// out\n        /* \"#utility.yul\":11238:11418   */\n    tag_593:\n        /* \"#utility.yul\":11286:11363   */\n      0x4e487b7100000000000000000000000000000000000000000000000000000000\n        /* \"#utility.yul\":11283:11284   */\n      0x00\n        /* \"#utility.yul\":11276:11364   */\n      mstore\n        /* \"#utility.yul\":11383:11387   */\n      0x12\n        /* \"#utility.yul\":11380:11381   */\n      0x04\n        /* \"#utility.yul\":11373:11388   */\n      mstore\n        /* \"#utility.yul\":11407:11411   */\n      0x24\n        /* \"#utility.yul\":11404:11405   */\n      0x00\n        /* \"#utility.yul\":11397:11412   */\n      revert\n        /* \"#utility.yul\":11424:11609   */\n    tag_225:\n        /* \"#utility.yul\":11464:11465   */\n      0x00\n        /* \"#utility.yul\":11481:11501   */\n      tag_786\n        /* \"#utility.yul\":11499:11500   */\n      dup3\n        /* \"#utility.yul\":11481:11501   */\n      tag_570\n      jump\t// in\n    tag_786:\n        /* \"#utility.yul\":11476:11501   */\n      swap2\n      pop\n        /* \"#utility.yul\":11515:11535   */\n      tag_787\n        /* \"#utility.yul\":11533:11534   */\n      dup4\n        /* \"#utility.yul\":11515:11535   */\n      tag_570\n      jump\t// in\n    tag_787:\n        /* \"#utility.yul\":11510:11535   */\n      swap3\n      pop\n        /* \"#utility.yul\":11554:11555   */\n      dup3\n        /* \"#utility.yul\":11544:11579   */\n      tag_788\n      jumpi\n        /* \"#utility.yul\":11559:11577   */\n      tag_789\n      tag_593\n      jump\t// in\n    tag_789:\n        /* \"#utility.yul\":11544:11579   */\n    tag_788:\n        /* \"#utility.yul\":11601:11602   */\n      dup3\n        /* \"#utility.yul\":11598:11599   */\n      dup3\n        /* \"#utility.yul\":11594:11603   */\n      div\n        /* \"#utility.yul\":11589:11603   */\n      swap1\n      pop\n        /* \"#utility.yul\":11424:11609   */\n      swap3\n      swap2\n      pop\n      pop\n      jump\t// out\n        /* \"#utility.yul\":11615:11797   */\n    tag_594:\n        /* \"#utility.yul\":11755:11789   */\n      0x4f776e61626c653a2063616c6c6572206973206e6f7420746865206f776e6572\n        /* \"#utility.yul\":11751:11752   */\n      0x00\n        /* \"#utility.yul\":11743:11749   */\n      dup3\n        /* \"#utility.yul\":11739:11753   */\n      add\n        /* \"#utility.yul\":11732:11790   */\n      mstore\n        /* \"#utility.yul\":11615:11797   */\n      pop\n      jump\t// out\n        /* \"#utility.yul\":11803:12169   */\n    tag_595:\n        /* \"#utility.yul\":11945:11948   */\n      0x00\n        /* \"#utility.yul\":11966:12033   */\n      tag_792\n        /* \"#utility.yul\":12030:12032   */\n      0x20\n        /* \"#utility.yul\":12025:12028   */\n      dup4\n        /* \"#utility.yul\":11966:12033   */\n      tag_586\n      jump\t// in\n    tag_792:\n        /* \"#utility.yul\":11959:12033   */\n      swap2\n      pop\n        /* \"#utility.yul\":12042:12135   */\n      tag_793\n        /* \"#utility.yul\":12131:12134   */\n      dup3\n        /* \"#utility.yul\":12042:12135   */\n      tag_594\n      jump\t// in\n    tag_793:\n        /* \"#utility.yul\":12160:12162   */\n      0x20\n        /* \"#utility.yul\":12155:12158   */\n      dup3\n        /* \"#utility.yul\":12151:12163   */\n      add\n        /* \"#utility.yul\":12144:12163   */\n      swap1\n      pop\n        /* \"#utility.yul\":11803:12169   */\n      swap2\n      swap1\n      pop\n      jump\t// out\n        /* \"#utility.yul\":12175:12594   */\n    tag_244:\n        /* \"#utility.yul\":12341:12345   */\n      0x00\n        /* \"#utility.yul\":12379:12381   */\n      0x20\n        /* \"#utility.yul\":12368:12377   */\n      dup3\n        /* \"#utility.yul\":12364:12382   */\n      add\n        /* \"#utility.yul\":12356:12382   */\n      swap1\n      pop\n        /* \"#utility.yul\":12428:12437   */\n      dup2\n        /* \"#utility.yul\":12422:12426   */\n      dup2\n        /* \"#utility.yul\":12418:12438   */\n      sub\n        /* \"#utility.yul\":12414:12415   */\n      0x00\n        /* \"#utility.yul\":12403:12412   */\n      dup4\n        /* \"#utility.yul\":12399:12416   */\n      add\n        /* \"#utility.yul\":12392:12439   */\n      mstore\n        /* \"#utility.yul\":12456:12587   */\n      tag_795\n        /* \"#utility.yul\":12582:12586   */\n      dup2\n        /* \"#utility.yul\":12456:12587   */\n      tag_595\n      jump\t// in\n    tag_795:\n        /* \"#utility.yul\":12448:12587   */\n      swap1\n      pop\n        /* \"#utility.yul\":12175:12594   */\n      swap2\n      swap1\n      pop\n      jump\t// out\n        /* \"#utility.yul\":12600:12821   */\n    tag_596:\n        /* \"#utility.yul\":12740:12774   */\n      0x50726573616c653a2050726573616c6520686173206e6f7420656e6465642079\n        /* \"#utility.yul\":12736:12737   */\n      0x00\n        /* \"#utility.yul\":12728:12734   */\n      dup3\n        /* \"#utility.yul\":12724:12738   */\n      add\n        /* \"#utility.yul\":12717:12775   */\n      mstore\n        /* \"#utility.yul\":12809:12813   */\n      0x6574000000000000000000000000000000000000000000000000000000000000\n        /* \"#utility.yul\":12804:12806   */\n      0x20\n        /* \"#utility.yul\":12796:12802   */\n      dup3\n        /* \"#utility.yul\":12792:12807   */\n      add\n        /* \"#utility.yul\":12785:12814   */\n      mstore\n        /* \"#utility.yul\":12600:12821   */\n      pop\n      jump\t// out\n        /* \"#utility.yul\":12827:13193   */\n    tag_597:\n        /* \"#utility.yul\":12969:12972   */\n      0x00\n        /* \"#utility.yul\":12990:13057   */\n      tag_798\n        /* \"#utility.yul\":13054:13056   */\n      0x22\n        /* \"#utility.yul\":13049:13052   */\n      dup4\n        /* \"#utility.yul\":12990:13057   */\n      tag_586\n      jump\t// in\n    tag_798:\n        /* \"#utility.yul\":12983:13057   */\n      swap2\n      pop\n        /* \"#utility.yul\":13066:13159   */\n      tag_799\n        /* \"#utility.yul\":13155:13158   */\n      dup3\n        /* \"#utility.yul\":13066:13159   */\n      tag_596\n      jump\t// in\n    tag_799:\n        /* \"#utility.yul\":13184:13186   */\n      0x40\n        /* \"#utility.yul\":13179:13182   */\n      dup3\n        /* \"#utility.yul\":13175:13187   */\n      add\n        /* \"#utility.yul\":13168:13187   */\n      swap1\n      pop\n        /* \"#utility.yul\":12827:13193   */\n      swap2\n      swap1\n      pop\n      jump\t// out\n        /* \"#utility.yul\":13199:13618   */\n    tag_248:\n        /* \"#utility.yul\":13365:13369   */\n      0x00\n        /* \"#utility.yul\":13403:13405   */\n      0x20\n        /* \"#utility.yul\":13392:13401   */\n      dup3\n        /* \"#utility.yul\":13388:13406   */\n      add\n        /* \"#utility.yul\":13380:13406   */\n      swap1\n      pop\n        /* \"#utility.yul\":13452:13461   */\n      dup2\n        /* \"#utility.yul\":13446:13450   */\n      dup2\n        /* \"#utility.yul\":13442:13462   */\n      sub\n        /* \"#utility.yul\":13438:13439   */\n      0x00\n        /* \"#utility.yul\":13427:13436   */\n      dup4\n        /* \"#utility.yul\":13423:13440   */\n      add\n        /* \"#utility.yul\":13416:13463   */\n      mstore\n        /* \"#utility.yul\":13480:13611   */\n      tag_801\n        /* \"#utility.yul\":13606:13610   */\n      dup2\n        /* \"#utility.yul\":13480:13611   */\n      tag_597\n      jump\t// in\n    tag_801:\n        /* \"#utility.yul\":13472:13611   */\n      swap1\n      pop\n        /* \"#utility.yul\":13199:13618   */\n      swap2\n      swap1\n      pop\n      jump\t// out\n        /* \"#utility.yul\":13624:13849   */\n    tag_598:\n        /* \"#utility.yul\":13764:13798   */\n      0x50726573616c653a20556e6c6f636b696e672068617320616c72656164792073\n        /* \"#utility.yul\":13760:13761   */\n      0x00\n        /* \"#utility.yul\":13752:13758   */\n      dup3\n        /* \"#utility.yul\":13748:13762   */\n      add\n        /* \"#utility.yul\":13741:13799   */\n      mstore\n        /* \"#utility.yul\":13833:13841   */\n      0x7461727465640000000000000000000000000000000000000000000000000000\n        /* \"#utility.yul\":13828:13830   */\n      0x20\n        /* \"#utility.yul\":13820:13826   */\n      dup3\n        /* \"#utility.yul\":13816:13831   */\n      add\n        /* \"#utility.yul\":13809:13842   */\n      mstore\n        /* \"#utility.yul\":13624:13849   */\n      pop\n      jump\t// out\n        /* \"#utility.yul\":13855:14221   */\n    tag_599:\n        /* \"#utility.yul\":13997:14000   */\n      0x00\n        /* \"#utility.yul\":14018:14085   */\n      tag_804\n        /* \"#utility.yul\":14082:14084   */\n      0x26\n        /* \"#utility.yul\":14077:14080   */\n      dup4\n        /* \"#utility.yul\":14018:14085   */\n      tag_586\n      jump\t// in\n    tag_804:\n        /* \"#utility.yul\":14011:14085   */\n      swap2\n      pop\n        /* \"#utility.yul\":14094:14187   */\n      tag_805\n        /* \"#utility.yul\":14183:14186   */\n      dup3\n        /* \"#utility.yul\":14094:14187   */\n      tag_598\n      jump\t// in\n    tag_805:\n        /* \"#utility.yul\":14212:14214   */\n      0x40\n        /* \"#utility.yul\":14207:14210   */\n      dup3\n        /* \"#utility.yul\":14203:14215   */\n      add\n        /* \"#utility.yul\":14196:14215   */\n      swap1\n      pop\n        /* \"#utility.yul\":13855:14221   */\n      swap2\n      swap1\n      pop\n      jump\t// out\n        /* \"#utility.yul\":14227:14646   */\n    tag_252:\n        /* \"#utility.yul\":14393:14397   */\n      0x00\n        /* \"#utility.yul\":14431:14433   */\n      0x20\n        /* \"#utility.yul\":14420:14429   */\n      dup3\n        /* \"#utility.yul\":14416:14434   */\n      add\n        /* \"#utility.yul\":14408:14434   */\n      swap1\n      pop\n        /* \"#utility.yul\":14480:14489   */\n      dup2\n        /* \"#utility.yul\":14474:14478   */\n      dup2\n        /* \"#utility.yul\":14470:14490   */\n      sub\n        /* \"#utility.yul\":14466:14467   */\n      0x00\n        /* \"#utility.yul\":14455:14464   */\n      dup4\n        /* \"#utility.yul\":14451:14468   */\n      add\n        /* \"#utility.yul\":14444:14491   */\n      mstore\n        /* \"#utility.yul\":14508:14639   */\n      tag_807\n        /* \"#utility.yul\":14634:14638   */\n      dup2\n        /* \"#utility.yul\":14508:14639   */\n      tag_599\n      jump\t// in\n    tag_807:\n        /* \"#utility.yul\":14500:14639   */\n      swap1\n      pop\n        /* \"#utility.yul\":14227:14646   */\n      swap2\n      swap1\n      pop\n      jump\t// out\n        /* \"#utility.yul\":14652:14756   */\n    tag_600:\n        /* \"#utility.yul\":14717:14723   */\n      0x00\n        /* \"#utility.yul\":14745:14749   */\n      0x04\n        /* \"#utility.yul\":14735:14749   */\n      swap1\n      pop\n        /* \"#utility.yul\":14652:14756   */\n      swap2\n      swap1\n      pop\n      jump\t// out\n        /* \"#utility.yul\":14762:14905   */\n    tag_601:\n        /* \"#utility.yul\":14859:14870   */\n      0x00\n        /* \"#utility.yul\":14896:14899   */\n      dup2\n        /* \"#utility.yul\":14881:14899   */\n      swap1\n      pop\n        /* \"#utility.yul\":14762:14905   */\n      swap3\n      swap2\n      pop\n      pop\n      jump\t// out\n        /* \"#utility.yul\":14911:15009   */\n    tag_602:\n        /* \"#utility.yul\":14976:14980   */\n      0x00\n        /* \"#utility.yul\":14999:15002   */\n      dup2\n        /* \"#utility.yul\":14991:15002   */\n      swap1\n      pop\n        /* \"#utility.yul\":14911:15009   */\n      swap2\n      swap1\n      pop\n      jump\t// out\n        /* \"#utility.yul\":15015:15123   */\n    tag_603:\n        /* \"#utility.yul\":15092:15116   */\n      tag_812\n        /* \"#utility.yul\":15110:15115   */\n      dup2\n        /* \"#utility.yul\":15092:15116   */\n      tag_570\n      jump\t// in\n    tag_812:\n        /* \"#utility.yul\":15087:15090   */\n      dup3\n        /* \"#utility.yul\":15080:15117   */\n      mstore\n        /* \"#utility.yul\":15015:15123   */\n      pop\n      pop\n      jump\t// out\n        /* \"#utility.yul\":15129:15308   */\n    tag_604:\n        /* \"#utility.yul\":15198:15208   */\n      0x00\n        /* \"#utility.yul\":15219:15265   */\n      tag_814\n        /* \"#utility.yul\":15261:15264   */\n      dup4\n        /* \"#utility.yul\":15253:15259   */\n      dup4\n        /* \"#utility.yul\":15219:15265   */\n      tag_603\n      jump\t// in\n    tag_814:\n        /* \"#utility.yul\":15297:15301   */\n      0x20\n        /* \"#utility.yul\":15292:15295   */\n      dup4\n        /* \"#utility.yul\":15288:15302   */\n      add\n        /* \"#utility.yul\":15274:15302   */\n      swap1\n      pop\n        /* \"#utility.yul\":15129:15308   */\n      swap3\n      swap2\n      pop\n      pop\n      jump\t// out\n        /* \"#utility.yul\":15314:15425   */\n    tag_605:\n        /* \"#utility.yul\":15382:15386   */\n      0x00\n        /* \"#utility.yul\":15414:15418   */\n      0x20\n        /* \"#utility.yul\":15409:15412   */\n      dup3\n        /* \"#utility.yul\":15405:15419   */\n      add\n        /* \"#utility.yul\":15397:15419   */\n      swap1\n      pop\n        /* \"#utility.yul\":15314:15425   */\n      swap2\n      swap1\n      pop\n      jump\t// out\n        /* \"#utility.yul\":15463:16157   */\n    tag_606:\n        /* \"#utility.yul\":15599:15651   */\n      tag_817\n        /* \"#utility.yul\":15645:15650   */\n      dup2\n        /* \"#utility.yul\":15599:15651   */\n      tag_600\n      jump\t// in\n    tag_817:\n        /* \"#utility.yul\":15667:15751   */\n      tag_818\n        /* \"#utility.yul\":15744:15750   */\n      dup2\n        /* \"#utility.yul\":15739:15742   */\n      dup5\n        /* \"#utility.yul\":15667:15751   */\n      tag_601\n      jump\t// in\n    tag_818:\n        /* \"#utility.yul\":15660:15751   */\n      swap3\n      pop\n        /* \"#utility.yul\":15775:15829   */\n      tag_819\n        /* \"#utility.yul\":15823:15828   */\n      dup3\n        /* \"#utility.yul\":15775:15829   */\n      tag_602\n      jump\t// in\n    tag_819:\n        /* \"#utility.yul\":15852:15859   */\n      dup1\n        /* \"#utility.yul\":15883:15884   */\n      0x00\n        /* \"#utility.yul\":15868:16150   */\n    tag_820:\n        /* \"#utility.yul\":15893:15899   */\n      dup4\n        /* \"#utility.yul\":15890:15891   */\n      dup2\n        /* \"#utility.yul\":15887:15900   */\n      lt\n        /* \"#utility.yul\":15868:16150   */\n      iszero\n      tag_822\n      jumpi\n        /* \"#utility.yul\":15969:15975   */\n      dup2\n        /* \"#utility.yul\":15963:15976   */\n      mload\n        /* \"#utility.yul\":15996:16059   */\n      tag_823\n        /* \"#utility.yul\":16055:16058   */\n      dup8\n        /* \"#utility.yul\":16040:16053   */\n      dup3\n        /* \"#utility.yul\":15996:16059   */\n      tag_604\n      jump\t// in\n    tag_823:\n        /* \"#utility.yul\":15989:16059   */\n      swap7\n      pop\n        /* \"#utility.yul\":16082:16140   */\n      tag_824\n        /* \"#utility.yul\":16133:16139   */\n      dup4\n        /* \"#utility.yul\":16082:16140   */\n      tag_605\n      jump\t// in\n    tag_824:\n        /* \"#utility.yul\":16072:16140   */\n      swap3\n      pop\n        /* \"#utility.yul\":15928:16150   */\n      pop\n        /* \"#utility.yul\":15915:15916   */\n      0x01\n        /* \"#utility.yul\":15912:15913   */\n      dup2\n        /* \"#utility.yul\":15908:15917   */\n      add\n        /* \"#utility.yul\":15903:15917   */\n      swap1\n      pop\n        /* \"#utility.yul\":15868:16150   */\n      jump(tag_820)\n    tag_822:\n        /* \"#utility.yul\":15872:15886   */\n      pop\n        /* \"#utility.yul\":15575:16157   */\n      pop\n      pop\n      pop\n        /* \"#utility.yul\":15463:16157   */\n      pop\n      pop\n      jump\t// out\n        /* \"#utility.yul\":16163:16588   */\n    tag_285:\n        /* \"#utility.yul\":16330:16334   */\n      0x00\n        /* \"#utility.yul\":16368:16371   */\n      0xa0\n        /* \"#utility.yul\":16357:16366   */\n      dup3\n        /* \"#utility.yul\":16353:16372   */\n      add\n        /* \"#utility.yul\":16345:16372   */\n      swap1\n      pop\n        /* \"#utility.yul\":16382:16453   */\n      tag_826\n        /* \"#utility.yul\":16450:16451   */\n      0x00\n        /* \"#utility.yul\":16439:16448   */\n      dup4\n        /* \"#utility.yul\":16435:16452   */\n      add\n        /* \"#utility.yul\":16426:16432   */\n      dup6\n        /* \"#utility.yul\":16382:16453   */\n      tag_585\n      jump\t// in\n    tag_826:\n        /* \"#utility.yul\":16463:16581   */\n      tag_827\n        /* \"#utility.yul\":16577:16579   */\n      0x20\n        /* \"#utility.yul\":16566:16575   */\n      dup4\n        /* \"#utility.yul\":16562:16580   */\n      add\n        /* \"#utility.yul\":16553:16559   */\n      dup5\n        /* \"#utility.yul\":16463:16581   */\n      tag_606\n      jump\t// in\n    tag_827:\n        /* \"#utility.yul\":16163:16588   */\n      swap4\n      swap3\n      pop\n      pop\n      pop\n      jump\t// out\n        /* \"#utility.yul\":16594:16817   */\n    tag_607:\n        /* \"#utility.yul\":16734:16768   */\n      0x50726573616c653a2050726573616c6520686173206e6f742073746172746564\n        /* \"#utility.yul\":16730:16731   */\n      0x00\n        /* \"#utility.yul\":16722:16728   */\n      dup3\n        /* \"#utility.yul\":16718:16732   */\n      add\n        /* \"#utility.yul\":16711:16769   */\n      mstore\n        /* \"#utility.yul\":16803:16809   */\n      0x2079657400000000000000000000000000000000000000000000000000000000\n        /* \"#utility.yul\":16798:16800   */\n      0x20\n        /* \"#utility.yul\":16790:16796   */\n      dup3\n        /* \"#utility.yul\":16786:16801   */\n      add\n        /* \"#utility.yul\":16779:16810   */\n      mstore\n        /* \"#utility.yul\":16594:16817   */\n      pop\n      jump\t// out\n        /* \"#utility.yul\":16823:17189   */\n    tag_608:\n        /* \"#utility.yul\":16965:16968   */\n      0x00\n        /* \"#utility.yul\":16986:17053   */\n      tag_830\n        /* \"#utility.yul\":17050:17052   */\n      0x24\n        /* \"#utility.yul\":17045:17048   */\n      dup4\n        /* \"#utility.yul\":16986:17053   */\n      tag_586\n      jump\t// in\n    tag_830:\n        /* \"#utility.yul\":16979:17053   */\n      swap2\n      pop\n        /* \"#utility.yul\":17062:17155   */\n      tag_831\n        /* \"#utility.yul\":17151:17154   */\n      dup3\n        /* \"#utility.yul\":17062:17155   */\n      tag_607\n      jump\t// in\n    tag_831:\n        /* \"#utility.yul\":17180:17182   */\n      0x40\n        /* \"#utility.yul\":17175:17178   */\n      dup3\n        /* \"#utility.yul\":17171:17183   */\n      add\n        /* \"#utility.yul\":17164:17183   */\n      swap1\n      pop\n        /* \"#utility.yul\":16823:17189   */\n      swap2\n      swap1\n      pop\n      jump\t// out\n        /* \"#utility.yul\":17195:17614   */\n    tag_291:\n        /* \"#utility.yul\":17361:17365   */\n      0x00\n        /* \"#utility.yul\":17399:17401   */\n      0x20\n        /* \"#utility.yul\":17388:17397   */\n      dup3\n        /* \"#utility.yul\":17384:17402   */\n      add\n        /* \"#utility.yul\":17376:17402   */\n      swap1\n      pop\n        /* \"#utility.yul\":17448:17457   */\n      dup2\n        /* \"#utility.yul\":17442:17446   */\n      dup2\n        /* \"#utility.yul\":17438:17458   */\n      sub\n        /* \"#utility.yul\":17434:17435   */\n      0x00\n        /* \"#utility.yul\":17423:17432   */\n      dup4\n        /* \"#utility.yul\":17419:17436   */\n      add\n        /* \"#utility.yul\":17412:17459   */\n      mstore\n        /* \"#utility.yul\":17476:17607   */\n      tag_833\n        /* \"#utility.yul\":17602:17606   */\n      dup2\n        /* \"#utility.yul\":17476:17607   */\n      tag_608\n      jump\t// in\n    tag_833:\n        /* \"#utility.yul\":17468:17607   */\n      swap1\n      pop\n        /* \"#utility.yul\":17195:17614   */\n      swap2\n      swap1\n      pop\n      jump\t// out\n        /* \"#utility.yul\":17620:17796   */\n    tag_609:\n        /* \"#utility.yul\":17760:17788   */\n      0x50726573616c653a2050726573616c652068617320656e646564000000000000\n        /* \"#utility.yul\":17756:17757   */\n      0x00\n        /* \"#utility.yul\":17748:17754   */\n      dup3\n        /* \"#utility.yul\":17744:17758   */\n      add\n        /* \"#utility.yul\":17737:17789   */\n      mstore\n        /* \"#utility.yul\":17620:17796   */\n      pop\n      jump\t// out\n        /* \"#utility.yul\":17802:18168   */\n    tag_610:\n        /* \"#utility.yul\":17944:17947   */\n      0x00\n        /* \"#utility.yul\":17965:18032   */\n      tag_836\n        /* \"#utility.yul\":18029:18031   */\n      0x1a\n        /* \"#utility.yul\":18024:18027   */\n      dup4\n        /* \"#utility.yul\":17965:18032   */\n      tag_586\n      jump\t// in\n    tag_836:\n        /* \"#utility.yul\":17958:18032   */\n      swap2\n      pop\n        /* \"#utility.yul\":18041:18134   */\n      tag_837\n        /* \"#utility.yul\":18130:18133   */\n      dup3\n        /* \"#utility.yul\":18041:18134   */\n      tag_609\n      jump\t// in\n    tag_837:\n        /* \"#utility.yul\":18159:18161   */\n      0x20\n        /* \"#utility.yul\":18154:18157   */\n      dup3\n        /* \"#utility.yul\":18150:18162   */\n      add\n        /* \"#utility.yul\":18143:18162   */\n      swap1\n      pop\n        /* \"#utility.yul\":17802:18168   */\n      swap2\n      swap1\n      pop\n      jump\t// out\n        /* \"#utility.yul\":18174:18593   */\n    tag_295:\n        /* \"#utility.yul\":18340:18344   */\n      0x00\n        /* \"#utility.yul\":18378:18380   */\n      0x20\n        /* \"#utility.yul\":18367:18376   */\n      dup3\n        /* \"#utility.yul\":18363:18381   */\n      add\n        /* \"#utility.yul\":18355:18381   */\n      swap1\n      pop\n        /* \"#utility.yul\":18427:18436   */\n      dup2\n        /* \"#utility.yul\":18421:18425   */\n      dup2\n        /* \"#utility.yul\":18417:18437   */\n      sub\n        /* \"#utility.yul\":18413:18414   */\n      0x00\n        /* \"#utility.yul\":18402:18411   */\n      dup4\n        /* \"#utility.yul\":18398:18415   */\n      add\n        /* \"#utility.yul\":18391:18438   */\n      mstore\n        /* \"#utility.yul\":18455:18586   */\n      tag_839\n        /* \"#utility.yul\":18581:18585   */\n      dup2\n        /* \"#utility.yul\":18455:18586   */\n      tag_610\n      jump\t// in\n    tag_839:\n        /* \"#utility.yul\":18447:18586   */\n      swap1\n      pop\n        /* \"#utility.yul\":18174:18593   */\n      swap2\n      swap1\n      pop\n      jump\t// out\n        /* \"#utility.yul\":18599:18820   */\n    tag_611:\n        /* \"#utility.yul\":18739:18773   */\n      0x50726573616c653a204d696e20627579206c696d6974206e6f74207265616368\n        /* \"#utility.yul\":18735:18736   */\n      0x00\n        /* \"#utility.yul\":18727:18733   */\n      dup3\n        /* \"#utility.yul\":18723:18737   */\n      add\n        /* \"#utility.yul\":18716:18774   */\n      mstore\n        /* \"#utility.yul\":18808:18812   */\n      0x6564000000000000000000000000000000000000000000000000000000000000\n        /* \"#utility.yul\":18803:18805   */\n      0x20\n        /* \"#utility.yul\":18795:18801   */\n      dup3\n        /* \"#utility.yul\":18791:18806   */\n      add\n        /* \"#utility.yul\":18784:18813   */\n      mstore\n        /* \"#utility.yul\":18599:18820   */\n      pop\n      jump\t// out\n        /* \"#utility.yul\":18826:19192   */\n    tag_612:\n        /* \"#utility.yul\":18968:18971   */\n      0x00\n        /* \"#utility.yul\":18989:19056   */\n      tag_842\n        /* \"#utility.yul\":19053:19055   */\n      0x22\n        /* \"#utility.yul\":19048:19051   */\n      dup4\n        /* \"#utility.yul\":18989:19056   */\n      tag_586\n      jump\t// in\n    tag_842:\n        /* \"#utility.yul\":18982:19056   */\n      swap2\n      pop\n        /* \"#utility.yul\":19065:19158   */\n      tag_843\n        /* \"#utility.yul\":19154:19157   */\n      dup3\n        /* \"#utility.yul\":19065:19158   */\n      tag_611\n      jump\t// in\n    tag_843:\n        /* \"#utility.yul\":19183:19185   */\n      0x40\n        /* \"#utility.yul\":19178:19181   */\n      dup3\n        /* \"#utility.yul\":19174:19186   */\n      add\n        /* \"#utility.yul\":19167:19186   */\n      swap1\n      pop\n        /* \"#utility.yul\":18826:19192   */\n      swap2\n      swap1\n      pop\n      jump\t// out\n        /* \"#utility.yul\":19198:19617   */\n    tag_306:\n        /* \"#utility.yul\":19364:19368   */\n      0x00\n        /* \"#utility.yul\":19402:19404   */\n      0x20\n        /* \"#utility.yul\":19391:19400   */\n      dup3\n        /* \"#utility.yul\":19387:19405   */\n      add\n        /* \"#utility.yul\":19379:19405   */\n      swap1\n      pop\n        /* \"#utility.yul\":19451:19460   */\n      dup2\n        /* \"#utility.yul\":19445:19449   */\n      dup2\n        /* \"#utility.yul\":19441:19461   */\n      sub\n        /* \"#utility.yul\":19437:19438   */\n      0x00\n        /* \"#utility.yul\":19426:19435   */\n      dup4\n        /* \"#utility.yul\":19422:19439   */\n      add\n        /* \"#utility.yul\":19415:19462   */\n      mstore\n        /* \"#utility.yul\":19479:19610   */\n      tag_845\n        /* \"#utility.yul\":19605:19609   */\n      dup2\n        /* \"#utility.yul\":19479:19610   */\n      tag_612\n      jump\t// in\n    tag_845:\n        /* \"#utility.yul\":19471:19610   */\n      swap1\n      pop\n        /* \"#utility.yul\":19198:19617   */\n      swap2\n      swap1\n      pop\n      jump\t// out\n        /* \"#utility.yul\":19623:19814   */\n    tag_308:\n        /* \"#utility.yul\":19663:19666   */\n      0x00\n        /* \"#utility.yul\":19682:19702   */\n      tag_847\n        /* \"#utility.yul\":19700:19701   */\n      dup3\n        /* \"#utility.yul\":19682:19702   */\n      tag_570\n      jump\t// in\n    tag_847:\n        /* \"#utility.yul\":19677:19702   */\n      swap2\n      pop\n        /* \"#utility.yul\":19716:19736   */\n      tag_848\n        /* \"#utility.yul\":19734:19735   */\n      dup4\n        /* \"#utility.yul\":19716:19736   */\n      tag_570\n      jump\t// in\n    tag_848:\n        /* \"#utility.yul\":19711:19736   */\n      swap3\n      pop\n        /* \"#utility.yul\":19759:19760   */\n      dup3\n        /* \"#utility.yul\":19756:19757   */\n      dup3\n        /* \"#utility.yul\":19752:19761   */\n      add\n        /* \"#utility.yul\":19745:19761   */\n      swap1\n      pop\n        /* \"#utility.yul\":19780:19783   */\n      dup1\n        /* \"#utility.yul\":19777:19778   */\n      dup3\n        /* \"#utility.yul\":19774:19784   */\n      gt\n        /* \"#utility.yul\":19771:19807   */\n      iszero\n      tag_849\n      jumpi\n        /* \"#utility.yul\":19787:19805   */\n      tag_850\n      tag_589\n      jump\t// in\n    tag_850:\n        /* \"#utility.yul\":19771:19807   */\n    tag_849:\n        /* \"#utility.yul\":19623:19814   */\n      swap3\n      swap2\n      pop\n      pop\n      jump\t// out\n        /* \"#utility.yul\":19820:20052   */\n    tag_613:\n        /* \"#utility.yul\":19960:19994   */\n      0x50726573616c653a204d617820627579206c696d697420726561636865642066\n        /* \"#utility.yul\":19956:19957   */\n      0x00\n        /* \"#utility.yul\":19948:19954   */\n      dup3\n        /* \"#utility.yul\":19944:19958   */\n      add\n        /* \"#utility.yul\":19937:19995   */\n      mstore\n        /* \"#utility.yul\":20029:20044   */\n      0x6f72207468697320706861736500000000000000000000000000000000000000\n        /* \"#utility.yul\":20024:20026   */\n      0x20\n        /* \"#utility.yul\":20016:20022   */\n      dup3\n        /* \"#utility.yul\":20012:20027   */\n      add\n        /* \"#utility.yul\":20005:20045   */\n      mstore\n        /* \"#utility.yul\":19820:20052   */\n      pop\n      jump\t// out\n        /* \"#utility.yul\":20058:20424   */\n    tag_614:\n        /* \"#utility.yul\":20200:20203   */\n      0x00\n        /* \"#utility.yul\":20221:20288   */\n      tag_853\n        /* \"#utility.yul\":20285:20287   */\n      0x2d\n        /* \"#utility.yul\":20280:20283   */\n      dup4\n        /* \"#utility.yul\":20221:20288   */\n      tag_586\n      jump\t// in\n    tag_853:\n        /* \"#utility.yul\":20214:20288   */\n      swap2\n      pop\n        /* \"#utility.yul\":20297:20390   */\n      tag_854\n        /* \"#utility.yul\":20386:20389   */\n      dup3\n        /* \"#utility.yul\":20297:20390   */\n      tag_613\n      jump\t// in\n    tag_854:\n        /* \"#utility.yul\":20415:20417   */\n      0x40\n        /* \"#utility.yul\":20410:20413   */\n      dup3\n        /* \"#utility.yul\":20406:20418   */\n      add\n        /* \"#utility.yul\":20399:20418   */\n      swap1\n      pop\n        /* \"#utility.yul\":20058:20424   */\n      swap2\n      swap1\n      pop\n      jump\t// out\n        /* \"#utility.yul\":20430:20849   */\n    tag_311:\n        /* \"#utility.yul\":20596:20600   */\n      0x00\n        /* \"#utility.yul\":20634:20636   */\n      0x20\n        /* \"#utility.yul\":20623:20632   */\n      dup3\n        /* \"#utility.yul\":20619:20637   */\n      add\n        /* \"#utility.yul\":20611:20637   */\n      swap1\n      pop\n        /* \"#utility.yul\":20683:20692   */\n      dup2\n        /* \"#utility.yul\":20677:20681   */\n      dup2\n        /* \"#utility.yul\":20673:20693   */\n      sub\n        /* \"#utility.yul\":20669:20670   */\n      0x00\n        /* \"#utility.yul\":20658:20667   */\n      dup4\n        /* \"#utility.yul\":20654:20671   */\n      add\n        /* \"#utility.yul\":20647:20694   */\n      mstore\n        /* \"#utility.yul\":20711:20842   */\n      tag_856\n        /* \"#utility.yul\":20837:20841   */\n      dup2\n        /* \"#utility.yul\":20711:20842   */\n      tag_614\n      jump\t// in\n    tag_856:\n        /* \"#utility.yul\":20703:20842   */\n      swap1\n      pop\n        /* \"#utility.yul\":20430:20849   */\n      swap2\n      swap1\n      pop\n      jump\t// out\n        /* \"#utility.yul\":20855:21076   */\n    tag_615:\n        /* \"#utility.yul\":20995:21029   */\n      0x50726573616c653a20546f74616c20546f6b656e2053616c6520526561636865\n        /* \"#utility.yul\":20991:20992   */\n      0x00\n        /* \"#utility.yul\":20983:20989   */\n      dup3\n        /* \"#utility.yul\":20979:20993   */\n      add\n        /* \"#utility.yul\":20972:21030   */\n      mstore\n        /* \"#utility.yul\":21064:21068   */\n      0x6421000000000000000000000000000000000000000000000000000000000000\n        /* \"#utility.yul\":21059:21061   */\n      0x20\n        /* \"#utility.yul\":21051:21057   */\n      dup3\n        /* \"#utility.yul\":21047:21062   */\n      add\n        /* \"#utility.yul\":21040:21069   */\n      mstore\n        /* \"#utility.yul\":20855:21076   */\n      pop\n      jump\t// out\n        /* \"#utility.yul\":21082:21448   */\n    tag_616:\n        /* \"#utility.yul\":21224:21227   */\n      0x00\n        /* \"#utility.yul\":21245:21312   */\n      tag_859\n        /* \"#utility.yul\":21309:21311   */\n      0x22\n        /* \"#utility.yul\":21304:21307   */\n      dup4\n        /* \"#utility.yul\":21245:21312   */\n      tag_586\n      jump\t// in\n    tag_859:\n        /* \"#utility.yul\":21238:21312   */\n      swap2\n      pop\n        /* \"#utility.yul\":21321:21414   */\n      tag_860\n        /* \"#utility.yul\":21410:21413   */\n      dup3\n        /* \"#utility.yul\":21321:21414   */\n      tag_615\n      jump\t// in\n    tag_860:\n        /* \"#utility.yul\":21439:21441   */\n      0x40\n        /* \"#utility.yul\":21434:21437   */\n      dup3\n        /* \"#utility.yul\":21430:21442   */\n      add\n        /* \"#utility.yul\":21423:21442   */\n      swap1\n      pop\n        /* \"#utility.yul\":21082:21448   */\n      swap2\n      swap1\n      pop\n      jump\t// out\n        /* \"#utility.yul\":21454:21873   */\n    tag_315:\n        /* \"#utility.yul\":21620:21624   */\n      0x00\n        /* \"#utility.yul\":21658:21660   */\n      0x20\n        /* \"#utility.yul\":21647:21656   */\n      dup3\n        /* \"#utility.yul\":21643:21661   */\n      add\n        /* \"#utility.yul\":21635:21661   */\n      swap1\n      pop\n        /* \"#utility.yul\":21707:21716   */\n      dup2\n        /* \"#utility.yul\":21701:21705   */\n      dup2\n        /* \"#utility.yul\":21697:21717   */\n      sub\n        /* \"#utility.yul\":21693:21694   */\n      0x00\n        /* \"#utility.yul\":21682:21691   */\n      dup4\n        /* \"#utility.yul\":21678:21695   */\n      add\n        /* \"#utility.yul\":21671:21718   */\n      mstore\n        /* \"#utility.yul\":21735:21866   */\n      tag_862\n        /* \"#utility.yul\":21861:21865   */\n      dup2\n        /* \"#utility.yul\":21735:21866   */\n      tag_616\n      jump\t// in\n    tag_862:\n        /* \"#utility.yul\":21727:21866   */\n      swap1\n      pop\n        /* \"#utility.yul\":21454:21873   */\n      swap2\n      swap1\n      pop\n      jump\t// out\n        /* \"#utility.yul\":21879:22102   */\n    tag_617:\n        /* \"#utility.yul\":22019:22053   */\n      0x50726573616c653a2043616e6e6f74206275792077697468207a65726f20616d\n        /* \"#utility.yul\":22015:22016   */\n      0x00\n        /* \"#utility.yul\":22007:22013   */\n      dup3\n        /* \"#utility.yul\":22003:22017   */\n      add\n        /* \"#utility.yul\":21996:22054   */\n      mstore\n        /* \"#utility.yul\":22088:22094   */\n      0x6f756e7400000000000000000000000000000000000000000000000000000000\n        /* \"#utility.yul\":22083:22085   */\n      0x20\n        /* \"#utility.yul\":22075:22081   */\n      dup3\n        /* \"#utility.yul\":22071:22086   */\n      add\n        /* \"#utility.yul\":22064:22095   */\n      mstore\n        /* \"#utility.yul\":21879:22102   */\n      pop\n      jump\t// out\n        /* \"#utility.yul\":22108:22474   */\n    tag_618:\n        /* \"#utility.yul\":22250:22253   */\n      0x00\n        /* \"#utility.yul\":22271:22338   */\n      tag_865\n        /* \"#utility.yul\":22335:22337   */\n      0x24\n        /* \"#utility.yul\":22330:22333   */\n      dup4\n        /* \"#utility.yul\":22271:22338   */\n      tag_586\n      jump\t// in\n    tag_865:\n        /* \"#utility.yul\":22264:22338   */\n      swap2\n      pop\n        /* \"#utility.yul\":22347:22440   */\n      tag_866\n        /* \"#utility.yul\":22436:22439   */\n      dup3\n        /* \"#utility.yul\":22347:22440   */\n      tag_617\n      jump\t// in\n    tag_866:\n        /* \"#utility.yul\":22465:22467   */\n      0x40\n        /* \"#utility.yul\":22460:22463   */\n      dup3\n        /* \"#utility.yul\":22456:22468   */\n      add\n        /* \"#utility.yul\":22449:22468   */\n      swap1\n      pop\n        /* \"#utility.yul\":22108:22474   */\n      swap2\n      swap1\n      pop\n      jump\t// out\n        /* \"#utility.yul\":22480:22899   */\n    tag_319:\n        /* \"#utility.yul\":22646:22650   */\n      0x00\n        /* \"#utility.yul\":22684:22686   */\n      0x20\n        /* \"#utility.yul\":22673:22682   */\n      dup3\n        /* \"#utility.yul\":22669:22687   */\n      add\n        /* \"#utility.yul\":22661:22687   */\n      swap1\n      pop\n        /* \"#utility.yul\":22733:22742   */\n      dup2\n        /* \"#utility.yul\":22727:22731   */\n      dup2\n        /* \"#utility.yul\":22723:22743   */\n      sub\n        /* \"#utility.yul\":22719:22720   */\n      0x00\n        /* \"#utility.yul\":22708:22717   */\n      dup4\n        /* \"#utility.yul\":22704:22721   */\n      add\n        /* \"#utility.yul\":22697:22744   */\n      mstore\n        /* \"#utility.yul\":22761:22892   */\n      tag_868\n        /* \"#utility.yul\":22887:22891   */\n      dup2\n        /* \"#utility.yul\":22761:22892   */\n      tag_618\n      jump\t// in\n    tag_868:\n        /* \"#utility.yul\":22753:22892   */\n      swap1\n      pop\n        /* \"#utility.yul\":22480:22899   */\n      swap2\n      swap1\n      pop\n      jump\t// out\n        /* \"#utility.yul\":22905:23237   */\n    tag_327:\n        /* \"#utility.yul\":23026:23030   */\n      0x00\n        /* \"#utility.yul\":23064:23066   */\n      0x40\n        /* \"#utility.yul\":23053:23062   */\n      dup3\n        /* \"#utility.yul\":23049:23067   */\n      add\n        /* \"#utility.yul\":23041:23067   */\n      swap1\n      pop\n        /* \"#utility.yul\":23077:23148   */\n      tag_870\n        /* \"#utility.yul\":23145:23146   */\n      0x00\n        /* \"#utility.yul\":23134:23143   */\n      dup4\n        /* \"#utility.yul\":23130:23147   */\n      add\n        /* \"#utility.yul\":23121:23127   */\n      dup6\n        /* \"#utility.yul\":23077:23148   */\n      tag_573\n      jump\t// in\n    tag_870:\n        /* \"#utility.yul\":23158:23230   */\n      tag_871\n        /* \"#utility.yul\":23226:23228   */\n      0x20\n        /* \"#utility.yul\":23215:23224   */\n      dup4\n        /* \"#utility.yul\":23211:23229   */\n      add\n        /* \"#utility.yul\":23202:23208   */\n      dup5\n        /* \"#utility.yul\":23158:23230   */\n      tag_573\n      jump\t// in\n    tag_871:\n        /* \"#utility.yul\":22905:23237   */\n      swap4\n      swap3\n      pop\n      pop\n      pop\n      jump\t// out\n        /* \"#utility.yul\":23243:23472   */\n    tag_619:\n        /* \"#utility.yul\":23383:23417   */\n      0x50726573616c653a2053616c6520746f6b656e2063616e6e6f74206265207a65\n        /* \"#utility.yul\":23379:23380   */\n      0x00\n        /* \"#utility.yul\":23371:23377   */\n      dup3\n        /* \"#utility.yul\":23367:23381   */\n      add\n        /* \"#utility.yul\":23360:23418   */\n      mstore\n        /* \"#utility.yul\":23452:23464   */\n      0x726f206164647265737300000000000000000000000000000000000000000000\n        /* \"#utility.yul\":23447:23449   */\n      0x20\n        /* \"#utility.yul\":23439:23445   */\n      dup3\n        /* \"#utility.yul\":23435:23450   */\n      add\n        /* \"#utility.yul\":23428:23465   */\n      mstore\n        /* \"#utility.yul\":23243:23472   */\n      pop\n      jump\t// out\n        /* \"#utility.yul\":23478:23844   */\n    tag_620:\n        /* \"#utility.yul\":23620:23623   */\n      0x00\n        /* \"#utility.yul\":23641:23708   */\n      tag_874\n        /* \"#utility.yul\":23705:23707   */\n      0x2a\n        /* \"#utility.yul\":23700:23703   */\n      dup4\n        /* \"#utility.yul\":23641:23708   */\n      tag_586\n      jump\t// in\n    tag_874:\n        /* \"#utility.yul\":23634:23708   */\n      swap2\n      pop\n        /* \"#utility.yul\":23717:23810   */\n      tag_875\n        /* \"#utility.yul\":23806:23809   */\n      dup3\n        /* \"#utility.yul\":23717:23810   */\n      tag_619\n      jump\t// in\n    tag_875:\n        /* \"#utility.yul\":23835:23837   */\n      0x40\n        /* \"#utility.yul\":23830:23833   */\n      dup3\n        /* \"#utility.yul\":23826:23838   */\n      add\n        /* \"#utility.yul\":23819:23838   */\n      swap1\n      pop\n        /* \"#utility.yul\":23478:23844   */\n      swap2\n      swap1\n      pop\n      jump\t// out\n        /* \"#utility.yul\":23850:24269   */\n    tag_357:\n        /* \"#utility.yul\":24016:24020   */\n      0x00\n        /* \"#utility.yul\":24054:24056   */\n      0x20\n        /* \"#utility.yul\":24043:24052   */\n      dup3\n        /* \"#utility.yul\":24039:24057   */\n      add\n        /* \"#utility.yul\":24031:24057   */\n      swap1\n      pop\n        /* \"#utility.yul\":24103:24112   */\n      dup2\n        /* \"#utility.yul\":24097:24101   */\n      dup2\n        /* \"#utility.yul\":24093:24113   */\n      sub\n        /* \"#utility.yul\":24089:24090   */\n      0x00\n        /* \"#utility.yul\":24078:24087   */\n      dup4\n        /* \"#utility.yul\":24074:24091   */\n      add\n        /* \"#utility.yul\":24067:24114   */\n      mstore\n        /* \"#utility.yul\":24131:24262   */\n      tag_877\n        /* \"#utility.yul\":24257:24261   */\n      dup2\n        /* \"#utility.yul\":24131:24262   */\n      tag_620\n      jump\t// in\n    tag_877:\n        /* \"#utility.yul\":24123:24262   */\n      swap1\n      pop\n        /* \"#utility.yul\":23850:24269   */\n      swap2\n      swap1\n      pop\n      jump\t// out\n        /* \"#utility.yul\":24275:24507   */\n    tag_621:\n        /* \"#utility.yul\":24415:24449   */\n      0x50726573616c653a20546f74616c20746f6b656e7320666f722073616c652063\n        /* \"#utility.yul\":24411:24412   */\n      0x00\n        /* \"#utility.yul\":24403:24409   */\n      dup3\n        /* \"#utility.yul\":24399:24413   */\n      add\n        /* \"#utility.yul\":24392:24450   */\n      mstore\n        /* \"#utility.yul\":24484:24499   */\n      0x616e6e6f74206265207a65726f00000000000000000000000000000000000000\n        /* \"#utility.yul\":24479:24481   */\n      0x20\n        /* \"#utility.yul\":24471:24477   */\n      dup3\n        /* \"#utility.yul\":24467:24482   */\n      add\n        /* \"#utility.yul\":24460:24500   */\n      mstore\n        /* \"#utility.yul\":24275:24507   */\n      pop\n      jump\t// out\n        /* \"#utility.yul\":24513:24879   */\n    tag_622:\n        /* \"#utility.yul\":24655:24658   */\n      0x00\n        /* \"#utility.yul\":24676:24743   */\n      tag_880\n        /* \"#utility.yul\":24740:24742   */\n      0x2d\n        /* \"#utility.yul\":24735:24738   */\n      dup4\n        /* \"#utility.yul\":24676:24743   */\n      tag_586\n      jump\t// in\n    tag_880:\n        /* \"#utility.yul\":24669:24743   */\n      swap2\n      pop\n        /* \"#utility.yul\":24752:24845   */\n      tag_881\n        /* \"#utility.yul\":24841:24844   */\n      dup3\n        /* \"#utility.yul\":24752:24845   */\n      tag_621\n      jump\t// in\n    tag_881:\n        /* \"#utility.yul\":24870:24872   */\n      0x40\n        /* \"#utility.yul\":24865:24868   */\n      dup3\n        /* \"#utility.yul\":24861:24873   */\n      add\n        /* \"#utility.yul\":24854:24873   */\n      swap1\n      pop\n        /* \"#utility.yul\":24513:24879   */\n      swap2\n      swap1\n      pop\n      jump\t// out\n        /* \"#utility.yul\":24885:25304   */\n    tag_360:\n        /* \"#utility.yul\":25051:25055   */\n      0x00\n        /* \"#utility.yul\":25089:25091   */\n      0x20\n        /* \"#utility.yul\":25078:25087   */\n      dup3\n        /* \"#utility.yul\":25074:25092   */\n      add\n        /* \"#utility.yul\":25066:25092   */\n      swap1\n      pop\n        /* \"#utility.yul\":25138:25147   */\n      dup2\n        /* \"#utility.yul\":25132:25136   */\n      dup2\n        /* \"#utility.yul\":25128:25148   */\n      sub\n        /* \"#utility.yul\":25124:25125   */\n      0x00\n        /* \"#utility.yul\":25113:25122   */\n      dup4\n        /* \"#utility.yul\":25109:25126   */\n      add\n        /* \"#utility.yul\":25102:25149   */\n      mstore\n        /* \"#utility.yul\":25166:25297   */\n      tag_883\n        /* \"#utility.yul\":25292:25296   */\n      dup2\n        /* \"#utility.yul\":25166:25297   */\n      tag_622\n      jump\t// in\n    tag_883:\n        /* \"#utility.yul\":25158:25297   */\n      swap1\n      pop\n        /* \"#utility.yul\":24885:25304   */\n      swap2\n      swap1\n      pop\n      jump\t// out\n        /* \"#utility.yul\":25310:25396   */\n    tag_623:\n        /* \"#utility.yul\":25345:25352   */\n      0x00\n        /* \"#utility.yul\":25385:25389   */\n      0xff\n        /* \"#utility.yul\":25378:25383   */\n      dup3\n        /* \"#utility.yul\":25374:25390   */\n      and\n        /* \"#utility.yul\":25363:25390   */\n      swap1\n      pop\n        /* \"#utility.yul\":25310:25396   */\n      swap2\n      swap1\n      pop\n      jump\t// out\n        /* \"#utility.yul\":25402:25520   */\n    tag_624:\n        /* \"#utility.yul\":25473:25495   */\n      tag_886\n        /* \"#utility.yul\":25489:25494   */\n      dup2\n        /* \"#utility.yul\":25473:25495   */\n      tag_623\n      jump\t// in\n    tag_886:\n        /* \"#utility.yul\":25466:25471   */\n      dup2\n        /* \"#utility.yul\":25463:25496   */\n      eq\n        /* \"#utility.yul\":25453:25514   */\n      tag_887\n      jumpi\n        /* \"#utility.yul\":25510:25511   */\n      0x00\n        /* \"#utility.yul\":25507:25508   */\n      dup1\n        /* \"#utility.yul\":25500:25512   */\n      revert\n        /* \"#utility.yul\":25453:25514   */\n    tag_887:\n        /* \"#utility.yul\":25402:25520   */\n      pop\n      jump\t// out\n        /* \"#utility.yul\":25526:25665   */\n    tag_625:\n        /* \"#utility.yul\":25581:25586   */\n      0x00\n        /* \"#utility.yul\":25612:25618   */\n      dup2\n        /* \"#utility.yul\":25606:25619   */\n      mload\n        /* \"#utility.yul\":25597:25619   */\n      swap1\n      pop\n        /* \"#utility.yul\":25628:25659   */\n      tag_889\n        /* \"#utility.yul\":25653:25658   */\n      dup2\n        /* \"#utility.yul\":25628:25659   */\n      tag_624\n      jump\t// in\n    tag_889:\n        /* \"#utility.yul\":25526:25665   */\n      swap3\n      swap2\n      pop\n      pop\n      jump\t// out\n        /* \"#utility.yul\":25671:26018   */\n    tag_364:\n        /* \"#utility.yul\":25739:25745   */\n      0x00\n        /* \"#utility.yul\":25788:25790   */\n      0x20\n        /* \"#utility.yul\":25776:25785   */\n      dup3\n        /* \"#utility.yul\":25767:25774   */\n      dup5\n        /* \"#utility.yul\":25763:25786   */\n      sub\n        /* \"#utility.yul\":25759:25791   */\n      slt\n        /* \"#utility.yul\":25756:25875   */\n      iszero\n      tag_891\n      jumpi\n        /* \"#utility.yul\":25794:25873   */\n      tag_892\n      tag_564\n      jump\t// in\n    tag_892:\n        /* \"#utility.yul\":25756:25875   */\n    tag_891:\n        /* \"#utility.yul\":25914:25915   */\n      0x00\n        /* \"#utility.yul\":25939:26001   */\n      tag_893\n        /* \"#utility.yul\":25993:26000   */\n      dup5\n        /* \"#utility.yul\":25984:25990   */\n      dup3\n        /* \"#utility.yul\":25973:25982   */\n      dup6\n        /* \"#utility.yul\":25969:25991   */\n      add\n        /* \"#utility.yul\":25939:26001   */\n      tag_625\n      jump\t// in\n    tag_893:\n        /* \"#utility.yul\":25929:26001   */\n      swap2\n      pop\n        /* \"#utility.yul\":25885:26011   */\n      pop\n        /* \"#utility.yul\":25671:26018   */\n      swap3\n      swap2\n      pop\n      pop\n      jump\t// out\n        /* \"#utility.yul\":26024:26167   */\n    tag_626:\n        /* \"#utility.yul\":26081:26086   */\n      0x00\n        /* \"#utility.yul\":26112:26118   */\n      dup2\n        /* \"#utility.yul\":26106:26119   */\n      mload\n        /* \"#utility.yul\":26097:26119   */\n      swap1\n      pop\n        /* \"#utility.yul\":26128:26161   */\n      tag_895\n        /* \"#utility.yul\":26155:26160   */\n      dup2\n        /* \"#utility.yul\":26128:26161   */\n      tag_571\n      jump\t// in\n    tag_895:\n        /* \"#utility.yul\":26024:26167   */\n      swap3\n      swap2\n      pop\n      pop\n      jump\t// out\n        /* \"#utility.yul\":26173:26524   */\n    tag_370:\n        /* \"#utility.yul\":26243:26249   */\n      0x00\n        /* \"#utility.yul\":26292:26294   */\n      0x20\n        /* \"#utility.yul\":26280:26289   */\n      dup3\n        /* \"#utility.yul\":26271:26278   */\n      dup5\n        /* \"#utility.yul\":26267:26290   */\n      sub\n        /* \"#utility.yul\":26263:26295   */\n      slt\n        /* \"#utility.yul\":26260:26379   */\n      iszero\n      tag_897\n      jumpi\n        /* \"#utility.yul\":26298:26377   */\n      tag_898\n      tag_564\n      jump\t// in\n    tag_898:\n        /* \"#utility.yul\":26260:26379   */\n    tag_897:\n        /* \"#utility.yul\":26418:26419   */\n      0x00\n        /* \"#utility.yul\":26443:26507   */\n      tag_899\n        /* \"#utility.yul\":26499:26506   */\n      dup5\n        /* \"#utility.yul\":26490:26496   */\n      dup3\n        /* \"#utility.yul\":26479:26488   */\n      dup6\n        /* \"#utility.yul\":26475:26497   */\n      add\n        /* \"#utility.yul\":26443:26507   */\n      tag_626\n      jump\t// in\n    tag_899:\n        /* \"#utility.yul\":26433:26507   */\n      swap2\n      pop\n        /* \"#utility.yul\":26389:26517   */\n      pop\n        /* \"#utility.yul\":26173:26524   */\n      swap3\n      swap2\n      pop\n      pop\n      jump\t// out\n        /* \"#utility.yul\":26530:26862   */\n    tag_372:\n        /* \"#utility.yul\":26651:26655   */\n      0x00\n        /* \"#utility.yul\":26689:26691   */\n      0x40\n        /* \"#utility.yul\":26678:26687   */\n      dup3\n        /* \"#utility.yul\":26674:26692   */\n      add\n        /* \"#utility.yul\":26666:26692   */\n      swap1\n      pop\n        /* \"#utility.yul\":26702:26773   */\n      tag_901\n        /* \"#utility.yul\":26770:26771   */\n      0x00\n        /* \"#utility.yul\":26759:26768   */\n      dup4\n        /* \"#utility.yul\":26755:26772   */\n      add\n        /* \"#utility.yul\":26746:26752   */\n      dup6\n        /* \"#utility.yul\":26702:26773   */\n      tag_585\n      jump\t// in\n    tag_901:\n        /* \"#utility.yul\":26783:26855   */\n      tag_902\n        /* \"#utility.yul\":26851:26853   */\n      0x20\n        /* \"#utility.yul\":26840:26849   */\n      dup4\n        /* \"#utility.yul\":26836:26854   */\n      add\n        /* \"#utility.yul\":26827:26833   */\n      dup5\n        /* \"#utility.yul\":26783:26855   */\n      tag_573\n      jump\t// in\n    tag_902:\n        /* \"#utility.yul\":26530:26862   */\n      swap4\n      swap3\n      pop\n      pop\n      pop\n      jump\t// out\n        /* \"#utility.yul\":26868:27093   */\n    tag_627:\n        /* \"#utility.yul\":27008:27042   */\n      0x50726573616c653a20556e6c6f636b696e67206861736e277420737461727465\n        /* \"#utility.yul\":27004:27005   */\n      0x00\n        /* \"#utility.yul\":26996:27002   */\n      dup3\n        /* \"#utility.yul\":26992:27006   */\n      add\n        /* \"#utility.yul\":26985:27043   */\n      mstore\n        /* \"#utility.yul\":27077:27085   */\n      0x6420796574210000000000000000000000000000000000000000000000000000\n        /* \"#utility.yul\":27072:27074   */\n      0x20\n        /* \"#utility.yul\":27064:27070   */\n      dup3\n        /* \"#utility.yul\":27060:27075   */\n      add\n        /* \"#utility.yul\":27053:27086   */\n      mstore\n        /* \"#utility.yul\":26868:27093   */\n      pop\n      jump\t// out\n        /* \"#utility.yul\":27099:27465   */\n    tag_628:\n        /* \"#utility.yul\":27241:27244   */\n      0x00\n        /* \"#utility.yul\":27262:27329   */\n      tag_905\n        /* \"#utility.yul\":27326:27328   */\n      0x26\n        /* \"#utility.yul\":27321:27324   */\n      dup4\n        /* \"#utility.yul\":27262:27329   */\n      tag_586\n      jump\t// in\n    tag_905:\n        /* \"#utility.yul\":27255:27329   */\n      swap2\n      pop\n        /* \"#utility.yul\":27338:27431   */\n      tag_906\n        /* \"#utility.yul\":27427:27430   */\n      dup3\n        /* \"#utility.yul\":27338:27431   */\n      tag_627\n      jump\t// in\n    tag_906:\n        /* \"#utility.yul\":27456:27458   */\n      0x40\n        /* \"#utility.yul\":27451:27454   */\n      dup3\n        /* \"#utility.yul\":27447:27459   */\n      add\n        /* \"#utility.yul\":27440:27459   */\n      swap1\n      pop\n        /* \"#utility.yul\":27099:27465   */\n      swap2\n      swap1\n      pop\n      jump\t// out\n        /* \"#utility.yul\":27471:27890   */\n    tag_399:\n        /* \"#utility.yul\":27637:27641   */\n      0x00\n        /* \"#utility.yul\":27675:27677   */\n      0x20\n        /* \"#utility.yul\":27664:27673   */\n      dup3\n        /* \"#utility.yul\":27660:27678   */\n      add\n        /* \"#utility.yul\":27652:27678   */\n      swap1\n      pop\n        /* \"#utility.yul\":27724:27733   */\n      dup2\n        /* \"#utility.yul\":27718:27722   */\n      dup2\n        /* \"#utility.yul\":27714:27734   */\n      sub\n        /* \"#utility.yul\":27710:27711   */\n      0x00\n        /* \"#utility.yul\":27699:27708   */\n      dup4\n        /* \"#utility.yul\":27695:27712   */\n      add\n        /* \"#utility.yul\":27688:27735   */\n      mstore\n        /* \"#utility.yul\":27752:27883   */\n      tag_908\n        /* \"#utility.yul\":27878:27882   */\n      dup2\n        /* \"#utility.yul\":27752:27883   */\n      tag_628\n      jump\t// in\n    tag_908:\n        /* \"#utility.yul\":27744:27883   */\n      swap1\n      pop\n        /* \"#utility.yul\":27471:27890   */\n      swap2\n      swap1\n      pop\n      jump\t// out\n        /* \"#utility.yul\":27896:28119   */\n    tag_629:\n        /* \"#utility.yul\":28036:28070   */\n      0x50726573616c653a204c6f636b696e6720706572696f64206e6f74206f766572\n        /* \"#utility.yul\":28032:28033   */\n      0x00\n        /* \"#utility.yul\":28024:28030   */\n      dup3\n        /* \"#utility.yul\":28020:28034   */\n      add\n        /* \"#utility.yul\":28013:28071   */\n      mstore\n        /* \"#utility.yul\":28105:28111   */\n      0x2079657400000000000000000000000000000000000000000000000000000000\n        /* \"#utility.yul\":28100:28102   */\n      0x20\n        /* \"#utility.yul\":28092:28098   */\n      dup3\n        /* \"#utility.yul\":28088:28103   */\n      add\n        /* \"#utility.yul\":28081:28112   */\n      mstore\n        /* \"#utility.yul\":27896:28119   */\n      pop\n      jump\t// out\n        /* \"#utility.yul\":28125:28491   */\n    tag_630:\n        /* \"#utility.yul\":28267:28270   */\n      0x00\n        /* \"#utility.yul\":28288:28355   */\n      tag_911\n        /* \"#utility.yul\":28352:28354   */\n      0x24\n        /* \"#utility.yul\":28347:28350   */\n      dup4\n        /* \"#utility.yul\":28288:28355   */\n      tag_586\n      jump\t// in\n    tag_911:\n        /* \"#utility.yul\":28281:28355   */\n      swap2\n      pop\n        /* \"#utility.yul\":28364:28457   */\n      tag_912\n        /* \"#utility.yul\":28453:28456   */\n      dup3\n        /* \"#utility.yul\":28364:28457   */\n      tag_629\n      jump\t// in\n    tag_912:\n        /* \"#utility.yul\":28482:28484   */\n      0x40\n        /* \"#utility.yul\":28477:28480   */\n      dup3\n        /* \"#utility.yul\":28473:28485   */\n      add\n        /* \"#utility.yul\":28466:28485   */\n      swap1\n      pop\n        /* \"#utility.yul\":28125:28491   */\n      swap2\n      swap1\n      pop\n      jump\t// out\n        /* \"#utility.yul\":28497:28916   */\n    tag_405:\n        /* \"#utility.yul\":28663:28667   */\n      0x00\n        /* \"#utility.yul\":28701:28703   */\n      0x20\n        /* \"#utility.yul\":28690:28699   */\n      dup3\n        /* \"#utility.yul\":28686:28704   */\n      add\n        /* \"#utility.yul\":28678:28704   */\n      swap1\n      pop\n        /* \"#utility.yul\":28750:28759   */\n      dup2\n        /* \"#utility.yul\":28744:28748   */\n      dup2\n        /* \"#utility.yul\":28740:28760   */\n      sub\n        /* \"#utility.yul\":28736:28737   */\n      0x00\n        /* \"#utility.yul\":28725:28734   */\n      dup4\n        /* \"#utility.yul\":28721:28738   */\n      add\n        /* \"#utility.yul\":28714:28761   */\n      mstore\n        /* \"#utility.yul\":28778:28909   */\n      tag_914\n        /* \"#utility.yul\":28904:28908   */\n      dup2\n        /* \"#utility.yul\":28778:28909   */\n      tag_630\n      jump\t// in\n    tag_914:\n        /* \"#utility.yul\":28770:28909   */\n      swap1\n      pop\n        /* \"#utility.yul\":28497:28916   */\n      swap2\n      swap1\n      pop\n      jump\t// out\n        /* \"#utility.yul\":28922:29096   */\n    tag_631:\n        /* \"#utility.yul\":29062:29088   */\n      0x50726573616c653a20416c726561647920636c61696d65640000000000000000\n        /* \"#utility.yul\":29058:29059   */\n      0x00\n        /* \"#utility.yul\":29050:29056   */\n      dup3\n        /* \"#utility.yul\":29046:29060   */\n      add\n        /* \"#utility.yul\":29039:29089   */\n      mstore\n        /* \"#utility.yul\":28922:29096   */\n      pop\n      jump\t// out\n        /* \"#utility.yul\":29102:29468   */\n    tag_632:\n        /* \"#utility.yul\":29244:29247   */\n      0x00\n        /* \"#utility.yul\":29265:29332   */\n      tag_917\n        /* \"#utility.yul\":29329:29331   */\n      0x18\n        /* \"#utility.yul\":29324:29327   */\n      dup4\n        /* \"#utility.yul\":29265:29332   */\n      tag_586\n      jump\t// in\n    tag_917:\n        /* \"#utility.yul\":29258:29332   */\n      swap2\n      pop\n        /* \"#utility.yul\":29341:29434   */\n      tag_918\n        /* \"#utility.yul\":29430:29433   */\n      dup3\n        /* \"#utility.yul\":29341:29434   */\n      tag_631\n      jump\t// in\n    tag_918:\n        /* \"#utility.yul\":29459:29461   */\n      0x20\n        /* \"#utility.yul\":29454:29457   */\n      dup3\n        /* \"#utility.yul\":29450:29462   */\n      add\n        /* \"#utility.yul\":29443:29462   */\n      swap1\n      pop\n        /* \"#utility.yul\":29102:29468   */\n      swap2\n      swap1\n      pop\n      jump\t// out\n        /* \"#utility.yul\":29474:29893   */\n    tag_408:\n        /* \"#utility.yul\":29640:29644   */\n      0x00\n        /* \"#utility.yul\":29678:29680   */\n      0x20\n        /* \"#utility.yul\":29667:29676   */\n      dup3\n        /* \"#utility.yul\":29663:29681   */\n      add\n        /* \"#utility.yul\":29655:29681   */\n      swap1\n      pop\n        /* \"#utility.yul\":29727:29736   */\n      dup2\n        /* \"#utility.yul\":29721:29725   */\n      dup2\n        /* \"#utility.yul\":29717:29737   */\n      sub\n        /* \"#utility.yul\":29713:29714   */\n      0x00\n        /* \"#utility.yul\":29702:29711   */\n      dup4\n        /* \"#utility.yul\":29698:29715   */\n      add\n        /* \"#utility.yul\":29691:29738   */\n      mstore\n        /* \"#utility.yul\":29755:29886   */\n      tag_920\n        /* \"#utility.yul\":29881:29885   */\n      dup2\n        /* \"#utility.yul\":29755:29886   */\n      tag_632\n      jump\t// in\n    tag_920:\n        /* \"#utility.yul\":29747:29886   */\n      swap1\n      pop\n        /* \"#utility.yul\":29474:29893   */\n      swap2\n      swap1\n      pop\n      jump\t// out\n        /* \"#utility.yul\":29899:30124   */\n    tag_633:\n        /* \"#utility.yul\":30039:30073   */\n      0x4f776e61626c653a206e6577206f776e657220697320746865207a65726f2061\n        /* \"#utility.yul\":30035:30036   */\n      0x00\n        /* \"#utility.yul\":30027:30033   */\n      dup3\n        /* \"#utility.yul\":30023:30037   */\n      add\n        /* \"#utility.yul\":30016:30074   */\n      mstore\n        /* \"#utility.yul\":30108:30116   */\n      0x6464726573730000000000000000000000000000000000000000000000000000\n        /* \"#utility.yul\":30103:30105   */\n      0x20\n        /* \"#utility.yul\":30095:30101   */\n      dup3\n        /* \"#utility.yul\":30091:30106   */\n      add\n        /* \"#utility.yul\":30084:30117   */\n      mstore\n        /* \"#utility.yul\":29899:30124   */\n      pop\n      jump\t// out\n        /* \"#utility.yul\":30130:30496   */\n    tag_634:\n        /* \"#utility.yul\":30272:30275   */\n      0x00\n        /* \"#utility.yul\":30293:30360   */\n      tag_923\n        /* \"#utility.yul\":30357:30359   */\n      0x26\n        /* \"#utility.yul\":30352:30355   */\n      dup4\n        /* \"#utility.yul\":30293:30360   */\n      tag_586\n      jump\t// in\n    tag_923:\n        /* \"#utility.yul\":30286:30360   */\n      swap2\n      pop\n        /* \"#utility.yul\":30369:30462   */\n      tag_924\n        /* \"#utility.yul\":30458:30461   */\n      dup3\n        /* \"#utility.yul\":30369:30462   */\n      tag_633\n      jump\t// in\n    tag_924:\n        /* \"#utility.yul\":30487:30489   */\n      0x40\n        /* \"#utility.yul\":30482:30485   */\n      dup3\n        /* \"#utility.yul\":30478:30490   */\n      add\n        /* \"#utility.yul\":30471:30490   */\n      swap1\n      pop\n        /* \"#utility.yul\":30130:30496   */\n      swap2\n      swap1\n      pop\n      jump\t// out\n        /* \"#utility.yul\":30502:30921   */\n    tag_449:\n        /* \"#utility.yul\":30668:30672   */\n      0x00\n        /* \"#utility.yul\":30706:30708   */\n      0x20\n        /* \"#utility.yul\":30695:30704   */\n      dup3\n        /* \"#utility.yul\":30691:30709   */\n      add\n        /* \"#utility.yul\":30683:30709   */\n      swap1\n      pop\n        /* \"#utility.yul\":30755:30764   */\n      dup2\n        /* \"#utility.yul\":30749:30753   */\n      dup2\n        /* \"#utility.yul\":30745:30765   */\n      sub\n        /* \"#utility.yul\":30741:30742   */\n      0x00\n        /* \"#utility.yul\":30730:30739   */\n      dup4\n        /* \"#utility.yul\":30726:30743   */\n      add\n        /* \"#utility.yul\":30719:30766   */\n      mstore\n        /* \"#utility.yul\":30783:30914   */\n      tag_926\n        /* \"#utility.yul\":30909:30913   */\n      dup2\n        /* \"#utility.yul\":30783:30914   */\n      tag_634\n      jump\t// in\n    tag_926:\n        /* \"#utility.yul\":30775:30914   */\n      swap1\n      pop\n        /* \"#utility.yul\":30502:30921   */\n      swap2\n      swap1\n      pop\n      jump\t// out\n        /* \"#utility.yul\":30927:31236   */\n    tag_635:\n        /* \"#utility.yul\":31067:31101   */\n      0x50726573616c653a2043616e6e6f742077697468647261772073616c6520746f\n        /* \"#utility.yul\":31063:31064   */\n      0x00\n        /* \"#utility.yul\":31055:31061   */\n      dup3\n        /* \"#utility.yul\":31051:31065   */\n      add\n        /* \"#utility.yul\":31044:31102   */\n      mstore\n        /* \"#utility.yul\":31136:31170   */\n      0x6b656e20776974682074686973206d6574686f642c2075736520776974686472\n        /* \"#utility.yul\":31131:31133   */\n      0x20\n        /* \"#utility.yul\":31123:31129   */\n      dup3\n        /* \"#utility.yul\":31119:31134   */\n      add\n        /* \"#utility.yul\":31112:31171   */\n      mstore\n        /* \"#utility.yul\":31205:31228   */\n      0x617753616c65546f6b656e282920696e73746561640000000000000000000000\n        /* \"#utility.yul\":31200:31202   */\n      0x40\n        /* \"#utility.yul\":31192:31198   */\n      dup3\n        /* \"#utility.yul\":31188:31203   */\n      add\n        /* \"#utility.yul\":31181:31229   */\n      mstore\n        /* \"#utility.yul\":30927:31236   */\n      pop\n      jump\t// out\n        /* \"#utility.yul\":31242:31608   */\n    tag_636:\n        /* \"#utility.yul\":31384:31387   */\n      0x00\n        /* \"#utility.yul\":31405:31472   */\n      tag_929\n        /* \"#utility.yul\":31469:31471   */\n      0x55\n        /* \"#utility.yul\":31464:31467   */\n      dup4\n        /* \"#utility.yul\":31405:31472   */\n      tag_586\n      jump\t// in\n    tag_929:\n        /* \"#utility.yul\":31398:31472   */\n      swap2\n      pop\n        /* \"#utility.yul\":31481:31574   */\n      tag_930\n        /* \"#utility.yul\":31570:31573   */\n      dup3\n        /* \"#utility.yul\":31481:31574   */\n      tag_635\n      jump\t// in\n    tag_930:\n        /* \"#utility.yul\":31599:31601   */\n      0x60\n        /* \"#utility.yul\":31594:31597   */\n      dup3\n        /* \"#utility.yul\":31590:31602   */\n      add\n        /* \"#utility.yul\":31583:31602   */\n      swap1\n      pop\n        /* \"#utility.yul\":31242:31608   */\n      swap2\n      swap1\n      pop\n      jump\t// out\n        /* \"#utility.yul\":31614:32033   */\n    tag_459:\n        /* \"#utility.yul\":31780:31784   */\n      0x00\n        /* \"#utility.yul\":31818:31820   */\n      0x20\n        /* \"#utility.yul\":31807:31816   */\n      dup3\n        /* \"#utility.yul\":31803:31821   */\n      add\n        /* \"#utility.yul\":31795:31821   */\n      swap1\n      pop\n        /* \"#utility.yul\":31867:31876   */\n      dup2\n        /* \"#utility.yul\":31861:31865   */\n      dup2\n        /* \"#utility.yul\":31857:31877   */\n      sub\n        /* \"#utility.yul\":31853:31854   */\n      0x00\n        /* \"#utility.yul\":31842:31851   */\n      dup4\n        /* \"#utility.yul\":31838:31855   */\n      add\n        /* \"#utility.yul\":31831:31878   */\n      mstore\n        /* \"#utility.yul\":31895:32026   */\n      tag_932\n        /* \"#utility.yul\":32021:32025   */\n      dup2\n        /* \"#utility.yul\":31895:32026   */\n      tag_636\n      jump\t// in\n    tag_932:\n        /* \"#utility.yul\":31887:32026   */\n      swap1\n      pop\n        /* \"#utility.yul\":31614:32033   */\n      swap2\n      swap1\n      pop\n      jump\t// out\n        /* \"#utility.yul\":32039:32351   */\n    tag_637:\n        /* \"#utility.yul\":32179:32213   */\n      0x50726573616c653a2043616e6e6f742077697468647261772073616c6520746f\n        /* \"#utility.yul\":32175:32176   */\n      0x00\n        /* \"#utility.yul\":32167:32173   */\n      dup3\n        /* \"#utility.yul\":32163:32177   */\n      add\n        /* \"#utility.yul\":32156:32214   */\n      mstore\n        /* \"#utility.yul\":32248:32282   */\n      0x6b656e20776974682074686973206d6574686f642c2075736520776974686472\n        /* \"#utility.yul\":32243:32245   */\n      0x20\n        /* \"#utility.yul\":32235:32241   */\n      dup3\n        /* \"#utility.yul\":32231:32246   */\n      add\n        /* \"#utility.yul\":32224:32283   */\n      mstore\n        /* \"#utility.yul\":32317:32343   */\n      0x6177416c6c53616c65546f6b656e282920696e73746561640000000000000000\n        /* \"#utility.yul\":32312:32314   */\n      0x40\n        /* \"#utility.yul\":32304:32310   */\n      dup3\n        /* \"#utility.yul\":32300:32315   */\n      add\n        /* \"#utility.yul\":32293:32344   */\n      mstore\n        /* \"#utility.yul\":32039:32351   */\n      pop\n      jump\t// out\n        /* \"#utility.yul\":32357:32723   */\n    tag_638:\n        /* \"#utility.yul\":32499:32502   */\n      0x00\n        /* \"#utility.yul\":32520:32587   */\n      tag_935\n        /* \"#utility.yul\":32584:32586   */\n      0x58\n        /* \"#utility.yul\":32579:32582   */\n      dup4\n        /* \"#utility.yul\":32520:32587   */\n      tag_586\n      jump\t// in\n    tag_935:\n        /* \"#utility.yul\":32513:32587   */\n      swap2\n      pop\n        /* \"#utility.yul\":32596:32689   */\n      tag_936\n        /* \"#utility.yul\":32685:32688   */\n      dup3\n        /* \"#utility.yul\":32596:32689   */\n      tag_637\n      jump\t// in\n    tag_936:\n        /* \"#utility.yul\":32714:32716   */\n      0x60\n        /* \"#utility.yul\":32709:32712   */\n      dup3\n        /* \"#utility.yul\":32705:32717   */\n      add\n        /* \"#utility.yul\":32698:32717   */\n      swap1\n      pop\n        /* \"#utility.yul\":32357:32723   */\n      swap2\n      swap1\n      pop\n      jump\t// out\n        /* \"#utility.yul\":32729:33148   */\n    tag_469:\n        /* \"#utility.yul\":32895:32899   */\n      0x00\n        /* \"#utility.yul\":32933:32935   */\n      0x20\n        /* \"#utility.yul\":32922:32931   */\n      dup3\n        /* \"#utility.yul\":32918:32936   */\n      add\n        /* \"#utility.yul\":32910:32936   */\n      swap1\n      pop\n        /* \"#utility.yul\":32982:32991   */\n      dup2\n        /* \"#utility.yul\":32976:32980   */\n      dup2\n        /* \"#utility.yul\":32972:32992   */\n      sub\n        /* \"#utility.yul\":32968:32969   */\n      0x00\n        /* \"#utility.yul\":32957:32966   */\n      dup4\n        /* \"#utility.yul\":32953:32970   */\n      add\n        /* \"#utility.yul\":32946:32993   */\n      mstore\n        /* \"#utility.yul\":33010:33141   */\n      tag_938\n        /* \"#utility.yul\":33136:33140   */\n      dup2\n        /* \"#utility.yul\":33010:33141   */\n      tag_638\n      jump\t// in\n    tag_938:\n        /* \"#utility.yul\":33002:33141   */\n      swap1\n      pop\n        /* \"#utility.yul\":32729:33148   */\n      swap2\n      swap1\n      pop\n      jump\t// out\n        /* \"#utility.yul\":33154:33320   */\n    tag_639:\n        /* \"#utility.yul\":33294:33312   */\n      0x5061757361626c653a2070617573656400000000000000000000000000000000\n        /* \"#utility.yul\":33290:33291   */\n      0x00\n        /* \"#utility.yul\":33282:33288   */\n      dup3\n        /* \"#utility.yul\":33278:33292   */\n      add\n        /* \"#utility.yul\":33271:33313   */\n      mstore\n        /* \"#utility.yul\":33154:33320   */\n      pop\n      jump\t// out\n        /* \"#utility.yul\":33326:33692   */\n    tag_640:\n        /* \"#utility.yul\":33468:33471   */\n      0x00\n        /* \"#utility.yul\":33489:33556   */\n      tag_941\n        /* \"#utility.yul\":33553:33555   */\n      0x10\n        /* \"#utility.yul\":33548:33551   */\n      dup4\n        /* \"#utility.yul\":33489:33556   */\n      tag_586\n      jump\t// in\n    tag_941:\n        /* \"#utility.yul\":33482:33556   */\n      swap2\n      pop\n        /* \"#utility.yul\":33565:33658   */\n      tag_942\n        /* \"#utility.yul\":33654:33657   */\n      dup3\n        /* \"#utility.yul\":33565:33658   */\n      tag_639\n      jump\t// in\n    tag_942:\n        /* \"#utility.yul\":33683:33685   */\n      0x20\n        /* \"#utility.yul\":33678:33681   */\n      dup3\n        /* \"#utility.yul\":33674:33686   */\n      add\n        /* \"#utility.yul\":33667:33686   */\n      swap1\n      pop\n        /* \"#utility.yul\":33326:33692   */\n      swap2\n      swap1\n      pop\n      jump\t// out\n        /* \"#utility.yul\":33698:34117   */\n    tag_499:\n        /* \"#utility.yul\":33864:33868   */\n      0x00\n        /* \"#utility.yul\":33902:33904   */\n      0x20\n        /* \"#utility.yul\":33891:33900   */\n      dup3\n        /* \"#utility.yul\":33887:33905   */\n      add\n        /* \"#utility.yul\":33879:33905   */\n      swap1\n      pop\n        /* \"#utility.yul\":33951:33960   */\n      dup2\n        /* \"#utility.yul\":33945:33949   */\n      dup2\n        /* \"#utility.yul\":33941:33961   */\n      sub\n        /* \"#utility.yul\":33937:33938   */\n      0x00\n        /* \"#utility.yul\":33926:33935   */\n      dup4\n        /* \"#utility.yul\":33922:33939   */\n      add\n        /* \"#utility.yul\":33915:33962   */\n      mstore\n        /* \"#utility.yul\":33979:34110   */\n      tag_944\n        /* \"#utility.yul\":34105:34109   */\n      dup2\n        /* \"#utility.yul\":33979:34110   */\n      tag_640\n      jump\t// in\n    tag_944:\n        /* \"#utility.yul\":33971:34110   */\n      swap1\n      pop\n        /* \"#utility.yul\":33698:34117   */\n      swap2\n      swap1\n      pop\n      jump\t// out\n        /* \"#utility.yul\":34123:34565   */\n    tag_503:\n        /* \"#utility.yul\":34272:34276   */\n      0x00\n        /* \"#utility.yul\":34310:34312   */\n      0x60\n        /* \"#utility.yul\":34299:34308   */\n      dup3\n        /* \"#utility.yul\":34295:34313   */\n      add\n        /* \"#utility.yul\":34287:34313   */\n      swap1\n      pop\n        /* \"#utility.yul\":34323:34394   */\n      tag_946\n        /* \"#utility.yul\":34391:34392   */\n      0x00\n        /* \"#utility.yul\":34380:34389   */\n      dup4\n        /* \"#utility.yul\":34376:34393   */\n      add\n        /* \"#utility.yul\":34367:34373   */\n      dup7\n        /* \"#utility.yul\":34323:34394   */\n      tag_585\n      jump\t// in\n    tag_946:\n        /* \"#utility.yul\":34404:34476   */\n      tag_947\n        /* \"#utility.yul\":34472:34474   */\n      0x20\n        /* \"#utility.yul\":34461:34470   */\n      dup4\n        /* \"#utility.yul\":34457:34475   */\n      add\n        /* \"#utility.yul\":34448:34454   */\n      dup6\n        /* \"#utility.yul\":34404:34476   */\n      tag_585\n      jump\t// in\n    tag_947:\n        /* \"#utility.yul\":34486:34558   */\n      tag_948\n        /* \"#utility.yul\":34554:34556   */\n      0x40\n        /* \"#utility.yul\":34543:34552   */\n      dup4\n        /* \"#utility.yul\":34539:34557   */\n      add\n        /* \"#utility.yul\":34530:34536   */\n      dup5\n        /* \"#utility.yul\":34486:34558   */\n      tag_573\n      jump\t// in\n    tag_948:\n        /* \"#utility.yul\":34123:34565   */\n      swap5\n      swap4\n      pop\n      pop\n      pop\n      pop\n      jump\t// out\n        /* \"#utility.yul\":34571:34687   */\n    tag_641:\n        /* \"#utility.yul\":34641:34662   */\n      tag_950\n        /* \"#utility.yul\":34656:34661   */\n      dup2\n        /* \"#utility.yul\":34641:34662   */\n      tag_574\n      jump\t// in\n    tag_950:\n        /* \"#utility.yul\":34634:34639   */\n      dup2\n        /* \"#utility.yul\":34631:34663   */\n      eq\n        /* \"#utility.yul\":34621:34681   */\n      tag_951\n      jumpi\n        /* \"#utility.yul\":34677:34678   */\n      0x00\n        /* \"#utility.yul\":34674:34675   */\n      dup1\n        /* \"#utility.yul\":34667:34679   */\n      revert\n        /* \"#utility.yul\":34621:34681   */\n    tag_951:\n        /* \"#utility.yul\":34571:34687   */\n      pop\n      jump\t// out\n        /* \"#utility.yul\":34693:34830   */\n    tag_642:\n        /* \"#utility.yul\":34747:34752   */\n      0x00\n        /* \"#utility.yul\":34778:34784   */\n      dup2\n        /* \"#utility.yul\":34772:34785   */\n      mload\n        /* \"#utility.yul\":34763:34785   */\n      swap1\n      pop\n        /* \"#utility.yul\":34794:34824   */\n      tag_953\n        /* \"#utility.yul\":34818:34823   */\n      dup2\n        /* \"#utility.yul\":34794:34824   */\n      tag_641\n      jump\t// in\n    tag_953:\n        /* \"#utility.yul\":34693:34830   */\n      swap3\n      swap2\n      pop\n      pop\n      jump\t// out\n        /* \"#utility.yul\":34836:35181   */\n    tag_520:\n        /* \"#utility.yul\":34903:34909   */\n      0x00\n        /* \"#utility.yul\":34952:34954   */\n      0x20\n        /* \"#utility.yul\":34940:34949   */\n      dup3\n        /* \"#utility.yul\":34931:34938   */\n      dup5\n        /* \"#utility.yul\":34927:34950   */\n      sub\n        /* \"#utility.yul\":34923:34955   */\n      slt\n        /* \"#utility.yul\":34920:35039   */\n      iszero\n      tag_955\n      jumpi\n        /* \"#utility.yul\":34958:35037   */\n      tag_956\n      tag_564\n      jump\t// in\n    tag_956:\n        /* \"#utility.yul\":34920:35039   */\n    tag_955:\n        /* \"#utility.yul\":35078:35079   */\n      0x00\n        /* \"#utility.yul\":35103:35164   */\n      tag_957\n        /* \"#utility.yul\":35156:35163   */\n      dup5\n        /* \"#utility.yul\":35147:35153   */\n      dup3\n        /* \"#utility.yul\":35136:35145   */\n      dup6\n        /* \"#utility.yul\":35132:35154   */\n      add\n        /* \"#utility.yul\":35103:35164   */\n      tag_642\n      jump\t// in\n    tag_957:\n        /* \"#utility.yul\":35093:35164   */\n      swap2\n      pop\n        /* \"#utility.yul\":35049:35174   */\n      pop\n        /* \"#utility.yul\":34836:35181   */\n      swap3\n      swap2\n      pop\n      pop\n      jump\t// out\n        /* \"#utility.yul\":35187:35416   */\n    tag_643:\n        /* \"#utility.yul\":35327:35361   */\n      0x5361666545524332303a204552433230206f7065726174696f6e20646964206e\n        /* \"#utility.yul\":35323:35324   */\n      0x00\n        /* \"#utility.yul\":35315:35321   */\n      dup3\n        /* \"#utility.yul\":35311:35325   */\n      add\n        /* \"#utility.yul\":35304:35362   */\n      mstore\n        /* \"#utility.yul\":35396:35408   */\n      0x6f74207375636365656400000000000000000000000000000000000000000000\n        /* \"#utility.yul\":35391:35393   */\n      0x20\n        /* \"#utility.yul\":35383:35389   */\n      dup3\n        /* \"#utility.yul\":35379:35394   */\n      add\n        /* \"#utility.yul\":35372:35409   */\n      mstore\n        /* \"#utility.yul\":35187:35416   */\n      pop\n      jump\t// out\n        /* \"#utility.yul\":35422:35788   */\n    tag_644:\n        /* \"#utility.yul\":35564:35567   */\n      0x00\n        /* \"#utility.yul\":35585:35652   */\n      tag_960\n        /* \"#utility.yul\":35649:35651   */\n      0x2a\n        /* \"#utility.yul\":35644:35647   */\n      dup4\n        /* \"#utility.yul\":35585:35652   */\n      tag_586\n      jump\t// in\n    tag_960:\n        /* \"#utility.yul\":35578:35652   */\n      swap2\n      pop\n        /* \"#utility.yul\":35661:35754   */\n      tag_961\n        /* \"#utility.yul\":35750:35753   */\n      dup3\n        /* \"#utility.yul\":35661:35754   */\n      tag_643\n      jump\t// in\n    tag_961:\n        /* \"#utility.yul\":35779:35781   */\n      0x40\n        /* \"#utility.yul\":35774:35777   */\n      dup3\n        /* \"#utility.yul\":35770:35782   */\n      add\n        /* \"#utility.yul\":35763:35782   */\n      swap1\n      pop\n        /* \"#utility.yul\":35422:35788   */\n      swap2\n      swap1\n      pop\n      jump\t// out\n        /* \"#utility.yul\":35794:36213   */\n    tag_523:\n        /* \"#utility.yul\":35960:35964   */\n      0x00\n        /* \"#utility.yul\":35998:36000   */\n      0x20\n        /* \"#utility.yul\":35987:35996   */\n      dup3\n        /* \"#utility.yul\":35983:36001   */\n      add\n        /* \"#utility.yul\":35975:36001   */\n      swap1\n      pop\n        /* \"#utility.yul\":36047:36056   */\n      dup2\n        /* \"#utility.yul\":36041:36045   */\n      dup2\n        /* \"#utility.yul\":36037:36057   */\n      sub\n        /* \"#utility.yul\":36033:36034   */\n      0x00\n        /* \"#utility.yul\":36022:36031   */\n      dup4\n        /* \"#utility.yul\":36018:36035   */\n      add\n        /* \"#utility.yul\":36011:36058   */\n      mstore\n        /* \"#utility.yul\":36075:36206   */\n      tag_963\n        /* \"#utility.yul\":36201:36205   */\n      dup2\n        /* \"#utility.yul\":36075:36206   */\n      tag_644\n      jump\t// in\n    tag_963:\n        /* \"#utility.yul\":36067:36206   */\n      swap1\n      pop\n        /* \"#utility.yul\":35794:36213   */\n      swap2\n      swap1\n      pop\n      jump\t// out\n        /* \"#utility.yul\":36219:36389   */\n    tag_645:\n        /* \"#utility.yul\":36359:36381   */\n      0x5061757361626c653a206e6f7420706175736564000000000000000000000000\n        /* \"#utility.yul\":36355:36356   */\n      0x00\n        /* \"#utility.yul\":36347:36353   */\n      dup3\n        /* \"#utility.yul\":36343:36357   */\n      add\n        /* \"#utility.yul\":36336:36382   */\n      mstore\n        /* \"#utility.yul\":36219:36389   */\n      pop\n      jump\t// out\n        /* \"#utility.yul\":36395:36761   */\n    tag_646:\n        /* \"#utility.yul\":36537:36540   */\n      0x00\n        /* \"#utility.yul\":36558:36625   */\n      tag_966\n        /* \"#utility.yul\":36622:36624   */\n      0x14\n        /* \"#utility.yul\":36617:36620   */\n      dup4\n        /* \"#utility.yul\":36558:36625   */\n      tag_586\n      jump\t// in\n    tag_966:\n        /* \"#utility.yul\":36551:36625   */\n      swap2\n      pop\n        /* \"#utility.yul\":36634:36727   */\n      tag_967\n        /* \"#utility.yul\":36723:36726   */\n      dup3\n        /* \"#utility.yul\":36634:36727   */\n      tag_645\n      jump\t// in\n    tag_967:\n        /* \"#utility.yul\":36752:36754   */\n      0x20\n        /* \"#utility.yul\":36747:36750   */\n      dup3\n        /* \"#utility.yul\":36743:36755   */\n      add\n        /* \"#utility.yul\":36736:36755   */\n      swap1\n      pop\n        /* \"#utility.yul\":36395:36761   */\n      swap2\n      swap1\n      pop\n      jump\t// out\n        /* \"#utility.yul\":36767:37186   */\n    tag_528:\n        /* \"#utility.yul\":36933:36937   */\n      0x00\n        /* \"#utility.yul\":36971:36973   */\n      0x20\n        /* \"#utility.yul\":36960:36969   */\n      dup3\n        /* \"#utility.yul\":36956:36974   */\n      add\n        /* \"#utility.yul\":36948:36974   */\n      swap1\n      pop\n        /* \"#utility.yul\":37020:37029   */\n      dup2\n        /* \"#utility.yul\":37014:37018   */\n      dup2\n        /* \"#utility.yul\":37010:37030   */\n      sub\n        /* \"#utility.yul\":37006:37007   */\n      0x00\n        /* \"#utility.yul\":36995:37004   */\n      dup4\n        /* \"#utility.yul\":36991:37008   */\n      add\n        /* \"#utility.yul\":36984:37031   */\n      mstore\n        /* \"#utility.yul\":37048:37179   */\n      tag_969\n        /* \"#utility.yul\":37174:37178   */\n      dup2\n        /* \"#utility.yul\":37048:37179   */\n      tag_646\n      jump\t// in\n    tag_969:\n        /* \"#utility.yul\":37040:37179   */\n      swap1\n      pop\n        /* \"#utility.yul\":36767:37186   */\n      swap2\n      swap1\n      pop\n      jump\t// out\n        /* \"#utility.yul\":37192:37417   */\n    tag_647:\n        /* \"#utility.yul\":37332:37366   */\n      0x416464726573733a20696e73756666696369656e742062616c616e636520666f\n        /* \"#utility.yul\":37328:37329   */\n      0x00\n        /* \"#utility.yul\":37320:37326   */\n      dup3\n        /* \"#utility.yul\":37316:37330   */\n      add\n        /* \"#utility.yul\":37309:37367   */\n      mstore\n        /* \"#utility.yul\":37401:37409   */\n      0x722063616c6c0000000000000000000000000000000000000000000000000000\n        /* \"#utility.yul\":37396:37398   */\n      0x20\n        /* \"#utility.yul\":37388:37394   */\n      dup3\n        /* \"#utility.yul\":37384:37399   */\n      add\n        /* \"#utility.yul\":37377:37410   */\n      mstore\n        /* \"#utility.yul\":37192:37417   */\n      pop\n      jump\t// out\n        /* \"#utility.yul\":37423:37789   */\n    tag_648:\n        /* \"#utility.yul\":37565:37568   */\n      0x00\n        /* \"#utility.yul\":37586:37653   */\n      tag_972\n        /* \"#utility.yul\":37650:37652   */\n      0x26\n        /* \"#utility.yul\":37645:37648   */\n      dup4\n        /* \"#utility.yul\":37586:37653   */\n      tag_586\n      jump\t// in\n    tag_972:\n        /* \"#utility.yul\":37579:37653   */\n      swap2\n      pop\n        /* \"#utility.yul\":37662:37755   */\n      tag_973\n        /* \"#utility.yul\":37751:37754   */\n      dup3\n        /* \"#utility.yul\":37662:37755   */\n      tag_647\n      jump\t// in\n    tag_973:\n        /* \"#utility.yul\":37780:37782   */\n      0x40\n        /* \"#utility.yul\":37775:37778   */\n      dup3\n        /* \"#utility.yul\":37771:37783   */\n      add\n        /* \"#utility.yul\":37764:37783   */\n      swap1\n      pop\n        /* \"#utility.yul\":37423:37789   */\n      swap2\n      swap1\n      pop\n      jump\t// out\n        /* \"#utility.yul\":37795:38214   */\n    tag_535:\n        /* \"#utility.yul\":37961:37965   */\n      0x00\n        /* \"#utility.yul\":37999:38001   */\n      0x20\n        /* \"#utility.yul\":37988:37997   */\n      dup3\n        /* \"#utility.yul\":37984:38002   */\n      add\n        /* \"#utility.yul\":37976:38002   */\n      swap1\n      pop\n        /* \"#utility.yul\":38048:38057   */\n      dup2\n        /* \"#utility.yul\":38042:38046   */\n      dup2\n        /* \"#utility.yul\":38038:38058   */\n      sub\n        /* \"#utility.yul\":38034:38035   */\n      0x00\n        /* \"#utility.yul\":38023:38032   */\n      dup4\n        /* \"#utility.yul\":38019:38036   */\n      add\n        /* \"#utility.yul\":38012:38059   */\n      mstore\n        /* \"#utility.yul\":38076:38207   */\n      tag_975\n        /* \"#utility.yul\":38202:38206   */\n      dup2\n        /* \"#utility.yul\":38076:38207   */\n      tag_648\n      jump\t// in\n    tag_975:\n        /* \"#utility.yul\":38068:38207   */\n      swap1\n      pop\n        /* \"#utility.yul\":37795:38214   */\n      swap2\n      swap1\n      pop\n      jump\t// out\n        /* \"#utility.yul\":38220:38399   */\n    tag_649:\n        /* \"#utility.yul\":38360:38391   */\n      0x416464726573733a2063616c6c20746f206e6f6e2d636f6e7472616374000000\n        /* \"#utility.yul\":38356:38357   */\n      0x00\n        /* \"#utility.yul\":38348:38354   */\n      dup3\n        /* \"#utility.yul\":38344:38358   */\n      add\n        /* \"#utility.yul\":38337:38392   */\n      mstore\n        /* \"#utility.yul\":38220:38399   */\n      pop\n      jump\t// out\n        /* \"#utility.yul\":38405:38771   */\n    tag_650:\n        /* \"#utility.yul\":38547:38550   */\n      0x00\n        /* \"#utility.yul\":38568:38635   */\n      tag_978\n        /* \"#utility.yul\":38632:38634   */\n      0x1d\n        /* \"#utility.yul\":38627:38630   */\n      dup4\n        /* \"#utility.yul\":38568:38635   */\n      tag_586\n      jump\t// in\n    tag_978:\n        /* \"#utility.yul\":38561:38635   */\n      swap2\n      pop\n        /* \"#utility.yul\":38644:38737   */\n      tag_979\n        /* \"#utility.yul\":38733:38736   */\n      dup3\n        /* \"#utility.yul\":38644:38737   */\n      tag_649\n      jump\t// in\n    tag_979:\n        /* \"#utility.yul\":38762:38764   */\n      0x20\n        /* \"#utility.yul\":38757:38760   */\n      dup3\n        /* \"#utility.yul\":38753:38765   */\n      add\n        /* \"#utility.yul\":38746:38765   */\n      swap1\n      pop\n        /* \"#utility.yul\":38405:38771   */\n      swap2\n      swap1\n      pop\n      jump\t// out\n        /* \"#utility.yul\":38777:39196   */\n    tag_540:\n        /* \"#utility.yul\":38943:38947   */\n      0x00\n        /* \"#utility.yul\":38981:38983   */\n      0x20\n        /* \"#utility.yul\":38970:38979   */\n      dup3\n        /* \"#utility.yul\":38966:38984   */\n      add\n        /* \"#utility.yul\":38958:38984   */\n      swap1\n      pop\n        /* \"#utility.yul\":39030:39039   */\n      dup2\n        /* \"#utility.yul\":39024:39028   */\n      dup2\n        /* \"#utility.yul\":39020:39040   */\n      sub\n        /* \"#utility.yul\":39016:39017   */\n      0x00\n        /* \"#utility.yul\":39005:39014   */\n      dup4\n        /* \"#utility.yul\":39001:39018   */\n      add\n        /* \"#utility.yul\":38994:39041   */\n      mstore\n        /* \"#utility.yul\":39058:39189   */\n      tag_981\n        /* \"#utility.yul\":39184:39188   */\n      dup2\n        /* \"#utility.yul\":39058:39189   */\n      tag_650\n      jump\t// in\n    tag_981:\n        /* \"#utility.yul\":39050:39189   */\n      swap1\n      pop\n        /* \"#utility.yul\":38777:39196   */\n      swap2\n      swap1\n      pop\n      jump\t// out\n        /* \"#utility.yul\":39202:39300   */\n    tag_651:\n        /* \"#utility.yul\":39253:39259   */\n      0x00\n        /* \"#utility.yul\":39287:39292   */\n      dup2\n        /* \"#utility.yul\":39281:39293   */\n      mload\n        /* \"#utility.yul\":39271:39293   */\n      swap1\n      pop\n        /* \"#utility.yul\":39202:39300   */\n      swap2\n      swap1\n      pop\n      jump\t// out\n        /* \"#utility.yul\":39306:39453   */\n    tag_652:\n        /* \"#utility.yul\":39407:39418   */\n      0x00\n        /* \"#utility.yul\":39444:39447   */\n      dup2\n        /* \"#utility.yul\":39429:39447   */\n      swap1\n      pop\n        /* \"#utility.yul\":39306:39453   */\n      swap3\n      swap2\n      pop\n      pop\n      jump\t// out\n        /* \"#utility.yul\":39459:39705   */\n    tag_653:\n        /* \"#utility.yul\":39540:39541   */\n      0x00\n        /* \"#utility.yul\":39550:39663   */\n    tag_985:\n        /* \"#utility.yul\":39564:39570   */\n      dup4\n        /* \"#utility.yul\":39561:39562   */\n      dup2\n        /* \"#utility.yul\":39558:39571   */\n      lt\n        /* \"#utility.yul\":39550:39663   */\n      iszero\n      tag_987\n      jumpi\n        /* \"#utility.yul\":39649:39650   */\n      dup1\n        /* \"#utility.yul\":39644:39647   */\n      dup3\n        /* \"#utility.yul\":39640:39651   */\n      add\n        /* \"#utility.yul\":39634:39652   */\n      mload\n        /* \"#utility.yul\":39630:39631   */\n      dup2\n        /* \"#utility.yul\":39625:39628   */\n      dup5\n        /* \"#utility.yul\":39621:39632   */\n      add\n        /* \"#utility.yul\":39614:39653   */\n      mstore\n        /* \"#utility.yul\":39586:39588   */\n      0x20\n        /* \"#utility.yul\":39583:39584   */\n      dup2\n        /* \"#utility.yul\":39579:39589   */\n      add\n        /* \"#utility.yul\":39574:39589   */\n      swap1\n      pop\n        /* \"#utility.yul\":39550:39663   */\n      jump(tag_985)\n    tag_987:\n        /* \"#utility.yul\":39697:39698   */\n      0x00\n        /* \"#utility.yul\":39688:39694   */\n      dup5\n        /* \"#utility.yul\":39683:39686   */\n      dup5\n        /* \"#utility.yul\":39679:39695   */\n      add\n        /* \"#utility.yul\":39672:39699   */\n      mstore\n        /* \"#utility.yul\":39521:39705   */\n      pop\n        /* \"#utility.yul\":39459:39705   */\n      pop\n      pop\n      pop\n      jump\t// out\n        /* \"#utility.yul\":39711:40097   */\n    tag_654:\n        /* \"#utility.yul\":39815:39818   */\n      0x00\n        /* \"#utility.yul\":39843:39881   */\n      tag_989\n        /* \"#utility.yul\":39875:39880   */\n      dup3\n        /* \"#utility.yul\":39843:39881   */\n      tag_651\n      jump\t// in\n    tag_989:\n        /* \"#utility.yul\":39897:39985   */\n      tag_990\n        /* \"#utility.yul\":39978:39984   */\n      dup2\n        /* \"#utility.yul\":39973:39976   */\n      dup6\n        /* \"#utility.yul\":39897:39985   */\n      tag_652\n      jump\t// in\n    tag_990:\n        /* \"#utility.yul\":39890:39985   */\n      swap4\n      pop\n        /* \"#utility.yul\":39994:40059   */\n      tag_991\n        /* \"#utility.yul\":40052:40058   */\n      dup2\n        /* \"#utility.yul\":40047:40050   */\n      dup6\n        /* \"#utility.yul\":40040:40044   */\n      0x20\n        /* \"#utility.yul\":40033:40038   */\n      dup7\n        /* \"#utility.yul\":40029:40045   */\n      add\n        /* \"#utility.yul\":39994:40059   */\n      tag_653\n      jump\t// in\n    tag_991:\n        /* \"#utility.yul\":40084:40090   */\n      dup1\n        /* \"#utility.yul\":40079:40082   */\n      dup5\n        /* \"#utility.yul\":40075:40091   */\n      add\n        /* \"#utility.yul\":40068:40091   */\n      swap2\n      pop\n        /* \"#utility.yul\":39819:40097   */\n      pop\n        /* \"#utility.yul\":39711:40097   */\n      swap3\n      swap2\n      pop\n      pop\n      jump\t// out\n        /* \"#utility.yul\":40103:40374   */\n    tag_542:\n        /* \"#utility.yul\":40233:40236   */\n      0x00\n        /* \"#utility.yul\":40255:40348   */\n      tag_993\n        /* \"#utility.yul\":40344:40347   */\n      dup3\n        /* \"#utility.yul\":40335:40341   */\n      dup5\n        /* \"#utility.yul\":40255:40348   */\n      tag_654\n      jump\t// in\n    tag_993:\n        /* \"#utility.yul\":40248:40348   */\n      swap2\n      pop\n        /* \"#utility.yul\":40365:40368   */\n      dup2\n        /* \"#utility.yul\":40358:40368   */\n      swap1\n      pop\n        /* \"#utility.yul\":40103:40374   */\n      swap3\n      swap2\n      pop\n      pop\n      jump\t// out\n        /* \"#utility.yul\":40380:40479   */\n    tag_655:\n        /* \"#utility.yul\":40432:40438   */\n      0x00\n        /* \"#utility.yul\":40466:40471   */\n      dup2\n        /* \"#utility.yul\":40460:40472   */\n      mload\n        /* \"#utility.yul\":40450:40472   */\n      swap1\n      pop\n        /* \"#utility.yul\":40380:40479   */\n      swap2\n      swap1\n      pop\n      jump\t// out\n        /* \"#utility.yul\":40485:40862   */\n    tag_656:\n        /* \"#utility.yul\":40573:40576   */\n      0x00\n        /* \"#utility.yul\":40601:40640   */\n      tag_996\n        /* \"#utility.yul\":40634:40639   */\n      dup3\n        /* \"#utility.yul\":40601:40640   */\n      tag_655\n      jump\t// in\n    tag_996:\n        /* \"#utility.yul\":40656:40727   */\n      tag_997\n        /* \"#utility.yul\":40720:40726   */\n      dup2\n        /* \"#utility.yul\":40715:40718   */\n      dup6\n        /* \"#utility.yul\":40656:40727   */\n      tag_586\n      jump\t// in\n    tag_997:\n        /* \"#utility.yul\":40649:40727   */\n      swap4\n      pop\n        /* \"#utility.yul\":40736:40801   */\n      tag_998\n        /* \"#utility.yul\":40794:40800   */\n      dup2\n        /* \"#utility.yul\":40789:40792   */\n      dup6\n        /* \"#utility.yul\":40782:40786   */\n      0x20\n        /* \"#utility.yul\":40775:40780   */\n      dup7\n        /* \"#utility.yul\":40771:40787   */\n      add\n        /* \"#utility.yul\":40736:40801   */\n      tag_653\n      jump\t// in\n    tag_998:\n        /* \"#utility.yul\":40826:40855   */\n      tag_999\n        /* \"#utility.yul\":40848:40854   */\n      dup2\n        /* \"#utility.yul\":40826:40855   */\n      tag_577\n      jump\t// in\n    tag_999:\n        /* \"#utility.yul\":40821:40824   */\n      dup5\n        /* \"#utility.yul\":40817:40856   */\n      add\n        /* \"#utility.yul\":40810:40856   */\n      swap2\n      pop\n        /* \"#utility.yul\":40577:40862   */\n      pop\n        /* \"#utility.yul\":40485:40862   */\n      swap3\n      swap2\n      pop\n      pop\n      jump\t// out\n        /* \"#utility.yul\":40868:41181   */\n    tag_555:\n        /* \"#utility.yul\":40981:40985   */\n      0x00\n        /* \"#utility.yul\":41019:41021   */\n      0x20\n        /* \"#utility.yul\":41008:41017   */\n      dup3\n        /* \"#utility.yul\":41004:41022   */\n      add\n        /* \"#utility.yul\":40996:41022   */\n      swap1\n      pop\n        /* \"#utility.yul\":41068:41077   */\n      dup2\n        /* \"#utility.yul\":41062:41066   */\n      dup2\n        /* \"#utility.yul\":41058:41078   */\n      sub\n        /* \"#utility.yul\":41054:41055   */\n      0x00\n        /* \"#utility.yul\":41043:41052   */\n      dup4\n        /* \"#utility.yul\":41039:41056   */\n      add\n        /* \"#utility.yul\":41032:41079   */\n      mstore\n        /* \"#utility.yul\":41096:41174   */\n      tag_1001\n        /* \"#utility.yul\":41169:41173   */\n      dup2\n        /* \"#utility.yul\":41160:41166   */\n      dup5\n        /* \"#utility.yul\":41096:41174   */\n      tag_656\n      jump\t// in\n    tag_1001:\n        /* \"#utility.yul\":41088:41174   */\n      swap1\n      pop\n        /* \"#utility.yul\":40868:41181   */\n      swap3\n      swap2\n      pop\n      pop\n      jump\t// out\n\n    auxdata: 0xa2646970667358221220ae1a7e456afdf351da8b7c481de778b51c8c4b352599f08414dca6cffe77e99c64736f6c63430008150033\n}\n",
				"bytecode": {
					"linkReferences": {},
					"object": "60806040523480156200001157600080fd5b5062000032620000266200005260201b60201c565b6200005a60201b60201c565b60008060146101000a81548160ff0219169083151502179055506200011e565b600033905090565b60008060009054906101000a900473ffffffffffffffffffffffffffffffffffffffff169050816000806101000a81548173ffffffffffffffffffffffffffffffffffffffff021916908373ffffffffffffffffffffffffffffffffffffffff1602179055508173ffffffffffffffffffffffffffffffffffffffff168173ffffffffffffffffffffffffffffffffffffffff167f8be0079c531659141344cd1fd0a4f28419497f9722a3daafe3b4186f6b6457e060405160405180910390a35050565b61422d806200012e6000396000f3fe6080604052600436106102255760003560e01c806389e6ce1e11610123578063ca628c78116100ab578063ee774ccd1161006f578063ee774ccd14610777578063f2fde38b146107a0578063f3fef3a3146107c9578063fa09e630146107f2578063fb00f3fc1461081b57610225565b8063ca628c78146106a6578063cae70c70146106bd578063ded441c2146106e6578063e7ee6ad61461070f578063e985e3671461074c57610225565b8063a82524b2116100f2578063a82524b2146105f7578063ace1741c14610622578063b33712c51461064d578063b5b0763c14610664578063b81df7421461067b57610225565b806389e6ce1e1461053d5780638ce0b9d2146105665780638da5cb5b146105a357806399b77032146105ce57610225565b806363b20117116101b15780636bcedf9c116101755780636bcedf9c1461047e5780636c59bd0c146104a9578063715018a6146104d25780637412c223146104e9578063757765f81461051457610225565b806363b20117146103a657806365617db1146103d1578063683b3b97146103fa57806368f8fc10146104375780636aa5b37f1461045357610225565b80633c00a36c116101f85780633c00a36c146102d4578063439766ce146102fd57806354a9f102146103145780635b10bd6a146103525780635c975abb1461037b57610225565b8063115ece4c1461022a578063249b7c19146102675780632a95c24c146102925780633848a771146102a9575b600080fd5b34801561023657600080fd5b50610251600480360381019061024c9190612c87565b610832565b60405161025e9190612cd6565b60405180910390f35b34801561027357600080fd5b5061027c610a4e565b6040516102899190612cd6565b60405180910390f35b34801561029e57600080fd5b506102a7610a54565b005b3480156102b557600080fd5b506102be610b82565b6040516102cb9190612d0c565b60405180910390f35b3480156102e057600080fd5b506102fb60048036038101906102f69190612d27565b610b95565b005b34801561030957600080fd5b50610312610c5b565b005b34801561032057600080fd5b5061033b60048036038101906103369190612d54565b610ce1565b604051610349929190612d81565b60405180910390f35b34801561035e57600080fd5b5061037960048036038101906103749190612d27565b610d12565b005b34801561038757600080fd5b50610390610d9f565b60405161039d9190612d0c565b60405180910390f35b3480156103b257600080fd5b506103bb610db5565b6040516103c89190612cd6565b60405180910390f35b3480156103dd57600080fd5b506103f860048036038101906103f39190612ef1565b610dbb565b005b34801561040657600080fd5b50610421600480360381019061041c9190612c87565b610f1b565b60405161042e9190612cd6565b60405180910390f35b610451600480360381019061044c9190612c87565b610f43565b005b34801561045f57600080fd5b5061046861135e565b6040516104759190612cd6565b60405180910390f35b34801561048a57600080fd5b50610493611364565b6040516104a09190612cd6565b60405180910390f35b3480156104b557600080fd5b506104d060048036038101906104cb9190612d27565b61136a565b005b3480156104de57600080fd5b506104e76113f0565b005b3480156104f557600080fd5b506104fe611478565b60405161050b9190612cd6565b60405180910390f35b34801561052057600080fd5b5061053b60048036038101906105369190612d27565b61147d565b005b34801561054957600080fd5b50610564600480360381019061055f9190612c87565b611503565b005b34801561057257600080fd5b5061058d60048036038101906105889190612d54565b61183a565b60405161059a9190612d0c565b60405180910390f35b3480156105af57600080fd5b506105b861185a565b6040516105c59190612f40565b60405180910390f35b3480156105da57600080fd5b506105f560048036038101906105f09190612d27565b611883565b005b34801561060357600080fd5b5061060c611909565b6040516106199190612cd6565b60405180910390f35b34801561062e57600080fd5b5061063761190f565b6040516106449190612cd6565b60405180910390f35b34801561065957600080fd5b50610662611915565b005b34801561067057600080fd5b5061067961199b565b005b34801561068757600080fd5b50610690611ac8565b60405161069d9190612cd6565b60405180910390f35b3480156106b257600080fd5b506106bb611ace565b005b3480156106c957600080fd5b506106e460048036038101906106df9190612ef1565b611cf5565b005b3480156106f257600080fd5b5061070d60048036038101906107089190612d27565b611e89565b005b34801561071b57600080fd5b5061073660048036038101906107319190612d27565b611f9a565b6040516107439190612cd6565b60405180910390f35b34801561075857600080fd5b50610761611fb5565b60405161076e9190612f40565b60405180910390f35b34801561078357600080fd5b5061079e60048036038101906107999190612f5b565b611fdb565b005b3480156107ac57600080fd5b506107c760048036038101906107c29190612d54565b61206c565b005b3480156107d557600080fd5b506107f060048036038101906107eb9190612c87565b612163565b005b3480156107fe57600080fd5b5061081960048036038101906108149190612d54565b61229e565b005b34801561082757600080fd5b50610830612436565b005b600080600061083f611478565b9050600073ffffffffffffffffffffffffffffffffffffffff168573ffffffffffffffffffffffffffffffffffffffff16146109e157600a60008673ffffffffffffffffffffffffffffffffffffffff1673ffffffffffffffffffffffffffffffffffffffff16815260200190815260200160002060009054906101000a900460ff16610901576040517f08c379a00000000000000000000000000000000000000000000000000000000081526004016108f890612fe5565b60405180910390fd5b6000600b60008773ffffffffffffffffffffffffffffffffffffffff1673ffffffffffffffffffffffffffffffffffffffff168152602001908152602001600020826004811061095457610953613005565b5b0154036109625760006109da565b600b60008673ffffffffffffffffffffffffffffffffffffffff1673ffffffffffffffffffffffffffffffffffffffff16815260200190815260200160002081600481106109b3576109b2613005565b5b0154600654600a6109c49190613196565b856109cf91906131e1565b6109d99190613252565b5b9150610a43565b6000600182600481106109f7576109f6613005565b5b015403610a05576000610a40565b60018160048110610a1957610a18613005565b5b0154600654600a610a2a9190613196565b85610a3591906131e1565b610a3f9190613252565b5b91505b819250505092915050565b600d5481565b610a5c6125e7565b73ffffffffffffffffffffffffffffffffffffffff16610a7a61185a565b73ffffffffffffffffffffffffffffffffffffffff1614610ad0576040517f08c379a0000000000000000000000000000000000000000000000000000000008152600401610ac7906132cf565b60405180910390fd5b600d54421015610b15576040517f08c379a0000000000000000000000000000000000000000000000000000000008152600401610b0c90613361565b60405180910390fd5b600e60009054906101000a900460ff1615610b65576040517f08c379a0000000000000000000000000000000000000000000000000000000008152600401610b5c906133f3565b60405180910390fd5b6001600e60006101000a81548160ff021916908315150217905550565b600e60009054906101000a900460ff1681565b610b9d6125e7565b73ffffffffffffffffffffffffffffffffffffffff16610bbb61185a565b73ffffffffffffffffffffffffffffffffffffffff1614610c11576040517f08c379a0000000000000000000000000000000000000000000000000000000008152600401610c08906132cf565b60405180910390fd5b3373ffffffffffffffffffffffffffffffffffffffff166108fc829081150290604051600060405180830381858888f19350505050158015610c57573d6000803e3d6000fd5b5050565b610c636125e7565b73ffffffffffffffffffffffffffffffffffffffff16610c8161185a565b73ffffffffffffffffffffffffffffffffffffffff1614610cd7576040517f08c379a0000000000000000000000000000000000000000000000000000000008152600401610cce906132cf565b60405180910390fd5b610cdf6125ef565b565b600f6020528060005260406000206000915090508060000154908060010160009054906101000a900460ff16905082565b610d1a6125e7565b73ffffffffffffffffffffffffffffffffffffffff16610d3861185a565b73ffffffffffffffffffffffffffffffffffffffff1614610d8e576040517f08c379a0000000000000000000000000000000000000000000000000000000008152600401610d85906132cf565b60405180910390fd5b42600c8190555080600d8190555050565b60008060149054906101000a900460ff16905090565b60105481565b610dc36125e7565b73ffffffffffffffffffffffffffffffffffffffff16610de161185a565b73ffffffffffffffffffffffffffffffffffffffff1614610e37576040517f08c379a0000000000000000000000000000000000000000000000000000000008152600401610e2e906132cf565b60405180910390fd5b6001600a60008473ffffffffffffffffffffffffffffffffffffffff1673ffffffffffffffffffffffffffffffffffffffff16815260200190815260200160002060006101000a81548160ff02191690831515021790555080600b60008473ffffffffffffffffffffffffffffffffffffffff1673ffffffffffffffffffffffffffffffffffffffff168152602001908152602001600020906004610edd929190612b87565b507f46a898d5bfb8140cb704c10cf4ff6ac010411db41a0d94f60d29dc9bdc24942d8282604051610f0f9291906134be565b60405180910390a15050565b600b6020528160005260406000208160048110610f3757600080fd5b01600091509150505481565b600c54421015610f88576040517f08c379a0000000000000000000000000000000000000000000000000000000008152600401610f7f90613559565b60405180910390fd5b600d544210610fcc576040517f08c379a0000000000000000000000000000000000000000000000000000000008152600401610fc3906135c5565b60405180910390fd5b610fd4612652565b60008073ffffffffffffffffffffffffffffffffffffffff168373ffffffffffffffffffffffffffffffffffffffff160361101957611014600034610832565b611024565b6110238383610832565b5b905060095481101561106b576040517f08c379a000000000000000000000000000000000000000000000000000000000815260040161106290613657565b60405180910390fd5b60085481600f60003373ffffffffffffffffffffffffffffffffffffffff1673ffffffffffffffffffffffffffffffffffffffff168152602001908152602001600020600001546110bc9190613677565b11156110fd576040517f08c379a00000000000000000000000000000000000000000000000000000000081526004016110f49061371d565b60405180910390fd5b6007548160105461110e9190613677565b111561114f576040517f08c379a0000000000000000000000000000000000000000000000000000000008152600401611146906137af565b60405180910390fd5b600073ffffffffffffffffffffffffffffffffffffffff168373ffffffffffffffffffffffffffffffffffffffff161461128057600082116111c6576040517f08c379a00000000000000000000000000000000000000000000000000000000081526004016111bd90613841565b60405180910390fd5b600a60008473ffffffffffffffffffffffffffffffffffffffff1673ffffffffffffffffffffffffffffffffffffffff16815260200190815260200160002060009054906101000a900460ff16611252576040517f08c379a000000000000000000000000000000000000000000000000000000000815260040161124990612fe5565b60405180910390fd5b61127f3330848673ffffffffffffffffffffffffffffffffffffffff1661269c909392919063ffffffff16565b5b80601060008282546112929190613677565b9250508190555080600f60003373ffffffffffffffffffffffffffffffffffffffff1673ffffffffffffffffffffffffffffffffffffffff16815260200190815260200160002060000160008282546112eb9190613677565b925050819055508273ffffffffffffffffffffffffffffffffffffffff163373ffffffffffffffffffffffffffffffffffffffff167fc244d500136edffae7025aaf7fbd7a07193ac544a1d0cc3132cf2a32452d340c8484604051611351929190613861565b60405180910390a3505050565b60085481565b60075481565b6113726125e7565b73ffffffffffffffffffffffffffffffffffffffff1661139061185a565b73ffffffffffffffffffffffffffffffffffffffff16146113e6576040517f08c379a00000000000000000000000000000000000000000000000000000000081526004016113dd906132cf565b60405180910390fd5b80600d8190555050565b6113f86125e7565b73ffffffffffffffffffffffffffffffffffffffff1661141661185a565b73ffffffffffffffffffffffffffffffffffffffff161461146c576040517f08c379a0000000000000000000000000000000000000000000000000000000008152600401611463906132cf565b60405180910390fd5b6114766000612725565b565b600090565b6114856125e7565b73ffffffffffffffffffffffffffffffffffffffff166114a361185a565b73ffffffffffffffffffffffffffffffffffffffff16146114f9576040517f08c379a00000000000000000000000000000000000000000000000000000000081526004016114f0906132cf565b60405180910390fd5b8060088190555050565b61150b6125e7565b73ffffffffffffffffffffffffffffffffffffffff1661152961185a565b73ffffffffffffffffffffffffffffffffffffffff161461157f576040517f08c379a0000000000000000000000000000000000000000000000000000000008152600401611576906132cf565b60405180910390fd5b600073ffffffffffffffffffffffffffffffffffffffff168273ffffffffffffffffffffffffffffffffffffffff16036115ee576040517f08c379a00000000000000000000000000000000000000000000000000000000081526004016115e5906138fc565b60405180910390fd5b60008111611631576040517f08c379a00000000000000000000000000000000000000000000000000000000081526004016116289061398e565b60405180910390fd5b81600560006101000a81548173ffffffffffffffffffffffffffffffffffffffff021916908373ffffffffffffffffffffffffffffffffffffffff160217905550600560009054906101000a900473ffffffffffffffffffffffffffffffffffffffff1673ffffffffffffffffffffffffffffffffffffffff1663313ce5676040518163ffffffff1660e01b8152600401602060405180830381865afa1580156116df573d6000803e3d6000fd5b505050506040513d601f19601f8201168201806040525081019061170391906139e7565b60ff1660068190555061175b333083600560009054906101000a900473ffffffffffffffffffffffffffffffffffffffff1673ffffffffffffffffffffffffffffffffffffffff1661269c909392919063ffffffff16565b600560009054906101000a900473ffffffffffffffffffffffffffffffffffffffff1673ffffffffffffffffffffffffffffffffffffffff166370a08231306040518263ffffffff1660e01b81526004016117b69190612f40565b602060405180830381865afa1580156117d3573d6000803e3d6000fd5b505050506040513d601f19601f820116820180604052508101906117f79190613a29565b6007819055507f03211f0a57d24f0b52e2e0573af5be089c5faadeb55f9b90591717b0a22f7e2a828260405161182e929190613a56565b60405180910390a15050565b600a6020528060005260406000206000915054906101000a900460ff1681565b60008060009054906101000a900473ffffffffffffffffffffffffffffffffffffffff16905090565b61188b6125e7565b73ffffffffffffffffffffffffffffffffffffffff166118a961185a565b73ffffffffffffffffffffffffffffffffffffffff16146118ff576040517f08c379a00000000000000000000000000000000000000000000000000000000081526004016118f6906132cf565b60405180910390fd5b8060098190555050565b600c5481565b60065481565b61191d6125e7565b73ffffffffffffffffffffffffffffffffffffffff1661193b61185a565b73ffffffffffffffffffffffffffffffffffffffff1614611991576040517f08c379a0000000000000000000000000000000000000000000000000000000008152600401611988906132cf565b60405180910390fd5b6119996127e9565b565b6119a36125e7565b73ffffffffffffffffffffffffffffffffffffffff166119c161185a565b73ffffffffffffffffffffffffffffffffffffffff1614611a17576040517f08c379a0000000000000000000000000000000000000000000000000000000008152600401611a0e906132cf565b60405180910390fd5b600d54421015611a5c576040517f08c379a0000000000000000000000000000000000000000000000000000000008152600401611a5390613361565b60405180910390fd5b600e60009054906101000a900460ff16611aab576040517f08c379a0000000000000000000000000000000000000000000000000000000008152600401611aa290613af1565b60405180910390fd5b6000600e60006101000a81548160ff021916908315150217905550565b60095481565b611ad6612652565b600e60009054906101000a900460ff16611b25576040517f08c379a0000000000000000000000000000000000000000000000000000000008152600401611b1c90613b83565b60405180910390fd5b600f60003373ffffffffffffffffffffffffffffffffffffffff1673ffffffffffffffffffffffffffffffffffffffff16815260200190815260200160002060010160009054906101000a900460ff1615611bb5576040517f08c379a0000000000000000000000000000000000000000000000000000000008152600401611bac90613bef565b60405180910390fd5b6000600f60003373ffffffffffffffffffffffffffffffffffffffff1673ffffffffffffffffffffffffffffffffffffffff1681526020019081526020016000206000015490506001600f60003373ffffffffffffffffffffffffffffffffffffffff1673ffffffffffffffffffffffffffffffffffffffff16815260200190815260200160002060010160006101000a81548160ff021916908315150217905550611ca43382600560009054906101000a900473ffffffffffffffffffffffffffffffffffffffff1673ffffffffffffffffffffffffffffffffffffffff1661284b9092919063ffffffff16565b3373ffffffffffffffffffffffffffffffffffffffff167fe7b379c6c1fa169e9079c25e9143b127637eef8ec8c9d5c06ddb4ab3e119588882604051611cea9190612cd6565b60405180910390a250565b611cfd6125e7565b73ffffffffffffffffffffffffffffffffffffffff16611d1b61185a565b73ffffffffffffffffffffffffffffffffffffffff1614611d71576040517f08c379a0000000000000000000000000000000000000000000000000000000008152600401611d68906132cf565b60405180910390fd5b600a60008373ffffffffffffffffffffffffffffffffffffffff1673ffffffffffffffffffffffffffffffffffffffff16815260200190815260200160002060009054906101000a900460ff16611dfd576040517f08c379a0000000000000000000000000000000000000000000000000000000008152600401611df490612fe5565b60405180910390fd5b80600b60008473ffffffffffffffffffffffffffffffffffffffff1673ffffffffffffffffffffffffffffffffffffffff168152602001908152602001600020906004611e4b929190612b87565b507f15c54d4add16cdcd1f0a4c671837cf70c9f8f02790bb0d948710af6e0187c7d98282604051611e7d9291906134be565b60405180910390a15050565b611e916125e7565b73ffffffffffffffffffffffffffffffffffffffff16611eaf61185a565b73ffffffffffffffffffffffffffffffffffffffff1614611f05576040517f08c379a0000000000000000000000000000000000000000000000000000000008152600401611efc906132cf565b60405180910390fd5b600d54421015611f4a576040517f08c379a0000000000000000000000000000000000000000000000000000000008152600401611f4190613361565b60405180910390fd5b611f973382600560009054906101000a900473ffffffffffffffffffffffffffffffffffffffff1673ffffffffffffffffffffffffffffffffffffffff1661284b9092919063ffffffff16565b50565b60018160048110611faa57600080fd5b016000915090505481565b600560009054906101000a900473ffffffffffffffffffffffffffffffffffffffff1681565b611fe36125e7565b73ffffffffffffffffffffffffffffffffffffffff1661200161185a565b73ffffffffffffffffffffffffffffffffffffffff1614612057576040517f08c379a000000000000000000000000000000000000000000000000000000000815260040161204e906132cf565b60405180910390fd5b806001906004612068929190612b87565b5050565b6120746125e7565b73ffffffffffffffffffffffffffffffffffffffff1661209261185a565b73ffffffffffffffffffffffffffffffffffffffff16146120e8576040517f08c379a00000000000000000000000000000000000000000000000000000000081526004016120df906132cf565b60405180910390fd5b600073ffffffffffffffffffffffffffffffffffffffff168173ffffffffffffffffffffffffffffffffffffffff1603612157576040517f08c379a000000000000000000000000000000000000000000000000000000000815260040161214e90613c81565b60405180910390fd5b61216081612725565b50565b61216b6125e7565b73ffffffffffffffffffffffffffffffffffffffff1661218961185a565b73ffffffffffffffffffffffffffffffffffffffff16146121df576040517f08c379a00000000000000000000000000000000000000000000000000000000081526004016121d6906132cf565b60405180910390fd5b600560009054906101000a900473ffffffffffffffffffffffffffffffffffffffff1673ffffffffffffffffffffffffffffffffffffffff168273ffffffffffffffffffffffffffffffffffffffff160361226f576040517f08c379a000000000000000000000000000000000000000000000000000000000815260040161226690613d39565b60405180910390fd5b61229a33828473ffffffffffffffffffffffffffffffffffffffff1661284b9092919063ffffffff16565b5050565b6122a66125e7565b73ffffffffffffffffffffffffffffffffffffffff166122c461185a565b73ffffffffffffffffffffffffffffffffffffffff161461231a576040517f08c379a0000000000000000000000000000000000000000000000000000000008152600401612311906132cf565b60405180910390fd5b600560009054906101000a900473ffffffffffffffffffffffffffffffffffffffff1673ffffffffffffffffffffffffffffffffffffffff168173ffffffffffffffffffffffffffffffffffffffff16036123aa576040517f08c379a00000000000000000000000000000000000000000000000000000000081526004016123a190613df1565b60405180910390fd5b60008173ffffffffffffffffffffffffffffffffffffffff166370a08231306040518263ffffffff1660e01b81526004016123e59190612f40565b602060405180830381865afa158015612402573d6000803e3d6000fd5b505050506040513d601f19601f820116820180604052508101906124269190613a29565b90506124328282612163565b5050565b61243e6125e7565b73ffffffffffffffffffffffffffffffffffffffff1661245c61185a565b73ffffffffffffffffffffffffffffffffffffffff16146124b2576040517f08c379a00000000000000000000000000000000000000000000000000000000081526004016124a9906132cf565b60405180910390fd5b600d544210156124f7576040517f08c379a00000000000000000000000000000000000000000000000000000000081526004016124ee90613361565b60405180910390fd5b6000600560009054906101000a900473ffffffffffffffffffffffffffffffffffffffff1673ffffffffffffffffffffffffffffffffffffffff166370a08231306040518263ffffffff1660e01b81526004016125549190612f40565b602060405180830381865afa158015612571573d6000803e3d6000fd5b505050506040513d601f19601f820116820180604052508101906125959190613a29565b90506125e43382600560009054906101000a900473ffffffffffffffffffffffffffffffffffffffff1673ffffffffffffffffffffffffffffffffffffffff1661284b9092919063ffffffff16565b50565b600033905090565b6125f7612652565b6001600060146101000a81548160ff0219169083151502179055507f62e78cea01bee320cd4e420270b5ea74000d11b0c9f74754ebdbfc544b05a25861263b6125e7565b6040516126489190612f40565b60405180910390a1565b61265a610d9f565b1561269a576040517f08c379a000000000000000000000000000000000000000000000000000000000815260040161269190613e5d565b60405180910390fd5b565b61271f846323b872dd60e01b8585856040516024016126bd93929190613e7d565b604051602081830303815290604052907bffffffffffffffffffffffffffffffffffffffffffffffffffffffff19166020820180517bffffffffffffffffffffffffffffffffffffffffffffffffffffffff83818316178352505050506128d1565b50505050565b60008060009054906101000a900473ffffffffffffffffffffffffffffffffffffffff169050816000806101000a81548173ffffffffffffffffffffffffffffffffffffffff021916908373ffffffffffffffffffffffffffffffffffffffff1602179055508173ffffffffffffffffffffffffffffffffffffffff168173ffffffffffffffffffffffffffffffffffffffff167f8be0079c531659141344cd1fd0a4f28419497f9722a3daafe3b4186f6b6457e060405160405180910390a35050565b6127f1612998565b60008060146101000a81548160ff0219169083151502179055507f5db9ee0a495bf2e6ff9c91a7834c1ba4fdd244a5e8aa4e537bd38aeae4b073aa6128346125e7565b6040516128419190612f40565b60405180910390a1565b6128cc8363a9059cbb60e01b848460405160240161286a929190613a56565b604051602081830303815290604052907bffffffffffffffffffffffffffffffffffffffffffffffffffffffff19166020820180517bffffffffffffffffffffffffffffffffffffffffffffffffffffffff83818316178352505050506128d1565b505050565b6000612933826040518060400160405280602081526020017f5361666545524332303a206c6f772d6c6576656c2063616c6c206661696c65648152508573ffffffffffffffffffffffffffffffffffffffff166129e19092919063ffffffff16565b905060008151111561299357808060200190518101906129539190613ee0565b612992576040517f08c379a000000000000000000000000000000000000000000000000000000000815260040161298990613f7f565b60405180910390fd5b5b505050565b6129a0610d9f565b6129df576040517f08c379a00000000000000000000000000000000000000000000000000000000081526004016129d690613feb565b60405180910390fd5b565b60606129f084846000856129f9565b90509392505050565b606082471015612a3e576040517f08c379a0000000000000000000000000000000000000000000000000000000008152600401612a359061407d565b60405180910390fd5b612a4785612b0d565b612a86576040517f08c379a0000000000000000000000000000000000000000000000000000000008152600401612a7d906140e9565b60405180910390fd5b6000808673ffffffffffffffffffffffffffffffffffffffff168587604051612aaf919061417a565b60006040518083038185875af1925050503d8060008114612aec576040519150601f19603f3d011682016040523d82523d6000602084013e612af1565b606091505b5091509150612b01828286612b20565b92505050949350505050565b600080823b905060008111915050919050565b60608315612b3057829050612b80565b600083511115612b435782518084602001fd5b816040517f08c379a0000000000000000000000000000000000000000000000000000000008152600401612b7791906141d5565b60405180910390fd5b9392505050565b8260048101928215612bb6579160200282015b82811115612bb5578251825591602001919060010190612b9a565b5b509050612bc39190612bc7565b5090565b5b80821115612be0576000816000905550600101612bc8565b5090565b6000604051905090565b600080fd5b600073ffffffffffffffffffffffffffffffffffffffff82169050919050565b6000612c1e82612bf3565b9050919050565b612c2e81612c13565b8114612c3957600080fd5b50565b600081359050612c4b81612c25565b92915050565b6000819050919050565b612c6481612c51565b8114612c6f57600080fd5b50565b600081359050612c8181612c5b565b92915050565b60008060408385031215612c9e57612c9d612bee565b5b6000612cac85828601612c3c565b9250506020612cbd85828601612c72565b9150509250929050565b612cd081612c51565b82525050565b6000602082019050612ceb6000830184612cc7565b92915050565b60008115159050919050565b612d0681612cf1565b82525050565b6000602082019050612d216000830184612cfd565b92915050565b600060208284031215612d3d57612d3c612bee565b5b6000612d4b84828501612c72565b91505092915050565b600060208284031215612d6a57612d69612bee565b5b6000612d7884828501612c3c565b91505092915050565b6000604082019050612d966000830185612cc7565b612da36020830184612cfd565b9392505050565b600080fd5b6000601f19601f8301169050919050565b7f4e487b7100000000000000000000000000000000000000000000000000000000600052604160045260246000fd5b612df882612daf565b810181811067ffffffffffffffff82111715612e1757612e16612dc0565b5b80604052505050565b6000612e2a612be4565b9050612e368282612def565b919050565b600067ffffffffffffffff821115612e5657612e55612dc0565b5b602082029050919050565b600080fd5b6000612e79612e7484612e3b565b612e20565b90508060208402830185811115612e9357612e92612e61565b5b835b81811015612ebc5780612ea88882612c72565b845260208401935050602081019050612e95565b5050509392505050565b600082601f830112612edb57612eda612daa565b5b6004612ee8848285612e66565b91505092915050565b60008060a08385031215612f0857612f07612bee565b5b6000612f1685828601612c3c565b9250506020612f2785828601612ec6565b9150509250929050565b612f3a81612c13565b82525050565b6000602082019050612f556000830184612f31565b92915050565b600060808284031215612f7157612f70612bee565b5b6000612f7f84828501612ec6565b91505092915050565b600082825260208201905092915050565b7f50726573616c653a20546f6b656e206e6f742077686974656c69737465640000600082015250565b6000612fcf601e83612f88565b9150612fda82612f99565b602082019050919050565b60006020820190508181036000830152612ffe81612fc2565b9050919050565b7f4e487b7100000000000000000000000000000000000000000000000000000000600052603260045260246000fd5b7f4e487b7100000000000000000000000000000000000000000000000000000000600052601160045260246000fd5b60008160011c9050919050565b6000808291508390505b60018511156130ba5780860481111561309657613095613034565b5b60018516156130a55780820291505b80810290506130b385613063565b945061307a565b94509492505050565b6000826130d3576001905061318f565b816130e1576000905061318f565b81600181146130f7576002811461310157613130565b600191505061318f565b60ff84111561311357613112613034565b5b8360020a91508482111561312a57613129613034565b5b5061318f565b5060208310610133831016604e8410600b84101617156131655782820a9050838111156131605761315f613034565b5b61318f565b6131728484846001613070565b9250905081840481111561318957613188613034565b5b81810290505b9392505050565b60006131a182612c51565b91506131ac83612c51565b92506131d97fffffffffffffffffffffffffffffffffffffffffffffffffffffffffffffffff84846130c3565b905092915050565b60006131ec82612c51565b91506131f783612c51565b925082820261320581612c51565b9150828204841483151761321c5761321b613034565b5b5092915050565b7f4e487b7100000000000000000000000000000000000000000000000000000000600052601260045260246000fd5b600061325d82612c51565b915061326883612c51565b92508261327857613277613223565b5b828204905092915050565b7f4f776e61626c653a2063616c6c6572206973206e6f7420746865206f776e6572600082015250565b60006132b9602083612f88565b91506132c482613283565b602082019050919050565b600060208201905081810360008301526132e8816132ac565b9050919050565b7f50726573616c653a2050726573616c6520686173206e6f7420656e646564207960008201527f6574000000000000000000000000000000000000000000000000000000000000602082015250565b600061334b602283612f88565b9150613356826132ef565b604082019050919050565b6000602082019050818103600083015261337a8161333e565b9050919050565b7f50726573616c653a20556e6c6f636b696e672068617320616c7265616479207360008201527f7461727465640000000000000000000000000000000000000000000000000000602082015250565b60006133dd602683612f88565b91506133e882613381565b604082019050919050565b6000602082019050818103600083015261340c816133d0565b9050919050565b600060049050919050565b600081905092915050565b6000819050919050565b61343c81612c51565b82525050565b600061344e8383613433565b60208301905092915050565b6000602082019050919050565b61347081613413565b61347a818461341e565b925061348582613429565b8060005b838110156134b657815161349d8782613442565b96506134a88361345a565b925050600181019050613489565b505050505050565b600060a0820190506134d36000830185612f31565b6134e06020830184613467565b9392505050565b7f50726573616c653a2050726573616c6520686173206e6f74207374617274656460008201527f2079657400000000000000000000000000000000000000000000000000000000602082015250565b6000613543602483612f88565b915061354e826134e7565b604082019050919050565b6000602082019050818103600083015261357281613536565b9050919050565b7f50726573616c653a2050726573616c652068617320656e646564000000000000600082015250565b60006135af601a83612f88565b91506135ba82613579565b602082019050919050565b600060208201905081810360008301526135de816135a2565b9050919050565b7f50726573616c653a204d696e20627579206c696d6974206e6f7420726561636860008201527f6564000000000000000000000000000000000000000000000000000000000000602082015250565b6000613641602283612f88565b915061364c826135e5565b604082019050919050565b6000602082019050818103600083015261367081613634565b9050919050565b600061368282612c51565b915061368d83612c51565b92508282019050808211156136a5576136a4613034565b5b92915050565b7f50726573616c653a204d617820627579206c696d69742072656163686564206660008201527f6f72207468697320706861736500000000000000000000000000000000000000602082015250565b6000613707602d83612f88565b9150613712826136ab565b604082019050919050565b60006020820190508181036000830152613736816136fa565b9050919050565b7f50726573616c653a20546f74616c20546f6b656e2053616c652052656163686560008201527f6421000000000000000000000000000000000000000000000000000000000000602082015250565b6000613799602283612f88565b91506137a48261373d565b604082019050919050565b600060208201905081810360008301526137c88161378c565b9050919050565b7f50726573616c653a2043616e6e6f74206275792077697468207a65726f20616d60008201527f6f756e7400000000000000000000000000000000000000000000000000000000602082015250565b600061382b602483612f88565b9150613836826137cf565b604082019050919050565b6000602082019050818103600083015261385a8161381e565b9050919050565b60006040820190506138766000830185612cc7565b6138836020830184612cc7565b9392505050565b7f50726573616c653a2053616c6520746f6b656e2063616e6e6f74206265207a6560008201527f726f206164647265737300000000000000000000000000000000000000000000602082015250565b60006138e6602a83612f88565b91506138f18261388a565b604082019050919050565b60006020820190508181036000830152613915816138d9565b9050919050565b7f50726573616c653a20546f74616c20746f6b656e7320666f722073616c65206360008201527f616e6e6f74206265207a65726f00000000000000000000000000000000000000602082015250565b6000613978602d83612f88565b91506139838261391c565b604082019050919050565b600060208201905081810360008301526139a78161396b565b9050919050565b600060ff82169050919050565b6139c4816139ae565b81146139cf57600080fd5b50565b6000815190506139e1816139bb565b92915050565b6000602082840312156139fd576139fc612bee565b5b6000613a0b848285016139d2565b91505092915050565b600081519050613a2381612c5b565b92915050565b600060208284031215613a3f57613a3e612bee565b5b6000613a4d84828501613a14565b91505092915050565b6000604082019050613a6b6000830185612f31565b613a786020830184612cc7565b9392505050565b7f50726573616c653a20556e6c6f636b696e67206861736e27742073746172746560008201527f6420796574210000000000000000000000000000000000000000000000000000602082015250565b6000613adb602683612f88565b9150613ae682613a7f565b604082019050919050565b60006020820190508181036000830152613b0a81613ace565b9050919050565b7f50726573616c653a204c6f636b696e6720706572696f64206e6f74206f76657260008201527f2079657400000000000000000000000000000000000000000000000000000000602082015250565b6000613b6d602483612f88565b9150613b7882613b11565b604082019050919050565b60006020820190508181036000830152613b9c81613b60565b9050919050565b7f50726573616c653a20416c726561647920636c61696d65640000000000000000600082015250565b6000613bd9601883612f88565b9150613be482613ba3565b602082019050919050565b60006020820190508181036000830152613c0881613bcc565b9050919050565b7f4f776e61626c653a206e6577206f776e657220697320746865207a65726f206160008201527f6464726573730000000000000000000000000000000000000000000000000000602082015250565b6000613c6b602683612f88565b9150613c7682613c0f565b604082019050919050565b60006020820190508181036000830152613c9a81613c5e565b9050919050565b7f50726573616c653a2043616e6e6f742077697468647261772073616c6520746f60008201527f6b656e20776974682074686973206d6574686f642c207573652077697468647260208201527f617753616c65546f6b656e282920696e73746561640000000000000000000000604082015250565b6000613d23605583612f88565b9150613d2e82613ca1565b606082019050919050565b60006020820190508181036000830152613d5281613d16565b9050919050565b7f50726573616c653a2043616e6e6f742077697468647261772073616c6520746f60008201527f6b656e20776974682074686973206d6574686f642c207573652077697468647260208201527f6177416c6c53616c65546f6b656e282920696e73746561640000000000000000604082015250565b6000613ddb605883612f88565b9150613de682613d59565b606082019050919050565b60006020820190508181036000830152613e0a81613dce565b9050919050565b7f5061757361626c653a2070617573656400000000000000000000000000000000600082015250565b6000613e47601083612f88565b9150613e5282613e11565b602082019050919050565b60006020820190508181036000830152613e7681613e3a565b9050919050565b6000606082019050613e926000830186612f31565b613e9f6020830185612f31565b613eac6040830184612cc7565b949350505050565b613ebd81612cf1565b8114613ec857600080fd5b50565b600081519050613eda81613eb4565b92915050565b600060208284031215613ef657613ef5612bee565b5b6000613f0484828501613ecb565b91505092915050565b7f5361666545524332303a204552433230206f7065726174696f6e20646964206e60008201527f6f74207375636365656400000000000000000000000000000000000000000000602082015250565b6000613f69602a83612f88565b9150613f7482613f0d565b604082019050919050565b60006020820190508181036000830152613f9881613f5c565b9050919050565b7f5061757361626c653a206e6f7420706175736564000000000000000000000000600082015250565b6000613fd5601483612f88565b9150613fe082613f9f565b602082019050919050565b6000602082019050818103600083015261400481613fc8565b9050919050565b7f416464726573733a20696e73756666696369656e742062616c616e636520666f60008201527f722063616c6c0000000000000000000000000000000000000000000000000000602082015250565b6000614067602683612f88565b91506140728261400b565b604082019050919050565b600060208201905081810360008301526140968161405a565b9050919050565b7f416464726573733a2063616c6c20746f206e6f6e2d636f6e7472616374000000600082015250565b60006140d3601d83612f88565b91506140de8261409d565b602082019050919050565b60006020820190508181036000830152614102816140c6565b9050919050565b600081519050919050565b600081905092915050565b60005b8381101561413d578082015181840152602081019050614122565b60008484015250505050565b600061415482614109565b61415e8185614114565b935061416e81856020860161411f565b80840191505092915050565b60006141868284614149565b915081905092915050565b600081519050919050565b60006141a782614191565b6141b18185612f88565b93506141c181856020860161411f565b6141ca81612daf565b840191505092915050565b600060208201905081810360008301526141ef818461419c565b90509291505056fea2646970667358221220ae1a7e456afdf351da8b7c481de778b51c8c4b352599f08414dca6cffe77e99c64736f6c63430008150033",
					"opcodes": "PUSH1 0x80 PUSH1 0x40 MSTORE CALLVALUE DUP1 ISZERO PUSH3 0x11 JUMPI PUSH1 0x0 DUP1 REVERT JUMPDEST POP PUSH3 0x32 PUSH3 0x26 PUSH3 0x52 PUSH1 0x20 SHL PUSH1 0x20 SHR JUMP JUMPDEST PUSH3 0x5A PUSH1 0x20 SHL PUSH1 0x20 SHR JUMP JUMPDEST PUSH1 0x0 DUP1 PUSH1 0x14 PUSH2 0x100 EXP DUP2 SLOAD DUP2 PUSH1 0xFF MUL NOT AND SWAP1 DUP4 ISZERO ISZERO MUL OR SWAP1 SSTORE POP PUSH3 0x11E JUMP JUMPDEST PUSH1 0x0 CALLER SWAP1 POP SWAP1 JUMP JUMPDEST PUSH1 0x0 DUP1 PUSH1 0x0 SWAP1 SLOAD SWAP1 PUSH2 0x100 EXP SWAP1 DIV PUSH20 0xFFFFFFFFFFFFFFFFFFFFFFFFFFFFFFFFFFFFFFFF AND SWAP1 POP DUP2 PUSH1 0x0 DUP1 PUSH2 0x100 EXP DUP2 SLOAD DUP2 PUSH20 0xFFFFFFFFFFFFFFFFFFFFFFFFFFFFFFFFFFFFFFFF MUL NOT AND SWAP1 DUP4 PUSH20 0xFFFFFFFFFFFFFFFFFFFFFFFFFFFFFFFFFFFFFFFF AND MUL OR SWAP1 SSTORE POP DUP2 PUSH20 0xFFFFFFFFFFFFFFFFFFFFFFFFFFFFFFFFFFFFFFFF AND DUP2 PUSH20 0xFFFFFFFFFFFFFFFFFFFFFFFFFFFFFFFFFFFFFFFF AND PUSH32 0x8BE0079C531659141344CD1FD0A4F28419497F9722A3DAAFE3B4186F6B6457E0 PUSH1 0x40 MLOAD PUSH1 0x40 MLOAD DUP1 SWAP2 SUB SWAP1 LOG3 POP POP JUMP JUMPDEST PUSH2 0x422D DUP1 PUSH3 0x12E PUSH1 0x0 CODECOPY PUSH1 0x0 RETURN INVALID PUSH1 0x80 PUSH1 0x40 MSTORE PUSH1 0x4 CALLDATASIZE LT PUSH2 0x225 JUMPI PUSH1 0x0 CALLDATALOAD PUSH1 0xE0 SHR DUP1 PUSH4 0x89E6CE1E GT PUSH2 0x123 JUMPI DUP1 PUSH4 0xCA628C78 GT PUSH2 0xAB JUMPI DUP1 PUSH4 0xEE774CCD GT PUSH2 0x6F JUMPI DUP1 PUSH4 0xEE774CCD EQ PUSH2 0x777 JUMPI DUP1 PUSH4 0xF2FDE38B EQ PUSH2 0x7A0 JUMPI DUP1 PUSH4 0xF3FEF3A3 EQ PUSH2 0x7C9 JUMPI DUP1 PUSH4 0xFA09E630 EQ PUSH2 0x7F2 JUMPI DUP1 PUSH4 0xFB00F3FC EQ PUSH2 0x81B JUMPI PUSH2 0x225 JUMP JUMPDEST DUP1 PUSH4 0xCA628C78 EQ PUSH2 0x6A6 JUMPI DUP1 PUSH4 0xCAE70C70 EQ PUSH2 0x6BD JUMPI DUP1 PUSH4 0xDED441C2 EQ PUSH2 0x6E6 JUMPI DUP1 PUSH4 0xE7EE6AD6 EQ PUSH2 0x70F JUMPI DUP1 PUSH4 0xE985E367 EQ PUSH2 0x74C JUMPI PUSH2 0x225 JUMP JUMPDEST DUP1 PUSH4 0xA82524B2 GT PUSH2 0xF2 JUMPI DUP1 PUSH4 0xA82524B2 EQ PUSH2 0x5F7 JUMPI DUP1 PUSH4 0xACE1741C EQ PUSH2 0x622 JUMPI DUP1 PUSH4 0xB33712C5 EQ PUSH2 0x64D JUMPI DUP1 PUSH4 0xB5B0763C EQ PUSH2 0x664 JUMPI DUP1 PUSH4 0xB81DF742 EQ PUSH2 0x67B JUMPI PUSH2 0x225 JUMP JUMPDEST DUP1 PUSH4 0x89E6CE1E EQ PUSH2 0x53D JUMPI DUP1 PUSH4 0x8CE0B9D2 EQ PUSH2 0x566 JUMPI DUP1 PUSH4 0x8DA5CB5B EQ PUSH2 0x5A3 JUMPI DUP1 PUSH4 0x99B77032 EQ PUSH2 0x5CE JUMPI PUSH2 0x225 JUMP JUMPDEST DUP1 PUSH4 0x63B20117 GT PUSH2 0x1B1 JUMPI DUP1 PUSH4 0x6BCEDF9C GT PUSH2 0x175 JUMPI DUP1 PUSH4 0x6BCEDF9C EQ PUSH2 0x47E JUMPI DUP1 PUSH4 0x6C59BD0C EQ PUSH2 0x4A9 JUMPI DUP1 PUSH4 0x715018A6 EQ PUSH2 0x4D2 JUMPI DUP1 PUSH4 0x7412C223 EQ PUSH2 0x4E9 JUMPI DUP1 PUSH4 0x757765F8 EQ PUSH2 0x514 JUMPI PUSH2 0x225 JUMP JUMPDEST DUP1 PUSH4 0x63B20117 EQ PUSH2 0x3A6 JUMPI DUP1 PUSH4 0x65617DB1 EQ PUSH2 0x3D1 JUMPI DUP1 PUSH4 0x683B3B97 EQ PUSH2 0x3FA JUMPI DUP1 PUSH4 0x68F8FC10 EQ PUSH2 0x437 JUMPI DUP1 PUSH4 0x6AA5B37F EQ PUSH2 0x453 JUMPI PUSH2 0x225 JUMP JUMPDEST DUP1 PUSH4 0x3C00A36C GT PUSH2 0x1F8 JUMPI DUP1 PUSH4 0x3C00A36C EQ PUSH2 0x2D4 JUMPI DUP1 PUSH4 0x439766CE EQ PUSH2 0x2FD JUMPI DUP1 PUSH4 0x54A9F102 EQ PUSH2 0x314 JUMPI DUP1 PUSH4 0x5B10BD6A EQ PUSH2 0x352 JUMPI DUP1 PUSH4 0x5C975ABB EQ PUSH2 0x37B JUMPI PUSH2 0x225 JUMP JUMPDEST DUP1 PUSH4 0x115ECE4C EQ PUSH2 0x22A JUMPI DUP1 PUSH4 0x249B7C19 EQ PUSH2 0x267 JUMPI DUP1 PUSH4 0x2A95C24C EQ PUSH2 0x292 JUMPI DUP1 PUSH4 0x3848A771 EQ PUSH2 0x2A9 JUMPI JUMPDEST PUSH1 0x0 DUP1 REVERT JUMPDEST CALLVALUE DUP1 ISZERO PUSH2 0x236 JUMPI PUSH1 0x0 DUP1 REVERT JUMPDEST POP PUSH2 0x251 PUSH1 0x4 DUP1 CALLDATASIZE SUB DUP2 ADD SWAP1 PUSH2 0x24C SWAP2 SWAP1 PUSH2 0x2C87 JUMP JUMPDEST PUSH2 0x832 JUMP JUMPDEST PUSH1 0x40 MLOAD PUSH2 0x25E SWAP2 SWAP1 PUSH2 0x2CD6 JUMP JUMPDEST PUSH1 0x40 MLOAD DUP1 SWAP2 SUB SWAP1 RETURN JUMPDEST CALLVALUE DUP1 ISZERO PUSH2 0x273 JUMPI PUSH1 0x0 DUP1 REVERT JUMPDEST POP PUSH2 0x27C PUSH2 0xA4E JUMP JUMPDEST PUSH1 0x40 MLOAD PUSH2 0x289 SWAP2 SWAP1 PUSH2 0x2CD6 JUMP JUMPDEST PUSH1 0x40 MLOAD DUP1 SWAP2 SUB SWAP1 RETURN JUMPDEST CALLVALUE DUP1 ISZERO PUSH2 0x29E JUMPI PUSH1 0x0 DUP1 REVERT JUMPDEST POP PUSH2 0x2A7 PUSH2 0xA54 JUMP JUMPDEST STOP JUMPDEST CALLVALUE DUP1 ISZERO PUSH2 0x2B5 JUMPI PUSH1 0x0 DUP1 REVERT JUMPDEST POP PUSH2 0x2BE PUSH2 0xB82 JUMP JUMPDEST PUSH1 0x40 MLOAD PUSH2 0x2CB SWAP2 SWAP1 PUSH2 0x2D0C JUMP JUMPDEST PUSH1 0x40 MLOAD DUP1 SWAP2 SUB SWAP1 RETURN JUMPDEST CALLVALUE DUP1 ISZERO PUSH2 0x2E0 JUMPI PUSH1 0x0 DUP1 REVERT JUMPDEST POP PUSH2 0x2FB PUSH1 0x4 DUP1 CALLDATASIZE SUB DUP2 ADD SWAP1 PUSH2 0x2F6 SWAP2 SWAP1 PUSH2 0x2D27 JUMP JUMPDEST PUSH2 0xB95 JUMP JUMPDEST STOP JUMPDEST CALLVALUE DUP1 ISZERO PUSH2 0x309 JUMPI PUSH1 0x0 DUP1 REVERT JUMPDEST POP PUSH2 0x312 PUSH2 0xC5B JUMP JUMPDEST STOP JUMPDEST CALLVALUE DUP1 ISZERO PUSH2 0x320 JUMPI PUSH1 0x0 DUP1 REVERT JUMPDEST POP PUSH2 0x33B PUSH1 0x4 DUP1 CALLDATASIZE SUB DUP2 ADD SWAP1 PUSH2 0x336 SWAP2 SWAP1 PUSH2 0x2D54 JUMP JUMPDEST PUSH2 0xCE1 JUMP JUMPDEST PUSH1 0x40 MLOAD PUSH2 0x349 SWAP3 SWAP2 SWAP1 PUSH2 0x2D81 JUMP JUMPDEST PUSH1 0x40 MLOAD DUP1 SWAP2 SUB SWAP1 RETURN JUMPDEST CALLVALUE DUP1 ISZERO PUSH2 0x35E JUMPI PUSH1 0x0 DUP1 REVERT JUMPDEST POP PUSH2 0x379 PUSH1 0x4 DUP1 CALLDATASIZE SUB DUP2 ADD SWAP1 PUSH2 0x374 SWAP2 SWAP1 PUSH2 0x2D27 JUMP JUMPDEST PUSH2 0xD12 JUMP JUMPDEST STOP JUMPDEST CALLVALUE DUP1 ISZERO PUSH2 0x387 JUMPI PUSH1 0x0 DUP1 REVERT JUMPDEST POP PUSH2 0x390 PUSH2 0xD9F JUMP JUMPDEST PUSH1 0x40 MLOAD PUSH2 0x39D SWAP2 SWAP1 PUSH2 0x2D0C JUMP JUMPDEST PUSH1 0x40 MLOAD DUP1 SWAP2 SUB SWAP1 RETURN JUMPDEST CALLVALUE DUP1 ISZERO PUSH2 0x3B2 JUMPI PUSH1 0x0 DUP1 REVERT JUMPDEST POP PUSH2 0x3BB PUSH2 0xDB5 JUMP JUMPDEST PUSH1 0x40 MLOAD PUSH2 0x3C8 SWAP2 SWAP1 PUSH2 0x2CD6 JUMP JUMPDEST PUSH1 0x40 MLOAD DUP1 SWAP2 SUB SWAP1 RETURN JUMPDEST CALLVALUE DUP1 ISZERO PUSH2 0x3DD JUMPI PUSH1 0x0 DUP1 REVERT JUMPDEST POP PUSH2 0x3F8 PUSH1 0x4 DUP1 CALLDATASIZE SUB DUP2 ADD SWAP1 PUSH2 0x3F3 SWAP2 SWAP1 PUSH2 0x2EF1 JUMP JUMPDEST PUSH2 0xDBB JUMP JUMPDEST STOP JUMPDEST CALLVALUE DUP1 ISZERO PUSH2 0x406 JUMPI PUSH1 0x0 DUP1 REVERT JUMPDEST POP PUSH2 0x421 PUSH1 0x4 DUP1 CALLDATASIZE SUB DUP2 ADD SWAP1 PUSH2 0x41C SWAP2 SWAP1 PUSH2 0x2C87 JUMP JUMPDEST PUSH2 0xF1B JUMP JUMPDEST PUSH1 0x40 MLOAD PUSH2 0x42E SWAP2 SWAP1 PUSH2 0x2CD6 JUMP JUMPDEST PUSH1 0x40 MLOAD DUP1 SWAP2 SUB SWAP1 RETURN JUMPDEST PUSH2 0x451 PUSH1 0x4 DUP1 CALLDATASIZE SUB DUP2 ADD SWAP1 PUSH2 0x44C SWAP2 SWAP1 PUSH2 0x2C87 JUMP JUMPDEST PUSH2 0xF43 JUMP JUMPDEST STOP JUMPDEST CALLVALUE DUP1 ISZERO PUSH2 0x45F JUMPI PUSH1 0x0 DUP1 REVERT JUMPDEST POP PUSH2 0x468 PUSH2 0x135E JUMP JUMPDEST PUSH1 0x40 MLOAD PUSH2 0x475 SWAP2 SWAP1 PUSH2 0x2CD6 JUMP JUMPDEST PUSH1 0x40 MLOAD DUP1 SWAP2 SUB SWAP1 RETURN JUMPDEST CALLVALUE DUP1 ISZERO PUSH2 0x48A JUMPI PUSH1 0x0 DUP1 REVERT JUMPDEST POP PUSH2 0x493 PUSH2 0x1364 JUMP JUMPDEST PUSH1 0x40 MLOAD PUSH2 0x4A0 SWAP2 SWAP1 PUSH2 0x2CD6 JUMP JUMPDEST PUSH1 0x40 MLOAD DUP1 SWAP2 SUB SWAP1 RETURN JUMPDEST CALLVALUE DUP1 ISZERO PUSH2 0x4B5 JUMPI PUSH1 0x0 DUP1 REVERT JUMPDEST POP PUSH2 0x4D0 PUSH1 0x4 DUP1 CALLDATASIZE SUB DUP2 ADD SWAP1 PUSH2 0x4CB SWAP2 SWAP1 PUSH2 0x2D27 JUMP JUMPDEST PUSH2 0x136A JUMP JUMPDEST STOP JUMPDEST CALLVALUE DUP1 ISZERO PUSH2 0x4DE JUMPI PUSH1 0x0 DUP1 REVERT JUMPDEST POP PUSH2 0x4E7 PUSH2 0x13F0 JUMP JUMPDEST STOP JUMPDEST CALLVALUE DUP1 ISZERO PUSH2 0x4F5 JUMPI PUSH1 0x0 DUP1 REVERT JUMPDEST POP PUSH2 0x4FE PUSH2 0x1478 JUMP JUMPDEST PUSH1 0x40 MLOAD PUSH2 0x50B SWAP2 SWAP1 PUSH2 0x2CD6 JUMP JUMPDEST PUSH1 0x40 MLOAD DUP1 SWAP2 SUB SWAP1 RETURN JUMPDEST CALLVALUE DUP1 ISZERO PUSH2 0x520 JUMPI PUSH1 0x0 DUP1 REVERT JUMPDEST POP PUSH2 0x53B PUSH1 0x4 DUP1 CALLDATASIZE SUB DUP2 ADD SWAP1 PUSH2 0x536 SWAP2 SWAP1 PUSH2 0x2D27 JUMP JUMPDEST PUSH2 0x147D JUMP JUMPDEST STOP JUMPDEST CALLVALUE DUP1 ISZERO PUSH2 0x549 JUMPI PUSH1 0x0 DUP1 REVERT JUMPDEST POP PUSH2 0x564 PUSH1 0x4 DUP1 CALLDATASIZE SUB DUP2 ADD SWAP1 PUSH2 0x55F SWAP2 SWAP1 PUSH2 0x2C87 JUMP JUMPDEST PUSH2 0x1503 JUMP JUMPDEST STOP JUMPDEST CALLVALUE DUP1 ISZERO PUSH2 0x572 JUMPI PUSH1 0x0 DUP1 REVERT JUMPDEST POP PUSH2 0x58D PUSH1 0x4 DUP1 CALLDATASIZE SUB DUP2 ADD SWAP1 PUSH2 0x588 SWAP2 SWAP1 PUSH2 0x2D54 JUMP JUMPDEST PUSH2 0x183A JUMP JUMPDEST PUSH1 0x40 MLOAD PUSH2 0x59A SWAP2 SWAP1 PUSH2 0x2D0C JUMP JUMPDEST PUSH1 0x40 MLOAD DUP1 SWAP2 SUB SWAP1 RETURN JUMPDEST CALLVALUE DUP1 ISZERO PUSH2 0x5AF JUMPI PUSH1 0x0 DUP1 REVERT JUMPDEST POP PUSH2 0x5B8 PUSH2 0x185A JUMP JUMPDEST PUSH1 0x40 MLOAD PUSH2 0x5C5 SWAP2 SWAP1 PUSH2 0x2F40 JUMP JUMPDEST PUSH1 0x40 MLOAD DUP1 SWAP2 SUB SWAP1 RETURN JUMPDEST CALLVALUE DUP1 ISZERO PUSH2 0x5DA JUMPI PUSH1 0x0 DUP1 REVERT JUMPDEST POP PUSH2 0x5F5 PUSH1 0x4 DUP1 CALLDATASIZE SUB DUP2 ADD SWAP1 PUSH2 0x5F0 SWAP2 SWAP1 PUSH2 0x2D27 JUMP JUMPDEST PUSH2 0x1883 JUMP JUMPDEST STOP JUMPDEST CALLVALUE DUP1 ISZERO PUSH2 0x603 JUMPI PUSH1 0x0 DUP1 REVERT JUMPDEST POP PUSH2 0x60C PUSH2 0x1909 JUMP JUMPDEST PUSH1 0x40 MLOAD PUSH2 0x619 SWAP2 SWAP1 PUSH2 0x2CD6 JUMP JUMPDEST PUSH1 0x40 MLOAD DUP1 SWAP2 SUB SWAP1 RETURN JUMPDEST CALLVALUE DUP1 ISZERO PUSH2 0x62E JUMPI PUSH1 0x0 DUP1 REVERT JUMPDEST POP PUSH2 0x637 PUSH2 0x190F JUMP JUMPDEST PUSH1 0x40 MLOAD PUSH2 0x644 SWAP2 SWAP1 PUSH2 0x2CD6 JUMP JUMPDEST PUSH1 0x40 MLOAD DUP1 SWAP2 SUB SWAP1 RETURN JUMPDEST CALLVALUE DUP1 ISZERO PUSH2 0x659 JUMPI PUSH1 0x0 DUP1 REVERT JUMPDEST POP PUSH2 0x662 PUSH2 0x1915 JUMP JUMPDEST STOP JUMPDEST CALLVALUE DUP1 ISZERO PUSH2 0x670 JUMPI PUSH1 0x0 DUP1 REVERT JUMPDEST POP PUSH2 0x679 PUSH2 0x199B JUMP JUMPDEST STOP JUMPDEST CALLVALUE DUP1 ISZERO PUSH2 0x687 JUMPI PUSH1 0x0 DUP1 REVERT JUMPDEST POP PUSH2 0x690 PUSH2 0x1AC8 JUMP JUMPDEST PUSH1 0x40 MLOAD PUSH2 0x69D SWAP2 SWAP1 PUSH2 0x2CD6 JUMP JUMPDEST PUSH1 0x40 MLOAD DUP1 SWAP2 SUB SWAP1 RETURN JUMPDEST CALLVALUE DUP1 ISZERO PUSH2 0x6B2 JUMPI PUSH1 0x0 DUP1 REVERT JUMPDEST POP PUSH2 0x6BB PUSH2 0x1ACE JUMP JUMPDEST STOP JUMPDEST CALLVALUE DUP1 ISZERO PUSH2 0x6C9 JUMPI PUSH1 0x0 DUP1 REVERT JUMPDEST POP PUSH2 0x6E4 PUSH1 0x4 DUP1 CALLDATASIZE SUB DUP2 ADD SWAP1 PUSH2 0x6DF SWAP2 SWAP1 PUSH2 0x2EF1 JUMP JUMPDEST PUSH2 0x1CF5 JUMP JUMPDEST STOP JUMPDEST CALLVALUE DUP1 ISZERO PUSH2 0x6F2 JUMPI PUSH1 0x0 DUP1 REVERT JUMPDEST POP PUSH2 0x70D PUSH1 0x4 DUP1 CALLDATASIZE SUB DUP2 ADD SWAP1 PUSH2 0x708 SWAP2 SWAP1 PUSH2 0x2D27 JUMP JUMPDEST PUSH2 0x1E89 JUMP JUMPDEST STOP JUMPDEST CALLVALUE DUP1 ISZERO PUSH2 0x71B JUMPI PUSH1 0x0 DUP1 REVERT JUMPDEST POP PUSH2 0x736 PUSH1 0x4 DUP1 CALLDATASIZE SUB DUP2 ADD SWAP1 PUSH2 0x731 SWAP2 SWAP1 PUSH2 0x2D27 JUMP JUMPDEST PUSH2 0x1F9A JUMP JUMPDEST PUSH1 0x40 MLOAD PUSH2 0x743 SWAP2 SWAP1 PUSH2 0x2CD6 JUMP JUMPDEST PUSH1 0x40 MLOAD DUP1 SWAP2 SUB SWAP1 RETURN JUMPDEST CALLVALUE DUP1 ISZERO PUSH2 0x758 JUMPI PUSH1 0x0 DUP1 REVERT JUMPDEST POP PUSH2 0x761 PUSH2 0x1FB5 JUMP JUMPDEST PUSH1 0x40 MLOAD PUSH2 0x76E SWAP2 SWAP1 PUSH2 0x2F40 JUMP JUMPDEST PUSH1 0x40 MLOAD DUP1 SWAP2 SUB SWAP1 RETURN JUMPDEST CALLVALUE DUP1 ISZERO PUSH2 0x783 JUMPI PUSH1 0x0 DUP1 REVERT JUMPDEST POP PUSH2 0x79E PUSH1 0x4 DUP1 CALLDATASIZE SUB DUP2 ADD SWAP1 PUSH2 0x799 SWAP2 SWAP1 PUSH2 0x2F5B JUMP JUMPDEST PUSH2 0x1FDB JUMP JUMPDEST STOP JUMPDEST CALLVALUE DUP1 ISZERO PUSH2 0x7AC JUMPI PUSH1 0x0 DUP1 REVERT JUMPDEST POP PUSH2 0x7C7 PUSH1 0x4 DUP1 CALLDATASIZE SUB DUP2 ADD SWAP1 PUSH2 0x7C2 SWAP2 SWAP1 PUSH2 0x2D54 JUMP JUMPDEST PUSH2 0x206C JUMP JUMPDEST STOP JUMPDEST CALLVALUE DUP1 ISZERO PUSH2 0x7D5 JUMPI PUSH1 0x0 DUP1 REVERT JUMPDEST POP PUSH2 0x7F0 PUSH1 0x4 DUP1 CALLDATASIZE SUB DUP2 ADD SWAP1 PUSH2 0x7EB SWAP2 SWAP1 PUSH2 0x2C87 JUMP JUMPDEST PUSH2 0x2163 JUMP JUMPDEST STOP JUMPDEST CALLVALUE DUP1 ISZERO PUSH2 0x7FE JUMPI PUSH1 0x0 DUP1 REVERT JUMPDEST POP PUSH2 0x819 PUSH1 0x4 DUP1 CALLDATASIZE SUB DUP2 ADD SWAP1 PUSH2 0x814 SWAP2 SWAP1 PUSH2 0x2D54 JUMP JUMPDEST PUSH2 0x229E JUMP JUMPDEST STOP JUMPDEST CALLVALUE DUP1 ISZERO PUSH2 0x827 JUMPI PUSH1 0x0 DUP1 REVERT JUMPDEST POP PUSH2 0x830 PUSH2 0x2436 JUMP JUMPDEST STOP JUMPDEST PUSH1 0x0 DUP1 PUSH1 0x0 PUSH2 0x83F PUSH2 0x1478 JUMP JUMPDEST SWAP1 POP PUSH1 0x0 PUSH20 0xFFFFFFFFFFFFFFFFFFFFFFFFFFFFFFFFFFFFFFFF AND DUP6 PUSH20 0xFFFFFFFFFFFFFFFFFFFFFFFFFFFFFFFFFFFFFFFF AND EQ PUSH2 0x9E1 JUMPI PUSH1 0xA PUSH1 0x0 DUP7 PUSH20 0xFFFFFFFFFFFFFFFFFFFFFFFFFFFFFFFFFFFFFFFF AND PUSH20 0xFFFFFFFFFFFFFFFFFFFFFFFFFFFFFFFFFFFFFFFF AND DUP2 MSTORE PUSH1 0x20 ADD SWAP1 DUP2 MSTORE PUSH1 0x20 ADD PUSH1 0x0 KECCAK256 PUSH1 0x0 SWAP1 SLOAD SWAP1 PUSH2 0x100 EXP SWAP1 DIV PUSH1 0xFF AND PUSH2 0x901 JUMPI PUSH1 0x40 MLOAD PUSH32 0x8C379A000000000000000000000000000000000000000000000000000000000 DUP2 MSTORE PUSH1 0x4 ADD PUSH2 0x8F8 SWAP1 PUSH2 0x2FE5 JUMP JUMPDEST PUSH1 0x40 MLOAD DUP1 SWAP2 SUB SWAP1 REVERT JUMPDEST PUSH1 0x0 PUSH1 0xB PUSH1 0x0 DUP8 PUSH20 0xFFFFFFFFFFFFFFFFFFFFFFFFFFFFFFFFFFFFFFFF AND PUSH20 0xFFFFFFFFFFFFFFFFFFFFFFFFFFFFFFFFFFFFFFFF AND DUP2 MSTORE PUSH1 0x20 ADD SWAP1 DUP2 MSTORE PUSH1 0x20 ADD PUSH1 0x0 KECCAK256 DUP3 PUSH1 0x4 DUP2 LT PUSH2 0x954 JUMPI PUSH2 0x953 PUSH2 0x3005 JUMP JUMPDEST JUMPDEST ADD SLOAD SUB PUSH2 0x962 JUMPI PUSH1 0x0 PUSH2 0x9DA JUMP JUMPDEST PUSH1 0xB PUSH1 0x0 DUP7 PUSH20 0xFFFFFFFFFFFFFFFFFFFFFFFFFFFFFFFFFFFFFFFF AND PUSH20 0xFFFFFFFFFFFFFFFFFFFFFFFFFFFFFFFFFFFFFFFF AND DUP2 MSTORE PUSH1 0x20 ADD SWAP1 DUP2 MSTORE PUSH1 0x20 ADD PUSH1 0x0 KECCAK256 DUP2 PUSH1 0x4 DUP2 LT PUSH2 0x9B3 JUMPI PUSH2 0x9B2 PUSH2 0x3005 JUMP JUMPDEST JUMPDEST ADD SLOAD PUSH1 0x6 SLOAD PUSH1 0xA PUSH2 0x9C4 SWAP2 SWAP1 PUSH2 0x3196 JUMP JUMPDEST DUP6 PUSH2 0x9CF SWAP2 SWAP1 PUSH2 0x31E1 JUMP JUMPDEST PUSH2 0x9D9 SWAP2 SWAP1 PUSH2 0x3252 JUMP JUMPDEST JUMPDEST SWAP2 POP PUSH2 0xA43 JUMP JUMPDEST PUSH1 0x0 PUSH1 0x1 DUP3 PUSH1 0x4 DUP2 LT PUSH2 0x9F7 JUMPI PUSH2 0x9F6 PUSH2 0x3005 JUMP JUMPDEST JUMPDEST ADD SLOAD SUB PUSH2 0xA05 JUMPI PUSH1 0x0 PUSH2 0xA40 JUMP JUMPDEST PUSH1 0x1 DUP2 PUSH1 0x4 DUP2 LT PUSH2 0xA19 JUMPI PUSH2 0xA18 PUSH2 0x3005 JUMP JUMPDEST JUMPDEST ADD SLOAD PUSH1 0x6 SLOAD PUSH1 0xA PUSH2 0xA2A SWAP2 SWAP1 PUSH2 0x3196 JUMP JUMPDEST DUP6 PUSH2 0xA35 SWAP2 SWAP1 PUSH2 0x31E1 JUMP JUMPDEST PUSH2 0xA3F SWAP2 SWAP1 PUSH2 0x3252 JUMP JUMPDEST JUMPDEST SWAP2 POP JUMPDEST DUP2 SWAP3 POP POP POP SWAP3 SWAP2 POP POP JUMP JUMPDEST PUSH1 0xD SLOAD DUP2 JUMP JUMPDEST PUSH2 0xA5C PUSH2 0x25E7 JUMP JUMPDEST PUSH20 0xFFFFFFFFFFFFFFFFFFFFFFFFFFFFFFFFFFFFFFFF AND PUSH2 0xA7A PUSH2 0x185A JUMP JUMPDEST PUSH20 0xFFFFFFFFFFFFFFFFFFFFFFFFFFFFFFFFFFFFFFFF AND EQ PUSH2 0xAD0 JUMPI PUSH1 0x40 MLOAD PUSH32 0x8C379A000000000000000000000000000000000000000000000000000000000 DUP2 MSTORE PUSH1 0x4 ADD PUSH2 0xAC7 SWAP1 PUSH2 0x32CF JUMP JUMPDEST PUSH1 0x40 MLOAD DUP1 SWAP2 SUB SWAP1 REVERT JUMPDEST PUSH1 0xD SLOAD TIMESTAMP LT ISZERO PUSH2 0xB15 JUMPI PUSH1 0x40 MLOAD PUSH32 0x8C379A000000000000000000000000000000000000000000000000000000000 DUP2 MSTORE PUSH1 0x4 ADD PUSH2 0xB0C SWAP1 PUSH2 0x3361 JUMP JUMPDEST PUSH1 0x40 MLOAD DUP1 SWAP2 SUB SWAP1 REVERT JUMPDEST PUSH1 0xE PUSH1 0x0 SWAP1 SLOAD SWAP1 PUSH2 0x100 EXP SWAP1 DIV PUSH1 0xFF AND ISZERO PUSH2 0xB65 JUMPI PUSH1 0x40 MLOAD PUSH32 0x8C379A000000000000000000000000000000000000000000000000000000000 DUP2 MSTORE PUSH1 0x4 ADD PUSH2 0xB5C SWAP1 PUSH2 0x33F3 JUMP JUMPDEST PUSH1 0x40 MLOAD DUP1 SWAP2 SUB SWAP1 REVERT JUMPDEST PUSH1 0x1 PUSH1 0xE PUSH1 0x0 PUSH2 0x100 EXP DUP2 SLOAD DUP2 PUSH1 0xFF MUL NOT AND SWAP1 DUP4 ISZERO ISZERO MUL OR SWAP1 SSTORE POP JUMP JUMPDEST PUSH1 0xE PUSH1 0x0 SWAP1 SLOAD SWAP1 PUSH2 0x100 EXP SWAP1 DIV PUSH1 0xFF AND DUP2 JUMP JUMPDEST PUSH2 0xB9D PUSH2 0x25E7 JUMP JUMPDEST PUSH20 0xFFFFFFFFFFFFFFFFFFFFFFFFFFFFFFFFFFFFFFFF AND PUSH2 0xBBB PUSH2 0x185A JUMP JUMPDEST PUSH20 0xFFFFFFFFFFFFFFFFFFFFFFFFFFFFFFFFFFFFFFFF AND EQ PUSH2 0xC11 JUMPI PUSH1 0x40 MLOAD PUSH32 0x8C379A000000000000000000000000000000000000000000000000000000000 DUP2 MSTORE PUSH1 0x4 ADD PUSH2 0xC08 SWAP1 PUSH2 0x32CF JUMP JUMPDEST PUSH1 0x40 MLOAD DUP1 SWAP2 SUB SWAP1 REVERT JUMPDEST CALLER PUSH20 0xFFFFFFFFFFFFFFFFFFFFFFFFFFFFFFFFFFFFFFFF AND PUSH2 0x8FC DUP3 SWAP1 DUP2 ISZERO MUL SWAP1 PUSH1 0x40 MLOAD PUSH1 0x0 PUSH1 0x40 MLOAD DUP1 DUP4 SUB DUP2 DUP6 DUP9 DUP9 CALL SWAP4 POP POP POP POP ISZERO DUP1 ISZERO PUSH2 0xC57 JUMPI RETURNDATASIZE PUSH1 0x0 DUP1 RETURNDATACOPY RETURNDATASIZE PUSH1 0x0 REVERT JUMPDEST POP POP JUMP JUMPDEST PUSH2 0xC63 PUSH2 0x25E7 JUMP JUMPDEST PUSH20 0xFFFFFFFFFFFFFFFFFFFFFFFFFFFFFFFFFFFFFFFF AND PUSH2 0xC81 PUSH2 0x185A JUMP JUMPDEST PUSH20 0xFFFFFFFFFFFFFFFFFFFFFFFFFFFFFFFFFFFFFFFF AND EQ PUSH2 0xCD7 JUMPI PUSH1 0x40 MLOAD PUSH32 0x8C379A000000000000000000000000000000000000000000000000000000000 DUP2 MSTORE PUSH1 0x4 ADD PUSH2 0xCCE SWAP1 PUSH2 0x32CF JUMP JUMPDEST PUSH1 0x40 MLOAD DUP1 SWAP2 SUB SWAP1 REVERT JUMPDEST PUSH2 0xCDF PUSH2 0x25EF JUMP JUMPDEST JUMP JUMPDEST PUSH1 0xF PUSH1 0x20 MSTORE DUP1 PUSH1 0x0 MSTORE PUSH1 0x40 PUSH1 0x0 KECCAK256 PUSH1 0x0 SWAP2 POP SWAP1 POP DUP1 PUSH1 0x0 ADD SLOAD SWAP1 DUP1 PUSH1 0x1 ADD PUSH1 0x0 SWAP1 SLOAD SWAP1 PUSH2 0x100 EXP SWAP1 DIV PUSH1 0xFF AND SWAP1 POP DUP3 JUMP JUMPDEST PUSH2 0xD1A PUSH2 0x25E7 JUMP JUMPDEST PUSH20 0xFFFFFFFFFFFFFFFFFFFFFFFFFFFFFFFFFFFFFFFF AND PUSH2 0xD38 PUSH2 0x185A JUMP JUMPDEST PUSH20 0xFFFFFFFFFFFFFFFFFFFFFFFFFFFFFFFFFFFFFFFF AND EQ PUSH2 0xD8E JUMPI PUSH1 0x40 MLOAD PUSH32 0x8C379A000000000000000000000000000000000000000000000000000000000 DUP2 MSTORE PUSH1 0x4 ADD PUSH2 0xD85 SWAP1 PUSH2 0x32CF JUMP JUMPDEST PUSH1 0x40 MLOAD DUP1 SWAP2 SUB SWAP1 REVERT JUMPDEST TIMESTAMP PUSH1 0xC DUP2 SWAP1 SSTORE POP DUP1 PUSH1 0xD DUP2 SWAP1 SSTORE POP POP JUMP JUMPDEST PUSH1 0x0 DUP1 PUSH1 0x14 SWAP1 SLOAD SWAP1 PUSH2 0x100 EXP SWAP1 DIV PUSH1 0xFF AND SWAP1 POP SWAP1 JUMP JUMPDEST PUSH1 0x10 SLOAD DUP2 JUMP JUMPDEST PUSH2 0xDC3 PUSH2 0x25E7 JUMP JUMPDEST PUSH20 0xFFFFFFFFFFFFFFFFFFFFFFFFFFFFFFFFFFFFFFFF AND PUSH2 0xDE1 PUSH2 0x185A JUMP JUMPDEST PUSH20 0xFFFFFFFFFFFFFFFFFFFFFFFFFFFFFFFFFFFFFFFF AND EQ PUSH2 0xE37 JUMPI PUSH1 0x40 MLOAD PUSH32 0x8C379A000000000000000000000000000000000000000000000000000000000 DUP2 MSTORE PUSH1 0x4 ADD PUSH2 0xE2E SWAP1 PUSH2 0x32CF JUMP JUMPDEST PUSH1 0x40 MLOAD DUP1 SWAP2 SUB SWAP1 REVERT JUMPDEST PUSH1 0x1 PUSH1 0xA PUSH1 0x0 DUP5 PUSH20 0xFFFFFFFFFFFFFFFFFFFFFFFFFFFFFFFFFFFFFFFF AND PUSH20 0xFFFFFFFFFFFFFFFFFFFFFFFFFFFFFFFFFFFFFFFF AND DUP2 MSTORE PUSH1 0x20 ADD SWAP1 DUP2 MSTORE PUSH1 0x20 ADD PUSH1 0x0 KECCAK256 PUSH1 0x0 PUSH2 0x100 EXP DUP2 SLOAD DUP2 PUSH1 0xFF MUL NOT AND SWAP1 DUP4 ISZERO ISZERO MUL OR SWAP1 SSTORE POP DUP1 PUSH1 0xB PUSH1 0x0 DUP5 PUSH20 0xFFFFFFFFFFFFFFFFFFFFFFFFFFFFFFFFFFFFFFFF AND PUSH20 0xFFFFFFFFFFFFFFFFFFFFFFFFFFFFFFFFFFFFFFFF AND DUP2 MSTORE PUSH1 0x20 ADD SWAP1 DUP2 MSTORE PUSH1 0x20 ADD PUSH1 0x0 KECCAK256 SWAP1 PUSH1 0x4 PUSH2 0xEDD SWAP3 SWAP2 SWAP1 PUSH2 0x2B87 JUMP JUMPDEST POP PUSH32 0x46A898D5BFB8140CB704C10CF4FF6AC010411DB41A0D94F60D29DC9BDC24942D DUP3 DUP3 PUSH1 0x40 MLOAD PUSH2 0xF0F SWAP3 SWAP2 SWAP1 PUSH2 0x34BE JUMP JUMPDEST PUSH1 0x40 MLOAD DUP1 SWAP2 SUB SWAP1 LOG1 POP POP JUMP JUMPDEST PUSH1 0xB PUSH1 0x20 MSTORE DUP2 PUSH1 0x0 MSTORE PUSH1 0x40 PUSH1 0x0 KECCAK256 DUP2 PUSH1 0x4 DUP2 LT PUSH2 0xF37 JUMPI PUSH1 0x0 DUP1 REVERT JUMPDEST ADD PUSH1 0x0 SWAP2 POP SWAP2 POP POP SLOAD DUP2 JUMP JUMPDEST PUSH1 0xC SLOAD TIMESTAMP LT ISZERO PUSH2 0xF88 JUMPI PUSH1 0x40 MLOAD PUSH32 0x8C379A000000000000000000000000000000000000000000000000000000000 DUP2 MSTORE PUSH1 0x4 ADD PUSH2 0xF7F SWAP1 PUSH2 0x3559 JUMP JUMPDEST PUSH1 0x40 MLOAD DUP1 SWAP2 SUB SWAP1 REVERT JUMPDEST PUSH1 0xD SLOAD TIMESTAMP LT PUSH2 0xFCC JUMPI PUSH1 0x40 MLOAD PUSH32 0x8C379A000000000000000000000000000000000000000000000000000000000 DUP2 MSTORE PUSH1 0x4 ADD PUSH2 0xFC3 SWAP1 PUSH2 0x35C5 JUMP JUMPDEST PUSH1 0x40 MLOAD DUP1 SWAP2 SUB SWAP1 REVERT JUMPDEST PUSH2 0xFD4 PUSH2 0x2652 JUMP JUMPDEST PUSH1 0x0 DUP1 PUSH20 0xFFFFFFFFFFFFFFFFFFFFFFFFFFFFFFFFFFFFFFFF AND DUP4 PUSH20 0xFFFFFFFFFFFFFFFFFFFFFFFFFFFFFFFFFFFFFFFF AND SUB PUSH2 0x1019 JUMPI PUSH2 0x1014 PUSH1 0x0 CALLVALUE PUSH2 0x832 JUMP JUMPDEST PUSH2 0x1024 JUMP JUMPDEST PUSH2 0x1023 DUP4 DUP4 PUSH2 0x832 JUMP JUMPDEST JUMPDEST SWAP1 POP PUSH1 0x9 SLOAD DUP2 LT ISZERO PUSH2 0x106B JUMPI PUSH1 0x40 MLOAD PUSH32 0x8C379A000000000000000000000000000000000000000000000000000000000 DUP2 MSTORE PUSH1 0x4 ADD PUSH2 0x1062 SWAP1 PUSH2 0x3657 JUMP JUMPDEST PUSH1 0x40 MLOAD DUP1 SWAP2 SUB SWAP1 REVERT JUMPDEST PUSH1 0x8 SLOAD DUP2 PUSH1 0xF PUSH1 0x0 CALLER PUSH20 0xFFFFFFFFFFFFFFFFFFFFFFFFFFFFFFFFFFFFFFFF AND PUSH20 0xFFFFFFFFFFFFFFFFFFFFFFFFFFFFFFFFFFFFFFFF AND DUP2 MSTORE PUSH1 0x20 ADD SWAP1 DUP2 MSTORE PUSH1 0x20 ADD PUSH1 0x0 KECCAK256 PUSH1 0x0 ADD SLOAD PUSH2 0x10BC SWAP2 SWAP1 PUSH2 0x3677 JUMP JUMPDEST GT ISZERO PUSH2 0x10FD JUMPI PUSH1 0x40 MLOAD PUSH32 0x8C379A000000000000000000000000000000000000000000000000000000000 DUP2 MSTORE PUSH1 0x4 ADD PUSH2 0x10F4 SWAP1 PUSH2 0x371D JUMP JUMPDEST PUSH1 0x40 MLOAD DUP1 SWAP2 SUB SWAP1 REVERT JUMPDEST PUSH1 0x7 SLOAD DUP2 PUSH1 0x10 SLOAD PUSH2 0x110E SWAP2 SWAP1 PUSH2 0x3677 JUMP JUMPDEST GT ISZERO PUSH2 0x114F JUMPI PUSH1 0x40 MLOAD PUSH32 0x8C379A000000000000000000000000000000000000000000000000000000000 DUP2 MSTORE PUSH1 0x4 ADD PUSH2 0x1146 SWAP1 PUSH2 0x37AF JUMP JUMPDEST PUSH1 0x40 MLOAD DUP1 SWAP2 SUB SWAP1 REVERT JUMPDEST PUSH1 0x0 PUSH20 0xFFFFFFFFFFFFFFFFFFFFFFFFFFFFFFFFFFFFFFFF AND DUP4 PUSH20 0xFFFFFFFFFFFFFFFFFFFFFFFFFFFFFFFFFFFFFFFF AND EQ PUSH2 0x1280 JUMPI PUSH1 0x0 DUP3 GT PUSH2 0x11C6 JUMPI PUSH1 0x40 MLOAD PUSH32 0x8C379A000000000000000000000000000000000000000000000000000000000 DUP2 MSTORE PUSH1 0x4 ADD PUSH2 0x11BD SWAP1 PUSH2 0x3841 JUMP JUMPDEST PUSH1 0x40 MLOAD DUP1 SWAP2 SUB SWAP1 REVERT JUMPDEST PUSH1 0xA PUSH1 0x0 DUP5 PUSH20 0xFFFFFFFFFFFFFFFFFFFFFFFFFFFFFFFFFFFFFFFF AND PUSH20 0xFFFFFFFFFFFFFFFFFFFFFFFFFFFFFFFFFFFFFFFF AND DUP2 MSTORE PUSH1 0x20 ADD SWAP1 DUP2 MSTORE PUSH1 0x20 ADD PUSH1 0x0 KECCAK256 PUSH1 0x0 SWAP1 SLOAD SWAP1 PUSH2 0x100 EXP SWAP1 DIV PUSH1 0xFF AND PUSH2 0x1252 JUMPI PUSH1 0x40 MLOAD PUSH32 0x8C379A000000000000000000000000000000000000000000000000000000000 DUP2 MSTORE PUSH1 0x4 ADD PUSH2 0x1249 SWAP1 PUSH2 0x2FE5 JUMP JUMPDEST PUSH1 0x40 MLOAD DUP1 SWAP2 SUB SWAP1 REVERT JUMPDEST PUSH2 0x127F CALLER ADDRESS DUP5 DUP7 PUSH20 0xFFFFFFFFFFFFFFFFFFFFFFFFFFFFFFFFFFFFFFFF AND PUSH2 0x269C SWAP1 SWAP4 SWAP3 SWAP2 SWAP1 PUSH4 0xFFFFFFFF AND JUMP JUMPDEST JUMPDEST DUP1 PUSH1 0x10 PUSH1 0x0 DUP3 DUP3 SLOAD PUSH2 0x1292 SWAP2 SWAP1 PUSH2 0x3677 JUMP JUMPDEST SWAP3 POP POP DUP2 SWAP1 SSTORE POP DUP1 PUSH1 0xF PUSH1 0x0 CALLER PUSH20 0xFFFFFFFFFFFFFFFFFFFFFFFFFFFFFFFFFFFFFFFF AND PUSH20 0xFFFFFFFFFFFFFFFFFFFFFFFFFFFFFFFFFFFFFFFF AND DUP2 MSTORE PUSH1 0x20 ADD SWAP1 DUP2 MSTORE PUSH1 0x20 ADD PUSH1 0x0 KECCAK256 PUSH1 0x0 ADD PUSH1 0x0 DUP3 DUP3 SLOAD PUSH2 0x12EB SWAP2 SWAP1 PUSH2 0x3677 JUMP JUMPDEST SWAP3 POP POP DUP2 SWAP1 SSTORE POP DUP3 PUSH20 0xFFFFFFFFFFFFFFFFFFFFFFFFFFFFFFFFFFFFFFFF AND CALLER PUSH20 0xFFFFFFFFFFFFFFFFFFFFFFFFFFFFFFFFFFFFFFFF AND PUSH32 0xC244D500136EDFFAE7025AAF7FBD7A07193AC544A1D0CC3132CF2A32452D340C DUP5 DUP5 PUSH1 0x40 MLOAD PUSH2 0x1351 SWAP3 SWAP2 SWAP1 PUSH2 0x3861 JUMP JUMPDEST PUSH1 0x40 MLOAD DUP1 SWAP2 SUB SWAP1 LOG3 POP POP POP JUMP JUMPDEST PUSH1 0x8 SLOAD DUP2 JUMP JUMPDEST PUSH1 0x7 SLOAD DUP2 JUMP JUMPDEST PUSH2 0x1372 PUSH2 0x25E7 JUMP JUMPDEST PUSH20 0xFFFFFFFFFFFFFFFFFFFFFFFFFFFFFFFFFFFFFFFF AND PUSH2 0x1390 PUSH2 0x185A JUMP JUMPDEST PUSH20 0xFFFFFFFFFFFFFFFFFFFFFFFFFFFFFFFFFFFFFFFF AND EQ PUSH2 0x13E6 JUMPI PUSH1 0x40 MLOAD PUSH32 0x8C379A000000000000000000000000000000000000000000000000000000000 DUP2 MSTORE PUSH1 0x4 ADD PUSH2 0x13DD SWAP1 PUSH2 0x32CF JUMP JUMPDEST PUSH1 0x40 MLOAD DUP1 SWAP2 SUB SWAP1 REVERT JUMPDEST DUP1 PUSH1 0xD DUP2 SWAP1 SSTORE POP POP JUMP JUMPDEST PUSH2 0x13F8 PUSH2 0x25E7 JUMP JUMPDEST PUSH20 0xFFFFFFFFFFFFFFFFFFFFFFFFFFFFFFFFFFFFFFFF AND PUSH2 0x1416 PUSH2 0x185A JUMP JUMPDEST PUSH20 0xFFFFFFFFFFFFFFFFFFFFFFFFFFFFFFFFFFFFFFFF AND EQ PUSH2 0x146C JUMPI PUSH1 0x40 MLOAD PUSH32 0x8C379A000000000000000000000000000000000000000000000000000000000 DUP2 MSTORE PUSH1 0x4 ADD PUSH2 0x1463 SWAP1 PUSH2 0x32CF JUMP JUMPDEST PUSH1 0x40 MLOAD DUP1 SWAP2 SUB SWAP1 REVERT JUMPDEST PUSH2 0x1476 PUSH1 0x0 PUSH2 0x2725 JUMP JUMPDEST JUMP JUMPDEST PUSH1 0x0 SWAP1 JUMP JUMPDEST PUSH2 0x1485 PUSH2 0x25E7 JUMP JUMPDEST PUSH20 0xFFFFFFFFFFFFFFFFFFFFFFFFFFFFFFFFFFFFFFFF AND PUSH2 0x14A3 PUSH2 0x185A JUMP JUMPDEST PUSH20 0xFFFFFFFFFFFFFFFFFFFFFFFFFFFFFFFFFFFFFFFF AND EQ PUSH2 0x14F9 JUMPI PUSH1 0x40 MLOAD PUSH32 0x8C379A000000000000000000000000000000000000000000000000000000000 DUP2 MSTORE PUSH1 0x4 ADD PUSH2 0x14F0 SWAP1 PUSH2 0x32CF JUMP JUMPDEST PUSH1 0x40 MLOAD DUP1 SWAP2 SUB SWAP1 REVERT JUMPDEST DUP1 PUSH1 0x8 DUP2 SWAP1 SSTORE POP POP JUMP JUMPDEST PUSH2 0x150B PUSH2 0x25E7 JUMP JUMPDEST PUSH20 0xFFFFFFFFFFFFFFFFFFFFFFFFFFFFFFFFFFFFFFFF AND PUSH2 0x1529 PUSH2 0x185A JUMP JUMPDEST PUSH20 0xFFFFFFFFFFFFFFFFFFFFFFFFFFFFFFFFFFFFFFFF AND EQ PUSH2 0x157F JUMPI PUSH1 0x40 MLOAD PUSH32 0x8C379A000000000000000000000000000000000000000000000000000000000 DUP2 MSTORE PUSH1 0x4 ADD PUSH2 0x1576 SWAP1 PUSH2 0x32CF JUMP JUMPDEST PUSH1 0x40 MLOAD DUP1 SWAP2 SUB SWAP1 REVERT JUMPDEST PUSH1 0x0 PUSH20 0xFFFFFFFFFFFFFFFFFFFFFFFFFFFFFFFFFFFFFFFF AND DUP3 PUSH20 0xFFFFFFFFFFFFFFFFFFFFFFFFFFFFFFFFFFFFFFFF AND SUB PUSH2 0x15EE JUMPI PUSH1 0x40 MLOAD PUSH32 0x8C379A000000000000000000000000000000000000000000000000000000000 DUP2 MSTORE PUSH1 0x4 ADD PUSH2 0x15E5 SWAP1 PUSH2 0x38FC JUMP JUMPDEST PUSH1 0x40 MLOAD DUP1 SWAP2 SUB SWAP1 REVERT JUMPDEST PUSH1 0x0 DUP2 GT PUSH2 0x1631 JUMPI PUSH1 0x40 MLOAD PUSH32 0x8C379A000000000000000000000000000000000000000000000000000000000 DUP2 MSTORE PUSH1 0x4 ADD PUSH2 0x1628 SWAP1 PUSH2 0x398E JUMP JUMPDEST PUSH1 0x40 MLOAD DUP1 SWAP2 SUB SWAP1 REVERT JUMPDEST DUP2 PUSH1 0x5 PUSH1 0x0 PUSH2 0x100 EXP DUP2 SLOAD DUP2 PUSH20 0xFFFFFFFFFFFFFFFFFFFFFFFFFFFFFFFFFFFFFFFF MUL NOT AND SWAP1 DUP4 PUSH20 0xFFFFFFFFFFFFFFFFFFFFFFFFFFFFFFFFFFFFFFFF AND MUL OR SWAP1 SSTORE POP PUSH1 0x5 PUSH1 0x0 SWAP1 SLOAD SWAP1 PUSH2 0x100 EXP SWAP1 DIV PUSH20 0xFFFFFFFFFFFFFFFFFFFFFFFFFFFFFFFFFFFFFFFF AND PUSH20 0xFFFFFFFFFFFFFFFFFFFFFFFFFFFFFFFFFFFFFFFF AND PUSH4 0x313CE567 PUSH1 0x40 MLOAD DUP2 PUSH4 0xFFFFFFFF AND PUSH1 0xE0 SHL DUP2 MSTORE PUSH1 0x4 ADD PUSH1 0x20 PUSH1 0x40 MLOAD DUP1 DUP4 SUB DUP2 DUP7 GAS STATICCALL ISZERO DUP1 ISZERO PUSH2 0x16DF JUMPI RETURNDATASIZE PUSH1 0x0 DUP1 RETURNDATACOPY RETURNDATASIZE PUSH1 0x0 REVERT JUMPDEST POP POP POP POP PUSH1 0x40 MLOAD RETURNDATASIZE PUSH1 0x1F NOT PUSH1 0x1F DUP3 ADD AND DUP3 ADD DUP1 PUSH1 0x40 MSTORE POP DUP2 ADD SWAP1 PUSH2 0x1703 SWAP2 SWAP1 PUSH2 0x39E7 JUMP JUMPDEST PUSH1 0xFF AND PUSH1 0x6 DUP2 SWAP1 SSTORE POP PUSH2 0x175B CALLER ADDRESS DUP4 PUSH1 0x5 PUSH1 0x0 SWAP1 SLOAD SWAP1 PUSH2 0x100 EXP SWAP1 DIV PUSH20 0xFFFFFFFFFFFFFFFFFFFFFFFFFFFFFFFFFFFFFFFF AND PUSH20 0xFFFFFFFFFFFFFFFFFFFFFFFFFFFFFFFFFFFFFFFF AND PUSH2 0x269C SWAP1 SWAP4 SWAP3 SWAP2 SWAP1 PUSH4 0xFFFFFFFF AND JUMP JUMPDEST PUSH1 0x5 PUSH1 0x0 SWAP1 SLOAD SWAP1 PUSH2 0x100 EXP SWAP1 DIV PUSH20 0xFFFFFFFFFFFFFFFFFFFFFFFFFFFFFFFFFFFFFFFF AND PUSH20 0xFFFFFFFFFFFFFFFFFFFFFFFFFFFFFFFFFFFFFFFF AND PUSH4 0x70A08231 ADDRESS PUSH1 0x40 MLOAD DUP3 PUSH4 0xFFFFFFFF AND PUSH1 0xE0 SHL DUP2 MSTORE PUSH1 0x4 ADD PUSH2 0x17B6 SWAP2 SWAP1 PUSH2 0x2F40 JUMP JUMPDEST PUSH1 0x20 PUSH1 0x40 MLOAD DUP1 DUP4 SUB DUP2 DUP7 GAS STATICCALL ISZERO DUP1 ISZERO PUSH2 0x17D3 JUMPI RETURNDATASIZE PUSH1 0x0 DUP1 RETURNDATACOPY RETURNDATASIZE PUSH1 0x0 REVERT JUMPDEST POP POP POP POP PUSH1 0x40 MLOAD RETURNDATASIZE PUSH1 0x1F NOT PUSH1 0x1F DUP3 ADD AND DUP3 ADD DUP1 PUSH1 0x40 MSTORE POP DUP2 ADD SWAP1 PUSH2 0x17F7 SWAP2 SWAP1 PUSH2 0x3A29 JUMP JUMPDEST PUSH1 0x7 DUP2 SWAP1 SSTORE POP PUSH32 0x3211F0A57D24F0B52E2E0573AF5BE089C5FAADEB55F9B90591717B0A22F7E2A DUP3 DUP3 PUSH1 0x40 MLOAD PUSH2 0x182E SWAP3 SWAP2 SWAP1 PUSH2 0x3A56 JUMP JUMPDEST PUSH1 0x40 MLOAD DUP1 SWAP2 SUB SWAP1 LOG1 POP POP JUMP JUMPDEST PUSH1 0xA PUSH1 0x20 MSTORE DUP1 PUSH1 0x0 MSTORE PUSH1 0x40 PUSH1 0x0 KECCAK256 PUSH1 0x0 SWAP2 POP SLOAD SWAP1 PUSH2 0x100 EXP SWAP1 DIV PUSH1 0xFF AND DUP2 JUMP JUMPDEST PUSH1 0x0 DUP1 PUSH1 0x0 SWAP1 SLOAD SWAP1 PUSH2 0x100 EXP SWAP1 DIV PUSH20 0xFFFFFFFFFFFFFFFFFFFFFFFFFFFFFFFFFFFFFFFF AND SWAP1 POP SWAP1 JUMP JUMPDEST PUSH2 0x188B PUSH2 0x25E7 JUMP JUMPDEST PUSH20 0xFFFFFFFFFFFFFFFFFFFFFFFFFFFFFFFFFFFFFFFF AND PUSH2 0x18A9 PUSH2 0x185A JUMP JUMPDEST PUSH20 0xFFFFFFFFFFFFFFFFFFFFFFFFFFFFFFFFFFFFFFFF AND EQ PUSH2 0x18FF JUMPI PUSH1 0x40 MLOAD PUSH32 0x8C379A000000000000000000000000000000000000000000000000000000000 DUP2 MSTORE PUSH1 0x4 ADD PUSH2 0x18F6 SWAP1 PUSH2 0x32CF JUMP JUMPDEST PUSH1 0x40 MLOAD DUP1 SWAP2 SUB SWAP1 REVERT JUMPDEST DUP1 PUSH1 0x9 DUP2 SWAP1 SSTORE POP POP JUMP JUMPDEST PUSH1 0xC SLOAD DUP2 JUMP JUMPDEST PUSH1 0x6 SLOAD DUP2 JUMP JUMPDEST PUSH2 0x191D PUSH2 0x25E7 JUMP JUMPDEST PUSH20 0xFFFFFFFFFFFFFFFFFFFFFFFFFFFFFFFFFFFFFFFF AND PUSH2 0x193B PUSH2 0x185A JUMP JUMPDEST PUSH20 0xFFFFFFFFFFFFFFFFFFFFFFFFFFFFFFFFFFFFFFFF AND EQ PUSH2 0x1991 JUMPI PUSH1 0x40 MLOAD PUSH32 0x8C379A000000000000000000000000000000000000000000000000000000000 DUP2 MSTORE PUSH1 0x4 ADD PUSH2 0x1988 SWAP1 PUSH2 0x32CF JUMP JUMPDEST PUSH1 0x40 MLOAD DUP1 SWAP2 SUB SWAP1 REVERT JUMPDEST PUSH2 0x1999 PUSH2 0x27E9 JUMP JUMPDEST JUMP JUMPDEST PUSH2 0x19A3 PUSH2 0x25E7 JUMP JUMPDEST PUSH20 0xFFFFFFFFFFFFFFFFFFFFFFFFFFFFFFFFFFFFFFFF AND PUSH2 0x19C1 PUSH2 0x185A JUMP JUMPDEST PUSH20 0xFFFFFFFFFFFFFFFFFFFFFFFFFFFFFFFFFFFFFFFF AND EQ PUSH2 0x1A17 JUMPI PUSH1 0x40 MLOAD PUSH32 0x8C379A000000000000000000000000000000000000000000000000000000000 DUP2 MSTORE PUSH1 0x4 ADD PUSH2 0x1A0E SWAP1 PUSH2 0x32CF JUMP JUMPDEST PUSH1 0x40 MLOAD DUP1 SWAP2 SUB SWAP1 REVERT JUMPDEST PUSH1 0xD SLOAD TIMESTAMP LT ISZERO PUSH2 0x1A5C JUMPI PUSH1 0x40 MLOAD PUSH32 0x8C379A000000000000000000000000000000000000000000000000000000000 DUP2 MSTORE PUSH1 0x4 ADD PUSH2 0x1A53 SWAP1 PUSH2 0x3361 JUMP JUMPDEST PUSH1 0x40 MLOAD DUP1 SWAP2 SUB SWAP1 REVERT JUMPDEST PUSH1 0xE PUSH1 0x0 SWAP1 SLOAD SWAP1 PUSH2 0x100 EXP SWAP1 DIV PUSH1 0xFF AND PUSH2 0x1AAB JUMPI PUSH1 0x40 MLOAD PUSH32 0x8C379A000000000000000000000000000000000000000000000000000000000 DUP2 MSTORE PUSH1 0x4 ADD PUSH2 0x1AA2 SWAP1 PUSH2 0x3AF1 JUMP JUMPDEST PUSH1 0x40 MLOAD DUP1 SWAP2 SUB SWAP1 REVERT JUMPDEST PUSH1 0x0 PUSH1 0xE PUSH1 0x0 PUSH2 0x100 EXP DUP2 SLOAD DUP2 PUSH1 0xFF MUL NOT AND SWAP1 DUP4 ISZERO ISZERO MUL OR SWAP1 SSTORE POP JUMP JUMPDEST PUSH1 0x9 SLOAD DUP2 JUMP JUMPDEST PUSH2 0x1AD6 PUSH2 0x2652 JUMP JUMPDEST PUSH1 0xE PUSH1 0x0 SWAP1 SLOAD SWAP1 PUSH2 0x100 EXP SWAP1 DIV PUSH1 0xFF AND PUSH2 0x1B25 JUMPI PUSH1 0x40 MLOAD PUSH32 0x8C379A000000000000000000000000000000000000000000000000000000000 DUP2 MSTORE PUSH1 0x4 ADD PUSH2 0x1B1C SWAP1 PUSH2 0x3B83 JUMP JUMPDEST PUSH1 0x40 MLOAD DUP1 SWAP2 SUB SWAP1 REVERT JUMPDEST PUSH1 0xF PUSH1 0x0 CALLER PUSH20 0xFFFFFFFFFFFFFFFFFFFFFFFFFFFFFFFFFFFFFFFF AND PUSH20 0xFFFFFFFFFFFFFFFFFFFFFFFFFFFFFFFFFFFFFFFF AND DUP2 MSTORE PUSH1 0x20 ADD SWAP1 DUP2 MSTORE PUSH1 0x20 ADD PUSH1 0x0 KECCAK256 PUSH1 0x1 ADD PUSH1 0x0 SWAP1 SLOAD SWAP1 PUSH2 0x100 EXP SWAP1 DIV PUSH1 0xFF AND ISZERO PUSH2 0x1BB5 JUMPI PUSH1 0x40 MLOAD PUSH32 0x8C379A000000000000000000000000000000000000000000000000000000000 DUP2 MSTORE PUSH1 0x4 ADD PUSH2 0x1BAC SWAP1 PUSH2 0x3BEF JUMP JUMPDEST PUSH1 0x40 MLOAD DUP1 SWAP2 SUB SWAP1 REVERT JUMPDEST PUSH1 0x0 PUSH1 0xF PUSH1 0x0 CALLER PUSH20 0xFFFFFFFFFFFFFFFFFFFFFFFFFFFFFFFFFFFFFFFF AND PUSH20 0xFFFFFFFFFFFFFFFFFFFFFFFFFFFFFFFFFFFFFFFF AND DUP2 MSTORE PUSH1 0x20 ADD SWAP1 DUP2 MSTORE PUSH1 0x20 ADD PUSH1 0x0 KECCAK256 PUSH1 0x0 ADD SLOAD SWAP1 POP PUSH1 0x1 PUSH1 0xF PUSH1 0x0 CALLER PUSH20 0xFFFFFFFFFFFFFFFFFFFFFFFFFFFFFFFFFFFFFFFF AND PUSH20 0xFFFFFFFFFFFFFFFFFFFFFFFFFFFFFFFFFFFFFFFF AND DUP2 MSTORE PUSH1 0x20 ADD SWAP1 DUP2 MSTORE PUSH1 0x20 ADD PUSH1 0x0 KECCAK256 PUSH1 0x1 ADD PUSH1 0x0 PUSH2 0x100 EXP DUP2 SLOAD DUP2 PUSH1 0xFF MUL NOT AND SWAP1 DUP4 ISZERO ISZERO MUL OR SWAP1 SSTORE POP PUSH2 0x1CA4 CALLER DUP3 PUSH1 0x5 PUSH1 0x0 SWAP1 SLOAD SWAP1 PUSH2 0x100 EXP SWAP1 DIV PUSH20 0xFFFFFFFFFFFFFFFFFFFFFFFFFFFFFFFFFFFFFFFF AND PUSH20 0xFFFFFFFFFFFFFFFFFFFFFFFFFFFFFFFFFFFFFFFF AND PUSH2 0x284B SWAP1 SWAP3 SWAP2 SWAP1 PUSH4 0xFFFFFFFF AND JUMP JUMPDEST CALLER PUSH20 0xFFFFFFFFFFFFFFFFFFFFFFFFFFFFFFFFFFFFFFFF AND PUSH32 0xE7B379C6C1FA169E9079C25E9143B127637EEF8EC8C9D5C06DDB4AB3E1195888 DUP3 PUSH1 0x40 MLOAD PUSH2 0x1CEA SWAP2 SWAP1 PUSH2 0x2CD6 JUMP JUMPDEST PUSH1 0x40 MLOAD DUP1 SWAP2 SUB SWAP1 LOG2 POP JUMP JUMPDEST PUSH2 0x1CFD PUSH2 0x25E7 JUMP JUMPDEST PUSH20 0xFFFFFFFFFFFFFFFFFFFFFFFFFFFFFFFFFFFFFFFF AND PUSH2 0x1D1B PUSH2 0x185A JUMP JUMPDEST PUSH20 0xFFFFFFFFFFFFFFFFFFFFFFFFFFFFFFFFFFFFFFFF AND EQ PUSH2 0x1D71 JUMPI PUSH1 0x40 MLOAD PUSH32 0x8C379A000000000000000000000000000000000000000000000000000000000 DUP2 MSTORE PUSH1 0x4 ADD PUSH2 0x1D68 SWAP1 PUSH2 0x32CF JUMP JUMPDEST PUSH1 0x40 MLOAD DUP1 SWAP2 SUB SWAP1 REVERT JUMPDEST PUSH1 0xA PUSH1 0x0 DUP4 PUSH20 0xFFFFFFFFFFFFFFFFFFFFFFFFFFFFFFFFFFFFFFFF AND PUSH20 0xFFFFFFFFFFFFFFFFFFFFFFFFFFFFFFFFFFFFFFFF AND DUP2 MSTORE PUSH1 0x20 ADD SWAP1 DUP2 MSTORE PUSH1 0x20 ADD PUSH1 0x0 KECCAK256 PUSH1 0x0 SWAP1 SLOAD SWAP1 PUSH2 0x100 EXP SWAP1 DIV PUSH1 0xFF AND PUSH2 0x1DFD JUMPI PUSH1 0x40 MLOAD PUSH32 0x8C379A000000000000000000000000000000000000000000000000000000000 DUP2 MSTORE PUSH1 0x4 ADD PUSH2 0x1DF4 SWAP1 PUSH2 0x2FE5 JUMP JUMPDEST PUSH1 0x40 MLOAD DUP1 SWAP2 SUB SWAP1 REVERT JUMPDEST DUP1 PUSH1 0xB PUSH1 0x0 DUP5 PUSH20 0xFFFFFFFFFFFFFFFFFFFFFFFFFFFFFFFFFFFFFFFF AND PUSH20 0xFFFFFFFFFFFFFFFFFFFFFFFFFFFFFFFFFFFFFFFF AND DUP2 MSTORE PUSH1 0x20 ADD SWAP1 DUP2 MSTORE PUSH1 0x20 ADD PUSH1 0x0 KECCAK256 SWAP1 PUSH1 0x4 PUSH2 0x1E4B SWAP3 SWAP2 SWAP1 PUSH2 0x2B87 JUMP JUMPDEST POP PUSH32 0x15C54D4ADD16CDCD1F0A4C671837CF70C9F8F02790BB0D948710AF6E0187C7D9 DUP3 DUP3 PUSH1 0x40 MLOAD PUSH2 0x1E7D SWAP3 SWAP2 SWAP1 PUSH2 0x34BE JUMP JUMPDEST PUSH1 0x40 MLOAD DUP1 SWAP2 SUB SWAP1 LOG1 POP POP JUMP JUMPDEST PUSH2 0x1E91 PUSH2 0x25E7 JUMP JUMPDEST PUSH20 0xFFFFFFFFFFFFFFFFFFFFFFFFFFFFFFFFFFFFFFFF AND PUSH2 0x1EAF PUSH2 0x185A JUMP JUMPDEST PUSH20 0xFFFFFFFFFFFFFFFFFFFFFFFFFFFFFFFFFFFFFFFF AND EQ PUSH2 0x1F05 JUMPI PUSH1 0x40 MLOAD PUSH32 0x8C379A000000000000000000000000000000000000000000000000000000000 DUP2 MSTORE PUSH1 0x4 ADD PUSH2 0x1EFC SWAP1 PUSH2 0x32CF JUMP JUMPDEST PUSH1 0x40 MLOAD DUP1 SWAP2 SUB SWAP1 REVERT JUMPDEST PUSH1 0xD SLOAD TIMESTAMP LT ISZERO PUSH2 0x1F4A JUMPI PUSH1 0x40 MLOAD PUSH32 0x8C379A000000000000000000000000000000000000000000000000000000000 DUP2 MSTORE PUSH1 0x4 ADD PUSH2 0x1F41 SWAP1 PUSH2 0x3361 JUMP JUMPDEST PUSH1 0x40 MLOAD DUP1 SWAP2 SUB SWAP1 REVERT JUMPDEST PUSH2 0x1F97 CALLER DUP3 PUSH1 0x5 PUSH1 0x0 SWAP1 SLOAD SWAP1 PUSH2 0x100 EXP SWAP1 DIV PUSH20 0xFFFFFFFFFFFFFFFFFFFFFFFFFFFFFFFFFFFFFFFF AND PUSH20 0xFFFFFFFFFFFFFFFFFFFFFFFFFFFFFFFFFFFFFFFF AND PUSH2 0x284B SWAP1 SWAP3 SWAP2 SWAP1 PUSH4 0xFFFFFFFF AND JUMP JUMPDEST POP JUMP JUMPDEST PUSH1 0x1 DUP2 PUSH1 0x4 DUP2 LT PUSH2 0x1FAA JUMPI PUSH1 0x0 DUP1 REVERT JUMPDEST ADD PUSH1 0x0 SWAP2 POP SWAP1 POP SLOAD DUP2 JUMP JUMPDEST PUSH1 0x5 PUSH1 0x0 SWAP1 SLOAD SWAP1 PUSH2 0x100 EXP SWAP1 DIV PUSH20 0xFFFFFFFFFFFFFFFFFFFFFFFFFFFFFFFFFFFFFFFF AND DUP2 JUMP JUMPDEST PUSH2 0x1FE3 PUSH2 0x25E7 JUMP JUMPDEST PUSH20 0xFFFFFFFFFFFFFFFFFFFFFFFFFFFFFFFFFFFFFFFF AND PUSH2 0x2001 PUSH2 0x185A JUMP JUMPDEST PUSH20 0xFFFFFFFFFFFFFFFFFFFFFFFFFFFFFFFFFFFFFFFF AND EQ PUSH2 0x2057 JUMPI PUSH1 0x40 MLOAD PUSH32 0x8C379A000000000000000000000000000000000000000000000000000000000 DUP2 MSTORE PUSH1 0x4 ADD PUSH2 0x204E SWAP1 PUSH2 0x32CF JUMP JUMPDEST PUSH1 0x40 MLOAD DUP1 SWAP2 SUB SWAP1 REVERT JUMPDEST DUP1 PUSH1 0x1 SWAP1 PUSH1 0x4 PUSH2 0x2068 SWAP3 SWAP2 SWAP1 PUSH2 0x2B87 JUMP JUMPDEST POP POP JUMP JUMPDEST PUSH2 0x2074 PUSH2 0x25E7 JUMP JUMPDEST PUSH20 0xFFFFFFFFFFFFFFFFFFFFFFFFFFFFFFFFFFFFFFFF AND PUSH2 0x2092 PUSH2 0x185A JUMP JUMPDEST PUSH20 0xFFFFFFFFFFFFFFFFFFFFFFFFFFFFFFFFFFFFFFFF AND EQ PUSH2 0x20E8 JUMPI PUSH1 0x40 MLOAD PUSH32 0x8C379A000000000000000000000000000000000000000000000000000000000 DUP2 MSTORE PUSH1 0x4 ADD PUSH2 0x20DF SWAP1 PUSH2 0x32CF JUMP JUMPDEST PUSH1 0x40 MLOAD DUP1 SWAP2 SUB SWAP1 REVERT JUMPDEST PUSH1 0x0 PUSH20 0xFFFFFFFFFFFFFFFFFFFFFFFFFFFFFFFFFFFFFFFF AND DUP2 PUSH20 0xFFFFFFFFFFFFFFFFFFFFFFFFFFFFFFFFFFFFFFFF AND SUB PUSH2 0x2157 JUMPI PUSH1 0x40 MLOAD PUSH32 0x8C379A000000000000000000000000000000000000000000000000000000000 DUP2 MSTORE PUSH1 0x4 ADD PUSH2 0x214E SWAP1 PUSH2 0x3C81 JUMP JUMPDEST PUSH1 0x40 MLOAD DUP1 SWAP2 SUB SWAP1 REVERT JUMPDEST PUSH2 0x2160 DUP2 PUSH2 0x2725 JUMP JUMPDEST POP JUMP JUMPDEST PUSH2 0x216B PUSH2 0x25E7 JUMP JUMPDEST PUSH20 0xFFFFFFFFFFFFFFFFFFFFFFFFFFFFFFFFFFFFFFFF AND PUSH2 0x2189 PUSH2 0x185A JUMP JUMPDEST PUSH20 0xFFFFFFFFFFFFFFFFFFFFFFFFFFFFFFFFFFFFFFFF AND EQ PUSH2 0x21DF JUMPI PUSH1 0x40 MLOAD PUSH32 0x8C379A000000000000000000000000000000000000000000000000000000000 DUP2 MSTORE PUSH1 0x4 ADD PUSH2 0x21D6 SWAP1 PUSH2 0x32CF JUMP JUMPDEST PUSH1 0x40 MLOAD DUP1 SWAP2 SUB SWAP1 REVERT JUMPDEST PUSH1 0x5 PUSH1 0x0 SWAP1 SLOAD SWAP1 PUSH2 0x100 EXP SWAP1 DIV PUSH20 0xFFFFFFFFFFFFFFFFFFFFFFFFFFFFFFFFFFFFFFFF AND PUSH20 0xFFFFFFFFFFFFFFFFFFFFFFFFFFFFFFFFFFFFFFFF AND DUP3 PUSH20 0xFFFFFFFFFFFFFFFFFFFFFFFFFFFFFFFFFFFFFFFF AND SUB PUSH2 0x226F JUMPI PUSH1 0x40 MLOAD PUSH32 0x8C379A000000000000000000000000000000000000000000000000000000000 DUP2 MSTORE PUSH1 0x4 ADD PUSH2 0x2266 SWAP1 PUSH2 0x3D39 JUMP JUMPDEST PUSH1 0x40 MLOAD DUP1 SWAP2 SUB SWAP1 REVERT JUMPDEST PUSH2 0x229A CALLER DUP3 DUP5 PUSH20 0xFFFFFFFFFFFFFFFFFFFFFFFFFFFFFFFFFFFFFFFF AND PUSH2 0x284B SWAP1 SWAP3 SWAP2 SWAP1 PUSH4 0xFFFFFFFF AND JUMP JUMPDEST POP POP JUMP JUMPDEST PUSH2 0x22A6 PUSH2 0x25E7 JUMP JUMPDEST PUSH20 0xFFFFFFFFFFFFFFFFFFFFFFFFFFFFFFFFFFFFFFFF AND PUSH2 0x22C4 PUSH2 0x185A JUMP JUMPDEST PUSH20 0xFFFFFFFFFFFFFFFFFFFFFFFFFFFFFFFFFFFFFFFF AND EQ PUSH2 0x231A JUMPI PUSH1 0x40 MLOAD PUSH32 0x8C379A000000000000000000000000000000000000000000000000000000000 DUP2 MSTORE PUSH1 0x4 ADD PUSH2 0x2311 SWAP1 PUSH2 0x32CF JUMP JUMPDEST PUSH1 0x40 MLOAD DUP1 SWAP2 SUB SWAP1 REVERT JUMPDEST PUSH1 0x5 PUSH1 0x0 SWAP1 SLOAD SWAP1 PUSH2 0x100 EXP SWAP1 DIV PUSH20 0xFFFFFFFFFFFFFFFFFFFFFFFFFFFFFFFFFFFFFFFF AND PUSH20 0xFFFFFFFFFFFFFFFFFFFFFFFFFFFFFFFFFFFFFFFF AND DUP2 PUSH20 0xFFFFFFFFFFFFFFFFFFFFFFFFFFFFFFFFFFFFFFFF AND SUB PUSH2 0x23AA JUMPI PUSH1 0x40 MLOAD PUSH32 0x8C379A000000000000000000000000000000000000000000000000000000000 DUP2 MSTORE PUSH1 0x4 ADD PUSH2 0x23A1 SWAP1 PUSH2 0x3DF1 JUMP JUMPDEST PUSH1 0x40 MLOAD DUP1 SWAP2 SUB SWAP1 REVERT JUMPDEST PUSH1 0x0 DUP2 PUSH20 0xFFFFFFFFFFFFFFFFFFFFFFFFFFFFFFFFFFFFFFFF AND PUSH4 0x70A08231 ADDRESS PUSH1 0x40 MLOAD DUP3 PUSH4 0xFFFFFFFF AND PUSH1 0xE0 SHL DUP2 MSTORE PUSH1 0x4 ADD PUSH2 0x23E5 SWAP2 SWAP1 PUSH2 0x2F40 JUMP JUMPDEST PUSH1 0x20 PUSH1 0x40 MLOAD DUP1 DUP4 SUB DUP2 DUP7 GAS STATICCALL ISZERO DUP1 ISZERO PUSH2 0x2402 JUMPI RETURNDATASIZE PUSH1 0x0 DUP1 RETURNDATACOPY RETURNDATASIZE PUSH1 0x0 REVERT JUMPDEST POP POP POP POP PUSH1 0x40 MLOAD RETURNDATASIZE PUSH1 0x1F NOT PUSH1 0x1F DUP3 ADD AND DUP3 ADD DUP1 PUSH1 0x40 MSTORE POP DUP2 ADD SWAP1 PUSH2 0x2426 SWAP2 SWAP1 PUSH2 0x3A29 JUMP JUMPDEST SWAP1 POP PUSH2 0x2432 DUP3 DUP3 PUSH2 0x2163 JUMP JUMPDEST POP POP JUMP JUMPDEST PUSH2 0x243E PUSH2 0x25E7 JUMP JUMPDEST PUSH20 0xFFFFFFFFFFFFFFFFFFFFFFFFFFFFFFFFFFFFFFFF AND PUSH2 0x245C PUSH2 0x185A JUMP JUMPDEST PUSH20 0xFFFFFFFFFFFFFFFFFFFFFFFFFFFFFFFFFFFFFFFF AND EQ PUSH2 0x24B2 JUMPI PUSH1 0x40 MLOAD PUSH32 0x8C379A000000000000000000000000000000000000000000000000000000000 DUP2 MSTORE PUSH1 0x4 ADD PUSH2 0x24A9 SWAP1 PUSH2 0x32CF JUMP JUMPDEST PUSH1 0x40 MLOAD DUP1 SWAP2 SUB SWAP1 REVERT JUMPDEST PUSH1 0xD SLOAD TIMESTAMP LT ISZERO PUSH2 0x24F7 JUMPI PUSH1 0x40 MLOAD PUSH32 0x8C379A000000000000000000000000000000000000000000000000000000000 DUP2 MSTORE PUSH1 0x4 ADD PUSH2 0x24EE SWAP1 PUSH2 0x3361 JUMP JUMPDEST PUSH1 0x40 MLOAD DUP1 SWAP2 SUB SWAP1 REVERT JUMPDEST PUSH1 0x0 PUSH1 0x5 PUSH1 0x0 SWAP1 SLOAD SWAP1 PUSH2 0x100 EXP SWAP1 DIV PUSH20 0xFFFFFFFFFFFFFFFFFFFFFFFFFFFFFFFFFFFFFFFF AND PUSH20 0xFFFFFFFFFFFFFFFFFFFFFFFFFFFFFFFFFFFFFFFF AND PUSH4 0x70A08231 ADDRESS PUSH1 0x40 MLOAD DUP3 PUSH4 0xFFFFFFFF AND PUSH1 0xE0 SHL DUP2 MSTORE PUSH1 0x4 ADD PUSH2 0x2554 SWAP2 SWAP1 PUSH2 0x2F40 JUMP JUMPDEST PUSH1 0x20 PUSH1 0x40 MLOAD DUP1 DUP4 SUB DUP2 DUP7 GAS STATICCALL ISZERO DUP1 ISZERO PUSH2 0x2571 JUMPI RETURNDATASIZE PUSH1 0x0 DUP1 RETURNDATACOPY RETURNDATASIZE PUSH1 0x0 REVERT JUMPDEST POP POP POP POP PUSH1 0x40 MLOAD RETURNDATASIZE PUSH1 0x1F NOT PUSH1 0x1F DUP3 ADD AND DUP3 ADD DUP1 PUSH1 0x40 MSTORE POP DUP2 ADD SWAP1 PUSH2 0x2595 SWAP2 SWAP1 PUSH2 0x3A29 JUMP JUMPDEST SWAP1 POP PUSH2 0x25E4 CALLER DUP3 PUSH1 0x5 PUSH1 0x0 SWAP1 SLOAD SWAP1 PUSH2 0x100 EXP SWAP1 DIV PUSH20 0xFFFFFFFFFFFFFFFFFFFFFFFFFFFFFFFFFFFFFFFF AND PUSH20 0xFFFFFFFFFFFFFFFFFFFFFFFFFFFFFFFFFFFFFFFF AND PUSH2 0x284B SWAP1 SWAP3 SWAP2 SWAP1 PUSH4 0xFFFFFFFF AND JUMP JUMPDEST POP JUMP JUMPDEST PUSH1 0x0 CALLER SWAP1 POP SWAP1 JUMP JUMPDEST PUSH2 0x25F7 PUSH2 0x2652 JUMP JUMPDEST PUSH1 0x1 PUSH1 0x0 PUSH1 0x14 PUSH2 0x100 EXP DUP2 SLOAD DUP2 PUSH1 0xFF MUL NOT AND SWAP1 DUP4 ISZERO ISZERO MUL OR SWAP1 SSTORE POP PUSH32 0x62E78CEA01BEE320CD4E420270B5EA74000D11B0C9F74754EBDBFC544B05A258 PUSH2 0x263B PUSH2 0x25E7 JUMP JUMPDEST PUSH1 0x40 MLOAD PUSH2 0x2648 SWAP2 SWAP1 PUSH2 0x2F40 JUMP JUMPDEST PUSH1 0x40 MLOAD DUP1 SWAP2 SUB SWAP1 LOG1 JUMP JUMPDEST PUSH2 0x265A PUSH2 0xD9F JUMP JUMPDEST ISZERO PUSH2 0x269A JUMPI PUSH1 0x40 MLOAD PUSH32 0x8C379A000000000000000000000000000000000000000000000000000000000 DUP2 MSTORE PUSH1 0x4 ADD PUSH2 0x2691 SWAP1 PUSH2 0x3E5D JUMP JUMPDEST PUSH1 0x40 MLOAD DUP1 SWAP2 SUB SWAP1 REVERT JUMPDEST JUMP JUMPDEST PUSH2 0x271F DUP5 PUSH4 0x23B872DD PUSH1 0xE0 SHL DUP6 DUP6 DUP6 PUSH1 0x40 MLOAD PUSH1 0x24 ADD PUSH2 0x26BD SWAP4 SWAP3 SWAP2 SWAP1 PUSH2 0x3E7D JUMP JUMPDEST PUSH1 0x40 MLOAD PUSH1 0x20 DUP2 DUP4 SUB SUB DUP2 MSTORE SWAP1 PUSH1 0x40 MSTORE SWAP1 PUSH28 0xFFFFFFFFFFFFFFFFFFFFFFFFFFFFFFFFFFFFFFFFFFFFFFFFFFFFFFFF NOT AND PUSH1 0x20 DUP3 ADD DUP1 MLOAD PUSH28 0xFFFFFFFFFFFFFFFFFFFFFFFFFFFFFFFFFFFFFFFFFFFFFFFFFFFFFFFF DUP4 DUP2 DUP4 AND OR DUP4 MSTORE POP POP POP POP PUSH2 0x28D1 JUMP JUMPDEST POP POP POP POP JUMP JUMPDEST PUSH1 0x0 DUP1 PUSH1 0x0 SWAP1 SLOAD SWAP1 PUSH2 0x100 EXP SWAP1 DIV PUSH20 0xFFFFFFFFFFFFFFFFFFFFFFFFFFFFFFFFFFFFFFFF AND SWAP1 POP DUP2 PUSH1 0x0 DUP1 PUSH2 0x100 EXP DUP2 SLOAD DUP2 PUSH20 0xFFFFFFFFFFFFFFFFFFFFFFFFFFFFFFFFFFFFFFFF MUL NOT AND SWAP1 DUP4 PUSH20 0xFFFFFFFFFFFFFFFFFFFFFFFFFFFFFFFFFFFFFFFF AND MUL OR SWAP1 SSTORE POP DUP2 PUSH20 0xFFFFFFFFFFFFFFFFFFFFFFFFFFFFFFFFFFFFFFFF AND DUP2 PUSH20 0xFFFFFFFFFFFFFFFFFFFFFFFFFFFFFFFFFFFFFFFF AND PUSH32 0x8BE0079C531659141344CD1FD0A4F28419497F9722A3DAAFE3B4186F6B6457E0 PUSH1 0x40 MLOAD PUSH1 0x40 MLOAD DUP1 SWAP2 SUB SWAP1 LOG3 POP POP JUMP JUMPDEST PUSH2 0x27F1 PUSH2 0x2998 JUMP JUMPDEST PUSH1 0x0 DUP1 PUSH1 0x14 PUSH2 0x100 EXP DUP2 SLOAD DUP2 PUSH1 0xFF MUL NOT AND SWAP1 DUP4 ISZERO ISZERO MUL OR SWAP1 SSTORE POP PUSH32 0x5DB9EE0A495BF2E6FF9C91A7834C1BA4FDD244A5E8AA4E537BD38AEAE4B073AA PUSH2 0x2834 PUSH2 0x25E7 JUMP JUMPDEST PUSH1 0x40 MLOAD PUSH2 0x2841 SWAP2 SWAP1 PUSH2 0x2F40 JUMP JUMPDEST PUSH1 0x40 MLOAD DUP1 SWAP2 SUB SWAP1 LOG1 JUMP JUMPDEST PUSH2 0x28CC DUP4 PUSH4 0xA9059CBB PUSH1 0xE0 SHL DUP5 DUP5 PUSH1 0x40 MLOAD PUSH1 0x24 ADD PUSH2 0x286A SWAP3 SWAP2 SWAP1 PUSH2 0x3A56 JUMP JUMPDEST PUSH1 0x40 MLOAD PUSH1 0x20 DUP2 DUP4 SUB SUB DUP2 MSTORE SWAP1 PUSH1 0x40 MSTORE SWAP1 PUSH28 0xFFFFFFFFFFFFFFFFFFFFFFFFFFFFFFFFFFFFFFFFFFFFFFFFFFFFFFFF NOT AND PUSH1 0x20 DUP3 ADD DUP1 MLOAD PUSH28 0xFFFFFFFFFFFFFFFFFFFFFFFFFFFFFFFFFFFFFFFFFFFFFFFFFFFFFFFF DUP4 DUP2 DUP4 AND OR DUP4 MSTORE POP POP POP POP PUSH2 0x28D1 JUMP JUMPDEST POP POP POP JUMP JUMPDEST PUSH1 0x0 PUSH2 0x2933 DUP3 PUSH1 0x40 MLOAD DUP1 PUSH1 0x40 ADD PUSH1 0x40 MSTORE DUP1 PUSH1 0x20 DUP2 MSTORE PUSH1 0x20 ADD PUSH32 0x5361666545524332303A206C6F772D6C6576656C2063616C6C206661696C6564 DUP2 MSTORE POP DUP6 PUSH20 0xFFFFFFFFFFFFFFFFFFFFFFFFFFFFFFFFFFFFFFFF AND PUSH2 0x29E1 SWAP1 SWAP3 SWAP2 SWAP1 PUSH4 0xFFFFFFFF AND JUMP JUMPDEST SWAP1 POP PUSH1 0x0 DUP2 MLOAD GT ISZERO PUSH2 0x2993 JUMPI DUP1 DUP1 PUSH1 0x20 ADD SWAP1 MLOAD DUP2 ADD SWAP1 PUSH2 0x2953 SWAP2 SWAP1 PUSH2 0x3EE0 JUMP JUMPDEST PUSH2 0x2992 JUMPI PUSH1 0x40 MLOAD PUSH32 0x8C379A000000000000000000000000000000000000000000000000000000000 DUP2 MSTORE PUSH1 0x4 ADD PUSH2 0x2989 SWAP1 PUSH2 0x3F7F JUMP JUMPDEST PUSH1 0x40 MLOAD DUP1 SWAP2 SUB SWAP1 REVERT JUMPDEST JUMPDEST POP POP POP JUMP JUMPDEST PUSH2 0x29A0 PUSH2 0xD9F JUMP JUMPDEST PUSH2 0x29DF JUMPI PUSH1 0x40 MLOAD PUSH32 0x8C379A000000000000000000000000000000000000000000000000000000000 DUP2 MSTORE PUSH1 0x4 ADD PUSH2 0x29D6 SWAP1 PUSH2 0x3FEB JUMP JUMPDEST PUSH1 0x40 MLOAD DUP1 SWAP2 SUB SWAP1 REVERT JUMPDEST JUMP JUMPDEST PUSH1 0x60 PUSH2 0x29F0 DUP5 DUP5 PUSH1 0x0 DUP6 PUSH2 0x29F9 JUMP JUMPDEST SWAP1 POP SWAP4 SWAP3 POP POP POP JUMP JUMPDEST PUSH1 0x60 DUP3 SELFBALANCE LT ISZERO PUSH2 0x2A3E JUMPI PUSH1 0x40 MLOAD PUSH32 0x8C379A000000000000000000000000000000000000000000000000000000000 DUP2 MSTORE PUSH1 0x4 ADD PUSH2 0x2A35 SWAP1 PUSH2 0x407D JUMP JUMPDEST PUSH1 0x40 MLOAD DUP1 SWAP2 SUB SWAP1 REVERT JUMPDEST PUSH2 0x2A47 DUP6 PUSH2 0x2B0D JUMP JUMPDEST PUSH2 0x2A86 JUMPI PUSH1 0x40 MLOAD PUSH32 0x8C379A000000000000000000000000000000000000000000000000000000000 DUP2 MSTORE PUSH1 0x4 ADD PUSH2 0x2A7D SWAP1 PUSH2 0x40E9 JUMP JUMPDEST PUSH1 0x40 MLOAD DUP1 SWAP2 SUB SWAP1 REVERT JUMPDEST PUSH1 0x0 DUP1 DUP7 PUSH20 0xFFFFFFFFFFFFFFFFFFFFFFFFFFFFFFFFFFFFFFFF AND DUP6 DUP8 PUSH1 0x40 MLOAD PUSH2 0x2AAF SWAP2 SWAP1 PUSH2 0x417A JUMP JUMPDEST PUSH1 0x0 PUSH1 0x40 MLOAD DUP1 DUP4 SUB DUP2 DUP6 DUP8 GAS CALL SWAP3 POP POP POP RETURNDATASIZE DUP1 PUSH1 0x0 DUP2 EQ PUSH2 0x2AEC JUMPI PUSH1 0x40 MLOAD SWAP2 POP PUSH1 0x1F NOT PUSH1 0x3F RETURNDATASIZE ADD AND DUP3 ADD PUSH1 0x40 MSTORE RETURNDATASIZE DUP3 MSTORE RETURNDATASIZE PUSH1 0x0 PUSH1 0x20 DUP5 ADD RETURNDATACOPY PUSH2 0x2AF1 JUMP JUMPDEST PUSH1 0x60 SWAP2 POP JUMPDEST POP SWAP2 POP SWAP2 POP PUSH2 0x2B01 DUP3 DUP3 DUP7 PUSH2 0x2B20 JUMP JUMPDEST SWAP3 POP POP POP SWAP5 SWAP4 POP POP POP POP JUMP JUMPDEST PUSH1 0x0 DUP1 DUP3 EXTCODESIZE SWAP1 POP PUSH1 0x0 DUP2 GT SWAP2 POP POP SWAP2 SWAP1 POP JUMP JUMPDEST PUSH1 0x60 DUP4 ISZERO PUSH2 0x2B30 JUMPI DUP3 SWAP1 POP PUSH2 0x2B80 JUMP JUMPDEST PUSH1 0x0 DUP4 MLOAD GT ISZERO PUSH2 0x2B43 JUMPI DUP3 MLOAD DUP1 DUP5 PUSH1 0x20 ADD REVERT JUMPDEST DUP2 PUSH1 0x40 MLOAD PUSH32 0x8C379A000000000000000000000000000000000000000000000000000000000 DUP2 MSTORE PUSH1 0x4 ADD PUSH2 0x2B77 SWAP2 SWAP1 PUSH2 0x41D5 JUMP JUMPDEST PUSH1 0x40 MLOAD DUP1 SWAP2 SUB SWAP1 REVERT JUMPDEST SWAP4 SWAP3 POP POP POP JUMP JUMPDEST DUP3 PUSH1 0x4 DUP2 ADD SWAP3 DUP3 ISZERO PUSH2 0x2BB6 JUMPI SWAP2 PUSH1 0x20 MUL DUP3 ADD JUMPDEST DUP3 DUP2 GT ISZERO PUSH2 0x2BB5 JUMPI DUP3 MLOAD DUP3 SSTORE SWAP2 PUSH1 0x20 ADD SWAP2 SWAP1 PUSH1 0x1 ADD SWAP1 PUSH2 0x2B9A JUMP JUMPDEST JUMPDEST POP SWAP1 POP PUSH2 0x2BC3 SWAP2 SWAP1 PUSH2 0x2BC7 JUMP JUMPDEST POP SWAP1 JUMP JUMPDEST JUMPDEST DUP1 DUP3 GT ISZERO PUSH2 0x2BE0 JUMPI PUSH1 0x0 DUP2 PUSH1 0x0 SWAP1 SSTORE POP PUSH1 0x1 ADD PUSH2 0x2BC8 JUMP JUMPDEST POP SWAP1 JUMP JUMPDEST PUSH1 0x0 PUSH1 0x40 MLOAD SWAP1 POP SWAP1 JUMP JUMPDEST PUSH1 0x0 DUP1 REVERT JUMPDEST PUSH1 0x0 PUSH20 0xFFFFFFFFFFFFFFFFFFFFFFFFFFFFFFFFFFFFFFFF DUP3 AND SWAP1 POP SWAP2 SWAP1 POP JUMP JUMPDEST PUSH1 0x0 PUSH2 0x2C1E DUP3 PUSH2 0x2BF3 JUMP JUMPDEST SWAP1 POP SWAP2 SWAP1 POP JUMP JUMPDEST PUSH2 0x2C2E DUP2 PUSH2 0x2C13 JUMP JUMPDEST DUP2 EQ PUSH2 0x2C39 JUMPI PUSH1 0x0 DUP1 REVERT JUMPDEST POP JUMP JUMPDEST PUSH1 0x0 DUP2 CALLDATALOAD SWAP1 POP PUSH2 0x2C4B DUP2 PUSH2 0x2C25 JUMP JUMPDEST SWAP3 SWAP2 POP POP JUMP JUMPDEST PUSH1 0x0 DUP2 SWAP1 POP SWAP2 SWAP1 POP JUMP JUMPDEST PUSH2 0x2C64 DUP2 PUSH2 0x2C51 JUMP JUMPDEST DUP2 EQ PUSH2 0x2C6F JUMPI PUSH1 0x0 DUP1 REVERT JUMPDEST POP JUMP JUMPDEST PUSH1 0x0 DUP2 CALLDATALOAD SWAP1 POP PUSH2 0x2C81 DUP2 PUSH2 0x2C5B JUMP JUMPDEST SWAP3 SWAP2 POP POP JUMP JUMPDEST PUSH1 0x0 DUP1 PUSH1 0x40 DUP4 DUP6 SUB SLT ISZERO PUSH2 0x2C9E JUMPI PUSH2 0x2C9D PUSH2 0x2BEE JUMP JUMPDEST JUMPDEST PUSH1 0x0 PUSH2 0x2CAC DUP6 DUP3 DUP7 ADD PUSH2 0x2C3C JUMP JUMPDEST SWAP3 POP POP PUSH1 0x20 PUSH2 0x2CBD DUP6 DUP3 DUP7 ADD PUSH2 0x2C72 JUMP JUMPDEST SWAP2 POP POP SWAP3 POP SWAP3 SWAP1 POP JUMP JUMPDEST PUSH2 0x2CD0 DUP2 PUSH2 0x2C51 JUMP JUMPDEST DUP3 MSTORE POP POP JUMP JUMPDEST PUSH1 0x0 PUSH1 0x20 DUP3 ADD SWAP1 POP PUSH2 0x2CEB PUSH1 0x0 DUP4 ADD DUP5 PUSH2 0x2CC7 JUMP JUMPDEST SWAP3 SWAP2 POP POP JUMP JUMPDEST PUSH1 0x0 DUP2 ISZERO ISZERO SWAP1 POP SWAP2 SWAP1 POP JUMP JUMPDEST PUSH2 0x2D06 DUP2 PUSH2 0x2CF1 JUMP JUMPDEST DUP3 MSTORE POP POP JUMP JUMPDEST PUSH1 0x0 PUSH1 0x20 DUP3 ADD SWAP1 POP PUSH2 0x2D21 PUSH1 0x0 DUP4 ADD DUP5 PUSH2 0x2CFD JUMP JUMPDEST SWAP3 SWAP2 POP POP JUMP JUMPDEST PUSH1 0x0 PUSH1 0x20 DUP3 DUP5 SUB SLT ISZERO PUSH2 0x2D3D JUMPI PUSH2 0x2D3C PUSH2 0x2BEE JUMP JUMPDEST JUMPDEST PUSH1 0x0 PUSH2 0x2D4B DUP5 DUP3 DUP6 ADD PUSH2 0x2C72 JUMP JUMPDEST SWAP2 POP POP SWAP3 SWAP2 POP POP JUMP JUMPDEST PUSH1 0x0 PUSH1 0x20 DUP3 DUP5 SUB SLT ISZERO PUSH2 0x2D6A JUMPI PUSH2 0x2D69 PUSH2 0x2BEE JUMP JUMPDEST JUMPDEST PUSH1 0x0 PUSH2 0x2D78 DUP5 DUP3 DUP6 ADD PUSH2 0x2C3C JUMP JUMPDEST SWAP2 POP POP SWAP3 SWAP2 POP POP JUMP JUMPDEST PUSH1 0x0 PUSH1 0x40 DUP3 ADD SWAP1 POP PUSH2 0x2D96 PUSH1 0x0 DUP4 ADD DUP6 PUSH2 0x2CC7 JUMP JUMPDEST PUSH2 0x2DA3 PUSH1 0x20 DUP4 ADD DUP5 PUSH2 0x2CFD JUMP JUMPDEST SWAP4 SWAP3 POP POP POP JUMP JUMPDEST PUSH1 0x0 DUP1 REVERT JUMPDEST PUSH1 0x0 PUSH1 0x1F NOT PUSH1 0x1F DUP4 ADD AND SWAP1 POP SWAP2 SWAP1 POP JUMP JUMPDEST PUSH32 0x4E487B7100000000000000000000000000000000000000000000000000000000 PUSH1 0x0 MSTORE PUSH1 0x41 PUSH1 0x4 MSTORE PUSH1 0x24 PUSH1 0x0 REVERT JUMPDEST PUSH2 0x2DF8 DUP3 PUSH2 0x2DAF JUMP JUMPDEST DUP2 ADD DUP2 DUP2 LT PUSH8 0xFFFFFFFFFFFFFFFF DUP3 GT OR ISZERO PUSH2 0x2E17 JUMPI PUSH2 0x2E16 PUSH2 0x2DC0 JUMP JUMPDEST JUMPDEST DUP1 PUSH1 0x40 MSTORE POP POP POP JUMP JUMPDEST PUSH1 0x0 PUSH2 0x2E2A PUSH2 0x2BE4 JUMP JUMPDEST SWAP1 POP PUSH2 0x2E36 DUP3 DUP3 PUSH2 0x2DEF JUMP JUMPDEST SWAP2 SWAP1 POP JUMP JUMPDEST PUSH1 0x0 PUSH8 0xFFFFFFFFFFFFFFFF DUP3 GT ISZERO PUSH2 0x2E56 JUMPI PUSH2 0x2E55 PUSH2 0x2DC0 JUMP JUMPDEST JUMPDEST PUSH1 0x20 DUP3 MUL SWAP1 POP SWAP2 SWAP1 POP JUMP JUMPDEST PUSH1 0x0 DUP1 REVERT JUMPDEST PUSH1 0x0 PUSH2 0x2E79 PUSH2 0x2E74 DUP5 PUSH2 0x2E3B JUMP JUMPDEST PUSH2 0x2E20 JUMP JUMPDEST SWAP1 POP DUP1 PUSH1 0x20 DUP5 MUL DUP4 ADD DUP6 DUP2 GT ISZERO PUSH2 0x2E93 JUMPI PUSH2 0x2E92 PUSH2 0x2E61 JUMP JUMPDEST JUMPDEST DUP4 JUMPDEST DUP2 DUP2 LT ISZERO PUSH2 0x2EBC JUMPI DUP1 PUSH2 0x2EA8 DUP9 DUP3 PUSH2 0x2C72 JUMP JUMPDEST DUP5 MSTORE PUSH1 0x20 DUP5 ADD SWAP4 POP POP PUSH1 0x20 DUP2 ADD SWAP1 POP PUSH2 0x2E95 JUMP JUMPDEST POP POP POP SWAP4 SWAP3 POP POP POP JUMP JUMPDEST PUSH1 0x0 DUP3 PUSH1 0x1F DUP4 ADD SLT PUSH2 0x2EDB JUMPI PUSH2 0x2EDA PUSH2 0x2DAA JUMP JUMPDEST JUMPDEST PUSH1 0x4 PUSH2 0x2EE8 DUP5 DUP3 DUP6 PUSH2 0x2E66 JUMP JUMPDEST SWAP2 POP POP SWAP3 SWAP2 POP POP JUMP JUMPDEST PUSH1 0x0 DUP1 PUSH1 0xA0 DUP4 DUP6 SUB SLT ISZERO PUSH2 0x2F08 JUMPI PUSH2 0x2F07 PUSH2 0x2BEE JUMP JUMPDEST JUMPDEST PUSH1 0x0 PUSH2 0x2F16 DUP6 DUP3 DUP7 ADD PUSH2 0x2C3C JUMP JUMPDEST SWAP3 POP POP PUSH1 0x20 PUSH2 0x2F27 DUP6 DUP3 DUP7 ADD PUSH2 0x2EC6 JUMP JUMPDEST SWAP2 POP POP SWAP3 POP SWAP3 SWAP1 POP JUMP JUMPDEST PUSH2 0x2F3A DUP2 PUSH2 0x2C13 JUMP JUMPDEST DUP3 MSTORE POP POP JUMP JUMPDEST PUSH1 0x0 PUSH1 0x20 DUP3 ADD SWAP1 POP PUSH2 0x2F55 PUSH1 0x0 DUP4 ADD DUP5 PUSH2 0x2F31 JUMP JUMPDEST SWAP3 SWAP2 POP POP JUMP JUMPDEST PUSH1 0x0 PUSH1 0x80 DUP3 DUP5 SUB SLT ISZERO PUSH2 0x2F71 JUMPI PUSH2 0x2F70 PUSH2 0x2BEE JUMP JUMPDEST JUMPDEST PUSH1 0x0 PUSH2 0x2F7F DUP5 DUP3 DUP6 ADD PUSH2 0x2EC6 JUMP JUMPDEST SWAP2 POP POP SWAP3 SWAP2 POP POP JUMP JUMPDEST PUSH1 0x0 DUP3 DUP3 MSTORE PUSH1 0x20 DUP3 ADD SWAP1 POP SWAP3 SWAP2 POP POP JUMP JUMPDEST PUSH32 0x50726573616C653A20546F6B656E206E6F742077686974656C69737465640000 PUSH1 0x0 DUP3 ADD MSTORE POP JUMP JUMPDEST PUSH1 0x0 PUSH2 0x2FCF PUSH1 0x1E DUP4 PUSH2 0x2F88 JUMP JUMPDEST SWAP2 POP PUSH2 0x2FDA DUP3 PUSH2 0x2F99 JUMP JUMPDEST PUSH1 0x20 DUP3 ADD SWAP1 POP SWAP2 SWAP1 POP JUMP JUMPDEST PUSH1 0x0 PUSH1 0x20 DUP3 ADD SWAP1 POP DUP2 DUP2 SUB PUSH1 0x0 DUP4 ADD MSTORE PUSH2 0x2FFE DUP2 PUSH2 0x2FC2 JUMP JUMPDEST SWAP1 POP SWAP2 SWAP1 POP JUMP JUMPDEST PUSH32 0x4E487B7100000000000000000000000000000000000000000000000000000000 PUSH1 0x0 MSTORE PUSH1 0x32 PUSH1 0x4 MSTORE PUSH1 0x24 PUSH1 0x0 REVERT JUMPDEST PUSH32 0x4E487B7100000000000000000000000000000000000000000000000000000000 PUSH1 0x0 MSTORE PUSH1 0x11 PUSH1 0x4 MSTORE PUSH1 0x24 PUSH1 0x0 REVERT JUMPDEST PUSH1 0x0 DUP2 PUSH1 0x1 SHR SWAP1 POP SWAP2 SWAP1 POP JUMP JUMPDEST PUSH1 0x0 DUP1 DUP3 SWAP2 POP DUP4 SWAP1 POP JUMPDEST PUSH1 0x1 DUP6 GT ISZERO PUSH2 0x30BA JUMPI DUP1 DUP7 DIV DUP2 GT ISZERO PUSH2 0x3096 JUMPI PUSH2 0x3095 PUSH2 0x3034 JUMP JUMPDEST JUMPDEST PUSH1 0x1 DUP6 AND ISZERO PUSH2 0x30A5 JUMPI DUP1 DUP3 MUL SWAP2 POP JUMPDEST DUP1 DUP2 MUL SWAP1 POP PUSH2 0x30B3 DUP6 PUSH2 0x3063 JUMP JUMPDEST SWAP5 POP PUSH2 0x307A JUMP JUMPDEST SWAP5 POP SWAP5 SWAP3 POP POP POP JUMP JUMPDEST PUSH1 0x0 DUP3 PUSH2 0x30D3 JUMPI PUSH1 0x1 SWAP1 POP PUSH2 0x318F JUMP JUMPDEST DUP2 PUSH2 0x30E1 JUMPI PUSH1 0x0 SWAP1 POP PUSH2 0x318F JUMP JUMPDEST DUP2 PUSH1 0x1 DUP2 EQ PUSH2 0x30F7 JUMPI PUSH1 0x2 DUP2 EQ PUSH2 0x3101 JUMPI PUSH2 0x3130 JUMP JUMPDEST PUSH1 0x1 SWAP2 POP POP PUSH2 0x318F JUMP JUMPDEST PUSH1 0xFF DUP5 GT ISZERO PUSH2 0x3113 JUMPI PUSH2 0x3112 PUSH2 0x3034 JUMP JUMPDEST JUMPDEST DUP4 PUSH1 0x2 EXP SWAP2 POP DUP5 DUP3 GT ISZERO PUSH2 0x312A JUMPI PUSH2 0x3129 PUSH2 0x3034 JUMP JUMPDEST JUMPDEST POP PUSH2 0x318F JUMP JUMPDEST POP PUSH1 0x20 DUP4 LT PUSH2 0x133 DUP4 LT AND PUSH1 0x4E DUP5 LT PUSH1 0xB DUP5 LT AND OR ISZERO PUSH2 0x3165 JUMPI DUP3 DUP3 EXP SWAP1 POP DUP4 DUP2 GT ISZERO PUSH2 0x3160 JUMPI PUSH2 0x315F PUSH2 0x3034 JUMP JUMPDEST JUMPDEST PUSH2 0x318F JUMP JUMPDEST PUSH2 0x3172 DUP5 DUP5 DUP5 PUSH1 0x1 PUSH2 0x3070 JUMP JUMPDEST SWAP3 POP SWAP1 POP DUP2 DUP5 DIV DUP2 GT ISZERO PUSH2 0x3189 JUMPI PUSH2 0x3188 PUSH2 0x3034 JUMP JUMPDEST JUMPDEST DUP2 DUP2 MUL SWAP1 POP JUMPDEST SWAP4 SWAP3 POP POP POP JUMP JUMPDEST PUSH1 0x0 PUSH2 0x31A1 DUP3 PUSH2 0x2C51 JUMP JUMPDEST SWAP2 POP PUSH2 0x31AC DUP4 PUSH2 0x2C51 JUMP JUMPDEST SWAP3 POP PUSH2 0x31D9 PUSH32 0xFFFFFFFFFFFFFFFFFFFFFFFFFFFFFFFFFFFFFFFFFFFFFFFFFFFFFFFFFFFFFFFF DUP5 DUP5 PUSH2 0x30C3 JUMP JUMPDEST SWAP1 POP SWAP3 SWAP2 POP POP JUMP JUMPDEST PUSH1 0x0 PUSH2 0x31EC DUP3 PUSH2 0x2C51 JUMP JUMPDEST SWAP2 POP PUSH2 0x31F7 DUP4 PUSH2 0x2C51 JUMP JUMPDEST SWAP3 POP DUP3 DUP3 MUL PUSH2 0x3205 DUP2 PUSH2 0x2C51 JUMP JUMPDEST SWAP2 POP DUP3 DUP3 DIV DUP5 EQ DUP4 ISZERO OR PUSH2 0x321C JUMPI PUSH2 0x321B PUSH2 0x3034 JUMP JUMPDEST JUMPDEST POP SWAP3 SWAP2 POP POP JUMP JUMPDEST PUSH32 0x4E487B7100000000000000000000000000000000000000000000000000000000 PUSH1 0x0 MSTORE PUSH1 0x12 PUSH1 0x4 MSTORE PUSH1 0x24 PUSH1 0x0 REVERT JUMPDEST PUSH1 0x0 PUSH2 0x325D DUP3 PUSH2 0x2C51 JUMP JUMPDEST SWAP2 POP PUSH2 0x3268 DUP4 PUSH2 0x2C51 JUMP JUMPDEST SWAP3 POP DUP3 PUSH2 0x3278 JUMPI PUSH2 0x3277 PUSH2 0x3223 JUMP JUMPDEST JUMPDEST DUP3 DUP3 DIV SWAP1 POP SWAP3 SWAP2 POP POP JUMP JUMPDEST PUSH32 0x4F776E61626C653A2063616C6C6572206973206E6F7420746865206F776E6572 PUSH1 0x0 DUP3 ADD MSTORE POP JUMP JUMPDEST PUSH1 0x0 PUSH2 0x32B9 PUSH1 0x20 DUP4 PUSH2 0x2F88 JUMP JUMPDEST SWAP2 POP PUSH2 0x32C4 DUP3 PUSH2 0x3283 JUMP JUMPDEST PUSH1 0x20 DUP3 ADD SWAP1 POP SWAP2 SWAP1 POP JUMP JUMPDEST PUSH1 0x0 PUSH1 0x20 DUP3 ADD SWAP1 POP DUP2 DUP2 SUB PUSH1 0x0 DUP4 ADD MSTORE PUSH2 0x32E8 DUP2 PUSH2 0x32AC JUMP JUMPDEST SWAP1 POP SWAP2 SWAP1 POP JUMP JUMPDEST PUSH32 0x50726573616C653A2050726573616C6520686173206E6F7420656E6465642079 PUSH1 0x0 DUP3 ADD MSTORE PUSH32 0x6574000000000000000000000000000000000000000000000000000000000000 PUSH1 0x20 DUP3 ADD MSTORE POP JUMP JUMPDEST PUSH1 0x0 PUSH2 0x334B PUSH1 0x22 DUP4 PUSH2 0x2F88 JUMP JUMPDEST SWAP2 POP PUSH2 0x3356 DUP3 PUSH2 0x32EF JUMP JUMPDEST PUSH1 0x40 DUP3 ADD SWAP1 POP SWAP2 SWAP1 POP JUMP JUMPDEST PUSH1 0x0 PUSH1 0x20 DUP3 ADD SWAP1 POP DUP2 DUP2 SUB PUSH1 0x0 DUP4 ADD MSTORE PUSH2 0x337A DUP2 PUSH2 0x333E JUMP JUMPDEST SWAP1 POP SWAP2 SWAP1 POP JUMP JUMPDEST PUSH32 0x50726573616C653A20556E6C6F636B696E672068617320616C72656164792073 PUSH1 0x0 DUP3 ADD MSTORE PUSH32 0x7461727465640000000000000000000000000000000000000000000000000000 PUSH1 0x20 DUP3 ADD MSTORE POP JUMP JUMPDEST PUSH1 0x0 PUSH2 0x33DD PUSH1 0x26 DUP4 PUSH2 0x2F88 JUMP JUMPDEST SWAP2 POP PUSH2 0x33E8 DUP3 PUSH2 0x3381 JUMP JUMPDEST PUSH1 0x40 DUP3 ADD SWAP1 POP SWAP2 SWAP1 POP JUMP JUMPDEST PUSH1 0x0 PUSH1 0x20 DUP3 ADD SWAP1 POP DUP2 DUP2 SUB PUSH1 0x0 DUP4 ADD MSTORE PUSH2 0x340C DUP2 PUSH2 0x33D0 JUMP JUMPDEST SWAP1 POP SWAP2 SWAP1 POP JUMP JUMPDEST PUSH1 0x0 PUSH1 0x4 SWAP1 POP SWAP2 SWAP1 POP JUMP JUMPDEST PUSH1 0x0 DUP2 SWAP1 POP SWAP3 SWAP2 POP POP JUMP JUMPDEST PUSH1 0x0 DUP2 SWAP1 POP SWAP2 SWAP1 POP JUMP JUMPDEST PUSH2 0x343C DUP2 PUSH2 0x2C51 JUMP JUMPDEST DUP3 MSTORE POP POP JUMP JUMPDEST PUSH1 0x0 PUSH2 0x344E DUP4 DUP4 PUSH2 0x3433 JUMP JUMPDEST PUSH1 0x20 DUP4 ADD SWAP1 POP SWAP3 SWAP2 POP POP JUMP JUMPDEST PUSH1 0x0 PUSH1 0x20 DUP3 ADD SWAP1 POP SWAP2 SWAP1 POP JUMP JUMPDEST PUSH2 0x3470 DUP2 PUSH2 0x3413 JUMP JUMPDEST PUSH2 0x347A DUP2 DUP5 PUSH2 0x341E JUMP JUMPDEST SWAP3 POP PUSH2 0x3485 DUP3 PUSH2 0x3429 JUMP JUMPDEST DUP1 PUSH1 0x0 JUMPDEST DUP4 DUP2 LT ISZERO PUSH2 0x34B6 JUMPI DUP2 MLOAD PUSH2 0x349D DUP8 DUP3 PUSH2 0x3442 JUMP JUMPDEST SWAP7 POP PUSH2 0x34A8 DUP4 PUSH2 0x345A JUMP JUMPDEST SWAP3 POP POP PUSH1 0x1 DUP2 ADD SWAP1 POP PUSH2 0x3489 JUMP JUMPDEST POP POP POP POP POP POP JUMP JUMPDEST PUSH1 0x0 PUSH1 0xA0 DUP3 ADD SWAP1 POP PUSH2 0x34D3 PUSH1 0x0 DUP4 ADD DUP6 PUSH2 0x2F31 JUMP JUMPDEST PUSH2 0x34E0 PUSH1 0x20 DUP4 ADD DUP5 PUSH2 0x3467 JUMP JUMPDEST SWAP4 SWAP3 POP POP POP JUMP JUMPDEST PUSH32 0x50726573616C653A2050726573616C6520686173206E6F742073746172746564 PUSH1 0x0 DUP3 ADD MSTORE PUSH32 0x2079657400000000000000000000000000000000000000000000000000000000 PUSH1 0x20 DUP3 ADD MSTORE POP JUMP JUMPDEST PUSH1 0x0 PUSH2 0x3543 PUSH1 0x24 DUP4 PUSH2 0x2F88 JUMP JUMPDEST SWAP2 POP PUSH2 0x354E DUP3 PUSH2 0x34E7 JUMP JUMPDEST PUSH1 0x40 DUP3 ADD SWAP1 POP SWAP2 SWAP1 POP JUMP JUMPDEST PUSH1 0x0 PUSH1 0x20 DUP3 ADD SWAP1 POP DUP2 DUP2 SUB PUSH1 0x0 DUP4 ADD MSTORE PUSH2 0x3572 DUP2 PUSH2 0x3536 JUMP JUMPDEST SWAP1 POP SWAP2 SWAP1 POP JUMP JUMPDEST PUSH32 0x50726573616C653A2050726573616C652068617320656E646564000000000000 PUSH1 0x0 DUP3 ADD MSTORE POP JUMP JUMPDEST PUSH1 0x0 PUSH2 0x35AF PUSH1 0x1A DUP4 PUSH2 0x2F88 JUMP JUMPDEST SWAP2 POP PUSH2 0x35BA DUP3 PUSH2 0x3579 JUMP JUMPDEST PUSH1 0x20 DUP3 ADD SWAP1 POP SWAP2 SWAP1 POP JUMP JUMPDEST PUSH1 0x0 PUSH1 0x20 DUP3 ADD SWAP1 POP DUP2 DUP2 SUB PUSH1 0x0 DUP4 ADD MSTORE PUSH2 0x35DE DUP2 PUSH2 0x35A2 JUMP JUMPDEST SWAP1 POP SWAP2 SWAP1 POP JUMP JUMPDEST PUSH32 0x50726573616C653A204D696E20627579206C696D6974206E6F74207265616368 PUSH1 0x0 DUP3 ADD MSTORE PUSH32 0x6564000000000000000000000000000000000000000000000000000000000000 PUSH1 0x20 DUP3 ADD MSTORE POP JUMP JUMPDEST PUSH1 0x0 PUSH2 0x3641 PUSH1 0x22 DUP4 PUSH2 0x2F88 JUMP JUMPDEST SWAP2 POP PUSH2 0x364C DUP3 PUSH2 0x35E5 JUMP JUMPDEST PUSH1 0x40 DUP3 ADD SWAP1 POP SWAP2 SWAP1 POP JUMP JUMPDEST PUSH1 0x0 PUSH1 0x20 DUP3 ADD SWAP1 POP DUP2 DUP2 SUB PUSH1 0x0 DUP4 ADD MSTORE PUSH2 0x3670 DUP2 PUSH2 0x3634 JUMP JUMPDEST SWAP1 POP SWAP2 SWAP1 POP JUMP JUMPDEST PUSH1 0x0 PUSH2 0x3682 DUP3 PUSH2 0x2C51 JUMP JUMPDEST SWAP2 POP PUSH2 0x368D DUP4 PUSH2 0x2C51 JUMP JUMPDEST SWAP3 POP DUP3 DUP3 ADD SWAP1 POP DUP1 DUP3 GT ISZERO PUSH2 0x36A5 JUMPI PUSH2 0x36A4 PUSH2 0x3034 JUMP JUMPDEST JUMPDEST SWAP3 SWAP2 POP POP JUMP JUMPDEST PUSH32 0x50726573616C653A204D617820627579206C696D697420726561636865642066 PUSH1 0x0 DUP3 ADD MSTORE PUSH32 0x6F72207468697320706861736500000000000000000000000000000000000000 PUSH1 0x20 DUP3 ADD MSTORE POP JUMP JUMPDEST PUSH1 0x0 PUSH2 0x3707 PUSH1 0x2D DUP4 PUSH2 0x2F88 JUMP JUMPDEST SWAP2 POP PUSH2 0x3712 DUP3 PUSH2 0x36AB JUMP JUMPDEST PUSH1 0x40 DUP3 ADD SWAP1 POP SWAP2 SWAP1 POP JUMP JUMPDEST PUSH1 0x0 PUSH1 0x20 DUP3 ADD SWAP1 POP DUP2 DUP2 SUB PUSH1 0x0 DUP4 ADD MSTORE PUSH2 0x3736 DUP2 PUSH2 0x36FA JUMP JUMPDEST SWAP1 POP SWAP2 SWAP1 POP JUMP JUMPDEST PUSH32 0x50726573616C653A20546F74616C20546F6B656E2053616C6520526561636865 PUSH1 0x0 DUP3 ADD MSTORE PUSH32 0x6421000000000000000000000000000000000000000000000000000000000000 PUSH1 0x20 DUP3 ADD MSTORE POP JUMP JUMPDEST PUSH1 0x0 PUSH2 0x3799 PUSH1 0x22 DUP4 PUSH2 0x2F88 JUMP JUMPDEST SWAP2 POP PUSH2 0x37A4 DUP3 PUSH2 0x373D JUMP JUMPDEST PUSH1 0x40 DUP3 ADD SWAP1 POP SWAP2 SWAP1 POP JUMP JUMPDEST PUSH1 0x0 PUSH1 0x20 DUP3 ADD SWAP1 POP DUP2 DUP2 SUB PUSH1 0x0 DUP4 ADD MSTORE PUSH2 0x37C8 DUP2 PUSH2 0x378C JUMP JUMPDEST SWAP1 POP SWAP2 SWAP1 POP JUMP JUMPDEST PUSH32 0x50726573616C653A2043616E6E6F74206275792077697468207A65726F20616D PUSH1 0x0 DUP3 ADD MSTORE PUSH32 0x6F756E7400000000000000000000000000000000000000000000000000000000 PUSH1 0x20 DUP3 ADD MSTORE POP JUMP JUMPDEST PUSH1 0x0 PUSH2 0x382B PUSH1 0x24 DUP4 PUSH2 0x2F88 JUMP JUMPDEST SWAP2 POP PUSH2 0x3836 DUP3 PUSH2 0x37CF JUMP JUMPDEST PUSH1 0x40 DUP3 ADD SWAP1 POP SWAP2 SWAP1 POP JUMP JUMPDEST PUSH1 0x0 PUSH1 0x20 DUP3 ADD SWAP1 POP DUP2 DUP2 SUB PUSH1 0x0 DUP4 ADD MSTORE PUSH2 0x385A DUP2 PUSH2 0x381E JUMP JUMPDEST SWAP1 POP SWAP2 SWAP1 POP JUMP JUMPDEST PUSH1 0x0 PUSH1 0x40 DUP3 ADD SWAP1 POP PUSH2 0x3876 PUSH1 0x0 DUP4 ADD DUP6 PUSH2 0x2CC7 JUMP JUMPDEST PUSH2 0x3883 PUSH1 0x20 DUP4 ADD DUP5 PUSH2 0x2CC7 JUMP JUMPDEST SWAP4 SWAP3 POP POP POP JUMP JUMPDEST PUSH32 0x50726573616C653A2053616C6520746F6B656E2063616E6E6F74206265207A65 PUSH1 0x0 DUP3 ADD MSTORE PUSH32 0x726F206164647265737300000000000000000000000000000000000000000000 PUSH1 0x20 DUP3 ADD MSTORE POP JUMP JUMPDEST PUSH1 0x0 PUSH2 0x38E6 PUSH1 0x2A DUP4 PUSH2 0x2F88 JUMP JUMPDEST SWAP2 POP PUSH2 0x38F1 DUP3 PUSH2 0x388A JUMP JUMPDEST PUSH1 0x40 DUP3 ADD SWAP1 POP SWAP2 SWAP1 POP JUMP JUMPDEST PUSH1 0x0 PUSH1 0x20 DUP3 ADD SWAP1 POP DUP2 DUP2 SUB PUSH1 0x0 DUP4 ADD MSTORE PUSH2 0x3915 DUP2 PUSH2 0x38D9 JUMP JUMPDEST SWAP1 POP SWAP2 SWAP1 POP JUMP JUMPDEST PUSH32 0x50726573616C653A20546F74616C20746F6B656E7320666F722073616C652063 PUSH1 0x0 DUP3 ADD MSTORE PUSH32 0x616E6E6F74206265207A65726F00000000000000000000000000000000000000 PUSH1 0x20 DUP3 ADD MSTORE POP JUMP JUMPDEST PUSH1 0x0 PUSH2 0x3978 PUSH1 0x2D DUP4 PUSH2 0x2F88 JUMP JUMPDEST SWAP2 POP PUSH2 0x3983 DUP3 PUSH2 0x391C JUMP JUMPDEST PUSH1 0x40 DUP3 ADD SWAP1 POP SWAP2 SWAP1 POP JUMP JUMPDEST PUSH1 0x0 PUSH1 0x20 DUP3 ADD SWAP1 POP DUP2 DUP2 SUB PUSH1 0x0 DUP4 ADD MSTORE PUSH2 0x39A7 DUP2 PUSH2 0x396B JUMP JUMPDEST SWAP1 POP SWAP2 SWAP1 POP JUMP JUMPDEST PUSH1 0x0 PUSH1 0xFF DUP3 AND SWAP1 POP SWAP2 SWAP1 POP JUMP JUMPDEST PUSH2 0x39C4 DUP2 PUSH2 0x39AE JUMP JUMPDEST DUP2 EQ PUSH2 0x39CF JUMPI PUSH1 0x0 DUP1 REVERT JUMPDEST POP JUMP JUMPDEST PUSH1 0x0 DUP2 MLOAD SWAP1 POP PUSH2 0x39E1 DUP2 PUSH2 0x39BB JUMP JUMPDEST SWAP3 SWAP2 POP POP JUMP JUMPDEST PUSH1 0x0 PUSH1 0x20 DUP3 DUP5 SUB SLT ISZERO PUSH2 0x39FD JUMPI PUSH2 0x39FC PUSH2 0x2BEE JUMP JUMPDEST JUMPDEST PUSH1 0x0 PUSH2 0x3A0B DUP5 DUP3 DUP6 ADD PUSH2 0x39D2 JUMP JUMPDEST SWAP2 POP POP SWAP3 SWAP2 POP POP JUMP JUMPDEST PUSH1 0x0 DUP2 MLOAD SWAP1 POP PUSH2 0x3A23 DUP2 PUSH2 0x2C5B JUMP JUMPDEST SWAP3 SWAP2 POP POP JUMP JUMPDEST PUSH1 0x0 PUSH1 0x20 DUP3 DUP5 SUB SLT ISZERO PUSH2 0x3A3F JUMPI PUSH2 0x3A3E PUSH2 0x2BEE JUMP JUMPDEST JUMPDEST PUSH1 0x0 PUSH2 0x3A4D DUP5 DUP3 DUP6 ADD PUSH2 0x3A14 JUMP JUMPDEST SWAP2 POP POP SWAP3 SWAP2 POP POP JUMP JUMPDEST PUSH1 0x0 PUSH1 0x40 DUP3 ADD SWAP1 POP PUSH2 0x3A6B PUSH1 0x0 DUP4 ADD DUP6 PUSH2 0x2F31 JUMP JUMPDEST PUSH2 0x3A78 PUSH1 0x20 DUP4 ADD DUP5 PUSH2 0x2CC7 JUMP JUMPDEST SWAP4 SWAP3 POP POP POP JUMP JUMPDEST PUSH32 0x50726573616C653A20556E6C6F636B696E67206861736E277420737461727465 PUSH1 0x0 DUP3 ADD MSTORE PUSH32 0x6420796574210000000000000000000000000000000000000000000000000000 PUSH1 0x20 DUP3 ADD MSTORE POP JUMP JUMPDEST PUSH1 0x0 PUSH2 0x3ADB PUSH1 0x26 DUP4 PUSH2 0x2F88 JUMP JUMPDEST SWAP2 POP PUSH2 0x3AE6 DUP3 PUSH2 0x3A7F JUMP JUMPDEST PUSH1 0x40 DUP3 ADD SWAP1 POP SWAP2 SWAP1 POP JUMP JUMPDEST PUSH1 0x0 PUSH1 0x20 DUP3 ADD SWAP1 POP DUP2 DUP2 SUB PUSH1 0x0 DUP4 ADD MSTORE PUSH2 0x3B0A DUP2 PUSH2 0x3ACE JUMP JUMPDEST SWAP1 POP SWAP2 SWAP1 POP JUMP JUMPDEST PUSH32 0x50726573616C653A204C6F636B696E6720706572696F64206E6F74206F766572 PUSH1 0x0 DUP3 ADD MSTORE PUSH32 0x2079657400000000000000000000000000000000000000000000000000000000 PUSH1 0x20 DUP3 ADD MSTORE POP JUMP JUMPDEST PUSH1 0x0 PUSH2 0x3B6D PUSH1 0x24 DUP4 PUSH2 0x2F88 JUMP JUMPDEST SWAP2 POP PUSH2 0x3B78 DUP3 PUSH2 0x3B11 JUMP JUMPDEST PUSH1 0x40 DUP3 ADD SWAP1 POP SWAP2 SWAP1 POP JUMP JUMPDEST PUSH1 0x0 PUSH1 0x20 DUP3 ADD SWAP1 POP DUP2 DUP2 SUB PUSH1 0x0 DUP4 ADD MSTORE PUSH2 0x3B9C DUP2 PUSH2 0x3B60 JUMP JUMPDEST SWAP1 POP SWAP2 SWAP1 POP JUMP JUMPDEST PUSH32 0x50726573616C653A20416C726561647920636C61696D65640000000000000000 PUSH1 0x0 DUP3 ADD MSTORE POP JUMP JUMPDEST PUSH1 0x0 PUSH2 0x3BD9 PUSH1 0x18 DUP4 PUSH2 0x2F88 JUMP JUMPDEST SWAP2 POP PUSH2 0x3BE4 DUP3 PUSH2 0x3BA3 JUMP JUMPDEST PUSH1 0x20 DUP3 ADD SWAP1 POP SWAP2 SWAP1 POP JUMP JUMPDEST PUSH1 0x0 PUSH1 0x20 DUP3 ADD SWAP1 POP DUP2 DUP2 SUB PUSH1 0x0 DUP4 ADD MSTORE PUSH2 0x3C08 DUP2 PUSH2 0x3BCC JUMP JUMPDEST SWAP1 POP SWAP2 SWAP1 POP JUMP JUMPDEST PUSH32 0x4F776E61626C653A206E6577206F776E657220697320746865207A65726F2061 PUSH1 0x0 DUP3 ADD MSTORE PUSH32 0x6464726573730000000000000000000000000000000000000000000000000000 PUSH1 0x20 DUP3 ADD MSTORE POP JUMP JUMPDEST PUSH1 0x0 PUSH2 0x3C6B PUSH1 0x26 DUP4 PUSH2 0x2F88 JUMP JUMPDEST SWAP2 POP PUSH2 0x3C76 DUP3 PUSH2 0x3C0F JUMP JUMPDEST PUSH1 0x40 DUP3 ADD SWAP1 POP SWAP2 SWAP1 POP JUMP JUMPDEST PUSH1 0x0 PUSH1 0x20 DUP3 ADD SWAP1 POP DUP2 DUP2 SUB PUSH1 0x0 DUP4 ADD MSTORE PUSH2 0x3C9A DUP2 PUSH2 0x3C5E JUMP JUMPDEST SWAP1 POP SWAP2 SWAP1 POP JUMP JUMPDEST PUSH32 0x50726573616C653A2043616E6E6F742077697468647261772073616C6520746F PUSH1 0x0 DUP3 ADD MSTORE PUSH32 0x6B656E20776974682074686973206D6574686F642C2075736520776974686472 PUSH1 0x20 DUP3 ADD MSTORE PUSH32 0x617753616C65546F6B656E282920696E73746561640000000000000000000000 PUSH1 0x40 DUP3 ADD MSTORE POP JUMP JUMPDEST PUSH1 0x0 PUSH2 0x3D23 PUSH1 0x55 DUP4 PUSH2 0x2F88 JUMP JUMPDEST SWAP2 POP PUSH2 0x3D2E DUP3 PUSH2 0x3CA1 JUMP JUMPDEST PUSH1 0x60 DUP3 ADD SWAP1 POP SWAP2 SWAP1 POP JUMP JUMPDEST PUSH1 0x0 PUSH1 0x20 DUP3 ADD SWAP1 POP DUP2 DUP2 SUB PUSH1 0x0 DUP4 ADD MSTORE PUSH2 0x3D52 DUP2 PUSH2 0x3D16 JUMP JUMPDEST SWAP1 POP SWAP2 SWAP1 POP JUMP JUMPDEST PUSH32 0x50726573616C653A2043616E6E6F742077697468647261772073616C6520746F PUSH1 0x0 DUP3 ADD MSTORE PUSH32 0x6B656E20776974682074686973206D6574686F642C2075736520776974686472 PUSH1 0x20 DUP3 ADD MSTORE PUSH32 0x6177416C6C53616C65546F6B656E282920696E73746561640000000000000000 PUSH1 0x40 DUP3 ADD MSTORE POP JUMP JUMPDEST PUSH1 0x0 PUSH2 0x3DDB PUSH1 0x58 DUP4 PUSH2 0x2F88 JUMP JUMPDEST SWAP2 POP PUSH2 0x3DE6 DUP3 PUSH2 0x3D59 JUMP JUMPDEST PUSH1 0x60 DUP3 ADD SWAP1 POP SWAP2 SWAP1 POP JUMP JUMPDEST PUSH1 0x0 PUSH1 0x20 DUP3 ADD SWAP1 POP DUP2 DUP2 SUB PUSH1 0x0 DUP4 ADD MSTORE PUSH2 0x3E0A DUP2 PUSH2 0x3DCE JUMP JUMPDEST SWAP1 POP SWAP2 SWAP1 POP JUMP JUMPDEST PUSH32 0x5061757361626C653A2070617573656400000000000000000000000000000000 PUSH1 0x0 DUP3 ADD MSTORE POP JUMP JUMPDEST PUSH1 0x0 PUSH2 0x3E47 PUSH1 0x10 DUP4 PUSH2 0x2F88 JUMP JUMPDEST SWAP2 POP PUSH2 0x3E52 DUP3 PUSH2 0x3E11 JUMP JUMPDEST PUSH1 0x20 DUP3 ADD SWAP1 POP SWAP2 SWAP1 POP JUMP JUMPDEST PUSH1 0x0 PUSH1 0x20 DUP3 ADD SWAP1 POP DUP2 DUP2 SUB PUSH1 0x0 DUP4 ADD MSTORE PUSH2 0x3E76 DUP2 PUSH2 0x3E3A JUMP JUMPDEST SWAP1 POP SWAP2 SWAP1 POP JUMP JUMPDEST PUSH1 0x0 PUSH1 0x60 DUP3 ADD SWAP1 POP PUSH2 0x3E92 PUSH1 0x0 DUP4 ADD DUP7 PUSH2 0x2F31 JUMP JUMPDEST PUSH2 0x3E9F PUSH1 0x20 DUP4 ADD DUP6 PUSH2 0x2F31 JUMP JUMPDEST PUSH2 0x3EAC PUSH1 0x40 DUP4 ADD DUP5 PUSH2 0x2CC7 JUMP JUMPDEST SWAP5 SWAP4 POP POP POP POP JUMP JUMPDEST PUSH2 0x3EBD DUP2 PUSH2 0x2CF1 JUMP JUMPDEST DUP2 EQ PUSH2 0x3EC8 JUMPI PUSH1 0x0 DUP1 REVERT JUMPDEST POP JUMP JUMPDEST PUSH1 0x0 DUP2 MLOAD SWAP1 POP PUSH2 0x3EDA DUP2 PUSH2 0x3EB4 JUMP JUMPDEST SWAP3 SWAP2 POP POP JUMP JUMPDEST PUSH1 0x0 PUSH1 0x20 DUP3 DUP5 SUB SLT ISZERO PUSH2 0x3EF6 JUMPI PUSH2 0x3EF5 PUSH2 0x2BEE JUMP JUMPDEST JUMPDEST PUSH1 0x0 PUSH2 0x3F04 DUP5 DUP3 DUP6 ADD PUSH2 0x3ECB JUMP JUMPDEST SWAP2 POP POP SWAP3 SWAP2 POP POP JUMP JUMPDEST PUSH32 0x5361666545524332303A204552433230206F7065726174696F6E20646964206E PUSH1 0x0 DUP3 ADD MSTORE PUSH32 0x6F74207375636365656400000000000000000000000000000000000000000000 PUSH1 0x20 DUP3 ADD MSTORE POP JUMP JUMPDEST PUSH1 0x0 PUSH2 0x3F69 PUSH1 0x2A DUP4 PUSH2 0x2F88 JUMP JUMPDEST SWAP2 POP PUSH2 0x3F74 DUP3 PUSH2 0x3F0D JUMP JUMPDEST PUSH1 0x40 DUP3 ADD SWAP1 POP SWAP2 SWAP1 POP JUMP JUMPDEST PUSH1 0x0 PUSH1 0x20 DUP3 ADD SWAP1 POP DUP2 DUP2 SUB PUSH1 0x0 DUP4 ADD MSTORE PUSH2 0x3F98 DUP2 PUSH2 0x3F5C JUMP JUMPDEST SWAP1 POP SWAP2 SWAP1 POP JUMP JUMPDEST PUSH32 0x5061757361626C653A206E6F7420706175736564000000000000000000000000 PUSH1 0x0 DUP3 ADD MSTORE POP JUMP JUMPDEST PUSH1 0x0 PUSH2 0x3FD5 PUSH1 0x14 DUP4 PUSH2 0x2F88 JUMP JUMPDEST SWAP2 POP PUSH2 0x3FE0 DUP3 PUSH2 0x3F9F JUMP JUMPDEST PUSH1 0x20 DUP3 ADD SWAP1 POP SWAP2 SWAP1 POP JUMP JUMPDEST PUSH1 0x0 PUSH1 0x20 DUP3 ADD SWAP1 POP DUP2 DUP2 SUB PUSH1 0x0 DUP4 ADD MSTORE PUSH2 0x4004 DUP2 PUSH2 0x3FC8 JUMP JUMPDEST SWAP1 POP SWAP2 SWAP1 POP JUMP JUMPDEST PUSH32 0x416464726573733A20696E73756666696369656E742062616C616E636520666F PUSH1 0x0 DUP3 ADD MSTORE PUSH32 0x722063616C6C0000000000000000000000000000000000000000000000000000 PUSH1 0x20 DUP3 ADD MSTORE POP JUMP JUMPDEST PUSH1 0x0 PUSH2 0x4067 PUSH1 0x26 DUP4 PUSH2 0x2F88 JUMP JUMPDEST SWAP2 POP PUSH2 0x4072 DUP3 PUSH2 0x400B JUMP JUMPDEST PUSH1 0x40 DUP3 ADD SWAP1 POP SWAP2 SWAP1 POP JUMP JUMPDEST PUSH1 0x0 PUSH1 0x20 DUP3 ADD SWAP1 POP DUP2 DUP2 SUB PUSH1 0x0 DUP4 ADD MSTORE PUSH2 0x4096 DUP2 PUSH2 0x405A JUMP JUMPDEST SWAP1 POP SWAP2 SWAP1 POP JUMP JUMPDEST PUSH32 0x416464726573733A2063616C6C20746F206E6F6E2D636F6E7472616374000000 PUSH1 0x0 DUP3 ADD MSTORE POP JUMP JUMPDEST PUSH1 0x0 PUSH2 0x40D3 PUSH1 0x1D DUP4 PUSH2 0x2F88 JUMP JUMPDEST SWAP2 POP PUSH2 0x40DE DUP3 PUSH2 0x409D JUMP JUMPDEST PUSH1 0x20 DUP3 ADD SWAP1 POP SWAP2 SWAP1 POP JUMP JUMPDEST PUSH1 0x0 PUSH1 0x20 DUP3 ADD SWAP1 POP DUP2 DUP2 SUB PUSH1 0x0 DUP4 ADD MSTORE PUSH2 0x4102 DUP2 PUSH2 0x40C6 JUMP JUMPDEST SWAP1 POP SWAP2 SWAP1 POP JUMP JUMPDEST PUSH1 0x0 DUP2 MLOAD SWAP1 POP SWAP2 SWAP1 POP JUMP JUMPDEST PUSH1 0x0 DUP2 SWAP1 POP SWAP3 SWAP2 POP POP JUMP JUMPDEST PUSH1 0x0 JUMPDEST DUP4 DUP2 LT ISZERO PUSH2 0x413D JUMPI DUP1 DUP3 ADD MLOAD DUP2 DUP5 ADD MSTORE PUSH1 0x20 DUP2 ADD SWAP1 POP PUSH2 0x4122 JUMP JUMPDEST PUSH1 0x0 DUP5 DUP5 ADD MSTORE POP POP POP POP JUMP JUMPDEST PUSH1 0x0 PUSH2 0x4154 DUP3 PUSH2 0x4109 JUMP JUMPDEST PUSH2 0x415E DUP2 DUP6 PUSH2 0x4114 JUMP JUMPDEST SWAP4 POP PUSH2 0x416E DUP2 DUP6 PUSH1 0x20 DUP7 ADD PUSH2 0x411F JUMP JUMPDEST DUP1 DUP5 ADD SWAP2 POP POP SWAP3 SWAP2 POP POP JUMP JUMPDEST PUSH1 0x0 PUSH2 0x4186 DUP3 DUP5 PUSH2 0x4149 JUMP JUMPDEST SWAP2 POP DUP2 SWAP1 POP SWAP3 SWAP2 POP POP JUMP JUMPDEST PUSH1 0x0 DUP2 MLOAD SWAP1 POP SWAP2 SWAP1 POP JUMP JUMPDEST PUSH1 0x0 PUSH2 0x41A7 DUP3 PUSH2 0x4191 JUMP JUMPDEST PUSH2 0x41B1 DUP2 DUP6 PUSH2 0x2F88 JUMP JUMPDEST SWAP4 POP PUSH2 0x41C1 DUP2 DUP6 PUSH1 0x20 DUP7 ADD PUSH2 0x411F JUMP JUMPDEST PUSH2 0x41CA DUP2 PUSH2 0x2DAF JUMP JUMPDEST DUP5 ADD SWAP2 POP POP SWAP3 SWAP2 POP POP JUMP JUMPDEST PUSH1 0x0 PUSH1 0x20 DUP3 ADD SWAP1 POP DUP2 DUP2 SUB PUSH1 0x0 DUP4 ADD MSTORE PUSH2 0x41EF DUP2 DUP5 PUSH2 0x419C JUMP JUMPDEST SWAP1 POP SWAP3 SWAP2 POP POP JUMP INVALID LOG2 PUSH5 0x6970667358 0x22 SLT KECCAK256 0xAE BYTE PUSH31 0x456AFDF351DA8B7C481DE778B51C8C4B352599F08414DCA6CFFE77E99C6473 PUSH16 0x6C634300081500330000000000000000 "
				},
				"gasEstimates": {
					"creation": {
						"codeDepositCost": "3388200",
						"executionCost": "infinite",
						"totalCost": "infinite"
					},
					"external": {
						"addWhiteListedToken(address,uint256[4])": "infinite",
						"buyToken(address,uint256)": "infinite",
						"buyersAmount(address)": "5172",
						"getCurrentTier()": "440",
						"getTokenAmount(address,uint256)": "infinite",
						"isUnlockingStarted()": "2584",
						"maxBuyLimit()": "2563",
						"minBuyLimit()": "2562",
						"owner()": "2612",
						"pauseContract()": "infinite",
						"paused()": "2663",
						"presaleEndTime()": "2498",
						"presaleStartTime()": "2474",
						"rate(uint256)": "infinite",
						"renounceOwnership()": "30463",
						"saleToken()": "2647",
						"saleTokenDec()": "2496",
						"setMaxBuyLimit(uint256)": "24893",
						"setMinBuyLimit(uint256)": "24872",
						"setSaleTokenParams(address,uint256)": "infinite",
						"startAndSetPresaleEndTime(uint256)": "46985",
						"startUnlocking()": "31023",
						"stopUnlocking()": "31040",
						"tokenPrices(address,uint256)": "infinite",
						"tokenWL(address)": "2913",
						"totalTokensSold()": "2475",
						"totalTokensforSale()": "2474",
						"transferOwnership(address)": "30786",
						"unpauseContract()": "infinite",
						"updateEthRate(uint256[4])": "infinite",
						"updateTime(uint256)": "24827",
						"updateTokenRate(address,uint256[4])": "infinite",
						"withdraw(address,uint256)": "infinite",
						"withdrawAll(address)": "infinite",
						"withdrawAllSaleToken()": "infinite",
						"withdrawCurrency(uint256)": "infinite",
						"withdrawSaleToken(uint256)": "infinite",
						"withdrawToken()": "infinite"
					}
				},
				"methodIdentifiers": {
					"addWhiteListedToken(address,uint256[4])": "65617db1",
					"buyToken(address,uint256)": "68f8fc10",
					"buyersAmount(address)": "54a9f102",
					"getCurrentTier()": "7412c223",
					"getTokenAmount(address,uint256)": "115ece4c",
					"isUnlockingStarted()": "3848a771",
					"maxBuyLimit()": "6aa5b37f",
					"minBuyLimit()": "b81df742",
					"owner()": "8da5cb5b",
					"pauseContract()": "439766ce",
					"paused()": "5c975abb",
					"presaleEndTime()": "249b7c19",
					"presaleStartTime()": "a82524b2",
					"rate(uint256)": "e7ee6ad6",
					"renounceOwnership()": "715018a6",
					"saleToken()": "e985e367",
					"saleTokenDec()": "ace1741c",
					"setMaxBuyLimit(uint256)": "757765f8",
					"setMinBuyLimit(uint256)": "99b77032",
					"setSaleTokenParams(address,uint256)": "89e6ce1e",
					"startAndSetPresaleEndTime(uint256)": "5b10bd6a",
					"startUnlocking()": "2a95c24c",
					"stopUnlocking()": "b5b0763c",
					"tokenPrices(address,uint256)": "683b3b97",
					"tokenWL(address)": "8ce0b9d2",
					"totalTokensSold()": "63b20117",
					"totalTokensforSale()": "6bcedf9c",
					"transferOwnership(address)": "f2fde38b",
					"unpauseContract()": "b33712c5",
					"updateEthRate(uint256[4])": "ee774ccd",
					"updateTime(uint256)": "6c59bd0c",
					"updateTokenRate(address,uint256[4])": "cae70c70",
					"withdraw(address,uint256)": "f3fef3a3",
					"withdrawAll(address)": "fa09e630",
					"withdrawAllSaleToken()": "fb00f3fc",
					"withdrawCurrency(uint256)": "3c00a36c",
					"withdrawSaleToken(uint256)": "ded441c2",
					"withdrawToken()": "ca628c78"
				}
			},
			"storageLayout": {
				"storage": [
					{
						"astId": 203,
						"contract": "contracts/Presale.sol:Presale",
						"label": "_owner",
						"offset": 0,
						"slot": "0",
						"type": "t_address"
					},
					{
						"astId": 17,
						"contract": "contracts/Presale.sol:Presale",
						"label": "_paused",
						"offset": 20,
						"slot": "0",
						"type": "t_bool"
					},
					{
						"astId": 799,
						"contract": "contracts/Presale.sol:Presale",
						"label": "rate",
						"offset": 0,
						"slot": "1",
						"type": "t_array(t_uint256)4_storage"
					},
					{
						"astId": 801,
						"contract": "contracts/Presale.sol:Presale",
						"label": "saleToken",
						"offset": 0,
						"slot": "5",
						"type": "t_address"
					},
					{
						"astId": 803,
						"contract": "contracts/Presale.sol:Presale",
						"label": "saleTokenDec",
						"offset": 0,
						"slot": "6",
						"type": "t_uint256"
					},
					{
						"astId": 805,
						"contract": "contracts/Presale.sol:Presale",
						"label": "totalTokensforSale",
						"offset": 0,
						"slot": "7",
						"type": "t_uint256"
					},
					{
						"astId": 807,
						"contract": "contracts/Presale.sol:Presale",
						"label": "maxBuyLimit",
						"offset": 0,
						"slot": "8",
						"type": "t_uint256"
					},
					{
						"astId": 809,
						"contract": "contracts/Presale.sol:Presale",
						"label": "minBuyLimit",
						"offset": 0,
						"slot": "9",
						"type": "t_uint256"
					},
					{
						"astId": 813,
						"contract": "contracts/Presale.sol:Presale",
						"label": "tokenWL",
						"offset": 0,
						"slot": "10",
						"type": "t_mapping(t_address,t_bool)"
					},
					{
						"astId": 819,
						"contract": "contracts/Presale.sol:Presale",
						"label": "tokenPrices",
						"offset": 0,
						"slot": "11",
						"type": "t_mapping(t_address,t_array(t_uint256)4_storage)"
					},
					{
						"astId": 821,
						"contract": "contracts/Presale.sol:Presale",
						"label": "presaleStartTime",
						"offset": 0,
						"slot": "12",
						"type": "t_uint256"
					},
					{
						"astId": 823,
						"contract": "contracts/Presale.sol:Presale",
						"label": "presaleEndTime",
						"offset": 0,
						"slot": "13",
						"type": "t_uint256"
					},
					{
						"astId": 825,
						"contract": "contracts/Presale.sol:Presale",
						"label": "isUnlockingStarted",
						"offset": 0,
						"slot": "14",
						"type": "t_bool"
					},
					{
						"astId": 830,
						"contract": "contracts/Presale.sol:Presale",
						"label": "buyersAmount",
						"offset": 0,
						"slot": "15",
						"type": "t_mapping(t_address,t_struct(BuyerTokenDetails)837_storage)"
					},
					{
						"astId": 832,
						"contract": "contracts/Presale.sol:Presale",
						"label": "totalTokensSold",
						"offset": 0,
						"slot": "16",
						"type": "t_uint256"
					}
				],
				"types": {
					"t_address": {
						"encoding": "inplace",
						"label": "address",
						"numberOfBytes": "20"
					},
					"t_array(t_uint256)4_storage": {
						"base": "t_uint256",
						"encoding": "inplace",
						"label": "uint256[4]",
						"numberOfBytes": "128"
					},
					"t_bool": {
						"encoding": "inplace",
						"label": "bool",
						"numberOfBytes": "1"
					},
					"t_mapping(t_address,t_array(t_uint256)4_storage)": {
						"encoding": "mapping",
						"key": "t_address",
						"label": "mapping(address => uint256[4])",
						"numberOfBytes": "32",
						"value": "t_array(t_uint256)4_storage"
					},
					"t_mapping(t_address,t_bool)": {
						"encoding": "mapping",
						"key": "t_address",
						"label": "mapping(address => bool)",
						"numberOfBytes": "32",
						"value": "t_bool"
					},
					"t_mapping(t_address,t_struct(BuyerTokenDetails)837_storage)": {
						"encoding": "mapping",
						"key": "t_address",
						"label": "mapping(address => struct Presale.BuyerTokenDetails)",
						"numberOfBytes": "32",
						"value": "t_struct(BuyerTokenDetails)837_storage"
					},
					"t_struct(BuyerTokenDetails)837_storage": {
						"encoding": "inplace",
						"label": "struct Presale.BuyerTokenDetails",
						"members": [
							{
								"astId": 834,
								"contract": "contracts/Presale.sol:Presale",
								"label": "amount",
								"offset": 0,
								"slot": "0",
								"type": "t_uint256"
							},
							{
								"astId": 836,
								"contract": "contracts/Presale.sol:Presale",
								"label": "isClaimed",
								"offset": 0,
								"slot": "1",
								"type": "t_bool"
							}
						],
						"numberOfBytes": "64"
					},
					"t_uint256": {
						"encoding": "inplace",
						"label": "uint256",
						"numberOfBytes": "32"
					}
				}
			},
			"userdoc": {
				"kind": "user",
				"methods": {},
				"version": 1
			}
		}
	}
}