{
	"contracts/Validator.sol": {
		"ValidatorDepositContract": {
			"abi": [
				{
					"inputs": [],
					"stateMutability": "nonpayable",
					"type": "constructor"
				},
				{
					"inputs": [
						{
							"internalType": "address",
							"name": "owner",
							"type": "address"
						}
					],
					"name": "OwnableInvalidOwner",
					"type": "error"
				},
				{
					"inputs": [
						{
							"internalType": "address",
							"name": "account",
							"type": "address"
						}
					],
					"name": "OwnableUnauthorizedAccount",
					"type": "error"
				},
				{
					"anonymous": false,
					"inputs": [
						{
							"indexed": true,
							"internalType": "address",
							"name": "previousOwner",
							"type": "address"
						},
						{
							"indexed": true,
							"internalType": "address",
							"name": "newOwner",
							"type": "address"
						}
					],
					"name": "OwnershipTransferred",
					"type": "event"
				},
				{
					"anonymous": false,
					"inputs": [
						{
							"indexed": false,
							"internalType": "address",
							"name": "account",
							"type": "address"
						}
					],
					"name": "Paused",
					"type": "event"
				},
				{
					"anonymous": false,
					"inputs": [
						{
							"indexed": false,
							"internalType": "address",
							"name": "account",
							"type": "address"
						}
					],
					"name": "Unpaused",
					"type": "event"
				},
				{
					"inputs": [
						{
							"internalType": "uint256",
							"name": "",
							"type": "uint256"
						}
					],
					"name": "allValidatorNodes",
					"outputs": [
						{
							"internalType": "address",
							"name": "",
							"type": "address"
						}
					],
					"stateMutability": "view",
					"type": "function"
				},
				{
					"inputs": [
						{
							"internalType": "address",
							"name": "validatorNodeAddress",
							"type": "address"
						}
					],
					"name": "deleteValidatorNode",
					"outputs": [],
					"stateMutability": "nonpayable",
					"type": "function"
				},
				{
					"inputs": [],
					"name": "deposit",
					"outputs": [],
					"stateMutability": "payable",
					"type": "function"
				},
				{
					"inputs": [
						{
							"internalType": "address",
							"name": "",
							"type": "address"
						}
					],
					"name": "depositedBalances",
					"outputs": [
						{
							"internalType": "uint256",
							"name": "",
							"type": "uint256"
						}
					],
					"stateMutability": "view",
					"type": "function"
				},
				{
					"inputs": [],
					"name": "edxAccount",
					"outputs": [
						{
							"internalType": "address",
							"name": "",
							"type": "address"
						}
					],
					"stateMutability": "view",
					"type": "function"
				},
				{
					"inputs": [],
					"name": "fetchAllValidatorNodeDetails",
					"outputs": [
						{
							"internalType": "address[]",
							"name": "",
							"type": "address[]"
						},
						{
							"internalType": "address[]",
							"name": "",
							"type": "address[]"
						},
						{
							"internalType": "uint256[]",
							"name": "",
							"type": "uint256[]"
						},
						{
							"internalType": "uint256[]",
							"name": "",
							"type": "uint256[]"
						}
					],
					"stateMutability": "view",
					"type": "function"
				},
				{
					"inputs": [
						{
							"internalType": "address",
							"name": "validatorNodeAddress",
							"type": "address"
						}
					],
					"name": "getValidatorNodeDetails",
					"outputs": [
						{
							"internalType": "address",
							"name": "",
							"type": "address"
						},
						{
							"internalType": "uint256",
							"name": "",
							"type": "uint256"
						},
						{
							"internalType": "uint256",
							"name": "",
							"type": "uint256"
						}
					],
					"stateMutability": "view",
					"type": "function"
				},
				{
					"inputs": [
						{
							"internalType": "address",
							"name": "validatorNodeAddress",
							"type": "address"
						},
						{
							"internalType": "address",
							"name": "validatorAccountAddress",
							"type": "address"
						}
					],
					"name": "linkValidatorNode",
					"outputs": [],
					"stateMutability": "nonpayable",
					"type": "function"
				},
				{
					"inputs": [],
					"name": "owner",
					"outputs": [
						{
							"internalType": "address",
							"name": "",
							"type": "address"
						}
					],
					"stateMutability": "view",
					"type": "function"
				},
				{
					"inputs": [],
					"name": "pauseContract",
					"outputs": [],
					"stateMutability": "nonpayable",
					"type": "function"
				},
				{
					"inputs": [],
					"name": "paused",
					"outputs": [
						{
							"internalType": "bool",
							"name": "",
							"type": "bool"
						}
					],
					"stateMutability": "view",
					"type": "function"
				},
				{
					"inputs": [],
					"name": "renounceOwnership",
					"outputs": [],
					"stateMutability": "nonpayable",
					"type": "function"
				},
				{
					"inputs": [
						{
							"internalType": "address",
							"name": "_account",
							"type": "address"
						}
					],
					"name": "setEdxAccount",
					"outputs": [],
					"stateMutability": "nonpayable",
					"type": "function"
				},
				{
					"inputs": [
						{
							"internalType": "uint256",
							"name": "_feePercentage",
							"type": "uint256"
						}
					],
					"name": "setWithdrawalFeePercentage",
					"outputs": [],
					"stateMutability": "nonpayable",
					"type": "function"
				},
				{
					"inputs": [
						{
							"internalType": "address",
							"name": "",
							"type": "address"
						}
					],
					"name": "totalDepositedAmount",
					"outputs": [
						{
							"internalType": "uint256",
							"name": "",
							"type": "uint256"
						}
					],
					"stateMutability": "view",
					"type": "function"
				},
				{
					"inputs": [
						{
							"internalType": "address",
							"name": "newOwner",
							"type": "address"
						}
					],
					"name": "transferOwnership",
					"outputs": [],
					"stateMutability": "nonpayable",
					"type": "function"
				},
				{
					"inputs": [],
					"name": "unpauseContract",
					"outputs": [],
					"stateMutability": "nonpayable",
					"type": "function"
				},
				{
					"inputs": [
						{
							"internalType": "address",
							"name": "",
							"type": "address"
						}
					],
					"name": "validatorNodeToAccount",
					"outputs": [
						{
							"internalType": "address",
							"name": "",
							"type": "address"
						}
					],
					"stateMutability": "view",
					"type": "function"
				},
				{
					"inputs": [],
					"name": "withdraw",
					"outputs": [],
					"stateMutability": "nonpayable",
					"type": "function"
				},
				{
					"inputs": [],
					"name": "withdrawalFeePercentage",
					"outputs": [
						{
							"internalType": "uint256",
							"name": "",
							"type": "uint256"
						}
					],
					"stateMutability": "view",
					"type": "function"
				}
			],
			"devdoc": {
				"errors": {
					"OwnableInvalidOwner(address)": [
						{
							"details": "The owner is not a valid owner account. (eg. `address(0)`)"
						}
					],
					"OwnableUnauthorizedAccount(address)": [
						{
							"details": "The caller account is not authorized to perform an operation."
						}
					]
				},
				"events": {
					"Paused(address)": {
						"details": "Emitted when the pause is triggered by `account`."
					},
					"Unpaused(address)": {
						"details": "Emitted when the pause is lifted by `account`."
					}
				},
				"kind": "dev",
				"methods": {
					"owner()": {
						"details": "Returns the address of the current owner."
					},
					"paused()": {
						"details": "Returns true if the contract is paused, and false otherwise."
					},
					"renounceOwnership()": {
						"details": "Leaves the contract without owner. It will not be possible to call `onlyOwner` functions. Can only be called by the current owner. NOTE: Renouncing ownership will leave the contract without an owner, thereby disabling any functionality that is only available to the owner."
					},
					"transferOwnership(address)": {
						"details": "Transfers ownership of the contract to a new account (`newOwner`). Can only be called by the current owner."
					}
				},
				"version": 1
			},
			"evm": {
				"assembly": "    /* \"contracts/Validator.sol\":231:7100  contract ValidatorDepositContract is ReentrancyGuard, Ownable, Pausable {... */\n  mstore(0x40, 0x80)\n    /* \"contracts/Validator.sol\":877:879  10 */\n  0x0a\n    /* \"contracts/Validator.sol\":836:879  uint256 public withdrawalFeePercentage = 10 */\n  0x06\n  sstore\n    /* \"contracts/Validator.sol\":943:944  0 */\n  0x00\n    /* \"contracts/Validator.sol\":907:945  address public edxAccount = address(0) */\n  0x07\n  exp(0x0100, 0x00)\n  dup2\n  sload\n  dup2\n  0xffffffffffffffffffffffffffffffffffffffff\n  mul\n  not\n  and\n  swap1\n  dup4\n  0xffffffffffffffffffffffffffffffffffffffff\n  and\n  mul\n  or\n  swap1\n  sstore\n  pop\n    /* \"contracts/Validator.sol\":978:1014  constructor() Ownable(msg.sender) {} */\n  callvalue\n  dup1\n  iszero\n  tag_1\n  jumpi\n  0x00\n  dup1\n  revert\ntag_1:\n  pop\n    /* \"contracts/Validator.sol\":1000:1010  msg.sender */\n  caller\n    /* \"@openzeppelin/contracts/security/ReentrancyGuard.sol\":1716:1717  1 */\n  0x01\n    /* \"@openzeppelin/contracts/security/ReentrancyGuard.sol\":1821:1828  _status */\n  0x00\n    /* \"@openzeppelin/contracts/security/ReentrancyGuard.sol\":1821:1843  _status = _NOT_ENTERED */\n  dup2\n  swap1\n  sstore\n  pop\n    /* \"@openzeppelin/contracts/access/Ownable.sol\":1297:1298  0 */\n  0x00\n    /* \"@openzeppelin/contracts/access/Ownable.sol\":1273:1299  initialOwner == address(0) */\n  0xffffffffffffffffffffffffffffffffffffffff\n  and\n    /* \"@openzeppelin/contracts/access/Ownable.sol\":1273:1285  initialOwner */\n  dup2\n    /* \"@openzeppelin/contracts/access/Ownable.sol\":1273:1299  initialOwner == address(0) */\n  0xffffffffffffffffffffffffffffffffffffffff\n  and\n  sub\n    /* \"@openzeppelin/contracts/access/Ownable.sol\":1269:1364  if (initialOwner == address(0)) {... */\n  tag_8\n  jumpi\n    /* \"@openzeppelin/contracts/access/Ownable.sol\":1350:1351  0 */\n  0x00\n    /* \"@openzeppelin/contracts/access/Ownable.sol\":1322:1353  OwnableInvalidOwner(address(0)) */\n  mload(0x40)\n  0x1e4fbdf700000000000000000000000000000000000000000000000000000000\n  dup2\n  mstore\n  0x04\n  add\n  tag_9\n  swap2\n  swap1\n  tag_10\n  jump\t// in\ntag_9:\n  mload(0x40)\n  dup1\n  swap2\n  sub\n  swap1\n  revert\n    /* \"@openzeppelin/contracts/access/Ownable.sol\":1269:1364  if (initialOwner == address(0)) {... */\ntag_8:\n    /* \"@openzeppelin/contracts/access/Ownable.sol\":1373:1405  _transferOwnership(initialOwner) */\n  tag_11\n    /* \"@openzeppelin/contracts/access/Ownable.sol\":1392:1404  initialOwner */\n  dup2\n    /* \"@openzeppelin/contracts/access/Ownable.sol\":1373:1391  _transferOwnership */\n  shl(0x20, tag_12)\n    /* \"@openzeppelin/contracts/access/Ownable.sol\":1373:1405  _transferOwnership(initialOwner) */\n  0x20\n  shr\n  jump\t// in\ntag_11:\n    /* \"@openzeppelin/contracts/access/Ownable.sol\":1225:1412  constructor(address initialOwner) {... */\n  pop\n    /* \"@openzeppelin/contracts/security/Pausable.sol\":1006:1011  false */\n  0x00\n    /* \"@openzeppelin/contracts/security/Pausable.sol\":996:1003  _paused */\n  0x01\n  0x14\n    /* \"@openzeppelin/contracts/security/Pausable.sol\":996:1011  _paused = false */\n  0x0100\n  exp\n  dup2\n  sload\n  dup2\n  0xff\n  mul\n  not\n  and\n  swap1\n  dup4\n  iszero\n  iszero\n  mul\n  or\n  swap1\n  sstore\n  pop\n    /* \"contracts/Validator.sol\":231:7100  contract ValidatorDepositContract is ReentrancyGuard, Ownable, Pausable {... */\n  jump(tag_15)\n    /* \"@openzeppelin/contracts/access/Ownable.sol\":2912:3099  function _transferOwnership(address newOwner) internal virtual {... */\ntag_12:\n    /* \"@openzeppelin/contracts/access/Ownable.sol\":2985:3001  address oldOwner */\n  0x00\n    /* \"@openzeppelin/contracts/access/Ownable.sol\":3004:3010  _owner */\n  0x01\n  0x00\n  swap1\n  sload\n  swap1\n  0x0100\n  exp\n  swap1\n  div\n  0xffffffffffffffffffffffffffffffffffffffff\n  and\n    /* \"@openzeppelin/contracts/access/Ownable.sol\":2985:3010  address oldOwner = _owner */\n  swap1\n  pop\n    /* \"@openzeppelin/contracts/access/Ownable.sol\":3029:3037  newOwner */\n  dup2\n    /* \"@openzeppelin/contracts/access/Ownable.sol\":3020:3026  _owner */\n  0x01\n  0x00\n    /* \"@openzeppelin/contracts/access/Ownable.sol\":3020:3037  _owner = newOwner */\n  0x0100\n  exp\n  dup2\n  sload\n  dup2\n  0xffffffffffffffffffffffffffffffffffffffff\n  mul\n  not\n  and\n  swap1\n  dup4\n  0xffffffffffffffffffffffffffffffffffffffff\n  and\n  mul\n  or\n  swap1\n  sstore\n  pop\n    /* \"@openzeppelin/contracts/access/Ownable.sol\":3083:3091  newOwner */\n  dup2\n    /* \"@openzeppelin/contracts/access/Ownable.sol\":3052:3092  OwnershipTransferred(oldOwner, newOwner) */\n  0xffffffffffffffffffffffffffffffffffffffff\n  and\n    /* \"@openzeppelin/contracts/access/Ownable.sol\":3073:3081  oldOwner */\n  dup2\n    /* \"@openzeppelin/contracts/access/Ownable.sol\":3052:3092  OwnershipTransferred(oldOwner, newOwner) */\n  0xffffffffffffffffffffffffffffffffffffffff\n  and\n  0x8be0079c531659141344cd1fd0a4f28419497f9722a3daafe3b4186f6b6457e0\n  mload(0x40)\n  mload(0x40)\n  dup1\n  swap2\n  sub\n  swap1\n  log3\n    /* \"@openzeppelin/contracts/access/Ownable.sol\":2975:3099  {... */\n  pop\n    /* \"@openzeppelin/contracts/access/Ownable.sol\":2912:3099  function _transferOwnership(address newOwner) internal virtual {... */\n  pop\n  jump\t// out\n    /* \"#utility.yul\":7:133   */\ntag_17:\n    /* \"#utility.yul\":44:51   */\n  0x00\n    /* \"#utility.yul\":84:126   */\n  0xffffffffffffffffffffffffffffffffffffffff\n    /* \"#utility.yul\":77:82   */\n  dup3\n    /* \"#utility.yul\":73:127   */\n  and\n    /* \"#utility.yul\":62:127   */\n  swap1\n  pop\n    /* \"#utility.yul\":7:133   */\n  swap2\n  swap1\n  pop\n  jump\t// out\n    /* \"#utility.yul\":139:235   */\ntag_18:\n    /* \"#utility.yul\":176:183   */\n  0x00\n    /* \"#utility.yul\":205:229   */\n  tag_23\n    /* \"#utility.yul\":223:228   */\n  dup3\n    /* \"#utility.yul\":205:229   */\n  tag_17\n  jump\t// in\ntag_23:\n    /* \"#utility.yul\":194:229   */\n  swap1\n  pop\n    /* \"#utility.yul\":139:235   */\n  swap2\n  swap1\n  pop\n  jump\t// out\n    /* \"#utility.yul\":241:359   */\ntag_19:\n    /* \"#utility.yul\":328:352   */\n  tag_25\n    /* \"#utility.yul\":346:351   */\n  dup2\n    /* \"#utility.yul\":328:352   */\n  tag_18\n  jump\t// in\ntag_25:\n    /* \"#utility.yul\":323:326   */\n  dup3\n    /* \"#utility.yul\":316:353   */\n  mstore\n    /* \"#utility.yul\":241:359   */\n  pop\n  pop\n  jump\t// out\n    /* \"#utility.yul\":365:587   */\ntag_10:\n    /* \"#utility.yul\":458:462   */\n  0x00\n    /* \"#utility.yul\":496:498   */\n  0x20\n    /* \"#utility.yul\":485:494   */\n  dup3\n    /* \"#utility.yul\":481:499   */\n  add\n    /* \"#utility.yul\":473:499   */\n  swap1\n  pop\n    /* \"#utility.yul\":509:580   */\n  tag_27\n    /* \"#utility.yul\":577:578   */\n  0x00\n    /* \"#utility.yul\":566:575   */\n  dup4\n    /* \"#utility.yul\":562:579   */\n  add\n    /* \"#utility.yul\":553:559   */\n  dup5\n    /* \"#utility.yul\":509:580   */\n  tag_19\n  jump\t// in\ntag_27:\n    /* \"#utility.yul\":365:587   */\n  swap3\n  swap2\n  pop\n  pop\n  jump\t// out\n    /* \"contracts/Validator.sol\":231:7100  contract ValidatorDepositContract is ReentrancyGuard, Ownable, Pausable {... */\ntag_15:\n  dataSize(sub_0)\n  dup1\n  dataOffset(sub_0)\n  0x00\n  codecopy\n  0x00\n  return\nstop\n\nsub_0: assembly {\n        /* \"contracts/Validator.sol\":231:7100  contract ValidatorDepositContract is ReentrancyGuard, Ownable, Pausable {... */\n      mstore(0x40, 0x80)\n      jumpi(tag_1, lt(calldatasize, 0x04))\n      shr(0xe0, calldataload(0x00))\n      dup1\n      0x78922c8f\n      gt\n      tag_22\n      jumpi\n      dup1\n      0xb33712c5\n      gt\n      tag_23\n      jumpi\n      dup1\n      0xb33712c5\n      eq\n      tag_17\n      jumpi\n      dup1\n      0xb5e1302e\n      eq\n      tag_18\n      jumpi\n      dup1\n      0xbb0a43bc\n      eq\n      tag_19\n      jumpi\n      dup1\n      0xd0e30db0\n      eq\n      tag_20\n      jumpi\n      dup1\n      0xf2fde38b\n      eq\n      tag_21\n      jumpi\n      jump(tag_1)\n    tag_23:\n      dup1\n      0x78922c8f\n      eq\n      tag_12\n      jumpi\n      dup1\n      0x7d995311\n      eq\n      tag_13\n      jumpi\n      dup1\n      0x7da830b4\n      eq\n      tag_14\n      jumpi\n      dup1\n      0x8da5cb5b\n      eq\n      tag_15\n      jumpi\n      dup1\n      0xa7d77ce5\n      eq\n      tag_16\n      jumpi\n      jump(tag_1)\n    tag_22:\n      dup1\n      0x439766ce\n      gt\n      tag_24\n      jumpi\n      dup1\n      0x439766ce\n      eq\n      tag_7\n      jumpi\n      dup1\n      0x5c975abb\n      eq\n      tag_8\n      jumpi\n      dup1\n      0x5fb0ea90\n      eq\n      tag_9\n      jumpi\n      dup1\n      0x6ca6d88e\n      eq\n      tag_10\n      jumpi\n      dup1\n      0x715018a6\n      eq\n      tag_11\n      jumpi\n      jump(tag_1)\n    tag_24:\n      dup1\n      0x03a2c9e2\n      eq\n      tag_2\n      jumpi\n      dup1\n      0x22df93ba\n      eq\n      tag_3\n      jumpi\n      dup1\n      0x33deea05\n      eq\n      tag_4\n      jumpi\n      dup1\n      0x3ccfd60b\n      eq\n      tag_5\n      jumpi\n      dup1\n      0x3ed0eee4\n      eq\n      tag_6\n      jumpi\n    tag_1:\n      0x00\n      dup1\n      revert\n        /* \"contracts/Validator.sol\":3035:4366  function deleteValidatorNode(address validatorNodeAddress) external onlyOwner {... */\n    tag_2:\n      callvalue\n      dup1\n      iszero\n      tag_25\n      jumpi\n      0x00\n      dup1\n      revert\n    tag_25:\n      pop\n      tag_26\n      0x04\n      dup1\n      calldatasize\n      sub\n      dup2\n      add\n      swap1\n      tag_27\n      swap2\n      swap1\n      tag_28\n      jump\t// in\n    tag_27:\n      tag_29\n      jump\t// in\n    tag_26:\n      stop\n        /* \"contracts/Validator.sol\":2577:2986  function linkValidatorNode(address validatorNodeAddress, address validatorAccountAddress) external onlyOwner{... */\n    tag_3:\n      callvalue\n      dup1\n      iszero\n      tag_30\n      jumpi\n      0x00\n      dup1\n      revert\n    tag_30:\n      pop\n      tag_31\n      0x04\n      dup1\n      calldatasize\n      sub\n      dup2\n      add\n      swap1\n      tag_32\n      swap2\n      swap1\n      tag_33\n      jump\t// in\n    tag_32:\n      tag_34\n      jump\t// in\n    tag_31:\n      stop\n        /* \"contracts/Validator.sol\":907:945  address public edxAccount = address(0) */\n    tag_4:\n      callvalue\n      dup1\n      iszero\n      tag_35\n      jumpi\n      0x00\n      dup1\n      revert\n    tag_35:\n      pop\n      tag_36\n      tag_37\n      jump\t// in\n    tag_36:\n      mload(0x40)\n      tag_38\n      swap2\n      swap1\n      tag_39\n      jump\t// in\n    tag_38:\n      mload(0x40)\n      dup1\n      swap2\n      sub\n      swap1\n      return\n        /* \"contracts/Validator.sol\":1826:2477  function withdraw() external nonReentrant whenNotPaused{... */\n    tag_5:\n      callvalue\n      dup1\n      iszero\n      tag_40\n      jumpi\n      0x00\n      dup1\n      revert\n    tag_40:\n      pop\n      tag_41\n      tag_42\n      jump\t// in\n    tag_41:\n      stop\n        /* \"contracts/Validator.sol\":5171:5594  function getValidatorNodeDetails(address validatorNodeAddress) external view returns (address, uint256, uint256) {... */\n    tag_6:\n      callvalue\n      dup1\n      iszero\n      tag_43\n      jumpi\n      0x00\n      dup1\n      revert\n    tag_43:\n      pop\n      tag_44\n      0x04\n      dup1\n      calldatasize\n      sub\n      dup2\n      add\n      swap1\n      tag_45\n      swap2\n      swap1\n      tag_28\n      jump\t// in\n    tag_45:\n      tag_46\n      jump\t// in\n    tag_44:\n      mload(0x40)\n      tag_47\n      swap4\n      swap3\n      swap2\n      swap1\n      tag_48\n      jump\t// in\n    tag_47:\n      mload(0x40)\n      dup1\n      swap2\n      sub\n      swap1\n      return\n        /* \"contracts/Validator.sol\":4887:4956  function pauseContract() external onlyOwner {... */\n    tag_7:\n      callvalue\n      dup1\n      iszero\n      tag_49\n      jumpi\n      0x00\n      dup1\n      revert\n    tag_49:\n      pop\n      tag_50\n      tag_51\n      jump\t// in\n    tag_50:\n      stop\n        /* \"@openzeppelin/contracts/security/Pausable.sol\":1615:1699  function paused() public view virtual returns (bool) {... */\n    tag_8:\n      callvalue\n      dup1\n      iszero\n      tag_52\n      jumpi\n      0x00\n      dup1\n      revert\n    tag_52:\n      pop\n      tag_53\n      tag_54\n      jump\t// in\n    tag_53:\n      mload(0x40)\n      tag_55\n      swap2\n      swap1\n      tag_56\n      jump\t// in\n    tag_55:\n      mload(0x40)\n      dup1\n      swap2\n      sub\n      swap1\n      return\n        /* \"contracts/Validator.sol\":4438:4651  function setWithdrawalFeePercentage(uint256 _feePercentage) external onlyOwner {... */\n    tag_9:\n      callvalue\n      dup1\n      iszero\n      tag_57\n      jumpi\n      0x00\n      dup1\n      revert\n    tag_57:\n      pop\n      tag_58\n      0x04\n      dup1\n      calldatasize\n      sub\n      dup2\n      add\n      swap1\n      tag_59\n      swap2\n      swap1\n      tag_60\n      jump\t// in\n    tag_59:\n      tag_61\n      jump\t// in\n    tag_58:\n      stop\n        /* \"contracts/Validator.sol\":5656:6766  function fetchAllValidatorNodeDetails() external view returns (address[] memory, address[] memory, uint256[] memory, uint256[] memory) {... */\n    tag_10:\n      callvalue\n      dup1\n      iszero\n      tag_62\n      jumpi\n      0x00\n      dup1\n      revert\n    tag_62:\n      pop\n      tag_63\n      tag_64\n      jump\t// in\n    tag_63:\n      mload(0x40)\n      tag_65\n      swap5\n      swap4\n      swap3\n      swap2\n      swap1\n      tag_66\n      jump\t// in\n    tag_65:\n      mload(0x40)\n      dup1\n      swap2\n      sub\n      swap1\n      return\n        /* \"@openzeppelin/contracts/access/Ownable.sol\":2293:2394  function renounceOwnership() public virtual onlyOwner {... */\n    tag_11:\n      callvalue\n      dup1\n      iszero\n      tag_67\n      jumpi\n      0x00\n      dup1\n      revert\n    tag_67:\n      pop\n      tag_68\n      tag_69\n      jump\t// in\n    tag_68:\n      stop\n        /* \"contracts/Validator.sol\":836:879  uint256 public withdrawalFeePercentage = 10 */\n    tag_12:\n      callvalue\n      dup1\n      iszero\n      tag_70\n      jumpi\n      0x00\n      dup1\n      revert\n    tag_70:\n      pop\n      tag_71\n      tag_72\n      jump\t// in\n    tag_71:\n      mload(0x40)\n      tag_73\n      swap2\n      swap1\n      tag_74\n      jump\t// in\n    tag_73:\n      mload(0x40)\n      dup1\n      swap2\n      sub\n      swap1\n      return\n        /* \"contracts/Validator.sol\":548:600  mapping(address => uint256) public depositedBalances */\n    tag_13:\n      callvalue\n      dup1\n      iszero\n      tag_75\n      jumpi\n      0x00\n      dup1\n      revert\n    tag_75:\n      pop\n      tag_76\n      0x04\n      dup1\n      calldatasize\n      sub\n      dup2\n      add\n      swap1\n      tag_77\n      swap2\n      swap1\n      tag_28\n      jump\t// in\n    tag_77:\n      tag_78\n      jump\t// in\n    tag_76:\n      mload(0x40)\n      tag_79\n      swap2\n      swap1\n      tag_74\n      jump\t// in\n    tag_79:\n      mload(0x40)\n      dup1\n      swap2\n      sub\n      swap1\n      return\n        /* \"contracts/Validator.sol\":682:737  mapping(address => uint256) public totalDepositedAmount */\n    tag_14:\n      callvalue\n      dup1\n      iszero\n      tag_80\n      jumpi\n      0x00\n      dup1\n      revert\n    tag_80:\n      pop\n      tag_81\n      0x04\n      dup1\n      calldatasize\n      sub\n      dup2\n      add\n      swap1\n      tag_82\n      swap2\n      swap1\n      tag_28\n      jump\t// in\n    tag_82:\n      tag_83\n      jump\t// in\n    tag_81:\n      mload(0x40)\n      tag_84\n      swap2\n      swap1\n      tag_74\n      jump\t// in\n    tag_84:\n      mload(0x40)\n      dup1\n      swap2\n      sub\n      swap1\n      return\n        /* \"@openzeppelin/contracts/access/Ownable.sol\":1638:1723  function owner() public view virtual returns (address) {... */\n    tag_15:\n      callvalue\n      dup1\n      iszero\n      tag_85\n      jumpi\n      0x00\n      dup1\n      revert\n    tag_85:\n      pop\n      tag_86\n      tag_87\n      jump\t// in\n    tag_86:\n      mload(0x40)\n      tag_88\n      swap2\n      swap1\n      tag_39\n      jump\t// in\n    tag_88:\n      mload(0x40)\n      dup1\n      swap2\n      sub\n      swap1\n      return\n        /* \"contracts/Validator.sol\":4716:4814  function setEdxAccount(address _account) external onlyOwner {... */\n    tag_16:\n      callvalue\n      dup1\n      iszero\n      tag_89\n      jumpi\n      0x00\n      dup1\n      revert\n    tag_89:\n      pop\n      tag_90\n      0x04\n      dup1\n      calldatasize\n      sub\n      dup2\n      add\n      swap1\n      tag_91\n      swap2\n      swap1\n      tag_28\n      jump\t// in\n    tag_91:\n      tag_92\n      jump\t// in\n    tag_90:\n      stop\n        /* \"contracts/Validator.sol\":5031:5103  function unpauseContract() external onlyOwner {... */\n    tag_17:\n      callvalue\n      dup1\n      iszero\n      tag_93\n      jumpi\n      0x00\n      dup1\n      revert\n    tag_93:\n      pop\n      tag_94\n      tag_95\n      jump\t// in\n    tag_94:\n      stop\n        /* \"contracts/Validator.sol\":406:463  mapping(address => address) public validatorNodeToAccount */\n    tag_18:\n      callvalue\n      dup1\n      iszero\n      tag_96\n      jumpi\n      0x00\n      dup1\n      revert\n    tag_96:\n      pop\n      tag_97\n      0x04\n      dup1\n      calldatasize\n      sub\n      dup2\n      add\n      swap1\n      tag_98\n      swap2\n      swap1\n      tag_28\n      jump\t// in\n    tag_98:\n      tag_99\n      jump\t// in\n    tag_97:\n      mload(0x40)\n      tag_100\n      swap2\n      swap1\n      tag_39\n      jump\t// in\n    tag_100:\n      mload(0x40)\n      dup1\n      swap2\n      sub\n      swap1\n      return\n        /* \"contracts/Validator.sol\":795:829  address[] public allValidatorNodes */\n    tag_19:\n      callvalue\n      dup1\n      iszero\n      tag_101\n      jumpi\n      0x00\n      dup1\n      revert\n    tag_101:\n      pop\n      tag_102\n      0x04\n      dup1\n      calldatasize\n      sub\n      dup2\n      add\n      swap1\n      tag_103\n      swap2\n      swap1\n      tag_60\n      jump\t// in\n    tag_103:\n      tag_104\n      jump\t// in\n    tag_102:\n      mload(0x40)\n      tag_105\n      swap2\n      swap1\n      tag_39\n      jump\t// in\n    tag_105:\n      mload(0x40)\n      dup1\n      swap2\n      sub\n      swap1\n      return\n        /* \"contracts/Validator.sol\":1103:1743  function deposit() external payable nonReentrant whenNotPaused {... */\n    tag_20:\n      tag_106\n      tag_107\n      jump\t// in\n    tag_106:\n      stop\n        /* \"@openzeppelin/contracts/access/Ownable.sol\":2543:2758  function transferOwnership(address newOwner) public virtual onlyOwner {... */\n    tag_21:\n      callvalue\n      dup1\n      iszero\n      tag_108\n      jumpi\n      0x00\n      dup1\n      revert\n    tag_108:\n      pop\n      tag_109\n      0x04\n      dup1\n      calldatasize\n      sub\n      dup2\n      add\n      swap1\n      tag_110\n      swap2\n      swap1\n      tag_28\n      jump\t// in\n    tag_110:\n      tag_111\n      jump\t// in\n    tag_109:\n      stop\n        /* \"contracts/Validator.sol\":3035:4366  function deleteValidatorNode(address validatorNodeAddress) external onlyOwner {... */\n    tag_29:\n        /* \"@openzeppelin/contracts/access/Ownable.sol\":1531:1544  _checkOwner() */\n      tag_113\n        /* \"@openzeppelin/contracts/access/Ownable.sol\":1531:1542  _checkOwner */\n      tag_114\n        /* \"@openzeppelin/contracts/access/Ownable.sol\":1531:1544  _checkOwner() */\n      jump\t// in\n    tag_113:\n        /* \"contracts/Validator.sol\":3124:3149  address associatedAddress */\n      0x00\n        /* \"contracts/Validator.sol\":3152:3174  validatorNodeToAccount */\n      0x02\n        /* \"contracts/Validator.sol\":3152:3196  validatorNodeToAccount[validatorNodeAddress] */\n      0x00\n        /* \"contracts/Validator.sol\":3175:3195  validatorNodeAddress */\n      dup4\n        /* \"contracts/Validator.sol\":3152:3196  validatorNodeToAccount[validatorNodeAddress] */\n      0xffffffffffffffffffffffffffffffffffffffff\n      and\n      0xffffffffffffffffffffffffffffffffffffffff\n      and\n      dup2\n      mstore\n      0x20\n      add\n      swap1\n      dup2\n      mstore\n      0x20\n      add\n      0x00\n      keccak256\n      0x00\n      swap1\n      sload\n      swap1\n      0x0100\n      exp\n      swap1\n      div\n      0xffffffffffffffffffffffffffffffffffffffff\n      and\n        /* \"contracts/Validator.sol\":3124:3196  address associatedAddress = validatorNodeToAccount[validatorNodeAddress] */\n      swap1\n      pop\n        /* \"contracts/Validator.sol\":3206:3227  uint256 depositAmount */\n      0x00\n        /* \"contracts/Validator.sol\":3230:3247  depositedBalances */\n      0x03\n        /* \"contracts/Validator.sol\":3230:3266  depositedBalances[associatedAddress] */\n      0x00\n        /* \"contracts/Validator.sol\":3248:3265  associatedAddress */\n      dup4\n        /* \"contracts/Validator.sol\":3230:3266  depositedBalances[associatedAddress] */\n      0xffffffffffffffffffffffffffffffffffffffff\n      and\n      0xffffffffffffffffffffffffffffffffffffffff\n      and\n      dup2\n      mstore\n      0x20\n      add\n      swap1\n      dup2\n      mstore\n      0x20\n      add\n      0x00\n      keccak256\n      sload\n        /* \"contracts/Validator.sol\":3206:3266  uint256 depositAmount = depositedBalances[associatedAddress] */\n      swap1\n      pop\n        /* \"contracts/Validator.sol\":3276:3287  uint256 fee */\n      0x00\n        /* \"contracts/Validator.sol\":3334:3337  100 */\n      0x64\n        /* \"contracts/Validator.sol\":3307:3330  withdrawalFeePercentage */\n      sload(0x06)\n        /* \"contracts/Validator.sol\":3291:3304  depositAmount */\n      dup4\n        /* \"contracts/Validator.sol\":3291:3330  depositAmount * withdrawalFeePercentage */\n      tag_116\n      swap2\n      swap1\n      tag_117\n      jump\t// in\n    tag_116:\n        /* \"contracts/Validator.sol\":3290:3337  (depositAmount * withdrawalFeePercentage) / 100 */\n      tag_118\n      swap2\n      swap1\n      tag_119\n      jump\t// in\n    tag_118:\n        /* \"contracts/Validator.sol\":3276:3337  uint256 fee = (depositAmount * withdrawalFeePercentage) / 100 */\n      swap1\n      pop\n        /* \"contracts/Validator.sol\":3376:3398  uint256 withdrawAmount */\n      0x00\n        /* \"contracts/Validator.sol\":3417:3420  fee */\n      dup2\n        /* \"contracts/Validator.sol\":3401:3414  depositAmount */\n      dup4\n        /* \"contracts/Validator.sol\":3401:3420  depositAmount - fee */\n      tag_120\n      swap2\n      swap1\n      tag_121\n      jump\t// in\n    tag_120:\n        /* \"contracts/Validator.sol\":3376:3420  uint256 withdrawAmount = depositAmount - fee */\n      swap1\n      pop\n        /* \"contracts/Validator.sol\":3509:3510  0 */\n      0x00\n        /* \"contracts/Validator.sol\":3470:3487  depositedBalances */\n      0x03\n        /* \"contracts/Validator.sol\":3470:3506  depositedBalances[associatedAddress] */\n      0x00\n        /* \"contracts/Validator.sol\":3488:3505  associatedAddress */\n      dup7\n        /* \"contracts/Validator.sol\":3470:3506  depositedBalances[associatedAddress] */\n      0xffffffffffffffffffffffffffffffffffffffff\n      and\n      0xffffffffffffffffffffffffffffffffffffffff\n      and\n      dup2\n      mstore\n      0x20\n      add\n      swap1\n      dup2\n      mstore\n      0x20\n      add\n      0x00\n      keccak256\n        /* \"contracts/Validator.sol\":3470:3510  depositedBalances[associatedAddress] = 0 */\n      dup2\n      swap1\n      sstore\n      pop\n        /* \"contracts/Validator.sol\":3528:3545  associatedAddress */\n      dup4\n        /* \"contracts/Validator.sol\":3520:3555  payable(associatedAddress).transfer */\n      0xffffffffffffffffffffffffffffffffffffffff\n      and\n        /* \"contracts/Validator.sol\":3520:3571  payable(associatedAddress).transfer(withdrawAmount) */\n      0x08fc\n        /* \"contracts/Validator.sol\":3556:3570  withdrawAmount */\n      dup3\n        /* \"contracts/Validator.sol\":3520:3571  payable(associatedAddress).transfer(withdrawAmount) */\n      swap1\n      dup2\n      iszero\n      mul\n      swap1\n      mload(0x40)\n      0x00\n      mload(0x40)\n      dup1\n      dup4\n      sub\n      dup2\n      dup6\n      dup9\n      dup9\n      call\n      swap4\n      pop\n      pop\n      pop\n      pop\n      iszero\n      dup1\n      iszero\n      tag_123\n      jumpi\n      returndatasize\n      0x00\n      dup1\n      returndatacopy\n      revert(0x00, returndatasize)\n    tag_123:\n      pop\n        /* \"contracts/Validator.sol\":3607:3608  0 */\n      0x00\n        /* \"contracts/Validator.sol\":3585:3609  edxAccount != address(0) */\n      0xffffffffffffffffffffffffffffffffffffffff\n      and\n        /* \"contracts/Validator.sol\":3585:3595  edxAccount */\n      0x07\n      0x00\n      swap1\n      sload\n      swap1\n      0x0100\n      exp\n      swap1\n      div\n      0xffffffffffffffffffffffffffffffffffffffff\n      and\n        /* \"contracts/Validator.sol\":3585:3609  edxAccount != address(0) */\n      0xffffffffffffffffffffffffffffffffffffffff\n      and\n      eq\n        /* \"contracts/Validator.sol\":3581:3710  if (edxAccount != address(0)) {... */\n      tag_124\n      jumpi\n        /* \"contracts/Validator.sol\":3633:3643  edxAccount */\n      0x07\n      0x00\n      swap1\n      sload\n      swap1\n      0x0100\n      exp\n      swap1\n      div\n      0xffffffffffffffffffffffffffffffffffffffff\n      and\n        /* \"contracts/Validator.sol\":3625:3653  payable(edxAccount).transfer */\n      0xffffffffffffffffffffffffffffffffffffffff\n      and\n        /* \"contracts/Validator.sol\":3625:3658  payable(edxAccount).transfer(fee) */\n      0x08fc\n        /* \"contracts/Validator.sol\":3654:3657  fee */\n      dup4\n        /* \"contracts/Validator.sol\":3625:3658  payable(edxAccount).transfer(fee) */\n      swap1\n      dup2\n      iszero\n      mul\n      swap1\n      mload(0x40)\n      0x00\n      mload(0x40)\n      dup1\n      dup4\n      sub\n      dup2\n      dup6\n      dup9\n      dup9\n      call\n      swap4\n      pop\n      pop\n      pop\n      pop\n      iszero\n      dup1\n      iszero\n      tag_126\n      jumpi\n      returndatasize\n      0x00\n      dup1\n      returndatacopy\n      revert(0x00, returndatasize)\n    tag_126:\n      pop\n        /* \"contracts/Validator.sol\":3581:3710  if (edxAccount != address(0)) {... */\n    tag_124:\n        /* \"contracts/Validator.sol\":3796:3805  uint256 i */\n      0x00\n        /* \"contracts/Validator.sol\":3791:4188  for (uint256 i = 0; i < allValidatorNodes.length; i++) {... */\n    tag_127:\n        /* \"contracts/Validator.sol\":3815:3832  allValidatorNodes */\n      0x05\n        /* \"contracts/Validator.sol\":3815:3839  allValidatorNodes.length */\n      dup1\n      sload\n      swap1\n      pop\n        /* \"contracts/Validator.sol\":3811:3812  i */\n      dup2\n        /* \"contracts/Validator.sol\":3811:3839  i < allValidatorNodes.length */\n      lt\n        /* \"contracts/Validator.sol\":3791:4188  for (uint256 i = 0; i < allValidatorNodes.length; i++) {... */\n      iszero\n      tag_128\n      jumpi\n        /* \"contracts/Validator.sol\":3888:3908  validatorNodeAddress */\n      dup6\n        /* \"contracts/Validator.sol\":3864:3908  allValidatorNodes[i] == validatorNodeAddress */\n      0xffffffffffffffffffffffffffffffffffffffff\n      and\n        /* \"contracts/Validator.sol\":3864:3881  allValidatorNodes */\n      0x05\n        /* \"contracts/Validator.sol\":3882:3883  i */\n      dup3\n        /* \"contracts/Validator.sol\":3864:3884  allValidatorNodes[i] */\n      dup2\n      sload\n      dup2\n      lt\n      tag_130\n      jumpi\n      tag_131\n      tag_132\n      jump\t// in\n    tag_131:\n    tag_130:\n      swap1\n      0x00\n      mstore\n      keccak256(0x00, 0x20)\n      add\n      0x00\n      swap1\n      sload\n      swap1\n      0x0100\n      exp\n      swap1\n      div\n      0xffffffffffffffffffffffffffffffffffffffff\n      and\n        /* \"contracts/Validator.sol\":3864:3908  allValidatorNodes[i] == validatorNodeAddress */\n      0xffffffffffffffffffffffffffffffffffffffff\n      and\n      sub\n        /* \"contracts/Validator.sol\":3860:4178  if (allValidatorNodes[i] == validatorNodeAddress) {... */\n      tag_134\n      jumpi\n        /* \"contracts/Validator.sol\":4052:4069  allValidatorNodes */\n      0x05\n        /* \"contracts/Validator.sol\":4097:4098  1 */\n      0x01\n        /* \"contracts/Validator.sol\":4070:4087  allValidatorNodes */\n      0x05\n        /* \"contracts/Validator.sol\":4070:4094  allValidatorNodes.length */\n      dup1\n      sload\n      swap1\n      pop\n        /* \"contracts/Validator.sol\":4070:4098  allValidatorNodes.length - 1 */\n      tag_135\n      swap2\n      swap1\n      tag_121\n      jump\t// in\n    tag_135:\n        /* \"contracts/Validator.sol\":4052:4099  allValidatorNodes[allValidatorNodes.length - 1] */\n      dup2\n      sload\n      dup2\n      lt\n      tag_136\n      jumpi\n      tag_137\n      tag_132\n      jump\t// in\n    tag_137:\n    tag_136:\n      swap1\n      0x00\n      mstore\n      keccak256(0x00, 0x20)\n      add\n      0x00\n      swap1\n      sload\n      swap1\n      0x0100\n      exp\n      swap1\n      div\n      0xffffffffffffffffffffffffffffffffffffffff\n      and\n        /* \"contracts/Validator.sol\":4029:4046  allValidatorNodes */\n      0x05\n        /* \"contracts/Validator.sol\":4047:4048  i */\n      dup3\n        /* \"contracts/Validator.sol\":4029:4049  allValidatorNodes[i] */\n      dup2\n      sload\n      dup2\n      lt\n      tag_139\n      jumpi\n      tag_140\n      tag_132\n      jump\t// in\n    tag_140:\n    tag_139:\n      swap1\n      0x00\n      mstore\n      keccak256(0x00, 0x20)\n      add\n      0x00\n        /* \"contracts/Validator.sol\":4029:4099  allValidatorNodes[i] = allValidatorNodes[allValidatorNodes.length - 1] */\n      0x0100\n      exp\n      dup2\n      sload\n      dup2\n      0xffffffffffffffffffffffffffffffffffffffff\n      mul\n      not\n      and\n      swap1\n      dup4\n      0xffffffffffffffffffffffffffffffffffffffff\n      and\n      mul\n      or\n      swap1\n      sstore\n      pop\n        /* \"contracts/Validator.sol\":4117:4134  allValidatorNodes */\n      0x05\n        /* \"contracts/Validator.sol\":4117:4140  allValidatorNodes.pop() */\n      dup1\n      sload\n      dup1\n      tag_142\n      jumpi\n      tag_143\n      tag_144\n      jump\t// in\n    tag_143:\n    tag_142:\n      0x01\n      swap1\n      sub\n      dup2\n      dup2\n      swap1\n      0x00\n      mstore\n      keccak256(0x00, 0x20)\n      add\n      exp(0x0100, 0x00)\n      dup2\n      sload\n      swap1\n      0xffffffffffffffffffffffffffffffffffffffff\n      mul\n      not\n      and\n      swap1\n      sstore\n      swap1\n      sstore\n        /* \"contracts/Validator.sol\":4158:4163  break */\n      jump(tag_128)\n        /* \"contracts/Validator.sol\":3860:4178  if (allValidatorNodes[i] == validatorNodeAddress) {... */\n    tag_134:\n        /* \"contracts/Validator.sol\":3841:3844  i++ */\n      dup1\n      dup1\n      tag_146\n      swap1\n      tag_147\n      jump\t// in\n    tag_146:\n      swap2\n      pop\n      pop\n        /* \"contracts/Validator.sol\":3791:4188  for (uint256 i = 0; i < allValidatorNodes.length; i++) {... */\n      jump(tag_127)\n    tag_128:\n      pop\n        /* \"contracts/Validator.sol\":4256:4278  validatorNodeToAccount */\n      0x02\n        /* \"contracts/Validator.sol\":4256:4300  validatorNodeToAccount[validatorNodeAddress] */\n      0x00\n        /* \"contracts/Validator.sol\":4279:4299  validatorNodeAddress */\n      dup7\n        /* \"contracts/Validator.sol\":4256:4300  validatorNodeToAccount[validatorNodeAddress] */\n      0xffffffffffffffffffffffffffffffffffffffff\n      and\n      0xffffffffffffffffffffffffffffffffffffffff\n      and\n      dup2\n      mstore\n      0x20\n      add\n      swap1\n      dup2\n      mstore\n      0x20\n      add\n      0x00\n      keccak256\n      0x00\n        /* \"contracts/Validator.sol\":4249:4300  delete validatorNodeToAccount[validatorNodeAddress] */\n      0x0100\n      exp\n      dup2\n      sload\n      swap1\n      0xffffffffffffffffffffffffffffffffffffffff\n      mul\n      not\n      and\n      swap1\n      sstore\n        /* \"contracts/Validator.sol\":4317:4337  totalDepositedAmount */\n      0x04\n        /* \"contracts/Validator.sol\":4317:4359  totalDepositedAmount[validatorNodeAddress] */\n      0x00\n        /* \"contracts/Validator.sol\":4338:4358  validatorNodeAddress */\n      dup7\n        /* \"contracts/Validator.sol\":4317:4359  totalDepositedAmount[validatorNodeAddress] */\n      0xffffffffffffffffffffffffffffffffffffffff\n      and\n      0xffffffffffffffffffffffffffffffffffffffff\n      and\n      dup2\n      mstore\n      0x20\n      add\n      swap1\n      dup2\n      mstore\n      0x20\n      add\n      0x00\n      keccak256\n        /* \"contracts/Validator.sol\":4310:4359  delete totalDepositedAmount[validatorNodeAddress] */\n      0x00\n      swap1\n      sstore\n        /* \"contracts/Validator.sol\":3113:4366  {... */\n      pop\n      pop\n      pop\n      pop\n        /* \"contracts/Validator.sol\":3035:4366  function deleteValidatorNode(address validatorNodeAddress) external onlyOwner {... */\n      pop\n      jump\t// out\n        /* \"contracts/Validator.sol\":2577:2986  function linkValidatorNode(address validatorNodeAddress, address validatorAccountAddress) external onlyOwner{... */\n    tag_34:\n        /* \"@openzeppelin/contracts/access/Ownable.sol\":1531:1544  _checkOwner() */\n      tag_149\n        /* \"@openzeppelin/contracts/access/Ownable.sol\":1531:1542  _checkOwner */\n      tag_114\n        /* \"@openzeppelin/contracts/access/Ownable.sol\":1531:1544  _checkOwner() */\n      jump\t// in\n    tag_149:\n        /* \"contracts/Validator.sol\":2742:2765  validatorAccountAddress */\n      dup1\n        /* \"contracts/Validator.sol\":2695:2717  validatorNodeToAccount */\n      0x02\n        /* \"contracts/Validator.sol\":2695:2739  validatorNodeToAccount[validatorNodeAddress] */\n      0x00\n        /* \"contracts/Validator.sol\":2718:2738  validatorNodeAddress */\n      dup5\n        /* \"contracts/Validator.sol\":2695:2739  validatorNodeToAccount[validatorNodeAddress] */\n      0xffffffffffffffffffffffffffffffffffffffff\n      and\n      0xffffffffffffffffffffffffffffffffffffffff\n      and\n      dup2\n      mstore\n      0x20\n      add\n      swap1\n      dup2\n      mstore\n      0x20\n      add\n      0x00\n      keccak256\n      0x00\n        /* \"contracts/Validator.sol\":2695:2765  validatorNodeToAccount[validatorNodeAddress] = validatorAccountAddress */\n      0x0100\n      exp\n      dup2\n      sload\n      dup2\n      0xffffffffffffffffffffffffffffffffffffffff\n      mul\n      not\n      and\n      swap1\n      dup4\n      0xffffffffffffffffffffffffffffffffffffffff\n      and\n      mul\n      or\n      swap1\n      sstore\n      pop\n        /* \"contracts/Validator.sol\":2860:2909  contains(allValidatorNodes, validatorNodeAddress) */\n      tag_151\n        /* \"contracts/Validator.sol\":2869:2886  allValidatorNodes */\n      0x05\n        /* \"contracts/Validator.sol\":2888:2908  validatorNodeAddress */\n      dup4\n        /* \"contracts/Validator.sol\":2860:2868  contains */\n      tag_152\n        /* \"contracts/Validator.sol\":2860:2909  contains(allValidatorNodes, validatorNodeAddress) */\n      jump\t// in\n    tag_151:\n        /* \"contracts/Validator.sol\":2855:2980  if (!contains(allValidatorNodes, validatorNodeAddress)) {... */\n      tag_153\n      jumpi\n        /* \"contracts/Validator.sol\":2925:2942  allValidatorNodes */\n      0x05\n        /* \"contracts/Validator.sol\":2948:2968  validatorNodeAddress */\n      dup3\n        /* \"contracts/Validator.sol\":2925:2969  allValidatorNodes.push(validatorNodeAddress) */\n      swap1\n      dup1\n      0x01\n      dup2\n      sload\n      add\n      dup1\n      dup3\n      sstore\n      dup1\n      swap2\n      pop\n      pop\n      0x01\n      swap1\n      sub\n      swap1\n      0x00\n      mstore\n      keccak256(0x00, 0x20)\n      add\n      0x00\n      swap1\n      swap2\n      swap1\n      swap2\n      swap1\n      swap2\n      0x0100\n      exp\n      dup2\n      sload\n      dup2\n      0xffffffffffffffffffffffffffffffffffffffff\n      mul\n      not\n      and\n      swap1\n      dup4\n      0xffffffffffffffffffffffffffffffffffffffff\n      and\n      mul\n      or\n      swap1\n      sstore\n      pop\n        /* \"contracts/Validator.sol\":2855:2980  if (!contains(allValidatorNodes, validatorNodeAddress)) {... */\n    tag_153:\n        /* \"contracts/Validator.sol\":2577:2986  function linkValidatorNode(address validatorNodeAddress, address validatorAccountAddress) external onlyOwner{... */\n      pop\n      pop\n      jump\t// out\n        /* \"contracts/Validator.sol\":907:945  address public edxAccount = address(0) */\n    tag_37:\n      0x07\n      0x00\n      swap1\n      sload\n      swap1\n      0x0100\n      exp\n      swap1\n      div\n      0xffffffffffffffffffffffffffffffffffffffff\n      and\n      dup2\n      jump\t// out\n        /* \"contracts/Validator.sol\":1826:2477  function withdraw() external nonReentrant whenNotPaused{... */\n    tag_42:\n        /* \"@openzeppelin/contracts/security/ReentrancyGuard.sol\":2261:2282  _nonReentrantBefore() */\n      tag_156\n        /* \"@openzeppelin/contracts/security/ReentrancyGuard.sol\":2261:2280  _nonReentrantBefore */\n      tag_157\n        /* \"@openzeppelin/contracts/security/ReentrancyGuard.sol\":2261:2282  _nonReentrantBefore() */\n      jump\t// in\n    tag_156:\n        /* \"@openzeppelin/contracts/security/Pausable.sol\":1239:1258  _requireNotPaused() */\n      tag_159\n        /* \"@openzeppelin/contracts/security/Pausable.sol\":1239:1256  _requireNotPaused */\n      tag_160\n        /* \"@openzeppelin/contracts/security/Pausable.sol\":1239:1258  _requireNotPaused() */\n      jump\t// in\n    tag_159:\n        /* \"contracts/Validator.sol\":1891:1912  uint256 depositAmount */\n      0x00\n        /* \"contracts/Validator.sol\":1915:1932  depositedBalances */\n      0x03\n        /* \"contracts/Validator.sol\":1915:1944  depositedBalances[msg.sender] */\n      0x00\n        /* \"contracts/Validator.sol\":1933:1943  msg.sender */\n      caller\n        /* \"contracts/Validator.sol\":1915:1944  depositedBalances[msg.sender] */\n      0xffffffffffffffffffffffffffffffffffffffff\n      and\n      0xffffffffffffffffffffffffffffffffffffffff\n      and\n      dup2\n      mstore\n      0x20\n      add\n      swap1\n      dup2\n      mstore\n      0x20\n      add\n      0x00\n      keccak256\n      sload\n        /* \"contracts/Validator.sol\":1891:1944  uint256 depositAmount = depositedBalances[msg.sender] */\n      swap1\n      pop\n        /* \"contracts/Validator.sol\":1978:1979  0 */\n      0x00\n        /* \"contracts/Validator.sol\":1962:1975  depositAmount */\n      dup2\n        /* \"contracts/Validator.sol\":1962:1979  depositAmount > 0 */\n      gt\n        /* \"contracts/Validator.sol\":1954:2014  require(depositAmount > 0, \"No funds available to withdraw\") */\n      tag_162\n      jumpi\n      mload(0x40)\n      0x08c379a000000000000000000000000000000000000000000000000000000000\n      dup2\n      mstore\n      0x04\n      add\n      tag_163\n      swap1\n      tag_164\n      jump\t// in\n    tag_163:\n      mload(0x40)\n      dup1\n      swap2\n      sub\n      swap1\n      revert\n    tag_162:\n        /* \"contracts/Validator.sol\":2033:2044  uint256 fee */\n      0x00\n        /* \"contracts/Validator.sol\":2091:2094  100 */\n      0x64\n        /* \"contracts/Validator.sol\":2064:2087  withdrawalFeePercentage */\n      sload(0x06)\n        /* \"contracts/Validator.sol\":2048:2061  depositAmount */\n      dup4\n        /* \"contracts/Validator.sol\":2048:2087  depositAmount * withdrawalFeePercentage */\n      tag_165\n      swap2\n      swap1\n      tag_117\n      jump\t// in\n    tag_165:\n        /* \"contracts/Validator.sol\":2047:2094  (depositAmount * withdrawalFeePercentage) / 100 */\n      tag_166\n      swap2\n      swap1\n      tag_119\n      jump\t// in\n    tag_166:\n        /* \"contracts/Validator.sol\":2033:2094  uint256 fee = (depositAmount * withdrawalFeePercentage) / 100 */\n      swap1\n      pop\n        /* \"contracts/Validator.sol\":2133:2155  uint256 withdrawAmount */\n      0x00\n        /* \"contracts/Validator.sol\":2174:2177  fee */\n      dup2\n        /* \"contracts/Validator.sol\":2158:2171  depositAmount */\n      dup4\n        /* \"contracts/Validator.sol\":2158:2177  depositAmount - fee */\n      tag_167\n      swap2\n      swap1\n      tag_121\n      jump\t// in\n    tag_167:\n        /* \"contracts/Validator.sol\":2133:2177  uint256 withdrawAmount = depositAmount - fee */\n      swap1\n      pop\n        /* \"contracts/Validator.sol\":2268:2269  0 */\n      0x00\n        /* \"contracts/Validator.sol\":2236:2253  depositedBalances */\n      0x03\n        /* \"contracts/Validator.sol\":2236:2265  depositedBalances[msg.sender] */\n      0x00\n        /* \"contracts/Validator.sol\":2254:2264  msg.sender */\n      caller\n        /* \"contracts/Validator.sol\":2236:2265  depositedBalances[msg.sender] */\n      0xffffffffffffffffffffffffffffffffffffffff\n      and\n      0xffffffffffffffffffffffffffffffffffffffff\n      and\n      dup2\n      mstore\n      0x20\n      add\n      swap1\n      dup2\n      mstore\n      0x20\n      add\n      0x00\n      keccak256\n        /* \"contracts/Validator.sol\":2236:2269  depositedBalances[msg.sender] = 0 */\n      dup2\n      swap1\n      sstore\n      pop\n        /* \"contracts/Validator.sol\":2287:2297  msg.sender */\n      caller\n        /* \"contracts/Validator.sol\":2279:2307  payable(msg.sender).transfer */\n      0xffffffffffffffffffffffffffffffffffffffff\n      and\n        /* \"contracts/Validator.sol\":2279:2323  payable(msg.sender).transfer(withdrawAmount) */\n      0x08fc\n        /* \"contracts/Validator.sol\":2308:2322  withdrawAmount */\n      dup3\n        /* \"contracts/Validator.sol\":2279:2323  payable(msg.sender).transfer(withdrawAmount) */\n      swap1\n      dup2\n      iszero\n      mul\n      swap1\n      mload(0x40)\n      0x00\n      mload(0x40)\n      dup1\n      dup4\n      sub\n      dup2\n      dup6\n      dup9\n      dup9\n      call\n      swap4\n      pop\n      pop\n      pop\n      pop\n      iszero\n      dup1\n      iszero\n      tag_169\n      jumpi\n      returndatasize\n      0x00\n      dup1\n      returndatacopy\n      revert(0x00, returndatasize)\n    tag_169:\n      pop\n        /* \"contracts/Validator.sol\":2368:2369  0 */\n      0x00\n        /* \"contracts/Validator.sol\":2346:2370  edxAccount != address(0) */\n      0xffffffffffffffffffffffffffffffffffffffff\n      and\n        /* \"contracts/Validator.sol\":2346:2356  edxAccount */\n      0x07\n      0x00\n      swap1\n      sload\n      swap1\n      0x0100\n      exp\n      swap1\n      div\n      0xffffffffffffffffffffffffffffffffffffffff\n      and\n        /* \"contracts/Validator.sol\":2346:2370  edxAccount != address(0) */\n      0xffffffffffffffffffffffffffffffffffffffff\n      and\n      eq\n        /* \"contracts/Validator.sol\":2342:2471  if (edxAccount != address(0)) {... */\n      tag_170\n      jumpi\n        /* \"contracts/Validator.sol\":2394:2404  edxAccount */\n      0x07\n      0x00\n      swap1\n      sload\n      swap1\n      0x0100\n      exp\n      swap1\n      div\n      0xffffffffffffffffffffffffffffffffffffffff\n      and\n        /* \"contracts/Validator.sol\":2386:2414  payable(edxAccount).transfer */\n      0xffffffffffffffffffffffffffffffffffffffff\n      and\n        /* \"contracts/Validator.sol\":2386:2419  payable(edxAccount).transfer(fee) */\n      0x08fc\n        /* \"contracts/Validator.sol\":2415:2418  fee */\n      dup4\n        /* \"contracts/Validator.sol\":2386:2419  payable(edxAccount).transfer(fee) */\n      swap1\n      dup2\n      iszero\n      mul\n      swap1\n      mload(0x40)\n      0x00\n      mload(0x40)\n      dup1\n      dup4\n      sub\n      dup2\n      dup6\n      dup9\n      dup9\n      call\n      swap4\n      pop\n      pop\n      pop\n      pop\n      iszero\n      dup1\n      iszero\n      tag_172\n      jumpi\n      returndatasize\n      0x00\n      dup1\n      returndatacopy\n      revert(0x00, returndatasize)\n    tag_172:\n      pop\n        /* \"contracts/Validator.sol\":2342:2471  if (edxAccount != address(0)) {... */\n    tag_170:\n        /* \"contracts/Validator.sol\":1881:2477  {... */\n      pop\n      pop\n      pop\n        /* \"@openzeppelin/contracts/security/ReentrancyGuard.sol\":2303:2323  _nonReentrantAfter() */\n      tag_173\n        /* \"@openzeppelin/contracts/security/ReentrancyGuard.sol\":2303:2321  _nonReentrantAfter */\n      tag_174\n        /* \"@openzeppelin/contracts/security/ReentrancyGuard.sol\":2303:2323  _nonReentrantAfter() */\n      jump\t// in\n    tag_173:\n        /* \"contracts/Validator.sol\":1826:2477  function withdraw() external nonReentrant whenNotPaused{... */\n      jump\t// out\n        /* \"contracts/Validator.sol\":5171:5594  function getValidatorNodeDetails(address validatorNodeAddress) external view returns (address, uint256, uint256) {... */\n    tag_46:\n        /* \"contracts/Validator.sol\":5257:5264  address */\n      0x00\n        /* \"contracts/Validator.sol\":5266:5273  uint256 */\n      dup1\n        /* \"contracts/Validator.sol\":5275:5282  uint256 */\n      0x00\n        /* \"contracts/Validator.sol\":5294:5319  address associatedAddress */\n      dup1\n        /* \"contracts/Validator.sol\":5322:5344  validatorNodeToAccount */\n      0x02\n        /* \"contracts/Validator.sol\":5322:5366  validatorNodeToAccount[validatorNodeAddress] */\n      0x00\n        /* \"contracts/Validator.sol\":5345:5365  validatorNodeAddress */\n      dup7\n        /* \"contracts/Validator.sol\":5322:5366  validatorNodeToAccount[validatorNodeAddress] */\n      0xffffffffffffffffffffffffffffffffffffffff\n      and\n      0xffffffffffffffffffffffffffffffffffffffff\n      and\n      dup2\n      mstore\n      0x20\n      add\n      swap1\n      dup2\n      mstore\n      0x20\n      add\n      0x00\n      keccak256\n      0x00\n      swap1\n      sload\n      swap1\n      0x0100\n      exp\n      swap1\n      div\n      0xffffffffffffffffffffffffffffffffffffffff\n      and\n        /* \"contracts/Validator.sol\":5294:5366  address associatedAddress = validatorNodeToAccount[validatorNodeAddress] */\n      swap1\n      pop\n        /* \"contracts/Validator.sol\":5376:5394  uint256 sentAmount */\n      0x00\n        /* \"contracts/Validator.sol\":5397:5417  totalDepositedAmount */\n      0x04\n        /* \"contracts/Validator.sol\":5397:5439  totalDepositedAmount[validatorNodeAddress] */\n      0x00\n        /* \"contracts/Validator.sol\":5418:5438  validatorNodeAddress */\n      dup8\n        /* \"contracts/Validator.sol\":5397:5439  totalDepositedAmount[validatorNodeAddress] */\n      0xffffffffffffffffffffffffffffffffffffffff\n      and\n      0xffffffffffffffffffffffffffffffffffffffff\n      and\n      dup2\n      mstore\n      0x20\n      add\n      swap1\n      dup2\n      mstore\n      0x20\n      add\n      0x00\n      keccak256\n      sload\n        /* \"contracts/Validator.sol\":5376:5439  uint256 sentAmount = totalDepositedAmount[validatorNodeAddress] */\n      swap1\n      pop\n        /* \"contracts/Validator.sol\":5449:5473  uint256 remainingBalance */\n      0x00\n        /* \"contracts/Validator.sol\":5476:5493  depositedBalances */\n      0x03\n        /* \"contracts/Validator.sol\":5476:5512  depositedBalances[associatedAddress] */\n      0x00\n        /* \"contracts/Validator.sol\":5494:5511  associatedAddress */\n      dup5\n        /* \"contracts/Validator.sol\":5476:5512  depositedBalances[associatedAddress] */\n      0xffffffffffffffffffffffffffffffffffffffff\n      and\n      0xffffffffffffffffffffffffffffffffffffffff\n      and\n      dup2\n      mstore\n      0x20\n      add\n      swap1\n      dup2\n      mstore\n      0x20\n      add\n      0x00\n      keccak256\n      sload\n        /* \"contracts/Validator.sol\":5449:5512  uint256 remainingBalance = depositedBalances[associatedAddress] */\n      swap1\n      pop\n        /* \"contracts/Validator.sol\":5539:5556  associatedAddress */\n      dup3\n        /* \"contracts/Validator.sol\":5558:5568  sentAmount */\n      dup3\n        /* \"contracts/Validator.sol\":5570:5586  remainingBalance */\n      dup3\n        /* \"contracts/Validator.sol\":5531:5587  return (associatedAddress, sentAmount, remainingBalance) */\n      swap6\n      pop\n      swap6\n      pop\n      swap6\n      pop\n      pop\n      pop\n      pop\n        /* \"contracts/Validator.sol\":5171:5594  function getValidatorNodeDetails(address validatorNodeAddress) external view returns (address, uint256, uint256) {... */\n      swap2\n      swap4\n      swap1\n      swap3\n      pop\n      jump\t// out\n        /* \"contracts/Validator.sol\":4887:4956  function pauseContract() external onlyOwner {... */\n    tag_51:\n        /* \"@openzeppelin/contracts/access/Ownable.sol\":1531:1544  _checkOwner() */\n      tag_177\n        /* \"@openzeppelin/contracts/access/Ownable.sol\":1531:1542  _checkOwner */\n      tag_114\n        /* \"@openzeppelin/contracts/access/Ownable.sol\":1531:1544  _checkOwner() */\n      jump\t// in\n    tag_177:\n        /* \"contracts/Validator.sol\":4941:4949  _pause() */\n      tag_179\n        /* \"contracts/Validator.sol\":4941:4947  _pause */\n      tag_180\n        /* \"contracts/Validator.sol\":4941:4949  _pause() */\n      jump\t// in\n    tag_179:\n        /* \"contracts/Validator.sol\":4887:4956  function pauseContract() external onlyOwner {... */\n      jump\t// out\n        /* \"@openzeppelin/contracts/security/Pausable.sol\":1615:1699  function paused() public view virtual returns (bool) {... */\n    tag_54:\n        /* \"@openzeppelin/contracts/security/Pausable.sol\":1662:1666  bool */\n      0x00\n        /* \"@openzeppelin/contracts/security/Pausable.sol\":1685:1692  _paused */\n      0x01\n      0x14\n      swap1\n      sload\n      swap1\n      0x0100\n      exp\n      swap1\n      div\n      0xff\n      and\n        /* \"@openzeppelin/contracts/security/Pausable.sol\":1678:1692  return _paused */\n      swap1\n      pop\n        /* \"@openzeppelin/contracts/security/Pausable.sol\":1615:1699  function paused() public view virtual returns (bool) {... */\n      swap1\n      jump\t// out\n        /* \"contracts/Validator.sol\":4438:4651  function setWithdrawalFeePercentage(uint256 _feePercentage) external onlyOwner {... */\n    tag_61:\n        /* \"@openzeppelin/contracts/access/Ownable.sol\":1531:1544  _checkOwner() */\n      tag_183\n        /* \"@openzeppelin/contracts/access/Ownable.sol\":1531:1542  _checkOwner */\n      tag_114\n        /* \"@openzeppelin/contracts/access/Ownable.sol\":1531:1544  _checkOwner() */\n      jump\t// in\n    tag_183:\n        /* \"contracts/Validator.sol\":4553:4556  100 */\n      0x64\n        /* \"contracts/Validator.sol\":4535:4549  _feePercentage */\n      dup2\n        /* \"contracts/Validator.sol\":4535:4556  _feePercentage <= 100 */\n      gt\n      iszero\n        /* \"contracts/Validator.sol\":4527:4594  require(_feePercentage <= 100, \"Fee percentage cannot exceed 100%\") */\n      tag_185\n      jumpi\n      mload(0x40)\n      0x08c379a000000000000000000000000000000000000000000000000000000000\n      dup2\n      mstore\n      0x04\n      add\n      tag_186\n      swap1\n      tag_187\n      jump\t// in\n    tag_186:\n      mload(0x40)\n      dup1\n      swap2\n      sub\n      swap1\n      revert\n    tag_185:\n        /* \"contracts/Validator.sol\":4630:4644  _feePercentage */\n      dup1\n        /* \"contracts/Validator.sol\":4604:4627  withdrawalFeePercentage */\n      0x06\n        /* \"contracts/Validator.sol\":4604:4644  withdrawalFeePercentage = _feePercentage */\n      dup2\n      swap1\n      sstore\n      pop\n        /* \"contracts/Validator.sol\":4438:4651  function setWithdrawalFeePercentage(uint256 _feePercentage) external onlyOwner {... */\n      pop\n      jump\t// out\n        /* \"contracts/Validator.sol\":5656:6766  function fetchAllValidatorNodeDetails() external view returns (address[] memory, address[] memory, uint256[] memory, uint256[] memory) {... */\n    tag_64:\n        /* \"contracts/Validator.sol\":5719:5735  address[] memory */\n      0x60\n        /* \"contracts/Validator.sol\":5737:5753  address[] memory */\n      dup1\n        /* \"contracts/Validator.sol\":5755:5771  uint256[] memory */\n      0x60\n        /* \"contracts/Validator.sol\":5773:5789  uint256[] memory */\n      dup1\n        /* \"contracts/Validator.sol\":5801:5819  uint256 totalNodes */\n      0x00\n        /* \"contracts/Validator.sol\":5822:5839  allValidatorNodes */\n      0x05\n        /* \"contracts/Validator.sol\":5822:5846  allValidatorNodes.length */\n      dup1\n      sload\n      swap1\n      pop\n        /* \"contracts/Validator.sol\":5801:5846  uint256 totalNodes = allValidatorNodes.length */\n      swap1\n      pop\n        /* \"contracts/Validator.sol\":5856:5886  address[] memory nodeAddresses */\n      0x00\n        /* \"contracts/Validator.sol\":5903:5913  totalNodes */\n      dup2\n        /* \"contracts/Validator.sol\":5889:5914  new address[](totalNodes) */\n      0xffffffffffffffff\n      dup2\n      gt\n      iszero\n      tag_189\n      jumpi\n      tag_190\n      tag_191\n      jump\t// in\n    tag_190:\n    tag_189:\n      mload(0x40)\n      swap1\n      dup1\n      dup3\n      mstore\n      dup1\n      0x20\n      mul\n      0x20\n      add\n      dup3\n      add\n      0x40\n      mstore\n      dup1\n      iszero\n      tag_192\n      jumpi\n      dup2\n      0x20\n      add\n      0x20\n      dup3\n      mul\n      dup1\n      calldatasize\n      dup4\n      calldatacopy\n      dup1\n      dup3\n      add\n      swap2\n      pop\n      pop\n      swap1\n      pop\n    tag_192:\n      pop\n        /* \"contracts/Validator.sol\":5856:5914  address[] memory nodeAddresses = new address[](totalNodes) */\n      swap1\n      pop\n        /* \"contracts/Validator.sol\":5924:5960  address[] memory associatedAddresses */\n      0x00\n        /* \"contracts/Validator.sol\":5977:5987  totalNodes */\n      dup3\n        /* \"contracts/Validator.sol\":5963:5988  new address[](totalNodes) */\n      0xffffffffffffffff\n      dup2\n      gt\n      iszero\n      tag_193\n      jumpi\n      tag_194\n      tag_191\n      jump\t// in\n    tag_194:\n    tag_193:\n      mload(0x40)\n      swap1\n      dup1\n      dup3\n      mstore\n      dup1\n      0x20\n      mul\n      0x20\n      add\n      dup3\n      add\n      0x40\n      mstore\n      dup1\n      iszero\n      tag_195\n      jumpi\n      dup2\n      0x20\n      add\n      0x20\n      dup3\n      mul\n      dup1\n      calldatasize\n      dup4\n      calldatacopy\n      dup1\n      dup3\n      add\n      swap2\n      pop\n      pop\n      swap1\n      pop\n    tag_195:\n      pop\n        /* \"contracts/Validator.sol\":5924:5988  address[] memory associatedAddresses = new address[](totalNodes) */\n      swap1\n      pop\n        /* \"contracts/Validator.sol\":5998:6026  uint256[] memory sentAmounts */\n      0x00\n        /* \"contracts/Validator.sol\":6043:6053  totalNodes */\n      dup4\n        /* \"contracts/Validator.sol\":6029:6054  new uint256[](totalNodes) */\n      0xffffffffffffffff\n      dup2\n      gt\n      iszero\n      tag_196\n      jumpi\n      tag_197\n      tag_191\n      jump\t// in\n    tag_197:\n    tag_196:\n      mload(0x40)\n      swap1\n      dup1\n      dup3\n      mstore\n      dup1\n      0x20\n      mul\n      0x20\n      add\n      dup3\n      add\n      0x40\n      mstore\n      dup1\n      iszero\n      tag_198\n      jumpi\n      dup2\n      0x20\n      add\n      0x20\n      dup3\n      mul\n      dup1\n      calldatasize\n      dup4\n      calldatacopy\n      dup1\n      dup3\n      add\n      swap2\n      pop\n      pop\n      swap1\n      pop\n    tag_198:\n      pop\n        /* \"contracts/Validator.sol\":5998:6054  uint256[] memory sentAmounts = new uint256[](totalNodes) */\n      swap1\n      pop\n        /* \"contracts/Validator.sol\":6064:6098  uint256[] memory remainingBalances */\n      0x00\n        /* \"contracts/Validator.sol\":6115:6125  totalNodes */\n      dup5\n        /* \"contracts/Validator.sol\":6101:6126  new uint256[](totalNodes) */\n      0xffffffffffffffff\n      dup2\n      gt\n      iszero\n      tag_199\n      jumpi\n      tag_200\n      tag_191\n      jump\t// in\n    tag_200:\n    tag_199:\n      mload(0x40)\n      swap1\n      dup1\n      dup3\n      mstore\n      dup1\n      0x20\n      mul\n      0x20\n      add\n      dup3\n      add\n      0x40\n      mstore\n      dup1\n      iszero\n      tag_201\n      jumpi\n      dup2\n      0x20\n      add\n      0x20\n      dup3\n      mul\n      dup1\n      calldatasize\n      dup4\n      calldatacopy\n      dup1\n      dup3\n      add\n      swap2\n      pop\n      pop\n      swap1\n      pop\n    tag_201:\n      pop\n        /* \"contracts/Validator.sol\":6064:6126  uint256[] memory remainingBalances = new uint256[](totalNodes) */\n      swap1\n      pop\n        /* \"contracts/Validator.sol\":6142:6151  uint256 i */\n      0x00\n        /* \"contracts/Validator.sol\":6137:6674  for (uint256 i = 0; i < totalNodes; i++) {... */\n    tag_202:\n        /* \"contracts/Validator.sol\":6161:6171  totalNodes */\n      dup6\n        /* \"contracts/Validator.sol\":6157:6158  i */\n      dup2\n        /* \"contracts/Validator.sol\":6157:6171  i < totalNodes */\n      lt\n        /* \"contracts/Validator.sol\":6137:6674  for (uint256 i = 0; i < totalNodes; i++) {... */\n      iszero\n      tag_203\n      jumpi\n        /* \"contracts/Validator.sol\":6192:6211  address nodeAddress */\n      0x00\n        /* \"contracts/Validator.sol\":6214:6231  allValidatorNodes */\n      0x05\n        /* \"contracts/Validator.sol\":6232:6233  i */\n      dup3\n        /* \"contracts/Validator.sol\":6214:6234  allValidatorNodes[i] */\n      dup2\n      sload\n      dup2\n      lt\n      tag_205\n      jumpi\n      tag_206\n      tag_132\n      jump\t// in\n    tag_206:\n    tag_205:\n      swap1\n      0x00\n      mstore\n      keccak256(0x00, 0x20)\n      add\n      0x00\n      swap1\n      sload\n      swap1\n      0x0100\n      exp\n      swap1\n      div\n      0xffffffffffffffffffffffffffffffffffffffff\n      and\n        /* \"contracts/Validator.sol\":6192:6234  address nodeAddress = allValidatorNodes[i] */\n      swap1\n      pop\n        /* \"contracts/Validator.sol\":6248:6273  address associatedAddress */\n      0x00\n        /* \"contracts/Validator.sol\":6276:6298  validatorNodeToAccount */\n      0x02\n        /* \"contracts/Validator.sol\":6276:6311  validatorNodeToAccount[nodeAddress] */\n      0x00\n        /* \"contracts/Validator.sol\":6299:6310  nodeAddress */\n      dup4\n        /* \"contracts/Validator.sol\":6276:6311  validatorNodeToAccount[nodeAddress] */\n      0xffffffffffffffffffffffffffffffffffffffff\n      and\n      0xffffffffffffffffffffffffffffffffffffffff\n      and\n      dup2\n      mstore\n      0x20\n      add\n      swap1\n      dup2\n      mstore\n      0x20\n      add\n      0x00\n      keccak256\n      0x00\n      swap1\n      sload\n      swap1\n      0x0100\n      exp\n      swap1\n      div\n      0xffffffffffffffffffffffffffffffffffffffff\n      and\n        /* \"contracts/Validator.sol\":6248:6311  address associatedAddress = validatorNodeToAccount[nodeAddress] */\n      swap1\n      pop\n        /* \"contracts/Validator.sol\":6325:6343  uint256 sentAmount */\n      0x00\n        /* \"contracts/Validator.sol\":6346:6366  totalDepositedAmount */\n      0x04\n        /* \"contracts/Validator.sol\":6346:6379  totalDepositedAmount[nodeAddress] */\n      0x00\n        /* \"contracts/Validator.sol\":6367:6378  nodeAddress */\n      dup5\n        /* \"contracts/Validator.sol\":6346:6379  totalDepositedAmount[nodeAddress] */\n      0xffffffffffffffffffffffffffffffffffffffff\n      and\n      0xffffffffffffffffffffffffffffffffffffffff\n      and\n      dup2\n      mstore\n      0x20\n      add\n      swap1\n      dup2\n      mstore\n      0x20\n      add\n      0x00\n      keccak256\n      sload\n        /* \"contracts/Validator.sol\":6325:6379  uint256 sentAmount = totalDepositedAmount[nodeAddress] */\n      swap1\n      pop\n        /* \"contracts/Validator.sol\":6393:6417  uint256 remainingBalance */\n      0x00\n        /* \"contracts/Validator.sol\":6420:6437  depositedBalances */\n      0x03\n        /* \"contracts/Validator.sol\":6420:6456  depositedBalances[associatedAddress] */\n      0x00\n        /* \"contracts/Validator.sol\":6438:6455  associatedAddress */\n      dup5\n        /* \"contracts/Validator.sol\":6420:6456  depositedBalances[associatedAddress] */\n      0xffffffffffffffffffffffffffffffffffffffff\n      and\n      0xffffffffffffffffffffffffffffffffffffffff\n      and\n      dup2\n      mstore\n      0x20\n      add\n      swap1\n      dup2\n      mstore\n      0x20\n      add\n      0x00\n      keccak256\n      sload\n        /* \"contracts/Validator.sol\":6393:6456  uint256 remainingBalance = depositedBalances[associatedAddress] */\n      swap1\n      pop\n        /* \"contracts/Validator.sol\":6502:6513  nodeAddress */\n      dup4\n        /* \"contracts/Validator.sol\":6483:6496  nodeAddresses */\n      dup10\n        /* \"contracts/Validator.sol\":6497:6498  i */\n      dup7\n        /* \"contracts/Validator.sol\":6483:6499  nodeAddresses[i] */\n      dup2\n      mload\n      dup2\n      lt\n      tag_208\n      jumpi\n      tag_209\n      tag_132\n      jump\t// in\n    tag_209:\n    tag_208:\n      0x20\n      mul\n      0x20\n      add\n      add\n        /* \"contracts/Validator.sol\":6483:6513  nodeAddresses[i] = nodeAddress */\n      swap1\n      0xffffffffffffffffffffffffffffffffffffffff\n      and\n      swap1\n      dup2\n      0xffffffffffffffffffffffffffffffffffffffff\n      and\n      dup2\n      mstore\n      pop\n      pop\n        /* \"contracts/Validator.sol\":6552:6569  associatedAddress */\n      dup3\n        /* \"contracts/Validator.sol\":6527:6546  associatedAddresses */\n      dup9\n        /* \"contracts/Validator.sol\":6547:6548  i */\n      dup7\n        /* \"contracts/Validator.sol\":6527:6549  associatedAddresses[i] */\n      dup2\n      mload\n      dup2\n      lt\n      tag_210\n      jumpi\n      tag_211\n      tag_132\n      jump\t// in\n    tag_211:\n    tag_210:\n      0x20\n      mul\n      0x20\n      add\n      add\n        /* \"contracts/Validator.sol\":6527:6569  associatedAddresses[i] = associatedAddress */\n      swap1\n      0xffffffffffffffffffffffffffffffffffffffff\n      and\n      swap1\n      dup2\n      0xffffffffffffffffffffffffffffffffffffffff\n      and\n      dup2\n      mstore\n      pop\n      pop\n        /* \"contracts/Validator.sol\":6600:6610  sentAmount */\n      dup2\n        /* \"contracts/Validator.sol\":6583:6594  sentAmounts */\n      dup8\n        /* \"contracts/Validator.sol\":6595:6596  i */\n      dup7\n        /* \"contracts/Validator.sol\":6583:6597  sentAmounts[i] */\n      dup2\n      mload\n      dup2\n      lt\n      tag_212\n      jumpi\n      tag_213\n      tag_132\n      jump\t// in\n    tag_213:\n    tag_212:\n      0x20\n      mul\n      0x20\n      add\n      add\n        /* \"contracts/Validator.sol\":6583:6610  sentAmounts[i] = sentAmount */\n      dup2\n      dup2\n      mstore\n      pop\n      pop\n        /* \"contracts/Validator.sol\":6647:6663  remainingBalance */\n      dup1\n        /* \"contracts/Validator.sol\":6624:6641  remainingBalances */\n      dup7\n        /* \"contracts/Validator.sol\":6642:6643  i */\n      dup7\n        /* \"contracts/Validator.sol\":6624:6644  remainingBalances[i] */\n      dup2\n      mload\n      dup2\n      lt\n      tag_214\n      jumpi\n      tag_215\n      tag_132\n      jump\t// in\n    tag_215:\n    tag_214:\n      0x20\n      mul\n      0x20\n      add\n      add\n        /* \"contracts/Validator.sol\":6624:6663  remainingBalances[i] = remainingBalance */\n      dup2\n      dup2\n      mstore\n      pop\n      pop\n        /* \"contracts/Validator.sol\":6178:6674  {... */\n      pop\n      pop\n      pop\n      pop\n        /* \"contracts/Validator.sol\":6173:6176  i++ */\n      dup1\n      dup1\n      tag_216\n      swap1\n      tag_147\n      jump\t// in\n    tag_216:\n      swap2\n      pop\n      pop\n        /* \"contracts/Validator.sol\":6137:6674  for (uint256 i = 0; i < totalNodes; i++) {... */\n      jump(tag_202)\n    tag_203:\n      pop\n        /* \"contracts/Validator.sol\":6692:6705  nodeAddresses */\n      dup4\n        /* \"contracts/Validator.sol\":6707:6726  associatedAddresses */\n      dup4\n        /* \"contracts/Validator.sol\":6728:6739  sentAmounts */\n      dup4\n        /* \"contracts/Validator.sol\":6741:6758  remainingBalances */\n      dup4\n        /* \"contracts/Validator.sol\":6684:6759  return (nodeAddresses, associatedAddresses, sentAmounts, remainingBalances) */\n      swap9\n      pop\n      swap9\n      pop\n      swap9\n      pop\n      swap9\n      pop\n      pop\n      pop\n      pop\n      pop\n      pop\n        /* \"contracts/Validator.sol\":5656:6766  function fetchAllValidatorNodeDetails() external view returns (address[] memory, address[] memory, uint256[] memory, uint256[] memory) {... */\n      swap1\n      swap2\n      swap3\n      swap4\n      jump\t// out\n        /* \"@openzeppelin/contracts/access/Ownable.sol\":2293:2394  function renounceOwnership() public virtual onlyOwner {... */\n    tag_69:\n        /* \"@openzeppelin/contracts/access/Ownable.sol\":1531:1544  _checkOwner() */\n      tag_218\n        /* \"@openzeppelin/contracts/access/Ownable.sol\":1531:1542  _checkOwner */\n      tag_114\n        /* \"@openzeppelin/contracts/access/Ownable.sol\":1531:1544  _checkOwner() */\n      jump\t// in\n    tag_218:\n        /* \"@openzeppelin/contracts/access/Ownable.sol\":2357:2387  _transferOwnership(address(0)) */\n      tag_220\n        /* \"@openzeppelin/contracts/access/Ownable.sol\":2384:2385  0 */\n      0x00\n        /* \"@openzeppelin/contracts/access/Ownable.sol\":2357:2375  _transferOwnership */\n      tag_221\n        /* \"@openzeppelin/contracts/access/Ownable.sol\":2357:2387  _transferOwnership(address(0)) */\n      jump\t// in\n    tag_220:\n        /* \"@openzeppelin/contracts/access/Ownable.sol\":2293:2394  function renounceOwnership() public virtual onlyOwner {... */\n      jump\t// out\n        /* \"contracts/Validator.sol\":836:879  uint256 public withdrawalFeePercentage = 10 */\n    tag_72:\n      sload(0x06)\n      dup2\n      jump\t// out\n        /* \"contracts/Validator.sol\":548:600  mapping(address => uint256) public depositedBalances */\n    tag_78:\n      mstore(0x20, 0x03)\n      dup1\n      0x00\n      mstore\n      keccak256(0x00, 0x40)\n      0x00\n      swap2\n      pop\n      swap1\n      pop\n      sload\n      dup2\n      jump\t// out\n        /* \"contracts/Validator.sol\":682:737  mapping(address => uint256) public totalDepositedAmount */\n    tag_83:\n      mstore(0x20, 0x04)\n      dup1\n      0x00\n      mstore\n      keccak256(0x00, 0x40)\n      0x00\n      swap2\n      pop\n      swap1\n      pop\n      sload\n      dup2\n      jump\t// out\n        /* \"@openzeppelin/contracts/access/Ownable.sol\":1638:1723  function owner() public view virtual returns (address) {... */\n    tag_87:\n        /* \"@openzeppelin/contracts/access/Ownable.sol\":1684:1691  address */\n      0x00\n        /* \"@openzeppelin/contracts/access/Ownable.sol\":1710:1716  _owner */\n      0x01\n      0x00\n      swap1\n      sload\n      swap1\n      0x0100\n      exp\n      swap1\n      div\n      0xffffffffffffffffffffffffffffffffffffffff\n      and\n        /* \"@openzeppelin/contracts/access/Ownable.sol\":1703:1716  return _owner */\n      swap1\n      pop\n        /* \"@openzeppelin/contracts/access/Ownable.sol\":1638:1723  function owner() public view virtual returns (address) {... */\n      swap1\n      jump\t// out\n        /* \"contracts/Validator.sol\":4716:4814  function setEdxAccount(address _account) external onlyOwner {... */\n    tag_92:\n        /* \"@openzeppelin/contracts/access/Ownable.sol\":1531:1544  _checkOwner() */\n      tag_224\n        /* \"@openzeppelin/contracts/access/Ownable.sol\":1531:1542  _checkOwner */\n      tag_114\n        /* \"@openzeppelin/contracts/access/Ownable.sol\":1531:1544  _checkOwner() */\n      jump\t// in\n    tag_224:\n        /* \"contracts/Validator.sol\":4799:4807  _account */\n      dup1\n        /* \"contracts/Validator.sol\":4786:4796  edxAccount */\n      0x07\n      0x00\n        /* \"contracts/Validator.sol\":4786:4807  edxAccount = _account */\n      0x0100\n      exp\n      dup2\n      sload\n      dup2\n      0xffffffffffffffffffffffffffffffffffffffff\n      mul\n      not\n      and\n      swap1\n      dup4\n      0xffffffffffffffffffffffffffffffffffffffff\n      and\n      mul\n      or\n      swap1\n      sstore\n      pop\n        /* \"contracts/Validator.sol\":4716:4814  function setEdxAccount(address _account) external onlyOwner {... */\n      pop\n      jump\t// out\n        /* \"contracts/Validator.sol\":5031:5103  function unpauseContract() external onlyOwner {... */\n    tag_95:\n        /* \"@openzeppelin/contracts/access/Ownable.sol\":1531:1544  _checkOwner() */\n      tag_227\n        /* \"@openzeppelin/contracts/access/Ownable.sol\":1531:1542  _checkOwner */\n      tag_114\n        /* \"@openzeppelin/contracts/access/Ownable.sol\":1531:1544  _checkOwner() */\n      jump\t// in\n    tag_227:\n        /* \"contracts/Validator.sol\":5086:5096  _unpause() */\n      tag_229\n        /* \"contracts/Validator.sol\":5086:5094  _unpause */\n      tag_230\n        /* \"contracts/Validator.sol\":5086:5096  _unpause() */\n      jump\t// in\n    tag_229:\n        /* \"contracts/Validator.sol\":5031:5103  function unpauseContract() external onlyOwner {... */\n      jump\t// out\n        /* \"contracts/Validator.sol\":406:463  mapping(address => address) public validatorNodeToAccount */\n    tag_99:\n      mstore(0x20, 0x02)\n      dup1\n      0x00\n      mstore\n      keccak256(0x00, 0x40)\n      0x00\n      swap2\n      pop\n      sload\n      swap1\n      0x0100\n      exp\n      swap1\n      div\n      0xffffffffffffffffffffffffffffffffffffffff\n      and\n      dup2\n      jump\t// out\n        /* \"contracts/Validator.sol\":795:829  address[] public allValidatorNodes */\n    tag_104:\n      0x05\n      dup2\n      dup2\n      sload\n      dup2\n      lt\n      tag_231\n      jumpi\n      0x00\n      dup1\n      revert\n    tag_231:\n      swap1\n      0x00\n      mstore\n      keccak256(0x00, 0x20)\n      add\n      0x00\n      swap2\n      pop\n      sload\n      swap1\n      0x0100\n      exp\n      swap1\n      div\n      0xffffffffffffffffffffffffffffffffffffffff\n      and\n      dup2\n      jump\t// out\n        /* \"contracts/Validator.sol\":1103:1743  function deposit() external payable nonReentrant whenNotPaused {... */\n    tag_107:\n        /* \"@openzeppelin/contracts/security/ReentrancyGuard.sol\":2261:2282  _nonReentrantBefore() */\n      tag_234\n        /* \"@openzeppelin/contracts/security/ReentrancyGuard.sol\":2261:2280  _nonReentrantBefore */\n      tag_157\n        /* \"@openzeppelin/contracts/security/ReentrancyGuard.sol\":2261:2282  _nonReentrantBefore() */\n      jump\t// in\n    tag_234:\n        /* \"@openzeppelin/contracts/security/Pausable.sol\":1239:1258  _requireNotPaused() */\n      tag_236\n        /* \"@openzeppelin/contracts/security/Pausable.sol\":1239:1256  _requireNotPaused */\n      tag_160\n        /* \"@openzeppelin/contracts/security/Pausable.sol\":1239:1258  _requireNotPaused() */\n      jump\t// in\n    tag_236:\n        /* \"contracts/Validator.sol\":1176:1207  address validatorAccountAddress */\n      0x00\n        /* \"contracts/Validator.sol\":1210:1232  validatorNodeToAccount */\n      0x02\n        /* \"contracts/Validator.sol\":1210:1244  validatorNodeToAccount[msg.sender] */\n      0x00\n        /* \"contracts/Validator.sol\":1233:1243  msg.sender */\n      caller\n        /* \"contracts/Validator.sol\":1210:1244  validatorNodeToAccount[msg.sender] */\n      0xffffffffffffffffffffffffffffffffffffffff\n      and\n      0xffffffffffffffffffffffffffffffffffffffff\n      and\n      dup2\n      mstore\n      0x20\n      add\n      swap1\n      dup2\n      mstore\n      0x20\n      add\n      0x00\n      keccak256\n      0x00\n      swap1\n      sload\n      swap1\n      0x0100\n      exp\n      swap1\n      div\n      0xffffffffffffffffffffffffffffffffffffffff\n      and\n        /* \"contracts/Validator.sol\":1176:1244  address validatorAccountAddress = validatorNodeToAccount[msg.sender] */\n      swap1\n      pop\n        /* \"contracts/Validator.sol\":1297:1298  0 */\n      0x00\n        /* \"contracts/Validator.sol\":1262:1299  validatorAccountAddress != address(0) */\n      0xffffffffffffffffffffffffffffffffffffffff\n      and\n        /* \"contracts/Validator.sol\":1262:1285  validatorAccountAddress */\n      dup2\n        /* \"contracts/Validator.sol\":1262:1299  validatorAccountAddress != address(0) */\n      0xffffffffffffffffffffffffffffffffffffffff\n      and\n      sub\n        /* \"contracts/Validator.sol\":1254:1329  require(validatorAccountAddress != address(0), \"Validator node not linked\") */\n      tag_238\n      jumpi\n      mload(0x40)\n      0x08c379a000000000000000000000000000000000000000000000000000000000\n      dup2\n      mstore\n      0x04\n      add\n      tag_239\n      swap1\n      tag_240\n      jump\t// in\n    tag_239:\n      mload(0x40)\n      dup1\n      swap2\n      sub\n      swap1\n      revert\n    tag_238:\n        /* \"contracts/Validator.sol\":1385:1394  msg.value */\n      callvalue\n        /* \"contracts/Validator.sol\":1339:1356  depositedBalances */\n      0x03\n        /* \"contracts/Validator.sol\":1339:1381  depositedBalances[validatorAccountAddress] */\n      0x00\n        /* \"contracts/Validator.sol\":1357:1380  validatorAccountAddress */\n      dup4\n        /* \"contracts/Validator.sol\":1339:1381  depositedBalances[validatorAccountAddress] */\n      0xffffffffffffffffffffffffffffffffffffffff\n      and\n      0xffffffffffffffffffffffffffffffffffffffff\n      and\n      dup2\n      mstore\n      0x20\n      add\n      swap1\n      dup2\n      mstore\n      0x20\n      add\n      0x00\n      keccak256\n      0x00\n        /* \"contracts/Validator.sol\":1339:1394  depositedBalances[validatorAccountAddress] += msg.value */\n      dup3\n      dup3\n      sload\n      tag_241\n      swap2\n      swap1\n      tag_242\n      jump\t// in\n    tag_241:\n      swap3\n      pop\n      pop\n      dup2\n      swap1\n      sstore\n      pop\n        /* \"contracts/Validator.sol\":1477:1486  msg.value */\n      callvalue\n        /* \"contracts/Validator.sol\":1441:1461  totalDepositedAmount */\n      0x04\n        /* \"contracts/Validator.sol\":1441:1473  totalDepositedAmount[msg.sender] */\n      0x00\n        /* \"contracts/Validator.sol\":1462:1472  msg.sender */\n      caller\n        /* \"contracts/Validator.sol\":1441:1473  totalDepositedAmount[msg.sender] */\n      0xffffffffffffffffffffffffffffffffffffffff\n      and\n      0xffffffffffffffffffffffffffffffffffffffff\n      and\n      dup2\n      mstore\n      0x20\n      add\n      swap1\n      dup2\n      mstore\n      0x20\n      add\n      0x00\n      keccak256\n      0x00\n        /* \"contracts/Validator.sol\":1441:1486  totalDepositedAmount[msg.sender] += msg.value */\n      dup3\n      dup3\n      sload\n      tag_243\n      swap2\n      swap1\n      tag_242\n      jump\t// in\n    tag_243:\n      swap3\n      pop\n      pop\n      dup2\n      swap1\n      sstore\n      pop\n        /* \"contracts/Validator.sol\":1637:1676  contains(allValidatorNodes, msg.sender) */\n      tag_244\n        /* \"contracts/Validator.sol\":1646:1663  allValidatorNodes */\n      0x05\n        /* \"contracts/Validator.sol\":1665:1675  msg.sender */\n      caller\n        /* \"contracts/Validator.sol\":1637:1645  contains */\n      tag_152\n        /* \"contracts/Validator.sol\":1637:1676  contains(allValidatorNodes, msg.sender) */\n      jump\t// in\n    tag_244:\n        /* \"contracts/Validator.sol\":1632:1737  if (!contains(allValidatorNodes, msg.sender)) {... */\n      tag_245\n      jumpi\n        /* \"contracts/Validator.sol\":1692:1709  allValidatorNodes */\n      0x05\n        /* \"contracts/Validator.sol\":1715:1725  msg.sender */\n      caller\n        /* \"contracts/Validator.sol\":1692:1726  allValidatorNodes.push(msg.sender) */\n      swap1\n      dup1\n      0x01\n      dup2\n      sload\n      add\n      dup1\n      dup3\n      sstore\n      dup1\n      swap2\n      pop\n      pop\n      0x01\n      swap1\n      sub\n      swap1\n      0x00\n      mstore\n      keccak256(0x00, 0x20)\n      add\n      0x00\n      swap1\n      swap2\n      swap1\n      swap2\n      swap1\n      swap2\n      0x0100\n      exp\n      dup2\n      sload\n      dup2\n      0xffffffffffffffffffffffffffffffffffffffff\n      mul\n      not\n      and\n      swap1\n      dup4\n      0xffffffffffffffffffffffffffffffffffffffff\n      and\n      mul\n      or\n      swap1\n      sstore\n      pop\n        /* \"contracts/Validator.sol\":1632:1737  if (!contains(allValidatorNodes, msg.sender)) {... */\n    tag_245:\n        /* \"contracts/Validator.sol\":1166:1743  {... */\n      pop\n        /* \"@openzeppelin/contracts/security/ReentrancyGuard.sol\":2303:2323  _nonReentrantAfter() */\n      tag_247\n        /* \"@openzeppelin/contracts/security/ReentrancyGuard.sol\":2303:2321  _nonReentrantAfter */\n      tag_174\n        /* \"@openzeppelin/contracts/security/ReentrancyGuard.sol\":2303:2323  _nonReentrantAfter() */\n      jump\t// in\n    tag_247:\n        /* \"contracts/Validator.sol\":1103:1743  function deposit() external payable nonReentrant whenNotPaused {... */\n      jump\t// out\n        /* \"@openzeppelin/contracts/access/Ownable.sol\":2543:2758  function transferOwnership(address newOwner) public virtual onlyOwner {... */\n    tag_111:\n        /* \"@openzeppelin/contracts/access/Ownable.sol\":1531:1544  _checkOwner() */\n      tag_249\n        /* \"@openzeppelin/contracts/access/Ownable.sol\":1531:1542  _checkOwner */\n      tag_114\n        /* \"@openzeppelin/contracts/access/Ownable.sol\":1531:1544  _checkOwner() */\n      jump\t// in\n    tag_249:\n        /* \"@openzeppelin/contracts/access/Ownable.sol\":2647:2648  0 */\n      0x00\n        /* \"@openzeppelin/contracts/access/Ownable.sol\":2627:2649  newOwner == address(0) */\n      0xffffffffffffffffffffffffffffffffffffffff\n      and\n        /* \"@openzeppelin/contracts/access/Ownable.sol\":2627:2635  newOwner */\n      dup2\n        /* \"@openzeppelin/contracts/access/Ownable.sol\":2627:2649  newOwner == address(0) */\n      0xffffffffffffffffffffffffffffffffffffffff\n      and\n      sub\n        /* \"@openzeppelin/contracts/access/Ownable.sol\":2623:2714  if (newOwner == address(0)) {... */\n      tag_251\n      jumpi\n        /* \"@openzeppelin/contracts/access/Ownable.sol\":2700:2701  0 */\n      0x00\n        /* \"@openzeppelin/contracts/access/Ownable.sol\":2672:2703  OwnableInvalidOwner(address(0)) */\n      mload(0x40)\n      0x1e4fbdf700000000000000000000000000000000000000000000000000000000\n      dup2\n      mstore\n      0x04\n      add\n      tag_252\n      swap2\n      swap1\n      tag_39\n      jump\t// in\n    tag_252:\n      mload(0x40)\n      dup1\n      swap2\n      sub\n      swap1\n      revert\n        /* \"@openzeppelin/contracts/access/Ownable.sol\":2623:2714  if (newOwner == address(0)) {... */\n    tag_251:\n        /* \"@openzeppelin/contracts/access/Ownable.sol\":2723:2751  _transferOwnership(newOwner) */\n      tag_253\n        /* \"@openzeppelin/contracts/access/Ownable.sol\":2742:2750  newOwner */\n      dup2\n        /* \"@openzeppelin/contracts/access/Ownable.sol\":2723:2741  _transferOwnership */\n      tag_221\n        /* \"@openzeppelin/contracts/access/Ownable.sol\":2723:2751  _transferOwnership(newOwner) */\n      jump\t// in\n    tag_253:\n        /* \"@openzeppelin/contracts/access/Ownable.sol\":2543:2758  function transferOwnership(address newOwner) public virtual onlyOwner {... */\n      pop\n      jump\t// out\n        /* \"@openzeppelin/contracts/access/Ownable.sol\":1796:1958  function _checkOwner() internal view virtual {... */\n    tag_114:\n        /* \"@openzeppelin/contracts/access/Ownable.sol\":1866:1878  _msgSender() */\n      tag_255\n        /* \"@openzeppelin/contracts/access/Ownable.sol\":1866:1876  _msgSender */\n      tag_256\n        /* \"@openzeppelin/contracts/access/Ownable.sol\":1866:1878  _msgSender() */\n      jump\t// in\n    tag_255:\n        /* \"@openzeppelin/contracts/access/Ownable.sol\":1855:1878  owner() != _msgSender() */\n      0xffffffffffffffffffffffffffffffffffffffff\n      and\n        /* \"@openzeppelin/contracts/access/Ownable.sol\":1855:1862  owner() */\n      tag_257\n        /* \"@openzeppelin/contracts/access/Ownable.sol\":1855:1860  owner */\n      tag_87\n        /* \"@openzeppelin/contracts/access/Ownable.sol\":1855:1862  owner() */\n      jump\t// in\n    tag_257:\n        /* \"@openzeppelin/contracts/access/Ownable.sol\":1855:1878  owner() != _msgSender() */\n      0xffffffffffffffffffffffffffffffffffffffff\n      and\n      eq\n        /* \"@openzeppelin/contracts/access/Ownable.sol\":1851:1952  if (owner() != _msgSender()) {... */\n      tag_258\n      jumpi\n        /* \"@openzeppelin/contracts/access/Ownable.sol\":1928:1940  _msgSender() */\n      tag_259\n        /* \"@openzeppelin/contracts/access/Ownable.sol\":1928:1938  _msgSender */\n      tag_256\n        /* \"@openzeppelin/contracts/access/Ownable.sol\":1928:1940  _msgSender() */\n      jump\t// in\n    tag_259:\n        /* \"@openzeppelin/contracts/access/Ownable.sol\":1901:1941  OwnableUnauthorizedAccount(_msgSender()) */\n      mload(0x40)\n      0x118cdaa700000000000000000000000000000000000000000000000000000000\n      dup2\n      mstore\n      0x04\n      add\n      tag_260\n      swap2\n      swap1\n      tag_39\n      jump\t// in\n    tag_260:\n      mload(0x40)\n      dup1\n      swap2\n      sub\n      swap1\n      revert\n        /* \"@openzeppelin/contracts/access/Ownable.sol\":1851:1952  if (owner() != _msgSender()) {... */\n    tag_258:\n        /* \"@openzeppelin/contracts/access/Ownable.sol\":1796:1958  function _checkOwner() internal view virtual {... */\n      jump\t// out\n        /* \"contracts/Validator.sol\":6830:7093  function contains(address[] storage array, address element) internal view returns (bool) {... */\n    tag_152:\n        /* \"contracts/Validator.sol\":6913:6917  bool */\n      0x00\n        /* \"contracts/Validator.sol\":6934:6943  uint256 i */\n      dup1\n        /* \"contracts/Validator.sol\":6946:6947  0 */\n      0x00\n        /* \"contracts/Validator.sol\":6934:6947  uint256 i = 0 */\n      swap1\n      pop\n        /* \"contracts/Validator.sol\":6929:7065  for (uint256 i = 0; i < array.length; i++) {... */\n    tag_262:\n        /* \"contracts/Validator.sol\":6953:6958  array */\n      dup4\n        /* \"contracts/Validator.sol\":6953:6965  array.length */\n      dup1\n      sload\n      swap1\n      pop\n        /* \"contracts/Validator.sol\":6949:6950  i */\n      dup2\n        /* \"contracts/Validator.sol\":6949:6965  i < array.length */\n      lt\n        /* \"contracts/Validator.sol\":6929:7065  for (uint256 i = 0; i < array.length; i++) {... */\n      iszero\n      tag_263\n      jumpi\n        /* \"contracts/Validator.sol\":7002:7009  element */\n      dup3\n        /* \"contracts/Validator.sol\":6990:7009  array[i] == element */\n      0xffffffffffffffffffffffffffffffffffffffff\n      and\n        /* \"contracts/Validator.sol\":6990:6995  array */\n      dup5\n        /* \"contracts/Validator.sol\":6996:6997  i */\n      dup3\n        /* \"contracts/Validator.sol\":6990:6998  array[i] */\n      dup2\n      sload\n      dup2\n      lt\n      tag_265\n      jumpi\n      tag_266\n      tag_132\n      jump\t// in\n    tag_266:\n    tag_265:\n      swap1\n      0x00\n      mstore\n      keccak256(0x00, 0x20)\n      add\n      0x00\n      swap1\n      sload\n      swap1\n      0x0100\n      exp\n      swap1\n      div\n      0xffffffffffffffffffffffffffffffffffffffff\n      and\n        /* \"contracts/Validator.sol\":6990:7009  array[i] == element */\n      0xffffffffffffffffffffffffffffffffffffffff\n      and\n      sub\n        /* \"contracts/Validator.sol\":6986:7055  if (array[i] == element) {... */\n      tag_268\n      jumpi\n        /* \"contracts/Validator.sol\":7036:7040  true */\n      0x01\n        /* \"contracts/Validator.sol\":7029:7040  return true */\n      swap2\n      pop\n      pop\n      jump(tag_261)\n        /* \"contracts/Validator.sol\":6986:7055  if (array[i] == element) {... */\n    tag_268:\n        /* \"contracts/Validator.sol\":6967:6970  i++ */\n      dup1\n      dup1\n      tag_269\n      swap1\n      tag_147\n      jump\t// in\n    tag_269:\n      swap2\n      pop\n      pop\n        /* \"contracts/Validator.sol\":6929:7065  for (uint256 i = 0; i < array.length; i++) {... */\n      jump(tag_262)\n    tag_263:\n      pop\n        /* \"contracts/Validator.sol\":7081:7086  false */\n      0x00\n        /* \"contracts/Validator.sol\":7074:7086  return false */\n      swap1\n      pop\n        /* \"contracts/Validator.sol\":6830:7093  function contains(address[] storage array, address element) internal view returns (bool) {... */\n    tag_261:\n      swap3\n      swap2\n      pop\n      pop\n      jump\t// out\n        /* \"@openzeppelin/contracts/security/ReentrancyGuard.sol\":2336:2623  function _nonReentrantBefore() private {... */\n    tag_157:\n        /* \"@openzeppelin/contracts/security/ReentrancyGuard.sol\":1759:1760  2 */\n      0x02\n        /* \"@openzeppelin/contracts/security/ReentrancyGuard.sol\":2468:2475  _status */\n      sload(0x00)\n        /* \"@openzeppelin/contracts/security/ReentrancyGuard.sol\":2468:2487  _status != _ENTERED */\n      sub\n        /* \"@openzeppelin/contracts/security/ReentrancyGuard.sol\":2460:2523  require(_status != _ENTERED, \"ReentrancyGuard: reentrant call\") */\n      tag_271\n      jumpi\n      mload(0x40)\n      0x08c379a000000000000000000000000000000000000000000000000000000000\n      dup2\n      mstore\n      0x04\n      add\n      tag_272\n      swap1\n      tag_273\n      jump\t// in\n    tag_272:\n      mload(0x40)\n      dup1\n      swap2\n      sub\n      swap1\n      revert\n    tag_271:\n        /* \"@openzeppelin/contracts/security/ReentrancyGuard.sol\":1759:1760  2 */\n      0x02\n        /* \"@openzeppelin/contracts/security/ReentrancyGuard.sol\":2598:2605  _status */\n      0x00\n        /* \"@openzeppelin/contracts/security/ReentrancyGuard.sol\":2598:2616  _status = _ENTERED */\n      dup2\n      swap1\n      sstore\n      pop\n        /* \"@openzeppelin/contracts/security/ReentrancyGuard.sol\":2336:2623  function _nonReentrantBefore() private {... */\n      jump\t// out\n        /* \"@openzeppelin/contracts/security/Pausable.sol\":1767:1873  function _requireNotPaused() internal view virtual {... */\n    tag_160:\n        /* \"@openzeppelin/contracts/security/Pausable.sol\":1837:1845  paused() */\n      tag_275\n        /* \"@openzeppelin/contracts/security/Pausable.sol\":1837:1843  paused */\n      tag_54\n        /* \"@openzeppelin/contracts/security/Pausable.sol\":1837:1845  paused() */\n      jump\t// in\n    tag_275:\n        /* \"@openzeppelin/contracts/security/Pausable.sol\":1836:1845  !paused() */\n      iszero\n        /* \"@openzeppelin/contracts/security/Pausable.sol\":1828:1866  require(!paused(), \"Pausable: paused\") */\n      tag_276\n      jumpi\n      mload(0x40)\n      0x08c379a000000000000000000000000000000000000000000000000000000000\n      dup2\n      mstore\n      0x04\n      add\n      tag_277\n      swap1\n      tag_278\n      jump\t// in\n    tag_277:\n      mload(0x40)\n      dup1\n      swap2\n      sub\n      swap1\n      revert\n    tag_276:\n        /* \"@openzeppelin/contracts/security/Pausable.sol\":1767:1873  function _requireNotPaused() internal view virtual {... */\n      jump\t// out\n        /* \"@openzeppelin/contracts/security/ReentrancyGuard.sol\":2629:2838  function _nonReentrantAfter() private {... */\n    tag_174:\n        /* \"@openzeppelin/contracts/security/ReentrancyGuard.sol\":1716:1717  1 */\n      0x01\n        /* \"@openzeppelin/contracts/security/ReentrancyGuard.sol\":2809:2816  _status */\n      0x00\n        /* \"@openzeppelin/contracts/security/ReentrancyGuard.sol\":2809:2831  _status = _NOT_ENTERED */\n      dup2\n      swap1\n      sstore\n      pop\n        /* \"@openzeppelin/contracts/security/ReentrancyGuard.sol\":2629:2838  function _nonReentrantAfter() private {... */\n      jump\t// out\n        /* \"@openzeppelin/contracts/security/Pausable.sol\":2186:2301  function _pause() internal virtual whenNotPaused {... */\n    tag_180:\n        /* \"@openzeppelin/contracts/security/Pausable.sol\":1239:1258  _requireNotPaused() */\n      tag_281\n        /* \"@openzeppelin/contracts/security/Pausable.sol\":1239:1256  _requireNotPaused */\n      tag_160\n        /* \"@openzeppelin/contracts/security/Pausable.sol\":1239:1258  _requireNotPaused() */\n      jump\t// in\n    tag_281:\n        /* \"@openzeppelin/contracts/security/Pausable.sol\":2255:2259  true */\n      0x01\n        /* \"@openzeppelin/contracts/security/Pausable.sol\":2245:2252  _paused */\n      dup1\n      0x14\n        /* \"@openzeppelin/contracts/security/Pausable.sol\":2245:2259  _paused = true */\n      0x0100\n      exp\n      dup2\n      sload\n      dup2\n      0xff\n      mul\n      not\n      and\n      swap1\n      dup4\n      iszero\n      iszero\n      mul\n      or\n      swap1\n      sstore\n      pop\n        /* \"@openzeppelin/contracts/security/Pausable.sol\":2274:2294  Paused(_msgSender()) */\n      0x62e78cea01bee320cd4e420270b5ea74000d11b0c9f74754ebdbfc544b05a258\n        /* \"@openzeppelin/contracts/security/Pausable.sol\":2281:2293  _msgSender() */\n      tag_283\n        /* \"@openzeppelin/contracts/security/Pausable.sol\":2281:2291  _msgSender */\n      tag_256\n        /* \"@openzeppelin/contracts/security/Pausable.sol\":2281:2293  _msgSender() */\n      jump\t// in\n    tag_283:\n        /* \"@openzeppelin/contracts/security/Pausable.sol\":2274:2294  Paused(_msgSender()) */\n      mload(0x40)\n      tag_284\n      swap2\n      swap1\n      tag_39\n      jump\t// in\n    tag_284:\n      mload(0x40)\n      dup1\n      swap2\n      sub\n      swap1\n      log1\n        /* \"@openzeppelin/contracts/security/Pausable.sol\":2186:2301  function _pause() internal virtual whenNotPaused {... */\n      jump\t// out\n        /* \"@openzeppelin/contracts/access/Ownable.sol\":2912:3099  function _transferOwnership(address newOwner) internal virtual {... */\n    tag_221:\n        /* \"@openzeppelin/contracts/access/Ownable.sol\":2985:3001  address oldOwner */\n      0x00\n        /* \"@openzeppelin/contracts/access/Ownable.sol\":3004:3010  _owner */\n      0x01\n      0x00\n      swap1\n      sload\n      swap1\n      0x0100\n      exp\n      swap1\n      div\n      0xffffffffffffffffffffffffffffffffffffffff\n      and\n        /* \"@openzeppelin/contracts/access/Ownable.sol\":2985:3010  address oldOwner = _owner */\n      swap1\n      pop\n        /* \"@openzeppelin/contracts/access/Ownable.sol\":3029:3037  newOwner */\n      dup2\n        /* \"@openzeppelin/contracts/access/Ownable.sol\":3020:3026  _owner */\n      0x01\n      0x00\n        /* \"@openzeppelin/contracts/access/Ownable.sol\":3020:3037  _owner = newOwner */\n      0x0100\n      exp\n      dup2\n      sload\n      dup2\n      0xffffffffffffffffffffffffffffffffffffffff\n      mul\n      not\n      and\n      swap1\n      dup4\n      0xffffffffffffffffffffffffffffffffffffffff\n      and\n      mul\n      or\n      swap1\n      sstore\n      pop\n        /* \"@openzeppelin/contracts/access/Ownable.sol\":3083:3091  newOwner */\n      dup2\n        /* \"@openzeppelin/contracts/access/Ownable.sol\":3052:3092  OwnershipTransferred(oldOwner, newOwner) */\n      0xffffffffffffffffffffffffffffffffffffffff\n      and\n        /* \"@openzeppelin/contracts/access/Ownable.sol\":3073:3081  oldOwner */\n      dup2\n        /* \"@openzeppelin/contracts/access/Ownable.sol\":3052:3092  OwnershipTransferred(oldOwner, newOwner) */\n      0xffffffffffffffffffffffffffffffffffffffff\n      and\n      0x8be0079c531659141344cd1fd0a4f28419497f9722a3daafe3b4186f6b6457e0\n      mload(0x40)\n      mload(0x40)\n      dup1\n      swap2\n      sub\n      swap1\n      log3\n        /* \"@openzeppelin/contracts/access/Ownable.sol\":2975:3099  {... */\n      pop\n        /* \"@openzeppelin/contracts/access/Ownable.sol\":2912:3099  function _transferOwnership(address newOwner) internal virtual {... */\n      pop\n      jump\t// out\n        /* \"@openzeppelin/contracts/security/Pausable.sol\":2433:2550  function _unpause() internal virtual whenPaused {... */\n    tag_230:\n        /* \"@openzeppelin/contracts/security/Pausable.sol\":1486:1502  _requirePaused() */\n      tag_287\n        /* \"@openzeppelin/contracts/security/Pausable.sol\":1486:1500  _requirePaused */\n      tag_288\n        /* \"@openzeppelin/contracts/security/Pausable.sol\":1486:1502  _requirePaused() */\n      jump\t// in\n    tag_287:\n        /* \"@openzeppelin/contracts/security/Pausable.sol\":2501:2506  false */\n      0x00\n        /* \"@openzeppelin/contracts/security/Pausable.sol\":2491:2498  _paused */\n      0x01\n      0x14\n        /* \"@openzeppelin/contracts/security/Pausable.sol\":2491:2506  _paused = false */\n      0x0100\n      exp\n      dup2\n      sload\n      dup2\n      0xff\n      mul\n      not\n      and\n      swap1\n      dup4\n      iszero\n      iszero\n      mul\n      or\n      swap1\n      sstore\n      pop\n        /* \"@openzeppelin/contracts/security/Pausable.sol\":2521:2543  Unpaused(_msgSender()) */\n      0x5db9ee0a495bf2e6ff9c91a7834c1ba4fdd244a5e8aa4e537bd38aeae4b073aa\n        /* \"@openzeppelin/contracts/security/Pausable.sol\":2530:2542  _msgSender() */\n      tag_290\n        /* \"@openzeppelin/contracts/security/Pausable.sol\":2530:2540  _msgSender */\n      tag_256\n        /* \"@openzeppelin/contracts/security/Pausable.sol\":2530:2542  _msgSender() */\n      jump\t// in\n    tag_290:\n        /* \"@openzeppelin/contracts/security/Pausable.sol\":2521:2543  Unpaused(_msgSender()) */\n      mload(0x40)\n      tag_291\n      swap2\n      swap1\n      tag_39\n      jump\t// in\n    tag_291:\n      mload(0x40)\n      dup1\n      swap2\n      sub\n      swap1\n      log1\n        /* \"@openzeppelin/contracts/security/Pausable.sol\":2433:2550  function _unpause() internal virtual whenPaused {... */\n      jump\t// out\n        /* \"@openzeppelin/contracts/utils/Context.sol\":656:752  function _msgSender() internal view virtual returns (address) {... */\n    tag_256:\n        /* \"@openzeppelin/contracts/utils/Context.sol\":709:716  address */\n      0x00\n        /* \"@openzeppelin/contracts/utils/Context.sol\":735:745  msg.sender */\n      caller\n        /* \"@openzeppelin/contracts/utils/Context.sol\":728:745  return msg.sender */\n      swap1\n      pop\n        /* \"@openzeppelin/contracts/utils/Context.sol\":656:752  function _msgSender() internal view virtual returns (address) {... */\n      swap1\n      jump\t// out\n        /* \"@openzeppelin/contracts/security/Pausable.sol\":1945:2051  function _requirePaused() internal view virtual {... */\n    tag_288:\n        /* \"@openzeppelin/contracts/security/Pausable.sol\":2011:2019  paused() */\n      tag_294\n        /* \"@openzeppelin/contracts/security/Pausable.sol\":2011:2017  paused */\n      tag_54\n        /* \"@openzeppelin/contracts/security/Pausable.sol\":2011:2019  paused() */\n      jump\t// in\n    tag_294:\n        /* \"@openzeppelin/contracts/security/Pausable.sol\":2003:2044  require(paused(), \"Pausable: not paused\") */\n      tag_295\n      jumpi\n      mload(0x40)\n      0x08c379a000000000000000000000000000000000000000000000000000000000\n      dup2\n      mstore\n      0x04\n      add\n      tag_296\n      swap1\n      tag_297\n      jump\t// in\n    tag_296:\n      mload(0x40)\n      dup1\n      swap2\n      sub\n      swap1\n      revert\n    tag_295:\n        /* \"@openzeppelin/contracts/security/Pausable.sol\":1945:2051  function _requirePaused() internal view virtual {... */\n      jump\t// out\n        /* \"#utility.yul\":88:205   */\n    tag_299:\n        /* \"#utility.yul\":197:198   */\n      0x00\n        /* \"#utility.yul\":194:195   */\n      dup1\n        /* \"#utility.yul\":187:199   */\n      revert\n        /* \"#utility.yul\":334:460   */\n    tag_301:\n        /* \"#utility.yul\":371:378   */\n      0x00\n        /* \"#utility.yul\":411:453   */\n      0xffffffffffffffffffffffffffffffffffffffff\n        /* \"#utility.yul\":404:409   */\n      dup3\n        /* \"#utility.yul\":400:454   */\n      and\n        /* \"#utility.yul\":389:454   */\n      swap1\n      pop\n        /* \"#utility.yul\":334:460   */\n      swap2\n      swap1\n      pop\n      jump\t// out\n        /* \"#utility.yul\":466:562   */\n    tag_302:\n        /* \"#utility.yul\":503:510   */\n      0x00\n        /* \"#utility.yul\":532:556   */\n      tag_347\n        /* \"#utility.yul\":550:555   */\n      dup3\n        /* \"#utility.yul\":532:556   */\n      tag_301\n      jump\t// in\n    tag_347:\n        /* \"#utility.yul\":521:556   */\n      swap1\n      pop\n        /* \"#utility.yul\":466:562   */\n      swap2\n      swap1\n      pop\n      jump\t// out\n        /* \"#utility.yul\":568:690   */\n    tag_303:\n        /* \"#utility.yul\":641:665   */\n      tag_349\n        /* \"#utility.yul\":659:664   */\n      dup2\n        /* \"#utility.yul\":641:665   */\n      tag_302\n      jump\t// in\n    tag_349:\n        /* \"#utility.yul\":634:639   */\n      dup2\n        /* \"#utility.yul\":631:666   */\n      eq\n        /* \"#utility.yul\":621:684   */\n      tag_350\n      jumpi\n        /* \"#utility.yul\":680:681   */\n      0x00\n        /* \"#utility.yul\":677:678   */\n      dup1\n        /* \"#utility.yul\":670:682   */\n      revert\n        /* \"#utility.yul\":621:684   */\n    tag_350:\n        /* \"#utility.yul\":568:690   */\n      pop\n      jump\t// out\n        /* \"#utility.yul\":696:835   */\n    tag_304:\n        /* \"#utility.yul\":742:747   */\n      0x00\n        /* \"#utility.yul\":780:786   */\n      dup2\n        /* \"#utility.yul\":767:787   */\n      calldataload\n        /* \"#utility.yul\":758:787   */\n      swap1\n      pop\n        /* \"#utility.yul\":796:829   */\n      tag_352\n        /* \"#utility.yul\":823:828   */\n      dup2\n        /* \"#utility.yul\":796:829   */\n      tag_303\n      jump\t// in\n    tag_352:\n        /* \"#utility.yul\":696:835   */\n      swap3\n      swap2\n      pop\n      pop\n      jump\t// out\n        /* \"#utility.yul\":841:1170   */\n    tag_28:\n        /* \"#utility.yul\":900:906   */\n      0x00\n        /* \"#utility.yul\":949:951   */\n      0x20\n        /* \"#utility.yul\":937:946   */\n      dup3\n        /* \"#utility.yul\":928:935   */\n      dup5\n        /* \"#utility.yul\":924:947   */\n      sub\n        /* \"#utility.yul\":920:952   */\n      slt\n        /* \"#utility.yul\":917:1036   */\n      iszero\n      tag_354\n      jumpi\n        /* \"#utility.yul\":955:1034   */\n      tag_355\n      tag_299\n      jump\t// in\n    tag_355:\n        /* \"#utility.yul\":917:1036   */\n    tag_354:\n        /* \"#utility.yul\":1075:1076   */\n      0x00\n        /* \"#utility.yul\":1100:1153   */\n      tag_356\n        /* \"#utility.yul\":1145:1152   */\n      dup5\n        /* \"#utility.yul\":1136:1142   */\n      dup3\n        /* \"#utility.yul\":1125:1134   */\n      dup6\n        /* \"#utility.yul\":1121:1143   */\n      add\n        /* \"#utility.yul\":1100:1153   */\n      tag_304\n      jump\t// in\n    tag_356:\n        /* \"#utility.yul\":1090:1153   */\n      swap2\n      pop\n        /* \"#utility.yul\":1046:1163   */\n      pop\n        /* \"#utility.yul\":841:1170   */\n      swap3\n      swap2\n      pop\n      pop\n      jump\t// out\n        /* \"#utility.yul\":1176:1650   */\n    tag_33:\n        /* \"#utility.yul\":1244:1250   */\n      0x00\n        /* \"#utility.yul\":1252:1258   */\n      dup1\n        /* \"#utility.yul\":1301:1303   */\n      0x40\n        /* \"#utility.yul\":1289:1298   */\n      dup4\n        /* \"#utility.yul\":1280:1287   */\n      dup6\n        /* \"#utility.yul\":1276:1299   */\n      sub\n        /* \"#utility.yul\":1272:1304   */\n      slt\n        /* \"#utility.yul\":1269:1388   */\n      iszero\n      tag_358\n      jumpi\n        /* \"#utility.yul\":1307:1386   */\n      tag_359\n      tag_299\n      jump\t// in\n    tag_359:\n        /* \"#utility.yul\":1269:1388   */\n    tag_358:\n        /* \"#utility.yul\":1427:1428   */\n      0x00\n        /* \"#utility.yul\":1452:1505   */\n      tag_360\n        /* \"#utility.yul\":1497:1504   */\n      dup6\n        /* \"#utility.yul\":1488:1494   */\n      dup3\n        /* \"#utility.yul\":1477:1486   */\n      dup7\n        /* \"#utility.yul\":1473:1495   */\n      add\n        /* \"#utility.yul\":1452:1505   */\n      tag_304\n      jump\t// in\n    tag_360:\n        /* \"#utility.yul\":1442:1505   */\n      swap3\n      pop\n        /* \"#utility.yul\":1398:1515   */\n      pop\n        /* \"#utility.yul\":1554:1556   */\n      0x20\n        /* \"#utility.yul\":1580:1633   */\n      tag_361\n        /* \"#utility.yul\":1625:1632   */\n      dup6\n        /* \"#utility.yul\":1616:1622   */\n      dup3\n        /* \"#utility.yul\":1605:1614   */\n      dup7\n        /* \"#utility.yul\":1601:1623   */\n      add\n        /* \"#utility.yul\":1580:1633   */\n      tag_304\n      jump\t// in\n    tag_361:\n        /* \"#utility.yul\":1570:1633   */\n      swap2\n      pop\n        /* \"#utility.yul\":1525:1643   */\n      pop\n        /* \"#utility.yul\":1176:1650   */\n      swap3\n      pop\n      swap3\n      swap1\n      pop\n      jump\t// out\n        /* \"#utility.yul\":1656:1774   */\n    tag_305:\n        /* \"#utility.yul\":1743:1767   */\n      tag_363\n        /* \"#utility.yul\":1761:1766   */\n      dup2\n        /* \"#utility.yul\":1743:1767   */\n      tag_302\n      jump\t// in\n    tag_363:\n        /* \"#utility.yul\":1738:1741   */\n      dup3\n        /* \"#utility.yul\":1731:1768   */\n      mstore\n        /* \"#utility.yul\":1656:1774   */\n      pop\n      pop\n      jump\t// out\n        /* \"#utility.yul\":1780:2002   */\n    tag_39:\n        /* \"#utility.yul\":1873:1877   */\n      0x00\n        /* \"#utility.yul\":1911:1913   */\n      0x20\n        /* \"#utility.yul\":1900:1909   */\n      dup3\n        /* \"#utility.yul\":1896:1914   */\n      add\n        /* \"#utility.yul\":1888:1914   */\n      swap1\n      pop\n        /* \"#utility.yul\":1924:1995   */\n      tag_365\n        /* \"#utility.yul\":1992:1993   */\n      0x00\n        /* \"#utility.yul\":1981:1990   */\n      dup4\n        /* \"#utility.yul\":1977:1994   */\n      add\n        /* \"#utility.yul\":1968:1974   */\n      dup5\n        /* \"#utility.yul\":1924:1995   */\n      tag_305\n      jump\t// in\n    tag_365:\n        /* \"#utility.yul\":1780:2002   */\n      swap3\n      swap2\n      pop\n      pop\n      jump\t// out\n        /* \"#utility.yul\":2008:2085   */\n    tag_306:\n        /* \"#utility.yul\":2045:2052   */\n      0x00\n        /* \"#utility.yul\":2074:2079   */\n      dup2\n        /* \"#utility.yul\":2063:2079   */\n      swap1\n      pop\n        /* \"#utility.yul\":2008:2085   */\n      swap2\n      swap1\n      pop\n      jump\t// out\n        /* \"#utility.yul\":2091:2209   */\n    tag_307:\n        /* \"#utility.yul\":2178:2202   */\n      tag_368\n        /* \"#utility.yul\":2196:2201   */\n      dup2\n        /* \"#utility.yul\":2178:2202   */\n      tag_306\n      jump\t// in\n    tag_368:\n        /* \"#utility.yul\":2173:2176   */\n      dup3\n        /* \"#utility.yul\":2166:2203   */\n      mstore\n        /* \"#utility.yul\":2091:2209   */\n      pop\n      pop\n      jump\t// out\n        /* \"#utility.yul\":2215:2657   */\n    tag_48:\n        /* \"#utility.yul\":2364:2368   */\n      0x00\n        /* \"#utility.yul\":2402:2404   */\n      0x60\n        /* \"#utility.yul\":2391:2400   */\n      dup3\n        /* \"#utility.yul\":2387:2405   */\n      add\n        /* \"#utility.yul\":2379:2405   */\n      swap1\n      pop\n        /* \"#utility.yul\":2415:2486   */\n      tag_370\n        /* \"#utility.yul\":2483:2484   */\n      0x00\n        /* \"#utility.yul\":2472:2481   */\n      dup4\n        /* \"#utility.yul\":2468:2485   */\n      add\n        /* \"#utility.yul\":2459:2465   */\n      dup7\n        /* \"#utility.yul\":2415:2486   */\n      tag_305\n      jump\t// in\n    tag_370:\n        /* \"#utility.yul\":2496:2568   */\n      tag_371\n        /* \"#utility.yul\":2564:2566   */\n      0x20\n        /* \"#utility.yul\":2553:2562   */\n      dup4\n        /* \"#utility.yul\":2549:2567   */\n      add\n        /* \"#utility.yul\":2540:2546   */\n      dup6\n        /* \"#utility.yul\":2496:2568   */\n      tag_307\n      jump\t// in\n    tag_371:\n        /* \"#utility.yul\":2578:2650   */\n      tag_372\n        /* \"#utility.yul\":2646:2648   */\n      0x40\n        /* \"#utility.yul\":2635:2644   */\n      dup4\n        /* \"#utility.yul\":2631:2649   */\n      add\n        /* \"#utility.yul\":2622:2628   */\n      dup5\n        /* \"#utility.yul\":2578:2650   */\n      tag_307\n      jump\t// in\n    tag_372:\n        /* \"#utility.yul\":2215:2657   */\n      swap5\n      swap4\n      pop\n      pop\n      pop\n      pop\n      jump\t// out\n        /* \"#utility.yul\":2663:2753   */\n    tag_308:\n        /* \"#utility.yul\":2697:2704   */\n      0x00\n        /* \"#utility.yul\":2740:2745   */\n      dup2\n        /* \"#utility.yul\":2733:2746   */\n      iszero\n        /* \"#utility.yul\":2726:2747   */\n      iszero\n        /* \"#utility.yul\":2715:2747   */\n      swap1\n      pop\n        /* \"#utility.yul\":2663:2753   */\n      swap2\n      swap1\n      pop\n      jump\t// out\n        /* \"#utility.yul\":2759:2868   */\n    tag_309:\n        /* \"#utility.yul\":2840:2861   */\n      tag_375\n        /* \"#utility.yul\":2855:2860   */\n      dup2\n        /* \"#utility.yul\":2840:2861   */\n      tag_308\n      jump\t// in\n    tag_375:\n        /* \"#utility.yul\":2835:2838   */\n      dup3\n        /* \"#utility.yul\":2828:2862   */\n      mstore\n        /* \"#utility.yul\":2759:2868   */\n      pop\n      pop\n      jump\t// out\n        /* \"#utility.yul\":2874:3084   */\n    tag_56:\n        /* \"#utility.yul\":2961:2965   */\n      0x00\n        /* \"#utility.yul\":2999:3001   */\n      0x20\n        /* \"#utility.yul\":2988:2997   */\n      dup3\n        /* \"#utility.yul\":2984:3002   */\n      add\n        /* \"#utility.yul\":2976:3002   */\n      swap1\n      pop\n        /* \"#utility.yul\":3012:3077   */\n      tag_377\n        /* \"#utility.yul\":3074:3075   */\n      0x00\n        /* \"#utility.yul\":3063:3072   */\n      dup4\n        /* \"#utility.yul\":3059:3076   */\n      add\n        /* \"#utility.yul\":3050:3056   */\n      dup5\n        /* \"#utility.yul\":3012:3077   */\n      tag_309\n      jump\t// in\n    tag_377:\n        /* \"#utility.yul\":2874:3084   */\n      swap3\n      swap2\n      pop\n      pop\n      jump\t// out\n        /* \"#utility.yul\":3090:3212   */\n    tag_310:\n        /* \"#utility.yul\":3163:3187   */\n      tag_379\n        /* \"#utility.yul\":3181:3186   */\n      dup2\n        /* \"#utility.yul\":3163:3187   */\n      tag_306\n      jump\t// in\n    tag_379:\n        /* \"#utility.yul\":3156:3161   */\n      dup2\n        /* \"#utility.yul\":3153:3188   */\n      eq\n        /* \"#utility.yul\":3143:3206   */\n      tag_380\n      jumpi\n        /* \"#utility.yul\":3202:3203   */\n      0x00\n        /* \"#utility.yul\":3199:3200   */\n      dup1\n        /* \"#utility.yul\":3192:3204   */\n      revert\n        /* \"#utility.yul\":3143:3206   */\n    tag_380:\n        /* \"#utility.yul\":3090:3212   */\n      pop\n      jump\t// out\n        /* \"#utility.yul\":3218:3357   */\n    tag_311:\n        /* \"#utility.yul\":3264:3269   */\n      0x00\n        /* \"#utility.yul\":3302:3308   */\n      dup2\n        /* \"#utility.yul\":3289:3309   */\n      calldataload\n        /* \"#utility.yul\":3280:3309   */\n      swap1\n      pop\n        /* \"#utility.yul\":3318:3351   */\n      tag_382\n        /* \"#utility.yul\":3345:3350   */\n      dup2\n        /* \"#utility.yul\":3318:3351   */\n      tag_310\n      jump\t// in\n    tag_382:\n        /* \"#utility.yul\":3218:3357   */\n      swap3\n      swap2\n      pop\n      pop\n      jump\t// out\n        /* \"#utility.yul\":3363:3692   */\n    tag_60:\n        /* \"#utility.yul\":3422:3428   */\n      0x00\n        /* \"#utility.yul\":3471:3473   */\n      0x20\n        /* \"#utility.yul\":3459:3468   */\n      dup3\n        /* \"#utility.yul\":3450:3457   */\n      dup5\n        /* \"#utility.yul\":3446:3469   */\n      sub\n        /* \"#utility.yul\":3442:3474   */\n      slt\n        /* \"#utility.yul\":3439:3558   */\n      iszero\n      tag_384\n      jumpi\n        /* \"#utility.yul\":3477:3556   */\n      tag_385\n      tag_299\n      jump\t// in\n    tag_385:\n        /* \"#utility.yul\":3439:3558   */\n    tag_384:\n        /* \"#utility.yul\":3597:3598   */\n      0x00\n        /* \"#utility.yul\":3622:3675   */\n      tag_386\n        /* \"#utility.yul\":3667:3674   */\n      dup5\n        /* \"#utility.yul\":3658:3664   */\n      dup3\n        /* \"#utility.yul\":3647:3656   */\n      dup6\n        /* \"#utility.yul\":3643:3665   */\n      add\n        /* \"#utility.yul\":3622:3675   */\n      tag_311\n      jump\t// in\n    tag_386:\n        /* \"#utility.yul\":3612:3675   */\n      swap2\n      pop\n        /* \"#utility.yul\":3568:3685   */\n      pop\n        /* \"#utility.yul\":3363:3692   */\n      swap3\n      swap2\n      pop\n      pop\n      jump\t// out\n        /* \"#utility.yul\":3698:3812   */\n    tag_312:\n        /* \"#utility.yul\":3765:3771   */\n      0x00\n        /* \"#utility.yul\":3799:3804   */\n      dup2\n        /* \"#utility.yul\":3793:3805   */\n      mload\n        /* \"#utility.yul\":3783:3805   */\n      swap1\n      pop\n        /* \"#utility.yul\":3698:3812   */\n      swap2\n      swap1\n      pop\n      jump\t// out\n        /* \"#utility.yul\":3818:4002   */\n    tag_313:\n        /* \"#utility.yul\":3917:3928   */\n      0x00\n        /* \"#utility.yul\":3951:3957   */\n      dup3\n        /* \"#utility.yul\":3946:3949   */\n      dup3\n        /* \"#utility.yul\":3939:3958   */\n      mstore\n        /* \"#utility.yul\":3991:3995   */\n      0x20\n        /* \"#utility.yul\":3986:3989   */\n      dup3\n        /* \"#utility.yul\":3982:3996   */\n      add\n        /* \"#utility.yul\":3967:3996   */\n      swap1\n      pop\n        /* \"#utility.yul\":3818:4002   */\n      swap3\n      swap2\n      pop\n      pop\n      jump\t// out\n        /* \"#utility.yul\":4008:4140   */\n    tag_314:\n        /* \"#utility.yul\":4075:4079   */\n      0x00\n        /* \"#utility.yul\":4098:4101   */\n      dup2\n        /* \"#utility.yul\":4090:4101   */\n      swap1\n      pop\n        /* \"#utility.yul\":4128:4132   */\n      0x20\n        /* \"#utility.yul\":4123:4126   */\n      dup3\n        /* \"#utility.yul\":4119:4133   */\n      add\n        /* \"#utility.yul\":4111:4133   */\n      swap1\n      pop\n        /* \"#utility.yul\":4008:4140   */\n      swap2\n      swap1\n      pop\n      jump\t// out\n        /* \"#utility.yul\":4146:4254   */\n    tag_315:\n        /* \"#utility.yul\":4223:4247   */\n      tag_391\n        /* \"#utility.yul\":4241:4246   */\n      dup2\n        /* \"#utility.yul\":4223:4247   */\n      tag_302\n      jump\t// in\n    tag_391:\n        /* \"#utility.yul\":4218:4221   */\n      dup3\n        /* \"#utility.yul\":4211:4248   */\n      mstore\n        /* \"#utility.yul\":4146:4254   */\n      pop\n      pop\n      jump\t// out\n        /* \"#utility.yul\":4260:4439   */\n    tag_316:\n        /* \"#utility.yul\":4329:4339   */\n      0x00\n        /* \"#utility.yul\":4350:4396   */\n      tag_393\n        /* \"#utility.yul\":4392:4395   */\n      dup4\n        /* \"#utility.yul\":4384:4390   */\n      dup4\n        /* \"#utility.yul\":4350:4396   */\n      tag_315\n      jump\t// in\n    tag_393:\n        /* \"#utility.yul\":4428:4432   */\n      0x20\n        /* \"#utility.yul\":4423:4426   */\n      dup4\n        /* \"#utility.yul\":4419:4433   */\n      add\n        /* \"#utility.yul\":4405:4433   */\n      swap1\n      pop\n        /* \"#utility.yul\":4260:4439   */\n      swap3\n      swap2\n      pop\n      pop\n      jump\t// out\n        /* \"#utility.yul\":4445:4558   */\n    tag_317:\n        /* \"#utility.yul\":4515:4519   */\n      0x00\n        /* \"#utility.yul\":4547:4551   */\n      0x20\n        /* \"#utility.yul\":4542:4545   */\n      dup3\n        /* \"#utility.yul\":4538:4552   */\n      add\n        /* \"#utility.yul\":4530:4552   */\n      swap1\n      pop\n        /* \"#utility.yul\":4445:4558   */\n      swap2\n      swap1\n      pop\n      jump\t// out\n        /* \"#utility.yul\":4594:5326   */\n    tag_318:\n        /* \"#utility.yul\":4713:4716   */\n      0x00\n        /* \"#utility.yul\":4742:4796   */\n      tag_396\n        /* \"#utility.yul\":4790:4795   */\n      dup3\n        /* \"#utility.yul\":4742:4796   */\n      tag_312\n      jump\t// in\n    tag_396:\n        /* \"#utility.yul\":4812:4898   */\n      tag_397\n        /* \"#utility.yul\":4891:4897   */\n      dup2\n        /* \"#utility.yul\":4886:4889   */\n      dup6\n        /* \"#utility.yul\":4812:4898   */\n      tag_313\n      jump\t// in\n    tag_397:\n        /* \"#utility.yul\":4805:4898   */\n      swap4\n      pop\n        /* \"#utility.yul\":4922:4978   */\n      tag_398\n        /* \"#utility.yul\":4972:4977   */\n      dup4\n        /* \"#utility.yul\":4922:4978   */\n      tag_314\n      jump\t// in\n    tag_398:\n        /* \"#utility.yul\":5001:5008   */\n      dup1\n        /* \"#utility.yul\":5032:5033   */\n      0x00\n        /* \"#utility.yul\":5017:5301   */\n    tag_399:\n        /* \"#utility.yul\":5042:5048   */\n      dup4\n        /* \"#utility.yul\":5039:5040   */\n      dup2\n        /* \"#utility.yul\":5036:5049   */\n      lt\n        /* \"#utility.yul\":5017:5301   */\n      iszero\n      tag_401\n      jumpi\n        /* \"#utility.yul\":5118:5124   */\n      dup2\n        /* \"#utility.yul\":5112:5125   */\n      mload\n        /* \"#utility.yul\":5145:5208   */\n      tag_402\n        /* \"#utility.yul\":5204:5207   */\n      dup9\n        /* \"#utility.yul\":5189:5202   */\n      dup3\n        /* \"#utility.yul\":5145:5208   */\n      tag_316\n      jump\t// in\n    tag_402:\n        /* \"#utility.yul\":5138:5208   */\n      swap8\n      pop\n        /* \"#utility.yul\":5231:5291   */\n      tag_403\n        /* \"#utility.yul\":5284:5290   */\n      dup4\n        /* \"#utility.yul\":5231:5291   */\n      tag_317\n      jump\t// in\n    tag_403:\n        /* \"#utility.yul\":5221:5291   */\n      swap3\n      pop\n        /* \"#utility.yul\":5077:5301   */\n      pop\n        /* \"#utility.yul\":5064:5065   */\n      0x01\n        /* \"#utility.yul\":5061:5062   */\n      dup2\n        /* \"#utility.yul\":5057:5066   */\n      add\n        /* \"#utility.yul\":5052:5066   */\n      swap1\n      pop\n        /* \"#utility.yul\":5017:5301   */\n      jump(tag_399)\n    tag_401:\n        /* \"#utility.yul\":5021:5035   */\n      pop\n        /* \"#utility.yul\":5317:5320   */\n      dup6\n        /* \"#utility.yul\":5310:5320   */\n      swap4\n      pop\n        /* \"#utility.yul\":4718:5326   */\n      pop\n      pop\n      pop\n        /* \"#utility.yul\":4594:5326   */\n      swap3\n      swap2\n      pop\n      pop\n      jump\t// out\n        /* \"#utility.yul\":5332:5446   */\n    tag_319:\n        /* \"#utility.yul\":5399:5405   */\n      0x00\n        /* \"#utility.yul\":5433:5438   */\n      dup2\n        /* \"#utility.yul\":5427:5439   */\n      mload\n        /* \"#utility.yul\":5417:5439   */\n      swap1\n      pop\n        /* \"#utility.yul\":5332:5446   */\n      swap2\n      swap1\n      pop\n      jump\t// out\n        /* \"#utility.yul\":5452:5636   */\n    tag_320:\n        /* \"#utility.yul\":5551:5562   */\n      0x00\n        /* \"#utility.yul\":5585:5591   */\n      dup3\n        /* \"#utility.yul\":5580:5583   */\n      dup3\n        /* \"#utility.yul\":5573:5592   */\n      mstore\n        /* \"#utility.yul\":5625:5629   */\n      0x20\n        /* \"#utility.yul\":5620:5623   */\n      dup3\n        /* \"#utility.yul\":5616:5630   */\n      add\n        /* \"#utility.yul\":5601:5630   */\n      swap1\n      pop\n        /* \"#utility.yul\":5452:5636   */\n      swap3\n      swap2\n      pop\n      pop\n      jump\t// out\n        /* \"#utility.yul\":5642:5774   */\n    tag_321:\n        /* \"#utility.yul\":5709:5713   */\n      0x00\n        /* \"#utility.yul\":5732:5735   */\n      dup2\n        /* \"#utility.yul\":5724:5735   */\n      swap1\n      pop\n        /* \"#utility.yul\":5762:5766   */\n      0x20\n        /* \"#utility.yul\":5757:5760   */\n      dup3\n        /* \"#utility.yul\":5753:5767   */\n      add\n        /* \"#utility.yul\":5745:5767   */\n      swap1\n      pop\n        /* \"#utility.yul\":5642:5774   */\n      swap2\n      swap1\n      pop\n      jump\t// out\n        /* \"#utility.yul\":5780:5888   */\n    tag_322:\n        /* \"#utility.yul\":5857:5881   */\n      tag_408\n        /* \"#utility.yul\":5875:5880   */\n      dup2\n        /* \"#utility.yul\":5857:5881   */\n      tag_306\n      jump\t// in\n    tag_408:\n        /* \"#utility.yul\":5852:5855   */\n      dup3\n        /* \"#utility.yul\":5845:5882   */\n      mstore\n        /* \"#utility.yul\":5780:5888   */\n      pop\n      pop\n      jump\t// out\n        /* \"#utility.yul\":5894:6073   */\n    tag_323:\n        /* \"#utility.yul\":5963:5973   */\n      0x00\n        /* \"#utility.yul\":5984:6030   */\n      tag_410\n        /* \"#utility.yul\":6026:6029   */\n      dup4\n        /* \"#utility.yul\":6018:6024   */\n      dup4\n        /* \"#utility.yul\":5984:6030   */\n      tag_322\n      jump\t// in\n    tag_410:\n        /* \"#utility.yul\":6062:6066   */\n      0x20\n        /* \"#utility.yul\":6057:6060   */\n      dup4\n        /* \"#utility.yul\":6053:6067   */\n      add\n        /* \"#utility.yul\":6039:6067   */\n      swap1\n      pop\n        /* \"#utility.yul\":5894:6073   */\n      swap3\n      swap2\n      pop\n      pop\n      jump\t// out\n        /* \"#utility.yul\":6079:6192   */\n    tag_324:\n        /* \"#utility.yul\":6149:6153   */\n      0x00\n        /* \"#utility.yul\":6181:6185   */\n      0x20\n        /* \"#utility.yul\":6176:6179   */\n      dup3\n        /* \"#utility.yul\":6172:6186   */\n      add\n        /* \"#utility.yul\":6164:6186   */\n      swap1\n      pop\n        /* \"#utility.yul\":6079:6192   */\n      swap2\n      swap1\n      pop\n      jump\t// out\n        /* \"#utility.yul\":6228:6960   */\n    tag_325:\n        /* \"#utility.yul\":6347:6350   */\n      0x00\n        /* \"#utility.yul\":6376:6430   */\n      tag_413\n        /* \"#utility.yul\":6424:6429   */\n      dup3\n        /* \"#utility.yul\":6376:6430   */\n      tag_319\n      jump\t// in\n    tag_413:\n        /* \"#utility.yul\":6446:6532   */\n      tag_414\n        /* \"#utility.yul\":6525:6531   */\n      dup2\n        /* \"#utility.yul\":6520:6523   */\n      dup6\n        /* \"#utility.yul\":6446:6532   */\n      tag_320\n      jump\t// in\n    tag_414:\n        /* \"#utility.yul\":6439:6532   */\n      swap4\n      pop\n        /* \"#utility.yul\":6556:6612   */\n      tag_415\n        /* \"#utility.yul\":6606:6611   */\n      dup4\n        /* \"#utility.yul\":6556:6612   */\n      tag_321\n      jump\t// in\n    tag_415:\n        /* \"#utility.yul\":6635:6642   */\n      dup1\n        /* \"#utility.yul\":6666:6667   */\n      0x00\n        /* \"#utility.yul\":6651:6935   */\n    tag_416:\n        /* \"#utility.yul\":6676:6682   */\n      dup4\n        /* \"#utility.yul\":6673:6674   */\n      dup2\n        /* \"#utility.yul\":6670:6683   */\n      lt\n        /* \"#utility.yul\":6651:6935   */\n      iszero\n      tag_418\n      jumpi\n        /* \"#utility.yul\":6752:6758   */\n      dup2\n        /* \"#utility.yul\":6746:6759   */\n      mload\n        /* \"#utility.yul\":6779:6842   */\n      tag_419\n        /* \"#utility.yul\":6838:6841   */\n      dup9\n        /* \"#utility.yul\":6823:6836   */\n      dup3\n        /* \"#utility.yul\":6779:6842   */\n      tag_323\n      jump\t// in\n    tag_419:\n        /* \"#utility.yul\":6772:6842   */\n      swap8\n      pop\n        /* \"#utility.yul\":6865:6925   */\n      tag_420\n        /* \"#utility.yul\":6918:6924   */\n      dup4\n        /* \"#utility.yul\":6865:6925   */\n      tag_324\n      jump\t// in\n    tag_420:\n        /* \"#utility.yul\":6855:6925   */\n      swap3\n      pop\n        /* \"#utility.yul\":6711:6935   */\n      pop\n        /* \"#utility.yul\":6698:6699   */\n      0x01\n        /* \"#utility.yul\":6695:6696   */\n      dup2\n        /* \"#utility.yul\":6691:6700   */\n      add\n        /* \"#utility.yul\":6686:6700   */\n      swap1\n      pop\n        /* \"#utility.yul\":6651:6935   */\n      jump(tag_416)\n    tag_418:\n        /* \"#utility.yul\":6655:6669   */\n      pop\n        /* \"#utility.yul\":6951:6954   */\n      dup6\n        /* \"#utility.yul\":6944:6954   */\n      swap4\n      pop\n        /* \"#utility.yul\":6352:6960   */\n      pop\n      pop\n      pop\n        /* \"#utility.yul\":6228:6960   */\n      swap3\n      swap2\n      pop\n      pop\n      jump\t// out\n        /* \"#utility.yul\":6966:8123   */\n    tag_66:\n        /* \"#utility.yul\":7343:7347   */\n      0x00\n        /* \"#utility.yul\":7381:7384   */\n      0x80\n        /* \"#utility.yul\":7370:7379   */\n      dup3\n        /* \"#utility.yul\":7366:7385   */\n      add\n        /* \"#utility.yul\":7358:7385   */\n      swap1\n      pop\n        /* \"#utility.yul\":7431:7440   */\n      dup2\n        /* \"#utility.yul\":7425:7429   */\n      dup2\n        /* \"#utility.yul\":7421:7441   */\n      sub\n        /* \"#utility.yul\":7417:7418   */\n      0x00\n        /* \"#utility.yul\":7406:7415   */\n      dup4\n        /* \"#utility.yul\":7402:7419   */\n      add\n        /* \"#utility.yul\":7395:7442   */\n      mstore\n        /* \"#utility.yul\":7459:7567   */\n      tag_422\n        /* \"#utility.yul\":7562:7566   */\n      dup2\n        /* \"#utility.yul\":7553:7559   */\n      dup8\n        /* \"#utility.yul\":7459:7567   */\n      tag_318\n      jump\t// in\n    tag_422:\n        /* \"#utility.yul\":7451:7567   */\n      swap1\n      pop\n        /* \"#utility.yul\":7614:7623   */\n      dup2\n        /* \"#utility.yul\":7608:7612   */\n      dup2\n        /* \"#utility.yul\":7604:7624   */\n      sub\n        /* \"#utility.yul\":7599:7601   */\n      0x20\n        /* \"#utility.yul\":7588:7597   */\n      dup4\n        /* \"#utility.yul\":7584:7602   */\n      add\n        /* \"#utility.yul\":7577:7625   */\n      mstore\n        /* \"#utility.yul\":7642:7750   */\n      tag_423\n        /* \"#utility.yul\":7745:7749   */\n      dup2\n        /* \"#utility.yul\":7736:7742   */\n      dup7\n        /* \"#utility.yul\":7642:7750   */\n      tag_318\n      jump\t// in\n    tag_423:\n        /* \"#utility.yul\":7634:7750   */\n      swap1\n      pop\n        /* \"#utility.yul\":7797:7806   */\n      dup2\n        /* \"#utility.yul\":7791:7795   */\n      dup2\n        /* \"#utility.yul\":7787:7807   */\n      sub\n        /* \"#utility.yul\":7782:7784   */\n      0x40\n        /* \"#utility.yul\":7771:7780   */\n      dup4\n        /* \"#utility.yul\":7767:7785   */\n      add\n        /* \"#utility.yul\":7760:7808   */\n      mstore\n        /* \"#utility.yul\":7825:7933   */\n      tag_424\n        /* \"#utility.yul\":7928:7932   */\n      dup2\n        /* \"#utility.yul\":7919:7925   */\n      dup6\n        /* \"#utility.yul\":7825:7933   */\n      tag_325\n      jump\t// in\n    tag_424:\n        /* \"#utility.yul\":7817:7933   */\n      swap1\n      pop\n        /* \"#utility.yul\":7980:7989   */\n      dup2\n        /* \"#utility.yul\":7974:7978   */\n      dup2\n        /* \"#utility.yul\":7970:7990   */\n      sub\n        /* \"#utility.yul\":7965:7967   */\n      0x60\n        /* \"#utility.yul\":7954:7963   */\n      dup4\n        /* \"#utility.yul\":7950:7968   */\n      add\n        /* \"#utility.yul\":7943:7991   */\n      mstore\n        /* \"#utility.yul\":8008:8116   */\n      tag_425\n        /* \"#utility.yul\":8111:8115   */\n      dup2\n        /* \"#utility.yul\":8102:8108   */\n      dup5\n        /* \"#utility.yul\":8008:8116   */\n      tag_325\n      jump\t// in\n    tag_425:\n        /* \"#utility.yul\":8000:8116   */\n      swap1\n      pop\n        /* \"#utility.yul\":6966:8123   */\n      swap6\n      swap5\n      pop\n      pop\n      pop\n      pop\n      pop\n      jump\t// out\n        /* \"#utility.yul\":8129:8351   */\n    tag_74:\n        /* \"#utility.yul\":8222:8226   */\n      0x00\n        /* \"#utility.yul\":8260:8262   */\n      0x20\n        /* \"#utility.yul\":8249:8258   */\n      dup3\n        /* \"#utility.yul\":8245:8263   */\n      add\n        /* \"#utility.yul\":8237:8263   */\n      swap1\n      pop\n        /* \"#utility.yul\":8273:8344   */\n      tag_427\n        /* \"#utility.yul\":8341:8342   */\n      0x00\n        /* \"#utility.yul\":8330:8339   */\n      dup4\n        /* \"#utility.yul\":8326:8343   */\n      add\n        /* \"#utility.yul\":8317:8323   */\n      dup5\n        /* \"#utility.yul\":8273:8344   */\n      tag_307\n      jump\t// in\n    tag_427:\n        /* \"#utility.yul\":8129:8351   */\n      swap3\n      swap2\n      pop\n      pop\n      jump\t// out\n        /* \"#utility.yul\":8357:8537   */\n    tag_326:\n        /* \"#utility.yul\":8405:8482   */\n      0x4e487b7100000000000000000000000000000000000000000000000000000000\n        /* \"#utility.yul\":8402:8403   */\n      0x00\n        /* \"#utility.yul\":8395:8483   */\n      mstore\n        /* \"#utility.yul\":8502:8506   */\n      0x11\n        /* \"#utility.yul\":8499:8500   */\n      0x04\n        /* \"#utility.yul\":8492:8507   */\n      mstore\n        /* \"#utility.yul\":8526:8530   */\n      0x24\n        /* \"#utility.yul\":8523:8524   */\n      0x00\n        /* \"#utility.yul\":8516:8531   */\n      revert\n        /* \"#utility.yul\":8543:8953   */\n    tag_117:\n        /* \"#utility.yul\":8583:8590   */\n      0x00\n        /* \"#utility.yul\":8606:8626   */\n      tag_430\n        /* \"#utility.yul\":8624:8625   */\n      dup3\n        /* \"#utility.yul\":8606:8626   */\n      tag_306\n      jump\t// in\n    tag_430:\n        /* \"#utility.yul\":8601:8626   */\n      swap2\n      pop\n        /* \"#utility.yul\":8640:8660   */\n      tag_431\n        /* \"#utility.yul\":8658:8659   */\n      dup4\n        /* \"#utility.yul\":8640:8660   */\n      tag_306\n      jump\t// in\n    tag_431:\n        /* \"#utility.yul\":8635:8660   */\n      swap3\n      pop\n        /* \"#utility.yul\":8695:8696   */\n      dup3\n        /* \"#utility.yul\":8692:8693   */\n      dup3\n        /* \"#utility.yul\":8688:8697   */\n      mul\n        /* \"#utility.yul\":8717:8747   */\n      tag_432\n        /* \"#utility.yul\":8735:8746   */\n      dup2\n        /* \"#utility.yul\":8717:8747   */\n      tag_306\n      jump\t// in\n    tag_432:\n        /* \"#utility.yul\":8706:8747   */\n      swap2\n      pop\n        /* \"#utility.yul\":8896:8897   */\n      dup3\n        /* \"#utility.yul\":8887:8894   */\n      dup3\n        /* \"#utility.yul\":8883:8898   */\n      div\n        /* \"#utility.yul\":8880:8881   */\n      dup5\n        /* \"#utility.yul\":8877:8899   */\n      eq\n        /* \"#utility.yul\":8857:8858   */\n      dup4\n        /* \"#utility.yul\":8850:8859   */\n      iszero\n        /* \"#utility.yul\":8830:8913   */\n      or\n        /* \"#utility.yul\":8807:8946   */\n      tag_433\n      jumpi\n        /* \"#utility.yul\":8926:8944   */\n      tag_434\n      tag_326\n      jump\t// in\n    tag_434:\n        /* \"#utility.yul\":8807:8946   */\n    tag_433:\n        /* \"#utility.yul\":8591:8953   */\n      pop\n        /* \"#utility.yul\":8543:8953   */\n      swap3\n      swap2\n      pop\n      pop\n      jump\t// out\n        /* \"#utility.yul\":8959:9139   */\n    tag_327:\n        /* \"#utility.yul\":9007:9084   */\n      0x4e487b7100000000000000000000000000000000000000000000000000000000\n        /* \"#utility.yul\":9004:9005   */\n      0x00\n        /* \"#utility.yul\":8997:9085   */\n      mstore\n        /* \"#utility.yul\":9104:9108   */\n      0x12\n        /* \"#utility.yul\":9101:9102   */\n      0x04\n        /* \"#utility.yul\":9094:9109   */\n      mstore\n        /* \"#utility.yul\":9128:9132   */\n      0x24\n        /* \"#utility.yul\":9125:9126   */\n      0x00\n        /* \"#utility.yul\":9118:9133   */\n      revert\n        /* \"#utility.yul\":9145:9330   */\n    tag_119:\n        /* \"#utility.yul\":9185:9186   */\n      0x00\n        /* \"#utility.yul\":9202:9222   */\n      tag_437\n        /* \"#utility.yul\":9220:9221   */\n      dup3\n        /* \"#utility.yul\":9202:9222   */\n      tag_306\n      jump\t// in\n    tag_437:\n        /* \"#utility.yul\":9197:9222   */\n      swap2\n      pop\n        /* \"#utility.yul\":9236:9256   */\n      tag_438\n        /* \"#utility.yul\":9254:9255   */\n      dup4\n        /* \"#utility.yul\":9236:9256   */\n      tag_306\n      jump\t// in\n    tag_438:\n        /* \"#utility.yul\":9231:9256   */\n      swap3\n      pop\n        /* \"#utility.yul\":9275:9276   */\n      dup3\n        /* \"#utility.yul\":9265:9300   */\n      tag_439\n      jumpi\n        /* \"#utility.yul\":9280:9298   */\n      tag_440\n      tag_327\n      jump\t// in\n    tag_440:\n        /* \"#utility.yul\":9265:9300   */\n    tag_439:\n        /* \"#utility.yul\":9322:9323   */\n      dup3\n        /* \"#utility.yul\":9319:9320   */\n      dup3\n        /* \"#utility.yul\":9315:9324   */\n      div\n        /* \"#utility.yul\":9310:9324   */\n      swap1\n      pop\n        /* \"#utility.yul\":9145:9330   */\n      swap3\n      swap2\n      pop\n      pop\n      jump\t// out\n        /* \"#utility.yul\":9336:9530   */\n    tag_121:\n        /* \"#utility.yul\":9376:9380   */\n      0x00\n        /* \"#utility.yul\":9396:9416   */\n      tag_442\n        /* \"#utility.yul\":9414:9415   */\n      dup3\n        /* \"#utility.yul\":9396:9416   */\n      tag_306\n      jump\t// in\n    tag_442:\n        /* \"#utility.yul\":9391:9416   */\n      swap2\n      pop\n        /* \"#utility.yul\":9430:9450   */\n      tag_443\n        /* \"#utility.yul\":9448:9449   */\n      dup4\n        /* \"#utility.yul\":9430:9450   */\n      tag_306\n      jump\t// in\n    tag_443:\n        /* \"#utility.yul\":9425:9450   */\n      swap3\n      pop\n        /* \"#utility.yul\":9474:9475   */\n      dup3\n        /* \"#utility.yul\":9471:9472   */\n      dup3\n        /* \"#utility.yul\":9467:9476   */\n      sub\n        /* \"#utility.yul\":9459:9476   */\n      swap1\n      pop\n        /* \"#utility.yul\":9498:9499   */\n      dup2\n        /* \"#utility.yul\":9492:9496   */\n      dup2\n        /* \"#utility.yul\":9489:9500   */\n      gt\n        /* \"#utility.yul\":9486:9523   */\n      iszero\n      tag_444\n      jumpi\n        /* \"#utility.yul\":9503:9521   */\n      tag_445\n      tag_326\n      jump\t// in\n    tag_445:\n        /* \"#utility.yul\":9486:9523   */\n    tag_444:\n        /* \"#utility.yul\":9336:9530   */\n      swap3\n      swap2\n      pop\n      pop\n      jump\t// out\n        /* \"#utility.yul\":9536:9716   */\n    tag_132:\n        /* \"#utility.yul\":9584:9661   */\n      0x4e487b7100000000000000000000000000000000000000000000000000000000\n        /* \"#utility.yul\":9581:9582   */\n      0x00\n        /* \"#utility.yul\":9574:9662   */\n      mstore\n        /* \"#utility.yul\":9681:9685   */\n      0x32\n        /* \"#utility.yul\":9678:9679   */\n      0x04\n        /* \"#utility.yul\":9671:9686   */\n      mstore\n        /* \"#utility.yul\":9705:9709   */\n      0x24\n        /* \"#utility.yul\":9702:9703   */\n      0x00\n        /* \"#utility.yul\":9695:9710   */\n      revert\n        /* \"#utility.yul\":9722:9902   */\n    tag_144:\n        /* \"#utility.yul\":9770:9847   */\n      0x4e487b7100000000000000000000000000000000000000000000000000000000\n        /* \"#utility.yul\":9767:9768   */\n      0x00\n        /* \"#utility.yul\":9760:9848   */\n      mstore\n        /* \"#utility.yul\":9867:9871   */\n      0x31\n        /* \"#utility.yul\":9864:9865   */\n      0x04\n        /* \"#utility.yul\":9857:9872   */\n      mstore\n        /* \"#utility.yul\":9891:9895   */\n      0x24\n        /* \"#utility.yul\":9888:9889   */\n      0x00\n        /* \"#utility.yul\":9881:9896   */\n      revert\n        /* \"#utility.yul\":9908:10141   */\n    tag_147:\n        /* \"#utility.yul\":9947:9950   */\n      0x00\n        /* \"#utility.yul\":9970:9994   */\n      tag_449\n        /* \"#utility.yul\":9988:9993   */\n      dup3\n        /* \"#utility.yul\":9970:9994   */\n      tag_306\n      jump\t// in\n    tag_449:\n        /* \"#utility.yul\":9961:9994   */\n      swap2\n      pop\n        /* \"#utility.yul\":10016:10082   */\n      0xffffffffffffffffffffffffffffffffffffffffffffffffffffffffffffffff\n        /* \"#utility.yul\":10009:10014   */\n      dup3\n        /* \"#utility.yul\":10006:10083   */\n      sub\n        /* \"#utility.yul\":10003:10106   */\n      tag_450\n      jumpi\n        /* \"#utility.yul\":10086:10104   */\n      tag_451\n      tag_326\n      jump\t// in\n    tag_451:\n        /* \"#utility.yul\":10003:10106   */\n    tag_450:\n        /* \"#utility.yul\":10133:10134   */\n      0x01\n        /* \"#utility.yul\":10126:10131   */\n      dup3\n        /* \"#utility.yul\":10122:10135   */\n      add\n        /* \"#utility.yul\":10115:10135   */\n      swap1\n      pop\n        /* \"#utility.yul\":9908:10141   */\n      swap2\n      swap1\n      pop\n      jump\t// out\n        /* \"#utility.yul\":10147:10316   */\n    tag_328:\n        /* \"#utility.yul\":10231:10242   */\n      0x00\n        /* \"#utility.yul\":10265:10271   */\n      dup3\n        /* \"#utility.yul\":10260:10263   */\n      dup3\n        /* \"#utility.yul\":10253:10272   */\n      mstore\n        /* \"#utility.yul\":10305:10309   */\n      0x20\n        /* \"#utility.yul\":10300:10303   */\n      dup3\n        /* \"#utility.yul\":10296:10310   */\n      add\n        /* \"#utility.yul\":10281:10310   */\n      swap1\n      pop\n        /* \"#utility.yul\":10147:10316   */\n      swap3\n      swap2\n      pop\n      pop\n      jump\t// out\n        /* \"#utility.yul\":10322:10502   */\n    tag_329:\n        /* \"#utility.yul\":10462:10494   */\n      0x4e6f2066756e647320617661696c61626c6520746f2077697468647261770000\n        /* \"#utility.yul\":10458:10459   */\n      0x00\n        /* \"#utility.yul\":10450:10456   */\n      dup3\n        /* \"#utility.yul\":10446:10460   */\n      add\n        /* \"#utility.yul\":10439:10495   */\n      mstore\n        /* \"#utility.yul\":10322:10502   */\n      pop\n      jump\t// out\n        /* \"#utility.yul\":10508:10874   */\n    tag_330:\n        /* \"#utility.yul\":10650:10653   */\n      0x00\n        /* \"#utility.yul\":10671:10738   */\n      tag_455\n        /* \"#utility.yul\":10735:10737   */\n      0x1e\n        /* \"#utility.yul\":10730:10733   */\n      dup4\n        /* \"#utility.yul\":10671:10738   */\n      tag_328\n      jump\t// in\n    tag_455:\n        /* \"#utility.yul\":10664:10738   */\n      swap2\n      pop\n        /* \"#utility.yul\":10747:10840   */\n      tag_456\n        /* \"#utility.yul\":10836:10839   */\n      dup3\n        /* \"#utility.yul\":10747:10840   */\n      tag_329\n      jump\t// in\n    tag_456:\n        /* \"#utility.yul\":10865:10867   */\n      0x20\n        /* \"#utility.yul\":10860:10863   */\n      dup3\n        /* \"#utility.yul\":10856:10868   */\n      add\n        /* \"#utility.yul\":10849:10868   */\n      swap1\n      pop\n        /* \"#utility.yul\":10508:10874   */\n      swap2\n      swap1\n      pop\n      jump\t// out\n        /* \"#utility.yul\":10880:11299   */\n    tag_164:\n        /* \"#utility.yul\":11046:11050   */\n      0x00\n        /* \"#utility.yul\":11084:11086   */\n      0x20\n        /* \"#utility.yul\":11073:11082   */\n      dup3\n        /* \"#utility.yul\":11069:11087   */\n      add\n        /* \"#utility.yul\":11061:11087   */\n      swap1\n      pop\n        /* \"#utility.yul\":11133:11142   */\n      dup2\n        /* \"#utility.yul\":11127:11131   */\n      dup2\n        /* \"#utility.yul\":11123:11143   */\n      sub\n        /* \"#utility.yul\":11119:11120   */\n      0x00\n        /* \"#utility.yul\":11108:11117   */\n      dup4\n        /* \"#utility.yul\":11104:11121   */\n      add\n        /* \"#utility.yul\":11097:11144   */\n      mstore\n        /* \"#utility.yul\":11161:11292   */\n      tag_458\n        /* \"#utility.yul\":11287:11291   */\n      dup2\n        /* \"#utility.yul\":11161:11292   */\n      tag_330\n      jump\t// in\n    tag_458:\n        /* \"#utility.yul\":11153:11292   */\n      swap1\n      pop\n        /* \"#utility.yul\":10880:11299   */\n      swap2\n      swap1\n      pop\n      jump\t// out\n        /* \"#utility.yul\":11305:11525   */\n    tag_331:\n        /* \"#utility.yul\":11445:11479   */\n      0x4665652070657263656e746167652063616e6e6f742065786365656420313030\n        /* \"#utility.yul\":11441:11442   */\n      0x00\n        /* \"#utility.yul\":11433:11439   */\n      dup3\n        /* \"#utility.yul\":11429:11443   */\n      add\n        /* \"#utility.yul\":11422:11480   */\n      mstore\n        /* \"#utility.yul\":11514:11517   */\n      0x2500000000000000000000000000000000000000000000000000000000000000\n        /* \"#utility.yul\":11509:11511   */\n      0x20\n        /* \"#utility.yul\":11501:11507   */\n      dup3\n        /* \"#utility.yul\":11497:11512   */\n      add\n        /* \"#utility.yul\":11490:11518   */\n      mstore\n        /* \"#utility.yul\":11305:11525   */\n      pop\n      jump\t// out\n        /* \"#utility.yul\":11531:11897   */\n    tag_332:\n        /* \"#utility.yul\":11673:11676   */\n      0x00\n        /* \"#utility.yul\":11694:11761   */\n      tag_461\n        /* \"#utility.yul\":11758:11760   */\n      0x21\n        /* \"#utility.yul\":11753:11756   */\n      dup4\n        /* \"#utility.yul\":11694:11761   */\n      tag_328\n      jump\t// in\n    tag_461:\n        /* \"#utility.yul\":11687:11761   */\n      swap2\n      pop\n        /* \"#utility.yul\":11770:11863   */\n      tag_462\n        /* \"#utility.yul\":11859:11862   */\n      dup3\n        /* \"#utility.yul\":11770:11863   */\n      tag_331\n      jump\t// in\n    tag_462:\n        /* \"#utility.yul\":11888:11890   */\n      0x40\n        /* \"#utility.yul\":11883:11886   */\n      dup3\n        /* \"#utility.yul\":11879:11891   */\n      add\n        /* \"#utility.yul\":11872:11891   */\n      swap1\n      pop\n        /* \"#utility.yul\":11531:11897   */\n      swap2\n      swap1\n      pop\n      jump\t// out\n        /* \"#utility.yul\":11903:12322   */\n    tag_187:\n        /* \"#utility.yul\":12069:12073   */\n      0x00\n        /* \"#utility.yul\":12107:12109   */\n      0x20\n        /* \"#utility.yul\":12096:12105   */\n      dup3\n        /* \"#utility.yul\":12092:12110   */\n      add\n        /* \"#utility.yul\":12084:12110   */\n      swap1\n      pop\n        /* \"#utility.yul\":12156:12165   */\n      dup2\n        /* \"#utility.yul\":12150:12154   */\n      dup2\n        /* \"#utility.yul\":12146:12166   */\n      sub\n        /* \"#utility.yul\":12142:12143   */\n      0x00\n        /* \"#utility.yul\":12131:12140   */\n      dup4\n        /* \"#utility.yul\":12127:12144   */\n      add\n        /* \"#utility.yul\":12120:12167   */\n      mstore\n        /* \"#utility.yul\":12184:12315   */\n      tag_464\n        /* \"#utility.yul\":12310:12314   */\n      dup2\n        /* \"#utility.yul\":12184:12315   */\n      tag_332\n      jump\t// in\n    tag_464:\n        /* \"#utility.yul\":12176:12315   */\n      swap1\n      pop\n        /* \"#utility.yul\":11903:12322   */\n      swap2\n      swap1\n      pop\n      jump\t// out\n        /* \"#utility.yul\":12328:12508   */\n    tag_191:\n        /* \"#utility.yul\":12376:12453   */\n      0x4e487b7100000000000000000000000000000000000000000000000000000000\n        /* \"#utility.yul\":12373:12374   */\n      0x00\n        /* \"#utility.yul\":12366:12454   */\n      mstore\n        /* \"#utility.yul\":12473:12477   */\n      0x41\n        /* \"#utility.yul\":12470:12471   */\n      0x04\n        /* \"#utility.yul\":12463:12478   */\n      mstore\n        /* \"#utility.yul\":12497:12501   */\n      0x24\n        /* \"#utility.yul\":12494:12495   */\n      0x00\n        /* \"#utility.yul\":12487:12502   */\n      revert\n        /* \"#utility.yul\":12514:12689   */\n    tag_333:\n        /* \"#utility.yul\":12654:12681   */\n      0x56616c696461746f72206e6f6465206e6f74206c696e6b656400000000000000\n        /* \"#utility.yul\":12650:12651   */\n      0x00\n        /* \"#utility.yul\":12642:12648   */\n      dup3\n        /* \"#utility.yul\":12638:12652   */\n      add\n        /* \"#utility.yul\":12631:12682   */\n      mstore\n        /* \"#utility.yul\":12514:12689   */\n      pop\n      jump\t// out\n        /* \"#utility.yul\":12695:13061   */\n    tag_334:\n        /* \"#utility.yul\":12837:12840   */\n      0x00\n        /* \"#utility.yul\":12858:12925   */\n      tag_468\n        /* \"#utility.yul\":12922:12924   */\n      0x19\n        /* \"#utility.yul\":12917:12920   */\n      dup4\n        /* \"#utility.yul\":12858:12925   */\n      tag_328\n      jump\t// in\n    tag_468:\n        /* \"#utility.yul\":12851:12925   */\n      swap2\n      pop\n        /* \"#utility.yul\":12934:13027   */\n      tag_469\n        /* \"#utility.yul\":13023:13026   */\n      dup3\n        /* \"#utility.yul\":12934:13027   */\n      tag_333\n      jump\t// in\n    tag_469:\n        /* \"#utility.yul\":13052:13054   */\n      0x20\n        /* \"#utility.yul\":13047:13050   */\n      dup3\n        /* \"#utility.yul\":13043:13055   */\n      add\n        /* \"#utility.yul\":13036:13055   */\n      swap1\n      pop\n        /* \"#utility.yul\":12695:13061   */\n      swap2\n      swap1\n      pop\n      jump\t// out\n        /* \"#utility.yul\":13067:13486   */\n    tag_240:\n        /* \"#utility.yul\":13233:13237   */\n      0x00\n        /* \"#utility.yul\":13271:13273   */\n      0x20\n        /* \"#utility.yul\":13260:13269   */\n      dup3\n        /* \"#utility.yul\":13256:13274   */\n      add\n        /* \"#utility.yul\":13248:13274   */\n      swap1\n      pop\n        /* \"#utility.yul\":13320:13329   */\n      dup2\n        /* \"#utility.yul\":13314:13318   */\n      dup2\n        /* \"#utility.yul\":13310:13330   */\n      sub\n        /* \"#utility.yul\":13306:13307   */\n      0x00\n        /* \"#utility.yul\":13295:13304   */\n      dup4\n        /* \"#utility.yul\":13291:13308   */\n      add\n        /* \"#utility.yul\":13284:13331   */\n      mstore\n        /* \"#utility.yul\":13348:13479   */\n      tag_471\n        /* \"#utility.yul\":13474:13478   */\n      dup2\n        /* \"#utility.yul\":13348:13479   */\n      tag_334\n      jump\t// in\n    tag_471:\n        /* \"#utility.yul\":13340:13479   */\n      swap1\n      pop\n        /* \"#utility.yul\":13067:13486   */\n      swap2\n      swap1\n      pop\n      jump\t// out\n        /* \"#utility.yul\":13492:13683   */\n    tag_242:\n        /* \"#utility.yul\":13532:13535   */\n      0x00\n        /* \"#utility.yul\":13551:13571   */\n      tag_473\n        /* \"#utility.yul\":13569:13570   */\n      dup3\n        /* \"#utility.yul\":13551:13571   */\n      tag_306\n      jump\t// in\n    tag_473:\n        /* \"#utility.yul\":13546:13571   */\n      swap2\n      pop\n        /* \"#utility.yul\":13585:13605   */\n      tag_474\n        /* \"#utility.yul\":13603:13604   */\n      dup4\n        /* \"#utility.yul\":13585:13605   */\n      tag_306\n      jump\t// in\n    tag_474:\n        /* \"#utility.yul\":13580:13605   */\n      swap3\n      pop\n        /* \"#utility.yul\":13628:13629   */\n      dup3\n        /* \"#utility.yul\":13625:13626   */\n      dup3\n        /* \"#utility.yul\":13621:13630   */\n      add\n        /* \"#utility.yul\":13614:13630   */\n      swap1\n      pop\n        /* \"#utility.yul\":13649:13652   */\n      dup1\n        /* \"#utility.yul\":13646:13647   */\n      dup3\n        /* \"#utility.yul\":13643:13653   */\n      gt\n        /* \"#utility.yul\":13640:13676   */\n      iszero\n      tag_475\n      jumpi\n        /* \"#utility.yul\":13656:13674   */\n      tag_476\n      tag_326\n      jump\t// in\n    tag_476:\n        /* \"#utility.yul\":13640:13676   */\n    tag_475:\n        /* \"#utility.yul\":13492:13683   */\n      swap3\n      swap2\n      pop\n      pop\n      jump\t// out\n        /* \"#utility.yul\":13689:13870   */\n    tag_335:\n        /* \"#utility.yul\":13829:13862   */\n      0x5265656e7472616e637947756172643a207265656e7472616e742063616c6c00\n        /* \"#utility.yul\":13825:13826   */\n      0x00\n        /* \"#utility.yul\":13817:13823   */\n      dup3\n        /* \"#utility.yul\":13813:13827   */\n      add\n        /* \"#utility.yul\":13806:13863   */\n      mstore\n        /* \"#utility.yul\":13689:13870   */\n      pop\n      jump\t// out\n        /* \"#utility.yul\":13876:14242   */\n    tag_336:\n        /* \"#utility.yul\":14018:14021   */\n      0x00\n        /* \"#utility.yul\":14039:14106   */\n      tag_479\n        /* \"#utility.yul\":14103:14105   */\n      0x1f\n        /* \"#utility.yul\":14098:14101   */\n      dup4\n        /* \"#utility.yul\":14039:14106   */\n      tag_328\n      jump\t// in\n    tag_479:\n        /* \"#utility.yul\":14032:14106   */\n      swap2\n      pop\n        /* \"#utility.yul\":14115:14208   */\n      tag_480\n        /* \"#utility.yul\":14204:14207   */\n      dup3\n        /* \"#utility.yul\":14115:14208   */\n      tag_335\n      jump\t// in\n    tag_480:\n        /* \"#utility.yul\":14233:14235   */\n      0x20\n        /* \"#utility.yul\":14228:14231   */\n      dup3\n        /* \"#utility.yul\":14224:14236   */\n      add\n        /* \"#utility.yul\":14217:14236   */\n      swap1\n      pop\n        /* \"#utility.yul\":13876:14242   */\n      swap2\n      swap1\n      pop\n      jump\t// out\n        /* \"#utility.yul\":14248:14667   */\n    tag_273:\n        /* \"#utility.yul\":14414:14418   */\n      0x00\n        /* \"#utility.yul\":14452:14454   */\n      0x20\n        /* \"#utility.yul\":14441:14450   */\n      dup3\n        /* \"#utility.yul\":14437:14455   */\n      add\n        /* \"#utility.yul\":14429:14455   */\n      swap1\n      pop\n        /* \"#utility.yul\":14501:14510   */\n      dup2\n        /* \"#utility.yul\":14495:14499   */\n      dup2\n        /* \"#utility.yul\":14491:14511   */\n      sub\n        /* \"#utility.yul\":14487:14488   */\n      0x00\n        /* \"#utility.yul\":14476:14485   */\n      dup4\n        /* \"#utility.yul\":14472:14489   */\n      add\n        /* \"#utility.yul\":14465:14512   */\n      mstore\n        /* \"#utility.yul\":14529:14660   */\n      tag_482\n        /* \"#utility.yul\":14655:14659   */\n      dup2\n        /* \"#utility.yul\":14529:14660   */\n      tag_336\n      jump\t// in\n    tag_482:\n        /* \"#utility.yul\":14521:14660   */\n      swap1\n      pop\n        /* \"#utility.yul\":14248:14667   */\n      swap2\n      swap1\n      pop\n      jump\t// out\n        /* \"#utility.yul\":14673:14839   */\n    tag_337:\n        /* \"#utility.yul\":14813:14831   */\n      0x5061757361626c653a2070617573656400000000000000000000000000000000\n        /* \"#utility.yul\":14809:14810   */\n      0x00\n        /* \"#utility.yul\":14801:14807   */\n      dup3\n        /* \"#utility.yul\":14797:14811   */\n      add\n        /* \"#utility.yul\":14790:14832   */\n      mstore\n        /* \"#utility.yul\":14673:14839   */\n      pop\n      jump\t// out\n        /* \"#utility.yul\":14845:15211   */\n    tag_338:\n        /* \"#utility.yul\":14987:14990   */\n      0x00\n        /* \"#utility.yul\":15008:15075   */\n      tag_485\n        /* \"#utility.yul\":15072:15074   */\n      0x10\n        /* \"#utility.yul\":15067:15070   */\n      dup4\n        /* \"#utility.yul\":15008:15075   */\n      tag_328\n      jump\t// in\n    tag_485:\n        /* \"#utility.yul\":15001:15075   */\n      swap2\n      pop\n        /* \"#utility.yul\":15084:15177   */\n      tag_486\n        /* \"#utility.yul\":15173:15176   */\n      dup3\n        /* \"#utility.yul\":15084:15177   */\n      tag_337\n      jump\t// in\n    tag_486:\n        /* \"#utility.yul\":15202:15204   */\n      0x20\n        /* \"#utility.yul\":15197:15200   */\n      dup3\n        /* \"#utility.yul\":15193:15205   */\n      add\n        /* \"#utility.yul\":15186:15205   */\n      swap1\n      pop\n        /* \"#utility.yul\":14845:15211   */\n      swap2\n      swap1\n      pop\n      jump\t// out\n        /* \"#utility.yul\":15217:15636   */\n    tag_278:\n        /* \"#utility.yul\":15383:15387   */\n      0x00\n        /* \"#utility.yul\":15421:15423   */\n      0x20\n        /* \"#utility.yul\":15410:15419   */\n      dup3\n        /* \"#utility.yul\":15406:15424   */\n      add\n        /* \"#utility.yul\":15398:15424   */\n      swap1\n      pop\n        /* \"#utility.yul\":15470:15479   */\n      dup2\n        /* \"#utility.yul\":15464:15468   */\n      dup2\n        /* \"#utility.yul\":15460:15480   */\n      sub\n        /* \"#utility.yul\":15456:15457   */\n      0x00\n        /* \"#utility.yul\":15445:15454   */\n      dup4\n        /* \"#utility.yul\":15441:15458   */\n      add\n        /* \"#utility.yul\":15434:15481   */\n      mstore\n        /* \"#utility.yul\":15498:15629   */\n      tag_488\n        /* \"#utility.yul\":15624:15628   */\n      dup2\n        /* \"#utility.yul\":15498:15629   */\n      tag_338\n      jump\t// in\n    tag_488:\n        /* \"#utility.yul\":15490:15629   */\n      swap1\n      pop\n        /* \"#utility.yul\":15217:15636   */\n      swap2\n      swap1\n      pop\n      jump\t// out\n        /* \"#utility.yul\":15642:15812   */\n    tag_339:\n        /* \"#utility.yul\":15782:15804   */\n      0x5061757361626c653a206e6f7420706175736564000000000000000000000000\n        /* \"#utility.yul\":15778:15779   */\n      0x00\n        /* \"#utility.yul\":15770:15776   */\n      dup3\n        /* \"#utility.yul\":15766:15780   */\n      add\n        /* \"#utility.yul\":15759:15805   */\n      mstore\n        /* \"#utility.yul\":15642:15812   */\n      pop\n      jump\t// out\n        /* \"#utility.yul\":15818:16184   */\n    tag_340:\n        /* \"#utility.yul\":15960:15963   */\n      0x00\n        /* \"#utility.yul\":15981:16048   */\n      tag_491\n        /* \"#utility.yul\":16045:16047   */\n      0x14\n        /* \"#utility.yul\":16040:16043   */\n      dup4\n        /* \"#utility.yul\":15981:16048   */\n      tag_328\n      jump\t// in\n    tag_491:\n        /* \"#utility.yul\":15974:16048   */\n      swap2\n      pop\n        /* \"#utility.yul\":16057:16150   */\n      tag_492\n        /* \"#utility.yul\":16146:16149   */\n      dup3\n        /* \"#utility.yul\":16057:16150   */\n      tag_339\n      jump\t// in\n    tag_492:\n        /* \"#utility.yul\":16175:16177   */\n      0x20\n        /* \"#utility.yul\":16170:16173   */\n      dup3\n        /* \"#utility.yul\":16166:16178   */\n      add\n        /* \"#utility.yul\":16159:16178   */\n      swap1\n      pop\n        /* \"#utility.yul\":15818:16184   */\n      swap2\n      swap1\n      pop\n      jump\t// out\n        /* \"#utility.yul\":16190:16609   */\n    tag_297:\n        /* \"#utility.yul\":16356:16360   */\n      0x00\n        /* \"#utility.yul\":16394:16396   */\n      0x20\n        /* \"#utility.yul\":16383:16392   */\n      dup3\n        /* \"#utility.yul\":16379:16397   */\n      add\n        /* \"#utility.yul\":16371:16397   */\n      swap1\n      pop\n        /* \"#utility.yul\":16443:16452   */\n      dup2\n        /* \"#utility.yul\":16437:16441   */\n      dup2\n        /* \"#utility.yul\":16433:16453   */\n      sub\n        /* \"#utility.yul\":16429:16430   */\n      0x00\n        /* \"#utility.yul\":16418:16427   */\n      dup4\n        /* \"#utility.yul\":16414:16431   */\n      add\n        /* \"#utility.yul\":16407:16454   */\n      mstore\n        /* \"#utility.yul\":16471:16602   */\n      tag_494\n        /* \"#utility.yul\":16597:16601   */\n      dup2\n        /* \"#utility.yul\":16471:16602   */\n      tag_340\n      jump\t// in\n    tag_494:\n        /* \"#utility.yul\":16463:16602   */\n      swap1\n      pop\n        /* \"#utility.yul\":16190:16609   */\n      swap2\n      swap1\n      pop\n      jump\t// out\n\n    auxdata: 0xa2646970667358221220dc21a13a2c1600de2e8bc361172be4e0f72bd73d3b97a2ac345d7bc26575819264736f6c63430008150033\n}\n",
				"bytecode": {
					"linkReferences": {},
					"object": "6080604052600a6006555f60075f6101000a81548173ffffffffffffffffffffffffffffffffffffffff021916908373ffffffffffffffffffffffffffffffffffffffff16021790555034801562000055575f80fd5b503360015f819055505f73ffffffffffffffffffffffffffffffffffffffff168173ffffffffffffffffffffffffffffffffffffffff1603620000d1575f6040517f1e4fbdf7000000000000000000000000000000000000000000000000000000008152600401620000c8919062000209565b60405180910390fd5b620000e2816200010360201b60201c565b505f600160146101000a81548160ff02191690831515021790555062000224565b5f60015f9054906101000a900473ffffffffffffffffffffffffffffffffffffffff1690508160015f6101000a81548173ffffffffffffffffffffffffffffffffffffffff021916908373ffffffffffffffffffffffffffffffffffffffff1602179055508173ffffffffffffffffffffffffffffffffffffffff168173ffffffffffffffffffffffffffffffffffffffff167f8be0079c531659141344cd1fd0a4f28419497f9722a3daafe3b4186f6b6457e060405160405180910390a35050565b5f73ffffffffffffffffffffffffffffffffffffffff82169050919050565b5f620001f182620001c6565b9050919050565b6200020381620001e5565b82525050565b5f6020820190506200021e5f830184620001f8565b92915050565b61207d80620002325f395ff3fe60806040526004361061011e575f3560e01c806378922c8f1161009f578063b33712c511610063578063b33712c51461038f578063b5e1302e146103a5578063bb0a43bc146103e1578063d0e30db01461041d578063f2fde38b146104275761011e565b806378922c8f1461029b5780637d995311146102c55780637da830b4146103015780638da5cb5b1461033d578063a7d77ce5146103675761011e565b8063439766ce116100e6578063439766ce146101f05780635c975abb146102065780635fb0ea90146102305780636ca6d88e14610258578063715018a6146102855761011e565b806303a2c9e21461012257806322df93ba1461014a57806333deea05146101725780633ccfd60b1461019c5780633ed0eee4146101b2575b5f80fd5b34801561012d575f80fd5b5061014860048036038101906101439190611856565b61044f565b005b348015610155575f80fd5b50610170600480360381019061016b9190611881565b61088a565b005b34801561017d575f80fd5b50610186610981565b60405161019391906118ce565b60405180910390f35b3480156101a7575f80fd5b506101b06109a6565b005b3480156101bd575f80fd5b506101d860048036038101906101d39190611856565b610bb2565b6040516101e7939291906118ff565b60405180910390f35b3480156101fb575f80fd5b50610204610caa565b005b348015610211575f80fd5b5061021a610cbc565b604051610227919061194e565b60405180910390f35b34801561023b575f80fd5b5061025660048036038101906102519190611991565b610cd2565b005b348015610263575f80fd5b5061026c610d28565b60405161027c9493929190611b2a565b60405180910390f35b348015610290575f80fd5b5061029961109d565b005b3480156102a6575f80fd5b506102af6110b0565b6040516102bc9190611b89565b60405180910390f35b3480156102d0575f80fd5b506102eb60048036038101906102e69190611856565b6110b6565b6040516102f89190611b89565b60405180910390f35b34801561030c575f80fd5b5061032760048036038101906103229190611856565b6110cb565b6040516103349190611b89565b60405180910390f35b348015610348575f80fd5b506103516110e0565b60405161035e91906118ce565b60405180910390f35b348015610372575f80fd5b5061038d60048036038101906103889190611856565b611108565b005b34801561039a575f80fd5b506103a3611153565b005b3480156103b0575f80fd5b506103cb60048036038101906103c69190611856565b611165565b6040516103d891906118ce565b60405180910390f35b3480156103ec575f80fd5b5061040760048036038101906104029190611991565b611195565b60405161041491906118ce565b60405180910390f35b6104256111d0565b005b348015610432575f80fd5b5061044d60048036038101906104489190611856565b6113cf565b005b610457611453565b5f60025f8373ffffffffffffffffffffffffffffffffffffffff1673ffffffffffffffffffffffffffffffffffffffff1681526020019081526020015f205f9054906101000a900473ffffffffffffffffffffffffffffffffffffffff1690505f60035f8373ffffffffffffffffffffffffffffffffffffffff1673ffffffffffffffffffffffffffffffffffffffff1681526020019081526020015f205490505f6064600654836105099190611bcf565b6105139190611c3d565b90505f81836105229190611c6d565b90505f60035f8673ffffffffffffffffffffffffffffffffffffffff1673ffffffffffffffffffffffffffffffffffffffff1681526020019081526020015f20819055508373ffffffffffffffffffffffffffffffffffffffff166108fc8290811502906040515f60405180830381858888f193505050501580156105a9573d5f803e3d5ffd5b505f73ffffffffffffffffffffffffffffffffffffffff1660075f9054906101000a900473ffffffffffffffffffffffffffffffffffffffff1673ffffffffffffffffffffffffffffffffffffffff16146106645760075f9054906101000a900473ffffffffffffffffffffffffffffffffffffffff1673ffffffffffffffffffffffffffffffffffffffff166108fc8390811502906040515f60405180830381858888f19350505050158015610662573d5f803e3d5ffd5b505b5f5b6005805490508110156107e3578573ffffffffffffffffffffffffffffffffffffffff166005828154811061069e5761069d611ca0565b5b905f5260205f20015f9054906101000a900473ffffffffffffffffffffffffffffffffffffffff1673ffffffffffffffffffffffffffffffffffffffff16036107d057600560016005805490506106f59190611c6d565b8154811061070657610705611ca0565b5b905f5260205f20015f9054906101000a900473ffffffffffffffffffffffffffffffffffffffff166005828154811061074257610741611ca0565b5b905f5260205f20015f6101000a81548173ffffffffffffffffffffffffffffffffffffffff021916908373ffffffffffffffffffffffffffffffffffffffff160217905550600580548061079957610798611ccd565b5b600190038181905f5260205f20015f6101000a81549073ffffffffffffffffffffffffffffffffffffffff021916905590556107e3565b80806107db90611cfa565b915050610666565b5060025f8673ffffffffffffffffffffffffffffffffffffffff1673ffffffffffffffffffffffffffffffffffffffff1681526020019081526020015f205f6101000a81549073ffffffffffffffffffffffffffffffffffffffff021916905560045f8673ffffffffffffffffffffffffffffffffffffffff1673ffffffffffffffffffffffffffffffffffffffff1681526020019081526020015f205f90555050505050565b610892611453565b8060025f8473ffffffffffffffffffffffffffffffffffffffff1673ffffffffffffffffffffffffffffffffffffffff1681526020019081526020015f205f6101000a81548173ffffffffffffffffffffffffffffffffffffffff021916908373ffffffffffffffffffffffffffffffffffffffff1602179055506109186005836114da565b61097d57600582908060018154018082558091505060019003905f5260205f20015f9091909190916101000a81548173ffffffffffffffffffffffffffffffffffffffff021916908373ffffffffffffffffffffffffffffffffffffffff1602179055505b5050565b60075f9054906101000a900473ffffffffffffffffffffffffffffffffffffffff1681565b6109ae611581565b6109b66115ce565b5f60035f3373ffffffffffffffffffffffffffffffffffffffff1673ffffffffffffffffffffffffffffffffffffffff1681526020019081526020015f205490505f8111610a39576040517f08c379a0000000000000000000000000000000000000000000000000000000008152600401610a3090611d9b565b60405180910390fd5b5f606460065483610a4a9190611bcf565b610a549190611c3d565b90505f8183610a639190611c6d565b90505f60035f3373ffffffffffffffffffffffffffffffffffffffff1673ffffffffffffffffffffffffffffffffffffffff1681526020019081526020015f20819055503373ffffffffffffffffffffffffffffffffffffffff166108fc8290811502906040515f60405180830381858888f19350505050158015610aea573d5f803e3d5ffd5b505f73ffffffffffffffffffffffffffffffffffffffff1660075f9054906101000a900473ffffffffffffffffffffffffffffffffffffffff1673ffffffffffffffffffffffffffffffffffffffff1614610ba55760075f9054906101000a900473ffffffffffffffffffffffffffffffffffffffff1673ffffffffffffffffffffffffffffffffffffffff166108fc8390811502906040515f60405180830381858888f19350505050158015610ba3573d5f803e3d5ffd5b505b505050610bb0611618565b565b5f805f8060025f8673ffffffffffffffffffffffffffffffffffffffff1673ffffffffffffffffffffffffffffffffffffffff1681526020019081526020015f205f9054906101000a900473ffffffffffffffffffffffffffffffffffffffff1690505f60045f8773ffffffffffffffffffffffffffffffffffffffff1673ffffffffffffffffffffffffffffffffffffffff1681526020019081526020015f205490505f60035f8473ffffffffffffffffffffffffffffffffffffffff1673ffffffffffffffffffffffffffffffffffffffff1681526020019081526020015f205490508282829550955095505050509193909250565b610cb2611453565b610cba611621565b565b5f600160149054906101000a900460ff16905090565b610cda611453565b6064811115610d1e576040517f08c379a0000000000000000000000000000000000000000000000000000000008152600401610d1590611e29565b60405180910390fd5b8060068190555050565b6060806060805f60058054905090505f8167ffffffffffffffff811115610d5257610d51611e47565b5b604051908082528060200260200182016040528015610d805781602001602082028036833780820191505090505b5090505f8267ffffffffffffffff811115610d9e57610d9d611e47565b5b604051908082528060200260200182016040528015610dcc5781602001602082028036833780820191505090505b5090505f8367ffffffffffffffff811115610dea57610de9611e47565b5b604051908082528060200260200182016040528015610e185781602001602082028036833780820191505090505b5090505f8467ffffffffffffffff811115610e3657610e35611e47565b5b604051908082528060200260200182016040528015610e645781602001602082028036833780820191505090505b5090505f5b85811015611085575f60058281548110610e8657610e85611ca0565b5b905f5260205f20015f9054906101000a900473ffffffffffffffffffffffffffffffffffffffff1690505f60025f8373ffffffffffffffffffffffffffffffffffffffff1673ffffffffffffffffffffffffffffffffffffffff1681526020019081526020015f205f9054906101000a900473ffffffffffffffffffffffffffffffffffffffff1690505f60045f8473ffffffffffffffffffffffffffffffffffffffff1673ffffffffffffffffffffffffffffffffffffffff1681526020019081526020015f205490505f60035f8473ffffffffffffffffffffffffffffffffffffffff1673ffffffffffffffffffffffffffffffffffffffff1681526020019081526020015f2054905083898681518110610fa657610fa5611ca0565b5b602002602001019073ffffffffffffffffffffffffffffffffffffffff16908173ffffffffffffffffffffffffffffffffffffffff168152505082888681518110610ff457610ff3611ca0565b5b602002602001019073ffffffffffffffffffffffffffffffffffffffff16908173ffffffffffffffffffffffffffffffffffffffff16815250508187868151811061104257611041611ca0565b5b6020026020010181815250508086868151811061106257611061611ca0565b5b60200260200101818152505050505050808061107d90611cfa565b915050610e69565b50838383839850985098509850505050505090919293565b6110a5611453565b6110ae5f611683565b565b60065481565b6003602052805f5260405f205f915090505481565b6004602052805f5260405f205f915090505481565b5f60015f9054906101000a900473ffffffffffffffffffffffffffffffffffffffff16905090565b611110611453565b8060075f6101000a81548173ffffffffffffffffffffffffffffffffffffffff021916908373ffffffffffffffffffffffffffffffffffffffff16021790555050565b61115b611453565b611163611746565b565b6002602052805f5260405f205f915054906101000a900473ffffffffffffffffffffffffffffffffffffffff1681565b600581815481106111a4575f80fd5b905f5260205f20015f915054906101000a900473ffffffffffffffffffffffffffffffffffffffff1681565b6111d8611581565b6111e06115ce565b5f60025f3373ffffffffffffffffffffffffffffffffffffffff1673ffffffffffffffffffffffffffffffffffffffff1681526020019081526020015f205f9054906101000a900473ffffffffffffffffffffffffffffffffffffffff1690505f73ffffffffffffffffffffffffffffffffffffffff168173ffffffffffffffffffffffffffffffffffffffff16036112ae576040517f08c379a00000000000000000000000000000000000000000000000000000000081526004016112a590611ebe565b60405180910390fd5b3460035f8373ffffffffffffffffffffffffffffffffffffffff1673ffffffffffffffffffffffffffffffffffffffff1681526020019081526020015f205f8282546112fa9190611edc565b925050819055503460045f3373ffffffffffffffffffffffffffffffffffffffff1673ffffffffffffffffffffffffffffffffffffffff1681526020019081526020015f205f82825461134d9190611edc565b9250508190555061135f6005336114da565b6113c457600533908060018154018082558091505060019003905f5260205f20015f9091909190916101000a81548173ffffffffffffffffffffffffffffffffffffffff021916908373ffffffffffffffffffffffffffffffffffffffff1602179055505b506113cd611618565b565b6113d7611453565b5f73ffffffffffffffffffffffffffffffffffffffff168173ffffffffffffffffffffffffffffffffffffffff1603611447575f6040517f1e4fbdf700000000000000000000000000000000000000000000000000000000815260040161143e91906118ce565b60405180910390fd5b61145081611683565b50565b61145b6117a8565b73ffffffffffffffffffffffffffffffffffffffff166114796110e0565b73ffffffffffffffffffffffffffffffffffffffff16146114d85761149c6117a8565b6040517f118cdaa70000000000000000000000000000000000000000000000000000000081526004016114cf91906118ce565b60405180910390fd5b565b5f805f90505b8380549050811015611576578273ffffffffffffffffffffffffffffffffffffffff1684828154811061151657611515611ca0565b5b905f5260205f20015f9054906101000a900473ffffffffffffffffffffffffffffffffffffffff1673ffffffffffffffffffffffffffffffffffffffff160361156357600191505061157b565b808061156e90611cfa565b9150506114e0565b505f90505b92915050565b60025f54036115c5576040517f08c379a00000000000000000000000000000000000000000000000000000000081526004016115bc90611f59565b60405180910390fd5b60025f81905550565b6115d6610cbc565b15611616576040517f08c379a000000000000000000000000000000000000000000000000000000000815260040161160d90611fc1565b60405180910390fd5b565b60015f81905550565b6116296115ce565b60018060146101000a81548160ff0219169083151502179055507f62e78cea01bee320cd4e420270b5ea74000d11b0c9f74754ebdbfc544b05a25861166c6117a8565b60405161167991906118ce565b60405180910390a1565b5f60015f9054906101000a900473ffffffffffffffffffffffffffffffffffffffff1690508160015f6101000a81548173ffffffffffffffffffffffffffffffffffffffff021916908373ffffffffffffffffffffffffffffffffffffffff1602179055508173ffffffffffffffffffffffffffffffffffffffff168173ffffffffffffffffffffffffffffffffffffffff167f8be0079c531659141344cd1fd0a4f28419497f9722a3daafe3b4186f6b6457e060405160405180910390a35050565b61174e6117af565b5f600160146101000a81548160ff0219169083151502179055507f5db9ee0a495bf2e6ff9c91a7834c1ba4fdd244a5e8aa4e537bd38aeae4b073aa6117916117a8565b60405161179e91906118ce565b60405180910390a1565b5f33905090565b6117b7610cbc565b6117f6576040517f08c379a00000000000000000000000000000000000000000000000000000000081526004016117ed90612029565b60405180910390fd5b565b5f80fd5b5f73ffffffffffffffffffffffffffffffffffffffff82169050919050565b5f611825826117fc565b9050919050565b6118358161181b565b811461183f575f80fd5b50565b5f813590506118508161182c565b92915050565b5f6020828403121561186b5761186a6117f8565b5b5f61187884828501611842565b91505092915050565b5f8060408385031215611897576118966117f8565b5b5f6118a485828601611842565b92505060206118b585828601611842565b9150509250929050565b6118c88161181b565b82525050565b5f6020820190506118e15f8301846118bf565b92915050565b5f819050919050565b6118f9816118e7565b82525050565b5f6060820190506119125f8301866118bf565b61191f60208301856118f0565b61192c60408301846118f0565b949350505050565b5f8115159050919050565b61194881611934565b82525050565b5f6020820190506119615f83018461193f565b92915050565b611970816118e7565b811461197a575f80fd5b50565b5f8135905061198b81611967565b92915050565b5f602082840312156119a6576119a56117f8565b5b5f6119b38482850161197d565b91505092915050565b5f81519050919050565b5f82825260208201905092915050565b5f819050602082019050919050565b6119ee8161181b565b82525050565b5f6119ff83836119e5565b60208301905092915050565b5f602082019050919050565b5f611a21826119bc565b611a2b81856119c6565b9350611a36836119d6565b805f5b83811015611a66578151611a4d88826119f4565b9750611a5883611a0b565b925050600181019050611a39565b5085935050505092915050565b5f81519050919050565b5f82825260208201905092915050565b5f819050602082019050919050565b611aa5816118e7565b82525050565b5f611ab68383611a9c565b60208301905092915050565b5f602082019050919050565b5f611ad882611a73565b611ae28185611a7d565b9350611aed83611a8d565b805f5b83811015611b1d578151611b048882611aab565b9750611b0f83611ac2565b925050600181019050611af0565b5085935050505092915050565b5f6080820190508181035f830152611b428187611a17565b90508181036020830152611b568186611a17565b90508181036040830152611b6a8185611ace565b90508181036060830152611b7e8184611ace565b905095945050505050565b5f602082019050611b9c5f8301846118f0565b92915050565b7f4e487b71000000000000000000000000000000000000000000000000000000005f52601160045260245ffd5b5f611bd9826118e7565b9150611be4836118e7565b9250828202611bf2816118e7565b91508282048414831517611c0957611c08611ba2565b5b5092915050565b7f4e487b71000000000000000000000000000000000000000000000000000000005f52601260045260245ffd5b5f611c47826118e7565b9150611c52836118e7565b925082611c6257611c61611c10565b5b828204905092915050565b5f611c77826118e7565b9150611c82836118e7565b9250828203905081811115611c9a57611c99611ba2565b5b92915050565b7f4e487b71000000000000000000000000000000000000000000000000000000005f52603260045260245ffd5b7f4e487b71000000000000000000000000000000000000000000000000000000005f52603160045260245ffd5b5f611d04826118e7565b91507fffffffffffffffffffffffffffffffffffffffffffffffffffffffffffffffff8203611d3657611d35611ba2565b5b600182019050919050565b5f82825260208201905092915050565b7f4e6f2066756e647320617661696c61626c6520746f20776974686472617700005f82015250565b5f611d85601e83611d41565b9150611d9082611d51565b602082019050919050565b5f6020820190508181035f830152611db281611d79565b9050919050565b7f4665652070657263656e746167652063616e6e6f7420657863656564203130305f8201527f2500000000000000000000000000000000000000000000000000000000000000602082015250565b5f611e13602183611d41565b9150611e1e82611db9565b604082019050919050565b5f6020820190508181035f830152611e4081611e07565b9050919050565b7f4e487b71000000000000000000000000000000000000000000000000000000005f52604160045260245ffd5b7f56616c696461746f72206e6f6465206e6f74206c696e6b6564000000000000005f82015250565b5f611ea8601983611d41565b9150611eb382611e74565b602082019050919050565b5f6020820190508181035f830152611ed581611e9c565b9050919050565b5f611ee6826118e7565b9150611ef1836118e7565b9250828201905080821115611f0957611f08611ba2565b5b92915050565b7f5265656e7472616e637947756172643a207265656e7472616e742063616c6c005f82015250565b5f611f43601f83611d41565b9150611f4e82611f0f565b602082019050919050565b5f6020820190508181035f830152611f7081611f37565b9050919050565b7f5061757361626c653a20706175736564000000000000000000000000000000005f82015250565b5f611fab601083611d41565b9150611fb682611f77565b602082019050919050565b5f6020820190508181035f830152611fd881611f9f565b9050919050565b7f5061757361626c653a206e6f74207061757365640000000000000000000000005f82015250565b5f612013601483611d41565b915061201e82611fdf565b602082019050919050565b5f6020820190508181035f83015261204081612007565b905091905056fea2646970667358221220dc21a13a2c1600de2e8bc361172be4e0f72bd73d3b97a2ac345d7bc26575819264736f6c63430008150033",
					"opcodes": "PUSH1 0x80 PUSH1 0x40 MSTORE PUSH1 0xA PUSH1 0x6 SSTORE PUSH0 PUSH1 0x7 PUSH0 PUSH2 0x100 EXP DUP2 SLOAD DUP2 PUSH20 0xFFFFFFFFFFFFFFFFFFFFFFFFFFFFFFFFFFFFFFFF MUL NOT AND SWAP1 DUP4 PUSH20 0xFFFFFFFFFFFFFFFFFFFFFFFFFFFFFFFFFFFFFFFF AND MUL OR SWAP1 SSTORE POP CALLVALUE DUP1 ISZERO PUSH3 0x55 JUMPI PUSH0 DUP1 REVERT JUMPDEST POP CALLER PUSH1 0x1 PUSH0 DUP2 SWAP1 SSTORE POP PUSH0 PUSH20 0xFFFFFFFFFFFFFFFFFFFFFFFFFFFFFFFFFFFFFFFF AND DUP2 PUSH20 0xFFFFFFFFFFFFFFFFFFFFFFFFFFFFFFFFFFFFFFFF AND SUB PUSH3 0xD1 JUMPI PUSH0 PUSH1 0x40 MLOAD PUSH32 0x1E4FBDF700000000000000000000000000000000000000000000000000000000 DUP2 MSTORE PUSH1 0x4 ADD PUSH3 0xC8 SWAP2 SWAP1 PUSH3 0x209 JUMP JUMPDEST PUSH1 0x40 MLOAD DUP1 SWAP2 SUB SWAP1 REVERT JUMPDEST PUSH3 0xE2 DUP2 PUSH3 0x103 PUSH1 0x20 SHL PUSH1 0x20 SHR JUMP JUMPDEST POP PUSH0 PUSH1 0x1 PUSH1 0x14 PUSH2 0x100 EXP DUP2 SLOAD DUP2 PUSH1 0xFF MUL NOT AND SWAP1 DUP4 ISZERO ISZERO MUL OR SWAP1 SSTORE POP PUSH3 0x224 JUMP JUMPDEST PUSH0 PUSH1 0x1 PUSH0 SWAP1 SLOAD SWAP1 PUSH2 0x100 EXP SWAP1 DIV PUSH20 0xFFFFFFFFFFFFFFFFFFFFFFFFFFFFFFFFFFFFFFFF AND SWAP1 POP DUP2 PUSH1 0x1 PUSH0 PUSH2 0x100 EXP DUP2 SLOAD DUP2 PUSH20 0xFFFFFFFFFFFFFFFFFFFFFFFFFFFFFFFFFFFFFFFF MUL NOT AND SWAP1 DUP4 PUSH20 0xFFFFFFFFFFFFFFFFFFFFFFFFFFFFFFFFFFFFFFFF AND MUL OR SWAP1 SSTORE POP DUP2 PUSH20 0xFFFFFFFFFFFFFFFFFFFFFFFFFFFFFFFFFFFFFFFF AND DUP2 PUSH20 0xFFFFFFFFFFFFFFFFFFFFFFFFFFFFFFFFFFFFFFFF AND PUSH32 0x8BE0079C531659141344CD1FD0A4F28419497F9722A3DAAFE3B4186F6B6457E0 PUSH1 0x40 MLOAD PUSH1 0x40 MLOAD DUP1 SWAP2 SUB SWAP1 LOG3 POP POP JUMP JUMPDEST PUSH0 PUSH20 0xFFFFFFFFFFFFFFFFFFFFFFFFFFFFFFFFFFFFFFFF DUP3 AND SWAP1 POP SWAP2 SWAP1 POP JUMP JUMPDEST PUSH0 PUSH3 0x1F1 DUP3 PUSH3 0x1C6 JUMP JUMPDEST SWAP1 POP SWAP2 SWAP1 POP JUMP JUMPDEST PUSH3 0x203 DUP2 PUSH3 0x1E5 JUMP JUMPDEST DUP3 MSTORE POP POP JUMP JUMPDEST PUSH0 PUSH1 0x20 DUP3 ADD SWAP1 POP PUSH3 0x21E PUSH0 DUP4 ADD DUP5 PUSH3 0x1F8 JUMP JUMPDEST SWAP3 SWAP2 POP POP JUMP JUMPDEST PUSH2 0x207D DUP1 PUSH3 0x232 PUSH0 CODECOPY PUSH0 RETURN INVALID PUSH1 0x80 PUSH1 0x40 MSTORE PUSH1 0x4 CALLDATASIZE LT PUSH2 0x11E JUMPI PUSH0 CALLDATALOAD PUSH1 0xE0 SHR DUP1 PUSH4 0x78922C8F GT PUSH2 0x9F JUMPI DUP1 PUSH4 0xB33712C5 GT PUSH2 0x63 JUMPI DUP1 PUSH4 0xB33712C5 EQ PUSH2 0x38F JUMPI DUP1 PUSH4 0xB5E1302E EQ PUSH2 0x3A5 JUMPI DUP1 PUSH4 0xBB0A43BC EQ PUSH2 0x3E1 JUMPI DUP1 PUSH4 0xD0E30DB0 EQ PUSH2 0x41D JUMPI DUP1 PUSH4 0xF2FDE38B EQ PUSH2 0x427 JUMPI PUSH2 0x11E JUMP JUMPDEST DUP1 PUSH4 0x78922C8F EQ PUSH2 0x29B JUMPI DUP1 PUSH4 0x7D995311 EQ PUSH2 0x2C5 JUMPI DUP1 PUSH4 0x7DA830B4 EQ PUSH2 0x301 JUMPI DUP1 PUSH4 0x8DA5CB5B EQ PUSH2 0x33D JUMPI DUP1 PUSH4 0xA7D77CE5 EQ PUSH2 0x367 JUMPI PUSH2 0x11E JUMP JUMPDEST DUP1 PUSH4 0x439766CE GT PUSH2 0xE6 JUMPI DUP1 PUSH4 0x439766CE EQ PUSH2 0x1F0 JUMPI DUP1 PUSH4 0x5C975ABB EQ PUSH2 0x206 JUMPI DUP1 PUSH4 0x5FB0EA90 EQ PUSH2 0x230 JUMPI DUP1 PUSH4 0x6CA6D88E EQ PUSH2 0x258 JUMPI DUP1 PUSH4 0x715018A6 EQ PUSH2 0x285 JUMPI PUSH2 0x11E JUMP JUMPDEST DUP1 PUSH4 0x3A2C9E2 EQ PUSH2 0x122 JUMPI DUP1 PUSH4 0x22DF93BA EQ PUSH2 0x14A JUMPI DUP1 PUSH4 0x33DEEA05 EQ PUSH2 0x172 JUMPI DUP1 PUSH4 0x3CCFD60B EQ PUSH2 0x19C JUMPI DUP1 PUSH4 0x3ED0EEE4 EQ PUSH2 0x1B2 JUMPI JUMPDEST PUSH0 DUP1 REVERT JUMPDEST CALLVALUE DUP1 ISZERO PUSH2 0x12D JUMPI PUSH0 DUP1 REVERT JUMPDEST POP PUSH2 0x148 PUSH1 0x4 DUP1 CALLDATASIZE SUB DUP2 ADD SWAP1 PUSH2 0x143 SWAP2 SWAP1 PUSH2 0x1856 JUMP JUMPDEST PUSH2 0x44F JUMP JUMPDEST STOP JUMPDEST CALLVALUE DUP1 ISZERO PUSH2 0x155 JUMPI PUSH0 DUP1 REVERT JUMPDEST POP PUSH2 0x170 PUSH1 0x4 DUP1 CALLDATASIZE SUB DUP2 ADD SWAP1 PUSH2 0x16B SWAP2 SWAP1 PUSH2 0x1881 JUMP JUMPDEST PUSH2 0x88A JUMP JUMPDEST STOP JUMPDEST CALLVALUE DUP1 ISZERO PUSH2 0x17D JUMPI PUSH0 DUP1 REVERT JUMPDEST POP PUSH2 0x186 PUSH2 0x981 JUMP JUMPDEST PUSH1 0x40 MLOAD PUSH2 0x193 SWAP2 SWAP1 PUSH2 0x18CE JUMP JUMPDEST PUSH1 0x40 MLOAD DUP1 SWAP2 SUB SWAP1 RETURN JUMPDEST CALLVALUE DUP1 ISZERO PUSH2 0x1A7 JUMPI PUSH0 DUP1 REVERT JUMPDEST POP PUSH2 0x1B0 PUSH2 0x9A6 JUMP JUMPDEST STOP JUMPDEST CALLVALUE DUP1 ISZERO PUSH2 0x1BD JUMPI PUSH0 DUP1 REVERT JUMPDEST POP PUSH2 0x1D8 PUSH1 0x4 DUP1 CALLDATASIZE SUB DUP2 ADD SWAP1 PUSH2 0x1D3 SWAP2 SWAP1 PUSH2 0x1856 JUMP JUMPDEST PUSH2 0xBB2 JUMP JUMPDEST PUSH1 0x40 MLOAD PUSH2 0x1E7 SWAP4 SWAP3 SWAP2 SWAP1 PUSH2 0x18FF JUMP JUMPDEST PUSH1 0x40 MLOAD DUP1 SWAP2 SUB SWAP1 RETURN JUMPDEST CALLVALUE DUP1 ISZERO PUSH2 0x1FB JUMPI PUSH0 DUP1 REVERT JUMPDEST POP PUSH2 0x204 PUSH2 0xCAA JUMP JUMPDEST STOP JUMPDEST CALLVALUE DUP1 ISZERO PUSH2 0x211 JUMPI PUSH0 DUP1 REVERT JUMPDEST POP PUSH2 0x21A PUSH2 0xCBC JUMP JUMPDEST PUSH1 0x40 MLOAD PUSH2 0x227 SWAP2 SWAP1 PUSH2 0x194E JUMP JUMPDEST PUSH1 0x40 MLOAD DUP1 SWAP2 SUB SWAP1 RETURN JUMPDEST CALLVALUE DUP1 ISZERO PUSH2 0x23B JUMPI PUSH0 DUP1 REVERT JUMPDEST POP PUSH2 0x256 PUSH1 0x4 DUP1 CALLDATASIZE SUB DUP2 ADD SWAP1 PUSH2 0x251 SWAP2 SWAP1 PUSH2 0x1991 JUMP JUMPDEST PUSH2 0xCD2 JUMP JUMPDEST STOP JUMPDEST CALLVALUE DUP1 ISZERO PUSH2 0x263 JUMPI PUSH0 DUP1 REVERT JUMPDEST POP PUSH2 0x26C PUSH2 0xD28 JUMP JUMPDEST PUSH1 0x40 MLOAD PUSH2 0x27C SWAP5 SWAP4 SWAP3 SWAP2 SWAP1 PUSH2 0x1B2A JUMP JUMPDEST PUSH1 0x40 MLOAD DUP1 SWAP2 SUB SWAP1 RETURN JUMPDEST CALLVALUE DUP1 ISZERO PUSH2 0x290 JUMPI PUSH0 DUP1 REVERT JUMPDEST POP PUSH2 0x299 PUSH2 0x109D JUMP JUMPDEST STOP JUMPDEST CALLVALUE DUP1 ISZERO PUSH2 0x2A6 JUMPI PUSH0 DUP1 REVERT JUMPDEST POP PUSH2 0x2AF PUSH2 0x10B0 JUMP JUMPDEST PUSH1 0x40 MLOAD PUSH2 0x2BC SWAP2 SWAP1 PUSH2 0x1B89 JUMP JUMPDEST PUSH1 0x40 MLOAD DUP1 SWAP2 SUB SWAP1 RETURN JUMPDEST CALLVALUE DUP1 ISZERO PUSH2 0x2D0 JUMPI PUSH0 DUP1 REVERT JUMPDEST POP PUSH2 0x2EB PUSH1 0x4 DUP1 CALLDATASIZE SUB DUP2 ADD SWAP1 PUSH2 0x2E6 SWAP2 SWAP1 PUSH2 0x1856 JUMP JUMPDEST PUSH2 0x10B6 JUMP JUMPDEST PUSH1 0x40 MLOAD PUSH2 0x2F8 SWAP2 SWAP1 PUSH2 0x1B89 JUMP JUMPDEST PUSH1 0x40 MLOAD DUP1 SWAP2 SUB SWAP1 RETURN JUMPDEST CALLVALUE DUP1 ISZERO PUSH2 0x30C JUMPI PUSH0 DUP1 REVERT JUMPDEST POP PUSH2 0x327 PUSH1 0x4 DUP1 CALLDATASIZE SUB DUP2 ADD SWAP1 PUSH2 0x322 SWAP2 SWAP1 PUSH2 0x1856 JUMP JUMPDEST PUSH2 0x10CB JUMP JUMPDEST PUSH1 0x40 MLOAD PUSH2 0x334 SWAP2 SWAP1 PUSH2 0x1B89 JUMP JUMPDEST PUSH1 0x40 MLOAD DUP1 SWAP2 SUB SWAP1 RETURN JUMPDEST CALLVALUE DUP1 ISZERO PUSH2 0x348 JUMPI PUSH0 DUP1 REVERT JUMPDEST POP PUSH2 0x351 PUSH2 0x10E0 JUMP JUMPDEST PUSH1 0x40 MLOAD PUSH2 0x35E SWAP2 SWAP1 PUSH2 0x18CE JUMP JUMPDEST PUSH1 0x40 MLOAD DUP1 SWAP2 SUB SWAP1 RETURN JUMPDEST CALLVALUE DUP1 ISZERO PUSH2 0x372 JUMPI PUSH0 DUP1 REVERT JUMPDEST POP PUSH2 0x38D PUSH1 0x4 DUP1 CALLDATASIZE SUB DUP2 ADD SWAP1 PUSH2 0x388 SWAP2 SWAP1 PUSH2 0x1856 JUMP JUMPDEST PUSH2 0x1108 JUMP JUMPDEST STOP JUMPDEST CALLVALUE DUP1 ISZERO PUSH2 0x39A JUMPI PUSH0 DUP1 REVERT JUMPDEST POP PUSH2 0x3A3 PUSH2 0x1153 JUMP JUMPDEST STOP JUMPDEST CALLVALUE DUP1 ISZERO PUSH2 0x3B0 JUMPI PUSH0 DUP1 REVERT JUMPDEST POP PUSH2 0x3CB PUSH1 0x4 DUP1 CALLDATASIZE SUB DUP2 ADD SWAP1 PUSH2 0x3C6 SWAP2 SWAP1 PUSH2 0x1856 JUMP JUMPDEST PUSH2 0x1165 JUMP JUMPDEST PUSH1 0x40 MLOAD PUSH2 0x3D8 SWAP2 SWAP1 PUSH2 0x18CE JUMP JUMPDEST PUSH1 0x40 MLOAD DUP1 SWAP2 SUB SWAP1 RETURN JUMPDEST CALLVALUE DUP1 ISZERO PUSH2 0x3EC JUMPI PUSH0 DUP1 REVERT JUMPDEST POP PUSH2 0x407 PUSH1 0x4 DUP1 CALLDATASIZE SUB DUP2 ADD SWAP1 PUSH2 0x402 SWAP2 SWAP1 PUSH2 0x1991 JUMP JUMPDEST PUSH2 0x1195 JUMP JUMPDEST PUSH1 0x40 MLOAD PUSH2 0x414 SWAP2 SWAP1 PUSH2 0x18CE JUMP JUMPDEST PUSH1 0x40 MLOAD DUP1 SWAP2 SUB SWAP1 RETURN JUMPDEST PUSH2 0x425 PUSH2 0x11D0 JUMP JUMPDEST STOP JUMPDEST CALLVALUE DUP1 ISZERO PUSH2 0x432 JUMPI PUSH0 DUP1 REVERT JUMPDEST POP PUSH2 0x44D PUSH1 0x4 DUP1 CALLDATASIZE SUB DUP2 ADD SWAP1 PUSH2 0x448 SWAP2 SWAP1 PUSH2 0x1856 JUMP JUMPDEST PUSH2 0x13CF JUMP JUMPDEST STOP JUMPDEST PUSH2 0x457 PUSH2 0x1453 JUMP JUMPDEST PUSH0 PUSH1 0x2 PUSH0 DUP4 PUSH20 0xFFFFFFFFFFFFFFFFFFFFFFFFFFFFFFFFFFFFFFFF AND PUSH20 0xFFFFFFFFFFFFFFFFFFFFFFFFFFFFFFFFFFFFFFFF AND DUP2 MSTORE PUSH1 0x20 ADD SWAP1 DUP2 MSTORE PUSH1 0x20 ADD PUSH0 KECCAK256 PUSH0 SWAP1 SLOAD SWAP1 PUSH2 0x100 EXP SWAP1 DIV PUSH20 0xFFFFFFFFFFFFFFFFFFFFFFFFFFFFFFFFFFFFFFFF AND SWAP1 POP PUSH0 PUSH1 0x3 PUSH0 DUP4 PUSH20 0xFFFFFFFFFFFFFFFFFFFFFFFFFFFFFFFFFFFFFFFF AND PUSH20 0xFFFFFFFFFFFFFFFFFFFFFFFFFFFFFFFFFFFFFFFF AND DUP2 MSTORE PUSH1 0x20 ADD SWAP1 DUP2 MSTORE PUSH1 0x20 ADD PUSH0 KECCAK256 SLOAD SWAP1 POP PUSH0 PUSH1 0x64 PUSH1 0x6 SLOAD DUP4 PUSH2 0x509 SWAP2 SWAP1 PUSH2 0x1BCF JUMP JUMPDEST PUSH2 0x513 SWAP2 SWAP1 PUSH2 0x1C3D JUMP JUMPDEST SWAP1 POP PUSH0 DUP2 DUP4 PUSH2 0x522 SWAP2 SWAP1 PUSH2 0x1C6D JUMP JUMPDEST SWAP1 POP PUSH0 PUSH1 0x3 PUSH0 DUP7 PUSH20 0xFFFFFFFFFFFFFFFFFFFFFFFFFFFFFFFFFFFFFFFF AND PUSH20 0xFFFFFFFFFFFFFFFFFFFFFFFFFFFFFFFFFFFFFFFF AND DUP2 MSTORE PUSH1 0x20 ADD SWAP1 DUP2 MSTORE PUSH1 0x20 ADD PUSH0 KECCAK256 DUP2 SWAP1 SSTORE POP DUP4 PUSH20 0xFFFFFFFFFFFFFFFFFFFFFFFFFFFFFFFFFFFFFFFF AND PUSH2 0x8FC DUP3 SWAP1 DUP2 ISZERO MUL SWAP1 PUSH1 0x40 MLOAD PUSH0 PUSH1 0x40 MLOAD DUP1 DUP4 SUB DUP2 DUP6 DUP9 DUP9 CALL SWAP4 POP POP POP POP ISZERO DUP1 ISZERO PUSH2 0x5A9 JUMPI RETURNDATASIZE PUSH0 DUP1 RETURNDATACOPY RETURNDATASIZE PUSH0 REVERT JUMPDEST POP PUSH0 PUSH20 0xFFFFFFFFFFFFFFFFFFFFFFFFFFFFFFFFFFFFFFFF AND PUSH1 0x7 PUSH0 SWAP1 SLOAD SWAP1 PUSH2 0x100 EXP SWAP1 DIV PUSH20 0xFFFFFFFFFFFFFFFFFFFFFFFFFFFFFFFFFFFFFFFF AND PUSH20 0xFFFFFFFFFFFFFFFFFFFFFFFFFFFFFFFFFFFFFFFF AND EQ PUSH2 0x664 JUMPI PUSH1 0x7 PUSH0 SWAP1 SLOAD SWAP1 PUSH2 0x100 EXP SWAP1 DIV PUSH20 0xFFFFFFFFFFFFFFFFFFFFFFFFFFFFFFFFFFFFFFFF AND PUSH20 0xFFFFFFFFFFFFFFFFFFFFFFFFFFFFFFFFFFFFFFFF AND PUSH2 0x8FC DUP4 SWAP1 DUP2 ISZERO MUL SWAP1 PUSH1 0x40 MLOAD PUSH0 PUSH1 0x40 MLOAD DUP1 DUP4 SUB DUP2 DUP6 DUP9 DUP9 CALL SWAP4 POP POP POP POP ISZERO DUP1 ISZERO PUSH2 0x662 JUMPI RETURNDATASIZE PUSH0 DUP1 RETURNDATACOPY RETURNDATASIZE PUSH0 REVERT JUMPDEST POP JUMPDEST PUSH0 JUMPDEST PUSH1 0x5 DUP1 SLOAD SWAP1 POP DUP2 LT ISZERO PUSH2 0x7E3 JUMPI DUP6 PUSH20 0xFFFFFFFFFFFFFFFFFFFFFFFFFFFFFFFFFFFFFFFF AND PUSH1 0x5 DUP3 DUP2 SLOAD DUP2 LT PUSH2 0x69E JUMPI PUSH2 0x69D PUSH2 0x1CA0 JUMP JUMPDEST JUMPDEST SWAP1 PUSH0 MSTORE PUSH1 0x20 PUSH0 KECCAK256 ADD PUSH0 SWAP1 SLOAD SWAP1 PUSH2 0x100 EXP SWAP1 DIV PUSH20 0xFFFFFFFFFFFFFFFFFFFFFFFFFFFFFFFFFFFFFFFF AND PUSH20 0xFFFFFFFFFFFFFFFFFFFFFFFFFFFFFFFFFFFFFFFF AND SUB PUSH2 0x7D0 JUMPI PUSH1 0x5 PUSH1 0x1 PUSH1 0x5 DUP1 SLOAD SWAP1 POP PUSH2 0x6F5 SWAP2 SWAP1 PUSH2 0x1C6D JUMP JUMPDEST DUP2 SLOAD DUP2 LT PUSH2 0x706 JUMPI PUSH2 0x705 PUSH2 0x1CA0 JUMP JUMPDEST JUMPDEST SWAP1 PUSH0 MSTORE PUSH1 0x20 PUSH0 KECCAK256 ADD PUSH0 SWAP1 SLOAD SWAP1 PUSH2 0x100 EXP SWAP1 DIV PUSH20 0xFFFFFFFFFFFFFFFFFFFFFFFFFFFFFFFFFFFFFFFF AND PUSH1 0x5 DUP3 DUP2 SLOAD DUP2 LT PUSH2 0x742 JUMPI PUSH2 0x741 PUSH2 0x1CA0 JUMP JUMPDEST JUMPDEST SWAP1 PUSH0 MSTORE PUSH1 0x20 PUSH0 KECCAK256 ADD PUSH0 PUSH2 0x100 EXP DUP2 SLOAD DUP2 PUSH20 0xFFFFFFFFFFFFFFFFFFFFFFFFFFFFFFFFFFFFFFFF MUL NOT AND SWAP1 DUP4 PUSH20 0xFFFFFFFFFFFFFFFFFFFFFFFFFFFFFFFFFFFFFFFF AND MUL OR SWAP1 SSTORE POP PUSH1 0x5 DUP1 SLOAD DUP1 PUSH2 0x799 JUMPI PUSH2 0x798 PUSH2 0x1CCD JUMP JUMPDEST JUMPDEST PUSH1 0x1 SWAP1 SUB DUP2 DUP2 SWAP1 PUSH0 MSTORE PUSH1 0x20 PUSH0 KECCAK256 ADD PUSH0 PUSH2 0x100 EXP DUP2 SLOAD SWAP1 PUSH20 0xFFFFFFFFFFFFFFFFFFFFFFFFFFFFFFFFFFFFFFFF MUL NOT AND SWAP1 SSTORE SWAP1 SSTORE PUSH2 0x7E3 JUMP JUMPDEST DUP1 DUP1 PUSH2 0x7DB SWAP1 PUSH2 0x1CFA JUMP JUMPDEST SWAP2 POP POP PUSH2 0x666 JUMP JUMPDEST POP PUSH1 0x2 PUSH0 DUP7 PUSH20 0xFFFFFFFFFFFFFFFFFFFFFFFFFFFFFFFFFFFFFFFF AND PUSH20 0xFFFFFFFFFFFFFFFFFFFFFFFFFFFFFFFFFFFFFFFF AND DUP2 MSTORE PUSH1 0x20 ADD SWAP1 DUP2 MSTORE PUSH1 0x20 ADD PUSH0 KECCAK256 PUSH0 PUSH2 0x100 EXP DUP2 SLOAD SWAP1 PUSH20 0xFFFFFFFFFFFFFFFFFFFFFFFFFFFFFFFFFFFFFFFF MUL NOT AND SWAP1 SSTORE PUSH1 0x4 PUSH0 DUP7 PUSH20 0xFFFFFFFFFFFFFFFFFFFFFFFFFFFFFFFFFFFFFFFF AND PUSH20 0xFFFFFFFFFFFFFFFFFFFFFFFFFFFFFFFFFFFFFFFF AND DUP2 MSTORE PUSH1 0x20 ADD SWAP1 DUP2 MSTORE PUSH1 0x20 ADD PUSH0 KECCAK256 PUSH0 SWAP1 SSTORE POP POP POP POP POP JUMP JUMPDEST PUSH2 0x892 PUSH2 0x1453 JUMP JUMPDEST DUP1 PUSH1 0x2 PUSH0 DUP5 PUSH20 0xFFFFFFFFFFFFFFFFFFFFFFFFFFFFFFFFFFFFFFFF AND PUSH20 0xFFFFFFFFFFFFFFFFFFFFFFFFFFFFFFFFFFFFFFFF AND DUP2 MSTORE PUSH1 0x20 ADD SWAP1 DUP2 MSTORE PUSH1 0x20 ADD PUSH0 KECCAK256 PUSH0 PUSH2 0x100 EXP DUP2 SLOAD DUP2 PUSH20 0xFFFFFFFFFFFFFFFFFFFFFFFFFFFFFFFFFFFFFFFF MUL NOT AND SWAP1 DUP4 PUSH20 0xFFFFFFFFFFFFFFFFFFFFFFFFFFFFFFFFFFFFFFFF AND MUL OR SWAP1 SSTORE POP PUSH2 0x918 PUSH1 0x5 DUP4 PUSH2 0x14DA JUMP JUMPDEST PUSH2 0x97D JUMPI PUSH1 0x5 DUP3 SWAP1 DUP1 PUSH1 0x1 DUP2 SLOAD ADD DUP1 DUP3 SSTORE DUP1 SWAP2 POP POP PUSH1 0x1 SWAP1 SUB SWAP1 PUSH0 MSTORE PUSH1 0x20 PUSH0 KECCAK256 ADD PUSH0 SWAP1 SWAP2 SWAP1 SWAP2 SWAP1 SWAP2 PUSH2 0x100 EXP DUP2 SLOAD DUP2 PUSH20 0xFFFFFFFFFFFFFFFFFFFFFFFFFFFFFFFFFFFFFFFF MUL NOT AND SWAP1 DUP4 PUSH20 0xFFFFFFFFFFFFFFFFFFFFFFFFFFFFFFFFFFFFFFFF AND MUL OR SWAP1 SSTORE POP JUMPDEST POP POP JUMP JUMPDEST PUSH1 0x7 PUSH0 SWAP1 SLOAD SWAP1 PUSH2 0x100 EXP SWAP1 DIV PUSH20 0xFFFFFFFFFFFFFFFFFFFFFFFFFFFFFFFFFFFFFFFF AND DUP2 JUMP JUMPDEST PUSH2 0x9AE PUSH2 0x1581 JUMP JUMPDEST PUSH2 0x9B6 PUSH2 0x15CE JUMP JUMPDEST PUSH0 PUSH1 0x3 PUSH0 CALLER PUSH20 0xFFFFFFFFFFFFFFFFFFFFFFFFFFFFFFFFFFFFFFFF AND PUSH20 0xFFFFFFFFFFFFFFFFFFFFFFFFFFFFFFFFFFFFFFFF AND DUP2 MSTORE PUSH1 0x20 ADD SWAP1 DUP2 MSTORE PUSH1 0x20 ADD PUSH0 KECCAK256 SLOAD SWAP1 POP PUSH0 DUP2 GT PUSH2 0xA39 JUMPI PUSH1 0x40 MLOAD PUSH32 0x8C379A000000000000000000000000000000000000000000000000000000000 DUP2 MSTORE PUSH1 0x4 ADD PUSH2 0xA30 SWAP1 PUSH2 0x1D9B JUMP JUMPDEST PUSH1 0x40 MLOAD DUP1 SWAP2 SUB SWAP1 REVERT JUMPDEST PUSH0 PUSH1 0x64 PUSH1 0x6 SLOAD DUP4 PUSH2 0xA4A SWAP2 SWAP1 PUSH2 0x1BCF JUMP JUMPDEST PUSH2 0xA54 SWAP2 SWAP1 PUSH2 0x1C3D JUMP JUMPDEST SWAP1 POP PUSH0 DUP2 DUP4 PUSH2 0xA63 SWAP2 SWAP1 PUSH2 0x1C6D JUMP JUMPDEST SWAP1 POP PUSH0 PUSH1 0x3 PUSH0 CALLER PUSH20 0xFFFFFFFFFFFFFFFFFFFFFFFFFFFFFFFFFFFFFFFF AND PUSH20 0xFFFFFFFFFFFFFFFFFFFFFFFFFFFFFFFFFFFFFFFF AND DUP2 MSTORE PUSH1 0x20 ADD SWAP1 DUP2 MSTORE PUSH1 0x20 ADD PUSH0 KECCAK256 DUP2 SWAP1 SSTORE POP CALLER PUSH20 0xFFFFFFFFFFFFFFFFFFFFFFFFFFFFFFFFFFFFFFFF AND PUSH2 0x8FC DUP3 SWAP1 DUP2 ISZERO MUL SWAP1 PUSH1 0x40 MLOAD PUSH0 PUSH1 0x40 MLOAD DUP1 DUP4 SUB DUP2 DUP6 DUP9 DUP9 CALL SWAP4 POP POP POP POP ISZERO DUP1 ISZERO PUSH2 0xAEA JUMPI RETURNDATASIZE PUSH0 DUP1 RETURNDATACOPY RETURNDATASIZE PUSH0 REVERT JUMPDEST POP PUSH0 PUSH20 0xFFFFFFFFFFFFFFFFFFFFFFFFFFFFFFFFFFFFFFFF AND PUSH1 0x7 PUSH0 SWAP1 SLOAD SWAP1 PUSH2 0x100 EXP SWAP1 DIV PUSH20 0xFFFFFFFFFFFFFFFFFFFFFFFFFFFFFFFFFFFFFFFF AND PUSH20 0xFFFFFFFFFFFFFFFFFFFFFFFFFFFFFFFFFFFFFFFF AND EQ PUSH2 0xBA5 JUMPI PUSH1 0x7 PUSH0 SWAP1 SLOAD SWAP1 PUSH2 0x100 EXP SWAP1 DIV PUSH20 0xFFFFFFFFFFFFFFFFFFFFFFFFFFFFFFFFFFFFFFFF AND PUSH20 0xFFFFFFFFFFFFFFFFFFFFFFFFFFFFFFFFFFFFFFFF AND PUSH2 0x8FC DUP4 SWAP1 DUP2 ISZERO MUL SWAP1 PUSH1 0x40 MLOAD PUSH0 PUSH1 0x40 MLOAD DUP1 DUP4 SUB DUP2 DUP6 DUP9 DUP9 CALL SWAP4 POP POP POP POP ISZERO DUP1 ISZERO PUSH2 0xBA3 JUMPI RETURNDATASIZE PUSH0 DUP1 RETURNDATACOPY RETURNDATASIZE PUSH0 REVERT JUMPDEST POP JUMPDEST POP POP POP PUSH2 0xBB0 PUSH2 0x1618 JUMP JUMPDEST JUMP JUMPDEST PUSH0 DUP1 PUSH0 DUP1 PUSH1 0x2 PUSH0 DUP7 PUSH20 0xFFFFFFFFFFFFFFFFFFFFFFFFFFFFFFFFFFFFFFFF AND PUSH20 0xFFFFFFFFFFFFFFFFFFFFFFFFFFFFFFFFFFFFFFFF AND DUP2 MSTORE PUSH1 0x20 ADD SWAP1 DUP2 MSTORE PUSH1 0x20 ADD PUSH0 KECCAK256 PUSH0 SWAP1 SLOAD SWAP1 PUSH2 0x100 EXP SWAP1 DIV PUSH20 0xFFFFFFFFFFFFFFFFFFFFFFFFFFFFFFFFFFFFFFFF AND SWAP1 POP PUSH0 PUSH1 0x4 PUSH0 DUP8 PUSH20 0xFFFFFFFFFFFFFFFFFFFFFFFFFFFFFFFFFFFFFFFF AND PUSH20 0xFFFFFFFFFFFFFFFFFFFFFFFFFFFFFFFFFFFFFFFF AND DUP2 MSTORE PUSH1 0x20 ADD SWAP1 DUP2 MSTORE PUSH1 0x20 ADD PUSH0 KECCAK256 SLOAD SWAP1 POP PUSH0 PUSH1 0x3 PUSH0 DUP5 PUSH20 0xFFFFFFFFFFFFFFFFFFFFFFFFFFFFFFFFFFFFFFFF AND PUSH20 0xFFFFFFFFFFFFFFFFFFFFFFFFFFFFFFFFFFFFFFFF AND DUP2 MSTORE PUSH1 0x20 ADD SWAP1 DUP2 MSTORE PUSH1 0x20 ADD PUSH0 KECCAK256 SLOAD SWAP1 POP DUP3 DUP3 DUP3 SWAP6 POP SWAP6 POP SWAP6 POP POP POP POP SWAP2 SWAP4 SWAP1 SWAP3 POP JUMP JUMPDEST PUSH2 0xCB2 PUSH2 0x1453 JUMP JUMPDEST PUSH2 0xCBA PUSH2 0x1621 JUMP JUMPDEST JUMP JUMPDEST PUSH0 PUSH1 0x1 PUSH1 0x14 SWAP1 SLOAD SWAP1 PUSH2 0x100 EXP SWAP1 DIV PUSH1 0xFF AND SWAP1 POP SWAP1 JUMP JUMPDEST PUSH2 0xCDA PUSH2 0x1453 JUMP JUMPDEST PUSH1 0x64 DUP2 GT ISZERO PUSH2 0xD1E JUMPI PUSH1 0x40 MLOAD PUSH32 0x8C379A000000000000000000000000000000000000000000000000000000000 DUP2 MSTORE PUSH1 0x4 ADD PUSH2 0xD15 SWAP1 PUSH2 0x1E29 JUMP JUMPDEST PUSH1 0x40 MLOAD DUP1 SWAP2 SUB SWAP1 REVERT JUMPDEST DUP1 PUSH1 0x6 DUP2 SWAP1 SSTORE POP POP JUMP JUMPDEST PUSH1 0x60 DUP1 PUSH1 0x60 DUP1 PUSH0 PUSH1 0x5 DUP1 SLOAD SWAP1 POP SWAP1 POP PUSH0 DUP2 PUSH8 0xFFFFFFFFFFFFFFFF DUP2 GT ISZERO PUSH2 0xD52 JUMPI PUSH2 0xD51 PUSH2 0x1E47 JUMP JUMPDEST JUMPDEST PUSH1 0x40 MLOAD SWAP1 DUP1 DUP3 MSTORE DUP1 PUSH1 0x20 MUL PUSH1 0x20 ADD DUP3 ADD PUSH1 0x40 MSTORE DUP1 ISZERO PUSH2 0xD80 JUMPI DUP2 PUSH1 0x20 ADD PUSH1 0x20 DUP3 MUL DUP1 CALLDATASIZE DUP4 CALLDATACOPY DUP1 DUP3 ADD SWAP2 POP POP SWAP1 POP JUMPDEST POP SWAP1 POP PUSH0 DUP3 PUSH8 0xFFFFFFFFFFFFFFFF DUP2 GT ISZERO PUSH2 0xD9E JUMPI PUSH2 0xD9D PUSH2 0x1E47 JUMP JUMPDEST JUMPDEST PUSH1 0x40 MLOAD SWAP1 DUP1 DUP3 MSTORE DUP1 PUSH1 0x20 MUL PUSH1 0x20 ADD DUP3 ADD PUSH1 0x40 MSTORE DUP1 ISZERO PUSH2 0xDCC JUMPI DUP2 PUSH1 0x20 ADD PUSH1 0x20 DUP3 MUL DUP1 CALLDATASIZE DUP4 CALLDATACOPY DUP1 DUP3 ADD SWAP2 POP POP SWAP1 POP JUMPDEST POP SWAP1 POP PUSH0 DUP4 PUSH8 0xFFFFFFFFFFFFFFFF DUP2 GT ISZERO PUSH2 0xDEA JUMPI PUSH2 0xDE9 PUSH2 0x1E47 JUMP JUMPDEST JUMPDEST PUSH1 0x40 MLOAD SWAP1 DUP1 DUP3 MSTORE DUP1 PUSH1 0x20 MUL PUSH1 0x20 ADD DUP3 ADD PUSH1 0x40 MSTORE DUP1 ISZERO PUSH2 0xE18 JUMPI DUP2 PUSH1 0x20 ADD PUSH1 0x20 DUP3 MUL DUP1 CALLDATASIZE DUP4 CALLDATACOPY DUP1 DUP3 ADD SWAP2 POP POP SWAP1 POP JUMPDEST POP SWAP1 POP PUSH0 DUP5 PUSH8 0xFFFFFFFFFFFFFFFF DUP2 GT ISZERO PUSH2 0xE36 JUMPI PUSH2 0xE35 PUSH2 0x1E47 JUMP JUMPDEST JUMPDEST PUSH1 0x40 MLOAD SWAP1 DUP1 DUP3 MSTORE DUP1 PUSH1 0x20 MUL PUSH1 0x20 ADD DUP3 ADD PUSH1 0x40 MSTORE DUP1 ISZERO PUSH2 0xE64 JUMPI DUP2 PUSH1 0x20 ADD PUSH1 0x20 DUP3 MUL DUP1 CALLDATASIZE DUP4 CALLDATACOPY DUP1 DUP3 ADD SWAP2 POP POP SWAP1 POP JUMPDEST POP SWAP1 POP PUSH0 JUMPDEST DUP6 DUP2 LT ISZERO PUSH2 0x1085 JUMPI PUSH0 PUSH1 0x5 DUP3 DUP2 SLOAD DUP2 LT PUSH2 0xE86 JUMPI PUSH2 0xE85 PUSH2 0x1CA0 JUMP JUMPDEST JUMPDEST SWAP1 PUSH0 MSTORE PUSH1 0x20 PUSH0 KECCAK256 ADD PUSH0 SWAP1 SLOAD SWAP1 PUSH2 0x100 EXP SWAP1 DIV PUSH20 0xFFFFFFFFFFFFFFFFFFFFFFFFFFFFFFFFFFFFFFFF AND SWAP1 POP PUSH0 PUSH1 0x2 PUSH0 DUP4 PUSH20 0xFFFFFFFFFFFFFFFFFFFFFFFFFFFFFFFFFFFFFFFF AND PUSH20 0xFFFFFFFFFFFFFFFFFFFFFFFFFFFFFFFFFFFFFFFF AND DUP2 MSTORE PUSH1 0x20 ADD SWAP1 DUP2 MSTORE PUSH1 0x20 ADD PUSH0 KECCAK256 PUSH0 SWAP1 SLOAD SWAP1 PUSH2 0x100 EXP SWAP1 DIV PUSH20 0xFFFFFFFFFFFFFFFFFFFFFFFFFFFFFFFFFFFFFFFF AND SWAP1 POP PUSH0 PUSH1 0x4 PUSH0 DUP5 PUSH20 0xFFFFFFFFFFFFFFFFFFFFFFFFFFFFFFFFFFFFFFFF AND PUSH20 0xFFFFFFFFFFFFFFFFFFFFFFFFFFFFFFFFFFFFFFFF AND DUP2 MSTORE PUSH1 0x20 ADD SWAP1 DUP2 MSTORE PUSH1 0x20 ADD PUSH0 KECCAK256 SLOAD SWAP1 POP PUSH0 PUSH1 0x3 PUSH0 DUP5 PUSH20 0xFFFFFFFFFFFFFFFFFFFFFFFFFFFFFFFFFFFFFFFF AND PUSH20 0xFFFFFFFFFFFFFFFFFFFFFFFFFFFFFFFFFFFFFFFF AND DUP2 MSTORE PUSH1 0x20 ADD SWAP1 DUP2 MSTORE PUSH1 0x20 ADD PUSH0 KECCAK256 SLOAD SWAP1 POP DUP4 DUP10 DUP7 DUP2 MLOAD DUP2 LT PUSH2 0xFA6 JUMPI PUSH2 0xFA5 PUSH2 0x1CA0 JUMP JUMPDEST JUMPDEST PUSH1 0x20 MUL PUSH1 0x20 ADD ADD SWAP1 PUSH20 0xFFFFFFFFFFFFFFFFFFFFFFFFFFFFFFFFFFFFFFFF AND SWAP1 DUP2 PUSH20 0xFFFFFFFFFFFFFFFFFFFFFFFFFFFFFFFFFFFFFFFF AND DUP2 MSTORE POP POP DUP3 DUP9 DUP7 DUP2 MLOAD DUP2 LT PUSH2 0xFF4 JUMPI PUSH2 0xFF3 PUSH2 0x1CA0 JUMP JUMPDEST JUMPDEST PUSH1 0x20 MUL PUSH1 0x20 ADD ADD SWAP1 PUSH20 0xFFFFFFFFFFFFFFFFFFFFFFFFFFFFFFFFFFFFFFFF AND SWAP1 DUP2 PUSH20 0xFFFFFFFFFFFFFFFFFFFFFFFFFFFFFFFFFFFFFFFF AND DUP2 MSTORE POP POP DUP2 DUP8 DUP7 DUP2 MLOAD DUP2 LT PUSH2 0x1042 JUMPI PUSH2 0x1041 PUSH2 0x1CA0 JUMP JUMPDEST JUMPDEST PUSH1 0x20 MUL PUSH1 0x20 ADD ADD DUP2 DUP2 MSTORE POP POP DUP1 DUP7 DUP7 DUP2 MLOAD DUP2 LT PUSH2 0x1062 JUMPI PUSH2 0x1061 PUSH2 0x1CA0 JUMP JUMPDEST JUMPDEST PUSH1 0x20 MUL PUSH1 0x20 ADD ADD DUP2 DUP2 MSTORE POP POP POP POP POP POP DUP1 DUP1 PUSH2 0x107D SWAP1 PUSH2 0x1CFA JUMP JUMPDEST SWAP2 POP POP PUSH2 0xE69 JUMP JUMPDEST POP DUP4 DUP4 DUP4 DUP4 SWAP9 POP SWAP9 POP SWAP9 POP SWAP9 POP POP POP POP POP POP SWAP1 SWAP2 SWAP3 SWAP4 JUMP JUMPDEST PUSH2 0x10A5 PUSH2 0x1453 JUMP JUMPDEST PUSH2 0x10AE PUSH0 PUSH2 0x1683 JUMP JUMPDEST JUMP JUMPDEST PUSH1 0x6 SLOAD DUP2 JUMP JUMPDEST PUSH1 0x3 PUSH1 0x20 MSTORE DUP1 PUSH0 MSTORE PUSH1 0x40 PUSH0 KECCAK256 PUSH0 SWAP2 POP SWAP1 POP SLOAD DUP2 JUMP JUMPDEST PUSH1 0x4 PUSH1 0x20 MSTORE DUP1 PUSH0 MSTORE PUSH1 0x40 PUSH0 KECCAK256 PUSH0 SWAP2 POP SWAP1 POP SLOAD DUP2 JUMP JUMPDEST PUSH0 PUSH1 0x1 PUSH0 SWAP1 SLOAD SWAP1 PUSH2 0x100 EXP SWAP1 DIV PUSH20 0xFFFFFFFFFFFFFFFFFFFFFFFFFFFFFFFFFFFFFFFF AND SWAP1 POP SWAP1 JUMP JUMPDEST PUSH2 0x1110 PUSH2 0x1453 JUMP JUMPDEST DUP1 PUSH1 0x7 PUSH0 PUSH2 0x100 EXP DUP2 SLOAD DUP2 PUSH20 0xFFFFFFFFFFFFFFFFFFFFFFFFFFFFFFFFFFFFFFFF MUL NOT AND SWAP1 DUP4 PUSH20 0xFFFFFFFFFFFFFFFFFFFFFFFFFFFFFFFFFFFFFFFF AND MUL OR SWAP1 SSTORE POP POP JUMP JUMPDEST PUSH2 0x115B PUSH2 0x1453 JUMP JUMPDEST PUSH2 0x1163 PUSH2 0x1746 JUMP JUMPDEST JUMP JUMPDEST PUSH1 0x2 PUSH1 0x20 MSTORE DUP1 PUSH0 MSTORE PUSH1 0x40 PUSH0 KECCAK256 PUSH0 SWAP2 POP SLOAD SWAP1 PUSH2 0x100 EXP SWAP1 DIV PUSH20 0xFFFFFFFFFFFFFFFFFFFFFFFFFFFFFFFFFFFFFFFF AND DUP2 JUMP JUMPDEST PUSH1 0x5 DUP2 DUP2 SLOAD DUP2 LT PUSH2 0x11A4 JUMPI PUSH0 DUP1 REVERT JUMPDEST SWAP1 PUSH0 MSTORE PUSH1 0x20 PUSH0 KECCAK256 ADD PUSH0 SWAP2 POP SLOAD SWAP1 PUSH2 0x100 EXP SWAP1 DIV PUSH20 0xFFFFFFFFFFFFFFFFFFFFFFFFFFFFFFFFFFFFFFFF AND DUP2 JUMP JUMPDEST PUSH2 0x11D8 PUSH2 0x1581 JUMP JUMPDEST PUSH2 0x11E0 PUSH2 0x15CE JUMP JUMPDEST PUSH0 PUSH1 0x2 PUSH0 CALLER PUSH20 0xFFFFFFFFFFFFFFFFFFFFFFFFFFFFFFFFFFFFFFFF AND PUSH20 0xFFFFFFFFFFFFFFFFFFFFFFFFFFFFFFFFFFFFFFFF AND DUP2 MSTORE PUSH1 0x20 ADD SWAP1 DUP2 MSTORE PUSH1 0x20 ADD PUSH0 KECCAK256 PUSH0 SWAP1 SLOAD SWAP1 PUSH2 0x100 EXP SWAP1 DIV PUSH20 0xFFFFFFFFFFFFFFFFFFFFFFFFFFFFFFFFFFFFFFFF AND SWAP1 POP PUSH0 PUSH20 0xFFFFFFFFFFFFFFFFFFFFFFFFFFFFFFFFFFFFFFFF AND DUP2 PUSH20 0xFFFFFFFFFFFFFFFFFFFFFFFFFFFFFFFFFFFFFFFF AND SUB PUSH2 0x12AE JUMPI PUSH1 0x40 MLOAD PUSH32 0x8C379A000000000000000000000000000000000000000000000000000000000 DUP2 MSTORE PUSH1 0x4 ADD PUSH2 0x12A5 SWAP1 PUSH2 0x1EBE JUMP JUMPDEST PUSH1 0x40 MLOAD DUP1 SWAP2 SUB SWAP1 REVERT JUMPDEST CALLVALUE PUSH1 0x3 PUSH0 DUP4 PUSH20 0xFFFFFFFFFFFFFFFFFFFFFFFFFFFFFFFFFFFFFFFF AND PUSH20 0xFFFFFFFFFFFFFFFFFFFFFFFFFFFFFFFFFFFFFFFF AND DUP2 MSTORE PUSH1 0x20 ADD SWAP1 DUP2 MSTORE PUSH1 0x20 ADD PUSH0 KECCAK256 PUSH0 DUP3 DUP3 SLOAD PUSH2 0x12FA SWAP2 SWAP1 PUSH2 0x1EDC JUMP JUMPDEST SWAP3 POP POP DUP2 SWAP1 SSTORE POP CALLVALUE PUSH1 0x4 PUSH0 CALLER PUSH20 0xFFFFFFFFFFFFFFFFFFFFFFFFFFFFFFFFFFFFFFFF AND PUSH20 0xFFFFFFFFFFFFFFFFFFFFFFFFFFFFFFFFFFFFFFFF AND DUP2 MSTORE PUSH1 0x20 ADD SWAP1 DUP2 MSTORE PUSH1 0x20 ADD PUSH0 KECCAK256 PUSH0 DUP3 DUP3 SLOAD PUSH2 0x134D SWAP2 SWAP1 PUSH2 0x1EDC JUMP JUMPDEST SWAP3 POP POP DUP2 SWAP1 SSTORE POP PUSH2 0x135F PUSH1 0x5 CALLER PUSH2 0x14DA JUMP JUMPDEST PUSH2 0x13C4 JUMPI PUSH1 0x5 CALLER SWAP1 DUP1 PUSH1 0x1 DUP2 SLOAD ADD DUP1 DUP3 SSTORE DUP1 SWAP2 POP POP PUSH1 0x1 SWAP1 SUB SWAP1 PUSH0 MSTORE PUSH1 0x20 PUSH0 KECCAK256 ADD PUSH0 SWAP1 SWAP2 SWAP1 SWAP2 SWAP1 SWAP2 PUSH2 0x100 EXP DUP2 SLOAD DUP2 PUSH20 0xFFFFFFFFFFFFFFFFFFFFFFFFFFFFFFFFFFFFFFFF MUL NOT AND SWAP1 DUP4 PUSH20 0xFFFFFFFFFFFFFFFFFFFFFFFFFFFFFFFFFFFFFFFF AND MUL OR SWAP1 SSTORE POP JUMPDEST POP PUSH2 0x13CD PUSH2 0x1618 JUMP JUMPDEST JUMP JUMPDEST PUSH2 0x13D7 PUSH2 0x1453 JUMP JUMPDEST PUSH0 PUSH20 0xFFFFFFFFFFFFFFFFFFFFFFFFFFFFFFFFFFFFFFFF AND DUP2 PUSH20 0xFFFFFFFFFFFFFFFFFFFFFFFFFFFFFFFFFFFFFFFF AND SUB PUSH2 0x1447 JUMPI PUSH0 PUSH1 0x40 MLOAD PUSH32 0x1E4FBDF700000000000000000000000000000000000000000000000000000000 DUP2 MSTORE PUSH1 0x4 ADD PUSH2 0x143E SWAP2 SWAP1 PUSH2 0x18CE JUMP JUMPDEST PUSH1 0x40 MLOAD DUP1 SWAP2 SUB SWAP1 REVERT JUMPDEST PUSH2 0x1450 DUP2 PUSH2 0x1683 JUMP JUMPDEST POP JUMP JUMPDEST PUSH2 0x145B PUSH2 0x17A8 JUMP JUMPDEST PUSH20 0xFFFFFFFFFFFFFFFFFFFFFFFFFFFFFFFFFFFFFFFF AND PUSH2 0x1479 PUSH2 0x10E0 JUMP JUMPDEST PUSH20 0xFFFFFFFFFFFFFFFFFFFFFFFFFFFFFFFFFFFFFFFF AND EQ PUSH2 0x14D8 JUMPI PUSH2 0x149C PUSH2 0x17A8 JUMP JUMPDEST PUSH1 0x40 MLOAD PUSH32 0x118CDAA700000000000000000000000000000000000000000000000000000000 DUP2 MSTORE PUSH1 0x4 ADD PUSH2 0x14CF SWAP2 SWAP1 PUSH2 0x18CE JUMP JUMPDEST PUSH1 0x40 MLOAD DUP1 SWAP2 SUB SWAP1 REVERT JUMPDEST JUMP JUMPDEST PUSH0 DUP1 PUSH0 SWAP1 POP JUMPDEST DUP4 DUP1 SLOAD SWAP1 POP DUP2 LT ISZERO PUSH2 0x1576 JUMPI DUP3 PUSH20 0xFFFFFFFFFFFFFFFFFFFFFFFFFFFFFFFFFFFFFFFF AND DUP5 DUP3 DUP2 SLOAD DUP2 LT PUSH2 0x1516 JUMPI PUSH2 0x1515 PUSH2 0x1CA0 JUMP JUMPDEST JUMPDEST SWAP1 PUSH0 MSTORE PUSH1 0x20 PUSH0 KECCAK256 ADD PUSH0 SWAP1 SLOAD SWAP1 PUSH2 0x100 EXP SWAP1 DIV PUSH20 0xFFFFFFFFFFFFFFFFFFFFFFFFFFFFFFFFFFFFFFFF AND PUSH20 0xFFFFFFFFFFFFFFFFFFFFFFFFFFFFFFFFFFFFFFFF AND SUB PUSH2 0x1563 JUMPI PUSH1 0x1 SWAP2 POP POP PUSH2 0x157B JUMP JUMPDEST DUP1 DUP1 PUSH2 0x156E SWAP1 PUSH2 0x1CFA JUMP JUMPDEST SWAP2 POP POP PUSH2 0x14E0 JUMP JUMPDEST POP PUSH0 SWAP1 POP JUMPDEST SWAP3 SWAP2 POP POP JUMP JUMPDEST PUSH1 0x2 PUSH0 SLOAD SUB PUSH2 0x15C5 JUMPI PUSH1 0x40 MLOAD PUSH32 0x8C379A000000000000000000000000000000000000000000000000000000000 DUP2 MSTORE PUSH1 0x4 ADD PUSH2 0x15BC SWAP1 PUSH2 0x1F59 JUMP JUMPDEST PUSH1 0x40 MLOAD DUP1 SWAP2 SUB SWAP1 REVERT JUMPDEST PUSH1 0x2 PUSH0 DUP2 SWAP1 SSTORE POP JUMP JUMPDEST PUSH2 0x15D6 PUSH2 0xCBC JUMP JUMPDEST ISZERO PUSH2 0x1616 JUMPI PUSH1 0x40 MLOAD PUSH32 0x8C379A000000000000000000000000000000000000000000000000000000000 DUP2 MSTORE PUSH1 0x4 ADD PUSH2 0x160D SWAP1 PUSH2 0x1FC1 JUMP JUMPDEST PUSH1 0x40 MLOAD DUP1 SWAP2 SUB SWAP1 REVERT JUMPDEST JUMP JUMPDEST PUSH1 0x1 PUSH0 DUP2 SWAP1 SSTORE POP JUMP JUMPDEST PUSH2 0x1629 PUSH2 0x15CE JUMP JUMPDEST PUSH1 0x1 DUP1 PUSH1 0x14 PUSH2 0x100 EXP DUP2 SLOAD DUP2 PUSH1 0xFF MUL NOT AND SWAP1 DUP4 ISZERO ISZERO MUL OR SWAP1 SSTORE POP PUSH32 0x62E78CEA01BEE320CD4E420270B5EA74000D11B0C9F74754EBDBFC544B05A258 PUSH2 0x166C PUSH2 0x17A8 JUMP JUMPDEST PUSH1 0x40 MLOAD PUSH2 0x1679 SWAP2 SWAP1 PUSH2 0x18CE JUMP JUMPDEST PUSH1 0x40 MLOAD DUP1 SWAP2 SUB SWAP1 LOG1 JUMP JUMPDEST PUSH0 PUSH1 0x1 PUSH0 SWAP1 SLOAD SWAP1 PUSH2 0x100 EXP SWAP1 DIV PUSH20 0xFFFFFFFFFFFFFFFFFFFFFFFFFFFFFFFFFFFFFFFF AND SWAP1 POP DUP2 PUSH1 0x1 PUSH0 PUSH2 0x100 EXP DUP2 SLOAD DUP2 PUSH20 0xFFFFFFFFFFFFFFFFFFFFFFFFFFFFFFFFFFFFFFFF MUL NOT AND SWAP1 DUP4 PUSH20 0xFFFFFFFFFFFFFFFFFFFFFFFFFFFFFFFFFFFFFFFF AND MUL OR SWAP1 SSTORE POP DUP2 PUSH20 0xFFFFFFFFFFFFFFFFFFFFFFFFFFFFFFFFFFFFFFFF AND DUP2 PUSH20 0xFFFFFFFFFFFFFFFFFFFFFFFFFFFFFFFFFFFFFFFF AND PUSH32 0x8BE0079C531659141344CD1FD0A4F28419497F9722A3DAAFE3B4186F6B6457E0 PUSH1 0x40 MLOAD PUSH1 0x40 MLOAD DUP1 SWAP2 SUB SWAP1 LOG3 POP POP JUMP JUMPDEST PUSH2 0x174E PUSH2 0x17AF JUMP JUMPDEST PUSH0 PUSH1 0x1 PUSH1 0x14 PUSH2 0x100 EXP DUP2 SLOAD DUP2 PUSH1 0xFF MUL NOT AND SWAP1 DUP4 ISZERO ISZERO MUL OR SWAP1 SSTORE POP PUSH32 0x5DB9EE0A495BF2E6FF9C91A7834C1BA4FDD244A5E8AA4E537BD38AEAE4B073AA PUSH2 0x1791 PUSH2 0x17A8 JUMP JUMPDEST PUSH1 0x40 MLOAD PUSH2 0x179E SWAP2 SWAP1 PUSH2 0x18CE JUMP JUMPDEST PUSH1 0x40 MLOAD DUP1 SWAP2 SUB SWAP1 LOG1 JUMP JUMPDEST PUSH0 CALLER SWAP1 POP SWAP1 JUMP JUMPDEST PUSH2 0x17B7 PUSH2 0xCBC JUMP JUMPDEST PUSH2 0x17F6 JUMPI PUSH1 0x40 MLOAD PUSH32 0x8C379A000000000000000000000000000000000000000000000000000000000 DUP2 MSTORE PUSH1 0x4 ADD PUSH2 0x17ED SWAP1 PUSH2 0x2029 JUMP JUMPDEST PUSH1 0x40 MLOAD DUP1 SWAP2 SUB SWAP1 REVERT JUMPDEST JUMP JUMPDEST PUSH0 DUP1 REVERT JUMPDEST PUSH0 PUSH20 0xFFFFFFFFFFFFFFFFFFFFFFFFFFFFFFFFFFFFFFFF DUP3 AND SWAP1 POP SWAP2 SWAP1 POP JUMP JUMPDEST PUSH0 PUSH2 0x1825 DUP3 PUSH2 0x17FC JUMP JUMPDEST SWAP1 POP SWAP2 SWAP1 POP JUMP JUMPDEST PUSH2 0x1835 DUP2 PUSH2 0x181B JUMP JUMPDEST DUP2 EQ PUSH2 0x183F JUMPI PUSH0 DUP1 REVERT JUMPDEST POP JUMP JUMPDEST PUSH0 DUP2 CALLDATALOAD SWAP1 POP PUSH2 0x1850 DUP2 PUSH2 0x182C JUMP JUMPDEST SWAP3 SWAP2 POP POP JUMP JUMPDEST PUSH0 PUSH1 0x20 DUP3 DUP5 SUB SLT ISZERO PUSH2 0x186B JUMPI PUSH2 0x186A PUSH2 0x17F8 JUMP JUMPDEST JUMPDEST PUSH0 PUSH2 0x1878 DUP5 DUP3 DUP6 ADD PUSH2 0x1842 JUMP JUMPDEST SWAP2 POP POP SWAP3 SWAP2 POP POP JUMP JUMPDEST PUSH0 DUP1 PUSH1 0x40 DUP4 DUP6 SUB SLT ISZERO PUSH2 0x1897 JUMPI PUSH2 0x1896 PUSH2 0x17F8 JUMP JUMPDEST JUMPDEST PUSH0 PUSH2 0x18A4 DUP6 DUP3 DUP7 ADD PUSH2 0x1842 JUMP JUMPDEST SWAP3 POP POP PUSH1 0x20 PUSH2 0x18B5 DUP6 DUP3 DUP7 ADD PUSH2 0x1842 JUMP JUMPDEST SWAP2 POP POP SWAP3 POP SWAP3 SWAP1 POP JUMP JUMPDEST PUSH2 0x18C8 DUP2 PUSH2 0x181B JUMP JUMPDEST DUP3 MSTORE POP POP JUMP JUMPDEST PUSH0 PUSH1 0x20 DUP3 ADD SWAP1 POP PUSH2 0x18E1 PUSH0 DUP4 ADD DUP5 PUSH2 0x18BF JUMP JUMPDEST SWAP3 SWAP2 POP POP JUMP JUMPDEST PUSH0 DUP2 SWAP1 POP SWAP2 SWAP1 POP JUMP JUMPDEST PUSH2 0x18F9 DUP2 PUSH2 0x18E7 JUMP JUMPDEST DUP3 MSTORE POP POP JUMP JUMPDEST PUSH0 PUSH1 0x60 DUP3 ADD SWAP1 POP PUSH2 0x1912 PUSH0 DUP4 ADD DUP7 PUSH2 0x18BF JUMP JUMPDEST PUSH2 0x191F PUSH1 0x20 DUP4 ADD DUP6 PUSH2 0x18F0 JUMP JUMPDEST PUSH2 0x192C PUSH1 0x40 DUP4 ADD DUP5 PUSH2 0x18F0 JUMP JUMPDEST SWAP5 SWAP4 POP POP POP POP JUMP JUMPDEST PUSH0 DUP2 ISZERO ISZERO SWAP1 POP SWAP2 SWAP1 POP JUMP JUMPDEST PUSH2 0x1948 DUP2 PUSH2 0x1934 JUMP JUMPDEST DUP3 MSTORE POP POP JUMP JUMPDEST PUSH0 PUSH1 0x20 DUP3 ADD SWAP1 POP PUSH2 0x1961 PUSH0 DUP4 ADD DUP5 PUSH2 0x193F JUMP JUMPDEST SWAP3 SWAP2 POP POP JUMP JUMPDEST PUSH2 0x1970 DUP2 PUSH2 0x18E7 JUMP JUMPDEST DUP2 EQ PUSH2 0x197A JUMPI PUSH0 DUP1 REVERT JUMPDEST POP JUMP JUMPDEST PUSH0 DUP2 CALLDATALOAD SWAP1 POP PUSH2 0x198B DUP2 PUSH2 0x1967 JUMP JUMPDEST SWAP3 SWAP2 POP POP JUMP JUMPDEST PUSH0 PUSH1 0x20 DUP3 DUP5 SUB SLT ISZERO PUSH2 0x19A6 JUMPI PUSH2 0x19A5 PUSH2 0x17F8 JUMP JUMPDEST JUMPDEST PUSH0 PUSH2 0x19B3 DUP5 DUP3 DUP6 ADD PUSH2 0x197D JUMP JUMPDEST SWAP2 POP POP SWAP3 SWAP2 POP POP JUMP JUMPDEST PUSH0 DUP2 MLOAD SWAP1 POP SWAP2 SWAP1 POP JUMP JUMPDEST PUSH0 DUP3 DUP3 MSTORE PUSH1 0x20 DUP3 ADD SWAP1 POP SWAP3 SWAP2 POP POP JUMP JUMPDEST PUSH0 DUP2 SWAP1 POP PUSH1 0x20 DUP3 ADD SWAP1 POP SWAP2 SWAP1 POP JUMP JUMPDEST PUSH2 0x19EE DUP2 PUSH2 0x181B JUMP JUMPDEST DUP3 MSTORE POP POP JUMP JUMPDEST PUSH0 PUSH2 0x19FF DUP4 DUP4 PUSH2 0x19E5 JUMP JUMPDEST PUSH1 0x20 DUP4 ADD SWAP1 POP SWAP3 SWAP2 POP POP JUMP JUMPDEST PUSH0 PUSH1 0x20 DUP3 ADD SWAP1 POP SWAP2 SWAP1 POP JUMP JUMPDEST PUSH0 PUSH2 0x1A21 DUP3 PUSH2 0x19BC JUMP JUMPDEST PUSH2 0x1A2B DUP2 DUP6 PUSH2 0x19C6 JUMP JUMPDEST SWAP4 POP PUSH2 0x1A36 DUP4 PUSH2 0x19D6 JUMP JUMPDEST DUP1 PUSH0 JUMPDEST DUP4 DUP2 LT ISZERO PUSH2 0x1A66 JUMPI DUP2 MLOAD PUSH2 0x1A4D DUP9 DUP3 PUSH2 0x19F4 JUMP JUMPDEST SWAP8 POP PUSH2 0x1A58 DUP4 PUSH2 0x1A0B JUMP JUMPDEST SWAP3 POP POP PUSH1 0x1 DUP2 ADD SWAP1 POP PUSH2 0x1A39 JUMP JUMPDEST POP DUP6 SWAP4 POP POP POP POP SWAP3 SWAP2 POP POP JUMP JUMPDEST PUSH0 DUP2 MLOAD SWAP1 POP SWAP2 SWAP1 POP JUMP JUMPDEST PUSH0 DUP3 DUP3 MSTORE PUSH1 0x20 DUP3 ADD SWAP1 POP SWAP3 SWAP2 POP POP JUMP JUMPDEST PUSH0 DUP2 SWAP1 POP PUSH1 0x20 DUP3 ADD SWAP1 POP SWAP2 SWAP1 POP JUMP JUMPDEST PUSH2 0x1AA5 DUP2 PUSH2 0x18E7 JUMP JUMPDEST DUP3 MSTORE POP POP JUMP JUMPDEST PUSH0 PUSH2 0x1AB6 DUP4 DUP4 PUSH2 0x1A9C JUMP JUMPDEST PUSH1 0x20 DUP4 ADD SWAP1 POP SWAP3 SWAP2 POP POP JUMP JUMPDEST PUSH0 PUSH1 0x20 DUP3 ADD SWAP1 POP SWAP2 SWAP1 POP JUMP JUMPDEST PUSH0 PUSH2 0x1AD8 DUP3 PUSH2 0x1A73 JUMP JUMPDEST PUSH2 0x1AE2 DUP2 DUP6 PUSH2 0x1A7D JUMP JUMPDEST SWAP4 POP PUSH2 0x1AED DUP4 PUSH2 0x1A8D JUMP JUMPDEST DUP1 PUSH0 JUMPDEST DUP4 DUP2 LT ISZERO PUSH2 0x1B1D JUMPI DUP2 MLOAD PUSH2 0x1B04 DUP9 DUP3 PUSH2 0x1AAB JUMP JUMPDEST SWAP8 POP PUSH2 0x1B0F DUP4 PUSH2 0x1AC2 JUMP JUMPDEST SWAP3 POP POP PUSH1 0x1 DUP2 ADD SWAP1 POP PUSH2 0x1AF0 JUMP JUMPDEST POP DUP6 SWAP4 POP POP POP POP SWAP3 SWAP2 POP POP JUMP JUMPDEST PUSH0 PUSH1 0x80 DUP3 ADD SWAP1 POP DUP2 DUP2 SUB PUSH0 DUP4 ADD MSTORE PUSH2 0x1B42 DUP2 DUP8 PUSH2 0x1A17 JUMP JUMPDEST SWAP1 POP DUP2 DUP2 SUB PUSH1 0x20 DUP4 ADD MSTORE PUSH2 0x1B56 DUP2 DUP7 PUSH2 0x1A17 JUMP JUMPDEST SWAP1 POP DUP2 DUP2 SUB PUSH1 0x40 DUP4 ADD MSTORE PUSH2 0x1B6A DUP2 DUP6 PUSH2 0x1ACE JUMP JUMPDEST SWAP1 POP DUP2 DUP2 SUB PUSH1 0x60 DUP4 ADD MSTORE PUSH2 0x1B7E DUP2 DUP5 PUSH2 0x1ACE JUMP JUMPDEST SWAP1 POP SWAP6 SWAP5 POP POP POP POP POP JUMP JUMPDEST PUSH0 PUSH1 0x20 DUP3 ADD SWAP1 POP PUSH2 0x1B9C PUSH0 DUP4 ADD DUP5 PUSH2 0x18F0 JUMP JUMPDEST SWAP3 SWAP2 POP POP JUMP JUMPDEST PUSH32 0x4E487B7100000000000000000000000000000000000000000000000000000000 PUSH0 MSTORE PUSH1 0x11 PUSH1 0x4 MSTORE PUSH1 0x24 PUSH0 REVERT JUMPDEST PUSH0 PUSH2 0x1BD9 DUP3 PUSH2 0x18E7 JUMP JUMPDEST SWAP2 POP PUSH2 0x1BE4 DUP4 PUSH2 0x18E7 JUMP JUMPDEST SWAP3 POP DUP3 DUP3 MUL PUSH2 0x1BF2 DUP2 PUSH2 0x18E7 JUMP JUMPDEST SWAP2 POP DUP3 DUP3 DIV DUP5 EQ DUP4 ISZERO OR PUSH2 0x1C09 JUMPI PUSH2 0x1C08 PUSH2 0x1BA2 JUMP JUMPDEST JUMPDEST POP SWAP3 SWAP2 POP POP JUMP JUMPDEST PUSH32 0x4E487B7100000000000000000000000000000000000000000000000000000000 PUSH0 MSTORE PUSH1 0x12 PUSH1 0x4 MSTORE PUSH1 0x24 PUSH0 REVERT JUMPDEST PUSH0 PUSH2 0x1C47 DUP3 PUSH2 0x18E7 JUMP JUMPDEST SWAP2 POP PUSH2 0x1C52 DUP4 PUSH2 0x18E7 JUMP JUMPDEST SWAP3 POP DUP3 PUSH2 0x1C62 JUMPI PUSH2 0x1C61 PUSH2 0x1C10 JUMP JUMPDEST JUMPDEST DUP3 DUP3 DIV SWAP1 POP SWAP3 SWAP2 POP POP JUMP JUMPDEST PUSH0 PUSH2 0x1C77 DUP3 PUSH2 0x18E7 JUMP JUMPDEST SWAP2 POP PUSH2 0x1C82 DUP4 PUSH2 0x18E7 JUMP JUMPDEST SWAP3 POP DUP3 DUP3 SUB SWAP1 POP DUP2 DUP2 GT ISZERO PUSH2 0x1C9A JUMPI PUSH2 0x1C99 PUSH2 0x1BA2 JUMP JUMPDEST JUMPDEST SWAP3 SWAP2 POP POP JUMP JUMPDEST PUSH32 0x4E487B7100000000000000000000000000000000000000000000000000000000 PUSH0 MSTORE PUSH1 0x32 PUSH1 0x4 MSTORE PUSH1 0x24 PUSH0 REVERT JUMPDEST PUSH32 0x4E487B7100000000000000000000000000000000000000000000000000000000 PUSH0 MSTORE PUSH1 0x31 PUSH1 0x4 MSTORE PUSH1 0x24 PUSH0 REVERT JUMPDEST PUSH0 PUSH2 0x1D04 DUP3 PUSH2 0x18E7 JUMP JUMPDEST SWAP2 POP PUSH32 0xFFFFFFFFFFFFFFFFFFFFFFFFFFFFFFFFFFFFFFFFFFFFFFFFFFFFFFFFFFFFFFFF DUP3 SUB PUSH2 0x1D36 JUMPI PUSH2 0x1D35 PUSH2 0x1BA2 JUMP JUMPDEST JUMPDEST PUSH1 0x1 DUP3 ADD SWAP1 POP SWAP2 SWAP1 POP JUMP JUMPDEST PUSH0 DUP3 DUP3 MSTORE PUSH1 0x20 DUP3 ADD SWAP1 POP SWAP3 SWAP2 POP POP JUMP JUMPDEST PUSH32 0x4E6F2066756E647320617661696C61626C6520746F2077697468647261770000 PUSH0 DUP3 ADD MSTORE POP JUMP JUMPDEST PUSH0 PUSH2 0x1D85 PUSH1 0x1E DUP4 PUSH2 0x1D41 JUMP JUMPDEST SWAP2 POP PUSH2 0x1D90 DUP3 PUSH2 0x1D51 JUMP JUMPDEST PUSH1 0x20 DUP3 ADD SWAP1 POP SWAP2 SWAP1 POP JUMP JUMPDEST PUSH0 PUSH1 0x20 DUP3 ADD SWAP1 POP DUP2 DUP2 SUB PUSH0 DUP4 ADD MSTORE PUSH2 0x1DB2 DUP2 PUSH2 0x1D79 JUMP JUMPDEST SWAP1 POP SWAP2 SWAP1 POP JUMP JUMPDEST PUSH32 0x4665652070657263656E746167652063616E6E6F742065786365656420313030 PUSH0 DUP3 ADD MSTORE PUSH32 0x2500000000000000000000000000000000000000000000000000000000000000 PUSH1 0x20 DUP3 ADD MSTORE POP JUMP JUMPDEST PUSH0 PUSH2 0x1E13 PUSH1 0x21 DUP4 PUSH2 0x1D41 JUMP JUMPDEST SWAP2 POP PUSH2 0x1E1E DUP3 PUSH2 0x1DB9 JUMP JUMPDEST PUSH1 0x40 DUP3 ADD SWAP1 POP SWAP2 SWAP1 POP JUMP JUMPDEST PUSH0 PUSH1 0x20 DUP3 ADD SWAP1 POP DUP2 DUP2 SUB PUSH0 DUP4 ADD MSTORE PUSH2 0x1E40 DUP2 PUSH2 0x1E07 JUMP JUMPDEST SWAP1 POP SWAP2 SWAP1 POP JUMP JUMPDEST PUSH32 0x4E487B7100000000000000000000000000000000000000000000000000000000 PUSH0 MSTORE PUSH1 0x41 PUSH1 0x4 MSTORE PUSH1 0x24 PUSH0 REVERT JUMPDEST PUSH32 0x56616C696461746F72206E6F6465206E6F74206C696E6B656400000000000000 PUSH0 DUP3 ADD MSTORE POP JUMP JUMPDEST PUSH0 PUSH2 0x1EA8 PUSH1 0x19 DUP4 PUSH2 0x1D41 JUMP JUMPDEST SWAP2 POP PUSH2 0x1EB3 DUP3 PUSH2 0x1E74 JUMP JUMPDEST PUSH1 0x20 DUP3 ADD SWAP1 POP SWAP2 SWAP1 POP JUMP JUMPDEST PUSH0 PUSH1 0x20 DUP3 ADD SWAP1 POP DUP2 DUP2 SUB PUSH0 DUP4 ADD MSTORE PUSH2 0x1ED5 DUP2 PUSH2 0x1E9C JUMP JUMPDEST SWAP1 POP SWAP2 SWAP1 POP JUMP JUMPDEST PUSH0 PUSH2 0x1EE6 DUP3 PUSH2 0x18E7 JUMP JUMPDEST SWAP2 POP PUSH2 0x1EF1 DUP4 PUSH2 0x18E7 JUMP JUMPDEST SWAP3 POP DUP3 DUP3 ADD SWAP1 POP DUP1 DUP3 GT ISZERO PUSH2 0x1F09 JUMPI PUSH2 0x1F08 PUSH2 0x1BA2 JUMP JUMPDEST JUMPDEST SWAP3 SWAP2 POP POP JUMP JUMPDEST PUSH32 0x5265656E7472616E637947756172643A207265656E7472616E742063616C6C00 PUSH0 DUP3 ADD MSTORE POP JUMP JUMPDEST PUSH0 PUSH2 0x1F43 PUSH1 0x1F DUP4 PUSH2 0x1D41 JUMP JUMPDEST SWAP2 POP PUSH2 0x1F4E DUP3 PUSH2 0x1F0F JUMP JUMPDEST PUSH1 0x20 DUP3 ADD SWAP1 POP SWAP2 SWAP1 POP JUMP JUMPDEST PUSH0 PUSH1 0x20 DUP3 ADD SWAP1 POP DUP2 DUP2 SUB PUSH0 DUP4 ADD MSTORE PUSH2 0x1F70 DUP2 PUSH2 0x1F37 JUMP JUMPDEST SWAP1 POP SWAP2 SWAP1 POP JUMP JUMPDEST PUSH32 0x5061757361626C653A2070617573656400000000000000000000000000000000 PUSH0 DUP3 ADD MSTORE POP JUMP JUMPDEST PUSH0 PUSH2 0x1FAB PUSH1 0x10 DUP4 PUSH2 0x1D41 JUMP JUMPDEST SWAP2 POP PUSH2 0x1FB6 DUP3 PUSH2 0x1F77 JUMP JUMPDEST PUSH1 0x20 DUP3 ADD SWAP1 POP SWAP2 SWAP1 POP JUMP JUMPDEST PUSH0 PUSH1 0x20 DUP3 ADD SWAP1 POP DUP2 DUP2 SUB PUSH0 DUP4 ADD MSTORE PUSH2 0x1FD8 DUP2 PUSH2 0x1F9F JUMP JUMPDEST SWAP1 POP SWAP2 SWAP1 POP JUMP JUMPDEST PUSH32 0x5061757361626C653A206E6F7420706175736564000000000000000000000000 PUSH0 DUP3 ADD MSTORE POP JUMP JUMPDEST PUSH0 PUSH2 0x2013 PUSH1 0x14 DUP4 PUSH2 0x1D41 JUMP JUMPDEST SWAP2 POP PUSH2 0x201E DUP3 PUSH2 0x1FDF JUMP JUMPDEST PUSH1 0x20 DUP3 ADD SWAP1 POP SWAP2 SWAP1 POP JUMP JUMPDEST PUSH0 PUSH1 0x20 DUP3 ADD SWAP1 POP DUP2 DUP2 SUB PUSH0 DUP4 ADD MSTORE PUSH2 0x2040 DUP2 PUSH2 0x2007 JUMP JUMPDEST SWAP1 POP SWAP2 SWAP1 POP JUMP INVALID LOG2 PUSH5 0x6970667358 0x22 SLT KECCAK256 0xDC 0x21 LOG1 GASPRICE 0x2C AND STOP 0xDE 0x2E DUP12 0xC3 PUSH2 0x172B 0xE4 0xE0 0xF7 0x2B 0xD7 RETURNDATASIZE EXTCODESIZE SWAP8 LOG2 0xAC CALLVALUE 0x5D PUSH28 0xC26575819264736F6C63430008150033000000000000000000000000 "
				},
				"gasEstimates": {
					"creation": {
						"codeDepositCost": "1663400",
						"executionCost": "infinite",
						"totalCost": "infinite"
					},
					"external": {
						"allValidatorNodes(uint256)": "5010",
						"deleteValidatorNode(address)": "infinite",
						"deposit()": "infinite",
						"depositedBalances(address)": "2847",
						"edxAccount()": "2576",
						"fetchAllValidatorNodeDetails()": "infinite",
						"getValidatorNodeDetails(address)": "infinite",
						"linkValidatorNode(address,address)": "infinite",
						"owner()": "2604",
						"pauseContract()": "infinite",
						"paused()": "2569",
						"renounceOwnership()": "infinite",
						"setEdxAccount(address)": "infinite",
						"setWithdrawalFeePercentage(uint256)": "infinite",
						"totalDepositedAmount(address)": "2869",
						"transferOwnership(address)": "infinite",
						"unpauseContract()": "infinite",
						"validatorNodeToAccount(address)": "infinite",
						"withdraw()": "infinite",
						"withdrawalFeePercentage()": "2448"
					},
					"internal": {
						"contains(address[] storage pointer,address)": "infinite"
					}
				},
				"methodIdentifiers": {
					"allValidatorNodes(uint256)": "bb0a43bc",
					"deleteValidatorNode(address)": "03a2c9e2",
					"deposit()": "d0e30db0",
					"depositedBalances(address)": "7d995311",
					"edxAccount()": "33deea05",
					"fetchAllValidatorNodeDetails()": "6ca6d88e",
					"getValidatorNodeDetails(address)": "3ed0eee4",
					"linkValidatorNode(address,address)": "22df93ba",
					"owner()": "8da5cb5b",
					"pauseContract()": "439766ce",
					"paused()": "5c975abb",
					"renounceOwnership()": "715018a6",
					"setEdxAccount(address)": "a7d77ce5",
					"setWithdrawalFeePercentage(uint256)": "5fb0ea90",
					"totalDepositedAmount(address)": "7da830b4",
					"transferOwnership(address)": "f2fde38b",
					"unpauseContract()": "b33712c5",
					"validatorNodeToAccount(address)": "b5e1302e",
					"withdraw()": "3ccfd60b",
					"withdrawalFeePercentage()": "78922c8f"
				}
			},
			"storageLayout": {
				"storage": [
					{
						"astId": 266,
						"contract": "contracts/Validator.sol:ValidatorDepositContract",
						"label": "_status",
						"offset": 0,
						"slot": "0",
						"type": "t_uint256"
					},
					{
						"astId": 8,
						"contract": "contracts/Validator.sol:ValidatorDepositContract",
						"label": "_owner",
						"offset": 0,
						"slot": "1",
						"type": "t_address"
					},
					{
						"astId": 165,
						"contract": "contracts/Validator.sol:ValidatorDepositContract",
						"label": "_paused",
						"offset": 20,
						"slot": "1",
						"type": "t_bool"
					},
					{
						"astId": 357,
						"contract": "contracts/Validator.sol:ValidatorDepositContract",
						"label": "validatorNodeToAccount",
						"offset": 0,
						"slot": "2",
						"type": "t_mapping(t_address,t_address)"
					},
					{
						"astId": 361,
						"contract": "contracts/Validator.sol:ValidatorDepositContract",
						"label": "depositedBalances",
						"offset": 0,
						"slot": "3",
						"type": "t_mapping(t_address,t_uint256)"
					},
					{
						"astId": 365,
						"contract": "contracts/Validator.sol:ValidatorDepositContract",
						"label": "totalDepositedAmount",
						"offset": 0,
						"slot": "4",
						"type": "t_mapping(t_address,t_uint256)"
					},
					{
						"astId": 368,
						"contract": "contracts/Validator.sol:ValidatorDepositContract",
						"label": "allValidatorNodes",
						"offset": 0,
						"slot": "5",
						"type": "t_array(t_address)dyn_storage"
					},
					{
						"astId": 371,
						"contract": "contracts/Validator.sol:ValidatorDepositContract",
						"label": "withdrawalFeePercentage",
						"offset": 0,
						"slot": "6",
						"type": "t_uint256"
					},
					{
						"astId": 377,
						"contract": "contracts/Validator.sol:ValidatorDepositContract",
						"label": "edxAccount",
						"offset": 0,
						"slot": "7",
						"type": "t_address"
					}
				],
				"types": {
					"t_address": {
						"encoding": "inplace",
						"label": "address",
						"numberOfBytes": "20"
					},
					"t_array(t_address)dyn_storage": {
						"base": "t_address",
						"encoding": "dynamic_array",
						"label": "address[]",
						"numberOfBytes": "32"
					},
					"t_bool": {
						"encoding": "inplace",
						"label": "bool",
						"numberOfBytes": "1"
					},
					"t_mapping(t_address,t_address)": {
						"encoding": "mapping",
						"key": "t_address",
						"label": "mapping(address => address)",
						"numberOfBytes": "32",
						"value": "t_address"
					},
					"t_mapping(t_address,t_uint256)": {
						"encoding": "mapping",
						"key": "t_address",
						"label": "mapping(address => uint256)",
						"numberOfBytes": "32",
						"value": "t_uint256"
					},
					"t_uint256": {
						"encoding": "inplace",
						"label": "uint256",
						"numberOfBytes": "32"
					}
				}
			},
			"userdoc": {
				"kind": "user",
				"methods": {},
				"version": 1
			}
		}
	}
}