{
	"contracts/c.sol": {
		"MasterChannelLedger": {
			"abi": [
				{
					"anonymous": false,
					"inputs": [
						{
							"indexed": true,
							"internalType": "address",
							"name": "previousOwner",
							"type": "address"
						},
						{
							"indexed": true,
							"internalType": "address",
							"name": "newOwner",
							"type": "address"
						}
					],
					"name": "OwnershipTransferred",
					"type": "event"
				},
				{
					"inputs": [
						{
							"internalType": "string",
							"name": "",
							"type": "string"
						}
					],
					"name": "MasterChannelDataToRecord",
					"outputs": [
						{
							"internalType": "string",
							"name": "data",
							"type": "string"
						},
						{
							"internalType": "uint256",
							"name": "timestamp",
							"type": "uint256"
						}
					],
					"stateMutability": "view",
					"type": "function"
				},
				{
					"inputs": [
						{
							"internalType": "string",
							"name": "_data",
							"type": "string"
						}
					],
					"name": "addMasterChannelRecord",
					"outputs": [],
					"stateMutability": "nonpayable",
					"type": "function"
				},
				{
					"inputs": [],
					"name": "getAllData",
					"outputs": [
						{
							"internalType": "string[]",
							"name": "",
							"type": "string[]"
						},
						{
							"internalType": "uint256[]",
							"name": "",
							"type": "uint256[]"
						}
					],
					"stateMutability": "view",
					"type": "function"
				},
				{
					"inputs": [
						{
							"internalType": "string",
							"name": "_data",
							"type": "string"
						}
					],
					"name": "getTimestampForHash",
					"outputs": [
						{
							"internalType": "uint256",
							"name": "",
							"type": "uint256"
						}
					],
					"stateMutability": "view",
					"type": "function"
				},
				{
					"inputs": [
						{
							"internalType": "uint256",
							"name": "",
							"type": "uint256"
						}
					],
					"name": "ledger",
					"outputs": [
						{
							"internalType": "string",
							"name": "data",
							"type": "string"
						},
						{
							"internalType": "uint256",
							"name": "timestamp",
							"type": "uint256"
						}
					],
					"stateMutability": "view",
					"type": "function"
				},
				{
					"inputs": [],
					"name": "owner",
					"outputs": [
						{
							"internalType": "address",
							"name": "",
							"type": "address"
						}
					],
					"stateMutability": "view",
					"type": "function"
				},
				{
					"inputs": [],
					"name": "renounceOwnership",
					"outputs": [],
					"stateMutability": "nonpayable",
					"type": "function"
				},
				{
					"inputs": [
						{
							"internalType": "address",
							"name": "newOwner",
							"type": "address"
						}
					],
					"name": "transferOwnership",
					"outputs": [],
					"stateMutability": "nonpayable",
					"type": "function"
				}
			],
			"devdoc": {
				"kind": "dev",
				"methods": {
					"owner()": {
						"details": "Returns the address of the current owner."
					},
					"renounceOwnership()": {
						"details": "Leaves the contract without owner. It will not be possible to call `onlyOwner` functions anymore. Can only be called by the current owner. NOTE: Renouncing ownership will leave the contract without an owner, thereby removing any functionality that is only available to the owner."
					},
					"transferOwnership(address)": {
						"details": "Transfers ownership of the contract to a new account (`newOwner`). Can only be called by the current owner."
					}
				},
				"version": 1
			},
			"evm": {
				"assembly": "    /* \"contracts/c.sol\":158:1498  contract MasterChannelLedger is Ownable{... */\n  mstore(0x40, 0x80)\n  callvalue\n  dup1\n  iszero\n  tag_1\n  jumpi\n  0x00\n  dup1\n  revert\ntag_1:\n  pop\n    /* \"@openzeppelin/contracts@4.5.0/access/Ownable.sol\":921:953  _transferOwnership(_msgSender()) */\n  tag_4\n    /* \"@openzeppelin/contracts@4.5.0/access/Ownable.sol\":940:952  _msgSender() */\n  tag_5\n    /* \"@openzeppelin/contracts@4.5.0/access/Ownable.sol\":940:950  _msgSender */\n  shl(0x20, tag_6)\n    /* \"@openzeppelin/contracts@4.5.0/access/Ownable.sol\":940:952  _msgSender() */\n  0x20\n  shr\n  jump\t// in\ntag_5:\n    /* \"@openzeppelin/contracts@4.5.0/access/Ownable.sol\":921:939  _transferOwnership */\n  shl(0x20, tag_7)\n    /* \"@openzeppelin/contracts@4.5.0/access/Ownable.sol\":921:953  _transferOwnership(_msgSender()) */\n  0x20\n  shr\n  jump\t// in\ntag_4:\n    /* \"contracts/c.sol\":158:1498  contract MasterChannelLedger is Ownable{... */\n  jump(tag_8)\n    /* \"@openzeppelin/contracts@4.5.0/utils/Context.sol\":640:736  function _msgSender() internal view virtual returns (address) {... */\ntag_6:\n    /* \"@openzeppelin/contracts@4.5.0/utils/Context.sol\":693:700  address */\n  0x00\n    /* \"@openzeppelin/contracts@4.5.0/utils/Context.sol\":719:729  msg.sender */\n  caller\n    /* \"@openzeppelin/contracts@4.5.0/utils/Context.sol\":712:729  return msg.sender */\n  swap1\n  pop\n    /* \"@openzeppelin/contracts@4.5.0/utils/Context.sol\":640:736  function _msgSender() internal view virtual returns (address) {... */\n  swap1\n  jump\t// out\n    /* \"@openzeppelin/contracts@4.5.0/access/Ownable.sol\":2270:2457  function _transferOwnership(address newOwner) internal virtual {... */\ntag_7:\n    /* \"@openzeppelin/contracts@4.5.0/access/Ownable.sol\":2343:2359  address oldOwner */\n  0x00\n    /* \"@openzeppelin/contracts@4.5.0/access/Ownable.sol\":2362:2368  _owner */\n  dup1\n  0x00\n  swap1\n  sload\n  swap1\n  0x0100\n  exp\n  swap1\n  div\n  0xffffffffffffffffffffffffffffffffffffffff\n  and\n    /* \"@openzeppelin/contracts@4.5.0/access/Ownable.sol\":2343:2368  address oldOwner = _owner */\n  swap1\n  pop\n    /* \"@openzeppelin/contracts@4.5.0/access/Ownable.sol\":2387:2395  newOwner */\n  dup2\n    /* \"@openzeppelin/contracts@4.5.0/access/Ownable.sol\":2378:2384  _owner */\n  0x00\n  dup1\n    /* \"@openzeppelin/contracts@4.5.0/access/Ownable.sol\":2378:2395  _owner = newOwner */\n  0x0100\n  exp\n  dup2\n  sload\n  dup2\n  0xffffffffffffffffffffffffffffffffffffffff\n  mul\n  not\n  and\n  swap1\n  dup4\n  0xffffffffffffffffffffffffffffffffffffffff\n  and\n  mul\n  or\n  swap1\n  sstore\n  pop\n    /* \"@openzeppelin/contracts@4.5.0/access/Ownable.sol\":2441:2449  newOwner */\n  dup2\n    /* \"@openzeppelin/contracts@4.5.0/access/Ownable.sol\":2410:2450  OwnershipTransferred(oldOwner, newOwner) */\n  0xffffffffffffffffffffffffffffffffffffffff\n  and\n    /* \"@openzeppelin/contracts@4.5.0/access/Ownable.sol\":2431:2439  oldOwner */\n  dup2\n    /* \"@openzeppelin/contracts@4.5.0/access/Ownable.sol\":2410:2450  OwnershipTransferred(oldOwner, newOwner) */\n  0xffffffffffffffffffffffffffffffffffffffff\n  and\n  0x8be0079c531659141344cd1fd0a4f28419497f9722a3daafe3b4186f6b6457e0\n  mload(0x40)\n  mload(0x40)\n  dup1\n  swap2\n  sub\n  swap1\n  log3\n    /* \"@openzeppelin/contracts@4.5.0/access/Ownable.sol\":2333:2457  {... */\n  pop\n    /* \"@openzeppelin/contracts@4.5.0/access/Ownable.sol\":2270:2457  function _transferOwnership(address newOwner) internal virtual {... */\n  pop\n  jump\t// out\n    /* \"contracts/c.sol\":158:1498  contract MasterChannelLedger is Ownable{... */\ntag_8:\n  dataSize(sub_0)\n  dup1\n  dataOffset(sub_0)\n  0x00\n  codecopy\n  0x00\n  return\nstop\n\nsub_0: assembly {\n        /* \"contracts/c.sol\":158:1498  contract MasterChannelLedger is Ownable{... */\n      mstore(0x40, 0x80)\n      callvalue\n      dup1\n      iszero\n      tag_1\n      jumpi\n      0x00\n      dup1\n      revert\n    tag_1:\n      pop\n      jumpi(tag_2, lt(calldatasize, 0x04))\n      shr(0xe0, calldataload(0x00))\n      dup1\n      0x69cea776\n      gt\n      tag_11\n      jumpi\n      dup1\n      0x69cea776\n      eq\n      tag_7\n      jumpi\n      dup1\n      0x715018a6\n      eq\n      tag_8\n      jumpi\n      dup1\n      0x8da5cb5b\n      eq\n      tag_9\n      jumpi\n      dup1\n      0xf2fde38b\n      eq\n      tag_10\n      jumpi\n      jump(tag_2)\n    tag_11:\n      dup1\n      0x10a7fd7b\n      eq\n      tag_3\n      jumpi\n      dup1\n      0x1a659899\n      eq\n      tag_4\n      jumpi\n      dup1\n      0x2bf63377\n      eq\n      tag_5\n      jumpi\n      dup1\n      0x2d10fa28\n      eq\n      tag_6\n      jumpi\n    tag_2:\n      0x00\n      dup1\n      revert\n        /* \"contracts/c.sol\":292:327  MasterChannelRecord[] public ledger */\n    tag_3:\n      tag_12\n      0x04\n      dup1\n      calldatasize\n      sub\n      dup2\n      add\n      swap1\n      tag_13\n      swap2\n      swap1\n      tag_14\n      jump\t// in\n    tag_13:\n      tag_15\n      jump\t// in\n    tag_12:\n      mload(0x40)\n      tag_16\n      swap3\n      swap2\n      swap1\n      tag_17\n      jump\t// in\n    tag_16:\n      mload(0x40)\n      dup1\n      swap2\n      sub\n      swap1\n      return\n        /* \"contracts/c.sol\":1252:1496  function getTimestampForHash(string memory _data) public view returns (uint256) {... */\n    tag_4:\n      tag_18\n      0x04\n      dup1\n      calldatasize\n      sub\n      dup2\n      add\n      swap1\n      tag_19\n      swap2\n      swap1\n      tag_20\n      jump\t// in\n    tag_19:\n      tag_21\n      jump\t// in\n    tag_18:\n      mload(0x40)\n      tag_22\n      swap2\n      swap1\n      tag_23\n      jump\t// in\n    tag_22:\n      mload(0x40)\n      dup1\n      swap2\n      sub\n      swap1\n      return\n        /* \"contracts/c.sol\":411:824  function addMasterChannelRecord(string memory _data) public onlyOwner {... */\n    tag_5:\n      tag_24\n      0x04\n      dup1\n      calldatasize\n      sub\n      dup2\n      add\n      swap1\n      tag_25\n      swap2\n      swap1\n      tag_20\n      jump\t// in\n    tag_25:\n      tag_26\n      jump\t// in\n    tag_24:\n      stop\n        /* \"contracts/c.sol\":830:1246  function getAllData() public view returns (string[] memory, uint256[] memory) {... */\n    tag_6:\n      tag_27\n      tag_28\n      jump\t// in\n    tag_27:\n      mload(0x40)\n      tag_29\n      swap3\n      swap2\n      swap1\n      tag_30\n      jump\t// in\n    tag_29:\n      mload(0x40)\n      dup1\n      swap2\n      sub\n      swap1\n      return\n        /* \"contracts/c.sol\":333:404  mapping(string => MasterChannelRecord) public MasterChannelDataToRecord */\n    tag_7:\n      tag_31\n      0x04\n      dup1\n      calldatasize\n      sub\n      dup2\n      add\n      swap1\n      tag_32\n      swap2\n      swap1\n      tag_20\n      jump\t// in\n    tag_32:\n      tag_33\n      jump\t// in\n    tag_31:\n      mload(0x40)\n      tag_34\n      swap3\n      swap2\n      swap1\n      tag_17\n      jump\t// in\n    tag_34:\n      mload(0x40)\n      dup1\n      swap2\n      sub\n      swap1\n      return\n        /* \"@openzeppelin/contracts@4.5.0/access/Ownable.sol\":1668:1769  function renounceOwnership() public virtual onlyOwner {... */\n    tag_8:\n      tag_35\n      tag_36\n      jump\t// in\n    tag_35:\n      stop\n        /* \"@openzeppelin/contracts@4.5.0/access/Ownable.sol\":1036:1121  function owner() public view virtual returns (address) {... */\n    tag_9:\n      tag_37\n      tag_38\n      jump\t// in\n    tag_37:\n      mload(0x40)\n      tag_39\n      swap2\n      swap1\n      tag_40\n      jump\t// in\n    tag_39:\n      mload(0x40)\n      dup1\n      swap2\n      sub\n      swap1\n      return\n        /* \"@openzeppelin/contracts@4.5.0/access/Ownable.sol\":1918:2116  function transferOwnership(address newOwner) public virtual onlyOwner {... */\n    tag_10:\n      tag_41\n      0x04\n      dup1\n      calldatasize\n      sub\n      dup2\n      add\n      swap1\n      tag_42\n      swap2\n      swap1\n      tag_43\n      jump\t// in\n    tag_42:\n      tag_44\n      jump\t// in\n    tag_41:\n      stop\n        /* \"contracts/c.sol\":292:327  MasterChannelRecord[] public ledger */\n    tag_15:\n      0x01\n      dup2\n      dup2\n      sload\n      dup2\n      lt\n      tag_45\n      jumpi\n      0x00\n      dup1\n      revert\n    tag_45:\n      swap1\n      0x00\n      mstore\n      keccak256(0x00, 0x20)\n      swap1\n      0x02\n      mul\n      add\n      0x00\n      swap2\n      pop\n      swap1\n      pop\n      dup1\n      0x00\n      add\n      dup1\n      sload\n      tag_47\n      swap1\n      tag_48\n      jump\t// in\n    tag_47:\n      dup1\n      0x1f\n      add\n      0x20\n      dup1\n      swap2\n      div\n      mul\n      0x20\n      add\n      mload(0x40)\n      swap1\n      dup2\n      add\n      0x40\n      mstore\n      dup1\n      swap3\n      swap2\n      swap1\n      dup2\n      dup2\n      mstore\n      0x20\n      add\n      dup3\n      dup1\n      sload\n      tag_49\n      swap1\n      tag_48\n      jump\t// in\n    tag_49:\n      dup1\n      iszero\n      tag_50\n      jumpi\n      dup1\n      0x1f\n      lt\n      tag_51\n      jumpi\n      0x0100\n      dup1\n      dup4\n      sload\n      div\n      mul\n      dup4\n      mstore\n      swap2\n      0x20\n      add\n      swap2\n      jump(tag_50)\n    tag_51:\n      dup3\n      add\n      swap2\n      swap1\n      0x00\n      mstore\n      keccak256(0x00, 0x20)\n      swap1\n    tag_52:\n      dup2\n      sload\n      dup2\n      mstore\n      swap1\n      0x01\n      add\n      swap1\n      0x20\n      add\n      dup1\n      dup4\n      gt\n      tag_52\n      jumpi\n      dup3\n      swap1\n      sub\n      0x1f\n      and\n      dup3\n      add\n      swap2\n    tag_50:\n      pop\n      pop\n      pop\n      pop\n      pop\n      swap1\n      dup1\n      0x01\n      add\n      sload\n      swap1\n      pop\n      dup3\n      jump\t// out\n        /* \"contracts/c.sol\":1252:1496  function getTimestampForHash(string memory _data) public view returns (uint256) {... */\n    tag_21:\n        /* \"contracts/c.sol\":1323:1330  uint256 */\n      0x00\n        /* \"contracts/c.sol\":1396:1397  0 */\n      dup1\n        /* \"contracts/c.sol\":1350:1375  MasterChannelDataToRecord */\n      0x02\n        /* \"contracts/c.sol\":1376:1381  _data */\n      dup4\n        /* \"contracts/c.sol\":1350:1382  MasterChannelDataToRecord[_data] */\n      mload(0x40)\n      tag_54\n      swap2\n      swap1\n      tag_55\n      jump\t// in\n    tag_54:\n      swap1\n      dup2\n      mstore\n      0x20\n      add\n      mload(0x40)\n      dup1\n      swap2\n      sub\n      swap1\n      keccak256\n        /* \"contracts/c.sol\":1350:1392  MasterChannelDataToRecord[_data].timestamp */\n      0x01\n      add\n      sload\n        /* \"contracts/c.sol\":1350:1397  MasterChannelDataToRecord[_data].timestamp != 0 */\n      sub\n        /* \"contracts/c.sol\":1342:1430  require(MasterChannelDataToRecord[_data].timestamp != 0, \"data not found in the ledger\") */\n      tag_56\n      jumpi\n      mload(0x40)\n      0x08c379a000000000000000000000000000000000000000000000000000000000\n      dup2\n      mstore\n      0x04\n      add\n      tag_57\n      swap1\n      tag_58\n      jump\t// in\n    tag_57:\n      mload(0x40)\n      dup1\n      swap2\n      sub\n      swap1\n      revert\n    tag_56:\n        /* \"contracts/c.sol\":1447:1472  MasterChannelDataToRecord */\n      0x02\n        /* \"contracts/c.sol\":1473:1478  _data */\n      dup3\n        /* \"contracts/c.sol\":1447:1479  MasterChannelDataToRecord[_data] */\n      mload(0x40)\n      tag_59\n      swap2\n      swap1\n      tag_55\n      jump\t// in\n    tag_59:\n      swap1\n      dup2\n      mstore\n      0x20\n      add\n      mload(0x40)\n      dup1\n      swap2\n      sub\n      swap1\n      keccak256\n        /* \"contracts/c.sol\":1447:1489  MasterChannelDataToRecord[_data].timestamp */\n      0x01\n      add\n      sload\n        /* \"contracts/c.sol\":1440:1489  return MasterChannelDataToRecord[_data].timestamp */\n      swap1\n      pop\n        /* \"contracts/c.sol\":1252:1496  function getTimestampForHash(string memory _data) public view returns (uint256) {... */\n      swap2\n      swap1\n      pop\n      jump\t// out\n        /* \"contracts/c.sol\":411:824  function addMasterChannelRecord(string memory _data) public onlyOwner {... */\n    tag_26:\n        /* \"@openzeppelin/contracts@4.5.0/access/Ownable.sol\":1259:1271  _msgSender() */\n      tag_61\n        /* \"@openzeppelin/contracts@4.5.0/access/Ownable.sol\":1259:1269  _msgSender */\n      tag_62\n        /* \"@openzeppelin/contracts@4.5.0/access/Ownable.sol\":1259:1271  _msgSender() */\n      jump\t// in\n    tag_61:\n        /* \"@openzeppelin/contracts@4.5.0/access/Ownable.sol\":1248:1271  owner() == _msgSender() */\n      0xffffffffffffffffffffffffffffffffffffffff\n      and\n        /* \"@openzeppelin/contracts@4.5.0/access/Ownable.sol\":1248:1255  owner() */\n      tag_63\n        /* \"@openzeppelin/contracts@4.5.0/access/Ownable.sol\":1248:1253  owner */\n      tag_38\n        /* \"@openzeppelin/contracts@4.5.0/access/Ownable.sol\":1248:1255  owner() */\n      jump\t// in\n    tag_63:\n        /* \"@openzeppelin/contracts@4.5.0/access/Ownable.sol\":1248:1271  owner() == _msgSender() */\n      0xffffffffffffffffffffffffffffffffffffffff\n      and\n      eq\n        /* \"@openzeppelin/contracts@4.5.0/access/Ownable.sol\":1240:1308  require(owner() == _msgSender(), \"Ownable: caller is not the owner\") */\n      tag_64\n      jumpi\n      mload(0x40)\n      0x08c379a000000000000000000000000000000000000000000000000000000000\n      dup2\n      mstore\n      0x04\n      add\n      tag_65\n      swap1\n      tag_66\n      jump\t// in\n    tag_65:\n      mload(0x40)\n      dup1\n      swap2\n      sub\n      swap1\n      revert\n    tag_64:\n        /* \"contracts/c.sol\":545:546  0 */\n      0x00\n        /* \"contracts/c.sol\":499:524  MasterChannelDataToRecord */\n      0x02\n        /* \"contracts/c.sol\":525:530  _data */\n      dup3\n        /* \"contracts/c.sol\":499:531  MasterChannelDataToRecord[_data] */\n      mload(0x40)\n      tag_68\n      swap2\n      swap1\n      tag_55\n      jump\t// in\n    tag_68:\n      swap1\n      dup2\n      mstore\n      0x20\n      add\n      mload(0x40)\n      dup1\n      swap2\n      sub\n      swap1\n      keccak256\n        /* \"contracts/c.sol\":499:541  MasterChannelDataToRecord[_data].timestamp */\n      0x01\n      add\n      sload\n        /* \"contracts/c.sol\":499:546  MasterChannelDataToRecord[_data].timestamp == 0 */\n      eq\n        /* \"contracts/c.sol\":491:584  require(MasterChannelDataToRecord[_data].timestamp == 0, \"Data already exists in the ledger\") */\n      tag_69\n      jumpi\n      mload(0x40)\n      0x08c379a000000000000000000000000000000000000000000000000000000000\n      dup2\n      mstore\n      0x04\n      add\n      tag_70\n      swap1\n      tag_71\n      jump\t// in\n    tag_70:\n      mload(0x40)\n      dup1\n      swap2\n      sub\n      swap1\n      revert\n    tag_69:\n        /* \"contracts/c.sol\":595:631  MasterChannelRecord memory newRecord */\n      0x00\n        /* \"contracts/c.sol\":634:730  MasterChannelRecord({... */\n      mload(0x40)\n      dup1\n      0x40\n      add\n      0x40\n      mstore\n      dup1\n        /* \"contracts/c.sol\":674:679  _data */\n      dup4\n        /* \"contracts/c.sol\":634:730  MasterChannelRecord({... */\n      dup2\n      mstore\n      0x20\n      add\n        /* \"contracts/c.sol\":704:719  block.timestamp */\n      timestamp\n        /* \"contracts/c.sol\":634:730  MasterChannelRecord({... */\n      dup2\n      mstore\n      pop\n        /* \"contracts/c.sol\":595:730  MasterChannelRecord memory newRecord = MasterChannelRecord({... */\n      swap1\n      pop\n        /* \"contracts/c.sol\":741:747  ledger */\n      0x01\n        /* \"contracts/c.sol\":753:762  newRecord */\n      dup2\n        /* \"contracts/c.sol\":741:763  ledger.push(newRecord) */\n      swap1\n      dup1\n      0x01\n      dup2\n      sload\n      add\n      dup1\n      dup3\n      sstore\n      dup1\n      swap2\n      pop\n      pop\n      0x01\n      swap1\n      sub\n      swap1\n      0x00\n      mstore\n      keccak256(0x00, 0x20)\n      swap1\n      0x02\n      mul\n      add\n      0x00\n      swap1\n      swap2\n      swap1\n      swap2\n      swap1\n      swap2\n      pop\n      0x00\n      dup3\n      add\n      mload\n      dup2\n      0x00\n      add\n      swap1\n      dup2\n      tag_73\n      swap2\n      swap1\n      tag_74\n      jump\t// in\n    tag_73:\n      pop\n      0x20\n      dup3\n      add\n      mload\n      dup2\n      0x01\n      add\n      sstore\n      pop\n      pop\n        /* \"contracts/c.sol\":808:817  newRecord */\n      dup1\n        /* \"contracts/c.sol\":773:798  MasterChannelDataToRecord */\n      0x02\n        /* \"contracts/c.sol\":799:804  _data */\n      dup4\n        /* \"contracts/c.sol\":773:805  MasterChannelDataToRecord[_data] */\n      mload(0x40)\n      tag_75\n      swap2\n      swap1\n      tag_55\n      jump\t// in\n    tag_75:\n      swap1\n      dup2\n      mstore\n      0x20\n      add\n      mload(0x40)\n      dup1\n      swap2\n      sub\n      swap1\n      keccak256\n        /* \"contracts/c.sol\":773:817  MasterChannelDataToRecord[_data] = newRecord */\n      0x00\n      dup3\n      add\n      mload\n      dup2\n      0x00\n      add\n      swap1\n      dup2\n      tag_76\n      swap2\n      swap1\n      tag_74\n      jump\t// in\n    tag_76:\n      pop\n      0x20\n      dup3\n      add\n      mload\n      dup2\n      0x01\n      add\n      sstore\n      swap1\n      pop\n      pop\n        /* \"contracts/c.sol\":481:824  {... */\n      pop\n        /* \"contracts/c.sol\":411:824  function addMasterChannelRecord(string memory _data) public onlyOwner {... */\n      pop\n      jump\t// out\n        /* \"contracts/c.sol\":830:1246  function getAllData() public view returns (string[] memory, uint256[] memory) {... */\n    tag_28:\n        /* \"contracts/c.sol\":873:888  string[] memory */\n      0x60\n        /* \"contracts/c.sol\":890:906  uint256[] memory */\n      dup1\n        /* \"contracts/c.sol\":918:931  uint256 count */\n      0x00\n        /* \"contracts/c.sol\":934:940  ledger */\n      0x01\n        /* \"contracts/c.sol\":934:947  ledger.length */\n      dup1\n      sload\n      swap1\n      pop\n        /* \"contracts/c.sol\":918:947  uint256 count = ledger.length */\n      swap1\n      pop\n        /* \"contracts/c.sol\":957:977  string[] memory data */\n      0x00\n        /* \"contracts/c.sol\":993:998  count */\n      dup2\n        /* \"contracts/c.sol\":980:999  new string[](count) */\n      0xffffffffffffffff\n      dup2\n      gt\n      iszero\n      tag_78\n      jumpi\n      tag_79\n      tag_80\n      jump\t// in\n    tag_79:\n    tag_78:\n      mload(0x40)\n      swap1\n      dup1\n      dup3\n      mstore\n      dup1\n      0x20\n      mul\n      0x20\n      add\n      dup3\n      add\n      0x40\n      mstore\n      dup1\n      iszero\n      tag_81\n      jumpi\n      dup2\n      0x20\n      add\n    tag_82:\n      0x60\n      dup2\n      mstore\n      0x20\n      add\n      swap1\n      0x01\n      swap1\n      sub\n      swap1\n      dup2\n      tag_82\n      jumpi\n      swap1\n      pop\n    tag_81:\n      pop\n        /* \"contracts/c.sol\":957:999  string[] memory data = new string[](count) */\n      swap1\n      pop\n        /* \"contracts/c.sol\":1009:1036  uint256[] memory timestamps */\n      0x00\n        /* \"contracts/c.sol\":1053:1058  count */\n      dup3\n        /* \"contracts/c.sol\":1039:1059  new uint256[](count) */\n      0xffffffffffffffff\n      dup2\n      gt\n      iszero\n      tag_83\n      jumpi\n      tag_84\n      tag_80\n      jump\t// in\n    tag_84:\n    tag_83:\n      mload(0x40)\n      swap1\n      dup1\n      dup3\n      mstore\n      dup1\n      0x20\n      mul\n      0x20\n      add\n      dup3\n      add\n      0x40\n      mstore\n      dup1\n      iszero\n      tag_85\n      jumpi\n      dup2\n      0x20\n      add\n      0x20\n      dup3\n      mul\n      dup1\n      calldatasize\n      dup4\n      calldatacopy\n      dup1\n      dup3\n      add\n      swap2\n      pop\n      pop\n      swap1\n      pop\n    tag_85:\n      pop\n        /* \"contracts/c.sol\":1009:1059  uint256[] memory timestamps = new uint256[](count) */\n      swap1\n      pop\n        /* \"contracts/c.sol\":1075:1084  uint256 i */\n      0x00\n        /* \"contracts/c.sol\":1070:1204  for (uint256 i = 0; i < count; i++) {... */\n    tag_86:\n        /* \"contracts/c.sol\":1094:1099  count */\n      dup4\n        /* \"contracts/c.sol\":1090:1091  i */\n      dup2\n        /* \"contracts/c.sol\":1090:1099  i < count */\n      lt\n        /* \"contracts/c.sol\":1070:1204  for (uint256 i = 0; i < count; i++) {... */\n      iszero\n      tag_87\n      jumpi\n        /* \"contracts/c.sol\":1130:1136  ledger */\n      0x01\n        /* \"contracts/c.sol\":1137:1138  i */\n      dup2\n        /* \"contracts/c.sol\":1130:1139  ledger[i] */\n      dup2\n      sload\n      dup2\n      lt\n      tag_89\n      jumpi\n      tag_90\n      tag_91\n      jump\t// in\n    tag_90:\n    tag_89:\n      swap1\n      0x00\n      mstore\n      keccak256(0x00, 0x20)\n      swap1\n      0x02\n      mul\n      add\n        /* \"contracts/c.sol\":1130:1144  ledger[i].data */\n      0x00\n      add\n        /* \"contracts/c.sol\":1120:1144  data[i] = ledger[i].data */\n      dup1\n      sload\n      tag_93\n      swap1\n      tag_48\n      jump\t// in\n    tag_93:\n      dup1\n      0x1f\n      add\n      0x20\n      dup1\n      swap2\n      div\n      mul\n      0x20\n      add\n      mload(0x40)\n      swap1\n      dup2\n      add\n      0x40\n      mstore\n      dup1\n      swap3\n      swap2\n      swap1\n      dup2\n      dup2\n      mstore\n      0x20\n      add\n      dup3\n      dup1\n      sload\n      tag_94\n      swap1\n      tag_48\n      jump\t// in\n    tag_94:\n      dup1\n      iszero\n      tag_95\n      jumpi\n      dup1\n      0x1f\n      lt\n      tag_96\n      jumpi\n      0x0100\n      dup1\n      dup4\n      sload\n      div\n      mul\n      dup4\n      mstore\n      swap2\n      0x20\n      add\n      swap2\n      jump(tag_95)\n    tag_96:\n      dup3\n      add\n      swap2\n      swap1\n      0x00\n      mstore\n      keccak256(0x00, 0x20)\n      swap1\n    tag_97:\n      dup2\n      sload\n      dup2\n      mstore\n      swap1\n      0x01\n      add\n      swap1\n      0x20\n      add\n      dup1\n      dup4\n      gt\n      tag_97\n      jumpi\n      dup3\n      swap1\n      sub\n      0x1f\n      and\n      dup3\n      add\n      swap2\n    tag_95:\n      pop\n      pop\n      pop\n      pop\n      pop\n        /* \"contracts/c.sol\":1120:1124  data */\n      dup4\n        /* \"contracts/c.sol\":1125:1126  i */\n      dup3\n        /* \"contracts/c.sol\":1120:1127  data[i] */\n      dup2\n      mload\n      dup2\n      lt\n      tag_98\n      jumpi\n      tag_99\n      tag_91\n      jump\t// in\n    tag_99:\n    tag_98:\n      0x20\n      mul\n      0x20\n      add\n      add\n        /* \"contracts/c.sol\":1120:1144  data[i] = ledger[i].data */\n      dup2\n      swap1\n      mstore\n      pop\n        /* \"contracts/c.sol\":1174:1180  ledger */\n      0x01\n        /* \"contracts/c.sol\":1181:1182  i */\n      dup2\n        /* \"contracts/c.sol\":1174:1183  ledger[i] */\n      dup2\n      sload\n      dup2\n      lt\n      tag_100\n      jumpi\n      tag_101\n      tag_91\n      jump\t// in\n    tag_101:\n    tag_100:\n      swap1\n      0x00\n      mstore\n      keccak256(0x00, 0x20)\n      swap1\n      0x02\n      mul\n      add\n        /* \"contracts/c.sol\":1174:1193  ledger[i].timestamp */\n      0x01\n      add\n      sload\n        /* \"contracts/c.sol\":1158:1168  timestamps */\n      dup3\n        /* \"contracts/c.sol\":1169:1170  i */\n      dup3\n        /* \"contracts/c.sol\":1158:1171  timestamps[i] */\n      dup2\n      mload\n      dup2\n      lt\n      tag_103\n      jumpi\n      tag_104\n      tag_91\n      jump\t// in\n    tag_104:\n    tag_103:\n      0x20\n      mul\n      0x20\n      add\n      add\n        /* \"contracts/c.sol\":1158:1193  timestamps[i] = ledger[i].timestamp */\n      dup2\n      dup2\n      mstore\n      pop\n      pop\n        /* \"contracts/c.sol\":1101:1104  i++ */\n      dup1\n      dup1\n      tag_105\n      swap1\n      tag_106\n      jump\t// in\n    tag_105:\n      swap2\n      pop\n      pop\n        /* \"contracts/c.sol\":1070:1204  for (uint256 i = 0; i < count; i++) {... */\n      jump(tag_86)\n    tag_87:\n      pop\n        /* \"contracts/c.sol\":1222:1226  data */\n      dup2\n        /* \"contracts/c.sol\":1228:1238  timestamps */\n      dup2\n        /* \"contracts/c.sol\":1214:1239  return (data, timestamps) */\n      swap5\n      pop\n      swap5\n      pop\n      pop\n      pop\n      pop\n        /* \"contracts/c.sol\":830:1246  function getAllData() public view returns (string[] memory, uint256[] memory) {... */\n      swap1\n      swap2\n      jump\t// out\n        /* \"contracts/c.sol\":333:404  mapping(string => MasterChannelRecord) public MasterChannelDataToRecord */\n    tag_33:\n      0x02\n      dup2\n      dup1\n      mload\n      0x20\n      dup2\n      add\n      dup3\n      add\n      dup1\n      mload\n      dup5\n      dup3\n      mstore\n      0x20\n      dup4\n      add\n      0x20\n      dup6\n      add\n      keccak256\n      dup2\n      dup4\n      mstore\n      dup1\n      swap6\n      pop\n      pop\n      pop\n      pop\n      pop\n      pop\n      0x00\n      swap2\n      pop\n      swap1\n      pop\n      dup1\n      0x00\n      add\n      dup1\n      sload\n      tag_107\n      swap1\n      tag_48\n      jump\t// in\n    tag_107:\n      dup1\n      0x1f\n      add\n      0x20\n      dup1\n      swap2\n      div\n      mul\n      0x20\n      add\n      mload(0x40)\n      swap1\n      dup2\n      add\n      0x40\n      mstore\n      dup1\n      swap3\n      swap2\n      swap1\n      dup2\n      dup2\n      mstore\n      0x20\n      add\n      dup3\n      dup1\n      sload\n      tag_108\n      swap1\n      tag_48\n      jump\t// in\n    tag_108:\n      dup1\n      iszero\n      tag_109\n      jumpi\n      dup1\n      0x1f\n      lt\n      tag_110\n      jumpi\n      0x0100\n      dup1\n      dup4\n      sload\n      div\n      mul\n      dup4\n      mstore\n      swap2\n      0x20\n      add\n      swap2\n      jump(tag_109)\n    tag_110:\n      dup3\n      add\n      swap2\n      swap1\n      0x00\n      mstore\n      keccak256(0x00, 0x20)\n      swap1\n    tag_111:\n      dup2\n      sload\n      dup2\n      mstore\n      swap1\n      0x01\n      add\n      swap1\n      0x20\n      add\n      dup1\n      dup4\n      gt\n      tag_111\n      jumpi\n      dup3\n      swap1\n      sub\n      0x1f\n      and\n      dup3\n      add\n      swap2\n    tag_109:\n      pop\n      pop\n      pop\n      pop\n      pop\n      swap1\n      dup1\n      0x01\n      add\n      sload\n      swap1\n      pop\n      dup3\n      jump\t// out\n        /* \"@openzeppelin/contracts@4.5.0/access/Ownable.sol\":1668:1769  function renounceOwnership() public virtual onlyOwner {... */\n    tag_36:\n        /* \"@openzeppelin/contracts@4.5.0/access/Ownable.sol\":1259:1271  _msgSender() */\n      tag_113\n        /* \"@openzeppelin/contracts@4.5.0/access/Ownable.sol\":1259:1269  _msgSender */\n      tag_62\n        /* \"@openzeppelin/contracts@4.5.0/access/Ownable.sol\":1259:1271  _msgSender() */\n      jump\t// in\n    tag_113:\n        /* \"@openzeppelin/contracts@4.5.0/access/Ownable.sol\":1248:1271  owner() == _msgSender() */\n      0xffffffffffffffffffffffffffffffffffffffff\n      and\n        /* \"@openzeppelin/contracts@4.5.0/access/Ownable.sol\":1248:1255  owner() */\n      tag_114\n        /* \"@openzeppelin/contracts@4.5.0/access/Ownable.sol\":1248:1253  owner */\n      tag_38\n        /* \"@openzeppelin/contracts@4.5.0/access/Ownable.sol\":1248:1255  owner() */\n      jump\t// in\n    tag_114:\n        /* \"@openzeppelin/contracts@4.5.0/access/Ownable.sol\":1248:1271  owner() == _msgSender() */\n      0xffffffffffffffffffffffffffffffffffffffff\n      and\n      eq\n        /* \"@openzeppelin/contracts@4.5.0/access/Ownable.sol\":1240:1308  require(owner() == _msgSender(), \"Ownable: caller is not the owner\") */\n      tag_115\n      jumpi\n      mload(0x40)\n      0x08c379a000000000000000000000000000000000000000000000000000000000\n      dup2\n      mstore\n      0x04\n      add\n      tag_116\n      swap1\n      tag_66\n      jump\t// in\n    tag_116:\n      mload(0x40)\n      dup1\n      swap2\n      sub\n      swap1\n      revert\n    tag_115:\n        /* \"@openzeppelin/contracts@4.5.0/access/Ownable.sol\":1732:1762  _transferOwnership(address(0)) */\n      tag_118\n        /* \"@openzeppelin/contracts@4.5.0/access/Ownable.sol\":1759:1760  0 */\n      0x00\n        /* \"@openzeppelin/contracts@4.5.0/access/Ownable.sol\":1732:1750  _transferOwnership */\n      tag_119\n        /* \"@openzeppelin/contracts@4.5.0/access/Ownable.sol\":1732:1762  _transferOwnership(address(0)) */\n      jump\t// in\n    tag_118:\n        /* \"@openzeppelin/contracts@4.5.0/access/Ownable.sol\":1668:1769  function renounceOwnership() public virtual onlyOwner {... */\n      jump\t// out\n        /* \"@openzeppelin/contracts@4.5.0/access/Ownable.sol\":1036:1121  function owner() public view virtual returns (address) {... */\n    tag_38:\n        /* \"@openzeppelin/contracts@4.5.0/access/Ownable.sol\":1082:1089  address */\n      0x00\n        /* \"@openzeppelin/contracts@4.5.0/access/Ownable.sol\":1108:1114  _owner */\n      dup1\n      0x00\n      swap1\n      sload\n      swap1\n      0x0100\n      exp\n      swap1\n      div\n      0xffffffffffffffffffffffffffffffffffffffff\n      and\n        /* \"@openzeppelin/contracts@4.5.0/access/Ownable.sol\":1101:1114  return _owner */\n      swap1\n      pop\n        /* \"@openzeppelin/contracts@4.5.0/access/Ownable.sol\":1036:1121  function owner() public view virtual returns (address) {... */\n      swap1\n      jump\t// out\n        /* \"@openzeppelin/contracts@4.5.0/access/Ownable.sol\":1918:2116  function transferOwnership(address newOwner) public virtual onlyOwner {... */\n    tag_44:\n        /* \"@openzeppelin/contracts@4.5.0/access/Ownable.sol\":1259:1271  _msgSender() */\n      tag_122\n        /* \"@openzeppelin/contracts@4.5.0/access/Ownable.sol\":1259:1269  _msgSender */\n      tag_62\n        /* \"@openzeppelin/contracts@4.5.0/access/Ownable.sol\":1259:1271  _msgSender() */\n      jump\t// in\n    tag_122:\n        /* \"@openzeppelin/contracts@4.5.0/access/Ownable.sol\":1248:1271  owner() == _msgSender() */\n      0xffffffffffffffffffffffffffffffffffffffff\n      and\n        /* \"@openzeppelin/contracts@4.5.0/access/Ownable.sol\":1248:1255  owner() */\n      tag_123\n        /* \"@openzeppelin/contracts@4.5.0/access/Ownable.sol\":1248:1253  owner */\n      tag_38\n        /* \"@openzeppelin/contracts@4.5.0/access/Ownable.sol\":1248:1255  owner() */\n      jump\t// in\n    tag_123:\n        /* \"@openzeppelin/contracts@4.5.0/access/Ownable.sol\":1248:1271  owner() == _msgSender() */\n      0xffffffffffffffffffffffffffffffffffffffff\n      and\n      eq\n        /* \"@openzeppelin/contracts@4.5.0/access/Ownable.sol\":1240:1308  require(owner() == _msgSender(), \"Ownable: caller is not the owner\") */\n      tag_124\n      jumpi\n      mload(0x40)\n      0x08c379a000000000000000000000000000000000000000000000000000000000\n      dup2\n      mstore\n      0x04\n      add\n      tag_125\n      swap1\n      tag_66\n      jump\t// in\n    tag_125:\n      mload(0x40)\n      dup1\n      swap2\n      sub\n      swap1\n      revert\n    tag_124:\n        /* \"@openzeppelin/contracts@4.5.0/access/Ownable.sol\":2026:2027  0 */\n      0x00\n        /* \"@openzeppelin/contracts@4.5.0/access/Ownable.sol\":2006:2028  newOwner != address(0) */\n      0xffffffffffffffffffffffffffffffffffffffff\n      and\n        /* \"@openzeppelin/contracts@4.5.0/access/Ownable.sol\":2006:2014  newOwner */\n      dup2\n        /* \"@openzeppelin/contracts@4.5.0/access/Ownable.sol\":2006:2028  newOwner != address(0) */\n      0xffffffffffffffffffffffffffffffffffffffff\n      and\n      sub\n        /* \"@openzeppelin/contracts@4.5.0/access/Ownable.sol\":1998:2071  require(newOwner != address(0), \"Ownable: new owner is the zero address\") */\n      tag_127\n      jumpi\n      mload(0x40)\n      0x08c379a000000000000000000000000000000000000000000000000000000000\n      dup2\n      mstore\n      0x04\n      add\n      tag_128\n      swap1\n      tag_129\n      jump\t// in\n    tag_128:\n      mload(0x40)\n      dup1\n      swap2\n      sub\n      swap1\n      revert\n    tag_127:\n        /* \"@openzeppelin/contracts@4.5.0/access/Ownable.sol\":2081:2109  _transferOwnership(newOwner) */\n      tag_130\n        /* \"@openzeppelin/contracts@4.5.0/access/Ownable.sol\":2100:2108  newOwner */\n      dup2\n        /* \"@openzeppelin/contracts@4.5.0/access/Ownable.sol\":2081:2099  _transferOwnership */\n      tag_119\n        /* \"@openzeppelin/contracts@4.5.0/access/Ownable.sol\":2081:2109  _transferOwnership(newOwner) */\n      jump\t// in\n    tag_130:\n        /* \"@openzeppelin/contracts@4.5.0/access/Ownable.sol\":1918:2116  function transferOwnership(address newOwner) public virtual onlyOwner {... */\n      pop\n      jump\t// out\n        /* \"@openzeppelin/contracts@4.5.0/utils/Context.sol\":640:736  function _msgSender() internal view virtual returns (address) {... */\n    tag_62:\n        /* \"@openzeppelin/contracts@4.5.0/utils/Context.sol\":693:700  address */\n      0x00\n        /* \"@openzeppelin/contracts@4.5.0/utils/Context.sol\":719:729  msg.sender */\n      caller\n        /* \"@openzeppelin/contracts@4.5.0/utils/Context.sol\":712:729  return msg.sender */\n      swap1\n      pop\n        /* \"@openzeppelin/contracts@4.5.0/utils/Context.sol\":640:736  function _msgSender() internal view virtual returns (address) {... */\n      swap1\n      jump\t// out\n        /* \"@openzeppelin/contracts@4.5.0/access/Ownable.sol\":2270:2457  function _transferOwnership(address newOwner) internal virtual {... */\n    tag_119:\n        /* \"@openzeppelin/contracts@4.5.0/access/Ownable.sol\":2343:2359  address oldOwner */\n      0x00\n        /* \"@openzeppelin/contracts@4.5.0/access/Ownable.sol\":2362:2368  _owner */\n      dup1\n      0x00\n      swap1\n      sload\n      swap1\n      0x0100\n      exp\n      swap1\n      div\n      0xffffffffffffffffffffffffffffffffffffffff\n      and\n        /* \"@openzeppelin/contracts@4.5.0/access/Ownable.sol\":2343:2368  address oldOwner = _owner */\n      swap1\n      pop\n        /* \"@openzeppelin/contracts@4.5.0/access/Ownable.sol\":2387:2395  newOwner */\n      dup2\n        /* \"@openzeppelin/contracts@4.5.0/access/Ownable.sol\":2378:2384  _owner */\n      0x00\n      dup1\n        /* \"@openzeppelin/contracts@4.5.0/access/Ownable.sol\":2378:2395  _owner = newOwner */\n      0x0100\n      exp\n      dup2\n      sload\n      dup2\n      0xffffffffffffffffffffffffffffffffffffffff\n      mul\n      not\n      and\n      swap1\n      dup4\n      0xffffffffffffffffffffffffffffffffffffffff\n      and\n      mul\n      or\n      swap1\n      sstore\n      pop\n        /* \"@openzeppelin/contracts@4.5.0/access/Ownable.sol\":2441:2449  newOwner */\n      dup2\n        /* \"@openzeppelin/contracts@4.5.0/access/Ownable.sol\":2410:2450  OwnershipTransferred(oldOwner, newOwner) */\n      0xffffffffffffffffffffffffffffffffffffffff\n      and\n        /* \"@openzeppelin/contracts@4.5.0/access/Ownable.sol\":2431:2439  oldOwner */\n      dup2\n        /* \"@openzeppelin/contracts@4.5.0/access/Ownable.sol\":2410:2450  OwnershipTransferred(oldOwner, newOwner) */\n      0xffffffffffffffffffffffffffffffffffffffff\n      and\n      0x8be0079c531659141344cd1fd0a4f28419497f9722a3daafe3b4186f6b6457e0\n      mload(0x40)\n      mload(0x40)\n      dup1\n      swap2\n      sub\n      swap1\n      log3\n        /* \"@openzeppelin/contracts@4.5.0/access/Ownable.sol\":2333:2457  {... */\n      pop\n        /* \"@openzeppelin/contracts@4.5.0/access/Ownable.sol\":2270:2457  function _transferOwnership(address newOwner) internal virtual {... */\n      pop\n      jump\t// out\n        /* \"#utility.yul\":7:82   */\n    tag_133:\n        /* \"#utility.yul\":40:46   */\n      0x00\n        /* \"#utility.yul\":73:75   */\n      0x40\n        /* \"#utility.yul\":67:76   */\n      mload\n        /* \"#utility.yul\":57:76   */\n      swap1\n      pop\n        /* \"#utility.yul\":7:82   */\n      swap1\n      jump\t// out\n        /* \"#utility.yul\":88:205   */\n    tag_134:\n        /* \"#utility.yul\":197:198   */\n      0x00\n        /* \"#utility.yul\":194:195   */\n      dup1\n        /* \"#utility.yul\":187:199   */\n      revert\n        /* \"#utility.yul\":211:328   */\n    tag_135:\n        /* \"#utility.yul\":320:321   */\n      0x00\n        /* \"#utility.yul\":317:318   */\n      dup1\n        /* \"#utility.yul\":310:322   */\n      revert\n        /* \"#utility.yul\":334:411   */\n    tag_136:\n        /* \"#utility.yul\":371:378   */\n      0x00\n        /* \"#utility.yul\":400:405   */\n      dup2\n        /* \"#utility.yul\":389:405   */\n      swap1\n      pop\n        /* \"#utility.yul\":334:411   */\n      swap2\n      swap1\n      pop\n      jump\t// out\n        /* \"#utility.yul\":417:539   */\n    tag_137:\n        /* \"#utility.yul\":490:514   */\n      tag_206\n        /* \"#utility.yul\":508:513   */\n      dup2\n        /* \"#utility.yul\":490:514   */\n      tag_136\n      jump\t// in\n    tag_206:\n        /* \"#utility.yul\":483:488   */\n      dup2\n        /* \"#utility.yul\":480:515   */\n      eq\n        /* \"#utility.yul\":470:533   */\n      tag_207\n      jumpi\n        /* \"#utility.yul\":529:530   */\n      0x00\n        /* \"#utility.yul\":526:527   */\n      dup1\n        /* \"#utility.yul\":519:531   */\n      revert\n        /* \"#utility.yul\":470:533   */\n    tag_207:\n        /* \"#utility.yul\":417:539   */\n      pop\n      jump\t// out\n        /* \"#utility.yul\":545:684   */\n    tag_138:\n        /* \"#utility.yul\":591:596   */\n      0x00\n        /* \"#utility.yul\":629:635   */\n      dup2\n        /* \"#utility.yul\":616:636   */\n      calldataload\n        /* \"#utility.yul\":607:636   */\n      swap1\n      pop\n        /* \"#utility.yul\":645:678   */\n      tag_209\n        /* \"#utility.yul\":672:677   */\n      dup2\n        /* \"#utility.yul\":645:678   */\n      tag_137\n      jump\t// in\n    tag_209:\n        /* \"#utility.yul\":545:684   */\n      swap3\n      swap2\n      pop\n      pop\n      jump\t// out\n        /* \"#utility.yul\":690:1019   */\n    tag_14:\n        /* \"#utility.yul\":749:755   */\n      0x00\n        /* \"#utility.yul\":798:800   */\n      0x20\n        /* \"#utility.yul\":786:795   */\n      dup3\n        /* \"#utility.yul\":777:784   */\n      dup5\n        /* \"#utility.yul\":773:796   */\n      sub\n        /* \"#utility.yul\":769:801   */\n      slt\n        /* \"#utility.yul\":766:885   */\n      iszero\n      tag_211\n      jumpi\n        /* \"#utility.yul\":804:883   */\n      tag_212\n      tag_134\n      jump\t// in\n    tag_212:\n        /* \"#utility.yul\":766:885   */\n    tag_211:\n        /* \"#utility.yul\":924:925   */\n      0x00\n        /* \"#utility.yul\":949:1002   */\n      tag_213\n        /* \"#utility.yul\":994:1001   */\n      dup5\n        /* \"#utility.yul\":985:991   */\n      dup3\n        /* \"#utility.yul\":974:983   */\n      dup6\n        /* \"#utility.yul\":970:992   */\n      add\n        /* \"#utility.yul\":949:1002   */\n      tag_138\n      jump\t// in\n    tag_213:\n        /* \"#utility.yul\":939:1002   */\n      swap2\n      pop\n        /* \"#utility.yul\":895:1012   */\n      pop\n        /* \"#utility.yul\":690:1019   */\n      swap3\n      swap2\n      pop\n      pop\n      jump\t// out\n        /* \"#utility.yul\":1025:1124   */\n    tag_139:\n        /* \"#utility.yul\":1077:1083   */\n      0x00\n        /* \"#utility.yul\":1111:1116   */\n      dup2\n        /* \"#utility.yul\":1105:1117   */\n      mload\n        /* \"#utility.yul\":1095:1117   */\n      swap1\n      pop\n        /* \"#utility.yul\":1025:1124   */\n      swap2\n      swap1\n      pop\n      jump\t// out\n        /* \"#utility.yul\":1130:1299   */\n    tag_140:\n        /* \"#utility.yul\":1214:1225   */\n      0x00\n        /* \"#utility.yul\":1248:1254   */\n      dup3\n        /* \"#utility.yul\":1243:1246   */\n      dup3\n        /* \"#utility.yul\":1236:1255   */\n      mstore\n        /* \"#utility.yul\":1288:1292   */\n      0x20\n        /* \"#utility.yul\":1283:1286   */\n      dup3\n        /* \"#utility.yul\":1279:1293   */\n      add\n        /* \"#utility.yul\":1264:1293   */\n      swap1\n      pop\n        /* \"#utility.yul\":1130:1299   */\n      swap3\n      swap2\n      pop\n      pop\n      jump\t// out\n        /* \"#utility.yul\":1305:1551   */\n    tag_141:\n        /* \"#utility.yul\":1386:1387   */\n      0x00\n        /* \"#utility.yul\":1396:1509   */\n    tag_217:\n        /* \"#utility.yul\":1410:1416   */\n      dup4\n        /* \"#utility.yul\":1407:1408   */\n      dup2\n        /* \"#utility.yul\":1404:1417   */\n      lt\n        /* \"#utility.yul\":1396:1509   */\n      iszero\n      tag_219\n      jumpi\n        /* \"#utility.yul\":1495:1496   */\n      dup1\n        /* \"#utility.yul\":1490:1493   */\n      dup3\n        /* \"#utility.yul\":1486:1497   */\n      add\n        /* \"#utility.yul\":1480:1498   */\n      mload\n        /* \"#utility.yul\":1476:1477   */\n      dup2\n        /* \"#utility.yul\":1471:1474   */\n      dup5\n        /* \"#utility.yul\":1467:1478   */\n      add\n        /* \"#utility.yul\":1460:1499   */\n      mstore\n        /* \"#utility.yul\":1432:1434   */\n      0x20\n        /* \"#utility.yul\":1429:1430   */\n      dup2\n        /* \"#utility.yul\":1425:1435   */\n      add\n        /* \"#utility.yul\":1420:1435   */\n      swap1\n      pop\n        /* \"#utility.yul\":1396:1509   */\n      jump(tag_217)\n    tag_219:\n        /* \"#utility.yul\":1543:1544   */\n      0x00\n        /* \"#utility.yul\":1534:1540   */\n      dup5\n        /* \"#utility.yul\":1529:1532   */\n      dup5\n        /* \"#utility.yul\":1525:1541   */\n      add\n        /* \"#utility.yul\":1518:1545   */\n      mstore\n        /* \"#utility.yul\":1367:1551   */\n      pop\n        /* \"#utility.yul\":1305:1551   */\n      pop\n      pop\n      pop\n      jump\t// out\n        /* \"#utility.yul\":1557:1659   */\n    tag_142:\n        /* \"#utility.yul\":1598:1604   */\n      0x00\n        /* \"#utility.yul\":1649:1651   */\n      0x1f\n        /* \"#utility.yul\":1645:1652   */\n      not\n        /* \"#utility.yul\":1640:1642   */\n      0x1f\n        /* \"#utility.yul\":1633:1638   */\n      dup4\n        /* \"#utility.yul\":1629:1643   */\n      add\n        /* \"#utility.yul\":1625:1653   */\n      and\n        /* \"#utility.yul\":1615:1653   */\n      swap1\n      pop\n        /* \"#utility.yul\":1557:1659   */\n      swap2\n      swap1\n      pop\n      jump\t// out\n        /* \"#utility.yul\":1665:2042   */\n    tag_143:\n        /* \"#utility.yul\":1753:1756   */\n      0x00\n        /* \"#utility.yul\":1781:1820   */\n      tag_222\n        /* \"#utility.yul\":1814:1819   */\n      dup3\n        /* \"#utility.yul\":1781:1820   */\n      tag_139\n      jump\t// in\n    tag_222:\n        /* \"#utility.yul\":1836:1907   */\n      tag_223\n        /* \"#utility.yul\":1900:1906   */\n      dup2\n        /* \"#utility.yul\":1895:1898   */\n      dup6\n        /* \"#utility.yul\":1836:1907   */\n      tag_140\n      jump\t// in\n    tag_223:\n        /* \"#utility.yul\":1829:1907   */\n      swap4\n      pop\n        /* \"#utility.yul\":1916:1981   */\n      tag_224\n        /* \"#utility.yul\":1974:1980   */\n      dup2\n        /* \"#utility.yul\":1969:1972   */\n      dup6\n        /* \"#utility.yul\":1962:1966   */\n      0x20\n        /* \"#utility.yul\":1955:1960   */\n      dup7\n        /* \"#utility.yul\":1951:1967   */\n      add\n        /* \"#utility.yul\":1916:1981   */\n      tag_141\n      jump\t// in\n    tag_224:\n        /* \"#utility.yul\":2006:2035   */\n      tag_225\n        /* \"#utility.yul\":2028:2034   */\n      dup2\n        /* \"#utility.yul\":2006:2035   */\n      tag_142\n      jump\t// in\n    tag_225:\n        /* \"#utility.yul\":2001:2004   */\n      dup5\n        /* \"#utility.yul\":1997:2036   */\n      add\n        /* \"#utility.yul\":1990:2036   */\n      swap2\n      pop\n        /* \"#utility.yul\":1757:2042   */\n      pop\n        /* \"#utility.yul\":1665:2042   */\n      swap3\n      swap2\n      pop\n      pop\n      jump\t// out\n        /* \"#utility.yul\":2048:2166   */\n    tag_144:\n        /* \"#utility.yul\":2135:2159   */\n      tag_227\n        /* \"#utility.yul\":2153:2158   */\n      dup2\n        /* \"#utility.yul\":2135:2159   */\n      tag_136\n      jump\t// in\n    tag_227:\n        /* \"#utility.yul\":2130:2133   */\n      dup3\n        /* \"#utility.yul\":2123:2160   */\n      mstore\n        /* \"#utility.yul\":2048:2166   */\n      pop\n      pop\n      jump\t// out\n        /* \"#utility.yul\":2172:2595   */\n    tag_17:\n        /* \"#utility.yul\":2313:2317   */\n      0x00\n        /* \"#utility.yul\":2351:2353   */\n      0x40\n        /* \"#utility.yul\":2340:2349   */\n      dup3\n        /* \"#utility.yul\":2336:2354   */\n      add\n        /* \"#utility.yul\":2328:2354   */\n      swap1\n      pop\n        /* \"#utility.yul\":2400:2409   */\n      dup2\n        /* \"#utility.yul\":2394:2398   */\n      dup2\n        /* \"#utility.yul\":2390:2410   */\n      sub\n        /* \"#utility.yul\":2386:2387   */\n      0x00\n        /* \"#utility.yul\":2375:2384   */\n      dup4\n        /* \"#utility.yul\":2371:2388   */\n      add\n        /* \"#utility.yul\":2364:2411   */\n      mstore\n        /* \"#utility.yul\":2428:2506   */\n      tag_229\n        /* \"#utility.yul\":2501:2505   */\n      dup2\n        /* \"#utility.yul\":2492:2498   */\n      dup6\n        /* \"#utility.yul\":2428:2506   */\n      tag_143\n      jump\t// in\n    tag_229:\n        /* \"#utility.yul\":2420:2506   */\n      swap1\n      pop\n        /* \"#utility.yul\":2516:2588   */\n      tag_230\n        /* \"#utility.yul\":2584:2586   */\n      0x20\n        /* \"#utility.yul\":2573:2582   */\n      dup4\n        /* \"#utility.yul\":2569:2587   */\n      add\n        /* \"#utility.yul\":2560:2566   */\n      dup5\n        /* \"#utility.yul\":2516:2588   */\n      tag_144\n      jump\t// in\n    tag_230:\n        /* \"#utility.yul\":2172:2595   */\n      swap4\n      swap3\n      pop\n      pop\n      pop\n      jump\t// out\n        /* \"#utility.yul\":2601:2718   */\n    tag_145:\n        /* \"#utility.yul\":2710:2711   */\n      0x00\n        /* \"#utility.yul\":2707:2708   */\n      dup1\n        /* \"#utility.yul\":2700:2712   */\n      revert\n        /* \"#utility.yul\":2724:2841   */\n    tag_146:\n        /* \"#utility.yul\":2833:2834   */\n      0x00\n        /* \"#utility.yul\":2830:2831   */\n      dup1\n        /* \"#utility.yul\":2823:2835   */\n      revert\n        /* \"#utility.yul\":2847:3027   */\n    tag_80:\n        /* \"#utility.yul\":2895:2972   */\n      0x4e487b7100000000000000000000000000000000000000000000000000000000\n        /* \"#utility.yul\":2892:2893   */\n      0x00\n        /* \"#utility.yul\":2885:2973   */\n      mstore\n        /* \"#utility.yul\":2992:2996   */\n      0x41\n        /* \"#utility.yul\":2989:2990   */\n      0x04\n        /* \"#utility.yul\":2982:2997   */\n      mstore\n        /* \"#utility.yul\":3016:3020   */\n      0x24\n        /* \"#utility.yul\":3013:3014   */\n      0x00\n        /* \"#utility.yul\":3006:3021   */\n      revert\n        /* \"#utility.yul\":3033:3314   */\n    tag_147:\n        /* \"#utility.yul\":3116:3143   */\n      tag_235\n        /* \"#utility.yul\":3138:3142   */\n      dup3\n        /* \"#utility.yul\":3116:3143   */\n      tag_142\n      jump\t// in\n    tag_235:\n        /* \"#utility.yul\":3108:3114   */\n      dup2\n        /* \"#utility.yul\":3104:3144   */\n      add\n        /* \"#utility.yul\":3246:3252   */\n      dup2\n        /* \"#utility.yul\":3234:3244   */\n      dup2\n        /* \"#utility.yul\":3231:3253   */\n      lt\n        /* \"#utility.yul\":3210:3228   */\n      0xffffffffffffffff\n        /* \"#utility.yul\":3198:3208   */\n      dup3\n        /* \"#utility.yul\":3195:3229   */\n      gt\n        /* \"#utility.yul\":3192:3254   */\n      or\n        /* \"#utility.yul\":3189:3277   */\n      iszero\n      tag_236\n      jumpi\n        /* \"#utility.yul\":3257:3275   */\n      tag_237\n      tag_80\n      jump\t// in\n    tag_237:\n        /* \"#utility.yul\":3189:3277   */\n    tag_236:\n        /* \"#utility.yul\":3297:3307   */\n      dup1\n        /* \"#utility.yul\":3293:3295   */\n      0x40\n        /* \"#utility.yul\":3286:3308   */\n      mstore\n        /* \"#utility.yul\":3076:3314   */\n      pop\n        /* \"#utility.yul\":3033:3314   */\n      pop\n      pop\n      jump\t// out\n        /* \"#utility.yul\":3320:3449   */\n    tag_148:\n        /* \"#utility.yul\":3354:3360   */\n      0x00\n        /* \"#utility.yul\":3381:3401   */\n      tag_239\n      tag_133\n      jump\t// in\n    tag_239:\n        /* \"#utility.yul\":3371:3401   */\n      swap1\n      pop\n        /* \"#utility.yul\":3410:3443   */\n      tag_240\n        /* \"#utility.yul\":3438:3442   */\n      dup3\n        /* \"#utility.yul\":3430:3436   */\n      dup3\n        /* \"#utility.yul\":3410:3443   */\n      tag_147\n      jump\t// in\n    tag_240:\n        /* \"#utility.yul\":3320:3449   */\n      swap2\n      swap1\n      pop\n      jump\t// out\n        /* \"#utility.yul\":3455:3763   */\n    tag_149:\n        /* \"#utility.yul\":3517:3521   */\n      0x00\n        /* \"#utility.yul\":3607:3625   */\n      0xffffffffffffffff\n        /* \"#utility.yul\":3599:3605   */\n      dup3\n        /* \"#utility.yul\":3596:3626   */\n      gt\n        /* \"#utility.yul\":3593:3649   */\n      iszero\n      tag_242\n      jumpi\n        /* \"#utility.yul\":3629:3647   */\n      tag_243\n      tag_80\n      jump\t// in\n    tag_243:\n        /* \"#utility.yul\":3593:3649   */\n    tag_242:\n        /* \"#utility.yul\":3667:3696   */\n      tag_244\n        /* \"#utility.yul\":3689:3695   */\n      dup3\n        /* \"#utility.yul\":3667:3696   */\n      tag_142\n      jump\t// in\n    tag_244:\n        /* \"#utility.yul\":3659:3696   */\n      swap1\n      pop\n        /* \"#utility.yul\":3751:3755   */\n      0x20\n        /* \"#utility.yul\":3745:3749   */\n      dup2\n        /* \"#utility.yul\":3741:3756   */\n      add\n        /* \"#utility.yul\":3733:3756   */\n      swap1\n      pop\n        /* \"#utility.yul\":3455:3763   */\n      swap2\n      swap1\n      pop\n      jump\t// out\n        /* \"#utility.yul\":3769:3915   */\n    tag_150:\n        /* \"#utility.yul\":3866:3872   */\n      dup3\n        /* \"#utility.yul\":3861:3864   */\n      dup2\n        /* \"#utility.yul\":3856:3859   */\n      dup4\n        /* \"#utility.yul\":3843:3873   */\n      calldatacopy\n        /* \"#utility.yul\":3907:3908   */\n      0x00\n        /* \"#utility.yul\":3898:3904   */\n      dup4\n        /* \"#utility.yul\":3893:3896   */\n      dup4\n        /* \"#utility.yul\":3889:3905   */\n      add\n        /* \"#utility.yul\":3882:3909   */\n      mstore\n        /* \"#utility.yul\":3769:3915   */\n      pop\n      pop\n      pop\n      jump\t// out\n        /* \"#utility.yul\":3921:4346   */\n    tag_151:\n        /* \"#utility.yul\":3999:4004   */\n      0x00\n        /* \"#utility.yul\":4024:4090   */\n      tag_247\n        /* \"#utility.yul\":4040:4089   */\n      tag_248\n        /* \"#utility.yul\":4082:4088   */\n      dup5\n        /* \"#utility.yul\":4040:4089   */\n      tag_149\n      jump\t// in\n    tag_248:\n        /* \"#utility.yul\":4024:4090   */\n      tag_148\n      jump\t// in\n    tag_247:\n        /* \"#utility.yul\":4015:4090   */\n      swap1\n      pop\n        /* \"#utility.yul\":4113:4119   */\n      dup3\n        /* \"#utility.yul\":4106:4111   */\n      dup2\n        /* \"#utility.yul\":4099:4120   */\n      mstore\n        /* \"#utility.yul\":4151:4155   */\n      0x20\n        /* \"#utility.yul\":4144:4149   */\n      dup2\n        /* \"#utility.yul\":4140:4156   */\n      add\n        /* \"#utility.yul\":4189:4192   */\n      dup5\n        /* \"#utility.yul\":4180:4186   */\n      dup5\n        /* \"#utility.yul\":4175:4178   */\n      dup5\n        /* \"#utility.yul\":4171:4187   */\n      add\n        /* \"#utility.yul\":4168:4193   */\n      gt\n        /* \"#utility.yul\":4165:4277   */\n      iszero\n      tag_249\n      jumpi\n        /* \"#utility.yul\":4196:4275   */\n      tag_250\n      tag_146\n      jump\t// in\n    tag_250:\n        /* \"#utility.yul\":4165:4277   */\n    tag_249:\n        /* \"#utility.yul\":4286:4340   */\n      tag_251\n        /* \"#utility.yul\":4333:4339   */\n      dup5\n        /* \"#utility.yul\":4328:4331   */\n      dup3\n        /* \"#utility.yul\":4323:4326   */\n      dup6\n        /* \"#utility.yul\":4286:4340   */\n      tag_150\n      jump\t// in\n    tag_251:\n        /* \"#utility.yul\":4005:4346   */\n      pop\n        /* \"#utility.yul\":3921:4346   */\n      swap4\n      swap3\n      pop\n      pop\n      pop\n      jump\t// out\n        /* \"#utility.yul\":4366:4706   */\n    tag_152:\n        /* \"#utility.yul\":4422:4427   */\n      0x00\n        /* \"#utility.yul\":4471:4474   */\n      dup3\n        /* \"#utility.yul\":4464:4468   */\n      0x1f\n        /* \"#utility.yul\":4456:4462   */\n      dup4\n        /* \"#utility.yul\":4452:4469   */\n      add\n        /* \"#utility.yul\":4448:4475   */\n      slt\n        /* \"#utility.yul\":4438:4560   */\n      tag_253\n      jumpi\n        /* \"#utility.yul\":4479:4558   */\n      tag_254\n      tag_145\n      jump\t// in\n    tag_254:\n        /* \"#utility.yul\":4438:4560   */\n    tag_253:\n        /* \"#utility.yul\":4596:4602   */\n      dup2\n        /* \"#utility.yul\":4583:4603   */\n      calldataload\n        /* \"#utility.yul\":4621:4700   */\n      tag_255\n        /* \"#utility.yul\":4696:4699   */\n      dup5\n        /* \"#utility.yul\":4688:4694   */\n      dup3\n        /* \"#utility.yul\":4681:4685   */\n      0x20\n        /* \"#utility.yul\":4673:4679   */\n      dup7\n        /* \"#utility.yul\":4669:4686   */\n      add\n        /* \"#utility.yul\":4621:4700   */\n      tag_151\n      jump\t// in\n    tag_255:\n        /* \"#utility.yul\":4612:4700   */\n      swap2\n      pop\n        /* \"#utility.yul\":4428:4706   */\n      pop\n        /* \"#utility.yul\":4366:4706   */\n      swap3\n      swap2\n      pop\n      pop\n      jump\t// out\n        /* \"#utility.yul\":4712:5221   */\n    tag_20:\n        /* \"#utility.yul\":4781:4787   */\n      0x00\n        /* \"#utility.yul\":4830:4832   */\n      0x20\n        /* \"#utility.yul\":4818:4827   */\n      dup3\n        /* \"#utility.yul\":4809:4816   */\n      dup5\n        /* \"#utility.yul\":4805:4828   */\n      sub\n        /* \"#utility.yul\":4801:4833   */\n      slt\n        /* \"#utility.yul\":4798:4917   */\n      iszero\n      tag_257\n      jumpi\n        /* \"#utility.yul\":4836:4915   */\n      tag_258\n      tag_134\n      jump\t// in\n    tag_258:\n        /* \"#utility.yul\":4798:4917   */\n    tag_257:\n        /* \"#utility.yul\":4984:4985   */\n      0x00\n        /* \"#utility.yul\":4973:4982   */\n      dup3\n        /* \"#utility.yul\":4969:4986   */\n      add\n        /* \"#utility.yul\":4956:4987   */\n      calldataload\n        /* \"#utility.yul\":5014:5032   */\n      0xffffffffffffffff\n        /* \"#utility.yul\":5006:5012   */\n      dup2\n        /* \"#utility.yul\":5003:5033   */\n      gt\n        /* \"#utility.yul\":5000:5117   */\n      iszero\n      tag_259\n      jumpi\n        /* \"#utility.yul\":5036:5115   */\n      tag_260\n      tag_135\n      jump\t// in\n    tag_260:\n        /* \"#utility.yul\":5000:5117   */\n    tag_259:\n        /* \"#utility.yul\":5141:5204   */\n      tag_261\n        /* \"#utility.yul\":5196:5203   */\n      dup5\n        /* \"#utility.yul\":5187:5193   */\n      dup3\n        /* \"#utility.yul\":5176:5185   */\n      dup6\n        /* \"#utility.yul\":5172:5194   */\n      add\n        /* \"#utility.yul\":5141:5204   */\n      tag_152\n      jump\t// in\n    tag_261:\n        /* \"#utility.yul\":5131:5204   */\n      swap2\n      pop\n        /* \"#utility.yul\":4927:5214   */\n      pop\n        /* \"#utility.yul\":4712:5221   */\n      swap3\n      swap2\n      pop\n      pop\n      jump\t// out\n        /* \"#utility.yul\":5227:5449   */\n    tag_23:\n        /* \"#utility.yul\":5320:5324   */\n      0x00\n        /* \"#utility.yul\":5358:5360   */\n      0x20\n        /* \"#utility.yul\":5347:5356   */\n      dup3\n        /* \"#utility.yul\":5343:5361   */\n      add\n        /* \"#utility.yul\":5335:5361   */\n      swap1\n      pop\n        /* \"#utility.yul\":5371:5442   */\n      tag_263\n        /* \"#utility.yul\":5439:5440   */\n      0x00\n        /* \"#utility.yul\":5428:5437   */\n      dup4\n        /* \"#utility.yul\":5424:5441   */\n      add\n        /* \"#utility.yul\":5415:5421   */\n      dup5\n        /* \"#utility.yul\":5371:5442   */\n      tag_144\n      jump\t// in\n    tag_263:\n        /* \"#utility.yul\":5227:5449   */\n      swap3\n      swap2\n      pop\n      pop\n      jump\t// out\n        /* \"#utility.yul\":5455:5579   */\n    tag_153:\n        /* \"#utility.yul\":5532:5538   */\n      0x00\n        /* \"#utility.yul\":5566:5571   */\n      dup2\n        /* \"#utility.yul\":5560:5572   */\n      mload\n        /* \"#utility.yul\":5550:5572   */\n      swap1\n      pop\n        /* \"#utility.yul\":5455:5579   */\n      swap2\n      swap1\n      pop\n      jump\t// out\n        /* \"#utility.yul\":5585:5779   */\n    tag_154:\n        /* \"#utility.yul\":5694:5705   */\n      0x00\n        /* \"#utility.yul\":5728:5734   */\n      dup3\n        /* \"#utility.yul\":5723:5726   */\n      dup3\n        /* \"#utility.yul\":5716:5735   */\n      mstore\n        /* \"#utility.yul\":5768:5772   */\n      0x20\n        /* \"#utility.yul\":5763:5766   */\n      dup3\n        /* \"#utility.yul\":5759:5773   */\n      add\n        /* \"#utility.yul\":5744:5773   */\n      swap1\n      pop\n        /* \"#utility.yul\":5585:5779   */\n      swap3\n      swap2\n      pop\n      pop\n      jump\t// out\n        /* \"#utility.yul\":5785:5927   */\n    tag_155:\n        /* \"#utility.yul\":5862:5866   */\n      0x00\n        /* \"#utility.yul\":5885:5888   */\n      dup2\n        /* \"#utility.yul\":5877:5888   */\n      swap1\n      pop\n        /* \"#utility.yul\":5915:5919   */\n      0x20\n        /* \"#utility.yul\":5910:5913   */\n      dup3\n        /* \"#utility.yul\":5906:5920   */\n      add\n        /* \"#utility.yul\":5898:5920   */\n      swap1\n      pop\n        /* \"#utility.yul\":5785:5927   */\n      swap2\n      swap1\n      pop\n      jump\t// out\n        /* \"#utility.yul\":5933:6092   */\n    tag_156:\n        /* \"#utility.yul\":6007:6018   */\n      0x00\n        /* \"#utility.yul\":6041:6047   */\n      dup3\n        /* \"#utility.yul\":6036:6039   */\n      dup3\n        /* \"#utility.yul\":6029:6048   */\n      mstore\n        /* \"#utility.yul\":6081:6085   */\n      0x20\n        /* \"#utility.yul\":6076:6079   */\n      dup3\n        /* \"#utility.yul\":6072:6086   */\n      add\n        /* \"#utility.yul\":6057:6086   */\n      swap1\n      pop\n        /* \"#utility.yul\":5933:6092   */\n      swap3\n      swap2\n      pop\n      pop\n      jump\t// out\n        /* \"#utility.yul\":6098:6455   */\n    tag_157:\n        /* \"#utility.yul\":6176:6179   */\n      0x00\n        /* \"#utility.yul\":6204:6243   */\n      tag_269\n        /* \"#utility.yul\":6237:6242   */\n      dup3\n        /* \"#utility.yul\":6204:6243   */\n      tag_139\n      jump\t// in\n    tag_269:\n        /* \"#utility.yul\":6259:6320   */\n      tag_270\n        /* \"#utility.yul\":6313:6319   */\n      dup2\n        /* \"#utility.yul\":6308:6311   */\n      dup6\n        /* \"#utility.yul\":6259:6320   */\n      tag_156\n      jump\t// in\n    tag_270:\n        /* \"#utility.yul\":6252:6320   */\n      swap4\n      pop\n        /* \"#utility.yul\":6329:6394   */\n      tag_271\n        /* \"#utility.yul\":6387:6393   */\n      dup2\n        /* \"#utility.yul\":6382:6385   */\n      dup6\n        /* \"#utility.yul\":6375:6379   */\n      0x20\n        /* \"#utility.yul\":6368:6373   */\n      dup7\n        /* \"#utility.yul\":6364:6380   */\n      add\n        /* \"#utility.yul\":6329:6394   */\n      tag_141\n      jump\t// in\n    tag_271:\n        /* \"#utility.yul\":6419:6448   */\n      tag_272\n        /* \"#utility.yul\":6441:6447   */\n      dup2\n        /* \"#utility.yul\":6419:6448   */\n      tag_142\n      jump\t// in\n    tag_272:\n        /* \"#utility.yul\":6414:6417   */\n      dup5\n        /* \"#utility.yul\":6410:6449   */\n      add\n        /* \"#utility.yul\":6403:6449   */\n      swap2\n      pop\n        /* \"#utility.yul\":6180:6455   */\n      pop\n        /* \"#utility.yul\":6098:6455   */\n      swap3\n      swap2\n      pop\n      pop\n      jump\t// out\n        /* \"#utility.yul\":6461:6657   */\n    tag_158:\n        /* \"#utility.yul\":6550:6560   */\n      0x00\n        /* \"#utility.yul\":6585:6651   */\n      tag_274\n        /* \"#utility.yul\":6647:6650   */\n      dup4\n        /* \"#utility.yul\":6639:6645   */\n      dup4\n        /* \"#utility.yul\":6585:6651   */\n      tag_157\n      jump\t// in\n    tag_274:\n        /* \"#utility.yul\":6571:6651   */\n      swap1\n      pop\n        /* \"#utility.yul\":6461:6657   */\n      swap3\n      swap2\n      pop\n      pop\n      jump\t// out\n        /* \"#utility.yul\":6663:6786   */\n    tag_159:\n        /* \"#utility.yul\":6743:6747   */\n      0x00\n        /* \"#utility.yul\":6775:6779   */\n      0x20\n        /* \"#utility.yul\":6770:6773   */\n      dup3\n        /* \"#utility.yul\":6766:6780   */\n      add\n        /* \"#utility.yul\":6758:6780   */\n      swap1\n      pop\n        /* \"#utility.yul\":6663:6786   */\n      swap2\n      swap1\n      pop\n      jump\t// out\n        /* \"#utility.yul\":6820:7811   */\n    tag_160:\n        /* \"#utility.yul\":6959:6962   */\n      0x00\n        /* \"#utility.yul\":6988:7052   */\n      tag_277\n        /* \"#utility.yul\":7046:7051   */\n      dup3\n        /* \"#utility.yul\":6988:7052   */\n      tag_153\n      jump\t// in\n    tag_277:\n        /* \"#utility.yul\":7068:7164   */\n      tag_278\n        /* \"#utility.yul\":7157:7163   */\n      dup2\n        /* \"#utility.yul\":7152:7155   */\n      dup6\n        /* \"#utility.yul\":7068:7164   */\n      tag_154\n      jump\t// in\n    tag_278:\n        /* \"#utility.yul\":7061:7164   */\n      swap4\n      pop\n        /* \"#utility.yul\":7190:7193   */\n      dup4\n        /* \"#utility.yul\":7235:7239   */\n      0x20\n        /* \"#utility.yul\":7227:7233   */\n      dup3\n        /* \"#utility.yul\":7223:7240   */\n      mul\n        /* \"#utility.yul\":7218:7221   */\n      dup6\n        /* \"#utility.yul\":7214:7241   */\n      add\n        /* \"#utility.yul\":7265:7331   */\n      tag_279\n        /* \"#utility.yul\":7325:7330   */\n      dup6\n        /* \"#utility.yul\":7265:7331   */\n      tag_155\n      jump\t// in\n    tag_279:\n        /* \"#utility.yul\":7354:7361   */\n      dup1\n        /* \"#utility.yul\":7385:7386   */\n      0x00\n        /* \"#utility.yul\":7370:7766   */\n    tag_280:\n        /* \"#utility.yul\":7395:7401   */\n      dup6\n        /* \"#utility.yul\":7392:7393   */\n      dup2\n        /* \"#utility.yul\":7389:7402   */\n      lt\n        /* \"#utility.yul\":7370:7766   */\n      iszero\n      tag_282\n      jumpi\n        /* \"#utility.yul\":7466:7475   */\n      dup5\n        /* \"#utility.yul\":7460:7464   */\n      dup5\n        /* \"#utility.yul\":7456:7476   */\n      sub\n        /* \"#utility.yul\":7451:7454   */\n      dup10\n        /* \"#utility.yul\":7444:7477   */\n      mstore\n        /* \"#utility.yul\":7517:7523   */\n      dup2\n        /* \"#utility.yul\":7511:7524   */\n      mload\n        /* \"#utility.yul\":7545:7629   */\n      tag_283\n        /* \"#utility.yul\":7624:7628   */\n      dup6\n        /* \"#utility.yul\":7609:7622   */\n      dup3\n        /* \"#utility.yul\":7545:7629   */\n      tag_158\n      jump\t// in\n    tag_283:\n        /* \"#utility.yul\":7537:7629   */\n      swap5\n      pop\n        /* \"#utility.yul\":7652:7722   */\n      tag_284\n        /* \"#utility.yul\":7715:7721   */\n      dup4\n        /* \"#utility.yul\":7652:7722   */\n      tag_159\n      jump\t// in\n    tag_284:\n        /* \"#utility.yul\":7642:7722   */\n      swap3\n      pop\n        /* \"#utility.yul\":7751:7755   */\n      0x20\n        /* \"#utility.yul\":7746:7749   */\n      dup11\n        /* \"#utility.yul\":7742:7756   */\n      add\n        /* \"#utility.yul\":7735:7756   */\n      swap10\n      pop\n        /* \"#utility.yul\":7430:7766   */\n      pop\n        /* \"#utility.yul\":7417:7418   */\n      0x01\n        /* \"#utility.yul\":7414:7415   */\n      dup2\n        /* \"#utility.yul\":7410:7419   */\n      add\n        /* \"#utility.yul\":7405:7419   */\n      swap1\n      pop\n        /* \"#utility.yul\":7370:7766   */\n      jump(tag_280)\n    tag_282:\n        /* \"#utility.yul\":7374:7388   */\n      pop\n        /* \"#utility.yul\":7782:7786   */\n      dup3\n        /* \"#utility.yul\":7775:7786   */\n      swap8\n      pop\n        /* \"#utility.yul\":7802:7805   */\n      dup8\n        /* \"#utility.yul\":7795:7805   */\n      swap6\n      pop\n        /* \"#utility.yul\":6964:7811   */\n      pop\n      pop\n      pop\n      pop\n      pop\n        /* \"#utility.yul\":6820:7811   */\n      swap3\n      swap2\n      pop\n      pop\n      jump\t// out\n        /* \"#utility.yul\":7817:7931   */\n    tag_161:\n        /* \"#utility.yul\":7884:7890   */\n      0x00\n        /* \"#utility.yul\":7918:7923   */\n      dup2\n        /* \"#utility.yul\":7912:7924   */\n      mload\n        /* \"#utility.yul\":7902:7924   */\n      swap1\n      pop\n        /* \"#utility.yul\":7817:7931   */\n      swap2\n      swap1\n      pop\n      jump\t// out\n        /* \"#utility.yul\":7937:8121   */\n    tag_162:\n        /* \"#utility.yul\":8036:8047   */\n      0x00\n        /* \"#utility.yul\":8070:8076   */\n      dup3\n        /* \"#utility.yul\":8065:8068   */\n      dup3\n        /* \"#utility.yul\":8058:8077   */\n      mstore\n        /* \"#utility.yul\":8110:8114   */\n      0x20\n        /* \"#utility.yul\":8105:8108   */\n      dup3\n        /* \"#utility.yul\":8101:8115   */\n      add\n        /* \"#utility.yul\":8086:8115   */\n      swap1\n      pop\n        /* \"#utility.yul\":7937:8121   */\n      swap3\n      swap2\n      pop\n      pop\n      jump\t// out\n        /* \"#utility.yul\":8127:8259   */\n    tag_163:\n        /* \"#utility.yul\":8194:8198   */\n      0x00\n        /* \"#utility.yul\":8217:8220   */\n      dup2\n        /* \"#utility.yul\":8209:8220   */\n      swap1\n      pop\n        /* \"#utility.yul\":8247:8251   */\n      0x20\n        /* \"#utility.yul\":8242:8245   */\n      dup3\n        /* \"#utility.yul\":8238:8252   */\n      add\n        /* \"#utility.yul\":8230:8252   */\n      swap1\n      pop\n        /* \"#utility.yul\":8127:8259   */\n      swap2\n      swap1\n      pop\n      jump\t// out\n        /* \"#utility.yul\":8265:8373   */\n    tag_164:\n        /* \"#utility.yul\":8342:8366   */\n      tag_289\n        /* \"#utility.yul\":8360:8365   */\n      dup2\n        /* \"#utility.yul\":8342:8366   */\n      tag_136\n      jump\t// in\n    tag_289:\n        /* \"#utility.yul\":8337:8340   */\n      dup3\n        /* \"#utility.yul\":8330:8367   */\n      mstore\n        /* \"#utility.yul\":8265:8373   */\n      pop\n      pop\n      jump\t// out\n        /* \"#utility.yul\":8379:8558   */\n    tag_165:\n        /* \"#utility.yul\":8448:8458   */\n      0x00\n        /* \"#utility.yul\":8469:8515   */\n      tag_291\n        /* \"#utility.yul\":8511:8514   */\n      dup4\n        /* \"#utility.yul\":8503:8509   */\n      dup4\n        /* \"#utility.yul\":8469:8515   */\n      tag_164\n      jump\t// in\n    tag_291:\n        /* \"#utility.yul\":8547:8551   */\n      0x20\n        /* \"#utility.yul\":8542:8545   */\n      dup4\n        /* \"#utility.yul\":8538:8552   */\n      add\n        /* \"#utility.yul\":8524:8552   */\n      swap1\n      pop\n        /* \"#utility.yul\":8379:8558   */\n      swap3\n      swap2\n      pop\n      pop\n      jump\t// out\n        /* \"#utility.yul\":8564:8677   */\n    tag_166:\n        /* \"#utility.yul\":8634:8638   */\n      0x00\n        /* \"#utility.yul\":8666:8670   */\n      0x20\n        /* \"#utility.yul\":8661:8664   */\n      dup3\n        /* \"#utility.yul\":8657:8671   */\n      add\n        /* \"#utility.yul\":8649:8671   */\n      swap1\n      pop\n        /* \"#utility.yul\":8564:8677   */\n      swap2\n      swap1\n      pop\n      jump\t// out\n        /* \"#utility.yul\":8713:9445   */\n    tag_167:\n        /* \"#utility.yul\":8832:8835   */\n      0x00\n        /* \"#utility.yul\":8861:8915   */\n      tag_294\n        /* \"#utility.yul\":8909:8914   */\n      dup3\n        /* \"#utility.yul\":8861:8915   */\n      tag_161\n      jump\t// in\n    tag_294:\n        /* \"#utility.yul\":8931:9017   */\n      tag_295\n        /* \"#utility.yul\":9010:9016   */\n      dup2\n        /* \"#utility.yul\":9005:9008   */\n      dup6\n        /* \"#utility.yul\":8931:9017   */\n      tag_162\n      jump\t// in\n    tag_295:\n        /* \"#utility.yul\":8924:9017   */\n      swap4\n      pop\n        /* \"#utility.yul\":9041:9097   */\n      tag_296\n        /* \"#utility.yul\":9091:9096   */\n      dup4\n        /* \"#utility.yul\":9041:9097   */\n      tag_163\n      jump\t// in\n    tag_296:\n        /* \"#utility.yul\":9120:9127   */\n      dup1\n        /* \"#utility.yul\":9151:9152   */\n      0x00\n        /* \"#utility.yul\":9136:9420   */\n    tag_297:\n        /* \"#utility.yul\":9161:9167   */\n      dup4\n        /* \"#utility.yul\":9158:9159   */\n      dup2\n        /* \"#utility.yul\":9155:9168   */\n      lt\n        /* \"#utility.yul\":9136:9420   */\n      iszero\n      tag_299\n      jumpi\n        /* \"#utility.yul\":9237:9243   */\n      dup2\n        /* \"#utility.yul\":9231:9244   */\n      mload\n        /* \"#utility.yul\":9264:9327   */\n      tag_300\n        /* \"#utility.yul\":9323:9326   */\n      dup9\n        /* \"#utility.yul\":9308:9321   */\n      dup3\n        /* \"#utility.yul\":9264:9327   */\n      tag_165\n      jump\t// in\n    tag_300:\n        /* \"#utility.yul\":9257:9327   */\n      swap8\n      pop\n        /* \"#utility.yul\":9350:9410   */\n      tag_301\n        /* \"#utility.yul\":9403:9409   */\n      dup4\n        /* \"#utility.yul\":9350:9410   */\n      tag_166\n      jump\t// in\n    tag_301:\n        /* \"#utility.yul\":9340:9410   */\n      swap3\n      pop\n        /* \"#utility.yul\":9196:9420   */\n      pop\n        /* \"#utility.yul\":9183:9184   */\n      0x01\n        /* \"#utility.yul\":9180:9181   */\n      dup2\n        /* \"#utility.yul\":9176:9185   */\n      add\n        /* \"#utility.yul\":9171:9185   */\n      swap1\n      pop\n        /* \"#utility.yul\":9136:9420   */\n      jump(tag_297)\n    tag_299:\n        /* \"#utility.yul\":9140:9154   */\n      pop\n        /* \"#utility.yul\":9436:9439   */\n      dup6\n        /* \"#utility.yul\":9429:9439   */\n      swap4\n      pop\n        /* \"#utility.yul\":8837:9445   */\n      pop\n      pop\n      pop\n        /* \"#utility.yul\":8713:9445   */\n      swap3\n      swap2\n      pop\n      pop\n      jump\t// out\n        /* \"#utility.yul\":9451:10125   */\n    tag_30:\n        /* \"#utility.yul\":9692:9696   */\n      0x00\n        /* \"#utility.yul\":9730:9732   */\n      0x40\n        /* \"#utility.yul\":9719:9728   */\n      dup3\n        /* \"#utility.yul\":9715:9733   */\n      add\n        /* \"#utility.yul\":9707:9733   */\n      swap1\n      pop\n        /* \"#utility.yul\":9779:9788   */\n      dup2\n        /* \"#utility.yul\":9773:9777   */\n      dup2\n        /* \"#utility.yul\":9769:9789   */\n      sub\n        /* \"#utility.yul\":9765:9766   */\n      0x00\n        /* \"#utility.yul\":9754:9763   */\n      dup4\n        /* \"#utility.yul\":9750:9767   */\n      add\n        /* \"#utility.yul\":9743:9790   */\n      mstore\n        /* \"#utility.yul\":9807:9935   */\n      tag_303\n        /* \"#utility.yul\":9930:9934   */\n      dup2\n        /* \"#utility.yul\":9921:9927   */\n      dup6\n        /* \"#utility.yul\":9807:9935   */\n      tag_160\n      jump\t// in\n    tag_303:\n        /* \"#utility.yul\":9799:9935   */\n      swap1\n      pop\n        /* \"#utility.yul\":9982:9991   */\n      dup2\n        /* \"#utility.yul\":9976:9980   */\n      dup2\n        /* \"#utility.yul\":9972:9992   */\n      sub\n        /* \"#utility.yul\":9967:9969   */\n      0x20\n        /* \"#utility.yul\":9956:9965   */\n      dup4\n        /* \"#utility.yul\":9952:9970   */\n      add\n        /* \"#utility.yul\":9945:9993   */\n      mstore\n        /* \"#utility.yul\":10010:10118   */\n      tag_304\n        /* \"#utility.yul\":10113:10117   */\n      dup2\n        /* \"#utility.yul\":10104:10110   */\n      dup5\n        /* \"#utility.yul\":10010:10118   */\n      tag_167\n      jump\t// in\n    tag_304:\n        /* \"#utility.yul\":10002:10118   */\n      swap1\n      pop\n        /* \"#utility.yul\":9451:10125   */\n      swap4\n      swap3\n      pop\n      pop\n      pop\n      jump\t// out\n        /* \"#utility.yul\":10131:10257   */\n    tag_168:\n        /* \"#utility.yul\":10168:10175   */\n      0x00\n        /* \"#utility.yul\":10208:10250   */\n      0xffffffffffffffffffffffffffffffffffffffff\n        /* \"#utility.yul\":10201:10206   */\n      dup3\n        /* \"#utility.yul\":10197:10251   */\n      and\n        /* \"#utility.yul\":10186:10251   */\n      swap1\n      pop\n        /* \"#utility.yul\":10131:10257   */\n      swap2\n      swap1\n      pop\n      jump\t// out\n        /* \"#utility.yul\":10263:10359   */\n    tag_169:\n        /* \"#utility.yul\":10300:10307   */\n      0x00\n        /* \"#utility.yul\":10329:10353   */\n      tag_307\n        /* \"#utility.yul\":10347:10352   */\n      dup3\n        /* \"#utility.yul\":10329:10353   */\n      tag_168\n      jump\t// in\n    tag_307:\n        /* \"#utility.yul\":10318:10353   */\n      swap1\n      pop\n        /* \"#utility.yul\":10263:10359   */\n      swap2\n      swap1\n      pop\n      jump\t// out\n        /* \"#utility.yul\":10365:10483   */\n    tag_170:\n        /* \"#utility.yul\":10452:10476   */\n      tag_309\n        /* \"#utility.yul\":10470:10475   */\n      dup2\n        /* \"#utility.yul\":10452:10476   */\n      tag_169\n      jump\t// in\n    tag_309:\n        /* \"#utility.yul\":10447:10450   */\n      dup3\n        /* \"#utility.yul\":10440:10477   */\n      mstore\n        /* \"#utility.yul\":10365:10483   */\n      pop\n      pop\n      jump\t// out\n        /* \"#utility.yul\":10489:10711   */\n    tag_40:\n        /* \"#utility.yul\":10582:10586   */\n      0x00\n        /* \"#utility.yul\":10620:10622   */\n      0x20\n        /* \"#utility.yul\":10609:10618   */\n      dup3\n        /* \"#utility.yul\":10605:10623   */\n      add\n        /* \"#utility.yul\":10597:10623   */\n      swap1\n      pop\n        /* \"#utility.yul\":10633:10704   */\n      tag_311\n        /* \"#utility.yul\":10701:10702   */\n      0x00\n        /* \"#utility.yul\":10690:10699   */\n      dup4\n        /* \"#utility.yul\":10686:10703   */\n      add\n        /* \"#utility.yul\":10677:10683   */\n      dup5\n        /* \"#utility.yul\":10633:10704   */\n      tag_170\n      jump\t// in\n    tag_311:\n        /* \"#utility.yul\":10489:10711   */\n      swap3\n      swap2\n      pop\n      pop\n      jump\t// out\n        /* \"#utility.yul\":10717:10839   */\n    tag_171:\n        /* \"#utility.yul\":10790:10814   */\n      tag_313\n        /* \"#utility.yul\":10808:10813   */\n      dup2\n        /* \"#utility.yul\":10790:10814   */\n      tag_169\n      jump\t// in\n    tag_313:\n        /* \"#utility.yul\":10783:10788   */\n      dup2\n        /* \"#utility.yul\":10780:10815   */\n      eq\n        /* \"#utility.yul\":10770:10833   */\n      tag_314\n      jumpi\n        /* \"#utility.yul\":10829:10830   */\n      0x00\n        /* \"#utility.yul\":10826:10827   */\n      dup1\n        /* \"#utility.yul\":10819:10831   */\n      revert\n        /* \"#utility.yul\":10770:10833   */\n    tag_314:\n        /* \"#utility.yul\":10717:10839   */\n      pop\n      jump\t// out\n        /* \"#utility.yul\":10845:10984   */\n    tag_172:\n        /* \"#utility.yul\":10891:10896   */\n      0x00\n        /* \"#utility.yul\":10929:10935   */\n      dup2\n        /* \"#utility.yul\":10916:10936   */\n      calldataload\n        /* \"#utility.yul\":10907:10936   */\n      swap1\n      pop\n        /* \"#utility.yul\":10945:10978   */\n      tag_316\n        /* \"#utility.yul\":10972:10977   */\n      dup2\n        /* \"#utility.yul\":10945:10978   */\n      tag_171\n      jump\t// in\n    tag_316:\n        /* \"#utility.yul\":10845:10984   */\n      swap3\n      swap2\n      pop\n      pop\n      jump\t// out\n        /* \"#utility.yul\":10990:11319   */\n    tag_43:\n        /* \"#utility.yul\":11049:11055   */\n      0x00\n        /* \"#utility.yul\":11098:11100   */\n      0x20\n        /* \"#utility.yul\":11086:11095   */\n      dup3\n        /* \"#utility.yul\":11077:11084   */\n      dup5\n        /* \"#utility.yul\":11073:11096   */\n      sub\n        /* \"#utility.yul\":11069:11101   */\n      slt\n        /* \"#utility.yul\":11066:11185   */\n      iszero\n      tag_318\n      jumpi\n        /* \"#utility.yul\":11104:11183   */\n      tag_319\n      tag_134\n      jump\t// in\n    tag_319:\n        /* \"#utility.yul\":11066:11185   */\n    tag_318:\n        /* \"#utility.yul\":11224:11225   */\n      0x00\n        /* \"#utility.yul\":11249:11302   */\n      tag_320\n        /* \"#utility.yul\":11294:11301   */\n      dup5\n        /* \"#utility.yul\":11285:11291   */\n      dup3\n        /* \"#utility.yul\":11274:11283   */\n      dup6\n        /* \"#utility.yul\":11270:11292   */\n      add\n        /* \"#utility.yul\":11249:11302   */\n      tag_172\n      jump\t// in\n    tag_320:\n        /* \"#utility.yul\":11239:11302   */\n      swap2\n      pop\n        /* \"#utility.yul\":11195:11312   */\n      pop\n        /* \"#utility.yul\":10990:11319   */\n      swap3\n      swap2\n      pop\n      pop\n      jump\t// out\n        /* \"#utility.yul\":11325:11505   */\n    tag_173:\n        /* \"#utility.yul\":11373:11450   */\n      0x4e487b7100000000000000000000000000000000000000000000000000000000\n        /* \"#utility.yul\":11370:11371   */\n      0x00\n        /* \"#utility.yul\":11363:11451   */\n      mstore\n        /* \"#utility.yul\":11470:11474   */\n      0x22\n        /* \"#utility.yul\":11467:11468   */\n      0x04\n        /* \"#utility.yul\":11460:11475   */\n      mstore\n        /* \"#utility.yul\":11494:11498   */\n      0x24\n        /* \"#utility.yul\":11491:11492   */\n      0x00\n        /* \"#utility.yul\":11484:11499   */\n      revert\n        /* \"#utility.yul\":11511:11831   */\n    tag_48:\n        /* \"#utility.yul\":11555:11561   */\n      0x00\n        /* \"#utility.yul\":11592:11593   */\n      0x02\n        /* \"#utility.yul\":11586:11590   */\n      dup3\n        /* \"#utility.yul\":11582:11594   */\n      div\n        /* \"#utility.yul\":11572:11594   */\n      swap1\n      pop\n        /* \"#utility.yul\":11639:11640   */\n      0x01\n        /* \"#utility.yul\":11633:11637   */\n      dup3\n        /* \"#utility.yul\":11629:11641   */\n      and\n        /* \"#utility.yul\":11660:11678   */\n      dup1\n        /* \"#utility.yul\":11650:11731   */\n      tag_323\n      jumpi\n        /* \"#utility.yul\":11716:11720   */\n      0x7f\n        /* \"#utility.yul\":11708:11714   */\n      dup3\n        /* \"#utility.yul\":11704:11721   */\n      and\n        /* \"#utility.yul\":11694:11721   */\n      swap2\n      pop\n        /* \"#utility.yul\":11650:11731   */\n    tag_323:\n        /* \"#utility.yul\":11778:11780   */\n      0x20\n        /* \"#utility.yul\":11770:11776   */\n      dup3\n        /* \"#utility.yul\":11767:11781   */\n      lt\n        /* \"#utility.yul\":11747:11765   */\n      dup2\n        /* \"#utility.yul\":11744:11782   */\n      sub\n        /* \"#utility.yul\":11741:11825   */\n      tag_324\n      jumpi\n        /* \"#utility.yul\":11797:11815   */\n      tag_325\n      tag_173\n      jump\t// in\n    tag_325:\n        /* \"#utility.yul\":11741:11825   */\n    tag_324:\n        /* \"#utility.yul\":11562:11831   */\n      pop\n        /* \"#utility.yul\":11511:11831   */\n      swap2\n      swap1\n      pop\n      jump\t// out\n        /* \"#utility.yul\":11837:11985   */\n    tag_174:\n        /* \"#utility.yul\":11939:11950   */\n      0x00\n        /* \"#utility.yul\":11976:11979   */\n      dup2\n        /* \"#utility.yul\":11961:11979   */\n      swap1\n      pop\n        /* \"#utility.yul\":11837:11985   */\n      swap3\n      swap2\n      pop\n      pop\n      jump\t// out\n        /* \"#utility.yul\":11991:12381   */\n    tag_175:\n        /* \"#utility.yul\":12097:12100   */\n      0x00\n        /* \"#utility.yul\":12125:12164   */\n      tag_328\n        /* \"#utility.yul\":12158:12163   */\n      dup3\n        /* \"#utility.yul\":12125:12164   */\n      tag_139\n      jump\t// in\n    tag_328:\n        /* \"#utility.yul\":12180:12269   */\n      tag_329\n        /* \"#utility.yul\":12262:12268   */\n      dup2\n        /* \"#utility.yul\":12257:12260   */\n      dup6\n        /* \"#utility.yul\":12180:12269   */\n      tag_174\n      jump\t// in\n    tag_329:\n        /* \"#utility.yul\":12173:12269   */\n      swap4\n      pop\n        /* \"#utility.yul\":12278:12343   */\n      tag_330\n        /* \"#utility.yul\":12336:12342   */\n      dup2\n        /* \"#utility.yul\":12331:12334   */\n      dup6\n        /* \"#utility.yul\":12324:12328   */\n      0x20\n        /* \"#utility.yul\":12317:12322   */\n      dup7\n        /* \"#utility.yul\":12313:12329   */\n      add\n        /* \"#utility.yul\":12278:12343   */\n      tag_141\n      jump\t// in\n    tag_330:\n        /* \"#utility.yul\":12368:12374   */\n      dup1\n        /* \"#utility.yul\":12363:12366   */\n      dup5\n        /* \"#utility.yul\":12359:12375   */\n      add\n        /* \"#utility.yul\":12352:12375   */\n      swap2\n      pop\n        /* \"#utility.yul\":12101:12381   */\n      pop\n        /* \"#utility.yul\":11991:12381   */\n      swap3\n      swap2\n      pop\n      pop\n      jump\t// out\n        /* \"#utility.yul\":12387:12662   */\n    tag_55:\n        /* \"#utility.yul\":12519:12522   */\n      0x00\n        /* \"#utility.yul\":12541:12636   */\n      tag_332\n        /* \"#utility.yul\":12632:12635   */\n      dup3\n        /* \"#utility.yul\":12623:12629   */\n      dup5\n        /* \"#utility.yul\":12541:12636   */\n      tag_175\n      jump\t// in\n    tag_332:\n        /* \"#utility.yul\":12534:12636   */\n      swap2\n      pop\n        /* \"#utility.yul\":12653:12656   */\n      dup2\n        /* \"#utility.yul\":12646:12656   */\n      swap1\n      pop\n        /* \"#utility.yul\":12387:12662   */\n      swap3\n      swap2\n      pop\n      pop\n      jump\t// out\n        /* \"#utility.yul\":12668:12846   */\n    tag_176:\n        /* \"#utility.yul\":12808:12838   */\n      0x64617461206e6f7420666f756e6420696e20746865206c656467657200000000\n        /* \"#utility.yul\":12804:12805   */\n      0x00\n        /* \"#utility.yul\":12796:12802   */\n      dup3\n        /* \"#utility.yul\":12792:12806   */\n      add\n        /* \"#utility.yul\":12785:12839   */\n      mstore\n        /* \"#utility.yul\":12668:12846   */\n      pop\n      jump\t// out\n        /* \"#utility.yul\":12852:13218   */\n    tag_177:\n        /* \"#utility.yul\":12994:12997   */\n      0x00\n        /* \"#utility.yul\":13015:13082   */\n      tag_335\n        /* \"#utility.yul\":13079:13081   */\n      0x1c\n        /* \"#utility.yul\":13074:13077   */\n      dup4\n        /* \"#utility.yul\":13015:13082   */\n      tag_140\n      jump\t// in\n    tag_335:\n        /* \"#utility.yul\":13008:13082   */\n      swap2\n      pop\n        /* \"#utility.yul\":13091:13184   */\n      tag_336\n        /* \"#utility.yul\":13180:13183   */\n      dup3\n        /* \"#utility.yul\":13091:13184   */\n      tag_176\n      jump\t// in\n    tag_336:\n        /* \"#utility.yul\":13209:13211   */\n      0x20\n        /* \"#utility.yul\":13204:13207   */\n      dup3\n        /* \"#utility.yul\":13200:13212   */\n      add\n        /* \"#utility.yul\":13193:13212   */\n      swap1\n      pop\n        /* \"#utility.yul\":12852:13218   */\n      swap2\n      swap1\n      pop\n      jump\t// out\n        /* \"#utility.yul\":13224:13643   */\n    tag_58:\n        /* \"#utility.yul\":13390:13394   */\n      0x00\n        /* \"#utility.yul\":13428:13430   */\n      0x20\n        /* \"#utility.yul\":13417:13426   */\n      dup3\n        /* \"#utility.yul\":13413:13431   */\n      add\n        /* \"#utility.yul\":13405:13431   */\n      swap1\n      pop\n        /* \"#utility.yul\":13477:13486   */\n      dup2\n        /* \"#utility.yul\":13471:13475   */\n      dup2\n        /* \"#utility.yul\":13467:13487   */\n      sub\n        /* \"#utility.yul\":13463:13464   */\n      0x00\n        /* \"#utility.yul\":13452:13461   */\n      dup4\n        /* \"#utility.yul\":13448:13465   */\n      add\n        /* \"#utility.yul\":13441:13488   */\n      mstore\n        /* \"#utility.yul\":13505:13636   */\n      tag_338\n        /* \"#utility.yul\":13631:13635   */\n      dup2\n        /* \"#utility.yul\":13505:13636   */\n      tag_177\n      jump\t// in\n    tag_338:\n        /* \"#utility.yul\":13497:13636   */\n      swap1\n      pop\n        /* \"#utility.yul\":13224:13643   */\n      swap2\n      swap1\n      pop\n      jump\t// out\n        /* \"#utility.yul\":13649:13831   */\n    tag_178:\n        /* \"#utility.yul\":13789:13823   */\n      0x4f776e61626c653a2063616c6c6572206973206e6f7420746865206f776e6572\n        /* \"#utility.yul\":13785:13786   */\n      0x00\n        /* \"#utility.yul\":13777:13783   */\n      dup3\n        /* \"#utility.yul\":13773:13787   */\n      add\n        /* \"#utility.yul\":13766:13824   */\n      mstore\n        /* \"#utility.yul\":13649:13831   */\n      pop\n      jump\t// out\n        /* \"#utility.yul\":13837:14203   */\n    tag_179:\n        /* \"#utility.yul\":13979:13982   */\n      0x00\n        /* \"#utility.yul\":14000:14067   */\n      tag_341\n        /* \"#utility.yul\":14064:14066   */\n      0x20\n        /* \"#utility.yul\":14059:14062   */\n      dup4\n        /* \"#utility.yul\":14000:14067   */\n      tag_140\n      jump\t// in\n    tag_341:\n        /* \"#utility.yul\":13993:14067   */\n      swap2\n      pop\n        /* \"#utility.yul\":14076:14169   */\n      tag_342\n        /* \"#utility.yul\":14165:14168   */\n      dup3\n        /* \"#utility.yul\":14076:14169   */\n      tag_178\n      jump\t// in\n    tag_342:\n        /* \"#utility.yul\":14194:14196   */\n      0x20\n        /* \"#utility.yul\":14189:14192   */\n      dup3\n        /* \"#utility.yul\":14185:14197   */\n      add\n        /* \"#utility.yul\":14178:14197   */\n      swap1\n      pop\n        /* \"#utility.yul\":13837:14203   */\n      swap2\n      swap1\n      pop\n      jump\t// out\n        /* \"#utility.yul\":14209:14628   */\n    tag_66:\n        /* \"#utility.yul\":14375:14379   */\n      0x00\n        /* \"#utility.yul\":14413:14415   */\n      0x20\n        /* \"#utility.yul\":14402:14411   */\n      dup3\n        /* \"#utility.yul\":14398:14416   */\n      add\n        /* \"#utility.yul\":14390:14416   */\n      swap1\n      pop\n        /* \"#utility.yul\":14462:14471   */\n      dup2\n        /* \"#utility.yul\":14456:14460   */\n      dup2\n        /* \"#utility.yul\":14452:14472   */\n      sub\n        /* \"#utility.yul\":14448:14449   */\n      0x00\n        /* \"#utility.yul\":14437:14446   */\n      dup4\n        /* \"#utility.yul\":14433:14450   */\n      add\n        /* \"#utility.yul\":14426:14473   */\n      mstore\n        /* \"#utility.yul\":14490:14621   */\n      tag_344\n        /* \"#utility.yul\":14616:14620   */\n      dup2\n        /* \"#utility.yul\":14490:14621   */\n      tag_179\n      jump\t// in\n    tag_344:\n        /* \"#utility.yul\":14482:14621   */\n      swap1\n      pop\n        /* \"#utility.yul\":14209:14628   */\n      swap2\n      swap1\n      pop\n      jump\t// out\n        /* \"#utility.yul\":14634:14854   */\n    tag_180:\n        /* \"#utility.yul\":14774:14808   */\n      0x4461746120616c72656164792065786973747320696e20746865206c65646765\n        /* \"#utility.yul\":14770:14771   */\n      0x00\n        /* \"#utility.yul\":14762:14768   */\n      dup3\n        /* \"#utility.yul\":14758:14772   */\n      add\n        /* \"#utility.yul\":14751:14809   */\n      mstore\n        /* \"#utility.yul\":14843:14846   */\n      0x7200000000000000000000000000000000000000000000000000000000000000\n        /* \"#utility.yul\":14838:14840   */\n      0x20\n        /* \"#utility.yul\":14830:14836   */\n      dup3\n        /* \"#utility.yul\":14826:14841   */\n      add\n        /* \"#utility.yul\":14819:14847   */\n      mstore\n        /* \"#utility.yul\":14634:14854   */\n      pop\n      jump\t// out\n        /* \"#utility.yul\":14860:15226   */\n    tag_181:\n        /* \"#utility.yul\":15002:15005   */\n      0x00\n        /* \"#utility.yul\":15023:15090   */\n      tag_347\n        /* \"#utility.yul\":15087:15089   */\n      0x21\n        /* \"#utility.yul\":15082:15085   */\n      dup4\n        /* \"#utility.yul\":15023:15090   */\n      tag_140\n      jump\t// in\n    tag_347:\n        /* \"#utility.yul\":15016:15090   */\n      swap2\n      pop\n        /* \"#utility.yul\":15099:15192   */\n      tag_348\n        /* \"#utility.yul\":15188:15191   */\n      dup3\n        /* \"#utility.yul\":15099:15192   */\n      tag_180\n      jump\t// in\n    tag_348:\n        /* \"#utility.yul\":15217:15219   */\n      0x40\n        /* \"#utility.yul\":15212:15215   */\n      dup3\n        /* \"#utility.yul\":15208:15220   */\n      add\n        /* \"#utility.yul\":15201:15220   */\n      swap1\n      pop\n        /* \"#utility.yul\":14860:15226   */\n      swap2\n      swap1\n      pop\n      jump\t// out\n        /* \"#utility.yul\":15232:15651   */\n    tag_71:\n        /* \"#utility.yul\":15398:15402   */\n      0x00\n        /* \"#utility.yul\":15436:15438   */\n      0x20\n        /* \"#utility.yul\":15425:15434   */\n      dup3\n        /* \"#utility.yul\":15421:15439   */\n      add\n        /* \"#utility.yul\":15413:15439   */\n      swap1\n      pop\n        /* \"#utility.yul\":15485:15494   */\n      dup2\n        /* \"#utility.yul\":15479:15483   */\n      dup2\n        /* \"#utility.yul\":15475:15495   */\n      sub\n        /* \"#utility.yul\":15471:15472   */\n      0x00\n        /* \"#utility.yul\":15460:15469   */\n      dup4\n        /* \"#utility.yul\":15456:15473   */\n      add\n        /* \"#utility.yul\":15449:15496   */\n      mstore\n        /* \"#utility.yul\":15513:15644   */\n      tag_350\n        /* \"#utility.yul\":15639:15643   */\n      dup2\n        /* \"#utility.yul\":15513:15644   */\n      tag_181\n      jump\t// in\n    tag_350:\n        /* \"#utility.yul\":15505:15644   */\n      swap1\n      pop\n        /* \"#utility.yul\":15232:15651   */\n      swap2\n      swap1\n      pop\n      jump\t// out\n        /* \"#utility.yul\":15657:15798   */\n    tag_182:\n        /* \"#utility.yul\":15706:15710   */\n      0x00\n        /* \"#utility.yul\":15729:15732   */\n      dup2\n        /* \"#utility.yul\":15721:15732   */\n      swap1\n      pop\n        /* \"#utility.yul\":15752:15755   */\n      dup2\n        /* \"#utility.yul\":15749:15750   */\n      0x00\n        /* \"#utility.yul\":15742:15756   */\n      mstore\n        /* \"#utility.yul\":15786:15790   */\n      0x20\n        /* \"#utility.yul\":15783:15784   */\n      0x00\n        /* \"#utility.yul\":15773:15791   */\n      keccak256\n        /* \"#utility.yul\":15765:15791   */\n      swap1\n      pop\n        /* \"#utility.yul\":15657:15798   */\n      swap2\n      swap1\n      pop\n      jump\t// out\n        /* \"#utility.yul\":15804:15897   */\n    tag_183:\n        /* \"#utility.yul\":15841:15847   */\n      0x00\n        /* \"#utility.yul\":15888:15890   */\n      0x20\n        /* \"#utility.yul\":15883:15885   */\n      0x1f\n        /* \"#utility.yul\":15876:15881   */\n      dup4\n        /* \"#utility.yul\":15872:15886   */\n      add\n        /* \"#utility.yul\":15868:15891   */\n      div\n        /* \"#utility.yul\":15858:15891   */\n      swap1\n      pop\n        /* \"#utility.yul\":15804:15897   */\n      swap2\n      swap1\n      pop\n      jump\t// out\n        /* \"#utility.yul\":15903:16010   */\n    tag_184:\n        /* \"#utility.yul\":15947:15955   */\n      0x00\n        /* \"#utility.yul\":15997:16002   */\n      dup3\n        /* \"#utility.yul\":15991:15995   */\n      dup3\n        /* \"#utility.yul\":15987:16003   */\n      shl\n        /* \"#utility.yul\":15966:16003   */\n      swap1\n      pop\n        /* \"#utility.yul\":15903:16010   */\n      swap3\n      swap2\n      pop\n      pop\n      jump\t// out\n        /* \"#utility.yul\":16016:16409   */\n    tag_185:\n        /* \"#utility.yul\":16085:16091   */\n      0x00\n        /* \"#utility.yul\":16135:16136   */\n      0x08\n        /* \"#utility.yul\":16123:16133   */\n      dup4\n        /* \"#utility.yul\":16119:16137   */\n      mul\n        /* \"#utility.yul\":16158:16255   */\n      tag_355\n        /* \"#utility.yul\":16188:16254   */\n      0xffffffffffffffffffffffffffffffffffffffffffffffffffffffffffffffff\n        /* \"#utility.yul\":16177:16186   */\n      dup3\n        /* \"#utility.yul\":16158:16255   */\n      tag_184\n      jump\t// in\n    tag_355:\n        /* \"#utility.yul\":16276:16315   */\n      tag_356\n        /* \"#utility.yul\":16306:16314   */\n      dup7\n        /* \"#utility.yul\":16295:16304   */\n      dup4\n        /* \"#utility.yul\":16276:16315   */\n      tag_184\n      jump\t// in\n    tag_356:\n        /* \"#utility.yul\":16264:16315   */\n      swap6\n      pop\n        /* \"#utility.yul\":16348:16352   */\n      dup1\n        /* \"#utility.yul\":16344:16353   */\n      not\n        /* \"#utility.yul\":16337:16342   */\n      dup5\n        /* \"#utility.yul\":16333:16354   */\n      and\n        /* \"#utility.yul\":16324:16354   */\n      swap4\n      pop\n        /* \"#utility.yul\":16397:16401   */\n      dup1\n        /* \"#utility.yul\":16387:16395   */\n      dup7\n        /* \"#utility.yul\":16383:16402   */\n      and\n        /* \"#utility.yul\":16376:16381   */\n      dup5\n        /* \"#utility.yul\":16373:16403   */\n      or\n        /* \"#utility.yul\":16363:16403   */\n      swap3\n      pop\n        /* \"#utility.yul\":16092:16409   */\n      pop\n      pop\n        /* \"#utility.yul\":16016:16409   */\n      swap4\n      swap3\n      pop\n      pop\n      pop\n      jump\t// out\n        /* \"#utility.yul\":16415:16475   */\n    tag_186:\n        /* \"#utility.yul\":16443:16446   */\n      0x00\n        /* \"#utility.yul\":16464:16469   */\n      dup2\n        /* \"#utility.yul\":16457:16469   */\n      swap1\n      pop\n        /* \"#utility.yul\":16415:16475   */\n      swap2\n      swap1\n      pop\n      jump\t// out\n        /* \"#utility.yul\":16481:16623   */\n    tag_187:\n        /* \"#utility.yul\":16531:16540   */\n      0x00\n        /* \"#utility.yul\":16564:16617   */\n      tag_359\n        /* \"#utility.yul\":16582:16616   */\n      tag_360\n        /* \"#utility.yul\":16591:16615   */\n      tag_361\n        /* \"#utility.yul\":16609:16614   */\n      dup5\n        /* \"#utility.yul\":16591:16615   */\n      tag_136\n      jump\t// in\n    tag_361:\n        /* \"#utility.yul\":16582:16616   */\n      tag_186\n      jump\t// in\n    tag_360:\n        /* \"#utility.yul\":16564:16617   */\n      tag_136\n      jump\t// in\n    tag_359:\n        /* \"#utility.yul\":16551:16617   */\n      swap1\n      pop\n        /* \"#utility.yul\":16481:16623   */\n      swap2\n      swap1\n      pop\n      jump\t// out\n        /* \"#utility.yul\":16629:16704   */\n    tag_188:\n        /* \"#utility.yul\":16672:16675   */\n      0x00\n        /* \"#utility.yul\":16693:16698   */\n      dup2\n        /* \"#utility.yul\":16686:16698   */\n      swap1\n      pop\n        /* \"#utility.yul\":16629:16704   */\n      swap2\n      swap1\n      pop\n      jump\t// out\n        /* \"#utility.yul\":16710:16979   */\n    tag_189:\n        /* \"#utility.yul\":16820:16859   */\n      tag_364\n        /* \"#utility.yul\":16851:16858   */\n      dup4\n        /* \"#utility.yul\":16820:16859   */\n      tag_187\n      jump\t// in\n    tag_364:\n        /* \"#utility.yul\":16881:16972   */\n      tag_365\n        /* \"#utility.yul\":16930:16971   */\n      tag_366\n        /* \"#utility.yul\":16954:16970   */\n      dup3\n        /* \"#utility.yul\":16930:16971   */\n      tag_188\n      jump\t// in\n    tag_366:\n        /* \"#utility.yul\":16922:16928   */\n      dup5\n        /* \"#utility.yul\":16915:16919   */\n      dup5\n        /* \"#utility.yul\":16909:16920   */\n      sload\n        /* \"#utility.yul\":16881:16972   */\n      tag_185\n      jump\t// in\n    tag_365:\n        /* \"#utility.yul\":16875:16879   */\n      dup3\n        /* \"#utility.yul\":16868:16973   */\n      sstore\n        /* \"#utility.yul\":16786:16979   */\n      pop\n        /* \"#utility.yul\":16710:16979   */\n      pop\n      pop\n      pop\n      jump\t// out\n        /* \"#utility.yul\":16985:17058   */\n    tag_190:\n        /* \"#utility.yul\":17030:17033   */\n      0x00\n        /* \"#utility.yul\":16985:17058   */\n      swap1\n      jump\t// out\n        /* \"#utility.yul\":17064:17253   */\n    tag_191:\n        /* \"#utility.yul\":17141:17173   */\n      tag_369\n      tag_190\n      jump\t// in\n    tag_369:\n        /* \"#utility.yul\":17182:17247   */\n      tag_370\n        /* \"#utility.yul\":17240:17246   */\n      dup2\n        /* \"#utility.yul\":17232:17238   */\n      dup5\n        /* \"#utility.yul\":17226:17230   */\n      dup5\n        /* \"#utility.yul\":17182:17247   */\n      tag_189\n      jump\t// in\n    tag_370:\n        /* \"#utility.yul\":17117:17253   */\n      pop\n        /* \"#utility.yul\":17064:17253   */\n      pop\n      pop\n      jump\t// out\n        /* \"#utility.yul\":17259:17445   */\n    tag_192:\n        /* \"#utility.yul\":17319:17439   */\n    tag_372:\n        /* \"#utility.yul\":17336:17339   */\n      dup2\n        /* \"#utility.yul\":17329:17334   */\n      dup2\n        /* \"#utility.yul\":17326:17340   */\n      lt\n        /* \"#utility.yul\":17319:17439   */\n      iszero\n      tag_374\n      jumpi\n        /* \"#utility.yul\":17390:17429   */\n      tag_375\n        /* \"#utility.yul\":17427:17428   */\n      0x00\n        /* \"#utility.yul\":17420:17425   */\n      dup3\n        /* \"#utility.yul\":17390:17429   */\n      tag_191\n      jump\t// in\n    tag_375:\n        /* \"#utility.yul\":17363:17364   */\n      0x01\n        /* \"#utility.yul\":17356:17361   */\n      dup2\n        /* \"#utility.yul\":17352:17365   */\n      add\n        /* \"#utility.yul\":17343:17365   */\n      swap1\n      pop\n        /* \"#utility.yul\":17319:17439   */\n      jump(tag_372)\n    tag_374:\n        /* \"#utility.yul\":17259:17445   */\n      pop\n      pop\n      jump\t// out\n        /* \"#utility.yul\":17451:17994   */\n    tag_193:\n        /* \"#utility.yul\":17552:17554   */\n      0x1f\n        /* \"#utility.yul\":17547:17550   */\n      dup3\n        /* \"#utility.yul\":17544:17555   */\n      gt\n        /* \"#utility.yul\":17541:17987   */\n      iszero\n      tag_377\n      jumpi\n        /* \"#utility.yul\":17586:17624   */\n      tag_378\n        /* \"#utility.yul\":17618:17623   */\n      dup2\n        /* \"#utility.yul\":17586:17624   */\n      tag_182\n      jump\t// in\n    tag_378:\n        /* \"#utility.yul\":17670:17699   */\n      tag_379\n        /* \"#utility.yul\":17688:17698   */\n      dup5\n        /* \"#utility.yul\":17670:17699   */\n      tag_183\n      jump\t// in\n    tag_379:\n        /* \"#utility.yul\":17660:17668   */\n      dup2\n        /* \"#utility.yul\":17656:17700   */\n      add\n        /* \"#utility.yul\":17853:17855   */\n      0x20\n        /* \"#utility.yul\":17841:17851   */\n      dup6\n        /* \"#utility.yul\":17838:17856   */\n      lt\n        /* \"#utility.yul\":17835:17884   */\n      iszero\n      tag_380\n      jumpi\n        /* \"#utility.yul\":17874:17882   */\n      dup2\n        /* \"#utility.yul\":17859:17882   */\n      swap1\n      pop\n        /* \"#utility.yul\":17835:17884   */\n    tag_380:\n        /* \"#utility.yul\":17897:17977   */\n      tag_381\n        /* \"#utility.yul\":17953:17975   */\n      tag_382\n        /* \"#utility.yul\":17971:17974   */\n      dup6\n        /* \"#utility.yul\":17953:17975   */\n      tag_183\n      jump\t// in\n    tag_382:\n        /* \"#utility.yul\":17943:17951   */\n      dup4\n        /* \"#utility.yul\":17939:17976   */\n      add\n        /* \"#utility.yul\":17926:17937   */\n      dup3\n        /* \"#utility.yul\":17897:17977   */\n      tag_192\n      jump\t// in\n    tag_381:\n        /* \"#utility.yul\":17556:17987   */\n      pop\n      pop\n        /* \"#utility.yul\":17541:17987   */\n    tag_377:\n        /* \"#utility.yul\":17451:17994   */\n      pop\n      pop\n      pop\n      jump\t// out\n        /* \"#utility.yul\":18000:18117   */\n    tag_194:\n        /* \"#utility.yul\":18054:18062   */\n      0x00\n        /* \"#utility.yul\":18104:18109   */\n      dup3\n        /* \"#utility.yul\":18098:18102   */\n      dup3\n        /* \"#utility.yul\":18094:18110   */\n      shr\n        /* \"#utility.yul\":18073:18110   */\n      swap1\n      pop\n        /* \"#utility.yul\":18000:18117   */\n      swap3\n      swap2\n      pop\n      pop\n      jump\t// out\n        /* \"#utility.yul\":18123:18292   */\n    tag_195:\n        /* \"#utility.yul\":18167:18173   */\n      0x00\n        /* \"#utility.yul\":18200:18251   */\n      tag_385\n        /* \"#utility.yul\":18248:18249   */\n      0x00\n        /* \"#utility.yul\":18244:18250   */\n      not\n        /* \"#utility.yul\":18236:18241   */\n      dup5\n        /* \"#utility.yul\":18233:18234   */\n      0x08\n        /* \"#utility.yul\":18229:18242   */\n      mul\n        /* \"#utility.yul\":18200:18251   */\n      tag_194\n      jump\t// in\n    tag_385:\n        /* \"#utility.yul\":18196:18252   */\n      not\n        /* \"#utility.yul\":18281:18285   */\n      dup1\n        /* \"#utility.yul\":18275:18279   */\n      dup4\n        /* \"#utility.yul\":18271:18286   */\n      and\n        /* \"#utility.yul\":18261:18286   */\n      swap2\n      pop\n        /* \"#utility.yul\":18174:18292   */\n      pop\n        /* \"#utility.yul\":18123:18292   */\n      swap3\n      swap2\n      pop\n      pop\n      jump\t// out\n        /* \"#utility.yul\":18297:18592   */\n    tag_196:\n        /* \"#utility.yul\":18373:18377   */\n      0x00\n        /* \"#utility.yul\":18519:18548   */\n      tag_387\n        /* \"#utility.yul\":18544:18547   */\n      dup4\n        /* \"#utility.yul\":18538:18542   */\n      dup4\n        /* \"#utility.yul\":18519:18548   */\n      tag_195\n      jump\t// in\n    tag_387:\n        /* \"#utility.yul\":18511:18548   */\n      swap2\n      pop\n        /* \"#utility.yul\":18581:18584   */\n      dup3\n        /* \"#utility.yul\":18578:18579   */\n      0x02\n        /* \"#utility.yul\":18574:18585   */\n      mul\n        /* \"#utility.yul\":18568:18572   */\n      dup3\n        /* \"#utility.yul\":18565:18586   */\n      or\n        /* \"#utility.yul\":18557:18586   */\n      swap1\n      pop\n        /* \"#utility.yul\":18297:18592   */\n      swap3\n      swap2\n      pop\n      pop\n      jump\t// out\n        /* \"#utility.yul\":18597:19992   */\n    tag_74:\n        /* \"#utility.yul\":18714:18751   */\n      tag_389\n        /* \"#utility.yul\":18747:18750   */\n      dup3\n        /* \"#utility.yul\":18714:18751   */\n      tag_139\n      jump\t// in\n    tag_389:\n        /* \"#utility.yul\":18816:18834   */\n      0xffffffffffffffff\n        /* \"#utility.yul\":18808:18814   */\n      dup2\n        /* \"#utility.yul\":18805:18835   */\n      gt\n        /* \"#utility.yul\":18802:18858   */\n      iszero\n      tag_390\n      jumpi\n        /* \"#utility.yul\":18838:18856   */\n      tag_391\n      tag_80\n      jump\t// in\n    tag_391:\n        /* \"#utility.yul\":18802:18858   */\n    tag_390:\n        /* \"#utility.yul\":18882:18920   */\n      tag_392\n        /* \"#utility.yul\":18914:18918   */\n      dup3\n        /* \"#utility.yul\":18908:18919   */\n      sload\n        /* \"#utility.yul\":18882:18920   */\n      tag_48\n      jump\t// in\n    tag_392:\n        /* \"#utility.yul\":18967:19034   */\n      tag_393\n        /* \"#utility.yul\":19027:19033   */\n      dup3\n        /* \"#utility.yul\":19019:19025   */\n      dup3\n        /* \"#utility.yul\":19013:19017   */\n      dup6\n        /* \"#utility.yul\":18967:19034   */\n      tag_193\n      jump\t// in\n    tag_393:\n        /* \"#utility.yul\":19061:19062   */\n      0x00\n        /* \"#utility.yul\":19085:19089   */\n      0x20\n        /* \"#utility.yul\":19072:19089   */\n      swap1\n      pop\n        /* \"#utility.yul\":19117:19119   */\n      0x1f\n        /* \"#utility.yul\":19109:19115   */\n      dup4\n        /* \"#utility.yul\":19106:19120   */\n      gt\n        /* \"#utility.yul\":19134:19135   */\n      0x01\n        /* \"#utility.yul\":19129:19747   */\n      dup2\n      eq\n      tag_395\n      jumpi\n        /* \"#utility.yul\":19791:19792   */\n      0x00\n        /* \"#utility.yul\":19808:19814   */\n      dup5\n        /* \"#utility.yul\":19805:19882   */\n      iszero\n      tag_396\n      jumpi\n        /* \"#utility.yul\":19857:19866   */\n      dup3\n        /* \"#utility.yul\":19852:19855   */\n      dup8\n        /* \"#utility.yul\":19848:19867   */\n      add\n        /* \"#utility.yul\":19842:19868   */\n      mload\n        /* \"#utility.yul\":19833:19868   */\n      swap1\n      pop\n        /* \"#utility.yul\":19805:19882   */\n    tag_396:\n        /* \"#utility.yul\":19908:19975   */\n      tag_397\n        /* \"#utility.yul\":19968:19974   */\n      dup6\n        /* \"#utility.yul\":19961:19966   */\n      dup3\n        /* \"#utility.yul\":19908:19975   */\n      tag_196\n      jump\t// in\n    tag_397:\n        /* \"#utility.yul\":19902:19906   */\n      dup7\n        /* \"#utility.yul\":19895:19976   */\n      sstore\n        /* \"#utility.yul\":19764:19986   */\n      pop\n        /* \"#utility.yul\":19099:19986   */\n      jump(tag_394)\n        /* \"#utility.yul\":19129:19747   */\n    tag_395:\n        /* \"#utility.yul\":19181:19185   */\n      0x1f\n        /* \"#utility.yul\":19177:19186   */\n      not\n        /* \"#utility.yul\":19169:19175   */\n      dup5\n        /* \"#utility.yul\":19165:19187   */\n      and\n        /* \"#utility.yul\":19215:19252   */\n      tag_398\n        /* \"#utility.yul\":19247:19251   */\n      dup7\n        /* \"#utility.yul\":19215:19252   */\n      tag_182\n      jump\t// in\n    tag_398:\n        /* \"#utility.yul\":19274:19275   */\n      0x00\n        /* \"#utility.yul\":19288:19496   */\n    tag_399:\n        /* \"#utility.yul\":19302:19309   */\n      dup3\n        /* \"#utility.yul\":19299:19300   */\n      dup2\n        /* \"#utility.yul\":19296:19310   */\n      lt\n        /* \"#utility.yul\":19288:19496   */\n      iszero\n      tag_401\n      jumpi\n        /* \"#utility.yul\":19381:19390   */\n      dup5\n        /* \"#utility.yul\":19376:19379   */\n      dup10\n        /* \"#utility.yul\":19372:19391   */\n      add\n        /* \"#utility.yul\":19366:19392   */\n      mload\n        /* \"#utility.yul\":19358:19364   */\n      dup3\n        /* \"#utility.yul\":19351:19393   */\n      sstore\n        /* \"#utility.yul\":19432:19433   */\n      0x01\n        /* \"#utility.yul\":19424:19430   */\n      dup3\n        /* \"#utility.yul\":19420:19434   */\n      add\n        /* \"#utility.yul\":19410:19434   */\n      swap2\n      pop\n        /* \"#utility.yul\":19479:19481   */\n      0x20\n        /* \"#utility.yul\":19468:19477   */\n      dup6\n        /* \"#utility.yul\":19464:19482   */\n      add\n        /* \"#utility.yul\":19451:19482   */\n      swap5\n      pop\n        /* \"#utility.yul\":19325:19329   */\n      0x20\n        /* \"#utility.yul\":19322:19323   */\n      dup2\n        /* \"#utility.yul\":19318:19330   */\n      add\n        /* \"#utility.yul\":19313:19330   */\n      swap1\n      pop\n        /* \"#utility.yul\":19288:19496   */\n      jump(tag_399)\n    tag_401:\n        /* \"#utility.yul\":19524:19530   */\n      dup7\n        /* \"#utility.yul\":19515:19522   */\n      dup4\n        /* \"#utility.yul\":19512:19531   */\n      lt\n        /* \"#utility.yul\":19509:19688   */\n      iszero\n      tag_402\n      jumpi\n        /* \"#utility.yul\":19582:19591   */\n      dup5\n        /* \"#utility.yul\":19577:19580   */\n      dup10\n        /* \"#utility.yul\":19573:19592   */\n      add\n        /* \"#utility.yul\":19567:19593   */\n      mload\n        /* \"#utility.yul\":19625:19673   */\n      tag_403\n        /* \"#utility.yul\":19667:19671   */\n      0x1f\n        /* \"#utility.yul\":19659:19665   */\n      dup10\n        /* \"#utility.yul\":19655:19672   */\n      and\n        /* \"#utility.yul\":19644:19653   */\n      dup3\n        /* \"#utility.yul\":19625:19673   */\n      tag_195\n      jump\t// in\n    tag_403:\n        /* \"#utility.yul\":19617:19623   */\n      dup4\n        /* \"#utility.yul\":19610:19674   */\n      sstore\n        /* \"#utility.yul\":19532:19688   */\n      pop\n        /* \"#utility.yul\":19509:19688   */\n    tag_402:\n        /* \"#utility.yul\":19734:19735   */\n      0x01\n        /* \"#utility.yul\":19730:19731   */\n      0x02\n        /* \"#utility.yul\":19722:19728   */\n      dup9\n        /* \"#utility.yul\":19718:19732   */\n      mul\n        /* \"#utility.yul\":19714:19736   */\n      add\n        /* \"#utility.yul\":19708:19712   */\n      dup9\n        /* \"#utility.yul\":19701:19737   */\n      sstore\n        /* \"#utility.yul\":19136:19747   */\n      pop\n      pop\n      pop\n        /* \"#utility.yul\":19099:19986   */\n    tag_394:\n      pop\n        /* \"#utility.yul\":18689:19992   */\n      pop\n      pop\n      pop\n        /* \"#utility.yul\":18597:19992   */\n      pop\n      pop\n      jump\t// out\n        /* \"#utility.yul\":19998:20178   */\n    tag_91:\n        /* \"#utility.yul\":20046:20123   */\n      0x4e487b7100000000000000000000000000000000000000000000000000000000\n        /* \"#utility.yul\":20043:20044   */\n      0x00\n        /* \"#utility.yul\":20036:20124   */\n      mstore\n        /* \"#utility.yul\":20143:20147   */\n      0x32\n        /* \"#utility.yul\":20140:20141   */\n      0x04\n        /* \"#utility.yul\":20133:20148   */\n      mstore\n        /* \"#utility.yul\":20167:20171   */\n      0x24\n        /* \"#utility.yul\":20164:20165   */\n      0x00\n        /* \"#utility.yul\":20157:20172   */\n      revert\n        /* \"#utility.yul\":20184:20364   */\n    tag_197:\n        /* \"#utility.yul\":20232:20309   */\n      0x4e487b7100000000000000000000000000000000000000000000000000000000\n        /* \"#utility.yul\":20229:20230   */\n      0x00\n        /* \"#utility.yul\":20222:20310   */\n      mstore\n        /* \"#utility.yul\":20329:20333   */\n      0x11\n        /* \"#utility.yul\":20326:20327   */\n      0x04\n        /* \"#utility.yul\":20319:20334   */\n      mstore\n        /* \"#utility.yul\":20353:20357   */\n      0x24\n        /* \"#utility.yul\":20350:20351   */\n      0x00\n        /* \"#utility.yul\":20343:20358   */\n      revert\n        /* \"#utility.yul\":20370:20603   */\n    tag_106:\n        /* \"#utility.yul\":20409:20412   */\n      0x00\n        /* \"#utility.yul\":20432:20456   */\n      tag_407\n        /* \"#utility.yul\":20450:20455   */\n      dup3\n        /* \"#utility.yul\":20432:20456   */\n      tag_136\n      jump\t// in\n    tag_407:\n        /* \"#utility.yul\":20423:20456   */\n      swap2\n      pop\n        /* \"#utility.yul\":20478:20544   */\n      0xffffffffffffffffffffffffffffffffffffffffffffffffffffffffffffffff\n        /* \"#utility.yul\":20471:20476   */\n      dup3\n        /* \"#utility.yul\":20468:20545   */\n      sub\n        /* \"#utility.yul\":20465:20568   */\n      tag_408\n      jumpi\n        /* \"#utility.yul\":20548:20566   */\n      tag_409\n      tag_197\n      jump\t// in\n    tag_409:\n        /* \"#utility.yul\":20465:20568   */\n    tag_408:\n        /* \"#utility.yul\":20595:20596   */\n      0x01\n        /* \"#utility.yul\":20588:20593   */\n      dup3\n        /* \"#utility.yul\":20584:20597   */\n      add\n        /* \"#utility.yul\":20577:20597   */\n      swap1\n      pop\n        /* \"#utility.yul\":20370:20603   */\n      swap2\n      swap1\n      pop\n      jump\t// out\n        /* \"#utility.yul\":20609:20834   */\n    tag_198:\n        /* \"#utility.yul\":20749:20783   */\n      0x4f776e61626c653a206e6577206f776e657220697320746865207a65726f2061\n        /* \"#utility.yul\":20745:20746   */\n      0x00\n        /* \"#utility.yul\":20737:20743   */\n      dup3\n        /* \"#utility.yul\":20733:20747   */\n      add\n        /* \"#utility.yul\":20726:20784   */\n      mstore\n        /* \"#utility.yul\":20818:20826   */\n      0x6464726573730000000000000000000000000000000000000000000000000000\n        /* \"#utility.yul\":20813:20815   */\n      0x20\n        /* \"#utility.yul\":20805:20811   */\n      dup3\n        /* \"#utility.yul\":20801:20816   */\n      add\n        /* \"#utility.yul\":20794:20827   */\n      mstore\n        /* \"#utility.yul\":20609:20834   */\n      pop\n      jump\t// out\n        /* \"#utility.yul\":20840:21206   */\n    tag_199:\n        /* \"#utility.yul\":20982:20985   */\n      0x00\n        /* \"#utility.yul\":21003:21070   */\n      tag_412\n        /* \"#utility.yul\":21067:21069   */\n      0x26\n        /* \"#utility.yul\":21062:21065   */\n      dup4\n        /* \"#utility.yul\":21003:21070   */\n      tag_140\n      jump\t// in\n    tag_412:\n        /* \"#utility.yul\":20996:21070   */\n      swap2\n      pop\n        /* \"#utility.yul\":21079:21172   */\n      tag_413\n        /* \"#utility.yul\":21168:21171   */\n      dup3\n        /* \"#utility.yul\":21079:21172   */\n      tag_198\n      jump\t// in\n    tag_413:\n        /* \"#utility.yul\":21197:21199   */\n      0x40\n        /* \"#utility.yul\":21192:21195   */\n      dup3\n        /* \"#utility.yul\":21188:21200   */\n      add\n        /* \"#utility.yul\":21181:21200   */\n      swap1\n      pop\n        /* \"#utility.yul\":20840:21206   */\n      swap2\n      swap1\n      pop\n      jump\t// out\n        /* \"#utility.yul\":21212:21631   */\n    tag_129:\n        /* \"#utility.yul\":21378:21382   */\n      0x00\n        /* \"#utility.yul\":21416:21418   */\n      0x20\n        /* \"#utility.yul\":21405:21414   */\n      dup3\n        /* \"#utility.yul\":21401:21419   */\n      add\n        /* \"#utility.yul\":21393:21419   */\n      swap1\n      pop\n        /* \"#utility.yul\":21465:21474   */\n      dup2\n        /* \"#utility.yul\":21459:21463   */\n      dup2\n        /* \"#utility.yul\":21455:21475   */\n      sub\n        /* \"#utility.yul\":21451:21452   */\n      0x00\n        /* \"#utility.yul\":21440:21449   */\n      dup4\n        /* \"#utility.yul\":21436:21453   */\n      add\n        /* \"#utility.yul\":21429:21476   */\n      mstore\n        /* \"#utility.yul\":21493:21624   */\n      tag_415\n        /* \"#utility.yul\":21619:21623   */\n      dup2\n        /* \"#utility.yul\":21493:21624   */\n      tag_199\n      jump\t// in\n    tag_415:\n        /* \"#utility.yul\":21485:21624   */\n      swap1\n      pop\n        /* \"#utility.yul\":21212:21631   */\n      swap2\n      swap1\n      pop\n      jump\t// out\n\n    auxdata: 0xa2646970667358221220b76e97ac4c78d8338daab93bc3593809f5e7d92bdc8330e971c15935960b10ae64736f6c63430008150033\n}\n",
				"bytecode": {
					"linkReferences": {},
					"object": "608060405234801561001057600080fd5b5061002d61002261003260201b60201c565b61003a60201b60201c565b6100fe565b600033905090565b60008060009054906101000a900473ffffffffffffffffffffffffffffffffffffffff169050816000806101000a81548173ffffffffffffffffffffffffffffffffffffffff021916908373ffffffffffffffffffffffffffffffffffffffff1602179055508173ffffffffffffffffffffffffffffffffffffffff168173ffffffffffffffffffffffffffffffffffffffff167f8be0079c531659141344cd1fd0a4f28419497f9722a3daafe3b4186f6b6457e060405160405180910390a35050565b6115328061010d6000396000f3fe608060405234801561001057600080fd5b50600436106100885760003560e01c806369cea7761161005b57806369cea77614610129578063715018a61461015a5780638da5cb5b14610164578063f2fde38b1461018257610088565b806310a7fd7b1461008d5780631a659899146100be5780632bf63377146100ee5780632d10fa281461010a575b600080fd5b6100a760048036038101906100a291906109de565b61019e565b6040516100b5929190610aaa565b60405180910390f35b6100d860048036038101906100d39190610c0f565b61025a565b6040516100e59190610c58565b60405180910390f35b61010860048036038101906101039190610c0f565b6102e8565b005b610112610475565b604051610120929190610e3d565b60405180910390f35b610143600480360381019061013e9190610c0f565b61065e565b604051610151929190610aaa565b60405180910390f35b610162610720565b005b61016c6107a8565b6040516101799190610eb5565b60405180910390f35b61019c60048036038101906101979190610efc565b6107d1565b005b600181815481106101ae57600080fd5b90600052602060002090600202016000915090508060000180546101d190610f58565b80601f01602080910402602001604051908101604052809291908181526020018280546101fd90610f58565b801561024a5780601f1061021f5761010080835404028352916020019161024a565b820191906000526020600020905b81548152906001019060200180831161022d57829003601f168201915b5050505050908060010154905082565b60008060028360405161026d9190610fc5565b908152602001604051809103902060010154036102bf576040517f08c379a00000000000000000000000000000000000000000000000000000000081526004016102b690611028565b60405180910390fd5b6002826040516102cf9190610fc5565b9081526020016040518091039020600101549050919050565b6102f06108c8565b73ffffffffffffffffffffffffffffffffffffffff1661030e6107a8565b73ffffffffffffffffffffffffffffffffffffffff1614610364576040517f08c379a000000000000000000000000000000000000000000000000000000000815260040161035b90611094565b60405180910390fd5b60006002826040516103769190610fc5565b908152602001604051809103902060010154146103c8576040517f08c379a00000000000000000000000000000000000000000000000000000000081526004016103bf90611126565b60405180910390fd5b600060405180604001604052808381526020014281525090506001819080600181540180825580915050600190039060005260206000209060020201600090919091909150600082015181600001908161042291906112f2565b50602082015181600101555050806002836040516104409190610fc5565b9081526020016040518091039020600082015181600001908161046391906112f2565b50602082015181600101559050505050565b6060806000600180549050905060008167ffffffffffffffff81111561049e5761049d610ae4565b5b6040519080825280602002602001820160405280156104d157816020015b60608152602001906001900390816104bc5790505b50905060008267ffffffffffffffff8111156104f0576104ef610ae4565b5b60405190808252806020026020018201604052801561051e5781602001602082028036833780820191505090505b50905060005b8381101561065057600181815481106105405761053f6113c4565b5b9060005260206000209060020201600001805461055c90610f58565b80601f016020809104026020016040519081016040528092919081815260200182805461058890610f58565b80156105d55780601f106105aa576101008083540402835291602001916105d5565b820191906000526020600020905b8154815290600101906020018083116105b857829003601f168201915b50505050508382815181106105ed576105ec6113c4565b5b60200260200101819052506001818154811061060c5761060b6113c4565b5b906000526020600020906002020160010154828281518110610631576106306113c4565b5b602002602001018181525050808061064890611422565b915050610524565b508181945094505050509091565b60028180516020810182018051848252602083016020850120818352809550505050505060009150905080600001805461069790610f58565b80601f01602080910402602001604051908101604052809291908181526020018280546106c390610f58565b80156107105780601f106106e557610100808354040283529160200191610710565b820191906000526020600020905b8154815290600101906020018083116106f357829003601f168201915b5050505050908060010154905082565b6107286108c8565b73ffffffffffffffffffffffffffffffffffffffff166107466107a8565b73ffffffffffffffffffffffffffffffffffffffff161461079c576040517f08c379a000000000000000000000000000000000000000000000000000000000815260040161079390611094565b60405180910390fd5b6107a660006108d0565b565b60008060009054906101000a900473ffffffffffffffffffffffffffffffffffffffff16905090565b6107d96108c8565b73ffffffffffffffffffffffffffffffffffffffff166107f76107a8565b73ffffffffffffffffffffffffffffffffffffffff161461084d576040517f08c379a000000000000000000000000000000000000000000000000000000000815260040161084490611094565b60405180910390fd5b600073ffffffffffffffffffffffffffffffffffffffff168173ffffffffffffffffffffffffffffffffffffffff16036108bc576040517f08c379a00000000000000000000000000000000000000000000000000000000081526004016108b3906114dc565b60405180910390fd5b6108c5816108d0565b50565b600033905090565b60008060009054906101000a900473ffffffffffffffffffffffffffffffffffffffff169050816000806101000a81548173ffffffffffffffffffffffffffffffffffffffff021916908373ffffffffffffffffffffffffffffffffffffffff1602179055508173ffffffffffffffffffffffffffffffffffffffff168173ffffffffffffffffffffffffffffffffffffffff167f8be0079c531659141344cd1fd0a4f28419497f9722a3daafe3b4186f6b6457e060405160405180910390a35050565b6000604051905090565b600080fd5b600080fd5b6000819050919050565b6109bb816109a8565b81146109c657600080fd5b50565b6000813590506109d8816109b2565b92915050565b6000602082840312156109f4576109f361099e565b5b6000610a02848285016109c9565b91505092915050565b600081519050919050565b600082825260208201905092915050565b60005b83811015610a45578082015181840152602081019050610a2a565b60008484015250505050565b6000601f19601f8301169050919050565b6000610a6d82610a0b565b610a778185610a16565b9350610a87818560208601610a27565b610a9081610a51565b840191505092915050565b610aa4816109a8565b82525050565b60006040820190508181036000830152610ac48185610a62565b9050610ad36020830184610a9b565b9392505050565b600080fd5b600080fd5b7f4e487b7100000000000000000000000000000000000000000000000000000000600052604160045260246000fd5b610b1c82610a51565b810181811067ffffffffffffffff82111715610b3b57610b3a610ae4565b5b80604052505050565b6000610b4e610994565b9050610b5a8282610b13565b919050565b600067ffffffffffffffff821115610b7a57610b79610ae4565b5b610b8382610a51565b9050602081019050919050565b82818337600083830152505050565b6000610bb2610bad84610b5f565b610b44565b905082815260208101848484011115610bce57610bcd610adf565b5b610bd9848285610b90565b509392505050565b600082601f830112610bf657610bf5610ada565b5b8135610c06848260208601610b9f565b91505092915050565b600060208284031215610c2557610c2461099e565b5b600082013567ffffffffffffffff811115610c4357610c426109a3565b5b610c4f84828501610be1565b91505092915050565b6000602082019050610c6d6000830184610a9b565b92915050565b600081519050919050565b600082825260208201905092915050565b6000819050602082019050919050565b600082825260208201905092915050565b6000610cbb82610a0b565b610cc58185610c9f565b9350610cd5818560208601610a27565b610cde81610a51565b840191505092915050565b6000610cf58383610cb0565b905092915050565b6000602082019050919050565b6000610d1582610c73565b610d1f8185610c7e565b935083602082028501610d3185610c8f565b8060005b85811015610d6d5784840389528151610d4e8582610ce9565b9450610d5983610cfd565b925060208a01995050600181019050610d35565b50829750879550505050505092915050565b600081519050919050565b600082825260208201905092915050565b6000819050602082019050919050565b610db4816109a8565b82525050565b6000610dc68383610dab565b60208301905092915050565b6000602082019050919050565b6000610dea82610d7f565b610df48185610d8a565b9350610dff83610d9b565b8060005b83811015610e30578151610e178882610dba565b9750610e2283610dd2565b925050600181019050610e03565b5085935050505092915050565b60006040820190508181036000830152610e578185610d0a565b90508181036020830152610e6b8184610ddf565b90509392505050565b600073ffffffffffffffffffffffffffffffffffffffff82169050919050565b6000610e9f82610e74565b9050919050565b610eaf81610e94565b82525050565b6000602082019050610eca6000830184610ea6565b92915050565b610ed981610e94565b8114610ee457600080fd5b50565b600081359050610ef681610ed0565b92915050565b600060208284031215610f1257610f1161099e565b5b6000610f2084828501610ee7565b91505092915050565b7f4e487b7100000000000000000000000000000000000000000000000000000000600052602260045260246000fd5b60006002820490506001821680610f7057607f821691505b602082108103610f8357610f82610f29565b5b50919050565b600081905092915050565b6000610f9f82610a0b565b610fa98185610f89565b9350610fb9818560208601610a27565b80840191505092915050565b6000610fd18284610f94565b915081905092915050565b7f64617461206e6f7420666f756e6420696e20746865206c656467657200000000600082015250565b6000611012601c83610a16565b915061101d82610fdc565b602082019050919050565b6000602082019050818103600083015261104181611005565b9050919050565b7f4f776e61626c653a2063616c6c6572206973206e6f7420746865206f776e6572600082015250565b600061107e602083610a16565b915061108982611048565b602082019050919050565b600060208201905081810360008301526110ad81611071565b9050919050565b7f4461746120616c72656164792065786973747320696e20746865206c6564676560008201527f7200000000000000000000000000000000000000000000000000000000000000602082015250565b6000611110602183610a16565b915061111b826110b4565b604082019050919050565b6000602082019050818103600083015261113f81611103565b9050919050565b60008190508160005260206000209050919050565b60006020601f8301049050919050565b600082821b905092915050565b6000600883026111a87fffffffffffffffffffffffffffffffffffffffffffffffffffffffffffffffff8261116b565b6111b2868361116b565b95508019841693508086168417925050509392505050565b6000819050919050565b60006111ef6111ea6111e5846109a8565b6111ca565b6109a8565b9050919050565b6000819050919050565b611209836111d4565b61121d611215826111f6565b848454611178565b825550505050565b600090565b611232611225565b61123d818484611200565b505050565b5b818110156112615761125660008261122a565b600181019050611243565b5050565b601f8211156112a65761127781611146565b6112808461115b565b8101602085101561128f578190505b6112a361129b8561115b565b830182611242565b50505b505050565b600082821c905092915050565b60006112c9600019846008026112ab565b1980831691505092915050565b60006112e283836112b8565b9150826002028217905092915050565b6112fb82610a0b565b67ffffffffffffffff81111561131457611313610ae4565b5b61131e8254610f58565b611329828285611265565b600060209050601f83116001811461135c576000841561134a578287015190505b61135485826112d6565b8655506113bc565b601f19841661136a86611146565b60005b828110156113925784890151825560018201915060208501945060208101905061136d565b868310156113af57848901516113ab601f8916826112b8565b8355505b6001600288020188555050505b505050505050565b7f4e487b7100000000000000000000000000000000000000000000000000000000600052603260045260246000fd5b7f4e487b7100000000000000000000000000000000000000000000000000000000600052601160045260246000fd5b600061142d826109a8565b91507fffffffffffffffffffffffffffffffffffffffffffffffffffffffffffffffff820361145f5761145e6113f3565b5b600182019050919050565b7f4f776e61626c653a206e6577206f776e657220697320746865207a65726f206160008201527f6464726573730000000000000000000000000000000000000000000000000000602082015250565b60006114c6602683610a16565b91506114d18261146a565b604082019050919050565b600060208201905081810360008301526114f5816114b9565b905091905056fea2646970667358221220b76e97ac4c78d8338daab93bc3593809f5e7d92bdc8330e971c15935960b10ae64736f6c63430008150033",
					"opcodes": "PUSH1 0x80 PUSH1 0x40 MSTORE CALLVALUE DUP1 ISZERO PUSH2 0x10 JUMPI PUSH1 0x0 DUP1 REVERT JUMPDEST POP PUSH2 0x2D PUSH2 0x22 PUSH2 0x32 PUSH1 0x20 SHL PUSH1 0x20 SHR JUMP JUMPDEST PUSH2 0x3A PUSH1 0x20 SHL PUSH1 0x20 SHR JUMP JUMPDEST PUSH2 0xFE JUMP JUMPDEST PUSH1 0x0 CALLER SWAP1 POP SWAP1 JUMP JUMPDEST PUSH1 0x0 DUP1 PUSH1 0x0 SWAP1 SLOAD SWAP1 PUSH2 0x100 EXP SWAP1 DIV PUSH20 0xFFFFFFFFFFFFFFFFFFFFFFFFFFFFFFFFFFFFFFFF AND SWAP1 POP DUP2 PUSH1 0x0 DUP1 PUSH2 0x100 EXP DUP2 SLOAD DUP2 PUSH20 0xFFFFFFFFFFFFFFFFFFFFFFFFFFFFFFFFFFFFFFFF MUL NOT AND SWAP1 DUP4 PUSH20 0xFFFFFFFFFFFFFFFFFFFFFFFFFFFFFFFFFFFFFFFF AND MUL OR SWAP1 SSTORE POP DUP2 PUSH20 0xFFFFFFFFFFFFFFFFFFFFFFFFFFFFFFFFFFFFFFFF AND DUP2 PUSH20 0xFFFFFFFFFFFFFFFFFFFFFFFFFFFFFFFFFFFFFFFF AND PUSH32 0x8BE0079C531659141344CD1FD0A4F28419497F9722A3DAAFE3B4186F6B6457E0 PUSH1 0x40 MLOAD PUSH1 0x40 MLOAD DUP1 SWAP2 SUB SWAP1 LOG3 POP POP JUMP JUMPDEST PUSH2 0x1532 DUP1 PUSH2 0x10D PUSH1 0x0 CODECOPY PUSH1 0x0 RETURN INVALID PUSH1 0x80 PUSH1 0x40 MSTORE CALLVALUE DUP1 ISZERO PUSH2 0x10 JUMPI PUSH1 0x0 DUP1 REVERT JUMPDEST POP PUSH1 0x4 CALLDATASIZE LT PUSH2 0x88 JUMPI PUSH1 0x0 CALLDATALOAD PUSH1 0xE0 SHR DUP1 PUSH4 0x69CEA776 GT PUSH2 0x5B JUMPI DUP1 PUSH4 0x69CEA776 EQ PUSH2 0x129 JUMPI DUP1 PUSH4 0x715018A6 EQ PUSH2 0x15A JUMPI DUP1 PUSH4 0x8DA5CB5B EQ PUSH2 0x164 JUMPI DUP1 PUSH4 0xF2FDE38B EQ PUSH2 0x182 JUMPI PUSH2 0x88 JUMP JUMPDEST DUP1 PUSH4 0x10A7FD7B EQ PUSH2 0x8D JUMPI DUP1 PUSH4 0x1A659899 EQ PUSH2 0xBE JUMPI DUP1 PUSH4 0x2BF63377 EQ PUSH2 0xEE JUMPI DUP1 PUSH4 0x2D10FA28 EQ PUSH2 0x10A JUMPI JUMPDEST PUSH1 0x0 DUP1 REVERT JUMPDEST PUSH2 0xA7 PUSH1 0x4 DUP1 CALLDATASIZE SUB DUP2 ADD SWAP1 PUSH2 0xA2 SWAP2 SWAP1 PUSH2 0x9DE JUMP JUMPDEST PUSH2 0x19E JUMP JUMPDEST PUSH1 0x40 MLOAD PUSH2 0xB5 SWAP3 SWAP2 SWAP1 PUSH2 0xAAA JUMP JUMPDEST PUSH1 0x40 MLOAD DUP1 SWAP2 SUB SWAP1 RETURN JUMPDEST PUSH2 0xD8 PUSH1 0x4 DUP1 CALLDATASIZE SUB DUP2 ADD SWAP1 PUSH2 0xD3 SWAP2 SWAP1 PUSH2 0xC0F JUMP JUMPDEST PUSH2 0x25A JUMP JUMPDEST PUSH1 0x40 MLOAD PUSH2 0xE5 SWAP2 SWAP1 PUSH2 0xC58 JUMP JUMPDEST PUSH1 0x40 MLOAD DUP1 SWAP2 SUB SWAP1 RETURN JUMPDEST PUSH2 0x108 PUSH1 0x4 DUP1 CALLDATASIZE SUB DUP2 ADD SWAP1 PUSH2 0x103 SWAP2 SWAP1 PUSH2 0xC0F JUMP JUMPDEST PUSH2 0x2E8 JUMP JUMPDEST STOP JUMPDEST PUSH2 0x112 PUSH2 0x475 JUMP JUMPDEST PUSH1 0x40 MLOAD PUSH2 0x120 SWAP3 SWAP2 SWAP1 PUSH2 0xE3D JUMP JUMPDEST PUSH1 0x40 MLOAD DUP1 SWAP2 SUB SWAP1 RETURN JUMPDEST PUSH2 0x143 PUSH1 0x4 DUP1 CALLDATASIZE SUB DUP2 ADD SWAP1 PUSH2 0x13E SWAP2 SWAP1 PUSH2 0xC0F JUMP JUMPDEST PUSH2 0x65E JUMP JUMPDEST PUSH1 0x40 MLOAD PUSH2 0x151 SWAP3 SWAP2 SWAP1 PUSH2 0xAAA JUMP JUMPDEST PUSH1 0x40 MLOAD DUP1 SWAP2 SUB SWAP1 RETURN JUMPDEST PUSH2 0x162 PUSH2 0x720 JUMP JUMPDEST STOP JUMPDEST PUSH2 0x16C PUSH2 0x7A8 JUMP JUMPDEST PUSH1 0x40 MLOAD PUSH2 0x179 SWAP2 SWAP1 PUSH2 0xEB5 JUMP JUMPDEST PUSH1 0x40 MLOAD DUP1 SWAP2 SUB SWAP1 RETURN JUMPDEST PUSH2 0x19C PUSH1 0x4 DUP1 CALLDATASIZE SUB DUP2 ADD SWAP1 PUSH2 0x197 SWAP2 SWAP1 PUSH2 0xEFC JUMP JUMPDEST PUSH2 0x7D1 JUMP JUMPDEST STOP JUMPDEST PUSH1 0x1 DUP2 DUP2 SLOAD DUP2 LT PUSH2 0x1AE JUMPI PUSH1 0x0 DUP1 REVERT JUMPDEST SWAP1 PUSH1 0x0 MSTORE PUSH1 0x20 PUSH1 0x0 KECCAK256 SWAP1 PUSH1 0x2 MUL ADD PUSH1 0x0 SWAP2 POP SWAP1 POP DUP1 PUSH1 0x0 ADD DUP1 SLOAD PUSH2 0x1D1 SWAP1 PUSH2 0xF58 JUMP JUMPDEST DUP1 PUSH1 0x1F ADD PUSH1 0x20 DUP1 SWAP2 DIV MUL PUSH1 0x20 ADD PUSH1 0x40 MLOAD SWAP1 DUP2 ADD PUSH1 0x40 MSTORE DUP1 SWAP3 SWAP2 SWAP1 DUP2 DUP2 MSTORE PUSH1 0x20 ADD DUP3 DUP1 SLOAD PUSH2 0x1FD SWAP1 PUSH2 0xF58 JUMP JUMPDEST DUP1 ISZERO PUSH2 0x24A JUMPI DUP1 PUSH1 0x1F LT PUSH2 0x21F JUMPI PUSH2 0x100 DUP1 DUP4 SLOAD DIV MUL DUP4 MSTORE SWAP2 PUSH1 0x20 ADD SWAP2 PUSH2 0x24A JUMP JUMPDEST DUP3 ADD SWAP2 SWAP1 PUSH1 0x0 MSTORE PUSH1 0x20 PUSH1 0x0 KECCAK256 SWAP1 JUMPDEST DUP2 SLOAD DUP2 MSTORE SWAP1 PUSH1 0x1 ADD SWAP1 PUSH1 0x20 ADD DUP1 DUP4 GT PUSH2 0x22D JUMPI DUP3 SWAP1 SUB PUSH1 0x1F AND DUP3 ADD SWAP2 JUMPDEST POP POP POP POP POP SWAP1 DUP1 PUSH1 0x1 ADD SLOAD SWAP1 POP DUP3 JUMP JUMPDEST PUSH1 0x0 DUP1 PUSH1 0x2 DUP4 PUSH1 0x40 MLOAD PUSH2 0x26D SWAP2 SWAP1 PUSH2 0xFC5 JUMP JUMPDEST SWAP1 DUP2 MSTORE PUSH1 0x20 ADD PUSH1 0x40 MLOAD DUP1 SWAP2 SUB SWAP1 KECCAK256 PUSH1 0x1 ADD SLOAD SUB PUSH2 0x2BF JUMPI PUSH1 0x40 MLOAD PUSH32 0x8C379A000000000000000000000000000000000000000000000000000000000 DUP2 MSTORE PUSH1 0x4 ADD PUSH2 0x2B6 SWAP1 PUSH2 0x1028 JUMP JUMPDEST PUSH1 0x40 MLOAD DUP1 SWAP2 SUB SWAP1 REVERT JUMPDEST PUSH1 0x2 DUP3 PUSH1 0x40 MLOAD PUSH2 0x2CF SWAP2 SWAP1 PUSH2 0xFC5 JUMP JUMPDEST SWAP1 DUP2 MSTORE PUSH1 0x20 ADD PUSH1 0x40 MLOAD DUP1 SWAP2 SUB SWAP1 KECCAK256 PUSH1 0x1 ADD SLOAD SWAP1 POP SWAP2 SWAP1 POP JUMP JUMPDEST PUSH2 0x2F0 PUSH2 0x8C8 JUMP JUMPDEST PUSH20 0xFFFFFFFFFFFFFFFFFFFFFFFFFFFFFFFFFFFFFFFF AND PUSH2 0x30E PUSH2 0x7A8 JUMP JUMPDEST PUSH20 0xFFFFFFFFFFFFFFFFFFFFFFFFFFFFFFFFFFFFFFFF AND EQ PUSH2 0x364 JUMPI PUSH1 0x40 MLOAD PUSH32 0x8C379A000000000000000000000000000000000000000000000000000000000 DUP2 MSTORE PUSH1 0x4 ADD PUSH2 0x35B SWAP1 PUSH2 0x1094 JUMP JUMPDEST PUSH1 0x40 MLOAD DUP1 SWAP2 SUB SWAP1 REVERT JUMPDEST PUSH1 0x0 PUSH1 0x2 DUP3 PUSH1 0x40 MLOAD PUSH2 0x376 SWAP2 SWAP1 PUSH2 0xFC5 JUMP JUMPDEST SWAP1 DUP2 MSTORE PUSH1 0x20 ADD PUSH1 0x40 MLOAD DUP1 SWAP2 SUB SWAP1 KECCAK256 PUSH1 0x1 ADD SLOAD EQ PUSH2 0x3C8 JUMPI PUSH1 0x40 MLOAD PUSH32 0x8C379A000000000000000000000000000000000000000000000000000000000 DUP2 MSTORE PUSH1 0x4 ADD PUSH2 0x3BF SWAP1 PUSH2 0x1126 JUMP JUMPDEST PUSH1 0x40 MLOAD DUP1 SWAP2 SUB SWAP1 REVERT JUMPDEST PUSH1 0x0 PUSH1 0x40 MLOAD DUP1 PUSH1 0x40 ADD PUSH1 0x40 MSTORE DUP1 DUP4 DUP2 MSTORE PUSH1 0x20 ADD TIMESTAMP DUP2 MSTORE POP SWAP1 POP PUSH1 0x1 DUP2 SWAP1 DUP1 PUSH1 0x1 DUP2 SLOAD ADD DUP1 DUP3 SSTORE DUP1 SWAP2 POP POP PUSH1 0x1 SWAP1 SUB SWAP1 PUSH1 0x0 MSTORE PUSH1 0x20 PUSH1 0x0 KECCAK256 SWAP1 PUSH1 0x2 MUL ADD PUSH1 0x0 SWAP1 SWAP2 SWAP1 SWAP2 SWAP1 SWAP2 POP PUSH1 0x0 DUP3 ADD MLOAD DUP2 PUSH1 0x0 ADD SWAP1 DUP2 PUSH2 0x422 SWAP2 SWAP1 PUSH2 0x12F2 JUMP JUMPDEST POP PUSH1 0x20 DUP3 ADD MLOAD DUP2 PUSH1 0x1 ADD SSTORE POP POP DUP1 PUSH1 0x2 DUP4 PUSH1 0x40 MLOAD PUSH2 0x440 SWAP2 SWAP1 PUSH2 0xFC5 JUMP JUMPDEST SWAP1 DUP2 MSTORE PUSH1 0x20 ADD PUSH1 0x40 MLOAD DUP1 SWAP2 SUB SWAP1 KECCAK256 PUSH1 0x0 DUP3 ADD MLOAD DUP2 PUSH1 0x0 ADD SWAP1 DUP2 PUSH2 0x463 SWAP2 SWAP1 PUSH2 0x12F2 JUMP JUMPDEST POP PUSH1 0x20 DUP3 ADD MLOAD DUP2 PUSH1 0x1 ADD SSTORE SWAP1 POP POP POP POP JUMP JUMPDEST PUSH1 0x60 DUP1 PUSH1 0x0 PUSH1 0x1 DUP1 SLOAD SWAP1 POP SWAP1 POP PUSH1 0x0 DUP2 PUSH8 0xFFFFFFFFFFFFFFFF DUP2 GT ISZERO PUSH2 0x49E JUMPI PUSH2 0x49D PUSH2 0xAE4 JUMP JUMPDEST JUMPDEST PUSH1 0x40 MLOAD SWAP1 DUP1 DUP3 MSTORE DUP1 PUSH1 0x20 MUL PUSH1 0x20 ADD DUP3 ADD PUSH1 0x40 MSTORE DUP1 ISZERO PUSH2 0x4D1 JUMPI DUP2 PUSH1 0x20 ADD JUMPDEST PUSH1 0x60 DUP2 MSTORE PUSH1 0x20 ADD SWAP1 PUSH1 0x1 SWAP1 SUB SWAP1 DUP2 PUSH2 0x4BC JUMPI SWAP1 POP JUMPDEST POP SWAP1 POP PUSH1 0x0 DUP3 PUSH8 0xFFFFFFFFFFFFFFFF DUP2 GT ISZERO PUSH2 0x4F0 JUMPI PUSH2 0x4EF PUSH2 0xAE4 JUMP JUMPDEST JUMPDEST PUSH1 0x40 MLOAD SWAP1 DUP1 DUP3 MSTORE DUP1 PUSH1 0x20 MUL PUSH1 0x20 ADD DUP3 ADD PUSH1 0x40 MSTORE DUP1 ISZERO PUSH2 0x51E JUMPI DUP2 PUSH1 0x20 ADD PUSH1 0x20 DUP3 MUL DUP1 CALLDATASIZE DUP4 CALLDATACOPY DUP1 DUP3 ADD SWAP2 POP POP SWAP1 POP JUMPDEST POP SWAP1 POP PUSH1 0x0 JUMPDEST DUP4 DUP2 LT ISZERO PUSH2 0x650 JUMPI PUSH1 0x1 DUP2 DUP2 SLOAD DUP2 LT PUSH2 0x540 JUMPI PUSH2 0x53F PUSH2 0x13C4 JUMP JUMPDEST JUMPDEST SWAP1 PUSH1 0x0 MSTORE PUSH1 0x20 PUSH1 0x0 KECCAK256 SWAP1 PUSH1 0x2 MUL ADD PUSH1 0x0 ADD DUP1 SLOAD PUSH2 0x55C SWAP1 PUSH2 0xF58 JUMP JUMPDEST DUP1 PUSH1 0x1F ADD PUSH1 0x20 DUP1 SWAP2 DIV MUL PUSH1 0x20 ADD PUSH1 0x40 MLOAD SWAP1 DUP2 ADD PUSH1 0x40 MSTORE DUP1 SWAP3 SWAP2 SWAP1 DUP2 DUP2 MSTORE PUSH1 0x20 ADD DUP3 DUP1 SLOAD PUSH2 0x588 SWAP1 PUSH2 0xF58 JUMP JUMPDEST DUP1 ISZERO PUSH2 0x5D5 JUMPI DUP1 PUSH1 0x1F LT PUSH2 0x5AA JUMPI PUSH2 0x100 DUP1 DUP4 SLOAD DIV MUL DUP4 MSTORE SWAP2 PUSH1 0x20 ADD SWAP2 PUSH2 0x5D5 JUMP JUMPDEST DUP3 ADD SWAP2 SWAP1 PUSH1 0x0 MSTORE PUSH1 0x20 PUSH1 0x0 KECCAK256 SWAP1 JUMPDEST DUP2 SLOAD DUP2 MSTORE SWAP1 PUSH1 0x1 ADD SWAP1 PUSH1 0x20 ADD DUP1 DUP4 GT PUSH2 0x5B8 JUMPI DUP3 SWAP1 SUB PUSH1 0x1F AND DUP3 ADD SWAP2 JUMPDEST POP POP POP POP POP DUP4 DUP3 DUP2 MLOAD DUP2 LT PUSH2 0x5ED JUMPI PUSH2 0x5EC PUSH2 0x13C4 JUMP JUMPDEST JUMPDEST PUSH1 0x20 MUL PUSH1 0x20 ADD ADD DUP2 SWAP1 MSTORE POP PUSH1 0x1 DUP2 DUP2 SLOAD DUP2 LT PUSH2 0x60C JUMPI PUSH2 0x60B PUSH2 0x13C4 JUMP JUMPDEST JUMPDEST SWAP1 PUSH1 0x0 MSTORE PUSH1 0x20 PUSH1 0x0 KECCAK256 SWAP1 PUSH1 0x2 MUL ADD PUSH1 0x1 ADD SLOAD DUP3 DUP3 DUP2 MLOAD DUP2 LT PUSH2 0x631 JUMPI PUSH2 0x630 PUSH2 0x13C4 JUMP JUMPDEST JUMPDEST PUSH1 0x20 MUL PUSH1 0x20 ADD ADD DUP2 DUP2 MSTORE POP POP DUP1 DUP1 PUSH2 0x648 SWAP1 PUSH2 0x1422 JUMP JUMPDEST SWAP2 POP POP PUSH2 0x524 JUMP JUMPDEST POP DUP2 DUP2 SWAP5 POP SWAP5 POP POP POP POP SWAP1 SWAP2 JUMP JUMPDEST PUSH1 0x2 DUP2 DUP1 MLOAD PUSH1 0x20 DUP2 ADD DUP3 ADD DUP1 MLOAD DUP5 DUP3 MSTORE PUSH1 0x20 DUP4 ADD PUSH1 0x20 DUP6 ADD KECCAK256 DUP2 DUP4 MSTORE DUP1 SWAP6 POP POP POP POP POP POP PUSH1 0x0 SWAP2 POP SWAP1 POP DUP1 PUSH1 0x0 ADD DUP1 SLOAD PUSH2 0x697 SWAP1 PUSH2 0xF58 JUMP JUMPDEST DUP1 PUSH1 0x1F ADD PUSH1 0x20 DUP1 SWAP2 DIV MUL PUSH1 0x20 ADD PUSH1 0x40 MLOAD SWAP1 DUP2 ADD PUSH1 0x40 MSTORE DUP1 SWAP3 SWAP2 SWAP1 DUP2 DUP2 MSTORE PUSH1 0x20 ADD DUP3 DUP1 SLOAD PUSH2 0x6C3 SWAP1 PUSH2 0xF58 JUMP JUMPDEST DUP1 ISZERO PUSH2 0x710 JUMPI DUP1 PUSH1 0x1F LT PUSH2 0x6E5 JUMPI PUSH2 0x100 DUP1 DUP4 SLOAD DIV MUL DUP4 MSTORE SWAP2 PUSH1 0x20 ADD SWAP2 PUSH2 0x710 JUMP JUMPDEST DUP3 ADD SWAP2 SWAP1 PUSH1 0x0 MSTORE PUSH1 0x20 PUSH1 0x0 KECCAK256 SWAP1 JUMPDEST DUP2 SLOAD DUP2 MSTORE SWAP1 PUSH1 0x1 ADD SWAP1 PUSH1 0x20 ADD DUP1 DUP4 GT PUSH2 0x6F3 JUMPI DUP3 SWAP1 SUB PUSH1 0x1F AND DUP3 ADD SWAP2 JUMPDEST POP POP POP POP POP SWAP1 DUP1 PUSH1 0x1 ADD SLOAD SWAP1 POP DUP3 JUMP JUMPDEST PUSH2 0x728 PUSH2 0x8C8 JUMP JUMPDEST PUSH20 0xFFFFFFFFFFFFFFFFFFFFFFFFFFFFFFFFFFFFFFFF AND PUSH2 0x746 PUSH2 0x7A8 JUMP JUMPDEST PUSH20 0xFFFFFFFFFFFFFFFFFFFFFFFFFFFFFFFFFFFFFFFF AND EQ PUSH2 0x79C JUMPI PUSH1 0x40 MLOAD PUSH32 0x8C379A000000000000000000000000000000000000000000000000000000000 DUP2 MSTORE PUSH1 0x4 ADD PUSH2 0x793 SWAP1 PUSH2 0x1094 JUMP JUMPDEST PUSH1 0x40 MLOAD DUP1 SWAP2 SUB SWAP1 REVERT JUMPDEST PUSH2 0x7A6 PUSH1 0x0 PUSH2 0x8D0 JUMP JUMPDEST JUMP JUMPDEST PUSH1 0x0 DUP1 PUSH1 0x0 SWAP1 SLOAD SWAP1 PUSH2 0x100 EXP SWAP1 DIV PUSH20 0xFFFFFFFFFFFFFFFFFFFFFFFFFFFFFFFFFFFFFFFF AND SWAP1 POP SWAP1 JUMP JUMPDEST PUSH2 0x7D9 PUSH2 0x8C8 JUMP JUMPDEST PUSH20 0xFFFFFFFFFFFFFFFFFFFFFFFFFFFFFFFFFFFFFFFF AND PUSH2 0x7F7 PUSH2 0x7A8 JUMP JUMPDEST PUSH20 0xFFFFFFFFFFFFFFFFFFFFFFFFFFFFFFFFFFFFFFFF AND EQ PUSH2 0x84D JUMPI PUSH1 0x40 MLOAD PUSH32 0x8C379A000000000000000000000000000000000000000000000000000000000 DUP2 MSTORE PUSH1 0x4 ADD PUSH2 0x844 SWAP1 PUSH2 0x1094 JUMP JUMPDEST PUSH1 0x40 MLOAD DUP1 SWAP2 SUB SWAP1 REVERT JUMPDEST PUSH1 0x0 PUSH20 0xFFFFFFFFFFFFFFFFFFFFFFFFFFFFFFFFFFFFFFFF AND DUP2 PUSH20 0xFFFFFFFFFFFFFFFFFFFFFFFFFFFFFFFFFFFFFFFF AND SUB PUSH2 0x8BC JUMPI PUSH1 0x40 MLOAD PUSH32 0x8C379A000000000000000000000000000000000000000000000000000000000 DUP2 MSTORE PUSH1 0x4 ADD PUSH2 0x8B3 SWAP1 PUSH2 0x14DC JUMP JUMPDEST PUSH1 0x40 MLOAD DUP1 SWAP2 SUB SWAP1 REVERT JUMPDEST PUSH2 0x8C5 DUP2 PUSH2 0x8D0 JUMP JUMPDEST POP JUMP JUMPDEST PUSH1 0x0 CALLER SWAP1 POP SWAP1 JUMP JUMPDEST PUSH1 0x0 DUP1 PUSH1 0x0 SWAP1 SLOAD SWAP1 PUSH2 0x100 EXP SWAP1 DIV PUSH20 0xFFFFFFFFFFFFFFFFFFFFFFFFFFFFFFFFFFFFFFFF AND SWAP1 POP DUP2 PUSH1 0x0 DUP1 PUSH2 0x100 EXP DUP2 SLOAD DUP2 PUSH20 0xFFFFFFFFFFFFFFFFFFFFFFFFFFFFFFFFFFFFFFFF MUL NOT AND SWAP1 DUP4 PUSH20 0xFFFFFFFFFFFFFFFFFFFFFFFFFFFFFFFFFFFFFFFF AND MUL OR SWAP1 SSTORE POP DUP2 PUSH20 0xFFFFFFFFFFFFFFFFFFFFFFFFFFFFFFFFFFFFFFFF AND DUP2 PUSH20 0xFFFFFFFFFFFFFFFFFFFFFFFFFFFFFFFFFFFFFFFF AND PUSH32 0x8BE0079C531659141344CD1FD0A4F28419497F9722A3DAAFE3B4186F6B6457E0 PUSH1 0x40 MLOAD PUSH1 0x40 MLOAD DUP1 SWAP2 SUB SWAP1 LOG3 POP POP JUMP JUMPDEST PUSH1 0x0 PUSH1 0x40 MLOAD SWAP1 POP SWAP1 JUMP JUMPDEST PUSH1 0x0 DUP1 REVERT JUMPDEST PUSH1 0x0 DUP1 REVERT JUMPDEST PUSH1 0x0 DUP2 SWAP1 POP SWAP2 SWAP1 POP JUMP JUMPDEST PUSH2 0x9BB DUP2 PUSH2 0x9A8 JUMP JUMPDEST DUP2 EQ PUSH2 0x9C6 JUMPI PUSH1 0x0 DUP1 REVERT JUMPDEST POP JUMP JUMPDEST PUSH1 0x0 DUP2 CALLDATALOAD SWAP1 POP PUSH2 0x9D8 DUP2 PUSH2 0x9B2 JUMP JUMPDEST SWAP3 SWAP2 POP POP JUMP JUMPDEST PUSH1 0x0 PUSH1 0x20 DUP3 DUP5 SUB SLT ISZERO PUSH2 0x9F4 JUMPI PUSH2 0x9F3 PUSH2 0x99E JUMP JUMPDEST JUMPDEST PUSH1 0x0 PUSH2 0xA02 DUP5 DUP3 DUP6 ADD PUSH2 0x9C9 JUMP JUMPDEST SWAP2 POP POP SWAP3 SWAP2 POP POP JUMP JUMPDEST PUSH1 0x0 DUP2 MLOAD SWAP1 POP SWAP2 SWAP1 POP JUMP JUMPDEST PUSH1 0x0 DUP3 DUP3 MSTORE PUSH1 0x20 DUP3 ADD SWAP1 POP SWAP3 SWAP2 POP POP JUMP JUMPDEST PUSH1 0x0 JUMPDEST DUP4 DUP2 LT ISZERO PUSH2 0xA45 JUMPI DUP1 DUP3 ADD MLOAD DUP2 DUP5 ADD MSTORE PUSH1 0x20 DUP2 ADD SWAP1 POP PUSH2 0xA2A JUMP JUMPDEST PUSH1 0x0 DUP5 DUP5 ADD MSTORE POP POP POP POP JUMP JUMPDEST PUSH1 0x0 PUSH1 0x1F NOT PUSH1 0x1F DUP4 ADD AND SWAP1 POP SWAP2 SWAP1 POP JUMP JUMPDEST PUSH1 0x0 PUSH2 0xA6D DUP3 PUSH2 0xA0B JUMP JUMPDEST PUSH2 0xA77 DUP2 DUP6 PUSH2 0xA16 JUMP JUMPDEST SWAP4 POP PUSH2 0xA87 DUP2 DUP6 PUSH1 0x20 DUP7 ADD PUSH2 0xA27 JUMP JUMPDEST PUSH2 0xA90 DUP2 PUSH2 0xA51 JUMP JUMPDEST DUP5 ADD SWAP2 POP POP SWAP3 SWAP2 POP POP JUMP JUMPDEST PUSH2 0xAA4 DUP2 PUSH2 0x9A8 JUMP JUMPDEST DUP3 MSTORE POP POP JUMP JUMPDEST PUSH1 0x0 PUSH1 0x40 DUP3 ADD SWAP1 POP DUP2 DUP2 SUB PUSH1 0x0 DUP4 ADD MSTORE PUSH2 0xAC4 DUP2 DUP6 PUSH2 0xA62 JUMP JUMPDEST SWAP1 POP PUSH2 0xAD3 PUSH1 0x20 DUP4 ADD DUP5 PUSH2 0xA9B JUMP JUMPDEST SWAP4 SWAP3 POP POP POP JUMP JUMPDEST PUSH1 0x0 DUP1 REVERT JUMPDEST PUSH1 0x0 DUP1 REVERT JUMPDEST PUSH32 0x4E487B7100000000000000000000000000000000000000000000000000000000 PUSH1 0x0 MSTORE PUSH1 0x41 PUSH1 0x4 MSTORE PUSH1 0x24 PUSH1 0x0 REVERT JUMPDEST PUSH2 0xB1C DUP3 PUSH2 0xA51 JUMP JUMPDEST DUP2 ADD DUP2 DUP2 LT PUSH8 0xFFFFFFFFFFFFFFFF DUP3 GT OR ISZERO PUSH2 0xB3B JUMPI PUSH2 0xB3A PUSH2 0xAE4 JUMP JUMPDEST JUMPDEST DUP1 PUSH1 0x40 MSTORE POP POP POP JUMP JUMPDEST PUSH1 0x0 PUSH2 0xB4E PUSH2 0x994 JUMP JUMPDEST SWAP1 POP PUSH2 0xB5A DUP3 DUP3 PUSH2 0xB13 JUMP JUMPDEST SWAP2 SWAP1 POP JUMP JUMPDEST PUSH1 0x0 PUSH8 0xFFFFFFFFFFFFFFFF DUP3 GT ISZERO PUSH2 0xB7A JUMPI PUSH2 0xB79 PUSH2 0xAE4 JUMP JUMPDEST JUMPDEST PUSH2 0xB83 DUP3 PUSH2 0xA51 JUMP JUMPDEST SWAP1 POP PUSH1 0x20 DUP2 ADD SWAP1 POP SWAP2 SWAP1 POP JUMP JUMPDEST DUP3 DUP2 DUP4 CALLDATACOPY PUSH1 0x0 DUP4 DUP4 ADD MSTORE POP POP POP JUMP JUMPDEST PUSH1 0x0 PUSH2 0xBB2 PUSH2 0xBAD DUP5 PUSH2 0xB5F JUMP JUMPDEST PUSH2 0xB44 JUMP JUMPDEST SWAP1 POP DUP3 DUP2 MSTORE PUSH1 0x20 DUP2 ADD DUP5 DUP5 DUP5 ADD GT ISZERO PUSH2 0xBCE JUMPI PUSH2 0xBCD PUSH2 0xADF JUMP JUMPDEST JUMPDEST PUSH2 0xBD9 DUP5 DUP3 DUP6 PUSH2 0xB90 JUMP JUMPDEST POP SWAP4 SWAP3 POP POP POP JUMP JUMPDEST PUSH1 0x0 DUP3 PUSH1 0x1F DUP4 ADD SLT PUSH2 0xBF6 JUMPI PUSH2 0xBF5 PUSH2 0xADA JUMP JUMPDEST JUMPDEST DUP2 CALLDATALOAD PUSH2 0xC06 DUP5 DUP3 PUSH1 0x20 DUP7 ADD PUSH2 0xB9F JUMP JUMPDEST SWAP2 POP POP SWAP3 SWAP2 POP POP JUMP JUMPDEST PUSH1 0x0 PUSH1 0x20 DUP3 DUP5 SUB SLT ISZERO PUSH2 0xC25 JUMPI PUSH2 0xC24 PUSH2 0x99E JUMP JUMPDEST JUMPDEST PUSH1 0x0 DUP3 ADD CALLDATALOAD PUSH8 0xFFFFFFFFFFFFFFFF DUP2 GT ISZERO PUSH2 0xC43 JUMPI PUSH2 0xC42 PUSH2 0x9A3 JUMP JUMPDEST JUMPDEST PUSH2 0xC4F DUP5 DUP3 DUP6 ADD PUSH2 0xBE1 JUMP JUMPDEST SWAP2 POP POP SWAP3 SWAP2 POP POP JUMP JUMPDEST PUSH1 0x0 PUSH1 0x20 DUP3 ADD SWAP1 POP PUSH2 0xC6D PUSH1 0x0 DUP4 ADD DUP5 PUSH2 0xA9B JUMP JUMPDEST SWAP3 SWAP2 POP POP JUMP JUMPDEST PUSH1 0x0 DUP2 MLOAD SWAP1 POP SWAP2 SWAP1 POP JUMP JUMPDEST PUSH1 0x0 DUP3 DUP3 MSTORE PUSH1 0x20 DUP3 ADD SWAP1 POP SWAP3 SWAP2 POP POP JUMP JUMPDEST PUSH1 0x0 DUP2 SWAP1 POP PUSH1 0x20 DUP3 ADD SWAP1 POP SWAP2 SWAP1 POP JUMP JUMPDEST PUSH1 0x0 DUP3 DUP3 MSTORE PUSH1 0x20 DUP3 ADD SWAP1 POP SWAP3 SWAP2 POP POP JUMP JUMPDEST PUSH1 0x0 PUSH2 0xCBB DUP3 PUSH2 0xA0B JUMP JUMPDEST PUSH2 0xCC5 DUP2 DUP6 PUSH2 0xC9F JUMP JUMPDEST SWAP4 POP PUSH2 0xCD5 DUP2 DUP6 PUSH1 0x20 DUP7 ADD PUSH2 0xA27 JUMP JUMPDEST PUSH2 0xCDE DUP2 PUSH2 0xA51 JUMP JUMPDEST DUP5 ADD SWAP2 POP POP SWAP3 SWAP2 POP POP JUMP JUMPDEST PUSH1 0x0 PUSH2 0xCF5 DUP4 DUP4 PUSH2 0xCB0 JUMP JUMPDEST SWAP1 POP SWAP3 SWAP2 POP POP JUMP JUMPDEST PUSH1 0x0 PUSH1 0x20 DUP3 ADD SWAP1 POP SWAP2 SWAP1 POP JUMP JUMPDEST PUSH1 0x0 PUSH2 0xD15 DUP3 PUSH2 0xC73 JUMP JUMPDEST PUSH2 0xD1F DUP2 DUP6 PUSH2 0xC7E JUMP JUMPDEST SWAP4 POP DUP4 PUSH1 0x20 DUP3 MUL DUP6 ADD PUSH2 0xD31 DUP6 PUSH2 0xC8F JUMP JUMPDEST DUP1 PUSH1 0x0 JUMPDEST DUP6 DUP2 LT ISZERO PUSH2 0xD6D JUMPI DUP5 DUP5 SUB DUP10 MSTORE DUP2 MLOAD PUSH2 0xD4E DUP6 DUP3 PUSH2 0xCE9 JUMP JUMPDEST SWAP5 POP PUSH2 0xD59 DUP4 PUSH2 0xCFD JUMP JUMPDEST SWAP3 POP PUSH1 0x20 DUP11 ADD SWAP10 POP POP PUSH1 0x1 DUP2 ADD SWAP1 POP PUSH2 0xD35 JUMP JUMPDEST POP DUP3 SWAP8 POP DUP8 SWAP6 POP POP POP POP POP POP SWAP3 SWAP2 POP POP JUMP JUMPDEST PUSH1 0x0 DUP2 MLOAD SWAP1 POP SWAP2 SWAP1 POP JUMP JUMPDEST PUSH1 0x0 DUP3 DUP3 MSTORE PUSH1 0x20 DUP3 ADD SWAP1 POP SWAP3 SWAP2 POP POP JUMP JUMPDEST PUSH1 0x0 DUP2 SWAP1 POP PUSH1 0x20 DUP3 ADD SWAP1 POP SWAP2 SWAP1 POP JUMP JUMPDEST PUSH2 0xDB4 DUP2 PUSH2 0x9A8 JUMP JUMPDEST DUP3 MSTORE POP POP JUMP JUMPDEST PUSH1 0x0 PUSH2 0xDC6 DUP4 DUP4 PUSH2 0xDAB JUMP JUMPDEST PUSH1 0x20 DUP4 ADD SWAP1 POP SWAP3 SWAP2 POP POP JUMP JUMPDEST PUSH1 0x0 PUSH1 0x20 DUP3 ADD SWAP1 POP SWAP2 SWAP1 POP JUMP JUMPDEST PUSH1 0x0 PUSH2 0xDEA DUP3 PUSH2 0xD7F JUMP JUMPDEST PUSH2 0xDF4 DUP2 DUP6 PUSH2 0xD8A JUMP JUMPDEST SWAP4 POP PUSH2 0xDFF DUP4 PUSH2 0xD9B JUMP JUMPDEST DUP1 PUSH1 0x0 JUMPDEST DUP4 DUP2 LT ISZERO PUSH2 0xE30 JUMPI DUP2 MLOAD PUSH2 0xE17 DUP9 DUP3 PUSH2 0xDBA JUMP JUMPDEST SWAP8 POP PUSH2 0xE22 DUP4 PUSH2 0xDD2 JUMP JUMPDEST SWAP3 POP POP PUSH1 0x1 DUP2 ADD SWAP1 POP PUSH2 0xE03 JUMP JUMPDEST POP DUP6 SWAP4 POP POP POP POP SWAP3 SWAP2 POP POP JUMP JUMPDEST PUSH1 0x0 PUSH1 0x40 DUP3 ADD SWAP1 POP DUP2 DUP2 SUB PUSH1 0x0 DUP4 ADD MSTORE PUSH2 0xE57 DUP2 DUP6 PUSH2 0xD0A JUMP JUMPDEST SWAP1 POP DUP2 DUP2 SUB PUSH1 0x20 DUP4 ADD MSTORE PUSH2 0xE6B DUP2 DUP5 PUSH2 0xDDF JUMP JUMPDEST SWAP1 POP SWAP4 SWAP3 POP POP POP JUMP JUMPDEST PUSH1 0x0 PUSH20 0xFFFFFFFFFFFFFFFFFFFFFFFFFFFFFFFFFFFFFFFF DUP3 AND SWAP1 POP SWAP2 SWAP1 POP JUMP JUMPDEST PUSH1 0x0 PUSH2 0xE9F DUP3 PUSH2 0xE74 JUMP JUMPDEST SWAP1 POP SWAP2 SWAP1 POP JUMP JUMPDEST PUSH2 0xEAF DUP2 PUSH2 0xE94 JUMP JUMPDEST DUP3 MSTORE POP POP JUMP JUMPDEST PUSH1 0x0 PUSH1 0x20 DUP3 ADD SWAP1 POP PUSH2 0xECA PUSH1 0x0 DUP4 ADD DUP5 PUSH2 0xEA6 JUMP JUMPDEST SWAP3 SWAP2 POP POP JUMP JUMPDEST PUSH2 0xED9 DUP2 PUSH2 0xE94 JUMP JUMPDEST DUP2 EQ PUSH2 0xEE4 JUMPI PUSH1 0x0 DUP1 REVERT JUMPDEST POP JUMP JUMPDEST PUSH1 0x0 DUP2 CALLDATALOAD SWAP1 POP PUSH2 0xEF6 DUP2 PUSH2 0xED0 JUMP JUMPDEST SWAP3 SWAP2 POP POP JUMP JUMPDEST PUSH1 0x0 PUSH1 0x20 DUP3 DUP5 SUB SLT ISZERO PUSH2 0xF12 JUMPI PUSH2 0xF11 PUSH2 0x99E JUMP JUMPDEST JUMPDEST PUSH1 0x0 PUSH2 0xF20 DUP5 DUP3 DUP6 ADD PUSH2 0xEE7 JUMP JUMPDEST SWAP2 POP POP SWAP3 SWAP2 POP POP JUMP JUMPDEST PUSH32 0x4E487B7100000000000000000000000000000000000000000000000000000000 PUSH1 0x0 MSTORE PUSH1 0x22 PUSH1 0x4 MSTORE PUSH1 0x24 PUSH1 0x0 REVERT JUMPDEST PUSH1 0x0 PUSH1 0x2 DUP3 DIV SWAP1 POP PUSH1 0x1 DUP3 AND DUP1 PUSH2 0xF70 JUMPI PUSH1 0x7F DUP3 AND SWAP2 POP JUMPDEST PUSH1 0x20 DUP3 LT DUP2 SUB PUSH2 0xF83 JUMPI PUSH2 0xF82 PUSH2 0xF29 JUMP JUMPDEST JUMPDEST POP SWAP2 SWAP1 POP JUMP JUMPDEST PUSH1 0x0 DUP2 SWAP1 POP SWAP3 SWAP2 POP POP JUMP JUMPDEST PUSH1 0x0 PUSH2 0xF9F DUP3 PUSH2 0xA0B JUMP JUMPDEST PUSH2 0xFA9 DUP2 DUP6 PUSH2 0xF89 JUMP JUMPDEST SWAP4 POP PUSH2 0xFB9 DUP2 DUP6 PUSH1 0x20 DUP7 ADD PUSH2 0xA27 JUMP JUMPDEST DUP1 DUP5 ADD SWAP2 POP POP SWAP3 SWAP2 POP POP JUMP JUMPDEST PUSH1 0x0 PUSH2 0xFD1 DUP3 DUP5 PUSH2 0xF94 JUMP JUMPDEST SWAP2 POP DUP2 SWAP1 POP SWAP3 SWAP2 POP POP JUMP JUMPDEST PUSH32 0x64617461206E6F7420666F756E6420696E20746865206C656467657200000000 PUSH1 0x0 DUP3 ADD MSTORE POP JUMP JUMPDEST PUSH1 0x0 PUSH2 0x1012 PUSH1 0x1C DUP4 PUSH2 0xA16 JUMP JUMPDEST SWAP2 POP PUSH2 0x101D DUP3 PUSH2 0xFDC JUMP JUMPDEST PUSH1 0x20 DUP3 ADD SWAP1 POP SWAP2 SWAP1 POP JUMP JUMPDEST PUSH1 0x0 PUSH1 0x20 DUP3 ADD SWAP1 POP DUP2 DUP2 SUB PUSH1 0x0 DUP4 ADD MSTORE PUSH2 0x1041 DUP2 PUSH2 0x1005 JUMP JUMPDEST SWAP1 POP SWAP2 SWAP1 POP JUMP JUMPDEST PUSH32 0x4F776E61626C653A2063616C6C6572206973206E6F7420746865206F776E6572 PUSH1 0x0 DUP3 ADD MSTORE POP JUMP JUMPDEST PUSH1 0x0 PUSH2 0x107E PUSH1 0x20 DUP4 PUSH2 0xA16 JUMP JUMPDEST SWAP2 POP PUSH2 0x1089 DUP3 PUSH2 0x1048 JUMP JUMPDEST PUSH1 0x20 DUP3 ADD SWAP1 POP SWAP2 SWAP1 POP JUMP JUMPDEST PUSH1 0x0 PUSH1 0x20 DUP3 ADD SWAP1 POP DUP2 DUP2 SUB PUSH1 0x0 DUP4 ADD MSTORE PUSH2 0x10AD DUP2 PUSH2 0x1071 JUMP JUMPDEST SWAP1 POP SWAP2 SWAP1 POP JUMP JUMPDEST PUSH32 0x4461746120616C72656164792065786973747320696E20746865206C65646765 PUSH1 0x0 DUP3 ADD MSTORE PUSH32 0x7200000000000000000000000000000000000000000000000000000000000000 PUSH1 0x20 DUP3 ADD MSTORE POP JUMP JUMPDEST PUSH1 0x0 PUSH2 0x1110 PUSH1 0x21 DUP4 PUSH2 0xA16 JUMP JUMPDEST SWAP2 POP PUSH2 0x111B DUP3 PUSH2 0x10B4 JUMP JUMPDEST PUSH1 0x40 DUP3 ADD SWAP1 POP SWAP2 SWAP1 POP JUMP JUMPDEST PUSH1 0x0 PUSH1 0x20 DUP3 ADD SWAP1 POP DUP2 DUP2 SUB PUSH1 0x0 DUP4 ADD MSTORE PUSH2 0x113F DUP2 PUSH2 0x1103 JUMP JUMPDEST SWAP1 POP SWAP2 SWAP1 POP JUMP JUMPDEST PUSH1 0x0 DUP2 SWAP1 POP DUP2 PUSH1 0x0 MSTORE PUSH1 0x20 PUSH1 0x0 KECCAK256 SWAP1 POP SWAP2 SWAP1 POP JUMP JUMPDEST PUSH1 0x0 PUSH1 0x20 PUSH1 0x1F DUP4 ADD DIV SWAP1 POP SWAP2 SWAP1 POP JUMP JUMPDEST PUSH1 0x0 DUP3 DUP3 SHL SWAP1 POP SWAP3 SWAP2 POP POP JUMP JUMPDEST PUSH1 0x0 PUSH1 0x8 DUP4 MUL PUSH2 0x11A8 PUSH32 0xFFFFFFFFFFFFFFFFFFFFFFFFFFFFFFFFFFFFFFFFFFFFFFFFFFFFFFFFFFFFFFFF DUP3 PUSH2 0x116B JUMP JUMPDEST PUSH2 0x11B2 DUP7 DUP4 PUSH2 0x116B JUMP JUMPDEST SWAP6 POP DUP1 NOT DUP5 AND SWAP4 POP DUP1 DUP7 AND DUP5 OR SWAP3 POP POP POP SWAP4 SWAP3 POP POP POP JUMP JUMPDEST PUSH1 0x0 DUP2 SWAP1 POP SWAP2 SWAP1 POP JUMP JUMPDEST PUSH1 0x0 PUSH2 0x11EF PUSH2 0x11EA PUSH2 0x11E5 DUP5 PUSH2 0x9A8 JUMP JUMPDEST PUSH2 0x11CA JUMP JUMPDEST PUSH2 0x9A8 JUMP JUMPDEST SWAP1 POP SWAP2 SWAP1 POP JUMP JUMPDEST PUSH1 0x0 DUP2 SWAP1 POP SWAP2 SWAP1 POP JUMP JUMPDEST PUSH2 0x1209 DUP4 PUSH2 0x11D4 JUMP JUMPDEST PUSH2 0x121D PUSH2 0x1215 DUP3 PUSH2 0x11F6 JUMP JUMPDEST DUP5 DUP5 SLOAD PUSH2 0x1178 JUMP JUMPDEST DUP3 SSTORE POP POP POP POP JUMP JUMPDEST PUSH1 0x0 SWAP1 JUMP JUMPDEST PUSH2 0x1232 PUSH2 0x1225 JUMP JUMPDEST PUSH2 0x123D DUP2 DUP5 DUP5 PUSH2 0x1200 JUMP JUMPDEST POP POP POP JUMP JUMPDEST JUMPDEST DUP2 DUP2 LT ISZERO PUSH2 0x1261 JUMPI PUSH2 0x1256 PUSH1 0x0 DUP3 PUSH2 0x122A JUMP JUMPDEST PUSH1 0x1 DUP2 ADD SWAP1 POP PUSH2 0x1243 JUMP JUMPDEST POP POP JUMP JUMPDEST PUSH1 0x1F DUP3 GT ISZERO PUSH2 0x12A6 JUMPI PUSH2 0x1277 DUP2 PUSH2 0x1146 JUMP JUMPDEST PUSH2 0x1280 DUP5 PUSH2 0x115B JUMP JUMPDEST DUP2 ADD PUSH1 0x20 DUP6 LT ISZERO PUSH2 0x128F JUMPI DUP2 SWAP1 POP JUMPDEST PUSH2 0x12A3 PUSH2 0x129B DUP6 PUSH2 0x115B JUMP JUMPDEST DUP4 ADD DUP3 PUSH2 0x1242 JUMP JUMPDEST POP POP JUMPDEST POP POP POP JUMP JUMPDEST PUSH1 0x0 DUP3 DUP3 SHR SWAP1 POP SWAP3 SWAP2 POP POP JUMP JUMPDEST PUSH1 0x0 PUSH2 0x12C9 PUSH1 0x0 NOT DUP5 PUSH1 0x8 MUL PUSH2 0x12AB JUMP JUMPDEST NOT DUP1 DUP4 AND SWAP2 POP POP SWAP3 SWAP2 POP POP JUMP JUMPDEST PUSH1 0x0 PUSH2 0x12E2 DUP4 DUP4 PUSH2 0x12B8 JUMP JUMPDEST SWAP2 POP DUP3 PUSH1 0x2 MUL DUP3 OR SWAP1 POP SWAP3 SWAP2 POP POP JUMP JUMPDEST PUSH2 0x12FB DUP3 PUSH2 0xA0B JUMP JUMPDEST PUSH8 0xFFFFFFFFFFFFFFFF DUP2 GT ISZERO PUSH2 0x1314 JUMPI PUSH2 0x1313 PUSH2 0xAE4 JUMP JUMPDEST JUMPDEST PUSH2 0x131E DUP3 SLOAD PUSH2 0xF58 JUMP JUMPDEST PUSH2 0x1329 DUP3 DUP3 DUP6 PUSH2 0x1265 JUMP JUMPDEST PUSH1 0x0 PUSH1 0x20 SWAP1 POP PUSH1 0x1F DUP4 GT PUSH1 0x1 DUP2 EQ PUSH2 0x135C JUMPI PUSH1 0x0 DUP5 ISZERO PUSH2 0x134A JUMPI DUP3 DUP8 ADD MLOAD SWAP1 POP JUMPDEST PUSH2 0x1354 DUP6 DUP3 PUSH2 0x12D6 JUMP JUMPDEST DUP7 SSTORE POP PUSH2 0x13BC JUMP JUMPDEST PUSH1 0x1F NOT DUP5 AND PUSH2 0x136A DUP7 PUSH2 0x1146 JUMP JUMPDEST PUSH1 0x0 JUMPDEST DUP3 DUP2 LT ISZERO PUSH2 0x1392 JUMPI DUP5 DUP10 ADD MLOAD DUP3 SSTORE PUSH1 0x1 DUP3 ADD SWAP2 POP PUSH1 0x20 DUP6 ADD SWAP5 POP PUSH1 0x20 DUP2 ADD SWAP1 POP PUSH2 0x136D JUMP JUMPDEST DUP7 DUP4 LT ISZERO PUSH2 0x13AF JUMPI DUP5 DUP10 ADD MLOAD PUSH2 0x13AB PUSH1 0x1F DUP10 AND DUP3 PUSH2 0x12B8 JUMP JUMPDEST DUP4 SSTORE POP JUMPDEST PUSH1 0x1 PUSH1 0x2 DUP9 MUL ADD DUP9 SSTORE POP POP POP JUMPDEST POP POP POP POP POP POP JUMP JUMPDEST PUSH32 0x4E487B7100000000000000000000000000000000000000000000000000000000 PUSH1 0x0 MSTORE PUSH1 0x32 PUSH1 0x4 MSTORE PUSH1 0x24 PUSH1 0x0 REVERT JUMPDEST PUSH32 0x4E487B7100000000000000000000000000000000000000000000000000000000 PUSH1 0x0 MSTORE PUSH1 0x11 PUSH1 0x4 MSTORE PUSH1 0x24 PUSH1 0x0 REVERT JUMPDEST PUSH1 0x0 PUSH2 0x142D DUP3 PUSH2 0x9A8 JUMP JUMPDEST SWAP2 POP PUSH32 0xFFFFFFFFFFFFFFFFFFFFFFFFFFFFFFFFFFFFFFFFFFFFFFFFFFFFFFFFFFFFFFFF DUP3 SUB PUSH2 0x145F JUMPI PUSH2 0x145E PUSH2 0x13F3 JUMP JUMPDEST JUMPDEST PUSH1 0x1 DUP3 ADD SWAP1 POP SWAP2 SWAP1 POP JUMP JUMPDEST PUSH32 0x4F776E61626C653A206E6577206F776E657220697320746865207A65726F2061 PUSH1 0x0 DUP3 ADD MSTORE PUSH32 0x6464726573730000000000000000000000000000000000000000000000000000 PUSH1 0x20 DUP3 ADD MSTORE POP JUMP JUMPDEST PUSH1 0x0 PUSH2 0x14C6 PUSH1 0x26 DUP4 PUSH2 0xA16 JUMP JUMPDEST SWAP2 POP PUSH2 0x14D1 DUP3 PUSH2 0x146A JUMP JUMPDEST PUSH1 0x40 DUP3 ADD SWAP1 POP SWAP2 SWAP1 POP JUMP JUMPDEST PUSH1 0x0 PUSH1 0x20 DUP3 ADD SWAP1 POP DUP2 DUP2 SUB PUSH1 0x0 DUP4 ADD MSTORE PUSH2 0x14F5 DUP2 PUSH2 0x14B9 JUMP JUMPDEST SWAP1 POP SWAP2 SWAP1 POP JUMP INVALID LOG2 PUSH5 0x6970667358 0x22 SLT KECCAK256 0xB7 PUSH15 0x97AC4C78D8338DAAB93BC3593809F5 0xE7 0xD9 0x2B 0xDC DUP4 ADDRESS 0xE9 PUSH18 0xC15935960B10AE64736F6C63430008150033 "
				},
				"gasEstimates": {
					"creation": {
						"codeDepositCost": "1085200",
						"executionCost": "infinite",
						"totalCost": "infinite"
					},
					"external": {
						"MasterChannelDataToRecord(string)": "infinite",
						"addMasterChannelRecord(string)": "infinite",
						"getAllData()": "infinite",
						"getTimestampForHash(string)": "infinite",
						"ledger(uint256)": "infinite",
						"owner()": "2566",
						"renounceOwnership()": "30396",
						"transferOwnership(address)": "30786"
					}
				},
				"methodIdentifiers": {
					"MasterChannelDataToRecord(string)": "69cea776",
					"addMasterChannelRecord(string)": "2bf63377",
					"getAllData()": "2d10fa28",
					"getTimestampForHash(string)": "1a659899",
					"ledger(uint256)": "10a7fd7b",
					"owner()": "8da5cb5b",
					"renounceOwnership()": "715018a6",
					"transferOwnership(address)": "f2fde38b"
				}
			},
			"storageLayout": {
				"storage": [
					{
						"astId": 7,
						"contract": "contracts/c.sol:MasterChannelLedger",
						"label": "_owner",
						"offset": 0,
						"slot": "0",
						"type": "t_address"
					},
					{
						"astId": 140,
						"contract": "contracts/c.sol:MasterChannelLedger",
						"label": "ledger",
						"offset": 0,
						"slot": "1",
						"type": "t_array(t_struct(MasterChannelRecord)136_storage)dyn_storage"
					},
					{
						"astId": 145,
						"contract": "contracts/c.sol:MasterChannelLedger",
						"label": "MasterChannelDataToRecord",
						"offset": 0,
						"slot": "2",
						"type": "t_mapping(t_string_memory_ptr,t_struct(MasterChannelRecord)136_storage)"
					}
				],
				"types": {
					"t_address": {
						"encoding": "inplace",
						"label": "address",
						"numberOfBytes": "20"
					},
					"t_array(t_struct(MasterChannelRecord)136_storage)dyn_storage": {
						"base": "t_struct(MasterChannelRecord)136_storage",
						"encoding": "dynamic_array",
						"label": "struct MasterChannelLedger.MasterChannelRecord[]",
						"numberOfBytes": "32"
					},
					"t_mapping(t_string_memory_ptr,t_struct(MasterChannelRecord)136_storage)": {
						"encoding": "mapping",
						"key": "t_string_memory_ptr",
						"label": "mapping(string => struct MasterChannelLedger.MasterChannelRecord)",
						"numberOfBytes": "32",
						"value": "t_struct(MasterChannelRecord)136_storage"
					},
					"t_string_memory_ptr": {
						"encoding": "bytes",
						"label": "string",
						"numberOfBytes": "32"
					},
					"t_string_storage": {
						"encoding": "bytes",
						"label": "string",
						"numberOfBytes": "32"
					},
					"t_struct(MasterChannelRecord)136_storage": {
						"encoding": "inplace",
						"label": "struct MasterChannelLedger.MasterChannelRecord",
						"members": [
							{
								"astId": 133,
								"contract": "contracts/c.sol:MasterChannelLedger",
								"label": "data",
								"offset": 0,
								"slot": "0",
								"type": "t_string_storage"
							},
							{
								"astId": 135,
								"contract": "contracts/c.sol:MasterChannelLedger",
								"label": "timestamp",
								"offset": 0,
								"slot": "1",
								"type": "t_uint256"
							}
						],
						"numberOfBytes": "64"
					},
					"t_uint256": {
						"encoding": "inplace",
						"label": "uint256",
						"numberOfBytes": "32"
					}
				}
			},
			"userdoc": {
				"kind": "user",
				"methods": {},
				"version": 1
			}
		}
	}
}